V|1.1|
M|1|0|A|I|20110224-06:30:45.532|90|8=FIX.4.2|9=68|35=A|34=1|49=BGIUK|52=20110224-06:30:43|56=ABN|57=ADMIN|98=0|108=50|10=136||0|
M|2|0|1|I|20110224-06:30:45.573|100|8=FIX.4.2|9=78|35=1|34=2|49=BGIUK|52=20110224-06:30:45|56=ABN|57=ADMIN|112=1298529045.553152|10=163||0|
M|3|0|0|I|20110224-06:30:45.604|89|8=FIX.4.2|9=67|35=0|34=3|49=BGIUK|52=20110224-06:30:45|56=ABN|57=ADMIN|112=STBL-2|10=197||0|
M|4|0|0|I|20110224-06:31:34.145|78|8=FIX.4.2|9=56|35=0|34=4|49=BGIUK|52=20110224-06:31:34|56=ABN|57=ADMIN|10=093||0|
M|5|0|0|I|20110224-06:32:23.197|78|8=FIX.4.2|9=56|35=0|34=5|49=BGIUK|52=20110224-06:32:23|56=ABN|57=ADMIN|10=093||0|
M|6|0|0|I|20110224-06:33:12.324|78|8=FIX.4.2|9=56|35=0|34=6|49=BGIUK|52=20110224-06:33:12|56=ABN|57=ADMIN|10=093||0|
M|7|0|0|I|20110224-06:34:01.402|78|8=FIX.4.2|9=56|35=0|34=7|49=BGIUK|52=20110224-06:34:01|56=ABN|57=ADMIN|10=093||0|
M|8|0|0|I|20110224-06:34:50.519|78|8=FIX.4.2|9=56|35=0|34=8|49=BGIUK|52=20110224-06:34:50|56=ABN|57=ADMIN|10=098||0|
M|9|0|0|I|20110224-06:35:39.577|78|8=FIX.4.2|9=56|35=0|34=9|49=BGIUK|52=20110224-06:35:39|56=ABN|57=ADMIN|10=107||0|
M|10|0|0|I|20110224-06:36:28.155|79|8=FIX.4.2|9=57|35=0|34=10|49=BGIUK|52=20110224-06:36:28|56=ABN|57=ADMIN|10=147||0|
M|11|0|0|I|20110224-06:37:17.163|79|8=FIX.4.2|9=57|35=0|34=11|49=BGIUK|52=20110224-06:37:17|56=ABN|57=ADMIN|10=147||0|
M|12|0|0|I|20110224-06:38:06.173|79|8=FIX.4.2|9=57|35=0|34=12|49=BGIUK|52=20110224-06:38:06|56=ABN|57=ADMIN|10=147||0|
M|13|0|0|I|20110224-06:38:55.170|79|8=FIX.4.2|9=57|35=0|34=13|49=BGIUK|52=20110224-06:38:55|56=ABN|57=ADMIN|10=152||0|
M|14|0|0|I|20110224-06:39:44.846|79|8=FIX.4.2|9=57|35=0|34=14|49=BGIUK|52=20110224-06:39:44|56=ABN|57=ADMIN|10=152||0|
M|15|0|0|I|20110224-06:40:33.864|79|8=FIX.4.2|9=57|35=0|34=15|49=BGIUK|52=20110224-06:40:33|56=ABN|57=ADMIN|10=143||0|
M|16|0|0|I|20110224-06:41:22.291|79|8=FIX.4.2|9=57|35=0|34=16|49=BGIUK|52=20110224-06:41:22|56=ABN|57=ADMIN|10=143||0|
M|17|0|0|I|20110224-06:42:11.088|79|8=FIX.4.2|9=57|35=0|34=17|49=BGIUK|52=20110224-06:42:11|56=ABN|57=ADMIN|10=143||0|
M|18|0|0|I|20110224-06:43:00.946|79|8=FIX.4.2|9=57|35=0|34=18|49=BGIUK|52=20110224-06:43:00|56=ABN|57=ADMIN|10=143||0|
M|19|0|0|I|20110224-06:43:49.964|79|8=FIX.4.2|9=57|35=0|34=19|49=BGIUK|52=20110224-06:43:49|56=ABN|57=ADMIN|10=157||0|
M|20|0|0|I|20110224-06:44:38.422|79|8=FIX.4.2|9=57|35=0|34=20|49=BGIUK|52=20110224-06:44:38|56=ABN|57=ADMIN|10=148||0|
M|21|0|0|I|20110224-06:45:27.019|79|8=FIX.4.2|9=57|35=0|34=21|49=BGIUK|52=20110224-06:45:27|56=ABN|57=ADMIN|10=148||0|
M|22|0|0|I|20110224-06:46:16.049|79|8=FIX.4.2|9=57|35=0|34=22|49=BGIUK|52=20110224-06:46:16|56=ABN|57=ADMIN|10=148||0|
M|23|0|0|I|20110224-06:47:05.134|79|8=FIX.4.2|9=57|35=0|34=23|49=BGIUK|52=20110224-06:47:05|56=ABN|57=ADMIN|10=148||0|
M|24|0|0|I|20110224-06:47:54.222|79|8=FIX.4.2|9=57|35=0|34=24|49=BGIUK|52=20110224-06:47:54|56=ABN|57=ADMIN|10=153||0|
M|25|0|0|I|20110224-06:48:43.349|79|8=FIX.4.2|9=57|35=0|34=25|49=BGIUK|52=20110224-06:48:43|56=ABN|57=ADMIN|10=153||0|
M|26|0|0|I|20110224-06:49:32.442|79|8=FIX.4.2|9=57|35=0|34=26|49=BGIUK|52=20110224-06:49:32|56=ABN|57=ADMIN|10=153||0|
M|27|0|0|I|20110224-06:50:21.525|79|8=FIX.4.2|9=57|35=0|34=27|49=BGIUK|52=20110224-06:50:21|56=ABN|57=ADMIN|10=144||0|
M|28|0|0|I|20110224-06:51:10.613|79|8=FIX.4.2|9=57|35=0|34=28|49=BGIUK|52=20110224-06:51:10|56=ABN|57=ADMIN|10=144||0|
M|29|0|0|I|20110224-06:51:59.740|79|8=FIX.4.2|9=57|35=0|34=29|49=BGIUK|52=20110224-06:51:59|56=ABN|57=ADMIN|10=158||0|
M|30|0|0|I|20110224-06:52:48.048|79|8=FIX.4.2|9=57|35=0|34=30|49=BGIUK|52=20110224-06:52:48|56=ABN|57=ADMIN|10=149||0|
M|31|0|0|I|20110224-06:53:37.885|79|8=FIX.4.2|9=57|35=0|34=31|49=BGIUK|52=20110224-06:53:37|56=ABN|57=ADMIN|10=149||0|
M|32|0|0|I|20110224-06:54:26.873|79|8=FIX.4.2|9=57|35=0|34=32|49=BGIUK|52=20110224-06:54:26|56=ABN|57=ADMIN|10=149||0|
M|33|0|0|I|20110224-06:55:15.880|79|8=FIX.4.2|9=57|35=0|34=33|49=BGIUK|52=20110224-06:55:15|56=ABN|57=ADMIN|10=149||0|
M|34|0|0|I|20110224-06:56:04.428|79|8=FIX.4.2|9=57|35=0|34=34|49=BGIUK|52=20110224-06:56:04|56=ABN|57=ADMIN|10=149||0|
M|35|0|0|I|20110224-06:56:53.996|79|8=FIX.4.2|9=57|35=0|34=35|49=BGIUK|52=20110224-06:56:53|56=ABN|57=ADMIN|10=154||0|
M|36|0|0|I|20110224-06:57:42.412|79|8=FIX.4.2|9=57|35=0|34=36|49=BGIUK|52=20110224-06:57:42|56=ABN|57=ADMIN|10=154||0|
M|37|0|0|I|20110224-06:58:31.421|79|8=FIX.4.2|9=57|35=0|34=37|49=BGIUK|52=20110224-06:58:31|56=ABN|57=ADMIN|10=154||0|
M|38|0|0|I|20110224-06:59:20.891|79|8=FIX.4.2|9=57|35=0|34=38|49=BGIUK|52=20110224-06:59:20|56=ABN|57=ADMIN|10=154||0|
M|39|0|0|I|20110224-07:00:10.016|79|8=FIX.4.2|9=57|35=0|34=39|49=BGIUK|52=20110224-07:00:09|56=ABN|57=ADMIN|10=149||0|
M|40|0|0|I|20110224-07:00:59.174|79|8=FIX.4.2|9=57|35=0|34=40|49=BGIUK|52=20110224-07:00:59|56=ABN|57=ADMIN|10=146||0|
M|41|0|0|I|20110224-07:01:48.701|79|8=FIX.4.2|9=57|35=0|34=41|49=BGIUK|52=20110224-07:01:48|56=ABN|57=ADMIN|10=146||0|
M|42|0|0|I|20110224-07:02:37.449|79|8=FIX.4.2|9=57|35=0|34=42|49=BGIUK|52=20110224-07:02:37|56=ABN|57=ADMIN|10=146||0|
M|43|0|0|I|20110224-07:03:26.190|79|8=FIX.4.2|9=57|35=0|34=43|49=BGIUK|52=20110224-07:03:26|56=ABN|57=ADMIN|10=146||0|
M|44|0|0|I|20110224-07:04:15.554|79|8=FIX.4.2|9=57|35=0|34=44|49=BGIUK|52=20110224-07:04:15|56=ABN|57=ADMIN|10=146||0|
M|45|0|0|I|20110224-07:05:04.210|79|8=FIX.4.2|9=57|35=0|34=45|49=BGIUK|52=20110224-07:05:04|56=ABN|57=ADMIN|10=146||0|
M|46|0|0|I|20110224-07:05:53.760|79|8=FIX.4.2|9=57|35=0|34=46|49=BGIUK|52=20110224-07:05:53|56=ABN|57=ADMIN|10=151||0|
M|47|0|0|I|20110224-07:06:42.817|79|8=FIX.4.2|9=57|35=0|34=47|49=BGIUK|52=20110224-07:06:42|56=ABN|57=ADMIN|10=151||0|
M|48|0|0|I|20110224-07:07:31.854|79|8=FIX.4.2|9=57|35=0|34=48|49=BGIUK|52=20110224-07:07:31|56=ABN|57=ADMIN|10=151||0|
M|49|0|0|I|20110224-07:08:20.109|79|8=FIX.4.2|9=57|35=0|34=49|49=BGIUK|52=20110224-07:08:20|56=ABN|57=ADMIN|10=151||0|
M|50|0|0|I|20110224-07:09:09.200|79|8=FIX.4.2|9=57|35=0|34=50|49=BGIUK|52=20110224-07:09:09|56=ABN|57=ADMIN|10=151||0|
M|51|0|0|I|20110224-07:09:58.198|79|8=FIX.4.2|9=57|35=0|34=51|49=BGIUK|52=20110224-07:09:58|56=ABN|57=ADMIN|10=156||0|
M|52|0|0|I|20110224-07:10:47.201|79|8=FIX.4.2|9=57|35=0|34=52|49=BGIUK|52=20110224-07:10:47|56=ABN|57=ADMIN|10=147||0|
M|53|0|0|I|20110224-07:11:36.099|79|8=FIX.4.2|9=57|35=0|34=53|49=BGIUK|52=20110224-07:11:36|56=ABN|57=ADMIN|10=147||0|
M|54|0|0|I|20110224-07:12:25.109|79|8=FIX.4.2|9=57|35=0|34=54|49=BGIUK|52=20110224-07:12:25|56=ABN|57=ADMIN|10=147||0|
M|55|0|0|I|20110224-07:13:14.108|79|8=FIX.4.2|9=57|35=0|34=55|49=BGIUK|52=20110224-07:13:14|56=ABN|57=ADMIN|10=147||0|
M|56|0|0|I|20110224-07:14:03.111|79|8=FIX.4.2|9=57|35=0|34=56|49=BGIUK|52=20110224-07:14:03|56=ABN|57=ADMIN|10=147||0|
M|57|0|0|I|20110224-07:14:52.303|79|8=FIX.4.2|9=57|35=0|34=57|49=BGIUK|52=20110224-07:14:52|56=ABN|57=ADMIN|10=152||0|
M|58|0|0|I|20110224-07:15:41.340|79|8=FIX.4.2|9=57|35=0|34=58|49=BGIUK|52=20110224-07:15:41|56=ABN|57=ADMIN|10=152||0|
M|59|0|0|I|20110224-07:16:30.048|79|8=FIX.4.2|9=57|35=0|34=59|49=BGIUK|52=20110224-07:16:30|56=ABN|57=ADMIN|10=152||0|
M|60|0|0|I|20110224-07:17:19.158|79|8=FIX.4.2|9=57|35=0|34=60|49=BGIUK|52=20110224-07:17:19|56=ABN|57=ADMIN|10=152||0|
M|61|0|0|I|20110224-07:18:08.353|79|8=FIX.4.2|9=57|35=0|34=61|49=BGIUK|52=20110224-07:18:08|56=ABN|57=ADMIN|10=152||0|
M|62|0|0|I|20110224-07:18:57.571|79|8=FIX.4.2|9=57|35=0|34=62|49=BGIUK|52=20110224-07:18:57|56=ABN|57=ADMIN|10=157||0|
M|63|0|0|I|20110224-07:19:46.819|79|8=FIX.4.2|9=57|35=0|34=63|49=BGIUK|52=20110224-07:19:46|56=ABN|57=ADMIN|10=157||0|
M|64|0|0|I|20110224-07:20:35.997|79|8=FIX.4.2|9=57|35=0|34=64|49=BGIUK|52=20110224-07:20:35|56=ABN|57=ADMIN|10=148||0|
M|65|0|0|I|20110224-07:21:24.059|79|8=FIX.4.2|9=57|35=0|34=65|49=BGIUK|52=20110224-07:21:24|56=ABN|57=ADMIN|10=148||0|
M|66|0|0|I|20110224-07:22:13.562|79|8=FIX.4.2|9=57|35=0|34=66|49=BGIUK|52=20110224-07:22:13|56=ABN|57=ADMIN|10=148||0|
M|67|0|0|I|20110224-07:23:02.731|79|8=FIX.4.2|9=57|35=0|34=67|49=BGIUK|52=20110224-07:23:02|56=ABN|57=ADMIN|10=148||0|
M|68|0|0|I|20110224-07:23:51.497|79|8=FIX.4.2|9=57|35=0|34=68|49=BGIUK|52=20110224-07:23:51|56=ABN|57=ADMIN|10=153||0|
M|69|0|0|I|20110224-07:24:40.254|79|8=FIX.4.2|9=57|35=0|34=69|49=BGIUK|52=20110224-07:24:40|56=ABN|57=ADMIN|10=153||0|
M|70|0|0|I|20110224-07:25:29.217|79|8=FIX.4.2|9=57|35=0|34=70|49=BGIUK|52=20110224-07:25:29|56=ABN|57=ADMIN|10=153||0|
M|71|0|0|I|20110224-07:26:18.820|79|8=FIX.4.2|9=57|35=0|34=71|49=BGIUK|52=20110224-07:26:18|56=ABN|57=ADMIN|10=153||0|
M|72|0|0|I|20110224-07:27:07.048|79|8=FIX.4.2|9=57|35=0|34=72|49=BGIUK|52=20110224-07:27:07|56=ABN|57=ADMIN|10=153||0|
M|73|0|0|I|20110224-07:27:56.095|79|8=FIX.4.2|9=57|35=0|34=73|49=BGIUK|52=20110224-07:27:56|56=ABN|57=ADMIN|10=158||0|
M|74|0|0|I|20110224-07:28:45.473|79|8=FIX.4.2|9=57|35=0|34=74|49=BGIUK|52=20110224-07:28:45|56=ABN|57=ADMIN|10=158||0|
M|75|0|0|I|20110224-07:29:34.940|79|8=FIX.4.2|9=57|35=0|34=75|49=BGIUK|52=20110224-07:29:34|56=ABN|57=ADMIN|10=158||0|
M|76|0|0|I|20110224-07:30:23.452|79|8=FIX.4.2|9=57|35=0|34=76|49=BGIUK|52=20110224-07:30:23|56=ABN|57=ADMIN|10=149||0|
M|77|0|0|I|20110224-07:31:12.526|79|8=FIX.4.2|9=57|35=0|34=77|49=BGIUK|52=20110224-07:31:12|56=ABN|57=ADMIN|10=149||0|
M|78|0|0|I|20110224-07:32:01.464|79|8=FIX.4.2|9=57|35=0|34=78|49=BGIUK|52=20110224-07:32:01|56=ABN|57=ADMIN|10=149||0|
M|79|0|0|I|20110224-07:32:50.631|79|8=FIX.4.2|9=57|35=0|34=79|49=BGIUK|52=20110224-07:32:50|56=ABN|57=ADMIN|10=154||0|
M|80|0|0|I|20110224-07:33:39.458|79|8=FIX.4.2|9=57|35=0|34=80|49=BGIUK|52=20110224-07:33:39|56=ABN|57=ADMIN|10=154||0|
M|81|0|0|I|20110224-07:34:28.093|79|8=FIX.4.2|9=57|35=0|34=81|49=BGIUK|52=20110224-07:34:28|56=ABN|57=ADMIN|10=154||0|
M|82|0|0|I|20110224-07:35:17.064|79|8=FIX.4.2|9=57|35=0|34=82|49=BGIUK|52=20110224-07:35:17|56=ABN|57=ADMIN|10=154||0|
M|83|0|0|I|20110224-07:36:06.059|79|8=FIX.4.2|9=57|35=0|34=83|49=BGIUK|52=20110224-07:36:06|56=ABN|57=ADMIN|10=154||0|
M|84|0|0|I|20110224-07:36:55.909|79|8=FIX.4.2|9=57|35=0|34=84|49=BGIUK|52=20110224-07:36:55|56=ABN|57=ADMIN|10=159||0|
M|85|0|0|I|20110224-07:37:44.776|79|8=FIX.4.2|9=57|35=0|34=85|49=BGIUK|52=20110224-07:37:44|56=ABN|57=ADMIN|10=159||0|
M|86|0|0|I|20110224-07:38:33.944|79|8=FIX.4.2|9=57|35=0|34=86|49=BGIUK|52=20110224-07:38:33|56=ABN|57=ADMIN|10=159||0|
M|87|0|0|I|20110224-07:39:22.413|79|8=FIX.4.2|9=57|35=0|34=87|49=BGIUK|52=20110224-07:39:22|56=ABN|57=ADMIN|10=159||0|
M|88|0|0|I|20110224-07:40:11.285|79|8=FIX.4.2|9=57|35=0|34=88|49=BGIUK|52=20110224-07:40:11|56=ABN|57=ADMIN|10=150||0|
M|89|0|0|I|20110224-07:41:00.623|79|8=FIX.4.2|9=57|35=0|34=89|49=BGIUK|52=20110224-07:41:00|56=ABN|57=ADMIN|10=150||0|
M|90|0|0|I|20110224-07:41:49.235|79|8=FIX.4.2|9=57|35=0|34=90|49=BGIUK|52=20110224-07:41:49|56=ABN|57=ADMIN|10=155||0|
M|91|0|0|I|20110224-07:42:38.056|79|8=FIX.4.2|9=57|35=0|34=91|49=BGIUK|52=20110224-07:42:38|56=ABN|57=ADMIN|10=155||0|
M|92|0|0|I|20110224-07:43:27.350|79|8=FIX.4.2|9=57|35=0|34=92|49=BGIUK|52=20110224-07:43:27|56=ABN|57=ADMIN|10=155||0|
M|93|0|0|I|20110224-07:44:16.258|79|8=FIX.4.2|9=57|35=0|34=93|49=BGIUK|52=20110224-07:44:16|56=ABN|57=ADMIN|10=155||0|
M|94|0|0|I|20110224-07:45:05.995|79|8=FIX.4.2|9=57|35=0|34=94|49=BGIUK|52=20110224-07:45:05|56=ABN|57=ADMIN|10=155||0|
M|95|0|0|I|20110224-07:45:54.617|79|8=FIX.4.2|9=57|35=0|34=95|49=BGIUK|52=20110224-07:45:54|56=ABN|57=ADMIN|10=160||0|
M|96|0|0|I|20110224-07:46:43.815|79|8=FIX.4.2|9=57|35=0|34=96|49=BGIUK|52=20110224-07:46:43|56=ABN|57=ADMIN|10=160||0|
M|97|0|0|I|20110224-07:47:32.574|79|8=FIX.4.2|9=57|35=0|34=97|49=BGIUK|52=20110224-07:47:32|56=ABN|57=ADMIN|10=160||0|
M|98|0|0|I|20110224-07:48:21.615|79|8=FIX.4.2|9=57|35=0|34=98|49=BGIUK|52=20110224-07:48:21|56=ABN|57=ADMIN|10=160||0|
M|99|0|0|I|20110224-07:49:10.105|79|8=FIX.4.2|9=57|35=0|34=99|49=BGIUK|52=20110224-07:49:10|56=ABN|57=ADMIN|10=160||0|
M|100|0|0|I|20110224-07:49:59.910|80|8=FIX.4.2|9=58|35=0|34=100|49=BGIUK|52=20110224-07:49:59|56=ABN|57=ADMIN|10=205||0|
M|101|0|0|I|20110224-07:50:48.070|80|8=FIX.4.2|9=58|35=0|34=101|49=BGIUK|52=20110224-07:50:48|56=ABN|57=ADMIN|10=196||0|
M|102|0|0|I|20110224-07:51:37.108|80|8=FIX.4.2|9=58|35=0|34=102|49=BGIUK|52=20110224-07:51:37|56=ABN|57=ADMIN|10=196||0|
M|103|0|0|I|20110224-07:52:26.143|80|8=FIX.4.2|9=58|35=0|34=103|49=BGIUK|52=20110224-07:52:26|56=ABN|57=ADMIN|10=196||0|
M|104|0|0|I|20110224-07:53:15.129|80|8=FIX.4.2|9=58|35=0|34=104|49=BGIUK|52=20110224-07:53:15|56=ABN|57=ADMIN|10=196||0|
M|105|0|0|I|20110224-07:54:04.149|80|8=FIX.4.2|9=58|35=0|34=105|49=BGIUK|52=20110224-07:54:04|56=ABN|57=ADMIN|10=196||0|
M|106|0|0|I|20110224-07:54:53.325|80|8=FIX.4.2|9=58|35=0|34=106|49=BGIUK|52=20110224-07:54:53|56=ABN|57=ADMIN|10=201||0|
M|107|0|0|I|20110224-07:55:42.194|80|8=FIX.4.2|9=58|35=0|34=107|49=BGIUK|52=20110224-07:55:42|56=ABN|57=ADMIN|10=201||0|
M|108|0|0|I|20110224-07:56:31.311|80|8=FIX.4.2|9=58|35=0|34=108|49=BGIUK|52=20110224-07:56:31|56=ABN|57=ADMIN|10=201||0|
M|109|0|0|I|20110224-07:57:20.306|80|8=FIX.4.2|9=58|35=0|34=109|49=BGIUK|52=20110224-07:57:20|56=ABN|57=ADMIN|10=201||0|
M|110|0|0|I|20110224-07:58:09.106|80|8=FIX.4.2|9=58|35=0|34=110|49=BGIUK|52=20110224-07:58:09|56=ABN|57=ADMIN|10=201||0|
M|111|0|0|I|20110224-07:58:58.115|80|8=FIX.4.2|9=58|35=0|34=111|49=BGIUK|52=20110224-07:58:58|56=ABN|57=ADMIN|10=206||0|
M|112|0|0|I|20110224-07:59:47.896|80|8=FIX.4.2|9=58|35=0|34=112|49=BGIUK|52=20110224-07:59:47|56=ABN|57=ADMIN|10=206||0|
M|113|0|0|I|20110224-08:00:36.334|80|8=FIX.4.2|9=58|35=0|34=113|49=BGIUK|52=20110224-08:00:36|56=ABN|57=ADMIN|10=192||0|
M|114|0|0|I|20110224-08:01:25.828|80|8=FIX.4.2|9=58|35=0|34=114|49=BGIUK|52=20110224-08:01:25|56=ABN|57=ADMIN|10=192||0|
M|115|0|0|I|20110224-08:02:14.090|80|8=FIX.4.2|9=58|35=0|34=115|49=BGIUK|52=20110224-08:02:14|56=ABN|57=ADMIN|10=192||0|
M|116|0|0|I|20110224-08:03:03.335|80|8=FIX.4.2|9=58|35=0|34=116|49=BGIUK|52=20110224-08:03:03|56=ABN|57=ADMIN|10=192||0|
M|117|0|0|I|20110224-08:03:52.749|80|8=FIX.4.2|9=58|35=0|34=117|49=BGIUK|52=20110224-08:03:52|56=ABN|57=ADMIN|10=197||0|
M|118|0|0|I|20110224-08:04:41.053|80|8=FIX.4.2|9=58|35=0|34=118|49=BGIUK|52=20110224-08:04:41|56=ABN|57=ADMIN|10=197||0|
M|119|0|0|I|20110224-08:05:30.392|80|8=FIX.4.2|9=58|35=0|34=119|49=BGIUK|52=20110224-08:05:30|56=ABN|57=ADMIN|10=197||0|
M|120|0|0|I|20110224-08:06:19.366|80|8=FIX.4.2|9=58|35=0|34=120|49=BGIUK|52=20110224-08:06:19|56=ABN|57=ADMIN|10=197||0|
M|121|0|0|I|20110224-08:07:08.594|80|8=FIX.4.2|9=58|35=0|34=121|49=BGIUK|52=20110224-08:07:08|56=ABN|57=ADMIN|10=197||0|
M|122|0|0|I|20110224-08:07:57.591|80|8=FIX.4.2|9=58|35=0|34=122|49=BGIUK|52=20110224-08:07:57|56=ABN|57=ADMIN|10=202||0|
M|123|0|0|I|20110224-08:08:46.534|80|8=FIX.4.2|9=58|35=0|34=123|49=BGIUK|52=20110224-08:08:46|56=ABN|57=ADMIN|10=202||0|
M|124|0|0|I|20110224-08:09:35.167|80|8=FIX.4.2|9=58|35=0|34=124|49=BGIUK|52=20110224-08:09:35|56=ABN|57=ADMIN|10=202||0|
M|125|0|0|I|20110224-08:10:24.093|80|8=FIX.4.2|9=58|35=0|34=125|49=BGIUK|52=20110224-08:10:24|56=ABN|57=ADMIN|10=193||0|
M|126|0|0|I|20110224-08:11:13.110|80|8=FIX.4.2|9=58|35=0|34=126|49=BGIUK|52=20110224-08:11:13|56=ABN|57=ADMIN|10=193||0|
M|127|0|0|I|20110224-08:12:02.447|80|8=FIX.4.2|9=58|35=0|34=127|49=BGIUK|52=20110224-08:12:02|56=ABN|57=ADMIN|10=193||0|
M|128|0|0|I|20110224-08:12:51.197|80|8=FIX.4.2|9=58|35=0|34=128|49=BGIUK|52=20110224-08:12:51|56=ABN|57=ADMIN|10=198||0|
M|129|0|0|I|20110224-08:13:40.237|80|8=FIX.4.2|9=58|35=0|34=129|49=BGIUK|52=20110224-08:13:40|56=ABN|57=ADMIN|10=198||0|
M|130|0|0|I|20110224-08:14:29.481|80|8=FIX.4.2|9=58|35=0|34=130|49=BGIUK|52=20110224-08:14:29|56=ABN|57=ADMIN|10=198||0|
M|131|0|0|I|20110224-08:15:18.064|80|8=FIX.4.2|9=58|35=0|34=131|49=BGIUK|52=20110224-08:15:18|56=ABN|57=ADMIN|10=198||0|
M|132|0|0|I|20110224-08:16:07.165|80|8=FIX.4.2|9=58|35=0|34=132|49=BGIUK|52=20110224-08:16:07|56=ABN|57=ADMIN|10=198||0|
M|133|0|0|I|20110224-08:16:56.303|80|8=FIX.4.2|9=58|35=0|34=133|49=BGIUK|52=20110224-08:16:56|56=ABN|57=ADMIN|10=203||0|
M|134|0|0|I|20110224-08:17:45.430|80|8=FIX.4.2|9=58|35=0|34=134|49=BGIUK|52=20110224-08:17:45|56=ABN|57=ADMIN|10=203||0|
M|135|0|0|I|20110224-08:18:34.048|80|8=FIX.4.2|9=58|35=0|34=135|49=BGIUK|52=20110224-08:18:34|56=ABN|57=ADMIN|10=203||0|
M|136|0|0|I|20110224-08:19:23.062|80|8=FIX.4.2|9=58|35=0|34=136|49=BGIUK|52=20110224-08:19:23|56=ABN|57=ADMIN|10=203||0|
M|137|0|0|I|20110224-08:20:12.128|80|8=FIX.4.2|9=58|35=0|34=137|49=BGIUK|52=20110224-08:20:12|56=ABN|57=ADMIN|10=194||0|
M|138|0|0|I|20110224-08:21:01.026|80|8=FIX.4.2|9=58|35=0|34=138|49=BGIUK|52=20110224-08:21:01|56=ABN|57=ADMIN|10=194||0|
M|139|0|0|I|20110224-08:21:50.074|80|8=FIX.4.2|9=58|35=0|34=139|49=BGIUK|52=20110224-08:21:50|56=ABN|57=ADMIN|10=199||0|
M|140|0|0|I|20110224-08:22:39.386|80|8=FIX.4.2|9=58|35=0|34=140|49=BGIUK|52=20110224-08:22:39|56=ABN|57=ADMIN|10=199||0|
M|141|0|0|I|20110224-08:23:28.519|80|8=FIX.4.2|9=58|35=0|34=141|49=BGIUK|52=20110224-08:23:28|56=ABN|57=ADMIN|10=199||0|
M|142|0|0|I|20110224-08:24:17.190|80|8=FIX.4.2|9=58|35=0|34=142|49=BGIUK|52=20110224-08:24:17|56=ABN|57=ADMIN|10=199||0|
M|143|0|0|I|20110224-08:25:06.308|80|8=FIX.4.2|9=58|35=0|34=143|49=BGIUK|52=20110224-08:25:06|56=ABN|57=ADMIN|10=199||0|
M|144|0|0|I|20110224-08:25:55.057|80|8=FIX.4.2|9=58|35=0|34=144|49=BGIUK|52=20110224-08:25:55|56=ABN|57=ADMIN|10=204||0|
M|145|0|0|I|20110224-08:26:44.096|80|8=FIX.4.2|9=58|35=0|34=145|49=BGIUK|52=20110224-08:26:44|56=ABN|57=ADMIN|10=204||0|
M|146|0|0|I|20110224-08:27:33.133|80|8=FIX.4.2|9=58|35=0|34=146|49=BGIUK|52=20110224-08:27:33|56=ABN|57=ADMIN|10=204||0|
M|147|0|0|I|20110224-08:28:22.624|80|8=FIX.4.2|9=58|35=0|34=147|49=BGIUK|52=20110224-08:28:22|56=ABN|57=ADMIN|10=204||0|
M|148|0|0|I|20110224-08:29:11.776|80|8=FIX.4.2|9=58|35=0|34=148|49=BGIUK|52=20110224-08:29:11|56=ABN|57=ADMIN|10=204||0|
M|149|0|0|I|20110224-08:30:00.061|80|8=FIX.4.2|9=58|35=0|34=149|49=BGIUK|52=20110224-08:30:00|56=ABN|57=ADMIN|10=195||0|
M|150|0|0|I|20110224-08:30:49.265|80|8=FIX.4.2|9=58|35=0|34=150|49=BGIUK|52=20110224-08:30:49|56=ABN|57=ADMIN|10=200||0|
M|151|0|0|I|20110224-08:31:38.265|80|8=FIX.4.2|9=58|35=0|34=151|49=BGIUK|52=20110224-08:31:38|56=ABN|57=ADMIN|10=200||0|
M|152|0|0|I|20110224-08:32:27.024|80|8=FIX.4.2|9=58|35=0|34=152|49=BGIUK|52=20110224-08:32:27|56=ABN|57=ADMIN|10=200||0|
M|153|0|0|I|20110224-08:33:16.053|80|8=FIX.4.2|9=58|35=0|34=153|49=BGIUK|52=20110224-08:33:16|56=ABN|57=ADMIN|10=200||0|
M|154|0|0|I|20110224-08:34:05.232|80|8=FIX.4.2|9=58|35=0|34=154|49=BGIUK|52=20110224-08:34:05|56=ABN|57=ADMIN|10=200||0|
M|155|0|0|I|20110224-08:34:54.051|80|8=FIX.4.2|9=58|35=0|34=155|49=BGIUK|52=20110224-08:34:54|56=ABN|57=ADMIN|10=205||0|
M|156|0|0|I|20110224-08:35:43.137|80|8=FIX.4.2|9=58|35=0|34=156|49=BGIUK|52=20110224-08:35:43|56=ABN|57=ADMIN|10=205||0|
M|157|0|0|I|20110224-08:36:32.029|80|8=FIX.4.2|9=58|35=0|34=157|49=BGIUK|52=20110224-08:36:32|56=ABN|57=ADMIN|10=205||0|
M|158|0|0|I|20110224-08:37:21.086|80|8=FIX.4.2|9=58|35=0|34=158|49=BGIUK|52=20110224-08:37:21|56=ABN|57=ADMIN|10=205||0|
M|159|0|0|I|20110224-08:38:10.131|80|8=FIX.4.2|9=58|35=0|34=159|49=BGIUK|52=20110224-08:38:10|56=ABN|57=ADMIN|10=205||0|
M|160|0|D|I|20110224-08:38:53.845|223|8=FIX.4.2|9=200|35=D|34=160|49=BGIUK|50=APN|52=20110224-08:38:53|56=ABN|11=AAA0001-20110224|12=0.10000000|15=GBp|21=3|22=2|48=B1P6ZR1|38=566|40=1|54=1|55=BWNG.L|58=BARCAPSW-CFD|76=BARCAPSW|100=L|60=20110224-08:38:53|10=248||0|
M|161|0|D|I|20110224-08:38:53.949|226|8=FIX.4.2|9=203|35=D|34=161|49=BGIUK|50=APN|52=20110224-08:38:53|56=ABN|11=AAA0002-20110224|12=0.10000000|15=GBp|21=3|22=2|48=B1P6ZR1|38=9969|40=1|54=1|55=BWNG.L|58=GSI2CFDSW-CFD|76=GSI2CFDSW|100=L|60=20110224-08:38:53|10=175||0|
M|162|0|D|I|20110224-08:38:53.950|222|8=FIX.4.2|9=199|35=D|34=162|49=BGIUK|50=APN|52=20110224-08:38:53|56=ABN|11=AAA0003-20110224|12=0.10000000|15=GBp|21=3|22=2|48=B1P6ZR1|38=1927|40=1|54=1|55=BWNG.L|58=MSSWAPS-CFD|76=MSSWAPS|100=L|60=20110224-08:38:53|10=245||0|
M|163|0|0|I|20110224-08:39:42.067|80|8=FIX.4.2|9=58|35=0|34=163|49=BGIUK|52=20110224-08:39:42|56=ABN|57=ADMIN|10=206||0|
M|164|0|0|I|20110224-08:40:31.129|80|8=FIX.4.2|9=58|35=0|34=164|49=BGIUK|52=20110224-08:40:31|56=ABN|57=ADMIN|10=197||0|
M|165|0|0|I|20110224-08:41:20.151|80|8=FIX.4.2|9=58|35=0|34=165|49=BGIUK|52=20110224-08:41:20|56=ABN|57=ADMIN|10=197||0|
M|166|0|0|I|20110224-08:42:09.480|80|8=FIX.4.2|9=58|35=0|34=166|49=BGIUK|52=20110224-08:42:09|56=ABN|57=ADMIN|10=206||0|
M|167|0|0|I|20110224-08:42:58.255|80|8=FIX.4.2|9=58|35=0|34=167|49=BGIUK|52=20110224-08:42:58|56=ABN|57=ADMIN|10=211||0|
M|168|0|0|I|20110224-08:43:47.071|80|8=FIX.4.2|9=58|35=0|34=168|49=BGIUK|52=20110224-08:43:47|56=ABN|57=ADMIN|10=211||0|
M|169|0|0|I|20110224-08:44:36.057|80|8=FIX.4.2|9=58|35=0|34=169|49=BGIUK|52=20110224-08:44:36|56=ABN|57=ADMIN|10=211||0|
M|170|0|0|I|20110224-08:45:25.083|80|8=FIX.4.2|9=58|35=0|34=170|49=BGIUK|52=20110224-08:45:25|56=ABN|57=ADMIN|10=202||0|
M|171|0|0|I|20110224-08:46:14.038|80|8=FIX.4.2|9=58|35=0|34=171|49=BGIUK|52=20110224-08:46:14|56=ABN|57=ADMIN|10=202||0|
M|172|0|0|I|20110224-08:47:03.028|80|8=FIX.4.2|9=58|35=0|34=172|49=BGIUK|52=20110224-08:47:03|56=ABN|57=ADMIN|10=202||0|
M|173|0|0|I|20110224-08:47:52.019|80|8=FIX.4.2|9=58|35=0|34=173|49=BGIUK|52=20110224-08:47:52|56=ABN|57=ADMIN|10=207||0|
M|174|0|0|I|20110224-08:48:41.035|80|8=FIX.4.2|9=58|35=0|34=174|49=BGIUK|52=20110224-08:48:41|56=ABN|57=ADMIN|10=207||0|
M|175|0|0|I|20110224-08:49:30.099|80|8=FIX.4.2|9=58|35=0|34=175|49=BGIUK|52=20110224-08:49:30|56=ABN|57=ADMIN|10=207||0|
M|176|0|0|I|20110224-08:50:19.403|80|8=FIX.4.2|9=58|35=0|34=176|49=BGIUK|52=20110224-08:50:19|56=ABN|57=ADMIN|10=207||0|
M|177|0|0|I|20110224-08:51:08.182|80|8=FIX.4.2|9=58|35=0|34=177|49=BGIUK|52=20110224-08:51:08|56=ABN|57=ADMIN|10=207||0|
M|178|0|0|I|20110224-08:51:57.098|80|8=FIX.4.2|9=58|35=0|34=178|49=BGIUK|52=20110224-08:51:57|56=ABN|57=ADMIN|10=212||0|
M|179|0|0|I|20110224-08:52:46.037|80|8=FIX.4.2|9=58|35=0|34=179|49=BGIUK|52=20110224-08:52:46|56=ABN|57=ADMIN|10=212||0|
M|180|0|0|I|20110224-08:53:35.445|80|8=FIX.4.2|9=58|35=0|34=180|49=BGIUK|52=20110224-08:53:35|56=ABN|57=ADMIN|10=203||0|
M|181|0|0|I|20110224-08:54:24.348|80|8=FIX.4.2|9=58|35=0|34=181|49=BGIUK|52=20110224-08:54:24|56=ABN|57=ADMIN|10=203||0|
M|182|0|0|I|20110224-08:55:13.159|80|8=FIX.4.2|9=58|35=0|34=182|49=BGIUK|52=20110224-08:55:13|56=ABN|57=ADMIN|10=203||0|
M|183|0|0|I|20110224-08:56:02.189|80|8=FIX.4.2|9=58|35=0|34=183|49=BGIUK|52=20110224-08:56:02|56=ABN|57=ADMIN|10=203||0|
M|184|0|0|I|20110224-08:56:51.020|80|8=FIX.4.2|9=58|35=0|34=184|49=BGIUK|52=20110224-08:56:51|56=ABN|57=ADMIN|10=208||0|
M|185|0|0|I|20110224-08:57:40.035|80|8=FIX.4.2|9=58|35=0|34=185|49=BGIUK|52=20110224-08:57:40|56=ABN|57=ADMIN|10=208||0|
M|186|0|0|I|20110224-08:58:29.210|80|8=FIX.4.2|9=58|35=0|34=186|49=BGIUK|52=20110224-08:58:29|56=ABN|57=ADMIN|10=217||0|
M|187|0|0|I|20110224-08:59:18.034|80|8=FIX.4.2|9=58|35=0|34=187|49=BGIUK|52=20110224-08:59:18|56=ABN|57=ADMIN|10=217||0|
M|188|0|0|I|20110224-09:00:07.034|80|8=FIX.4.2|9=58|35=0|34=188|49=BGIUK|52=20110224-09:00:07|56=ABN|57=ADMIN|10=203||0|
M|189|0|0|I|20110224-09:00:56.023|80|8=FIX.4.2|9=58|35=0|34=189|49=BGIUK|52=20110224-09:00:56|56=ABN|57=ADMIN|10=208||0|
M|190|0|0|I|20110224-09:01:45.135|80|8=FIX.4.2|9=58|35=0|34=190|49=BGIUK|52=20110224-09:01:45|56=ABN|57=ADMIN|10=199||0|
M|191|0|0|I|20110224-09:02:34.105|80|8=FIX.4.2|9=58|35=0|34=191|49=BGIUK|52=20110224-09:02:34|56=ABN|57=ADMIN|10=199||0|
M|192|0|0|I|20110224-09:03:23.187|80|8=FIX.4.2|9=58|35=0|34=192|49=BGIUK|52=20110224-09:03:23|56=ABN|57=ADMIN|10=199||0|
M|193|0|0|I|20110224-09:04:12.081|80|8=FIX.4.2|9=58|35=0|34=193|49=BGIUK|52=20110224-09:04:12|56=ABN|57=ADMIN|10=199||0|
M|194|0|0|I|20110224-09:05:01.082|80|8=FIX.4.2|9=58|35=0|34=194|49=BGIUK|52=20110224-09:05:01|56=ABN|57=ADMIN|10=199||0|
M|195|0|0|I|20110224-09:05:50.063|80|8=FIX.4.2|9=58|35=0|34=195|49=BGIUK|52=20110224-09:05:50|56=ABN|57=ADMIN|10=204||0|
M|196|0|0|I|20110224-09:06:39.017|80|8=FIX.4.2|9=58|35=0|34=196|49=BGIUK|52=20110224-09:06:39|56=ABN|57=ADMIN|10=213||0|
M|197|0|0|I|20110224-09:07:28.018|80|8=FIX.4.2|9=58|35=0|34=197|49=BGIUK|52=20110224-09:07:28|56=ABN|57=ADMIN|10=213||0|
M|198|0|0|I|20110224-09:08:17.028|80|8=FIX.4.2|9=58|35=0|34=198|49=BGIUK|52=20110224-09:08:17|56=ABN|57=ADMIN|10=213||0|
M|199|0|0|I|20110224-09:09:06.094|80|8=FIX.4.2|9=58|35=0|34=199|49=BGIUK|52=20110224-09:09:06|56=ABN|57=ADMIN|10=213||0|
M|200|0|0|I|20110224-09:09:55.018|80|8=FIX.4.2|9=58|35=0|34=200|49=BGIUK|52=20110224-09:09:55|56=ABN|57=ADMIN|10=200||0|
M|201|0|0|I|20110224-09:10:44.681|80|8=FIX.4.2|9=58|35=0|34=201|49=BGIUK|52=20110224-09:10:44|56=ABN|57=ADMIN|10=191||0|
M|202|0|0|I|20110224-09:11:33.027|80|8=FIX.4.2|9=58|35=0|34=202|49=BGIUK|52=20110224-09:11:33|56=ABN|57=ADMIN|10=191||0|
M|203|0|0|I|20110224-09:12:22.750|80|8=FIX.4.2|9=58|35=0|34=203|49=BGIUK|52=20110224-09:12:22|56=ABN|57=ADMIN|10=191||0|
M|204|0|0|I|20110224-09:13:11.354|80|8=FIX.4.2|9=58|35=0|34=204|49=BGIUK|52=20110224-09:13:11|56=ABN|57=ADMIN|10=191||0|
M|205|0|0|I|20110224-09:14:00.031|80|8=FIX.4.2|9=58|35=0|34=205|49=BGIUK|52=20110224-09:14:00|56=ABN|57=ADMIN|10=191||0|
M|206|0|0|I|20110224-09:14:49.657|80|8=FIX.4.2|9=58|35=0|34=206|49=BGIUK|52=20110224-09:14:49|56=ABN|57=ADMIN|10=205||0|
M|207|0|0|I|20110224-09:15:38.024|80|8=FIX.4.2|9=58|35=0|34=207|49=BGIUK|52=20110224-09:15:38|56=ABN|57=ADMIN|10=205||0|
M|208|0|0|I|20110224-09:16:27.190|80|8=FIX.4.2|9=58|35=0|34=208|49=BGIUK|52=20110224-09:16:27|56=ABN|57=ADMIN|10=205||0|
M|209|0|0|I|20110224-09:17:16.448|80|8=FIX.4.2|9=58|35=0|34=209|49=BGIUK|52=20110224-09:17:16|56=ABN|57=ADMIN|10=205||0|
M|210|0|0|I|20110224-09:18:05.068|80|8=FIX.4.2|9=58|35=0|34=210|49=BGIUK|52=20110224-09:18:05|56=ABN|57=ADMIN|10=196||0|
M|211|0|0|I|20110224-09:18:54.179|80|8=FIX.4.2|9=58|35=0|34=211|49=BGIUK|52=20110224-09:18:54|56=ABN|57=ADMIN|10=201||0|
M|212|0|0|I|20110224-09:19:43.196|80|8=FIX.4.2|9=58|35=0|34=212|49=BGIUK|52=20110224-09:19:43|56=ABN|57=ADMIN|10=201||0|
M|213|0|0|I|20110224-09:20:32.188|80|8=FIX.4.2|9=58|35=0|34=213|49=BGIUK|52=20110224-09:20:32|56=ABN|57=ADMIN|10=192||0|
M|214|0|0|I|20110224-09:21:21.100|80|8=FIX.4.2|9=58|35=0|34=214|49=BGIUK|52=20110224-09:21:21|56=ABN|57=ADMIN|10=192||0|
M|215|0|0|I|20110224-09:22:10.024|80|8=FIX.4.2|9=58|35=0|34=215|49=BGIUK|52=20110224-09:22:10|56=ABN|57=ADMIN|10=192||0|
M|216|0|0|I|20110224-09:22:59.088|80|8=FIX.4.2|9=58|35=0|34=216|49=BGIUK|52=20110224-09:22:59|56=ABN|57=ADMIN|10=206||0|
M|217|0|0|I|20110224-09:23:48.039|80|8=FIX.4.2|9=58|35=0|34=217|49=BGIUK|52=20110224-09:23:48|56=ABN|57=ADMIN|10=206||0|
M|218|0|0|I|20110224-09:24:37.150|80|8=FIX.4.2|9=58|35=0|34=218|49=BGIUK|52=20110224-09:24:37|56=ABN|57=ADMIN|10=206||0|
M|219|0|0|I|20110224-09:25:26.030|80|8=FIX.4.2|9=58|35=0|34=219|49=BGIUK|52=20110224-09:25:26|56=ABN|57=ADMIN|10=206||0|
M|220|0|0|I|20110224-09:26:15.202|80|8=FIX.4.2|9=58|35=0|34=220|49=BGIUK|52=20110224-09:26:15|56=ABN|57=ADMIN|10=197||0|
M|221|0|0|I|20110224-09:27:04.357|80|8=FIX.4.2|9=58|35=0|34=221|49=BGIUK|52=20110224-09:27:04|56=ABN|57=ADMIN|10=197||0|
M|222|0|0|I|20110224-09:27:53.142|80|8=FIX.4.2|9=58|35=0|34=222|49=BGIUK|52=20110224-09:27:53|56=ABN|57=ADMIN|10=202||0|
M|223|0|0|I|20110224-09:28:42.068|80|8=FIX.4.2|9=58|35=0|34=223|49=BGIUK|52=20110224-09:28:42|56=ABN|57=ADMIN|10=202||0|
M|224|0|0|I|20110224-09:29:31.130|80|8=FIX.4.2|9=58|35=0|34=224|49=BGIUK|52=20110224-09:29:31|56=ABN|57=ADMIN|10=202||0|
M|225|0|0|I|20110224-09:30:20.027|80|8=FIX.4.2|9=58|35=0|34=225|49=BGIUK|52=20110224-09:30:20|56=ABN|57=ADMIN|10=193||0|
M|226|0|0|I|20110224-09:31:09.034|80|8=FIX.4.2|9=58|35=0|34=226|49=BGIUK|52=20110224-09:31:09|56=ABN|57=ADMIN|10=202||0|
M|227|0|0|I|20110224-09:31:58.205|80|8=FIX.4.2|9=58|35=0|34=227|49=BGIUK|52=20110224-09:31:58|56=ABN|57=ADMIN|10=207||0|
M|228|0|D|I|20110224-09:32:45.400|209|8=FIX.4.2|9=186|35=D|34=228|49=BGIUK|50=APN|52=20110224-09:32:45|56=ABN|11=AAA0004-20110224|12=0.10000000|15=EUR|21=3|22=2|48=B1FL0G0|38=4533|40=1|54=2|55=PEPR.AS|58=APN_067|100=AS|60=20110224-09:32:45|10=038||0|
M|229|0|0|I|20110224-09:33:34.025|80|8=FIX.4.2|9=58|35=0|34=229|49=BGIUK|52=20110224-09:33:34|56=ABN|57=ADMIN|10=205||0|
M|230|0|0|I|20110224-09:34:23.370|80|8=FIX.4.2|9=58|35=0|34=230|49=BGIUK|52=20110224-09:34:23|56=ABN|57=ADMIN|10=196||0|
M|231|0|0|I|20110224-09:35:12.225|80|8=FIX.4.2|9=58|35=0|34=231|49=BGIUK|52=20110224-09:35:12|56=ABN|57=ADMIN|10=196||0|
M|232|0|0|I|20110224-09:36:01.078|80|8=FIX.4.2|9=58|35=0|34=232|49=BGIUK|52=20110224-09:36:01|56=ABN|57=ADMIN|10=196||0|
M|233|0|0|I|20110224-09:36:50.057|80|8=FIX.4.2|9=58|35=0|34=233|49=BGIUK|52=20110224-09:36:50|56=ABN|57=ADMIN|10=201||0|
M|234|0|0|I|20110224-09:37:39.027|80|8=FIX.4.2|9=58|35=0|34=234|49=BGIUK|52=20110224-09:37:39|56=ABN|57=ADMIN|10=210||0|
M|235|0|0|I|20110224-09:38:28.615|80|8=FIX.4.2|9=58|35=0|34=235|49=BGIUK|52=20110224-09:38:28|56=ABN|57=ADMIN|10=210||0|
M|236|0|0|I|20110224-09:39:17.154|80|8=FIX.4.2|9=58|35=0|34=236|49=BGIUK|52=20110224-09:39:17|56=ABN|57=ADMIN|10=210||0|
M|237|0|0|I|20110224-09:40:06.080|80|8=FIX.4.2|9=58|35=0|34=237|49=BGIUK|52=20110224-09:40:06|56=ABN|57=ADMIN|10=201||0|
M|238|0|0|I|20110224-09:40:55.031|80|8=FIX.4.2|9=58|35=0|34=238|49=BGIUK|52=20110224-09:40:55|56=ABN|57=ADMIN|10=206||0|
M|239|0|0|I|20110224-09:41:44.017|80|8=FIX.4.2|9=58|35=0|34=239|49=BGIUK|52=20110224-09:41:44|56=ABN|57=ADMIN|10=206||0|
M|240|0|0|I|20110224-09:42:33.401|80|8=FIX.4.2|9=58|35=0|34=240|49=BGIUK|52=20110224-09:42:33|56=ABN|57=ADMIN|10=197||0|
M|241|0|0|I|20110224-09:43:22.019|80|8=FIX.4.2|9=58|35=0|34=241|49=BGIUK|52=20110224-09:43:22|56=ABN|57=ADMIN|10=197||0|
M|242|0|0|I|20110224-09:44:11.127|80|8=FIX.4.2|9=58|35=0|34=242|49=BGIUK|52=20110224-09:44:11|56=ABN|57=ADMIN|10=197||0|
M|243|0|0|I|20110224-09:45:00.059|80|8=FIX.4.2|9=58|35=0|34=243|49=BGIUK|52=20110224-09:45:00|56=ABN|57=ADMIN|10=197||0|
M|244|0|0|I|20110224-09:45:49.174|80|8=FIX.4.2|9=58|35=0|34=244|49=BGIUK|52=20110224-09:45:49|56=ABN|57=ADMIN|10=211||0|
M|245|0|0|I|20110224-09:46:38.390|80|8=FIX.4.2|9=58|35=0|34=245|49=BGIUK|52=20110224-09:46:38|56=ABN|57=ADMIN|10=211||0|
M|246|0|0|I|20110224-09:47:27.336|80|8=FIX.4.2|9=58|35=0|34=246|49=BGIUK|52=20110224-09:47:27|56=ABN|57=ADMIN|10=211||0|
M|247|0|0|I|20110224-09:48:16.105|80|8=FIX.4.2|9=58|35=0|34=247|49=BGIUK|52=20110224-09:48:16|56=ABN|57=ADMIN|10=211||0|
M|248|0|0|I|20110224-09:49:05.155|80|8=FIX.4.2|9=58|35=0|34=248|49=BGIUK|52=20110224-09:49:05|56=ABN|57=ADMIN|10=211||0|
M|249|0|0|I|20110224-09:49:54.437|80|8=FIX.4.2|9=58|35=0|34=249|49=BGIUK|52=20110224-09:49:54|56=ABN|57=ADMIN|10=216||0|
M|250|0|0|I|20110224-09:50:43.111|80|8=FIX.4.2|9=58|35=0|34=250|49=BGIUK|52=20110224-09:50:43|56=ABN|57=ADMIN|10=198||0|
M|251|0|0|I|20110224-09:51:32.025|80|8=FIX.4.2|9=58|35=0|34=251|49=BGIUK|52=20110224-09:51:32|56=ABN|57=ADMIN|10=198||0|
M|252|0|0|I|20110224-09:52:21.296|80|8=FIX.4.2|9=58|35=0|34=252|49=BGIUK|52=20110224-09:52:21|56=ABN|57=ADMIN|10=198||0|
M|253|0|0|I|20110224-09:53:10.116|80|8=FIX.4.2|9=58|35=0|34=253|49=BGIUK|52=20110224-09:53:10|56=ABN|57=ADMIN|10=198||0|
M|254|0|0|I|20110224-09:53:59.277|80|8=FIX.4.2|9=58|35=0|34=254|49=BGIUK|52=20110224-09:53:59|56=ABN|57=ADMIN|10=212||0|
M|255|0|0|I|20110224-09:54:48.359|80|8=FIX.4.2|9=58|35=0|34=255|49=BGIUK|52=20110224-09:54:48|56=ABN|57=ADMIN|10=212||0|
M|256|0|0|I|20110224-09:55:37.231|80|8=FIX.4.2|9=58|35=0|34=256|49=BGIUK|52=20110224-09:55:37|56=ABN|57=ADMIN|10=212||0|
M|257|0|0|I|20110224-09:56:26.259|80|8=FIX.4.2|9=58|35=0|34=257|49=BGIUK|52=20110224-09:56:26|56=ABN|57=ADMIN|10=212||0|
M|258|0|0|I|20110224-09:57:15.417|80|8=FIX.4.2|9=58|35=0|34=258|49=BGIUK|52=20110224-09:57:15|56=ABN|57=ADMIN|10=212||0|
M|259|0|0|I|20110224-09:58:04.077|80|8=FIX.4.2|9=58|35=0|34=259|49=BGIUK|52=20110224-09:58:04|56=ABN|57=ADMIN|10=212||0|
M|260|0|0|I|20110224-09:58:53.115|80|8=FIX.4.2|9=58|35=0|34=260|49=BGIUK|52=20110224-09:58:53|56=ABN|57=ADMIN|10=208||0|
M|261|0|0|I|20110224-09:59:42.081|80|8=FIX.4.2|9=58|35=0|34=261|49=BGIUK|52=20110224-09:59:42|56=ABN|57=ADMIN|10=208||0|
M|262|0|D|I|20110224-10:00:02.821|225|8=FIX.4.2|9=202|35=D|34=262|49=BGIUK|50=APN|52=20110224-10:00:02|56=ABN|11=AAA0005-20110224|12=0.10000000|15=GBp|21=3|22=2|48=0988742|38=13426|40=1|54=1|55=YULC.L|58=BARCAPSW-CFD|76=BARCAPSW|100=L|60=20110224-10:00:02|10=223||0|
M|263|0|D|I|20110224-10:00:02.956|227|8=FIX.4.2|9=204|35=D|34=263|49=BGIUK|50=APN|52=20110224-10:00:02|56=ABN|11=AAA0006-20110224|12=0.10000000|15=GBp|21=3|22=2|48=0988742|38=14690|40=1|54=1|55=YULC.L|58=CITISWAPS-CFD|76=CITISWAPS|100=L|60=20110224-10:00:02|10=175||0|
M|264|0|D|I|20110224-10:00:02.957|227|8=FIX.4.2|9=204|35=D|34=264|49=BGIUK|50=APN|52=20110224-10:00:02|56=ABN|11=AAA0007-20110224|12=0.10000000|15=GBp|21=3|22=2|48=0988742|38=51272|40=1|54=1|55=YULC.L|58=GSI2CFDSW-CFD|76=GSI2CFDSW|100=L|60=20110224-10:00:02|10=088||0|
M|265|0|D|I|20110224-10:00:02.958|225|8=FIX.4.2|9=202|35=D|34=265|49=BGIUK|50=APN|52=20110224-10:00:02|56=ABN|11=AAA0008-20110224|12=0.10000000|15=GBp|21=3|22=2|48=0988742|38=20934|40=1|54=1|55=YULC.L|58=UBSSWAPS-CFD|76=UBSSWAPS|100=L|60=20110224-10:00:02|10=049||0|
M|266|0|D|I|20110224-10:00:02.959|208|8=FIX.4.2|9=185|35=D|34=266|49=BGIUK|50=APN|52=20110224-10:00:02|56=ABN|11=AAA0009-20110224|12=0.10000000|15=GBp|21=3|22=2|48=0988742|38=41914|40=1|54=1|55=YULC.L|58=APN_080|100=L|60=20110224-10:00:02|10=127||0|
M|267|0|0|I|20110224-10:00:51.200|80|8=FIX.4.2|9=58|35=0|34=267|49=BGIUK|52=20110224-10:00:51|56=ABN|57=ADMIN|10=192||0|
M|268|0|0|I|20110224-10:01:40.091|80|8=FIX.4.2|9=58|35=0|34=268|49=BGIUK|52=20110224-10:01:40|56=ABN|57=ADMIN|10=192||0|
M|269|0|0|I|20110224-10:02:29.047|80|8=FIX.4.2|9=58|35=0|34=269|49=BGIUK|52=20110224-10:02:29|56=ABN|57=ADMIN|10=201||0|
M|270|0|0|I|20110224-10:03:18.203|80|8=FIX.4.2|9=58|35=0|34=270|49=BGIUK|52=20110224-10:03:18|56=ABN|57=ADMIN|10=192||0|
M|271|0|0|I|20110224-10:04:07.062|80|8=FIX.4.2|9=58|35=0|34=271|49=BGIUK|52=20110224-10:04:07|56=ABN|57=ADMIN|10=192||0|
M|272|0|0|I|20110224-10:04:56.094|80|8=FIX.4.2|9=58|35=0|34=272|49=BGIUK|52=20110224-10:04:56|56=ABN|57=ADMIN|10=197||0|
M|273|0|0|I|20110224-10:05:45.123|80|8=FIX.4.2|9=58|35=0|34=273|49=BGIUK|52=20110224-10:05:45|56=ABN|57=ADMIN|10=197||0|
M|274|0|0|I|20110224-10:06:34.064|80|8=FIX.4.2|9=58|35=0|34=274|49=BGIUK|52=20110224-10:06:34|56=ABN|57=ADMIN|10=197||0|
M|275|0|0|I|20110224-10:07:23.088|80|8=FIX.4.2|9=58|35=0|34=275|49=BGIUK|52=20110224-10:07:23|56=ABN|57=ADMIN|10=197||0|
M|276|0|0|I|20110224-10:08:12.057|80|8=FIX.4.2|9=58|35=0|34=276|49=BGIUK|52=20110224-10:08:12|56=ABN|57=ADMIN|10=197||0|
M|277|0|0|I|20110224-10:09:01.236|80|8=FIX.4.2|9=58|35=0|34=277|49=BGIUK|52=20110224-10:09:01|56=ABN|57=ADMIN|10=197||0|
M|278|0|0|I|20110224-10:09:50.189|80|8=FIX.4.2|9=58|35=0|34=278|49=BGIUK|52=20110224-10:09:50|56=ABN|57=ADMIN|10=202||0|
M|279|0|0|I|20110224-10:10:39.036|80|8=FIX.4.2|9=58|35=0|34=279|49=BGIUK|52=20110224-10:10:39|56=ABN|57=ADMIN|10=202||0|
M|280|0|0|I|20110224-10:11:28.024|80|8=FIX.4.2|9=58|35=0|34=280|49=BGIUK|52=20110224-10:11:28|56=ABN|57=ADMIN|10=193||0|
M|281|0|0|I|20110224-10:12:17.530|80|8=FIX.4.2|9=58|35=0|34=281|49=BGIUK|52=20110224-10:12:17|56=ABN|57=ADMIN|10=193||0|
M|282|0|0|I|20110224-10:13:06.060|80|8=FIX.4.2|9=58|35=0|34=282|49=BGIUK|52=20110224-10:13:06|56=ABN|57=ADMIN|10=193||0|
M|283|0|0|I|20110224-10:13:55.052|80|8=FIX.4.2|9=58|35=0|34=283|49=BGIUK|52=20110224-10:13:55|56=ABN|57=ADMIN|10=198||0|
M|284|0|0|I|20110224-10:14:44.057|80|8=FIX.4.2|9=58|35=0|34=284|49=BGIUK|52=20110224-10:14:44|56=ABN|57=ADMIN|10=198||0|
M|285|0|0|I|20110224-10:15:33.034|80|8=FIX.4.2|9=58|35=0|34=285|49=BGIUK|52=20110224-10:15:33|56=ABN|57=ADMIN|10=198||0|
M|286|0|0|I|20110224-10:16:22.184|80|8=FIX.4.2|9=58|35=0|34=286|49=BGIUK|52=20110224-10:16:22|56=ABN|57=ADMIN|10=198||0|
M|287|0|0|I|20110224-10:17:11.144|80|8=FIX.4.2|9=58|35=0|34=287|49=BGIUK|52=20110224-10:17:11|56=ABN|57=ADMIN|10=198||0|
M|288|0|0|I|20110224-10:18:00.065|80|8=FIX.4.2|9=58|35=0|34=288|49=BGIUK|52=20110224-10:18:00|56=ABN|57=ADMIN|10=198||0|
M|289|0|0|I|20110224-10:18:49.369|80|8=FIX.4.2|9=58|35=0|34=289|49=BGIUK|52=20110224-10:18:49|56=ABN|57=ADMIN|10=212||0|
M|290|0|0|I|20110224-10:19:38.220|80|8=FIX.4.2|9=58|35=0|34=290|49=BGIUK|52=20110224-10:19:38|56=ABN|57=ADMIN|10=203||0|
M|291|0|0|I|20110224-10:20:27.050|80|8=FIX.4.2|9=58|35=0|34=291|49=BGIUK|52=20110224-10:20:27|56=ABN|57=ADMIN|10=194||0|
M|292|0|0|I|20110224-10:21:16.252|80|8=FIX.4.2|9=58|35=0|34=292|49=BGIUK|52=20110224-10:21:16|56=ABN|57=ADMIN|10=194||0|
M|293|0|0|I|20110224-10:22:05.102|80|8=FIX.4.2|9=58|35=0|34=293|49=BGIUK|52=20110224-10:22:05|56=ABN|57=ADMIN|10=194||0|
M|294|0|0|I|20110224-10:22:54.024|80|8=FIX.4.2|9=58|35=0|34=294|49=BGIUK|52=20110224-10:22:54|56=ABN|57=ADMIN|10=199||0|
M|295|0|0|I|20110224-10:23:43.096|80|8=FIX.4.2|9=58|35=0|34=295|49=BGIUK|52=20110224-10:23:43|56=ABN|57=ADMIN|10=199||0|
M|296|0|0|I|20110224-10:24:32.168|80|8=FIX.4.2|9=58|35=0|34=296|49=BGIUK|52=20110224-10:24:32|56=ABN|57=ADMIN|10=199||0|
M|297|0|0|I|20110224-10:25:21.137|80|8=FIX.4.2|9=58|35=0|34=297|49=BGIUK|52=20110224-10:25:21|56=ABN|57=ADMIN|10=199||0|
M|298|0|0|I|20110224-10:26:10.435|80|8=FIX.4.2|9=58|35=0|34=298|49=BGIUK|52=20110224-10:26:10|56=ABN|57=ADMIN|10=199||0|
M|299|0|0|I|20110224-10:26:59.174|80|8=FIX.4.2|9=58|35=0|34=299|49=BGIUK|52=20110224-10:26:59|56=ABN|57=ADMIN|10=213||0|
M|300|0|0|I|20110224-10:27:48.059|80|8=FIX.4.2|9=58|35=0|34=300|49=BGIUK|52=20110224-10:27:48|56=ABN|57=ADMIN|10=195||0|
M|301|0|0|I|20110224-10:28:37.059|80|8=FIX.4.2|9=58|35=0|34=301|49=BGIUK|52=20110224-10:28:37|56=ABN|57=ADMIN|10=195||0|
M|302|0|0|I|20110224-10:29:26.428|80|8=FIX.4.2|9=58|35=0|34=302|49=BGIUK|52=20110224-10:29:26|56=ABN|57=ADMIN|10=195||0|
M|303|0|0|I|20110224-10:30:15.156|80|8=FIX.4.2|9=58|35=0|34=303|49=BGIUK|52=20110224-10:30:15|56=ABN|57=ADMIN|10=186||0|
M|304|0|0|I|20110224-10:31:04.083|80|8=FIX.4.2|9=58|35=0|34=304|49=BGIUK|52=20110224-10:31:04|56=ABN|57=ADMIN|10=186||0|
M|305|0|0|I|20110224-10:31:53.490|80|8=FIX.4.2|9=58|35=0|34=305|49=BGIUK|52=20110224-10:31:53|56=ABN|57=ADMIN|10=191||0|
M|306|0|0|I|20110224-10:32:42.023|80|8=FIX.4.2|9=58|35=0|34=306|49=BGIUK|52=20110224-10:32:42|56=ABN|57=ADMIN|10=191||0|
M|307|0|0|I|20110224-10:33:31.130|80|8=FIX.4.2|9=58|35=0|34=307|49=BGIUK|52=20110224-10:33:31|56=ABN|57=ADMIN|10=191||0|
M|308|0|0|I|20110224-10:34:20.031|80|8=FIX.4.2|9=58|35=0|34=308|49=BGIUK|52=20110224-10:34:20|56=ABN|57=ADMIN|10=191||0|
M|309|0|0|I|20110224-10:35:09.384|80|8=FIX.4.2|9=58|35=0|34=309|49=BGIUK|52=20110224-10:35:09|56=ABN|57=ADMIN|10=200||0|
M|310|0|0|I|20110224-10:35:58.024|80|8=FIX.4.2|9=58|35=0|34=310|49=BGIUK|52=20110224-10:35:58|56=ABN|57=ADMIN|10=196||0|
M|311|0|0|I|20110224-10:36:47.044|80|8=FIX.4.2|9=58|35=0|34=311|49=BGIUK|52=20110224-10:36:47|56=ABN|57=ADMIN|10=196||0|
M|312|0|0|I|20110224-10:37:36.056|80|8=FIX.4.2|9=58|35=0|34=312|49=BGIUK|52=20110224-10:37:36|56=ABN|57=ADMIN|10=196||0|
M|313|0|0|I|20110224-10:38:25.280|80|8=FIX.4.2|9=58|35=0|34=313|49=BGIUK|52=20110224-10:38:25|56=ABN|57=ADMIN|10=196||0|
M|314|0|0|I|20110224-10:39:14.159|80|8=FIX.4.2|9=58|35=0|34=314|49=BGIUK|52=20110224-10:39:14|56=ABN|57=ADMIN|10=196||0|
M|315|0|0|I|20110224-10:40:03.106|80|8=FIX.4.2|9=58|35=0|34=315|49=BGIUK|52=20110224-10:40:03|56=ABN|57=ADMIN|10=187||0|
M|316|0|0|I|20110224-10:40:52.039|80|8=FIX.4.2|9=58|35=0|34=316|49=BGIUK|52=20110224-10:40:52|56=ABN|57=ADMIN|10=192||0|
M|317|0|0|I|20110224-10:41:41.027|80|8=FIX.4.2|9=58|35=0|34=317|49=BGIUK|52=20110224-10:41:41|56=ABN|57=ADMIN|10=192||0|
M|318|0|0|I|20110224-10:42:30.104|80|8=FIX.4.2|9=58|35=0|34=318|49=BGIUK|52=20110224-10:42:30|56=ABN|57=ADMIN|10=192||0|
M|319|0|0|I|20110224-10:43:19.060|80|8=FIX.4.2|9=58|35=0|34=319|49=BGIUK|52=20110224-10:43:19|56=ABN|57=ADMIN|10=201||0|
M|320|0|0|I|20110224-10:44:08.037|80|8=FIX.4.2|9=58|35=0|34=320|49=BGIUK|52=20110224-10:44:08|56=ABN|57=ADMIN|10=192||0|
M|321|0|0|I|20110224-10:44:57.129|80|8=FIX.4.2|9=58|35=0|34=321|49=BGIUK|52=20110224-10:44:57|56=ABN|57=ADMIN|10=197||0|
M|322|0|0|I|20110224-10:45:46.095|80|8=FIX.4.2|9=58|35=0|34=322|49=BGIUK|52=20110224-10:45:46|56=ABN|57=ADMIN|10=197||0|
M|323|0|0|I|20110224-10:46:35.017|80|8=FIX.4.2|9=58|35=0|34=323|49=BGIUK|52=20110224-10:46:35|56=ABN|57=ADMIN|10=197||0|
M|324|0|0|I|20110224-10:47:24.049|80|8=FIX.4.2|9=58|35=0|34=324|49=BGIUK|52=20110224-10:47:24|56=ABN|57=ADMIN|10=197||0|
M|325|0|0|I|20110224-10:48:13.061|80|8=FIX.4.2|9=58|35=0|34=325|49=BGIUK|52=20110224-10:48:13|56=ABN|57=ADMIN|10=197||0|
M|326|0|0|I|20110224-10:49:02.047|80|8=FIX.4.2|9=58|35=0|34=326|49=BGIUK|52=20110224-10:49:02|56=ABN|57=ADMIN|10=197||0|
M|327|0|0|I|20110224-10:49:51.120|80|8=FIX.4.2|9=58|35=0|34=327|49=BGIUK|52=20110224-10:49:51|56=ABN|57=ADMIN|10=202||0|
M|328|0|0|I|20110224-10:50:40.028|80|8=FIX.4.2|9=58|35=0|34=328|49=BGIUK|52=20110224-10:50:40|56=ABN|57=ADMIN|10=193||0|
M|329|0|0|I|20110224-10:51:29.305|80|8=FIX.4.2|9=58|35=0|34=329|49=BGIUK|52=20110224-10:51:29|56=ABN|57=ADMIN|10=202||0|
M|330|0|0|I|20110224-10:52:18.088|80|8=FIX.4.2|9=58|35=0|34=330|49=BGIUK|52=20110224-10:52:18|56=ABN|57=ADMIN|10=193||0|
M|331|0|0|I|20110224-10:53:07.049|80|8=FIX.4.2|9=58|35=0|34=331|49=BGIUK|52=20110224-10:53:07|56=ABN|57=ADMIN|10=193||0|
M|332|0|0|I|20110224-10:53:56.023|80|8=FIX.4.2|9=58|35=0|34=332|49=BGIUK|52=20110224-10:53:56|56=ABN|57=ADMIN|10=198||0|
M|333|0|0|I|20110224-10:54:45.109|80|8=FIX.4.2|9=58|35=0|34=333|49=BGIUK|52=20110224-10:54:45|56=ABN|57=ADMIN|10=198||0|
M|334|0|0|I|20110224-10:55:34.281|80|8=FIX.4.2|9=58|35=0|34=334|49=BGIUK|52=20110224-10:55:34|56=ABN|57=ADMIN|10=198||0|
M|335|0|0|I|20110224-10:56:23.541|80|8=FIX.4.2|9=58|35=0|34=335|49=BGIUK|52=20110224-10:56:23|56=ABN|57=ADMIN|10=198||0|
M|336|0|0|I|20110224-10:57:12.257|80|8=FIX.4.2|9=58|35=0|34=336|49=BGIUK|52=20110224-10:57:12|56=ABN|57=ADMIN|10=198||0|
M|337|0|0|I|20110224-10:58:01.061|80|8=FIX.4.2|9=58|35=0|34=337|49=BGIUK|52=20110224-10:58:01|56=ABN|57=ADMIN|10=198||0|
M|338|0|0|I|20110224-10:58:50.040|80|8=FIX.4.2|9=58|35=0|34=338|49=BGIUK|52=20110224-10:58:50|56=ABN|57=ADMIN|10=203||0|
M|339|0|0|I|20110224-10:59:39.303|80|8=FIX.4.2|9=58|35=0|34=339|49=BGIUK|52=20110224-10:59:39|56=ABN|57=ADMIN|10=212||0|
M|340|0|0|I|20110224-11:00:28.170|80|8=FIX.4.2|9=58|35=0|34=340|49=BGIUK|52=20110224-11:00:28|56=ABN|57=ADMIN|10=189||0|
M|341|0|0|I|20110224-11:01:17.339|80|8=FIX.4.2|9=58|35=0|34=341|49=BGIUK|52=20110224-11:01:17|56=ABN|57=ADMIN|10=189||0|
M|342|0|0|I|20110224-11:02:06.020|80|8=FIX.4.2|9=58|35=0|34=342|49=BGIUK|52=20110224-11:02:06|56=ABN|57=ADMIN|10=189||0|
M|343|0|0|I|20110224-11:02:55.041|80|8=FIX.4.2|9=58|35=0|34=343|49=BGIUK|52=20110224-11:02:55|56=ABN|57=ADMIN|10=194||0|
M|344|0|0|I|20110224-11:03:44.274|80|8=FIX.4.2|9=58|35=0|34=344|49=BGIUK|52=20110224-11:03:44|56=ABN|57=ADMIN|10=194||0|
M|345|0|0|I|20110224-11:04:33.445|80|8=FIX.4.2|9=58|35=0|34=345|49=BGIUK|52=20110224-11:04:33|56=ABN|57=ADMIN|10=194||0|
M|346|0|0|I|20110224-11:05:22.073|80|8=FIX.4.2|9=58|35=0|34=346|49=BGIUK|52=20110224-11:05:22|56=ABN|57=ADMIN|10=194||0|
M|347|0|0|I|20110224-11:06:11.127|80|8=FIX.4.2|9=58|35=0|34=347|49=BGIUK|52=20110224-11:06:11|56=ABN|57=ADMIN|10=194||0|
M|348|0|0|I|20110224-11:07:00.192|80|8=FIX.4.2|9=58|35=0|34=348|49=BGIUK|52=20110224-11:07:00|56=ABN|57=ADMIN|10=194||0|
M|349|0|0|I|20110224-11:07:49.110|80|8=FIX.4.2|9=58|35=0|34=349|49=BGIUK|52=20110224-11:07:49|56=ABN|57=ADMIN|10=208||0|
M|350|0|0|I|20110224-11:08:38.152|80|8=FIX.4.2|9=58|35=0|34=350|49=BGIUK|52=20110224-11:08:38|56=ABN|57=ADMIN|10=199||0|
M|351|0|0|I|20110224-11:09:27.042|80|8=FIX.4.2|9=58|35=0|34=351|49=BGIUK|52=20110224-11:09:27|56=ABN|57=ADMIN|10=199||0|
M|352|0|0|I|20110224-11:10:16.150|80|8=FIX.4.2|9=58|35=0|34=352|49=BGIUK|52=20110224-11:10:16|56=ABN|57=ADMIN|10=190||0|
M|353|0|0|I|20110224-11:11:05.283|80|8=FIX.4.2|9=58|35=0|34=353|49=BGIUK|52=20110224-11:11:05|56=ABN|57=ADMIN|10=190||0|
M|354|0|0|I|20110224-11:11:54.225|80|8=FIX.4.2|9=58|35=0|34=354|49=BGIUK|52=20110224-11:11:54|56=ABN|57=ADMIN|10=195||0|
M|355|0|0|I|20110224-11:12:43.146|80|8=FIX.4.2|9=58|35=0|34=355|49=BGIUK|52=20110224-11:12:43|56=ABN|57=ADMIN|10=195||0|
M|356|0|0|I|20110224-11:13:32.057|80|8=FIX.4.2|9=58|35=0|34=356|49=BGIUK|52=20110224-11:13:32|56=ABN|57=ADMIN|10=195||0|
M|357|0|0|I|20110224-11:14:21.265|80|8=FIX.4.2|9=58|35=0|34=357|49=BGIUK|52=20110224-11:14:21|56=ABN|57=ADMIN|10=195||0|
M|358|0|0|I|20110224-11:15:10.100|80|8=FIX.4.2|9=58|35=0|34=358|49=BGIUK|52=20110224-11:15:10|56=ABN|57=ADMIN|10=195||0|
M|359|0|0|I|20110224-11:15:59.048|80|8=FIX.4.2|9=58|35=0|34=359|49=BGIUK|52=20110224-11:15:59|56=ABN|57=ADMIN|10=209||0|
M|360|0|0|I|20110224-11:16:48.045|80|8=FIX.4.2|9=58|35=0|34=360|49=BGIUK|52=20110224-11:16:48|56=ABN|57=ADMIN|10=200||0|
M|361|0|0|I|20110224-11:17:37.062|80|8=FIX.4.2|9=58|35=0|34=361|49=BGIUK|52=20110224-11:17:37|56=ABN|57=ADMIN|10=200||0|
M|362|0|0|I|20110224-11:18:26.053|80|8=FIX.4.2|9=58|35=0|34=362|49=BGIUK|52=20110224-11:18:26|56=ABN|57=ADMIN|10=200||0|
M|363|0|0|I|20110224-11:19:15.289|80|8=FIX.4.2|9=58|35=0|34=363|49=BGIUK|52=20110224-11:19:15|56=ABN|57=ADMIN|10=200||0|
M|364|0|0|I|20110224-11:20:04.051|80|8=FIX.4.2|9=58|35=0|34=364|49=BGIUK|52=20110224-11:20:04|56=ABN|57=ADMIN|10=191||0|
M|365|0|0|I|20110224-11:20:53.227|80|8=FIX.4.2|9=58|35=0|34=365|49=BGIUK|52=20110224-11:20:53|56=ABN|57=ADMIN|10=196||0|
M|366|0|0|I|20110224-11:21:42.038|80|8=FIX.4.2|9=58|35=0|34=366|49=BGIUK|52=20110224-11:21:42|56=ABN|57=ADMIN|10=196||0|
M|367|0|0|I|20110224-11:22:31.184|80|8=FIX.4.2|9=58|35=0|34=367|49=BGIUK|52=20110224-11:22:31|56=ABN|57=ADMIN|10=196||0|
M|368|0|0|I|20110224-11:23:20.582|80|8=FIX.4.2|9=58|35=0|34=368|49=BGIUK|52=20110224-11:23:20|56=ABN|57=ADMIN|10=196||0|
M|369|0|0|I|20110224-11:24:09.122|80|8=FIX.4.2|9=58|35=0|34=369|49=BGIUK|52=20110224-11:24:09|56=ABN|57=ADMIN|10=205||0|
M|370|0|0|I|20110224-11:24:58.034|80|8=FIX.4.2|9=58|35=0|34=370|49=BGIUK|52=20110224-11:24:58|56=ABN|57=ADMIN|10=201||0|
M|371|0|0|I|20110224-11:25:47.075|80|8=FIX.4.2|9=58|35=0|34=371|49=BGIUK|52=20110224-11:25:47|56=ABN|57=ADMIN|10=201||0|
M|372|0|0|I|20110224-11:26:36.299|80|8=FIX.4.2|9=58|35=0|34=372|49=BGIUK|52=20110224-11:26:36|56=ABN|57=ADMIN|10=201||0|
M|373|0|0|I|20110224-11:27:25.176|80|8=FIX.4.2|9=58|35=0|34=373|49=BGIUK|52=20110224-11:27:25|56=ABN|57=ADMIN|10=201||0|
M|374|0|0|I|20110224-11:28:14.018|80|8=FIX.4.2|9=58|35=0|34=374|49=BGIUK|52=20110224-11:28:14|56=ABN|57=ADMIN|10=201||0|
M|375|0|0|I|20110224-11:29:03.017|80|8=FIX.4.2|9=58|35=0|34=375|49=BGIUK|52=20110224-11:29:03|56=ABN|57=ADMIN|10=201||0|
M|376|0|0|I|20110224-11:29:52.024|80|8=FIX.4.2|9=58|35=0|34=376|49=BGIUK|52=20110224-11:29:52|56=ABN|57=ADMIN|10=206||0|
M|377|0|0|I|20110224-11:30:41.159|80|8=FIX.4.2|9=58|35=0|34=377|49=BGIUK|52=20110224-11:30:41|56=ABN|57=ADMIN|10=197||0|
M|378|0|0|I|20110224-11:31:30.170|80|8=FIX.4.2|9=58|35=0|34=378|49=BGIUK|52=20110224-11:31:30|56=ABN|57=ADMIN|10=197||0|
M|379|0|0|I|20110224-11:32:19.236|80|8=FIX.4.2|9=58|35=0|34=379|49=BGIUK|52=20110224-11:32:19|56=ABN|57=ADMIN|10=206||0|
M|380|0|0|I|20110224-11:33:08.021|80|8=FIX.4.2|9=58|35=0|34=380|49=BGIUK|52=20110224-11:33:08|56=ABN|57=ADMIN|10=197||0|
M|381|0|0|I|20110224-11:33:57.225|80|8=FIX.4.2|9=58|35=0|34=381|49=BGIUK|52=20110224-11:33:57|56=ABN|57=ADMIN|10=202||0|
M|382|0|0|I|20110224-11:34:46.018|80|8=FIX.4.2|9=58|35=0|34=382|49=BGIUK|52=20110224-11:34:46|56=ABN|57=ADMIN|10=202||0|
M|383|0|0|I|20110224-11:35:35.063|80|8=FIX.4.2|9=58|35=0|34=383|49=BGIUK|52=20110224-11:35:35|56=ABN|57=ADMIN|10=202||0|
M|384|0|0|I|20110224-11:36:24.037|80|8=FIX.4.2|9=58|35=0|34=384|49=BGIUK|52=20110224-11:36:24|56=ABN|57=ADMIN|10=202||0|
M|385|0|0|I|20110224-11:37:13.266|80|8=FIX.4.2|9=58|35=0|34=385|49=BGIUK|52=20110224-11:37:13|56=ABN|57=ADMIN|10=202||0|
M|386|0|0|I|20110224-11:38:02.207|80|8=FIX.4.2|9=58|35=0|34=386|49=BGIUK|52=20110224-11:38:02|56=ABN|57=ADMIN|10=202||0|
M|387|0|0|I|20110224-11:38:51.016|80|8=FIX.4.2|9=58|35=0|34=387|49=BGIUK|52=20110224-11:38:51|56=ABN|57=ADMIN|10=207||0|
M|388|0|0|I|20110224-11:39:40.444|80|8=FIX.4.2|9=58|35=0|34=388|49=BGIUK|52=20110224-11:39:40|56=ABN|57=ADMIN|10=207||0|
M|389|0|0|I|20110224-11:40:29.018|80|8=FIX.4.2|9=58|35=0|34=389|49=BGIUK|52=20110224-11:40:29|56=ABN|57=ADMIN|10=207||0|
M|390|0|0|I|20110224-11:41:18.041|80|8=FIX.4.2|9=58|35=0|34=390|49=BGIUK|52=20110224-11:41:18|56=ABN|57=ADMIN|10=198||0|
M|391|0|0|I|20110224-11:42:07.152|80|8=FIX.4.2|9=58|35=0|34=391|49=BGIUK|52=20110224-11:42:07|56=ABN|57=ADMIN|10=198||0|
M|392|0|0|I|20110224-11:42:56.071|80|8=FIX.4.2|9=58|35=0|34=392|49=BGIUK|52=20110224-11:42:56|56=ABN|57=ADMIN|10=203||0|
M|393|0|0|I|20110224-11:43:45.123|80|8=FIX.4.2|9=58|35=0|34=393|49=BGIUK|52=20110224-11:43:45|56=ABN|57=ADMIN|10=203||0|
M|394|0|0|I|20110224-11:44:34.417|80|8=FIX.4.2|9=58|35=0|34=394|49=BGIUK|52=20110224-11:44:34|56=ABN|57=ADMIN|10=203||0|
M|395|0|0|I|20110224-11:45:23.086|80|8=FIX.4.2|9=58|35=0|34=395|49=BGIUK|52=20110224-11:45:23|56=ABN|57=ADMIN|10=203||0|
M|396|0|0|I|20110224-11:46:12.236|80|8=FIX.4.2|9=58|35=0|34=396|49=BGIUK|52=20110224-11:46:12|56=ABN|57=ADMIN|10=203||0|
M|397|0|0|I|20110224-11:47:01.164|80|8=FIX.4.2|9=58|35=0|34=397|49=BGIUK|52=20110224-11:47:01|56=ABN|57=ADMIN|10=203||0|
M|398|0|0|I|20110224-11:47:50.041|80|8=FIX.4.2|9=58|35=0|34=398|49=BGIUK|52=20110224-11:47:50|56=ABN|57=ADMIN|10=208||0|
M|399|0|0|I|20110224-11:48:39.028|80|8=FIX.4.2|9=58|35=0|34=399|49=BGIUK|52=20110224-11:48:39|56=ABN|57=ADMIN|10=217||0|
M|400|0|0|I|20110224-11:49:28.054|80|8=FIX.4.2|9=58|35=0|34=400|49=BGIUK|52=20110224-11:49:28|56=ABN|57=ADMIN|10=199||0|
M|401|0|0|I|20110224-11:50:17.183|80|8=FIX.4.2|9=58|35=0|34=401|49=BGIUK|52=20110224-11:50:17|56=ABN|57=ADMIN|10=190||0|
M|402|0|0|I|20110224-11:51:06.242|80|8=FIX.4.2|9=58|35=0|34=402|49=BGIUK|52=20110224-11:51:06|56=ABN|57=ADMIN|10=190||0|
M|403|0|0|I|20110224-11:51:55.120|80|8=FIX.4.2|9=58|35=0|34=403|49=BGIUK|52=20110224-11:51:55|56=ABN|57=ADMIN|10=195||0|
M|404|0|0|I|20110224-11:52:44.039|80|8=FIX.4.2|9=58|35=0|34=404|49=BGIUK|52=20110224-11:52:44|56=ABN|57=ADMIN|10=195||0|
M|405|0|0|I|20110224-11:53:33.104|80|8=FIX.4.2|9=58|35=0|34=405|49=BGIUK|52=20110224-11:53:33|56=ABN|57=ADMIN|10=195||0|
M|406|0|0|I|20110224-11:54:22.116|80|8=FIX.4.2|9=58|35=0|34=406|49=BGIUK|52=20110224-11:54:22|56=ABN|57=ADMIN|10=195||0|
M|407|0|0|I|20110224-11:55:11.229|80|8=FIX.4.2|9=58|35=0|34=407|49=BGIUK|52=20110224-11:55:11|56=ABN|57=ADMIN|10=195||0|
M|408|0|0|I|20110224-11:56:00.273|80|8=FIX.4.2|9=58|35=0|34=408|49=BGIUK|52=20110224-11:56:00|56=ABN|57=ADMIN|10=195||0|
M|409|0|0|I|20110224-11:56:49.050|80|8=FIX.4.2|9=58|35=0|34=409|49=BGIUK|52=20110224-11:56:49|56=ABN|57=ADMIN|10=209||0|
M|410|0|0|I|20110224-11:57:38.037|80|8=FIX.4.2|9=58|35=0|34=410|49=BGIUK|52=20110224-11:57:38|56=ABN|57=ADMIN|10=200||0|
M|411|0|0|I|20110224-11:58:27.017|80|8=FIX.4.2|9=58|35=0|34=411|49=BGIUK|52=20110224-11:58:27|56=ABN|57=ADMIN|10=200||0|
M|412|0|0|I|20110224-11:59:16.079|80|8=FIX.4.2|9=58|35=0|34=412|49=BGIUK|52=20110224-11:59:16|56=ABN|57=ADMIN|10=200||0|
M|413|0|0|I|20110224-12:00:05.115|80|8=FIX.4.2|9=58|35=0|34=413|49=BGIUK|52=20110224-12:00:05|56=ABN|57=ADMIN|10=186||0|
M|414|0|0|I|20110224-12:00:54.221|80|8=FIX.4.2|9=58|35=0|34=414|49=BGIUK|52=20110224-12:00:54|56=ABN|57=ADMIN|10=191||0|
M|415|0|0|I|20110224-12:01:43.122|80|8=FIX.4.2|9=58|35=0|34=415|49=BGIUK|52=20110224-12:01:43|56=ABN|57=ADMIN|10=191||0|
M|416|0|0|I|20110224-12:02:32.321|80|8=FIX.4.2|9=58|35=0|34=416|49=BGIUK|52=20110224-12:02:32|56=ABN|57=ADMIN|10=191||0|
M|417|0|0|I|20110224-12:03:21.676|80|8=FIX.4.2|9=58|35=0|34=417|49=BGIUK|52=20110224-12:03:21|56=ABN|57=ADMIN|10=191||0|
M|418|0|0|I|20110224-12:04:10.291|80|8=FIX.4.2|9=58|35=0|34=418|49=BGIUK|52=20110224-12:04:10|56=ABN|57=ADMIN|10=191||0|
M|419|0|0|I|20110224-12:04:59.241|80|8=FIX.4.2|9=58|35=0|34=419|49=BGIUK|52=20110224-12:04:59|56=ABN|57=ADMIN|10=205||0|
M|420|0|0|I|20110224-12:05:48.296|80|8=FIX.4.2|9=58|35=0|34=420|49=BGIUK|52=20110224-12:05:48|56=ABN|57=ADMIN|10=196||0|
M|421|0|0|I|20110224-12:06:37.237|80|8=FIX.4.2|9=58|35=0|34=421|49=BGIUK|52=20110224-12:06:37|56=ABN|57=ADMIN|10=196||0|
M|422|0|0|I|20110224-12:07:26.067|80|8=FIX.4.2|9=58|35=0|34=422|49=BGIUK|52=20110224-12:07:26|56=ABN|57=ADMIN|10=196||0|
M|423|0|0|I|20110224-12:08:15.198|80|8=FIX.4.2|9=58|35=0|34=423|49=BGIUK|52=20110224-12:08:15|56=ABN|57=ADMIN|10=196||0|
M|424|0|0|I|20110224-12:09:04.039|80|8=FIX.4.2|9=58|35=0|34=424|49=BGIUK|52=20110224-12:09:04|56=ABN|57=ADMIN|10=196||0|
M|425|0|0|I|20110224-12:09:53.423|80|8=FIX.4.2|9=58|35=0|34=425|49=BGIUK|52=20110224-12:09:53|56=ABN|57=ADMIN|10=201||0|
M|426|0|0|I|20110224-12:10:42.019|80|8=FIX.4.2|9=58|35=0|34=426|49=BGIUK|52=20110224-12:10:42|56=ABN|57=ADMIN|10=192||0|
M|427|0|0|I|20110224-12:11:31.978|80|8=FIX.4.2|9=58|35=0|34=427|49=BGIUK|52=20110224-12:11:31|56=ABN|57=ADMIN|10=192||0|
M|428|0|0|I|20110224-12:12:20.019|80|8=FIX.4.2|9=58|35=0|34=428|49=BGIUK|52=20110224-12:12:20|56=ABN|57=ADMIN|10=192||0|
M|429|0|0|I|20110224-12:13:09.040|80|8=FIX.4.2|9=58|35=0|34=429|49=BGIUK|52=20110224-12:13:09|56=ABN|57=ADMIN|10=201||0|
M|430|0|0|I|20110224-12:13:58.087|80|8=FIX.4.2|9=58|35=0|34=430|49=BGIUK|52=20110224-12:13:58|56=ABN|57=ADMIN|10=197||0|
M|431|0|0|I|20110224-12:14:47.036|80|8=FIX.4.2|9=58|35=0|34=431|49=BGIUK|52=20110224-12:14:47|56=ABN|57=ADMIN|10=197||0|
M|432|0|0|I|20110224-12:15:36.051|80|8=FIX.4.2|9=58|35=0|34=432|49=BGIUK|52=20110224-12:15:36|56=ABN|57=ADMIN|10=197||0|
M|433|0|0|I|20110224-12:16:25.050|80|8=FIX.4.2|9=58|35=0|34=433|49=BGIUK|52=20110224-12:16:25|56=ABN|57=ADMIN|10=197||0|
M|434|0|0|I|20110224-12:17:14.210|80|8=FIX.4.2|9=58|35=0|34=434|49=BGIUK|52=20110224-12:17:14|56=ABN|57=ADMIN|10=197||0|
M|435|0|0|I|20110224-12:18:03.028|80|8=FIX.4.2|9=58|35=0|34=435|49=BGIUK|52=20110224-12:18:03|56=ABN|57=ADMIN|10=197||0|
M|436|0|0|I|20110224-12:18:52.259|80|8=FIX.4.2|9=58|35=0|34=436|49=BGIUK|52=20110224-12:18:52|56=ABN|57=ADMIN|10=202||0|
M|437|0|0|I|20110224-12:19:41.271|80|8=FIX.4.2|9=58|35=0|34=437|49=BGIUK|52=20110224-12:19:41|56=ABN|57=ADMIN|10=202||0|
M|438|0|0|I|20110224-12:20:30.032|80|8=FIX.4.2|9=58|35=0|34=438|49=BGIUK|52=20110224-12:20:30|56=ABN|57=ADMIN|10=193||0|
M|439|0|0|I|20110224-12:21:19.138|80|8=FIX.4.2|9=58|35=0|34=439|49=BGIUK|52=20110224-12:21:19|56=ABN|57=ADMIN|10=202||0|
M|440|0|0|I|20110224-12:22:08.078|80|8=FIX.4.2|9=58|35=0|34=440|49=BGIUK|52=20110224-12:22:08|56=ABN|57=ADMIN|10=193||0|
M|441|0|0|I|20110224-12:22:57.066|80|8=FIX.4.2|9=58|35=0|34=441|49=BGIUK|52=20110224-12:22:57|56=ABN|57=ADMIN|10=198||0|
M|442|0|0|I|20110224-12:23:46.022|80|8=FIX.4.2|9=58|35=0|34=442|49=BGIUK|52=20110224-12:23:46|56=ABN|57=ADMIN|10=198||0|
M|443|0|0|I|20110224-12:24:35.070|80|8=FIX.4.2|9=58|35=0|34=443|49=BGIUK|52=20110224-12:24:35|56=ABN|57=ADMIN|10=198||0|
M|444|0|0|I|20110224-12:25:24.286|80|8=FIX.4.2|9=58|35=0|34=444|49=BGIUK|52=20110224-12:25:24|56=ABN|57=ADMIN|10=198||0|
M|445|0|0|I|20110224-12:26:13.288|80|8=FIX.4.2|9=58|35=0|34=445|49=BGIUK|52=20110224-12:26:13|56=ABN|57=ADMIN|10=198||0|
M|446|0|0|I|20110224-12:27:02.056|80|8=FIX.4.2|9=58|35=0|34=446|49=BGIUK|52=20110224-12:27:02|56=ABN|57=ADMIN|10=198||0|
M|447|0|0|I|20110224-12:27:51.034|80|8=FIX.4.2|9=58|35=0|34=447|49=BGIUK|52=20110224-12:27:51|56=ABN|57=ADMIN|10=203||0|
M|448|0|D|I|20110224-12:28:27.692|256|8=FIX.4.2|9=233|35=D|34=448|49=BGIUK|50=MBE|52=20110224-12:28:27|56=ABN|11=AAA0010-20110224|15=GBp|21=3|22=2|48=0536301|38=173536|40=2|44=56.50250000|54=2|55=LWB.L|100=L|60=20110224-12:28:27|6003=30|6004=3|6013=25|6014=2.000000|6015=20|6027=1|847=4|10=128||0|
M|449|0|D|I|20110224-12:28:27.794|256|8=FIX.4.2|9=233|35=D|34=449|49=BGIUK|50=MBE|52=20110224-12:28:27|56=ABN|11=AAA0011-20110224|15=GBp|21=3|22=2|48=B1VNST9|38=63735|40=2|44=152.87200000|54=2|55=LRD.L|100=L|60=20110224-12:28:27|6003=30|6004=3|6013=25|6014=2.000000|6015=20|6027=1|847=4|10=021||0|
M|450|0|D|I|20110224-12:28:27.797|256|8=FIX.4.2|9=233|35=D|34=450|49=BGIUK|50=MBE|52=20110224-12:28:27|56=ABN|11=AAA0012-20110224|15=GBp|21=3|22=2|48=0241854|38=76746|40=2|44=123.96600000|54=2|55=ELM.L|100=L|60=20110224-12:28:27|6003=30|6004=3|6013=25|6014=2.000000|6015=20|6027=1|847=4|10=131||0|
M|451|0|D|I|20110224-12:28:27.799|257|8=FIX.4.2|9=234|35=D|34=451|49=BGIUK|50=MBE|52=20110224-12:28:27|56=ABN|11=AAA0013-20110224|15=GBp|21=3|22=2|48=B03HDJ7|38=16907|40=2|44=149.28300000|54=2|55=STOB.L|100=L|60=20110224-12:28:27|6003=30|6004=3|6013=25|6014=2.000000|6015=20|6027=1|847=4|10=035||0|
M|452|0|D|I|20110224-12:28:27.800|257|8=FIX.4.2|9=234|35=D|34=452|49=BGIUK|50=MBE|52=20110224-12:28:27|56=ABN|11=AAA0014-20110224|15=GBp|21=3|22=2|48=0988742|38=56676|40=2|44=207.96800000|54=2|55=YULC.L|100=L|60=20110224-12:28:27|6003=30|6004=3|6013=25|6014=2.000000|6015=20|6027=1|847=4|10=250||0|
M|453|0|D|I|20110224-12:28:27.802|255|8=FIX.4.2|9=232|35=D|34=453|49=BGIUK|50=MBE|52=20110224-12:28:27|56=ABN|11=AAA0015-20110224|15=GBp|21=3|22=2|48=B164905|38=6546|40=2|44=417.10000000|54=2|55=CCC.L|100=L|60=20110224-12:28:27|6003=30|6004=3|6013=25|6014=2.000000|6015=20|6027=1|847=4|10=063||0|
M|454|0|D|I|20110224-12:28:27.803|257|8=FIX.4.2|9=234|35=D|34=454|49=BGIUK|50=MBE|52=20110224-12:28:27|56=ABN|11=AAA0016-20110224|15=GBp|21=3|22=2|48=B1GC523|38=26337|40=2|44=287.15880000|54=2|55=SMDR.L|100=L|60=20110224-12:28:27|6003=30|6004=3|6013=25|6014=2.000000|6015=20|6027=1|847=4|10=022||0|
M|455|0|D|I|20110224-12:28:27.899|256|8=FIX.4.2|9=233|35=D|34=455|49=BGIUK|50=MBE|52=20110224-12:28:27|56=ABN|11=AAA0017-20110224|15=GBp|21=3|22=2|48=0465814|38=96417|40=2|44=82.64400000|54=2|55=FCAM.L|100=L|60=20110224-12:28:27|6003=30|6004=3|6013=25|6014=2.000000|6015=20|6027=1|847=4|10=148||0|
M|456|0|D|I|20110224-12:28:27.900|256|8=FIX.4.2|9=233|35=D|34=456|49=BGIUK|50=MBE|52=20110224-12:28:27|56=ABN|11=AAA0018-20110224|15=GBp|21=3|22=2|48=0214834|38=1850|40=2|44=1097.07000000|54=2|55=RAT.L|100=L|60=20110224-12:28:27|6003=30|6004=3|6013=25|6014=2.000000|6015=20|6027=1|847=4|10=131||0|
M|457|0|D|I|20110224-12:28:27.902|256|8=FIX.4.2|9=233|35=D|34=457|49=BGIUK|50=MBE|52=20110224-12:28:27|56=ABN|11=AAA0019-20110224|15=GBp|21=3|22=2|48=3228702|38=32070|40=2|44=141.91100000|54=2|55=DAB.L|100=L|60=20110224-12:28:27|6003=30|6004=3|6013=25|6014=2.000000|6015=20|6027=1|847=4|10=094||0|
M|458|0|D|I|20110224-12:28:27.903|256|8=FIX.4.2|9=233|35=D|34=458|49=BGIUK|50=MBE|52=20110224-12:28:27|56=ABN|11=AAA0020-20110224|15=GBp|21=3|22=2|48=0176581|38=11174|40=2|44=165.19100000|54=2|55=BRW.L|100=L|60=20110224-12:28:27|6003=30|6004=3|6013=25|6014=2.000000|6015=20|6027=1|847=4|10=135||0|
M|459|0|D|I|20110224-12:28:27.905|253|8=FIX.4.2|9=230|35=D|34=459|49=BGIUK|50=MBE|52=20110224-12:28:27|56=ABN|11=AAA0021-20110224|15=EUR|21=3|22=2|48=5323218|38=4305|40=2|44=7.01020000|54=1|55=DGO.I|100=I|60=20110224-12:28:27|6003=30|6004=3|6013=25|6014=2.000000|6015=20|6027=1|847=4|10=190||0|
M|460|0|D|I|20110224-12:28:27.906|255|8=FIX.4.2|9=232|35=D|34=460|49=BGIUK|50=MBE|52=20110224-12:28:27|56=ABN|11=AAA0022-20110224|15=EUR|21=3|22=2|48=4820301|38=330|40=2|44=68.37140000|54=1|55=SOF.BR|100=BR|60=20110224-12:28:27|6003=30|6004=3|6013=25|6014=2.000000|6015=20|6027=1|847=4|10=100||0|
M|461|0|D|I|20110224-12:28:28.005|257|8=FIX.4.2|9=234|35=D|34=461|49=BGIUK|50=MBE|52=20110224-12:28:27|56=ABN|11=AAA0023-20110224|15=GBp|21=3|22=2|48=0416102|38=84746|40=2|44=113.78100000|54=2|55=HAYS.L|100=L|60=20110224-12:28:27|6003=30|6004=3|6013=25|6014=2.000000|6015=20|6027=1|847=4|10=206||0|
M|462|0|D|I|20110224-12:28:28.007|256|8=FIX.4.2|9=233|35=D|34=462|49=BGIUK|50=MBE|52=20110224-12:28:27|56=ABN|11=AAA0024-20110224|15=EUR|21=3|22=2|48=5715774|38=395|40=2|44=64.10720000|54=1|55=ACKB.BR|100=BR|60=20110224-12:28:27|6003=30|6004=3|6013=25|6014=2.000000|6015=20|6027=1|847=4|10=166||0|
M|463|0|D|I|20110224-12:28:28.009|256|8=FIX.4.2|9=233|35=D|34=463|49=BGIUK|50=MBE|52=20110224-12:28:27|56=ABN|11=AAA0025-20110224|15=GBp|21=3|22=2|48=0845580|38=25026|40=2|44=380.24000000|54=2|55=AQP.L|100=L|60=20110224-12:28:27|6003=30|6004=3|6013=25|6014=2.000000|6015=20|6027=1|847=4|10=124||0|
M|464|0|D|I|20110224-12:28:28.010|256|8=FIX.4.2|9=233|35=D|34=464|49=BGIUK|50=MBE|52=20110224-12:28:27|56=ABN|11=AAA0026-20110224|15=EUR|21=3|22=2|48=4731027|38=747|40=2|44=19.20950000|54=1|55=CASS.MI|100=MI|60=20110224-12:28:27|6003=30|6004=3|6013=25|6014=2.000000|6015=20|6027=1|847=4|10=194||0|
M|465|0|D|I|20110224-12:28:28.011|255|8=FIX.4.2|9=232|35=D|34=465|49=BGIUK|50=MBE|52=20110224-12:28:27|56=ABN|11=AAA0027-20110224|15=EUR|21=3|22=2|48=B1H4YG5|38=544|40=2|44=41.22570000|54=1|55=NAT.BR|100=BR|60=20110224-12:28:27|6003=30|6004=3|6013=25|6014=2.000000|6015=20|6027=1|847=4|10=202||0|
M|466|0|D|I|20110224-12:28:28.013|256|8=FIX.4.2|9=233|35=D|34=466|49=BGIUK|50=MBE|52=20110224-12:28:27|56=ABN|11=AAA0028-20110224|15=EUR|21=3|22=2|48=B58C6H1|38=807|40=2|44=31.37890000|54=1|55=APAM.AS|100=AS|60=20110224-12:28:27|6003=30|6004=3|6013=25|6014=2.000000|6015=20|6027=1|847=4|10=242||0|
M|467|0|D|I|20110224-12:28:28.160|257|8=FIX.4.2|9=234|35=D|34=467|49=BGIUK|50=MBE|52=20110224-12:28:27|56=ABN|11=AAA0029-20110224|15=GBp|21=3|22=2|48=B3WK547|38=15886|40=2|44=603.82500000|54=2|55=CKSN.L|100=L|60=20110224-12:28:27|6003=30|6004=3|6013=25|6014=2.000000|6015=20|6027=1|847=4|10=047||0|
M|468|0|D|I|20110224-12:28:28.162|256|8=FIX.4.2|9=233|35=D|34=468|49=BGIUK|50=MBE|52=20110224-12:28:27|56=ABN|11=AAA0030-20110224|15=GBp|21=3|22=2|48=B07KD36|38=33683|40=2|44=209.71400000|54=2|55=COB.L|100=L|60=20110224-12:28:27|6003=30|6004=3|6013=25|6014=2.000000|6015=20|6027=1|847=4|10=176||0|
M|469|0|D|I|20110224-12:28:28.163|253|8=FIX.4.2|9=230|35=D|34=469|49=BGIUK|50=MBE|52=20110224-12:28:27|56=ABN|11=AAA0031-20110224|15=EUR|21=3|22=2|48=B011Y09|38=6093|40=2|44=3.57930000|54=1|55=GCC.I|100=I|60=20110224-12:28:27|6003=30|6004=3|6013=25|6014=2.000000|6015=20|6027=1|847=4|10=248||0|
M|470|0|D|I|20110224-12:28:28.165|255|8=FIX.4.2|9=232|35=D|34=470|49=BGIUK|50=MBE|52=20110224-12:28:27|56=ABN|11=AAA0032-20110224|15=GBp|21=3|22=2|48=B18V863|38=7870|40=2|44=597.03500000|54=2|55=PNN.L|100=L|60=20110224-12:28:27|6003=30|6004=3|6013=25|6014=2.000000|6015=20|6027=1|847=4|10=152||0|
M|471|0|D|I|20110224-12:28:28.166|256|8=FIX.4.2|9=233|35=D|34=471|49=BGIUK|50=MBE|52=20110224-12:28:27|56=ABN|11=AAA0033-20110224|15=GBp|21=3|22=2|48=B5WB0X8|38=139959|40=2|44=69.69450000|54=2|55=CWP.L|100=L|60=20110224-12:28:27|6003=30|6004=3|6013=25|6014=2.000000|6015=20|6027=1|847=4|10=015||0|
M|472|0|D|I|20110224-12:28:28.271|256|8=FIX.4.2|9=233|35=D|34=472|49=BGIUK|50=MBE|52=20110224-12:28:27|56=ABN|11=AAA0034-20110224|15=GBp|21=3|22=2|48=B1YW440|38=32744|40=2|44=295.94700000|54=2|55=III.L|100=L|60=20110224-12:28:27|6003=30|6004=3|6013=25|6014=2.000000|6015=20|6027=1|847=4|10=218||0|
M|473|0|D|I|20110224-12:28:28.273|257|8=FIX.4.2|9=234|35=D|34=473|49=BGIUK|50=MBE|52=20110224-12:28:27|56=ABN|11=AAA0035-20110224|15=GBp|21=3|22=2|48=0875413|38=13241|40=2|44=533.01500000|54=2|55=TATE.L|100=L|60=20110224-12:28:27|6003=30|6004=3|6013=25|6014=2.000000|6015=20|6027=1|847=4|10=197||0|
M|474|0|D|I|20110224-12:28:28.275|255|8=FIX.4.2|9=232|35=D|34=474|49=BGIUK|50=MBE|52=20110224-12:28:27|56=ABN|11=AAA0036-20110224|15=EUR|21=3|22=2|48=7574166|38=3047|40=2|44=5.05730000|54=1|55=CPR.LS|100=LS|60=20110224-12:28:27|6003=30|6004=3|6013=25|6014=2.000000|6015=20|6027=1|847=4|10=146||0|
M|475|0|D|I|20110224-12:28:28.276|255|8=FIX.4.2|9=232|35=D|34=475|49=BGIUK|50=MBE|52=20110224-12:28:27|56=ABN|11=AAA0037-20110224|15=GBp|21=3|22=2|48=B2R84W0|38=8229|40=2|44=666.39000000|54=2|55=UBM.L|100=L|60=20110224-12:28:27|6003=30|6004=3|6013=25|6014=2.000000|6015=20|6027=1|847=4|10=177||0|
M|476|0|D|I|20110224-12:28:28.278|254|8=FIX.4.2|9=231|35=D|34=476|49=BGIUK|50=MBE|52=20110224-12:28:27|56=ABN|11=AAA0038-20110224|15=EUR|21=3|22=2|48=4189477|38=1454|40=2|44=22.86600000|54=1|55=DCC.I|100=I|60=20110224-12:28:27|6003=30|6004=3|6013=25|6014=2.000000|6015=20|6027=1|847=4|10=006||0|
M|477|0|D|I|20110224-12:28:28.361|256|8=FIX.4.2|9=233|35=D|34=477|49=BGIUK|50=MBE|52=20110224-12:28:27|56=ABN|11=AAA0039-20110224|15=EUR|21=3|22=2|48=5770900|38=2390|40=2|44=11.42270000|54=1|55=ZOT.MC|100=MC|60=20110224-12:28:27|6003=30|6004=3|6013=25|6014=2.000000|6015=20|6027=1|847=4|10=184||0|
M|478|0|D|I|20110224-12:28:28.363|256|8=FIX.4.2|9=233|35=D|34=478|49=BGIUK|50=MBE|52=20110224-12:28:27|56=ABN|11=AAA0040-20110224|15=EUR|21=3|22=2|48=B01NXT7|38=969|40=2|44=16.36670000|54=1|55=TTNr.AT|100=AT|60=20110224-12:28:27|6003=30|6004=3|6013=25|6014=2.000000|6015=20|6027=1|847=4|10=116||0|
M|479|0|D|I|20110224-12:28:28.364|256|8=FIX.4.2|9=233|35=D|34=479|49=BGIUK|50=MBE|52=20110224-12:28:27|56=ABN|11=AAA0041-20110224|15=EUR|21=3|22=2|48=4072362|38=4123|40=2|44=3.60500000|54=1|55=PCVI.MI|100=MI|60=20110224-12:28:27|6003=30|6004=3|6013=25|6014=2.000000|6015=20|6027=1|847=4|10=185||0|
M|480|0|D|I|20110224-12:28:28.366|257|8=FIX.4.2|9=234|35=D|34=480|49=BGIUK|50=MBE|52=20110224-12:28:27|56=ABN|11=AAA0042-20110224|15=EUR|21=3|22=2|48=4177988|38=222|40=2|44=102.83520000|54=1|55=COFB.BR|100=BR|60=20110224-12:28:27|6003=30|6004=3|6013=25|6014=2.000000|6015=20|6027=1|847=4|10=222||0|
M|481|0|D|I|20110224-12:28:28.367|256|8=FIX.4.2|9=233|35=D|34=481|49=BGIUK|50=MBE|52=20110224-12:28:27|56=ABN|11=AAA0043-20110224|15=GBp|21=3|22=2|48=B2988H1|38=13949|40=2|44=372.18900000|54=2|55=AML.L|100=L|60=20110224-12:28:27|6003=30|6004=3|6013=25|6014=2.000000|6015=20|6027=1|847=4|10=180||0|
M|482|0|D|I|20110224-12:28:28.369|257|8=FIX.4.2|9=234|35=D|34=482|49=BGIUK|50=MBE|52=20110224-12:28:27|56=ABN|11=AAA0044-20110224|15=GBp|21=3|22=2|48=0096162|38=20200|40=2|44=333.09800000|54=2|55=BALF.L|100=L|60=20110224-12:28:27|6003=30|6004=3|6013=25|6014=2.000000|6015=20|6027=1|847=4|10=170||0|
M|483|0|D|I|20110224-12:28:28.490|256|8=FIX.4.2|9=233|35=D|34=483|49=BGIUK|50=MBE|52=20110224-12:28:27|56=ABN|11=AAA0045-20110224|15=EUR|21=3|22=2|48=B0BKSS2|38=645|40=2|44=41.87470000|54=1|55=VIGR.VI|100=VI|60=20110224-12:28:27|6003=30|6004=3|6013=25|6014=2.000000|6015=20|6027=1|847=4|10=085||0|
M|484|0|D|I|20110224-12:28:28.492|256|8=FIX.4.2|9=233|35=D|34=484|49=BGIUK|50=MBE|52=20110224-12:28:27|56=ABN|11=AAA0046-20110224|15=GBp|21=3|22=2|48=0345217|38=12820|40=2|44=355.99000000|54=2|55=FGP.L|100=L|60=20110224-12:28:27|6003=30|6004=3|6013=25|6014=2.000000|6015=20|6027=1|847=4|10=129||0|
M|485|0|D|I|20110224-12:28:28.493|256|8=FIX.4.2|9=233|35=D|34=485|49=BGIUK|50=MBE|52=20110224-12:28:27|56=ABN|11=AAA0047-20110224|15=EUR|21=3|22=2|48=B011GL4|38=574|40=2|44=50.58330000|54=1|55=IMTP.PA|100=PA|60=20110224-12:28:27|6003=30|6004=3|6013=25|6014=2.000000|6015=20|6027=1|847=4|10=253||0|
M|486|0|D|I|20110224-12:28:28.495|255|8=FIX.4.2|9=232|35=D|34=486|49=BGIUK|50=MBE|52=20110224-12:28:27|56=ABN|11=AAA0048-20110224|15=EUR|21=3|22=2|48=B3BWN17|38=4320|40=2|44=3.65130000|54=1|55=BVA.MC|100=MC|60=20110224-12:28:27|6003=30|6004=3|6013=25|6014=2.000000|6015=20|6027=1|847=4|10=183||0|
M|487|0|D|I|20110224-12:28:28.496|256|8=FIX.4.2|9=233|35=D|34=487|49=BGIUK|50=MBE|52=20110224-12:28:27|56=ABN|11=AAA0049-20110224|15=EUR|21=3|22=2|48=7742468|38=369|40=2|44=92.31890000|54=1|55=GFCP.PA|100=PA|60=20110224-12:28:27|6003=30|6004=3|6013=25|6014=2.000000|6015=20|6027=1|847=4|10=204||0|
M|488|0|D|I|20110224-12:28:28.545|256|8=FIX.4.2|9=233|35=D|34=488|49=BGIUK|50=MBE|52=20110224-12:28:27|56=ABN|11=AAA0050-20110224|15=EUR|21=3|22=2|48=7042395|38=499|40=2|44=53.69390000|54=1|55=EURA.PA|100=PA|60=20110224-12:28:27|6003=30|6004=3|6013=25|6014=2.000000|6015=20|6027=1|847=4|10=209||0|
M|489|0|D|I|20110224-12:28:28.547|256|8=FIX.4.2|9=233|35=D|34=489|49=BGIUK|50=MBE|52=20110224-12:28:27|56=ABN|11=AAA0051-20110224|15=GBp|21=3|22=2|48=B3WJHK4|38=16290|40=2|44=410.21300000|54=2|55=INF.L|100=L|60=20110224-12:28:27|6003=30|6004=3|6013=25|6014=2.000000|6015=20|6027=1|847=4|10=234||0|
M|490|0|D|I|20110224-12:28:28.548|257|8=FIX.4.2|9=234|35=D|34=490|49=BGIUK|50=MBE|52=20110224-12:28:27|56=ABN|11=AAA0052-20110224|15=EUR|21=3|22=2|48=7277528|38=11571|40=2|44=1.74590000|54=1|55=CRGI.MI|100=MI|60=20110224-12:28:27|6003=30|6004=3|6013=25|6014=2.000000|6015=20|6027=1|847=4|10=247||0|
M|491|0|D|I|20110224-12:28:28.549|257|8=FIX.4.2|9=234|35=D|34=491|49=BGIUK|50=MBE|52=20110224-12:28:27|56=ABN|11=AAA0053-20110224|15=GBp|21=3|22=2|48=0233527|38=3826|40=2|44=1503.50000000|54=2|55=CRDA.L|100=L|60=20110224-12:28:27|6003=30|6004=3|6013=25|6014=2.000000|6015=20|6027=1|847=4|10=176||0|
M|492|0|D|I|20110224-12:28:28.551|258|8=FIX.4.2|9=235|35=D|34=492|49=BGIUK|50=MBE|52=20110224-12:28:27|56=ABN|11=AAA0054-20110224|15=EUR|21=3|22=2|48=B17NY40|38=1634|40=2|44=16.81990000|54=1|55=ORNBV.HE|100=HE|60=20110224-12:28:27|6003=30|6004=3|6013=25|6014=2.000000|6015=20|6027=1|847=4|10=146||0|
M|493|0|D|I|20110224-12:28:28.643|256|8=FIX.4.2|9=233|35=D|34=493|49=BGIUK|50=MBE|52=20110224-12:28:27|56=ABN|11=AAA0055-20110224|15=GBp|21=3|22=2|48=3398649|38=120482|40=2|44=80.51000000|54=2|55=ITV.L|100=L|60=20110224-12:28:27|6003=30|6004=3|6013=25|6014=2.000000|6015=20|6027=1|847=4|10=158||0|
M|494|0|D|I|20110224-12:28:28.645|257|8=FIX.4.2|9=234|35=D|34=494|49=BGIUK|50=MBE|52=20110224-12:28:27|56=ABN|11=AAA0056-20110224|15=EUR|21=3|22=2|48=4798271|38=615|40=2|44=35.33420000|54=1|55=SIPFc.AS|100=AS|60=20110224-12:28:27|6003=30|6004=3|6013=25|6014=2.000000|6015=20|6027=1|847=4|10=050||0|
M|495|0|D|I|20110224-12:28:28.647|257|8=FIX.4.2|9=234|35=D|34=495|49=BGIUK|50=MBE|52=20110224-12:28:27|56=ABN|11=AAA0057-20110224|15=EUR|21=3|22=2|48=B62G1B5|38=2825|40=2|44=19.36400000|54=1|55=EDEN.PA|100=PA|60=20110224-12:28:27|6003=30|6004=3|6013=25|6014=2.000000|6015=20|6027=1|847=4|10=016||0|
M|496|0|D|I|20110224-12:28:28.649|258|8=FIX.4.2|9=235|35=D|34=496|49=BGIUK|50=MBE|52=20110224-12:28:27|56=ABN|11=AAA0058-20110224|15=EUR|21=3|22=2|48=5964640|38=1763|40=2|44=16.15040000|54=1|55=SAA1V.HE|100=HE|60=20110224-12:28:27|6003=30|6004=3|6013=25|6014=2.000000|6015=20|6027=1|847=4|10=030||0|
M|497|0|D|I|20110224-12:28:28.650|256|8=FIX.4.2|9=233|35=D|34=497|49=BGIUK|50=MBE|52=20110224-12:28:27|56=ABN|11=AAA0059-20110224|15=EUR|21=3|22=2|48=5999330|38=861|40=2|44=27.18680000|54=1|55=ROCH.PA|100=PA|60=20110224-12:28:27|6003=30|6004=3|6013=25|6014=2.000000|6015=20|6027=1|847=4|10=215||0|
M|498|0|D|I|20110224-12:28:28.652|253|8=FIX.4.2|9=230|35=D|34=498|49=BGIUK|50=MBE|52=20110224-12:28:27|56=ABN|11=AAA0060-20110224|15=EUR|21=3|22=2|48=4828974|38=799|40=2|44=30.28200000|54=1|55=PAP.I|100=I|60=20110224-12:28:27|6003=30|6004=3|6013=25|6014=2.000000|6015=20|6027=1|847=4|10=239||0|
M|499|0|D|I|20110224-12:28:28.805|255|8=FIX.4.2|9=232|35=D|34=499|49=BGIUK|50=MBE|52=20110224-12:28:27|56=ABN|11=AAA0061-20110224|15=GBp|21=3|22=2|48=0773960|38=7731|40=2|44=963.21000000|54=2|55=TPK.L|100=L|60=20110224-12:28:27|6003=30|6004=3|6013=25|6014=2.000000|6015=20|6027=1|847=4|10=106||0|
M|500|0|D|I|20110224-12:28:28.806|256|8=FIX.4.2|9=233|35=D|34=500|49=BGIUK|50=MBE|52=20110224-12:28:27|56=ABN|11=AAA0062-20110224|15=EUR|21=3|22=2|48=7136663|38=915|40=2|44=22.96900000|54=1|55=JCDX.PA|100=PA|60=20110224-12:28:27|6003=30|6004=3|6013=25|6014=2.000000|6015=20|6027=1|847=4|10=181||0|
M|501|0|D|I|20110224-12:28:28.808|256|8=FIX.4.2|9=233|35=D|34=501|49=BGIUK|50=MBE|52=20110224-12:28:27|56=ABN|11=AAA0063-20110224|15=EUR|21=3|22=2|48=B01MJR4|38=250|40=2|44=80.11340000|54=1|55=BIOX.PA|100=PA|60=20110224-12:28:27|6003=30|6004=3|6013=25|6014=2.000000|6015=20|6027=1|847=4|10=253||0|
M|502|0|D|I|20110224-12:28:28.809|255|8=FIX.4.2|9=232|35=D|34=502|49=BGIUK|50=MBE|52=20110224-12:28:27|56=ABN|11=AAA0064-20110224|15=EUR|21=3|22=2|48=B3BWN17|38=3264|40=2|44=3.43860000|54=2|55=BVA.MC|100=MC|60=20110224-12:28:27|6003=30|6004=3|6013=25|6014=2.000000|6015=20|6027=1|847=4|10=183||0|
M|503|0|D|I|20110224-12:28:28.811|255|8=FIX.4.2|9=232|35=D|34=503|49=BGIUK|50=MBE|52=20110224-12:28:27|56=ABN|11=AAA0065-20110224|15=ILS|21=3|22=2|48=6200611|38=904|40=2|44=26.06390000|54=2|55=CII.TA|100=TA|60=20110224-12:28:27|6003=30|6004=3|6013=25|6014=2.000000|6015=20|6027=1|847=4|10=087||0|
M|504|0|D|I|20110224-12:28:28.910|256|8=FIX.4.2|9=233|35=D|34=504|49=BGIUK|50=MBE|52=20110224-12:28:27|56=ABN|11=AAA0066-20110224|15=EUR|21=3|22=2|48=4554406|38=397|40=2|44=82.36910000|54=1|55=ICAD.PA|100=PA|60=20110224-12:28:27|6003=30|6004=3|6013=25|6014=2.000000|6015=20|6027=1|847=4|10=166||0|
M|505|0|D|I|20110224-12:28:28.911|257|8=FIX.4.2|9=234|35=D|34=505|49=BGIUK|50=MBE|52=20110224-12:28:27|56=ABN|11=AAA0067-20110224|15=EUR|21=3|22=2|48=5699373|38=2056|40=2|44=15.30070000|54=1|55=WBSV.VI|100=VI|60=20110224-12:28:27|6003=30|6004=3|6013=25|6014=2.000000|6015=20|6027=1|847=4|10=033||0|
M|506|0|D|I|20110224-12:28:28.913|258|8=FIX.4.2|9=235|35=D|34=506|49=BGIUK|50=MBE|52=20110224-12:28:27|56=ABN|11=AAA0068-20110224|15=EUR|21=3|22=2|48=4513612|38=1823|40=2|44=10.66050000|54=1|55=KRA1V.HE|100=HE|60=20110224-12:28:27|6003=30|6004=3|6013=25|6014=2.000000|6015=20|6027=1|847=4|10=018||0|
M|507|0|D|I|20110224-12:28:28.914|257|8=FIX.4.2|9=234|35=D|34=507|49=BGIUK|50=MBE|52=20110224-12:28:27|56=ABN|11=AAA0069-20110224|15=EUR|21=3|22=2|48=5809428|38=1036|40=2|44=34.96330000|54=1|55=VOPA.AS|100=AS|60=20110224-12:28:27|6003=30|6004=3|6013=25|6014=2.000000|6015=20|6027=1|847=4|10=006||0|
M|508|0|D|I|20110224-12:28:28.916|256|8=FIX.4.2|9=233|35=D|34=508|49=BGIUK|50=MBE|52=20110224-12:28:27|56=ABN|11=AAA0070-20110224|15=EUR|21=3|22=2|48=B1WVF68|38=646|40=2|44=61.35710000|54=1|55=ANDR.VI|100=VI|60=20110224-12:28:27|6003=30|6004=3|6013=25|6014=2.000000|6015=20|6027=1|847=4|10=052||0|
M|509|0|D|I|20110224-12:28:28.917|257|8=FIX.4.2|9=234|35=D|34=509|49=BGIUK|50=MBE|52=20110224-12:28:27|56=ABN|11=AAA0071-20110224|15=GBp|21=3|22=2|48=B19NKB7|38=24006|40=2|44=213.88500000|54=2|55=HOME.L|100=L|60=20110224-12:28:27|6003=30|6004=3|6013=25|6014=2.000000|6015=20|6027=1|847=4|10=029||0|
M|510|0|D|I|20110224-12:28:28.951|255|8=FIX.4.2|9=232|35=D|34=510|49=BGIUK|50=MBE|52=20110224-12:28:27|56=ABN|11=AAA0072-20110224|15=EUR|21=3|22=2|48=5803925|38=3823|40=2|44=5.34050000|54=1|55=BRI.LS|100=LS|60=20110224-12:28:27|6003=30|6004=3|6013=25|6014=2.000000|6015=20|6027=1|847=4|10=124||0|
M|511|0|D|I|20110224-12:28:28.953|258|8=FIX.4.2|9=235|35=D|34=511|49=BGIUK|50=MBE|52=20110224-12:28:27|56=ABN|11=AAA0073-20110224|15=EUR|21=3|22=2|48=B11BQV1|38=1994|40=2|44=20.84720000|54=1|55=YTY1V.HE|100=HE|60=20110224-12:28:27|6003=30|6004=3|6013=25|6014=2.000000|6015=20|6027=1|847=4|10=152||0|
M|512|0|D|I|20110224-12:28:28.954|257|8=FIX.4.2|9=234|35=D|34=512|49=BGIUK|50=MBE|52=20110224-12:28:27|56=ABN|11=AAA0074-20110224|15=EUR|21=3|22=2|48=B4YVF56|38=457|40=2|44=74.78830000|54=1|55=BNRGn.DE|100=DE|60=20110224-12:28:27|6003=30|6004=3|6013=25|6014=2.000000|6015=20|6027=1|847=4|10=138||0|
M|513|0|D|I|20110224-12:28:28.956|256|8=FIX.4.2|9=233|35=D|34=513|49=BGIUK|50=MBE|52=20110224-12:28:27|56=ABN|11=AAA0075-20110224|15=EUR|21=3|22=2|48=5298781|38=479|40=2|44=63.61280000|54=1|55=BICP.PA|100=PA|60=20110224-12:28:27|6003=30|6004=3|6013=25|6014=2.000000|6015=20|6027=1|847=4|10=189||0|
M|514|0|D|I|20110224-12:28:28.957|256|8=FIX.4.2|9=233|35=D|34=514|49=BGIUK|50=MBE|52=20110224-12:28:27|56=ABN|11=AAA0076-20110224|15=EUR|21=3|22=2|48=B0LKSK4|38=968|40=2|44=31.64160000|54=1|55=TNET.BR|100=BR|60=20110224-12:28:27|6003=30|6004=3|6013=25|6014=2.000000|6015=20|6027=1|847=4|10=067||0|
M|515|0|D|I|20110224-12:28:29.079|257|8=FIX.4.2|9=234|35=D|34=515|49=BGIUK|50=MBE|52=20110224-12:28:27|56=ABN|11=AAA0077-20110224|15=EUR|21=3|22=2|48=4625959|38=19327|40=2|44=6.97430000|54=2|55=NBGr.AT|100=AT|60=20110224-12:28:27|6003=30|6004=3|6013=25|6014=2.000000|6015=20|6027=1|847=4|10=043||0|
M|516|0|D|I|20110224-12:28:29.081|258|8=FIX.4.2|9=235|35=D|34=516|49=BGIUK|50=MBE|52=20110224-12:28:27|56=ABN|11=AAA0078-20110224|15=CHF|21=3|22=2|48=7103065|38=23080|40=2|44=50.10050000|54=2|55=NOVN.VX|100=VX|60=20110224-12:28:27|6003=30|6004=3|6013=25|6014=2.000000|6015=20|6027=1|847=4|10=064||0|
M|517|0|D|I|20110224-12:28:29.083|256|8=FIX.4.2|9=233|35=D|34=517|49=BGIUK|50=MBE|52=20110224-12:28:27|56=ABN|11=AAA0079-20110224|15=EUR|21=3|22=2|48=7107551|38=613|40=2|44=51.59270000|54=1|55=FRAG.DE|100=DE|60=20110224-12:28:27|6003=30|6004=3|6013=25|6014=2.000000|6015=20|6027=1|847=4|10=162||0|
M|518|0|D|I|20110224-12:28:29.084|256|8=FIX.4.2|9=233|35=D|34=518|49=BGIUK|50=MBE|52=20110224-12:28:27|56=ABN|11=AAA0080-20110224|15=EUR|21=3|22=2|48=5934999|38=538|40=2|44=25.57490000|54=1|55=BWIN.VI|100=VI|60=20110224-12:28:27|6003=30|6004=3|6013=25|6014=2.000000|6015=20|6027=1|847=4|10=246||0|
M|519|0|D|I|20110224-12:28:29.086|256|8=FIX.4.2|9=233|35=D|34=519|49=BGIUK|50=MBE|52=20110224-12:28:27|56=ABN|11=AAA0081-20110224|15=EUR|21=3|22=2|48=B012VF6|38=552|40=2|44=61.41890000|54=1|55=WING.DE|100=DE|60=20110224-12:28:27|6003=30|6004=3|6013=25|6014=2.000000|6015=20|6027=1|847=4|10=241||0|
M|520|0|D|I|20110224-12:28:29.454|257|8=FIX.4.2|9=234|35=D|34=520|49=BGIUK|50=MBE|52=20110224-12:28:27|56=ABN|11=AAA0082-20110224|15=EUR|21=3|22=2|48=5784462|38=1130|40=2|44=20.61030000|54=1|55=SZUG.DE|100=DE|60=20110224-12:28:27|6003=30|6004=3|6013=25|6014=2.000000|6015=20|6027=1|847=4|10=228||0|
M|521|0|D|I|20110224-12:28:29.455|257|8=FIX.4.2|9=234|35=D|34=521|49=BGIUK|50=MBE|52=20110224-12:28:27|56=ABN|11=AAA0083-20110224|15=EUR|21=3|22=2|48=4755135|38=357|40=2|44=115.20550000|54=1|55=SOWG.DE|100=DE|60=20110224-12:28:27|6003=30|6004=3|6013=25|6014=2.000000|6015=20|6027=1|847=4|10=232||0|
M|522|0|D|I|20110224-12:28:29.457|257|8=FIX.4.2|9=234|35=D|34=522|49=BGIUK|50=MBE|52=20110224-12:28:27|56=ABN|11=AAA0084-20110224|15=EUR|21=3|22=2|48=B1Z3JV4|38=1725|40=2|44=18.38550000|54=1|55=TGMG.DE|100=DE|60=20110224-12:28:27|6003=30|6004=3|6013=25|6014=2.000000|6015=20|6027=1|847=4|10=074||0|
M|523|0|D|I|20110224-12:28:29.458|258|8=FIX.4.2|9=235|35=D|34=523|49=BGIUK|50=MBE|52=20110224-12:28:27|56=ABN|11=AAA0085-20110224|15=SEK|21=3|22=2|48=5978384|38=34095|40=2|44=51.02200000|54=2|55=TLSN.ST|100=ST|60=20110224-12:28:27|6003=30|6004=3|6013=25|6014=2.000000|6015=20|6027=1|847=4|10=093||0|
M|524|0|D|I|20110224-12:28:29.460|255|8=FIX.4.2|9=232|35=D|34=524|49=BGIUK|50=MBE|52=20110224-12:28:27|56=ABN|11=AAA0086-20110224|15=EUR|21=3|22=2|48=7745638|38=376|40=2|44=77.72380000|54=1|55=FDR.PA|100=PA|60=20110224-12:28:27|6003=30|6004=3|6013=25|6014=2.000000|6015=20|6027=1|847=4|10=130||0|
M|525|0|D|I|20110224-12:28:29.461|256|8=FIX.4.2|9=233|35=D|34=525|49=BGIUK|50=MBE|52=20110224-12:28:27|56=ABN|11=AAA0087-20110224|15=EUR|21=3|22=2|48=5552993|38=688|40=2|44=34.01570000|54=1|55=GPBN.PA|100=PA|60=20110224-12:28:27|6003=30|6004=3|6013=25|6014=2.000000|6015=20|6027=1|847=4|10=198||0|
M|526|0|D|I|20110224-12:28:29.585|256|8=FIX.4.2|9=233|35=D|34=526|49=BGIUK|50=MBE|52=20110224-12:28:27|56=ABN|11=AAA0088-20110224|15=EUR|21=3|22=2|48=7294334|38=658|40=2|44=51.08800000|54=1|55=ZODC.PA|100=PA|60=20110224-12:28:27|6003=30|6004=3|6013=25|6014=2.000000|6015=20|6027=1|847=4|10=202||0|
M|527|0|D|I|20110224-12:28:29.586|257|8=FIX.4.2|9=234|35=D|34=527|49=BGIUK|50=MBE|52=20110224-12:28:27|56=ABN|11=AAA0089-20110224|15=EUR|21=3|22=2|48=B11WFP1|38=975|40=2|44=32.05360000|54=1|55=KCR1V.HE|100=HE|60=20110224-12:28:27|6003=30|6004=3|6013=25|6014=2.000000|6015=20|6027=1|847=4|10=077||0|
M|528|0|D|I|20110224-12:28:29.588|257|8=FIX.4.2|9=234|35=D|34=528|49=BGIUK|50=MBE|52=20110224-12:28:27|56=ABN|11=AAA0090-20110224|15=EUR|21=3|22=2|48=4017017|38=119|40=2|44=261.82600000|54=1|55=ERMT.PA|100=PA|60=20110224-12:28:27|6003=30|6004=3|6013=25|6014=2.000000|6015=20|6027=1|847=4|10=237||0|
M|529|0|D|I|20110224-12:28:29.589|256|8=FIX.4.2|9=233|35=D|34=529|49=BGIUK|50=MBE|52=20110224-12:28:27|56=ABN|11=AAA0091-20110224|15=EUR|21=3|22=2|48=5051605|38=4288|40=2|44=7.58080000|54=1|55=OTEr.AT|100=AT|60=20110224-12:28:27|6003=30|6004=3|6013=25|6014=2.000000|6015=20|6027=1|847=4|10=248||0|
M|530|0|D|I|20110224-12:28:29.591|256|8=FIX.4.2|9=233|35=D|34=530|49=BGIUK|50=MBE|52=20110224-12:28:27|56=ABN|11=AAA0092-20110224|15=GBp|21=3|22=2|48=0632016|38=30498|40=2|44=316.02600000|54=2|55=IPR.L|100=L|60=20110224-12:28:27|6003=30|6004=3|6013=25|6014=2.000000|6015=20|6027=1|847=4|10=130||0|
M|531|0|D|I|20110224-12:28:29.741|257|8=FIX.4.2|9=234|35=D|34=531|49=BGIUK|50=MBE|52=20110224-12:28:27|56=ABN|11=AAA0093-20110224|15=EUR|21=3|22=2|48=7268298|38=1988|40=2|44=12.15400000|54=1|55=DEHr.AT|100=AT|60=20110224-12:28:27|6003=30|6004=3|6013=25|6014=2.000000|6015=20|6027=1|847=4|10=022||0|
M|532|0|D|I|20110224-12:28:29.743|256|8=FIX.4.2|9=233|35=D|34=532|49=BGIUK|50=MBE|52=20110224-12:28:27|56=ABN|11=AAA0094-20110224|15=EUR|21=3|22=2|48=5993901|38=998|40=2|44=18.13320000|54=1|55=MMTP.PA|100=PA|60=20110224-12:28:27|6003=30|6004=3|6013=25|6014=2.000000|6015=20|6027=1|847=4|10=217||0|
M|533|0|D|I|20110224-12:28:29.745|257|8=FIX.4.2|9=234|35=D|34=533|49=BGIUK|50=MBE|52=20110224-12:28:27|56=ABN|11=AAA0095-20110224|15=EUR|21=3|22=2|48=5541979|38=493|40=2|44=46.89070000|54=1|55=MSTAR.BR|100=BR|60=20110224-12:28:27|6003=30|6004=3|6013=25|6014=2.000000|6015=20|6027=1|847=4|10=053||0|
M|534|0|D|I|20110224-12:28:29.746|256|8=FIX.4.2|9=233|35=D|34=534|49=BGIUK|50=MBE|52=20110224-12:28:27|56=ABN|11=AAA0096-20110224|15=EUR|21=3|22=2|48=7390113|38=578|40=2|44=71.47170000|54=1|55=MWDP.PA|100=PA|60=20110224-12:28:27|6003=30|6004=3|6013=25|6014=2.000000|6015=20|6027=1|847=4|10=206||0|
M|535|0|D|I|20110224-12:28:29.748|257|8=FIX.4.2|9=234|35=D|34=535|49=BGIUK|50=MBE|52=20110224-12:28:27|56=ABN|11=AAA0097-20110224|15=EUR|21=3|22=2|48=5997118|38=2125|40=2|44=13.87410000|54=1|55=TFFP.PA|100=PA|60=20110224-12:28:27|6003=30|6004=3|6013=25|6014=2.000000|6015=20|6027=1|847=4|10=252||0|
M|536|0|D|I|20110224-12:28:29.749|257|8=FIX.4.2|9=234|35=D|34=536|49=BGIUK|50=MBE|52=20110224-12:28:27|56=ABN|11=AAA0098-20110224|15=EUR|21=3|22=2|48=4122676|38=19982|40=2|44=1.68920000|54=1|55=BOPr.AT|100=AT|60=20110224-12:28:27|6003=30|6004=3|6013=25|6014=2.000000|6015=20|6027=1|847=4|10=050||0|
M|537|0|D|I|20110224-12:28:30.111|256|8=FIX.4.2|9=233|35=D|34=537|49=BGIUK|50=MBE|52=20110224-12:28:27|56=ABN|11=AAA0099-20110224|15=EUR|21=3|22=2|48=B08BR25|38=4983|40=2|44=4.69680000|54=1|55=CPRI.MI|100=MI|60=20110224-12:28:27|6003=30|6004=3|6013=25|6014=2.000000|6015=20|6027=1|847=4|10=027||0|
M|538|0|D|I|20110224-12:28:30.113|256|8=FIX.4.2|9=233|35=D|34=538|49=BGIUK|50=MBE|52=20110224-12:28:27|56=ABN|11=AAA0100-20110224|15=EUR|21=3|22=2|48=5183359|38=553|40=2|44=54.23980000|54=1|55=NUTR.AS|100=AS|60=20110224-12:28:27|6003=30|6004=3|6013=25|6014=2.000000|6015=20|6027=1|847=4|10=226||0|
M|539|0|D|I|20110224-12:28:30.114|257|8=FIX.4.2|9=234|35=D|34=539|49=BGIUK|50=MBE|52=20110224-12:28:27|56=ABN|11=AAA0101-20110224|15=EUR|21=3|22=2|48=4354134|38=2239|40=2|44=12.26730000|54=1|55=UTDI.DE|100=DE|60=20110224-12:28:27|6003=30|6004=3|6013=25|6014=2.000000|6015=20|6027=1|847=4|10=219||0|
M|540|0|D|I|20110224-12:28:30.119|256|8=FIX.4.2|9=233|35=D|34=540|49=BGIUK|50=MBE|52=20110224-12:28:27|56=ABN|11=AAA0102-20110224|15=EUR|21=3|22=2|48=5654781|38=913|40=2|44=40.71590000|54=1|55=ATOS.PA|100=PA|60=20110224-12:28:27|6003=30|6004=3|6013=25|6014=2.000000|6015=20|6027=1|847=4|10=194||0|
M|541|0|D|I|20110224-12:28:30.121|258|8=FIX.4.2|9=235|35=D|34=541|49=BGIUK|50=MBE|52=20110224-12:28:27|56=ABN|11=AAA0103-20110224|15=EUR|21=3|22=2|48=5105182|38=1350|40=2|44=20.58970000|54=1|55=CLSGn.DE|100=DE|60=20110224-12:28:27|6003=30|6004=3|6013=25|6014=2.000000|6015=20|6027=1|847=4|10=057||0|
M|542|0|D|I|20110224-12:28:30.211|256|8=FIX.4.2|9=233|35=D|34=542|49=BGIUK|50=MBE|52=20110224-12:28:27|56=ABN|11=AAA0104-20110224|15=EUR|21=3|22=2|48=4948623|38=372|40=2|44=73.58320000|54=1|55=WEHA.AS|100=AS|60=20110224-12:28:27|6003=30|6004=3|6013=25|6014=2.000000|6015=20|6027=1|847=4|10=187||0|
M|543|0|D|I|20110224-12:28:30.213|255|8=FIX.4.2|9=232|35=D|34=543|49=BGIUK|50=MBE|52=20110224-12:28:27|56=ABN|11=AAA0105-20110224|15=EUR|21=3|22=2|48=7759435|38=283|40=2|44=80.50480000|54=1|55=ILD.PA|100=PA|60=20110224-12:28:27|6003=30|6004=3|6013=25|6014=2.000000|6015=20|6027=1|847=4|10=108||0|
M|544|0|D|I|20110224-12:28:30.215|256|8=FIX.4.2|9=233|35=D|34=544|49=BGIUK|50=MBE|52=20110224-12:28:27|56=ABN|11=AAA0106-20110224|15=EUR|21=3|22=2|48=4792132|38=388|40=2|44=69.75160000|54=1|55=SEBF.PA|100=PA|60=20110224-12:28:27|6003=30|6004=3|6013=25|6014=2.000000|6015=20|6027=1|847=4|10=185||0|
M|545|0|D|I|20110224-12:28:30.216|256|8=FIX.4.2|9=233|35=D|34=545|49=BGIUK|50=MBE|52=20110224-12:28:27|56=ABN|11=AAA0107-20110224|15=EUR|21=3|22=2|48=B0704T9|38=737|40=2|44=43.83170000|54=1|55=RBIV.VI|100=VI|60=20110224-12:28:27|6003=30|6004=3|6013=25|6014=2.000000|6015=20|6027=1|847=4|10=014||0|
M|546|0|D|I|20110224-12:28:30.217|256|8=FIX.4.2|9=233|35=D|34=546|49=BGIUK|50=MBE|52=20110224-12:28:28|56=ABN|11=AAA0108-20110224|15=EUR|21=3|22=2|48=5654316|38=5303|40=2|44=4.96460000|54=1|55=EFGr.AT|100=AT|60=20110224-12:28:28|6003=30|6004=3|6013=25|6014=2.000000|6015=20|6027=1|847=4|10=224||0|
M|547|0|D|I|20110224-12:28:30.400|256|8=FIX.4.2|9=233|35=D|34=547|49=BGIUK|50=MBE|52=20110224-12:28:28|56=ABN|11=AAA0109-20110224|15=EUR|21=3|22=2|48=B39GNW2|38=3741|40=2|44=4.44240000|54=1|55=EDPR.LS|100=LS|60=20110224-12:28:28|6003=30|6004=3|6013=25|6014=2.000000|6015=20|6027=1|847=4|10=052||0|
M|548|0|D|I|20110224-12:28:30.402|256|8=FIX.4.2|9=233|35=D|34=548|49=BGIUK|50=MBE|52=20110224-12:28:28|56=ABN|11=AAA0110-20110224|15=EUR|21=3|22=2|48=B1Y1SQ7|38=3753|40=2|44=11.92740000|54=1|55=JMT.LS|100=LS|60=20110224-12:28:28|6003=30|6004=3|6013=25|6014=2.000000|6015=20|6027=1|847=4|10=050||0|
M|549|0|D|I|20110224-12:28:30.403|257|8=FIX.4.2|9=234|35=D|34=549|49=BGIUK|50=MBE|52=20110224-12:28:28|56=ABN|11=AAA0111-20110224|15=EUR|21=3|22=2|48=5051586|38=1521|40=2|44=26.06930000|54=1|55=IMUN.AS|100=AS|60=20110224-12:28:28|6003=30|6004=3|6013=25|6014=2.000000|6015=20|6027=1|847=4|10=252||0|
M|550|0|D|I|20110224-12:28:30.405|258|8=FIX.4.2|9=235|35=D|34=550|49=BGIUK|50=MBE|52=20110224-12:28:28|56=ABN|11=AAA0112-20110224|15=EUR|21=3|22=2|48=5799949|38=1158|40=2|44=26.47100000|54=1|55=CSMNc.AS|100=AS|60=20110224-12:28:28|6003=30|6004=3|6013=25|6014=2.000000|6015=20|6027=1|847=4|10=103||0|
M|551|0|D|I|20110224-12:28:30.406|258|8=FIX.4.2|9=235|35=D|34=551|49=BGIUK|50=MBE|52=20110224-12:28:28|56=ABN|11=AAA0113-20110224|15=EUR|21=3|22=2|48=4727662|38=1477|40=2|44=16.92290000|54=1|55=RTRKS.HE|100=HE|60=20110224-12:28:28|6003=30|6004=3|6013=25|6014=2.000000|6015=20|6027=1|847=4|10=088||0|
M|552|0|D|I|20110224-12:28:30.409|256|8=FIX.4.2|9=233|35=D|34=552|49=BGIUK|50=MBE|52=20110224-12:28:28|56=ABN|11=AAA0114-20110224|15=GBp|21=3|22=2|48=B033F22|38=29842|40=2|44=323.30100000|54=2|55=CNA.L|100=L|60=20110224-12:28:28|6003=30|6004=3|6013=25|6014=2.000000|6015=20|6027=1|847=4|10=133||0|
M|553|0|D|I|20110224-12:28:30.483|256|8=FIX.4.2|9=233|35=D|34=553|49=BGIUK|50=MBE|52=20110224-12:28:28|56=ABN|11=AAA0115-20110224|15=EUR|21=3|22=2|48=5334588|38=690|40=2|44=58.82330000|54=1|55=RHMG.DE|100=DE|60=20110224-12:28:28|6003=30|6004=3|6013=25|6014=2.000000|6015=20|6027=1|847=4|10=184||0|
M|554|0|D|I|20110224-12:28:30.484|255|8=FIX.4.2|9=232|35=D|34=554|49=BGIUK|50=MBE|52=20110224-12:28:28|56=ABN|11=AAA0116-20110224|15=EUR|21=3|22=2|48=B01N3F3|38=2223|40=2|44=7.15130000|54=1|55=PAJ.PA|100=PA|60=20110224-12:28:28|6003=30|6004=3|6013=25|6014=2.000000|6015=20|6027=1|847=4|10=141||0|
M|555|0|D|I|20110224-12:28:30.486|256|8=FIX.4.2|9=233|35=D|34=555|49=BGIUK|50=MBE|52=20110224-12:28:28|56=ABN|11=AAA0117-20110224|15=EUR|21=3|22=2|48=7130836|38=397|40=2|44=64.50890000|54=1|55=NEXS.PA|100=PA|60=20110224-12:28:28|6003=30|6004=3|6013=25|6014=2.000000|6015=20|6027=1|847=4|10=219||0|
M|556|0|D|I|20110224-12:28:30.488|258|8=FIX.4.2|9=235|35=D|34=556|49=BGIUK|50=MBE|52=20110224-12:28:28|56=ABN|11=AAA0118-20110224|15=EUR|21=3|22=2|48=5386750|38=1026|40=2|44=29.19540000|54=1|55=STAGn.DE|100=DE|60=20110224-12:28:28|6003=30|6004=3|6013=25|6014=2.000000|6015=20|6027=1|847=4|10=088||0|
M|557|0|D|I|20110224-12:28:30.489|258|8=FIX.4.2|9=235|35=D|34=557|49=BGIUK|50=MBE|52=20110224-12:28:28|56=ABN|11=AAA0119-20110224|15=EUR|21=3|22=2|48=4665148|38=1928|40=2|44=13.25610000|54=1|55=OUT1V.HE|100=HE|60=20110224-12:28:28|6003=30|6004=3|6013=25|6014=2.000000|6015=20|6027=1|847=4|10=067||0|
M|558|0|D|I|20110224-12:28:30.682|256|8=FIX.4.2|9=233|35=D|34=558|49=BGIUK|50=MBE|52=20110224-12:28:28|56=ABN|11=AAA0120-20110224|15=EUR|21=3|22=2|48=4476210|38=1553|40=2|44=14.32730000|54=1|55=IDR.MC|100=MC|60=20110224-12:28:28|6003=30|6004=3|6013=25|6014=2.000000|6015=20|6027=1|847=4|10=146||0|
M|559|0|D|I|20110224-12:28:30.684|257|8=FIX.4.2|9=234|35=D|34=559|49=BGIUK|50=MBE|52=20110224-12:28:28|56=ABN|11=AAA0121-20110224|15=EUR|21=3|22=2|48=5468324|38=1641|40=2|44=15.81050000|54=1|55=EBRO.MC|100=MC|60=20110224-12:28:28|6003=30|6004=3|6013=25|6014=2.000000|6015=20|6027=1|847=4|10=228||0|
M|560|0|D|I|20110224-12:28:30.685|256|8=FIX.4.2|9=233|35=D|34=560|49=BGIUK|50=MBE|52=20110224-12:28:28|56=ABN|11=AAA0122-20110224|15=EUR|21=3|22=2|48=B574ZG0|38=1067|40=2|44=17.91170000|54=1|55=DLL.AS|100=AS|60=20110224-12:28:28|6003=30|6004=3|6013=25|6014=2.000000|6015=20|6027=1|847=4|10=227||0|
M|561|0|D|I|20110224-12:28:30.686|256|8=FIX.4.2|9=233|35=D|34=561|49=BGIUK|50=MBE|52=20110224-12:28:28|56=ABN|11=AAA0123-20110224|15=EUR|21=3|22=2|48=4818351|38=831|40=2|44=25.77060000|54=1|55=SGCG.DE|100=DE|60=20110224-12:28:28|6003=30|6004=3|6013=25|6014=2.000000|6015=20|6027=1|847=4|10=161||0|
M|562|0|D|I|20110224-12:28:30.688|258|8=FIX.4.2|9=235|35=D|34=562|49=BGIUK|50=MBE|52=20110224-12:28:28|56=ABN|11=AAA0124-20110224|15=EUR|21=3|22=2|48=B06YV46|38=2236|40=2|44=12.96770000|54=1|55=NES1V.HE|100=HE|60=20110224-12:28:28|6003=30|6004=3|6013=25|6014=2.000000|6015=20|6027=1|847=4|10=127||0|
M|563|0|D|I|20110224-12:28:30.810|255|8=FIX.4.2|9=232|35=D|34=563|49=BGIUK|50=MBE|52=20110224-12:28:28|56=ABN|11=AAA0125-20110224|15=EUR|21=3|22=2|48=5499131|38=21977|40=2|44=1.15570000|54=1|55=A2.MI|100=MI|60=20110224-12:28:28|6003=30|6004=3|6013=25|6014=2.000000|6015=20|6027=1|847=4|10=069||0|
M|564|0|D|I|20110224-12:28:30.812|256|8=FIX.4.2|9=233|35=D|34=564|49=BGIUK|50=MBE|52=20110224-12:28:28|56=ABN|11=AAA0126-20110224|15=EUR|21=3|22=2|48=4420723|38=601|40=2|44=19.13810000|54=2|55=HLBr.AT|100=AT|60=20110224-12:28:28|6003=30|6004=3|6013=25|6014=2.000000|6015=20|6027=1|847=4|10=211||0|
M|565|0|D|I|20110224-12:28:30.813|256|8=FIX.4.2|9=233|35=D|34=565|49=BGIUK|50=MBE|52=20110224-12:28:28|56=ABN|11=AAA0127-20110224|15=EUR|21=3|22=2|48=5298781|38=189|40=2|44=59.90720000|54=2|55=BICP.PA|100=PA|60=20110224-12:28:28|6003=30|6004=3|6013=25|6014=2.000000|6015=20|6027=1|847=4|10=201||0|
M|566|0|D|I|20110224-12:28:30.815|257|8=FIX.4.2|9=234|35=D|34=566|49=BGIUK|50=MBE|52=20110224-12:28:28|56=ABN|11=AAA0128-20110224|15=EUR|21=3|22=2|48=B1FN8X9|38=804|40=2|44=39.41810000|54=1|55=OTE1V.HE|100=HE|60=20110224-12:28:28|6003=30|6004=3|6013=25|6014=2.000000|6015=20|6027=1|847=4|10=096||0|
M|567|0|D|I|20110224-12:28:30.816|256|8=FIX.4.2|9=233|35=D|34=567|49=BGIUK|50=MBE|52=20110224-12:28:28|56=ABN|11=AAA0129-20110224|15=EUR|21=3|22=2|48=5271782|38=1473|40=2|44=22.11930000|54=1|55=ELE.MC|100=MC|60=20110224-12:28:28|6003=30|6004=3|6013=25|6014=2.000000|6015=20|6027=1|847=4|10=153||0|
M|568|0|D|I|20110224-12:28:30.995|257|8=FIX.4.2|9=234|35=D|34=568|49=BGIUK|50=MBE|52=20110224-12:28:28|56=ABN|11=AAA0130-20110224|15=EUR|21=3|22=2|48=5541979|38=256|40=2|44=44.15930000|54=2|55=MSTAR.BR|100=BR|60=20110224-12:28:28|6003=30|6004=3|6013=25|6014=2.000000|6015=20|6027=1|847=4|10=043||0|
M|569|0|D|I|20110224-12:28:30.998|259|8=FIX.4.2|9=236|35=D|34=569|49=BGIUK|50=MBE|52=20110224-12:28:28|56=ABN|11=AAA0131-20110224|15=EUR|21=3|22=2|48=4579131|38=1326|40=2|44=22.54670000|54=1|55=PSMG_p.DE|100=DE|60=20110224-12:28:28|6003=30|6004=3|6013=25|6014=2.000000|6015=20|6027=1|847=4|10=188||0|
M|570|0|D|I|20110224-12:28:30.999|256|8=FIX.4.2|9=233|35=D|34=570|49=BGIUK|50=MBE|52=20110224-12:28:28|56=ABN|11=AAA0132-20110224|15=EUR|21=3|22=2|48=5485527|38=533|40=2|44=38.88770000|54=1|55=NAFG.DE|100=DE|60=20110224-12:28:28|6003=30|6004=3|6013=25|6014=2.000000|6015=20|6027=1|847=4|10=172||0|
M|571|0|D|I|20110224-12:28:31.001|257|8=FIX.4.2|9=234|35=D|34=571|49=BGIUK|50=MBE|52=20110224-12:28:28|56=ABN|11=AAA0133-20110224|15=EUR|21=3|22=2|48=B09DHL9|38=857|40=2|44=48.64180000|54=1|55=MTXGn.DE|100=DE|60=20110224-12:28:28|6003=30|6004=3|6013=25|6014=2.000000|6015=20|6027=1|847=4|10=136||0|
M|572|0|D|I|20110224-12:28:31.003|256|8=FIX.4.2|9=233|35=D|34=572|49=BGIUK|50=MBE|52=20110224-12:28:28|56=ABN|11=AAA0134-20110224|15=EUR|21=3|22=2|48=B18S767|38=1217|40=2|44=22.71150000|54=1|55=BME.MC|100=MC|60=20110224-12:28:28|6003=30|6004=3|6013=25|6014=2.000000|6015=20|6027=1|847=4|10=189||0|
M|573|0|D|I|20110224-12:28:31.004|256|8=FIX.4.2|9=233|35=D|34=573|49=BGIUK|50=MBE|52=20110224-12:28:28|56=ABN|11=AAA0135-20110224|15=EUR|21=3|22=2|48=B3MSM28|38=3340|40=2|44=14.71870000|54=1|55=AMA.MC|100=MC|60=20110224-12:28:28|6003=30|6004=3|6013=25|6014=2.000000|6015=20|6027=1|847=4|10=237||0|
M|574|0|D|I|20110224-12:28:31.430|256|8=FIX.4.2|9=233|35=D|34=574|49=BGIUK|50=MBE|52=20110224-12:28:28|56=ABN|11=AAA0136-20110224|15=EUR|21=3|22=2|48=B0CCH46|38=357|40=2|44=31.58800000|54=2|55=HEIO.AS|100=AS|60=20110224-12:28:28|6003=30|6004=3|6013=25|6014=2.000000|6015=20|6027=1|847=4|10=254||0|
M|575|0|D|I|20110224-12:28:31.431|255|8=FIX.4.2|9=232|35=D|34=575|49=BGIUK|50=MBE|52=20110224-12:28:28|56=ABN|11=AAA0137-20110224|15=EUR|21=3|22=2|48=7759435|38=148|40=2|44=75.81520000|54=2|55=ILD.PA|100=PA|60=20110224-12:28:28|6003=30|6004=3|6013=25|6014=2.000000|6015=20|6027=1|847=4|10=124||0|
M|576|0|D|I|20110224-12:28:31.433|256|8=FIX.4.2|9=233|35=D|34=576|49=BGIUK|50=MBE|52=20110224-12:28:28|56=ABN|11=AAA0138-20110224|15=EUR|21=3|22=2|48=B019M65|38=1718|40=2|44=7.46750000|54=1|55=AZMT.MI|100=MI|60=20110224-12:28:28|6003=30|6004=3|6013=25|6014=2.000000|6015=20|6027=1|847=4|10=012||0|
M|577|0|D|I|20110224-12:28:31.434|256|8=FIX.4.2|9=233|35=D|34=577|49=BGIUK|50=MBE|52=20110224-12:28:28|56=ABN|11=AAA0139-20110224|15=EUR|21=3|22=2|48=4834777|38=8232|40=2|44=19.44370000|54=2|55=VIV.PA|100=PA|60=20110224-12:28:28|6003=30|6004=3|6013=25|6014=2.000000|6015=20|6027=1|847=4|10=207||0|
M|578|0|D|I|20110224-12:28:31.436|257|8=FIX.4.2|9=234|35=D|34=578|49=BGIUK|50=MBE|52=20110224-12:28:28|56=ABN|11=AAA0140-20110224|15=EUR|21=3|22=2|48=B01SPF2|38=2627|40=2|44=11.87080000|54=1|55=GRLS.MC|100=MC|60=20110224-12:28:28|6003=30|6004=3|6013=25|6014=2.000000|6015=20|6027=1|847=4|10=078||0|
M|579|0|D|I|20110224-12:28:31.550|256|8=FIX.4.2|9=233|35=D|34=579|49=BGIUK|50=MBE|52=20110224-12:28:28|56=ABN|11=AAA0141-20110224|15=EUR|21=3|22=2|48=5064722|38=74|40=2|44=215.68200000|54=1|55=PUMG.DE|100=DE|60=20110224-12:28:28|6003=30|6004=3|6013=25|6014=2.000000|6015=20|6027=1|847=4|10=183||0|
M|580|0|D|I|20110224-12:28:31.551|256|8=FIX.4.2|9=233|35=D|34=580|49=BGIUK|50=MBE|52=20110224-12:28:28|56=ABN|11=AAA0142-20110224|15=EUR|21=3|22=2|48=B01ZVZ5|38=1822|40=2|44=13.14280000|54=1|55=ACX.MC|100=MC|60=20110224-12:28:28|6003=30|6004=3|6013=25|6014=2.000000|6015=20|6027=1|847=4|10=006||0|
M|581|0|D|I|20110224-12:28:31.553|256|8=FIX.4.2|9=233|35=D|34=581|49=BGIUK|50=MBE|52=20110224-12:28:28|56=ABN|11=AAA0143-20110224|15=EUR|21=3|22=2|48=5679911|38=3761|40=2|44=2.98470000|54=2|55=IMFI.VI|100=VI|60=20110224-12:28:28|6003=30|6004=3|6013=25|6014=2.000000|6015=20|6027=1|847=4|10=227||0|
M|582|0|D|I|20110224-12:28:31.554|256|8=FIX.4.2|9=233|35=D|34=582|49=BGIUK|50=MBE|52=20110224-12:28:28|56=ABN|11=AAA0144-20110224|15=EUR|21=3|22=2|48=B1G40S0|38=11789|40=2|44=2.67800000|54=1|55=MAP.MC|100=MC|60=20110224-12:28:28|6003=30|6004=3|6013=25|6014=2.000000|6015=20|6027=1|847=4|10=220||0|
M|583|0|D|I|20110224-12:28:31.556|256|8=FIX.4.2|9=233|35=D|34=583|49=BGIUK|50=MBE|52=20110224-12:28:28|56=ABN|11=AAA0145-20110224|15=EUR|21=3|22=2|48=7107250|38=798|40=2|44=14.57910000|54=2|55=OPAr.AT|100=AT|60=20110224-12:28:28|6003=30|6004=3|6013=25|6014=2.000000|6015=20|6027=1|847=4|10=244||0|
M|584|0|D|I|20110224-12:28:31.670|255|8=FIX.4.2|9=232|35=D|34=584|49=BGIUK|50=MBE|52=20110224-12:28:28|56=ABN|11=AAA0146-20110224|15=EUR|21=3|22=2|48=B01G2K0|38=2949|40=2|44=9.01870000|54=1|55=TL5.MC|100=MC|60=20110224-12:28:28|6003=30|6004=3|6013=25|6014=2.000000|6015=20|6027=1|847=4|10=156||0|
M|585|0|D|I|20110224-12:28:31.672|255|8=FIX.4.2|9=232|35=D|34=585|49=BGIUK|50=MBE|52=20110224-12:28:28|56=ABN|11=AAA0147-20110224|15=EUR|21=3|22=2|48=5474008|38=4540|40=2|44=4.83170000|54=1|55=BKT.MC|100=MC|60=20110224-12:28:28|6003=30|6004=3|6013=25|6014=2.000000|6015=20|6027=1|847=4|10=114||0|
M|586|0|D|I|20110224-12:28:31.673|256|8=FIX.4.2|9=233|35=D|34=586|49=BGIUK|50=MBE|52=20110224-12:28:28|56=ABN|11=AAA0148-20110224|15=EUR|21=3|22=2|48=B1LB9P6|38=570|40=2|44=19.88500000|54=2|55=SCOR.PA|100=PA|60=20110224-12:28:28|6003=30|6004=3|6013=25|6014=2.000000|6015=20|6027=1|847=4|10=041||0|
M|587|0|D|I|20110224-12:28:31.675|256|8=FIX.4.2|9=233|35=D|34=587|49=BGIUK|50=MBE|52=20110224-12:28:28|56=ABN|11=AAA0149-20110224|15=EUR|21=3|22=2|48=B62G1B5|38=610|40=2|44=18.23600000|54=2|55=EDEN.PA|100=PA|60=20110224-12:28:28|6003=30|6004=3|6013=25|6014=2.000000|6015=20|6027=1|847=4|10=217||0|
M|588|0|D|I|20110224-12:28:31.676|256|8=FIX.4.2|9=233|35=D|34=588|49=BGIUK|50=MBE|52=20110224-12:28:28|56=ABN|11=AAA0150-20110224|15=EUR|21=3|22=2|48=4689803|38=3984|40=2|44=5.83500000|54=1|55=PECI.MI|100=MI|60=20110224-12:28:28|6003=30|6004=3|6013=25|6014=2.000000|6015=20|6027=1|847=4|10=207||0|
M|589|0|D|I|20110224-12:28:31.763|256|8=FIX.4.2|9=233|35=D|34=589|49=BGIUK|50=MBE|52=20110224-12:28:28|56=ABN|11=AAA0151-20110224|15=EUR|21=3|22=2|48=B1Y9JH9|38=1829|40=2|44=20.49180000|54=1|55=RHA.PA|100=PA|60=20110224-12:28:28|6003=30|6004=3|6013=25|6014=2.000000|6015=20|6027=1|847=4|10=010||0|
M|590|0|D|I|20110224-12:28:31.764|256|8=FIX.4.2|9=233|35=D|34=590|49=BGIUK|50=MBE|52=20110224-12:28:28|56=ABN|11=AAA0152-20110224|15=EUR|21=3|22=2|48=4072168|38=7262|40=2|44=3.01380000|54=1|55=PMII.MI|100=MI|60=20110224-12:28:28|6003=30|6004=3|6013=25|6014=2.000000|6015=20|6027=1|847=4|10=193||0|
M|591|0|D|I|20110224-12:28:31.766|256|8=FIX.4.2|9=233|35=D|34=591|49=BGIUK|50=MBE|52=20110224-12:28:28|56=ABN|11=AAA0153-20110224|15=EUR|21=3|22=2|48=5064722|38=56|40=2|44=203.11800000|54=2|55=PUMG.DE|100=DE|60=20110224-12:28:28|6003=30|6004=3|6013=25|6014=2.000000|6015=20|6027=1|847=4|10=172||0|
M|592|0|D|I|20110224-12:28:31.767|256|8=FIX.4.2|9=233|35=D|34=592|49=BGIUK|50=MBE|52=20110224-12:28:28|56=ABN|11=AAA0154-20110224|15=EUR|21=3|22=2|48=5819869|38=1464|40=2|44=9.02900000|54=1|55=SWVG.DE|100=DE|60=20110224-12:28:28|6003=30|6004=3|6013=25|6014=2.000000|6015=20|6027=1|847=4|10=216||0|
M|593|0|D|I|20110224-12:28:31.769|255|8=FIX.4.2|9=232|35=D|34=593|49=BGIUK|50=MBE|52=20110224-12:28:28|56=ABN|11=AAA0155-20110224|15=EUR|21=3|22=2|48=5579107|38=451|40=2|44=69.06150000|54=1|55=ANA.MC|100=MC|60=20110224-12:28:28|6003=30|6004=3|6013=25|6014=2.000000|6015=20|6027=1|847=4|10=102||0|
M|594|0|D|I|20110224-12:28:31.770|255|8=FIX.4.2|9=232|35=D|34=594|49=BGIUK|50=MBE|52=20110224-12:28:28|56=ABN|11=AAA0156-20110224|15=EUR|21=3|22=2|48=5787115|38=820|40=2|44=22.79390000|54=1|55=FCC.MC|100=MC|60=20110224-12:28:28|6003=30|6004=3|6013=25|6014=2.000000|6015=20|6027=1|847=4|10=105||0|
M|595|0|D|I|20110224-12:28:32.100|254|8=FIX.4.2|9=231|35=D|34=595|49=BGIUK|50=MBE|52=20110224-12:28:28|56=ABN|11=AAA0157-20110224|15=EUR|21=3|22=2|48=4519579|38=447|40=2|44=25.22000000|54=2|55=KYGa.I|100=I|60=20110224-12:28:28|6003=30|6004=3|6013=25|6014=2.000000|6015=20|6027=1|847=4|10=083||0|
