V|1.1|
M|1|0|A|I|20110220-22:35:00.696|80|8=FIX.4.1|9=58|35=A|34=1|49=RBS1|56=BLP|52=20110220-22:35:00|108=30|98=0|10=028||0|
M|2|0|1|I|20110220-22:35:00.960|79|8=FIX.4.1|9=57|35=1|34=2|49=RBS1|56=BLP|52=20110220-22:35:00|112=STBL-2|10=089||0|
M|3|0|0|I|20110220-22:35:00.961|96|8=FIX.4.1|9=74|35=0|34=3|49=RBS1|56=BLP|52=20110220-22:35:00|112=L.0001.0002.0002.223500|10=057||0|
M|4|0|0|I|20110220-22:35:01.041|96|8=FIX.4.1|9=74|35=0|34=4|49=RBS1|56=BLP|52=20110220-22:35:01|112=A.0003.0004.0004.223500|10=054||0|
M|5|0|0|I|20110220-22:35:31.511|68|8=FIX.4.1|9=46|35=0|34=5|49=RBS1|56=BLP|52=20110220-22:35:31|10=247||0|
M|6|0|0|I|20110220-22:36:01.590|68|8=FIX.4.1|9=46|35=0|34=6|49=RBS1|56=BLP|52=20110220-22:36:01|10=246||0|
M|7|0|0|I|20110220-22:36:31.679|68|8=FIX.4.1|9=46|35=0|34=7|49=RBS1|56=BLP|52=20110220-22:36:31|10=250||0|
M|8|0|0|I|20110220-22:37:01.747|68|8=FIX.4.1|9=46|35=0|34=8|49=RBS1|56=BLP|52=20110220-22:37:01|10=249||0|
M|9|0|0|I|20110220-22:37:31.826|68|8=FIX.4.1|9=46|35=0|34=9|49=RBS1|56=BLP|52=20110220-22:37:31|10=253||0|
M|10|0|0|I|20110220-22:38:01.905|69|8=FIX.4.1|9=47|35=0|34=10|49=RBS1|56=BLP|52=20110220-22:38:01|10=036||0|
M|11|0|0|I|20110220-22:38:31.983|69|8=FIX.4.1|9=47|35=0|34=11|49=RBS1|56=BLP|52=20110220-22:38:31|10=040||0|
M|12|0|0|I|20110220-22:39:02.052|69|8=FIX.4.1|9=47|35=0|34=12|49=RBS1|56=BLP|52=20110220-22:39:02|10=040||0|
M|13|0|0|I|20110220-22:39:32.121|69|8=FIX.4.1|9=47|35=0|34=13|49=RBS1|56=BLP|52=20110220-22:39:32|10=044||0|
M|14|0|0|I|20110220-22:40:02.179|69|8=FIX.4.1|9=47|35=0|34=14|49=RBS1|56=BLP|52=20110220-22:40:02|10=034||0|
M|15|0|0|I|20110220-22:40:32.258|69|8=FIX.4.1|9=47|35=0|34=15|49=RBS1|56=BLP|52=20110220-22:40:32|10=038||0|
M|16|0|0|I|20110220-22:41:02.327|69|8=FIX.4.1|9=47|35=0|34=16|49=RBS1|56=BLP|52=20110220-22:41:02|10=037||0|
M|17|0|0|I|20110220-22:41:32.396|69|8=FIX.4.1|9=47|35=0|34=17|49=RBS1|56=BLP|52=20110220-22:41:32|10=041||0|
M|18|0|0|I|20110220-22:42:02.444|69|8=FIX.4.1|9=47|35=0|34=18|49=RBS1|56=BLP|52=20110220-22:42:02|10=040||0|
M|19|0|0|I|20110220-22:42:32.503|69|8=FIX.4.1|9=47|35=0|34=19|49=RBS1|56=BLP|52=20110220-22:42:32|10=044||0|
M|20|0|0|I|20110220-22:43:02.542|69|8=FIX.4.1|9=47|35=0|34=20|49=RBS1|56=BLP|52=20110220-22:43:02|10=034||0|
M|21|0|0|I|20110220-22:43:32.620|69|8=FIX.4.1|9=47|35=0|34=21|49=RBS1|56=BLP|52=20110220-22:43:32|10=038||0|
M|22|0|0|I|20110220-22:44:02.689|69|8=FIX.4.1|9=47|35=0|34=22|49=RBS1|56=BLP|52=20110220-22:44:02|10=037||0|
M|23|0|0|I|20110220-22:44:32.748|69|8=FIX.4.1|9=47|35=0|34=23|49=RBS1|56=BLP|52=20110220-22:44:32|10=041||0|
M|24|0|0|I|20110220-22:45:02.836|69|8=FIX.4.1|9=47|35=0|34=24|49=RBS1|56=BLP|52=20110220-22:45:02|10=040||0|
M|25|0|0|I|20110220-22:45:32.895|69|8=FIX.4.1|9=47|35=0|34=25|49=RBS1|56=BLP|52=20110220-22:45:32|10=044||0|
M|26|0|0|I|20110220-22:46:02.944|69|8=FIX.4.1|9=47|35=0|34=26|49=RBS1|56=BLP|52=20110220-22:46:02|10=043||0|
M|27|0|0|I|20110220-22:46:32.992|69|8=FIX.4.1|9=47|35=0|34=27|49=RBS1|56=BLP|52=20110220-22:46:32|10=047||0|
M|28|0|0|I|20110220-22:47:03.061|69|8=FIX.4.1|9=47|35=0|34=28|49=RBS1|56=BLP|52=20110220-22:47:03|10=047||0|
M|29|0|0|I|20110220-22:47:33.120|69|8=FIX.4.1|9=47|35=0|34=29|49=RBS1|56=BLP|52=20110220-22:47:33|10=051||0|
M|30|0|0|I|20110220-22:48:03.189|69|8=FIX.4.1|9=47|35=0|34=30|49=RBS1|56=BLP|52=20110220-22:48:03|10=041||0|
M|31|0|0|I|20110220-22:48:33.247|69|8=FIX.4.1|9=47|35=0|34=31|49=RBS1|56=BLP|52=20110220-22:48:33|10=045||0|
M|32|0|0|I|20110220-22:49:03.336|69|8=FIX.4.1|9=47|35=0|34=32|49=RBS1|56=BLP|52=20110220-22:49:03|10=044||0|
M|33|0|0|I|20110220-22:49:33.414|69|8=FIX.4.1|9=47|35=0|34=33|49=RBS1|56=BLP|52=20110220-22:49:33|10=048||0|
M|34|0|0|I|20110220-22:50:03.463|69|8=FIX.4.1|9=47|35=0|34=34|49=RBS1|56=BLP|52=20110220-22:50:03|10=038||0|
M|35|0|0|I|20110220-22:50:33.512|69|8=FIX.4.1|9=47|35=0|34=35|49=RBS1|56=BLP|52=20110220-22:50:33|10=042||0|
M|36|0|0|I|20110220-22:51:03.581|69|8=FIX.4.1|9=47|35=0|34=36|49=RBS1|56=BLP|52=20110220-22:51:03|10=041||0|
M|37|0|0|I|20110220-22:51:33.649|69|8=FIX.4.1|9=47|35=0|34=37|49=RBS1|56=BLP|52=20110220-22:51:33|10=045||0|
M|38|0|0|I|20110220-22:52:03.708|69|8=FIX.4.1|9=47|35=0|34=38|49=RBS1|56=BLP|52=20110220-22:52:03|10=044||0|
M|39|0|0|I|20110220-22:52:33.787|69|8=FIX.4.1|9=47|35=0|34=39|49=RBS1|56=BLP|52=20110220-22:52:33|10=048||0|
M|40|0|0|I|20110220-22:53:03.865|69|8=FIX.4.1|9=47|35=0|34=40|49=RBS1|56=BLP|52=20110220-22:53:03|10=038||0|
M|41|0|0|I|20110220-22:53:33.954|69|8=FIX.4.1|9=47|35=0|34=41|49=RBS1|56=BLP|52=20110220-22:53:33|10=042||0|
M|42|0|0|I|20110220-22:54:04.023|69|8=FIX.4.1|9=47|35=0|34=42|49=RBS1|56=BLP|52=20110220-22:54:04|10=042||0|
M|43|0|0|I|20110220-22:54:34.101|69|8=FIX.4.1|9=47|35=0|34=43|49=RBS1|56=BLP|52=20110220-22:54:34|10=046||0|
M|44|0|0|I|20110220-22:55:04.160|69|8=FIX.4.1|9=47|35=0|34=44|49=RBS1|56=BLP|52=20110220-22:55:04|10=045||0|
M|45|0|0|I|20110220-22:55:34.239|69|8=FIX.4.1|9=47|35=0|34=45|49=RBS1|56=BLP|52=20110220-22:55:34|10=049||0|
M|46|0|0|I|20110220-22:56:04.307|69|8=FIX.4.1|9=47|35=0|34=46|49=RBS1|56=BLP|52=20110220-22:56:04|10=048||0|
M|47|0|0|I|20110220-22:56:34.396|69|8=FIX.4.1|9=47|35=0|34=47|49=RBS1|56=BLP|52=20110220-22:56:34|10=052||0|
M|48|0|0|I|20110220-22:57:04.465|69|8=FIX.4.1|9=47|35=0|34=48|49=RBS1|56=BLP|52=20110220-22:57:04|10=051||0|
M|49|0|0|I|20110220-22:57:34.534|69|8=FIX.4.1|9=47|35=0|34=49|49=RBS1|56=BLP|52=20110220-22:57:34|10=055||0|
M|50|0|0|I|20110220-22:58:04.622|69|8=FIX.4.1|9=47|35=0|34=50|49=RBS1|56=BLP|52=20110220-22:58:04|10=045||0|
M|51|0|0|I|20110220-22:58:34.691|69|8=FIX.4.1|9=47|35=0|34=51|49=RBS1|56=BLP|52=20110220-22:58:34|10=049||0|
M|52|0|0|I|20110220-22:59:04.760|69|8=FIX.4.1|9=47|35=0|34=52|49=RBS1|56=BLP|52=20110220-22:59:04|10=048||0|
M|53|0|0|I|20110220-22:59:34.828|69|8=FIX.4.1|9=47|35=0|34=53|49=RBS1|56=BLP|52=20110220-22:59:34|10=052||0|
M|54|0|0|I|20110220-23:00:04.907|69|8=FIX.4.1|9=47|35=0|34=54|49=RBS1|56=BLP|52=20110220-23:00:04|10=037||0|
M|55|0|0|I|20110220-23:00:34.986|69|8=FIX.4.1|9=47|35=0|34=55|49=RBS1|56=BLP|52=20110220-23:00:34|10=041||0|
M|56|0|0|I|20110220-23:01:05.064|69|8=FIX.4.1|9=47|35=0|34=56|49=RBS1|56=BLP|52=20110220-23:01:05|10=041||0|
M|57|0|0|I|20110220-23:01:35.143|69|8=FIX.4.1|9=47|35=0|34=57|49=RBS1|56=BLP|52=20110220-23:01:35|10=045||0|
M|58|0|0|I|20110220-23:02:05.202|69|8=FIX.4.1|9=47|35=0|34=58|49=RBS1|56=BLP|52=20110220-23:02:05|10=044||0|
M|59|0|0|I|20110220-23:02:35.260|69|8=FIX.4.1|9=47|35=0|34=59|49=RBS1|56=BLP|52=20110220-23:02:35|10=048||0|
M|60|0|0|I|20110220-23:03:05.319|69|8=FIX.4.1|9=47|35=0|34=60|49=RBS1|56=BLP|52=20110220-23:03:05|10=038||0|
M|61|0|0|I|20110220-23:03:35.378|69|8=FIX.4.1|9=47|35=0|34=61|49=RBS1|56=BLP|52=20110220-23:03:35|10=042||0|
M|62|0|0|I|20110220-23:04:05.426|69|8=FIX.4.1|9=47|35=0|34=62|49=RBS1|56=BLP|52=20110220-23:04:05|10=041||0|
M|63|0|0|I|20110220-23:04:35.485|69|8=FIX.4.1|9=47|35=0|34=63|49=RBS1|56=BLP|52=20110220-23:04:35|10=045||0|
M|64|0|0|I|20110220-23:05:05.564|69|8=FIX.4.1|9=47|35=0|34=64|49=RBS1|56=BLP|52=20110220-23:05:05|10=044||0|
M|65|0|0|I|20110220-23:05:35.633|69|8=FIX.4.1|9=47|35=0|34=65|49=RBS1|56=BLP|52=20110220-23:05:35|10=048||0|
M|66|0|0|I|20110220-23:06:05.691|69|8=FIX.4.1|9=47|35=0|34=66|49=RBS1|56=BLP|52=20110220-23:06:05|10=047||0|
M|67|0|0|I|20110220-23:06:35.760|69|8=FIX.4.1|9=47|35=0|34=67|49=RBS1|56=BLP|52=20110220-23:06:35|10=051||0|
M|68|0|0|I|20110220-23:07:05.839|69|8=FIX.4.1|9=47|35=0|34=68|49=RBS1|56=BLP|52=20110220-23:07:05|10=050||0|
M|69|0|0|I|20110220-23:07:35.887|69|8=FIX.4.1|9=47|35=0|34=69|49=RBS1|56=BLP|52=20110220-23:07:35|10=054||0|
M|70|0|0|I|20110220-23:08:05.966|69|8=FIX.4.1|9=47|35=0|34=70|49=RBS1|56=BLP|52=20110220-23:08:05|10=044||0|
M|71|0|0|I|20110220-23:08:36.045|69|8=FIX.4.1|9=47|35=0|34=71|49=RBS1|56=BLP|52=20110220-23:08:36|10=049||0|
M|72|0|0|I|20110220-23:09:06.103|69|8=FIX.4.1|9=47|35=0|34=72|49=RBS1|56=BLP|52=20110220-23:09:06|10=048||0|
M|73|0|0|I|20110220-23:09:36.182|69|8=FIX.4.1|9=47|35=0|34=73|49=RBS1|56=BLP|52=20110220-23:09:36|10=052||0|
M|74|0|0|I|20110220-23:10:06.241|69|8=FIX.4.1|9=47|35=0|34=74|49=RBS1|56=BLP|52=20110220-23:10:06|10=042||0|
M|75|0|0|I|20110220-23:10:36.319|69|8=FIX.4.1|9=47|35=0|34=75|49=RBS1|56=BLP|52=20110220-23:10:36|10=046||0|
M|76|0|0|I|20110220-23:11:06.408|69|8=FIX.4.1|9=47|35=0|34=76|49=RBS1|56=BLP|52=20110220-23:11:06|10=045||0|
M|77|0|0|I|20110220-23:11:36.477|69|8=FIX.4.1|9=47|35=0|34=77|49=RBS1|56=BLP|52=20110220-23:11:36|10=049||0|
M|78|0|0|I|20110220-23:12:06.535|69|8=FIX.4.1|9=47|35=0|34=78|49=RBS1|56=BLP|52=20110220-23:12:06|10=048||0|
M|79|0|0|I|20110220-23:12:36.584|69|8=FIX.4.1|9=47|35=0|34=79|49=RBS1|56=BLP|52=20110220-23:12:36|10=052||0|
M|80|0|0|I|20110220-23:13:06.653|69|8=FIX.4.1|9=47|35=0|34=80|49=RBS1|56=BLP|52=20110220-23:13:06|10=042||0|
M|81|0|0|I|20110220-23:13:36.711|69|8=FIX.4.1|9=47|35=0|34=81|49=RBS1|56=BLP|52=20110220-23:13:36|10=046||0|
M|82|0|0|I|20110220-23:14:06.780|69|8=FIX.4.1|9=47|35=0|34=82|49=RBS1|56=BLP|52=20110220-23:14:06|10=045||0|
M|83|0|0|I|20110220-23:14:36.849|69|8=FIX.4.1|9=47|35=0|34=83|49=RBS1|56=BLP|52=20110220-23:14:36|10=049||0|
M|84|0|0|I|20110220-23:15:06.898|69|8=FIX.4.1|9=47|35=0|34=84|49=RBS1|56=BLP|52=20110220-23:15:06|10=048||0|
M|85|0|0|I|20110220-23:15:36.926|69|8=FIX.4.1|9=47|35=0|34=85|49=RBS1|56=BLP|52=20110220-23:15:36|10=052||0|
M|86|0|0|I|20110220-23:16:06.985|69|8=FIX.4.1|9=47|35=0|34=86|49=RBS1|56=BLP|52=20110220-23:16:06|10=051||0|
M|87|0|0|I|20110220-23:16:37.064|69|8=FIX.4.1|9=47|35=0|34=87|49=RBS1|56=BLP|52=20110220-23:16:37|10=056||0|
M|88|0|0|I|20110220-23:17:07.122|69|8=FIX.4.1|9=47|35=0|34=88|49=RBS1|56=BLP|52=20110220-23:17:07|10=055||0|
M|89|0|0|I|20110220-23:17:37.201|69|8=FIX.4.1|9=47|35=0|34=89|49=RBS1|56=BLP|52=20110220-23:17:37|10=059||0|
M|90|0|0|I|20110220-23:18:07.290|69|8=FIX.4.1|9=47|35=0|34=90|49=RBS1|56=BLP|52=20110220-23:18:07|10=049||0|
M|91|0|0|I|20110220-23:18:37.348|69|8=FIX.4.1|9=47|35=0|34=91|49=RBS1|56=BLP|52=20110220-23:18:37|10=053||0|
M|92|0|0|I|20110220-23:19:07.417|69|8=FIX.4.1|9=47|35=0|34=92|49=RBS1|56=BLP|52=20110220-23:19:07|10=052||0|
M|93|0|0|I|20110220-23:19:37.486|69|8=FIX.4.1|9=47|35=0|34=93|49=RBS1|56=BLP|52=20110220-23:19:37|10=056||0|
M|94|0|0|I|20110220-23:20:07.554|69|8=FIX.4.1|9=47|35=0|34=94|49=RBS1|56=BLP|52=20110220-23:20:07|10=046||0|
M|95|0|0|I|20110220-23:20:37.593|69|8=FIX.4.1|9=47|35=0|34=95|49=RBS1|56=BLP|52=20110220-23:20:37|10=050||0|
M|96|0|0|I|20110220-23:21:07.662|69|8=FIX.4.1|9=47|35=0|34=96|49=RBS1|56=BLP|52=20110220-23:21:07|10=049||0|
M|97|0|0|I|20110220-23:21:37.721|69|8=FIX.4.1|9=47|35=0|34=97|49=RBS1|56=BLP|52=20110220-23:21:37|10=053||0|
M|98|0|0|I|20110220-23:22:07.769|69|8=FIX.4.1|9=47|35=0|34=98|49=RBS1|56=BLP|52=20110220-23:22:07|10=052||0|
M|99|0|0|I|20110220-23:22:37.848|69|8=FIX.4.1|9=47|35=0|34=99|49=RBS1|56=BLP|52=20110220-23:22:37|10=056||0|
M|100|0|0|I|20110220-23:23:07.927|70|8=FIX.4.1|9=48|35=0|34=100|49=RBS1|56=BLP|52=20110220-23:23:07|10=086||0|
M|101|0|0|I|20110220-23:23:37.975|70|8=FIX.4.1|9=48|35=0|34=101|49=RBS1|56=BLP|52=20110220-23:23:37|10=090||0|
M|102|0|0|I|20110220-23:24:08.024|70|8=FIX.4.1|9=48|35=0|34=102|49=RBS1|56=BLP|52=20110220-23:24:08|10=090||0|
M|103|0|0|I|20110220-23:24:38.073|70|8=FIX.4.1|9=48|35=0|34=103|49=RBS1|56=BLP|52=20110220-23:24:38|10=094||0|
M|104|0|0|I|20110220-23:25:08.141|70|8=FIX.4.1|9=48|35=0|34=104|49=RBS1|56=BLP|52=20110220-23:25:08|10=093||0|
M|105|0|0|I|20110220-23:25:38.210|70|8=FIX.4.1|9=48|35=0|34=105|49=RBS1|56=BLP|52=20110220-23:25:38|10=097||0|
M|106|0|0|I|20110220-23:26:08.279|70|8=FIX.4.1|9=48|35=0|34=106|49=RBS1|56=BLP|52=20110220-23:26:08|10=096||0|
M|107|0|0|I|20110220-23:26:38.327|70|8=FIX.4.1|9=48|35=0|34=107|49=RBS1|56=BLP|52=20110220-23:26:38|10=100||0|
M|108|0|0|I|20110220-23:27:08.406|70|8=FIX.4.1|9=48|35=0|34=108|49=RBS1|56=BLP|52=20110220-23:27:08|10=099||0|
M|109|0|0|I|20110220-23:27:38.455|70|8=FIX.4.1|9=48|35=0|34=109|49=RBS1|56=BLP|52=20110220-23:27:38|10=103||0|
M|110|0|0|I|20110220-23:28:08.534|70|8=FIX.4.1|9=48|35=0|34=110|49=RBS1|56=BLP|52=20110220-23:28:08|10=093||0|
M|111|0|0|I|20110220-23:28:38.612|70|8=FIX.4.1|9=48|35=0|34=111|49=RBS1|56=BLP|52=20110220-23:28:38|10=097||0|
M|112|0|0|I|20110220-23:29:08.691|70|8=FIX.4.1|9=48|35=0|34=112|49=RBS1|56=BLP|52=20110220-23:29:08|10=096||0|
M|113|0|0|I|20110220-23:29:38.740|70|8=FIX.4.1|9=48|35=0|34=113|49=RBS1|56=BLP|52=20110220-23:29:38|10=100||0|
M|114|0|0|I|20110220-23:30:08.898|70|8=FIX.4.1|9=48|35=0|34=114|49=RBS1|56=BLP|52=20110220-23:30:08|10=090||0|
M|115|0|0|I|20110220-23:30:38.967|70|8=FIX.4.1|9=48|35=0|34=115|49=RBS1|56=BLP|52=20110220-23:30:38|10=094||0|
M|116|0|0|I|20110220-23:31:09.026|70|8=FIX.4.1|9=48|35=0|34=116|49=RBS1|56=BLP|52=20110220-23:31:09|10=094||0|
M|117|0|0|I|20110220-23:31:39.084|70|8=FIX.4.1|9=48|35=0|34=117|49=RBS1|56=BLP|52=20110220-23:31:39|10=098||0|
M|118|0|0|I|20110220-23:32:09.163|70|8=FIX.4.1|9=48|35=0|34=118|49=RBS1|56=BLP|52=20110220-23:32:09|10=097||0|
M|119|0|0|I|20110220-23:32:39.232|70|8=FIX.4.1|9=48|35=0|34=119|49=RBS1|56=BLP|52=20110220-23:32:39|10=101||0|
M|120|0|0|I|20110220-23:33:09.310|70|8=FIX.4.1|9=48|35=0|34=120|49=RBS1|56=BLP|52=20110220-23:33:09|10=091||0|
M|121|0|0|I|20110220-23:33:39.369|70|8=FIX.4.1|9=48|35=0|34=121|49=RBS1|56=BLP|52=20110220-23:33:39|10=095||0|
M|122|0|0|I|20110220-23:34:09.428|70|8=FIX.4.1|9=48|35=0|34=122|49=RBS1|56=BLP|52=20110220-23:34:09|10=094||0|
M|123|0|0|I|20110220-23:34:39.506|70|8=FIX.4.1|9=48|35=0|34=123|49=RBS1|56=BLP|52=20110220-23:34:39|10=098||0|
M|124|0|0|I|20110220-23:35:09.575|70|8=FIX.4.1|9=48|35=0|34=124|49=RBS1|56=BLP|52=20110220-23:35:09|10=097||0|
M|125|0|0|I|20110220-23:35:39.624|70|8=FIX.4.1|9=48|35=0|34=125|49=RBS1|56=BLP|52=20110220-23:35:39|10=101||0|
M|126|0|0|I|20110220-23:36:09.682|70|8=FIX.4.1|9=48|35=0|34=126|49=RBS1|56=BLP|52=20110220-23:36:09|10=100||0|
M|127|0|0|I|20110220-23:36:39.751|70|8=FIX.4.1|9=48|35=0|34=127|49=RBS1|56=BLP|52=20110220-23:36:39|10=104||0|
M|128|0|0|I|20110220-23:37:09.830|70|8=FIX.4.1|9=48|35=0|34=128|49=RBS1|56=BLP|52=20110220-23:37:09|10=103||0|
M|129|0|0|I|20110220-23:37:39.899|70|8=FIX.4.1|9=48|35=0|34=129|49=RBS1|56=BLP|52=20110220-23:37:39|10=107||0|
M|130|0|0|I|20110220-23:38:09.967|70|8=FIX.4.1|9=48|35=0|34=130|49=RBS1|56=BLP|52=20110220-23:38:09|10=097||0|
M|131|0|0|I|20110220-23:38:40.026|70|8=FIX.4.1|9=48|35=0|34=131|49=RBS1|56=BLP|52=20110220-23:38:40|10=093||0|
M|132|0|0|I|20110220-23:39:10.105|70|8=FIX.4.1|9=48|35=0|34=132|49=RBS1|56=BLP|52=20110220-23:39:10|10=092||0|
M|133|0|0|I|20110220-23:39:40.183|70|8=FIX.4.1|9=48|35=0|34=133|49=RBS1|56=BLP|52=20110220-23:39:40|10=096||0|
M|134|0|0|I|20110220-23:40:10.252|70|8=FIX.4.1|9=48|35=0|34=134|49=RBS1|56=BLP|52=20110220-23:40:10|10=086||0|
M|135|0|0|I|20110220-23:40:40.331|70|8=FIX.4.1|9=48|35=0|34=135|49=RBS1|56=BLP|52=20110220-23:40:40|10=090||0|
M|136|0|0|I|20110220-23:41:10.369|70|8=FIX.4.1|9=48|35=0|34=136|49=RBS1|56=BLP|52=20110220-23:41:10|10=089||0|
M|137|0|0|I|20110220-23:41:40.448|70|8=FIX.4.1|9=48|35=0|34=137|49=RBS1|56=BLP|52=20110220-23:41:40|10=093||0|
M|138|0|0|I|20110220-23:42:10.517|70|8=FIX.4.1|9=48|35=0|34=138|49=RBS1|56=BLP|52=20110220-23:42:10|10=092||0|
M|139|0|0|I|20110220-23:42:40.596|70|8=FIX.4.1|9=48|35=0|34=139|49=RBS1|56=BLP|52=20110220-23:42:40|10=096||0|
M|140|0|0|I|20110220-23:43:10.674|70|8=FIX.4.1|9=48|35=0|34=140|49=RBS1|56=BLP|52=20110220-23:43:10|10=086||0|
M|141|0|0|I|20110220-23:43:40.743|70|8=FIX.4.1|9=48|35=0|34=141|49=RBS1|56=BLP|52=20110220-23:43:40|10=090||0|
M|142|0|0|I|20110220-23:44:10.812|70|8=FIX.4.1|9=48|35=0|34=142|49=RBS1|56=BLP|52=20110220-23:44:10|10=089||0|
M|143|0|0|I|20110220-23:44:40.890|70|8=FIX.4.1|9=48|35=0|34=143|49=RBS1|56=BLP|52=20110220-23:44:40|10=093||0|
M|144|0|0|I|20110220-23:45:10.959|70|8=FIX.4.1|9=48|35=0|34=144|49=RBS1|56=BLP|52=20110220-23:45:10|10=092||0|
M|145|0|0|I|20110220-23:45:41.018|70|8=FIX.4.1|9=48|35=0|34=145|49=RBS1|56=BLP|52=20110220-23:45:41|10=097||0|
M|146|0|0|I|20110220-23:46:11.066|70|8=FIX.4.1|9=48|35=0|34=146|49=RBS1|56=BLP|52=20110220-23:46:11|10=096||0|
M|147|0|0|I|20110220-23:46:41.125|70|8=FIX.4.1|9=48|35=0|34=147|49=RBS1|56=BLP|52=20110220-23:46:41|10=100||0|
M|148|0|0|I|20110220-23:47:11.174|70|8=FIX.4.1|9=48|35=0|34=148|49=RBS1|56=BLP|52=20110220-23:47:11|10=099||0|
M|149|0|0|I|20110220-23:47:41.262|70|8=FIX.4.1|9=48|35=0|34=149|49=RBS1|56=BLP|52=20110220-23:47:41|10=103||0|
M|150|0|0|I|20110220-23:48:11.311|70|8=FIX.4.1|9=48|35=0|34=150|49=RBS1|56=BLP|52=20110220-23:48:11|10=093||0|
M|151|0|0|I|20110220-23:48:41.360|70|8=FIX.4.1|9=48|35=0|34=151|49=RBS1|56=BLP|52=20110220-23:48:41|10=097||0|
M|152|0|0|I|20110220-23:49:11.408|70|8=FIX.4.1|9=48|35=0|34=152|49=RBS1|56=BLP|52=20110220-23:49:11|10=096||0|
M|153|0|0|I|20110220-23:49:41.467|70|8=FIX.4.1|9=48|35=0|34=153|49=RBS1|56=BLP|52=20110220-23:49:41|10=100||0|
M|154|0|0|I|20110220-23:50:11.526|70|8=FIX.4.1|9=48|35=0|34=154|49=RBS1|56=BLP|52=20110220-23:50:11|10=090||0|
M|155|0|0|I|20110220-23:50:41.604|70|8=FIX.4.1|9=48|35=0|34=155|49=RBS1|56=BLP|52=20110220-23:50:41|10=094||0|
M|156|0|0|I|20110220-23:51:11.673|70|8=FIX.4.1|9=48|35=0|34=156|49=RBS1|56=BLP|52=20110220-23:51:11|10=093||0|
M|157|0|0|I|20110220-23:51:41.732|70|8=FIX.4.1|9=48|35=0|34=157|49=RBS1|56=BLP|52=20110220-23:51:41|10=097||0|
M|158|0|0|I|20110220-23:52:11.771|70|8=FIX.4.1|9=48|35=0|34=158|49=RBS1|56=BLP|52=20110220-23:52:11|10=096||0|
M|159|0|0|I|20110220-23:52:41.849|70|8=FIX.4.1|9=48|35=0|34=159|49=RBS1|56=BLP|52=20110220-23:52:41|10=100||0|
M|160|0|0|I|20110220-23:53:11.928|70|8=FIX.4.1|9=48|35=0|34=160|49=RBS1|56=BLP|52=20110220-23:53:11|10=090||0|
M|161|0|0|I|20110220-23:53:41.987|70|8=FIX.4.1|9=48|35=0|34=161|49=RBS1|56=BLP|52=20110220-23:53:41|10=094||0|
M|162|0|0|I|20110220-23:54:12.055|70|8=FIX.4.1|9=48|35=0|34=162|49=RBS1|56=BLP|52=20110220-23:54:12|10=094||0|
M|163|0|0|I|20110220-23:54:42.124|70|8=FIX.4.1|9=48|35=0|34=163|49=RBS1|56=BLP|52=20110220-23:54:42|10=098||0|
M|164|0|0|I|20110220-23:55:12.193|70|8=FIX.4.1|9=48|35=0|34=164|49=RBS1|56=BLP|52=20110220-23:55:12|10=097||0|
M|165|0|0|I|20110220-23:55:42.251|70|8=FIX.4.1|9=48|35=0|34=165|49=RBS1|56=BLP|52=20110220-23:55:42|10=101||0|
M|166|0|0|I|20110220-23:56:12.330|70|8=FIX.4.1|9=48|35=0|34=166|49=RBS1|56=BLP|52=20110220-23:56:12|10=100||0|
M|167|0|0|I|20110220-23:56:42.409|70|8=FIX.4.1|9=48|35=0|34=167|49=RBS1|56=BLP|52=20110220-23:56:42|10=104||0|
M|168|0|0|I|20110220-23:57:12.477|70|8=FIX.4.1|9=48|35=0|34=168|49=RBS1|56=BLP|52=20110220-23:57:12|10=103||0|
M|169|0|0|I|20110220-23:57:42.536|70|8=FIX.4.1|9=48|35=0|34=169|49=RBS1|56=BLP|52=20110220-23:57:42|10=107||0|
M|170|0|0|I|20110220-23:58:12.605|70|8=FIX.4.1|9=48|35=0|34=170|49=RBS1|56=BLP|52=20110220-23:58:12|10=097||0|
M|171|0|0|I|20110220-23:58:42.663|70|8=FIX.4.1|9=48|35=0|34=171|49=RBS1|56=BLP|52=20110220-23:58:42|10=101||0|
M|172|0|0|I|20110220-23:59:12.732|70|8=FIX.4.1|9=48|35=0|34=172|49=RBS1|56=BLP|52=20110220-23:59:12|10=100||0|
M|173|0|0|I|20110220-23:59:42.801|70|8=FIX.4.1|9=48|35=0|34=173|49=RBS1|56=BLP|52=20110220-23:59:42|10=104||0|
M|174|0|0|I|20110221-00:00:12.869|70|8=FIX.4.1|9=48|35=0|34=174|49=RBS1|56=BLP|52=20110221-00:00:12|10=084||0|
M|175|0|0|I|20110221-00:00:42.938|70|8=FIX.4.1|9=48|35=0|34=175|49=RBS1|56=BLP|52=20110221-00:00:42|10=088||0|
M|176|0|0|I|20110221-00:01:13.007|70|8=FIX.4.1|9=48|35=0|34=176|49=RBS1|56=BLP|52=20110221-00:01:13|10=088||0|
M|177|0|0|I|20110221-00:01:43.076|70|8=FIX.4.1|9=48|35=0|34=177|49=RBS1|56=BLP|52=20110221-00:01:43|10=092||0|
M|178|0|0|I|20110221-00:02:13.144|70|8=FIX.4.1|9=48|35=0|34=178|49=RBS1|56=BLP|52=20110221-00:02:13|10=091||0|
M|179|0|0|I|20110221-00:02:43.223|70|8=FIX.4.1|9=48|35=0|34=179|49=RBS1|56=BLP|52=20110221-00:02:43|10=095||0|
M|180|0|0|I|20110221-00:03:13.292|70|8=FIX.4.1|9=48|35=0|34=180|49=RBS1|56=BLP|52=20110221-00:03:13|10=085||0|
M|181|0|0|I|20110221-00:03:43.370|70|8=FIX.4.1|9=48|35=0|34=181|49=RBS1|56=BLP|52=20110221-00:03:43|10=089||0|
M|182|0|0|I|20110221-00:04:13.449|70|8=FIX.4.1|9=48|35=0|34=182|49=RBS1|56=BLP|52=20110221-00:04:13|10=088||0|
M|183|0|0|I|20110221-00:04:43.508|70|8=FIX.4.1|9=48|35=0|34=183|49=RBS1|56=BLP|52=20110221-00:04:43|10=092||0|
M|184|0|0|I|20110221-00:05:13.556|70|8=FIX.4.1|9=48|35=0|34=184|49=RBS1|56=BLP|52=20110221-00:05:13|10=091||0|
M|185|0|0|I|20110221-00:05:43.635|70|8=FIX.4.1|9=48|35=0|34=185|49=RBS1|56=BLP|52=20110221-00:05:43|10=095||0|
M|186|0|0|I|20110221-00:06:13.704|70|8=FIX.4.1|9=48|35=0|34=186|49=RBS1|56=BLP|52=20110221-00:06:13|10=094||0|
M|187|0|0|I|20110221-00:06:43.772|70|8=FIX.4.1|9=48|35=0|34=187|49=RBS1|56=BLP|52=20110221-00:06:43|10=098||0|
M|188|0|0|I|20110221-00:07:13.851|70|8=FIX.4.1|9=48|35=0|34=188|49=RBS1|56=BLP|52=20110221-00:07:13|10=097||0|
M|189|0|0|I|20110221-00:07:43.910|70|8=FIX.4.1|9=48|35=0|34=189|49=RBS1|56=BLP|52=20110221-00:07:43|10=101||0|
M|190|0|0|I|20110221-00:08:13.988|70|8=FIX.4.1|9=48|35=0|34=190|49=RBS1|56=BLP|52=20110221-00:08:13|10=091||0|
M|191|0|0|I|20110221-00:08:44.067|70|8=FIX.4.1|9=48|35=0|34=191|49=RBS1|56=BLP|52=20110221-00:08:44|10=096||0|
M|192|0|0|I|20110221-00:09:14.146|70|8=FIX.4.1|9=48|35=0|34=192|49=RBS1|56=BLP|52=20110221-00:09:14|10=095||0|
M|193|0|0|I|20110221-00:09:44.205|70|8=FIX.4.1|9=48|35=0|34=193|49=RBS1|56=BLP|52=20110221-00:09:44|10=099||0|
M|194|0|0|I|20110221-00:10:14.273|70|8=FIX.4.1|9=48|35=0|34=194|49=RBS1|56=BLP|52=20110221-00:10:14|10=089||0|
M|195|0|0|I|20110221-00:10:44.352|70|8=FIX.4.1|9=48|35=0|34=195|49=RBS1|56=BLP|52=20110221-00:10:44|10=093||0|
M|196|0|0|I|20110221-00:11:14.421|70|8=FIX.4.1|9=48|35=0|34=196|49=RBS1|56=BLP|52=20110221-00:11:14|10=092||0|
M|197|0|0|I|20110221-00:11:44.489|70|8=FIX.4.1|9=48|35=0|34=197|49=RBS1|56=BLP|52=20110221-00:11:44|10=096||0|
M|198|0|0|I|20110221-00:12:14.558|70|8=FIX.4.1|9=48|35=0|34=198|49=RBS1|56=BLP|52=20110221-00:12:14|10=095||0|
M|199|0|0|I|20110221-00:12:44.627|70|8=FIX.4.1|9=48|35=0|34=199|49=RBS1|56=BLP|52=20110221-00:12:44|10=099||0|
M|200|0|0|I|20110221-00:13:14.695|70|8=FIX.4.1|9=48|35=0|34=200|49=RBS1|56=BLP|52=20110221-00:13:14|10=080||0|
M|201|0|0|I|20110221-00:13:44.734|70|8=FIX.4.1|9=48|35=0|34=201|49=RBS1|56=BLP|52=20110221-00:13:44|10=084||0|
M|202|0|0|I|20110221-00:14:14.793|70|8=FIX.4.1|9=48|35=0|34=202|49=RBS1|56=BLP|52=20110221-00:14:14|10=083||0|
M|203|0|0|I|20110221-00:14:44.871|70|8=FIX.4.1|9=48|35=0|34=203|49=RBS1|56=BLP|52=20110221-00:14:44|10=087||0|
M|204|0|0|I|20110221-00:15:14.940|70|8=FIX.4.1|9=48|35=0|34=204|49=RBS1|56=BLP|52=20110221-00:15:14|10=086||0|
M|205|0|0|I|20110221-00:15:44.999|70|8=FIX.4.1|9=48|35=0|34=205|49=RBS1|56=BLP|52=20110221-00:15:44|10=090||0|
M|206|0|0|I|20110221-00:16:15.087|70|8=FIX.4.1|9=48|35=0|34=206|49=RBS1|56=BLP|52=20110221-00:16:15|10=090||0|
M|207|0|0|I|20110221-00:16:45.136|70|8=FIX.4.1|9=48|35=0|34=207|49=RBS1|56=BLP|52=20110221-00:16:45|10=094||0|
M|208|0|0|I|20110221-00:17:15.195|70|8=FIX.4.1|9=48|35=0|34=208|49=RBS1|56=BLP|52=20110221-00:17:15|10=093||0|
M|209|0|0|I|20110221-00:17:45.274|70|8=FIX.4.1|9=48|35=0|34=209|49=RBS1|56=BLP|52=20110221-00:17:45|10=097||0|
M|210|0|0|I|20110221-00:18:15.352|70|8=FIX.4.1|9=48|35=0|34=210|49=RBS1|56=BLP|52=20110221-00:18:15|10=087||0|
M|211|0|0|I|20110221-00:18:45.431|70|8=FIX.4.1|9=48|35=0|34=211|49=RBS1|56=BLP|52=20110221-00:18:45|10=091||0|
M|212|0|0|I|20110221-00:19:15.510|70|8=FIX.4.1|9=48|35=0|34=212|49=RBS1|56=BLP|52=20110221-00:19:15|10=090||0|
M|213|0|0|I|20110221-00:19:45.558|70|8=FIX.4.1|9=48|35=0|34=213|49=RBS1|56=BLP|52=20110221-00:19:45|10=094||0|
M|214|0|0|I|20110221-00:20:15.617|70|8=FIX.4.1|9=48|35=0|34=214|49=RBS1|56=BLP|52=20110221-00:20:15|10=084||0|
M|215|0|0|I|20110221-00:20:45.686|70|8=FIX.4.1|9=48|35=0|34=215|49=RBS1|56=BLP|52=20110221-00:20:45|10=088||0|
M|216|0|0|I|20110221-00:21:15.754|70|8=FIX.4.1|9=48|35=0|34=216|49=RBS1|56=BLP|52=20110221-00:21:15|10=087||0|
M|217|0|0|I|20110221-00:21:45.833|70|8=FIX.4.1|9=48|35=0|34=217|49=RBS1|56=BLP|52=20110221-00:21:45|10=091||0|
M|218|0|0|I|20110221-00:22:15.872|70|8=FIX.4.1|9=48|35=0|34=218|49=RBS1|56=BLP|52=20110221-00:22:15|10=090||0|
M|219|0|0|I|20110221-00:22:45.940|70|8=FIX.4.1|9=48|35=0|34=219|49=RBS1|56=BLP|52=20110221-00:22:45|10=094||0|
M|220|0|0|I|20110221-00:23:16.029|70|8=FIX.4.1|9=48|35=0|34=220|49=RBS1|56=BLP|52=20110221-00:23:16|10=085||0|
M|221|0|0|I|20110221-00:23:46.088|70|8=FIX.4.1|9=48|35=0|34=221|49=RBS1|56=BLP|52=20110221-00:23:46|10=089||0|
M|222|0|0|I|20110221-00:24:16.166|70|8=FIX.4.1|9=48|35=0|34=222|49=RBS1|56=BLP|52=20110221-00:24:16|10=088||0|
M|223|0|0|I|20110221-00:24:46.215|70|8=FIX.4.1|9=48|35=0|34=223|49=RBS1|56=BLP|52=20110221-00:24:46|10=092||0|
M|224|0|0|I|20110221-00:25:16.274|70|8=FIX.4.1|9=48|35=0|34=224|49=RBS1|56=BLP|52=20110221-00:25:16|10=091||0|
M|225|0|0|I|20110221-00:25:46.333|70|8=FIX.4.1|9=48|35=0|34=225|49=RBS1|56=BLP|52=20110221-00:25:46|10=095||0|
M|226|0|0|I|20110221-00:26:16.411|70|8=FIX.4.1|9=48|35=0|34=226|49=RBS1|56=BLP|52=20110221-00:26:16|10=094||0|
M|227|0|0|I|20110221-00:26:46.480|70|8=FIX.4.1|9=48|35=0|34=227|49=RBS1|56=BLP|52=20110221-00:26:46|10=098||0|
M|228|0|0|I|20110221-00:27:16.559|70|8=FIX.4.1|9=48|35=0|34=228|49=RBS1|56=BLP|52=20110221-00:27:16|10=097||0|
M|229|0|0|I|20110221-00:27:46.637|70|8=FIX.4.1|9=48|35=0|34=229|49=RBS1|56=BLP|52=20110221-00:27:46|10=101||0|
M|230|0|0|I|20110221-00:28:16.696|70|8=FIX.4.1|9=48|35=0|34=230|49=RBS1|56=BLP|52=20110221-00:28:16|10=091||0|
M|231|0|0|I|20110221-00:28:46.775|70|8=FIX.4.1|9=48|35=0|34=231|49=RBS1|56=BLP|52=20110221-00:28:46|10=095||0|
M|232|0|0|I|20110221-00:29:16.833|70|8=FIX.4.1|9=48|35=0|34=232|49=RBS1|56=BLP|52=20110221-00:29:16|10=094||0|
M|233|0|0|I|20110221-00:29:46.912|70|8=FIX.4.1|9=48|35=0|34=233|49=RBS1|56=BLP|52=20110221-00:29:46|10=098||0|
M|234|0|0|I|20110221-00:30:17.031|70|8=FIX.4.1|9=48|35=0|34=234|49=RBS1|56=BLP|52=20110221-00:30:17|10=089||0|
M|235|0|0|I|20110221-00:30:47.089|70|8=FIX.4.1|9=48|35=0|34=235|49=RBS1|56=BLP|52=20110221-00:30:47|10=093||0|
M|236|0|0|I|20110221-00:31:17.158|70|8=FIX.4.1|9=48|35=0|34=236|49=RBS1|56=BLP|52=20110221-00:31:17|10=092||0|
M|237|0|0|I|20110221-00:31:47.217|70|8=FIX.4.1|9=48|35=0|34=237|49=RBS1|56=BLP|52=20110221-00:31:47|10=096||0|
M|238|0|0|I|20110221-00:32:17.286|70|8=FIX.4.1|9=48|35=0|34=238|49=RBS1|56=BLP|52=20110221-00:32:17|10=095||0|
M|239|0|0|I|20110221-00:32:47.354|70|8=FIX.4.1|9=48|35=0|34=239|49=RBS1|56=BLP|52=20110221-00:32:47|10=099||0|
M|240|0|0|I|20110221-00:33:17.433|70|8=FIX.4.1|9=48|35=0|34=240|49=RBS1|56=BLP|52=20110221-00:33:17|10=089||0|
M|241|0|0|I|20110221-00:33:47.512|70|8=FIX.4.1|9=48|35=0|34=241|49=RBS1|56=BLP|52=20110221-00:33:47|10=093||0|
M|242|0|0|I|20110221-00:34:17.570|70|8=FIX.4.1|9=48|35=0|34=242|49=RBS1|56=BLP|52=20110221-00:34:17|10=092||0|
M|243|0|0|I|20110221-00:34:47.619|70|8=FIX.4.1|9=48|35=0|34=243|49=RBS1|56=BLP|52=20110221-00:34:47|10=096||0|
M|244|0|0|I|20110221-00:35:17.698|70|8=FIX.4.1|9=48|35=0|34=244|49=RBS1|56=BLP|52=20110221-00:35:17|10=095||0|
M|245|0|0|I|20110221-00:35:47.736|70|8=FIX.4.1|9=48|35=0|34=245|49=RBS1|56=BLP|52=20110221-00:35:47|10=099||0|
M|246|0|0|I|20110221-00:36:17.805|70|8=FIX.4.1|9=48|35=0|34=246|49=RBS1|56=BLP|52=20110221-00:36:17|10=098||0|
M|247|0|0|I|20110221-00:36:47.874|70|8=FIX.4.1|9=48|35=0|34=247|49=RBS1|56=BLP|52=20110221-00:36:47|10=102||0|
M|248|0|0|I|20110221-00:37:17.942|70|8=FIX.4.1|9=48|35=0|34=248|49=RBS1|56=BLP|52=20110221-00:37:17|10=101||0|
M|249|0|0|I|20110221-00:37:48.031|70|8=FIX.4.1|9=48|35=0|34=249|49=RBS1|56=BLP|52=20110221-00:37:48|10=106||0|
M|250|0|0|I|20110221-00:38:18.090|70|8=FIX.4.1|9=48|35=0|34=250|49=RBS1|56=BLP|52=20110221-00:38:18|10=096||0|
M|251|0|0|I|20110221-00:38:48.158|70|8=FIX.4.1|9=48|35=0|34=251|49=RBS1|56=BLP|52=20110221-00:38:48|10=100||0|
M|252|0|0|I|20110221-00:39:18.217|70|8=FIX.4.1|9=48|35=0|34=252|49=RBS1|56=BLP|52=20110221-00:39:18|10=099||0|
M|253|0|0|I|20110221-00:39:48.276|70|8=FIX.4.1|9=48|35=0|34=253|49=RBS1|56=BLP|52=20110221-00:39:48|10=103||0|
M|254|0|0|I|20110221-00:40:18.334|70|8=FIX.4.1|9=48|35=0|34=254|49=RBS1|56=BLP|52=20110221-00:40:18|10=093||0|
M|255|0|0|I|20110221-00:40:48.413|70|8=FIX.4.1|9=48|35=0|34=255|49=RBS1|56=BLP|52=20110221-00:40:48|10=097||0|
M|256|0|0|I|20110221-00:41:18.492|70|8=FIX.4.1|9=48|35=0|34=256|49=RBS1|56=BLP|52=20110221-00:41:18|10=096||0|
M|257|0|0|I|20110221-00:41:48.560|70|8=FIX.4.1|9=48|35=0|34=257|49=RBS1|56=BLP|52=20110221-00:41:48|10=100||0|
M|258|0|0|I|20110221-00:42:18.619|70|8=FIX.4.1|9=48|35=0|34=258|49=RBS1|56=BLP|52=20110221-00:42:18|10=099||0|
M|259|0|0|I|20110221-00:42:48.698|70|8=FIX.4.1|9=48|35=0|34=259|49=RBS1|56=BLP|52=20110221-00:42:48|10=103||0|
M|260|0|0|I|20110221-00:43:18.767|70|8=FIX.4.1|9=48|35=0|34=260|49=RBS1|56=BLP|52=20110221-00:43:18|10=093||0|
M|261|0|0|I|20110221-00:43:48.855|70|8=FIX.4.1|9=48|35=0|34=261|49=RBS1|56=BLP|52=20110221-00:43:48|10=097||0|
M|262|0|0|I|20110221-00:44:18.934|70|8=FIX.4.1|9=48|35=0|34=262|49=RBS1|56=BLP|52=20110221-00:44:18|10=096||0|
M|263|0|0|I|20110221-00:44:49.003|70|8=FIX.4.1|9=48|35=0|34=263|49=RBS1|56=BLP|52=20110221-00:44:49|10=101||0|
M|264|0|0|I|20110221-00:45:19.091|70|8=FIX.4.1|9=48|35=0|34=264|49=RBS1|56=BLP|52=20110221-00:45:19|10=100||0|
M|265|0|0|I|20110221-00:45:49.160|70|8=FIX.4.1|9=48|35=0|34=265|49=RBS1|56=BLP|52=20110221-00:45:49|10=104||0|
M|266|0|0|I|20110221-00:46:19.229|70|8=FIX.4.1|9=48|35=0|34=266|49=RBS1|56=BLP|52=20110221-00:46:19|10=103||0|
M|267|0|0|I|20110221-00:46:49.317|70|8=FIX.4.1|9=48|35=0|34=267|49=RBS1|56=BLP|52=20110221-00:46:49|10=107||0|
M|268|0|0|I|20110221-00:47:19.396|70|8=FIX.4.1|9=48|35=0|34=268|49=RBS1|56=BLP|52=20110221-00:47:19|10=106||0|
M|269|0|0|I|20110221-00:47:49.475|70|8=FIX.4.1|9=48|35=0|34=269|49=RBS1|56=BLP|52=20110221-00:47:49|10=110||0|
M|270|0|0|I|20110221-00:48:19.533|70|8=FIX.4.1|9=48|35=0|34=270|49=RBS1|56=BLP|52=20110221-00:48:19|10=100||0|
M|271|0|0|I|20110221-00:48:49.612|70|8=FIX.4.1|9=48|35=0|34=271|49=RBS1|56=BLP|52=20110221-00:48:49|10=104||0|
M|272|0|0|I|20110221-00:49:19.671|70|8=FIX.4.1|9=48|35=0|34=272|49=RBS1|56=BLP|52=20110221-00:49:19|10=103||0|
M|273|0|0|I|20110221-00:49:49.740|70|8=FIX.4.1|9=48|35=0|34=273|49=RBS1|56=BLP|52=20110221-00:49:49|10=107||0|
M|274|0|0|I|20110221-00:50:19.819|70|8=FIX.4.1|9=48|35=0|34=274|49=RBS1|56=BLP|52=20110221-00:50:19|10=097||0|
M|275|0|0|I|20110221-00:50:49.897|70|8=FIX.4.1|9=48|35=0|34=275|49=RBS1|56=BLP|52=20110221-00:50:49|10=101||0|
M|276|0|0|I|20110221-00:51:19.966|70|8=FIX.4.1|9=48|35=0|34=276|49=RBS1|56=BLP|52=20110221-00:51:19|10=100||0|
M|277|0|0|I|20110221-00:51:50.044|70|8=FIX.4.1|9=48|35=0|34=277|49=RBS1|56=BLP|52=20110221-00:51:50|10=096||0|
M|278|0|0|I|20110221-00:52:20.103|70|8=FIX.4.1|9=48|35=0|34=278|49=RBS1|56=BLP|52=20110221-00:52:20|10=095||0|
M|279|0|0|I|20110221-00:52:50.162|70|8=FIX.4.1|9=48|35=0|34=279|49=RBS1|56=BLP|52=20110221-00:52:50|10=099||0|
M|280|0|0|I|20110221-00:53:20.240|70|8=FIX.4.1|9=48|35=0|34=280|49=RBS1|56=BLP|52=20110221-00:53:20|10=089||0|
M|281|0|0|I|20110221-00:53:50.299|70|8=FIX.4.1|9=48|35=0|34=281|49=RBS1|56=BLP|52=20110221-00:53:50|10=093||0|
M|282|0|0|I|20110221-00:54:20.378|70|8=FIX.4.1|9=48|35=0|34=282|49=RBS1|56=BLP|52=20110221-00:54:20|10=092||0|
M|283|0|0|I|20110221-00:54:50.456|70|8=FIX.4.1|9=48|35=0|34=283|49=RBS1|56=BLP|52=20110221-00:54:50|10=096||0|
M|284|0|0|I|20110221-00:55:20.535|70|8=FIX.4.1|9=48|35=0|34=284|49=RBS1|56=BLP|52=20110221-00:55:20|10=095||0|
M|285|0|0|I|20110221-00:55:50.584|70|8=FIX.4.1|9=48|35=0|34=285|49=RBS1|56=BLP|52=20110221-00:55:50|10=099||0|
M|286|0|0|I|20110221-00:56:20.622|70|8=FIX.4.1|9=48|35=0|34=286|49=RBS1|56=BLP|52=20110221-00:56:20|10=098||0|
M|287|0|0|I|20110221-00:56:50.671|70|8=FIX.4.1|9=48|35=0|34=287|49=RBS1|56=BLP|52=20110221-00:56:50|10=102||0|
M|288|0|0|I|20110221-00:57:20.740|70|8=FIX.4.1|9=48|35=0|34=288|49=RBS1|56=BLP|52=20110221-00:57:20|10=101||0|
M|289|0|0|I|20110221-00:57:50.819|70|8=FIX.4.1|9=48|35=0|34=289|49=RBS1|56=BLP|52=20110221-00:57:50|10=105||0|
M|290|0|0|I|20110221-00:58:20.887|70|8=FIX.4.1|9=48|35=0|34=290|49=RBS1|56=BLP|52=20110221-00:58:20|10=095||0|
M|291|0|0|I|20110221-00:58:50.976|70|8=FIX.4.1|9=48|35=0|34=291|49=RBS1|56=BLP|52=20110221-00:58:50|10=099||0|
M|292|0|0|I|20110221-00:59:21.055|70|8=FIX.4.1|9=48|35=0|34=292|49=RBS1|56=BLP|52=20110221-00:59:21|10=099||0|
M|293|0|0|I|20110221-00:59:51.103|70|8=FIX.4.1|9=48|35=0|34=293|49=RBS1|56=BLP|52=20110221-00:59:51|10=103||0|
M|294|0|0|I|20110221-01:00:21.182|70|8=FIX.4.1|9=48|35=0|34=294|49=RBS1|56=BLP|52=20110221-01:00:21|10=088||0|
M|295|0|0|I|20110221-01:00:51.251|70|8=FIX.4.1|9=48|35=0|34=295|49=RBS1|56=BLP|52=20110221-01:00:51|10=092||0|
M|296|0|0|I|20110221-01:01:21.329|70|8=FIX.4.1|9=48|35=0|34=296|49=RBS1|56=BLP|52=20110221-01:01:21|10=091||0|
M|297|0|0|I|20110221-01:01:51.398|70|8=FIX.4.1|9=48|35=0|34=297|49=RBS1|56=BLP|52=20110221-01:01:51|10=095||0|
M|298|0|0|I|20110221-01:02:21.477|70|8=FIX.4.1|9=48|35=0|34=298|49=RBS1|56=BLP|52=20110221-01:02:21|10=094||0|
M|299|0|0|I|20110221-01:02:51.555|70|8=FIX.4.1|9=48|35=0|34=299|49=RBS1|56=BLP|52=20110221-01:02:51|10=098||0|
M|300|0|0|I|20110221-01:03:21.604|70|8=FIX.4.1|9=48|35=0|34=300|49=RBS1|56=BLP|52=20110221-01:03:21|10=079||0|
M|301|0|0|I|20110221-01:03:51.683|70|8=FIX.4.1|9=48|35=0|34=301|49=RBS1|56=BLP|52=20110221-01:03:51|10=083||0|
M|302|0|0|I|20110221-01:04:21.741|70|8=FIX.4.1|9=48|35=0|34=302|49=RBS1|56=BLP|52=20110221-01:04:21|10=082||0|
M|303|0|0|I|20110221-01:04:51.800|70|8=FIX.4.1|9=48|35=0|34=303|49=RBS1|56=BLP|52=20110221-01:04:51|10=086||0|
M|304|0|0|I|20110221-01:05:21.869|70|8=FIX.4.1|9=48|35=0|34=304|49=RBS1|56=BLP|52=20110221-01:05:21|10=085||0|
M|305|0|0|I|20110221-01:05:51.948|70|8=FIX.4.1|9=48|35=0|34=305|49=RBS1|56=BLP|52=20110221-01:05:51|10=089||0|
M|306|0|0|I|20110221-01:06:22.006|70|8=FIX.4.1|9=48|35=0|34=306|49=RBS1|56=BLP|52=20110221-01:06:22|10=089||0|
M|307|0|0|I|20110221-01:06:52.085|70|8=FIX.4.1|9=48|35=0|34=307|49=RBS1|56=BLP|52=20110221-01:06:52|10=093||0|
M|308|0|0|I|20110221-01:07:22.144|70|8=FIX.4.1|9=48|35=0|34=308|49=RBS1|56=BLP|52=20110221-01:07:22|10=092||0|
M|309|0|0|I|20110221-01:07:52.222|70|8=FIX.4.1|9=48|35=0|34=309|49=RBS1|56=BLP|52=20110221-01:07:52|10=096||0|
M|310|0|0|I|20110221-01:08:22.281|70|8=FIX.4.1|9=48|35=0|34=310|49=RBS1|56=BLP|52=20110221-01:08:22|10=086||0|
M|311|0|0|I|20110221-01:08:52.350|70|8=FIX.4.1|9=48|35=0|34=311|49=RBS1|56=BLP|52=20110221-01:08:52|10=090||0|
M|312|0|8|I|20110221-01:09:18.625|300|8=FIX.4.1|9=277|35=8|50=RBS1|57=1639956|34=312|49=RBS1|56=BLP|52=20110221-01:09:18|198=29534990T|20=0|150=3|39=3|32=0|37=0005705189|6=5.1446|14=2500000|15=HKD|63=0|120=HKD|17=85113648|55=639|11=20110218-00002|59=0|54=2|40=1|60=20110218-01:37:01|38=2500000|31=0|151=0|48=6354671|22=2|109=HENAD|10=134||2|AidaCode|HENAD|ClientConnectionName|Henderson_BBG_RBS|
M|313|0|0|I|20110221-01:09:48.927|70|8=FIX.4.1|9=48|35=0|34=313|49=RBS1|56=BLP|52=20110221-01:09:48|10=098||0|
M|314|0|0|I|20110221-01:10:19.006|70|8=FIX.4.1|9=48|35=0|34=314|49=RBS1|56=BLP|52=20110221-01:10:19|10=089||0|
M|315|0|0|I|20110221-01:10:49.055|70|8=FIX.4.1|9=48|35=0|34=315|49=RBS1|56=BLP|52=20110221-01:10:49|10=093||0|
M|316|0|0|I|20110221-01:11:19.133|70|8=FIX.4.1|9=48|35=0|34=316|49=RBS1|56=BLP|52=20110221-01:11:19|10=092||0|
M|317|0|0|I|20110221-01:11:49.192|70|8=FIX.4.1|9=48|35=0|34=317|49=RBS1|56=BLP|52=20110221-01:11:49|10=096||0|
M|318|0|0|I|20110221-01:12:19.261|70|8=FIX.4.1|9=48|35=0|34=318|49=RBS1|56=BLP|52=20110221-01:12:19|10=095||0|
M|319|0|0|I|20110221-01:12:49.329|70|8=FIX.4.1|9=48|35=0|34=319|49=RBS1|56=BLP|52=20110221-01:12:49|10=099||0|
M|320|0|0|I|20110221-01:13:19.398|70|8=FIX.4.1|9=48|35=0|34=320|49=RBS1|56=BLP|52=20110221-01:13:19|10=089||0|
M|321|0|0|I|20110221-01:13:49.467|70|8=FIX.4.1|9=48|35=0|34=321|49=RBS1|56=BLP|52=20110221-01:13:49|10=093||0|
M|322|0|0|I|20110221-01:14:19.535|70|8=FIX.4.1|9=48|35=0|34=322|49=RBS1|56=BLP|52=20110221-01:14:19|10=092||0|
M|323|0|0|I|20110221-01:14:49.614|70|8=FIX.4.1|9=48|35=0|34=323|49=RBS1|56=BLP|52=20110221-01:14:49|10=096||0|
M|324|0|0|I|20110221-01:15:19.693|70|8=FIX.4.1|9=48|35=0|34=324|49=RBS1|56=BLP|52=20110221-01:15:19|10=095||0|
M|325|0|0|I|20110221-01:15:49.771|70|8=FIX.4.1|9=48|35=0|34=325|49=RBS1|56=BLP|52=20110221-01:15:49|10=099||0|
M|326|0|0|I|20110221-01:16:19.850|70|8=FIX.4.1|9=48|35=0|34=326|49=RBS1|56=BLP|52=20110221-01:16:19|10=098||0|
M|327|0|0|I|20110221-01:16:49.899|70|8=FIX.4.1|9=48|35=0|34=327|49=RBS1|56=BLP|52=20110221-01:16:49|10=102||0|
M|328|0|0|I|20110221-01:17:20.008|70|8=FIX.4.1|9=48|35=0|34=328|49=RBS1|56=BLP|52=20110221-01:17:20|10=093||0|
M|329|0|0|I|20110221-01:17:50.056|70|8=FIX.4.1|9=48|35=0|34=329|49=RBS1|56=BLP|52=20110221-01:17:50|10=097||0|
M|330|0|0|I|20110221-01:18:20.115|70|8=FIX.4.1|9=48|35=0|34=330|49=RBS1|56=BLP|52=20110221-01:18:20|10=087||0|
M|331|0|0|I|20110221-01:18:50.173|70|8=FIX.4.1|9=48|35=0|34=331|49=RBS1|56=BLP|52=20110221-01:18:50|10=091||0|
M|332|0|0|I|20110221-01:19:20.242|70|8=FIX.4.1|9=48|35=0|34=332|49=RBS1|56=BLP|52=20110221-01:19:20|10=090||0|
M|333|0|0|I|20110221-01:19:50.291|70|8=FIX.4.1|9=48|35=0|34=333|49=RBS1|56=BLP|52=20110221-01:19:50|10=094||0|
M|334|0|0|I|20110221-01:20:20.340|70|8=FIX.4.1|9=48|35=0|34=334|49=RBS1|56=BLP|52=20110221-01:20:20|10=084||0|
M|335|0|0|I|20110221-01:20:50.408|70|8=FIX.4.1|9=48|35=0|34=335|49=RBS1|56=BLP|52=20110221-01:20:50|10=088||0|
M|336|0|0|I|20110221-01:21:20.457|70|8=FIX.4.1|9=48|35=0|34=336|49=RBS1|56=BLP|52=20110221-01:21:20|10=087||0|
M|337|0|0|I|20110221-01:21:50.536|70|8=FIX.4.1|9=48|35=0|34=337|49=RBS1|56=BLP|52=20110221-01:21:50|10=091||0|
M|338|0|0|I|20110221-01:22:20.604|70|8=FIX.4.1|9=48|35=0|34=338|49=RBS1|56=BLP|52=20110221-01:22:20|10=090||0|
M|339|0|0|I|20110221-01:22:50.663|70|8=FIX.4.1|9=48|35=0|34=339|49=RBS1|56=BLP|52=20110221-01:22:50|10=094||0|
M|340|0|0|I|20110221-01:23:20.752|70|8=FIX.4.1|9=48|35=0|34=340|49=RBS1|56=BLP|52=20110221-01:23:20|10=084||0|
M|341|0|0|I|20110221-01:23:50.810|70|8=FIX.4.1|9=48|35=0|34=341|49=RBS1|56=BLP|52=20110221-01:23:50|10=088||0|
M|342|0|0|I|20110221-01:24:20.889|70|8=FIX.4.1|9=48|35=0|34=342|49=RBS1|56=BLP|52=20110221-01:24:20|10=087||0|
M|343|0|0|I|20110221-01:24:50.948|70|8=FIX.4.1|9=48|35=0|34=343|49=RBS1|56=BLP|52=20110221-01:24:50|10=091||0|
M|344|0|0|I|20110221-01:25:21.016|70|8=FIX.4.1|9=48|35=0|34=344|49=RBS1|56=BLP|52=20110221-01:25:21|10=091||0|
M|345|0|0|I|20110221-01:25:51.065|70|8=FIX.4.1|9=48|35=0|34=345|49=RBS1|56=BLP|52=20110221-01:25:51|10=095||0|
M|346|0|0|I|20110221-01:26:21.154|70|8=FIX.4.1|9=48|35=0|34=346|49=RBS1|56=BLP|52=20110221-01:26:21|10=094||0|
M|347|0|0|I|20110221-01:26:51.233|70|8=FIX.4.1|9=48|35=0|34=347|49=RBS1|56=BLP|52=20110221-01:26:51|10=098||0|
M|348|0|0|I|20110221-01:27:21.311|70|8=FIX.4.1|9=48|35=0|34=348|49=RBS1|56=BLP|52=20110221-01:27:21|10=097||0|
M|349|0|0|I|20110221-01:27:51.370|70|8=FIX.4.1|9=48|35=0|34=349|49=RBS1|56=BLP|52=20110221-01:27:51|10=101||0|
M|350|0|0|I|20110221-01:28:21.439|70|8=FIX.4.1|9=48|35=0|34=350|49=RBS1|56=BLP|52=20110221-01:28:21|10=091||0|
M|351|0|0|I|20110221-01:28:51.517|70|8=FIX.4.1|9=48|35=0|34=351|49=RBS1|56=BLP|52=20110221-01:28:51|10=095||0|
M|352|0|0|I|20110221-01:29:21.596|70|8=FIX.4.1|9=48|35=0|34=352|49=RBS1|56=BLP|52=20110221-01:29:21|10=094||0|
M|353|0|0|I|20110221-01:29:51.915|70|8=FIX.4.1|9=48|35=0|34=353|49=RBS1|56=BLP|52=20110221-01:29:51|10=098||0|
M|354|0|0|I|20110221-01:30:21.993|70|8=FIX.4.1|9=48|35=0|34=354|49=RBS1|56=BLP|52=20110221-01:30:21|10=088||0|
M|355|0|8|I|20110221-01:30:51.579|281|8=FIX.4.1|9=258|35=8|50=RBS1|57=4531818|34=355|49=RBS1|56=BLP|52=20110221-01:30:51|37=0005708353|6=0.0|14=0|15=HKD|63=0|120=HKD|17=85115280|55=941|11=20110221-00001|150=A|39=A|20=0|32=0|151=166500|59=0|54=2|40=1|60=20110221-01:30:51|31=0|38=166500|48=6073556|22=2|109=HENAD|10=174||3|Suppress|true|AidaCode|HENAD|ClientConnectionName|Henderson_BBG_RBS|
M|356|0|8|I|20110221-01:31:01.445|284|8=FIX.4.1|9=261|35=8|50=RBS1|57=4531818|34=356|49=RBS1|56=BLP|52=20110221-01:31:01|20=0|150=0|39=0|37=0005708353|6=0.0000|14=0|15=HKD|63=0|120=HKD|17=85115293|55=941|32=0|11=20110221-00001|59=0|54=2|40=1|60=20110221-01:31:01|38=166500|31=0|151=166500|48=6073556|22=2|109=HENAD|10=019||2|AidaCode|HENAD|ClientConnectionName|Henderson_BBG_RBS|
M|357|0|0|I|20110221-01:31:31.830|70|8=FIX.4.1|9=48|35=0|34=357|49=RBS1|56=BLP|52=20110221-01:31:31|10=093||0|
M|358|0|0|I|20110221-01:31:51.313|98|8=FIX.4.1|9=76|35=0|34=358|49=RBS1|56=BLP|52=20110221-01:31:51|112=C.0005.0167.0166.013151|10=185||0|
M|359|0|0|I|20110221-01:32:21.778|70|8=FIX.4.1|9=48|35=0|34=359|49=RBS1|56=BLP|52=20110221-01:32:21|10=095||0|
M|360|0|0|I|20110221-01:32:51.817|70|8=FIX.4.1|9=48|35=0|34=360|49=RBS1|56=BLP|52=20110221-01:32:51|10=090||0|
M|361|0|0|I|20110221-01:33:21.895|70|8=FIX.4.1|9=48|35=0|34=361|49=RBS1|56=BLP|52=20110221-01:33:21|10=089||0|
M|362|0|0|I|20110221-01:33:51.974|70|8=FIX.4.1|9=48|35=0|34=362|49=RBS1|56=BLP|52=20110221-01:33:51|10=093||0|
M|363|0|0|I|20110221-01:34:22.033|70|8=FIX.4.1|9=48|35=0|34=363|49=RBS1|56=BLP|52=20110221-01:34:22|10=093||0|
M|364|0|0|I|20110221-01:34:52.081|70|8=FIX.4.1|9=48|35=0|34=364|49=RBS1|56=BLP|52=20110221-01:34:52|10=097||0|
M|365|0|0|I|20110221-01:35:22.140|70|8=FIX.4.1|9=48|35=0|34=365|49=RBS1|56=BLP|52=20110221-01:35:22|10=096||0|
M|366|0|0|I|20110221-01:35:52.209|70|8=FIX.4.1|9=48|35=0|34=366|49=RBS1|56=BLP|52=20110221-01:35:52|10=100||0|
M|367|0|0|I|20110221-01:36:22.288|70|8=FIX.4.1|9=48|35=0|34=367|49=RBS1|56=BLP|52=20110221-01:36:22|10=099||0|
M|368|0|0|I|20110221-01:36:52.366|70|8=FIX.4.1|9=48|35=0|34=368|49=RBS1|56=BLP|52=20110221-01:36:52|10=103||0|
M|369|0|0|I|20110221-01:37:22.435|70|8=FIX.4.1|9=48|35=0|34=369|49=RBS1|56=BLP|52=20110221-01:37:22|10=102||0|
M|370|0|0|I|20110221-01:37:52.514|70|8=FIX.4.1|9=48|35=0|34=370|49=RBS1|56=BLP|52=20110221-01:37:52|10=097||0|
M|371|0|0|I|20110221-01:38:22.572|70|8=FIX.4.1|9=48|35=0|34=371|49=RBS1|56=BLP|52=20110221-01:38:22|10=096||0|
M|372|0|0|I|20110221-01:38:52.641|70|8=FIX.4.1|9=48|35=0|34=372|49=RBS1|56=BLP|52=20110221-01:38:52|10=100||0|
M|373|0|0|I|20110221-01:39:22.700|70|8=FIX.4.1|9=48|35=0|34=373|49=RBS1|56=BLP|52=20110221-01:39:22|10=099||0|
M|374|0|0|I|20110221-01:39:52.768|70|8=FIX.4.1|9=48|35=0|34=374|49=RBS1|56=BLP|52=20110221-01:39:52|10=103||0|
M|375|0|0|I|20110221-01:40:22.817|70|8=FIX.4.1|9=48|35=0|34=375|49=RBS1|56=BLP|52=20110221-01:40:22|10=093||0|
M|376|0|0|I|20110221-01:40:52.906|70|8=FIX.4.1|9=48|35=0|34=376|49=RBS1|56=BLP|52=20110221-01:40:52|10=097||0|
M|377|0|0|I|20110221-01:41:22.924|70|8=FIX.4.1|9=48|35=0|34=377|49=RBS1|56=BLP|52=20110221-01:41:22|10=096||0|
M|378|0|0|I|20110221-01:41:52.993|70|8=FIX.4.1|9=48|35=0|34=378|49=RBS1|56=BLP|52=20110221-01:41:52|10=100||0|
M|379|0|0|I|20110221-01:42:23.072|70|8=FIX.4.1|9=48|35=0|34=379|49=RBS1|56=BLP|52=20110221-01:42:23|10=100||0|
M|380|0|0|I|20110221-01:42:53.131|70|8=FIX.4.1|9=48|35=0|34=380|49=RBS1|56=BLP|52=20110221-01:42:53|10=095||0|
M|381|0|0|I|20110221-01:43:23.179|70|8=FIX.4.1|9=48|35=0|34=381|49=RBS1|56=BLP|52=20110221-01:43:23|10=094||0|
M|382|0|0|I|20110221-01:43:53.248|70|8=FIX.4.1|9=48|35=0|34=382|49=RBS1|56=BLP|52=20110221-01:43:53|10=098||0|
M|383|0|0|I|20110221-01:44:23.317|70|8=FIX.4.1|9=48|35=0|34=383|49=RBS1|56=BLP|52=20110221-01:44:23|10=097||0|
M|384|0|0|I|20110221-01:44:53.395|70|8=FIX.4.1|9=48|35=0|34=384|49=RBS1|56=BLP|52=20110221-01:44:53|10=101||0|
M|385|0|0|I|20110221-01:45:23.464|70|8=FIX.4.1|9=48|35=0|34=385|49=RBS1|56=BLP|52=20110221-01:45:23|10=100||0|
M|386|0|0|I|20110221-01:45:53.533|70|8=FIX.4.1|9=48|35=0|34=386|49=RBS1|56=BLP|52=20110221-01:45:53|10=104||0|
M|387|0|0|I|20110221-01:46:23.611|70|8=FIX.4.1|9=48|35=0|34=387|49=RBS1|56=BLP|52=20110221-01:46:23|10=103||0|
M|388|0|0|I|20110221-01:46:53.671|70|8=FIX.4.1|9=48|35=0|34=388|49=RBS1|56=BLP|52=20110221-01:46:53|10=107||0|
M|389|0|0|I|20110221-01:47:23.739|70|8=FIX.4.1|9=48|35=0|34=389|49=RBS1|56=BLP|52=20110221-01:47:23|10=106||0|
M|390|0|0|I|20110221-01:47:53.807|70|8=FIX.4.1|9=48|35=0|34=390|49=RBS1|56=BLP|52=20110221-01:47:53|10=101||0|
M|391|0|0|I|20110221-01:48:23.886|70|8=FIX.4.1|9=48|35=0|34=391|49=RBS1|56=BLP|52=20110221-01:48:23|10=100||0|
M|392|0|0|I|20110221-01:48:53.955|70|8=FIX.4.1|9=48|35=0|34=392|49=RBS1|56=BLP|52=20110221-01:48:53|10=104||0|
M|393|0|0|I|20110221-01:49:24.023|70|8=FIX.4.1|9=48|35=0|34=393|49=RBS1|56=BLP|52=20110221-01:49:24|10=104||0|
M|394|0|0|I|20110221-01:49:54.082|70|8=FIX.4.1|9=48|35=0|34=394|49=RBS1|56=BLP|52=20110221-01:49:54|10=108||0|
M|395|0|0|I|20110221-01:50:24.151|70|8=FIX.4.1|9=48|35=0|34=395|49=RBS1|56=BLP|52=20110221-01:50:24|10=098||0|
M|396|0|0|I|20110221-01:50:54.220|70|8=FIX.4.1|9=48|35=0|34=396|49=RBS1|56=BLP|52=20110221-01:50:54|10=102||0|
M|397|0|8|I|20110221-01:50:55.667|315|8=FIX.4.1|9=292|35=8|50=RBS1|57=4531818|34=397|49=RBS1|56=BLP|52=20110221-01:50:55|37=0005708353|6=73.75000|14=500|15=HKD|63=0|120=HKD|17=85117369|55=941|11=20110221-00001|150=1|39=1|20=0|59=0|54=2|40=1|60=20110221-01:50:55|31=73.75000|32=500|75=20110221|38=166500|151=166000|48=6073556|22=2|109=HENAD|30=HK|10=062||2|AidaCode|HENAD|ClientConnectionName|Henderson_BBG_RBS|
M|398|0|0|I|20110221-01:51:25.838|70|8=FIX.4.1|9=48|35=0|34=398|49=RBS1|56=BLP|52=20110221-01:51:25|10=103||0|
M|399|0|0|I|20110221-01:51:55.917|70|8=FIX.4.1|9=48|35=0|34=399|49=RBS1|56=BLP|52=20110221-01:51:55|10=107||0|
M|400|0|0|I|20110221-01:52:25.985|70|8=FIX.4.1|9=48|35=0|34=400|49=RBS1|56=BLP|52=20110221-01:52:25|10=088||0|
M|401|0|0|I|20110221-01:52:56.064|70|8=FIX.4.1|9=48|35=0|34=401|49=RBS1|56=BLP|52=20110221-01:52:56|10=093||0|
M|402|0|0|I|20110221-01:53:26.143|70|8=FIX.4.1|9=48|35=0|34=402|49=RBS1|56=BLP|52=20110221-01:53:26|10=092||0|
M|403|0|0|I|20110221-01:53:56.222|70|8=FIX.4.1|9=48|35=0|34=403|49=RBS1|56=BLP|52=20110221-01:53:56|10=096||0|
M|404|0|0|I|20110221-01:54:26.290|70|8=FIX.4.1|9=48|35=0|34=404|49=RBS1|56=BLP|52=20110221-01:54:26|10=095||0|
M|405|0|0|I|20110221-01:54:56.359|70|8=FIX.4.1|9=48|35=0|34=405|49=RBS1|56=BLP|52=20110221-01:54:56|10=099||0|
M|406|0|0|I|20110221-01:55:26.418|70|8=FIX.4.1|9=48|35=0|34=406|49=RBS1|56=BLP|52=20110221-01:55:26|10=098||0|
M|407|0|0|I|20110221-01:55:56.466|70|8=FIX.4.1|9=48|35=0|34=407|49=RBS1|56=BLP|52=20110221-01:55:56|10=102||0|
M|408|0|0|I|20110221-01:56:26.525|70|8=FIX.4.1|9=48|35=0|34=408|49=RBS1|56=BLP|52=20110221-01:56:26|10=101||0|
M|409|0|0|I|20110221-01:56:56.594|70|8=FIX.4.1|9=48|35=0|34=409|49=RBS1|56=BLP|52=20110221-01:56:56|10=105||0|
M|410|0|0|I|20110221-01:57:26.662|70|8=FIX.4.1|9=48|35=0|34=410|49=RBS1|56=BLP|52=20110221-01:57:26|10=095||0|
M|411|0|0|I|20110221-01:57:56.711|70|8=FIX.4.1|9=48|35=0|34=411|49=RBS1|56=BLP|52=20110221-01:57:56|10=099||0|
M|412|0|0|I|20110221-01:58:26.780|70|8=FIX.4.1|9=48|35=0|34=412|49=RBS1|56=BLP|52=20110221-01:58:26|10=098||0|
M|413|0|0|I|20110221-01:58:56.858|70|8=FIX.4.1|9=48|35=0|34=413|49=RBS1|56=BLP|52=20110221-01:58:56|10=102||0|
M|414|0|0|I|20110221-01:59:26.907|70|8=FIX.4.1|9=48|35=0|34=414|49=RBS1|56=BLP|52=20110221-01:59:26|10=101||0|
M|415|0|0|I|20110221-01:59:56.986|70|8=FIX.4.1|9=48|35=0|34=415|49=RBS1|56=BLP|52=20110221-01:59:56|10=105||0|
M|416|0|0|I|20110221-02:00:27.064|70|8=FIX.4.1|9=48|35=0|34=416|49=RBS1|56=BLP|52=20110221-02:00:27|10=091||0|
M|417|0|0|I|20110221-02:00:57.123|70|8=FIX.4.1|9=48|35=0|34=417|49=RBS1|56=BLP|52=20110221-02:00:57|10=095||0|
M|418|0|0|I|20110221-02:01:27.202|70|8=FIX.4.1|9=48|35=0|34=418|49=RBS1|56=BLP|52=20110221-02:01:27|10=094||0|
M|419|0|0|I|20110221-02:01:57.261|70|8=FIX.4.1|9=48|35=0|34=419|49=RBS1|56=BLP|52=20110221-02:01:57|10=098||0|
M|420|0|0|I|20110221-02:02:27.339|70|8=FIX.4.1|9=48|35=0|34=420|49=RBS1|56=BLP|52=20110221-02:02:27|10=088||0|
M|421|0|0|I|20110221-02:02:57.408|70|8=FIX.4.1|9=48|35=0|34=421|49=RBS1|56=BLP|52=20110221-02:02:57|10=092||0|
M|422|0|0|I|20110221-02:03:27.447|70|8=FIX.4.1|9=48|35=0|34=422|49=RBS1|56=BLP|52=20110221-02:03:27|10=091||0|
M|423|0|0|I|20110221-02:03:57.475|70|8=FIX.4.1|9=48|35=0|34=423|49=RBS1|56=BLP|52=20110221-02:03:57|10=095||0|
M|424|0|8|I|20110221-02:04:02.504|316|8=FIX.4.1|9=293|35=8|50=RBS1|57=4531818|34=424|49=RBS1|56=BLP|52=20110221-02:04:02|37=0005708353|6=73.82500|14=1000|15=HKD|63=0|120=HKD|17=85119111|55=941|11=20110221-00001|150=1|39=1|20=0|59=0|54=2|40=1|60=20110221-02:04:02|31=73.90000|32=500|75=20110221|38=166500|151=165500|48=6073556|22=2|109=HENAD|30=HK|10=073||2|AidaCode|HENAD|ClientConnectionName|Henderson_BBG_RBS|
M|425|0|8|I|20110221-02:04:05.515|319|8=FIX.4.1|9=296|35=8|50=RBS1|57=4531818|34=425|49=RBS1|56=BLP|52=20110221-02:04:05|37=0005708353|6=73.89776|14=33500|15=HKD|63=0|120=HKD|17=85119112|55=941|11=20110221-00001|150=1|39=1|20=0|59=0|54=2|40=1|60=20110221-02:04:05|31=73.90000|32=32500|75=20110221|38=166500|151=133000|48=6073556|22=2|109=HENAD|30=HK|10=255||2|AidaCode|HENAD|ClientConnectionName|Henderson_BBG_RBS|
M|426|0|0|I|20110221-02:04:35.694|70|8=FIX.4.1|9=48|35=0|34=426|49=RBS1|56=BLP|52=20110221-02:04:35|10=095||0|
M|427|0|0|I|20110221-02:05:05.762|70|8=FIX.4.1|9=48|35=0|34=427|49=RBS1|56=BLP|52=20110221-02:05:05|10=094||0|
M|428|0|8|I|20110221-02:05:25.502|330|8=FIX.4.1|9=307|35=8|50=RBS1|57=4531818|34=428|49=RBS1|56=BLP|52=20110221-02:05:25|37=0005708353|6=73.89559|14=34000|15=HKD|63=0|120=HKD|17=85119296|55=941|11=20110221-00001|150=1|39=1|20=2|59=0|54=2|40=1|60=20110221-01:50:55|31=73.75000|32=1000|19=85117369|75=20110221|38=166500|151=132500|48=6073556|22=2|109=HENAD|30=HK|10=043||2|AidaCode|HENAD|ClientConnectionName|Henderson_BBG_RBS|
M|429|0|8|I|20110221-02:05:42.484|317|8=FIX.4.1|9=294|35=8|50=RBS1|57=4531818|34=429|49=RBS1|56=BLP|52=20110221-02:05:42|37=0005708353|6=73.89710|14=34500|15=HKD|63=0|120=HKD|17=85119324|55=941|11=20110221-00001|150=1|39=1|20=0|59=0|54=2|40=1|60=20110221-02:04:08|31=74.00000|32=500|75=20110221|38=166500|151=132000|48=6073556|22=2|109=HENAD|30=HK|10=146||2|AidaCode|HENAD|ClientConnectionName|Henderson_BBG_RBS|
M|430|0|0|I|20110221-02:06:12.519|70|8=FIX.4.1|9=48|35=0|34=430|49=RBS1|56=BLP|52=20110221-02:06:12|10=087||0|
M|431|0|0|I|20110221-02:06:42.598|70|8=FIX.4.1|9=48|35=0|34=431|49=RBS1|56=BLP|52=20110221-02:06:42|10=091||0|
M|432|0|0|I|20110221-02:07:12.657|70|8=FIX.4.1|9=48|35=0|34=432|49=RBS1|56=BLP|52=20110221-02:07:12|10=090||0|
M|433|0|0|I|20110221-02:07:42.735|70|8=FIX.4.1|9=48|35=0|34=433|49=RBS1|56=BLP|52=20110221-02:07:42|10=094||0|
M|434|0|0|I|20110221-02:08:12.814|70|8=FIX.4.1|9=48|35=0|34=434|49=RBS1|56=BLP|52=20110221-02:08:12|10=093||0|
M|435|0|0|I|20110221-02:08:42.893|70|8=FIX.4.1|9=48|35=0|34=435|49=RBS1|56=BLP|52=20110221-02:08:42|10=097||0|
M|436|0|0|I|20110221-02:09:12.941|70|8=FIX.4.1|9=48|35=0|34=436|49=RBS1|56=BLP|52=20110221-02:09:12|10=096||0|
M|437|0|0|I|20110221-02:09:43.020|70|8=FIX.4.1|9=48|35=0|34=437|49=RBS1|56=BLP|52=20110221-02:09:43|10=101||0|
M|438|0|0|I|20110221-02:10:13.079|70|8=FIX.4.1|9=48|35=0|34=438|49=RBS1|56=BLP|52=20110221-02:10:13|10=091||0|
M|439|0|0|I|20110221-02:10:43.127|70|8=FIX.4.1|9=48|35=0|34=439|49=RBS1|56=BLP|52=20110221-02:10:43|10=095||0|
M|440|0|0|I|20110221-02:11:13.196|70|8=FIX.4.1|9=48|35=0|34=440|49=RBS1|56=BLP|52=20110221-02:11:13|10=085||0|
M|441|0|8|I|20110221-02:11:16.833|318|8=FIX.4.1|9=295|35=8|50=RBS1|57=4531818|34=441|49=RBS1|56=BLP|52=20110221-02:11:16|37=0005708353|6=73.89577|14=35500|15=HKD|63=0|120=HKD|17=85119757|55=941|11=20110221-00001|150=1|39=1|20=0|59=0|54=2|40=1|60=20110221-02:06:27|31=73.85000|32=1000|75=20110221|38=166500|151=131000|48=6073556|22=2|109=HENAD|30=HK|10=219||2|AidaCode|HENAD|ClientConnectionName|Henderson_BBG_RBS|
M|442|0|0|I|20110221-02:11:46.835|70|8=FIX.4.1|9=48|35=0|34=442|49=RBS1|56=BLP|52=20110221-02:11:46|10=093||0|
M|443|0|0|I|20110221-02:12:16.893|70|8=FIX.4.1|9=48|35=0|34=443|49=RBS1|56=BLP|52=20110221-02:12:16|10=092||0|
M|444|0|0|I|20110221-02:12:46.952|70|8=FIX.4.1|9=48|35=0|34=444|49=RBS1|56=BLP|52=20110221-02:12:46|10=096||0|
M|445|0|0|I|20110221-02:13:17.011|70|8=FIX.4.1|9=48|35=0|34=445|49=RBS1|56=BLP|52=20110221-02:13:17|10=096||0|
M|446|0|0|I|20110221-02:13:47.099|70|8=FIX.4.1|9=48|35=0|34=446|49=RBS1|56=BLP|52=20110221-02:13:47|10=100||0|
M|447|0|0|I|20110221-02:14:17.188|70|8=FIX.4.1|9=48|35=0|34=447|49=RBS1|56=BLP|52=20110221-02:14:17|10=099||0|
M|448|0|0|I|20110221-02:14:47.257|70|8=FIX.4.1|9=48|35=0|34=448|49=RBS1|56=BLP|52=20110221-02:14:47|10=103||0|
M|449|0|0|I|20110221-02:15:17.345|70|8=FIX.4.1|9=48|35=0|34=449|49=RBS1|56=BLP|52=20110221-02:15:17|10=102||0|
M|450|0|8|I|20110221-02:15:31.875|318|8=FIX.4.1|9=295|35=8|50=RBS1|57=4531818|34=450|49=RBS1|56=BLP|52=20110221-02:15:31|37=0005708353|6=73.88831|14=38500|15=HKD|63=0|120=HKD|17=85120036|55=941|11=20110221-00001|150=1|39=1|20=0|59=0|54=2|40=1|60=20110221-02:14:36|31=73.80000|32=3000|75=20110221|38=166500|151=128000|48=6073556|22=2|109=HENAD|30=HK|10=199||2|AidaCode|HENAD|ClientConnectionName|Henderson_BBG_RBS|
M|451|0|0|I|20110221-02:16:02.173|70|8=FIX.4.1|9=48|35=0|34=451|49=RBS1|56=BLP|52=20110221-02:16:02|10=090||0|
M|452|0|0|I|20110221-02:16:32.232|70|8=FIX.4.1|9=48|35=0|34=452|49=RBS1|56=BLP|52=20110221-02:16:32|10=094||0|
M|453|0|0|I|20110221-02:17:02.291|70|8=FIX.4.1|9=48|35=0|34=453|49=RBS1|56=BLP|52=20110221-02:17:02|10=093||0|
M|454|0|0|I|20110221-02:17:32.370|70|8=FIX.4.1|9=48|35=0|34=454|49=RBS1|56=BLP|52=20110221-02:17:32|10=097||0|
M|455|0|0|I|20110221-02:18:02.448|70|8=FIX.4.1|9=48|35=0|34=455|49=RBS1|56=BLP|52=20110221-02:18:02|10=096||0|
M|456|0|0|I|20110221-02:18:32.527|70|8=FIX.4.1|9=48|35=0|34=456|49=RBS1|56=BLP|52=20110221-02:18:32|10=100||0|
M|457|0|0|I|20110221-02:19:02.596|70|8=FIX.4.1|9=48|35=0|34=457|49=RBS1|56=BLP|52=20110221-02:19:02|10=099||0|
M|458|0|0|I|20110221-02:19:32.674|70|8=FIX.4.1|9=48|35=0|34=458|49=RBS1|56=BLP|52=20110221-02:19:32|10=103||0|
M|459|0|0|I|20110221-02:20:02.763|70|8=FIX.4.1|9=48|35=0|34=459|49=RBS1|56=BLP|52=20110221-02:20:02|10=093||0|
M|460|0|0|I|20110221-02:20:32.832|70|8=FIX.4.1|9=48|35=0|34=460|49=RBS1|56=BLP|52=20110221-02:20:32|10=088||0|
M|461|0|0|I|20110221-02:21:02.890|70|8=FIX.4.1|9=48|35=0|34=461|49=RBS1|56=BLP|52=20110221-02:21:02|10=087||0|
M|462|0|0|I|20110221-02:21:32.949|70|8=FIX.4.1|9=48|35=0|34=462|49=RBS1|56=BLP|52=20110221-02:21:32|10=091||0|
M|463|0|0|I|20110221-02:22:03.028|70|8=FIX.4.1|9=48|35=0|34=463|49=RBS1|56=BLP|52=20110221-02:22:03|10=091||0|
M|464|0|8|I|20110221-02:22:17.764|318|8=FIX.4.1|9=295|35=8|50=RBS1|57=4531818|34=464|49=RBS1|56=BLP|52=20110221-02:22:17|37=0005708353|6=73.88861|14=39500|15=HKD|63=0|120=HKD|17=85120469|55=941|11=20110221-00001|150=1|39=1|20=0|59=0|54=2|40=1|60=20110221-02:11:02|31=73.90000|32=1000|75=20110221|38=166500|151=127000|48=6073556|22=2|109=HENAD|30=HK|10=208||2|AidaCode|HENAD|ClientConnectionName|Henderson_BBG_RBS|
M|465|0|0|I|20110221-02:22:47.866|70|8=FIX.4.1|9=48|35=0|34=465|49=RBS1|56=BLP|52=20110221-02:22:47|10=101||0|
M|466|0|0|I|20110221-02:23:17.925|70|8=FIX.4.1|9=48|35=0|34=466|49=RBS1|56=BLP|52=20110221-02:23:17|10=100||0|
M|467|0|0|I|20110221-02:23:21.889|98|8=FIX.4.1|9=76|35=0|34=467|49=RBS1|56=BLP|52=20110221-02:23:21|112=C.0168.01CF.01D3.022321|10=233||0|
M|468|0|0|I|20110221-02:23:52.073|70|8=FIX.4.1|9=48|35=0|34=468|49=RBS1|56=BLP|52=20110221-02:23:52|10=101||0|
M|469|0|0|I|20110221-02:24:22.132|70|8=FIX.4.1|9=48|35=0|34=469|49=RBS1|56=BLP|52=20110221-02:24:22|10=100||0|
M|470|0|0|I|20110221-02:24:52.190|70|8=FIX.4.1|9=48|35=0|34=470|49=RBS1|56=BLP|52=20110221-02:24:52|10=095||0|
M|471|0|0|I|20110221-02:25:22.259|70|8=FIX.4.1|9=48|35=0|34=471|49=RBS1|56=BLP|52=20110221-02:25:22|10=094||0|
M|472|0|0|I|20110221-02:25:52.308|70|8=FIX.4.1|9=48|35=0|34=472|49=RBS1|56=BLP|52=20110221-02:25:52|10=098||0|
M|473|0|0|I|20110221-02:26:22.366|70|8=FIX.4.1|9=48|35=0|34=473|49=RBS1|56=BLP|52=20110221-02:26:22|10=097||0|
M|474|0|0|I|20110221-02:26:52.445|70|8=FIX.4.1|9=48|35=0|34=474|49=RBS1|56=BLP|52=20110221-02:26:52|10=101||0|
M|475|0|0|I|20110221-02:27:22.494|70|8=FIX.4.1|9=48|35=0|34=475|49=RBS1|56=BLP|52=20110221-02:27:22|10=100||0|
M|476|0|0|I|20110221-02:27:52.552|70|8=FIX.4.1|9=48|35=0|34=476|49=RBS1|56=BLP|52=20110221-02:27:52|10=104||0|
M|477|0|0|I|20110221-02:28:22.631|70|8=FIX.4.1|9=48|35=0|34=477|49=RBS1|56=BLP|52=20110221-02:28:22|10=103||0|
M|478|0|0|I|20110221-02:28:52.710|70|8=FIX.4.1|9=48|35=0|34=478|49=RBS1|56=BLP|52=20110221-02:28:52|10=107||0|
M|479|0|0|I|20110221-02:29:22.769|70|8=FIX.4.1|9=48|35=0|34=479|49=RBS1|56=BLP|52=20110221-02:29:22|10=106||0|
M|480|0|0|I|20110221-02:29:52.978|70|8=FIX.4.1|9=48|35=0|34=480|49=RBS1|56=BLP|52=20110221-02:29:52|10=101||0|
M|481|0|0|I|20110221-02:30:23.046|70|8=FIX.4.1|9=48|35=0|34=481|49=RBS1|56=BLP|52=20110221-02:30:23|10=092||0|
M|482|0|0|I|20110221-02:30:53.125|70|8=FIX.4.1|9=48|35=0|34=482|49=RBS1|56=BLP|52=20110221-02:30:53|10=096||0|
M|483|0|0|I|20110221-02:31:23.203|70|8=FIX.4.1|9=48|35=0|34=483|49=RBS1|56=BLP|52=20110221-02:31:23|10=095||0|
M|484|0|0|I|20110221-02:31:53.292|70|8=FIX.4.1|9=48|35=0|34=484|49=RBS1|56=BLP|52=20110221-02:31:53|10=099||0|
M|485|0|0|I|20110221-02:32:23.351|70|8=FIX.4.1|9=48|35=0|34=485|49=RBS1|56=BLP|52=20110221-02:32:23|10=098||0|
M|486|0|0|I|20110221-02:32:53.409|70|8=FIX.4.1|9=48|35=0|34=486|49=RBS1|56=BLP|52=20110221-02:32:53|10=102||0|
M|487|0|0|I|20110221-02:33:23.478|70|8=FIX.4.1|9=48|35=0|34=487|49=RBS1|56=BLP|52=20110221-02:33:23|10=101||0|
M|488|0|0|I|20110221-02:33:53.557|70|8=FIX.4.1|9=48|35=0|34=488|49=RBS1|56=BLP|52=20110221-02:33:53|10=105||0|
M|489|0|0|I|20110221-02:34:23.635|70|8=FIX.4.1|9=48|35=0|34=489|49=RBS1|56=BLP|52=20110221-02:34:23|10=104||0|
M|490|0|0|I|20110221-02:34:53.724|70|8=FIX.4.1|9=48|35=0|34=490|49=RBS1|56=BLP|52=20110221-02:34:53|10=099||0|
M|491|0|0|I|20110221-02:35:23.813|70|8=FIX.4.1|9=48|35=0|34=491|49=RBS1|56=BLP|52=20110221-02:35:23|10=098||0|
M|492|0|0|I|20110221-02:35:53.882|70|8=FIX.4.1|9=48|35=0|34=492|49=RBS1|56=BLP|52=20110221-02:35:53|10=102||0|
M|493|0|0|I|20110221-02:36:23.950|70|8=FIX.4.1|9=48|35=0|34=493|49=RBS1|56=BLP|52=20110221-02:36:23|10=101||0|
M|494|0|0|I|20110221-02:36:54.029|70|8=FIX.4.1|9=48|35=0|34=494|49=RBS1|56=BLP|52=20110221-02:36:54|10=106||0|
M|495|0|0|I|20110221-02:37:24.108|70|8=FIX.4.1|9=48|35=0|34=495|49=RBS1|56=BLP|52=20110221-02:37:24|10=105||0|
M|496|0|0|I|20110221-02:37:54.186|70|8=FIX.4.1|9=48|35=0|34=496|49=RBS1|56=BLP|52=20110221-02:37:54|10=109||0|
M|497|0|0|I|20110221-02:38:24.265|70|8=FIX.4.1|9=48|35=0|34=497|49=RBS1|56=BLP|52=20110221-02:38:24|10=108||0|
M|498|0|0|I|20110221-02:38:54.314|70|8=FIX.4.1|9=48|35=0|34=498|49=RBS1|56=BLP|52=20110221-02:38:54|10=112||0|
M|499|0|0|I|20110221-02:39:24.392|70|8=FIX.4.1|9=48|35=0|34=499|49=RBS1|56=BLP|52=20110221-02:39:24|10=111||0|
M|500|0|0|I|20110221-02:39:54.471|70|8=FIX.4.1|9=48|35=0|34=500|49=RBS1|56=BLP|52=20110221-02:39:54|10=097||0|
M|501|0|8|D|20110221-02:40:00.640|325|8=FIX.4.1|9=302|35=8|122=20110221-02:35:05|43=Y|50=RBS1|57=4766193|34=501|49=RBS1|56=BLP|52=20110221-02:40:00|44=119.5000|37=04702070LO|6=0.0000|14=0|15=EUR|63=0|120=EUR|17=2598196|1=SCHR|55=MTI|20=0|150=C|39=C|32=0|11=20100924-00092|59=0|54=1|40=2|60=20100924-10:37:50|31=0.0000|38=85|151=0|48=B08KYR6|22=2|109=BVVER|10=132||3|Suppress|true|AidaCode|BVVER|ClientConnectionName|Schretlen_RBS|
M|502|0|8|D|20110221-02:40:00.644|342|8=FIX.4.1|9=319|35=8|122=20110221-02:35:05|43=Y|50=RBS1|57=3668395|34=502|49=RBS1|56=BLP|52=20110221-02:40:00|44=3.5000|37=05005407LO|6=0.0000|14=0|15=USD|63=0|120=USD|17=2507738|55=WEAT|20=0|150=C|39=C|32=0|11=20110214-00002|59=6|54=2|40=2|60=20110214-07:00:37|126=20110218-23:59:59|31=0.0000|38=13080|151=0|48=B15KY76|22=2|109=GRASE|10=098||3|Suppress|true|AidaCode|GRASE|ClientConnectionName|Grand_Cathay_BBG_RBS|
M|503|0|8|D|20110221-02:40:00.645|353|8=FIX.4.1|9=330|35=8|122=20110221-02:35:05|43=Y|50=RBS1|57=4551796|34=503|49=RBS1|56=BLP|52=20110221-02:40:00|44=9.5000|37=05017339LO|6=0.0000|14=0|15=EUR|63=0|120=EUR|17=2598199|55=SAN|58=211060069|20=0|150=C|39=C|32=0|11=20110217-00018|59=6|54=2|40=2|60=20110217-07:49:57|126=20110218-23:59:59|31=0.0000|38=1000|151=0|48=5705946|22=2|109=LELAB|10=032||3|Suppress|true|AidaCode|LELAB|ClientConnectionName|Leleux_RBS|
M|504|0|8|D|20110221-02:40:00.647|351|8=FIX.4.1|9=328|35=8|122=20110221-02:35:05|43=Y|50=RBS1|57=4974947|34=504|49=RBS1|56=BLP|52=20110221-02:40:00|44=800.0000|37=04910134LO|6=0.0000|14=0|15=CZK|63=0|120=CZK|17=2545377|1=ZURICH|55=CEZ|20=0|150=C|39=C|32=0|11=20110106-00354|59=6|54=1|40=2|60=20110106-16:39:39|126=20110114-23:59:59|31=0.0000|38=1100|151=0|48=5624030|22=2|109=SCHJH|10=056||3|Suppress|true|AidaCode|SCHJH|ClientConnectionName|SchrodersPB_RBS|
M|505|0|8|D|20110221-02:40:00.649|348|8=FIX.4.1|9=325|35=8|122=20110221-02:35:05|43=Y|50=RBS1|57=4766193|34=505|49=RBS1|56=BLP|52=20110221-02:40:00|44=11.0000|37=04997261LO|6=0.0000|14=0|15=EUR|63=0|120=EUR|17=2509069|1=SCHR|55=I3M|20=0|150=C|39=C|32=0|11=20110209-00261|59=6|54=2|40=2|60=20110218-17:00:20|126=20110218-23:59:59|31=0.0000|38=2000|151=0|48=B157C84|22=2|109=BVVER|10=133||3|Suppress|true|AidaCode|BVVER|ClientConnectionName|Schretlen_RBS|
M|506|0|8|D|20110221-02:40:00.650|351|8=FIX.4.1|9=328|35=8|122=20110221-02:35:06|43=Y|50=RBS1|57=6514436|34=506|49=RBS1|56=BLP|52=20110221-02:40:00|44=3.7000|37=05007360LO|6=0.0000|14=0|15=USD|63=0|120=USD|17=2545731|1=ZURICH|55=OTLD|20=0|150=C|39=C|32=0|11=20110214-00080|59=6|54=2|40=2|60=20110214-11:14:05|126=20110218-23:59:59|31=0.0000|38=15300|151=0|48=4007739|22=2|109=SCHJH|10=080||3|Suppress|true|AidaCode|SCHJH|ClientConnectionName|SchrodersPB_RBS|
M|507|0|8|D|20110221-02:40:00.652|326|8=FIX.4.1|9=303|35=8|122=20110221-02:35:06|43=Y|50=RBS1|57=33806|34=507|49=RBS1|56=BLP|52=20110221-02:40:00|44=0.50000|37=05022430LO|6=0.00000|14=0|15=GBP|63=0|120=GBP|17=2503225|1=SNG|55=RBS|20=0|150=C|39=C|32=0|11=20110218-00059|59=0|54=2|40=2|60=20110218-09:25:16|31=0.00000|38=50000|151=0|48=0754783|22=2|109=AB135|10=119||3|Suppress|true|AidaCode|AB135|ClientConnectionName|ABN_Singapore_RBS|
M|508|0|8|D|20110221-02:40:00.653|319|8=FIX.4.1|9=296|35=8|122=20110221-02:35:06|43=Y|50=RBS1|57=4797021|34=508|49=RBS1|56=BLP|52=20110221-02:40:00|44=0.3600|37=05023507LO|6=0.0000|14=0|15=EUR|63=0|120=EUR|17=2509236|55=BKIR|20=0|150=C|39=C|32=0|11=20110218-00161|59=0|54=1|40=2|60=20110218-13:08:32|31=0.0000|38=4000|151=0|48=3070732|22=2|109=ZURKA|10=166||3|Suppress|true|AidaCode|ZURKA|ClientConnectionName|Zurcher_RBS|
M|509|0|8|D|20110221-02:40:00.654|326|8=FIX.4.1|9=303|35=8|122=20110221-02:35:06|43=Y|50=RBS1|57=33806|34=509|49=RBS1|56=BLP|52=20110221-02:40:00|44=24.00000|37=05023878LO|6=0.00000|14=0|15=EUR|63=0|120=EUR|17=1765436|1=SNG|55=PHIA|20=0|150=C|39=C|32=0|11=20110218-00176|59=0|54=2|40=2|60=20110218-14:51:02|31=0.00000|38=300|151=0|48=5986622|22=2|109=AB135|10=193||3|Suppress|true|AidaCode|AB135|ClientConnectionName|ABN_Singapore_RBS|
M|510|0|8|D|20110221-02:40:00.656|326|8=FIX.4.1|9=303|35=8|122=20110221-02:35:06|43=Y|50=RBS1|57=33806|34=510|49=RBS1|56=BLP|52=20110221-02:40:00|44=109.00000|37=05023879LO|6=0.00000|14=0|15=EUR|63=0|120=EUR|17=2600085|1=SNG|55=ALV|20=0|150=C|39=C|32=0|11=20110218-00177|59=0|54=2|40=2|60=20110218-17:00:19|31=0.00000|38=150|151=0|48=5231485|22=2|109=AB135|10=163||3|Suppress|true|AidaCode|AB135|ClientConnectionName|ABN_Singapore_RBS|
M|511|0|8|D|20110221-02:40:00.657|327|8=FIX.4.1|9=304|35=8|122=20110221-02:35:06|43=Y|50=RBS1|57=33806|34=511|49=RBS1|56=BLP|52=20110221-02:40:00|44=126.00000|37=05023880LO|6=0.00000|14=0|15=EUR|63=0|120=EUR|17=2510189|1=SNG|55=MUV2|20=0|150=C|39=C|32=0|11=20110218-00178|59=0|54=2|40=2|60=20110218-17:00:19|31=0.00000|38=150|151=0|48=5294121|22=2|109=AB135|10=229||3|Suppress|true|AidaCode|AB135|ClientConnectionName|ABN_Singapore_RBS|
M|512|0|8|D|20110221-02:40:00.658|325|8=FIX.4.1|9=302|35=8|122=20110221-02:35:06|43=Y|50=RBS1|57=33806|34=512|49=RBS1|56=BLP|52=20110221-02:40:00|44=51.00000|37=05023967LO|6=0.00000|14=0|15=EUR|63=0|120=EUR|17=2510243|1=SNG|55=GLE|20=0|150=C|39=C|32=0|11=20110218-00180|59=0|54=1|40=2|60=20110218-14:54:49|31=0.00000|38=200|151=0|48=5966516|22=2|109=AB135|10=103||3|Suppress|true|AidaCode|AB135|ClientConnectionName|ABN_Singapore_RBS|
M|513|0|8|D|20110221-02:40:00.660|325|8=FIX.4.1|9=302|35=8|122=20110221-02:35:06|43=Y|50=RBS1|57=33806|34=513|49=RBS1|56=BLP|52=20110221-02:40:00|44=58.75000|37=05023965LO|6=0.00000|14=0|15=EUR|63=0|120=EUR|17=1760657|1=SNG|55=BNP|20=0|150=C|39=C|32=0|11=20110218-00179|59=0|54=2|40=2|60=20110218-14:54:27|31=0.00000|38=250|151=0|48=7309681|22=2|109=AB135|10=150||3|Suppress|true|AidaCode|AB135|ClientConnectionName|ABN_Singapore_RBS|
M|514|0|8|D|20110221-02:40:00.665|325|8=FIX.4.1|9=302|35=8|122=20110221-02:35:06|43=Y|50=RBS1|57=33806|34=514|49=RBS1|56=BLP|52=20110221-02:40:00|44=115.00000|37=05023977LO|6=0.00000|14=0|15=EUR|63=0|120=EUR|17=2600087|1=SNG|55=MC|20=0|150=C|39=C|32=0|11=20110218-00182|59=0|54=1|40=2|60=20110218-14:56:06|31=0.00000|38=100|151=0|48=4061412|22=2|109=AB135|10=065||3|Suppress|true|AidaCode|AB135|ClientConnectionName|ABN_Singapore_RBS|
M|515|0|8|D|20110221-02:40:00.666|319|8=FIX.4.1|9=296|35=8|122=20110221-02:35:06|43=Y|50=RBS1|57=133818|34=515|49=RBS1|56=BLP|52=20110221-02:40:00|44=16.5700|37=05023980LO|6=0.0000|14=0|15=EUR|63=0|120=EUR|17=2545735|55=FTE|20=0|150=C|39=C|32=0|11=20110218-00184|59=0|54=2|40=2|60=20110218-14:58:14|31=0.0000|38=30000|151=0|48=5176177|22=2|109=DECOL|10=137||3|Suppress|true|AidaCode|DECOL|ClientConnectionName|Delbruck_RBS|
M|516|0|8|D|20110221-02:40:00.670|325|8=FIX.4.1|9=302|35=8|122=20110221-02:35:06|43=Y|50=RBS1|57=4766193|34=516|49=RBS1|56=BLP|52=20110221-02:40:00|44=119.5000|37=04702070LO|6=0.0000|14=0|15=EUR|63=0|120=EUR|17=2635014|1=SCHR|55=MTI|20=0|150=C|39=C|32=0|11=20100924-00092|59=0|54=1|40=2|60=20100924-10:37:50|31=0.0000|38=85|151=0|48=B08KYR6|22=2|109=BVVER|10=120||3|Suppress|true|AidaCode|BVVER|ClientConnectionName|Schretlen_RBS|
M|517|0|8|D|20110221-02:40:00.671|326|8=FIX.4.1|9=303|35=8|122=20110221-02:35:06|43=Y|50=RBS1|57=33806|34=517|49=RBS1|56=BLP|52=20110221-02:40:00|44=24.00000|37=05023878LO|6=0.00000|14=0|15=EUR|63=0|120=EUR|17=2560273|1=SNG|55=PHIA|20=0|150=C|39=C|32=0|11=20110218-00176|59=0|54=2|40=2|60=20110218-14:51:02|31=0.00000|38=300|151=0|48=5986622|22=2|109=AB135|10=185||3|Suppress|true|AidaCode|AB135|ClientConnectionName|ABN_Singapore_RBS|
M|518|0|8|D|20110221-02:40:00.673|325|8=FIX.4.1|9=302|35=8|122=20110221-02:35:06|43=Y|50=RBS1|57=33806|34=518|49=RBS1|56=BLP|52=20110221-02:40:00|44=58.75000|37=05023965LO|6=0.00000|14=0|15=EUR|63=0|120=EUR|17=2560274|1=SNG|55=BNP|20=0|150=C|39=C|32=0|11=20110218-00179|59=0|54=2|40=2|60=20110218-14:54:27|31=0.00000|38=250|151=0|48=7309681|22=2|109=AB135|10=149||3|Suppress|true|AidaCode|AB135|ClientConnectionName|ABN_Singapore_RBS|
M|519|0|8|D|20110221-02:40:00.674|325|8=FIX.4.1|9=302|35=8|122=20110221-02:35:06|43=Y|50=RBS1|57=33806|34=519|49=RBS1|56=BLP|52=20110221-02:40:00|44=51.00000|37=05023967LO|6=0.00000|14=0|15=EUR|63=0|120=EUR|17=2568072|1=SNG|55=GLE|20=0|150=C|39=C|32=0|11=20110218-00180|59=0|54=1|40=2|60=20110218-14:54:49|31=0.00000|38=200|151=0|48=5966516|22=2|109=AB135|10=123||3|Suppress|true|AidaCode|AB135|ClientConnectionName|ABN_Singapore_RBS|
M|520|0|8|D|20110221-02:40:00.675|325|8=FIX.4.1|9=302|35=8|122=20110221-02:35:06|43=Y|50=RBS1|57=33806|34=520|49=RBS1|56=BLP|52=20110221-02:40:00|44=115.00000|37=05023977LO|6=0.00000|14=0|15=EUR|63=0|120=EUR|17=2568074|1=SNG|55=MC|20=0|150=C|39=C|32=0|11=20110218-00182|59=0|54=1|40=2|60=20110218-14:56:06|31=0.00000|38=100|151=0|48=4061412|22=2|109=AB135|10=071||3|Suppress|true|AidaCode|AB135|ClientConnectionName|ABN_Singapore_RBS|
M|521|0|8|D|20110221-02:40:00.678|319|8=FIX.4.1|9=296|35=8|122=20110221-02:35:06|43=Y|50=RBS1|57=133818|34=521|49=RBS1|56=BLP|52=20110221-02:40:00|44=16.5700|37=05023980LO|6=0.0000|14=0|15=EUR|63=0|120=EUR|17=2568076|55=FTE|20=0|150=C|39=C|32=0|11=20110218-00184|59=0|54=2|40=2|60=20110218-14:58:14|31=0.0000|38=30000|151=0|48=5176177|22=2|109=DECOL|10=137||3|Suppress|true|AidaCode|DECOL|ClientConnectionName|Delbruck_RBS|
M|522|0|8|D|20110221-02:40:00.679|342|8=FIX.4.1|9=319|35=8|122=20110221-02:35:06|43=Y|50=RBS1|57=3668395|34=522|49=RBS1|56=BLP|52=20110221-02:40:00|44=3.5000|37=05005407LO|6=0.0000|14=0|15=USD|63=0|120=USD|17=2650003|55=WEAT|32=0|11=20110214-00002|150=C|39=C|20=0|59=6|54=2|40=2|60=20110214-07:00:37|126=20110218-23:59:59|38=13080|31=0.0000|151=0|48=B15KY76|22=2|109=GRASE|10=085||3|Suppress|true|AidaCode|GRASE|ClientConnectionName|Grand_Cathay_BBG_RBS|
M|523|0|8|D|20110221-02:40:00.680|351|8=FIX.4.1|9=328|35=8|122=20110221-02:35:06|43=Y|50=RBS1|57=6514436|34=523|49=RBS1|56=BLP|52=20110221-02:40:00|44=3.7000|37=05007360LO|6=0.0000|14=0|15=USD|63=0|120=USD|17=2682675|1=ZURICH|55=OTLD|32=0|11=20110214-00080|150=C|39=C|20=0|59=6|54=2|40=2|60=20110214-11:14:05|126=20110218-23:59:59|38=15300|31=0.0000|151=0|48=4007739|22=2|109=SCHJH|10=088||3|Suppress|true|AidaCode|SCHJH|ClientConnectionName|SchrodersPB_RBS|
M|524|0|8|D|20110221-02:40:00.682|326|8=FIX.4.1|9=303|35=8|122=20110221-02:35:06|43=Y|50=RBS1|57=33806|34=524|49=RBS1|56=BLP|52=20110221-02:40:00|44=0.50000|37=05022430LO|6=0.00000|14=0|15=GBP|63=0|120=GBP|17=2725443|1=SNG|55=RBS|32=0|11=20110218-00059|150=C|39=C|20=0|59=0|54=2|40=2|60=20110218-09:25:16|38=50000|31=0.00000|151=0|48=0754783|22=2|109=AB135|10=126||3|Suppress|true|AidaCode|AB135|ClientConnectionName|ABN_Singapore_RBS|
M|525|0|8|D|20110221-02:40:00.683|318|8=FIX.4.1|9=295|35=8|122=20110221-02:35:06|43=Y|50=RBS1|57=4797021|34=525|49=RBS1|56=BLP|52=20110221-02:40:00|44=0.3600|37=05023507LO|6=0.0000|14=0|15=EUR|63=0|120=EUR|17=699835|55=BKIR|32=0|11=20110218-00161|150=C|39=C|20=0|59=0|54=1|40=2|60=20110218-13:08:32|38=4000|31=0.0000|151=0|48=3070732|22=2|109=ZURKA|10=129||3|Suppress|true|AidaCode|ZURKA|ClientConnectionName|Zurcher_RBS|
M|526|0|8|D|20110221-02:40:00.685|352|8=FIX.4.1|9=329|35=8|122=20110221-02:35:06|43=Y|50=RBS1|57=6158952|34=526|49=RBS1|56=BLP|52=20110221-02:40:00|20=0|150=0|39=0|44=0.38000|37=05001665LO|6=0.00000|14=0|15=USD|63=0|120=USD|17=147982|1=HK|55=VNI|11=20110211-00009|32=0|59=6|54=2|40=2|60=20110211-07:27:47|126=20110228-23:59:59|31=0.00000|38=50000|151=50000|48=B231Q83|22=2|109=AB135|10=177||2|AidaCode|AB135|ClientConnectionName|ABN_Singapore_RBS|
M|527|0|0|I|20110221-02:40:31.170|70|8=FIX.4.1|9=48|35=0|34=527|49=RBS1|56=BLP|52=20110221-02:40:31|10=093||0|
M|528|0|0|I|20110221-02:41:00.734|98|8=FIX.4.1|9=76|35=0|34=528|49=RBS1|56=BLP|52=20110221-02:41:00|112=C.01D0.020B.0210.024100|10=188||0|
M|529|0|0|I|20110221-02:41:30.787|70|8=FIX.4.1|9=48|35=0|34=529|49=RBS1|56=BLP|52=20110221-02:41:30|10=095||0|
M|530|0|0|I|20110221-02:42:00.846|70|8=FIX.4.1|9=48|35=0|34=530|49=RBS1|56=BLP|52=20110221-02:42:00|10=085||0|
M|531|0|0|I|20110221-02:42:30.914|70|8=FIX.4.1|9=48|35=0|34=531|49=RBS1|56=BLP|52=20110221-02:42:30|10=089||0|
M|532|0|0|I|20110221-02:43:00.973|70|8=FIX.4.1|9=48|35=0|34=532|49=RBS1|56=BLP|52=20110221-02:43:00|10=088||0|
M|533|0|0|I|20110221-02:43:31.022|70|8=FIX.4.1|9=48|35=0|34=533|49=RBS1|56=BLP|52=20110221-02:43:31|10=093||0|
M|534|0|0|I|20110221-02:44:01.090|70|8=FIX.4.1|9=48|35=0|34=534|49=RBS1|56=BLP|52=20110221-02:44:01|10=092||0|
M|535|0|0|I|20110221-02:44:31.149|70|8=FIX.4.1|9=48|35=0|34=535|49=RBS1|56=BLP|52=20110221-02:44:31|10=096||0|
M|536|0|8|I|20110221-02:44:54.244|317|8=FIX.4.1|9=294|35=8|50=RBS1|57=4531818|34=536|49=RBS1|56=BLP|52=20110221-02:44:54|37=0005708353|6=73.88625|14=40000|15=HKD|63=0|120=HKD|17=85121886|55=941|11=20110221-00001|150=1|39=1|20=0|59=0|54=2|40=1|60=20110221-02:44:54|31=73.70000|32=500|75=20110221|38=166500|151=126500|48=6073556|22=2|109=HENAD|30=HK|10=172||2|AidaCode|HENAD|ClientConnectionName|Henderson_BBG_RBS|
M|537|0|8|I|20110221-02:44:54.253|318|8=FIX.4.1|9=295|35=8|50=RBS1|57=4531818|34=537|49=RBS1|56=BLP|52=20110221-02:44:54|37=0005708353|6=73.88171|14=41000|15=HKD|63=0|120=HKD|17=85121887|55=941|11=20110221-00001|150=1|39=1|20=0|59=0|54=2|40=1|60=20110221-02:44:54|31=73.70000|32=1000|75=20110221|38=166500|151=125500|48=6073556|22=2|109=HENAD|30=HK|10=215||2|AidaCode|HENAD|ClientConnectionName|Henderson_BBG_RBS|
M|538|0|8|I|20110221-02:44:55.435|318|8=FIX.4.1|9=295|35=8|50=RBS1|57=4531818|34=538|49=RBS1|56=BLP|52=20110221-02:44:55|37=0005708353|6=73.87529|14=42500|15=HKD|63=0|120=HKD|17=85121888|55=941|11=20110221-00001|150=1|39=1|20=0|59=0|54=2|40=1|60=20110221-02:44:55|31=73.70000|32=1500|75=20110221|38=166500|151=124000|48=6073556|22=2|109=HENAD|30=HK|10=230||2|AidaCode|HENAD|ClientConnectionName|Henderson_BBG_RBS|
M|539|0|0|I|20110221-02:45:25.667|70|8=FIX.4.1|9=48|35=0|34=539|49=RBS1|56=BLP|52=20110221-02:45:25|10=104||0|
M|540|0|0|I|20110221-02:45:55.745|70|8=FIX.4.1|9=48|35=0|34=540|49=RBS1|56=BLP|52=20110221-02:45:55|10=099||0|
M|541|0|0|I|20110221-02:46:25.824|70|8=FIX.4.1|9=48|35=0|34=541|49=RBS1|56=BLP|52=20110221-02:46:25|10=098||0|
M|542|0|0|I|20110221-02:46:55.903|70|8=FIX.4.1|9=48|35=0|34=542|49=RBS1|56=BLP|52=20110221-02:46:55|10=102||0|
M|543|0|0|I|20110221-02:47:25.971|70|8=FIX.4.1|9=48|35=0|34=543|49=RBS1|56=BLP|52=20110221-02:47:25|10=101||0|
M|544|0|0|I|20110221-02:47:56.040|70|8=FIX.4.1|9=48|35=0|34=544|49=RBS1|56=BLP|52=20110221-02:47:56|10=106||0|
M|545|0|0|I|20110221-02:48:26.109|70|8=FIX.4.1|9=48|35=0|34=545|49=RBS1|56=BLP|52=20110221-02:48:26|10=105||0|
M|546|0|0|I|20110221-02:48:56.177|70|8=FIX.4.1|9=48|35=0|34=546|49=RBS1|56=BLP|52=20110221-02:48:56|10=109||0|
M|547|0|8|I|20110221-02:49:03.275|318|8=FIX.4.1|9=295|35=8|50=RBS1|57=4531818|34=547|49=RBS1|56=BLP|52=20110221-02:49:03|37=0005708353|6=73.86374|14=45500|15=HKD|63=0|120=HKD|17=85122155|55=941|11=20110221-00001|150=1|39=1|20=0|59=0|54=2|40=1|60=20110221-02:48:49|31=73.70000|32=3000|75=20110221|38=166500|151=121000|48=6073556|22=2|109=HENAD|30=HK|10=217||2|AidaCode|HENAD|ClientConnectionName|Henderson_BBG_RBS|
M|548|0|8|I|20110221-02:49:03.285|317|8=FIX.4.1|9=294|35=8|50=RBS1|57=4531818|34=548|49=RBS1|56=BLP|52=20110221-02:49:03|37=0005708353|6=73.86196|14=46000|15=HKD|63=0|120=HKD|17=85122156|55=941|11=20110221-00001|150=1|39=1|20=0|59=0|54=2|40=1|60=20110221-02:48:49|31=73.70000|32=500|75=20110221|38=166500|151=120500|48=6073556|22=2|109=HENAD|30=HK|10=174||2|AidaCode|HENAD|ClientConnectionName|Henderson_BBG_RBS|
M|549|0|8|I|20110221-02:49:03.296|317|8=FIX.4.1|9=294|35=8|50=RBS1|57=4531818|34=549|49=RBS1|56=BLP|52=20110221-02:49:03|37=0005708353|6=73.86022|14=46500|15=HKD|63=0|120=HKD|17=85122157|55=941|11=20110221-00001|150=1|39=1|20=0|59=0|54=2|40=1|60=20110221-02:48:49|31=73.70000|32=500|75=20110221|38=166500|151=120000|48=6073556|22=2|109=HENAD|30=HK|10=164||2|AidaCode|HENAD|ClientConnectionName|Henderson_BBG_RBS|
M|550|0|0|I|20110221-02:49:33.386|70|8=FIX.4.1|9=48|35=0|34=550|49=RBS1|56=BLP|52=20110221-02:49:33|10=100||0|
M|551|0|0|I|20110221-02:50:03.455|70|8=FIX.4.1|9=48|35=0|34=551|49=RBS1|56=BLP|52=20110221-02:50:03|10=090||0|
M|552|0|0|I|20110221-02:50:33.493|70|8=FIX.4.1|9=48|35=0|34=552|49=RBS1|56=BLP|52=20110221-02:50:33|10=094||0|
M|553|0|0|I|20110221-02:51:03.552|70|8=FIX.4.1|9=48|35=0|34=553|49=RBS1|56=BLP|52=20110221-02:51:03|10=093||0|
M|554|0|8|I|20110221-02:51:03.832|318|8=FIX.4.1|9=295|35=8|50=RBS1|57=4531818|34=554|49=RBS1|56=BLP|52=20110221-02:51:03|37=0005708353|6=73.85437|14=51500|15=HKD|63=0|120=HKD|17=85122288|55=941|11=20110221-00001|150=1|39=1|20=0|59=0|54=2|40=1|60=20110221-02:50:55|31=73.80000|32=5000|75=20110221|38=166500|151=115000|48=6073556|22=2|109=HENAD|30=HK|10=207||2|AidaCode|HENAD|ClientConnectionName|Henderson_BBG_RBS|
M|555|0|0|I|20110221-02:51:34.131|70|8=FIX.4.1|9=48|35=0|34=555|49=RBS1|56=BLP|52=20110221-02:51:34|10=099||0|
M|556|0|0|I|20110221-02:52:04.189|70|8=FIX.4.1|9=48|35=0|34=556|49=RBS1|56=BLP|52=20110221-02:52:04|10=098||0|
M|557|0|0|I|20110221-02:52:34.258|70|8=FIX.4.1|9=48|35=0|34=557|49=RBS1|56=BLP|52=20110221-02:52:34|10=102||0|
M|558|0|0|I|20110221-02:53:04.317|70|8=FIX.4.1|9=48|35=0|34=558|49=RBS1|56=BLP|52=20110221-02:53:04|10=101||0|
M|559|0|0|I|20110221-02:53:34.395|70|8=FIX.4.1|9=48|35=0|34=559|49=RBS1|56=BLP|52=20110221-02:53:34|10=105||0|
M|560|0|0|I|20110221-02:54:04.444|70|8=FIX.4.1|9=48|35=0|34=560|49=RBS1|56=BLP|52=20110221-02:54:04|10=095||0|
M|561|0|0|I|20110221-02:54:34.503|70|8=FIX.4.1|9=48|35=0|34=561|49=RBS1|56=BLP|52=20110221-02:54:34|10=099||0|
M|562|0|0|I|20110221-02:55:04.591|70|8=FIX.4.1|9=48|35=0|34=562|49=RBS1|56=BLP|52=20110221-02:55:04|10=098||0|
M|563|0|0|I|20110221-02:55:34.670|70|8=FIX.4.1|9=48|35=0|34=563|49=RBS1|56=BLP|52=20110221-02:55:34|10=102||0|
M|564|0|0|I|20110221-02:56:04.729|70|8=FIX.4.1|9=48|35=0|34=564|49=RBS1|56=BLP|52=20110221-02:56:04|10=101||0|
M|565|0|0|I|20110221-02:56:34.797|70|8=FIX.4.1|9=48|35=0|34=565|49=RBS1|56=BLP|52=20110221-02:56:34|10=105||0|
M|566|0|0|I|20110221-02:57:04.876|70|8=FIX.4.1|9=48|35=0|34=566|49=RBS1|56=BLP|52=20110221-02:57:04|10=104||0|
M|567|0|0|I|20110221-02:57:34.935|70|8=FIX.4.1|9=48|35=0|34=567|49=RBS1|56=BLP|52=20110221-02:57:34|10=108||0|
M|568|0|0|I|20110221-02:58:04.993|70|8=FIX.4.1|9=48|35=0|34=568|49=RBS1|56=BLP|52=20110221-02:58:04|10=107||0|
M|569|0|0|I|20110221-02:58:35.062|70|8=FIX.4.1|9=48|35=0|34=569|49=RBS1|56=BLP|52=20110221-02:58:35|10=112||0|
M|570|0|0|I|20110221-02:59:05.141|70|8=FIX.4.1|9=48|35=0|34=570|49=RBS1|56=BLP|52=20110221-02:59:05|10=102||0|
M|571|0|0|I|20110221-02:59:35.220|70|8=FIX.4.1|9=48|35=0|34=571|49=RBS1|56=BLP|52=20110221-02:59:35|10=106||0|
M|572|0|0|I|20110221-03:00:05.288|70|8=FIX.4.1|9=48|35=0|34=572|49=RBS1|56=BLP|52=20110221-03:00:05|10=091||0|
M|573|0|0|I|20110221-03:00:35.357|70|8=FIX.4.1|9=48|35=0|34=573|49=RBS1|56=BLP|52=20110221-03:00:35|10=095||0|
M|574|0|0|I|20110221-03:01:05.436|70|8=FIX.4.1|9=48|35=0|34=574|49=RBS1|56=BLP|52=20110221-03:01:05|10=094||0|
M|575|0|0|I|20110221-03:01:35.514|70|8=FIX.4.1|9=48|35=0|34=575|49=RBS1|56=BLP|52=20110221-03:01:35|10=098||0|
M|576|0|0|I|20110221-03:02:05.593|70|8=FIX.4.1|9=48|35=0|34=576|49=RBS1|56=BLP|52=20110221-03:02:05|10=097||0|
M|577|0|0|I|20110221-03:02:35.652|70|8=FIX.4.1|9=48|35=0|34=577|49=RBS1|56=BLP|52=20110221-03:02:35|10=101||0|
M|578|0|0|I|20110221-03:03:05.720|70|8=FIX.4.1|9=48|35=0|34=578|49=RBS1|56=BLP|52=20110221-03:03:05|10=100||0|
M|579|0|0|I|20110221-03:03:35.789|70|8=FIX.4.1|9=48|35=0|34=579|49=RBS1|56=BLP|52=20110221-03:03:35|10=104||0|
M|580|0|0|I|20110221-03:04:05.848|70|8=FIX.4.1|9=48|35=0|34=580|49=RBS1|56=BLP|52=20110221-03:04:05|10=094||0|
M|581|0|0|I|20110221-03:04:35.926|70|8=FIX.4.1|9=48|35=0|34=581|49=RBS1|56=BLP|52=20110221-03:04:35|10=098||0|
M|582|0|0|I|20110221-03:05:06.005|70|8=FIX.4.1|9=48|35=0|34=582|49=RBS1|56=BLP|52=20110221-03:05:06|10=098||0|
M|583|0|0|I|20110221-03:05:36.084|70|8=FIX.4.1|9=48|35=0|34=583|49=RBS1|56=BLP|52=20110221-03:05:36|10=102||0|
M|584|0|0|I|20110221-03:06:06.133|70|8=FIX.4.1|9=48|35=0|34=584|49=RBS1|56=BLP|52=20110221-03:06:06|10=101||0|
M|585|0|0|I|20110221-03:06:36.201|70|8=FIX.4.1|9=48|35=0|34=585|49=RBS1|56=BLP|52=20110221-03:06:36|10=105||0|
M|586|0|0|I|20110221-03:07:06.260|70|8=FIX.4.1|9=48|35=0|34=586|49=RBS1|56=BLP|52=20110221-03:07:06|10=104||0|
M|587|0|0|I|20110221-03:07:36.328|70|8=FIX.4.1|9=48|35=0|34=587|49=RBS1|56=BLP|52=20110221-03:07:36|10=108||0|
M|588|0|8|I|20110221-03:07:41.757|318|8=FIX.4.1|9=295|35=8|50=RBS1|57=4531818|34=588|49=RBS1|56=BLP|52=20110221-03:07:41|37=0005708353|6=73.84956|14=56500|15=HKD|63=0|120=HKD|17=85123661|55=941|11=20110221-00001|150=1|39=1|20=0|59=0|54=2|40=1|60=20110221-03:07:30|31=73.80000|32=5000|75=20110221|38=166500|151=110000|48=6073556|22=2|109=HENAD|30=HK|10=215||2|AidaCode|HENAD|ClientConnectionName|Henderson_BBG_RBS|
M|589|0|0|I|20110221-03:08:12.007|70|8=FIX.4.1|9=48|35=0|34=589|49=RBS1|56=BLP|52=20110221-03:08:12|10=105||0|
M|590|0|0|I|20110221-03:08:42.076|70|8=FIX.4.1|9=48|35=0|34=590|49=RBS1|56=BLP|52=20110221-03:08:42|10=100||0|
M|591|0|0|I|20110221-03:09:12.154|70|8=FIX.4.1|9=48|35=0|34=591|49=RBS1|56=BLP|52=20110221-03:09:12|10=099||0|
M|592|0|0|I|20110221-03:09:42.233|70|8=FIX.4.1|9=48|35=0|34=592|49=RBS1|56=BLP|52=20110221-03:09:42|10=103||0|
M|593|0|0|I|20110221-03:10:12.312|70|8=FIX.4.1|9=48|35=0|34=593|49=RBS1|56=BLP|52=20110221-03:10:12|10=093||0|
M|594|0|0|I|20110221-03:10:42.380|70|8=FIX.4.1|9=48|35=0|34=594|49=RBS1|56=BLP|52=20110221-03:10:42|10=097||0|
M|595|0|0|I|20110221-03:11:12.439|70|8=FIX.4.1|9=48|35=0|34=595|49=RBS1|56=BLP|52=20110221-03:11:12|10=096||0|
M|596|0|0|I|20110221-03:11:42.488|70|8=FIX.4.1|9=48|35=0|34=596|49=RBS1|56=BLP|52=20110221-03:11:42|10=100||0|
M|597|0|0|I|20110221-03:12:12.556|70|8=FIX.4.1|9=48|35=0|34=597|49=RBS1|56=BLP|52=20110221-03:12:12|10=099||0|
M|598|0|0|I|20110221-03:12:42.615|70|8=FIX.4.1|9=48|35=0|34=598|49=RBS1|56=BLP|52=20110221-03:12:42|10=103||0|
M|599|0|0|I|20110221-03:13:12.674|70|8=FIX.4.1|9=48|35=0|34=599|49=RBS1|56=BLP|52=20110221-03:13:12|10=102||0|
M|600|0|0|I|20110221-03:13:42.732|70|8=FIX.4.1|9=48|35=0|34=600|49=RBS1|56=BLP|52=20110221-03:13:42|10=088||0|
M|601|0|0|I|20110221-03:14:12.791|70|8=FIX.4.1|9=48|35=0|34=601|49=RBS1|56=BLP|52=20110221-03:14:12|10=087||0|
M|602|0|0|I|20110221-03:14:42.840|70|8=FIX.4.1|9=48|35=0|34=602|49=RBS1|56=BLP|52=20110221-03:14:42|10=091||0|
M|603|0|0|I|20110221-03:15:12.928|70|8=FIX.4.1|9=48|35=0|34=603|49=RBS1|56=BLP|52=20110221-03:15:12|10=090||0|
M|604|0|0|I|20110221-03:15:43.007|70|8=FIX.4.1|9=48|35=0|34=604|49=RBS1|56=BLP|52=20110221-03:15:43|10=095||0|
M|605|0|0|I|20110221-03:16:13.066|70|8=FIX.4.1|9=48|35=0|34=605|49=RBS1|56=BLP|52=20110221-03:16:13|10=094||0|
M|606|0|0|I|20110221-03:16:43.135|70|8=FIX.4.1|9=48|35=0|34=606|49=RBS1|56=BLP|52=20110221-03:16:43|10=098||0|
M|607|0|0|I|20110221-03:17:13.203|70|8=FIX.4.1|9=48|35=0|34=607|49=RBS1|56=BLP|52=20110221-03:17:13|10=097||0|
M|608|0|0|I|20110221-03:17:43.252|70|8=FIX.4.1|9=48|35=0|34=608|49=RBS1|56=BLP|52=20110221-03:17:43|10=101||0|
M|609|0|0|I|20110221-03:18:13.331|70|8=FIX.4.1|9=48|35=0|34=609|49=RBS1|56=BLP|52=20110221-03:18:13|10=100||0|
M|610|0|0|I|20110221-03:18:43.399|70|8=FIX.4.1|9=48|35=0|34=610|49=RBS1|56=BLP|52=20110221-03:18:43|10=095||0|
M|611|0|0|I|20110221-03:19:13.488|70|8=FIX.4.1|9=48|35=0|34=611|49=RBS1|56=BLP|52=20110221-03:19:13|10=094||0|
M|612|0|0|I|20110221-03:19:43.537|70|8=FIX.4.1|9=48|35=0|34=612|49=RBS1|56=BLP|52=20110221-03:19:43|10=098||0|
M|613|0|0|I|20110221-03:20:13.615|70|8=FIX.4.1|9=48|35=0|34=613|49=RBS1|56=BLP|52=20110221-03:20:13|10=088||0|
M|614|0|0|I|20110221-03:20:43.664|70|8=FIX.4.1|9=48|35=0|34=614|49=RBS1|56=BLP|52=20110221-03:20:43|10=092||0|
M|615|0|0|I|20110221-03:21:13.733|70|8=FIX.4.1|9=48|35=0|34=615|49=RBS1|56=BLP|52=20110221-03:21:13|10=091||0|
M|616|0|0|I|20110221-03:21:43.811|70|8=FIX.4.1|9=48|35=0|34=616|49=RBS1|56=BLP|52=20110221-03:21:43|10=095||0|
M|617|0|8|I|20110221-03:22:08.221|317|8=FIX.4.1|9=294|35=8|50=RBS1|57=4531818|34=617|49=RBS1|56=BLP|52=20110221-03:22:08|37=0005708353|6=73.84912|14=57000|15=HKD|63=0|120=HKD|17=85124627|55=941|11=20110221-00001|150=1|39=1|20=0|59=0|54=2|40=1|60=20110221-03:21:53|31=73.80000|32=500|75=20110221|38=166500|151=109500|48=6073556|22=2|109=HENAD|30=HK|10=164||2|AidaCode|HENAD|ClientConnectionName|Henderson_BBG_RBS|
M|618|0|8|I|20110221-03:22:08.230|317|8=FIX.4.1|9=294|35=8|50=RBS1|57=4531818|34=618|49=RBS1|56=BLP|52=20110221-03:22:08|37=0005708353|6=73.84870|14=57500|15=HKD|63=0|120=HKD|17=85124628|55=941|11=20110221-00001|150=1|39=1|20=0|59=0|54=2|40=1|60=20110221-03:21:49|31=73.80000|32=500|75=20110221|38=166500|151=109000|48=6073556|22=2|109=HENAD|30=HK|10=174||2|AidaCode|HENAD|ClientConnectionName|Henderson_BBG_RBS|
M|619|0|8|I|20110221-03:22:08.240|317|8=FIX.4.1|9=294|35=8|50=RBS1|57=4531818|34=619|49=RBS1|56=BLP|52=20110221-03:22:08|37=0005708353|6=73.84828|14=58000|15=HKD|63=0|120=HKD|17=85124629|55=941|11=20110221-00001|150=1|39=1|20=0|59=0|54=2|40=1|60=20110221-03:21:36|31=73.80000|32=500|75=20110221|38=166500|151=108500|48=6073556|22=2|109=HENAD|30=HK|10=175||2|AidaCode|HENAD|ClientConnectionName|Henderson_BBG_RBS|
M|620|0|8|I|20110221-03:22:08.251|317|8=FIX.4.1|9=294|35=8|50=RBS1|57=4531818|34=620|49=RBS1|56=BLP|52=20110221-03:22:08|37=0005708353|6=73.84786|14=58500|15=HKD|63=0|120=HKD|17=85124630|55=941|11=20110221-00001|150=1|39=1|20=0|59=0|54=2|40=1|60=20110221-03:21:25|31=73.80000|32=500|75=20110221|38=166500|151=108000|48=6073556|22=2|109=HENAD|30=HK|10=160||2|AidaCode|HENAD|ClientConnectionName|Henderson_BBG_RBS|
M|621|0|8|I|20110221-03:22:08.262|318|8=FIX.4.1|9=295|35=8|50=RBS1|57=4531818|34=621|49=RBS1|56=BLP|52=20110221-03:22:08|37=0005708353|6=73.84409|14=63500|15=HKD|63=0|120=HKD|17=85124631|55=941|11=20110221-00001|150=1|39=1|20=0|59=0|54=2|40=1|60=20110221-03:20:25|31=73.80000|32=5000|75=20110221|38=166500|151=103000|48=6073556|22=2|109=HENAD|30=HK|10=193||2|AidaCode|HENAD|ClientConnectionName|Henderson_BBG_RBS|
M|622|0|8|I|20110221-03:22:08.271|317|8=FIX.4.1|9=294|35=8|50=RBS1|57=4531818|34=622|49=RBS1|56=BLP|52=20110221-03:22:08|37=0005708353|6=73.84375|14=64000|15=HKD|63=0|120=HKD|17=85124632|55=941|11=20110221-00001|150=1|39=1|20=0|59=0|54=2|40=1|60=20110221-03:22:00|31=73.80000|32=500|75=20110221|38=166500|151=102500|48=6073556|22=2|109=HENAD|30=HK|10=143||2|AidaCode|HENAD|ClientConnectionName|Henderson_BBG_RBS|
M|623|0|8|I|20110221-03:22:08.285|317|8=FIX.4.1|9=294|35=8|50=RBS1|57=4531818|34=623|49=RBS1|56=BLP|52=20110221-03:22:08|37=0005708353|6=73.84341|14=64500|15=HKD|63=0|120=HKD|17=85124633|55=941|11=20110221-00001|150=1|39=1|20=0|59=0|54=2|40=1|60=20110221-03:22:00|31=73.80000|32=500|75=20110221|38=166500|151=102000|48=6073556|22=2|109=HENAD|30=HK|10=138||2|AidaCode|HENAD|ClientConnectionName|Henderson_BBG_RBS|
M|624|0|8|I|20110221-03:22:17.409|318|8=FIX.4.1|9=295|35=8|50=RBS1|57=4531818|34=624|49=RBS1|56=BLP|52=20110221-03:22:17|37=0005708353|6=73.84275|14=65500|15=HKD|63=0|120=HKD|17=85124644|55=941|11=20110221-00001|150=1|39=1|20=0|59=0|54=2|40=1|60=20110221-03:21:56|31=73.80000|32=1000|75=20110221|38=166500|151=101000|48=6073556|22=2|109=HENAD|30=HK|10=202||2|AidaCode|HENAD|ClientConnectionName|Henderson_BBG_RBS|
M|625|0|0|I|20110221-03:22:47.519|70|8=FIX.4.1|9=48|35=0|34=625|49=RBS1|56=BLP|52=20110221-03:22:47|10=100||0|
M|626|0|0|I|20110221-03:23:17.587|70|8=FIX.4.1|9=48|35=0|34=626|49=RBS1|56=BLP|52=20110221-03:23:17|10=099||0|
M|627|0|0|I|20110221-03:23:47.676|70|8=FIX.4.1|9=48|35=0|34=627|49=RBS1|56=BLP|52=20110221-03:23:47|10=103||0|
M|628|0|0|I|20110221-03:24:17.745|70|8=FIX.4.1|9=48|35=0|34=628|49=RBS1|56=BLP|52=20110221-03:24:17|10=102||0|
M|629|0|0|I|20110221-03:24:47.803|70|8=FIX.4.1|9=48|35=0|34=629|49=RBS1|56=BLP|52=20110221-03:24:47|10=106||0|
M|630|0|0|I|20110221-03:25:17.862|70|8=FIX.4.1|9=48|35=0|34=630|49=RBS1|56=BLP|52=20110221-03:25:17|10=096||0|
M|631|0|0|I|20110221-03:25:47.921|70|8=FIX.4.1|9=48|35=0|34=631|49=RBS1|56=BLP|52=20110221-03:25:47|10=100||0|
M|632|0|8|I|20110221-03:25:54.228|317|8=FIX.4.1|9=294|35=8|50=RBS1|57=4531818|34=632|49=RBS1|56=BLP|52=20110221-03:25:54|37=0005708353|6=73.83944|14=71000|15=HKD|63=0|120=HKD|17=85124940|55=941|11=20110221-00001|150=1|39=1|20=0|59=0|54=2|40=1|60=20110221-03:25:54|31=73.80000|32=5500|75=20110221|38=166500|151=95500|48=6073556|22=2|109=HENAD|30=HK|10=177||2|AidaCode|HENAD|ClientConnectionName|Henderson_BBG_RBS|
M|633|0|8|I|20110221-03:26:00.573|316|8=FIX.4.1|9=293|35=8|50=RBS1|57=4531818|34=633|49=RBS1|56=BLP|52=20110221-03:26:00|37=0005708353|6=73.83916|14=71500|15=HKD|63=0|120=HKD|17=85124960|55=941|11=20110221-00001|150=1|39=1|20=0|59=0|54=2|40=1|60=20110221-03:26:00|31=73.80000|32=500|75=20110221|38=166500|151=95000|48=6073556|22=2|109=HENAD|30=HK|10=109||2|AidaCode|HENAD|ClientConnectionName|Henderson_BBG_RBS|
M|634|0|8|I|20110221-03:26:00.867|316|8=FIX.4.1|9=293|35=8|50=RBS1|57=4531818|34=634|49=RBS1|56=BLP|52=20110221-03:26:00|37=0005708353|6=73.83889|14=72000|15=HKD|63=0|120=HKD|17=85124961|55=941|11=20110221-00001|150=1|39=1|20=0|59=0|54=2|40=1|60=20110221-03:26:00|31=73.80000|32=500|75=20110221|38=166500|151=94500|48=6073556|22=2|109=HENAD|30=HK|10=120||2|AidaCode|HENAD|ClientConnectionName|Henderson_BBG_RBS|
M|635|0|8|I|20110221-03:26:10.301|316|8=FIX.4.1|9=293|35=8|50=RBS1|57=4531818|34=635|49=RBS1|56=BLP|52=20110221-03:26:10|37=0005708353|6=73.83862|14=72500|15=HKD|63=0|120=HKD|17=85124975|55=941|11=20110221-00001|150=1|39=1|20=0|59=0|54=2|40=1|60=20110221-03:26:10|31=73.80000|32=500|75=20110221|38=166500|151=94000|48=6073556|22=2|109=HENAD|30=HK|10=119||2|AidaCode|HENAD|ClientConnectionName|Henderson_BBG_RBS|
M|636|0|8|I|20110221-03:26:11.755|316|8=FIX.4.1|9=293|35=8|50=RBS1|57=4531818|34=636|49=RBS1|56=BLP|52=20110221-03:26:11|37=0005708353|6=73.83836|14=73000|15=HKD|63=0|120=HKD|17=85124977|55=941|11=20110221-00001|150=1|39=1|20=0|59=0|54=2|40=1|60=20110221-03:26:11|31=73.80000|32=500|75=20110221|38=166500|151=93500|48=6073556|22=2|109=HENAD|30=HK|10=125||2|AidaCode|HENAD|ClientConnectionName|Henderson_BBG_RBS|
M|637|0|0|I|20110221-03:26:41.948|70|8=FIX.4.1|9=48|35=0|34=637|49=RBS1|56=BLP|52=20110221-03:26:41|10=101||0|
M|638|0|0|I|20110221-03:27:12.007|70|8=FIX.4.1|9=48|35=0|34=638|49=RBS1|56=BLP|52=20110221-03:27:12|10=101||0|
M|639|0|0|I|20110221-03:27:42.096|70|8=FIX.4.1|9=48|35=0|34=639|49=RBS1|56=BLP|52=20110221-03:27:42|10=105||0|
M|640|0|0|I|20110221-03:28:12.164|70|8=FIX.4.1|9=48|35=0|34=640|49=RBS1|56=BLP|52=20110221-03:28:12|10=095||0|
M|641|0|0|I|20110221-03:28:42.233|70|8=FIX.4.1|9=48|35=0|34=641|49=RBS1|56=BLP|52=20110221-03:28:42|10=099||0|
M|642|0|0|I|20110221-03:29:12.302|70|8=FIX.4.1|9=48|35=0|34=642|49=RBS1|56=BLP|52=20110221-03:29:12|10=098||0|
M|643|0|0|I|20110221-03:29:42.380|70|8=FIX.4.1|9=48|35=0|34=643|49=RBS1|56=BLP|52=20110221-03:29:42|10=102||0|
M|644|0|0|I|20110221-03:30:12.789|70|8=FIX.4.1|9=48|35=0|34=644|49=RBS1|56=BLP|52=20110221-03:30:12|10=092||0|
M|645|0|0|I|20110221-03:30:42.868|70|8=FIX.4.1|9=48|35=0|34=645|49=RBS1|56=BLP|52=20110221-03:30:42|10=096||0|
M|646|0|0|I|20110221-03:31:12.946|70|8=FIX.4.1|9=48|35=0|34=646|49=RBS1|56=BLP|52=20110221-03:31:12|10=095||0|
M|647|0|0|I|20110221-03:31:43.005|70|8=FIX.4.1|9=48|35=0|34=647|49=RBS1|56=BLP|52=20110221-03:31:43|10=100||0|
M|648|0|0|I|20110221-03:32:13.064|70|8=FIX.4.1|9=48|35=0|34=648|49=RBS1|56=BLP|52=20110221-03:32:13|10=099||0|
M|649|0|0|I|20110221-03:32:43.133|70|8=FIX.4.1|9=48|35=0|34=649|49=RBS1|56=BLP|52=20110221-03:32:43|10=103||0|
M|650|0|0|I|20110221-03:33:13.211|70|8=FIX.4.1|9=48|35=0|34=650|49=RBS1|56=BLP|52=20110221-03:33:13|10=093||0|
M|651|0|0|I|20110221-03:33:43.260|70|8=FIX.4.1|9=48|35=0|34=651|49=RBS1|56=BLP|52=20110221-03:33:43|10=097||0|
M|652|0|0|I|20110221-03:34:13.329|70|8=FIX.4.1|9=48|35=0|34=652|49=RBS1|56=BLP|52=20110221-03:34:13|10=096||0|
M|653|0|0|I|20110221-03:34:43.388|70|8=FIX.4.1|9=48|35=0|34=653|49=RBS1|56=BLP|52=20110221-03:34:43|10=100||0|
M|654|0|0|I|20110221-03:35:13.446|70|8=FIX.4.1|9=48|35=0|34=654|49=RBS1|56=BLP|52=20110221-03:35:13|10=099||0|
M|655|0|0|I|20110221-03:35:43.525|70|8=FIX.4.1|9=48|35=0|34=655|49=RBS1|56=BLP|52=20110221-03:35:43|10=103||0|
M|656|0|8|I|20110221-03:36:11.266|317|8=FIX.4.1|9=294|35=8|50=RBS1|57=4531818|34=656|49=RBS1|56=BLP|52=20110221-03:36:11|37=0005708353|6=73.83709|14=75500|15=HKD|63=0|120=HKD|17=85125963|55=941|11=20110221-00001|150=1|39=1|20=0|59=0|54=2|40=1|60=20110221-03:36:11|31=73.80000|32=2500|75=20110221|38=166500|151=91000|48=6073556|22=2|109=HENAD|30=HK|10=175||2|AidaCode|HENAD|ClientConnectionName|Henderson_BBG_RBS|
M|657|0|8|I|20110221-03:36:30.693|316|8=FIX.4.1|9=293|35=8|50=RBS1|57=4531818|34=657|49=RBS1|56=BLP|52=20110221-03:36:30|37=0005708353|6=73.83684|14=76000|15=HKD|63=0|120=HKD|17=85126009|55=941|11=20110221-00001|150=1|39=1|20=0|59=0|54=2|40=1|60=20110221-03:36:30|31=73.80000|32=500|75=20110221|38=166500|151=90500|48=6073556|22=2|109=HENAD|30=HK|10=121||2|AidaCode|HENAD|ClientConnectionName|Henderson_BBG_RBS|
M|658|0|0|I|20110221-03:37:01.001|70|8=FIX.4.1|9=48|35=0|34=658|49=RBS1|56=BLP|52=20110221-03:37:01|10=102||0|
M|659|0|8|I|20110221-03:37:05.318|316|8=FIX.4.1|9=293|35=8|50=RBS1|57=4531818|34=659|49=RBS1|56=BLP|52=20110221-03:37:05|37=0005708353|6=73.83660|14=76500|15=HKD|63=0|120=HKD|17=85126068|55=941|11=20110221-00001|150=1|39=1|20=0|59=0|54=2|40=1|60=20110221-03:37:05|31=73.80000|32=500|75=20110221|38=166500|151=90000|48=6073556|22=2|109=HENAD|30=HK|10=128||2|AidaCode|HENAD|ClientConnectionName|Henderson_BBG_RBS|
M|660|0|0|I|20110221-03:37:35.670|70|8=FIX.4.1|9=48|35=0|34=660|49=RBS1|56=BLP|52=20110221-03:37:35|10=102||0|
M|661|0|0|I|20110221-03:38:05.729|70|8=FIX.4.1|9=48|35=0|34=661|49=RBS1|56=BLP|52=20110221-03:38:05|10=101||0|
M|662|0|0|I|20110221-03:38:35.807|70|8=FIX.4.1|9=48|35=0|34=662|49=RBS1|56=BLP|52=20110221-03:38:35|10=105||0|
M|663|0|0|I|20110221-03:39:05.886|70|8=FIX.4.1|9=48|35=0|34=663|49=RBS1|56=BLP|52=20110221-03:39:05|10=104||0|
M|664|0|0|I|20110221-03:39:35.955|70|8=FIX.4.1|9=48|35=0|34=664|49=RBS1|56=BLP|52=20110221-03:39:35|10=108||0|
M|665|0|0|I|20110221-03:40:06.013|70|8=FIX.4.1|9=48|35=0|34=665|49=RBS1|56=BLP|52=20110221-03:40:06|10=099||0|
M|666|0|0|I|20110221-03:40:36.062|70|8=FIX.4.1|9=48|35=0|34=666|49=RBS1|56=BLP|52=20110221-03:40:36|10=103||0|
M|667|0|0|I|20110221-03:41:06.141|70|8=FIX.4.1|9=48|35=0|34=667|49=RBS1|56=BLP|52=20110221-03:41:06|10=102||0|
M|668|0|0|I|20110221-03:41:36.209|70|8=FIX.4.1|9=48|35=0|34=668|49=RBS1|56=BLP|52=20110221-03:41:36|10=106||0|
M|669|0|0|I|20110221-03:42:06.288|70|8=FIX.4.1|9=48|35=0|34=669|49=RBS1|56=BLP|52=20110221-03:42:06|10=105||0|
M|670|0|0|I|20110221-03:42:36.367|70|8=FIX.4.1|9=48|35=0|34=670|49=RBS1|56=BLP|52=20110221-03:42:36|10=100||0|
M|671|0|0|I|20110221-03:43:06.445|70|8=FIX.4.1|9=48|35=0|34=671|49=RBS1|56=BLP|52=20110221-03:43:06|10=099||0|
M|672|0|0|I|20110221-03:43:36.494|70|8=FIX.4.1|9=48|35=0|34=672|49=RBS1|56=BLP|52=20110221-03:43:36|10=103||0|
M|673|0|0|I|20110221-03:44:06.583|70|8=FIX.4.1|9=48|35=0|34=673|49=RBS1|56=BLP|52=20110221-03:44:06|10=102||0|
M|674|0|0|I|20110221-03:44:36.651|70|8=FIX.4.1|9=48|35=0|34=674|49=RBS1|56=BLP|52=20110221-03:44:36|10=106||0|
M|675|0|8|I|20110221-03:44:44.645|317|8=FIX.4.1|9=294|35=8|50=RBS1|57=4531818|34=675|49=RBS1|56=BLP|52=20110221-03:44:44|37=0005708353|6=73.83436|14=81500|15=HKD|63=0|120=HKD|17=85126716|55=941|11=20110221-00001|150=1|39=1|20=0|59=0|54=2|40=1|60=20110221-03:44:44|31=73.80000|32=5000|75=20110221|38=166500|151=85000|48=6073556|22=2|109=HENAD|30=HK|10=178||2|AidaCode|HENAD|ClientConnectionName|Henderson_BBG_RBS|
M|676|0|0|I|20110221-03:45:14.860|70|8=FIX.4.1|9=48|35=0|34=676|49=RBS1|56=BLP|52=20110221-03:45:14|10=105||0|
M|677|0|0|I|20110221-03:45:44.918|70|8=FIX.4.1|9=48|35=0|34=677|49=RBS1|56=BLP|52=20110221-03:45:44|10=109||0|
M|678|0|0|I|20110221-03:46:14.987|70|8=FIX.4.1|9=48|35=0|34=678|49=RBS1|56=BLP|52=20110221-03:46:14|10=108||0|
M|679|0|0|I|20110221-03:46:45.046|70|8=FIX.4.1|9=48|35=0|34=679|49=RBS1|56=BLP|52=20110221-03:46:45|10=113||0|
M|680|0|0|I|20110221-03:47:15.124|70|8=FIX.4.1|9=48|35=0|34=680|49=RBS1|56=BLP|52=20110221-03:47:15|10=103||0|
M|681|0|0|I|20110221-03:47:45.193|70|8=FIX.4.1|9=48|35=0|34=681|49=RBS1|56=BLP|52=20110221-03:47:45|10=107||0|
M|682|0|0|I|20110221-03:48:15.292|70|8=FIX.4.1|9=48|35=0|34=682|49=RBS1|56=BLP|52=20110221-03:48:15|10=106||0|
M|683|0|0|I|20110221-03:48:45.360|70|8=FIX.4.1|9=48|35=0|34=683|49=RBS1|56=BLP|52=20110221-03:48:45|10=110||0|
M|684|0|0|I|20110221-03:49:15.449|70|8=FIX.4.1|9=48|35=0|34=684|49=RBS1|56=BLP|52=20110221-03:49:15|10=109||0|
M|685|0|0|I|20110221-03:49:45.508|70|8=FIX.4.1|9=48|35=0|34=685|49=RBS1|56=BLP|52=20110221-03:49:45|10=113||0|
M|686|0|0|I|20110221-03:50:15.577|70|8=FIX.4.1|9=48|35=0|34=686|49=RBS1|56=BLP|52=20110221-03:50:15|10=103||0|
M|687|0|0|I|20110221-03:50:45.655|70|8=FIX.4.1|9=48|35=0|34=687|49=RBS1|56=BLP|52=20110221-03:50:45|10=107||0|
M|688|0|0|I|20110221-03:51:15.734|70|8=FIX.4.1|9=48|35=0|34=688|49=RBS1|56=BLP|52=20110221-03:51:15|10=106||0|
M|689|0|0|I|20110221-03:51:45.803|70|8=FIX.4.1|9=48|35=0|34=689|49=RBS1|56=BLP|52=20110221-03:51:45|10=110||0|
M|690|0|0|I|20110221-03:52:15.891|70|8=FIX.4.1|9=48|35=0|34=690|49=RBS1|56=BLP|52=20110221-03:52:15|10=100||0|
M|691|0|0|I|20110221-03:52:45.970|70|8=FIX.4.1|9=48|35=0|34=691|49=RBS1|56=BLP|52=20110221-03:52:45|10=104||0|
M|692|0|0|I|20110221-03:53:16.039|70|8=FIX.4.1|9=48|35=0|34=692|49=RBS1|56=BLP|52=20110221-03:53:16|10=104||0|
M|693|0|0|I|20110221-03:53:46.107|70|8=FIX.4.1|9=48|35=0|34=693|49=RBS1|56=BLP|52=20110221-03:53:46|10=108||0|
M|694|0|0|I|20110221-03:54:16.176|70|8=FIX.4.1|9=48|35=0|34=694|49=RBS1|56=BLP|52=20110221-03:54:16|10=107||0|
M|695|0|0|I|20110221-03:54:46.235|70|8=FIX.4.1|9=48|35=0|34=695|49=RBS1|56=BLP|52=20110221-03:54:46|10=111||0|
M|696|0|0|I|20110221-03:55:16.303|70|8=FIX.4.1|9=48|35=0|34=696|49=RBS1|56=BLP|52=20110221-03:55:16|10=110||0|
M|697|0|0|I|20110221-03:55:46.382|70|8=FIX.4.1|9=48|35=0|34=697|49=RBS1|56=BLP|52=20110221-03:55:46|10=114||0|
M|698|0|0|I|20110221-03:56:16.451|70|8=FIX.4.1|9=48|35=0|34=698|49=RBS1|56=BLP|52=20110221-03:56:16|10=113||0|
M|699|0|0|I|20110221-03:56:46.499|70|8=FIX.4.1|9=48|35=0|34=699|49=RBS1|56=BLP|52=20110221-03:56:46|10=117||0|
M|700|0|0|I|20110221-03:57:16.578|70|8=FIX.4.1|9=48|35=0|34=700|49=RBS1|56=BLP|52=20110221-03:57:16|10=098||0|
M|701|0|0|I|20110221-03:57:46.657|70|8=FIX.4.1|9=48|35=0|34=701|49=RBS1|56=BLP|52=20110221-03:57:46|10=102||0|
M|702|0|0|I|20110221-03:58:16.736|70|8=FIX.4.1|9=48|35=0|34=702|49=RBS1|56=BLP|52=20110221-03:58:16|10=101||0|
M|703|0|0|I|20110221-03:58:46.804|70|8=FIX.4.1|9=48|35=0|34=703|49=RBS1|56=BLP|52=20110221-03:58:46|10=105||0|
M|704|0|0|I|20110221-03:59:16.863|70|8=FIX.4.1|9=48|35=0|34=704|49=RBS1|56=BLP|52=20110221-03:59:16|10=104||0|
M|705|0|0|I|20110221-03:59:46.942|70|8=FIX.4.1|9=48|35=0|34=705|49=RBS1|56=BLP|52=20110221-03:59:46|10=108||0|
M|706|0|0|I|20110221-04:00:17.030|70|8=FIX.4.1|9=48|35=0|34=706|49=RBS1|56=BLP|52=20110221-04:00:17|10=094||0|
M|707|0|0|I|20110221-04:00:47.099|70|8=FIX.4.1|9=48|35=0|34=707|49=RBS1|56=BLP|52=20110221-04:00:47|10=098||0|
M|708|0|0|I|20110221-04:01:17.168|70|8=FIX.4.1|9=48|35=0|34=708|49=RBS1|56=BLP|52=20110221-04:01:17|10=097||0|
M|709|0|0|I|20110221-04:01:47.236|70|8=FIX.4.1|9=48|35=0|34=709|49=RBS1|56=BLP|52=20110221-04:01:47|10=101||0|
M|710|0|0|I|20110221-04:02:17.305|70|8=FIX.4.1|9=48|35=0|34=710|49=RBS1|56=BLP|52=20110221-04:02:17|10=091||0|
M|711|0|0|I|20110221-04:02:47.374|70|8=FIX.4.1|9=48|35=0|34=711|49=RBS1|56=BLP|52=20110221-04:02:47|10=095||0|
M|712|0|0|I|20110221-04:03:17.452|70|8=FIX.4.1|9=48|35=0|34=712|49=RBS1|56=BLP|52=20110221-04:03:17|10=094||0|
M|713|0|0|I|20110221-04:03:47.551|70|8=FIX.4.1|9=48|35=0|34=713|49=RBS1|56=BLP|52=20110221-04:03:47|10=098||0|
M|714|0|0|I|20110221-04:04:17.620|70|8=FIX.4.1|9=48|35=0|34=714|49=RBS1|56=BLP|52=20110221-04:04:17|10=097||0|
M|715|0|0|I|20110221-04:04:47.698|70|8=FIX.4.1|9=48|35=0|34=715|49=RBS1|56=BLP|52=20110221-04:04:47|10=101||0|
M|716|0|0|I|20110221-04:05:17.747|70|8=FIX.4.1|9=48|35=0|34=716|49=RBS1|56=BLP|52=20110221-04:05:17|10=100||0|
M|717|0|0|I|20110221-04:05:47.816|70|8=FIX.4.1|9=48|35=0|34=717|49=RBS1|56=BLP|52=20110221-04:05:47|10=104||0|
M|718|0|0|I|20110221-04:06:17.895|70|8=FIX.4.1|9=48|35=0|34=718|49=RBS1|56=BLP|52=20110221-04:06:17|10=103||0|
M|719|0|0|I|20110221-04:06:47.963|70|8=FIX.4.1|9=48|35=0|34=719|49=RBS1|56=BLP|52=20110221-04:06:47|10=107||0|
M|720|0|0|I|20110221-04:07:18.042|70|8=FIX.4.1|9=48|35=0|34=720|49=RBS1|56=BLP|52=20110221-04:07:18|10=098||0|
