V|1.1|
M|1|0|A|I|20110220-22:35:00.959|82|8=FIX.4.1|9=0058|35=A|49=BLP|56=RBS1|34=1|52=20110220-22:35:00|98=0|108=30|10=124||0|
M|2|0|1|I|20110220-22:35:00.960|98|8=FIX.4.1|9=0074|35=1|49=BLP|56=RBS1|34=2|52=20110220-22:35:00|112=L.0001.0002.0002.223500|10=153||0|
M|3|0|0|I|20110220-22:35:01.039|81|8=FIX.4.1|9=0057|35=0|49=BLP|56=RBS1|34=3|52=20110220-22:35:00|112=STBL-2|10=185||0|
M|4|0|1|I|20110220-22:35:01.041|98|8=FIX.4.1|9=0074|35=1|49=BLP|56=RBS1|34=4|52=20110220-22:35:00|112=A.0003.0004.0004.223500|10=150||0|
M|5|0|0|I|20110220-22:35:31.041|70|8=FIX.4.1|9=0046|35=0|49=BLP|56=RBS1|34=5|52=20110220-22:35:31|10=087||0|
M|6|0|0|I|20110220-22:36:01.043|70|8=FIX.4.1|9=0046|35=0|49=BLP|56=RBS1|34=6|52=20110220-22:36:00|10=085||0|
M|7|0|0|I|20110220-22:36:31.043|70|8=FIX.4.1|9=0046|35=0|49=BLP|56=RBS1|34=7|52=20110220-22:36:30|10=089||0|
M|8|0|0|I|20110220-22:37:01.043|70|8=FIX.4.1|9=0046|35=0|49=BLP|56=RBS1|34=8|52=20110220-22:37:00|10=088||0|
M|9|0|0|I|20110220-22:37:31.047|70|8=FIX.4.1|9=0046|35=0|49=BLP|56=RBS1|34=9|52=20110220-22:37:30|10=092||0|
M|10|0|0|I|20110220-22:38:01.049|71|8=FIX.4.1|9=0047|35=0|49=BLP|56=RBS1|34=10|52=20110220-22:38:01|10=132||0|
M|11|0|0|I|20110220-22:38:31.049|71|8=FIX.4.1|9=0047|35=0|49=BLP|56=RBS1|34=11|52=20110220-22:38:30|10=135||0|
M|12|0|0|I|20110220-22:39:01.049|71|8=FIX.4.1|9=0047|35=0|49=BLP|56=RBS1|34=12|52=20110220-22:39:01|10=135||0|
M|13|0|0|I|20110220-22:39:31.049|71|8=FIX.4.1|9=0047|35=0|49=BLP|56=RBS1|34=13|52=20110220-22:39:31|10=139||0|
M|14|0|0|I|20110220-22:40:01.051|71|8=FIX.4.1|9=0047|35=0|49=BLP|56=RBS1|34=14|52=20110220-22:40:00|10=128||0|
M|15|0|0|I|20110220-22:40:31.051|71|8=FIX.4.1|9=0047|35=0|49=BLP|56=RBS1|34=15|52=20110220-22:40:31|10=133||0|
M|16|0|0|I|20110220-22:41:01.053|71|8=FIX.4.1|9=0047|35=0|49=BLP|56=RBS1|34=16|52=20110220-22:41:00|10=131||0|
M|17|0|0|I|20110220-22:41:31.053|71|8=FIX.4.1|9=0047|35=0|49=BLP|56=RBS1|34=17|52=20110220-22:41:31|10=136||0|
M|18|0|0|I|20110220-22:42:01.053|71|8=FIX.4.1|9=0047|35=0|49=BLP|56=RBS1|34=18|52=20110220-22:42:01|10=135||0|
M|19|0|0|I|20110220-22:42:31.053|71|8=FIX.4.1|9=0047|35=0|49=BLP|56=RBS1|34=19|52=20110220-22:42:30|10=138||0|
M|20|0|0|I|20110220-22:43:01.053|71|8=FIX.4.1|9=0047|35=0|49=BLP|56=RBS1|34=20|52=20110220-22:43:01|10=129||0|
M|21|0|0|I|20110220-22:43:31.055|71|8=FIX.4.1|9=0047|35=0|49=BLP|56=RBS1|34=21|52=20110220-22:43:31|10=133||0|
M|22|0|0|I|20110220-22:44:01.055|71|8=FIX.4.1|9=0047|35=0|49=BLP|56=RBS1|34=22|52=20110220-22:44:00|10=131||0|
M|23|0|0|I|20110220-22:44:31.055|71|8=FIX.4.1|9=0047|35=0|49=BLP|56=RBS1|34=23|52=20110220-22:44:31|10=136||0|
M|24|0|0|I|20110220-22:45:01.057|71|8=FIX.4.1|9=0047|35=0|49=BLP|56=RBS1|34=24|52=20110220-22:45:01|10=135||0|
M|25|0|0|I|20110220-22:45:31.057|71|8=FIX.4.1|9=0047|35=0|49=BLP|56=RBS1|34=25|52=20110220-22:45:30|10=138||0|
M|26|0|0|I|20110220-22:46:01.057|71|8=FIX.4.1|9=0047|35=0|49=BLP|56=RBS1|34=26|52=20110220-22:46:01|10=138||0|
M|27|0|0|I|20110220-22:46:31.059|71|8=FIX.4.1|9=0047|35=0|49=BLP|56=RBS1|34=27|52=20110220-22:46:31|10=142||0|
M|28|0|0|I|20110220-22:47:01.061|71|8=FIX.4.1|9=0047|35=0|49=BLP|56=RBS1|34=28|52=20110220-22:47:01|10=141||0|
M|29|0|0|I|20110220-22:47:31.061|71|8=FIX.4.1|9=0047|35=0|49=BLP|56=RBS1|34=29|52=20110220-22:47:31|10=145||0|
M|30|0|0|I|20110220-22:48:01.061|71|8=FIX.4.1|9=0047|35=0|49=BLP|56=RBS1|34=30|52=20110220-22:48:01|10=135||0|
M|31|0|0|I|20110220-22:48:31.061|71|8=FIX.4.1|9=0047|35=0|49=BLP|56=RBS1|34=31|52=20110220-22:48:31|10=139||0|
M|32|0|0|I|20110220-22:49:01.061|71|8=FIX.4.1|9=0047|35=0|49=BLP|56=RBS1|34=32|52=20110220-22:49:01|10=138||0|
M|33|0|0|I|20110220-22:49:31.063|71|8=FIX.4.1|9=0047|35=0|49=BLP|56=RBS1|34=33|52=20110220-22:49:31|10=142||0|
M|34|0|0|I|20110220-22:50:01.065|71|8=FIX.4.1|9=0047|35=0|49=BLP|56=RBS1|34=34|52=20110220-22:50:01|10=132||0|
M|35|0|0|I|20110220-22:50:31.065|71|8=FIX.4.1|9=0047|35=0|49=BLP|56=RBS1|34=35|52=20110220-22:50:31|10=136||0|
M|36|0|0|I|20110220-22:51:01.065|71|8=FIX.4.1|9=0047|35=0|49=BLP|56=RBS1|34=36|52=20110220-22:51:01|10=135||0|
M|37|0|0|I|20110220-22:51:31.065|71|8=FIX.4.1|9=0047|35=0|49=BLP|56=RBS1|34=37|52=20110220-22:51:31|10=139||0|
M|38|0|0|I|20110220-22:52:01.067|71|8=FIX.4.1|9=0047|35=0|49=BLP|56=RBS1|34=38|52=20110220-22:52:01|10=138||0|
M|39|0|0|I|20110220-22:52:31.067|71|8=FIX.4.1|9=0047|35=0|49=BLP|56=RBS1|34=39|52=20110220-22:52:31|10=142||0|
M|40|0|0|I|20110220-22:53:01.067|71|8=FIX.4.1|9=0047|35=0|49=BLP|56=RBS1|34=40|52=20110220-22:53:01|10=132||0|
M|41|0|0|I|20110220-22:53:31.067|71|8=FIX.4.1|9=0047|35=0|49=BLP|56=RBS1|34=41|52=20110220-22:53:31|10=136||0|
M|42|0|0|I|20110220-22:54:01.069|71|8=FIX.4.1|9=0047|35=0|49=BLP|56=RBS1|34=42|52=20110220-22:54:01|10=135||0|
M|43|0|0|I|20110220-22:54:31.069|71|8=FIX.4.1|9=0047|35=0|49=BLP|56=RBS1|34=43|52=20110220-22:54:31|10=139||0|
M|44|0|0|I|20110220-22:55:01.071|71|8=FIX.4.1|9=0047|35=0|49=BLP|56=RBS1|34=44|52=20110220-22:55:01|10=138||0|
M|45|0|0|I|20110220-22:55:31.071|71|8=FIX.4.1|9=0047|35=0|49=BLP|56=RBS1|34=45|52=20110220-22:55:31|10=142||0|
M|46|0|0|I|20110220-22:56:01.071|71|8=FIX.4.1|9=0047|35=0|49=BLP|56=RBS1|34=46|52=20110220-22:56:01|10=141||0|
M|47|0|0|I|20110220-22:56:31.071|71|8=FIX.4.1|9=0047|35=0|49=BLP|56=RBS1|34=47|52=20110220-22:56:31|10=145||0|
M|48|0|0|I|20110220-22:57:01.071|71|8=FIX.4.1|9=0047|35=0|49=BLP|56=RBS1|34=48|52=20110220-22:57:01|10=144||0|
M|49|0|0|I|20110220-22:57:31.073|71|8=FIX.4.1|9=0047|35=0|49=BLP|56=RBS1|34=49|52=20110220-22:57:31|10=148||0|
M|50|0|0|I|20110220-22:58:01.073|71|8=FIX.4.1|9=0047|35=0|49=BLP|56=RBS1|34=50|52=20110220-22:58:01|10=138||0|
M|51|0|0|I|20110220-22:58:31.073|71|8=FIX.4.1|9=0047|35=0|49=BLP|56=RBS1|34=51|52=20110220-22:58:31|10=142||0|
M|52|0|0|I|20110220-22:59:01.075|71|8=FIX.4.1|9=0047|35=0|49=BLP|56=RBS1|34=52|52=20110220-22:59:01|10=141||0|
M|53|0|0|I|20110220-22:59:31.075|71|8=FIX.4.1|9=0047|35=0|49=BLP|56=RBS1|34=53|52=20110220-22:59:31|10=145||0|
M|54|0|0|I|20110220-23:00:01.075|71|8=FIX.4.1|9=0047|35=0|49=BLP|56=RBS1|34=54|52=20110220-23:00:01|10=130||0|
M|55|0|0|I|20110220-23:00:31.075|71|8=FIX.4.1|9=0047|35=0|49=BLP|56=RBS1|34=55|52=20110220-23:00:31|10=134||0|
M|56|0|0|I|20110220-23:01:01.077|71|8=FIX.4.1|9=0047|35=0|49=BLP|56=RBS1|34=56|52=20110220-23:01:01|10=133||0|
M|57|0|0|I|20110220-23:01:31.077|71|8=FIX.4.1|9=0047|35=0|49=BLP|56=RBS1|34=57|52=20110220-23:01:31|10=137||0|
M|58|0|0|I|20110220-23:02:01.079|71|8=FIX.4.1|9=0047|35=0|49=BLP|56=RBS1|34=58|52=20110220-23:02:01|10=136||0|
M|59|0|0|I|20110220-23:02:31.079|71|8=FIX.4.1|9=0047|35=0|49=BLP|56=RBS1|34=59|52=20110220-23:02:31|10=140||0|
M|60|0|0|I|20110220-23:03:01.079|71|8=FIX.4.1|9=0047|35=0|49=BLP|56=RBS1|34=60|52=20110220-23:03:01|10=130||0|
M|61|0|0|I|20110220-23:03:31.081|71|8=FIX.4.1|9=0047|35=0|49=BLP|56=RBS1|34=61|52=20110220-23:03:31|10=134||0|
M|62|0|0|I|20110220-23:04:01.081|71|8=FIX.4.1|9=0047|35=0|49=BLP|56=RBS1|34=62|52=20110220-23:04:01|10=133||0|
M|63|0|0|I|20110220-23:04:31.083|71|8=FIX.4.1|9=0047|35=0|49=BLP|56=RBS1|34=63|52=20110220-23:04:31|10=137||0|
M|64|0|0|I|20110220-23:05:01.083|71|8=FIX.4.1|9=0047|35=0|49=BLP|56=RBS1|34=64|52=20110220-23:05:01|10=136||0|
M|65|0|0|I|20110220-23:05:31.087|71|8=FIX.4.1|9=0047|35=0|49=BLP|56=RBS1|34=65|52=20110220-23:05:31|10=140||0|
M|66|0|0|I|20110220-23:06:01.083|71|8=FIX.4.1|9=0047|35=0|49=BLP|56=RBS1|34=66|52=20110220-23:06:01|10=139||0|
M|67|0|0|I|20110220-23:06:31.085|71|8=FIX.4.1|9=0047|35=0|49=BLP|56=RBS1|34=67|52=20110220-23:06:31|10=143||0|
M|68|0|0|I|20110220-23:07:01.085|71|8=FIX.4.1|9=0047|35=0|49=BLP|56=RBS1|34=68|52=20110220-23:07:01|10=142||0|
M|69|0|0|I|20110220-23:07:31.085|71|8=FIX.4.1|9=0047|35=0|49=BLP|56=RBS1|34=69|52=20110220-23:07:31|10=146||0|
M|70|0|0|I|20110220-23:08:01.087|71|8=FIX.4.1|9=0047|35=0|49=BLP|56=RBS1|34=70|52=20110220-23:08:01|10=136||0|
M|71|0|0|I|20110220-23:08:31.087|71|8=FIX.4.1|9=0047|35=0|49=BLP|56=RBS1|34=71|52=20110220-23:08:31|10=140||0|
M|72|0|0|I|20110220-23:09:01.089|71|8=FIX.4.1|9=0047|35=0|49=BLP|56=RBS1|34=72|52=20110220-23:09:01|10=139||0|
M|73|0|0|I|20110220-23:09:31.089|71|8=FIX.4.1|9=0047|35=0|49=BLP|56=RBS1|34=73|52=20110220-23:09:31|10=143||0|
M|74|0|0|I|20110220-23:10:01.091|71|8=FIX.4.1|9=0047|35=0|49=BLP|56=RBS1|34=74|52=20110220-23:10:01|10=133||0|
M|75|0|0|I|20110220-23:10:31.091|71|8=FIX.4.1|9=0047|35=0|49=BLP|56=RBS1|34=75|52=20110220-23:10:31|10=137||0|
M|76|0|0|I|20110220-23:11:01.093|71|8=FIX.4.1|9=0047|35=0|49=BLP|56=RBS1|34=76|52=20110220-23:11:01|10=136||0|
M|77|0|0|I|20110220-23:11:31.093|71|8=FIX.4.1|9=0047|35=0|49=BLP|56=RBS1|34=77|52=20110220-23:11:31|10=140||0|
M|78|0|0|I|20110220-23:12:01.095|71|8=FIX.4.1|9=0047|35=0|49=BLP|56=RBS1|34=78|52=20110220-23:12:01|10=139||0|
M|79|0|0|I|20110220-23:12:31.095|71|8=FIX.4.1|9=0047|35=0|49=BLP|56=RBS1|34=79|52=20110220-23:12:31|10=143||0|
M|80|0|0|I|20110220-23:13:01.095|71|8=FIX.4.1|9=0047|35=0|49=BLP|56=RBS1|34=80|52=20110220-23:13:01|10=133||0|
M|81|0|0|I|20110220-23:13:31.097|71|8=FIX.4.1|9=0047|35=0|49=BLP|56=RBS1|34=81|52=20110220-23:13:31|10=137||0|
M|82|0|0|I|20110220-23:14:01.097|71|8=FIX.4.1|9=0047|35=0|49=BLP|56=RBS1|34=82|52=20110220-23:14:01|10=136||0|
M|83|0|0|I|20110220-23:14:31.097|71|8=FIX.4.1|9=0047|35=0|49=BLP|56=RBS1|34=83|52=20110220-23:14:31|10=140||0|
M|84|0|0|I|20110220-23:15:01.099|71|8=FIX.4.1|9=0047|35=0|49=BLP|56=RBS1|34=84|52=20110220-23:15:01|10=139||0|
M|85|0|0|I|20110220-23:15:31.099|71|8=FIX.4.1|9=0047|35=0|49=BLP|56=RBS1|34=85|52=20110220-23:15:31|10=143||0|
M|86|0|0|I|20110220-23:16:01.101|71|8=FIX.4.1|9=0047|35=0|49=BLP|56=RBS1|34=86|52=20110220-23:16:01|10=142||0|
M|87|0|0|I|20110220-23:16:31.101|71|8=FIX.4.1|9=0047|35=0|49=BLP|56=RBS1|34=87|52=20110220-23:16:31|10=146||0|
M|88|0|0|I|20110220-23:17:01.103|71|8=FIX.4.1|9=0047|35=0|49=BLP|56=RBS1|34=88|52=20110220-23:17:01|10=145||0|
M|89|0|0|I|20110220-23:17:31.103|71|8=FIX.4.1|9=0047|35=0|49=BLP|56=RBS1|34=89|52=20110220-23:17:31|10=149||0|
M|90|0|0|I|20110220-23:18:01.103|71|8=FIX.4.1|9=0047|35=0|49=BLP|56=RBS1|34=90|52=20110220-23:18:01|10=139||0|
M|91|0|0|I|20110220-23:18:31.103|71|8=FIX.4.1|9=0047|35=0|49=BLP|56=RBS1|34=91|52=20110220-23:18:31|10=143||0|
M|92|0|0|I|20110220-23:19:01.105|71|8=FIX.4.1|9=0047|35=0|49=BLP|56=RBS1|34=92|52=20110220-23:19:01|10=142||0|
M|93|0|0|I|20110220-23:19:31.105|71|8=FIX.4.1|9=0047|35=0|49=BLP|56=RBS1|34=93|52=20110220-23:19:31|10=146||0|
M|94|0|0|I|20110220-23:20:01.107|71|8=FIX.4.1|9=0047|35=0|49=BLP|56=RBS1|34=94|52=20110220-23:20:01|10=136||0|
M|95|0|0|I|20110220-23:20:31.107|71|8=FIX.4.1|9=0047|35=0|49=BLP|56=RBS1|34=95|52=20110220-23:20:31|10=140||0|
M|96|0|0|I|20110220-23:21:01.109|71|8=FIX.4.1|9=0047|35=0|49=BLP|56=RBS1|34=96|52=20110220-23:21:01|10=139||0|
M|97|0|0|I|20110220-23:21:31.107|71|8=FIX.4.1|9=0047|35=0|49=BLP|56=RBS1|34=97|52=20110220-23:21:31|10=143||0|
M|98|0|0|I|20110220-23:22:01.109|71|8=FIX.4.1|9=0047|35=0|49=BLP|56=RBS1|34=98|52=20110220-23:22:01|10=142||0|
M|99|0|0|I|20110220-23:22:31.109|71|8=FIX.4.1|9=0047|35=0|49=BLP|56=RBS1|34=99|52=20110220-23:22:31|10=146||0|
M|100|0|0|I|20110220-23:23:01.109|72|8=FIX.4.1|9=0048|35=0|49=BLP|56=RBS1|34=100|52=20110220-23:23:01|10=176||0|
M|101|0|0|I|20110220-23:23:31.109|72|8=FIX.4.1|9=0048|35=0|49=BLP|56=RBS1|34=101|52=20110220-23:23:31|10=180||0|
M|102|0|0|I|20110220-23:24:01.111|72|8=FIX.4.1|9=0048|35=0|49=BLP|56=RBS1|34=102|52=20110220-23:24:01|10=179||0|
M|103|0|0|I|20110220-23:24:31.111|72|8=FIX.4.1|9=0048|35=0|49=BLP|56=RBS1|34=103|52=20110220-23:24:31|10=183||0|
M|104|0|0|I|20110220-23:25:01.113|72|8=FIX.4.1|9=0048|35=0|49=BLP|56=RBS1|34=104|52=20110220-23:25:01|10=182||0|
M|105|0|0|I|20110220-23:25:31.113|72|8=FIX.4.1|9=0048|35=0|49=BLP|56=RBS1|34=105|52=20110220-23:25:31|10=186||0|
M|106|0|0|I|20110220-23:26:01.113|72|8=FIX.4.1|9=0048|35=0|49=BLP|56=RBS1|34=106|52=20110220-23:26:01|10=185||0|
M|107|0|0|I|20110220-23:26:31.115|72|8=FIX.4.1|9=0048|35=0|49=BLP|56=RBS1|34=107|52=20110220-23:26:31|10=189||0|
M|108|0|0|I|20110220-23:27:01.115|72|8=FIX.4.1|9=0048|35=0|49=BLP|56=RBS1|34=108|52=20110220-23:27:01|10=188||0|
M|109|0|0|I|20110220-23:27:31.115|72|8=FIX.4.1|9=0048|35=0|49=BLP|56=RBS1|34=109|52=20110220-23:27:31|10=192||0|
M|110|0|0|I|20110220-23:28:01.117|72|8=FIX.4.1|9=0048|35=0|49=BLP|56=RBS1|34=110|52=20110220-23:28:01|10=182||0|
M|111|0|0|I|20110220-23:28:31.117|72|8=FIX.4.1|9=0048|35=0|49=BLP|56=RBS1|34=111|52=20110220-23:28:31|10=186||0|
M|112|0|0|I|20110220-23:29:01.119|72|8=FIX.4.1|9=0048|35=0|49=BLP|56=RBS1|34=112|52=20110220-23:29:01|10=185||0|
M|113|0|0|I|20110220-23:29:31.119|72|8=FIX.4.1|9=0048|35=0|49=BLP|56=RBS1|34=113|52=20110220-23:29:31|10=189||0|
M|114|0|0|I|20110220-23:30:01.119|72|8=FIX.4.1|9=0048|35=0|49=BLP|56=RBS1|34=114|52=20110220-23:30:01|10=179||0|
M|115|0|0|I|20110220-23:30:31.121|72|8=FIX.4.1|9=0048|35=0|49=BLP|56=RBS1|34=115|52=20110220-23:30:31|10=183||0|
M|116|0|0|I|20110220-23:31:01.121|72|8=FIX.4.1|9=0048|35=0|49=BLP|56=RBS1|34=116|52=20110220-23:31:01|10=182||0|
M|117|0|0|I|20110220-23:31:31.121|72|8=FIX.4.1|9=0048|35=0|49=BLP|56=RBS1|34=117|52=20110220-23:31:31|10=186||0|
M|118|0|0|I|20110220-23:32:01.123|72|8=FIX.4.1|9=0048|35=0|49=BLP|56=RBS1|34=118|52=20110220-23:32:01|10=185||0|
M|119|0|0|I|20110220-23:32:31.123|72|8=FIX.4.1|9=0048|35=0|49=BLP|56=RBS1|34=119|52=20110220-23:32:31|10=189||0|
M|120|0|0|I|20110220-23:33:01.123|72|8=FIX.4.1|9=0048|35=0|49=BLP|56=RBS1|34=120|52=20110220-23:33:01|10=179||0|
M|121|0|0|I|20110220-23:33:31.123|72|8=FIX.4.1|9=0048|35=0|49=BLP|56=RBS1|34=121|52=20110220-23:33:31|10=183||0|
M|122|0|0|I|20110220-23:34:01.125|72|8=FIX.4.1|9=0048|35=0|49=BLP|56=RBS1|34=122|52=20110220-23:34:01|10=182||0|
M|123|0|0|I|20110220-23:34:31.125|72|8=FIX.4.1|9=0048|35=0|49=BLP|56=RBS1|34=123|52=20110220-23:34:31|10=186||0|
M|124|0|0|I|20110220-23:35:01.127|72|8=FIX.4.1|9=0048|35=0|49=BLP|56=RBS1|34=124|52=20110220-23:35:01|10=185||0|
M|125|0|0|I|20110220-23:35:31.127|72|8=FIX.4.1|9=0048|35=0|49=BLP|56=RBS1|34=125|52=20110220-23:35:31|10=189||0|
M|126|0|0|I|20110220-23:36:01.129|72|8=FIX.4.1|9=0048|35=0|49=BLP|56=RBS1|34=126|52=20110220-23:36:01|10=188||0|
M|127|0|0|I|20110220-23:36:31.129|72|8=FIX.4.1|9=0048|35=0|49=BLP|56=RBS1|34=127|52=20110220-23:36:31|10=192||0|
M|128|0|0|I|20110220-23:37:01.131|72|8=FIX.4.1|9=0048|35=0|49=BLP|56=RBS1|34=128|52=20110220-23:37:01|10=191||0|
M|129|0|0|I|20110220-23:37:31.131|72|8=FIX.4.1|9=0048|35=0|49=BLP|56=RBS1|34=129|52=20110220-23:37:31|10=195||0|
M|130|0|0|I|20110220-23:38:01.133|72|8=FIX.4.1|9=0048|35=0|49=BLP|56=RBS1|34=130|52=20110220-23:38:01|10=185||0|
M|131|0|0|I|20110220-23:38:31.133|72|8=FIX.4.1|9=0048|35=0|49=BLP|56=RBS1|34=131|52=20110220-23:38:31|10=189||0|
M|132|0|0|I|20110220-23:39:01.135|72|8=FIX.4.1|9=0048|35=0|49=BLP|56=RBS1|34=132|52=20110220-23:39:01|10=188||0|
M|133|0|0|I|20110220-23:39:31.135|72|8=FIX.4.1|9=0048|35=0|49=BLP|56=RBS1|34=133|52=20110220-23:39:31|10=192||0|
M|134|0|0|I|20110220-23:40:01.137|72|8=FIX.4.1|9=0048|35=0|49=BLP|56=RBS1|34=134|52=20110220-23:40:01|10=182||0|
M|135|0|0|I|20110220-23:40:31.137|72|8=FIX.4.1|9=0048|35=0|49=BLP|56=RBS1|34=135|52=20110220-23:40:31|10=186||0|
M|136|0|0|I|20110220-23:41:01.137|72|8=FIX.4.1|9=0048|35=0|49=BLP|56=RBS1|34=136|52=20110220-23:41:01|10=185||0|
M|137|0|0|I|20110220-23:41:31.139|72|8=FIX.4.1|9=0048|35=0|49=BLP|56=RBS1|34=137|52=20110220-23:41:31|10=189||0|
M|138|0|0|I|20110220-23:42:01.139|72|8=FIX.4.1|9=0048|35=0|49=BLP|56=RBS1|34=138|52=20110220-23:42:01|10=188||0|
M|139|0|0|I|20110220-23:42:31.139|72|8=FIX.4.1|9=0048|35=0|49=BLP|56=RBS1|34=139|52=20110220-23:42:31|10=192||0|
M|140|0|0|I|20110220-23:43:01.141|72|8=FIX.4.1|9=0048|35=0|49=BLP|56=RBS1|34=140|52=20110220-23:43:01|10=182||0|
M|141|0|0|I|20110220-23:43:31.141|72|8=FIX.4.1|9=0048|35=0|49=BLP|56=RBS1|34=141|52=20110220-23:43:31|10=186||0|
M|142|0|0|I|20110220-23:44:01.141|72|8=FIX.4.1|9=0048|35=0|49=BLP|56=RBS1|34=142|52=20110220-23:44:01|10=185||0|
M|143|0|0|I|20110220-23:44:31.141|72|8=FIX.4.1|9=0048|35=0|49=BLP|56=RBS1|34=143|52=20110220-23:44:31|10=189||0|
M|144|0|0|I|20110220-23:45:01.141|72|8=FIX.4.1|9=0048|35=0|49=BLP|56=RBS1|34=144|52=20110220-23:45:01|10=188||0|
M|145|0|0|I|20110220-23:45:31.143|72|8=FIX.4.1|9=0048|35=0|49=BLP|56=RBS1|34=145|52=20110220-23:45:31|10=192||0|
M|146|0|0|I|20110220-23:46:01.143|72|8=FIX.4.1|9=0048|35=0|49=BLP|56=RBS1|34=146|52=20110220-23:46:01|10=191||0|
M|147|0|0|I|20110220-23:46:31.143|72|8=FIX.4.1|9=0048|35=0|49=BLP|56=RBS1|34=147|52=20110220-23:46:31|10=195||0|
M|148|0|0|I|20110220-23:47:01.145|72|8=FIX.4.1|9=0048|35=0|49=BLP|56=RBS1|34=148|52=20110220-23:47:01|10=194||0|
M|149|0|0|I|20110220-23:47:31.145|72|8=FIX.4.1|9=0048|35=0|49=BLP|56=RBS1|34=149|52=20110220-23:47:31|10=198||0|
M|150|0|0|I|20110220-23:48:01.145|72|8=FIX.4.1|9=0048|35=0|49=BLP|56=RBS1|34=150|52=20110220-23:48:01|10=188||0|
M|151|0|0|I|20110220-23:48:31.147|72|8=FIX.4.1|9=0048|35=0|49=BLP|56=RBS1|34=151|52=20110220-23:48:31|10=192||0|
M|152|0|0|I|20110220-23:49:01.147|72|8=FIX.4.1|9=0048|35=0|49=BLP|56=RBS1|34=152|52=20110220-23:49:01|10=191||0|
M|153|0|0|I|20110220-23:49:31.147|72|8=FIX.4.1|9=0048|35=0|49=BLP|56=RBS1|34=153|52=20110220-23:49:31|10=195||0|
M|154|0|0|I|20110220-23:50:01.147|72|8=FIX.4.1|9=0048|35=0|49=BLP|56=RBS1|34=154|52=20110220-23:50:01|10=185||0|
M|155|0|0|I|20110220-23:50:31.147|72|8=FIX.4.1|9=0048|35=0|49=BLP|56=RBS1|34=155|52=20110220-23:50:31|10=189||0|
M|156|0|0|I|20110220-23:51:01.149|72|8=FIX.4.1|9=0048|35=0|49=BLP|56=RBS1|34=156|52=20110220-23:51:01|10=188||0|
M|157|0|0|I|20110220-23:51:31.149|72|8=FIX.4.1|9=0048|35=0|49=BLP|56=RBS1|34=157|52=20110220-23:51:31|10=192||0|
M|158|0|0|I|20110220-23:52:01.151|72|8=FIX.4.1|9=0048|35=0|49=BLP|56=RBS1|34=158|52=20110220-23:52:01|10=191||0|
M|159|0|0|I|20110220-23:52:31.151|72|8=FIX.4.1|9=0048|35=0|49=BLP|56=RBS1|34=159|52=20110220-23:52:31|10=195||0|
M|160|0|0|I|20110220-23:53:01.151|72|8=FIX.4.1|9=0048|35=0|49=BLP|56=RBS1|34=160|52=20110220-23:53:01|10=185||0|
M|161|0|0|I|20110220-23:53:31.153|72|8=FIX.4.1|9=0048|35=0|49=BLP|56=RBS1|34=161|52=20110220-23:53:31|10=189||0|
M|162|0|0|I|20110220-23:54:01.151|72|8=FIX.4.1|9=0048|35=0|49=BLP|56=RBS1|34=162|52=20110220-23:54:01|10=188||0|
M|163|0|0|I|20110220-23:54:31.153|72|8=FIX.4.1|9=0048|35=0|49=BLP|56=RBS1|34=163|52=20110220-23:54:31|10=192||0|
M|164|0|0|I|20110220-23:55:01.153|72|8=FIX.4.1|9=0048|35=0|49=BLP|56=RBS1|34=164|52=20110220-23:55:01|10=191||0|
M|165|0|0|I|20110220-23:55:31.153|72|8=FIX.4.1|9=0048|35=0|49=BLP|56=RBS1|34=165|52=20110220-23:55:31|10=195||0|
M|166|0|0|I|20110220-23:56:01.155|72|8=FIX.4.1|9=0048|35=0|49=BLP|56=RBS1|34=166|52=20110220-23:56:01|10=194||0|
M|167|0|0|I|20110220-23:56:31.155|72|8=FIX.4.1|9=0048|35=0|49=BLP|56=RBS1|34=167|52=20110220-23:56:31|10=198||0|
M|168|0|0|I|20110220-23:57:01.155|72|8=FIX.4.1|9=0048|35=0|49=BLP|56=RBS1|34=168|52=20110220-23:57:01|10=197||0|
M|169|0|0|I|20110220-23:57:31.155|72|8=FIX.4.1|9=0048|35=0|49=BLP|56=RBS1|34=169|52=20110220-23:57:31|10=201||0|
M|170|0|0|I|20110220-23:58:01.155|72|8=FIX.4.1|9=0048|35=0|49=BLP|56=RBS1|34=170|52=20110220-23:58:01|10=191||0|
M|171|0|0|I|20110220-23:58:31.157|72|8=FIX.4.1|9=0048|35=0|49=BLP|56=RBS1|34=171|52=20110220-23:58:31|10=195||0|
M|172|0|0|I|20110220-23:59:01.157|72|8=FIX.4.1|9=0048|35=0|49=BLP|56=RBS1|34=172|52=20110220-23:59:01|10=194||0|
M|173|0|0|I|20110220-23:59:31.159|72|8=FIX.4.1|9=0048|35=0|49=BLP|56=RBS1|34=173|52=20110220-23:59:31|10=198||0|
M|174|0|0|I|20110221-00:00:01.159|72|8=FIX.4.1|9=0048|35=0|49=BLP|56=RBS1|34=174|52=20110221-00:00:01|10=178||0|
M|175|0|0|I|20110221-00:00:31.159|72|8=FIX.4.1|9=0048|35=0|49=BLP|56=RBS1|34=175|52=20110221-00:00:31|10=182||0|
M|176|0|0|I|20110221-00:01:01.159|72|8=FIX.4.1|9=0048|35=0|49=BLP|56=RBS1|34=176|52=20110221-00:01:01|10=181||0|
M|177|0|0|I|20110221-00:01:31.159|72|8=FIX.4.1|9=0048|35=0|49=BLP|56=RBS1|34=177|52=20110221-00:01:31|10=185||0|
M|178|0|0|I|20110221-00:02:01.161|72|8=FIX.4.1|9=0048|35=0|49=BLP|56=RBS1|34=178|52=20110221-00:02:01|10=184||0|
M|179|0|0|I|20110221-00:02:31.161|72|8=FIX.4.1|9=0048|35=0|49=BLP|56=RBS1|34=179|52=20110221-00:02:31|10=188||0|
M|180|0|0|I|20110221-00:03:01.161|72|8=FIX.4.1|9=0048|35=0|49=BLP|56=RBS1|34=180|52=20110221-00:03:01|10=178||0|
M|181|0|0|I|20110221-00:03:31.163|72|8=FIX.4.1|9=0048|35=0|49=BLP|56=RBS1|34=181|52=20110221-00:03:31|10=182||0|
M|182|0|0|I|20110221-00:04:01.163|72|8=FIX.4.1|9=0048|35=0|49=BLP|56=RBS1|34=182|52=20110221-00:04:01|10=181||0|
M|183|0|0|I|20110221-00:04:31.163|72|8=FIX.4.1|9=0048|35=0|49=BLP|56=RBS1|34=183|52=20110221-00:04:31|10=185||0|
M|184|0|0|I|20110221-00:05:01.163|72|8=FIX.4.1|9=0048|35=0|49=BLP|56=RBS1|34=184|52=20110221-00:05:01|10=184||0|
M|185|0|0|I|20110221-00:05:31.163|72|8=FIX.4.1|9=0048|35=0|49=BLP|56=RBS1|34=185|52=20110221-00:05:31|10=188||0|
M|186|0|0|I|20110221-00:06:01.165|72|8=FIX.4.1|9=0048|35=0|49=BLP|56=RBS1|34=186|52=20110221-00:06:01|10=187||0|
M|187|0|0|I|20110221-00:06:31.165|72|8=FIX.4.1|9=0048|35=0|49=BLP|56=RBS1|34=187|52=20110221-00:06:31|10=191||0|
M|188|0|0|I|20110221-00:07:01.165|72|8=FIX.4.1|9=0048|35=0|49=BLP|56=RBS1|34=188|52=20110221-00:07:01|10=190||0|
M|189|0|0|I|20110221-00:07:31.167|72|8=FIX.4.1|9=0048|35=0|49=BLP|56=RBS1|34=189|52=20110221-00:07:31|10=194||0|
M|190|0|0|I|20110221-00:08:01.167|72|8=FIX.4.1|9=0048|35=0|49=BLP|56=RBS1|34=190|52=20110221-00:08:01|10=184||0|
M|191|0|0|I|20110221-00:08:31.167|72|8=FIX.4.1|9=0048|35=0|49=BLP|56=RBS1|34=191|52=20110221-00:08:31|10=188||0|
M|192|0|0|I|20110221-00:09:01.169|72|8=FIX.4.1|9=0048|35=0|49=BLP|56=RBS1|34=192|52=20110221-00:09:01|10=187||0|
M|193|0|0|I|20110221-00:09:31.169|72|8=FIX.4.1|9=0048|35=0|49=BLP|56=RBS1|34=193|52=20110221-00:09:31|10=191||0|
M|194|0|0|I|20110221-00:10:01.169|72|8=FIX.4.1|9=0048|35=0|49=BLP|56=RBS1|34=194|52=20110221-00:10:01|10=181||0|
M|195|0|0|I|20110221-00:10:31.171|72|8=FIX.4.1|9=0048|35=0|49=BLP|56=RBS1|34=195|52=20110221-00:10:31|10=185||0|
M|196|0|0|I|20110221-00:11:01.171|72|8=FIX.4.1|9=0048|35=0|49=BLP|56=RBS1|34=196|52=20110221-00:11:01|10=184||0|
M|197|0|0|I|20110221-00:11:31.171|72|8=FIX.4.1|9=0048|35=0|49=BLP|56=RBS1|34=197|52=20110221-00:11:31|10=188||0|
M|198|0|0|I|20110221-00:12:01.171|72|8=FIX.4.1|9=0048|35=0|49=BLP|56=RBS1|34=198|52=20110221-00:12:01|10=187||0|
M|199|0|0|I|20110221-00:12:31.171|72|8=FIX.4.1|9=0048|35=0|49=BLP|56=RBS1|34=199|52=20110221-00:12:31|10=191||0|
M|200|0|0|I|20110221-00:13:01.171|72|8=FIX.4.1|9=0048|35=0|49=BLP|56=RBS1|34=200|52=20110221-00:13:01|10=172||0|
M|201|0|0|I|20110221-00:13:31.173|72|8=FIX.4.1|9=0048|35=0|49=BLP|56=RBS1|34=201|52=20110221-00:13:31|10=176||0|
M|202|0|0|I|20110221-00:14:01.173|72|8=FIX.4.1|9=0048|35=0|49=BLP|56=RBS1|34=202|52=20110221-00:14:01|10=175||0|
M|203|0|0|I|20110221-00:14:31.173|72|8=FIX.4.1|9=0048|35=0|49=BLP|56=RBS1|34=203|52=20110221-00:14:31|10=179||0|
M|204|0|0|I|20110221-00:15:01.173|72|8=FIX.4.1|9=0048|35=0|49=BLP|56=RBS1|34=204|52=20110221-00:15:01|10=178||0|
M|205|0|0|I|20110221-00:15:31.175|72|8=FIX.4.1|9=0048|35=0|49=BLP|56=RBS1|34=205|52=20110221-00:15:31|10=182||0|
M|206|0|0|I|20110221-00:16:01.175|72|8=FIX.4.1|9=0048|35=0|49=BLP|56=RBS1|34=206|52=20110221-00:16:01|10=181||0|
M|207|0|0|I|20110221-00:16:31.175|72|8=FIX.4.1|9=0048|35=0|49=BLP|56=RBS1|34=207|52=20110221-00:16:31|10=185||0|
M|208|0|0|I|20110221-00:17:01.177|72|8=FIX.4.1|9=0048|35=0|49=BLP|56=RBS1|34=208|52=20110221-00:17:01|10=184||0|
M|209|0|0|I|20110221-00:17:31.177|72|8=FIX.4.1|9=0048|35=0|49=BLP|56=RBS1|34=209|52=20110221-00:17:31|10=188||0|
M|210|0|0|I|20110221-00:18:01.177|72|8=FIX.4.1|9=0048|35=0|49=BLP|56=RBS1|34=210|52=20110221-00:18:01|10=178||0|
M|211|0|0|I|20110221-00:18:31.177|72|8=FIX.4.1|9=0048|35=0|49=BLP|56=RBS1|34=211|52=20110221-00:18:31|10=182||0|
M|212|0|0|I|20110221-00:19:01.177|72|8=FIX.4.1|9=0048|35=0|49=BLP|56=RBS1|34=212|52=20110221-00:19:01|10=181||0|
M|213|0|0|I|20110221-00:19:31.179|72|8=FIX.4.1|9=0048|35=0|49=BLP|56=RBS1|34=213|52=20110221-00:19:31|10=185||0|
M|214|0|0|I|20110221-00:20:01.179|72|8=FIX.4.1|9=0048|35=0|49=BLP|56=RBS1|34=214|52=20110221-00:20:01|10=175||0|
M|215|0|0|I|20110221-00:20:31.181|72|8=FIX.4.1|9=0048|35=0|49=BLP|56=RBS1|34=215|52=20110221-00:20:31|10=179||0|
M|216|0|0|I|20110221-00:21:01.181|72|8=FIX.4.1|9=0048|35=0|49=BLP|56=RBS1|34=216|52=20110221-00:21:01|10=178||0|
M|217|0|0|I|20110221-00:21:31.181|72|8=FIX.4.1|9=0048|35=0|49=BLP|56=RBS1|34=217|52=20110221-00:21:31|10=182||0|
M|218|0|0|I|20110221-00:22:01.183|72|8=FIX.4.1|9=0048|35=0|49=BLP|56=RBS1|34=218|52=20110221-00:22:01|10=181||0|
M|219|0|0|I|20110221-00:22:31.183|72|8=FIX.4.1|9=0048|35=0|49=BLP|56=RBS1|34=219|52=20110221-00:22:31|10=185||0|
M|220|0|0|I|20110221-00:23:01.183|72|8=FIX.4.1|9=0048|35=0|49=BLP|56=RBS1|34=220|52=20110221-00:23:01|10=175||0|
M|221|0|0|I|20110221-00:23:31.183|72|8=FIX.4.1|9=0048|35=0|49=BLP|56=RBS1|34=221|52=20110221-00:23:31|10=179||0|
M|222|0|0|I|20110221-00:24:01.185|72|8=FIX.4.1|9=0048|35=0|49=BLP|56=RBS1|34=222|52=20110221-00:24:01|10=178||0|
M|223|0|0|I|20110221-00:24:31.185|72|8=FIX.4.1|9=0048|35=0|49=BLP|56=RBS1|34=223|52=20110221-00:24:31|10=182||0|
M|224|0|0|I|20110221-00:25:01.185|72|8=FIX.4.1|9=0048|35=0|49=BLP|56=RBS1|34=224|52=20110221-00:25:01|10=181||0|
M|225|0|0|I|20110221-00:25:31.187|72|8=FIX.4.1|9=0048|35=0|49=BLP|56=RBS1|34=225|52=20110221-00:25:31|10=185||0|
M|226|0|0|I|20110221-00:26:01.189|72|8=FIX.4.1|9=0048|35=0|49=BLP|56=RBS1|34=226|52=20110221-00:26:01|10=184||0|
M|227|0|0|I|20110221-00:26:31.189|72|8=FIX.4.1|9=0048|35=0|49=BLP|56=RBS1|34=227|52=20110221-00:26:31|10=188||0|
M|228|0|0|I|20110221-00:27:01.189|72|8=FIX.4.1|9=0048|35=0|49=BLP|56=RBS1|34=228|52=20110221-00:27:01|10=187||0|
M|229|0|0|I|20110221-00:27:31.189|72|8=FIX.4.1|9=0048|35=0|49=BLP|56=RBS1|34=229|52=20110221-00:27:31|10=191||0|
M|230|0|0|I|20110221-00:28:01.189|72|8=FIX.4.1|9=0048|35=0|49=BLP|56=RBS1|34=230|52=20110221-00:28:01|10=181||0|
M|231|0|0|I|20110221-00:28:31.191|72|8=FIX.4.1|9=0048|35=0|49=BLP|56=RBS1|34=231|52=20110221-00:28:31|10=185||0|
M|232|0|0|I|20110221-00:29:01.191|72|8=FIX.4.1|9=0048|35=0|49=BLP|56=RBS1|34=232|52=20110221-00:29:01|10=184||0|
M|233|0|0|I|20110221-00:29:31.191|72|8=FIX.4.1|9=0048|35=0|49=BLP|56=RBS1|34=233|52=20110221-00:29:31|10=188||0|
M|234|0|0|I|20110221-00:30:01.193|72|8=FIX.4.1|9=0048|35=0|49=BLP|56=RBS1|34=234|52=20110221-00:30:01|10=178||0|
M|235|0|0|I|20110221-00:30:31.193|72|8=FIX.4.1|9=0048|35=0|49=BLP|56=RBS1|34=235|52=20110221-00:30:31|10=182||0|
M|236|0|0|I|20110221-00:31:01.195|72|8=FIX.4.1|9=0048|35=0|49=BLP|56=RBS1|34=236|52=20110221-00:31:01|10=181||0|
M|237|0|0|I|20110221-00:31:31.195|72|8=FIX.4.1|9=0048|35=0|49=BLP|56=RBS1|34=237|52=20110221-00:31:31|10=185||0|
M|238|0|0|I|20110221-00:32:01.195|72|8=FIX.4.1|9=0048|35=0|49=BLP|56=RBS1|34=238|52=20110221-00:32:01|10=184||0|
M|239|0|0|I|20110221-00:32:31.197|72|8=FIX.4.1|9=0048|35=0|49=BLP|56=RBS1|34=239|52=20110221-00:32:31|10=188||0|
M|240|0|0|I|20110221-00:33:01.197|72|8=FIX.4.1|9=0048|35=0|49=BLP|56=RBS1|34=240|52=20110221-00:33:01|10=178||0|
M|241|0|0|I|20110221-00:33:31.197|72|8=FIX.4.1|9=0048|35=0|49=BLP|56=RBS1|34=241|52=20110221-00:33:31|10=182||0|
M|242|0|0|I|20110221-00:34:01.197|72|8=FIX.4.1|9=0048|35=0|49=BLP|56=RBS1|34=242|52=20110221-00:34:01|10=181||0|
M|243|0|0|I|20110221-00:34:31.199|72|8=FIX.4.1|9=0048|35=0|49=BLP|56=RBS1|34=243|52=20110221-00:34:31|10=185||0|
M|244|0|0|I|20110221-00:35:01.199|72|8=FIX.4.1|9=0048|35=0|49=BLP|56=RBS1|34=244|52=20110221-00:35:01|10=184||0|
M|245|0|0|I|20110221-00:35:31.199|72|8=FIX.4.1|9=0048|35=0|49=BLP|56=RBS1|34=245|52=20110221-00:35:31|10=188||0|
M|246|0|0|I|20110221-00:36:01.199|72|8=FIX.4.1|9=0048|35=0|49=BLP|56=RBS1|34=246|52=20110221-00:36:01|10=187||0|
M|247|0|0|I|20110221-00:36:31.201|72|8=FIX.4.1|9=0048|35=0|49=BLP|56=RBS1|34=247|52=20110221-00:36:31|10=191||0|
M|248|0|0|I|20110221-00:37:01.201|72|8=FIX.4.1|9=0048|35=0|49=BLP|56=RBS1|34=248|52=20110221-00:37:01|10=190||0|
M|249|0|0|I|20110221-00:37:31.203|72|8=FIX.4.1|9=0048|35=0|49=BLP|56=RBS1|34=249|52=20110221-00:37:31|10=194||0|
M|250|0|0|I|20110221-00:38:01.203|72|8=FIX.4.1|9=0048|35=0|49=BLP|56=RBS1|34=250|52=20110221-00:38:01|10=184||0|
M|251|0|0|I|20110221-00:38:31.203|72|8=FIX.4.1|9=0048|35=0|49=BLP|56=RBS1|34=251|52=20110221-00:38:31|10=188||0|
M|252|0|0|I|20110221-00:39:01.203|72|8=FIX.4.1|9=0048|35=0|49=BLP|56=RBS1|34=252|52=20110221-00:39:01|10=187||0|
M|253|0|0|I|20110221-00:39:31.203|72|8=FIX.4.1|9=0048|35=0|49=BLP|56=RBS1|34=253|52=20110221-00:39:31|10=191||0|
M|254|0|0|I|20110221-00:40:01.205|72|8=FIX.4.1|9=0048|35=0|49=BLP|56=RBS1|34=254|52=20110221-00:40:01|10=181||0|
M|255|0|0|I|20110221-00:40:31.205|72|8=FIX.4.1|9=0048|35=0|49=BLP|56=RBS1|34=255|52=20110221-00:40:31|10=185||0|
M|256|0|0|I|20110221-00:41:01.205|72|8=FIX.4.1|9=0048|35=0|49=BLP|56=RBS1|34=256|52=20110221-00:41:01|10=184||0|
M|257|0|0|I|20110221-00:41:31.207|72|8=FIX.4.1|9=0048|35=0|49=BLP|56=RBS1|34=257|52=20110221-00:41:31|10=188||0|
M|258|0|0|I|20110221-00:42:01.207|72|8=FIX.4.1|9=0048|35=0|49=BLP|56=RBS1|34=258|52=20110221-00:42:01|10=187||0|
M|259|0|0|I|20110221-00:42:31.207|72|8=FIX.4.1|9=0048|35=0|49=BLP|56=RBS1|34=259|52=20110221-00:42:31|10=191||0|
M|260|0|0|I|20110221-00:43:01.209|72|8=FIX.4.1|9=0048|35=0|49=BLP|56=RBS1|34=260|52=20110221-00:43:01|10=181||0|
M|261|0|0|I|20110221-00:43:31.209|72|8=FIX.4.1|9=0048|35=0|49=BLP|56=RBS1|34=261|52=20110221-00:43:31|10=185||0|
M|262|0|0|I|20110221-00:44:01.211|72|8=FIX.4.1|9=0048|35=0|49=BLP|56=RBS1|34=262|52=20110221-00:44:01|10=184||0|
M|263|0|0|I|20110221-00:44:31.211|72|8=FIX.4.1|9=0048|35=0|49=BLP|56=RBS1|34=263|52=20110221-00:44:31|10=188||0|
M|264|0|0|I|20110221-00:45:01.211|72|8=FIX.4.1|9=0048|35=0|49=BLP|56=RBS1|34=264|52=20110221-00:45:01|10=187||0|
M|265|0|0|I|20110221-00:45:31.211|72|8=FIX.4.1|9=0048|35=0|49=BLP|56=RBS1|34=265|52=20110221-00:45:31|10=191||0|
M|266|0|0|I|20110221-00:46:01.213|72|8=FIX.4.1|9=0048|35=0|49=BLP|56=RBS1|34=266|52=20110221-00:46:01|10=190||0|
M|267|0|0|I|20110221-00:46:31.213|72|8=FIX.4.1|9=0048|35=0|49=BLP|56=RBS1|34=267|52=20110221-00:46:31|10=194||0|
M|268|0|0|I|20110221-00:47:01.215|72|8=FIX.4.1|9=0048|35=0|49=BLP|56=RBS1|34=268|52=20110221-00:47:01|10=193||0|
M|269|0|0|I|20110221-00:47:31.215|72|8=FIX.4.1|9=0048|35=0|49=BLP|56=RBS1|34=269|52=20110221-00:47:31|10=197||0|
M|270|0|0|I|20110221-00:48:01.215|72|8=FIX.4.1|9=0048|35=0|49=BLP|56=RBS1|34=270|52=20110221-00:48:01|10=187||0|
M|271|0|0|I|20110221-00:48:31.215|72|8=FIX.4.1|9=0048|35=0|49=BLP|56=RBS1|34=271|52=20110221-00:48:31|10=191||0|
M|272|0|0|I|20110221-00:49:01.215|72|8=FIX.4.1|9=0048|35=0|49=BLP|56=RBS1|34=272|52=20110221-00:49:01|10=190||0|
M|273|0|0|I|20110221-00:49:31.217|72|8=FIX.4.1|9=0048|35=0|49=BLP|56=RBS1|34=273|52=20110221-00:49:31|10=194||0|
M|274|0|0|I|20110221-00:50:01.217|72|8=FIX.4.1|9=0048|35=0|49=BLP|56=RBS1|34=274|52=20110221-00:50:01|10=184||0|
M|275|0|0|I|20110221-00:50:31.219|72|8=FIX.4.1|9=0048|35=0|49=BLP|56=RBS1|34=275|52=20110221-00:50:31|10=188||0|
M|276|0|0|I|20110221-00:51:01.219|72|8=FIX.4.1|9=0048|35=0|49=BLP|56=RBS1|34=276|52=20110221-00:51:01|10=187||0|
M|277|0|0|I|20110221-00:51:31.219|72|8=FIX.4.1|9=0048|35=0|49=BLP|56=RBS1|34=277|52=20110221-00:51:31|10=191||0|
M|278|0|0|I|20110221-00:52:01.221|72|8=FIX.4.1|9=0048|35=0|49=BLP|56=RBS1|34=278|52=20110221-00:52:01|10=190||0|
M|279|0|0|I|20110221-00:52:31.221|72|8=FIX.4.1|9=0048|35=0|49=BLP|56=RBS1|34=279|52=20110221-00:52:31|10=194||0|
M|280|0|0|I|20110221-00:53:01.221|72|8=FIX.4.1|9=0048|35=0|49=BLP|56=RBS1|34=280|52=20110221-00:53:01|10=184||0|
M|281|0|0|I|20110221-00:53:31.223|72|8=FIX.4.1|9=0048|35=0|49=BLP|56=RBS1|34=281|52=20110221-00:53:31|10=188||0|
M|282|0|0|I|20110221-00:54:01.223|72|8=FIX.4.1|9=0048|35=0|49=BLP|56=RBS1|34=282|52=20110221-00:54:01|10=187||0|
M|283|0|0|I|20110221-00:54:31.223|72|8=FIX.4.1|9=0048|35=0|49=BLP|56=RBS1|34=283|52=20110221-00:54:31|10=191||0|
M|284|0|0|I|20110221-00:55:01.223|72|8=FIX.4.1|9=0048|35=0|49=BLP|56=RBS1|34=284|52=20110221-00:55:01|10=190||0|
M|285|0|0|I|20110221-00:55:31.225|72|8=FIX.4.1|9=0048|35=0|49=BLP|56=RBS1|34=285|52=20110221-00:55:31|10=194||0|
M|286|0|0|I|20110221-00:56:01.225|72|8=FIX.4.1|9=0048|35=0|49=BLP|56=RBS1|34=286|52=20110221-00:56:01|10=193||0|
M|287|0|0|I|20110221-00:56:31.225|72|8=FIX.4.1|9=0048|35=0|49=BLP|56=RBS1|34=287|52=20110221-00:56:31|10=197||0|
M|288|0|0|I|20110221-00:57:01.227|72|8=FIX.4.1|9=0048|35=0|49=BLP|56=RBS1|34=288|52=20110221-00:57:01|10=196||0|
M|289|0|0|I|20110221-00:57:31.225|72|8=FIX.4.1|9=0048|35=0|49=BLP|56=RBS1|34=289|52=20110221-00:57:31|10=200||0|
M|290|0|0|I|20110221-00:58:01.227|72|8=FIX.4.1|9=0048|35=0|49=BLP|56=RBS1|34=290|52=20110221-00:58:01|10=190||0|
M|291|0|0|I|20110221-00:58:31.227|72|8=FIX.4.1|9=0048|35=0|49=BLP|56=RBS1|34=291|52=20110221-00:58:31|10=194||0|
M|292|0|0|I|20110221-00:59:01.227|72|8=FIX.4.1|9=0048|35=0|49=BLP|56=RBS1|34=292|52=20110221-00:59:01|10=193||0|
M|293|0|0|I|20110221-00:59:31.227|72|8=FIX.4.1|9=0048|35=0|49=BLP|56=RBS1|34=293|52=20110221-00:59:31|10=197||0|
M|294|0|0|I|20110221-01:00:01.229|72|8=FIX.4.1|9=0048|35=0|49=BLP|56=RBS1|34=294|52=20110221-01:00:01|10=182||0|
M|295|0|0|I|20110221-01:00:31.229|72|8=FIX.4.1|9=0048|35=0|49=BLP|56=RBS1|34=295|52=20110221-01:00:31|10=186||0|
M|296|0|0|I|20110221-01:01:01.229|72|8=FIX.4.1|9=0048|35=0|49=BLP|56=RBS1|34=296|52=20110221-01:01:01|10=185||0|
M|297|0|0|I|20110221-01:01:31.231|72|8=FIX.4.1|9=0048|35=0|49=BLP|56=RBS1|34=297|52=20110221-01:01:31|10=189||0|
M|298|0|0|I|20110221-01:02:01.229|72|8=FIX.4.1|9=0048|35=0|49=BLP|56=RBS1|34=298|52=20110221-01:02:01|10=188||0|
M|299|0|0|I|20110221-01:02:31.231|72|8=FIX.4.1|9=0048|35=0|49=BLP|56=RBS1|34=299|52=20110221-01:02:31|10=192||0|
M|300|0|0|I|20110221-01:03:01.231|72|8=FIX.4.1|9=0048|35=0|49=BLP|56=RBS1|34=300|52=20110221-01:03:01|10=173||0|
M|301|0|0|I|20110221-01:03:31.231|72|8=FIX.4.1|9=0048|35=0|49=BLP|56=RBS1|34=301|52=20110221-01:03:31|10=177||0|
M|302|0|0|I|20110221-01:04:01.233|72|8=FIX.4.1|9=0048|35=0|49=BLP|56=RBS1|34=302|52=20110221-01:04:01|10=176||0|
M|303|0|0|I|20110221-01:04:31.233|72|8=FIX.4.1|9=0048|35=0|49=BLP|56=RBS1|34=303|52=20110221-01:04:31|10=180||0|
M|304|0|0|I|20110221-01:05:01.235|72|8=FIX.4.1|9=0048|35=0|49=BLP|56=RBS1|34=304|52=20110221-01:05:01|10=179||0|
M|305|0|0|I|20110221-01:05:31.237|72|8=FIX.4.1|9=0048|35=0|49=BLP|56=RBS1|34=305|52=20110221-01:05:31|10=183||0|
M|306|0|0|I|20110221-01:06:01.237|72|8=FIX.4.1|9=0048|35=0|49=BLP|56=RBS1|34=306|52=20110221-01:06:01|10=182||0|
M|307|0|0|I|20110221-01:06:31.237|72|8=FIX.4.1|9=0048|35=0|49=BLP|56=RBS1|34=307|52=20110221-01:06:31|10=186||0|
M|308|0|0|I|20110221-01:07:01.239|72|8=FIX.4.1|9=0048|35=0|49=BLP|56=RBS1|34=308|52=20110221-01:07:01|10=185||0|
M|309|0|0|I|20110221-01:07:31.239|72|8=FIX.4.1|9=0048|35=0|49=BLP|56=RBS1|34=309|52=20110221-01:07:31|10=189||0|
M|310|0|0|I|20110221-01:08:01.239|72|8=FIX.4.1|9=0048|35=0|49=BLP|56=RBS1|34=310|52=20110221-01:08:01|10=179||0|
M|311|0|0|I|20110221-01:08:31.241|72|8=FIX.4.1|9=0048|35=0|49=BLP|56=RBS1|34=311|52=20110221-01:08:31|10=183||0|
M|312|0|0|I|20110221-01:09:01.241|72|8=FIX.4.1|9=0048|35=0|49=BLP|56=RBS1|34=312|52=20110221-01:09:01|10=182||0|
M|313|0|0|I|20110221-01:09:31.241|72|8=FIX.4.1|9=0048|35=0|49=BLP|56=RBS1|34=313|52=20110221-01:09:31|10=186||0|
M|314|0|0|I|20110221-01:10:01.243|72|8=FIX.4.1|9=0048|35=0|49=BLP|56=RBS1|34=314|52=20110221-01:10:01|10=176||0|
M|315|0|0|I|20110221-01:10:31.243|72|8=FIX.4.1|9=0048|35=0|49=BLP|56=RBS1|34=315|52=20110221-01:10:31|10=180||0|
M|316|0|0|I|20110221-01:11:01.243|72|8=FIX.4.1|9=0048|35=0|49=BLP|56=RBS1|34=316|52=20110221-01:11:01|10=179||0|
M|317|0|0|I|20110221-01:11:31.243|72|8=FIX.4.1|9=0048|35=0|49=BLP|56=RBS1|34=317|52=20110221-01:11:31|10=183||0|
M|318|0|0|I|20110221-01:12:01.243|72|8=FIX.4.1|9=0048|35=0|49=BLP|56=RBS1|34=318|52=20110221-01:12:01|10=182||0|
M|319|0|0|I|20110221-01:12:31.243|72|8=FIX.4.1|9=0048|35=0|49=BLP|56=RBS1|34=319|52=20110221-01:12:31|10=186||0|
M|320|0|0|I|20110221-01:13:01.245|72|8=FIX.4.1|9=0048|35=0|49=BLP|56=RBS1|34=320|52=20110221-01:13:01|10=176||0|
M|321|0|0|I|20110221-01:13:31.245|72|8=FIX.4.1|9=0048|35=0|49=BLP|56=RBS1|34=321|52=20110221-01:13:31|10=180||0|
M|322|0|0|I|20110221-01:14:01.245|72|8=FIX.4.1|9=0048|35=0|49=BLP|56=RBS1|34=322|52=20110221-01:14:01|10=179||0|
M|323|0|0|I|20110221-01:14:31.245|72|8=FIX.4.1|9=0048|35=0|49=BLP|56=RBS1|34=323|52=20110221-01:14:31|10=183||0|
M|324|0|0|I|20110221-01:15:01.247|72|8=FIX.4.1|9=0048|35=0|49=BLP|56=RBS1|34=324|52=20110221-01:15:01|10=182||0|
M|325|0|0|I|20110221-01:15:31.247|72|8=FIX.4.1|9=0048|35=0|49=BLP|56=RBS1|34=325|52=20110221-01:15:31|10=186||0|
M|326|0|0|I|20110221-01:16:01.247|72|8=FIX.4.1|9=0048|35=0|49=BLP|56=RBS1|34=326|52=20110221-01:16:01|10=185||0|
M|327|0|0|I|20110221-01:16:31.249|72|8=FIX.4.1|9=0048|35=0|49=BLP|56=RBS1|34=327|52=20110221-01:16:31|10=189||0|
M|328|0|0|I|20110221-01:17:01.249|72|8=FIX.4.1|9=0048|35=0|49=BLP|56=RBS1|34=328|52=20110221-01:17:01|10=188||0|
M|329|0|0|I|20110221-01:17:31.251|72|8=FIX.4.1|9=0048|35=0|49=BLP|56=RBS1|34=329|52=20110221-01:17:31|10=192||0|
M|330|0|0|I|20110221-01:18:01.251|72|8=FIX.4.1|9=0048|35=0|49=BLP|56=RBS1|34=330|52=20110221-01:18:01|10=182||0|
M|331|0|0|I|20110221-01:18:31.253|72|8=FIX.4.1|9=0048|35=0|49=BLP|56=RBS1|34=331|52=20110221-01:18:31|10=186||0|
M|332|0|0|I|20110221-01:19:01.253|72|8=FIX.4.1|9=0048|35=0|49=BLP|56=RBS1|34=332|52=20110221-01:19:01|10=185||0|
M|333|0|0|I|20110221-01:19:31.253|72|8=FIX.4.1|9=0048|35=0|49=BLP|56=RBS1|34=333|52=20110221-01:19:31|10=189||0|
M|334|0|0|I|20110221-01:20:01.255|72|8=FIX.4.1|9=0048|35=0|49=BLP|56=RBS1|34=334|52=20110221-01:20:01|10=179||0|
M|335|0|0|I|20110221-01:20:31.255|72|8=FIX.4.1|9=0048|35=0|49=BLP|56=RBS1|34=335|52=20110221-01:20:31|10=183||0|
M|336|0|0|I|20110221-01:21:01.255|72|8=FIX.4.1|9=0048|35=0|49=BLP|56=RBS1|34=336|52=20110221-01:21:01|10=182||0|
M|337|0|0|I|20110221-01:21:31.257|72|8=FIX.4.1|9=0048|35=0|49=BLP|56=RBS1|34=337|52=20110221-01:21:31|10=186||0|
M|338|0|0|I|20110221-01:22:01.257|72|8=FIX.4.1|9=0048|35=0|49=BLP|56=RBS1|34=338|52=20110221-01:22:01|10=185||0|
M|339|0|0|I|20110221-01:22:31.257|72|8=FIX.4.1|9=0048|35=0|49=BLP|56=RBS1|34=339|52=20110221-01:22:31|10=189||0|
M|340|0|0|I|20110221-01:23:01.257|72|8=FIX.4.1|9=0048|35=0|49=BLP|56=RBS1|34=340|52=20110221-01:23:01|10=179||0|
M|341|0|0|I|20110221-01:23:31.259|72|8=FIX.4.1|9=0048|35=0|49=BLP|56=RBS1|34=341|52=20110221-01:23:31|10=183||0|
M|342|0|0|I|20110221-01:24:01.259|72|8=FIX.4.1|9=0048|35=0|49=BLP|56=RBS1|34=342|52=20110221-01:24:01|10=182||0|
M|343|0|0|I|20110221-01:24:31.259|72|8=FIX.4.1|9=0048|35=0|49=BLP|56=RBS1|34=343|52=20110221-01:24:31|10=186||0|
M|344|0|0|I|20110221-01:25:01.259|72|8=FIX.4.1|9=0048|35=0|49=BLP|56=RBS1|34=344|52=20110221-01:25:01|10=185||0|
M|345|0|0|I|20110221-01:25:31.259|72|8=FIX.4.1|9=0048|35=0|49=BLP|56=RBS1|34=345|52=20110221-01:25:31|10=189||0|
M|346|0|0|I|20110221-01:26:01.259|72|8=FIX.4.1|9=0048|35=0|49=BLP|56=RBS1|34=346|52=20110221-01:26:01|10=188||0|
M|347|0|0|I|20110221-01:26:31.261|72|8=FIX.4.1|9=0048|35=0|49=BLP|56=RBS1|34=347|52=20110221-01:26:31|10=192||0|
M|348|0|0|I|20110221-01:27:01.261|72|8=FIX.4.1|9=0048|35=0|49=BLP|56=RBS1|34=348|52=20110221-01:27:01|10=191||0|
M|349|0|0|I|20110221-01:27:31.261|72|8=FIX.4.1|9=0048|35=0|49=BLP|56=RBS1|34=349|52=20110221-01:27:31|10=195||0|
M|350|0|0|I|20110221-01:28:01.263|72|8=FIX.4.1|9=0048|35=0|49=BLP|56=RBS1|34=350|52=20110221-01:28:01|10=185||0|
M|351|0|0|I|20110221-01:28:31.263|72|8=FIX.4.1|9=0048|35=0|49=BLP|56=RBS1|34=351|52=20110221-01:28:31|10=189||0|
M|352|0|0|I|20110221-01:29:01.263|72|8=FIX.4.1|9=0048|35=0|49=BLP|56=RBS1|34=352|52=20110221-01:29:01|10=188||0|
M|353|0|0|I|20110221-01:29:31.265|72|8=FIX.4.1|9=0048|35=0|49=BLP|56=RBS1|34=353|52=20110221-01:29:31|10=192||0|
M|354|0|0|I|20110221-01:30:01.265|72|8=FIX.4.1|9=0048|35=0|49=BLP|56=RBS1|34=354|52=20110221-01:30:01|10=182||0|
M|355|0|0|I|20110221-01:30:31.267|72|8=FIX.4.1|9=0048|35=0|49=BLP|56=RBS1|34=355|52=20110221-01:30:31|10=186||0|
M|356|0|D|I|20110221-01:30:51.311|198|8=FIX.4.1|9=0174|35=D|49=BLP|56=RBS1|34=356|50=4531818|57=RBS1|52=20110221-01:30:51|38=166500|40=1|11=20110221-00001|15=HKD|75=20110221|48=6073556|109=HENAD|21=3|22=2|54=2|55=941|207=HK|59=0|10=166||0|
M|357|0|0|I|20110221-01:31:21.311|72|8=FIX.4.1|9=0048|35=0|49=BLP|56=RBS1|34=357|52=20110221-01:31:21|10=188||0|
M|358|0|0|I|20110221-01:31:51.311|72|8=FIX.4.1|9=0048|35=0|49=BLP|56=RBS1|34=358|52=20110221-01:31:51|10=192||0|
M|359|0|1|I|20110221-01:31:51.312|100|8=FIX.4.1|9=0076|35=1|49=BLP|56=RBS1|34=359|52=20110221-01:31:51|112=C.0005.0167.0166.013151|10=027||0|
M|360|0|0|I|20110221-01:32:21.311|72|8=FIX.4.1|9=0048|35=0|49=BLP|56=RBS1|34=360|52=20110221-01:32:21|10=183||0|
M|361|0|0|I|20110221-01:32:51.313|72|8=FIX.4.1|9=0048|35=0|49=BLP|56=RBS1|34=361|52=20110221-01:32:51|10=187||0|
M|362|0|0|I|20110221-01:33:21.313|72|8=FIX.4.1|9=0048|35=0|49=BLP|56=RBS1|34=362|52=20110221-01:33:21|10=186||0|
M|363|0|0|I|20110221-01:33:51.313|72|8=FIX.4.1|9=0048|35=0|49=BLP|56=RBS1|34=363|52=20110221-01:33:51|10=190||0|
M|364|0|0|I|20110221-01:34:21.313|72|8=FIX.4.1|9=0048|35=0|49=BLP|56=RBS1|34=364|52=20110221-01:34:21|10=189||0|
M|365|0|0|I|20110221-01:34:51.313|72|8=FIX.4.1|9=0048|35=0|49=BLP|56=RBS1|34=365|52=20110221-01:34:51|10=193||0|
M|366|0|0|I|20110221-01:35:21.315|72|8=FIX.4.1|9=0048|35=0|49=BLP|56=RBS1|34=366|52=20110221-01:35:21|10=192||0|
M|367|0|0|I|20110221-01:35:51.315|72|8=FIX.4.1|9=0048|35=0|49=BLP|56=RBS1|34=367|52=20110221-01:35:51|10=196||0|
M|368|0|0|I|20110221-01:36:21.315|72|8=FIX.4.1|9=0048|35=0|49=BLP|56=RBS1|34=368|52=20110221-01:36:21|10=195||0|
M|369|0|0|I|20110221-01:36:51.315|72|8=FIX.4.1|9=0048|35=0|49=BLP|56=RBS1|34=369|52=20110221-01:36:51|10=199||0|
M|370|0|0|I|20110221-01:37:21.317|72|8=FIX.4.1|9=0048|35=0|49=BLP|56=RBS1|34=370|52=20110221-01:37:21|10=189||0|
M|371|0|0|I|20110221-01:37:51.317|72|8=FIX.4.1|9=0048|35=0|49=BLP|56=RBS1|34=371|52=20110221-01:37:51|10=193||0|
M|372|0|0|I|20110221-01:38:21.317|72|8=FIX.4.1|9=0048|35=0|49=BLP|56=RBS1|34=372|52=20110221-01:38:21|10=192||0|
M|373|0|0|I|20110221-01:38:51.317|72|8=FIX.4.1|9=0048|35=0|49=BLP|56=RBS1|34=373|52=20110221-01:38:51|10=196||0|
M|374|0|0|I|20110221-01:39:21.317|72|8=FIX.4.1|9=0048|35=0|49=BLP|56=RBS1|34=374|52=20110221-01:39:21|10=195||0|
M|375|0|0|I|20110221-01:39:51.319|72|8=FIX.4.1|9=0048|35=0|49=BLP|56=RBS1|34=375|52=20110221-01:39:51|10=199||0|
M|376|0|0|I|20110221-01:40:21.321|72|8=FIX.4.1|9=0048|35=0|49=BLP|56=RBS1|34=376|52=20110221-01:40:21|10=189||0|
M|377|0|0|I|20110221-01:40:51.321|72|8=FIX.4.1|9=0048|35=0|49=BLP|56=RBS1|34=377|52=20110221-01:40:51|10=193||0|
M|378|0|0|I|20110221-01:41:21.321|72|8=FIX.4.1|9=0048|35=0|49=BLP|56=RBS1|34=378|52=20110221-01:41:21|10=192||0|
M|379|0|0|I|20110221-01:41:51.321|72|8=FIX.4.1|9=0048|35=0|49=BLP|56=RBS1|34=379|52=20110221-01:41:51|10=196||0|
M|380|0|0|I|20110221-01:42:21.321|72|8=FIX.4.1|9=0048|35=0|49=BLP|56=RBS1|34=380|52=20110221-01:42:21|10=186||0|
M|381|0|0|I|20110221-01:42:51.321|72|8=FIX.4.1|9=0048|35=0|49=BLP|56=RBS1|34=381|52=20110221-01:42:51|10=190||0|
M|382|0|0|I|20110221-01:43:21.321|72|8=FIX.4.1|9=0048|35=0|49=BLP|56=RBS1|34=382|52=20110221-01:43:21|10=189||0|
M|383|0|0|I|20110221-01:43:51.321|72|8=FIX.4.1|9=0048|35=0|49=BLP|56=RBS1|34=383|52=20110221-01:43:51|10=193||0|
M|384|0|0|I|20110221-01:44:21.323|72|8=FIX.4.1|9=0048|35=0|49=BLP|56=RBS1|34=384|52=20110221-01:44:21|10=192||0|
M|385|0|0|I|20110221-01:44:51.325|72|8=FIX.4.1|9=0048|35=0|49=BLP|56=RBS1|34=385|52=20110221-01:44:51|10=196||0|
M|386|0|0|I|20110221-01:45:21.325|72|8=FIX.4.1|9=0048|35=0|49=BLP|56=RBS1|34=386|52=20110221-01:45:21|10=195||0|
M|387|0|0|I|20110221-01:45:51.327|72|8=FIX.4.1|9=0048|35=0|49=BLP|56=RBS1|34=387|52=20110221-01:45:51|10=199||0|
M|388|0|0|I|20110221-01:46:21.327|72|8=FIX.4.1|9=0048|35=0|49=BLP|56=RBS1|34=388|52=20110221-01:46:21|10=198||0|
M|389|0|0|I|20110221-01:46:51.329|72|8=FIX.4.1|9=0048|35=0|49=BLP|56=RBS1|34=389|52=20110221-01:46:51|10=202||0|
M|390|0|0|I|20110221-01:47:21.329|72|8=FIX.4.1|9=0048|35=0|49=BLP|56=RBS1|34=390|52=20110221-01:47:21|10=192||0|
M|391|0|0|I|20110221-01:47:51.329|72|8=FIX.4.1|9=0048|35=0|49=BLP|56=RBS1|34=391|52=20110221-01:47:51|10=196||0|
M|392|0|0|I|20110221-01:48:21.329|72|8=FIX.4.1|9=0048|35=0|49=BLP|56=RBS1|34=392|52=20110221-01:48:21|10=195||0|
M|393|0|0|I|20110221-01:48:51.329|72|8=FIX.4.1|9=0048|35=0|49=BLP|56=RBS1|34=393|52=20110221-01:48:51|10=199||0|
M|394|0|0|I|20110221-01:49:21.331|72|8=FIX.4.1|9=0048|35=0|49=BLP|56=RBS1|34=394|52=20110221-01:49:21|10=198||0|
M|395|0|0|I|20110221-01:49:51.331|72|8=FIX.4.1|9=0048|35=0|49=BLP|56=RBS1|34=395|52=20110221-01:49:51|10=202||0|
M|396|0|0|I|20110221-01:50:21.331|72|8=FIX.4.1|9=0048|35=0|49=BLP|56=RBS1|34=396|52=20110221-01:50:21|10=192||0|
M|397|0|0|I|20110221-01:50:51.333|72|8=FIX.4.1|9=0048|35=0|49=BLP|56=RBS1|34=397|52=20110221-01:50:51|10=196||0|
M|398|0|0|I|20110221-01:51:21.333|72|8=FIX.4.1|9=0048|35=0|49=BLP|56=RBS1|34=398|52=20110221-01:51:21|10=195||0|
M|399|0|0|I|20110221-01:51:51.333|72|8=FIX.4.1|9=0048|35=0|49=BLP|56=RBS1|34=399|52=20110221-01:51:51|10=199||0|
M|400|0|0|I|20110221-01:52:21.335|72|8=FIX.4.1|9=0048|35=0|49=BLP|56=RBS1|34=400|52=20110221-01:52:21|10=180||0|
M|401|0|0|I|20110221-01:52:51.335|72|8=FIX.4.1|9=0048|35=0|49=BLP|56=RBS1|34=401|52=20110221-01:52:51|10=184||0|
M|402|0|0|I|20110221-01:53:21.335|72|8=FIX.4.1|9=0048|35=0|49=BLP|56=RBS1|34=402|52=20110221-01:53:21|10=183||0|
M|403|0|0|I|20110221-01:53:51.335|72|8=FIX.4.1|9=0048|35=0|49=BLP|56=RBS1|34=403|52=20110221-01:53:51|10=187||0|
M|404|0|0|I|20110221-01:54:21.335|72|8=FIX.4.1|9=0048|35=0|49=BLP|56=RBS1|34=404|52=20110221-01:54:21|10=186||0|
M|405|0|0|I|20110221-01:54:51.337|72|8=FIX.4.1|9=0048|35=0|49=BLP|56=RBS1|34=405|52=20110221-01:54:51|10=190||0|
M|406|0|0|I|20110221-01:55:21.337|72|8=FIX.4.1|9=0048|35=0|49=BLP|56=RBS1|34=406|52=20110221-01:55:21|10=189||0|
M|407|0|0|I|20110221-01:55:51.337|72|8=FIX.4.1|9=0048|35=0|49=BLP|56=RBS1|34=407|52=20110221-01:55:51|10=193||0|
M|408|0|0|I|20110221-01:56:21.337|72|8=FIX.4.1|9=0048|35=0|49=BLP|56=RBS1|34=408|52=20110221-01:56:21|10=192||0|
M|409|0|0|I|20110221-01:56:51.339|72|8=FIX.4.1|9=0048|35=0|49=BLP|56=RBS1|34=409|52=20110221-01:56:51|10=196||0|
M|410|0|0|I|20110221-01:57:21.339|72|8=FIX.4.1|9=0048|35=0|49=BLP|56=RBS1|34=410|52=20110221-01:57:21|10=186||0|
M|411|0|0|I|20110221-01:57:51.339|72|8=FIX.4.1|9=0048|35=0|49=BLP|56=RBS1|34=411|52=20110221-01:57:51|10=190||0|
M|412|0|0|I|20110221-01:58:21.339|72|8=FIX.4.1|9=0048|35=0|49=BLP|56=RBS1|34=412|52=20110221-01:58:21|10=189||0|
M|413|0|0|I|20110221-01:58:51.341|72|8=FIX.4.1|9=0048|35=0|49=BLP|56=RBS1|34=413|52=20110221-01:58:51|10=193||0|
M|414|0|0|I|20110221-01:59:21.341|72|8=FIX.4.1|9=0048|35=0|49=BLP|56=RBS1|34=414|52=20110221-01:59:21|10=192||0|
M|415|0|0|I|20110221-01:59:51.341|72|8=FIX.4.1|9=0048|35=0|49=BLP|56=RBS1|34=415|52=20110221-01:59:51|10=196||0|
M|416|0|0|I|20110221-02:00:21.341|72|8=FIX.4.1|9=0048|35=0|49=BLP|56=RBS1|34=416|52=20110221-02:00:21|10=181||0|
M|417|0|0|I|20110221-02:00:51.343|72|8=FIX.4.1|9=0048|35=0|49=BLP|56=RBS1|34=417|52=20110221-02:00:51|10=185||0|
M|418|0|0|I|20110221-02:01:21.343|72|8=FIX.4.1|9=0048|35=0|49=BLP|56=RBS1|34=418|52=20110221-02:01:21|10=184||0|
M|419|0|0|I|20110221-02:01:51.345|72|8=FIX.4.1|9=0048|35=0|49=BLP|56=RBS1|34=419|52=20110221-02:01:51|10=188||0|
M|420|0|0|I|20110221-02:02:21.345|72|8=FIX.4.1|9=0048|35=0|49=BLP|56=RBS1|34=420|52=20110221-02:02:21|10=178||0|
M|421|0|0|I|20110221-02:02:51.345|72|8=FIX.4.1|9=0048|35=0|49=BLP|56=RBS1|34=421|52=20110221-02:02:51|10=182||0|
M|422|0|0|I|20110221-02:03:21.345|72|8=FIX.4.1|9=0048|35=0|49=BLP|56=RBS1|34=422|52=20110221-02:03:21|10=181||0|
M|423|0|0|I|20110221-02:03:51.345|72|8=FIX.4.1|9=0048|35=0|49=BLP|56=RBS1|34=423|52=20110221-02:03:51|10=185||0|
M|424|0|0|I|20110221-02:04:21.345|72|8=FIX.4.1|9=0048|35=0|49=BLP|56=RBS1|34=424|52=20110221-02:04:21|10=184||0|
M|425|0|0|I|20110221-02:04:51.345|72|8=FIX.4.1|9=0048|35=0|49=BLP|56=RBS1|34=425|52=20110221-02:04:51|10=188||0|
M|426|0|0|I|20110221-02:05:21.347|72|8=FIX.4.1|9=0048|35=0|49=BLP|56=RBS1|34=426|52=20110221-02:05:21|10=187||0|
M|427|0|0|I|20110221-02:05:51.347|72|8=FIX.4.1|9=0048|35=0|49=BLP|56=RBS1|34=427|52=20110221-02:05:51|10=191||0|
M|428|0|0|I|20110221-02:06:21.347|72|8=FIX.4.1|9=0048|35=0|49=BLP|56=RBS1|34=428|52=20110221-02:06:21|10=190||0|
M|429|0|0|I|20110221-02:06:51.349|72|8=FIX.4.1|9=0048|35=0|49=BLP|56=RBS1|34=429|52=20110221-02:06:51|10=194||0|
M|430|0|0|I|20110221-02:07:21.349|72|8=FIX.4.1|9=0048|35=0|49=BLP|56=RBS1|34=430|52=20110221-02:07:21|10=184||0|
M|431|0|0|I|20110221-02:07:51.351|72|8=FIX.4.1|9=0048|35=0|49=BLP|56=RBS1|34=431|52=20110221-02:07:51|10=188||0|
M|432|0|0|I|20110221-02:08:21.351|72|8=FIX.4.1|9=0048|35=0|49=BLP|56=RBS1|34=432|52=20110221-02:08:21|10=187||0|
M|433|0|0|I|20110221-02:08:51.353|72|8=FIX.4.1|9=0048|35=0|49=BLP|56=RBS1|34=433|52=20110221-02:08:51|10=191||0|
M|434|0|0|I|20110221-02:09:21.353|72|8=FIX.4.1|9=0048|35=0|49=BLP|56=RBS1|34=434|52=20110221-02:09:21|10=190||0|
M|435|0|0|I|20110221-02:09:51.355|72|8=FIX.4.1|9=0048|35=0|49=BLP|56=RBS1|34=435|52=20110221-02:09:51|10=194||0|
M|436|0|0|I|20110221-02:10:21.355|72|8=FIX.4.1|9=0048|35=0|49=BLP|56=RBS1|34=436|52=20110221-02:10:21|10=184||0|
M|437|0|0|I|20110221-02:10:51.355|72|8=FIX.4.1|9=0048|35=0|49=BLP|56=RBS1|34=437|52=20110221-02:10:51|10=188||0|
M|438|0|0|I|20110221-02:11:21.355|72|8=FIX.4.1|9=0048|35=0|49=BLP|56=RBS1|34=438|52=20110221-02:11:21|10=187||0|
M|439|0|0|I|20110221-02:11:51.357|72|8=FIX.4.1|9=0048|35=0|49=BLP|56=RBS1|34=439|52=20110221-02:11:51|10=191||0|
M|440|0|0|I|20110221-02:12:21.359|72|8=FIX.4.1|9=0048|35=0|49=BLP|56=RBS1|34=440|52=20110221-02:12:21|10=181||0|
M|441|0|0|I|20110221-02:12:51.357|72|8=FIX.4.1|9=0048|35=0|49=BLP|56=RBS1|34=441|52=20110221-02:12:51|10=185||0|
M|442|0|0|I|20110221-02:13:21.359|72|8=FIX.4.1|9=0048|35=0|49=BLP|56=RBS1|34=442|52=20110221-02:13:21|10=184||0|
M|443|0|0|I|20110221-02:13:51.359|72|8=FIX.4.1|9=0048|35=0|49=BLP|56=RBS1|34=443|52=20110221-02:13:51|10=188||0|
M|444|0|0|I|20110221-02:14:21.359|72|8=FIX.4.1|9=0048|35=0|49=BLP|56=RBS1|34=444|52=20110221-02:14:21|10=187||0|
M|445|0|0|I|20110221-02:14:51.361|72|8=FIX.4.1|9=0048|35=0|49=BLP|56=RBS1|34=445|52=20110221-02:14:51|10=191||0|
M|446|0|0|I|20110221-02:15:21.361|72|8=FIX.4.1|9=0048|35=0|49=BLP|56=RBS1|34=446|52=20110221-02:15:21|10=190||0|
M|447|0|0|I|20110221-02:15:51.361|72|8=FIX.4.1|9=0048|35=0|49=BLP|56=RBS1|34=447|52=20110221-02:15:51|10=194||0|
M|448|0|0|I|20110221-02:16:21.363|72|8=FIX.4.1|9=0048|35=0|49=BLP|56=RBS1|34=448|52=20110221-02:16:21|10=193||0|
M|449|0|0|I|20110221-02:16:51.363|72|8=FIX.4.1|9=0048|35=0|49=BLP|56=RBS1|34=449|52=20110221-02:16:51|10=197||0|
M|450|0|0|I|20110221-02:17:21.365|72|8=FIX.4.1|9=0048|35=0|49=BLP|56=RBS1|34=450|52=20110221-02:17:21|10=187||0|
M|451|0|0|I|20110221-02:17:51.365|72|8=FIX.4.1|9=0048|35=0|49=BLP|56=RBS1|34=451|52=20110221-02:17:51|10=191||0|
M|452|0|0|I|20110221-02:18:21.365|72|8=FIX.4.1|9=0048|35=0|49=BLP|56=RBS1|34=452|52=20110221-02:18:21|10=190||0|
M|453|0|0|I|20110221-02:18:51.365|72|8=FIX.4.1|9=0048|35=0|49=BLP|56=RBS1|34=453|52=20110221-02:18:51|10=194||0|
M|454|0|0|I|20110221-02:19:21.367|72|8=FIX.4.1|9=0048|35=0|49=BLP|56=RBS1|34=454|52=20110221-02:19:21|10=193||0|
M|455|0|0|I|20110221-02:19:51.367|72|8=FIX.4.1|9=0048|35=0|49=BLP|56=RBS1|34=455|52=20110221-02:19:51|10=197||0|
M|456|0|0|I|20110221-02:20:21.367|72|8=FIX.4.1|9=0048|35=0|49=BLP|56=RBS1|34=456|52=20110221-02:20:21|10=187||0|
M|457|0|0|I|20110221-02:20:51.367|72|8=FIX.4.1|9=0048|35=0|49=BLP|56=RBS1|34=457|52=20110221-02:20:51|10=191||0|
M|458|0|0|I|20110221-02:21:21.367|72|8=FIX.4.1|9=0048|35=0|49=BLP|56=RBS1|34=458|52=20110221-02:21:21|10=190||0|
M|459|0|0|I|20110221-02:21:51.369|72|8=FIX.4.1|9=0048|35=0|49=BLP|56=RBS1|34=459|52=20110221-02:21:51|10=194||0|
M|460|0|0|I|20110221-02:22:21.369|72|8=FIX.4.1|9=0048|35=0|49=BLP|56=RBS1|34=460|52=20110221-02:22:21|10=184||0|
M|461|0|D|I|20110221-02:22:21.887|227|8=FIX.4.1|9=0203|35=D|49=BLP|56=RBS1|34=461|50=3668395|57=RBS1|52=20110221-02:22:21|126=20110225-23:59:59|38=13080|40=2|11=20110221-00002|44=3.5|15=USD|75=20110221|48=B15KY76|109=GRASE|21=2|22=2|54=2|55=WEAT|207=LN|59=6|10=002||0|
M|462|0|0|I|20110221-02:22:51.889|72|8=FIX.4.1|9=0048|35=0|49=BLP|56=RBS1|34=462|52=20110221-02:22:51|10=189||0|
M|463|0|1|I|20110221-02:23:21.889|100|8=FIX.4.1|9=0076|35=1|49=BLP|56=RBS1|34=463|52=20110221-02:23:21|112=C.0168.01CF.01D3.022321|10=070||0|
M|464|0|0|I|20110221-02:23:51.889|72|8=FIX.4.1|9=0048|35=0|49=BLP|56=RBS1|34=464|52=20110221-02:23:51|10=192||0|
M|465|0|0|I|20110221-02:24:21.891|72|8=FIX.4.1|9=0048|35=0|49=BLP|56=RBS1|34=465|52=20110221-02:24:21|10=191||0|
M|466|0|0|I|20110221-02:24:51.891|72|8=FIX.4.1|9=0048|35=0|49=BLP|56=RBS1|34=466|52=20110221-02:24:51|10=195||0|
M|467|0|0|I|20110221-02:25:21.893|72|8=FIX.4.1|9=0048|35=0|49=BLP|56=RBS1|34=467|52=20110221-02:25:21|10=194||0|
M|468|0|0|I|20110221-02:25:51.893|72|8=FIX.4.1|9=0048|35=0|49=BLP|56=RBS1|34=468|52=20110221-02:25:51|10=198||0|
M|469|0|0|I|20110221-02:26:21.893|72|8=FIX.4.1|9=0048|35=0|49=BLP|56=RBS1|34=469|52=20110221-02:26:21|10=197||0|
M|470|0|0|I|20110221-02:26:51.895|72|8=FIX.4.1|9=0048|35=0|49=BLP|56=RBS1|34=470|52=20110221-02:26:51|10=192||0|
M|471|0|0|I|20110221-02:27:21.897|72|8=FIX.4.1|9=0048|35=0|49=BLP|56=RBS1|34=471|52=20110221-02:27:21|10=191||0|
M|472|0|0|I|20110221-02:27:51.897|72|8=FIX.4.1|9=0048|35=0|49=BLP|56=RBS1|34=472|52=20110221-02:27:51|10=195||0|
M|473|0|0|I|20110221-02:28:21.899|72|8=FIX.4.1|9=0048|35=0|49=BLP|56=RBS1|34=473|52=20110221-02:28:21|10=194||0|
M|474|0|0|I|20110221-02:28:51.899|72|8=FIX.4.1|9=0048|35=0|49=BLP|56=RBS1|34=474|52=20110221-02:28:51|10=198||0|
M|475|0|0|I|20110221-02:29:21.901|72|8=FIX.4.1|9=0048|35=0|49=BLP|56=RBS1|34=475|52=20110221-02:29:21|10=197||0|
M|476|0|0|I|20110221-02:29:52.977|72|8=FIX.4.1|9=0048|35=0|49=BLP|56=RBS1|34=476|52=20110221-02:29:51|10=201||0|
M|477|0|0|I|20110221-02:30:21.901|72|8=FIX.4.1|9=0048|35=0|49=BLP|56=RBS1|34=477|52=20110221-02:30:21|10=191||0|
M|478|0|0|I|20110221-02:30:51.901|72|8=FIX.4.1|9=0048|35=0|49=BLP|56=RBS1|34=478|52=20110221-02:30:51|10=195||0|
M|479|0|0|I|20110221-02:31:21.903|72|8=FIX.4.1|9=0048|35=0|49=BLP|56=RBS1|34=479|52=20110221-02:31:21|10=194||0|
M|480|0|0|I|20110221-02:31:51.903|72|8=FIX.4.1|9=0048|35=0|49=BLP|56=RBS1|34=480|52=20110221-02:31:51|10=189||0|
M|481|0|0|I|20110221-02:32:21.903|72|8=FIX.4.1|9=0048|35=0|49=BLP|56=RBS1|34=481|52=20110221-02:32:21|10=188||0|
M|482|0|0|I|20110221-02:32:51.905|72|8=FIX.4.1|9=0048|35=0|49=BLP|56=RBS1|34=482|52=20110221-02:32:51|10=192||0|
M|483|0|0|I|20110221-02:33:21.905|72|8=FIX.4.1|9=0048|35=0|49=BLP|56=RBS1|34=483|52=20110221-02:33:21|10=191||0|
M|484|0|0|I|20110221-02:33:51.905|72|8=FIX.4.1|9=0048|35=0|49=BLP|56=RBS1|34=484|52=20110221-02:33:51|10=195||0|
M|485|0|0|I|20110221-02:34:21.905|72|8=FIX.4.1|9=0048|35=0|49=BLP|56=RBS1|34=485|52=20110221-02:34:21|10=194||0|
M|486|0|0|I|20110221-02:34:51.907|72|8=FIX.4.1|9=0048|35=0|49=BLP|56=RBS1|34=486|52=20110221-02:34:51|10=198||0|
M|487|0|0|I|20110221-02:35:21.907|72|8=FIX.4.1|9=0048|35=0|49=BLP|56=RBS1|34=487|52=20110221-02:35:21|10=197||0|
M|488|0|0|I|20110221-02:35:51.907|72|8=FIX.4.1|9=0048|35=0|49=BLP|56=RBS1|34=488|52=20110221-02:35:51|10=201||0|
M|489|0|0|I|20110221-02:36:21.907|72|8=FIX.4.1|9=0048|35=0|49=BLP|56=RBS1|34=489|52=20110221-02:36:21|10=200||0|
M|490|0|0|I|20110221-02:36:51.909|72|8=FIX.4.1|9=0048|35=0|49=BLP|56=RBS1|34=490|52=20110221-02:36:51|10=195||0|
M|491|0|0|I|20110221-02:37:21.909|72|8=FIX.4.1|9=0048|35=0|49=BLP|56=RBS1|34=491|52=20110221-02:37:21|10=194||0|
M|492|0|0|I|20110221-02:37:51.909|72|8=FIX.4.1|9=0048|35=0|49=BLP|56=RBS1|34=492|52=20110221-02:37:51|10=198||0|
M|493|0|0|I|20110221-02:38:21.909|72|8=FIX.4.1|9=0048|35=0|49=BLP|56=RBS1|34=493|52=20110221-02:38:21|10=197||0|
M|494|0|0|I|20110221-02:38:51.909|72|8=FIX.4.1|9=0048|35=0|49=BLP|56=RBS1|34=494|52=20110221-02:38:51|10=201||0|
M|495|0|0|I|20110221-02:39:21.909|72|8=FIX.4.1|9=0048|35=0|49=BLP|56=RBS1|34=495|52=20110221-02:39:21|10=200||0|
M|496|0|0|I|20110221-02:39:51.911|72|8=FIX.4.1|9=0048|35=0|49=BLP|56=RBS1|34=496|52=20110221-02:39:51|10=204||0|
M|497|0|Q|I|20110221-02:40:00.731|191|8=FIX.4.1|9=0167|35=Q|49=BLP|56=RBS1|34=497|50=4766193|57=RBS1|52=20110221-02:40:00|31=0|32=0|37=04702070LO|127=Z|38=85|17=2598196|54=1|55=MTI|58=error:ccimapdb database error finding|10=231||0|
M|498|0|Q|I|20110221-02:40:00.741|205|8=FIX.4.1|9=0181|35=Q|49=BLP|56=RBS1|34=498|50=3668395|57=RBS1|52=20110221-02:40:00|31=0|32=0|37=05005407LO|127=Z|38=13080|17=2507738|54=2|55=WEAT|58=Problem: DK'd as order has been force canceled.|10=186||0|
M|499|0|Q|I|20110221-02:40:00.751|203|8=FIX.4.1|9=0179|35=Q|49=BLP|56=RBS1|34=499|50=4551796|57=RBS1|52=20110221-02:40:00|31=0|32=0|37=05017339LO|127=Z|38=1000|17=2598199|54=2|55=SAN|58=Problem: DK'd as order has been force canceled.|10=071||0|
M|500|0|Q|I|20110221-02:40:00.759|193|8=FIX.4.1|9=0169|35=Q|49=BLP|56=RBS1|34=500|50=4974947|57=RBS1|52=20110221-02:40:00|31=0|32=0|37=04910134LO|127=Z|38=1100|17=2545377|54=1|55=CEZ|58=error:ccimapdb database error finding|10=042||0|
M|501|0|Q|I|20110221-02:40:00.799|205|8=FIX.4.1|9=0181|35=Q|49=BLP|56=RBS1|34=501|50=6514436|57=RBS1|52=20110221-02:40:00|31=0|32=0|37=05007360LO|127=Z|38=15300|17=2545731|54=2|55=OTLD|58=Problem: DK'd as order has been force canceled.|10=154||0|
M|502|0|Q|I|20110221-02:40:00.817|202|8=FIX.4.1|9=0178|35=Q|49=BLP|56=RBS1|34=502|50=33806|57=RBS1|52=20110221-02:40:00|31=0|32=0|37=05022430LO|127=Z|38=50000|17=2503225|54=2|55=RBS|58=Problem: DK'd as order has been force canceled.|10=219||0|
M|503|0|Q|I|20110221-02:40:00.824|204|8=FIX.4.1|9=0180|35=Q|49=BLP|56=RBS1|34=503|50=4797021|57=RBS1|52=20110221-02:40:00|31=0|32=0|37=05023507LO|127=Z|38=4000|17=2509236|54=1|55=BKIR|58=Problem: DK'd as order has been force canceled.|10=092||0|
M|504|0|Q|I|20110221-02:40:00.835|201|8=FIX.4.1|9=0177|35=Q|49=BLP|56=RBS1|34=504|50=33806|57=RBS1|52=20110221-02:40:00|31=0|32=0|37=05023878LO|127=Z|38=300|17=1765436|54=2|55=PHIA|58=Problem: DK'd as order has been force canceled.|10=211||0|
M|505|0|Q|I|20110221-02:40:00.849|200|8=FIX.4.1|9=0176|35=Q|49=BLP|56=RBS1|34=505|50=33806|57=RBS1|52=20110221-02:40:00|31=0|32=0|37=05023879LO|127=Z|38=150|17=2600085|54=2|55=ALV|58=Problem: DK'd as order has been force canceled.|10=141||0|
M|506|0|Q|I|20110221-02:40:00.861|201|8=FIX.4.1|9=0177|35=Q|49=BLP|56=RBS1|34=506|50=33806|57=RBS1|52=20110221-02:40:00|31=0|32=0|37=05023880LO|127=Z|38=150|17=2510189|54=2|55=MUV2|58=Problem: DK'd as order has been force canceled.|10=211||0|
M|507|0|Q|I|20110221-02:40:00.871|200|8=FIX.4.1|9=0176|35=Q|49=BLP|56=RBS1|34=507|50=33806|57=RBS1|52=20110221-02:40:00|31=0|32=0|37=05023967LO|127=Z|38=200|17=2510243|54=1|55=GLE|58=Problem: DK'd as order has been force canceled.|10=121||0|
M|508|0|Q|I|20110221-02:40:00.905|200|8=FIX.4.1|9=0176|35=Q|49=BLP|56=RBS1|34=508|50=33806|57=RBS1|52=20110221-02:40:00|31=0|32=0|37=05023965LO|127=Z|38=250|17=1760657|54=2|55=BNP|58=Problem: DK'd as order has been force canceled.|10=149||0|
M|509|0|Q|I|20110221-02:40:00.917|199|8=FIX.4.1|9=0175|35=Q|49=BLP|56=RBS1|34=509|50=33806|57=RBS1|52=20110221-02:40:00|31=0|32=0|37=05023977LO|127=Z|38=100|17=2600087|54=1|55=MC|58=Problem: DK'd as order has been force canceled.|10=056||0|
M|510|0|Q|I|20110221-02:40:00.943|203|8=FIX.4.1|9=0179|35=Q|49=BLP|56=RBS1|34=510|50=133818|57=RBS1|52=20110221-02:40:00|31=0|32=0|37=05023980LO|127=Z|38=30000|17=2545735|54=2|55=FTE|58=Problem: DK'd as order has been force canceled.|10=028||0|
M|511|0|Q|I|20110221-02:40:00.951|191|8=FIX.4.1|9=0167|35=Q|49=BLP|56=RBS1|34=511|50=4766193|57=RBS1|52=20110221-02:40:00|31=0|32=0|37=04702070LO|127=Z|38=85|17=2635014|54=1|55=MTI|58=error:ccimapdb database error finding|10=199||0|
M|512|0|Q|I|20110221-02:40:00.959|201|8=FIX.4.1|9=0177|35=Q|49=BLP|56=RBS1|34=512|50=33806|57=RBS1|52=20110221-02:40:00|31=0|32=0|37=05023878LO|127=Z|38=300|17=2560273|54=2|55=PHIA|58=Problem: DK'd as order has been force canceled.|10=203||0|
M|513|0|Q|I|20110221-02:40:00.967|200|8=FIX.4.1|9=0176|35=Q|49=BLP|56=RBS1|34=513|50=33806|57=RBS1|52=20110221-02:40:00|31=0|32=0|37=05023965LO|127=Z|38=250|17=2560274|54=2|55=BNP|58=Problem: DK'd as order has been force canceled.|10=139||0|
M|514|0|Q|I|20110221-02:40:00.975|200|8=FIX.4.1|9=0176|35=Q|49=BLP|56=RBS1|34=514|50=33806|57=RBS1|52=20110221-02:40:00|31=0|32=0|37=05023967LO|127=Z|38=200|17=2568072|54=1|55=GLE|58=Problem: DK'd as order has been force canceled.|10=132||0|
M|515|0|Q|I|20110221-02:40:00.982|199|8=FIX.4.1|9=0175|35=Q|49=BLP|56=RBS1|34=515|50=33806|57=RBS1|52=20110221-02:40:00|31=0|32=0|37=05023977LO|127=Z|38=100|17=2568074|54=1|55=MC|58=Problem: DK'd as order has been force canceled.|10=062||0|
M|516|0|Q|I|20110221-02:40:00.990|203|8=FIX.4.1|9=0179|35=Q|49=BLP|56=RBS1|34=516|50=133818|57=RBS1|52=20110221-02:40:00|31=0|32=0|37=05023980LO|127=Z|38=30000|17=2568076|54=2|55=FTE|58=Problem: DK'd as order has been force canceled.|10=037||0|
M|517|0|Q|I|20110221-02:40:00.997|205|8=FIX.4.1|9=0181|35=Q|49=BLP|56=RBS1|34=517|50=3668395|57=RBS1|52=20110221-02:40:00|31=0|32=0|37=05005407LO|127=Z|38=13080|17=2650003|54=2|55=WEAT|58=Problem: DK'd as order has been force canceled.|10=162||0|
M|518|0|Q|I|20110221-02:40:01.005|205|8=FIX.4.1|9=0181|35=Q|49=BLP|56=RBS1|34=518|50=6514436|57=RBS1|52=20110221-02:40:00|31=0|32=0|37=05007360LO|127=Z|38=15300|17=2682675|54=2|55=OTLD|58=Problem: DK'd as order has been force canceled.|10=171||0|
M|519|0|Q|I|20110221-02:40:01.013|202|8=FIX.4.1|9=0178|35=Q|49=BLP|56=RBS1|34=519|50=33806|57=RBS1|52=20110221-02:40:00|31=0|32=0|37=05022430LO|127=Z|38=50000|17=2725443|54=2|55=RBS|58=Problem: DK'd as order has been force canceled.|10=235||0|
M|520|0|Q|I|20110221-02:40:01.020|203|8=FIX.4.1|9=0179|35=Q|49=BLP|56=RBS1|34=520|50=4797021|57=RBS1|52=20110221-02:40:00|31=0|32=0|37=05023507LO|127=Z|38=4000|17=699835|54=1|55=BKIR|58=Problem: DK'd as order has been force canceled.|10=064||0|
M|521|0|Q|I|20110221-02:40:01.028|203|8=FIX.4.1|9=0179|35=Q|49=BLP|56=RBS1|34=521|50=6158952|57=RBS1|52=20110221-02:40:00|31=0|32=0|37=05001665LO|127=C|38=50000|17=147982|54=2|55=VNI|58=Problem:error in execution report prob overfill|10=026||0|
M|522|0|0|I|20110221-02:40:30.989|72|8=FIX.4.1|9=0048|35=0|49=BLP|56=RBS1|34=522|52=20110221-02:40:30|10=183||0|
M|523|0|1|I|20110221-02:41:00.733|100|8=FIX.4.1|9=0076|35=1|49=BLP|56=RBS1|34=523|52=20110221-02:41:00|112=C.01D0.020B.0210.024100|10=024||0|
M|524|0|0|I|20110221-02:41:30.733|72|8=FIX.4.1|9=0048|35=0|49=BLP|56=RBS1|34=524|52=20110221-02:41:30|10=186||0|
M|525|0|0|I|20110221-02:42:00.733|72|8=FIX.4.1|9=0048|35=0|49=BLP|56=RBS1|34=525|52=20110221-02:42:00|10=185||0|
M|526|0|0|I|20110221-02:42:30.735|72|8=FIX.4.1|9=0048|35=0|49=BLP|56=RBS1|34=526|52=20110221-02:42:30|10=189||0|
M|527|0|0|I|20110221-02:43:00.735|72|8=FIX.4.1|9=0048|35=0|49=BLP|56=RBS1|34=527|52=20110221-02:43:00|10=188||0|
M|528|0|0|I|20110221-02:43:30.735|72|8=FIX.4.1|9=0048|35=0|49=BLP|56=RBS1|34=528|52=20110221-02:43:30|10=192||0|
M|529|0|0|I|20110221-02:44:00.735|72|8=FIX.4.1|9=0048|35=0|49=BLP|56=RBS1|34=529|52=20110221-02:44:00|10=191||0|
M|530|0|0|I|20110221-02:44:30.735|72|8=FIX.4.1|9=0048|35=0|49=BLP|56=RBS1|34=530|52=20110221-02:44:30|10=186||0|
M|531|0|0|I|20110221-02:45:00.737|72|8=FIX.4.1|9=0048|35=0|49=BLP|56=RBS1|34=531|52=20110221-02:45:00|10=185||0|
M|532|0|0|I|20110221-02:45:30.737|72|8=FIX.4.1|9=0048|35=0|49=BLP|56=RBS1|34=532|52=20110221-02:45:30|10=189||0|
M|533|0|0|I|20110221-02:46:00.737|72|8=FIX.4.1|9=0048|35=0|49=BLP|56=RBS1|34=533|52=20110221-02:46:00|10=188||0|
M|534|0|0|I|20110221-02:46:30.737|72|8=FIX.4.1|9=0048|35=0|49=BLP|56=RBS1|34=534|52=20110221-02:46:30|10=192||0|
M|535|0|0|I|20110221-02:47:00.737|72|8=FIX.4.1|9=0048|35=0|49=BLP|56=RBS1|34=535|52=20110221-02:47:00|10=191||0|
M|536|0|0|I|20110221-02:47:30.739|72|8=FIX.4.1|9=0048|35=0|49=BLP|56=RBS1|34=536|52=20110221-02:47:30|10=195||0|
M|537|0|0|I|20110221-02:48:00.739|72|8=FIX.4.1|9=0048|35=0|49=BLP|56=RBS1|34=537|52=20110221-02:48:00|10=194||0|
M|538|0|0|I|20110221-02:48:30.739|72|8=FIX.4.1|9=0048|35=0|49=BLP|56=RBS1|34=538|52=20110221-02:48:30|10=198||0|
M|539|0|0|I|20110221-02:49:00.741|72|8=FIX.4.1|9=0048|35=0|49=BLP|56=RBS1|34=539|52=20110221-02:49:00|10=197||0|
M|540|0|0|I|20110221-02:49:30.741|72|8=FIX.4.1|9=0048|35=0|49=BLP|56=RBS1|34=540|52=20110221-02:49:30|10=192||0|
M|541|0|0|I|20110221-02:50:00.741|72|8=FIX.4.1|9=0048|35=0|49=BLP|56=RBS1|34=541|52=20110221-02:50:00|10=182||0|
M|542|0|0|I|20110221-02:50:30.741|72|8=FIX.4.1|9=0048|35=0|49=BLP|56=RBS1|34=542|52=20110221-02:50:30|10=186||0|
M|543|0|0|I|20110221-02:51:00.743|72|8=FIX.4.1|9=0048|35=0|49=BLP|56=RBS1|34=543|52=20110221-02:51:00|10=185||0|
M|544|0|0|I|20110221-02:51:30.743|72|8=FIX.4.1|9=0048|35=0|49=BLP|56=RBS1|34=544|52=20110221-02:51:30|10=189||0|
M|545|0|0|I|20110221-02:52:00.745|72|8=FIX.4.1|9=0048|35=0|49=BLP|56=RBS1|34=545|52=20110221-02:52:00|10=188||0|
M|546|0|0|I|20110221-02:52:30.745|72|8=FIX.4.1|9=0048|35=0|49=BLP|56=RBS1|34=546|52=20110221-02:52:30|10=192||0|
M|547|0|0|I|20110221-02:53:00.745|72|8=FIX.4.1|9=0048|35=0|49=BLP|56=RBS1|34=547|52=20110221-02:53:00|10=191||0|
M|548|0|0|I|20110221-02:53:30.747|72|8=FIX.4.1|9=0048|35=0|49=BLP|56=RBS1|34=548|52=20110221-02:53:30|10=195||0|
M|549|0|0|I|20110221-02:54:00.747|72|8=FIX.4.1|9=0048|35=0|49=BLP|56=RBS1|34=549|52=20110221-02:54:00|10=194||0|
M|550|0|0|I|20110221-02:54:30.747|72|8=FIX.4.1|9=0048|35=0|49=BLP|56=RBS1|34=550|52=20110221-02:54:30|10=189||0|
M|551|0|0|I|20110221-02:55:00.747|72|8=FIX.4.1|9=0048|35=0|49=BLP|56=RBS1|34=551|52=20110221-02:55:00|10=188||0|
M|552|0|0|I|20110221-02:55:30.747|72|8=FIX.4.1|9=0048|35=0|49=BLP|56=RBS1|34=552|52=20110221-02:55:30|10=192||0|
M|553|0|0|I|20110221-02:56:00.749|72|8=FIX.4.1|9=0048|35=0|49=BLP|56=RBS1|34=553|52=20110221-02:56:00|10=191||0|
M|554|0|0|I|20110221-02:56:30.749|72|8=FIX.4.1|9=0048|35=0|49=BLP|56=RBS1|34=554|52=20110221-02:56:30|10=195||0|
M|555|0|0|I|20110221-02:57:00.749|72|8=FIX.4.1|9=0048|35=0|49=BLP|56=RBS1|34=555|52=20110221-02:57:00|10=194||0|
M|556|0|0|I|20110221-02:57:30.751|72|8=FIX.4.1|9=0048|35=0|49=BLP|56=RBS1|34=556|52=20110221-02:57:30|10=198||0|
M|557|0|0|I|20110221-02:58:00.751|72|8=FIX.4.1|9=0048|35=0|49=BLP|56=RBS1|34=557|52=20110221-02:58:00|10=197||0|
M|558|0|0|I|20110221-02:58:30.753|72|8=FIX.4.1|9=0048|35=0|49=BLP|56=RBS1|34=558|52=20110221-02:58:30|10=201||0|
M|559|0|0|I|20110221-02:59:00.753|72|8=FIX.4.1|9=0048|35=0|49=BLP|56=RBS1|34=559|52=20110221-02:59:00|10=200||0|
M|560|0|0|I|20110221-02:59:30.753|72|8=FIX.4.1|9=0048|35=0|49=BLP|56=RBS1|34=560|52=20110221-02:59:30|10=195||0|
M|561|0|0|I|20110221-03:00:00.755|72|8=FIX.4.1|9=0048|35=0|49=BLP|56=RBS1|34=561|52=20110221-03:00:00|10=180||0|
M|562|0|0|I|20110221-03:00:30.757|72|8=FIX.4.1|9=0048|35=0|49=BLP|56=RBS1|34=562|52=20110221-03:00:30|10=184||0|
M|563|0|0|I|20110221-03:01:00.757|72|8=FIX.4.1|9=0048|35=0|49=BLP|56=RBS1|34=563|52=20110221-03:01:00|10=183||0|
M|564|0|0|I|20110221-03:01:30.759|72|8=FIX.4.1|9=0048|35=0|49=BLP|56=RBS1|34=564|52=20110221-03:01:30|10=187||0|
M|565|0|0|I|20110221-03:02:00.759|72|8=FIX.4.1|9=0048|35=0|49=BLP|56=RBS1|34=565|52=20110221-03:02:00|10=186||0|
M|566|0|0|I|20110221-03:02:30.759|72|8=FIX.4.1|9=0048|35=0|49=BLP|56=RBS1|34=566|52=20110221-03:02:30|10=190||0|
M|567|0|0|I|20110221-03:03:00.761|72|8=FIX.4.1|9=0048|35=0|49=BLP|56=RBS1|34=567|52=20110221-03:03:00|10=189||0|
M|568|0|0|I|20110221-03:03:30.761|72|8=FIX.4.1|9=0048|35=0|49=BLP|56=RBS1|34=568|52=20110221-03:03:30|10=193||0|
M|569|0|0|I|20110221-03:04:00.761|72|8=FIX.4.1|9=0048|35=0|49=BLP|56=RBS1|34=569|52=20110221-03:04:00|10=192||0|
M|570|0|0|I|20110221-03:04:30.761|72|8=FIX.4.1|9=0048|35=0|49=BLP|56=RBS1|34=570|52=20110221-03:04:30|10=187||0|
M|571|0|0|I|20110221-03:05:00.763|72|8=FIX.4.1|9=0048|35=0|49=BLP|56=RBS1|34=571|52=20110221-03:05:00|10=186||0|
M|572|0|0|I|20110221-03:05:30.763|72|8=FIX.4.1|9=0048|35=0|49=BLP|56=RBS1|34=572|52=20110221-03:05:30|10=190||0|
M|573|0|0|I|20110221-03:06:00.763|72|8=FIX.4.1|9=0048|35=0|49=BLP|56=RBS1|34=573|52=20110221-03:06:00|10=189||0|
M|574|0|0|I|20110221-03:06:30.765|72|8=FIX.4.1|9=0048|35=0|49=BLP|56=RBS1|34=574|52=20110221-03:06:30|10=193||0|
M|575|0|0|I|20110221-03:07:00.765|72|8=FIX.4.1|9=0048|35=0|49=BLP|56=RBS1|34=575|52=20110221-03:07:00|10=192||0|
M|576|0|0|I|20110221-03:07:30.765|72|8=FIX.4.1|9=0048|35=0|49=BLP|56=RBS1|34=576|52=20110221-03:07:30|10=196||0|
M|577|0|0|I|20110221-03:08:00.767|72|8=FIX.4.1|9=0048|35=0|49=BLP|56=RBS1|34=577|52=20110221-03:08:00|10=195||0|
M|578|0|0|I|20110221-03:08:30.767|72|8=FIX.4.1|9=0048|35=0|49=BLP|56=RBS1|34=578|52=20110221-03:08:30|10=199||0|
M|579|0|0|I|20110221-03:09:00.767|72|8=FIX.4.1|9=0048|35=0|49=BLP|56=RBS1|34=579|52=20110221-03:09:00|10=198||0|
M|580|0|0|I|20110221-03:09:30.769|72|8=FIX.4.1|9=0048|35=0|49=BLP|56=RBS1|34=580|52=20110221-03:09:30|10=193||0|
M|581|0|0|I|20110221-03:10:00.769|72|8=FIX.4.1|9=0048|35=0|49=BLP|56=RBS1|34=581|52=20110221-03:10:00|10=183||0|
M|582|0|0|I|20110221-03:10:30.769|72|8=FIX.4.1|9=0048|35=0|49=BLP|56=RBS1|34=582|52=20110221-03:10:30|10=187||0|
M|583|0|0|I|20110221-03:11:00.769|72|8=FIX.4.1|9=0048|35=0|49=BLP|56=RBS1|34=583|52=20110221-03:11:00|10=186||0|
M|584|0|0|I|20110221-03:11:30.771|72|8=FIX.4.1|9=0048|35=0|49=BLP|56=RBS1|34=584|52=20110221-03:11:30|10=190||0|
M|585|0|0|I|20110221-03:12:00.771|72|8=FIX.4.1|9=0048|35=0|49=BLP|56=RBS1|34=585|52=20110221-03:12:00|10=189||0|
M|586|0|0|I|20110221-03:12:30.773|72|8=FIX.4.1|9=0048|35=0|49=BLP|56=RBS1|34=586|52=20110221-03:12:30|10=193||0|
M|587|0|0|I|20110221-03:13:00.773|72|8=FIX.4.1|9=0048|35=0|49=BLP|56=RBS1|34=587|52=20110221-03:13:00|10=192||0|
M|588|0|0|I|20110221-03:13:30.773|72|8=FIX.4.1|9=0048|35=0|49=BLP|56=RBS1|34=588|52=20110221-03:13:30|10=196||0|
M|589|0|0|I|20110221-03:14:00.773|72|8=FIX.4.1|9=0048|35=0|49=BLP|56=RBS1|34=589|52=20110221-03:14:00|10=195||0|
M|590|0|0|I|20110221-03:14:30.775|72|8=FIX.4.1|9=0048|35=0|49=BLP|56=RBS1|34=590|52=20110221-03:14:30|10=190||0|
M|591|0|0|I|20110221-03:15:00.775|72|8=FIX.4.1|9=0048|35=0|49=BLP|56=RBS1|34=591|52=20110221-03:15:00|10=189||0|
M|592|0|0|I|20110221-03:15:30.775|72|8=FIX.4.1|9=0048|35=0|49=BLP|56=RBS1|34=592|52=20110221-03:15:30|10=193||0|
M|593|0|0|I|20110221-03:16:00.777|72|8=FIX.4.1|9=0048|35=0|49=BLP|56=RBS1|34=593|52=20110221-03:16:00|10=192||0|
M|594|0|0|I|20110221-03:16:30.777|72|8=FIX.4.1|9=0048|35=0|49=BLP|56=RBS1|34=594|52=20110221-03:16:30|10=196||0|
M|595|0|0|I|20110221-03:17:00.777|72|8=FIX.4.1|9=0048|35=0|49=BLP|56=RBS1|34=595|52=20110221-03:17:00|10=195||0|
M|596|0|0|I|20110221-03:17:30.779|72|8=FIX.4.1|9=0048|35=0|49=BLP|56=RBS1|34=596|52=20110221-03:17:30|10=199||0|
M|597|0|0|I|20110221-03:18:00.779|72|8=FIX.4.1|9=0048|35=0|49=BLP|56=RBS1|34=597|52=20110221-03:18:00|10=198||0|
M|598|0|0|I|20110221-03:18:30.779|72|8=FIX.4.1|9=0048|35=0|49=BLP|56=RBS1|34=598|52=20110221-03:18:30|10=202||0|
M|599|0|0|I|20110221-03:19:00.781|72|8=FIX.4.1|9=0048|35=0|49=BLP|56=RBS1|34=599|52=20110221-03:19:00|10=201||0|
M|600|0|0|I|20110221-03:19:30.781|72|8=FIX.4.1|9=0048|35=0|49=BLP|56=RBS1|34=600|52=20110221-03:19:30|10=187||0|
M|601|0|0|I|20110221-03:20:00.781|72|8=FIX.4.1|9=0048|35=0|49=BLP|56=RBS1|34=601|52=20110221-03:20:00|10=177||0|
M|602|0|0|I|20110221-03:20:30.783|72|8=FIX.4.1|9=0048|35=0|49=BLP|56=RBS1|34=602|52=20110221-03:20:30|10=181||0|
M|603|0|0|I|20110221-03:21:00.783|72|8=FIX.4.1|9=0048|35=0|49=BLP|56=RBS1|34=603|52=20110221-03:21:00|10=180||0|
M|604|0|0|I|20110221-03:21:30.785|72|8=FIX.4.1|9=0048|35=0|49=BLP|56=RBS1|34=604|52=20110221-03:21:30|10=184||0|
M|605|0|0|I|20110221-03:22:00.785|72|8=FIX.4.1|9=0048|35=0|49=BLP|56=RBS1|34=605|52=20110221-03:22:00|10=183||0|
M|606|0|0|I|20110221-03:22:30.785|72|8=FIX.4.1|9=0048|35=0|49=BLP|56=RBS1|34=606|52=20110221-03:22:30|10=187||0|
M|607|0|0|I|20110221-03:23:00.787|72|8=FIX.4.1|9=0048|35=0|49=BLP|56=RBS1|34=607|52=20110221-03:23:00|10=186||0|
M|608|0|0|I|20110221-03:23:30.787|72|8=FIX.4.1|9=0048|35=0|49=BLP|56=RBS1|34=608|52=20110221-03:23:30|10=190||0|
M|609|0|0|I|20110221-03:24:00.789|72|8=FIX.4.1|9=0048|35=0|49=BLP|56=RBS1|34=609|52=20110221-03:24:00|10=189||0|
M|610|0|0|I|20110221-03:24:30.789|72|8=FIX.4.1|9=0048|35=0|49=BLP|56=RBS1|34=610|52=20110221-03:24:30|10=184||0|
M|611|0|0|I|20110221-03:25:00.789|72|8=FIX.4.1|9=0048|35=0|49=BLP|56=RBS1|34=611|52=20110221-03:25:00|10=183||0|
M|612|0|0|I|20110221-03:25:30.791|72|8=FIX.4.1|9=0048|35=0|49=BLP|56=RBS1|34=612|52=20110221-03:25:30|10=187||0|
M|613|0|0|I|20110221-03:26:00.791|72|8=FIX.4.1|9=0048|35=0|49=BLP|56=RBS1|34=613|52=20110221-03:26:00|10=186||0|
M|614|0|0|I|20110221-03:26:30.793|72|8=FIX.4.1|9=0048|35=0|49=BLP|56=RBS1|34=614|52=20110221-03:26:30|10=190||0|
M|615|0|0|I|20110221-03:27:00.793|72|8=FIX.4.1|9=0048|35=0|49=BLP|56=RBS1|34=615|52=20110221-03:27:00|10=189||0|
M|616|0|0|I|20110221-03:27:30.793|72|8=FIX.4.1|9=0048|35=0|49=BLP|56=RBS1|34=616|52=20110221-03:27:30|10=193||0|
M|617|0|0|I|20110221-03:28:00.793|72|8=FIX.4.1|9=0048|35=0|49=BLP|56=RBS1|34=617|52=20110221-03:28:00|10=192||0|
M|618|0|0|I|20110221-03:28:30.793|72|8=FIX.4.1|9=0048|35=0|49=BLP|56=RBS1|34=618|52=20110221-03:28:30|10=196||0|
M|619|0|0|I|20110221-03:29:00.795|72|8=FIX.4.1|9=0048|35=0|49=BLP|56=RBS1|34=619|52=20110221-03:29:00|10=195||0|
M|620|0|0|I|20110221-03:29:30.793|72|8=FIX.4.1|9=0048|35=0|49=BLP|56=RBS1|34=620|52=20110221-03:29:30|10=190||0|
M|621|0|0|I|20110221-03:30:00.795|72|8=FIX.4.1|9=0048|35=0|49=BLP|56=RBS1|34=621|52=20110221-03:30:00|10=180||0|
M|622|0|0|I|20110221-03:30:30.795|72|8=FIX.4.1|9=0048|35=0|49=BLP|56=RBS1|34=622|52=20110221-03:30:30|10=184||0|
M|623|0|0|I|20110221-03:31:00.795|72|8=FIX.4.1|9=0048|35=0|49=BLP|56=RBS1|34=623|52=20110221-03:31:00|10=183||0|
M|624|0|0|I|20110221-03:31:30.797|72|8=FIX.4.1|9=0048|35=0|49=BLP|56=RBS1|34=624|52=20110221-03:31:30|10=187||0|
M|625|0|0|I|20110221-03:32:00.797|72|8=FIX.4.1|9=0048|35=0|49=BLP|56=RBS1|34=625|52=20110221-03:32:00|10=186||0|
M|626|0|0|I|20110221-03:32:30.797|72|8=FIX.4.1|9=0048|35=0|49=BLP|56=RBS1|34=626|52=20110221-03:32:30|10=190||0|
M|627|0|0|I|20110221-03:33:00.797|72|8=FIX.4.1|9=0048|35=0|49=BLP|56=RBS1|34=627|52=20110221-03:33:00|10=189||0|
M|628|0|0|I|20110221-03:33:30.799|72|8=FIX.4.1|9=0048|35=0|49=BLP|56=RBS1|34=628|52=20110221-03:33:30|10=193||0|
M|629|0|0|I|20110221-03:34:00.799|72|8=FIX.4.1|9=0048|35=0|49=BLP|56=RBS1|34=629|52=20110221-03:34:00|10=192||0|
M|630|0|0|I|20110221-03:34:30.799|72|8=FIX.4.1|9=0048|35=0|49=BLP|56=RBS1|34=630|52=20110221-03:34:30|10=187||0|
M|631|0|0|I|20110221-03:35:00.799|72|8=FIX.4.1|9=0048|35=0|49=BLP|56=RBS1|34=631|52=20110221-03:35:00|10=186||0|
M|632|0|0|I|20110221-03:35:30.799|72|8=FIX.4.1|9=0048|35=0|49=BLP|56=RBS1|34=632|52=20110221-03:35:30|10=190||0|
M|633|0|0|I|20110221-03:36:00.799|72|8=FIX.4.1|9=0048|35=0|49=BLP|56=RBS1|34=633|52=20110221-03:36:00|10=189||0|
M|634|0|0|I|20110221-03:36:30.801|72|8=FIX.4.1|9=0048|35=0|49=BLP|56=RBS1|34=634|52=20110221-03:36:30|10=193||0|
M|635|0|0|I|20110221-03:37:00.801|72|8=FIX.4.1|9=0048|35=0|49=BLP|56=RBS1|34=635|52=20110221-03:37:00|10=192||0|
M|636|0|0|I|20110221-03:37:30.801|72|8=FIX.4.1|9=0048|35=0|49=BLP|56=RBS1|34=636|52=20110221-03:37:30|10=196||0|
M|637|0|0|I|20110221-03:38:00.801|72|8=FIX.4.1|9=0048|35=0|49=BLP|56=RBS1|34=637|52=20110221-03:38:00|10=195||0|
M|638|0|0|I|20110221-03:38:30.801|72|8=FIX.4.1|9=0048|35=0|49=BLP|56=RBS1|34=638|52=20110221-03:38:30|10=199||0|
M|639|0|0|I|20110221-03:39:00.801|72|8=FIX.4.1|9=0048|35=0|49=BLP|56=RBS1|34=639|52=20110221-03:39:00|10=198||0|
M|640|0|0|I|20110221-03:39:30.803|72|8=FIX.4.1|9=0048|35=0|49=BLP|56=RBS1|34=640|52=20110221-03:39:30|10=193||0|
M|641|0|0|I|20110221-03:40:00.803|72|8=FIX.4.1|9=0048|35=0|49=BLP|56=RBS1|34=641|52=20110221-03:40:00|10=183||0|
M|642|0|0|I|20110221-03:40:30.805|72|8=FIX.4.1|9=0048|35=0|49=BLP|56=RBS1|34=642|52=20110221-03:40:30|10=187||0|
M|643|0|0|I|20110221-03:41:00.805|72|8=FIX.4.1|9=0048|35=0|49=BLP|56=RBS1|34=643|52=20110221-03:41:00|10=186||0|
M|644|0|0|I|20110221-03:41:30.807|72|8=FIX.4.1|9=0048|35=0|49=BLP|56=RBS1|34=644|52=20110221-03:41:30|10=190||0|
M|645|0|0|I|20110221-03:42:00.807|72|8=FIX.4.1|9=0048|35=0|49=BLP|56=RBS1|34=645|52=20110221-03:42:00|10=189||0|
M|646|0|0|I|20110221-03:42:30.809|72|8=FIX.4.1|9=0048|35=0|49=BLP|56=RBS1|34=646|52=20110221-03:42:30|10=193||0|
M|647|0|0|I|20110221-03:43:00.809|72|8=FIX.4.1|9=0048|35=0|49=BLP|56=RBS1|34=647|52=20110221-03:43:00|10=192||0|
M|648|0|0|I|20110221-03:43:30.814|72|8=FIX.4.1|9=0048|35=0|49=BLP|56=RBS1|34=648|52=20110221-03:43:30|10=196||0|
M|649|0|0|I|20110221-03:44:00.811|72|8=FIX.4.1|9=0048|35=0|49=BLP|56=RBS1|34=649|52=20110221-03:44:00|10=195||0|
M|650|0|0|I|20110221-03:44:30.811|72|8=FIX.4.1|9=0048|35=0|49=BLP|56=RBS1|34=650|52=20110221-03:44:30|10=190||0|
M|651|0|0|I|20110221-03:45:00.811|72|8=FIX.4.1|9=0048|35=0|49=BLP|56=RBS1|34=651|52=20110221-03:45:00|10=189||0|
M|652|0|0|I|20110221-03:45:30.813|72|8=FIX.4.1|9=0048|35=0|49=BLP|56=RBS1|34=652|52=20110221-03:45:30|10=193||0|
M|653|0|0|I|20110221-03:46:00.813|72|8=FIX.4.1|9=0048|35=0|49=BLP|56=RBS1|34=653|52=20110221-03:46:00|10=192||0|
M|654|0|0|I|20110221-03:46:30.813|72|8=FIX.4.1|9=0048|35=0|49=BLP|56=RBS1|34=654|52=20110221-03:46:30|10=196||0|
M|655|0|0|I|20110221-03:47:00.813|72|8=FIX.4.1|9=0048|35=0|49=BLP|56=RBS1|34=655|52=20110221-03:47:00|10=195||0|
M|656|0|0|I|20110221-03:47:30.815|72|8=FIX.4.1|9=0048|35=0|49=BLP|56=RBS1|34=656|52=20110221-03:47:30|10=199||0|
M|657|0|0|I|20110221-03:48:00.815|72|8=FIX.4.1|9=0048|35=0|49=BLP|56=RBS1|34=657|52=20110221-03:48:00|10=198||0|
M|658|0|0|I|20110221-03:48:30.817|72|8=FIX.4.1|9=0048|35=0|49=BLP|56=RBS1|34=658|52=20110221-03:48:30|10=202||0|
M|659|0|0|I|20110221-03:49:00.817|72|8=FIX.4.1|9=0048|35=0|49=BLP|56=RBS1|34=659|52=20110221-03:49:00|10=201||0|
M|660|0|0|I|20110221-03:49:30.817|72|8=FIX.4.1|9=0048|35=0|49=BLP|56=RBS1|34=660|52=20110221-03:49:30|10=196||0|
M|661|0|0|I|20110221-03:50:00.817|72|8=FIX.4.1|9=0048|35=0|49=BLP|56=RBS1|34=661|52=20110221-03:50:00|10=186||0|
M|662|0|0|I|20110221-03:50:30.819|72|8=FIX.4.1|9=0048|35=0|49=BLP|56=RBS1|34=662|52=20110221-03:50:30|10=190||0|
M|663|0|0|I|20110221-03:51:00.819|72|8=FIX.4.1|9=0048|35=0|49=BLP|56=RBS1|34=663|52=20110221-03:51:00|10=189||0|
M|664|0|0|I|20110221-03:51:30.821|72|8=FIX.4.1|9=0048|35=0|49=BLP|56=RBS1|34=664|52=20110221-03:51:30|10=193||0|
M|665|0|0|I|20110221-03:52:00.823|72|8=FIX.4.1|9=0048|35=0|49=BLP|56=RBS1|34=665|52=20110221-03:52:00|10=192||0|
M|666|0|0|I|20110221-03:52:30.823|72|8=FIX.4.1|9=0048|35=0|49=BLP|56=RBS1|34=666|52=20110221-03:52:30|10=196||0|
M|667|0|0|I|20110221-03:53:00.825|72|8=FIX.4.1|9=0048|35=0|49=BLP|56=RBS1|34=667|52=20110221-03:53:00|10=195||0|
M|668|0|0|I|20110221-03:53:30.825|72|8=FIX.4.1|9=0048|35=0|49=BLP|56=RBS1|34=668|52=20110221-03:53:30|10=199||0|
M|669|0|0|I|20110221-03:54:00.825|72|8=FIX.4.1|9=0048|35=0|49=BLP|56=RBS1|34=669|52=20110221-03:54:00|10=198||0|
M|670|0|0|I|20110221-03:54:30.825|72|8=FIX.4.1|9=0048|35=0|49=BLP|56=RBS1|34=670|52=20110221-03:54:30|10=193||0|
M|671|0|0|I|20110221-03:55:00.825|72|8=FIX.4.1|9=0048|35=0|49=BLP|56=RBS1|34=671|52=20110221-03:55:00|10=192||0|
M|672|0|0|I|20110221-03:55:30.827|72|8=FIX.4.1|9=0048|35=0|49=BLP|56=RBS1|34=672|52=20110221-03:55:30|10=196||0|
M|673|0|0|I|20110221-03:56:00.827|72|8=FIX.4.1|9=0048|35=0|49=BLP|56=RBS1|34=673|52=20110221-03:56:00|10=195||0|
M|674|0|0|I|20110221-03:56:30.829|72|8=FIX.4.1|9=0048|35=0|49=BLP|56=RBS1|34=674|52=20110221-03:56:30|10=199||0|
M|675|0|0|I|20110221-03:57:00.827|72|8=FIX.4.1|9=0048|35=0|49=BLP|56=RBS1|34=675|52=20110221-03:57:00|10=198||0|
M|676|0|0|I|20110221-03:57:30.829|72|8=FIX.4.1|9=0048|35=0|49=BLP|56=RBS1|34=676|52=20110221-03:57:30|10=202||0|
M|677|0|0|I|20110221-03:58:00.829|72|8=FIX.4.1|9=0048|35=0|49=BLP|56=RBS1|34=677|52=20110221-03:58:00|10=201||0|
M|678|0|0|I|20110221-03:58:30.831|72|8=FIX.4.1|9=0048|35=0|49=BLP|56=RBS1|34=678|52=20110221-03:58:30|10=205||0|
M|679|0|0|I|20110221-03:59:00.831|72|8=FIX.4.1|9=0048|35=0|49=BLP|56=RBS1|34=679|52=20110221-03:59:00|10=204||0|
M|680|0|0|I|20110221-03:59:30.833|72|8=FIX.4.1|9=0048|35=0|49=BLP|56=RBS1|34=680|52=20110221-03:59:30|10=199||0|
M|681|0|0|I|20110221-04:00:00.833|72|8=FIX.4.1|9=0048|35=0|49=BLP|56=RBS1|34=681|52=20110221-04:00:00|10=184||0|
M|682|0|0|I|20110221-04:00:30.835|72|8=FIX.4.1|9=0048|35=0|49=BLP|56=RBS1|34=682|52=20110221-04:00:30|10=188||0|
M|683|0|0|I|20110221-04:01:00.835|72|8=FIX.4.1|9=0048|35=0|49=BLP|56=RBS1|34=683|52=20110221-04:01:00|10=187||0|
M|684|0|0|I|20110221-04:01:30.835|72|8=FIX.4.1|9=0048|35=0|49=BLP|56=RBS1|34=684|52=20110221-04:01:30|10=191||0|
M|685|0|0|I|20110221-04:02:00.835|72|8=FIX.4.1|9=0048|35=0|49=BLP|56=RBS1|34=685|52=20110221-04:02:00|10=190||0|
M|686|0|0|I|20110221-04:02:30.837|72|8=FIX.4.1|9=0048|35=0|49=BLP|56=RBS1|34=686|52=20110221-04:02:30|10=194||0|
M|687|0|0|I|20110221-04:03:00.837|72|8=FIX.4.1|9=0048|35=0|49=BLP|56=RBS1|34=687|52=20110221-04:03:00|10=193||0|
M|688|0|0|I|20110221-04:03:30.839|72|8=FIX.4.1|9=0048|35=0|49=BLP|56=RBS1|34=688|52=20110221-04:03:30|10=197||0|
M|689|0|0|I|20110221-04:04:00.839|72|8=FIX.4.1|9=0048|35=0|49=BLP|56=RBS1|34=689|52=20110221-04:04:00|10=196||0|
M|690|0|0|I|20110221-04:04:30.839|72|8=FIX.4.1|9=0048|35=0|49=BLP|56=RBS1|34=690|52=20110221-04:04:30|10=191||0|
M|691|0|0|I|20110221-04:05:00.839|72|8=FIX.4.1|9=0048|35=0|49=BLP|56=RBS1|34=691|52=20110221-04:05:00|10=190||0|
M|692|0|0|I|20110221-04:05:30.839|72|8=FIX.4.1|9=0048|35=0|49=BLP|56=RBS1|34=692|52=20110221-04:05:30|10=194||0|
M|693|0|0|I|20110221-04:06:00.841|72|8=FIX.4.1|9=0048|35=0|49=BLP|56=RBS1|34=693|52=20110221-04:06:00|10=193||0|
M|694|0|0|I|20110221-04:06:30.841|72|8=FIX.4.1|9=0048|35=0|49=BLP|56=RBS1|34=694|52=20110221-04:06:30|10=197||0|
M|695|0|0|I|20110221-04:07:00.841|72|8=FIX.4.1|9=0048|35=0|49=BLP|56=RBS1|34=695|52=20110221-04:07:00|10=196||0|
M|696|0|0|I|20110221-04:07:30.843|72|8=FIX.4.1|9=0048|35=0|49=BLP|56=RBS1|34=696|52=20110221-04:07:30|10=200||0|
M|697|0|0|I|20110221-04:08:00.843|72|8=FIX.4.1|9=0048|35=0|49=BLP|56=RBS1|34=697|52=20110221-04:08:00|10=199||0|
M|698|0|0|I|20110221-04:08:30.843|72|8=FIX.4.1|9=0048|35=0|49=BLP|56=RBS1|34=698|52=20110221-04:08:30|10=203||0|
M|699|0|0|I|20110221-04:09:00.843|72|8=FIX.4.1|9=0048|35=0|49=BLP|56=RBS1|34=699|52=20110221-04:09:00|10=202||0|
M|700|0|0|I|20110221-04:09:30.845|72|8=FIX.4.1|9=0048|35=0|49=BLP|56=RBS1|34=700|52=20110221-04:09:30|10=188||0|
M|701|0|0|I|20110221-04:10:00.847|72|8=FIX.4.1|9=0048|35=0|49=BLP|56=RBS1|34=701|52=20110221-04:10:00|10=178||0|
M|702|0|0|I|20110221-04:10:30.847|72|8=FIX.4.1|9=0048|35=0|49=BLP|56=RBS1|34=702|52=20110221-04:10:30|10=182||0|
M|703|0|0|I|20110221-04:11:00.849|72|8=FIX.4.1|9=0048|35=0|49=BLP|56=RBS1|34=703|52=20110221-04:11:00|10=181||0|
M|704|0|0|I|20110221-04:11:30.849|72|8=FIX.4.1|9=0048|35=0|49=BLP|56=RBS1|34=704|52=20110221-04:11:30|10=185||0|
M|705|0|0|I|20110221-04:12:00.849|72|8=FIX.4.1|9=0048|35=0|49=BLP|56=RBS1|34=705|52=20110221-04:12:00|10=184||0|
M|706|0|0|I|20110221-04:12:30.851|72|8=FIX.4.1|9=0048|35=0|49=BLP|56=RBS1|34=706|52=20110221-04:12:30|10=188||0|
M|707|0|0|I|20110221-04:13:00.851|72|8=FIX.4.1|9=0048|35=0|49=BLP|56=RBS1|34=707|52=20110221-04:13:00|10=187||0|
M|708|0|0|I|20110221-04:13:30.851|72|8=FIX.4.1|9=0048|35=0|49=BLP|56=RBS1|34=708|52=20110221-04:13:30|10=191||0|
M|709|0|0|I|20110221-04:14:00.853|72|8=FIX.4.1|9=0048|35=0|49=BLP|56=RBS1|34=709|52=20110221-04:14:00|10=190||0|
M|710|0|0|I|20110221-04:14:30.853|72|8=FIX.4.1|9=0048|35=0|49=BLP|56=RBS1|34=710|52=20110221-04:14:30|10=185||0|
M|711|0|0|I|20110221-04:15:00.855|72|8=FIX.4.1|9=0048|35=0|49=BLP|56=RBS1|34=711|52=20110221-04:15:00|10=184||0|
M|712|0|0|I|20110221-04:15:30.855|72|8=FIX.4.1|9=0048|35=0|49=BLP|56=RBS1|34=712|52=20110221-04:15:30|10=188||0|
M|713|0|0|I|20110221-04:16:00.855|72|8=FIX.4.1|9=0048|35=0|49=BLP|56=RBS1|34=713|52=20110221-04:16:00|10=187||0|
M|714|0|0|I|20110221-04:16:30.857|72|8=FIX.4.1|9=0048|35=0|49=BLP|56=RBS1|34=714|52=20110221-04:16:30|10=191||0|
M|715|0|0|I|20110221-04:17:00.857|72|8=FIX.4.1|9=0048|35=0|49=BLP|56=RBS1|34=715|52=20110221-04:17:00|10=190||0|
M|716|0|0|I|20110221-04:17:30.859|72|8=FIX.4.1|9=0048|35=0|49=BLP|56=RBS1|34=716|52=20110221-04:17:30|10=194||0|
M|717|0|0|I|20110221-04:18:00.859|72|8=FIX.4.1|9=0048|35=0|49=BLP|56=RBS1|34=717|52=20110221-04:18:00|10=193||0|
M|718|0|0|I|20110221-04:18:30.859|72|8=FIX.4.1|9=0048|35=0|49=BLP|56=RBS1|34=718|52=20110221-04:18:30|10=197||0|
M|719|0|0|I|20110221-04:19:00.859|72|8=FIX.4.1|9=0048|35=0|49=BLP|56=RBS1|34=719|52=20110221-04:19:00|10=196||0|
M|720|0|0|I|20110221-04:19:30.861|72|8=FIX.4.1|9=0048|35=0|49=BLP|56=RBS1|34=720|52=20110221-04:19:30|10=191||0|
M|721|0|0|I|20110221-04:20:00.861|72|8=FIX.4.1|9=0048|35=0|49=BLP|56=RBS1|34=721|52=20110221-04:20:00|10=181||0|
M|722|0|0|I|20110221-04:20:30.863|72|8=FIX.4.1|9=0048|35=0|49=BLP|56=RBS1|34=722|52=20110221-04:20:30|10=185||0|
M|723|0|0|I|20110221-04:21:00.863|72|8=FIX.4.1|9=0048|35=0|49=BLP|56=RBS1|34=723|52=20110221-04:21:00|10=184||0|
M|724|0|0|I|20110221-04:21:30.865|72|8=FIX.4.1|9=0048|35=0|49=BLP|56=RBS1|34=724|52=20110221-04:21:30|10=188||0|
M|725|0|0|I|20110221-04:22:00.865|72|8=FIX.4.1|9=0048|35=0|49=BLP|56=RBS1|34=725|52=20110221-04:22:00|10=187||0|
M|726|0|0|I|20110221-04:22:30.865|72|8=FIX.4.1|9=0048|35=0|49=BLP|56=RBS1|34=726|52=20110221-04:22:30|10=191||0|
M|727|0|0|I|20110221-04:23:00.867|72|8=FIX.4.1|9=0048|35=0|49=BLP|56=RBS1|34=727|52=20110221-04:23:00|10=190||0|
M|728|0|0|I|20110221-04:23:30.867|72|8=FIX.4.1|9=0048|35=0|49=BLP|56=RBS1|34=728|52=20110221-04:23:30|10=194||0|
M|729|0|0|I|20110221-04:24:00.867|72|8=FIX.4.1|9=0048|35=0|49=BLP|56=RBS1|34=729|52=20110221-04:24:00|10=193||0|
M|730|0|0|I|20110221-04:24:30.869|72|8=FIX.4.1|9=0048|35=0|49=BLP|56=RBS1|34=730|52=20110221-04:24:30|10=188||0|
M|731|0|0|I|20110221-04:25:00.869|72|8=FIX.4.1|9=0048|35=0|49=BLP|56=RBS1|34=731|52=20110221-04:25:00|10=187||0|
M|732|0|0|I|20110221-04:25:30.869|72|8=FIX.4.1|9=0048|35=0|49=BLP|56=RBS1|34=732|52=20110221-04:25:30|10=191||0|
M|733|0|0|I|20110221-04:26:00.871|72|8=FIX.4.1|9=0048|35=0|49=BLP|56=RBS1|34=733|52=20110221-04:26:00|10=190||0|
M|734|0|0|I|20110221-04:26:30.871|72|8=FIX.4.1|9=0048|35=0|49=BLP|56=RBS1|34=734|52=20110221-04:26:30|10=194||0|
M|735|0|0|I|20110221-04:27:00.871|72|8=FIX.4.1|9=0048|35=0|49=BLP|56=RBS1|34=735|52=20110221-04:27:00|10=193||0|
M|736|0|0|I|20110221-04:27:30.871|72|8=FIX.4.1|9=0048|35=0|49=BLP|56=RBS1|34=736|52=20110221-04:27:30|10=197||0|
M|737|0|0|I|20110221-04:28:00.871|72|8=FIX.4.1|9=0048|35=0|49=BLP|56=RBS1|34=737|52=20110221-04:28:00|10=196||0|
M|738|0|0|I|20110221-04:28:30.873|72|8=FIX.4.1|9=0048|35=0|49=BLP|56=RBS1|34=738|52=20110221-04:28:30|10=200||0|
M|739|0|0|I|20110221-04:29:00.873|72|8=FIX.4.1|9=0048|35=0|49=BLP|56=RBS1|34=739|52=20110221-04:29:00|10=199||0|
M|740|0|0|I|20110221-04:29:30.873|72|8=FIX.4.1|9=0048|35=0|49=BLP|56=RBS1|34=740|52=20110221-04:29:30|10=194||0|
M|741|0|0|I|20110221-04:30:00.873|72|8=FIX.4.1|9=0048|35=0|49=BLP|56=RBS1|34=741|52=20110221-04:30:00|10=184||0|
M|742|0|0|I|20110221-04:30:30.873|72|8=FIX.4.1|9=0048|35=0|49=BLP|56=RBS1|34=742|52=20110221-04:30:30|10=188||0|
M|743|0|0|I|20110221-04:31:00.875|72|8=FIX.4.1|9=0048|35=0|49=BLP|56=RBS1|34=743|52=20110221-04:31:00|10=187||0|
M|744|0|0|I|20110221-04:31:30.875|72|8=FIX.4.1|9=0048|35=0|49=BLP|56=RBS1|34=744|52=20110221-04:31:30|10=191||0|
M|745|0|0|I|20110221-04:32:00.875|72|8=FIX.4.1|9=0048|35=0|49=BLP|56=RBS1|34=745|52=20110221-04:32:00|10=190||0|
M|746|0|0|I|20110221-04:32:30.875|72|8=FIX.4.1|9=0048|35=0|49=BLP|56=RBS1|34=746|52=20110221-04:32:30|10=194||0|
M|747|0|0|I|20110221-04:33:00.875|72|8=FIX.4.1|9=0048|35=0|49=BLP|56=RBS1|34=747|52=20110221-04:33:00|10=193||0|
M|748|0|0|I|20110221-04:33:30.877|72|8=FIX.4.1|9=0048|35=0|49=BLP|56=RBS1|34=748|52=20110221-04:33:30|10=197||0|
M|749|0|0|I|20110221-04:34:00.877|72|8=FIX.4.1|9=0048|35=0|49=BLP|56=RBS1|34=749|52=20110221-04:34:00|10=196||0|
M|750|0|0|I|20110221-04:34:30.879|72|8=FIX.4.1|9=0048|35=0|49=BLP|56=RBS1|34=750|52=20110221-04:34:30|10=191||0|
M|751|0|0|I|20110221-04:35:00.879|72|8=FIX.4.1|9=0048|35=0|49=BLP|56=RBS1|34=751|52=20110221-04:35:00|10=190||0|
M|752|0|0|I|20110221-04:35:30.879|72|8=FIX.4.1|9=0048|35=0|49=BLP|56=RBS1|34=752|52=20110221-04:35:30|10=194||0|
M|753|0|0|I|20110221-04:36:00.881|72|8=FIX.4.1|9=0048|35=0|49=BLP|56=RBS1|34=753|52=20110221-04:36:00|10=193||0|
M|754|0|0|I|20110221-04:36:30.881|72|8=FIX.4.1|9=0048|35=0|49=BLP|56=RBS1|34=754|52=20110221-04:36:30|10=197||0|
M|755|0|0|I|20110221-04:37:00.881|72|8=FIX.4.1|9=0048|35=0|49=BLP|56=RBS1|34=755|52=20110221-04:37:00|10=196||0|
M|756|0|0|I|20110221-04:37:30.881|72|8=FIX.4.1|9=0048|35=0|49=BLP|56=RBS1|34=756|52=20110221-04:37:30|10=200||0|
M|757|0|0|I|20110221-04:38:00.881|72|8=FIX.4.1|9=0048|35=0|49=BLP|56=RBS1|34=757|52=20110221-04:38:00|10=199||0|
M|758|0|0|I|20110221-04:38:30.883|72|8=FIX.4.1|9=0048|35=0|49=BLP|56=RBS1|34=758|52=20110221-04:38:30|10=203||0|
M|759|0|0|I|20110221-04:39:00.883|72|8=FIX.4.1|9=0048|35=0|49=BLP|56=RBS1|34=759|52=20110221-04:39:00|10=202||0|
M|760|0|0|I|20110221-04:39:30.883|72|8=FIX.4.1|9=0048|35=0|49=BLP|56=RBS1|34=760|52=20110221-04:39:30|10=197||0|
M|761|0|0|I|20110221-04:40:00.885|72|8=FIX.4.1|9=0048|35=0|49=BLP|56=RBS1|34=761|52=20110221-04:40:00|10=187||0|
M|762|0|0|I|20110221-04:40:30.885|72|8=FIX.4.1|9=0048|35=0|49=BLP|56=RBS1|34=762|52=20110221-04:40:30|10=191||0|
M|763|0|0|I|20110221-04:41:00.885|72|8=FIX.4.1|9=0048|35=0|49=BLP|56=RBS1|34=763|52=20110221-04:41:00|10=190||0|
M|764|0|0|I|20110221-04:41:30.887|72|8=FIX.4.1|9=0048|35=0|49=BLP|56=RBS1|34=764|52=20110221-04:41:30|10=194||0|
M|765|0|0|I|20110221-04:42:00.887|72|8=FIX.4.1|9=0048|35=0|49=BLP|56=RBS1|34=765|52=20110221-04:42:00|10=193||0|
M|766|0|0|I|20110221-04:42:30.889|72|8=FIX.4.1|9=0048|35=0|49=BLP|56=RBS1|34=766|52=20110221-04:42:30|10=197||0|
M|767|0|0|I|20110221-04:43:00.889|72|8=FIX.4.1|9=0048|35=0|49=BLP|56=RBS1|34=767|52=20110221-04:43:00|10=196||0|
M|768|0|0|I|20110221-04:43:30.891|72|8=FIX.4.1|9=0048|35=0|49=BLP|56=RBS1|34=768|52=20110221-04:43:30|10=200||0|
M|769|0|0|I|20110221-04:44:00.891|72|8=FIX.4.1|9=0048|35=0|49=BLP|56=RBS1|34=769|52=20110221-04:44:00|10=199||0|
M|770|0|0|I|20110221-04:44:30.891|72|8=FIX.4.1|9=0048|35=0|49=BLP|56=RBS1|34=770|52=20110221-04:44:30|10=194||0|
M|771|0|0|I|20110221-04:45:00.893|72|8=FIX.4.1|9=0048|35=0|49=BLP|56=RBS1|34=771|52=20110221-04:45:00|10=193||0|
M|772|0|0|I|20110221-04:45:30.891|72|8=FIX.4.1|9=0048|35=0|49=BLP|56=RBS1|34=772|52=20110221-04:45:30|10=197||0|
M|773|0|0|I|20110221-04:46:00.893|72|8=FIX.4.1|9=0048|35=0|49=BLP|56=RBS1|34=773|52=20110221-04:46:00|10=196||0|
M|774|0|0|I|20110221-04:46:30.893|72|8=FIX.4.1|9=0048|35=0|49=BLP|56=RBS1|34=774|52=20110221-04:46:30|10=200||0|
M|775|0|0|I|20110221-04:47:00.895|72|8=FIX.4.1|9=0048|35=0|49=BLP|56=RBS1|34=775|52=20110221-04:47:00|10=199||0|
M|776|0|0|I|20110221-04:47:30.895|72|8=FIX.4.1|9=0048|35=0|49=BLP|56=RBS1|34=776|52=20110221-04:47:30|10=203||0|
M|777|0|0|I|20110221-04:48:00.897|72|8=FIX.4.1|9=0048|35=0|49=BLP|56=RBS1|34=777|52=20110221-04:48:00|10=202||0|
M|778|0|0|I|20110221-04:48:30.899|72|8=FIX.4.1|9=0048|35=0|49=BLP|56=RBS1|34=778|52=20110221-04:48:30|10=206||0|
M|779|0|0|I|20110221-04:49:00.899|72|8=FIX.4.1|9=0048|35=0|49=BLP|56=RBS1|34=779|52=20110221-04:49:00|10=205||0|
M|780|0|0|I|20110221-04:49:30.899|72|8=FIX.4.1|9=0048|35=0|49=BLP|56=RBS1|34=780|52=20110221-04:49:30|10=200||0|
M|781|0|0|I|20110221-04:50:00.899|72|8=FIX.4.1|9=0048|35=0|49=BLP|56=RBS1|34=781|52=20110221-04:50:00|10=190||0|
M|782|0|0|I|20110221-04:50:30.901|72|8=FIX.4.1|9=0048|35=0|49=BLP|56=RBS1|34=782|52=20110221-04:50:30|10=194||0|
M|783|0|0|I|20110221-04:51:00.901|72|8=FIX.4.1|9=0048|35=0|49=BLP|56=RBS1|34=783|52=20110221-04:51:00|10=193||0|
M|784|0|0|I|20110221-04:51:30.903|72|8=FIX.4.1|9=0048|35=0|49=BLP|56=RBS1|34=784|52=20110221-04:51:30|10=197||0|
M|785|0|0|I|20110221-04:52:00.903|72|8=FIX.4.1|9=0048|35=0|49=BLP|56=RBS1|34=785|52=20110221-04:52:00|10=196||0|
M|786|0|0|I|20110221-04:52:30.903|72|8=FIX.4.1|9=0048|35=0|49=BLP|56=RBS1|34=786|52=20110221-04:52:30|10=200||0|
M|787|0|0|I|20110221-04:53:00.905|72|8=FIX.4.1|9=0048|35=0|49=BLP|56=RBS1|34=787|52=20110221-04:53:00|10=199||0|
M|788|0|0|I|20110221-04:53:30.905|72|8=FIX.4.1|9=0048|35=0|49=BLP|56=RBS1|34=788|52=20110221-04:53:30|10=203||0|
M|789|0|0|I|20110221-04:54:00.905|72|8=FIX.4.1|9=0048|35=0|49=BLP|56=RBS1|34=789|52=20110221-04:54:00|10=202||0|
M|790|0|0|I|20110221-04:54:30.905|72|8=FIX.4.1|9=0048|35=0|49=BLP|56=RBS1|34=790|52=20110221-04:54:30|10=197||0|
M|791|0|0|I|20110221-04:55:00.907|72|8=FIX.4.1|9=0048|35=0|49=BLP|56=RBS1|34=791|52=20110221-04:55:00|10=196||0|
M|792|0|0|I|20110221-04:55:30.907|72|8=FIX.4.1|9=0048|35=0|49=BLP|56=RBS1|34=792|52=20110221-04:55:30|10=200||0|
M|793|0|0|I|20110221-04:56:00.909|72|8=FIX.4.1|9=0048|35=0|49=BLP|56=RBS1|34=793|52=20110221-04:56:00|10=199||0|
M|794|0|0|I|20110221-04:56:30.911|72|8=FIX.4.1|9=0048|35=0|49=BLP|56=RBS1|34=794|52=20110221-04:56:30|10=203||0|
M|795|0|0|I|20110221-04:57:00.911|72|8=FIX.4.1|9=0048|35=0|49=BLP|56=RBS1|34=795|52=20110221-04:57:00|10=202||0|
M|796|0|0|I|20110221-04:57:30.911|72|8=FIX.4.1|9=0048|35=0|49=BLP|56=RBS1|34=796|52=20110221-04:57:30|10=206||0|
M|797|0|0|I|20110221-04:58:00.913|72|8=FIX.4.1|9=0048|35=0|49=BLP|56=RBS1|34=797|52=20110221-04:58:00|10=205||0|
M|798|0|0|I|20110221-04:58:30.913|72|8=FIX.4.1|9=0048|35=0|49=BLP|56=RBS1|34=798|52=20110221-04:58:30|10=209||0|
M|799|0|0|I|20110221-04:59:00.915|72|8=FIX.4.1|9=0048|35=0|49=BLP|56=RBS1|34=799|52=20110221-04:59:00|10=208||0|
M|800|0|0|I|20110221-04:59:30.915|72|8=FIX.4.1|9=0048|35=0|49=BLP|56=RBS1|34=800|52=20110221-04:59:30|10=194||0|
M|801|0|0|I|20110221-05:00:00.915|72|8=FIX.4.1|9=0048|35=0|49=BLP|56=RBS1|34=801|52=20110221-05:00:00|10=179||0|
M|802|0|0|I|20110221-05:00:30.915|72|8=FIX.4.1|9=0048|35=0|49=BLP|56=RBS1|34=802|52=20110221-05:00:30|10=183||0|
M|803|0|0|I|20110221-05:01:00.917|72|8=FIX.4.1|9=0048|35=0|49=BLP|56=RBS1|34=803|52=20110221-05:01:00|10=182||0|
M|804|0|0|I|20110221-05:01:30.917|72|8=FIX.4.1|9=0048|35=0|49=BLP|56=RBS1|34=804|52=20110221-05:01:30|10=186||0|
M|805|0|0|I|20110221-05:02:00.917|72|8=FIX.4.1|9=0048|35=0|49=BLP|56=RBS1|34=805|52=20110221-05:02:00|10=185||0|
M|806|0|0|I|20110221-05:02:30.917|72|8=FIX.4.1|9=0048|35=0|49=BLP|56=RBS1|34=806|52=20110221-05:02:30|10=189||0|
M|807|0|0|I|20110221-05:03:00.917|72|8=FIX.4.1|9=0048|35=0|49=BLP|56=RBS1|34=807|52=20110221-05:03:00|10=188||0|
M|808|0|Q|I|20110221-05:03:01.657|201|8=FIX.4.1|9=0177|35=Q|49=BLP|56=RBS1|34=808|50=33806|57=RBS1|52=20110221-05:03:01|31=0|32=0|37=05023878LO|127=Z|38=300|17=2248199|54=2|55=PHIA|58=Problem: DK'd as order has been force canceled.|10=224||0|
M|809|0|Q|I|20110221-05:03:01.673|200|8=FIX.4.1|9=0176|35=Q|49=BLP|56=RBS1|34=809|50=33806|57=RBS1|52=20110221-05:03:01|31=0|32=0|37=05023967LO|127=Z|38=200|17=2239775|54=1|55=GLE|58=Problem: DK'd as order has been force canceled.|10=147||0|
M|810|0|Q|I|20110221-05:03:01.685|199|8=FIX.4.1|9=0175|35=Q|49=BLP|56=RBS1|34=810|50=33806|57=RBS1|52=20110221-05:03:01|31=0|32=0|37=05023977LO|127=Z|38=100|17=2246533|54=1|55=MC|58=Problem: DK'd as order has been force canceled.|10=056||0|
M|811|0|Q|I|20110221-05:03:02.125|198|8=FIX.4.1|9=0174|35=Q|49=BLP|56=RBS1|34=811|50=33806|57=RBS1|52=20110221-05:03:02|31=0|32=0|37=05023965LO|127=Z|38=250|17=74152|54=2|55=BNP|58=Problem: DK'd as order has been force canceled.|10=039||0|
M|812|0|Q|I|20110221-05:03:02.225|203|8=FIX.4.1|9=0179|35=Q|49=BLP|56=RBS1|34=812|50=133818|57=RBS1|52=20110221-05:03:02|31=0|32=0|37=05023980LO|127=Z|38=30000|17=1566005|54=2|55=FTE|58=Problem: DK'd as order has been force canceled.|10=029||0|
M|813|0|0|I|20110221-05:03:32.225|72|8=FIX.4.1|9=0048|35=0|49=BLP|56=RBS1|34=813|52=20110221-05:03:32|10=190||0|
M|814|0|1|I|20110221-05:04:01.659|100|8=FIX.4.1|9=0076|35=1|49=BLP|56=RBS1|34=814|52=20110221-05:04:01|112=C.020C.032E.0349.050401|10=052||0|
M|815|0|0|I|20110221-05:04:31.659|72|8=FIX.4.1|9=0048|35=0|49=BLP|56=RBS1|34=815|52=20110221-05:04:31|10=192||0|
M|816|0|0|I|20110221-05:05:01.661|72|8=FIX.4.1|9=0048|35=0|49=BLP|56=RBS1|34=816|52=20110221-05:05:01|10=191||0|
M|817|0|0|I|20110221-05:05:31.661|72|8=FIX.4.1|9=0048|35=0|49=BLP|56=RBS1|34=817|52=20110221-05:05:31|10=195||0|
M|818|0|0|I|20110221-05:06:01.661|72|8=FIX.4.1|9=0048|35=0|49=BLP|56=RBS1|34=818|52=20110221-05:06:01|10=194||0|
M|819|0|0|I|20110221-05:06:31.661|72|8=FIX.4.1|9=0048|35=0|49=BLP|56=RBS1|34=819|52=20110221-05:06:31|10=198||0|
M|820|0|0|I|20110221-05:07:01.663|72|8=FIX.4.1|9=0048|35=0|49=BLP|56=RBS1|34=820|52=20110221-05:07:01|10=188||0|
M|821|0|0|I|20110221-05:07:31.663|72|8=FIX.4.1|9=0048|35=0|49=BLP|56=RBS1|34=821|52=20110221-05:07:31|10=192||0|
M|822|0|0|I|20110221-05:08:01.665|72|8=FIX.4.1|9=0048|35=0|49=BLP|56=RBS1|34=822|52=20110221-05:08:01|10=191||0|
M|823|0|0|I|20110221-05:08:31.665|72|8=FIX.4.1|9=0048|35=0|49=BLP|56=RBS1|34=823|52=20110221-05:08:31|10=195||0|
M|824|0|0|I|20110221-05:09:01.665|72|8=FIX.4.1|9=0048|35=0|49=BLP|56=RBS1|34=824|52=20110221-05:09:01|10=194||0|
M|825|0|0|I|20110221-05:09:31.667|72|8=FIX.4.1|9=0048|35=0|49=BLP|56=RBS1|34=825|52=20110221-05:09:31|10=198||0|
M|826|0|0|I|20110221-05:10:01.667|72|8=FIX.4.1|9=0048|35=0|49=BLP|56=RBS1|34=826|52=20110221-05:10:01|10=188||0|
M|827|0|0|I|20110221-05:10:31.667|72|8=FIX.4.1|9=0048|35=0|49=BLP|56=RBS1|34=827|52=20110221-05:10:31|10=192||0|
M|828|0|0|I|20110221-05:11:01.669|72|8=FIX.4.1|9=0048|35=0|49=BLP|56=RBS1|34=828|52=20110221-05:11:01|10=191||0|
M|829|0|0|I|20110221-05:11:31.669|72|8=FIX.4.1|9=0048|35=0|49=BLP|56=RBS1|34=829|52=20110221-05:11:31|10=195||0|
M|830|0|0|I|20110221-05:12:01.669|72|8=FIX.4.1|9=0048|35=0|49=BLP|56=RBS1|34=830|52=20110221-05:12:01|10=185||0|
M|831|0|0|I|20110221-05:12:31.669|72|8=FIX.4.1|9=0048|35=0|49=BLP|56=RBS1|34=831|52=20110221-05:12:31|10=189||0|
M|832|0|0|I|20110221-05:13:01.669|72|8=FIX.4.1|9=0048|35=0|49=BLP|56=RBS1|34=832|52=20110221-05:13:01|10=188||0|
M|833|0|0|I|20110221-05:13:31.669|72|8=FIX.4.1|9=0048|35=0|49=BLP|56=RBS1|34=833|52=20110221-05:13:31|10=192||0|
M|834|0|0|I|20110221-05:14:01.671|72|8=FIX.4.1|9=0048|35=0|49=BLP|56=RBS1|34=834|52=20110221-05:14:01|10=191||0|
M|835|0|0|I|20110221-05:14:31.671|72|8=FIX.4.1|9=0048|35=0|49=BLP|56=RBS1|34=835|52=20110221-05:14:31|10=195||0|
M|836|0|0|I|20110221-05:15:01.671|72|8=FIX.4.1|9=0048|35=0|49=BLP|56=RBS1|34=836|52=20110221-05:15:01|10=194||0|
M|837|0|0|I|20110221-05:15:31.673|72|8=FIX.4.1|9=0048|35=0|49=BLP|56=RBS1|34=837|52=20110221-05:15:31|10=198||0|
M|838|0|0|I|20110221-05:16:01.673|72|8=FIX.4.1|9=0048|35=0|49=BLP|56=RBS1|34=838|52=20110221-05:16:01|10=197||0|
M|839|0|0|I|20110221-05:16:31.673|72|8=FIX.4.1|9=0048|35=0|49=BLP|56=RBS1|34=839|52=20110221-05:16:31|10=201||0|
M|840|0|0|I|20110221-05:17:01.675|72|8=FIX.4.1|9=0048|35=0|49=BLP|56=RBS1|34=840|52=20110221-05:17:01|10=191||0|
