V|1.1|
M|1|0|A|I|20110223-22:35:00.754|80|8=FIX.4.1|9=58|35=A|34=1|49=ABN2|56=BLP|52=20110223-22:35:00|108=30|98=0|10=010||0|
M|2|0|1|I|20110223-22:35:01.320|79|8=FIX.4.1|9=57|35=1|34=2|49=ABN2|56=BLP|52=20110223-22:35:01|112=STBL-2|10=072||0|
M|3|0|0|I|20110223-22:35:01.322|96|8=FIX.4.1|9=74|35=0|34=3|49=ABN2|56=BLP|52=20110223-22:35:01|112=L.0001.0002.0002.223501|10=041||0|
M|4|0|0|I|20110223-22:35:01.402|96|8=FIX.4.1|9=74|35=0|34=4|49=ABN2|56=BLP|52=20110223-22:35:01|112=A.0003.0004.0004.223501|10=037||0|
M|5|0|0|I|20110223-22:35:31.889|68|8=FIX.4.1|9=46|35=0|34=5|49=ABN2|56=BLP|52=20110223-22:35:31|10=229||0|
M|6|0|0|I|20110223-22:36:01.977|68|8=FIX.4.1|9=46|35=0|34=6|49=ABN2|56=BLP|52=20110223-22:36:01|10=228||0|
M|7|0|0|I|20110223-22:36:32.066|68|8=FIX.4.1|9=46|35=0|34=7|49=ABN2|56=BLP|52=20110223-22:36:32|10=233||0|
M|8|0|0|I|20110223-22:37:02.155|68|8=FIX.4.1|9=46|35=0|34=8|49=ABN2|56=BLP|52=20110223-22:37:02|10=232||0|
M|9|0|0|I|20110223-22:37:32.243|68|8=FIX.4.1|9=46|35=0|34=9|49=ABN2|56=BLP|52=20110223-22:37:32|10=236||0|
M|10|0|0|I|20110223-22:38:02.322|69|8=FIX.4.1|9=47|35=0|34=10|49=ABN2|56=BLP|52=20110223-22:38:02|10=019||0|
M|11|0|0|I|20110223-22:38:32.411|69|8=FIX.4.1|9=47|35=0|34=11|49=ABN2|56=BLP|52=20110223-22:38:32|10=023||0|
M|12|0|0|I|20110223-22:39:02.489|69|8=FIX.4.1|9=47|35=0|34=12|49=ABN2|56=BLP|52=20110223-22:39:02|10=022||0|
M|13|0|0|I|20110223-22:39:32.578|69|8=FIX.4.1|9=47|35=0|34=13|49=ABN2|56=BLP|52=20110223-22:39:32|10=026||0|
M|14|0|0|I|20110223-22:40:02.667|69|8=FIX.4.1|9=47|35=0|34=14|49=ABN2|56=BLP|52=20110223-22:40:02|10=016||0|
M|15|0|0|I|20110223-22:40:32.755|69|8=FIX.4.1|9=47|35=0|34=15|49=ABN2|56=BLP|52=20110223-22:40:32|10=020||0|
M|16|0|0|I|20110223-22:41:02.844|69|8=FIX.4.1|9=47|35=0|34=16|49=ABN2|56=BLP|52=20110223-22:41:02|10=019||0|
M|17|0|0|I|20110223-22:41:32.933|69|8=FIX.4.1|9=47|35=0|34=17|49=ABN2|56=BLP|52=20110223-22:41:32|10=023||0|
M|18|0|0|I|20110223-22:42:03.022|69|8=FIX.4.1|9=47|35=0|34=18|49=ABN2|56=BLP|52=20110223-22:42:03|10=023||0|
M|19|0|0|I|20110223-22:42:33.110|69|8=FIX.4.1|9=47|35=0|34=19|49=ABN2|56=BLP|52=20110223-22:42:33|10=027||0|
M|20|0|0|I|20110223-22:43:03.189|69|8=FIX.4.1|9=47|35=0|34=20|49=ABN2|56=BLP|52=20110223-22:43:03|10=017||0|
M|21|0|0|I|20110223-22:43:33.268|69|8=FIX.4.1|9=47|35=0|34=21|49=ABN2|56=BLP|52=20110223-22:43:33|10=021||0|
M|22|0|0|I|20110223-22:44:03.356|69|8=FIX.4.1|9=47|35=0|34=22|49=ABN2|56=BLP|52=20110223-22:44:03|10=020||0|
M|23|0|0|I|20110223-22:44:33.445|69|8=FIX.4.1|9=47|35=0|34=23|49=ABN2|56=BLP|52=20110223-22:44:33|10=024||0|
M|24|0|0|I|20110223-22:45:03.534|69|8=FIX.4.1|9=47|35=0|34=24|49=ABN2|56=BLP|52=20110223-22:45:03|10=023||0|
M|25|0|0|I|20110223-22:45:33.612|69|8=FIX.4.1|9=47|35=0|34=25|49=ABN2|56=BLP|52=20110223-22:45:33|10=027||0|
M|26|0|0|I|20110223-22:46:03.711|69|8=FIX.4.1|9=47|35=0|34=26|49=ABN2|56=BLP|52=20110223-22:46:03|10=026||0|
M|27|0|0|I|20110223-22:46:33.800|69|8=FIX.4.1|9=47|35=0|34=27|49=ABN2|56=BLP|52=20110223-22:46:33|10=030||0|
M|28|0|0|I|20110223-22:47:03.888|69|8=FIX.4.1|9=47|35=0|34=28|49=ABN2|56=BLP|52=20110223-22:47:03|10=029||0|
M|29|0|0|I|20110223-22:47:33.977|69|8=FIX.4.1|9=47|35=0|34=29|49=ABN2|56=BLP|52=20110223-22:47:33|10=033||0|
M|30|0|0|I|20110223-22:48:04.066|69|8=FIX.4.1|9=47|35=0|34=30|49=ABN2|56=BLP|52=20110223-22:48:04|10=024||0|
M|31|0|0|I|20110223-22:48:34.154|69|8=FIX.4.1|9=47|35=0|34=31|49=ABN2|56=BLP|52=20110223-22:48:34|10=028||0|
M|32|0|0|I|20110223-22:49:04.243|69|8=FIX.4.1|9=47|35=0|34=32|49=ABN2|56=BLP|52=20110223-22:49:04|10=027||0|
M|33|0|0|I|20110223-22:49:34.322|69|8=FIX.4.1|9=47|35=0|34=33|49=ABN2|56=BLP|52=20110223-22:49:34|10=031||0|
M|34|0|0|I|20110223-22:50:04.410|69|8=FIX.4.1|9=47|35=0|34=34|49=ABN2|56=BLP|52=20110223-22:50:04|10=021||0|
M|35|0|0|I|20110223-22:50:34.499|69|8=FIX.4.1|9=47|35=0|34=35|49=ABN2|56=BLP|52=20110223-22:50:34|10=025||0|
M|36|0|0|I|20110223-22:51:04.588|69|8=FIX.4.1|9=47|35=0|34=36|49=ABN2|56=BLP|52=20110223-22:51:04|10=024||0|
M|37|0|0|I|20110223-22:51:34.676|69|8=FIX.4.1|9=47|35=0|34=37|49=ABN2|56=BLP|52=20110223-22:51:34|10=028||0|
M|38|0|0|I|20110223-22:52:04.755|69|8=FIX.4.1|9=47|35=0|34=38|49=ABN2|56=BLP|52=20110223-22:52:04|10=027||0|
M|39|0|0|I|20110223-22:52:34.844|69|8=FIX.4.1|9=47|35=0|34=39|49=ABN2|56=BLP|52=20110223-22:52:34|10=031||0|
M|40|0|0|I|20110223-22:53:04.932|69|8=FIX.4.1|9=47|35=0|34=40|49=ABN2|56=BLP|52=20110223-22:53:04|10=021||0|
M|41|0|0|I|20110223-22:53:35.021|69|8=FIX.4.1|9=47|35=0|34=41|49=ABN2|56=BLP|52=20110223-22:53:35|10=026||0|
M|42|0|0|I|20110223-22:54:05.110|69|8=FIX.4.1|9=47|35=0|34=42|49=ABN2|56=BLP|52=20110223-22:54:05|10=025||0|
M|43|0|0|I|20110223-22:54:35.208|69|8=FIX.4.1|9=47|35=0|34=43|49=ABN2|56=BLP|52=20110223-22:54:35|10=029||0|
M|44|0|0|I|20110223-22:55:05.307|69|8=FIX.4.1|9=47|35=0|34=44|49=ABN2|56=BLP|52=20110223-22:55:05|10=028||0|
M|45|0|0|I|20110223-22:55:35.396|69|8=FIX.4.1|9=47|35=0|34=45|49=ABN2|56=BLP|52=20110223-22:55:35|10=032||0|
M|46|0|0|I|20110223-22:56:05.484|69|8=FIX.4.1|9=47|35=0|34=46|49=ABN2|56=BLP|52=20110223-22:56:05|10=031||0|
M|47|0|0|I|20110223-22:56:35.633|69|8=FIX.4.1|9=47|35=0|34=47|49=ABN2|56=BLP|52=20110223-22:56:35|10=035||0|
M|48|0|0|I|20110223-22:57:05.722|69|8=FIX.4.1|9=47|35=0|34=48|49=ABN2|56=BLP|52=20110223-22:57:05|10=034||0|
M|49|0|0|I|20110223-22:57:35.811|69|8=FIX.4.1|9=47|35=0|34=49|49=ABN2|56=BLP|52=20110223-22:57:35|10=038||0|
M|50|0|0|I|20110223-22:58:05.899|69|8=FIX.4.1|9=47|35=0|34=50|49=ABN2|56=BLP|52=20110223-22:58:05|10=028||0|
M|51|0|0|I|20110223-22:58:35.988|69|8=FIX.4.1|9=47|35=0|34=51|49=ABN2|56=BLP|52=20110223-22:58:35|10=032||0|
M|52|0|0|I|20110223-22:59:06.076|69|8=FIX.4.1|9=47|35=0|34=52|49=ABN2|56=BLP|52=20110223-22:59:06|10=032||0|
M|53|0|0|I|20110223-22:59:36.165|69|8=FIX.4.1|9=47|35=0|34=53|49=ABN2|56=BLP|52=20110223-22:59:36|10=036||0|
M|54|0|0|I|20110223-23:00:06.244|69|8=FIX.4.1|9=47|35=0|34=54|49=ABN2|56=BLP|52=20110223-23:00:06|10=021||0|
M|55|0|0|I|20110223-23:00:36.332|69|8=FIX.4.1|9=47|35=0|34=55|49=ABN2|56=BLP|52=20110223-23:00:36|10=025||0|
M|56|0|0|I|20110223-23:01:06.421|69|8=FIX.4.1|9=47|35=0|34=56|49=ABN2|56=BLP|52=20110223-23:01:06|10=024||0|
M|57|0|0|I|20110223-23:01:36.510|69|8=FIX.4.1|9=47|35=0|34=57|49=ABN2|56=BLP|52=20110223-23:01:36|10=028||0|
M|58|0|0|I|20110223-23:02:06.599|69|8=FIX.4.1|9=47|35=0|34=58|49=ABN2|56=BLP|52=20110223-23:02:06|10=027||0|
M|59|0|0|I|20110223-23:02:36.687|69|8=FIX.4.1|9=47|35=0|34=59|49=ABN2|56=BLP|52=20110223-23:02:36|10=031||0|
M|60|0|0|I|20110223-23:03:06.766|69|8=FIX.4.1|9=47|35=0|34=60|49=ABN2|56=BLP|52=20110223-23:03:06|10=021||0|
M|61|0|0|I|20110223-23:03:36.855|69|8=FIX.4.1|9=47|35=0|34=61|49=ABN2|56=BLP|52=20110223-23:03:36|10=025||0|
M|62|0|0|I|20110223-23:04:06.943|69|8=FIX.4.1|9=47|35=0|34=62|49=ABN2|56=BLP|52=20110223-23:04:06|10=024||0|
M|63|0|0|I|20110223-23:04:37.032|69|8=FIX.4.1|9=47|35=0|34=63|49=ABN2|56=BLP|52=20110223-23:04:37|10=029||0|
M|64|0|0|I|20110223-23:05:07.121|69|8=FIX.4.1|9=47|35=0|34=64|49=ABN2|56=BLP|52=20110223-23:05:07|10=028||0|
M|65|0|0|I|20110223-23:05:37.209|69|8=FIX.4.1|9=47|35=0|34=65|49=ABN2|56=BLP|52=20110223-23:05:37|10=032||0|
M|66|0|0|I|20110223-23:06:07.298|69|8=FIX.4.1|9=47|35=0|34=66|49=ABN2|56=BLP|52=20110223-23:06:07|10=031||0|
M|67|0|0|I|20110223-23:06:37.387|69|8=FIX.4.1|9=47|35=0|34=67|49=ABN2|56=BLP|52=20110223-23:06:37|10=035||0|
M|68|0|0|I|20110223-23:07:07.465|69|8=FIX.4.1|9=47|35=0|34=68|49=ABN2|56=BLP|52=20110223-23:07:07|10=034||0|
M|69|0|0|I|20110223-23:07:37.554|69|8=FIX.4.1|9=47|35=0|34=69|49=ABN2|56=BLP|52=20110223-23:07:37|10=038||0|
M|70|0|0|I|20110223-23:08:07.643|69|8=FIX.4.1|9=47|35=0|34=70|49=ABN2|56=BLP|52=20110223-23:08:07|10=028||0|
M|71|0|0|I|20110223-23:08:37.731|69|8=FIX.4.1|9=47|35=0|34=71|49=ABN2|56=BLP|52=20110223-23:08:37|10=032||0|
M|72|0|0|I|20110223-23:09:07.820|69|8=FIX.4.1|9=47|35=0|34=72|49=ABN2|56=BLP|52=20110223-23:09:07|10=031||0|
M|73|0|0|I|20110223-23:09:37.909|69|8=FIX.4.1|9=47|35=0|34=73|49=ABN2|56=BLP|52=20110223-23:09:37|10=035||0|
M|74|0|0|I|20110223-23:10:07.997|69|8=FIX.4.1|9=47|35=0|34=74|49=ABN2|56=BLP|52=20110223-23:10:07|10=025||0|
M|75|0|0|I|20110223-23:10:38.086|69|8=FIX.4.1|9=47|35=0|34=75|49=ABN2|56=BLP|52=20110223-23:10:38|10=030||0|
M|76|0|0|I|20110223-23:11:08.175|69|8=FIX.4.1|9=47|35=0|34=76|49=ABN2|56=BLP|52=20110223-23:11:08|10=029||0|
M|77|0|0|I|20110223-23:11:38.263|69|8=FIX.4.1|9=47|35=0|34=77|49=ABN2|56=BLP|52=20110223-23:11:38|10=033||0|
M|78|0|0|I|20110223-23:12:08.352|69|8=FIX.4.1|9=47|35=0|34=78|49=ABN2|56=BLP|52=20110223-23:12:08|10=032||0|
M|79|0|0|I|20110223-23:12:38.441|69|8=FIX.4.1|9=47|35=0|34=79|49=ABN2|56=BLP|52=20110223-23:12:38|10=036||0|
M|80|0|0|I|20110223-23:13:08.530|69|8=FIX.4.1|9=47|35=0|34=80|49=ABN2|56=BLP|52=20110223-23:13:08|10=026||0|
M|81|0|0|I|20110223-23:13:38.618|69|8=FIX.4.1|9=47|35=0|34=81|49=ABN2|56=BLP|52=20110223-23:13:38|10=030||0|
M|82|0|0|I|20110223-23:14:08.707|69|8=FIX.4.1|9=47|35=0|34=82|49=ABN2|56=BLP|52=20110223-23:14:08|10=029||0|
M|83|0|0|I|20110223-23:14:38.806|69|8=FIX.4.1|9=47|35=0|34=83|49=ABN2|56=BLP|52=20110223-23:14:38|10=033||0|
M|84|0|0|I|20110223-23:15:08.894|69|8=FIX.4.1|9=47|35=0|34=84|49=ABN2|56=BLP|52=20110223-23:15:08|10=032||0|
M|85|0|0|I|20110223-23:15:38.983|69|8=FIX.4.1|9=47|35=0|34=85|49=ABN2|56=BLP|52=20110223-23:15:38|10=036||0|
M|86|0|0|I|20110223-23:16:09.072|69|8=FIX.4.1|9=47|35=0|34=86|49=ABN2|56=BLP|52=20110223-23:16:09|10=036||0|
M|87|0|0|I|20110223-23:16:39.160|69|8=FIX.4.1|9=47|35=0|34=87|49=ABN2|56=BLP|52=20110223-23:16:39|10=040||0|
M|88|0|0|I|20110223-23:17:09.239|69|8=FIX.4.1|9=47|35=0|34=88|49=ABN2|56=BLP|52=20110223-23:17:09|10=039||0|
M|89|0|0|I|20110223-23:17:39.328|69|8=FIX.4.1|9=47|35=0|34=89|49=ABN2|56=BLP|52=20110223-23:17:39|10=043||0|
M|90|0|0|I|20110223-23:18:09.416|69|8=FIX.4.1|9=47|35=0|34=90|49=ABN2|56=BLP|52=20110223-23:18:09|10=033||0|
M|91|0|0|I|20110223-23:18:39.495|69|8=FIX.4.1|9=47|35=0|34=91|49=ABN2|56=BLP|52=20110223-23:18:39|10=037||0|
M|92|0|0|I|20110223-23:19:09.594|69|8=FIX.4.1|9=47|35=0|34=92|49=ABN2|56=BLP|52=20110223-23:19:09|10=036||0|
M|93|0|0|I|20110223-23:19:39.683|69|8=FIX.4.1|9=47|35=0|34=93|49=ABN2|56=BLP|52=20110223-23:19:39|10=040||0|
M|94|0|0|I|20110223-23:20:09.761|69|8=FIX.4.1|9=47|35=0|34=94|49=ABN2|56=BLP|52=20110223-23:20:09|10=030||0|
M|95|0|0|I|20110223-23:20:39.850|69|8=FIX.4.1|9=47|35=0|34=95|49=ABN2|56=BLP|52=20110223-23:20:39|10=034||0|
M|96|0|0|I|20110223-23:21:09.939|69|8=FIX.4.1|9=47|35=0|34=96|49=ABN2|56=BLP|52=20110223-23:21:09|10=033||0|
M|97|0|0|I|20110223-23:21:40.027|69|8=FIX.4.1|9=47|35=0|34=97|49=ABN2|56=BLP|52=20110223-23:21:40|10=029||0|
M|98|0|0|I|20110223-23:22:10.116|69|8=FIX.4.1|9=47|35=0|34=98|49=ABN2|56=BLP|52=20110223-23:22:10|10=028||0|
M|99|0|0|I|20110223-23:22:40.205|69|8=FIX.4.1|9=47|35=0|34=99|49=ABN2|56=BLP|52=20110223-23:22:40|10=032||0|
M|100|0|0|I|20110223-23:23:10.293|70|8=FIX.4.1|9=48|35=0|34=100|49=ABN2|56=BLP|52=20110223-23:23:10|10=062||0|
M|101|0|0|I|20110223-23:23:40.392|70|8=FIX.4.1|9=48|35=0|34=101|49=ABN2|56=BLP|52=20110223-23:23:40|10=066||0|
M|102|0|0|I|20110223-23:24:10.481|70|8=FIX.4.1|9=48|35=0|34=102|49=ABN2|56=BLP|52=20110223-23:24:10|10=065||0|
M|103|0|0|I|20110223-23:24:40.569|70|8=FIX.4.1|9=48|35=0|34=103|49=ABN2|56=BLP|52=20110223-23:24:40|10=069||0|
M|104|0|0|I|20110223-23:25:10.648|70|8=FIX.4.1|9=48|35=0|34=104|49=ABN2|56=BLP|52=20110223-23:25:10|10=068||0|
M|105|0|0|I|20110223-23:25:40.727|70|8=FIX.4.1|9=48|35=0|34=105|49=ABN2|56=BLP|52=20110223-23:25:40|10=072||0|
M|106|0|0|I|20110223-23:26:10.825|70|8=FIX.4.1|9=48|35=0|34=106|49=ABN2|56=BLP|52=20110223-23:26:10|10=071||0|
M|107|0|0|I|20110223-23:26:40.914|70|8=FIX.4.1|9=48|35=0|34=107|49=ABN2|56=BLP|52=20110223-23:26:40|10=075||0|
M|108|0|0|I|20110223-23:27:11.003|70|8=FIX.4.1|9=48|35=0|34=108|49=ABN2|56=BLP|52=20110223-23:27:11|10=075||0|
M|109|0|0|I|20110223-23:27:41.091|70|8=FIX.4.1|9=48|35=0|34=109|49=ABN2|56=BLP|52=20110223-23:27:41|10=079||0|
M|110|0|0|I|20110223-23:28:11.180|70|8=FIX.4.1|9=48|35=0|34=110|49=ABN2|56=BLP|52=20110223-23:28:11|10=069||0|
M|111|0|0|I|20110223-23:28:41.259|70|8=FIX.4.1|9=48|35=0|34=111|49=ABN2|56=BLP|52=20110223-23:28:41|10=073||0|
M|112|0|0|I|20110223-23:29:11.348|70|8=FIX.4.1|9=48|35=0|34=112|49=ABN2|56=BLP|52=20110223-23:29:11|10=072||0|
M|113|0|0|I|20110223-23:29:41.426|70|8=FIX.4.1|9=48|35=0|34=113|49=ABN2|56=BLP|52=20110223-23:29:41|10=076||0|
M|114|0|0|I|20110223-23:30:11.515|70|8=FIX.4.1|9=48|35=0|34=114|49=ABN2|56=BLP|52=20110223-23:30:11|10=066||0|
M|115|0|0|I|20110223-23:30:41.604|70|8=FIX.4.1|9=48|35=0|34=115|49=ABN2|56=BLP|52=20110223-23:30:41|10=070||0|
M|116|0|0|I|20110223-23:31:11.712|70|8=FIX.4.1|9=48|35=0|34=116|49=ABN2|56=BLP|52=20110223-23:31:11|10=069||0|
M|117|0|0|I|20110223-23:31:41.801|70|8=FIX.4.1|9=48|35=0|34=117|49=ABN2|56=BLP|52=20110223-23:31:41|10=073||0|
M|118|0|0|I|20110223-23:32:11.890|70|8=FIX.4.1|9=48|35=0|34=118|49=ABN2|56=BLP|52=20110223-23:32:11|10=072||0|
M|119|0|0|I|20110223-23:32:41.979|70|8=FIX.4.1|9=48|35=0|34=119|49=ABN2|56=BLP|52=20110223-23:32:41|10=076||0|
M|120|0|0|I|20110223-23:33:12.068|70|8=FIX.4.1|9=48|35=0|34=120|49=ABN2|56=BLP|52=20110223-23:33:12|10=067||0|
M|121|0|0|I|20110223-23:33:42.156|70|8=FIX.4.1|9=48|35=0|34=121|49=ABN2|56=BLP|52=20110223-23:33:42|10=071||0|
M|122|0|0|I|20110223-23:34:12.245|70|8=FIX.4.1|9=48|35=0|34=122|49=ABN2|56=BLP|52=20110223-23:34:12|10=070||0|
M|123|0|0|I|20110223-23:34:42.333|70|8=FIX.4.1|9=48|35=0|34=123|49=ABN2|56=BLP|52=20110223-23:34:42|10=074||0|
M|124|0|0|I|20110223-23:35:12.402|70|8=FIX.4.1|9=48|35=0|34=124|49=ABN2|56=BLP|52=20110223-23:35:12|10=073||0|
M|125|0|0|I|20110223-23:35:42.491|70|8=FIX.4.1|9=48|35=0|34=125|49=ABN2|56=BLP|52=20110223-23:35:42|10=077||0|
M|126|0|0|I|20110223-23:36:12.579|70|8=FIX.4.1|9=48|35=0|34=126|49=ABN2|56=BLP|52=20110223-23:36:12|10=076||0|
M|127|0|0|I|20110223-23:36:42.668|70|8=FIX.4.1|9=48|35=0|34=127|49=ABN2|56=BLP|52=20110223-23:36:42|10=080||0|
M|128|0|0|I|20110223-23:37:12.757|70|8=FIX.4.1|9=48|35=0|34=128|49=ABN2|56=BLP|52=20110223-23:37:12|10=079||0|
M|129|0|0|I|20110223-23:37:42.845|70|8=FIX.4.1|9=48|35=0|34=129|49=ABN2|56=BLP|52=20110223-23:37:42|10=083||0|
M|130|0|0|I|20110223-23:38:12.934|70|8=FIX.4.1|9=48|35=0|34=130|49=ABN2|56=BLP|52=20110223-23:38:12|10=073||0|
M|131|0|0|I|20110223-23:38:43.023|70|8=FIX.4.1|9=48|35=0|34=131|49=ABN2|56=BLP|52=20110223-23:38:43|10=078||0|
M|132|0|0|I|20110223-23:39:13.111|70|8=FIX.4.1|9=48|35=0|34=132|49=ABN2|56=BLP|52=20110223-23:39:13|10=077||0|
M|133|0|0|I|20110223-23:39:43.200|70|8=FIX.4.1|9=48|35=0|34=133|49=ABN2|56=BLP|52=20110223-23:39:43|10=081||0|
M|134|0|0|I|20110223-23:40:13.289|70|8=FIX.4.1|9=48|35=0|34=134|49=ABN2|56=BLP|52=20110223-23:40:13|10=071||0|
M|135|0|0|I|20110223-23:40:43.377|70|8=FIX.4.1|9=48|35=0|34=135|49=ABN2|56=BLP|52=20110223-23:40:43|10=075||0|
M|136|0|0|I|20110223-23:41:13.466|70|8=FIX.4.1|9=48|35=0|34=136|49=ABN2|56=BLP|52=20110223-23:41:13|10=074||0|
M|137|0|0|I|20110223-23:41:43.545|70|8=FIX.4.1|9=48|35=0|34=137|49=ABN2|56=BLP|52=20110223-23:41:43|10=078||0|
M|138|0|0|I|20110223-23:42:13.634|70|8=FIX.4.1|9=48|35=0|34=138|49=ABN2|56=BLP|52=20110223-23:42:13|10=077||0|
M|139|0|0|I|20110223-23:42:43.722|70|8=FIX.4.1|9=48|35=0|34=139|49=ABN2|56=BLP|52=20110223-23:42:43|10=081||0|
M|140|0|0|I|20110223-23:43:13.811|70|8=FIX.4.1|9=48|35=0|34=140|49=ABN2|56=BLP|52=20110223-23:43:13|10=071||0|
M|141|0|0|I|20110223-23:43:43.900|70|8=FIX.4.1|9=48|35=0|34=141|49=ABN2|56=BLP|52=20110223-23:43:43|10=075||0|
M|142|0|0|I|20110223-23:44:13.988|70|8=FIX.4.1|9=48|35=0|34=142|49=ABN2|56=BLP|52=20110223-23:44:13|10=074||0|
M|143|0|0|I|20110223-23:44:44.087|70|8=FIX.4.1|9=48|35=0|34=143|49=ABN2|56=BLP|52=20110223-23:44:44|10=079||0|
M|144|0|0|I|20110223-23:45:14.176|70|8=FIX.4.1|9=48|35=0|34=144|49=ABN2|56=BLP|52=20110223-23:45:14|10=078||0|
M|145|0|0|I|20110223-23:45:44.264|70|8=FIX.4.1|9=48|35=0|34=145|49=ABN2|56=BLP|52=20110223-23:45:44|10=082||0|
M|146|0|0|I|20110223-23:46:14.353|70|8=FIX.4.1|9=48|35=0|34=146|49=ABN2|56=BLP|52=20110223-23:46:14|10=081||0|
M|147|0|0|I|20110223-23:46:44.442|70|8=FIX.4.1|9=48|35=0|34=147|49=ABN2|56=BLP|52=20110223-23:46:44|10=085||0|
M|148|0|0|I|20110223-23:47:14.530|70|8=FIX.4.1|9=48|35=0|34=148|49=ABN2|56=BLP|52=20110223-23:47:14|10=084||0|
M|149|0|0|I|20110223-23:47:44.629|70|8=FIX.4.1|9=48|35=0|34=149|49=ABN2|56=BLP|52=20110223-23:47:44|10=088||0|
M|150|0|0|I|20110223-23:48:14.718|70|8=FIX.4.1|9=48|35=0|34=150|49=ABN2|56=BLP|52=20110223-23:48:14|10=078||0|
M|151|0|0|I|20110223-23:48:44.797|70|8=FIX.4.1|9=48|35=0|34=151|49=ABN2|56=BLP|52=20110223-23:48:44|10=082||0|
M|152|0|0|I|20110223-23:49:14.885|70|8=FIX.4.1|9=48|35=0|34=152|49=ABN2|56=BLP|52=20110223-23:49:14|10=081||0|
M|153|0|0|I|20110223-23:49:44.974|70|8=FIX.4.1|9=48|35=0|34=153|49=ABN2|56=BLP|52=20110223-23:49:44|10=085||0|
M|154|0|0|I|20110223-23:50:15.063|70|8=FIX.4.1|9=48|35=0|34=154|49=ABN2|56=BLP|52=20110223-23:50:15|10=076||0|
M|155|0|0|I|20110223-23:50:45.151|70|8=FIX.4.1|9=48|35=0|34=155|49=ABN2|56=BLP|52=20110223-23:50:45|10=080||0|
M|156|0|0|I|20110223-23:51:15.242|70|8=FIX.4.1|9=48|35=0|34=156|49=ABN2|56=BLP|52=20110223-23:51:15|10=079||0|
M|157|0|0|I|20110223-23:51:45.329|70|8=FIX.4.1|9=48|35=0|34=157|49=ABN2|56=BLP|52=20110223-23:51:45|10=083||0|
M|158|0|0|I|20110223-23:52:15.417|70|8=FIX.4.1|9=48|35=0|34=158|49=ABN2|56=BLP|52=20110223-23:52:15|10=082||0|
M|159|0|0|I|20110223-23:52:45.506|70|8=FIX.4.1|9=48|35=0|34=159|49=ABN2|56=BLP|52=20110223-23:52:45|10=086||0|
M|160|0|0|I|20110223-23:53:15.595|70|8=FIX.4.1|9=48|35=0|34=160|49=ABN2|56=BLP|52=20110223-23:53:15|10=076||0|
M|161|0|0|I|20110223-23:53:45.673|70|8=FIX.4.1|9=48|35=0|34=161|49=ABN2|56=BLP|52=20110223-23:53:45|10=080||0|
M|162|0|0|I|20110223-23:54:15.762|70|8=FIX.4.1|9=48|35=0|34=162|49=ABN2|56=BLP|52=20110223-23:54:15|10=079||0|
M|163|0|0|I|20110223-23:54:45.851|70|8=FIX.4.1|9=48|35=0|34=163|49=ABN2|56=BLP|52=20110223-23:54:45|10=083||0|
M|164|0|0|I|20110223-23:55:15.939|70|8=FIX.4.1|9=48|35=0|34=164|49=ABN2|56=BLP|52=20110223-23:55:15|10=082||0|
M|165|0|0|I|20110223-23:55:46.028|70|8=FIX.4.1|9=48|35=0|34=165|49=ABN2|56=BLP|52=20110223-23:55:46|10=087||0|
M|166|0|0|I|20110223-23:56:16.117|70|8=FIX.4.1|9=48|35=0|34=166|49=ABN2|56=BLP|52=20110223-23:56:16|10=086||0|
M|167|0|0|I|20110223-23:56:46.596|70|8=FIX.4.1|9=48|35=0|34=167|49=ABN2|56=BLP|52=20110223-23:56:46|10=090||0|
M|168|0|0|I|20110223-23:57:16.684|70|8=FIX.4.1|9=48|35=0|34=168|49=ABN2|56=BLP|52=20110223-23:57:16|10=089||0|
M|169|0|0|I|20110223-23:57:46.773|70|8=FIX.4.1|9=48|35=0|34=169|49=ABN2|56=BLP|52=20110223-23:57:46|10=093||0|
M|170|0|0|I|20110223-23:58:16.862|70|8=FIX.4.1|9=48|35=0|34=170|49=ABN2|56=BLP|52=20110223-23:58:16|10=083||0|
M|171|0|0|I|20110223-23:58:46.950|70|8=FIX.4.1|9=48|35=0|34=171|49=ABN2|56=BLP|52=20110223-23:58:46|10=087||0|
M|172|0|0|I|20110223-23:59:17.039|70|8=FIX.4.1|9=48|35=0|34=172|49=ABN2|56=BLP|52=20110223-23:59:17|10=087||0|
M|173|0|0|I|20110223-23:59:47.118|70|8=FIX.4.1|9=48|35=0|34=173|49=ABN2|56=BLP|52=20110223-23:59:47|10=091||0|
M|174|0|0|I|20110224-00:00:17.196|70|8=FIX.4.1|9=48|35=0|34=174|49=ABN2|56=BLP|52=20110224-00:00:17|10=071||0|
M|175|0|0|I|20110224-00:00:47.285|70|8=FIX.4.1|9=48|35=0|34=175|49=ABN2|56=BLP|52=20110224-00:00:47|10=075||0|
M|176|0|0|I|20110224-00:01:17.374|70|8=FIX.4.1|9=48|35=0|34=176|49=ABN2|56=BLP|52=20110224-00:01:17|10=074||0|
M|177|0|0|I|20110224-00:01:47.462|70|8=FIX.4.1|9=48|35=0|34=177|49=ABN2|56=BLP|52=20110224-00:01:47|10=078||0|
M|178|0|0|I|20110224-00:02:17.551|70|8=FIX.4.1|9=48|35=0|34=178|49=ABN2|56=BLP|52=20110224-00:02:17|10=077||0|
M|179|0|0|I|20110224-00:02:47.630|70|8=FIX.4.1|9=48|35=0|34=179|49=ABN2|56=BLP|52=20110224-00:02:47|10=081||0|
M|180|0|0|I|20110224-00:03:17.718|70|8=FIX.4.1|9=48|35=0|34=180|49=ABN2|56=BLP|52=20110224-00:03:17|10=071||0|
M|181|0|0|I|20110224-00:03:47.807|70|8=FIX.4.1|9=48|35=0|34=181|49=ABN2|56=BLP|52=20110224-00:03:47|10=075||0|
M|182|0|0|I|20110224-00:04:17.896|70|8=FIX.4.1|9=48|35=0|34=182|49=ABN2|56=BLP|52=20110224-00:04:17|10=074||0|
M|183|0|0|I|20110224-00:04:47.984|70|8=FIX.4.1|9=48|35=0|34=183|49=ABN2|56=BLP|52=20110224-00:04:47|10=078||0|
M|184|0|0|I|20110224-00:05:18.073|70|8=FIX.4.1|9=48|35=0|34=184|49=ABN2|56=BLP|52=20110224-00:05:18|10=078||0|
M|185|0|0|I|20110224-00:05:48.162|70|8=FIX.4.1|9=48|35=0|34=185|49=ABN2|56=BLP|52=20110224-00:05:48|10=082||0|
M|186|0|0|I|20110224-00:06:18.251|70|8=FIX.4.1|9=48|35=0|34=186|49=ABN2|56=BLP|52=20110224-00:06:18|10=081||0|
M|187|0|0|I|20110224-00:06:48.339|70|8=FIX.4.1|9=48|35=0|34=187|49=ABN2|56=BLP|52=20110224-00:06:48|10=085||0|
M|188|0|0|I|20110224-00:07:18.428|70|8=FIX.4.1|9=48|35=0|34=188|49=ABN2|56=BLP|52=20110224-00:07:18|10=084||0|
M|189|0|0|I|20110224-00:07:48.517|70|8=FIX.4.1|9=48|35=0|34=189|49=ABN2|56=BLP|52=20110224-00:07:48|10=088||0|
M|190|0|0|I|20110224-00:08:18.605|70|8=FIX.4.1|9=48|35=0|34=190|49=ABN2|56=BLP|52=20110224-00:08:18|10=078||0|
M|191|0|0|I|20110224-00:08:48.694|70|8=FIX.4.1|9=48|35=0|34=191|49=ABN2|56=BLP|52=20110224-00:08:48|10=082||0|
M|192|0|0|I|20110224-00:09:18.783|70|8=FIX.4.1|9=48|35=0|34=192|49=ABN2|56=BLP|52=20110224-00:09:18|10=081||0|
M|193|0|0|I|20110224-00:09:48.861|70|8=FIX.4.1|9=48|35=0|34=193|49=ABN2|56=BLP|52=20110224-00:09:48|10=085||0|
M|194|0|0|I|20110224-00:10:18.960|70|8=FIX.4.1|9=48|35=0|34=194|49=ABN2|56=BLP|52=20110224-00:10:18|10=075||0|
M|195|0|0|I|20110224-00:10:49.049|70|8=FIX.4.1|9=48|35=0|34=195|49=ABN2|56=BLP|52=20110224-00:10:49|10=080||0|
M|196|0|0|I|20110224-00:11:19.137|70|8=FIX.4.1|9=48|35=0|34=196|49=ABN2|56=BLP|52=20110224-00:11:19|10=079||0|
M|197|0|0|I|20110224-00:11:49.226|70|8=FIX.4.1|9=48|35=0|34=197|49=ABN2|56=BLP|52=20110224-00:11:49|10=083||0|
M|198|0|0|I|20110224-00:12:19.315|70|8=FIX.4.1|9=48|35=0|34=198|49=ABN2|56=BLP|52=20110224-00:12:19|10=082||0|
M|199|0|0|I|20110224-00:12:49.404|70|8=FIX.4.1|9=48|35=0|34=199|49=ABN2|56=BLP|52=20110224-00:12:49|10=086||0|
M|200|0|0|I|20110224-00:13:19.492|70|8=FIX.4.1|9=48|35=0|34=200|49=ABN2|56=BLP|52=20110224-00:13:19|10=067||0|
M|201|0|0|I|20110224-00:13:49.581|70|8=FIX.4.1|9=48|35=0|34=201|49=ABN2|56=BLP|52=20110224-00:13:49|10=071||0|
M|202|0|0|I|20110224-00:14:19.680|70|8=FIX.4.1|9=48|35=0|34=202|49=ABN2|56=BLP|52=20110224-00:14:19|10=070||0|
M|203|0|0|I|20110224-00:14:49.768|70|8=FIX.4.1|9=48|35=0|34=203|49=ABN2|56=BLP|52=20110224-00:14:49|10=074||0|
M|204|0|0|I|20110224-00:15:19.857|70|8=FIX.4.1|9=48|35=0|34=204|49=ABN2|56=BLP|52=20110224-00:15:19|10=073||0|
M|205|0|0|I|20110224-00:15:49.946|70|8=FIX.4.1|9=48|35=0|34=205|49=ABN2|56=BLP|52=20110224-00:15:49|10=077||0|
M|206|0|0|I|20110224-00:16:20.034|70|8=FIX.4.1|9=48|35=0|34=206|49=ABN2|56=BLP|52=20110224-00:16:20|10=068||0|
M|207|0|0|I|20110224-00:16:50.123|70|8=FIX.4.1|9=48|35=0|34=207|49=ABN2|56=BLP|52=20110224-00:16:50|10=072||0|
M|208|0|0|I|20110224-00:17:20.212|70|8=FIX.4.1|9=48|35=0|34=208|49=ABN2|56=BLP|52=20110224-00:17:20|10=071||0|
M|209|0|0|I|20110224-00:17:50.300|70|8=FIX.4.1|9=48|35=0|34=209|49=ABN2|56=BLP|52=20110224-00:17:50|10=075||0|
M|210|0|0|I|20110224-00:18:20.389|70|8=FIX.4.1|9=48|35=0|34=210|49=ABN2|56=BLP|52=20110224-00:18:20|10=065||0|
M|211|0|0|I|20110224-00:18:50.488|70|8=FIX.4.1|9=48|35=0|34=211|49=ABN2|56=BLP|52=20110224-00:18:50|10=069||0|
M|212|0|0|I|20110224-00:19:20.566|70|8=FIX.4.1|9=48|35=0|34=212|49=ABN2|56=BLP|52=20110224-00:19:20|10=068||0|
M|213|0|0|I|20110224-00:19:50.655|70|8=FIX.4.1|9=48|35=0|34=213|49=ABN2|56=BLP|52=20110224-00:19:50|10=072||0|
M|214|0|0|I|20110224-00:20:20.744|70|8=FIX.4.1|9=48|35=0|34=214|49=ABN2|56=BLP|52=20110224-00:20:20|10=062||0|
M|215|0|0|I|20110224-00:20:50.832|70|8=FIX.4.1|9=48|35=0|34=215|49=ABN2|56=BLP|52=20110224-00:20:50|10=066||0|
M|216|0|0|I|20110224-00:21:20.911|70|8=FIX.4.1|9=48|35=0|34=216|49=ABN2|56=BLP|52=20110224-00:21:20|10=065||0|
M|217|0|0|I|20110224-00:21:51.000|70|8=FIX.4.1|9=48|35=0|34=217|49=ABN2|56=BLP|52=20110224-00:21:51|10=070||0|
M|218|0|0|I|20110224-00:22:21.088|70|8=FIX.4.1|9=48|35=0|34=218|49=ABN2|56=BLP|52=20110224-00:22:21|10=069||0|
M|219|0|0|I|20110224-00:22:51.177|70|8=FIX.4.1|9=48|35=0|34=219|49=ABN2|56=BLP|52=20110224-00:22:51|10=073||0|
M|220|0|0|I|20110224-00:23:21.256|70|8=FIX.4.1|9=48|35=0|34=220|49=ABN2|56=BLP|52=20110224-00:23:21|10=063||0|
M|221|0|0|I|20110224-00:23:51.345|70|8=FIX.4.1|9=48|35=0|34=221|49=ABN2|56=BLP|52=20110224-00:23:51|10=067||0|
M|222|0|0|I|20110224-00:24:21.433|70|8=FIX.4.1|9=48|35=0|34=222|49=ABN2|56=BLP|52=20110224-00:24:21|10=066||0|
M|223|0|0|I|20110224-00:24:51.512|70|8=FIX.4.1|9=48|35=0|34=223|49=ABN2|56=BLP|52=20110224-00:24:51|10=070||0|
M|224|0|0|I|20110224-00:25:21.591|70|8=FIX.4.1|9=48|35=0|34=224|49=ABN2|56=BLP|52=20110224-00:25:21|10=069||0|
M|225|0|0|I|20110224-00:25:51.679|70|8=FIX.4.1|9=48|35=0|34=225|49=ABN2|56=BLP|52=20110224-00:25:51|10=073||0|
M|226|0|0|I|20110224-00:26:21.768|70|8=FIX.4.1|9=48|35=0|34=226|49=ABN2|56=BLP|52=20110224-00:26:21|10=072||0|
M|227|0|0|I|20110224-00:26:51.857|70|8=FIX.4.1|9=48|35=0|34=227|49=ABN2|56=BLP|52=20110224-00:26:51|10=076||0|
M|228|0|0|I|20110224-00:27:21.945|70|8=FIX.4.1|9=48|35=0|34=228|49=ABN2|56=BLP|52=20110224-00:27:21|10=075||0|
M|229|0|0|I|20110224-00:27:52.024|70|8=FIX.4.1|9=48|35=0|34=229|49=ABN2|56=BLP|52=20110224-00:27:52|10=080||0|
M|230|0|0|I|20110224-00:28:22.113|70|8=FIX.4.1|9=48|35=0|34=230|49=ABN2|56=BLP|52=20110224-00:28:22|10=070||0|
M|231|0|0|I|20110224-00:28:52.201|70|8=FIX.4.1|9=48|35=0|34=231|49=ABN2|56=BLP|52=20110224-00:28:52|10=074||0|
M|232|0|0|I|20110224-00:29:22.290|70|8=FIX.4.1|9=48|35=0|34=232|49=ABN2|56=BLP|52=20110224-00:29:22|10=073||0|
M|233|0|0|I|20110224-00:29:52.379|70|8=FIX.4.1|9=48|35=0|34=233|49=ABN2|56=BLP|52=20110224-00:29:52|10=077||0|
M|234|0|0|I|20110224-00:30:22.468|70|8=FIX.4.1|9=48|35=0|34=234|49=ABN2|56=BLP|52=20110224-00:30:22|10=067||0|
M|235|0|0|I|20110224-00:30:52.556|70|8=FIX.4.1|9=48|35=0|34=235|49=ABN2|56=BLP|52=20110224-00:30:52|10=071||0|
M|236|0|0|I|20110224-00:31:22.645|70|8=FIX.4.1|9=48|35=0|34=236|49=ABN2|56=BLP|52=20110224-00:31:22|10=070||0|
M|237|0|0|I|20110224-00:31:52.733|70|8=FIX.4.1|9=48|35=0|34=237|49=ABN2|56=BLP|52=20110224-00:31:52|10=074||0|
M|238|0|0|I|20110224-00:32:22.822|70|8=FIX.4.1|9=48|35=0|34=238|49=ABN2|56=BLP|52=20110224-00:32:22|10=073||0|
M|239|0|0|I|20110224-00:32:52.911|70|8=FIX.4.1|9=48|35=0|34=239|49=ABN2|56=BLP|52=20110224-00:32:52|10=077||0|
M|240|0|0|I|20110224-00:33:23.000|70|8=FIX.4.1|9=48|35=0|34=240|49=ABN2|56=BLP|52=20110224-00:33:23|10=068||0|
M|241|0|0|I|20110224-00:33:53.088|70|8=FIX.4.1|9=48|35=0|34=241|49=ABN2|56=BLP|52=20110224-00:33:53|10=072||0|
M|242|0|0|I|20110224-00:34:23.167|70|8=FIX.4.1|9=48|35=0|34=242|49=ABN2|56=BLP|52=20110224-00:34:23|10=071||0|
M|243|0|0|I|20110224-00:34:53.256|70|8=FIX.4.1|9=48|35=0|34=243|49=ABN2|56=BLP|52=20110224-00:34:53|10=075||0|
M|244|0|0|I|20110224-00:35:23.334|70|8=FIX.4.1|9=48|35=0|34=244|49=ABN2|56=BLP|52=20110224-00:35:23|10=074||0|
M|245|0|0|I|20110224-00:35:53.423|70|8=FIX.4.1|9=48|35=0|34=245|49=ABN2|56=BLP|52=20110224-00:35:53|10=078||0|
M|246|0|0|I|20110224-00:36:23.493|70|8=FIX.4.1|9=48|35=0|34=246|49=ABN2|56=BLP|52=20110224-00:36:23|10=077||0|
M|247|0|0|I|20110224-00:36:53.570|70|8=FIX.4.1|9=48|35=0|34=247|49=ABN2|56=BLP|52=20110224-00:36:53|10=081||0|
M|248|0|0|I|20110224-00:37:23.659|70|8=FIX.4.1|9=48|35=0|34=248|49=ABN2|56=BLP|52=20110224-00:37:23|10=080||0|
M|249|0|0|I|20110224-00:37:53.758|70|8=FIX.4.1|9=48|35=0|34=249|49=ABN2|56=BLP|52=20110224-00:37:53|10=084||0|
M|250|0|0|I|20110224-00:38:23.846|70|8=FIX.4.1|9=48|35=0|34=250|49=ABN2|56=BLP|52=20110224-00:38:23|10=074||0|
M|251|0|0|I|20110224-00:38:53.915|70|8=FIX.4.1|9=48|35=0|34=251|49=ABN2|56=BLP|52=20110224-00:38:53|10=078||0|
M|252|0|0|I|20110224-00:39:24.004|70|8=FIX.4.1|9=48|35=0|34=252|49=ABN2|56=BLP|52=20110224-00:39:24|10=078||0|
M|253|0|0|I|20110224-00:39:54.093|70|8=FIX.4.1|9=48|35=0|34=253|49=ABN2|56=BLP|52=20110224-00:39:54|10=082||0|
M|254|0|0|I|20110224-00:40:24.181|70|8=FIX.4.1|9=48|35=0|34=254|49=ABN2|56=BLP|52=20110224-00:40:24|10=072||0|
M|255|0|0|I|20110224-00:40:54.270|70|8=FIX.4.1|9=48|35=0|34=255|49=ABN2|56=BLP|52=20110224-00:40:54|10=076||0|
M|256|0|0|I|20110224-00:41:24.359|70|8=FIX.4.1|9=48|35=0|34=256|49=ABN2|56=BLP|52=20110224-00:41:24|10=075||0|
M|257|0|0|I|20110224-00:41:54.447|70|8=FIX.4.1|9=48|35=0|34=257|49=ABN2|56=BLP|52=20110224-00:41:54|10=079||0|
M|258|0|0|I|20110224-00:42:24.526|70|8=FIX.4.1|9=48|35=0|34=258|49=ABN2|56=BLP|52=20110224-00:42:24|10=078||0|
M|259|0|0|I|20110224-00:42:54.615|70|8=FIX.4.1|9=48|35=0|34=259|49=ABN2|56=BLP|52=20110224-00:42:54|10=082||0|
M|260|0|0|I|20110224-00:43:24.703|70|8=FIX.4.1|9=48|35=0|34=260|49=ABN2|56=BLP|52=20110224-00:43:24|10=072||0|
M|261|0|0|I|20110224-00:43:54.792|70|8=FIX.4.1|9=48|35=0|34=261|49=ABN2|56=BLP|52=20110224-00:43:54|10=076||0|
M|262|0|0|I|20110224-00:44:24.881|70|8=FIX.4.1|9=48|35=0|34=262|49=ABN2|56=BLP|52=20110224-00:44:24|10=075||0|
M|263|0|0|I|20110224-00:44:54.969|70|8=FIX.4.1|9=48|35=0|34=263|49=ABN2|56=BLP|52=20110224-00:44:54|10=079||0|
M|264|0|0|I|20110224-00:45:25.058|70|8=FIX.4.1|9=48|35=0|34=264|49=ABN2|56=BLP|52=20110224-00:45:25|10=079||0|
M|265|0|0|I|20110224-00:45:55.137|70|8=FIX.4.1|9=48|35=0|34=265|49=ABN2|56=BLP|52=20110224-00:45:55|10=083||0|
M|266|0|0|I|20110224-00:46:25.236|70|8=FIX.4.1|9=48|35=0|34=266|49=ABN2|56=BLP|52=20110224-00:46:25|10=082||0|
M|267|0|0|I|20110224-00:46:55.314|70|8=FIX.4.1|9=48|35=0|34=267|49=ABN2|56=BLP|52=20110224-00:46:55|10=086||0|
M|268|0|0|I|20110224-00:47:25.403|70|8=FIX.4.1|9=48|35=0|34=268|49=ABN2|56=BLP|52=20110224-00:47:25|10=085||0|
M|269|0|0|I|20110224-00:47:55.492|70|8=FIX.4.1|9=48|35=0|34=269|49=ABN2|56=BLP|52=20110224-00:47:55|10=089||0|
M|270|0|0|I|20110224-00:48:25.580|70|8=FIX.4.1|9=48|35=0|34=270|49=ABN2|56=BLP|52=20110224-00:48:25|10=079||0|
M|271|0|0|I|20110224-00:48:55.659|70|8=FIX.4.1|9=48|35=0|34=271|49=ABN2|56=BLP|52=20110224-00:48:55|10=083||0|
M|272|0|0|I|20110224-00:49:25.748|70|8=FIX.4.1|9=48|35=0|34=272|49=ABN2|56=BLP|52=20110224-00:49:25|10=082||0|
M|273|0|0|I|20110224-00:49:55.836|70|8=FIX.4.1|9=48|35=0|34=273|49=ABN2|56=BLP|52=20110224-00:49:55|10=086||0|
M|274|0|0|I|20110224-00:50:25.915|70|8=FIX.4.1|9=48|35=0|34=274|49=ABN2|56=BLP|52=20110224-00:50:25|10=076||0|
M|275|0|0|I|20110224-00:50:56.004|70|8=FIX.4.1|9=48|35=0|34=275|49=ABN2|56=BLP|52=20110224-00:50:56|10=081||0|
M|276|0|0|I|20110224-00:51:26.092|70|8=FIX.4.1|9=48|35=0|34=276|49=ABN2|56=BLP|52=20110224-00:51:26|10=080||0|
M|277|0|0|I|20110224-00:51:56.181|70|8=FIX.4.1|9=48|35=0|34=277|49=ABN2|56=BLP|52=20110224-00:51:56|10=084||0|
M|278|0|0|I|20110224-00:52:26.270|70|8=FIX.4.1|9=48|35=0|34=278|49=ABN2|56=BLP|52=20110224-00:52:26|10=083||0|
M|279|0|0|I|20110224-00:52:56.358|70|8=FIX.4.1|9=48|35=0|34=279|49=ABN2|56=BLP|52=20110224-00:52:56|10=087||0|
M|280|0|0|I|20110224-00:53:26.448|70|8=FIX.4.1|9=48|35=0|34=280|49=ABN2|56=BLP|52=20110224-00:53:26|10=077||0|
M|281|0|0|I|20110224-00:53:56.536|70|8=FIX.4.1|9=48|35=0|34=281|49=ABN2|56=BLP|52=20110224-00:53:56|10=081||0|
M|282|0|0|I|20110224-00:54:26.625|70|8=FIX.4.1|9=48|35=0|34=282|49=ABN2|56=BLP|52=20110224-00:54:26|10=080||0|
M|283|0|0|I|20110224-00:54:56.713|70|8=FIX.4.1|9=48|35=0|34=283|49=ABN2|56=BLP|52=20110224-00:54:56|10=084||0|
M|284|0|0|I|20110224-00:55:26.802|70|8=FIX.4.1|9=48|35=0|34=284|49=ABN2|56=BLP|52=20110224-00:55:26|10=083||0|
M|285|0|0|I|20110224-00:55:56.891|70|8=FIX.4.1|9=48|35=0|34=285|49=ABN2|56=BLP|52=20110224-00:55:56|10=087||0|
M|286|0|0|I|20110224-00:56:26.979|70|8=FIX.4.1|9=48|35=0|34=286|49=ABN2|56=BLP|52=20110224-00:56:26|10=086||0|
M|287|0|0|I|20110224-00:56:57.488|70|8=FIX.4.1|9=48|35=0|34=287|49=ABN2|56=BLP|52=20110224-00:56:57|10=091||0|
M|288|0|0|I|20110224-00:57:27.577|70|8=FIX.4.1|9=48|35=0|34=288|49=ABN2|56=BLP|52=20110224-00:57:27|10=090||0|
M|289|0|0|I|20110224-00:57:57.665|70|8=FIX.4.1|9=48|35=0|34=289|49=ABN2|56=BLP|52=20110224-00:57:57|10=094||0|
M|290|0|0|I|20110224-00:58:27.754|70|8=FIX.4.1|9=48|35=0|34=290|49=ABN2|56=BLP|52=20110224-00:58:27|10=084||0|
M|291|0|0|I|20110224-00:58:57.843|70|8=FIX.4.1|9=48|35=0|34=291|49=ABN2|56=BLP|52=20110224-00:58:57|10=088||0|
M|292|0|0|I|20110224-00:59:27.931|70|8=FIX.4.1|9=48|35=0|34=292|49=ABN2|56=BLP|52=20110224-00:59:27|10=087||0|
M|293|0|0|I|20110224-00:59:58.020|70|8=FIX.4.1|9=48|35=0|34=293|49=ABN2|56=BLP|52=20110224-00:59:58|10=092||0|
M|294|0|0|I|20110224-01:00:28.109|70|8=FIX.4.1|9=48|35=0|34=294|49=ABN2|56=BLP|52=20110224-01:00:28|10=077||0|
M|295|0|0|I|20110224-01:00:58.197|70|8=FIX.4.1|9=48|35=0|34=295|49=ABN2|56=BLP|52=20110224-01:00:58|10=081||0|
M|296|0|0|I|20110224-01:01:28.286|70|8=FIX.4.1|9=48|35=0|34=296|49=ABN2|56=BLP|52=20110224-01:01:28|10=080||0|
M|297|0|0|I|20110224-01:01:58.375|70|8=FIX.4.1|9=48|35=0|34=297|49=ABN2|56=BLP|52=20110224-01:01:58|10=084||0|
M|298|0|0|I|20110224-01:02:28.464|70|8=FIX.4.1|9=48|35=0|34=298|49=ABN2|56=BLP|52=20110224-01:02:28|10=083||0|
M|299|0|0|I|20110224-01:02:58.542|70|8=FIX.4.1|9=48|35=0|34=299|49=ABN2|56=BLP|52=20110224-01:02:58|10=087||0|
M|300|0|0|I|20110224-01:03:28.631|70|8=FIX.4.1|9=48|35=0|34=300|49=ABN2|56=BLP|52=20110224-01:03:28|10=068||0|
M|301|0|0|I|20110224-01:03:58.719|70|8=FIX.4.1|9=48|35=0|34=301|49=ABN2|56=BLP|52=20110224-01:03:58|10=072||0|
M|302|0|0|I|20110224-01:04:28.808|70|8=FIX.4.1|9=48|35=0|34=302|49=ABN2|56=BLP|52=20110224-01:04:28|10=071||0|
M|303|0|0|I|20110224-01:04:58.897|70|8=FIX.4.1|9=48|35=0|34=303|49=ABN2|56=BLP|52=20110224-01:04:58|10=075||0|
M|304|0|0|I|20110224-01:05:28.986|70|8=FIX.4.1|9=48|35=0|34=304|49=ABN2|56=BLP|52=20110224-01:05:28|10=074||0|
M|305|0|0|I|20110224-01:05:59.074|70|8=FIX.4.1|9=48|35=0|34=305|49=ABN2|56=BLP|52=20110224-01:05:59|10=079||0|
M|306|0|0|I|20110224-01:06:29.163|70|8=FIX.4.1|9=48|35=0|34=306|49=ABN2|56=BLP|52=20110224-01:06:29|10=078||0|
M|307|0|0|I|20110224-01:06:59.252|70|8=FIX.4.1|9=48|35=0|34=307|49=ABN2|56=BLP|52=20110224-01:06:59|10=082||0|
M|308|0|0|I|20110224-01:07:29.341|70|8=FIX.4.1|9=48|35=0|34=308|49=ABN2|56=BLP|52=20110224-01:07:29|10=081||0|
M|309|0|0|I|20110224-01:07:59.429|70|8=FIX.4.1|9=48|35=0|34=309|49=ABN2|56=BLP|52=20110224-01:07:59|10=085||0|
M|310|0|0|I|20110224-01:08:29.518|70|8=FIX.4.1|9=48|35=0|34=310|49=ABN2|56=BLP|52=20110224-01:08:29|10=075||0|
M|311|0|0|I|20110224-01:08:59.607|70|8=FIX.4.1|9=48|35=0|34=311|49=ABN2|56=BLP|52=20110224-01:08:59|10=079||0|
M|312|0|0|I|20110224-01:09:29.685|70|8=FIX.4.1|9=48|35=0|34=312|49=ABN2|56=BLP|52=20110224-01:09:29|10=078||0|
M|313|0|0|I|20110224-01:09:59.784|70|8=FIX.4.1|9=48|35=0|34=313|49=ABN2|56=BLP|52=20110224-01:09:59|10=082||0|
M|314|0|0|I|20110224-01:10:29.873|70|8=FIX.4.1|9=48|35=0|34=314|49=ABN2|56=BLP|52=20110224-01:10:29|10=072||0|
M|315|0|0|I|20110224-01:10:59.951|70|8=FIX.4.1|9=48|35=0|34=315|49=ABN2|56=BLP|52=20110224-01:10:59|10=076||0|
M|316|0|0|I|20110224-01:11:30.040|70|8=FIX.4.1|9=48|35=0|34=316|49=ABN2|56=BLP|52=20110224-01:11:30|10=067||0|
M|317|0|0|I|20110224-01:12:00.129|70|8=FIX.4.1|9=48|35=0|34=317|49=ABN2|56=BLP|52=20110224-01:12:00|10=066||0|
M|318|0|0|I|20110224-01:12:30.217|70|8=FIX.4.1|9=48|35=0|34=318|49=ABN2|56=BLP|52=20110224-01:12:30|10=070||0|
M|319|0|0|I|20110224-01:13:00.306|70|8=FIX.4.1|9=48|35=0|34=319|49=ABN2|56=BLP|52=20110224-01:13:00|10=069||0|
M|320|0|0|I|20110224-01:13:30.396|70|8=FIX.4.1|9=48|35=0|34=320|49=ABN2|56=BLP|52=20110224-01:13:30|10=064||0|
M|321|0|0|I|20110224-01:14:00.483|70|8=FIX.4.1|9=48|35=0|34=321|49=ABN2|56=BLP|52=20110224-01:14:00|10=063||0|
M|322|0|0|I|20110224-01:14:30.562|70|8=FIX.4.1|9=48|35=0|34=322|49=ABN2|56=BLP|52=20110224-01:14:30|10=067||0|
M|323|0|8|I|20110224-01:14:55.549|258|8=FIX.4.1|9=235|35=8|50=ABN2|57=4293876|34=323|49=ABN2|56=BLP|52=20110224-01:14:55|6=0.0000|11=20110224-00001|14=0|15=HKD|17=36704972|20=0|22=2|31=0.0000|32=0|37=28551632PT|38=400|39=0|40=1|48=6158163|54=1|55=5|58=testing|59=0|150=0|151=400|109=CHINC|10=199||2|AidaCode|CHINC|ClientConnectionName|China_Intl_Capital_Corp_PT|
M|324|0|0|I|20110224-01:15:25.630|70|8=FIX.4.1|9=48|35=0|34=324|49=ABN2|56=BLP|52=20110224-01:15:25|10=074||0|
M|325|0|0|I|20110224-01:15:33.470|98|8=FIX.4.1|9=76|35=0|34=325|49=ABN2|56=BLP|52=20110224-01:15:33|112=C.0005.0147.0145.011533|10=160||0|
M|326|0|0|I|20110224-01:16:03.858|70|8=FIX.4.1|9=48|35=0|34=326|49=ABN2|56=BLP|52=20110224-01:16:03|10=073||0|
M|327|0|8|I|20110224-01:16:07.465|274|8=FIX.4.1|9=251|35=8|50=ABN2|57=4293876|34=327|49=ABN2|56=BLP|52=20110224-01:16:07|6=0.0000|11=20110224-10001|14=0|15=HKD|17=36704982|20=0|22=2|31=0.0000|32=0|37=28551642PT|38=400|39=4|40=1|41=20110224-00001|48=6158163|54=1|55=5|150=4|151=0|59=0|109=CHINC|58=testing|10=188||2|AidaCode|CHINC|ClientConnectionName|China_Intl_Capital_Corp_PT|
M|328|0|0|I|20110224-01:16:37.527|70|8=FIX.4.1|9=48|35=0|34=328|49=ABN2|56=BLP|52=20110224-01:16:37|10=082||0|
M|329|0|0|I|20110224-01:17:07.625|70|8=FIX.4.1|9=48|35=0|34=329|49=ABN2|56=BLP|52=20110224-01:17:07|10=081||0|
M|330|0|0|I|20110224-01:17:37.714|70|8=FIX.4.1|9=48|35=0|34=330|49=ABN2|56=BLP|52=20110224-01:17:37|10=076||0|
M|331|0|0|I|20110224-01:18:07.803|70|8=FIX.4.1|9=48|35=0|34=331|49=ABN2|56=BLP|52=20110224-01:18:07|10=075||0|
M|332|0|0|I|20110224-01:18:37.892|70|8=FIX.4.1|9=48|35=0|34=332|49=ABN2|56=BLP|52=20110224-01:18:37|10=079||0|
M|333|0|0|I|20110224-01:19:07.980|70|8=FIX.4.1|9=48|35=0|34=333|49=ABN2|56=BLP|52=20110224-01:19:07|10=078||0|
M|334|0|0|I|20110224-01:19:38.069|70|8=FIX.4.1|9=48|35=0|34=334|49=ABN2|56=BLP|52=20110224-01:19:38|10=083||0|
M|335|0|0|I|20110224-01:20:08.148|70|8=FIX.4.1|9=48|35=0|34=335|49=ABN2|56=BLP|52=20110224-01:20:08|10=073||0|
M|336|0|0|I|20110224-01:20:38.236|70|8=FIX.4.1|9=48|35=0|34=336|49=ABN2|56=BLP|52=20110224-01:20:38|10=077||0|
M|337|0|0|I|20110224-01:21:08.325|70|8=FIX.4.1|9=48|35=0|34=337|49=ABN2|56=BLP|52=20110224-01:21:08|10=076||0|
M|338|0|0|I|20110224-01:21:38.414|70|8=FIX.4.1|9=48|35=0|34=338|49=ABN2|56=BLP|52=20110224-01:21:38|10=080||0|
M|339|0|0|I|20110224-01:22:08.502|70|8=FIX.4.1|9=48|35=0|34=339|49=ABN2|56=BLP|52=20110224-01:22:08|10=079||0|
M|340|0|0|I|20110224-01:22:38.591|70|8=FIX.4.1|9=48|35=0|34=340|49=ABN2|56=BLP|52=20110224-01:22:38|10=074||0|
M|341|0|0|I|20110224-01:23:08.680|70|8=FIX.4.1|9=48|35=0|34=341|49=ABN2|56=BLP|52=20110224-01:23:08|10=073||0|
M|342|0|0|I|20110224-01:23:38.768|70|8=FIX.4.1|9=48|35=0|34=342|49=ABN2|56=BLP|52=20110224-01:23:38|10=077||0|
M|343|0|0|I|20110224-01:24:08.857|70|8=FIX.4.1|9=48|35=0|34=343|49=ABN2|56=BLP|52=20110224-01:24:08|10=076||0|
M|344|0|0|I|20110224-01:24:38.946|70|8=FIX.4.1|9=48|35=0|34=344|49=ABN2|56=BLP|52=20110224-01:24:38|10=080||0|
M|345|0|0|I|20110224-01:25:09.034|70|8=FIX.4.1|9=48|35=0|34=345|49=ABN2|56=BLP|52=20110224-01:25:09|10=080||0|
M|346|0|0|I|20110224-01:25:39.123|70|8=FIX.4.1|9=48|35=0|34=346|49=ABN2|56=BLP|52=20110224-01:25:39|10=084||0|
M|347|0|0|I|20110224-01:26:09.212|70|8=FIX.4.1|9=48|35=0|34=347|49=ABN2|56=BLP|52=20110224-01:26:09|10=083||0|
M|348|0|0|I|20110224-01:26:39.300|70|8=FIX.4.1|9=48|35=0|34=348|49=ABN2|56=BLP|52=20110224-01:26:39|10=087||0|
M|349|0|0|I|20110224-01:27:09.479|70|8=FIX.4.1|9=48|35=0|34=349|49=ABN2|56=BLP|52=20110224-01:27:09|10=086||0|
M|350|0|0|I|20110224-01:27:39.568|70|8=FIX.4.1|9=48|35=0|34=350|49=ABN2|56=BLP|52=20110224-01:27:39|10=081||0|
M|351|0|0|I|20110224-01:28:09.656|70|8=FIX.4.1|9=48|35=0|34=351|49=ABN2|56=BLP|52=20110224-01:28:09|10=080||0|
M|352|0|0|I|20110224-01:28:39.745|70|8=FIX.4.1|9=48|35=0|34=352|49=ABN2|56=BLP|52=20110224-01:28:39|10=084||0|
M|353|0|0|I|20110224-01:29:09.834|70|8=FIX.4.1|9=48|35=0|34=353|49=ABN2|56=BLP|52=20110224-01:29:09|10=083||0|
M|354|0|0|I|20110224-01:29:39.923|70|8=FIX.4.1|9=48|35=0|34=354|49=ABN2|56=BLP|52=20110224-01:29:39|10=087||0|
M|355|0|0|I|20110224-01:30:10.011|70|8=FIX.4.1|9=48|35=0|34=355|49=ABN2|56=BLP|52=20110224-01:30:10|10=069||0|
M|356|0|0|I|20110224-01:30:40.100|70|8=FIX.4.1|9=48|35=0|34=356|49=ABN2|56=BLP|52=20110224-01:30:40|10=073||0|
M|357|0|0|I|20110224-01:31:10.189|70|8=FIX.4.1|9=48|35=0|34=357|49=ABN2|56=BLP|52=20110224-01:31:10|10=072||0|
M|358|0|0|I|20110224-01:31:40.277|70|8=FIX.4.1|9=48|35=0|34=358|49=ABN2|56=BLP|52=20110224-01:31:40|10=076||0|
M|359|0|0|I|20110224-01:32:10.356|70|8=FIX.4.1|9=48|35=0|34=359|49=ABN2|56=BLP|52=20110224-01:32:10|10=075||0|
M|360|0|0|I|20110224-01:32:40.445|70|8=FIX.4.1|9=48|35=0|34=360|49=ABN2|56=BLP|52=20110224-01:32:40|10=070||0|
M|361|0|0|I|20110224-01:33:10.533|70|8=FIX.4.1|9=48|35=0|34=361|49=ABN2|56=BLP|52=20110224-01:33:10|10=069||0|
M|362|0|0|I|20110224-01:33:40.622|70|8=FIX.4.1|9=48|35=0|34=362|49=ABN2|56=BLP|52=20110224-01:33:40|10=073||0|
M|363|0|0|I|20110224-01:34:10.711|70|8=FIX.4.1|9=48|35=0|34=363|49=ABN2|56=BLP|52=20110224-01:34:10|10=072||0|
M|364|0|0|I|20110224-01:34:40.799|70|8=FIX.4.1|9=48|35=0|34=364|49=ABN2|56=BLP|52=20110224-01:34:40|10=076||0|
M|365|0|0|I|20110224-01:35:10.878|70|8=FIX.4.1|9=48|35=0|34=365|49=ABN2|56=BLP|52=20110224-01:35:10|10=075||0|
M|366|0|0|I|20110224-01:35:40.967|70|8=FIX.4.1|9=48|35=0|34=366|49=ABN2|56=BLP|52=20110224-01:35:40|10=079||0|
M|367|0|0|I|20110224-01:36:11.045|70|8=FIX.4.1|9=48|35=0|34=367|49=ABN2|56=BLP|52=20110224-01:36:11|10=079||0|
M|368|0|0|I|20110224-01:36:41.134|70|8=FIX.4.1|9=48|35=0|34=368|49=ABN2|56=BLP|52=20110224-01:36:41|10=083||0|
M|369|0|0|I|20110224-01:37:11.223|70|8=FIX.4.1|9=48|35=0|34=369|49=ABN2|56=BLP|52=20110224-01:37:11|10=082||0|
M|370|0|0|I|20110224-01:37:41.311|70|8=FIX.4.1|9=48|35=0|34=370|49=ABN2|56=BLP|52=20110224-01:37:41|10=077||0|
M|371|0|0|I|20110224-01:38:11.400|70|8=FIX.4.1|9=48|35=0|34=371|49=ABN2|56=BLP|52=20110224-01:38:11|10=076||0|
M|372|0|0|I|20110224-01:38:41.489|70|8=FIX.4.1|9=48|35=0|34=372|49=ABN2|56=BLP|52=20110224-01:38:41|10=080||0|
M|373|0|0|I|20110224-01:39:11.578|70|8=FIX.4.1|9=48|35=0|34=373|49=ABN2|56=BLP|52=20110224-01:39:11|10=079||0|
M|374|0|0|I|20110224-01:39:41.666|70|8=FIX.4.1|9=48|35=0|34=374|49=ABN2|56=BLP|52=20110224-01:39:41|10=083||0|
M|375|0|0|I|20110224-01:40:11.755|70|8=FIX.4.1|9=48|35=0|34=375|49=ABN2|56=BLP|52=20110224-01:40:11|10=073||0|
M|376|0|0|I|20110224-01:40:41.834|70|8=FIX.4.1|9=48|35=0|34=376|49=ABN2|56=BLP|52=20110224-01:40:41|10=077||0|
M|377|0|0|I|20110224-01:41:11.922|70|8=FIX.4.1|9=48|35=0|34=377|49=ABN2|56=BLP|52=20110224-01:41:11|10=076||0|
M|378|0|0|I|20110224-01:41:42.011|70|8=FIX.4.1|9=48|35=0|34=378|49=ABN2|56=BLP|52=20110224-01:41:42|10=081||0|
M|379|0|0|I|20110224-01:42:12.090|70|8=FIX.4.1|9=48|35=0|34=379|49=ABN2|56=BLP|52=20110224-01:42:12|10=080||0|
M|380|0|0|I|20110224-01:42:42.168|70|8=FIX.4.1|9=48|35=0|34=380|49=ABN2|56=BLP|52=20110224-01:42:42|10=075||0|
M|381|0|0|I|20110224-01:43:12.257|70|8=FIX.4.1|9=48|35=0|34=381|49=ABN2|56=BLP|52=20110224-01:43:12|10=074||0|
M|382|0|0|I|20110224-01:43:42.346|70|8=FIX.4.1|9=48|35=0|34=382|49=ABN2|56=BLP|52=20110224-01:43:42|10=078||0|
M|383|0|0|I|20110224-01:44:12.434|70|8=FIX.4.1|9=48|35=0|34=383|49=ABN2|56=BLP|52=20110224-01:44:12|10=077||0|
M|384|0|0|I|20110224-01:44:42.533|70|8=FIX.4.1|9=48|35=0|34=384|49=ABN2|56=BLP|52=20110224-01:44:42|10=081||0|
M|385|0|0|I|20110224-01:45:12.622|70|8=FIX.4.1|9=48|35=0|34=385|49=ABN2|56=BLP|52=20110224-01:45:12|10=080||0|
M|386|0|0|I|20110224-01:45:42.710|70|8=FIX.4.1|9=48|35=0|34=386|49=ABN2|56=BLP|52=20110224-01:45:42|10=084||0|
M|387|0|0|I|20110224-01:46:12.799|70|8=FIX.4.1|9=48|35=0|34=387|49=ABN2|56=BLP|52=20110224-01:46:12|10=083||0|
M|388|0|0|I|20110224-01:46:42.888|70|8=FIX.4.1|9=48|35=0|34=388|49=ABN2|56=BLP|52=20110224-01:46:42|10=087||0|
M|389|0|0|I|20110224-01:47:12.987|70|8=FIX.4.1|9=48|35=0|34=389|49=ABN2|56=BLP|52=20110224-01:47:12|10=086||0|
M|390|0|0|I|20110224-01:47:43.075|70|8=FIX.4.1|9=48|35=0|34=390|49=ABN2|56=BLP|52=20110224-01:47:43|10=082||0|
M|391|0|0|I|20110224-01:48:13.164|70|8=FIX.4.1|9=48|35=0|34=391|49=ABN2|56=BLP|52=20110224-01:48:13|10=081||0|
M|392|0|0|I|20110224-01:48:43.253|70|8=FIX.4.1|9=48|35=0|34=392|49=ABN2|56=BLP|52=20110224-01:48:43|10=085||0|
M|393|0|0|I|20110224-01:49:13.341|70|8=FIX.4.1|9=48|35=0|34=393|49=ABN2|56=BLP|52=20110224-01:49:13|10=084||0|
M|394|0|0|I|20110224-01:49:43.430|70|8=FIX.4.1|9=48|35=0|34=394|49=ABN2|56=BLP|52=20110224-01:49:43|10=088||0|
M|395|0|0|I|20110224-01:50:13.519|70|8=FIX.4.1|9=48|35=0|34=395|49=ABN2|56=BLP|52=20110224-01:50:13|10=078||0|
M|396|0|0|I|20110224-01:50:43.607|70|8=FIX.4.1|9=48|35=0|34=396|49=ABN2|56=BLP|52=20110224-01:50:43|10=082||0|
M|397|0|0|I|20110224-01:51:13.696|70|8=FIX.4.1|9=48|35=0|34=397|49=ABN2|56=BLP|52=20110224-01:51:13|10=081||0|
M|398|0|0|I|20110224-01:51:43.785|70|8=FIX.4.1|9=48|35=0|34=398|49=ABN2|56=BLP|52=20110224-01:51:43|10=085||0|
M|399|0|0|I|20110224-01:52:13.873|70|8=FIX.4.1|9=48|35=0|34=399|49=ABN2|56=BLP|52=20110224-01:52:13|10=084||0|
M|400|0|0|I|20110224-01:52:43.962|70|8=FIX.4.1|9=48|35=0|34=400|49=ABN2|56=BLP|52=20110224-01:52:43|10=070||0|
M|401|0|0|I|20110224-01:53:14.051|70|8=FIX.4.1|9=48|35=0|34=401|49=ABN2|56=BLP|52=20110224-01:53:14|10=070||0|
M|402|0|0|I|20110224-01:53:44.139|70|8=FIX.4.1|9=48|35=0|34=402|49=ABN2|56=BLP|52=20110224-01:53:44|10=074||0|
M|403|0|0|I|20110224-01:54:14.228|70|8=FIX.4.1|9=48|35=0|34=403|49=ABN2|56=BLP|52=20110224-01:54:14|10=073||0|
M|404|0|0|I|20110224-01:54:44.317|70|8=FIX.4.1|9=48|35=0|34=404|49=ABN2|56=BLP|52=20110224-01:54:44|10=077||0|
M|405|0|0|I|20110224-01:55:14.406|70|8=FIX.4.1|9=48|35=0|34=405|49=ABN2|56=BLP|52=20110224-01:55:14|10=076||0|
M|406|0|0|I|20110224-01:55:44.494|70|8=FIX.4.1|9=48|35=0|34=406|49=ABN2|56=BLP|52=20110224-01:55:44|10=080||0|
M|407|0|0|I|20110224-01:56:14.583|70|8=FIX.4.1|9=48|35=0|34=407|49=ABN2|56=BLP|52=20110224-01:56:14|10=079||0|
M|408|0|0|I|20110224-01:56:44.612|70|8=FIX.4.1|9=48|35=0|34=408|49=ABN2|56=BLP|52=20110224-01:56:44|10=083||0|
M|409|0|0|I|20110224-01:57:14.700|70|8=FIX.4.1|9=48|35=0|34=409|49=ABN2|56=BLP|52=20110224-01:57:14|10=082||0|
M|410|0|0|I|20110224-01:57:44.789|70|8=FIX.4.1|9=48|35=0|34=410|49=ABN2|56=BLP|52=20110224-01:57:44|10=077||0|
M|411|0|0|I|20110224-01:58:14.878|70|8=FIX.4.1|9=48|35=0|34=411|49=ABN2|56=BLP|52=20110224-01:58:14|10=076||0|
M|412|0|0|I|20110224-01:58:44.967|70|8=FIX.4.1|9=48|35=0|34=412|49=ABN2|56=BLP|52=20110224-01:58:44|10=080||0|
M|413|0|0|I|20110224-01:59:15.055|70|8=FIX.4.1|9=48|35=0|34=413|49=ABN2|56=BLP|52=20110224-01:59:15|10=080||0|
M|414|0|0|I|20110224-01:59:45.144|70|8=FIX.4.1|9=48|35=0|34=414|49=ABN2|56=BLP|52=20110224-01:59:45|10=084||0|
M|415|0|0|I|20110224-02:00:15.232|70|8=FIX.4.1|9=48|35=0|34=415|49=ABN2|56=BLP|52=20110224-02:00:15|10=069||0|
M|416|0|0|I|20110224-02:00:45.311|70|8=FIX.4.1|9=48|35=0|34=416|49=ABN2|56=BLP|52=20110224-02:00:45|10=073||0|
M|417|0|0|I|20110224-02:01:15.400|70|8=FIX.4.1|9=48|35=0|34=417|49=ABN2|56=BLP|52=20110224-02:01:15|10=072||0|
M|418|0|0|I|20110224-02:01:45.489|70|8=FIX.4.1|9=48|35=0|34=418|49=ABN2|56=BLP|52=20110224-02:01:45|10=076||0|
M|419|0|0|I|20110224-02:02:15.577|70|8=FIX.4.1|9=48|35=0|34=419|49=ABN2|56=BLP|52=20110224-02:02:15|10=075||0|
M|420|0|0|I|20110224-02:02:45.666|70|8=FIX.4.1|9=48|35=0|34=420|49=ABN2|56=BLP|52=20110224-02:02:45|10=070||0|
M|421|0|0|I|20110224-02:03:15.745|70|8=FIX.4.1|9=48|35=0|34=421|49=ABN2|56=BLP|52=20110224-02:03:15|10=069||0|
M|422|0|0|I|20110224-02:03:45.833|70|8=FIX.4.1|9=48|35=0|34=422|49=ABN2|56=BLP|52=20110224-02:03:45|10=073||0|
M|423|0|0|I|20110224-02:04:15.922|70|8=FIX.4.1|9=48|35=0|34=423|49=ABN2|56=BLP|52=20110224-02:04:15|10=072||0|
M|424|0|0|I|20110224-02:04:46.011|70|8=FIX.4.1|9=48|35=0|34=424|49=ABN2|56=BLP|52=20110224-02:04:46|10=077||0|
M|425|0|0|I|20110224-02:05:16.099|70|8=FIX.4.1|9=48|35=0|34=425|49=ABN2|56=BLP|52=20110224-02:05:16|10=076||0|
M|426|0|0|I|20110224-02:05:46.188|70|8=FIX.4.1|9=48|35=0|34=426|49=ABN2|56=BLP|52=20110224-02:05:46|10=080||0|
M|427|0|0|I|20110224-02:06:16.277|70|8=FIX.4.1|9=48|35=0|34=427|49=ABN2|56=BLP|52=20110224-02:06:16|10=079||0|
M|428|0|0|I|20110224-02:06:46.365|70|8=FIX.4.1|9=48|35=0|34=428|49=ABN2|56=BLP|52=20110224-02:06:46|10=083||0|
M|429|0|0|I|20110224-02:07:16.454|70|8=FIX.4.1|9=48|35=0|34=429|49=ABN2|56=BLP|52=20110224-02:07:16|10=082||0|
M|430|0|0|I|20110224-02:07:46.543|70|8=FIX.4.1|9=48|35=0|34=430|49=ABN2|56=BLP|52=20110224-02:07:46|10=077||0|
M|431|0|0|I|20110224-02:08:16.632|70|8=FIX.4.1|9=48|35=0|34=431|49=ABN2|56=BLP|52=20110224-02:08:16|10=076||0|
M|432|0|0|I|20110224-02:08:46.720|70|8=FIX.4.1|9=48|35=0|34=432|49=ABN2|56=BLP|52=20110224-02:08:46|10=080||0|
M|433|0|0|I|20110224-02:09:16.809|70|8=FIX.4.1|9=48|35=0|34=433|49=ABN2|56=BLP|52=20110224-02:09:16|10=079||0|
M|434|0|0|I|20110224-02:09:46.898|70|8=FIX.4.1|9=48|35=0|34=434|49=ABN2|56=BLP|52=20110224-02:09:46|10=083||0|
M|435|0|0|I|20110224-02:10:16.986|70|8=FIX.4.1|9=48|35=0|34=435|49=ABN2|56=BLP|52=20110224-02:10:16|10=073||0|
M|436|0|0|I|20110224-02:10:47.075|70|8=FIX.4.1|9=48|35=0|34=436|49=ABN2|56=BLP|52=20110224-02:10:47|10=078||0|
M|437|0|8|I|20110224-02:10:50.898|285|8=FIX.4.1|9=262|35=8|50=ABN2|57=4058176|34=437|49=ABN2|56=BLP|52=20110224-02:10:50|6=0.0000|11=20110224-00002|14=0|15=AUD|17=36706022|20=0|22=2|31=0.0000|32=0|37=28551662PT|38=188125|39=0|40=1|48=6087289|54=2|55=TLS|58=pls confirm by blg MSG, CD|59=0|150=0|151=188125|109=LLOGM|10=106||2|AidaCode|LLOGM|ClientConnectionName|Lloyd_George_Prog|
M|438|0|0|I|20110224-02:11:21.245|70|8=FIX.4.1|9=48|35=0|34=438|49=ABN2|56=BLP|52=20110224-02:11:21|10=073||0|
M|439|0|0|I|20110224-02:11:43.609|98|8=FIX.4.1|9=76|35=0|34=439|49=ABN2|56=BLP|52=20110224-02:11:43|112=C.0148.01B8.01B7.021143|10=201||0|
M|440|0|0|I|20110224-02:12:13.761|70|8=FIX.4.1|9=48|35=0|34=440|49=ABN2|56=BLP|52=20110224-02:12:13|10=068||0|
M|441|0|0|I|20110224-02:12:43.850|70|8=FIX.4.1|9=48|35=0|34=441|49=ABN2|56=BLP|52=20110224-02:12:43|10=072||0|
M|442|0|0|I|20110224-02:13:13.939|70|8=FIX.4.1|9=48|35=0|34=442|49=ABN2|56=BLP|52=20110224-02:13:13|10=071||0|
M|443|0|0|I|20110224-02:13:44.027|70|8=FIX.4.1|9=48|35=0|34=443|49=ABN2|56=BLP|52=20110224-02:13:44|10=076||0|
M|444|0|0|I|20110224-02:14:14.126|70|8=FIX.4.1|9=48|35=0|34=444|49=ABN2|56=BLP|52=20110224-02:14:14|10=075||0|
M|445|0|0|I|20110224-02:14:44.215|70|8=FIX.4.1|9=48|35=0|34=445|49=ABN2|56=BLP|52=20110224-02:14:44|10=079||0|
M|446|0|0|I|20110224-02:15:14.303|70|8=FIX.4.1|9=48|35=0|34=446|49=ABN2|56=BLP|52=20110224-02:15:14|10=078||0|
M|447|0|0|I|20110224-02:15:44.392|70|8=FIX.4.1|9=48|35=0|34=447|49=ABN2|56=BLP|52=20110224-02:15:44|10=082||0|
M|448|0|0|I|20110224-02:16:14.481|70|8=FIX.4.1|9=48|35=0|34=448|49=ABN2|56=BLP|52=20110224-02:16:14|10=081||0|
M|449|0|0|I|20110224-02:16:44.569|70|8=FIX.4.1|9=48|35=0|34=449|49=ABN2|56=BLP|52=20110224-02:16:44|10=085||0|
M|450|0|0|I|20110224-02:17:14.658|70|8=FIX.4.1|9=48|35=0|34=450|49=ABN2|56=BLP|52=20110224-02:17:14|10=075||0|
M|451|0|0|I|20110224-02:17:44.747|70|8=FIX.4.1|9=48|35=0|34=451|49=ABN2|56=BLP|52=20110224-02:17:44|10=079||0|
M|452|0|0|I|20110224-02:18:14.835|70|8=FIX.4.1|9=48|35=0|34=452|49=ABN2|56=BLP|52=20110224-02:18:14|10=078||0|
M|453|0|0|I|20110224-02:18:44.914|70|8=FIX.4.1|9=48|35=0|34=453|49=ABN2|56=BLP|52=20110224-02:18:44|10=082||0|
M|454|0|0|I|20110224-02:19:15.003|70|8=FIX.4.1|9=48|35=0|34=454|49=ABN2|56=BLP|52=20110224-02:19:15|10=082||0|
M|455|0|0|I|20110224-02:19:45.092|70|8=FIX.4.1|9=48|35=0|34=455|49=ABN2|56=BLP|52=20110224-02:19:45|10=086||0|
M|456|0|0|I|20110224-02:20:15.170|70|8=FIX.4.1|9=48|35=0|34=456|49=ABN2|56=BLP|52=20110224-02:20:15|10=076||0|
M|457|0|0|I|20110224-02:20:45.259|70|8=FIX.4.1|9=48|35=0|34=457|49=ABN2|56=BLP|52=20110224-02:20:45|10=080||0|
M|458|0|0|I|20110224-02:21:15.347|70|8=FIX.4.1|9=48|35=0|34=458|49=ABN2|56=BLP|52=20110224-02:21:15|10=079||0|
M|459|0|0|I|20110224-02:21:45.436|70|8=FIX.4.1|9=48|35=0|34=459|49=ABN2|56=BLP|52=20110224-02:21:45|10=083||0|
M|460|0|0|I|20110224-02:22:15.535|70|8=FIX.4.1|9=48|35=0|34=460|49=ABN2|56=BLP|52=20110224-02:22:15|10=073||0|
M|461|0|0|I|20110224-02:22:45.624|70|8=FIX.4.1|9=48|35=0|34=461|49=ABN2|56=BLP|52=20110224-02:22:45|10=077||0|
M|462|0|0|I|20110224-02:23:15.712|70|8=FIX.4.1|9=48|35=0|34=462|49=ABN2|56=BLP|52=20110224-02:23:15|10=076||0|
M|463|0|0|I|20110224-02:23:45.801|70|8=FIX.4.1|9=48|35=0|34=463|49=ABN2|56=BLP|52=20110224-02:23:45|10=080||0|
M|464|0|0|I|20110224-02:24:15.889|70|8=FIX.4.1|9=48|35=0|34=464|49=ABN2|56=BLP|52=20110224-02:24:15|10=079||0|
M|465|0|0|I|20110224-02:24:45.978|70|8=FIX.4.1|9=48|35=0|34=465|49=ABN2|56=BLP|52=20110224-02:24:45|10=083||0|
M|466|0|0|I|20110224-02:25:16.067|70|8=FIX.4.1|9=48|35=0|34=466|49=ABN2|56=BLP|52=20110224-02:25:16|10=083||0|
M|467|0|0|I|20110224-02:25:46.156|70|8=FIX.4.1|9=48|35=0|34=467|49=ABN2|56=BLP|52=20110224-02:25:46|10=087||0|
M|468|0|0|I|20110224-02:26:16.244|70|8=FIX.4.1|9=48|35=0|34=468|49=ABN2|56=BLP|52=20110224-02:26:16|10=086||0|
M|469|0|0|I|20110224-02:26:46.333|70|8=FIX.4.1|9=48|35=0|34=469|49=ABN2|56=BLP|52=20110224-02:26:46|10=090||0|
M|470|0|0|I|20110224-02:27:16.422|70|8=FIX.4.1|9=48|35=0|34=470|49=ABN2|56=BLP|52=20110224-02:27:16|10=080||0|
M|471|0|0|I|20110224-02:27:46.511|70|8=FIX.4.1|9=48|35=0|34=471|49=ABN2|56=BLP|52=20110224-02:27:46|10=084||0|
M|472|0|0|I|20110224-02:28:16.599|70|8=FIX.4.1|9=48|35=0|34=472|49=ABN2|56=BLP|52=20110224-02:28:16|10=083||0|
M|473|0|0|I|20110224-02:28:46.688|70|8=FIX.4.1|9=48|35=0|34=473|49=ABN2|56=BLP|52=20110224-02:28:46|10=087||0|
M|474|0|0|I|20110224-02:29:16.776|70|8=FIX.4.1|9=48|35=0|34=474|49=ABN2|56=BLP|52=20110224-02:29:16|10=086||0|
M|475|0|0|I|20110224-02:29:46.865|70|8=FIX.4.1|9=48|35=0|34=475|49=ABN2|56=BLP|52=20110224-02:29:46|10=090||0|
M|476|0|8|I|20110224-02:29:59.362|324|8=FIX.4.1|9=301|35=8|50=ABN2|57=4058176|34=476|49=ABN2|56=BLP|52=20110224-02:29:59|6=2.7600|11=20110224-00002|14=10614|15=AUD|17=36706412|20=0|22=2|31=2.7600|32=10614|37=28551662PT|38=188125|39=1|40=1|48=6087289|54=2|55=TLS|58=pls confirm by blg MSG, CD|59=0|63=6|75=20110224|120=AUD|150=1|151=177511|109=LLOGM|30=AU|10=039||2|AidaCode|LLOGM|ClientConnectionName|Lloyd_George_Prog|
M|477|0|0|I|20110224-02:30:29.703|70|8=FIX.4.1|9=48|35=0|34=477|49=ABN2|56=BLP|52=20110224-02:30:29|10=085||0|
M|478|0|0|I|20110224-02:30:59.792|70|8=FIX.4.1|9=48|35=0|34=478|49=ABN2|56=BLP|52=20110224-02:30:59|10=089||0|
M|479|0|0|I|20110224-02:31:29.881|70|8=FIX.4.1|9=48|35=0|34=479|49=ABN2|56=BLP|52=20110224-02:31:29|10=088||0|
M|480|0|0|I|20110224-02:31:59.969|70|8=FIX.4.1|9=48|35=0|34=480|49=ABN2|56=BLP|52=20110224-02:31:59|10=083||0|
M|481|0|0|I|20110224-02:32:30.058|70|8=FIX.4.1|9=48|35=0|34=481|49=ABN2|56=BLP|52=20110224-02:32:30|10=074||0|
M|482|0|0|I|20110224-02:33:00.147|70|8=FIX.4.1|9=48|35=0|34=482|49=ABN2|56=BLP|52=20110224-02:33:00|10=073||0|
M|483|0|0|I|20110224-02:33:30.225|70|8=FIX.4.1|9=48|35=0|34=483|49=ABN2|56=BLP|52=20110224-02:33:30|10=077||0|
M|484|0|0|I|20110224-02:34:00.304|70|8=FIX.4.1|9=48|35=0|34=484|49=ABN2|56=BLP|52=20110224-02:34:00|10=076||0|
M|485|0|0|I|20110224-02:34:30.393|70|8=FIX.4.1|9=48|35=0|34=485|49=ABN2|56=BLP|52=20110224-02:34:30|10=080||0|
M|486|0|0|I|20110224-02:35:00.482|70|8=FIX.4.1|9=48|35=0|34=486|49=ABN2|56=BLP|52=20110224-02:35:00|10=079||0|
M|487|0|0|I|20110224-02:35:30.570|70|8=FIX.4.1|9=48|35=0|34=487|49=ABN2|56=BLP|52=20110224-02:35:30|10=083||0|
M|488|0|0|I|20110224-02:36:00.659|70|8=FIX.4.1|9=48|35=0|34=488|49=ABN2|56=BLP|52=20110224-02:36:00|10=082||0|
M|489|0|0|I|20110224-02:36:30.748|70|8=FIX.4.1|9=48|35=0|34=489|49=ABN2|56=BLP|52=20110224-02:36:30|10=086||0|
M|490|0|0|I|20110224-02:37:00.836|70|8=FIX.4.1|9=48|35=0|34=490|49=ABN2|56=BLP|52=20110224-02:37:00|10=076||0|
M|491|0|0|I|20110224-02:37:30.925|70|8=FIX.4.1|9=48|35=0|34=491|49=ABN2|56=BLP|52=20110224-02:37:30|10=080||0|
M|492|0|0|I|20110224-02:38:01.014|70|8=FIX.4.1|9=48|35=0|34=492|49=ABN2|56=BLP|52=20110224-02:38:01|10=080||0|
M|493|0|0|I|20110224-02:38:31.102|70|8=FIX.4.1|9=48|35=0|34=493|49=ABN2|56=BLP|52=20110224-02:38:31|10=084||0|
M|494|0|0|I|20110224-02:39:01.191|70|8=FIX.4.1|9=48|35=0|34=494|49=ABN2|56=BLP|52=20110224-02:39:01|10=083||0|
M|495|0|0|I|20110224-02:39:31.280|70|8=FIX.4.1|9=48|35=0|34=495|49=ABN2|56=BLP|52=20110224-02:39:31|10=087||0|
M|496|0|0|I|20110224-02:40:01.368|70|8=FIX.4.1|9=48|35=0|34=496|49=ABN2|56=BLP|52=20110224-02:40:01|10=077||0|
M|497|0|0|I|20110224-02:40:31.457|70|8=FIX.4.1|9=48|35=0|34=497|49=ABN2|56=BLP|52=20110224-02:40:31|10=081||0|
M|498|0|0|I|20110224-02:41:01.546|70|8=FIX.4.1|9=48|35=0|34=498|49=ABN2|56=BLP|52=20110224-02:41:01|10=080||0|
M|499|0|0|I|20110224-02:41:31.634|70|8=FIX.4.1|9=48|35=0|34=499|49=ABN2|56=BLP|52=20110224-02:41:31|10=084||0|
M|500|0|0|I|20110224-02:42:01.733|70|8=FIX.4.1|9=48|35=0|34=500|49=ABN2|56=BLP|52=20110224-02:42:01|10=065||0|
M|501|0|0|I|20110224-02:42:31.812|70|8=FIX.4.1|9=48|35=0|34=501|49=ABN2|56=BLP|52=20110224-02:42:31|10=069||0|
M|502|0|0|I|20110224-02:43:01.901|70|8=FIX.4.1|9=48|35=0|34=502|49=ABN2|56=BLP|52=20110224-02:43:01|10=068||0|
M|503|0|0|I|20110224-02:43:31.989|70|8=FIX.4.1|9=48|35=0|34=503|49=ABN2|56=BLP|52=20110224-02:43:31|10=072||0|
M|504|0|0|I|20110224-02:44:02.078|70|8=FIX.4.1|9=48|35=0|34=504|49=ABN2|56=BLP|52=20110224-02:44:02|10=072||0|
M|505|0|0|I|20110224-02:44:32.167|70|8=FIX.4.1|9=48|35=0|34=505|49=ABN2|56=BLP|52=20110224-02:44:32|10=076||0|
M|506|0|0|I|20110224-02:45:02.255|70|8=FIX.4.1|9=48|35=0|34=506|49=ABN2|56=BLP|52=20110224-02:45:02|10=075||0|
M|507|0|0|I|20110224-02:45:32.344|70|8=FIX.4.1|9=48|35=0|34=507|49=ABN2|56=BLP|52=20110224-02:45:32|10=079||0|
M|508|0|0|I|20110224-02:46:02.433|70|8=FIX.4.1|9=48|35=0|34=508|49=ABN2|56=BLP|52=20110224-02:46:02|10=078||0|
M|509|0|0|I|20110224-02:46:32.521|70|8=FIX.4.1|9=48|35=0|34=509|49=ABN2|56=BLP|52=20110224-02:46:32|10=082||0|
M|510|0|0|I|20110224-02:47:02.610|70|8=FIX.4.1|9=48|35=0|34=510|49=ABN2|56=BLP|52=20110224-02:47:02|10=072||0|
M|511|0|0|I|20110224-02:47:32.689|70|8=FIX.4.1|9=48|35=0|34=511|49=ABN2|56=BLP|52=20110224-02:47:32|10=076||0|
M|512|0|0|I|20110224-02:48:02.777|70|8=FIX.4.1|9=48|35=0|34=512|49=ABN2|56=BLP|52=20110224-02:48:02|10=075||0|
M|513|0|0|I|20110224-02:48:32.866|70|8=FIX.4.1|9=48|35=0|34=513|49=ABN2|56=BLP|52=20110224-02:48:32|10=079||0|
M|514|0|0|I|20110224-02:49:02.955|70|8=FIX.4.1|9=48|35=0|34=514|49=ABN2|56=BLP|52=20110224-02:49:02|10=078||0|
M|515|0|0|I|20110224-02:49:33.044|70|8=FIX.4.1|9=48|35=0|34=515|49=ABN2|56=BLP|52=20110224-02:49:33|10=083||0|
M|516|0|0|I|20110224-02:50:03.132|70|8=FIX.4.1|9=48|35=0|34=516|49=ABN2|56=BLP|52=20110224-02:50:03|10=073||0|
M|517|0|0|I|20110224-02:50:33.211|70|8=FIX.4.1|9=48|35=0|34=517|49=ABN2|56=BLP|52=20110224-02:50:33|10=077||0|
M|518|0|0|I|20110224-02:51:03.290|70|8=FIX.4.1|9=48|35=0|34=518|49=ABN2|56=BLP|52=20110224-02:51:03|10=076||0|
M|519|0|0|I|20110224-02:51:33.378|70|8=FIX.4.1|9=48|35=0|34=519|49=ABN2|56=BLP|52=20110224-02:51:33|10=080||0|
M|520|0|0|I|20110224-02:52:03.467|70|8=FIX.4.1|9=48|35=0|34=520|49=ABN2|56=BLP|52=20110224-02:52:03|10=070||0|
M|521|0|0|I|20110224-02:52:33.556|70|8=FIX.4.1|9=48|35=0|34=521|49=ABN2|56=BLP|52=20110224-02:52:33|10=074||0|
M|522|0|0|I|20110224-02:53:03.644|70|8=FIX.4.1|9=48|35=0|34=522|49=ABN2|56=BLP|52=20110224-02:53:03|10=073||0|
M|523|0|0|I|20110224-02:53:33.723|70|8=FIX.4.1|9=48|35=0|34=523|49=ABN2|56=BLP|52=20110224-02:53:33|10=077||0|
M|524|0|0|I|20110224-02:54:03.812|70|8=FIX.4.1|9=48|35=0|34=524|49=ABN2|56=BLP|52=20110224-02:54:03|10=076||0|
M|525|0|0|I|20110224-02:54:33.900|70|8=FIX.4.1|9=48|35=0|34=525|49=ABN2|56=BLP|52=20110224-02:54:33|10=080||0|
M|526|0|0|I|20110224-02:55:03.989|70|8=FIX.4.1|9=48|35=0|34=526|49=ABN2|56=BLP|52=20110224-02:55:03|10=079||0|
M|527|0|0|I|20110224-02:55:34.078|70|8=FIX.4.1|9=48|35=0|34=527|49=ABN2|56=BLP|52=20110224-02:55:34|10=084||0|
M|528|0|0|I|20110224-02:56:04.166|70|8=FIX.4.1|9=48|35=0|34=528|49=ABN2|56=BLP|52=20110224-02:56:04|10=083||0|
M|529|0|0|I|20110224-02:56:34.255|70|8=FIX.4.1|9=48|35=0|34=529|49=ABN2|56=BLP|52=20110224-02:56:34|10=087||0|
M|530|0|0|I|20110224-02:57:04.284|70|8=FIX.4.1|9=48|35=0|34=530|49=ABN2|56=BLP|52=20110224-02:57:04|10=077||0|
M|531|0|0|I|20110224-02:57:34.373|70|8=FIX.4.1|9=48|35=0|34=531|49=ABN2|56=BLP|52=20110224-02:57:34|10=081||0|
M|532|0|0|I|20110224-02:58:04.451|70|8=FIX.4.1|9=48|35=0|34=532|49=ABN2|56=BLP|52=20110224-02:58:04|10=080||0|
M|533|0|0|I|20110224-02:58:34.540|70|8=FIX.4.1|9=48|35=0|34=533|49=ABN2|56=BLP|52=20110224-02:58:34|10=084||0|
M|534|0|0|I|20110224-02:59:04.629|70|8=FIX.4.1|9=48|35=0|34=534|49=ABN2|56=BLP|52=20110224-02:59:04|10=083||0|
M|535|0|0|I|20110224-02:59:34.717|70|8=FIX.4.1|9=48|35=0|34=535|49=ABN2|56=BLP|52=20110224-02:59:34|10=087||0|
M|536|0|0|I|20110224-03:00:04.816|70|8=FIX.4.1|9=48|35=0|34=536|49=ABN2|56=BLP|52=20110224-03:00:04|10=072||0|
M|537|0|0|I|20110224-03:00:34.905|70|8=FIX.4.1|9=48|35=0|34=537|49=ABN2|56=BLP|52=20110224-03:00:34|10=076||0|
M|538|0|0|I|20110224-03:01:04.983|70|8=FIX.4.1|9=48|35=0|34=538|49=ABN2|56=BLP|52=20110224-03:01:04|10=075||0|
M|539|0|0|I|20110224-03:01:35.072|70|8=FIX.4.1|9=48|35=0|34=539|49=ABN2|56=BLP|52=20110224-03:01:35|10=080||0|
M|540|0|0|I|20110224-03:02:05.151|70|8=FIX.4.1|9=48|35=0|34=540|49=ABN2|56=BLP|52=20110224-03:02:05|10=070||0|
M|541|0|0|I|20110224-03:02:35.239|70|8=FIX.4.1|9=48|35=0|34=541|49=ABN2|56=BLP|52=20110224-03:02:35|10=074||0|
M|542|0|0|I|20110224-03:03:05.328|70|8=FIX.4.1|9=48|35=0|34=542|49=ABN2|56=BLP|52=20110224-03:03:05|10=073||0|
M|543|0|0|I|20110224-03:03:35.417|70|8=FIX.4.1|9=48|35=0|34=543|49=ABN2|56=BLP|52=20110224-03:03:35|10=077||0|
M|544|0|0|I|20110224-03:04:05.505|70|8=FIX.4.1|9=48|35=0|34=544|49=ABN2|56=BLP|52=20110224-03:04:05|10=076||0|
M|545|0|0|I|20110224-03:04:35.594|70|8=FIX.4.1|9=48|35=0|34=545|49=ABN2|56=BLP|52=20110224-03:04:35|10=080||0|
M|546|0|0|I|20110224-03:05:05.703|70|8=FIX.4.1|9=48|35=0|34=546|49=ABN2|56=BLP|52=20110224-03:05:05|10=079||0|
M|547|0|0|I|20110224-03:05:35.781|70|8=FIX.4.1|9=48|35=0|34=547|49=ABN2|56=BLP|52=20110224-03:05:35|10=083||0|
M|548|0|8|I|20110224-03:05:56.840|323|8=FIX.4.1|9=300|35=8|50=ABN2|57=4058176|34=548|49=ABN2|56=BLP|52=20110224-03:05:56|6=2.7600|11=20110224-00002|14=20072|15=AUD|17=36706422|20=0|22=2|31=2.7600|32=9458|37=28551662PT|38=188125|39=1|40=1|48=6087289|54=2|55=TLS|58=pls confirm by blg MSG, CD|59=0|63=6|75=20110224|120=AUD|150=1|151=168053|109=LLOGM|30=AU|10=253||2|AidaCode|LLOGM|ClientConnectionName|Lloyd_George_Prog|
M|549|0|8|I|20110224-03:05:56.846|324|8=FIX.4.1|9=301|35=8|50=ABN2|57=4058176|34=549|49=ABN2|56=BLP|52=20110224-03:05:56|6=2.7600|11=20110224-00002|14=32455|15=AUD|17=36706432|20=0|22=2|31=2.7600|32=12383|37=28551662PT|38=188125|39=1|40=1|48=6087289|54=2|55=TLS|58=pls confirm by blg MSG, CD|59=0|63=6|75=20110224|120=AUD|150=1|151=155670|109=LLOGM|30=AU|10=048||2|AidaCode|LLOGM|ClientConnectionName|Lloyd_George_Prog|
M|550|0|0|I|20110224-03:06:27.299|70|8=FIX.4.1|9=48|35=0|34=550|49=ABN2|56=BLP|52=20110224-03:06:27|10=079||0|
M|551|0|0|I|20110224-03:06:57.388|70|8=FIX.4.1|9=48|35=0|34=551|49=ABN2|56=BLP|52=20110224-03:06:57|10=083||0|
M|552|0|0|I|20110224-03:07:27.477|70|8=FIX.4.1|9=48|35=0|34=552|49=ABN2|56=BLP|52=20110224-03:07:27|10=082||0|
M|553|0|0|I|20110224-03:07:57.565|70|8=FIX.4.1|9=48|35=0|34=553|49=ABN2|56=BLP|52=20110224-03:07:57|10=086||0|
M|554|0|0|I|20110224-03:08:27.654|70|8=FIX.4.1|9=48|35=0|34=554|49=ABN2|56=BLP|52=20110224-03:08:27|10=085||0|
M|555|0|0|I|20110224-03:08:57.753|70|8=FIX.4.1|9=48|35=0|34=555|49=ABN2|56=BLP|52=20110224-03:08:57|10=089||0|
M|556|0|0|I|20110224-03:09:27.841|70|8=FIX.4.1|9=48|35=0|34=556|49=ABN2|56=BLP|52=20110224-03:09:27|10=088||0|
M|557|0|0|I|20110224-03:09:57.930|70|8=FIX.4.1|9=48|35=0|34=557|49=ABN2|56=BLP|52=20110224-03:09:57|10=092||0|
M|558|0|0|I|20110224-03:10:28.019|70|8=FIX.4.1|9=48|35=0|34=558|49=ABN2|56=BLP|52=20110224-03:10:28|10=083||0|
M|559|0|0|I|20110224-03:10:58.107|70|8=FIX.4.1|9=48|35=0|34=559|49=ABN2|56=BLP|52=20110224-03:10:58|10=087||0|
M|560|0|0|I|20110224-03:11:28.186|70|8=FIX.4.1|9=48|35=0|34=560|49=ABN2|56=BLP|52=20110224-03:11:28|10=077||0|
M|561|0|0|I|20110224-03:11:58.265|70|8=FIX.4.1|9=48|35=0|34=561|49=ABN2|56=BLP|52=20110224-03:11:58|10=081||0|
M|562|0|0|I|20110224-03:12:28.343|70|8=FIX.4.1|9=48|35=0|34=562|49=ABN2|56=BLP|52=20110224-03:12:28|10=080||0|
M|563|0|0|I|20110224-03:12:58.432|70|8=FIX.4.1|9=48|35=0|34=563|49=ABN2|56=BLP|52=20110224-03:12:58|10=084||0|
M|564|0|0|I|20110224-03:13:28.521|70|8=FIX.4.1|9=48|35=0|34=564|49=ABN2|56=BLP|52=20110224-03:13:28|10=083||0|
M|565|0|0|I|20110224-03:13:58.610|70|8=FIX.4.1|9=48|35=0|34=565|49=ABN2|56=BLP|52=20110224-03:13:58|10=087||0|
M|566|0|0|I|20110224-03:14:28.698|70|8=FIX.4.1|9=48|35=0|34=566|49=ABN2|56=BLP|52=20110224-03:14:28|10=086||0|
M|567|0|0|I|20110224-03:14:58.787|70|8=FIX.4.1|9=48|35=0|34=567|49=ABN2|56=BLP|52=20110224-03:14:58|10=090||0|
M|568|0|0|I|20110224-03:15:28.866|70|8=FIX.4.1|9=48|35=0|34=568|49=ABN2|56=BLP|52=20110224-03:15:28|10=089||0|
M|569|0|0|I|20110224-03:15:58.954|70|8=FIX.4.1|9=48|35=0|34=569|49=ABN2|56=BLP|52=20110224-03:15:58|10=093||0|
M|570|0|0|I|20110224-03:16:29.043|70|8=FIX.4.1|9=48|35=0|34=570|49=ABN2|56=BLP|52=20110224-03:16:29|10=084||0|
M|571|0|0|I|20110224-03:16:59.132|70|8=FIX.4.1|9=48|35=0|34=571|49=ABN2|56=BLP|52=20110224-03:16:59|10=088||0|
M|572|0|0|I|20110224-03:17:29.220|70|8=FIX.4.1|9=48|35=0|34=572|49=ABN2|56=BLP|52=20110224-03:17:29|10=087||0|
M|573|0|0|I|20110224-03:17:59.309|70|8=FIX.4.1|9=48|35=0|34=573|49=ABN2|56=BLP|52=20110224-03:17:59|10=091||0|
M|574|0|0|I|20110224-03:18:29.398|70|8=FIX.4.1|9=48|35=0|34=574|49=ABN2|56=BLP|52=20110224-03:18:29|10=090||0|
M|575|0|0|I|20110224-03:18:59.486|70|8=FIX.4.1|9=48|35=0|34=575|49=ABN2|56=BLP|52=20110224-03:18:59|10=094||0|
M|576|0|0|I|20110224-03:19:29.565|70|8=FIX.4.1|9=48|35=0|34=576|49=ABN2|56=BLP|52=20110224-03:19:29|10=093||0|
M|577|0|0|I|20110224-03:19:59.654|70|8=FIX.4.1|9=48|35=0|34=577|49=ABN2|56=BLP|52=20110224-03:19:59|10=097||0|
M|578|0|0|I|20110224-03:20:29.733|70|8=FIX.4.1|9=48|35=0|34=578|49=ABN2|56=BLP|52=20110224-03:20:29|10=087||0|
M|579|0|0|I|20110224-03:20:59.831|70|8=FIX.4.1|9=48|35=0|34=579|49=ABN2|56=BLP|52=20110224-03:20:59|10=091||0|
M|580|0|0|I|20110224-03:21:29.920|70|8=FIX.4.1|9=48|35=0|34=580|49=ABN2|56=BLP|52=20110224-03:21:29|10=081||0|
M|581|0|0|I|20110224-03:22:00.009|70|8=FIX.4.1|9=48|35=0|34=581|49=ABN2|56=BLP|52=20110224-03:22:00|10=072||0|
M|582|0|0|I|20110224-03:22:30.107|70|8=FIX.4.1|9=48|35=0|34=582|49=ABN2|56=BLP|52=20110224-03:22:30|10=076||0|
M|583|0|0|I|20110224-03:23:00.196|70|8=FIX.4.1|9=48|35=0|34=583|49=ABN2|56=BLP|52=20110224-03:23:00|10=075||0|
M|584|0|0|I|20110224-03:23:30.295|70|8=FIX.4.1|9=48|35=0|34=584|49=ABN2|56=BLP|52=20110224-03:23:30|10=079||0|
M|585|0|0|I|20110224-03:24:00.383|70|8=FIX.4.1|9=48|35=0|34=585|49=ABN2|56=BLP|52=20110224-03:24:00|10=078||0|
M|586|0|0|I|20110224-03:24:30.472|70|8=FIX.4.1|9=48|35=0|34=586|49=ABN2|56=BLP|52=20110224-03:24:30|10=082||0|
M|587|0|0|I|20110224-03:25:00.561|70|8=FIX.4.1|9=48|35=0|34=587|49=ABN2|56=BLP|52=20110224-03:25:00|10=081||0|
M|588|0|0|I|20110224-03:25:30.649|70|8=FIX.4.1|9=48|35=0|34=588|49=ABN2|56=BLP|52=20110224-03:25:30|10=085||0|
M|589|0|0|I|20110224-03:26:00.738|70|8=FIX.4.1|9=48|35=0|34=589|49=ABN2|56=BLP|52=20110224-03:26:00|10=084||0|
M|590|0|0|I|20110224-03:26:30.827|70|8=FIX.4.1|9=48|35=0|34=590|49=ABN2|56=BLP|52=20110224-03:26:30|10=079||0|
M|591|0|8|I|20110224-03:26:53.838|289|8=FIX.4.1|9=266|35=8|50=ABN2|57=182508|34=591|49=ABN2|56=BLP|52=20110224-03:26:53|6=0.0000|11=20110224-00003|14=0|15=THB|17=36706442|20=0|22=2|31=0.0000|32=0|37=28551672PT|38=886100|39=0|40=1|48=B1359J0|54=1|55=PTTEP/F|58=cd order, pls confirm by bb|59=0|150=0|151=886100|109=LLOGM|10=115||2|AidaCode|LLOGM|ClientConnectionName|Lloyd_George_Prog|
M|592|0|0|I|20110224-03:26:55.727|98|8=FIX.4.1|9=76|35=0|34=592|49=ABN2|56=BLP|52=20110224-03:26:55|112=C.01B9.024F.0250.032655|10=218||0|
M|593|0|0|I|20110224-03:27:25.904|70|8=FIX.4.1|9=48|35=0|34=593|49=ABN2|56=BLP|52=20110224-03:27:25|10=087||0|
M|594|0|0|I|20110224-03:27:55.994|70|8=FIX.4.1|9=48|35=0|34=594|49=ABN2|56=BLP|52=20110224-03:27:55|10=091||0|
M|595|0|0|I|20110224-03:28:26.072|70|8=FIX.4.1|9=48|35=0|34=595|49=ABN2|56=BLP|52=20110224-03:28:26|10=091||0|
M|596|0|0|I|20110224-03:28:56.160|70|8=FIX.4.1|9=48|35=0|34=596|49=ABN2|56=BLP|52=20110224-03:28:56|10=095||0|
M|597|0|0|I|20110224-03:29:26.249|70|8=FIX.4.1|9=48|35=0|34=597|49=ABN2|56=BLP|52=20110224-03:29:26|10=094||0|
M|598|0|0|I|20110224-03:29:56.338|70|8=FIX.4.1|9=48|35=0|34=598|49=ABN2|56=BLP|52=20110224-03:29:56|10=098||0|
M|599|0|0|I|20110224-03:30:26.436|70|8=FIX.4.1|9=48|35=0|34=599|49=ABN2|56=BLP|52=20110224-03:30:26|10=088||0|
M|600|0|0|I|20110224-03:30:56.525|70|8=FIX.4.1|9=48|35=0|34=600|49=ABN2|56=BLP|52=20110224-03:30:56|10=074||0|
M|601|0|0|I|20110224-03:31:26.614|70|8=FIX.4.1|9=48|35=0|34=601|49=ABN2|56=BLP|52=20110224-03:31:26|10=073||0|
M|602|0|0|I|20110224-03:31:56.723|70|8=FIX.4.1|9=48|35=0|34=602|49=ABN2|56=BLP|52=20110224-03:31:56|10=077||0|
M|603|0|8|I|20110224-03:31:57.335|324|8=FIX.4.1|9=301|35=8|50=ABN2|57=4058176|34=603|49=ABN2|56=BLP|52=20110224-03:31:57|6=2.7600|11=20110224-00002|14=54447|15=AUD|17=36706452|20=0|22=2|31=2.7600|32=21992|37=28551662PT|38=188125|39=1|40=1|48=6087289|54=2|55=TLS|58=pls confirm by blg MSG, CD|59=0|63=6|75=20110224|120=AUD|150=1|151=133678|109=LLOGM|30=AU|10=056||2|AidaCode|LLOGM|ClientConnectionName|Lloyd_George_Prog|
M|604|0|0|I|20110224-03:32:27.831|70|8=FIX.4.1|9=48|35=0|34=604|49=ABN2|56=BLP|52=20110224-03:32:27|10=078||0|
M|605|0|0|I|20110224-03:32:57.920|70|8=FIX.4.1|9=48|35=0|34=605|49=ABN2|56=BLP|52=20110224-03:32:57|10=082||0|
M|606|0|0|I|20110224-03:33:27.999|70|8=FIX.4.1|9=48|35=0|34=606|49=ABN2|56=BLP|52=20110224-03:33:27|10=081||0|
M|607|0|0|I|20110224-03:33:58.097|70|8=FIX.4.1|9=48|35=0|34=607|49=ABN2|56=BLP|52=20110224-03:33:58|10=086||0|
M|608|0|0|I|20110224-03:34:28.186|70|8=FIX.4.1|9=48|35=0|34=608|49=ABN2|56=BLP|52=20110224-03:34:28|10=085||0|
M|609|0|0|I|20110224-03:34:58.275|70|8=FIX.4.1|9=48|35=0|34=609|49=ABN2|56=BLP|52=20110224-03:34:58|10=089||0|
M|610|0|0|I|20110224-03:35:28.363|70|8=FIX.4.1|9=48|35=0|34=610|49=ABN2|56=BLP|52=20110224-03:35:28|10=079||0|
M|611|0|0|I|20110224-03:35:58.442|70|8=FIX.4.1|9=48|35=0|34=611|49=ABN2|56=BLP|52=20110224-03:35:58|10=083||0|
M|612|0|0|I|20110224-03:36:28.541|70|8=FIX.4.1|9=48|35=0|34=612|49=ABN2|56=BLP|52=20110224-03:36:28|10=082||0|
M|613|0|0|I|20110224-03:36:58.650|70|8=FIX.4.1|9=48|35=0|34=613|49=ABN2|56=BLP|52=20110224-03:36:58|10=086||0|
M|614|0|0|I|20110224-03:37:28.748|70|8=FIX.4.1|9=48|35=0|34=614|49=ABN2|56=BLP|52=20110224-03:37:28|10=085||0|
M|615|0|0|I|20110224-03:37:58.837|70|8=FIX.4.1|9=48|35=0|34=615|49=ABN2|56=BLP|52=20110224-03:37:58|10=089||0|
M|616|0|0|I|20110224-03:38:28.936|70|8=FIX.4.1|9=48|35=0|34=616|49=ABN2|56=BLP|52=20110224-03:38:28|10=088||0|
M|617|0|8|I|20110224-03:38:33.602|332|8=FIX.4.1|9=309|35=8|50=ABN2|57=182508|34=617|49=ABN2|56=BLP|52=20110224-03:38:33|6=184.5000|11=20110224-00003|14=18600|15=THB|17=36706462|20=0|22=2|31=184.5000|32=18600|37=28551672PT|38=886100|39=1|40=1|48=B1359J0|54=1|55=PTTEP/F|58=cd order, pls confirm by bb|59=0|63=6|75=20110224|120=THB|150=1|151=867500|109=LLOGM|30=TB|10=243||2|AidaCode|LLOGM|ClientConnectionName|Lloyd_George_Prog|
M|618|0|8|I|20110224-03:38:34.117|332|8=FIX.4.1|9=309|35=8|50=ABN2|57=182508|34=618|49=ABN2|56=BLP|52=20110224-03:38:34|6=184.5000|11=20110224-00003|14=30000|15=THB|17=36706472|20=0|22=2|31=184.5000|32=11400|37=28551672PT|38=886100|39=1|40=1|48=B1359J0|54=1|55=PTTEP/F|58=cd order, pls confirm by bb|59=0|63=6|75=20110224|120=THB|150=1|151=856100|109=LLOGM|30=TB|10=219||2|AidaCode|LLOGM|ClientConnectionName|Lloyd_George_Prog|
M|619|0|0|I|20110224-03:39:04.124|70|8=FIX.4.1|9=48|35=0|34=619|49=ABN2|56=BLP|52=20110224-03:39:04|10=086||0|
M|620|0|0|I|20110224-03:39:34.213|70|8=FIX.4.1|9=48|35=0|34=620|49=ABN2|56=BLP|52=20110224-03:39:34|10=081||0|
M|621|0|0|I|20110224-03:40:04.301|70|8=FIX.4.1|9=48|35=0|34=621|49=ABN2|56=BLP|52=20110224-03:40:04|10=071||0|
M|622|0|0|I|20110224-03:40:34.400|70|8=FIX.4.1|9=48|35=0|34=622|49=ABN2|56=BLP|52=20110224-03:40:34|10=075||0|
M|623|0|0|I|20110224-03:41:04.489|70|8=FIX.4.1|9=48|35=0|34=623|49=ABN2|56=BLP|52=20110224-03:41:04|10=074||0|
M|624|0|0|I|20110224-03:41:34.557|70|8=FIX.4.1|9=48|35=0|34=624|49=ABN2|56=BLP|52=20110224-03:41:34|10=078||0|
M|625|0|0|I|20110224-03:42:04.646|70|8=FIX.4.1|9=48|35=0|34=625|49=ABN2|56=BLP|52=20110224-03:42:04|10=077||0|
M|626|0|0|I|20110224-03:42:34.745|70|8=FIX.4.1|9=48|35=0|34=626|49=ABN2|56=BLP|52=20110224-03:42:34|10=081||0|
M|627|0|0|I|20110224-03:43:04.824|70|8=FIX.4.1|9=48|35=0|34=627|49=ABN2|56=BLP|52=20110224-03:43:04|10=080||0|
M|628|0|0|I|20110224-03:43:34.912|70|8=FIX.4.1|9=48|35=0|34=628|49=ABN2|56=BLP|52=20110224-03:43:34|10=084||0|
M|629|0|0|I|20110224-03:44:05.003|70|8=FIX.4.1|9=48|35=0|34=629|49=ABN2|56=BLP|52=20110224-03:44:05|10=084||0|
M|630|0|0|I|20110224-03:44:35.090|70|8=FIX.4.1|9=48|35=0|34=630|49=ABN2|56=BLP|52=20110224-03:44:35|10=079||0|
M|631|0|8|I|20110224-03:44:58.663|331|8=FIX.4.1|9=308|35=8|50=ABN2|57=182508|34=631|49=ABN2|56=BLP|52=20110224-03:44:58|6=184.5000|11=20110224-00003|14=38400|15=THB|17=36706482|20=0|22=2|31=184.5000|32=8400|37=28551672PT|38=886100|39=1|40=1|48=B1359J0|54=1|55=PTTEP/F|58=cd order, pls confirm by bb|59=0|63=6|75=20110224|120=THB|150=1|151=847700|109=LLOGM|30=TB|10=193||2|AidaCode|LLOGM|ClientConnectionName|Lloyd_George_Prog|
M|632|0|0|I|20110224-03:45:29.137|70|8=FIX.4.1|9=48|35=0|34=632|49=ABN2|56=BLP|52=20110224-03:45:29|10=085||0|
M|633|0|8|I|20110224-03:45:34.902|330|8=FIX.4.1|9=307|35=8|50=ABN2|57=182508|34=633|49=ABN2|56=BLP|52=20110224-03:45:34|6=184.5000|11=20110224-00003|14=38900|15=THB|17=36706492|20=0|22=2|31=184.5000|32=500|37=28551672PT|38=886100|39=1|40=1|48=B1359J0|54=1|55=PTTEP/F|58=cd order, pls confirm by bb|59=0|63=6|75=20110224|120=THB|150=1|151=847200|109=LLOGM|30=TB|10=135||2|AidaCode|LLOGM|ClientConnectionName|Lloyd_George_Prog|
M|634|0|0|I|20110224-03:46:05.346|70|8=FIX.4.1|9=48|35=0|34=634|49=ABN2|56=BLP|52=20110224-03:46:05|10=082||0|
M|635|0|8|I|20110224-03:46:25.909|330|8=FIX.4.1|9=307|35=8|50=ABN2|57=182508|34=635|49=ABN2|56=BLP|52=20110224-03:46:25|6=184.5000|11=20110224-00003|14=39100|15=THB|17=36706502|20=0|22=2|31=184.5000|32=200|37=28551672PT|38=886100|39=1|40=1|48=B1359J0|54=1|55=PTTEP/F|58=cd order, pls confirm by bb|59=0|63=6|75=20110224|120=THB|150=1|151=847000|109=LLOGM|30=TB|10=118||2|AidaCode|LLOGM|ClientConnectionName|Lloyd_George_Prog|
M|636|0|8|I|20110224-03:46:38.157|331|8=FIX.4.1|9=308|35=8|50=ABN2|57=182508|34=636|49=ABN2|56=BLP|52=20110224-03:46:38|6=184.5000|11=20110224-00003|14=40100|15=THB|17=36706512|20=0|22=2|31=184.5000|32=1000|37=28551672PT|38=886100|39=1|40=1|48=B1359J0|54=1|55=PTTEP/F|58=cd order, pls confirm by bb|59=0|63=6|75=20110224|120=THB|150=1|151=846000|109=LLOGM|30=TB|10=163||2|AidaCode|LLOGM|ClientConnectionName|Lloyd_George_Prog|
M|637|0|0|I|20110224-03:47:08.563|70|8=FIX.4.1|9=48|35=0|34=637|49=ABN2|56=BLP|52=20110224-03:47:08|10=089||0|
M|638|0|0|I|20110224-03:47:38.642|70|8=FIX.4.1|9=48|35=0|34=638|49=ABN2|56=BLP|52=20110224-03:47:38|10=093||0|
M|639|0|8|I|20110224-03:47:38.856|330|8=FIX.4.1|9=307|35=8|50=ABN2|57=182508|34=639|49=ABN2|56=BLP|52=20110224-03:47:38|6=184.5000|11=20110224-00003|14=40200|15=THB|17=36706522|20=0|22=2|31=184.5000|32=100|37=28551672PT|38=886100|39=1|40=1|48=B1359J0|54=1|55=PTTEP/F|58=cd order, pls confirm by bb|59=0|63=6|75=20110224|120=THB|150=1|151=845900|109=LLOGM|30=TB|10=128||2|AidaCode|LLOGM|ClientConnectionName|Lloyd_George_Prog|
M|640|0|0|I|20110224-03:48:09.240|70|8=FIX.4.1|9=48|35=0|34=640|49=ABN2|56=BLP|52=20110224-03:48:09|10=085||0|
M|641|0|8|I|20110224-03:48:29.864|330|8=FIX.4.1|9=307|35=8|50=ABN2|57=182508|34=641|49=ABN2|56=BLP|52=20110224-03:48:29|6=184.5000|11=20110224-00003|14=40700|15=THB|17=36706532|20=0|22=2|31=184.5000|32=500|37=28551672PT|38=886100|39=1|40=1|48=B1359J0|54=1|55=PTTEP/F|58=cd order, pls confirm by bb|59=0|63=6|75=20110224|120=THB|150=1|151=845400|109=LLOGM|30=TB|10=127||2|AidaCode|LLOGM|ClientConnectionName|Lloyd_George_Prog|
M|642|0|8|I|20110224-03:48:42.113|331|8=FIX.4.1|9=308|35=8|50=ABN2|57=182508|34=642|49=ABN2|56=BLP|52=20110224-03:48:42|6=184.5000|11=20110224-00003|14=42700|15=THB|17=36706542|20=0|22=2|31=184.5000|32=2000|37=28551672PT|38=886100|39=1|40=1|48=B1359J0|54=1|55=PTTEP/F|58=cd order, pls confirm by bb|59=0|63=6|75=20110224|120=THB|150=1|151=843400|109=LLOGM|30=TB|10=170||2|AidaCode|LLOGM|ClientConnectionName|Lloyd_George_Prog|
M|643|0|8|I|20110224-03:48:51.303|331|8=FIX.4.1|9=308|35=8|50=ABN2|57=182508|34=643|49=ABN2|56=BLP|52=20110224-03:48:51|6=184.5000|11=20110224-00003|14=44600|15=THB|17=36706552|20=0|22=2|31=184.5000|32=1900|37=28551672PT|38=886100|39=1|40=1|48=B1359J0|54=1|55=PTTEP/F|58=cd order, pls confirm by bb|59=0|63=6|75=20110224|120=THB|150=1|151=841500|109=LLOGM|30=TB|10=180||2|AidaCode|LLOGM|ClientConnectionName|Lloyd_George_Prog|
M|644|0|8|I|20110224-03:48:54.372|330|8=FIX.4.1|9=307|35=8|50=ABN2|57=182508|34=644|49=ABN2|56=BLP|52=20110224-03:48:54|6=184.5000|11=20110224-00003|14=44800|15=THB|17=36706562|20=0|22=2|31=184.5000|32=200|37=28551672PT|38=886100|39=1|40=1|48=B1359J0|54=1|55=PTTEP/F|58=cd order, pls confirm by bb|59=0|63=6|75=20110224|120=THB|150=1|151=841300|109=LLOGM|30=TB|10=128||2|AidaCode|LLOGM|ClientConnectionName|Lloyd_George_Prog|
M|645|0|8|I|20110224-03:48:58.462|330|8=FIX.4.1|9=307|35=8|50=ABN2|57=182508|34=645|49=ABN2|56=BLP|52=20110224-03:48:58|6=184.5000|11=20110224-00003|14=45600|15=THB|17=36706572|20=0|22=2|31=184.5000|32=800|37=28551672PT|38=886100|39=1|40=1|48=B1359J0|54=1|55=PTTEP/F|58=cd order, pls confirm by bb|59=0|63=6|75=20110224|120=THB|150=1|151=840500|109=LLOGM|30=TB|10=140||2|AidaCode|LLOGM|ClientConnectionName|Lloyd_George_Prog|
M|646|0|8|I|20110224-03:49:02.042|331|8=FIX.4.1|9=308|35=8|50=ABN2|57=182508|34=646|49=ABN2|56=BLP|52=20110224-03:49:02|6=184.5000|11=20110224-00003|14=50000|15=THB|17=36706582|20=0|22=2|31=184.5000|32=4400|37=28551672PT|38=886100|39=1|40=1|48=B1359J0|54=1|55=PTTEP/F|58=cd order, pls confirm by bb|59=0|63=6|75=20110224|120=THB|150=1|151=836100|109=LLOGM|30=TB|10=172||2|AidaCode|LLOGM|ClientConnectionName|Lloyd_George_Prog|
M|647|0|8|I|20110224-03:49:08.171|331|8=FIX.4.1|9=308|35=8|50=ABN2|57=182508|34=647|49=ABN2|56=BLP|52=20110224-03:49:08|6=184.5000|11=20110224-00003|14=55900|15=THB|17=36706592|20=0|22=2|31=184.5000|32=5900|37=28551672PT|38=886100|39=1|40=1|48=B1359J0|54=1|55=PTTEP/F|58=cd order, pls confirm by bb|59=0|63=6|75=20110224|120=THB|150=1|151=830200|109=LLOGM|30=TB|10=195||2|AidaCode|LLOGM|ClientConnectionName|Lloyd_George_Prog|
M|648|0|8|I|20110224-03:49:11.750|331|8=FIX.4.1|9=308|35=8|50=ABN2|57=182508|34=648|49=ABN2|56=BLP|52=20110224-03:49:11|6=184.5000|11=20110224-00003|14=61600|15=THB|17=36706602|20=0|22=2|31=184.5000|32=5700|37=28551672PT|38=886100|39=1|40=1|48=B1359J0|54=1|55=PTTEP/F|58=cd order, pls confirm by bb|59=0|63=6|75=20110224|120=THB|150=1|151=824500|109=LLOGM|30=TB|10=180||2|AidaCode|LLOGM|ClientConnectionName|Lloyd_George_Prog|
M|649|0|8|I|20110224-03:49:17.883|330|8=FIX.4.1|9=307|35=8|50=ABN2|57=182508|34=649|49=ABN2|56=BLP|52=20110224-03:49:17|6=184.5000|11=20110224-00003|14=61800|15=THB|17=36706612|20=0|22=2|31=184.5000|32=200|37=28551672PT|38=886100|39=1|40=1|48=B1359J0|54=1|55=PTTEP/F|58=cd order, pls confirm by bb|59=0|63=6|75=20110224|120=THB|150=1|151=824300|109=LLOGM|30=TB|10=129||2|AidaCode|LLOGM|ClientConnectionName|Lloyd_George_Prog|
M|650|0|8|I|20110224-03:49:17.886|330|8=FIX.4.1|9=307|35=8|50=ABN2|57=182508|34=650|49=ABN2|56=BLP|52=20110224-03:49:17|6=184.5000|11=20110224-00003|14=62100|15=THB|17=36706622|20=0|22=2|31=184.5000|32=300|37=28551672PT|38=886100|39=1|40=1|48=B1359J0|54=1|55=PTTEP/F|58=cd order, pls confirm by bb|59=0|63=6|75=20110224|120=THB|150=1|151=824000|109=LLOGM|30=TB|10=114||2|AidaCode|LLOGM|ClientConnectionName|Lloyd_George_Prog|
M|651|0|8|I|20110224-03:49:24.021|331|8=FIX.4.1|9=308|35=8|50=ABN2|57=182508|34=651|49=ABN2|56=BLP|52=20110224-03:49:24|6=184.5000|11=20110224-00003|14=65000|15=THB|17=36706632|20=0|22=2|31=184.5000|32=2900|37=28551672PT|38=886100|39=1|40=1|48=B1359J0|54=1|55=PTTEP/F|58=cd order, pls confirm by bb|59=0|63=6|75=20110224|120=THB|150=1|151=821100|109=LLOGM|30=TB|10=171||2|AidaCode|LLOGM|ClientConnectionName|Lloyd_George_Prog|
M|652|0|8|I|20110224-03:49:39.330|331|8=FIX.4.1|9=308|35=8|50=ABN2|57=182508|34=652|49=ABN2|56=BLP|52=20110224-03:49:39|6=184.5000|11=20110224-00003|14=68000|15=THB|17=36706642|20=0|22=2|31=184.5000|32=3000|37=28551672PT|38=886100|39=1|40=1|48=B1359J0|54=1|55=PTTEP/F|58=cd order, pls confirm by bb|59=0|63=6|75=20110224|120=THB|150=1|151=818100|109=LLOGM|30=TB|10=180||2|AidaCode|LLOGM|ClientConnectionName|Lloyd_George_Prog|
M|653|0|8|I|20110224-03:49:57.700|330|8=FIX.4.1|9=307|35=8|50=ABN2|57=182508|34=653|49=ABN2|56=BLP|52=20110224-03:49:57|6=184.5000|11=20110224-00003|14=68100|15=THB|17=36706652|20=0|22=2|31=184.5000|32=100|37=28551672PT|38=886100|39=1|40=1|48=B1359J0|54=1|55=PTTEP/F|58=cd order, pls confirm by bb|59=0|63=6|75=20110224|120=THB|150=1|151=818000|109=LLOGM|30=TB|10=131||2|AidaCode|LLOGM|ClientConnectionName|Lloyd_George_Prog|
M|654|0|8|I|20110224-03:50:13.020|330|8=FIX.4.1|9=307|35=8|50=ABN2|57=182508|34=654|49=ABN2|56=BLP|52=20110224-03:50:13|6=184.5000|11=20110224-00003|14=68700|15=THB|17=36706662|20=0|22=2|31=184.5000|32=600|37=28551672PT|38=886100|39=1|40=1|48=B1359J0|54=1|55=PTTEP/F|58=cd order, pls confirm by bb|59=0|63=6|75=20110224|120=THB|150=1|151=817400|109=LLOGM|30=TB|10=131||2|AidaCode|LLOGM|ClientConnectionName|Lloyd_George_Prog|
M|655|0|8|I|20110224-03:50:19.149|330|8=FIX.4.1|9=307|35=8|50=ABN2|57=182508|34=655|49=ABN2|56=BLP|52=20110224-03:50:19|6=184.5000|11=20110224-00003|14=69200|15=THB|17=36706672|20=0|22=2|31=184.5000|32=500|37=28551672PT|38=886100|39=1|40=1|48=B1359J0|54=1|55=PTTEP/F|58=cd order, pls confirm by bb|59=0|63=6|75=20110224|120=THB|150=1|151=816900|109=LLOGM|30=TB|10=138||2|AidaCode|LLOGM|ClientConnectionName|Lloyd_George_Prog|
M|656|0|8|I|20110224-03:50:19.669|330|8=FIX.4.1|9=307|35=8|50=ABN2|57=182508|34=656|49=ABN2|56=BLP|52=20110224-03:50:19|6=184.5000|11=20110224-00003|14=69300|15=THB|17=36706682|20=0|22=2|31=184.5000|32=100|37=28551672PT|38=886100|39=1|40=1|48=B1359J0|54=1|55=PTTEP/F|58=cd order, pls confirm by bb|59=0|63=6|75=20110224|120=THB|150=1|151=816800|109=LLOGM|30=TB|10=136||2|AidaCode|LLOGM|ClientConnectionName|Lloyd_George_Prog|
M|657|0|8|I|20110224-03:50:31.918|330|8=FIX.4.1|9=307|35=8|50=ABN2|57=182508|34=657|49=ABN2|56=BLP|52=20110224-03:50:31|6=184.5000|11=20110224-00003|14=69700|15=THB|17=36706692|20=0|22=2|31=184.5000|32=400|37=28551672PT|38=886100|39=1|40=1|48=B1359J0|54=1|55=PTTEP/F|58=cd order, pls confirm by bb|59=0|63=6|75=20110224|120=THB|150=1|151=816400|109=LLOGM|30=TB|10=135||2|AidaCode|LLOGM|ClientConnectionName|Lloyd_George_Prog|
M|658|0|8|I|20110224-03:50:44.178|330|8=FIX.4.1|9=307|35=8|50=ABN2|57=182508|34=658|49=ABN2|56=BLP|52=20110224-03:50:44|6=184.5000|11=20110224-00003|14=70000|15=THB|17=36706702|20=0|22=2|31=184.5000|32=300|37=28551672PT|38=886100|39=1|40=1|48=B1359J0|54=1|55=PTTEP/F|58=cd order, pls confirm by bb|59=0|63=6|75=20110224|120=THB|150=1|151=816100|109=LLOGM|30=TB|10=113||2|AidaCode|LLOGM|ClientConnectionName|Lloyd_George_Prog|
M|659|0|0|I|20110224-03:51:14.352|70|8=FIX.4.1|9=48|35=0|34=659|49=ABN2|56=BLP|52=20110224-03:51:14|10=085||0|
M|660|0|8|I|20110224-03:51:28.047|268|8=FIX.4.1|9=245|35=8|50=ABN2|57=4293876|34=660|49=ABN2|56=BLP|52=20110224-03:51:28|6=0.0000|11=20110224-00004|14=0|15=HKD|17=36706712|20=0|22=2|31=0.0000|32=0|37=28551682PT|38=587000|39=0|40=1|48=B1FJNT8|54=2|55=337|58=@vwap ovd|59=0|150=0|151=587000|109=AMM12|10=043||2|AidaCode|AMM12|ClientConnectionName|Delta_One_Facilit_HK|
M|661|0|8|I|20110224-03:51:28.051|268|8=FIX.4.1|9=245|35=8|50=ABN2|57=4293876|34=661|49=ABN2|56=BLP|52=20110224-03:51:28|6=0.0000|11=20110224-00005|14=0|15=HKD|17=36706722|20=0|22=2|31=0.0000|32=0|37=28551692PT|38=363000|39=0|40=1|48=B1YC2B3|54=2|55=658|58=@vwap ovd|59=0|150=0|151=363000|109=AMM12|10=254||2|AidaCode|AMM12|ClientConnectionName|Delta_One_Facilit_HK|
M|662|0|8|I|20110224-03:51:28.055|271|8=FIX.4.1|9=248|35=8|50=ABN2|57=4293876|34=662|49=ABN2|56=BLP|52=20110224-03:51:28|6=0.0000|11=20110224-00006|14=0|15=HKD|17=36706732|20=0|22=2|31=0.0000|32=0|37=28551702PT|38=1300000|39=0|40=1|48=B04NNB6|54=2|55=2369|58=@vwap ovd|59=0|150=0|151=1300000|109=AMM12|10=129||2|AidaCode|AMM12|ClientConnectionName|Delta_One_Facilit_HK|
M|663|0|8|I|20110224-03:51:28.062|271|8=FIX.4.1|9=248|35=8|50=ABN2|57=4293876|34=663|49=ABN2|56=BLP|52=20110224-03:51:28|6=0.0000|11=20110224-00007|14=0|15=HKD|17=36706742|20=0|22=2|31=0.0000|32=0|37=28551712PT|38=8917000|39=0|40=1|48=B282142|54=2|55=3818|58=@vwap ovd|59=0|150=0|151=8917000|109=AMM12|10=106||2|AidaCode|AMM12|ClientConnectionName|Delta_One_Facilit_HK|
M|664|0|8|I|20110224-03:51:28.066|271|8=FIX.4.1|9=248|35=8|50=ABN2|57=4293876|34=664|49=ABN2|56=BLP|52=20110224-03:51:28|6=0.0000|11=20110224-00008|14=0|15=HKD|17=36706752|20=0|22=2|31=0.0000|32=0|37=28551722PT|38=2676000|39=0|40=1|48=B0PR2F4|54=2|55=3383|58=@vwap ovd|59=0|150=0|151=2676000|109=AMM12|10=174||2|AidaCode|AMM12|ClientConnectionName|Delta_One_Facilit_HK|
M|665|0|0|I|20110224-03:51:42.087|98|8=FIX.4.1|9=76|35=0|34=665|49=ABN2|56=BLP|52=20110224-03:51:42|112=C.0250.0285.0299.035142|10=186||0|
M|666|0|0|I|20110224-03:52:12.490|70|8=FIX.4.1|9=48|35=0|34=666|49=ABN2|56=BLP|52=20110224-03:52:12|10=082||0|
M|667|0|0|I|20110224-03:52:42.568|70|8=FIX.4.1|9=48|35=0|34=667|49=ABN2|56=BLP|52=20110224-03:52:42|10=086||0|
M|668|0|0|I|20110224-03:53:12.647|70|8=FIX.4.1|9=48|35=0|34=668|49=ABN2|56=BLP|52=20110224-03:53:12|10=085||0|
M|669|0|8|I|20110224-03:53:20.272|307|8=FIX.4.1|9=284|35=8|50=ABN2|57=4293876|34=669|49=ABN2|56=BLP|52=20110224-03:53:20|6=10.9400|11=20110224-00005|14=3000|15=HKD|17=36706762|20=0|22=2|31=10.9400|32=3000|37=28551692PT|38=363000|39=1|40=1|48=B1YC2B3|54=2|55=658|58=@vwap ovd|59=0|63=6|75=20110224|120=HKD|150=1|151=360000|109=AMM12|30=HK|10=151||2|AidaCode|AMM12|ClientConnectionName|Delta_One_Facilit_HK|
M|670|0|8|I|20110224-03:53:20.789|307|8=FIX.4.1|9=284|35=8|50=ABN2|57=4293876|34=670|49=ABN2|56=BLP|52=20110224-03:53:20|6=10.9400|11=20110224-00005|14=4000|15=HKD|17=36706772|20=0|22=2|31=10.9400|32=1000|37=28551692PT|38=363000|39=1|40=1|48=B1YC2B3|54=2|55=658|58=@vwap ovd|59=0|63=6|75=20110224|120=HKD|150=1|151=359000|109=AMM12|30=HK|10=151||2|AidaCode|AMM12|ClientConnectionName|Delta_One_Facilit_HK|
M|671|0|8|I|20110224-03:53:42.221|308|8=FIX.4.1|9=285|35=8|50=ABN2|57=4293876|34=671|49=ABN2|56=BLP|52=20110224-03:53:42|6=3.4100|11=20110224-00006|14=4000|15=HKD|17=36706782|20=0|22=2|31=3.4100|32=4000|37=28551702PT|38=1300000|39=1|40=1|48=B04NNB6|54=2|55=2369|58=@vwap ovd|59=0|63=6|75=20110224|120=HKD|150=1|151=1296000|109=AMM12|30=HK|10=188||2|AidaCode|AMM12|ClientConnectionName|Delta_One_Facilit_HK|
M|672|0|8|I|20110224-03:53:51.410|308|8=FIX.4.1|9=285|35=8|50=ABN2|57=4293876|34=672|49=ABN2|56=BLP|52=20110224-03:53:51|6=3.4100|11=20110224-00006|14=8000|15=HKD|17=36706792|20=0|22=2|31=3.4100|32=4000|37=28551702PT|38=1300000|39=1|40=1|48=B04NNB6|54=2|55=2369|58=@vwap ovd|59=0|63=6|75=20110224|120=HKD|150=1|151=1292000|109=AMM12|30=HK|10=190||2|AidaCode|AMM12|ClientConnectionName|Delta_One_Facilit_HK|
M|673|0|8|I|20110224-03:53:57.540|309|8=FIX.4.1|9=286|35=8|50=ABN2|57=4293876|34=673|49=ABN2|56=BLP|52=20110224-03:53:57|6=3.4100|11=20110224-00006|14=12000|15=HKD|17=36706802|20=0|22=2|31=3.4100|32=4000|37=28551702PT|38=1300000|39=1|40=1|48=B04NNB6|54=2|55=2369|58=@vwap ovd|59=0|63=6|75=20110224|120=HKD|150=1|151=1288000|109=AMM12|30=HK|10=238||2|AidaCode|AMM12|ClientConnectionName|Delta_One_Facilit_HK|
M|674|0|8|I|20110224-03:54:01.119|309|8=FIX.4.1|9=286|35=8|50=ABN2|57=4293876|34=674|49=ABN2|56=BLP|52=20110224-03:54:01|6=3.4100|11=20110224-00006|14=16000|15=HKD|17=36706812|20=0|22=2|31=3.4100|32=4000|37=28551702PT|38=1300000|39=1|40=1|48=B04NNB6|54=2|55=2369|58=@vwap ovd|59=0|63=6|75=20110224|120=HKD|150=1|151=1284000|109=AMM12|30=HK|10=230||2|AidaCode|AMM12|ClientConnectionName|Delta_One_Facilit_HK|
M|675|0|8|I|20110224-03:54:18.979|309|8=FIX.4.1|9=286|35=8|50=ABN2|57=4293876|34=675|49=ABN2|56=BLP|52=20110224-03:54:18|6=3.4100|11=20110224-00006|14=20000|15=HKD|17=36706822|20=0|22=2|31=3.4100|32=4000|37=28551702PT|38=1300000|39=1|40=1|48=B04NNB6|54=2|55=2369|58=@vwap ovd|59=0|63=6|75=20110224|120=HKD|150=1|151=1280000|109=AMM12|30=HK|10=231||2|AidaCode|AMM12|ClientConnectionName|Delta_One_Facilit_HK|
M|676|0|0|I|20110224-03:54:49.023|70|8=FIX.4.1|9=48|35=0|34=676|49=ABN2|56=BLP|52=20110224-03:54:49|10=095||0|
M|677|0|8|I|20110224-03:54:58.258|309|8=FIX.4.1|9=286|35=8|50=ABN2|57=4293876|34=677|49=ABN2|56=BLP|52=20110224-03:54:58|6=3.4100|11=20110224-00006|14=28000|15=HKD|17=36706832|20=0|22=2|31=3.4100|32=8000|37=28551702PT|38=1300000|39=1|40=1|48=B04NNB6|54=2|55=2369|58=@vwap ovd|59=0|63=6|75=20110224|120=HKD|150=1|151=1272000|109=AMM12|30=HK|10=251||2|AidaCode|AMM12|ClientConnectionName|Delta_One_Facilit_HK|
M|678|0|8|I|20110224-03:55:01.837|310|8=FIX.4.1|9=287|35=8|50=ABN2|57=4293876|34=678|49=ABN2|56=BLP|52=20110224-03:55:01|6=9.9800|11=20110224-00008|14=18000|15=HKD|17=36706842|20=0|22=2|31=9.9800|32=18000|37=28551722PT|38=2676000|39=1|40=1|48=B0PR2F4|54=2|55=3383|58=@vwap ovd|59=0|63=6|75=20110224|120=HKD|150=1|151=2658000|109=AMM12|30=HK|10=104||2|AidaCode|AMM12|ClientConnectionName|Delta_One_Facilit_HK|
M|679|0|0|I|20110224-03:55:31.861|70|8=FIX.4.1|9=48|35=0|34=679|49=ABN2|56=BLP|52=20110224-03:55:31|10=090||0|
M|680|0|8|I|20110224-03:55:31.937|331|8=FIX.4.1|9=308|35=8|50=ABN2|57=182508|34=680|49=ABN2|56=BLP|52=20110224-03:55:31|6=184.5000|11=20110224-00003|14=71800|15=THB|17=36706852|20=0|22=2|31=184.5000|32=1800|37=28551672PT|38=886100|39=1|40=1|48=B1359J0|54=1|55=PTTEP/F|58=cd order, pls confirm by bb|59=0|63=6|75=20110224|120=THB|150=1|151=814300|109=LLOGM|30=TB|10=179||2|AidaCode|LLOGM|ClientConnectionName|Lloyd_George_Prog|
M|681|0|8|I|20110224-03:55:32.454|330|8=FIX.4.1|9=307|35=8|50=ABN2|57=182508|34=681|49=ABN2|56=BLP|52=20110224-03:55:32|6=184.5000|11=20110224-00003|14=71900|15=THB|17=36706862|20=0|22=2|31=184.5000|32=100|37=28551672PT|38=886100|39=1|40=1|48=B1359J0|54=1|55=PTTEP/F|58=cd order, pls confirm by bb|59=0|63=6|75=20110224|120=THB|150=1|151=814200|109=LLOGM|30=TB|10=125||2|AidaCode|LLOGM|ClientConnectionName|Lloyd_George_Prog|
M|682|0|8|I|20110224-03:55:32.458|332|8=FIX.4.1|9=309|35=8|50=ABN2|57=182508|34=682|49=ABN2|56=BLP|52=20110224-03:55:32|6=184.5000|11=20110224-00003|14=81900|15=THB|17=36706872|20=0|22=2|31=184.5000|32=10000|37=28551672PT|38=886100|39=1|40=1|48=B1359J0|54=1|55=PTTEP/F|58=cd order, pls confirm by bb|59=0|63=6|75=20110224|120=THB|150=1|151=804200|109=LLOGM|30=TB|10=225||2|AidaCode|LLOGM|ClientConnectionName|Lloyd_George_Prog|
M|683|0|8|I|20110224-03:55:35.525|330|8=FIX.4.1|9=307|35=8|50=ABN2|57=182508|34=683|49=ABN2|56=BLP|52=20110224-03:55:35|6=184.5000|11=20110224-00003|14=82400|15=THB|17=36706882|20=0|22=2|31=184.5000|32=500|37=28551672PT|38=886100|39=1|40=1|48=B1359J0|54=1|55=PTTEP/F|58=cd order, pls confirm by bb|59=0|63=6|75=20110224|120=THB|150=1|151=803700|109=LLOGM|30=TB|10=136||2|AidaCode|LLOGM|ClientConnectionName|Lloyd_George_Prog|
M|684|0|8|I|20110224-03:55:36.045|330|8=FIX.4.1|9=307|35=8|50=ABN2|57=182508|34=684|49=ABN2|56=BLP|52=20110224-03:55:36|6=184.5000|11=20110224-00003|14=82500|15=THB|17=36706892|20=0|22=2|31=184.5000|32=100|37=28551672PT|38=886100|39=1|40=1|48=B1359J0|54=1|55=PTTEP/F|58=cd order, pls confirm by bb|59=0|63=6|75=20110224|120=THB|150=1|151=803600|109=LLOGM|30=TB|10=135||2|AidaCode|LLOGM|ClientConnectionName|Lloyd_George_Prog|
M|685|0|8|I|20110224-03:55:36.049|331|8=FIX.4.1|9=308|35=8|50=ABN2|57=182508|34=685|49=ABN2|56=BLP|52=20110224-03:55:36|6=184.5000|11=20110224-00003|14=83500|15=THB|17=36706902|20=0|22=2|31=184.5000|32=1000|37=28551672PT|38=886100|39=1|40=1|48=B1359J0|54=1|55=PTTEP/F|58=cd order, pls confirm by bb|59=0|63=6|75=20110224|120=THB|150=1|151=802600|109=LLOGM|30=TB|10=177||2|AidaCode|LLOGM|ClientConnectionName|Lloyd_George_Prog|
M|686|0|8|I|20110224-03:55:36.054|331|8=FIX.4.1|9=308|35=8|50=ABN2|57=182508|34=686|49=ABN2|56=BLP|52=20110224-03:55:36|6=184.5000|11=20110224-00003|14=86500|15=THB|17=36706912|20=0|22=2|31=184.5000|32=3000|37=28551672PT|38=886100|39=1|40=1|48=B1359J0|54=1|55=PTTEP/F|58=cd order, pls confirm by bb|59=0|63=6|75=20110224|120=THB|150=1|151=799600|109=LLOGM|30=TB|10=199||2|AidaCode|LLOGM|ClientConnectionName|Lloyd_George_Prog|
M|687|0|8|I|20110224-03:55:36.574|331|8=FIX.4.1|9=308|35=8|50=ABN2|57=182508|34=687|49=ABN2|56=BLP|52=20110224-03:55:36|6=184.5000|11=20110224-00003|14=88500|15=THB|17=36706922|20=0|22=2|31=184.5000|32=2000|37=28551672PT|38=886100|39=1|40=1|48=B1359J0|54=1|55=PTTEP/F|58=cd order, pls confirm by bb|59=0|63=6|75=20110224|120=THB|150=1|151=797600|109=LLOGM|30=TB|10=200||2|AidaCode|LLOGM|ClientConnectionName|Lloyd_George_Prog|
M|688|0|8|I|20110224-03:55:36.579|331|8=FIX.4.1|9=308|35=8|50=ABN2|57=182508|34=688|49=ABN2|56=BLP|52=20110224-03:55:36|6=184.5000|11=20110224-00003|14=91500|15=THB|17=36706932|20=0|22=2|31=184.5000|32=3000|37=28551672PT|38=886100|39=1|40=1|48=B1359J0|54=1|55=PTTEP/F|58=cd order, pls confirm by bb|59=0|63=6|75=20110224|120=THB|150=1|151=794600|109=LLOGM|30=TB|10=194||2|AidaCode|LLOGM|ClientConnectionName|Lloyd_George_Prog|
M|689|0|8|I|20110224-03:55:36.583|330|8=FIX.4.1|9=307|35=8|50=ABN2|57=182508|34=689|49=ABN2|56=BLP|52=20110224-03:55:36|6=184.5000|11=20110224-00003|14=91600|15=THB|17=36706942|20=0|22=2|31=184.5000|32=100|37=28551672PT|38=886100|39=1|40=1|48=B1359J0|54=1|55=PTTEP/F|58=cd order, pls confirm by bb|59=0|63=6|75=20110224|120=THB|150=1|151=794500|109=LLOGM|30=TB|10=145||2|AidaCode|LLOGM|ClientConnectionName|Lloyd_George_Prog|
M|690|0|8|I|20110224-03:55:37.104|330|8=FIX.4.1|9=307|35=8|50=ABN2|57=182508|34=690|49=ABN2|56=BLP|52=20110224-03:55:37|6=184.5000|11=20110224-00003|14=92100|15=THB|17=36706952|20=0|22=2|31=184.5000|32=500|37=28551672PT|38=886100|39=1|40=1|48=B1359J0|54=1|55=PTTEP/F|58=cd order, pls confirm by bb|59=0|63=6|75=20110224|120=THB|150=1|151=794000|109=LLOGM|30=TB|10=134||2|AidaCode|LLOGM|ClientConnectionName|Lloyd_George_Prog|
M|691|0|8|I|20110224-03:55:40.175|331|8=FIX.4.1|9=308|35=8|50=ABN2|57=182508|34=691|49=ABN2|56=BLP|52=20110224-03:55:40|6=184.5000|11=20110224-00003|14=98100|15=THB|17=36706962|20=0|22=2|31=184.5000|32=6000|37=28551672PT|38=886100|39=1|40=1|48=B1359J0|54=1|55=PTTEP/F|58=cd order, pls confirm by bb|59=0|63=6|75=20110224|120=THB|150=1|151=788000|109=LLOGM|30=TB|10=189||2|AidaCode|LLOGM|ClientConnectionName|Lloyd_George_Prog|
M|692|0|8|I|20110224-03:55:40.693|332|8=FIX.4.1|9=309|35=8|50=ABN2|57=182508|34=692|49=ABN2|56=BLP|52=20110224-03:55:40|6=184.5000|11=20110224-00003|14=100600|15=THB|17=36706972|20=0|22=2|31=184.5000|32=2500|37=28551672PT|38=886100|39=1|40=1|48=B1359J0|54=1|55=PTTEP/F|58=cd order, pls confirm by bb|59=0|63=6|75=20110224|120=THB|150=1|151=785500|109=LLOGM|30=TB|10=232||2|AidaCode|LLOGM|ClientConnectionName|Lloyd_George_Prog|
M|693|0|8|I|20110224-03:55:46.825|332|8=FIX.4.1|9=309|35=8|50=ABN2|57=182508|34=693|49=ABN2|56=BLP|52=20110224-03:55:46|6=184.5000|11=20110224-00003|14=105600|15=THB|17=36706982|20=0|22=2|31=184.5000|32=5000|37=28551672PT|38=886100|39=1|40=1|48=B1359J0|54=1|55=PTTEP/F|58=cd order, pls confirm by bb|59=0|63=6|75=20110224|120=THB|150=1|151=780500|109=LLOGM|30=TB|10=238||2|AidaCode|LLOGM|ClientConnectionName|Lloyd_George_Prog|
M|694|0|8|I|20110224-03:55:46.829|331|8=FIX.4.1|9=308|35=8|50=ABN2|57=182508|34=694|49=ABN2|56=BLP|52=20110224-03:55:46|6=184.5000|11=20110224-00003|14=106100|15=THB|17=36706992|20=0|22=2|31=184.5000|32=500|37=28551672PT|38=886100|39=1|40=1|48=B1359J0|54=1|55=PTTEP/F|58=cd order, pls confirm by bb|59=0|63=6|75=20110224|120=THB|150=1|151=780000|109=LLOGM|30=TB|10=182||2|AidaCode|LLOGM|ClientConnectionName|Lloyd_George_Prog|
M|695|0|8|I|20110224-03:56:16.925|333|8=FIX.4.1|9=310|35=8|50=ABN2|57=182508|34=695|49=ABN2|56=BLP|52=20110224-03:56:16|6=184.5000|11=20110224-00003|14=126100|15=THB|17=36707002|20=0|22=2|31=184.5000|32=20000|37=28551672PT|38=886100|39=1|40=1|48=B1359J0|54=1|55=PTTEP/F|58=cd order, pls confirm by bb|59=0|63=6|75=20110224|120=THB|150=1|151=760000|109=LLOGM|30=TB|10=250||2|AidaCode|LLOGM|ClientConnectionName|Lloyd_George_Prog|
M|696|0|0|I|20110224-03:56:47.108|70|8=FIX.4.1|9=48|35=0|34=696|49=ABN2|56=BLP|52=20110224-03:56:47|10=097||0|
M|697|0|8|I|20110224-03:57:14.562|310|8=FIX.4.1|9=287|35=8|50=ABN2|57=4293876|34=697|49=ABN2|56=BLP|52=20110224-03:57:14|6=2.9100|11=20110224-00007|14=16000|15=HKD|17=36707012|20=0|22=2|31=2.9100|32=16000|37=28551712PT|38=8917000|39=1|40=1|48=B282142|54=2|55=3818|58=@vwap ovd|59=0|63=6|75=20110224|120=HKD|150=1|151=8901000|109=AMM12|30=HK|10=252||2|AidaCode|AMM12|ClientConnectionName|Delta_One_Facilit_HK|
M|698|0|8|I|20110224-03:57:20.695|309|8=FIX.4.1|9=286|35=8|50=ABN2|57=4293876|34=698|49=ABN2|56=BLP|52=20110224-03:57:20|6=2.9100|11=20110224-00007|14=17000|15=HKD|17=36707022|20=0|22=2|31=2.9100|32=1000|37=28551712PT|38=8917000|39=1|40=1|48=B282142|54=2|55=3818|58=@vwap ovd|59=0|63=6|75=20110224|120=HKD|150=1|151=8900000|109=AMM12|30=HK|10=196||2|AidaCode|AMM12|ClientConnectionName|Delta_One_Facilit_HK|
M|699|0|0|I|20110224-03:57:50.855|70|8=FIX.4.1|9=48|35=0|34=699|49=ABN2|56=BLP|52=20110224-03:57:50|10=095||0|
M|700|0|8|I|20110224-03:57:56.920|309|8=FIX.4.1|9=286|35=8|50=ABN2|57=4293876|34=700|49=ABN2|56=BLP|52=20110224-03:57:56|6=2.9100|11=20110224-00007|14=18000|15=HKD|17=36707032|20=0|22=2|31=2.9100|32=1000|37=28551712PT|38=8917000|39=1|40=1|48=B282142|54=2|55=3818|58=@vwap ovd|59=0|63=6|75=20110224|120=HKD|150=1|151=8899000|109=AMM12|30=HK|10=208||2|AidaCode|AMM12|ClientConnectionName|Delta_One_Facilit_HK|
M|701|0|8|I|20110224-03:57:56.925|324|8=FIX.4.1|9=301|35=8|50=ABN2|57=4058176|34=701|49=ABN2|56=BLP|52=20110224-03:57:56|6=2.7600|11=20110224-00002|14=79956|15=AUD|17=36707042|20=0|22=2|31=2.7600|32=25509|37=28551662PT|38=188125|39=1|40=1|48=6087289|54=2|55=TLS|58=pls confirm by blg MSG, CD|59=0|63=6|75=20110224|120=AUD|150=1|151=108169|109=LLOGM|30=AU|10=065||2|AidaCode|LLOGM|ClientConnectionName|Lloyd_George_Prog|
M|702|0|8|I|20110224-03:58:21.419|309|8=FIX.4.1|9=286|35=8|50=ABN2|57=4293876|34=702|49=ABN2|56=BLP|52=20110224-03:58:21|6=2.9100|11=20110224-00007|14=20000|15=HKD|17=36707052|20=0|22=2|31=2.9100|32=2000|37=28551712PT|38=8917000|39=1|40=1|48=B282142|54=2|55=3818|58=@vwap ovd|59=0|63=6|75=20110224|120=HKD|150=1|151=8897000|109=AMM12|30=HK|10=197||2|AidaCode|AMM12|ClientConnectionName|Delta_One_Facilit_HK|
M|703|0|8|I|20110224-03:58:30.608|305|8=FIX.4.1|9=282|35=8|50=ABN2|57=4293876|34=703|49=ABN2|56=BLP|52=20110224-03:58:30|6=3.7500|11=20110224-00004|14=2000|15=HKD|17=36707062|20=0|22=2|31=3.7500|32=2000|37=28551682PT|38=587000|39=1|40=1|48=B1FJNT8|54=2|55=337|58=@vwap ovd|59=0|63=6|75=20110224|120=HKD|150=1|151=585000|109=AMM12|30=HK|10=090||2|AidaCode|AMM12|ClientConnectionName|Delta_One_Facilit_HK|
