V|1.1|
M|1|0|A|I|20110223-22:35:01.320|82|8=FIX.4.1|9=0058|35=A|49=BLP|56=ABN2|34=1|52=20110223-22:35:01|98=0|108=30|10=107||0|
M|2|0|1|I|20110223-22:35:01.322|98|8=FIX.4.1|9=0074|35=1|49=BLP|56=ABN2|34=2|52=20110223-22:35:01|112=L.0001.0002.0002.223501|10=137||0|
M|3|0|0|I|20110223-22:35:01.402|81|8=FIX.4.1|9=0057|35=0|49=BLP|56=ABN2|34=3|52=20110223-22:35:01|112=STBL-2|10=168||0|
M|4|0|1|I|20110223-22:35:01.402|98|8=FIX.4.1|9=0074|35=1|49=BLP|56=ABN2|34=4|52=20110223-22:35:01|112=A.0003.0004.0004.223501|10=134||0|
M|5|0|0|I|20110223-22:35:31.402|70|8=FIX.4.1|9=0046|35=0|49=BLP|56=ABN2|34=5|52=20110223-22:35:31|10=069||0|
M|6|0|0|I|20110223-22:36:01.404|70|8=FIX.4.1|9=0046|35=0|49=BLP|56=ABN2|34=6|52=20110223-22:36:01|10=068||0|
M|7|0|0|I|20110223-22:36:31.404|70|8=FIX.4.1|9=0046|35=0|49=BLP|56=ABN2|34=7|52=20110223-22:36:31|10=072||0|
M|8|0|0|I|20110223-22:37:01.404|70|8=FIX.4.1|9=0046|35=0|49=BLP|56=ABN2|34=8|52=20110223-22:37:01|10=071||0|
M|9|0|0|I|20110223-22:37:31.406|70|8=FIX.4.1|9=0046|35=0|49=BLP|56=ABN2|34=9|52=20110223-22:37:31|10=075||0|
M|10|0|0|I|20110223-22:38:01.406|71|8=FIX.4.1|9=0047|35=0|49=BLP|56=ABN2|34=10|52=20110223-22:38:01|10=114||0|
M|11|0|0|I|20110223-22:38:31.406|71|8=FIX.4.1|9=0047|35=0|49=BLP|56=ABN2|34=11|52=20110223-22:38:31|10=118||0|
M|12|0|0|I|20110223-22:39:01.408|71|8=FIX.4.1|9=0047|35=0|49=BLP|56=ABN2|34=12|52=20110223-22:39:01|10=117||0|
M|13|0|0|I|20110223-22:39:31.408|71|8=FIX.4.1|9=0047|35=0|49=BLP|56=ABN2|34=13|52=20110223-22:39:31|10=121||0|
M|14|0|0|I|20110223-22:40:01.408|71|8=FIX.4.1|9=0047|35=0|49=BLP|56=ABN2|34=14|52=20110223-22:40:01|10=111||0|
M|15|0|0|I|20110223-22:40:31.410|71|8=FIX.4.1|9=0047|35=0|49=BLP|56=ABN2|34=15|52=20110223-22:40:31|10=115||0|
M|16|0|0|I|20110223-22:41:01.412|71|8=FIX.4.1|9=0047|35=0|49=BLP|56=ABN2|34=16|52=20110223-22:41:01|10=114||0|
M|17|0|0|I|20110223-22:41:31.412|71|8=FIX.4.1|9=0047|35=0|49=BLP|56=ABN2|34=17|52=20110223-22:41:31|10=118||0|
M|18|0|0|I|20110223-22:42:01.412|71|8=FIX.4.1|9=0047|35=0|49=BLP|56=ABN2|34=18|52=20110223-22:42:01|10=117||0|
M|19|0|0|I|20110223-22:42:31.412|71|8=FIX.4.1|9=0047|35=0|49=BLP|56=ABN2|34=19|52=20110223-22:42:31|10=121||0|
M|20|0|0|I|20110223-22:43:01.414|71|8=FIX.4.1|9=0047|35=0|49=BLP|56=ABN2|34=20|52=20110223-22:43:01|10=111||0|
M|21|0|0|I|20110223-22:43:31.414|71|8=FIX.4.1|9=0047|35=0|49=BLP|56=ABN2|34=21|52=20110223-22:43:31|10=115||0|
M|22|0|0|I|20110223-22:44:01.414|71|8=FIX.4.1|9=0047|35=0|49=BLP|56=ABN2|34=22|52=20110223-22:44:01|10=114||0|
M|23|0|0|I|20110223-22:44:31.414|71|8=FIX.4.1|9=0047|35=0|49=BLP|56=ABN2|34=23|52=20110223-22:44:31|10=118||0|
M|24|0|0|I|20110223-22:45:01.414|71|8=FIX.4.1|9=0047|35=0|49=BLP|56=ABN2|34=24|52=20110223-22:45:01|10=117||0|
M|25|0|0|I|20110223-22:45:31.414|71|8=FIX.4.1|9=0047|35=0|49=BLP|56=ABN2|34=25|52=20110223-22:45:31|10=121||0|
M|26|0|0|I|20110223-22:46:01.416|71|8=FIX.4.1|9=0047|35=0|49=BLP|56=ABN2|34=26|52=20110223-22:46:01|10=120||0|
M|27|0|0|I|20110223-22:46:31.416|71|8=FIX.4.1|9=0047|35=0|49=BLP|56=ABN2|34=27|52=20110223-22:46:31|10=124||0|
M|28|0|0|I|20110223-22:47:01.416|71|8=FIX.4.1|9=0047|35=0|49=BLP|56=ABN2|34=28|52=20110223-22:47:01|10=123||0|
M|29|0|0|I|20110223-22:47:31.418|71|8=FIX.4.1|9=0047|35=0|49=BLP|56=ABN2|34=29|52=20110223-22:47:31|10=127||0|
M|30|0|0|I|20110223-22:48:01.417|71|8=FIX.4.1|9=0047|35=0|49=BLP|56=ABN2|34=30|52=20110223-22:48:01|10=117||0|
M|31|0|0|I|20110223-22:48:31.417|71|8=FIX.4.1|9=0047|35=0|49=BLP|56=ABN2|34=31|52=20110223-22:48:31|10=121||0|
M|32|0|0|I|20110223-22:49:01.417|71|8=FIX.4.1|9=0047|35=0|49=BLP|56=ABN2|34=32|52=20110223-22:49:01|10=120||0|
M|33|0|0|I|20110223-22:49:31.419|71|8=FIX.4.1|9=0047|35=0|49=BLP|56=ABN2|34=33|52=20110223-22:49:31|10=124||0|
M|34|0|0|I|20110223-22:50:01.419|71|8=FIX.4.1|9=0047|35=0|49=BLP|56=ABN2|34=34|52=20110223-22:50:01|10=114||0|
M|35|0|0|I|20110223-22:50:31.421|71|8=FIX.4.1|9=0047|35=0|49=BLP|56=ABN2|34=35|52=20110223-22:50:31|10=118||0|
M|36|0|0|I|20110223-22:51:01.421|71|8=FIX.4.1|9=0047|35=0|49=BLP|56=ABN2|34=36|52=20110223-22:51:01|10=117||0|
M|37|0|0|I|20110223-22:51:31.421|71|8=FIX.4.1|9=0047|35=0|49=BLP|56=ABN2|34=37|52=20110223-22:51:31|10=121||0|
M|38|0|0|I|20110223-22:52:01.421|71|8=FIX.4.1|9=0047|35=0|49=BLP|56=ABN2|34=38|52=20110223-22:52:01|10=120||0|
M|39|0|0|I|20110223-22:52:31.421|71|8=FIX.4.1|9=0047|35=0|49=BLP|56=ABN2|34=39|52=20110223-22:52:31|10=124||0|
M|40|0|0|I|20110223-22:53:01.421|71|8=FIX.4.1|9=0047|35=0|49=BLP|56=ABN2|34=40|52=20110223-22:53:01|10=114||0|
M|41|0|0|I|20110223-22:53:31.423|71|8=FIX.4.1|9=0047|35=0|49=BLP|56=ABN2|34=41|52=20110223-22:53:31|10=118||0|
M|42|0|0|I|20110223-22:54:01.423|71|8=FIX.4.1|9=0047|35=0|49=BLP|56=ABN2|34=42|52=20110223-22:54:01|10=117||0|
M|43|0|0|I|20110223-22:54:31.425|71|8=FIX.4.1|9=0047|35=0|49=BLP|56=ABN2|34=43|52=20110223-22:54:31|10=121||0|
M|44|0|0|I|20110223-22:55:01.425|71|8=FIX.4.1|9=0047|35=0|49=BLP|56=ABN2|34=44|52=20110223-22:55:01|10=120||0|
M|45|0|0|I|20110223-22:55:31.425|71|8=FIX.4.1|9=0047|35=0|49=BLP|56=ABN2|34=45|52=20110223-22:55:31|10=124||0|
M|46|0|0|I|20110223-22:56:01.425|71|8=FIX.4.1|9=0047|35=0|49=BLP|56=ABN2|34=46|52=20110223-22:56:01|10=123||0|
M|47|0|0|I|20110223-22:56:31.425|71|8=FIX.4.1|9=0047|35=0|49=BLP|56=ABN2|34=47|52=20110223-22:56:31|10=127||0|
M|48|0|0|I|20110223-22:57:01.427|71|8=FIX.4.1|9=0047|35=0|49=BLP|56=ABN2|34=48|52=20110223-22:57:01|10=126||0|
M|49|0|0|I|20110223-22:57:31.427|71|8=FIX.4.1|9=0047|35=0|49=BLP|56=ABN2|34=49|52=20110223-22:57:31|10=130||0|
M|50|0|0|I|20110223-22:58:01.427|71|8=FIX.4.1|9=0047|35=0|49=BLP|56=ABN2|34=50|52=20110223-22:58:01|10=120||0|
M|51|0|0|I|20110223-22:58:31.427|71|8=FIX.4.1|9=0047|35=0|49=BLP|56=ABN2|34=51|52=20110223-22:58:31|10=124||0|
M|52|0|0|I|20110223-22:59:01.427|71|8=FIX.4.1|9=0047|35=0|49=BLP|56=ABN2|34=52|52=20110223-22:59:01|10=123||0|
M|53|0|0|I|20110223-22:59:31.427|71|8=FIX.4.1|9=0047|35=0|49=BLP|56=ABN2|34=53|52=20110223-22:59:31|10=127||0|
M|54|0|0|I|20110223-23:00:01.429|71|8=FIX.4.1|9=0047|35=0|49=BLP|56=ABN2|34=54|52=20110223-23:00:01|10=112||0|
M|55|0|0|I|20110223-23:00:31.449|71|8=FIX.4.1|9=0047|35=0|49=BLP|56=ABN2|34=55|52=20110223-23:00:31|10=116||0|
M|56|0|0|I|20110223-23:01:01.449|71|8=FIX.4.1|9=0047|35=0|49=BLP|56=ABN2|34=56|52=20110223-23:01:01|10=115||0|
M|57|0|0|I|20110223-23:01:31.449|71|8=FIX.4.1|9=0047|35=0|49=BLP|56=ABN2|34=57|52=20110223-23:01:31|10=119||0|
M|58|0|0|I|20110223-23:02:01.451|71|8=FIX.4.1|9=0047|35=0|49=BLP|56=ABN2|34=58|52=20110223-23:02:01|10=118||0|
M|59|0|0|I|20110223-23:02:31.451|71|8=FIX.4.1|9=0047|35=0|49=BLP|56=ABN2|34=59|52=20110223-23:02:31|10=122||0|
M|60|0|0|I|20110223-23:03:01.451|71|8=FIX.4.1|9=0047|35=0|49=BLP|56=ABN2|34=60|52=20110223-23:03:01|10=112||0|
M|61|0|0|I|20110223-23:03:31.451|71|8=FIX.4.1|9=0047|35=0|49=BLP|56=ABN2|34=61|52=20110223-23:03:31|10=116||0|
M|62|0|0|I|20110223-23:04:01.453|71|8=FIX.4.1|9=0047|35=0|49=BLP|56=ABN2|34=62|52=20110223-23:04:01|10=115||0|
M|63|0|0|I|20110223-23:04:31.453|71|8=FIX.4.1|9=0047|35=0|49=BLP|56=ABN2|34=63|52=20110223-23:04:31|10=119||0|
M|64|0|0|I|20110223-23:05:01.453|71|8=FIX.4.1|9=0047|35=0|49=BLP|56=ABN2|34=64|52=20110223-23:05:01|10=118||0|
M|65|0|0|I|20110223-23:05:31.453|71|8=FIX.4.1|9=0047|35=0|49=BLP|56=ABN2|34=65|52=20110223-23:05:31|10=122||0|
M|66|0|0|I|20110223-23:06:01.453|71|8=FIX.4.1|9=0047|35=0|49=BLP|56=ABN2|34=66|52=20110223-23:06:01|10=121||0|
M|67|0|0|I|20110223-23:06:31.453|71|8=FIX.4.1|9=0047|35=0|49=BLP|56=ABN2|34=67|52=20110223-23:06:31|10=125||0|
M|68|0|0|I|20110223-23:07:01.455|71|8=FIX.4.1|9=0047|35=0|49=BLP|56=ABN2|34=68|52=20110223-23:07:01|10=124||0|
M|69|0|0|I|20110223-23:07:31.455|71|8=FIX.4.1|9=0047|35=0|49=BLP|56=ABN2|34=69|52=20110223-23:07:31|10=128||0|
M|70|0|0|I|20110223-23:08:01.457|71|8=FIX.4.1|9=0047|35=0|49=BLP|56=ABN2|34=70|52=20110223-23:08:01|10=118||0|
M|71|0|0|I|20110223-23:08:31.457|71|8=FIX.4.1|9=0047|35=0|49=BLP|56=ABN2|34=71|52=20110223-23:08:31|10=122||0|
M|72|0|0|I|20110223-23:09:01.457|71|8=FIX.4.1|9=0047|35=0|49=BLP|56=ABN2|34=72|52=20110223-23:09:01|10=121||0|
M|73|0|0|I|20110223-23:09:31.459|71|8=FIX.4.1|9=0047|35=0|49=BLP|56=ABN2|34=73|52=20110223-23:09:31|10=125||0|
M|74|0|0|I|20110223-23:10:01.459|71|8=FIX.4.1|9=0047|35=0|49=BLP|56=ABN2|34=74|52=20110223-23:10:01|10=115||0|
M|75|0|0|I|20110223-23:10:31.459|71|8=FIX.4.1|9=0047|35=0|49=BLP|56=ABN2|34=75|52=20110223-23:10:31|10=119||0|
M|76|0|0|I|20110223-23:11:01.461|71|8=FIX.4.1|9=0047|35=0|49=BLP|56=ABN2|34=76|52=20110223-23:11:01|10=118||0|
M|77|0|0|I|20110223-23:11:31.461|71|8=FIX.4.1|9=0047|35=0|49=BLP|56=ABN2|34=77|52=20110223-23:11:31|10=122||0|
M|78|0|0|I|20110223-23:12:01.461|71|8=FIX.4.1|9=0047|35=0|49=BLP|56=ABN2|34=78|52=20110223-23:12:01|10=121||0|
M|79|0|0|I|20110223-23:12:31.461|71|8=FIX.4.1|9=0047|35=0|49=BLP|56=ABN2|34=79|52=20110223-23:12:31|10=125||0|
M|80|0|0|I|20110223-23:13:01.461|71|8=FIX.4.1|9=0047|35=0|49=BLP|56=ABN2|34=80|52=20110223-23:13:01|10=115||0|
M|81|0|0|I|20110223-23:13:31.461|71|8=FIX.4.1|9=0047|35=0|49=BLP|56=ABN2|34=81|52=20110223-23:13:31|10=119||0|
M|82|0|0|I|20110223-23:14:01.463|71|8=FIX.4.1|9=0047|35=0|49=BLP|56=ABN2|34=82|52=20110223-23:14:01|10=118||0|
M|83|0|0|I|20110223-23:14:31.463|71|8=FIX.4.1|9=0047|35=0|49=BLP|56=ABN2|34=83|52=20110223-23:14:31|10=122||0|
M|84|0|0|I|20110223-23:15:01.465|71|8=FIX.4.1|9=0047|35=0|49=BLP|56=ABN2|34=84|52=20110223-23:15:01|10=121||0|
M|85|0|0|I|20110223-23:15:31.465|71|8=FIX.4.1|9=0047|35=0|49=BLP|56=ABN2|34=85|52=20110223-23:15:31|10=125||0|
M|86|0|0|I|20110223-23:16:01.465|71|8=FIX.4.1|9=0047|35=0|49=BLP|56=ABN2|34=86|52=20110223-23:16:01|10=124||0|
M|87|0|0|I|20110223-23:16:31.465|71|8=FIX.4.1|9=0047|35=0|49=BLP|56=ABN2|34=87|52=20110223-23:16:31|10=128||0|
M|88|0|0|I|20110223-23:17:01.465|71|8=FIX.4.1|9=0047|35=0|49=BLP|56=ABN2|34=88|52=20110223-23:17:01|10=127||0|
M|89|0|0|I|20110223-23:17:31.467|71|8=FIX.4.1|9=0047|35=0|49=BLP|56=ABN2|34=89|52=20110223-23:17:31|10=131||0|
M|90|0|0|I|20110223-23:18:01.467|71|8=FIX.4.1|9=0047|35=0|49=BLP|56=ABN2|34=90|52=20110223-23:18:01|10=121||0|
M|91|0|0|I|20110223-23:18:31.469|71|8=FIX.4.1|9=0047|35=0|49=BLP|56=ABN2|34=91|52=20110223-23:18:31|10=125||0|
M|92|0|0|I|20110223-23:19:01.469|71|8=FIX.4.1|9=0047|35=0|49=BLP|56=ABN2|34=92|52=20110223-23:19:01|10=124||0|
M|93|0|0|I|20110223-23:19:31.469|71|8=FIX.4.1|9=0047|35=0|49=BLP|56=ABN2|34=93|52=20110223-23:19:31|10=128||0|
M|94|0|0|I|20110223-23:20:01.469|71|8=FIX.4.1|9=0047|35=0|49=BLP|56=ABN2|34=94|52=20110223-23:20:01|10=118||0|
M|95|0|0|I|20110223-23:20:31.469|71|8=FIX.4.1|9=0047|35=0|49=BLP|56=ABN2|34=95|52=20110223-23:20:31|10=122||0|
M|96|0|0|I|20110223-23:21:01.471|71|8=FIX.4.1|9=0047|35=0|49=BLP|56=ABN2|34=96|52=20110223-23:21:01|10=121||0|
M|97|0|0|I|20110223-23:21:31.469|71|8=FIX.4.1|9=0047|35=0|49=BLP|56=ABN2|34=97|52=20110223-23:21:31|10=125||0|
M|98|0|0|I|20110223-23:22:01.471|71|8=FIX.4.1|9=0047|35=0|49=BLP|56=ABN2|34=98|52=20110223-23:22:01|10=124||0|
M|99|0|0|I|20110223-23:22:31.473|71|8=FIX.4.1|9=0047|35=0|49=BLP|56=ABN2|34=99|52=20110223-23:22:31|10=128||0|
M|100|0|0|I|20110223-23:23:01.473|72|8=FIX.4.1|9=0048|35=0|49=BLP|56=ABN2|34=100|52=20110223-23:23:01|10=158||0|
M|101|0|0|I|20110223-23:23:31.473|72|8=FIX.4.1|9=0048|35=0|49=BLP|56=ABN2|34=101|52=20110223-23:23:31|10=162||0|
M|102|0|0|I|20110223-23:24:01.475|72|8=FIX.4.1|9=0048|35=0|49=BLP|56=ABN2|34=102|52=20110223-23:24:01|10=161||0|
M|103|0|0|I|20110223-23:24:31.475|72|8=FIX.4.1|9=0048|35=0|49=BLP|56=ABN2|34=103|52=20110223-23:24:31|10=165||0|
M|104|0|0|I|20110223-23:25:01.475|72|8=FIX.4.1|9=0048|35=0|49=BLP|56=ABN2|34=104|52=20110223-23:25:01|10=164||0|
M|105|0|0|I|20110223-23:25:31.477|72|8=FIX.4.1|9=0048|35=0|49=BLP|56=ABN2|34=105|52=20110223-23:25:31|10=168||0|
M|106|0|0|I|20110223-23:26:01.477|72|8=FIX.4.1|9=0048|35=0|49=BLP|56=ABN2|34=106|52=20110223-23:26:01|10=167||0|
M|107|0|0|I|20110223-23:26:31.477|72|8=FIX.4.1|9=0048|35=0|49=BLP|56=ABN2|34=107|52=20110223-23:26:31|10=171||0|
M|108|0|0|I|20110223-23:27:01.479|72|8=FIX.4.1|9=0048|35=0|49=BLP|56=ABN2|34=108|52=20110223-23:27:01|10=170||0|
M|109|0|0|I|20110223-23:27:31.477|72|8=FIX.4.1|9=0048|35=0|49=BLP|56=ABN2|34=109|52=20110223-23:27:31|10=174||0|
M|110|0|0|I|20110223-23:28:01.479|72|8=FIX.4.1|9=0048|35=0|49=BLP|56=ABN2|34=110|52=20110223-23:28:01|10=164||0|
M|111|0|0|I|20110223-23:28:31.479|72|8=FIX.4.1|9=0048|35=0|49=BLP|56=ABN2|34=111|52=20110223-23:28:31|10=168||0|
M|112|0|0|I|20110223-23:29:01.479|72|8=FIX.4.1|9=0048|35=0|49=BLP|56=ABN2|34=112|52=20110223-23:29:01|10=167||0|
M|113|0|0|I|20110223-23:29:31.481|72|8=FIX.4.1|9=0048|35=0|49=BLP|56=ABN2|34=113|52=20110223-23:29:31|10=171||0|
M|114|0|0|I|20110223-23:30:01.481|72|8=FIX.4.1|9=0048|35=0|49=BLP|56=ABN2|34=114|52=20110223-23:30:01|10=161||0|
M|115|0|0|I|20110223-23:30:31.481|72|8=FIX.4.1|9=0048|35=0|49=BLP|56=ABN2|34=115|52=20110223-23:30:31|10=165||0|
M|116|0|0|I|20110223-23:31:01.481|72|8=FIX.4.1|9=0048|35=0|49=BLP|56=ABN2|34=116|52=20110223-23:31:01|10=164||0|
M|117|0|0|I|20110223-23:31:31.483|72|8=FIX.4.1|9=0048|35=0|49=BLP|56=ABN2|34=117|52=20110223-23:31:31|10=168||0|
M|118|0|0|I|20110223-23:32:01.483|72|8=FIX.4.1|9=0048|35=0|49=BLP|56=ABN2|34=118|52=20110223-23:32:01|10=167||0|
M|119|0|0|I|20110223-23:32:31.483|72|8=FIX.4.1|9=0048|35=0|49=BLP|56=ABN2|34=119|52=20110223-23:32:31|10=171||0|
M|120|0|0|I|20110223-23:33:01.483|72|8=FIX.4.1|9=0048|35=0|49=BLP|56=ABN2|34=120|52=20110223-23:33:01|10=161||0|
M|121|0|0|I|20110223-23:33:31.483|72|8=FIX.4.1|9=0048|35=0|49=BLP|56=ABN2|34=121|52=20110223-23:33:31|10=165||0|
M|122|0|0|I|20110223-23:34:01.485|72|8=FIX.4.1|9=0048|35=0|49=BLP|56=ABN2|34=122|52=20110223-23:34:01|10=164||0|
M|123|0|0|I|20110223-23:34:31.485|72|8=FIX.4.1|9=0048|35=0|49=BLP|56=ABN2|34=123|52=20110223-23:34:31|10=168||0|
M|124|0|0|I|20110223-23:35:01.487|72|8=FIX.4.1|9=0048|35=0|49=BLP|56=ABN2|34=124|52=20110223-23:35:01|10=167||0|
M|125|0|0|I|20110223-23:35:31.487|72|8=FIX.4.1|9=0048|35=0|49=BLP|56=ABN2|34=125|52=20110223-23:35:31|10=171||0|
M|126|0|0|I|20110223-23:36:01.487|72|8=FIX.4.1|9=0048|35=0|49=BLP|56=ABN2|34=126|52=20110223-23:36:01|10=170||0|
M|127|0|0|I|20110223-23:36:31.489|72|8=FIX.4.1|9=0048|35=0|49=BLP|56=ABN2|34=127|52=20110223-23:36:31|10=174||0|
M|128|0|0|I|20110223-23:37:01.489|72|8=FIX.4.1|9=0048|35=0|49=BLP|56=ABN2|34=128|52=20110223-23:37:01|10=173||0|
M|129|0|0|I|20110223-23:37:31.491|72|8=FIX.4.1|9=0048|35=0|49=BLP|56=ABN2|34=129|52=20110223-23:37:31|10=177||0|
M|130|0|0|I|20110223-23:38:01.491|72|8=FIX.4.1|9=0048|35=0|49=BLP|56=ABN2|34=130|52=20110223-23:38:01|10=167||0|
M|131|0|0|I|20110223-23:38:31.491|72|8=FIX.4.1|9=0048|35=0|49=BLP|56=ABN2|34=131|52=20110223-23:38:31|10=171||0|
M|132|0|0|I|20110223-23:39:01.491|72|8=FIX.4.1|9=0048|35=0|49=BLP|56=ABN2|34=132|52=20110223-23:39:01|10=170||0|
M|133|0|0|I|20110223-23:39:31.493|72|8=FIX.4.1|9=0048|35=0|49=BLP|56=ABN2|34=133|52=20110223-23:39:31|10=174||0|
M|134|0|0|I|20110223-23:40:01.493|72|8=FIX.4.1|9=0048|35=0|49=BLP|56=ABN2|34=134|52=20110223-23:40:01|10=164||0|
M|135|0|0|I|20110223-23:40:31.493|72|8=FIX.4.1|9=0048|35=0|49=BLP|56=ABN2|34=135|52=20110223-23:40:31|10=168||0|
M|136|0|0|I|20110223-23:41:01.495|72|8=FIX.4.1|9=0048|35=0|49=BLP|56=ABN2|34=136|52=20110223-23:41:01|10=167||0|
M|137|0|0|I|20110223-23:41:31.495|72|8=FIX.4.1|9=0048|35=0|49=BLP|56=ABN2|34=137|52=20110223-23:41:31|10=171||0|
M|138|0|0|I|20110223-23:42:01.495|72|8=FIX.4.1|9=0048|35=0|49=BLP|56=ABN2|34=138|52=20110223-23:42:01|10=170||0|
M|139|0|0|I|20110223-23:42:31.497|72|8=FIX.4.1|9=0048|35=0|49=BLP|56=ABN2|34=139|52=20110223-23:42:31|10=174||0|
M|140|0|0|I|20110223-23:43:01.499|72|8=FIX.4.1|9=0048|35=0|49=BLP|56=ABN2|34=140|52=20110223-23:43:01|10=164||0|
M|141|0|0|I|20110223-23:43:31.501|72|8=FIX.4.1|9=0048|35=0|49=BLP|56=ABN2|34=141|52=20110223-23:43:31|10=168||0|
M|142|0|0|I|20110223-23:44:01.499|72|8=FIX.4.1|9=0048|35=0|49=BLP|56=ABN2|34=142|52=20110223-23:44:01|10=167||0|
M|143|0|0|I|20110223-23:44:31.499|72|8=FIX.4.1|9=0048|35=0|49=BLP|56=ABN2|34=143|52=20110223-23:44:31|10=171||0|
M|144|0|0|I|20110223-23:45:01.501|72|8=FIX.4.1|9=0048|35=0|49=BLP|56=ABN2|34=144|52=20110223-23:45:01|10=170||0|
M|145|0|0|I|20110223-23:45:31.501|72|8=FIX.4.1|9=0048|35=0|49=BLP|56=ABN2|34=145|52=20110223-23:45:31|10=174||0|
M|146|0|0|I|20110223-23:46:01.503|72|8=FIX.4.1|9=0048|35=0|49=BLP|56=ABN2|34=146|52=20110223-23:46:01|10=173||0|
M|147|0|0|I|20110223-23:46:31.503|72|8=FIX.4.1|9=0048|35=0|49=BLP|56=ABN2|34=147|52=20110223-23:46:31|10=177||0|
M|148|0|0|I|20110223-23:47:01.505|72|8=FIX.4.1|9=0048|35=0|49=BLP|56=ABN2|34=148|52=20110223-23:47:01|10=176||0|
M|149|0|0|I|20110223-23:47:31.505|72|8=FIX.4.1|9=0048|35=0|49=BLP|56=ABN2|34=149|52=20110223-23:47:31|10=180||0|
M|150|0|0|I|20110223-23:48:01.505|72|8=FIX.4.1|9=0048|35=0|49=BLP|56=ABN2|34=150|52=20110223-23:48:01|10=170||0|
M|151|0|0|I|20110223-23:48:31.507|72|8=FIX.4.1|9=0048|35=0|49=BLP|56=ABN2|34=151|52=20110223-23:48:31|10=174||0|
M|152|0|0|I|20110223-23:49:01.507|72|8=FIX.4.1|9=0048|35=0|49=BLP|56=ABN2|34=152|52=20110223-23:49:01|10=173||0|
M|153|0|0|I|20110223-23:49:31.507|72|8=FIX.4.1|9=0048|35=0|49=BLP|56=ABN2|34=153|52=20110223-23:49:31|10=177||0|
M|154|0|0|I|20110223-23:50:01.507|72|8=FIX.4.1|9=0048|35=0|49=BLP|56=ABN2|34=154|52=20110223-23:50:01|10=167||0|
M|155|0|0|I|20110223-23:50:31.507|72|8=FIX.4.1|9=0048|35=0|49=BLP|56=ABN2|34=155|52=20110223-23:50:31|10=171||0|
M|156|0|0|I|20110223-23:51:01.509|72|8=FIX.4.1|9=0048|35=0|49=BLP|56=ABN2|34=156|52=20110223-23:51:01|10=170||0|
M|157|0|0|I|20110223-23:51:31.509|72|8=FIX.4.1|9=0048|35=0|49=BLP|56=ABN2|34=157|52=20110223-23:51:31|10=174||0|
M|158|0|0|I|20110223-23:52:01.511|72|8=FIX.4.1|9=0048|35=0|49=BLP|56=ABN2|34=158|52=20110223-23:52:01|10=173||0|
M|159|0|0|I|20110223-23:52:31.511|72|8=FIX.4.1|9=0048|35=0|49=BLP|56=ABN2|34=159|52=20110223-23:52:31|10=177||0|
M|160|0|0|I|20110223-23:53:01.511|72|8=FIX.4.1|9=0048|35=0|49=BLP|56=ABN2|34=160|52=20110223-23:53:01|10=167||0|
M|161|0|0|I|20110223-23:53:31.511|72|8=FIX.4.1|9=0048|35=0|49=BLP|56=ABN2|34=161|52=20110223-23:53:31|10=171||0|
M|162|0|0|I|20110223-23:54:01.511|72|8=FIX.4.1|9=0048|35=0|49=BLP|56=ABN2|34=162|52=20110223-23:54:01|10=170||0|
M|163|0|0|I|20110223-23:54:31.513|72|8=FIX.4.1|9=0048|35=0|49=BLP|56=ABN2|34=163|52=20110223-23:54:31|10=174||0|
M|164|0|0|I|20110223-23:55:01.515|72|8=FIX.4.1|9=0048|35=0|49=BLP|56=ABN2|34=164|52=20110223-23:55:01|10=173||0|
M|165|0|0|I|20110223-23:55:31.515|72|8=FIX.4.1|9=0048|35=0|49=BLP|56=ABN2|34=165|52=20110223-23:55:31|10=177||0|
M|166|0|0|I|20110223-23:56:01.515|72|8=FIX.4.1|9=0048|35=0|49=BLP|56=ABN2|34=166|52=20110223-23:56:01|10=176||0|
M|167|0|0|I|20110223-23:56:33.338|72|8=FIX.4.1|9=0048|35=0|49=BLP|56=ABN2|34=167|52=20110223-23:56:31|10=180||0|
M|168|0|0|I|20110223-23:57:01.515|72|8=FIX.4.1|9=0048|35=0|49=BLP|56=ABN2|34=168|52=20110223-23:57:01|10=179||0|
M|169|0|0|I|20110223-23:57:31.517|72|8=FIX.4.1|9=0048|35=0|49=BLP|56=ABN2|34=169|52=20110223-23:57:31|10=183||0|
M|170|0|0|I|20110223-23:58:01.517|72|8=FIX.4.1|9=0048|35=0|49=BLP|56=ABN2|34=170|52=20110223-23:58:01|10=173||0|
M|171|0|0|I|20110223-23:58:31.517|72|8=FIX.4.1|9=0048|35=0|49=BLP|56=ABN2|34=171|52=20110223-23:58:31|10=177||0|
M|172|0|0|I|20110223-23:59:01.519|72|8=FIX.4.1|9=0048|35=0|49=BLP|56=ABN2|34=172|52=20110223-23:59:01|10=176||0|
M|173|0|0|I|20110223-23:59:31.521|72|8=FIX.4.1|9=0048|35=0|49=BLP|56=ABN2|34=173|52=20110223-23:59:31|10=180||0|
M|174|0|0|I|20110224-00:00:01.521|72|8=FIX.4.1|9=0048|35=0|49=BLP|56=ABN2|34=174|52=20110224-00:00:01|10=160||0|
M|175|0|0|I|20110224-00:00:31.521|72|8=FIX.4.1|9=0048|35=0|49=BLP|56=ABN2|34=175|52=20110224-00:00:31|10=164||0|
M|176|0|0|I|20110224-00:01:01.523|72|8=FIX.4.1|9=0048|35=0|49=BLP|56=ABN2|34=176|52=20110224-00:01:01|10=163||0|
M|177|0|0|I|20110224-00:01:31.523|72|8=FIX.4.1|9=0048|35=0|49=BLP|56=ABN2|34=177|52=20110224-00:01:31|10=167||0|
M|178|0|0|I|20110224-00:02:01.523|72|8=FIX.4.1|9=0048|35=0|49=BLP|56=ABN2|34=178|52=20110224-00:02:01|10=166||0|
M|179|0|0|I|20110224-00:02:31.523|72|8=FIX.4.1|9=0048|35=0|49=BLP|56=ABN2|34=179|52=20110224-00:02:31|10=170||0|
M|180|0|0|I|20110224-00:03:01.523|72|8=FIX.4.1|9=0048|35=0|49=BLP|56=ABN2|34=180|52=20110224-00:03:01|10=160||0|
M|181|0|0|I|20110224-00:03:31.523|72|8=FIX.4.1|9=0048|35=0|49=BLP|56=ABN2|34=181|52=20110224-00:03:31|10=164||0|
M|182|0|0|I|20110224-00:04:01.523|72|8=FIX.4.1|9=0048|35=0|49=BLP|56=ABN2|34=182|52=20110224-00:04:01|10=163||0|
M|183|0|0|I|20110224-00:04:31.525|72|8=FIX.4.1|9=0048|35=0|49=BLP|56=ABN2|34=183|52=20110224-00:04:31|10=167||0|
M|184|0|0|I|20110224-00:05:01.525|72|8=FIX.4.1|9=0048|35=0|49=BLP|56=ABN2|34=184|52=20110224-00:05:01|10=166||0|
M|185|0|0|I|20110224-00:05:31.525|72|8=FIX.4.1|9=0048|35=0|49=BLP|56=ABN2|34=185|52=20110224-00:05:31|10=170||0|
M|186|0|0|I|20110224-00:06:01.527|72|8=FIX.4.1|9=0048|35=0|49=BLP|56=ABN2|34=186|52=20110224-00:06:01|10=169||0|
M|187|0|0|I|20110224-00:06:31.527|72|8=FIX.4.1|9=0048|35=0|49=BLP|56=ABN2|34=187|52=20110224-00:06:31|10=173||0|
M|188|0|0|I|20110224-00:07:01.527|72|8=FIX.4.1|9=0048|35=0|49=BLP|56=ABN2|34=188|52=20110224-00:07:01|10=172||0|
M|189|0|0|I|20110224-00:07:31.527|72|8=FIX.4.1|9=0048|35=0|49=BLP|56=ABN2|34=189|52=20110224-00:07:31|10=176||0|
M|190|0|0|I|20110224-00:08:01.529|72|8=FIX.4.1|9=0048|35=0|49=BLP|56=ABN2|34=190|52=20110224-00:08:01|10=166||0|
M|191|0|0|I|20110224-00:08:31.529|72|8=FIX.4.1|9=0048|35=0|49=BLP|56=ABN2|34=191|52=20110224-00:08:31|10=170||0|
M|192|0|0|I|20110224-00:09:01.529|72|8=FIX.4.1|9=0048|35=0|49=BLP|56=ABN2|34=192|52=20110224-00:09:01|10=169||0|
M|193|0|0|I|20110224-00:09:31.529|72|8=FIX.4.1|9=0048|35=0|49=BLP|56=ABN2|34=193|52=20110224-00:09:31|10=173||0|
M|194|0|0|I|20110224-00:10:01.531|72|8=FIX.4.1|9=0048|35=0|49=BLP|56=ABN2|34=194|52=20110224-00:10:01|10=163||0|
M|195|0|0|I|20110224-00:10:31.533|72|8=FIX.4.1|9=0048|35=0|49=BLP|56=ABN2|34=195|52=20110224-00:10:31|10=167||0|
M|196|0|0|I|20110224-00:11:01.533|72|8=FIX.4.1|9=0048|35=0|49=BLP|56=ABN2|34=196|52=20110224-00:11:01|10=166||0|
M|197|0|0|I|20110224-00:11:31.533|72|8=FIX.4.1|9=0048|35=0|49=BLP|56=ABN2|34=197|52=20110224-00:11:31|10=170||0|
M|198|0|0|I|20110224-00:12:01.533|72|8=FIX.4.1|9=0048|35=0|49=BLP|56=ABN2|34=198|52=20110224-00:12:01|10=169||0|
M|199|0|0|I|20110224-00:12:31.535|72|8=FIX.4.1|9=0048|35=0|49=BLP|56=ABN2|34=199|52=20110224-00:12:31|10=173||0|
M|200|0|0|I|20110224-00:13:01.533|72|8=FIX.4.1|9=0048|35=0|49=BLP|56=ABN2|34=200|52=20110224-00:13:01|10=154||0|
M|201|0|0|I|20110224-00:13:31.535|72|8=FIX.4.1|9=0048|35=0|49=BLP|56=ABN2|34=201|52=20110224-00:13:31|10=158||0|
M|202|0|0|I|20110224-00:14:01.535|72|8=FIX.4.1|9=0048|35=0|49=BLP|56=ABN2|34=202|52=20110224-00:14:01|10=157||0|
M|203|0|0|I|20110224-00:14:31.537|72|8=FIX.4.1|9=0048|35=0|49=BLP|56=ABN2|34=203|52=20110224-00:14:31|10=161||0|
M|204|0|0|I|20110224-00:15:01.537|72|8=FIX.4.1|9=0048|35=0|49=BLP|56=ABN2|34=204|52=20110224-00:15:01|10=160||0|
M|205|0|0|I|20110224-00:15:31.537|72|8=FIX.4.1|9=0048|35=0|49=BLP|56=ABN2|34=205|52=20110224-00:15:31|10=164||0|
M|206|0|0|I|20110224-00:16:01.537|72|8=FIX.4.1|9=0048|35=0|49=BLP|56=ABN2|34=206|52=20110224-00:16:01|10=163||0|
M|207|0|0|I|20110224-00:16:31.539|72|8=FIX.4.1|9=0048|35=0|49=BLP|56=ABN2|34=207|52=20110224-00:16:31|10=167||0|
M|208|0|0|I|20110224-00:17:01.539|72|8=FIX.4.1|9=0048|35=0|49=BLP|56=ABN2|34=208|52=20110224-00:17:01|10=166||0|
M|209|0|0|I|20110224-00:17:31.539|72|8=FIX.4.1|9=0048|35=0|49=BLP|56=ABN2|34=209|52=20110224-00:17:31|10=170||0|
M|210|0|0|I|20110224-00:18:01.539|72|8=FIX.4.1|9=0048|35=0|49=BLP|56=ABN2|34=210|52=20110224-00:18:01|10=160||0|
M|211|0|0|I|20110224-00:18:31.541|72|8=FIX.4.1|9=0048|35=0|49=BLP|56=ABN2|34=211|52=20110224-00:18:31|10=164||0|
M|212|0|0|I|20110224-00:19:01.541|72|8=FIX.4.1|9=0048|35=0|49=BLP|56=ABN2|34=212|52=20110224-00:19:01|10=163||0|
M|213|0|0|I|20110224-00:19:31.541|72|8=FIX.4.1|9=0048|35=0|49=BLP|56=ABN2|34=213|52=20110224-00:19:31|10=167||0|
M|214|0|0|I|20110224-00:20:01.543|72|8=FIX.4.1|9=0048|35=0|49=BLP|56=ABN2|34=214|52=20110224-00:20:01|10=157||0|
M|215|0|0|I|20110224-00:20:31.543|72|8=FIX.4.1|9=0048|35=0|49=BLP|56=ABN2|34=215|52=20110224-00:20:31|10=161||0|
M|216|0|0|I|20110224-00:21:01.543|72|8=FIX.4.1|9=0048|35=0|49=BLP|56=ABN2|34=216|52=20110224-00:21:01|10=160||0|
M|217|0|0|I|20110224-00:21:31.543|72|8=FIX.4.1|9=0048|35=0|49=BLP|56=ABN2|34=217|52=20110224-00:21:31|10=164||0|
M|218|0|0|I|20110224-00:22:01.543|72|8=FIX.4.1|9=0048|35=0|49=BLP|56=ABN2|34=218|52=20110224-00:22:01|10=163||0|
M|219|0|0|I|20110224-00:22:31.545|72|8=FIX.4.1|9=0048|35=0|49=BLP|56=ABN2|34=219|52=20110224-00:22:31|10=167||0|
M|220|0|0|I|20110224-00:23:01.545|72|8=FIX.4.1|9=0048|35=0|49=BLP|56=ABN2|34=220|52=20110224-00:23:01|10=157||0|
M|221|0|0|I|20110224-00:23:31.545|72|8=FIX.4.1|9=0048|35=0|49=BLP|56=ABN2|34=221|52=20110224-00:23:31|10=161||0|
M|222|0|0|I|20110224-00:24:01.545|72|8=FIX.4.1|9=0048|35=0|49=BLP|56=ABN2|34=222|52=20110224-00:24:01|10=160||0|
M|223|0|0|I|20110224-00:24:31.547|72|8=FIX.4.1|9=0048|35=0|49=BLP|56=ABN2|34=223|52=20110224-00:24:31|10=164||0|
M|224|0|0|I|20110224-00:25:01.547|72|8=FIX.4.1|9=0048|35=0|49=BLP|56=ABN2|34=224|52=20110224-00:25:01|10=163||0|
M|225|0|0|I|20110224-00:25:31.549|72|8=FIX.4.1|9=0048|35=0|49=BLP|56=ABN2|34=225|52=20110224-00:25:31|10=167||0|
M|226|0|0|I|20110224-00:26:01.551|72|8=FIX.4.1|9=0048|35=0|49=BLP|56=ABN2|34=226|52=20110224-00:26:01|10=166||0|
M|227|0|0|I|20110224-00:26:31.551|72|8=FIX.4.1|9=0048|35=0|49=BLP|56=ABN2|34=227|52=20110224-00:26:31|10=170||0|
M|228|0|0|I|20110224-00:27:01.551|72|8=FIX.4.1|9=0048|35=0|49=BLP|56=ABN2|34=228|52=20110224-00:27:01|10=169||0|
M|229|0|0|I|20110224-00:27:31.553|72|8=FIX.4.1|9=0048|35=0|49=BLP|56=ABN2|34=229|52=20110224-00:27:31|10=173||0|
M|230|0|0|I|20110224-00:28:01.553|72|8=FIX.4.1|9=0048|35=0|49=BLP|56=ABN2|34=230|52=20110224-00:28:01|10=163||0|
M|231|0|0|I|20110224-00:28:31.553|72|8=FIX.4.1|9=0048|35=0|49=BLP|56=ABN2|34=231|52=20110224-00:28:31|10=167||0|
M|232|0|0|I|20110224-00:29:01.555|72|8=FIX.4.1|9=0048|35=0|49=BLP|56=ABN2|34=232|52=20110224-00:29:01|10=166||0|
M|233|0|0|I|20110224-00:29:31.555|72|8=FIX.4.1|9=0048|35=0|49=BLP|56=ABN2|34=233|52=20110224-00:29:31|10=170||0|
M|234|0|0|I|20110224-00:30:01.557|72|8=FIX.4.1|9=0048|35=0|49=BLP|56=ABN2|34=234|52=20110224-00:30:01|10=160||0|
M|235|0|0|I|20110224-00:30:31.557|72|8=FIX.4.1|9=0048|35=0|49=BLP|56=ABN2|34=235|52=20110224-00:30:31|10=164||0|
M|236|0|0|I|20110224-00:31:01.557|72|8=FIX.4.1|9=0048|35=0|49=BLP|56=ABN2|34=236|52=20110224-00:31:01|10=163||0|
M|237|0|0|I|20110224-00:31:31.559|72|8=FIX.4.1|9=0048|35=0|49=BLP|56=ABN2|34=237|52=20110224-00:31:31|10=167||0|
M|238|0|0|I|20110224-00:32:01.559|72|8=FIX.4.1|9=0048|35=0|49=BLP|56=ABN2|34=238|52=20110224-00:32:01|10=166||0|
M|239|0|0|I|20110224-00:32:31.559|72|8=FIX.4.1|9=0048|35=0|49=BLP|56=ABN2|34=239|52=20110224-00:32:31|10=170||0|
M|240|0|0|I|20110224-00:33:01.565|72|8=FIX.4.1|9=0048|35=0|49=BLP|56=ABN2|34=240|52=20110224-00:33:01|10=160||0|
M|241|0|0|I|20110224-00:33:31.559|72|8=FIX.4.1|9=0048|35=0|49=BLP|56=ABN2|34=241|52=20110224-00:33:31|10=164||0|
M|242|0|0|I|20110224-00:34:01.567|72|8=FIX.4.1|9=0048|35=0|49=BLP|56=ABN2|34=242|52=20110224-00:34:01|10=163||0|
M|243|0|0|I|20110224-00:34:31.561|72|8=FIX.4.1|9=0048|35=0|49=BLP|56=ABN2|34=243|52=20110224-00:34:31|10=167||0|
M|244|0|0|I|20110224-00:35:01.561|72|8=FIX.4.1|9=0048|35=0|49=BLP|56=ABN2|34=244|52=20110224-00:35:01|10=166||0|
M|245|0|0|I|20110224-00:35:31.561|72|8=FIX.4.1|9=0048|35=0|49=BLP|56=ABN2|34=245|52=20110224-00:35:31|10=170||0|
M|246|0|0|I|20110224-00:36:01.561|72|8=FIX.4.1|9=0048|35=0|49=BLP|56=ABN2|34=246|52=20110224-00:36:01|10=169||0|
M|247|0|0|I|20110224-00:36:31.561|72|8=FIX.4.1|9=0048|35=0|49=BLP|56=ABN2|34=247|52=20110224-00:36:31|10=173||0|
M|248|0|0|I|20110224-00:37:01.563|72|8=FIX.4.1|9=0048|35=0|49=BLP|56=ABN2|34=248|52=20110224-00:37:01|10=172||0|
M|249|0|0|I|20110224-00:37:31.563|72|8=FIX.4.1|9=0048|35=0|49=BLP|56=ABN2|34=249|52=20110224-00:37:31|10=176||0|
M|250|0|0|I|20110224-00:38:01.563|72|8=FIX.4.1|9=0048|35=0|49=BLP|56=ABN2|34=250|52=20110224-00:38:01|10=166||0|
M|251|0|0|I|20110224-00:38:31.563|72|8=FIX.4.1|9=0048|35=0|49=BLP|56=ABN2|34=251|52=20110224-00:38:31|10=170||0|
M|252|0|0|I|20110224-00:39:01.565|72|8=FIX.4.1|9=0048|35=0|49=BLP|56=ABN2|34=252|52=20110224-00:39:01|10=169||0|
M|253|0|0|I|20110224-00:39:31.565|72|8=FIX.4.1|9=0048|35=0|49=BLP|56=ABN2|34=253|52=20110224-00:39:31|10=173||0|
M|254|0|0|I|20110224-00:40:01.565|72|8=FIX.4.1|9=0048|35=0|49=BLP|56=ABN2|34=254|52=20110224-00:40:01|10=163||0|
M|255|0|0|I|20110224-00:40:31.567|72|8=FIX.4.1|9=0048|35=0|49=BLP|56=ABN2|34=255|52=20110224-00:40:31|10=167||0|
M|256|0|0|I|20110224-00:41:01.567|72|8=FIX.4.1|9=0048|35=0|49=BLP|56=ABN2|34=256|52=20110224-00:41:01|10=166||0|
M|257|0|0|I|20110224-00:41:31.567|72|8=FIX.4.1|9=0048|35=0|49=BLP|56=ABN2|34=257|52=20110224-00:41:31|10=170||0|
M|258|0|0|I|20110224-00:42:01.567|72|8=FIX.4.1|9=0048|35=0|49=BLP|56=ABN2|34=258|52=20110224-00:42:01|10=169||0|
M|259|0|0|I|20110224-00:42:31.569|72|8=FIX.4.1|9=0048|35=0|49=BLP|56=ABN2|34=259|52=20110224-00:42:31|10=173||0|
M|260|0|0|I|20110224-00:43:01.569|72|8=FIX.4.1|9=0048|35=0|49=BLP|56=ABN2|34=260|52=20110224-00:43:01|10=163||0|
M|261|0|0|I|20110224-00:43:31.569|72|8=FIX.4.1|9=0048|35=0|49=BLP|56=ABN2|34=261|52=20110224-00:43:31|10=167||0|
M|262|0|0|I|20110224-00:44:01.569|72|8=FIX.4.1|9=0048|35=0|49=BLP|56=ABN2|34=262|52=20110224-00:44:01|10=166||0|
M|263|0|0|I|20110224-00:44:31.569|72|8=FIX.4.1|9=0048|35=0|49=BLP|56=ABN2|34=263|52=20110224-00:44:31|10=170||0|
M|264|0|0|I|20110224-00:45:01.571|72|8=FIX.4.1|9=0048|35=0|49=BLP|56=ABN2|34=264|52=20110224-00:45:01|10=169||0|
M|265|0|0|I|20110224-00:45:31.571|72|8=FIX.4.1|9=0048|35=0|49=BLP|56=ABN2|34=265|52=20110224-00:45:31|10=173||0|
M|266|0|0|I|20110224-00:46:01.571|72|8=FIX.4.1|9=0048|35=0|49=BLP|56=ABN2|34=266|52=20110224-00:46:01|10=172||0|
M|267|0|0|I|20110224-00:46:31.571|72|8=FIX.4.1|9=0048|35=0|49=BLP|56=ABN2|34=267|52=20110224-00:46:31|10=176||0|
M|268|0|0|I|20110224-00:47:01.582|72|8=FIX.4.1|9=0048|35=0|49=BLP|56=ABN2|34=268|52=20110224-00:47:01|10=175||0|
M|269|0|0|I|20110224-00:47:31.573|72|8=FIX.4.1|9=0048|35=0|49=BLP|56=ABN2|34=269|52=20110224-00:47:31|10=179||0|
M|270|0|0|I|20110224-00:48:01.573|72|8=FIX.4.1|9=0048|35=0|49=BLP|56=ABN2|34=270|52=20110224-00:48:01|10=169||0|
M|271|0|0|I|20110224-00:48:31.575|72|8=FIX.4.1|9=0048|35=0|49=BLP|56=ABN2|34=271|52=20110224-00:48:31|10=173||0|
M|272|0|0|I|20110224-00:49:01.575|72|8=FIX.4.1|9=0048|35=0|49=BLP|56=ABN2|34=272|52=20110224-00:49:01|10=172||0|
M|273|0|0|I|20110224-00:49:31.575|72|8=FIX.4.1|9=0048|35=0|49=BLP|56=ABN2|34=273|52=20110224-00:49:31|10=176||0|
M|274|0|0|I|20110224-00:50:01.577|72|8=FIX.4.1|9=0048|35=0|49=BLP|56=ABN2|34=274|52=20110224-00:50:01|10=166||0|
M|275|0|0|I|20110224-00:50:31.577|72|8=FIX.4.1|9=0048|35=0|49=BLP|56=ABN2|34=275|52=20110224-00:50:31|10=170||0|
M|276|0|0|I|20110224-00:51:01.579|72|8=FIX.4.1|9=0048|35=0|49=BLP|56=ABN2|34=276|52=20110224-00:51:01|10=169||0|
M|277|0|0|I|20110224-00:51:31.579|72|8=FIX.4.1|9=0048|35=0|49=BLP|56=ABN2|34=277|52=20110224-00:51:31|10=173||0|
M|278|0|0|I|20110224-00:52:01.579|72|8=FIX.4.1|9=0048|35=0|49=BLP|56=ABN2|34=278|52=20110224-00:52:01|10=172||0|
M|279|0|0|I|20110224-00:52:31.581|72|8=FIX.4.1|9=0048|35=0|49=BLP|56=ABN2|34=279|52=20110224-00:52:31|10=176||0|
M|280|0|0|I|20110224-00:53:01.583|72|8=FIX.4.1|9=0048|35=0|49=BLP|56=ABN2|34=280|52=20110224-00:53:01|10=166||0|
M|281|0|0|I|20110224-00:53:31.583|72|8=FIX.4.1|9=0048|35=0|49=BLP|56=ABN2|34=281|52=20110224-00:53:31|10=170||0|
M|282|0|0|I|20110224-00:54:01.583|72|8=FIX.4.1|9=0048|35=0|49=BLP|56=ABN2|34=282|52=20110224-00:54:01|10=169||0|
M|283|0|0|I|20110224-00:54:31.585|72|8=FIX.4.1|9=0048|35=0|49=BLP|56=ABN2|34=283|52=20110224-00:54:31|10=173||0|
M|284|0|0|I|20110224-00:55:01.585|72|8=FIX.4.1|9=0048|35=0|49=BLP|56=ABN2|34=284|52=20110224-00:55:01|10=172||0|
M|285|0|0|I|20110224-00:55:31.587|72|8=FIX.4.1|9=0048|35=0|49=BLP|56=ABN2|34=285|52=20110224-00:55:31|10=176||0|
M|286|0|0|I|20110224-00:56:01.587|72|8=FIX.4.1|9=0048|35=0|49=BLP|56=ABN2|34=286|52=20110224-00:56:01|10=175||0|
M|287|0|0|I|20110224-00:56:31.587|72|8=FIX.4.1|9=0048|35=0|49=BLP|56=ABN2|34=287|52=20110224-00:56:31|10=179||0|
M|288|0|0|I|20110224-00:57:01.589|72|8=FIX.4.1|9=0048|35=0|49=BLP|56=ABN2|34=288|52=20110224-00:57:01|10=178||0|
M|289|0|0|I|20110224-00:57:31.587|72|8=FIX.4.1|9=0048|35=0|49=BLP|56=ABN2|34=289|52=20110224-00:57:31|10=182||0|
M|290|0|0|I|20110224-00:58:01.589|72|8=FIX.4.1|9=0048|35=0|49=BLP|56=ABN2|34=290|52=20110224-00:58:01|10=172||0|
M|291|0|0|I|20110224-00:58:31.589|72|8=FIX.4.1|9=0048|35=0|49=BLP|56=ABN2|34=291|52=20110224-00:58:31|10=176||0|
M|292|0|0|I|20110224-00:59:01.589|72|8=FIX.4.1|9=0048|35=0|49=BLP|56=ABN2|34=292|52=20110224-00:59:01|10=175||0|
M|293|0|0|I|20110224-00:59:31.589|72|8=FIX.4.1|9=0048|35=0|49=BLP|56=ABN2|34=293|52=20110224-00:59:31|10=179||0|
M|294|0|0|I|20110224-01:00:01.591|72|8=FIX.4.1|9=0048|35=0|49=BLP|56=ABN2|34=294|52=20110224-01:00:01|10=164||0|
M|295|0|0|I|20110224-01:00:31.591|72|8=FIX.4.1|9=0048|35=0|49=BLP|56=ABN2|34=295|52=20110224-01:00:31|10=168||0|
M|296|0|0|I|20110224-01:01:01.591|72|8=FIX.4.1|9=0048|35=0|49=BLP|56=ABN2|34=296|52=20110224-01:01:01|10=167||0|
M|297|0|0|I|20110224-01:01:31.593|72|8=FIX.4.1|9=0048|35=0|49=BLP|56=ABN2|34=297|52=20110224-01:01:31|10=171||0|
M|298|0|0|I|20110224-01:02:01.595|72|8=FIX.4.1|9=0048|35=0|49=BLP|56=ABN2|34=298|52=20110224-01:02:01|10=170||0|
M|299|0|0|I|20110224-01:02:31.595|72|8=FIX.4.1|9=0048|35=0|49=BLP|56=ABN2|34=299|52=20110224-01:02:31|10=174||0|
M|300|0|0|I|20110224-01:03:01.595|72|8=FIX.4.1|9=0048|35=0|49=BLP|56=ABN2|34=300|52=20110224-01:03:01|10=155||0|
M|301|0|0|I|20110224-01:03:31.595|72|8=FIX.4.1|9=0048|35=0|49=BLP|56=ABN2|34=301|52=20110224-01:03:31|10=159||0|
M|302|0|0|I|20110224-01:04:01.595|72|8=FIX.4.1|9=0048|35=0|49=BLP|56=ABN2|34=302|52=20110224-01:04:01|10=158||0|
M|303|0|0|I|20110224-01:04:31.597|72|8=FIX.4.1|9=0048|35=0|49=BLP|56=ABN2|34=303|52=20110224-01:04:31|10=162||0|
M|304|0|0|I|20110224-01:05:01.599|72|8=FIX.4.1|9=0048|35=0|49=BLP|56=ABN2|34=304|52=20110224-01:05:01|10=161||0|
M|305|0|0|I|20110224-01:05:31.599|72|8=FIX.4.1|9=0048|35=0|49=BLP|56=ABN2|34=305|52=20110224-01:05:31|10=165||0|
M|306|0|0|I|20110224-01:06:01.599|72|8=FIX.4.1|9=0048|35=0|49=BLP|56=ABN2|34=306|52=20110224-01:06:01|10=164||0|
M|307|0|0|I|20110224-01:06:31.601|72|8=FIX.4.1|9=0048|35=0|49=BLP|56=ABN2|34=307|52=20110224-01:06:31|10=168||0|
M|308|0|0|I|20110224-01:07:01.601|72|8=FIX.4.1|9=0048|35=0|49=BLP|56=ABN2|34=308|52=20110224-01:07:01|10=167||0|
M|309|0|0|I|20110224-01:07:31.603|72|8=FIX.4.1|9=0048|35=0|49=BLP|56=ABN2|34=309|52=20110224-01:07:31|10=171||0|
M|310|0|0|I|20110224-01:08:01.603|72|8=FIX.4.1|9=0048|35=0|49=BLP|56=ABN2|34=310|52=20110224-01:08:01|10=161||0|
M|311|0|0|I|20110224-01:08:31.605|72|8=FIX.4.1|9=0048|35=0|49=BLP|56=ABN2|34=311|52=20110224-01:08:31|10=165||0|
M|312|0|0|I|20110224-01:09:01.605|72|8=FIX.4.1|9=0048|35=0|49=BLP|56=ABN2|34=312|52=20110224-01:09:01|10=164||0|
M|313|0|0|I|20110224-01:09:31.605|72|8=FIX.4.1|9=0048|35=0|49=BLP|56=ABN2|34=313|52=20110224-01:09:31|10=168||0|
M|314|0|0|I|20110224-01:10:01.611|72|8=FIX.4.1|9=0048|35=0|49=BLP|56=ABN2|34=314|52=20110224-01:10:01|10=158||0|
M|315|0|0|I|20110224-01:10:31.607|72|8=FIX.4.1|9=0048|35=0|49=BLP|56=ABN2|34=315|52=20110224-01:10:31|10=162||0|
M|316|0|0|I|20110224-01:11:01.607|72|8=FIX.4.1|9=0048|35=0|49=BLP|56=ABN2|34=316|52=20110224-01:11:01|10=161||0|
M|317|0|0|I|20110224-01:11:31.607|72|8=FIX.4.1|9=0048|35=0|49=BLP|56=ABN2|34=317|52=20110224-01:11:31|10=165||0|
M|318|0|0|I|20110224-01:12:01.607|72|8=FIX.4.1|9=0048|35=0|49=BLP|56=ABN2|34=318|52=20110224-01:12:01|10=164||0|
M|319|0|0|I|20110224-01:12:31.607|72|8=FIX.4.1|9=0048|35=0|49=BLP|56=ABN2|34=319|52=20110224-01:12:31|10=168||0|
M|320|0|0|I|20110224-01:13:01.609|72|8=FIX.4.1|9=0048|35=0|49=BLP|56=ABN2|34=320|52=20110224-01:13:01|10=158||0|
M|321|0|0|I|20110224-01:13:31.617|72|8=FIX.4.1|9=0048|35=0|49=BLP|56=ABN2|34=321|52=20110224-01:13:31|10=162||0|
M|322|0|0|I|20110224-01:14:01.609|72|8=FIX.4.1|9=0048|35=0|49=BLP|56=ABN2|34=322|52=20110224-01:14:01|10=161||0|
M|323|0|0|I|20110224-01:14:31.609|72|8=FIX.4.1|9=0048|35=0|49=BLP|56=ABN2|34=323|52=20110224-01:14:31|10=165||0|
M|324|0|D|I|20110224-01:14:33.469|204|8=FIX.4.1|9=0180|35=D|49=BLP|56=ABN2|34=324|50=4293876|57=ABN2|52=20110224-01:14:33|38=400|40=1|11=20110224-00001|15=HKD|75=20110224|48=6158163|109=CHINC|21=3|22=2|54=1|55=5|207=HK|58=testing|59=0|10=044||0|
M|325|0|0|I|20110224-01:15:03.469|72|8=FIX.4.1|9=0048|35=0|49=BLP|56=ABN2|34=325|52=20110224-01:15:03|10=167||0|
M|326|0|F|I|20110224-01:15:05.177|195|8=FIX.4.1|9=0171|35=F|49=BLP|56=ABN2|34=326|50=4293876|57=ABN2|52=20110224-01:15:05|125=F|38=400|11=20110224-10001|41=20110224-00001|75=20110224|48=6158163|109=CHINC|22=2|54=1|55=5|207=HK|10=243||0|
M|327|0|1|I|20110224-01:15:33.469|100|8=FIX.4.1|9=0076|35=1|49=BLP|56=ABN2|34=327|52=20110224-01:15:33|112=C.0005.0147.0145.011533|10=003||0|
M|328|0|0|I|20110224-01:16:03.469|72|8=FIX.4.1|9=0048|35=0|49=BLP|56=ABN2|34=328|52=20110224-01:16:03|10=171||0|
M|329|0|0|I|20110224-01:16:33.471|72|8=FIX.4.1|9=0048|35=0|49=BLP|56=ABN2|34=329|52=20110224-01:16:33|10=175||0|
M|330|0|0|I|20110224-01:17:03.471|72|8=FIX.4.1|9=0048|35=0|49=BLP|56=ABN2|34=330|52=20110224-01:17:03|10=165||0|
M|331|0|0|I|20110224-01:17:33.471|72|8=FIX.4.1|9=0048|35=0|49=BLP|56=ABN2|34=331|52=20110224-01:17:33|10=169||0|
M|332|0|0|I|20110224-01:18:03.471|72|8=FIX.4.1|9=0048|35=0|49=BLP|56=ABN2|34=332|52=20110224-01:18:03|10=168||0|
M|333|0|0|I|20110224-01:18:33.471|72|8=FIX.4.1|9=0048|35=0|49=BLP|56=ABN2|34=333|52=20110224-01:18:33|10=172||0|
M|334|0|0|I|20110224-01:19:03.471|72|8=FIX.4.1|9=0048|35=0|49=BLP|56=ABN2|34=334|52=20110224-01:19:03|10=171||0|
M|335|0|0|I|20110224-01:19:33.473|72|8=FIX.4.1|9=0048|35=0|49=BLP|56=ABN2|34=335|52=20110224-01:19:33|10=175||0|
M|336|0|0|I|20110224-01:20:03.473|72|8=FIX.4.1|9=0048|35=0|49=BLP|56=ABN2|34=336|52=20110224-01:20:03|10=165||0|
M|337|0|0|I|20110224-01:20:33.473|72|8=FIX.4.1|9=0048|35=0|49=BLP|56=ABN2|34=337|52=20110224-01:20:33|10=169||0|
M|338|0|0|I|20110224-01:21:03.475|72|8=FIX.4.1|9=0048|35=0|49=BLP|56=ABN2|34=338|52=20110224-01:21:03|10=168||0|
M|339|0|0|I|20110224-01:21:33.475|72|8=FIX.4.1|9=0048|35=0|49=BLP|56=ABN2|34=339|52=20110224-01:21:33|10=172||0|
M|340|0|0|I|20110224-01:22:03.477|72|8=FIX.4.1|9=0048|35=0|49=BLP|56=ABN2|34=340|52=20110224-01:22:03|10=162||0|
M|341|0|0|I|20110224-01:22:33.477|72|8=FIX.4.1|9=0048|35=0|49=BLP|56=ABN2|34=341|52=20110224-01:22:33|10=166||0|
M|342|0|0|I|20110224-01:23:03.477|72|8=FIX.4.1|9=0048|35=0|49=BLP|56=ABN2|34=342|52=20110224-01:23:03|10=165||0|
M|343|0|0|I|20110224-01:23:33.479|72|8=FIX.4.1|9=0048|35=0|49=BLP|56=ABN2|34=343|52=20110224-01:23:33|10=169||0|
M|344|0|0|I|20110224-01:24:03.479|72|8=FIX.4.1|9=0048|35=0|49=BLP|56=ABN2|34=344|52=20110224-01:24:03|10=168||0|
M|345|0|0|I|20110224-01:24:33.479|72|8=FIX.4.1|9=0048|35=0|49=BLP|56=ABN2|34=345|52=20110224-01:24:33|10=172||0|
M|346|0|0|I|20110224-01:25:03.481|72|8=FIX.4.1|9=0048|35=0|49=BLP|56=ABN2|34=346|52=20110224-01:25:03|10=171||0|
M|347|0|0|I|20110224-01:25:33.483|72|8=FIX.4.1|9=0048|35=0|49=BLP|56=ABN2|34=347|52=20110224-01:25:33|10=175||0|
M|348|0|0|I|20110224-01:26:03.483|72|8=FIX.4.1|9=0048|35=0|49=BLP|56=ABN2|34=348|52=20110224-01:26:03|10=174||0|
M|349|0|0|I|20110224-01:26:33.483|72|8=FIX.4.1|9=0048|35=0|49=BLP|56=ABN2|34=349|52=20110224-01:26:33|10=178||0|
M|350|0|0|I|20110224-01:27:03.483|72|8=FIX.4.1|9=0048|35=0|49=BLP|56=ABN2|34=350|52=20110224-01:27:03|10=168||0|
M|351|0|0|I|20110224-01:27:33.485|72|8=FIX.4.1|9=0048|35=0|49=BLP|56=ABN2|34=351|52=20110224-01:27:33|10=172||0|
M|352|0|0|I|20110224-01:28:03.485|72|8=FIX.4.1|9=0048|35=0|49=BLP|56=ABN2|34=352|52=20110224-01:28:03|10=171||0|
M|353|0|0|I|20110224-01:28:33.485|72|8=FIX.4.1|9=0048|35=0|49=BLP|56=ABN2|34=353|52=20110224-01:28:33|10=175||0|
M|354|0|0|I|20110224-01:29:03.485|72|8=FIX.4.1|9=0048|35=0|49=BLP|56=ABN2|34=354|52=20110224-01:29:03|10=174||0|
M|355|0|0|I|20110224-01:29:33.487|72|8=FIX.4.1|9=0048|35=0|49=BLP|56=ABN2|34=355|52=20110224-01:29:33|10=178||0|
M|356|0|0|I|20110224-01:30:03.487|72|8=FIX.4.1|9=0048|35=0|49=BLP|56=ABN2|34=356|52=20110224-01:30:03|10=168||0|
M|357|0|0|I|20110224-01:30:33.489|72|8=FIX.4.1|9=0048|35=0|49=BLP|56=ABN2|34=357|52=20110224-01:30:33|10=172||0|
M|358|0|0|I|20110224-01:31:03.493|72|8=FIX.4.1|9=0048|35=0|49=BLP|56=ABN2|34=358|52=20110224-01:31:03|10=171||0|
M|359|0|0|I|20110224-01:31:33.491|72|8=FIX.4.1|9=0048|35=0|49=BLP|56=ABN2|34=359|52=20110224-01:31:33|10=175||0|
M|360|0|0|I|20110224-01:32:03.491|72|8=FIX.4.1|9=0048|35=0|49=BLP|56=ABN2|34=360|52=20110224-01:32:03|10=165||0|
M|361|0|0|I|20110224-01:32:33.493|72|8=FIX.4.1|9=0048|35=0|49=BLP|56=ABN2|34=361|52=20110224-01:32:33|10=169||0|
M|362|0|0|I|20110224-01:33:03.493|72|8=FIX.4.1|9=0048|35=0|49=BLP|56=ABN2|34=362|52=20110224-01:33:03|10=168||0|
M|363|0|0|I|20110224-01:33:33.495|72|8=FIX.4.1|9=0048|35=0|49=BLP|56=ABN2|34=363|52=20110224-01:33:33|10=172||0|
M|364|0|0|I|20110224-01:34:03.495|72|8=FIX.4.1|9=0048|35=0|49=BLP|56=ABN2|34=364|52=20110224-01:34:03|10=171||0|
M|365|0|0|I|20110224-01:34:33.495|72|8=FIX.4.1|9=0048|35=0|49=BLP|56=ABN2|34=365|52=20110224-01:34:33|10=175||0|
M|366|0|0|I|20110224-01:35:03.495|72|8=FIX.4.1|9=0048|35=0|49=BLP|56=ABN2|34=366|52=20110224-01:35:03|10=174||0|
M|367|0|0|I|20110224-01:35:33.495|72|8=FIX.4.1|9=0048|35=0|49=BLP|56=ABN2|34=367|52=20110224-01:35:33|10=178||0|
M|368|0|0|I|20110224-01:36:03.495|72|8=FIX.4.1|9=0048|35=0|49=BLP|56=ABN2|34=368|52=20110224-01:36:03|10=177||0|
M|369|0|0|I|20110224-01:36:33.497|72|8=FIX.4.1|9=0048|35=0|49=BLP|56=ABN2|34=369|52=20110224-01:36:33|10=181||0|
M|370|0|0|I|20110224-01:37:03.497|72|8=FIX.4.1|9=0048|35=0|49=BLP|56=ABN2|34=370|52=20110224-01:37:03|10=171||0|
M|371|0|0|I|20110224-01:37:33.497|72|8=FIX.4.1|9=0048|35=0|49=BLP|56=ABN2|34=371|52=20110224-01:37:33|10=175||0|
M|372|0|0|I|20110224-01:38:03.499|72|8=FIX.4.1|9=0048|35=0|49=BLP|56=ABN2|34=372|52=20110224-01:38:03|10=174||0|
M|373|0|0|I|20110224-01:38:33.499|72|8=FIX.4.1|9=0048|35=0|49=BLP|56=ABN2|34=373|52=20110224-01:38:33|10=178||0|
M|374|0|0|I|20110224-01:39:03.499|72|8=FIX.4.1|9=0048|35=0|49=BLP|56=ABN2|34=374|52=20110224-01:39:03|10=177||0|
M|375|0|0|I|20110224-01:39:33.499|72|8=FIX.4.1|9=0048|35=0|49=BLP|56=ABN2|34=375|52=20110224-01:39:33|10=181||0|
M|376|0|0|I|20110224-01:40:03.501|72|8=FIX.4.1|9=0048|35=0|49=BLP|56=ABN2|34=376|52=20110224-01:40:03|10=171||0|
M|377|0|0|I|20110224-01:40:33.501|72|8=FIX.4.1|9=0048|35=0|49=BLP|56=ABN2|34=377|52=20110224-01:40:33|10=175||0|
M|378|0|0|I|20110224-01:41:03.503|72|8=FIX.4.1|9=0048|35=0|49=BLP|56=ABN2|34=378|52=20110224-01:41:03|10=174||0|
M|379|0|0|I|20110224-01:41:33.503|72|8=FIX.4.1|9=0048|35=0|49=BLP|56=ABN2|34=379|52=20110224-01:41:33|10=178||0|
M|380|0|0|I|20110224-01:42:03.503|72|8=FIX.4.1|9=0048|35=0|49=BLP|56=ABN2|34=380|52=20110224-01:42:03|10=168||0|
M|381|0|0|I|20110224-01:42:33.503|72|8=FIX.4.1|9=0048|35=0|49=BLP|56=ABN2|34=381|52=20110224-01:42:33|10=172||0|
M|382|0|0|I|20110224-01:43:03.503|72|8=FIX.4.1|9=0048|35=0|49=BLP|56=ABN2|34=382|52=20110224-01:43:03|10=171||0|
M|383|0|0|I|20110224-01:43:33.503|72|8=FIX.4.1|9=0048|35=0|49=BLP|56=ABN2|34=383|52=20110224-01:43:33|10=175||0|
M|384|0|0|I|20110224-01:44:03.505|72|8=FIX.4.1|9=0048|35=0|49=BLP|56=ABN2|34=384|52=20110224-01:44:03|10=174||0|
M|385|0|0|I|20110224-01:44:33.505|72|8=FIX.4.1|9=0048|35=0|49=BLP|56=ABN2|34=385|52=20110224-01:44:33|10=178||0|
M|386|0|0|I|20110224-01:45:03.507|72|8=FIX.4.1|9=0048|35=0|49=BLP|56=ABN2|34=386|52=20110224-01:45:03|10=177||0|
M|387|0|0|I|20110224-01:45:33.507|72|8=FIX.4.1|9=0048|35=0|49=BLP|56=ABN2|34=387|52=20110224-01:45:33|10=181||0|
M|388|0|0|I|20110224-01:46:03.507|72|8=FIX.4.1|9=0048|35=0|49=BLP|56=ABN2|34=388|52=20110224-01:46:03|10=180||0|
M|389|0|0|I|20110224-01:46:33.507|72|8=FIX.4.1|9=0048|35=0|49=BLP|56=ABN2|34=389|52=20110224-01:46:33|10=184||0|
M|390|0|0|I|20110224-01:47:03.507|72|8=FIX.4.1|9=0048|35=0|49=BLP|56=ABN2|34=390|52=20110224-01:47:03|10=174||0|
M|391|0|0|I|20110224-01:47:33.509|72|8=FIX.4.1|9=0048|35=0|49=BLP|56=ABN2|34=391|52=20110224-01:47:33|10=178||0|
M|392|0|0|I|20110224-01:48:03.509|72|8=FIX.4.1|9=0048|35=0|49=BLP|56=ABN2|34=392|52=20110224-01:48:03|10=177||0|
M|393|0|0|I|20110224-01:48:33.509|72|8=FIX.4.1|9=0048|35=0|49=BLP|56=ABN2|34=393|52=20110224-01:48:33|10=181||0|
M|394|0|0|I|20110224-01:49:03.511|72|8=FIX.4.1|9=0048|35=0|49=BLP|56=ABN2|34=394|52=20110224-01:49:03|10=180||0|
M|395|0|0|I|20110224-01:49:33.511|72|8=FIX.4.1|9=0048|35=0|49=BLP|56=ABN2|34=395|52=20110224-01:49:33|10=184||0|
M|396|0|0|I|20110224-01:50:03.511|72|8=FIX.4.1|9=0048|35=0|49=BLP|56=ABN2|34=396|52=20110224-01:50:03|10=174||0|
M|397|0|0|I|20110224-01:50:33.513|72|8=FIX.4.1|9=0048|35=0|49=BLP|56=ABN2|34=397|52=20110224-01:50:33|10=178||0|
M|398|0|0|I|20110224-01:51:03.513|72|8=FIX.4.1|9=0048|35=0|49=BLP|56=ABN2|34=398|52=20110224-01:51:03|10=177||0|
M|399|0|0|I|20110224-01:51:33.513|72|8=FIX.4.1|9=0048|35=0|49=BLP|56=ABN2|34=399|52=20110224-01:51:33|10=181||0|
M|400|0|0|I|20110224-01:52:03.515|72|8=FIX.4.1|9=0048|35=0|49=BLP|56=ABN2|34=400|52=20110224-01:52:03|10=162||0|
M|401|0|0|I|20110224-01:52:33.515|72|8=FIX.4.1|9=0048|35=0|49=BLP|56=ABN2|34=401|52=20110224-01:52:33|10=166||0|
M|402|0|0|I|20110224-01:53:03.515|72|8=FIX.4.1|9=0048|35=0|49=BLP|56=ABN2|34=402|52=20110224-01:53:03|10=165||0|
M|403|0|0|I|20110224-01:53:33.515|72|8=FIX.4.1|9=0048|35=0|49=BLP|56=ABN2|34=403|52=20110224-01:53:33|10=169||0|
M|404|0|0|I|20110224-01:54:03.515|72|8=FIX.4.1|9=0048|35=0|49=BLP|56=ABN2|34=404|52=20110224-01:54:03|10=168||0|
M|405|0|0|I|20110224-01:54:33.515|72|8=FIX.4.1|9=0048|35=0|49=BLP|56=ABN2|34=405|52=20110224-01:54:33|10=172||0|
M|406|0|0|I|20110224-01:55:03.517|72|8=FIX.4.1|9=0048|35=0|49=BLP|56=ABN2|34=406|52=20110224-01:55:03|10=171||0|
M|407|0|0|I|20110224-01:55:33.517|72|8=FIX.4.1|9=0048|35=0|49=BLP|56=ABN2|34=407|52=20110224-01:55:33|10=175||0|
M|408|0|0|I|20110224-01:56:03.517|72|8=FIX.4.1|9=0048|35=0|49=BLP|56=ABN2|34=408|52=20110224-01:56:03|10=174||0|
M|409|0|0|I|20110224-01:56:33.519|72|8=FIX.4.1|9=0048|35=0|49=BLP|56=ABN2|34=409|52=20110224-01:56:33|10=178||0|
M|410|0|0|I|20110224-01:57:03.519|72|8=FIX.4.1|9=0048|35=0|49=BLP|56=ABN2|34=410|52=20110224-01:57:03|10=168||0|
M|411|0|0|I|20110224-01:57:33.519|72|8=FIX.4.1|9=0048|35=0|49=BLP|56=ABN2|34=411|52=20110224-01:57:33|10=172||0|
M|412|0|0|I|20110224-01:58:03.519|72|8=FIX.4.1|9=0048|35=0|49=BLP|56=ABN2|34=412|52=20110224-01:58:03|10=171||0|
M|413|0|0|I|20110224-01:58:33.519|72|8=FIX.4.1|9=0048|35=0|49=BLP|56=ABN2|34=413|52=20110224-01:58:33|10=175||0|
M|414|0|0|I|20110224-01:59:03.521|72|8=FIX.4.1|9=0048|35=0|49=BLP|56=ABN2|34=414|52=20110224-01:59:03|10=174||0|
M|415|0|0|I|20110224-01:59:33.521|72|8=FIX.4.1|9=0048|35=0|49=BLP|56=ABN2|34=415|52=20110224-01:59:33|10=178||0|
M|416|0|0|I|20110224-02:00:03.523|72|8=FIX.4.1|9=0048|35=0|49=BLP|56=ABN2|34=416|52=20110224-02:00:03|10=163||0|
M|417|0|0|I|20110224-02:00:33.521|72|8=FIX.4.1|9=0048|35=0|49=BLP|56=ABN2|34=417|52=20110224-02:00:33|10=167||0|
M|418|0|0|I|20110224-02:01:03.523|72|8=FIX.4.1|9=0048|35=0|49=BLP|56=ABN2|34=418|52=20110224-02:01:03|10=166||0|
M|419|0|0|I|20110224-02:01:33.523|72|8=FIX.4.1|9=0048|35=0|49=BLP|56=ABN2|34=419|52=20110224-02:01:33|10=170||0|
M|420|0|0|I|20110224-02:02:03.523|72|8=FIX.4.1|9=0048|35=0|49=BLP|56=ABN2|34=420|52=20110224-02:02:03|10=160||0|
M|421|0|0|I|20110224-02:02:33.525|72|8=FIX.4.1|9=0048|35=0|49=BLP|56=ABN2|34=421|52=20110224-02:02:33|10=164||0|
M|422|0|0|I|20110224-02:03:03.525|72|8=FIX.4.1|9=0048|35=0|49=BLP|56=ABN2|34=422|52=20110224-02:03:03|10=163||0|
M|423|0|0|I|20110224-02:03:33.525|72|8=FIX.4.1|9=0048|35=0|49=BLP|56=ABN2|34=423|52=20110224-02:03:33|10=167||0|
M|424|0|0|I|20110224-02:04:03.525|72|8=FIX.4.1|9=0048|35=0|49=BLP|56=ABN2|34=424|52=20110224-02:04:03|10=166||0|
M|425|0|0|I|20110224-02:04:33.527|72|8=FIX.4.1|9=0048|35=0|49=BLP|56=ABN2|34=425|52=20110224-02:04:33|10=170||0|
M|426|0|0|I|20110224-02:05:03.527|72|8=FIX.4.1|9=0048|35=0|49=BLP|56=ABN2|34=426|52=20110224-02:05:03|10=169||0|
M|427|0|0|I|20110224-02:05:33.527|72|8=FIX.4.1|9=0048|35=0|49=BLP|56=ABN2|34=427|52=20110224-02:05:33|10=173||0|
M|428|0|0|I|20110224-02:06:03.529|72|8=FIX.4.1|9=0048|35=0|49=BLP|56=ABN2|34=428|52=20110224-02:06:03|10=172||0|
M|429|0|0|I|20110224-02:06:33.529|72|8=FIX.4.1|9=0048|35=0|49=BLP|56=ABN2|34=429|52=20110224-02:06:33|10=176||0|
M|430|0|0|I|20110224-02:07:03.529|72|8=FIX.4.1|9=0048|35=0|49=BLP|56=ABN2|34=430|52=20110224-02:07:03|10=166||0|
M|431|0|0|I|20110224-02:07:33.531|72|8=FIX.4.1|9=0048|35=0|49=BLP|56=ABN2|34=431|52=20110224-02:07:33|10=170||0|
M|432|0|0|I|20110224-02:08:03.531|72|8=FIX.4.1|9=0048|35=0|49=BLP|56=ABN2|34=432|52=20110224-02:08:03|10=169||0|
M|433|0|0|I|20110224-02:08:33.533|72|8=FIX.4.1|9=0048|35=0|49=BLP|56=ABN2|34=433|52=20110224-02:08:33|10=173||0|
M|434|0|0|I|20110224-02:09:03.533|72|8=FIX.4.1|9=0048|35=0|49=BLP|56=ABN2|34=434|52=20110224-02:09:03|10=172||0|
M|435|0|0|I|20110224-02:09:33.533|72|8=FIX.4.1|9=0048|35=0|49=BLP|56=ABN2|34=435|52=20110224-02:09:33|10=176||0|
M|436|0|0|I|20110224-02:10:03.533|72|8=FIX.4.1|9=0048|35=0|49=BLP|56=ABN2|34=436|52=20110224-02:10:03|10=166||0|
M|437|0|0|I|20110224-02:10:33.535|72|8=FIX.4.1|9=0048|35=0|49=BLP|56=ABN2|34=437|52=20110224-02:10:33|10=170||0|
M|438|0|D|I|20110224-02:10:43.607|228|8=FIX.4.1|9=0204|35=D|49=BLP|56=ABN2|34=438|50=4058176|57=ABN2|52=20110224-02:10:43|38=188125|40=1|11=20110224-00002|15=AUD|75=20110224|48=6087289|109=LLOGM|21=3|22=2|54=2|55=TLS|207=AU|58=pls confirm by blg MSG, CD|59=0|10=057||0|
M|439|0|0|I|20110224-02:11:13.609|72|8=FIX.4.1|9=0048|35=0|49=BLP|56=ABN2|34=439|52=20110224-02:11:13|10=171||0|
M|440|0|1|I|20110224-02:11:43.609|100|8=FIX.4.1|9=0076|35=1|49=BLP|56=ABN2|34=440|52=20110224-02:11:43|112=C.0148.01B8.01B7.021143|10=034||0|
M|441|0|0|I|20110224-02:12:13.609|72|8=FIX.4.1|9=0048|35=0|49=BLP|56=ABN2|34=441|52=20110224-02:12:13|10=165||0|
M|442|0|0|I|20110224-02:12:43.611|72|8=FIX.4.1|9=0048|35=0|49=BLP|56=ABN2|34=442|52=20110224-02:12:43|10=169||0|
M|443|0|0|I|20110224-02:13:13.611|72|8=FIX.4.1|9=0048|35=0|49=BLP|56=ABN2|34=443|52=20110224-02:13:13|10=168||0|
M|444|0|0|I|20110224-02:13:43.611|72|8=FIX.4.1|9=0048|35=0|49=BLP|56=ABN2|34=444|52=20110224-02:13:43|10=172||0|
M|445|0|0|I|20110224-02:14:13.611|72|8=FIX.4.1|9=0048|35=0|49=BLP|56=ABN2|34=445|52=20110224-02:14:13|10=171||0|
M|446|0|0|I|20110224-02:14:43.613|72|8=FIX.4.1|9=0048|35=0|49=BLP|56=ABN2|34=446|52=20110224-02:14:43|10=175||0|
M|447|0|0|I|20110224-02:15:13.613|72|8=FIX.4.1|9=0048|35=0|49=BLP|56=ABN2|34=447|52=20110224-02:15:13|10=174||0|
M|448|0|0|I|20110224-02:15:43.613|72|8=FIX.4.1|9=0048|35=0|49=BLP|56=ABN2|34=448|52=20110224-02:15:43|10=178||0|
M|449|0|0|I|20110224-02:16:13.615|72|8=FIX.4.1|9=0048|35=0|49=BLP|56=ABN2|34=449|52=20110224-02:16:13|10=177||0|
M|450|0|0|I|20110224-02:16:43.615|72|8=FIX.4.1|9=0048|35=0|49=BLP|56=ABN2|34=450|52=20110224-02:16:43|10=172||0|
M|451|0|0|I|20110224-02:17:13.617|72|8=FIX.4.1|9=0048|35=0|49=BLP|56=ABN2|34=451|52=20110224-02:17:13|10=171||0|
M|452|0|0|I|20110224-02:17:43.617|72|8=FIX.4.1|9=0048|35=0|49=BLP|56=ABN2|34=452|52=20110224-02:17:43|10=175||0|
M|453|0|0|I|20110224-02:18:13.617|72|8=FIX.4.1|9=0048|35=0|49=BLP|56=ABN2|34=453|52=20110224-02:18:13|10=174||0|
M|454|0|0|I|20110224-02:18:43.619|72|8=FIX.4.1|9=0048|35=0|49=BLP|56=ABN2|34=454|52=20110224-02:18:43|10=178||0|
M|455|0|0|I|20110224-02:19:13.619|72|8=FIX.4.1|9=0048|35=0|49=BLP|56=ABN2|34=455|52=20110224-02:19:13|10=177||0|
M|456|0|0|I|20110224-02:19:43.619|72|8=FIX.4.1|9=0048|35=0|49=BLP|56=ABN2|34=456|52=20110224-02:19:43|10=181||0|
M|457|0|0|I|20110224-02:20:13.621|72|8=FIX.4.1|9=0048|35=0|49=BLP|56=ABN2|34=457|52=20110224-02:20:13|10=171||0|
M|458|0|0|I|20110224-02:20:43.621|72|8=FIX.4.1|9=0048|35=0|49=BLP|56=ABN2|34=458|52=20110224-02:20:43|10=175||0|
M|459|0|0|I|20110224-02:21:13.623|72|8=FIX.4.1|9=0048|35=0|49=BLP|56=ABN2|34=459|52=20110224-02:21:13|10=174||0|
M|460|0|0|I|20110224-02:21:43.621|72|8=FIX.4.1|9=0048|35=0|49=BLP|56=ABN2|34=460|52=20110224-02:21:43|10=169||0|
M|461|0|0|I|20110224-02:22:13.623|72|8=FIX.4.1|9=0048|35=0|49=BLP|56=ABN2|34=461|52=20110224-02:22:13|10=168||0|
M|462|0|0|I|20110224-02:22:43.623|72|8=FIX.4.1|9=0048|35=0|49=BLP|56=ABN2|34=462|52=20110224-02:22:43|10=172||0|
M|463|0|0|I|20110224-02:23:13.625|72|8=FIX.4.1|9=0048|35=0|49=BLP|56=ABN2|34=463|52=20110224-02:23:13|10=171||0|
M|464|0|0|I|20110224-02:23:43.625|72|8=FIX.4.1|9=0048|35=0|49=BLP|56=ABN2|34=464|52=20110224-02:23:43|10=175||0|
M|465|0|0|I|20110224-02:24:13.625|72|8=FIX.4.1|9=0048|35=0|49=BLP|56=ABN2|34=465|52=20110224-02:24:13|10=174||0|
M|466|0|0|I|20110224-02:24:43.625|72|8=FIX.4.1|9=0048|35=0|49=BLP|56=ABN2|34=466|52=20110224-02:24:43|10=178||0|
M|467|0|0|I|20110224-02:25:13.625|72|8=FIX.4.1|9=0048|35=0|49=BLP|56=ABN2|34=467|52=20110224-02:25:13|10=177||0|
M|468|0|0|I|20110224-02:25:43.627|72|8=FIX.4.1|9=0048|35=0|49=BLP|56=ABN2|34=468|52=20110224-02:25:43|10=181||0|
M|469|0|0|I|20110224-02:26:13.627|72|8=FIX.4.1|9=0048|35=0|49=BLP|56=ABN2|34=469|52=20110224-02:26:13|10=180||0|
M|470|0|0|I|20110224-02:26:43.629|72|8=FIX.4.1|9=0048|35=0|49=BLP|56=ABN2|34=470|52=20110224-02:26:43|10=175||0|
M|471|0|0|I|20110224-02:27:13.629|72|8=FIX.4.1|9=0048|35=0|49=BLP|56=ABN2|34=471|52=20110224-02:27:13|10=174||0|
M|472|0|0|I|20110224-02:27:43.631|72|8=FIX.4.1|9=0048|35=0|49=BLP|56=ABN2|34=472|52=20110224-02:27:43|10=178||0|
M|473|0|0|I|20110224-02:28:13.631|72|8=FIX.4.1|9=0048|35=0|49=BLP|56=ABN2|34=473|52=20110224-02:28:13|10=177||0|
M|474|0|0|I|20110224-02:28:43.631|72|8=FIX.4.1|9=0048|35=0|49=BLP|56=ABN2|34=474|52=20110224-02:28:43|10=181||0|
M|475|0|0|I|20110224-02:29:13.633|72|8=FIX.4.1|9=0048|35=0|49=BLP|56=ABN2|34=475|52=20110224-02:29:13|10=180||0|
M|476|0|0|I|20110224-02:29:43.633|72|8=FIX.4.1|9=0048|35=0|49=BLP|56=ABN2|34=476|52=20110224-02:29:43|10=184||0|
M|477|0|0|I|20110224-02:30:13.633|72|8=FIX.4.1|9=0048|35=0|49=BLP|56=ABN2|34=477|52=20110224-02:30:13|10=174||0|
M|478|0|0|I|20110224-02:30:43.633|72|8=FIX.4.1|9=0048|35=0|49=BLP|56=ABN2|34=478|52=20110224-02:30:43|10=178||0|
M|479|0|0|I|20110224-02:31:13.633|72|8=FIX.4.1|9=0048|35=0|49=BLP|56=ABN2|34=479|52=20110224-02:31:13|10=177||0|
M|480|0|0|I|20110224-02:31:43.633|72|8=FIX.4.1|9=0048|35=0|49=BLP|56=ABN2|34=480|52=20110224-02:31:43|10=172||0|
M|481|0|0|I|20110224-02:32:13.633|72|8=FIX.4.1|9=0048|35=0|49=BLP|56=ABN2|34=481|52=20110224-02:32:13|10=171||0|
M|482|0|0|I|20110224-02:32:43.635|72|8=FIX.4.1|9=0048|35=0|49=BLP|56=ABN2|34=482|52=20110224-02:32:43|10=175||0|
M|483|0|0|I|20110224-02:33:13.637|72|8=FIX.4.1|9=0048|35=0|49=BLP|56=ABN2|34=483|52=20110224-02:33:13|10=174||0|
M|484|0|0|I|20110224-02:33:43.637|72|8=FIX.4.1|9=0048|35=0|49=BLP|56=ABN2|34=484|52=20110224-02:33:43|10=178||0|
M|485|0|0|I|20110224-02:34:13.637|72|8=FIX.4.1|9=0048|35=0|49=BLP|56=ABN2|34=485|52=20110224-02:34:13|10=177||0|
M|486|0|0|I|20110224-02:34:43.637|72|8=FIX.4.1|9=0048|35=0|49=BLP|56=ABN2|34=486|52=20110224-02:34:43|10=181||0|
M|487|0|0|I|20110224-02:35:13.641|72|8=FIX.4.1|9=0048|35=0|49=BLP|56=ABN2|34=487|52=20110224-02:35:13|10=180||0|
M|488|0|0|I|20110224-02:35:43.639|72|8=FIX.4.1|9=0048|35=0|49=BLP|56=ABN2|34=488|52=20110224-02:35:43|10=184||0|
M|489|0|0|I|20110224-02:36:13.641|72|8=FIX.4.1|9=0048|35=0|49=BLP|56=ABN2|34=489|52=20110224-02:36:13|10=183||0|
M|490|0|0|I|20110224-02:36:43.641|72|8=FIX.4.1|9=0048|35=0|49=BLP|56=ABN2|34=490|52=20110224-02:36:43|10=178||0|
M|491|0|0|I|20110224-02:37:13.643|72|8=FIX.4.1|9=0048|35=0|49=BLP|56=ABN2|34=491|52=20110224-02:37:13|10=177||0|
M|492|0|0|I|20110224-02:37:43.643|72|8=FIX.4.1|9=0048|35=0|49=BLP|56=ABN2|34=492|52=20110224-02:37:43|10=181||0|
M|493|0|0|I|20110224-02:38:13.643|72|8=FIX.4.1|9=0048|35=0|49=BLP|56=ABN2|34=493|52=20110224-02:38:13|10=180||0|
M|494|0|0|I|20110224-02:38:43.645|72|8=FIX.4.1|9=0048|35=0|49=BLP|56=ABN2|34=494|52=20110224-02:38:43|10=184||0|
M|495|0|0|I|20110224-02:39:13.645|72|8=FIX.4.1|9=0048|35=0|49=BLP|56=ABN2|34=495|52=20110224-02:39:13|10=183||0|
M|496|0|0|I|20110224-02:39:43.647|72|8=FIX.4.1|9=0048|35=0|49=BLP|56=ABN2|34=496|52=20110224-02:39:43|10=187||0|
M|497|0|0|I|20110224-02:40:13.647|72|8=FIX.4.1|9=0048|35=0|49=BLP|56=ABN2|34=497|52=20110224-02:40:13|10=177||0|
M|498|0|0|I|20110224-02:40:43.649|72|8=FIX.4.1|9=0048|35=0|49=BLP|56=ABN2|34=498|52=20110224-02:40:43|10=181||0|
M|499|0|0|I|20110224-02:41:13.649|72|8=FIX.4.1|9=0048|35=0|49=BLP|56=ABN2|34=499|52=20110224-02:41:13|10=180||0|
M|500|0|0|I|20110224-02:41:43.649|72|8=FIX.4.1|9=0048|35=0|49=BLP|56=ABN2|34=500|52=20110224-02:41:43|10=166||0|
M|501|0|0|I|20110224-02:42:13.651|72|8=FIX.4.1|9=0048|35=0|49=BLP|56=ABN2|34=501|52=20110224-02:42:13|10=165||0|
M|502|0|0|I|20110224-02:42:43.651|72|8=FIX.4.1|9=0048|35=0|49=BLP|56=ABN2|34=502|52=20110224-02:42:43|10=169||0|
M|503|0|0|I|20110224-02:43:13.651|72|8=FIX.4.1|9=0048|35=0|49=BLP|56=ABN2|34=503|52=20110224-02:43:13|10=168||0|
M|504|0|0|I|20110224-02:43:43.653|72|8=FIX.4.1|9=0048|35=0|49=BLP|56=ABN2|34=504|52=20110224-02:43:43|10=172||0|
M|505|0|0|I|20110224-02:44:13.653|72|8=FIX.4.1|9=0048|35=0|49=BLP|56=ABN2|34=505|52=20110224-02:44:13|10=171||0|
M|506|0|0|I|20110224-02:44:43.655|72|8=FIX.4.1|9=0048|35=0|49=BLP|56=ABN2|34=506|52=20110224-02:44:43|10=175||0|
M|507|0|0|I|20110224-02:45:13.655|72|8=FIX.4.1|9=0048|35=0|49=BLP|56=ABN2|34=507|52=20110224-02:45:13|10=174||0|
M|508|0|0|I|20110224-02:45:43.655|72|8=FIX.4.1|9=0048|35=0|49=BLP|56=ABN2|34=508|52=20110224-02:45:43|10=178||0|
M|509|0|0|I|20110224-02:46:13.655|72|8=FIX.4.1|9=0048|35=0|49=BLP|56=ABN2|34=509|52=20110224-02:46:13|10=177||0|
M|510|0|0|I|20110224-02:46:43.657|72|8=FIX.4.1|9=0048|35=0|49=BLP|56=ABN2|34=510|52=20110224-02:46:43|10=172||0|
M|511|0|0|I|20110224-02:47:13.661|72|8=FIX.4.1|9=0048|35=0|49=BLP|56=ABN2|34=511|52=20110224-02:47:13|10=171||0|
M|512|0|0|I|20110224-02:47:43.657|72|8=FIX.4.1|9=0048|35=0|49=BLP|56=ABN2|34=512|52=20110224-02:47:43|10=175||0|
M|513|0|0|I|20110224-02:48:13.659|72|8=FIX.4.1|9=0048|35=0|49=BLP|56=ABN2|34=513|52=20110224-02:48:13|10=174||0|
M|514|0|0|I|20110224-02:48:43.661|72|8=FIX.4.1|9=0048|35=0|49=BLP|56=ABN2|34=514|52=20110224-02:48:43|10=178||0|
M|515|0|0|I|20110224-02:49:13.661|72|8=FIX.4.1|9=0048|35=0|49=BLP|56=ABN2|34=515|52=20110224-02:49:13|10=177||0|
M|516|0|0|I|20110224-02:49:43.661|72|8=FIX.4.1|9=0048|35=0|49=BLP|56=ABN2|34=516|52=20110224-02:49:43|10=181||0|
M|517|0|0|I|20110224-02:50:13.661|72|8=FIX.4.1|9=0048|35=0|49=BLP|56=ABN2|34=517|52=20110224-02:50:13|10=171||0|
M|518|0|0|I|20110224-02:50:43.661|72|8=FIX.4.1|9=0048|35=0|49=BLP|56=ABN2|34=518|52=20110224-02:50:43|10=175||0|
M|519|0|0|I|20110224-02:51:13.663|72|8=FIX.4.1|9=0048|35=0|49=BLP|56=ABN2|34=519|52=20110224-02:51:13|10=174||0|
M|520|0|0|I|20110224-02:51:43.663|72|8=FIX.4.1|9=0048|35=0|49=BLP|56=ABN2|34=520|52=20110224-02:51:43|10=169||0|
M|521|0|0|I|20110224-02:52:13.663|72|8=FIX.4.1|9=0048|35=0|49=BLP|56=ABN2|34=521|52=20110224-02:52:13|10=168||0|
M|522|0|0|I|20110224-02:52:43.663|72|8=FIX.4.1|9=0048|35=0|49=BLP|56=ABN2|34=522|52=20110224-02:52:43|10=172||0|
M|523|0|0|I|20110224-02:53:13.663|72|8=FIX.4.1|9=0048|35=0|49=BLP|56=ABN2|34=523|52=20110224-02:53:13|10=171||0|
M|524|0|0|I|20110224-02:53:43.665|72|8=FIX.4.1|9=0048|35=0|49=BLP|56=ABN2|34=524|52=20110224-02:53:43|10=175||0|
M|525|0|0|I|20110224-02:54:13.665|72|8=FIX.4.1|9=0048|35=0|49=BLP|56=ABN2|34=525|52=20110224-02:54:13|10=174||0|
M|526|0|0|I|20110224-02:54:43.665|72|8=FIX.4.1|9=0048|35=0|49=BLP|56=ABN2|34=526|52=20110224-02:54:43|10=178||0|
M|527|0|0|I|20110224-02:55:13.665|72|8=FIX.4.1|9=0048|35=0|49=BLP|56=ABN2|34=527|52=20110224-02:55:13|10=177||0|
M|528|0|0|I|20110224-02:55:43.667|72|8=FIX.4.1|9=0048|35=0|49=BLP|56=ABN2|34=528|52=20110224-02:55:43|10=181||0|
M|529|0|0|I|20110224-02:56:13.665|72|8=FIX.4.1|9=0048|35=0|49=BLP|56=ABN2|34=529|52=20110224-02:56:13|10=180||0|
M|530|0|0|I|20110224-02:56:43.667|72|8=FIX.4.1|9=0048|35=0|49=BLP|56=ABN2|34=530|52=20110224-02:56:43|10=175||0|
M|531|0|0|I|20110224-02:57:13.667|72|8=FIX.4.1|9=0048|35=0|49=BLP|56=ABN2|34=531|52=20110224-02:57:13|10=174||0|
M|532|0|0|I|20110224-02:57:43.667|72|8=FIX.4.1|9=0048|35=0|49=BLP|56=ABN2|34=532|52=20110224-02:57:43|10=178||0|
M|533|0|0|I|20110224-02:58:13.669|72|8=FIX.4.1|9=0048|35=0|49=BLP|56=ABN2|34=533|52=20110224-02:58:13|10=177||0|
M|534|0|0|I|20110224-02:58:43.669|72|8=FIX.4.1|9=0048|35=0|49=BLP|56=ABN2|34=534|52=20110224-02:58:43|10=181||0|
M|535|0|0|I|20110224-02:59:13.680|72|8=FIX.4.1|9=0048|35=0|49=BLP|56=ABN2|34=535|52=20110224-02:59:13|10=180||0|
M|536|0|0|I|20110224-02:59:43.671|72|8=FIX.4.1|9=0048|35=0|49=BLP|56=ABN2|34=536|52=20110224-02:59:43|10=184||0|
M|537|0|0|I|20110224-03:00:13.673|72|8=FIX.4.1|9=0048|35=0|49=BLP|56=ABN2|34=537|52=20110224-03:00:13|10=169||0|
M|538|0|0|I|20110224-03:00:43.673|72|8=FIX.4.1|9=0048|35=0|49=BLP|56=ABN2|34=538|52=20110224-03:00:43|10=173||0|
M|539|0|0|I|20110224-03:01:13.675|72|8=FIX.4.1|9=0048|35=0|49=BLP|56=ABN2|34=539|52=20110224-03:01:13|10=172||0|
M|540|0|0|I|20110224-03:01:43.675|72|8=FIX.4.1|9=0048|35=0|49=BLP|56=ABN2|34=540|52=20110224-03:01:43|10=167||0|
M|541|0|0|I|20110224-03:02:13.675|72|8=FIX.4.1|9=0048|35=0|49=BLP|56=ABN2|34=541|52=20110224-03:02:13|10=166||0|
M|542|0|0|I|20110224-03:02:43.677|72|8=FIX.4.1|9=0048|35=0|49=BLP|56=ABN2|34=542|52=20110224-03:02:43|10=170||0|
M|543|0|0|I|20110224-03:03:13.677|72|8=FIX.4.1|9=0048|35=0|49=BLP|56=ABN2|34=543|52=20110224-03:03:13|10=169||0|
M|544|0|0|I|20110224-03:03:43.677|72|8=FIX.4.1|9=0048|35=0|49=BLP|56=ABN2|34=544|52=20110224-03:03:43|10=173||0|
M|545|0|0|I|20110224-03:04:13.679|72|8=FIX.4.1|9=0048|35=0|49=BLP|56=ABN2|34=545|52=20110224-03:04:13|10=172||0|
M|546|0|0|I|20110224-03:04:43.677|72|8=FIX.4.1|9=0048|35=0|49=BLP|56=ABN2|34=546|52=20110224-03:04:43|10=176||0|
M|547|0|0|I|20110224-03:05:13.679|72|8=FIX.4.1|9=0048|35=0|49=BLP|56=ABN2|34=547|52=20110224-03:05:13|10=175||0|
M|548|0|0|I|20110224-03:05:43.679|72|8=FIX.4.1|9=0048|35=0|49=BLP|56=ABN2|34=548|52=20110224-03:05:43|10=179||0|
M|549|0|0|I|20110224-03:06:13.679|72|8=FIX.4.1|9=0048|35=0|49=BLP|56=ABN2|34=549|52=20110224-03:06:13|10=178||0|
M|550|0|0|I|20110224-03:06:43.681|72|8=FIX.4.1|9=0048|35=0|49=BLP|56=ABN2|34=550|52=20110224-03:06:43|10=173||0|
M|551|0|0|I|20110224-03:07:13.681|72|8=FIX.4.1|9=0048|35=0|49=BLP|56=ABN2|34=551|52=20110224-03:07:13|10=172||0|
M|552|0|0|I|20110224-03:07:43.681|72|8=FIX.4.1|9=0048|35=0|49=BLP|56=ABN2|34=552|52=20110224-03:07:43|10=176||0|
M|553|0|0|I|20110224-03:08:13.681|72|8=FIX.4.1|9=0048|35=0|49=BLP|56=ABN2|34=553|52=20110224-03:08:13|10=175||0|
M|554|0|0|I|20110224-03:08:43.681|72|8=FIX.4.1|9=0048|35=0|49=BLP|56=ABN2|34=554|52=20110224-03:08:43|10=179||0|
M|555|0|0|I|20110224-03:09:13.683|72|8=FIX.4.1|9=0048|35=0|49=BLP|56=ABN2|34=555|52=20110224-03:09:13|10=178||0|
M|556|0|0|I|20110224-03:09:43.683|72|8=FIX.4.1|9=0048|35=0|49=BLP|56=ABN2|34=556|52=20110224-03:09:43|10=182||0|
M|557|0|0|I|20110224-03:10:13.683|72|8=FIX.4.1|9=0048|35=0|49=BLP|56=ABN2|34=557|52=20110224-03:10:13|10=172||0|
M|558|0|0|I|20110224-03:10:43.683|72|8=FIX.4.1|9=0048|35=0|49=BLP|56=ABN2|34=558|52=20110224-03:10:43|10=176||0|
M|559|0|0|I|20110224-03:11:13.685|72|8=FIX.4.1|9=0048|35=0|49=BLP|56=ABN2|34=559|52=20110224-03:11:13|10=175||0|
M|560|0|0|I|20110224-03:11:43.685|72|8=FIX.4.1|9=0048|35=0|49=BLP|56=ABN2|34=560|52=20110224-03:11:43|10=170||0|
M|561|0|0|I|20110224-03:12:13.687|72|8=FIX.4.1|9=0048|35=0|49=BLP|56=ABN2|34=561|52=20110224-03:12:13|10=169||0|
M|562|0|0|I|20110224-03:12:43.793|72|8=FIX.4.1|9=0048|35=0|49=BLP|56=ABN2|34=562|52=20110224-03:12:43|10=173||0|
M|563|0|0|I|20110224-03:13:13.795|72|8=FIX.4.1|9=0048|35=0|49=BLP|56=ABN2|34=563|52=20110224-03:13:13|10=172||0|
M|564|0|0|I|20110224-03:13:43.797|72|8=FIX.4.1|9=0048|35=0|49=BLP|56=ABN2|34=564|52=20110224-03:13:43|10=176||0|
M|565|0|0|I|20110224-03:14:13.797|72|8=FIX.4.1|9=0048|35=0|49=BLP|56=ABN2|34=565|52=20110224-03:14:13|10=175||0|
M|566|0|0|I|20110224-03:14:43.797|72|8=FIX.4.1|9=0048|35=0|49=BLP|56=ABN2|34=566|52=20110224-03:14:43|10=179||0|
M|567|0|0|I|20110224-03:15:13.797|72|8=FIX.4.1|9=0048|35=0|49=BLP|56=ABN2|34=567|52=20110224-03:15:13|10=178||0|
M|568|0|0|I|20110224-03:15:43.799|72|8=FIX.4.1|9=0048|35=0|49=BLP|56=ABN2|34=568|52=20110224-03:15:43|10=182||0|
M|569|0|0|I|20110224-03:16:13.799|72|8=FIX.4.1|9=0048|35=0|49=BLP|56=ABN2|34=569|52=20110224-03:16:13|10=181||0|
M|570|0|0|I|20110224-03:16:43.799|72|8=FIX.4.1|9=0048|35=0|49=BLP|56=ABN2|34=570|52=20110224-03:16:43|10=176||0|
M|571|0|0|I|20110224-03:17:13.799|72|8=FIX.4.1|9=0048|35=0|49=BLP|56=ABN2|34=571|52=20110224-03:17:13|10=175||0|
M|572|0|0|I|20110224-03:17:43.801|72|8=FIX.4.1|9=0048|35=0|49=BLP|56=ABN2|34=572|52=20110224-03:17:43|10=179||0|
M|573|0|0|I|20110224-03:18:13.803|72|8=FIX.4.1|9=0048|35=0|49=BLP|56=ABN2|34=573|52=20110224-03:18:13|10=178||0|
M|574|0|0|I|20110224-03:18:43.803|72|8=FIX.4.1|9=0048|35=0|49=BLP|56=ABN2|34=574|52=20110224-03:18:43|10=182||0|
M|575|0|0|I|20110224-03:19:13.803|72|8=FIX.4.1|9=0048|35=0|49=BLP|56=ABN2|34=575|52=20110224-03:19:13|10=181||0|
M|576|0|0|I|20110224-03:19:43.805|72|8=FIX.4.1|9=0048|35=0|49=BLP|56=ABN2|34=576|52=20110224-03:19:43|10=185||0|
M|577|0|0|I|20110224-03:20:13.805|72|8=FIX.4.1|9=0048|35=0|49=BLP|56=ABN2|34=577|52=20110224-03:20:13|10=175||0|
M|578|0|0|I|20110224-03:20:43.805|72|8=FIX.4.1|9=0048|35=0|49=BLP|56=ABN2|34=578|52=20110224-03:20:43|10=179||0|
M|579|0|0|I|20110224-03:21:13.807|72|8=FIX.4.1|9=0048|35=0|49=BLP|56=ABN2|34=579|52=20110224-03:21:13|10=178||0|
M|580|0|0|I|20110224-03:21:43.807|72|8=FIX.4.1|9=0048|35=0|49=BLP|56=ABN2|34=580|52=20110224-03:21:43|10=173||0|
M|581|0|0|I|20110224-03:22:13.807|72|8=FIX.4.1|9=0048|35=0|49=BLP|56=ABN2|34=581|52=20110224-03:22:13|10=172||0|
M|582|0|0|I|20110224-03:22:43.807|72|8=FIX.4.1|9=0048|35=0|49=BLP|56=ABN2|34=582|52=20110224-03:22:43|10=176||0|
M|583|0|0|I|20110224-03:23:13.809|72|8=FIX.4.1|9=0048|35=0|49=BLP|56=ABN2|34=583|52=20110224-03:23:13|10=175||0|
M|584|0|0|I|20110224-03:23:43.809|72|8=FIX.4.1|9=0048|35=0|49=BLP|56=ABN2|34=584|52=20110224-03:23:43|10=179||0|
M|585|0|0|I|20110224-03:24:13.811|72|8=FIX.4.1|9=0048|35=0|49=BLP|56=ABN2|34=585|52=20110224-03:24:13|10=178||0|
M|586|0|0|I|20110224-03:24:43.811|72|8=FIX.4.1|9=0048|35=0|49=BLP|56=ABN2|34=586|52=20110224-03:24:43|10=182||0|
M|587|0|0|I|20110224-03:25:13.811|72|8=FIX.4.1|9=0048|35=0|49=BLP|56=ABN2|34=587|52=20110224-03:25:13|10=181||0|
M|588|0|0|I|20110224-03:25:43.811|72|8=FIX.4.1|9=0048|35=0|49=BLP|56=ABN2|34=588|52=20110224-03:25:43|10=185||0|
M|589|0|D|I|20110224-03:25:55.725|232|8=FIX.4.1|9=0208|35=D|49=BLP|56=ABN2|34=589|50=182508|57=ABN2|52=20110224-03:25:55|38=886100|40=1|11=20110224-00003|15=THB|75=20110224|48=B1359J0|109=LLOGM|21=3|22=2|54=1|55=PTTEP/F|207=TB|58=cd order, pls confirm by bb|59=0|10=066||0|
M|590|0|0|I|20110224-03:26:25.725|72|8=FIX.4.1|9=0048|35=0|49=BLP|56=ABN2|34=590|52=20110224-03:26:25|10=179||0|
M|591|0|1|I|20110224-03:26:55.727|100|8=FIX.4.1|9=0076|35=1|49=BLP|56=ABN2|34=591|52=20110224-03:26:55|112=C.01B9.024F.0250.032655|10=058||0|
M|592|0|0|I|20110224-03:27:25.727|72|8=FIX.4.1|9=0048|35=0|49=BLP|56=ABN2|34=592|52=20110224-03:27:25|10=182||0|
M|593|0|0|I|20110224-03:27:55.727|72|8=FIX.4.1|9=0048|35=0|49=BLP|56=ABN2|34=593|52=20110224-03:27:55|10=186||0|
M|594|0|0|I|20110224-03:28:25.729|72|8=FIX.4.1|9=0048|35=0|49=BLP|56=ABN2|34=594|52=20110224-03:28:25|10=185||0|
M|595|0|0|I|20110224-03:28:55.729|72|8=FIX.4.1|9=0048|35=0|49=BLP|56=ABN2|34=595|52=20110224-03:28:55|10=189||0|
M|596|0|0|I|20110224-03:29:25.729|72|8=FIX.4.1|9=0048|35=0|49=BLP|56=ABN2|34=596|52=20110224-03:29:25|10=188||0|
M|597|0|0|I|20110224-03:29:55.731|72|8=FIX.4.1|9=0048|35=0|49=BLP|56=ABN2|34=597|52=20110224-03:29:55|10=192||0|
M|598|0|0|I|20110224-03:30:25.731|72|8=FIX.4.1|9=0048|35=0|49=BLP|56=ABN2|34=598|52=20110224-03:30:25|10=182||0|
M|599|0|0|I|20110224-03:30:55.731|72|8=FIX.4.1|9=0048|35=0|49=BLP|56=ABN2|34=599|52=20110224-03:30:55|10=186||0|
M|600|0|0|I|20110224-03:31:25.731|72|8=FIX.4.1|9=0048|35=0|49=BLP|56=ABN2|34=600|52=20110224-03:31:25|10=167||0|
M|601|0|0|I|20110224-03:31:55.731|72|8=FIX.4.1|9=0048|35=0|49=BLP|56=ABN2|34=601|52=20110224-03:31:55|10=171||0|
M|602|0|0|I|20110224-03:32:25.733|72|8=FIX.4.1|9=0048|35=0|49=BLP|56=ABN2|34=602|52=20110224-03:32:25|10=170||0|
M|603|0|0|I|20110224-03:32:55.733|72|8=FIX.4.1|9=0048|35=0|49=BLP|56=ABN2|34=603|52=20110224-03:32:55|10=174||0|
M|604|0|0|I|20110224-03:33:25.733|72|8=FIX.4.1|9=0048|35=0|49=BLP|56=ABN2|34=604|52=20110224-03:33:25|10=173||0|
M|605|0|0|I|20110224-03:33:55.735|72|8=FIX.4.1|9=0048|35=0|49=BLP|56=ABN2|34=605|52=20110224-03:33:55|10=177||0|
M|606|0|0|I|20110224-03:34:25.735|72|8=FIX.4.1|9=0048|35=0|49=BLP|56=ABN2|34=606|52=20110224-03:34:25|10=176||0|
M|607|0|0|I|20110224-03:34:55.735|72|8=FIX.4.1|9=0048|35=0|49=BLP|56=ABN2|34=607|52=20110224-03:34:55|10=180||0|
M|608|0|0|I|20110224-03:35:25.737|72|8=FIX.4.1|9=0048|35=0|49=BLP|56=ABN2|34=608|52=20110224-03:35:25|10=179||0|
M|609|0|0|I|20110224-03:35:55.737|72|8=FIX.4.1|9=0048|35=0|49=BLP|56=ABN2|34=609|52=20110224-03:35:55|10=183||0|
M|610|0|0|I|20110224-03:36:25.739|72|8=FIX.4.1|9=0048|35=0|49=BLP|56=ABN2|34=610|52=20110224-03:36:25|10=173||0|
M|611|0|0|I|20110224-03:36:55.739|72|8=FIX.4.1|9=0048|35=0|49=BLP|56=ABN2|34=611|52=20110224-03:36:55|10=177||0|
M|612|0|0|I|20110224-03:37:25.741|72|8=FIX.4.1|9=0048|35=0|49=BLP|56=ABN2|34=612|52=20110224-03:37:25|10=176||0|
M|613|0|0|I|20110224-03:37:55.741|72|8=FIX.4.1|9=0048|35=0|49=BLP|56=ABN2|34=613|52=20110224-03:37:55|10=180||0|
M|614|0|0|I|20110224-03:38:25.741|72|8=FIX.4.1|9=0048|35=0|49=BLP|56=ABN2|34=614|52=20110224-03:38:25|10=179||0|
M|615|0|0|I|20110224-03:38:55.741|72|8=FIX.4.1|9=0048|35=0|49=BLP|56=ABN2|34=615|52=20110224-03:38:55|10=183||0|
M|616|0|0|I|20110224-03:39:25.741|72|8=FIX.4.1|9=0048|35=0|49=BLP|56=ABN2|34=616|52=20110224-03:39:25|10=182||0|
M|617|0|0|I|20110224-03:39:55.741|72|8=FIX.4.1|9=0048|35=0|49=BLP|56=ABN2|34=617|52=20110224-03:39:55|10=186||0|
M|618|0|0|I|20110224-03:40:25.741|72|8=FIX.4.1|9=0048|35=0|49=BLP|56=ABN2|34=618|52=20110224-03:40:25|10=176||0|
M|619|0|0|I|20110224-03:40:55.743|72|8=FIX.4.1|9=0048|35=0|49=BLP|56=ABN2|34=619|52=20110224-03:40:55|10=180||0|
M|620|0|0|I|20110224-03:41:25.743|72|8=FIX.4.1|9=0048|35=0|49=BLP|56=ABN2|34=620|52=20110224-03:41:25|10=170||0|
M|621|0|0|I|20110224-03:41:55.745|72|8=FIX.4.1|9=0048|35=0|49=BLP|56=ABN2|34=621|52=20110224-03:41:55|10=174||0|
M|622|0|0|I|20110224-03:42:25.745|72|8=FIX.4.1|9=0048|35=0|49=BLP|56=ABN2|34=622|52=20110224-03:42:25|10=173||0|
M|623|0|0|I|20110224-03:42:55.745|72|8=FIX.4.1|9=0048|35=0|49=BLP|56=ABN2|34=623|52=20110224-03:42:55|10=177||0|
M|624|0|0|I|20110224-03:43:25.747|72|8=FIX.4.1|9=0048|35=0|49=BLP|56=ABN2|34=624|52=20110224-03:43:25|10=176||0|
M|625|0|0|I|20110224-03:43:55.749|72|8=FIX.4.1|9=0048|35=0|49=BLP|56=ABN2|34=625|52=20110224-03:43:55|10=180||0|
M|626|0|0|I|20110224-03:44:25.749|72|8=FIX.4.1|9=0048|35=0|49=BLP|56=ABN2|34=626|52=20110224-03:44:25|10=179||0|
M|627|0|0|I|20110224-03:44:55.749|72|8=FIX.4.1|9=0048|35=0|49=BLP|56=ABN2|34=627|52=20110224-03:44:55|10=183||0|
M|628|0|0|I|20110224-03:45:25.749|72|8=FIX.4.1|9=0048|35=0|49=BLP|56=ABN2|34=628|52=20110224-03:45:25|10=182||0|
M|629|0|0|I|20110224-03:45:55.751|72|8=FIX.4.1|9=0048|35=0|49=BLP|56=ABN2|34=629|52=20110224-03:45:55|10=186||0|
M|630|0|0|I|20110224-03:46:25.751|72|8=FIX.4.1|9=0048|35=0|49=BLP|56=ABN2|34=630|52=20110224-03:46:25|10=176||0|
M|631|0|0|I|20110224-03:46:55.751|72|8=FIX.4.1|9=0048|35=0|49=BLP|56=ABN2|34=631|52=20110224-03:46:55|10=180||0|
M|632|0|0|I|20110224-03:47:25.753|72|8=FIX.4.1|9=0048|35=0|49=BLP|56=ABN2|34=632|52=20110224-03:47:25|10=179||0|
M|633|0|0|I|20110224-03:47:55.753|72|8=FIX.4.1|9=0048|35=0|49=BLP|56=ABN2|34=633|52=20110224-03:47:55|10=183||0|
M|634|0|0|I|20110224-03:48:25.753|72|8=FIX.4.1|9=0048|35=0|49=BLP|56=ABN2|34=634|52=20110224-03:48:25|10=182||0|
M|635|0|0|I|20110224-03:48:55.753|72|8=FIX.4.1|9=0048|35=0|49=BLP|56=ABN2|34=635|52=20110224-03:48:55|10=186||0|
M|636|0|0|I|20110224-03:49:25.753|72|8=FIX.4.1|9=0048|35=0|49=BLP|56=ABN2|34=636|52=20110224-03:49:25|10=185||0|
M|637|0|0|I|20110224-03:49:55.755|72|8=FIX.4.1|9=0048|35=0|49=BLP|56=ABN2|34=637|52=20110224-03:49:55|10=189||0|
M|638|0|0|I|20110224-03:50:25.755|72|8=FIX.4.1|9=0048|35=0|49=BLP|56=ABN2|34=638|52=20110224-03:50:25|10=179||0|
M|639|0|D|I|20110224-03:50:42.085|211|8=FIX.4.1|9=0187|35=D|49=BLP|56=ABN2|34=639|50=4293876|57=ABN2|52=20110224-03:50:42|38=587000|40=1|11=20110224-00004|15=HKD|75=20110224|48=B1FJNT8|109=AMM12|21=3|22=2|54=2|55=337|207=HK|58=@vwap ovd|59=0|10=251||0|
M|640|0|D|I|20110224-03:50:42.119|211|8=FIX.4.1|9=0187|35=D|49=BLP|56=ABN2|34=640|50=4293876|57=ABN2|52=20110224-03:50:42|38=363000|40=1|11=20110224-00005|15=HKD|75=20110224|48=B1YC2B3|109=AMM12|21=3|22=2|54=2|55=658|207=HK|58=@vwap ovd|59=0|10=203||0|
M|641|0|D|I|20110224-03:50:42.165|213|8=FIX.4.1|9=0189|35=D|49=BLP|56=ABN2|34=641|50=4293876|57=ABN2|52=20110224-03:50:42|38=1300000|40=1|11=20110224-00006|15=HKD|75=20110224|48=B04NNB6|109=AMM12|21=3|22=2|54=2|55=2369|207=HK|58=@vwap ovd|59=0|10=044||0|
M|642|0|D|I|20110224-03:50:42.187|213|8=FIX.4.1|9=0189|35=D|49=BLP|56=ABN2|34=642|50=4293876|57=ABN2|52=20110224-03:50:42|38=8917000|40=1|11=20110224-00007|15=HKD|75=20110224|48=B282142|109=AMM12|21=3|22=2|54=2|55=3818|207=HK|58=@vwap ovd|59=0|10=254||0|
M|643|0|D|I|20110224-03:50:42.205|213|8=FIX.4.1|9=0189|35=D|49=BLP|56=ABN2|34=643|50=4293876|57=ABN2|52=20110224-03:50:42|38=2676000|40=1|11=20110224-00008|15=HKD|75=20110224|48=B0PR2F4|109=AMM12|21=3|22=2|54=2|55=3383|207=HK|58=@vwap ovd|59=0|10=068||0|
M|644|0|0|I|20110224-03:51:12.205|72|8=FIX.4.1|9=0048|35=0|49=BLP|56=ABN2|34=644|52=20110224-03:51:12|10=173||0|
M|645|0|1|I|20110224-03:51:42.087|100|8=FIX.4.1|9=0076|35=1|49=BLP|56=ABN2|34=645|52=20110224-03:51:42|112=C.0250.0285.0299.035142|10=025||0|
M|646|0|0|I|20110224-03:52:12.087|72|8=FIX.4.1|9=0048|35=0|49=BLP|56=ABN2|34=646|52=20110224-03:52:12|10=176||0|
M|647|0|0|I|20110224-03:52:42.087|72|8=FIX.4.1|9=0048|35=0|49=BLP|56=ABN2|34=647|52=20110224-03:52:42|10=180||0|
M|648|0|0|I|20110224-03:53:12.089|72|8=FIX.4.1|9=0048|35=0|49=BLP|56=ABN2|34=648|52=20110224-03:53:12|10=179||0|
M|649|0|0|I|20110224-03:53:42.091|72|8=FIX.4.1|9=0048|35=0|49=BLP|56=ABN2|34=649|52=20110224-03:53:42|10=183||0|
M|650|0|0|I|20110224-03:54:12.089|72|8=FIX.4.1|9=0048|35=0|49=BLP|56=ABN2|34=650|52=20110224-03:54:12|10=173||0|
M|651|0|0|I|20110224-03:54:42.091|72|8=FIX.4.1|9=0048|35=0|49=BLP|56=ABN2|34=651|52=20110224-03:54:42|10=177||0|
M|652|0|0|I|20110224-03:55:12.091|72|8=FIX.4.1|9=0048|35=0|49=BLP|56=ABN2|34=652|52=20110224-03:55:12|10=176||0|
M|653|0|0|I|20110224-03:55:42.093|72|8=FIX.4.1|9=0048|35=0|49=BLP|56=ABN2|34=653|52=20110224-03:55:42|10=180||0|
M|654|0|0|I|20110224-03:56:12.093|72|8=FIX.4.1|9=0048|35=0|49=BLP|56=ABN2|34=654|52=20110224-03:56:12|10=179||0|
M|655|0|0|I|20110224-03:56:44.558|72|8=FIX.4.1|9=0048|35=0|49=BLP|56=ABN2|34=655|52=20110224-03:56:42|10=183||0|
M|656|0|0|I|20110224-03:57:12.095|72|8=FIX.4.1|9=0048|35=0|49=BLP|56=ABN2|34=656|52=20110224-03:57:12|10=182||0|
M|657|0|0|I|20110224-03:57:42.097|72|8=FIX.4.1|9=0048|35=0|49=BLP|56=ABN2|34=657|52=20110224-03:57:42|10=186||0|
M|658|0|0|I|20110224-03:58:12.097|72|8=FIX.4.1|9=0048|35=0|49=BLP|56=ABN2|34=658|52=20110224-03:58:12|10=185||0|
M|659|0|0|I|20110224-03:58:42.097|72|8=FIX.4.1|9=0048|35=0|49=BLP|56=ABN2|34=659|52=20110224-03:58:42|10=189||0|
M|660|0|0|I|20110224-03:59:12.097|72|8=FIX.4.1|9=0048|35=0|49=BLP|56=ABN2|34=660|52=20110224-03:59:12|10=179||0|
M|661|0|0|I|20110224-03:59:42.099|72|8=FIX.4.1|9=0048|35=0|49=BLP|56=ABN2|34=661|52=20110224-03:59:42|10=183||0|
M|662|0|0|I|20110224-04:00:12.099|72|8=FIX.4.1|9=0048|35=0|49=BLP|56=ABN2|34=662|52=20110224-04:00:12|10=168||0|
M|663|0|0|I|20110224-04:00:42.099|72|8=FIX.4.1|9=0048|35=0|49=BLP|56=ABN2|34=663|52=20110224-04:00:42|10=172||0|
M|664|0|0|I|20110224-04:01:12.101|72|8=FIX.4.1|9=0048|35=0|49=BLP|56=ABN2|34=664|52=20110224-04:01:12|10=171||0|
M|665|0|0|I|20110224-04:01:42.101|72|8=FIX.4.1|9=0048|35=0|49=BLP|56=ABN2|34=665|52=20110224-04:01:42|10=175||0|
M|666|0|0|I|20110224-04:02:12.101|72|8=FIX.4.1|9=0048|35=0|49=BLP|56=ABN2|34=666|52=20110224-04:02:12|10=174||0|
M|667|0|0|I|20110224-04:02:42.101|72|8=FIX.4.1|9=0048|35=0|49=BLP|56=ABN2|34=667|52=20110224-04:02:42|10=178||0|
M|668|0|0|I|20110224-04:03:12.103|72|8=FIX.4.1|9=0048|35=0|49=BLP|56=ABN2|34=668|52=20110224-04:03:12|10=177||0|
M|669|0|0|I|20110224-04:03:42.103|72|8=FIX.4.1|9=0048|35=0|49=BLP|56=ABN2|34=669|52=20110224-04:03:42|10=181||0|
M|670|0|0|I|20110224-04:04:12.103|72|8=FIX.4.1|9=0048|35=0|49=BLP|56=ABN2|34=670|52=20110224-04:04:12|10=171||0|
M|671|0|0|I|20110224-04:04:42.103|72|8=FIX.4.1|9=0048|35=0|49=BLP|56=ABN2|34=671|52=20110224-04:04:42|10=175||0|
M|672|0|0|I|20110224-04:05:12.103|72|8=FIX.4.1|9=0048|35=0|49=BLP|56=ABN2|34=672|52=20110224-04:05:12|10=174||0|
M|673|0|0|I|20110224-04:05:42.103|72|8=FIX.4.1|9=0048|35=0|49=BLP|56=ABN2|34=673|52=20110224-04:05:42|10=178||0|
M|674|0|0|I|20110224-04:06:12.105|72|8=FIX.4.1|9=0048|35=0|49=BLP|56=ABN2|34=674|52=20110224-04:06:12|10=177||0|
M|675|0|0|I|20110224-04:06:42.105|72|8=FIX.4.1|9=0048|35=0|49=BLP|56=ABN2|34=675|52=20110224-04:06:42|10=181||0|
M|676|0|0|I|20110224-04:07:12.107|72|8=FIX.4.1|9=0048|35=0|49=BLP|56=ABN2|34=676|52=20110224-04:07:12|10=180||0|
M|677|0|0|I|20110224-04:07:42.107|72|8=FIX.4.1|9=0048|35=0|49=BLP|56=ABN2|34=677|52=20110224-04:07:42|10=184||0|
M|678|0|0|I|20110224-04:08:12.107|72|8=FIX.4.1|9=0048|35=0|49=BLP|56=ABN2|34=678|52=20110224-04:08:12|10=183||0|
M|679|0|0|I|20110224-04:08:42.109|72|8=FIX.4.1|9=0048|35=0|49=BLP|56=ABN2|34=679|52=20110224-04:08:42|10=187||0|
M|680|0|0|I|20110224-04:09:12.109|72|8=FIX.4.1|9=0048|35=0|49=BLP|56=ABN2|34=680|52=20110224-04:09:12|10=177||0|
M|681|0|0|I|20110224-04:09:42.109|72|8=FIX.4.1|9=0048|35=0|49=BLP|56=ABN2|34=681|52=20110224-04:09:42|10=181||0|
M|682|0|0|I|20110224-04:10:12.109|72|8=FIX.4.1|9=0048|35=0|49=BLP|56=ABN2|34=682|52=20110224-04:10:12|10=171||0|
M|683|0|0|I|20110224-04:10:42.109|72|8=FIX.4.1|9=0048|35=0|49=BLP|56=ABN2|34=683|52=20110224-04:10:42|10=175||0|
M|684|0|0|I|20110224-04:11:12.111|72|8=FIX.4.1|9=0048|35=0|49=BLP|56=ABN2|34=684|52=20110224-04:11:12|10=174||0|
M|685|0|0|I|20110224-04:11:42.111|72|8=FIX.4.1|9=0048|35=0|49=BLP|56=ABN2|34=685|52=20110224-04:11:42|10=178||0|
M|686|0|0|I|20110224-04:12:12.111|72|8=FIX.4.1|9=0048|35=0|49=BLP|56=ABN2|34=686|52=20110224-04:12:12|10=177||0|
M|687|0|0|I|20110224-04:12:42.113|72|8=FIX.4.1|9=0048|35=0|49=BLP|56=ABN2|34=687|52=20110224-04:12:42|10=181||0|
M|688|0|0|I|20110224-04:13:12.113|72|8=FIX.4.1|9=0048|35=0|49=BLP|56=ABN2|34=688|52=20110224-04:13:12|10=180||0|
M|689|0|0|I|20110224-04:13:42.113|72|8=FIX.4.1|9=0048|35=0|49=BLP|56=ABN2|34=689|52=20110224-04:13:42|10=184||0|
M|690|0|0|I|20110224-04:14:12.115|72|8=FIX.4.1|9=0048|35=0|49=BLP|56=ABN2|34=690|52=20110224-04:14:12|10=174||0|
M|691|0|0|I|20110224-04:14:42.115|72|8=FIX.4.1|9=0048|35=0|49=BLP|56=ABN2|34=691|52=20110224-04:14:42|10=178||0|
M|692|0|0|I|20110224-04:15:12.115|72|8=FIX.4.1|9=0048|35=0|49=BLP|56=ABN2|34=692|52=20110224-04:15:12|10=177||0|
M|693|0|0|I|20110224-04:15:42.115|72|8=FIX.4.1|9=0048|35=0|49=BLP|56=ABN2|34=693|52=20110224-04:15:42|10=181||0|
M|694|0|0|I|20110224-04:16:12.117|72|8=FIX.4.1|9=0048|35=0|49=BLP|56=ABN2|34=694|52=20110224-04:16:12|10=180||0|
M|695|0|0|I|20110224-04:16:42.117|72|8=FIX.4.1|9=0048|35=0|49=BLP|56=ABN2|34=695|52=20110224-04:16:42|10=184||0|
M|696|0|0|I|20110224-04:17:12.117|72|8=FIX.4.1|9=0048|35=0|49=BLP|56=ABN2|34=696|52=20110224-04:17:12|10=183||0|
M|697|0|0|I|20110224-04:17:42.117|72|8=FIX.4.1|9=0048|35=0|49=BLP|56=ABN2|34=697|52=20110224-04:17:42|10=187||0|
M|698|0|0|I|20110224-04:18:12.117|72|8=FIX.4.1|9=0048|35=0|49=BLP|56=ABN2|34=698|52=20110224-04:18:12|10=186||0|
M|699|0|0|I|20110224-04:18:42.117|72|8=FIX.4.1|9=0048|35=0|49=BLP|56=ABN2|34=699|52=20110224-04:18:42|10=190||0|
M|700|0|0|I|20110224-04:19:12.117|72|8=FIX.4.1|9=0048|35=0|49=BLP|56=ABN2|34=700|52=20110224-04:19:12|10=171||0|
M|701|0|0|I|20110224-04:19:42.119|72|8=FIX.4.1|9=0048|35=0|49=BLP|56=ABN2|34=701|52=20110224-04:19:42|10=175||0|
M|702|0|0|I|20110224-04:20:12.119|72|8=FIX.4.1|9=0048|35=0|49=BLP|56=ABN2|34=702|52=20110224-04:20:12|10=165||0|
M|703|0|0|I|20110224-04:20:42.119|72|8=FIX.4.1|9=0048|35=0|49=BLP|56=ABN2|34=703|52=20110224-04:20:42|10=169||0|
M|704|0|0|I|20110224-04:21:12.121|72|8=FIX.4.1|9=0048|35=0|49=BLP|56=ABN2|34=704|52=20110224-04:21:12|10=168||0|
M|705|0|0|I|20110224-04:21:42.123|72|8=FIX.4.1|9=0048|35=0|49=BLP|56=ABN2|34=705|52=20110224-04:21:42|10=172||0|
M|706|0|0|I|20110224-04:22:12.123|72|8=FIX.4.1|9=0048|35=0|49=BLP|56=ABN2|34=706|52=20110224-04:22:12|10=171||0|
M|707|0|0|I|20110224-04:22:42.125|72|8=FIX.4.1|9=0048|35=0|49=BLP|56=ABN2|34=707|52=20110224-04:22:42|10=175||0|
M|708|0|0|I|20110224-04:23:12.125|72|8=FIX.4.1|9=0048|35=0|49=BLP|56=ABN2|34=708|52=20110224-04:23:12|10=174||0|
M|709|0|0|I|20110224-04:23:42.125|72|8=FIX.4.1|9=0048|35=0|49=BLP|56=ABN2|34=709|52=20110224-04:23:42|10=178||0|
M|710|0|0|I|20110224-04:24:12.125|72|8=FIX.4.1|9=0048|35=0|49=BLP|56=ABN2|34=710|52=20110224-04:24:12|10=168||0|
M|711|0|0|I|20110224-04:24:42.125|72|8=FIX.4.1|9=0048|35=0|49=BLP|56=ABN2|34=711|52=20110224-04:24:42|10=172||0|
M|712|0|0|I|20110224-04:25:12.127|72|8=FIX.4.1|9=0048|35=0|49=BLP|56=ABN2|34=712|52=20110224-04:25:12|10=171||0|
M|713|0|0|I|20110224-04:25:42.127|72|8=FIX.4.1|9=0048|35=0|49=BLP|56=ABN2|34=713|52=20110224-04:25:42|10=175||0|
M|714|0|0|I|20110224-04:26:12.129|72|8=FIX.4.1|9=0048|35=0|49=BLP|56=ABN2|34=714|52=20110224-04:26:12|10=174||0|
M|715|0|0|I|20110224-04:26:42.129|72|8=FIX.4.1|9=0048|35=0|49=BLP|56=ABN2|34=715|52=20110224-04:26:42|10=178||0|
M|716|0|0|I|20110224-04:27:12.129|72|8=FIX.4.1|9=0048|35=0|49=BLP|56=ABN2|34=716|52=20110224-04:27:12|10=177||0|
M|717|0|0|I|20110224-04:27:42.129|72|8=FIX.4.1|9=0048|35=0|49=BLP|56=ABN2|34=717|52=20110224-04:27:42|10=181||0|
M|718|0|0|I|20110224-04:28:12.131|72|8=FIX.4.1|9=0048|35=0|49=BLP|56=ABN2|34=718|52=20110224-04:28:12|10=180||0|
M|719|0|0|I|20110224-04:28:42.131|72|8=FIX.4.1|9=0048|35=0|49=BLP|56=ABN2|34=719|52=20110224-04:28:42|10=184||0|
M|720|0|0|I|20110224-04:29:12.131|72|8=FIX.4.1|9=0048|35=0|49=BLP|56=ABN2|34=720|52=20110224-04:29:12|10=174||0|
M|721|0|0|I|20110224-04:29:42.131|72|8=FIX.4.1|9=0048|35=0|49=BLP|56=ABN2|34=721|52=20110224-04:29:42|10=178||0|
M|722|0|0|I|20110224-04:30:12.133|72|8=FIX.4.1|9=0048|35=0|49=BLP|56=ABN2|34=722|52=20110224-04:30:12|10=168||0|
M|723|0|0|I|20110224-04:30:42.133|72|8=FIX.4.1|9=0048|35=0|49=BLP|56=ABN2|34=723|52=20110224-04:30:42|10=172||0|
M|724|0|0|I|20110224-04:31:12.133|72|8=FIX.4.1|9=0048|35=0|49=BLP|56=ABN2|34=724|52=20110224-04:31:12|10=171||0|
M|725|0|0|I|20110224-04:31:42.135|72|8=FIX.4.1|9=0048|35=0|49=BLP|56=ABN2|34=725|52=20110224-04:31:42|10=175||0|
M|726|0|0|I|20110224-04:32:12.135|72|8=FIX.4.1|9=0048|35=0|49=BLP|56=ABN2|34=726|52=20110224-04:32:12|10=174||0|
M|727|0|0|I|20110224-04:32:42.135|72|8=FIX.4.1|9=0048|35=0|49=BLP|56=ABN2|34=727|52=20110224-04:32:42|10=178||0|
M|728|0|0|I|20110224-04:33:12.135|72|8=FIX.4.1|9=0048|35=0|49=BLP|56=ABN2|34=728|52=20110224-04:33:12|10=177||0|
M|729|0|0|I|20110224-04:33:42.135|72|8=FIX.4.1|9=0048|35=0|49=BLP|56=ABN2|34=729|52=20110224-04:33:42|10=181||0|
M|730|0|0|I|20110224-04:34:12.137|72|8=FIX.4.1|9=0048|35=0|49=BLP|56=ABN2|34=730|52=20110224-04:34:12|10=171||0|
M|731|0|0|I|20110224-04:34:42.137|72|8=FIX.4.1|9=0048|35=0|49=BLP|56=ABN2|34=731|52=20110224-04:34:42|10=175||0|
M|732|0|0|I|20110224-04:35:12.137|72|8=FIX.4.1|9=0048|35=0|49=BLP|56=ABN2|34=732|52=20110224-04:35:12|10=174||0|
M|733|0|0|I|20110224-04:35:42.139|72|8=FIX.4.1|9=0048|35=0|49=BLP|56=ABN2|34=733|52=20110224-04:35:42|10=178||0|
M|734|0|0|I|20110224-04:36:12.139|72|8=FIX.4.1|9=0048|35=0|49=BLP|56=ABN2|34=734|52=20110224-04:36:12|10=177||0|
M|735|0|0|I|20110224-04:36:42.141|72|8=FIX.4.1|9=0048|35=0|49=BLP|56=ABN2|34=735|52=20110224-04:36:42|10=181||0|
M|736|0|0|I|20110224-04:37:12.141|72|8=FIX.4.1|9=0048|35=0|49=BLP|56=ABN2|34=736|52=20110224-04:37:12|10=180||0|
M|737|0|0|I|20110224-04:37:42.141|72|8=FIX.4.1|9=0048|35=0|49=BLP|56=ABN2|34=737|52=20110224-04:37:42|10=184||0|
M|738|0|0|I|20110224-04:38:12.143|72|8=FIX.4.1|9=0048|35=0|49=BLP|56=ABN2|34=738|52=20110224-04:38:12|10=183||0|
M|739|0|0|I|20110224-04:38:42.143|72|8=FIX.4.1|9=0048|35=0|49=BLP|56=ABN2|34=739|52=20110224-04:38:42|10=187||0|
M|740|0|0|I|20110224-04:39:12.143|72|8=FIX.4.1|9=0048|35=0|49=BLP|56=ABN2|34=740|52=20110224-04:39:12|10=177||0|
M|741|0|0|I|20110224-04:39:42.143|72|8=FIX.4.1|9=0048|35=0|49=BLP|56=ABN2|34=741|52=20110224-04:39:42|10=181||0|
M|742|0|0|I|20110224-04:40:12.145|72|8=FIX.4.1|9=0048|35=0|49=BLP|56=ABN2|34=742|52=20110224-04:40:12|10=171||0|
M|743|0|0|I|20110224-04:40:42.145|72|8=FIX.4.1|9=0048|35=0|49=BLP|56=ABN2|34=743|52=20110224-04:40:42|10=175||0|
M|744|0|0|I|20110224-04:41:12.145|72|8=FIX.4.1|9=0048|35=0|49=BLP|56=ABN2|34=744|52=20110224-04:41:12|10=174||0|
M|745|0|0|I|20110224-04:41:42.147|72|8=FIX.4.1|9=0048|35=0|49=BLP|56=ABN2|34=745|52=20110224-04:41:42|10=178||0|
M|746|0|0|I|20110224-04:42:12.149|72|8=FIX.4.1|9=0048|35=0|49=BLP|56=ABN2|34=746|52=20110224-04:42:12|10=177||0|
M|747|0|0|I|20110224-04:42:42.149|72|8=FIX.4.1|9=0048|35=0|49=BLP|56=ABN2|34=747|52=20110224-04:42:42|10=181||0|
M|748|0|0|I|20110224-04:43:12.151|72|8=FIX.4.1|9=0048|35=0|49=BLP|56=ABN2|34=748|52=20110224-04:43:12|10=180||0|
M|749|0|0|I|20110224-04:43:42.151|72|8=FIX.4.1|9=0048|35=0|49=BLP|56=ABN2|34=749|52=20110224-04:43:42|10=184||0|
M|750|0|0|I|20110224-04:44:12.153|72|8=FIX.4.1|9=0048|35=0|49=BLP|56=ABN2|34=750|52=20110224-04:44:12|10=174||0|
M|751|0|0|I|20110224-04:44:42.153|72|8=FIX.4.1|9=0048|35=0|49=BLP|56=ABN2|34=751|52=20110224-04:44:42|10=178||0|
M|752|0|0|I|20110224-04:45:12.153|72|8=FIX.4.1|9=0048|35=0|49=BLP|56=ABN2|34=752|52=20110224-04:45:12|10=177||0|
M|753|0|0|I|20110224-04:45:42.153|72|8=FIX.4.1|9=0048|35=0|49=BLP|56=ABN2|34=753|52=20110224-04:45:42|10=181||0|
M|754|0|0|I|20110224-04:46:12.155|72|8=FIX.4.1|9=0048|35=0|49=BLP|56=ABN2|34=754|52=20110224-04:46:12|10=180||0|
M|755|0|0|I|20110224-04:46:42.155|72|8=FIX.4.1|9=0048|35=0|49=BLP|56=ABN2|34=755|52=20110224-04:46:42|10=184||0|
M|756|0|0|I|20110224-04:47:12.157|72|8=FIX.4.1|9=0048|35=0|49=BLP|56=ABN2|34=756|52=20110224-04:47:12|10=183||0|
M|757|0|0|I|20110224-04:47:42.157|72|8=FIX.4.1|9=0048|35=0|49=BLP|56=ABN2|34=757|52=20110224-04:47:42|10=187||0|
M|758|0|0|I|20110224-04:48:12.159|72|8=FIX.4.1|9=0048|35=0|49=BLP|56=ABN2|34=758|52=20110224-04:48:12|10=186||0|
M|759|0|0|I|20110224-04:48:42.159|72|8=FIX.4.1|9=0048|35=0|49=BLP|56=ABN2|34=759|52=20110224-04:48:42|10=190||0|
M|760|0|0|I|20110224-04:49:12.159|72|8=FIX.4.1|9=0048|35=0|49=BLP|56=ABN2|34=760|52=20110224-04:49:12|10=180||0|
M|761|0|0|I|20110224-04:49:42.159|72|8=FIX.4.1|9=0048|35=0|49=BLP|56=ABN2|34=761|52=20110224-04:49:42|10=184||0|
M|762|0|0|I|20110224-04:50:12.159|72|8=FIX.4.1|9=0048|35=0|49=BLP|56=ABN2|34=762|52=20110224-04:50:12|10=174||0|
M|763|0|0|I|20110224-04:50:42.159|72|8=FIX.4.1|9=0048|35=0|49=BLP|56=ABN2|34=763|52=20110224-04:50:42|10=178||0|
M|764|0|0|I|20110224-04:51:12.161|72|8=FIX.4.1|9=0048|35=0|49=BLP|56=ABN2|34=764|52=20110224-04:51:12|10=177||0|
M|765|0|0|I|20110224-04:51:42.161|72|8=FIX.4.1|9=0048|35=0|49=BLP|56=ABN2|34=765|52=20110224-04:51:42|10=181||0|
M|766|0|0|I|20110224-04:52:12.161|72|8=FIX.4.1|9=0048|35=0|49=BLP|56=ABN2|34=766|52=20110224-04:52:12|10=180||0|
M|767|0|0|I|20110224-04:52:42.161|72|8=FIX.4.1|9=0048|35=0|49=BLP|56=ABN2|34=767|52=20110224-04:52:42|10=184||0|
M|768|0|0|I|20110224-04:53:12.161|72|8=FIX.4.1|9=0048|35=0|49=BLP|56=ABN2|34=768|52=20110224-04:53:12|10=183||0|
M|769|0|0|I|20110224-04:53:42.163|72|8=FIX.4.1|9=0048|35=0|49=BLP|56=ABN2|34=769|52=20110224-04:53:42|10=187||0|
M|770|0|0|I|20110224-04:54:12.163|72|8=FIX.4.1|9=0048|35=0|49=BLP|56=ABN2|34=770|52=20110224-04:54:12|10=177||0|
M|771|0|0|I|20110224-04:54:42.165|72|8=FIX.4.1|9=0048|35=0|49=BLP|56=ABN2|34=771|52=20110224-04:54:42|10=181||0|
M|772|0|0|I|20110224-04:55:12.165|72|8=FIX.4.1|9=0048|35=0|49=BLP|56=ABN2|34=772|52=20110224-04:55:12|10=180||0|
M|773|0|0|I|20110224-04:55:42.165|72|8=FIX.4.1|9=0048|35=0|49=BLP|56=ABN2|34=773|52=20110224-04:55:42|10=184||0|
M|774|0|0|I|20110224-04:56:12.167|72|8=FIX.4.1|9=0048|35=0|49=BLP|56=ABN2|34=774|52=20110224-04:56:12|10=183||0|
M|775|0|0|I|20110224-04:56:42.167|72|8=FIX.4.1|9=0048|35=0|49=BLP|56=ABN2|34=775|52=20110224-04:56:42|10=187||0|
M|776|0|0|I|20110224-04:57:12.169|72|8=FIX.4.1|9=0048|35=0|49=BLP|56=ABN2|34=776|52=20110224-04:57:12|10=186||0|
M|777|0|0|I|20110224-04:57:42.169|72|8=FIX.4.1|9=0048|35=0|49=BLP|56=ABN2|34=777|52=20110224-04:57:42|10=190||0|
M|778|0|0|I|20110224-04:58:12.169|72|8=FIX.4.1|9=0048|35=0|49=BLP|56=ABN2|34=778|52=20110224-04:58:12|10=189||0|
M|779|0|0|I|20110224-04:58:42.169|72|8=FIX.4.1|9=0048|35=0|49=BLP|56=ABN2|34=779|52=20110224-04:58:42|10=193||0|
M|780|0|0|I|20110224-04:59:12.171|72|8=FIX.4.1|9=0048|35=0|49=BLP|56=ABN2|34=780|52=20110224-04:59:12|10=183||0|
M|781|0|0|I|20110224-04:59:42.171|72|8=FIX.4.1|9=0048|35=0|49=BLP|56=ABN2|34=781|52=20110224-04:59:42|10=187||0|
M|782|0|0|I|20110224-05:00:12.171|72|8=FIX.4.1|9=0048|35=0|49=BLP|56=ABN2|34=782|52=20110224-05:00:12|10=172||0|
M|783|0|0|I|20110224-05:00:42.171|72|8=FIX.4.1|9=0048|35=0|49=BLP|56=ABN2|34=783|52=20110224-05:00:42|10=176||0|
M|784|0|0|I|20110224-05:01:12.173|72|8=FIX.4.1|9=0048|35=0|49=BLP|56=ABN2|34=784|52=20110224-05:01:12|10=175||0|
M|785|0|0|I|20110224-05:01:42.173|72|8=FIX.4.1|9=0048|35=0|49=BLP|56=ABN2|34=785|52=20110224-05:01:42|10=179||0|
M|786|0|0|I|20110224-05:02:12.173|72|8=FIX.4.1|9=0048|35=0|49=BLP|56=ABN2|34=786|52=20110224-05:02:12|10=178||0|
M|787|0|0|I|20110224-05:02:42.173|72|8=FIX.4.1|9=0048|35=0|49=BLP|56=ABN2|34=787|52=20110224-05:02:42|10=182||0|
M|788|0|0|I|20110224-05:03:12.175|72|8=FIX.4.1|9=0048|35=0|49=BLP|56=ABN2|34=788|52=20110224-05:03:12|10=181||0|
M|789|0|0|I|20110224-05:03:42.175|72|8=FIX.4.1|9=0048|35=0|49=BLP|56=ABN2|34=789|52=20110224-05:03:42|10=185||0|
M|790|0|0|I|20110224-05:04:12.175|72|8=FIX.4.1|9=0048|35=0|49=BLP|56=ABN2|34=790|52=20110224-05:04:12|10=175||0|
M|791|0|0|I|20110224-05:04:42.177|72|8=FIX.4.1|9=0048|35=0|49=BLP|56=ABN2|34=791|52=20110224-05:04:42|10=179||0|
M|792|0|0|I|20110224-05:05:12.177|72|8=FIX.4.1|9=0048|35=0|49=BLP|56=ABN2|34=792|52=20110224-05:05:12|10=178||0|
M|793|0|0|I|20110224-05:05:42.177|72|8=FIX.4.1|9=0048|35=0|49=BLP|56=ABN2|34=793|52=20110224-05:05:42|10=182||0|
M|794|0|0|I|20110224-05:06:12.177|72|8=FIX.4.1|9=0048|35=0|49=BLP|56=ABN2|34=794|52=20110224-05:06:12|10=181||0|
M|795|0|0|I|20110224-05:06:42.179|72|8=FIX.4.1|9=0048|35=0|49=BLP|56=ABN2|34=795|52=20110224-05:06:42|10=185||0|
M|796|0|0|I|20110224-05:07:12.179|72|8=FIX.4.1|9=0048|35=0|49=BLP|56=ABN2|34=796|52=20110224-05:07:12|10=184||0|
M|797|0|0|I|20110224-05:07:42.179|72|8=FIX.4.1|9=0048|35=0|49=BLP|56=ABN2|34=797|52=20110224-05:07:42|10=188||0|
M|798|0|0|I|20110224-05:08:12.181|72|8=FIX.4.1|9=0048|35=0|49=BLP|56=ABN2|34=798|52=20110224-05:08:12|10=187||0|
M|799|0|0|I|20110224-05:08:42.181|72|8=FIX.4.1|9=0048|35=0|49=BLP|56=ABN2|34=799|52=20110224-05:08:42|10=191||0|
M|800|0|0|I|20110224-05:09:12.181|72|8=FIX.4.1|9=0048|35=0|49=BLP|56=ABN2|34=800|52=20110224-05:09:12|10=172||0|
M|801|0|0|I|20110224-05:09:42.181|72|8=FIX.4.1|9=0048|35=0|49=BLP|56=ABN2|34=801|52=20110224-05:09:42|10=176||0|
M|802|0|0|I|20110224-05:10:12.181|72|8=FIX.4.1|9=0048|35=0|49=BLP|56=ABN2|34=802|52=20110224-05:10:12|10=166||0|
M|803|0|0|I|20110224-05:10:42.181|72|8=FIX.4.1|9=0048|35=0|49=BLP|56=ABN2|34=803|52=20110224-05:10:42|10=170||0|
M|804|0|0|I|20110224-05:11:12.183|72|8=FIX.4.1|9=0048|35=0|49=BLP|56=ABN2|34=804|52=20110224-05:11:12|10=169||0|
M|805|0|0|I|20110224-05:11:42.183|72|8=FIX.4.1|9=0048|35=0|49=BLP|56=ABN2|34=805|52=20110224-05:11:42|10=173||0|
M|806|0|0|I|20110224-05:12:12.183|72|8=FIX.4.1|9=0048|35=0|49=BLP|56=ABN2|34=806|52=20110224-05:12:12|10=172||0|
M|807|0|0|I|20110224-05:12:42.185|72|8=FIX.4.1|9=0048|35=0|49=BLP|56=ABN2|34=807|52=20110224-05:12:42|10=176||0|
M|808|0|0|I|20110224-05:13:12.185|72|8=FIX.4.1|9=0048|35=0|49=BLP|56=ABN2|34=808|52=20110224-05:13:12|10=175||0|
M|809|0|0|I|20110224-05:13:42.185|72|8=FIX.4.1|9=0048|35=0|49=BLP|56=ABN2|34=809|52=20110224-05:13:42|10=179||0|
M|810|0|0|I|20110224-05:14:12.187|72|8=FIX.4.1|9=0048|35=0|49=BLP|56=ABN2|34=810|52=20110224-05:14:12|10=169||0|
M|811|0|0|I|20110224-05:14:42.189|72|8=FIX.4.1|9=0048|35=0|49=BLP|56=ABN2|34=811|52=20110224-05:14:42|10=173||0|
M|812|0|0|I|20110224-05:15:12.189|72|8=FIX.4.1|9=0048|35=0|49=BLP|56=ABN2|34=812|52=20110224-05:15:12|10=172||0|
M|813|0|0|I|20110224-05:15:42.191|72|8=FIX.4.1|9=0048|35=0|49=BLP|56=ABN2|34=813|52=20110224-05:15:42|10=176||0|
M|814|0|0|I|20110224-05:16:12.191|72|8=FIX.4.1|9=0048|35=0|49=BLP|56=ABN2|34=814|52=20110224-05:16:12|10=175||0|
M|815|0|0|I|20110224-05:16:42.191|72|8=FIX.4.1|9=0048|35=0|49=BLP|56=ABN2|34=815|52=20110224-05:16:42|10=179||0|
M|816|0|0|I|20110224-05:17:12.193|72|8=FIX.4.1|9=0048|35=0|49=BLP|56=ABN2|34=816|52=20110224-05:17:12|10=178||0|
M|817|0|0|I|20110224-05:17:42.193|72|8=FIX.4.1|9=0048|35=0|49=BLP|56=ABN2|34=817|52=20110224-05:17:42|10=182||0|
M|818|0|0|I|20110224-05:18:12.193|72|8=FIX.4.1|9=0048|35=0|49=BLP|56=ABN2|34=818|52=20110224-05:18:12|10=181||0|
M|819|0|0|I|20110224-05:18:42.195|72|8=FIX.4.1|9=0048|35=0|49=BLP|56=ABN2|34=819|52=20110224-05:18:42|10=185||0|
M|820|0|0|I|20110224-05:19:12.195|72|8=FIX.4.1|9=0048|35=0|49=BLP|56=ABN2|34=820|52=20110224-05:19:12|10=175||0|
M|821|0|0|I|20110224-05:19:42.197|72|8=FIX.4.1|9=0048|35=0|49=BLP|56=ABN2|34=821|52=20110224-05:19:42|10=179||0|
M|822|0|0|I|20110224-05:20:12.197|72|8=FIX.4.1|9=0048|35=0|49=BLP|56=ABN2|34=822|52=20110224-05:20:12|10=169||0|
M|823|0|0|I|20110224-05:20:42.197|72|8=FIX.4.1|9=0048|35=0|49=BLP|56=ABN2|34=823|52=20110224-05:20:42|10=173||0|
M|824|0|0|I|20110224-05:21:12.199|72|8=FIX.4.1|9=0048|35=0|49=BLP|56=ABN2|34=824|52=20110224-05:21:12|10=172||0|
M|825|0|0|I|20110224-05:21:42.199|72|8=FIX.4.1|9=0048|35=0|49=BLP|56=ABN2|34=825|52=20110224-05:21:42|10=176||0|
M|826|0|0|I|20110224-05:22:12.199|72|8=FIX.4.1|9=0048|35=0|49=BLP|56=ABN2|34=826|52=20110224-05:22:12|10=175||0|
M|827|0|0|I|20110224-05:22:42.201|72|8=FIX.4.1|9=0048|35=0|49=BLP|56=ABN2|34=827|52=20110224-05:22:42|10=179||0|
M|828|0|0|I|20110224-05:23:12.201|72|8=FIX.4.1|9=0048|35=0|49=BLP|56=ABN2|34=828|52=20110224-05:23:12|10=178||0|
M|829|0|0|I|20110224-05:23:42.201|72|8=FIX.4.1|9=0048|35=0|49=BLP|56=ABN2|34=829|52=20110224-05:23:42|10=182||0|
M|830|0|0|I|20110224-05:24:12.203|72|8=FIX.4.1|9=0048|35=0|49=BLP|56=ABN2|34=830|52=20110224-05:24:12|10=172||0|
M|831|0|0|I|20110224-05:24:42.205|72|8=FIX.4.1|9=0048|35=0|49=BLP|56=ABN2|34=831|52=20110224-05:24:42|10=176||0|
M|832|0|0|I|20110224-05:25:12.205|72|8=FIX.4.1|9=0048|35=0|49=BLP|56=ABN2|34=832|52=20110224-05:25:12|10=175||0|
M|833|0|0|I|20110224-05:25:42.205|72|8=FIX.4.1|9=0048|35=0|49=BLP|56=ABN2|34=833|52=20110224-05:25:42|10=179||0|
M|834|0|0|I|20110224-05:26:12.207|72|8=FIX.4.1|9=0048|35=0|49=BLP|56=ABN2|34=834|52=20110224-05:26:12|10=178||0|
M|835|0|0|I|20110224-05:26:42.207|72|8=FIX.4.1|9=0048|35=0|49=BLP|56=ABN2|34=835|52=20110224-05:26:42|10=182||0|
M|836|0|0|I|20110224-05:27:12.209|72|8=FIX.4.1|9=0048|35=0|49=BLP|56=ABN2|34=836|52=20110224-05:27:12|10=181||0|
M|837|0|0|I|20110224-05:27:42.209|72|8=FIX.4.1|9=0048|35=0|49=BLP|56=ABN2|34=837|52=20110224-05:27:42|10=185||0|
M|838|0|0|I|20110224-05:28:12.209|72|8=FIX.4.1|9=0048|35=0|49=BLP|56=ABN2|34=838|52=20110224-05:28:12|10=184||0|
M|839|0|0|I|20110224-05:28:42.211|72|8=FIX.4.1|9=0048|35=0|49=BLP|56=ABN2|34=839|52=20110224-05:28:42|10=188||0|
M|840|0|0|I|20110224-05:29:12.213|72|8=FIX.4.1|9=0048|35=0|49=BLP|56=ABN2|34=840|52=20110224-05:29:12|10=178||0|
M|841|0|0|I|20110224-05:29:42.213|72|8=FIX.4.1|9=0048|35=0|49=BLP|56=ABN2|34=841|52=20110224-05:29:42|10=182||0|
M|842|0|0|I|20110224-05:30:12.213|72|8=FIX.4.1|9=0048|35=0|49=BLP|56=ABN2|34=842|52=20110224-05:30:12|10=172||0|
M|843|0|0|I|20110224-05:30:42.213|72|8=FIX.4.1|9=0048|35=0|49=BLP|56=ABN2|34=843|52=20110224-05:30:42|10=176||0|
M|844|0|0|I|20110224-05:31:12.215|72|8=FIX.4.1|9=0048|35=0|49=BLP|56=ABN2|34=844|52=20110224-05:31:12|10=175||0|
M|845|0|0|I|20110224-05:31:42.215|72|8=FIX.4.1|9=0048|35=0|49=BLP|56=ABN2|34=845|52=20110224-05:31:42|10=179||0|
M|846|0|0|I|20110224-05:32:12.215|72|8=FIX.4.1|9=0048|35=0|49=BLP|56=ABN2|34=846|52=20110224-05:32:12|10=178||0|
M|847|0|0|I|20110224-05:32:42.217|72|8=FIX.4.1|9=0048|35=0|49=BLP|56=ABN2|34=847|52=20110224-05:32:42|10=182||0|
M|848|0|0|I|20110224-05:33:12.217|72|8=FIX.4.1|9=0048|35=0|49=BLP|56=ABN2|34=848|52=20110224-05:33:12|10=181||0|
M|849|0|0|I|20110224-05:33:42.219|72|8=FIX.4.1|9=0048|35=0|49=BLP|56=ABN2|34=849|52=20110224-05:33:42|10=185||0|
M|850|0|0|I|20110224-05:34:12.219|72|8=FIX.4.1|9=0048|35=0|49=BLP|56=ABN2|34=850|52=20110224-05:34:12|10=175||0|
M|851|0|0|I|20110224-05:34:42.219|72|8=FIX.4.1|9=0048|35=0|49=BLP|56=ABN2|34=851|52=20110224-05:34:42|10=179||0|
M|852|0|0|I|20110224-05:35:12.219|72|8=FIX.4.1|9=0048|35=0|49=BLP|56=ABN2|34=852|52=20110224-05:35:12|10=178||0|
M|853|0|0|I|20110224-05:35:42.223|72|8=FIX.4.1|9=0048|35=0|49=BLP|56=ABN2|34=853|52=20110224-05:35:42|10=182||0|
M|854|0|0|I|20110224-05:36:12.223|72|8=FIX.4.1|9=0048|35=0|49=BLP|56=ABN2|34=854|52=20110224-05:36:12|10=181||0|
M|855|0|0|I|20110224-05:36:42.223|72|8=FIX.4.1|9=0048|35=0|49=BLP|56=ABN2|34=855|52=20110224-05:36:42|10=185||0|
M|856|0|0|I|20110224-05:37:12.225|72|8=FIX.4.1|9=0048|35=0|49=BLP|56=ABN2|34=856|52=20110224-05:37:12|10=184||0|
M|857|0|0|I|20110224-05:37:42.225|72|8=FIX.4.1|9=0048|35=0|49=BLP|56=ABN2|34=857|52=20110224-05:37:42|10=188||0|
M|858|0|0|I|20110224-05:38:12.225|72|8=FIX.4.1|9=0048|35=0|49=BLP|56=ABN2|34=858|52=20110224-05:38:12|10=187||0|
M|859|0|0|I|20110224-05:38:42.225|72|8=FIX.4.1|9=0048|35=0|49=BLP|56=ABN2|34=859|52=20110224-05:38:42|10=191||0|
M|860|0|0|I|20110224-05:39:12.227|72|8=FIX.4.1|9=0048|35=0|49=BLP|56=ABN2|34=860|52=20110224-05:39:12|10=181||0|
M|861|0|0|I|20110224-05:39:42.227|72|8=FIX.4.1|9=0048|35=0|49=BLP|56=ABN2|34=861|52=20110224-05:39:42|10=185||0|
M|862|0|0|I|20110224-05:40:12.229|72|8=FIX.4.1|9=0048|35=0|49=BLP|56=ABN2|34=862|52=20110224-05:40:12|10=175||0|
M|863|0|0|I|20110224-05:40:42.227|72|8=FIX.4.1|9=0048|35=0|49=BLP|56=ABN2|34=863|52=20110224-05:40:42|10=179||0|
M|864|0|0|I|20110224-05:41:12.229|72|8=FIX.4.1|9=0048|35=0|49=BLP|56=ABN2|34=864|52=20110224-05:41:12|10=178||0|
M|865|0|0|I|20110224-05:41:42.229|72|8=FIX.4.1|9=0048|35=0|49=BLP|56=ABN2|34=865|52=20110224-05:41:42|10=182||0|
M|866|0|0|I|20110224-05:42:12.229|72|8=FIX.4.1|9=0048|35=0|49=BLP|56=ABN2|34=866|52=20110224-05:42:12|10=181||0|
