M|1146|0|D|I|20110224-09:04:30.101|250|8=FIX.4.2|9=227|35=D|49=LSEHub|56=RBS|115=robur|34=1146|116=NBM|52=20110224-09:04:30|370=20110224-09:04:30|11=RBS0001053398000|21=3|100=DE|55=BAS GY EQUITY|48=DE000BASF111|22=4|167=CS|207=DE|54=1|60=20110224-09:04:30|38=60464|40=1|15=EUR|59=0|10=017||0|
