V|1.1|
M|1|0|A|I|20110223-23:35:42.401|82|8=FIX.4.2|9=60|35=A|49=LSEHub|56=RBS|34=1|52=20110223-23:35:42|98=0|108=30|10=020||0|
M|2|0|0|I|20110223-23:35:42.406|81|8=FIX.4.2|9=59|35=0|49=LSEHub|56=RBS|34=2|52=20110223-23:35:42|112=STBL-2|10=089||0|
M|3|0|BD|I|20110223-23:35:42.411|247|8=FIX.4.2|9=224|35=BD|49=LSEHub|56=RBS|34=3|52=20110223-23:35:42|6802=1|6803=NSR-RBS634341009424572816|6804=7|6805=CHLGAU2S|6806=3|6805=BAML|6806=3|6805=AVIVAINV|6806=3|6805=OMAMUK|6806=3|6805=NIMC|6806=3|6805=VFMC|6806=3|6805=robur|6806=3|10=015||0|
M|4|0|0|I|20110223-23:36:12.412|70|8=FIX.4.2|9=48|35=0|49=LSEHub|56=RBS|34=4|52=20110223-23:36:12|10=241||0|
M|5|0|BD|I|20110223-23:36:17.774|135|8=FIX.4.2|9=112|35=BD|49=LSEHub|56=RBS|34=5|52=20110223-23:36:17|6802=2|6803=NSR-VFMC634341009778023888|6804=1|6805=VFMC|6806=1|10=130||0|
M|6|0|BD|I|20110223-23:36:17.781|135|8=FIX.4.2|9=112|35=BD|49=LSEHub|56=RBS|34=6|52=20110223-23:36:17|6802=2|6803=NSR-BAML634341009778180144|6804=1|6805=BAML|6806=1|10=088||0|
M|7|0|0|I|20110223-23:36:47.772|70|8=FIX.4.2|9=48|35=0|49=LSEHub|56=RBS|34=7|52=20110223-23:36:47|10=252||0|
M|8|0|0|I|20110223-23:37:17.773|70|8=FIX.4.2|9=48|35=0|49=LSEHub|56=RBS|34=8|52=20110223-23:37:17|10=251||0|
M|9|0|0|I|20110223-23:37:47.774|70|8=FIX.4.2|9=48|35=0|49=LSEHub|56=RBS|34=9|52=20110223-23:37:47|10=255||0|
M|10|0|0|I|20110223-23:38:17.775|71|8=FIX.4.2|9=49|35=0|49=LSEHub|56=RBS|34=10|52=20110223-23:38:17|10=038||0|
M|11|0|0|I|20110223-23:38:47.776|71|8=FIX.4.2|9=49|35=0|49=LSEHub|56=RBS|34=11|52=20110223-23:38:47|10=042||0|
M|12|0|0|I|20110223-23:39:17.777|71|8=FIX.4.2|9=49|35=0|49=LSEHub|56=RBS|34=12|52=20110223-23:39:17|10=041||0|
M|13|0|0|I|20110223-23:39:47.778|71|8=FIX.4.2|9=49|35=0|49=LSEHub|56=RBS|34=13|52=20110223-23:39:47|10=045||0|
M|14|0|0|I|20110223-23:40:17.779|71|8=FIX.4.2|9=49|35=0|49=LSEHub|56=RBS|34=14|52=20110223-23:40:17|10=035||0|
M|15|0|0|I|20110223-23:40:47.780|71|8=FIX.4.2|9=49|35=0|49=LSEHub|56=RBS|34=15|52=20110223-23:40:47|10=039||0|
M|16|0|0|I|20110223-23:41:17.781|71|8=FIX.4.2|9=49|35=0|49=LSEHub|56=RBS|34=16|52=20110223-23:41:17|10=038||0|
M|17|0|0|I|20110223-23:41:47.782|71|8=FIX.4.2|9=49|35=0|49=LSEHub|56=RBS|34=17|52=20110223-23:41:47|10=042||0|
M|18|0|0|I|20110223-23:42:17.783|71|8=FIX.4.2|9=49|35=0|49=LSEHub|56=RBS|34=18|52=20110223-23:42:17|10=041||0|
M|19|0|0|I|20110223-23:42:47.784|71|8=FIX.4.2|9=49|35=0|49=LSEHub|56=RBS|34=19|52=20110223-23:42:47|10=045||0|
M|20|0|0|I|20110223-23:43:17.785|71|8=FIX.4.2|9=49|35=0|49=LSEHub|56=RBS|34=20|52=20110223-23:43:17|10=035||0|
M|21|0|0|I|20110223-23:43:47.786|71|8=FIX.4.2|9=49|35=0|49=LSEHub|56=RBS|34=21|52=20110223-23:43:47|10=039||0|
M|22|0|0|I|20110223-23:44:17.787|71|8=FIX.4.2|9=49|35=0|49=LSEHub|56=RBS|34=22|52=20110223-23:44:17|10=038||0|
M|23|0|BD|I|20110223-23:44:28.943|136|8=FIX.4.2|9=113|35=BD|49=LSEHub|56=RBS|34=23|52=20110223-23:44:28|6802=2|6803=NSR-VFMC634341014689758298|6804=1|6805=VFMC|6806=3|10=189||0|
M|24|0|BD|I|20110223-23:44:35.862|136|8=FIX.4.2|9=113|35=BD|49=LSEHub|56=RBS|34=24|52=20110223-23:44:35|6802=2|6803=NSR-VFMC634341014758979263|6804=1|6805=VFMC|6806=1|10=180||0|
M|25|0|0|I|20110223-23:45:05.851|71|8=FIX.4.2|9=49|35=0|49=LSEHub|56=RBS|34=25|52=20110223-23:45:05|10=039||0|
M|26|0|0|I|20110223-23:45:35.852|71|8=FIX.4.2|9=49|35=0|49=LSEHub|56=RBS|34=26|52=20110223-23:45:35|10=043||0|
M|27|0|0|I|20110223-23:46:05.853|71|8=FIX.4.2|9=49|35=0|49=LSEHub|56=RBS|34=27|52=20110223-23:46:05|10=042||0|
M|28|0|0|I|20110223-23:46:35.854|71|8=FIX.4.2|9=49|35=0|49=LSEHub|56=RBS|34=28|52=20110223-23:46:35|10=046||0|
M|29|0|0|I|20110223-23:47:05.855|71|8=FIX.4.2|9=49|35=0|49=LSEHub|56=RBS|34=29|52=20110223-23:47:05|10=045||0|
M|30|0|0|I|20110223-23:47:35.856|71|8=FIX.4.2|9=49|35=0|49=LSEHub|56=RBS|34=30|52=20110223-23:47:35|10=040||0|
M|31|0|0|I|20110223-23:48:05.857|71|8=FIX.4.2|9=49|35=0|49=LSEHub|56=RBS|34=31|52=20110223-23:48:05|10=039||0|
M|32|0|0|I|20110223-23:48:35.858|71|8=FIX.4.2|9=49|35=0|49=LSEHub|56=RBS|34=32|52=20110223-23:48:35|10=043||0|
M|33|0|0|I|20110223-23:49:05.859|71|8=FIX.4.2|9=49|35=0|49=LSEHub|56=RBS|34=33|52=20110223-23:49:05|10=042||0|
M|34|0|0|I|20110223-23:49:35.860|71|8=FIX.4.2|9=49|35=0|49=LSEHub|56=RBS|34=34|52=20110223-23:49:35|10=046||0|
M|35|0|0|I|20110223-23:50:05.861|71|8=FIX.4.2|9=49|35=0|49=LSEHub|56=RBS|34=35|52=20110223-23:50:05|10=036||0|
M|36|0|0|I|20110223-23:50:35.862|71|8=FIX.4.2|9=49|35=0|49=LSEHub|56=RBS|34=36|52=20110223-23:50:35|10=040||0|
M|37|0|0|I|20110223-23:51:05.863|71|8=FIX.4.2|9=49|35=0|49=LSEHub|56=RBS|34=37|52=20110223-23:51:05|10=039||0|
M|38|0|0|I|20110223-23:51:35.863|71|8=FIX.4.2|9=49|35=0|49=LSEHub|56=RBS|34=38|52=20110223-23:51:35|10=043||0|
M|39|0|0|I|20110223-23:52:05.864|71|8=FIX.4.2|9=49|35=0|49=LSEHub|56=RBS|34=39|52=20110223-23:52:05|10=042||0|
M|40|0|0|I|20110223-23:52:35.865|71|8=FIX.4.2|9=49|35=0|49=LSEHub|56=RBS|34=40|52=20110223-23:52:35|10=037||0|
M|41|0|0|I|20110223-23:53:05.866|71|8=FIX.4.2|9=49|35=0|49=LSEHub|56=RBS|34=41|52=20110223-23:53:05|10=036||0|
M|42|0|0|I|20110223-23:53:35.867|71|8=FIX.4.2|9=49|35=0|49=LSEHub|56=RBS|34=42|52=20110223-23:53:35|10=040||0|
M|43|0|0|I|20110223-23:54:05.868|71|8=FIX.4.2|9=49|35=0|49=LSEHub|56=RBS|34=43|52=20110223-23:54:05|10=039||0|
M|44|0|0|I|20110223-23:54:35.869|71|8=FIX.4.2|9=49|35=0|49=LSEHub|56=RBS|34=44|52=20110223-23:54:35|10=043||0|
M|45|0|0|I|20110223-23:55:05.870|71|8=FIX.4.2|9=49|35=0|49=LSEHub|56=RBS|34=45|52=20110223-23:55:05|10=042||0|
M|46|0|0|I|20110223-23:55:35.871|71|8=FIX.4.2|9=49|35=0|49=LSEHub|56=RBS|34=46|52=20110223-23:55:35|10=046||0|
M|47|0|0|I|20110223-23:56:05.872|71|8=FIX.4.2|9=49|35=0|49=LSEHub|56=RBS|34=47|52=20110223-23:56:05|10=045||0|
M|48|0|0|I|20110223-23:56:35.873|71|8=FIX.4.2|9=49|35=0|49=LSEHub|56=RBS|34=48|52=20110223-23:56:35|10=049||0|
M|49|0|0|I|20110223-23:57:05.874|71|8=FIX.4.2|9=49|35=0|49=LSEHub|56=RBS|34=49|52=20110223-23:57:05|10=048||0|
M|50|0|0|I|20110223-23:57:35.875|71|8=FIX.4.2|9=49|35=0|49=LSEHub|56=RBS|34=50|52=20110223-23:57:35|10=043||0|
M|51|0|0|I|20110223-23:58:05.876|71|8=FIX.4.2|9=49|35=0|49=LSEHub|56=RBS|34=51|52=20110223-23:58:05|10=042||0|
M|52|0|0|I|20110223-23:58:35.877|71|8=FIX.4.2|9=49|35=0|49=LSEHub|56=RBS|34=52|52=20110223-23:58:35|10=046||0|
M|53|0|0|I|20110223-23:59:05.878|71|8=FIX.4.2|9=49|35=0|49=LSEHub|56=RBS|34=53|52=20110223-23:59:05|10=045||0|
M|54|0|0|I|20110223-23:59:35.879|71|8=FIX.4.2|9=49|35=0|49=LSEHub|56=RBS|34=54|52=20110223-23:59:35|10=049||0|
M|55|0|0|I|20110224-00:00:05.880|71|8=FIX.4.2|9=49|35=0|49=LSEHub|56=RBS|34=55|52=20110224-00:00:05|10=029||0|
M|56|0|0|I|20110224-00:00:35.881|71|8=FIX.4.2|9=49|35=0|49=LSEHub|56=RBS|34=56|52=20110224-00:00:35|10=033||0|
M|57|0|0|I|20110224-00:01:05.882|71|8=FIX.4.2|9=49|35=0|49=LSEHub|56=RBS|34=57|52=20110224-00:01:05|10=032||0|
M|58|0|0|I|20110224-00:01:35.882|71|8=FIX.4.2|9=49|35=0|49=LSEHub|56=RBS|34=58|52=20110224-00:01:35|10=036||0|
M|59|0|0|I|20110224-00:02:05.884|71|8=FIX.4.2|9=49|35=0|49=LSEHub|56=RBS|34=59|52=20110224-00:02:05|10=035||0|
M|60|0|0|I|20110224-00:02:35.884|71|8=FIX.4.2|9=49|35=0|49=LSEHub|56=RBS|34=60|52=20110224-00:02:35|10=030||0|
M|61|0|0|I|20110224-00:03:05.886|71|8=FIX.4.2|9=49|35=0|49=LSEHub|56=RBS|34=61|52=20110224-00:03:05|10=029||0|
M|62|0|0|I|20110224-00:03:35.886|71|8=FIX.4.2|9=49|35=0|49=LSEHub|56=RBS|34=62|52=20110224-00:03:35|10=033||0|
M|63|0|0|I|20110224-00:04:05.887|71|8=FIX.4.2|9=49|35=0|49=LSEHub|56=RBS|34=63|52=20110224-00:04:05|10=032||0|
M|64|0|0|I|20110224-00:04:35.888|71|8=FIX.4.2|9=49|35=0|49=LSEHub|56=RBS|34=64|52=20110224-00:04:35|10=036||0|
M|65|0|0|I|20110224-00:05:05.889|71|8=FIX.4.2|9=49|35=0|49=LSEHub|56=RBS|34=65|52=20110224-00:05:05|10=035||0|
M|66|0|0|I|20110224-00:05:35.890|71|8=FIX.4.2|9=49|35=0|49=LSEHub|56=RBS|34=66|52=20110224-00:05:35|10=039||0|
M|67|0|0|I|20110224-00:06:05.891|71|8=FIX.4.2|9=49|35=0|49=LSEHub|56=RBS|34=67|52=20110224-00:06:05|10=038||0|
M|68|0|0|I|20110224-00:06:35.892|71|8=FIX.4.2|9=49|35=0|49=LSEHub|56=RBS|34=68|52=20110224-00:06:35|10=042||0|
M|69|0|0|I|20110224-00:07:05.893|71|8=FIX.4.2|9=49|35=0|49=LSEHub|56=RBS|34=69|52=20110224-00:07:05|10=041||0|
M|70|0|0|I|20110224-00:07:35.894|71|8=FIX.4.2|9=49|35=0|49=LSEHub|56=RBS|34=70|52=20110224-00:07:35|10=036||0|
M|71|0|0|I|20110224-00:08:05.895|71|8=FIX.4.2|9=49|35=0|49=LSEHub|56=RBS|34=71|52=20110224-00:08:05|10=035||0|
M|72|0|0|I|20110224-00:08:35.896|71|8=FIX.4.2|9=49|35=0|49=LSEHub|56=RBS|34=72|52=20110224-00:08:35|10=039||0|
M|73|0|0|I|20110224-00:09:05.897|71|8=FIX.4.2|9=49|35=0|49=LSEHub|56=RBS|34=73|52=20110224-00:09:05|10=038||0|
M|74|0|0|I|20110224-00:09:35.898|71|8=FIX.4.2|9=49|35=0|49=LSEHub|56=RBS|34=74|52=20110224-00:09:35|10=042||0|
M|75|0|0|I|20110224-00:10:05.899|71|8=FIX.4.2|9=49|35=0|49=LSEHub|56=RBS|34=75|52=20110224-00:10:05|10=032||0|
M|76|0|0|I|20110224-00:10:35.900|71|8=FIX.4.2|9=49|35=0|49=LSEHub|56=RBS|34=76|52=20110224-00:10:35|10=036||0|
M|77|0|0|I|20110224-00:11:05.901|71|8=FIX.4.2|9=49|35=0|49=LSEHub|56=RBS|34=77|52=20110224-00:11:05|10=035||0|
M|78|0|0|I|20110224-00:11:35.902|71|8=FIX.4.2|9=49|35=0|49=LSEHub|56=RBS|34=78|52=20110224-00:11:35|10=039||0|
M|79|0|0|I|20110224-00:12:05.903|71|8=FIX.4.2|9=49|35=0|49=LSEHub|56=RBS|34=79|52=20110224-00:12:05|10=038||0|
M|80|0|0|I|20110224-00:12:35.904|71|8=FIX.4.2|9=49|35=0|49=LSEHub|56=RBS|34=80|52=20110224-00:12:35|10=033||0|
M|81|0|0|I|20110224-00:13:05.905|71|8=FIX.4.2|9=49|35=0|49=LSEHub|56=RBS|34=81|52=20110224-00:13:05|10=032||0|
M|82|0|0|I|20110224-00:13:35.905|71|8=FIX.4.2|9=49|35=0|49=LSEHub|56=RBS|34=82|52=20110224-00:13:35|10=036||0|
M|83|0|0|I|20110224-00:14:05.907|71|8=FIX.4.2|9=49|35=0|49=LSEHub|56=RBS|34=83|52=20110224-00:14:05|10=035||0|
M|84|0|0|I|20110224-00:14:35.907|71|8=FIX.4.2|9=49|35=0|49=LSEHub|56=RBS|34=84|52=20110224-00:14:35|10=039||0|
M|85|0|0|I|20110224-00:15:05.908|71|8=FIX.4.2|9=49|35=0|49=LSEHub|56=RBS|34=85|52=20110224-00:15:05|10=038||0|
M|86|0|0|I|20110224-00:15:35.909|71|8=FIX.4.2|9=49|35=0|49=LSEHub|56=RBS|34=86|52=20110224-00:15:35|10=042||0|
M|87|0|0|I|20110224-00:16:05.910|71|8=FIX.4.2|9=49|35=0|49=LSEHub|56=RBS|34=87|52=20110224-00:16:05|10=041||0|
M|88|0|0|I|20110224-00:16:35.911|71|8=FIX.4.2|9=49|35=0|49=LSEHub|56=RBS|34=88|52=20110224-00:16:35|10=045||0|
M|89|0|0|I|20110224-00:17:05.912|71|8=FIX.4.2|9=49|35=0|49=LSEHub|56=RBS|34=89|52=20110224-00:17:05|10=044||0|
M|90|0|0|I|20110224-00:17:35.913|71|8=FIX.4.2|9=49|35=0|49=LSEHub|56=RBS|34=90|52=20110224-00:17:35|10=039||0|
M|91|0|0|I|20110224-00:18:05.914|71|8=FIX.4.2|9=49|35=0|49=LSEHub|56=RBS|34=91|52=20110224-00:18:05|10=038||0|
M|92|0|0|I|20110224-00:18:35.915|71|8=FIX.4.2|9=49|35=0|49=LSEHub|56=RBS|34=92|52=20110224-00:18:35|10=042||0|
M|93|0|0|I|20110224-00:19:05.916|71|8=FIX.4.2|9=49|35=0|49=LSEHub|56=RBS|34=93|52=20110224-00:19:05|10=041||0|
M|94|0|0|I|20110224-00:19:35.917|71|8=FIX.4.2|9=49|35=0|49=LSEHub|56=RBS|34=94|52=20110224-00:19:35|10=045||0|
M|95|0|0|I|20110224-00:20:05.918|71|8=FIX.4.2|9=49|35=0|49=LSEHub|56=RBS|34=95|52=20110224-00:20:05|10=035||0|
M|96|0|0|I|20110224-00:20:35.919|71|8=FIX.4.2|9=49|35=0|49=LSEHub|56=RBS|34=96|52=20110224-00:20:35|10=039||0|
M|97|0|0|I|20110224-00:21:05.920|71|8=FIX.4.2|9=49|35=0|49=LSEHub|56=RBS|34=97|52=20110224-00:21:05|10=038||0|
M|98|0|0|I|20110224-00:21:35.921|71|8=FIX.4.2|9=49|35=0|49=LSEHub|56=RBS|34=98|52=20110224-00:21:35|10=042||0|
M|99|0|0|I|20110224-00:22:05.922|71|8=FIX.4.2|9=49|35=0|49=LSEHub|56=RBS|34=99|52=20110224-00:22:05|10=041||0|
M|100|0|0|I|20110224-00:22:35.923|72|8=FIX.4.2|9=50|35=0|49=LSEHub|56=RBS|34=100|52=20110224-00:22:35|10=067||0|
M|101|0|0|I|20110224-00:23:05.924|72|8=FIX.4.2|9=50|35=0|49=LSEHub|56=RBS|34=101|52=20110224-00:23:05|10=066||0|
M|102|0|0|I|20110224-00:23:35.925|72|8=FIX.4.2|9=50|35=0|49=LSEHub|56=RBS|34=102|52=20110224-00:23:35|10=070||0|
M|103|0|0|I|20110224-00:24:05.926|72|8=FIX.4.2|9=50|35=0|49=LSEHub|56=RBS|34=103|52=20110224-00:24:05|10=069||0|
M|104|0|0|I|20110224-00:24:35.927|72|8=FIX.4.2|9=50|35=0|49=LSEHub|56=RBS|34=104|52=20110224-00:24:35|10=073||0|
M|105|0|0|I|20110224-00:25:05.927|72|8=FIX.4.2|9=50|35=0|49=LSEHub|56=RBS|34=105|52=20110224-00:25:05|10=072||0|
M|106|0|0|I|20110224-00:25:35.928|72|8=FIX.4.2|9=50|35=0|49=LSEHub|56=RBS|34=106|52=20110224-00:25:35|10=076||0|
M|107|0|0|I|20110224-00:26:05.914|72|8=FIX.4.2|9=50|35=0|49=LSEHub|56=RBS|34=107|52=20110224-00:26:05|10=075||0|
M|108|0|0|I|20110224-00:26:35.915|72|8=FIX.4.2|9=50|35=0|49=LSEHub|56=RBS|34=108|52=20110224-00:26:35|10=079||0|
M|109|0|0|I|20110224-00:27:05.916|72|8=FIX.4.2|9=50|35=0|49=LSEHub|56=RBS|34=109|52=20110224-00:27:05|10=078||0|
M|110|0|0|I|20110224-00:27:35.917|72|8=FIX.4.2|9=50|35=0|49=LSEHub|56=RBS|34=110|52=20110224-00:27:35|10=073||0|
M|111|0|0|I|20110224-00:28:05.918|72|8=FIX.4.2|9=50|35=0|49=LSEHub|56=RBS|34=111|52=20110224-00:28:05|10=072||0|
M|112|0|0|I|20110224-00:28:35.919|72|8=FIX.4.2|9=50|35=0|49=LSEHub|56=RBS|34=112|52=20110224-00:28:35|10=076||0|
M|113|0|0|I|20110224-00:29:05.920|72|8=FIX.4.2|9=50|35=0|49=LSEHub|56=RBS|34=113|52=20110224-00:29:05|10=075||0|
M|114|0|0|I|20110224-00:29:35.921|72|8=FIX.4.2|9=50|35=0|49=LSEHub|56=RBS|34=114|52=20110224-00:29:35|10=079||0|
M|115|0|0|I|20110224-00:30:05.921|72|8=FIX.4.2|9=50|35=0|49=LSEHub|56=RBS|34=115|52=20110224-00:30:05|10=069||0|
M|116|0|BD|I|20110224-00:30:34.168|137|8=FIX.4.2|9=114|35=BD|49=LSEHub|56=RBS|34=116|52=20110224-00:30:34|6802=2|6803=NSR-NIMC634341042341501285|6804=1|6805=NIMC|6806=1|10=185||0|
M|117|0|0|I|20110224-00:31:04.158|72|8=FIX.4.2|9=50|35=0|49=LSEHub|56=RBS|34=117|52=20110224-00:31:04|10=071||0|
M|118|0|0|I|20110224-00:31:34.159|72|8=FIX.4.2|9=50|35=0|49=LSEHub|56=RBS|34=118|52=20110224-00:31:34|10=075||0|
M|119|0|0|I|20110224-00:32:04.160|72|8=FIX.4.2|9=50|35=0|49=LSEHub|56=RBS|34=119|52=20110224-00:32:04|10=074||0|
M|120|0|0|I|20110224-00:32:34.161|72|8=FIX.4.2|9=50|35=0|49=LSEHub|56=RBS|34=120|52=20110224-00:32:34|10=069||0|
M|121|0|0|I|20110224-00:33:04.162|72|8=FIX.4.2|9=50|35=0|49=LSEHub|56=RBS|34=121|52=20110224-00:33:04|10=068||0|
M|122|0|0|I|20110224-00:33:34.162|72|8=FIX.4.2|9=50|35=0|49=LSEHub|56=RBS|34=122|52=20110224-00:33:34|10=072||0|
M|123|0|0|I|20110224-00:34:04.163|72|8=FIX.4.2|9=50|35=0|49=LSEHub|56=RBS|34=123|52=20110224-00:34:04|10=071||0|
M|124|0|0|I|20110224-00:34:34.164|72|8=FIX.4.2|9=50|35=0|49=LSEHub|56=RBS|34=124|52=20110224-00:34:34|10=075||0|
M|125|0|0|I|20110224-00:35:04.165|72|8=FIX.4.2|9=50|35=0|49=LSEHub|56=RBS|34=125|52=20110224-00:35:04|10=074||0|
M|126|0|0|I|20110224-00:35:34.166|72|8=FIX.4.2|9=50|35=0|49=LSEHub|56=RBS|34=126|52=20110224-00:35:34|10=078||0|
M|127|0|0|I|20110224-00:36:04.167|72|8=FIX.4.2|9=50|35=0|49=LSEHub|56=RBS|34=127|52=20110224-00:36:04|10=077||0|
M|128|0|0|I|20110224-00:36:34.168|72|8=FIX.4.2|9=50|35=0|49=LSEHub|56=RBS|34=128|52=20110224-00:36:34|10=081||0|
M|129|0|0|I|20110224-00:37:04.169|72|8=FIX.4.2|9=50|35=0|49=LSEHub|56=RBS|34=129|52=20110224-00:37:04|10=080||0|
M|130|0|0|I|20110224-00:37:34.170|72|8=FIX.4.2|9=50|35=0|49=LSEHub|56=RBS|34=130|52=20110224-00:37:34|10=075||0|
M|131|0|0|I|20110224-00:38:04.171|72|8=FIX.4.2|9=50|35=0|49=LSEHub|56=RBS|34=131|52=20110224-00:38:04|10=074||0|
M|132|0|0|I|20110224-00:38:34.172|72|8=FIX.4.2|9=50|35=0|49=LSEHub|56=RBS|34=132|52=20110224-00:38:34|10=078||0|
M|133|0|0|I|20110224-00:39:04.173|72|8=FIX.4.2|9=50|35=0|49=LSEHub|56=RBS|34=133|52=20110224-00:39:04|10=077||0|
M|134|0|0|I|20110224-00:39:34.174|72|8=FIX.4.2|9=50|35=0|49=LSEHub|56=RBS|34=134|52=20110224-00:39:34|10=081||0|
M|135|0|0|I|20110224-00:40:04.175|72|8=FIX.4.2|9=50|35=0|49=LSEHub|56=RBS|34=135|52=20110224-00:40:04|10=071||0|
M|136|0|0|I|20110224-00:40:34.176|72|8=FIX.4.2|9=50|35=0|49=LSEHub|56=RBS|34=136|52=20110224-00:40:34|10=075||0|
M|137|0|0|I|20110224-00:41:04.177|72|8=FIX.4.2|9=50|35=0|49=LSEHub|56=RBS|34=137|52=20110224-00:41:04|10=074||0|
M|138|0|0|I|20110224-00:41:34.178|72|8=FIX.4.2|9=50|35=0|49=LSEHub|56=RBS|34=138|52=20110224-00:41:34|10=078||0|
M|139|0|0|I|20110224-00:42:04.179|72|8=FIX.4.2|9=50|35=0|49=LSEHub|56=RBS|34=139|52=20110224-00:42:04|10=077||0|
M|140|0|0|I|20110224-00:42:34.180|72|8=FIX.4.2|9=50|35=0|49=LSEHub|56=RBS|34=140|52=20110224-00:42:34|10=072||0|
M|141|0|0|I|20110224-00:43:04.181|72|8=FIX.4.2|9=50|35=0|49=LSEHub|56=RBS|34=141|52=20110224-00:43:04|10=071||0|
M|142|0|0|I|20110224-00:43:34.182|72|8=FIX.4.2|9=50|35=0|49=LSEHub|56=RBS|34=142|52=20110224-00:43:34|10=075||0|
M|143|0|0|I|20110224-00:44:04.183|72|8=FIX.4.2|9=50|35=0|49=LSEHub|56=RBS|34=143|52=20110224-00:44:04|10=074||0|
M|144|0|0|I|20110224-00:44:34.183|72|8=FIX.4.2|9=50|35=0|49=LSEHub|56=RBS|34=144|52=20110224-00:44:34|10=078||0|
M|145|0|0|I|20110224-00:45:04.184|72|8=FIX.4.2|9=50|35=0|49=LSEHub|56=RBS|34=145|52=20110224-00:45:04|10=077||0|
M|146|0|0|I|20110224-00:45:34.185|72|8=FIX.4.2|9=50|35=0|49=LSEHub|56=RBS|34=146|52=20110224-00:45:34|10=081||0|
M|147|0|0|I|20110224-00:46:04.186|72|8=FIX.4.2|9=50|35=0|49=LSEHub|56=RBS|34=147|52=20110224-00:46:04|10=080||0|
M|148|0|0|I|20110224-00:46:34.187|72|8=FIX.4.2|9=50|35=0|49=LSEHub|56=RBS|34=148|52=20110224-00:46:34|10=084||0|
M|149|0|0|I|20110224-00:47:04.188|72|8=FIX.4.2|9=50|35=0|49=LSEHub|56=RBS|34=149|52=20110224-00:47:04|10=083||0|
M|150|0|0|I|20110224-00:47:34.189|72|8=FIX.4.2|9=50|35=0|49=LSEHub|56=RBS|34=150|52=20110224-00:47:34|10=078||0|
M|151|0|0|I|20110224-00:48:04.190|72|8=FIX.4.2|9=50|35=0|49=LSEHub|56=RBS|34=151|52=20110224-00:48:04|10=077||0|
M|152|0|0|I|20110224-00:48:34.191|72|8=FIX.4.2|9=50|35=0|49=LSEHub|56=RBS|34=152|52=20110224-00:48:34|10=081||0|
M|153|0|0|I|20110224-00:49:04.192|72|8=FIX.4.2|9=50|35=0|49=LSEHub|56=RBS|34=153|52=20110224-00:49:04|10=080||0|
M|154|0|0|I|20110224-00:49:34.193|72|8=FIX.4.2|9=50|35=0|49=LSEHub|56=RBS|34=154|52=20110224-00:49:34|10=084||0|
M|155|0|0|I|20110224-00:50:04.194|72|8=FIX.4.2|9=50|35=0|49=LSEHub|56=RBS|34=155|52=20110224-00:50:04|10=074||0|
M|156|0|0|I|20110224-00:50:34.195|72|8=FIX.4.2|9=50|35=0|49=LSEHub|56=RBS|34=156|52=20110224-00:50:34|10=078||0|
M|157|0|0|I|20110224-00:51:04.196|72|8=FIX.4.2|9=50|35=0|49=LSEHub|56=RBS|34=157|52=20110224-00:51:04|10=077||0|
M|158|0|0|I|20110224-00:51:34.197|72|8=FIX.4.2|9=50|35=0|49=LSEHub|56=RBS|34=158|52=20110224-00:51:34|10=081||0|
M|159|0|0|I|20110224-00:52:04.198|72|8=FIX.4.2|9=50|35=0|49=LSEHub|56=RBS|34=159|52=20110224-00:52:04|10=080||0|
M|160|0|0|I|20110224-00:52:34.199|72|8=FIX.4.2|9=50|35=0|49=LSEHub|56=RBS|34=160|52=20110224-00:52:34|10=075||0|
M|161|0|0|I|20110224-00:53:04.237|72|8=FIX.4.2|9=50|35=0|49=LSEHub|56=RBS|34=161|52=20110224-00:53:04|10=074||0|
M|162|0|0|I|20110224-00:53:34.201|72|8=FIX.4.2|9=50|35=0|49=LSEHub|56=RBS|34=162|52=20110224-00:53:34|10=078||0|
M|163|0|0|I|20110224-00:54:04.202|72|8=FIX.4.2|9=50|35=0|49=LSEHub|56=RBS|34=163|52=20110224-00:54:04|10=077||0|
M|164|0|0|I|20110224-00:54:34.203|72|8=FIX.4.2|9=50|35=0|49=LSEHub|56=RBS|34=164|52=20110224-00:54:34|10=081||0|
M|165|0|0|I|20110224-00:55:04.204|72|8=FIX.4.2|9=50|35=0|49=LSEHub|56=RBS|34=165|52=20110224-00:55:04|10=080||0|
M|166|0|0|I|20110224-00:55:34.204|72|8=FIX.4.2|9=50|35=0|49=LSEHub|56=RBS|34=166|52=20110224-00:55:34|10=084||0|
M|167|0|0|I|20110224-00:56:04.205|72|8=FIX.4.2|9=50|35=0|49=LSEHub|56=RBS|34=167|52=20110224-00:56:04|10=083||0|
M|168|0|0|I|20110224-00:56:34.206|72|8=FIX.4.2|9=50|35=0|49=LSEHub|56=RBS|34=168|52=20110224-00:56:34|10=087||0|
M|169|0|0|I|20110224-00:57:04.207|72|8=FIX.4.2|9=50|35=0|49=LSEHub|56=RBS|34=169|52=20110224-00:57:04|10=086||0|
M|170|0|0|I|20110224-00:57:34.208|72|8=FIX.4.2|9=50|35=0|49=LSEHub|56=RBS|34=170|52=20110224-00:57:34|10=081||0|
M|171|0|0|I|20110224-00:58:04.209|72|8=FIX.4.2|9=50|35=0|49=LSEHub|56=RBS|34=171|52=20110224-00:58:04|10=080||0|
M|172|0|0|I|20110224-00:58:34.210|72|8=FIX.4.2|9=50|35=0|49=LSEHub|56=RBS|34=172|52=20110224-00:58:34|10=084||0|
M|173|0|0|I|20110224-00:59:04.211|72|8=FIX.4.2|9=50|35=0|49=LSEHub|56=RBS|34=173|52=20110224-00:59:04|10=083||0|
M|174|0|0|I|20110224-00:59:34.212|72|8=FIX.4.2|9=50|35=0|49=LSEHub|56=RBS|34=174|52=20110224-00:59:34|10=087||0|
M|175|0|0|I|20110224-01:00:04.213|72|8=FIX.4.2|9=50|35=0|49=LSEHub|56=RBS|34=175|52=20110224-01:00:04|10=072||0|
M|176|0|0|I|20110224-01:00:34.214|72|8=FIX.4.2|9=50|35=0|49=LSEHub|56=RBS|34=176|52=20110224-01:00:34|10=076||0|
M|177|0|0|I|20110224-01:01:04.215|72|8=FIX.4.2|9=50|35=0|49=LSEHub|56=RBS|34=177|52=20110224-01:01:04|10=075||0|
M|178|0|0|I|20110224-01:01:34.216|72|8=FIX.4.2|9=50|35=0|49=LSEHub|56=RBS|34=178|52=20110224-01:01:34|10=079||0|
M|179|0|0|I|20110224-01:02:04.217|72|8=FIX.4.2|9=50|35=0|49=LSEHub|56=RBS|34=179|52=20110224-01:02:04|10=078||0|
M|180|0|0|I|20110224-01:02:34.218|72|8=FIX.4.2|9=50|35=0|49=LSEHub|56=RBS|34=180|52=20110224-01:02:34|10=073||0|
M|181|0|0|I|20110224-01:03:04.219|72|8=FIX.4.2|9=50|35=0|49=LSEHub|56=RBS|34=181|52=20110224-01:03:04|10=072||0|
M|182|0|0|I|20110224-01:03:34.220|72|8=FIX.4.2|9=50|35=0|49=LSEHub|56=RBS|34=182|52=20110224-01:03:34|10=076||0|
M|183|0|0|I|20110224-01:04:04.221|72|8=FIX.4.2|9=50|35=0|49=LSEHub|56=RBS|34=183|52=20110224-01:04:04|10=075||0|
M|184|0|0|I|20110224-01:04:34.222|72|8=FIX.4.2|9=50|35=0|49=LSEHub|56=RBS|34=184|52=20110224-01:04:34|10=079||0|
M|185|0|0|I|20110224-01:05:04.223|72|8=FIX.4.2|9=50|35=0|49=LSEHub|56=RBS|34=185|52=20110224-01:05:04|10=078||0|
M|186|0|0|I|20110224-01:05:34.224|72|8=FIX.4.2|9=50|35=0|49=LSEHub|56=RBS|34=186|52=20110224-01:05:34|10=082||0|
M|187|0|0|I|20110224-01:06:04.225|72|8=FIX.4.2|9=50|35=0|49=LSEHub|56=RBS|34=187|52=20110224-01:06:04|10=081||0|
M|188|0|0|I|20110224-01:06:34.226|72|8=FIX.4.2|9=50|35=0|49=LSEHub|56=RBS|34=188|52=20110224-01:06:34|10=085||0|
M|189|0|0|I|20110224-01:07:04.211|72|8=FIX.4.2|9=50|35=0|49=LSEHub|56=RBS|34=189|52=20110224-01:07:04|10=084||0|
M|190|0|0|I|20110224-01:07:34.212|72|8=FIX.4.2|9=50|35=0|49=LSEHub|56=RBS|34=190|52=20110224-01:07:34|10=079||0|
M|191|0|0|I|20110224-01:08:04.213|72|8=FIX.4.2|9=50|35=0|49=LSEHub|56=RBS|34=191|52=20110224-01:08:04|10=078||0|
M|192|0|0|I|20110224-01:08:34.214|72|8=FIX.4.2|9=50|35=0|49=LSEHub|56=RBS|34=192|52=20110224-01:08:34|10=082||0|
M|193|0|0|I|20110224-01:09:04.215|72|8=FIX.4.2|9=50|35=0|49=LSEHub|56=RBS|34=193|52=20110224-01:09:04|10=081||0|
M|194|0|0|I|20110224-01:09:34.216|72|8=FIX.4.2|9=50|35=0|49=LSEHub|56=RBS|34=194|52=20110224-01:09:34|10=085||0|
M|195|0|0|I|20110224-01:10:04.217|72|8=FIX.4.2|9=50|35=0|49=LSEHub|56=RBS|34=195|52=20110224-01:10:04|10=075||0|
M|196|0|0|I|20110224-01:10:34.217|72|8=FIX.4.2|9=50|35=0|49=LSEHub|56=RBS|34=196|52=20110224-01:10:34|10=079||0|
M|197|0|0|I|20110224-01:11:04.219|72|8=FIX.4.2|9=50|35=0|49=LSEHub|56=RBS|34=197|52=20110224-01:11:04|10=078||0|
M|198|0|0|I|20110224-01:11:34.219|72|8=FIX.4.2|9=50|35=0|49=LSEHub|56=RBS|34=198|52=20110224-01:11:34|10=082||0|
M|199|0|0|I|20110224-01:12:04.220|72|8=FIX.4.2|9=50|35=0|49=LSEHub|56=RBS|34=199|52=20110224-01:12:04|10=081||0|
M|200|0|0|I|20110224-01:12:34.221|72|8=FIX.4.2|9=50|35=0|49=LSEHub|56=RBS|34=200|52=20110224-01:12:34|10=067||0|
M|201|0|0|I|20110224-01:13:04.222|72|8=FIX.4.2|9=50|35=0|49=LSEHub|56=RBS|34=201|52=20110224-01:13:04|10=066||0|
M|202|0|0|I|20110224-01:13:34.223|72|8=FIX.4.2|9=50|35=0|49=LSEHub|56=RBS|34=202|52=20110224-01:13:34|10=070||0|
M|203|0|0|I|20110224-01:14:04.224|72|8=FIX.4.2|9=50|35=0|49=LSEHub|56=RBS|34=203|52=20110224-01:14:04|10=069||0|
M|204|0|0|I|20110224-01:14:34.225|72|8=FIX.4.2|9=50|35=0|49=LSEHub|56=RBS|34=204|52=20110224-01:14:34|10=073||0|
M|205|0|0|I|20110224-01:15:04.226|72|8=FIX.4.2|9=50|35=0|49=LSEHub|56=RBS|34=205|52=20110224-01:15:04|10=072||0|
M|206|0|0|I|20110224-01:15:34.227|72|8=FIX.4.2|9=50|35=0|49=LSEHub|56=RBS|34=206|52=20110224-01:15:34|10=076||0|
M|207|0|0|I|20110224-01:16:04.228|72|8=FIX.4.2|9=50|35=0|49=LSEHub|56=RBS|34=207|52=20110224-01:16:04|10=075||0|
M|208|0|0|I|20110224-01:16:34.229|72|8=FIX.4.2|9=50|35=0|49=LSEHub|56=RBS|34=208|52=20110224-01:16:34|10=079||0|
M|209|0|0|I|20110224-01:17:04.230|72|8=FIX.4.2|9=50|35=0|49=LSEHub|56=RBS|34=209|52=20110224-01:17:04|10=078||0|
M|210|0|0|I|20110224-01:17:34.231|72|8=FIX.4.2|9=50|35=0|49=LSEHub|56=RBS|34=210|52=20110224-01:17:34|10=073||0|
M|211|0|0|I|20110224-01:18:04.232|72|8=FIX.4.2|9=50|35=0|49=LSEHub|56=RBS|34=211|52=20110224-01:18:04|10=072||0|
M|212|0|0|I|20110224-01:18:34.233|72|8=FIX.4.2|9=50|35=0|49=LSEHub|56=RBS|34=212|52=20110224-01:18:34|10=076||0|
M|213|0|0|I|20110224-01:19:04.234|72|8=FIX.4.2|9=50|35=0|49=LSEHub|56=RBS|34=213|52=20110224-01:19:04|10=075||0|
M|214|0|0|I|20110224-01:19:34.235|72|8=FIX.4.2|9=50|35=0|49=LSEHub|56=RBS|34=214|52=20110224-01:19:34|10=079||0|
M|215|0|0|I|20110224-01:20:04.236|72|8=FIX.4.2|9=50|35=0|49=LSEHub|56=RBS|34=215|52=20110224-01:20:04|10=069||0|
M|216|0|0|I|20110224-01:20:34.237|72|8=FIX.4.2|9=50|35=0|49=LSEHub|56=RBS|34=216|52=20110224-01:20:34|10=073||0|
M|217|0|0|I|20110224-01:21:04.238|72|8=FIX.4.2|9=50|35=0|49=LSEHub|56=RBS|34=217|52=20110224-01:21:04|10=072||0|
M|218|0|0|I|20110224-01:21:34.239|72|8=FIX.4.2|9=50|35=0|49=LSEHub|56=RBS|34=218|52=20110224-01:21:34|10=076||0|
M|219|0|0|I|20110224-01:22:04.240|72|8=FIX.4.2|9=50|35=0|49=LSEHub|56=RBS|34=219|52=20110224-01:22:04|10=075||0|
M|220|0|0|I|20110224-01:22:34.241|72|8=FIX.4.2|9=50|35=0|49=LSEHub|56=RBS|34=220|52=20110224-01:22:34|10=070||0|
M|221|0|0|I|20110224-01:23:04.241|72|8=FIX.4.2|9=50|35=0|49=LSEHub|56=RBS|34=221|52=20110224-01:23:04|10=069||0|
M|222|0|0|I|20110224-01:23:34.242|72|8=FIX.4.2|9=50|35=0|49=LSEHub|56=RBS|34=222|52=20110224-01:23:34|10=073||0|
M|223|0|0|I|20110224-01:24:04.243|72|8=FIX.4.2|9=50|35=0|49=LSEHub|56=RBS|34=223|52=20110224-01:24:04|10=072||0|
M|224|0|0|I|20110224-01:24:34.244|72|8=FIX.4.2|9=50|35=0|49=LSEHub|56=RBS|34=224|52=20110224-01:24:34|10=076||0|
M|225|0|0|I|20110224-01:25:04.245|72|8=FIX.4.2|9=50|35=0|49=LSEHub|56=RBS|34=225|52=20110224-01:25:04|10=075||0|
M|226|0|0|I|20110224-01:25:34.246|72|8=FIX.4.2|9=50|35=0|49=LSEHub|56=RBS|34=226|52=20110224-01:25:34|10=079||0|
M|227|0|0|I|20110224-01:26:04.247|72|8=FIX.4.2|9=50|35=0|49=LSEHub|56=RBS|34=227|52=20110224-01:26:04|10=078||0|
M|228|0|0|I|20110224-01:26:34.248|72|8=FIX.4.2|9=50|35=0|49=LSEHub|56=RBS|34=228|52=20110224-01:26:34|10=082||0|
M|229|0|0|I|20110224-01:27:04.249|72|8=FIX.4.2|9=50|35=0|49=LSEHub|56=RBS|34=229|52=20110224-01:27:04|10=081||0|
M|230|0|0|I|20110224-01:27:34.250|72|8=FIX.4.2|9=50|35=0|49=LSEHub|56=RBS|34=230|52=20110224-01:27:34|10=076||0|
M|231|0|0|I|20110224-01:28:04.251|72|8=FIX.4.2|9=50|35=0|49=LSEHub|56=RBS|34=231|52=20110224-01:28:04|10=075||0|
M|232|0|0|I|20110224-01:28:34.252|72|8=FIX.4.2|9=50|35=0|49=LSEHub|56=RBS|34=232|52=20110224-01:28:34|10=079||0|
M|233|0|0|I|20110224-01:29:04.253|72|8=FIX.4.2|9=50|35=0|49=LSEHub|56=RBS|34=233|52=20110224-01:29:04|10=078||0|
M|234|0|0|I|20110224-01:29:34.254|72|8=FIX.4.2|9=50|35=0|49=LSEHub|56=RBS|34=234|52=20110224-01:29:34|10=082||0|
M|235|0|0|I|20110224-01:30:04.255|72|8=FIX.4.2|9=50|35=0|49=LSEHub|56=RBS|34=235|52=20110224-01:30:04|10=072||0|
M|236|0|0|I|20110224-01:30:34.256|72|8=FIX.4.2|9=50|35=0|49=LSEHub|56=RBS|34=236|52=20110224-01:30:34|10=076||0|
M|237|0|0|I|20110224-01:31:04.257|72|8=FIX.4.2|9=50|35=0|49=LSEHub|56=RBS|34=237|52=20110224-01:31:04|10=075||0|
M|238|0|0|I|20110224-01:31:34.258|72|8=FIX.4.2|9=50|35=0|49=LSEHub|56=RBS|34=238|52=20110224-01:31:34|10=079||0|
M|239|0|0|I|20110224-01:32:04.259|72|8=FIX.4.2|9=50|35=0|49=LSEHub|56=RBS|34=239|52=20110224-01:32:04|10=078||0|
M|240|0|0|I|20110224-01:32:34.260|72|8=FIX.4.2|9=50|35=0|49=LSEHub|56=RBS|34=240|52=20110224-01:32:34|10=073||0|
M|241|0|0|I|20110224-01:33:04.261|72|8=FIX.4.2|9=50|35=0|49=LSEHub|56=RBS|34=241|52=20110224-01:33:04|10=072||0|
M|242|0|0|I|20110224-01:33:34.262|72|8=FIX.4.2|9=50|35=0|49=LSEHub|56=RBS|34=242|52=20110224-01:33:34|10=076||0|
M|243|0|0|I|20110224-01:34:04.263|72|8=FIX.4.2|9=50|35=0|49=LSEHub|56=RBS|34=243|52=20110224-01:34:04|10=075||0|
M|244|0|0|I|20110224-01:34:34.264|72|8=FIX.4.2|9=50|35=0|49=LSEHub|56=RBS|34=244|52=20110224-01:34:34|10=079||0|
M|245|0|0|I|20110224-01:35:04.264|72|8=FIX.4.2|9=50|35=0|49=LSEHub|56=RBS|34=245|52=20110224-01:35:04|10=078||0|
M|246|0|0|I|20110224-01:35:34.265|72|8=FIX.4.2|9=50|35=0|49=LSEHub|56=RBS|34=246|52=20110224-01:35:34|10=082||0|
M|247|0|0|I|20110224-01:36:04.266|72|8=FIX.4.2|9=50|35=0|49=LSEHub|56=RBS|34=247|52=20110224-01:36:04|10=081||0|
M|248|0|0|I|20110224-01:36:34.267|72|8=FIX.4.2|9=50|35=0|49=LSEHub|56=RBS|34=248|52=20110224-01:36:34|10=085||0|
M|249|0|0|I|20110224-01:37:04.268|72|8=FIX.4.2|9=50|35=0|49=LSEHub|56=RBS|34=249|52=20110224-01:37:04|10=084||0|
M|250|0|0|I|20110224-01:37:34.269|72|8=FIX.4.2|9=50|35=0|49=LSEHub|56=RBS|34=250|52=20110224-01:37:34|10=079||0|
M|251|0|0|I|20110224-01:38:04.270|72|8=FIX.4.2|9=50|35=0|49=LSEHub|56=RBS|34=251|52=20110224-01:38:04|10=078||0|
M|252|0|0|I|20110224-01:38:34.271|72|8=FIX.4.2|9=50|35=0|49=LSEHub|56=RBS|34=252|52=20110224-01:38:34|10=082||0|
M|253|0|0|I|20110224-01:39:04.272|72|8=FIX.4.2|9=50|35=0|49=LSEHub|56=RBS|34=253|52=20110224-01:39:04|10=081||0|
M|254|0|0|I|20110224-01:39:34.273|72|8=FIX.4.2|9=50|35=0|49=LSEHub|56=RBS|34=254|52=20110224-01:39:34|10=085||0|
M|255|0|0|I|20110224-01:40:04.274|72|8=FIX.4.2|9=50|35=0|49=LSEHub|56=RBS|34=255|52=20110224-01:40:04|10=075||0|
M|256|0|0|I|20110224-01:40:34.275|72|8=FIX.4.2|9=50|35=0|49=LSEHub|56=RBS|34=256|52=20110224-01:40:34|10=079||0|
M|257|0|0|I|20110224-01:41:04.276|72|8=FIX.4.2|9=50|35=0|49=LSEHub|56=RBS|34=257|52=20110224-01:41:04|10=078||0|
M|258|0|0|I|20110224-01:41:34.277|72|8=FIX.4.2|9=50|35=0|49=LSEHub|56=RBS|34=258|52=20110224-01:41:34|10=082||0|
M|259|0|0|I|20110224-01:42:04.278|72|8=FIX.4.2|9=50|35=0|49=LSEHub|56=RBS|34=259|52=20110224-01:42:04|10=081||0|
M|260|0|0|I|20110224-01:42:34.279|72|8=FIX.4.2|9=50|35=0|49=LSEHub|56=RBS|34=260|52=20110224-01:42:34|10=076||0|
M|261|0|0|I|20110224-01:43:04.280|72|8=FIX.4.2|9=50|35=0|49=LSEHub|56=RBS|34=261|52=20110224-01:43:04|10=075||0|
M|262|0|0|I|20110224-01:43:34.281|72|8=FIX.4.2|9=50|35=0|49=LSEHub|56=RBS|34=262|52=20110224-01:43:34|10=079||0|
M|263|0|0|I|20110224-01:44:04.282|72|8=FIX.4.2|9=50|35=0|49=LSEHub|56=RBS|34=263|52=20110224-01:44:04|10=078||0|
M|264|0|0|I|20110224-01:44:34.283|72|8=FIX.4.2|9=50|35=0|49=LSEHub|56=RBS|34=264|52=20110224-01:44:34|10=082||0|
M|265|0|0|I|20110224-01:45:04.284|72|8=FIX.4.2|9=50|35=0|49=LSEHub|56=RBS|34=265|52=20110224-01:45:04|10=081||0|
M|266|0|0|I|20110224-01:45:34.284|72|8=FIX.4.2|9=50|35=0|49=LSEHub|56=RBS|34=266|52=20110224-01:45:34|10=085||0|
M|267|0|0|I|20110224-01:46:04.285|72|8=FIX.4.2|9=50|35=0|49=LSEHub|56=RBS|34=267|52=20110224-01:46:04|10=084||0|
M|268|0|0|I|20110224-01:46:34.286|72|8=FIX.4.2|9=50|35=0|49=LSEHub|56=RBS|34=268|52=20110224-01:46:34|10=088||0|
M|269|0|0|I|20110224-01:47:04.287|72|8=FIX.4.2|9=50|35=0|49=LSEHub|56=RBS|34=269|52=20110224-01:47:04|10=087||0|
M|270|0|0|I|20110224-01:47:34.288|72|8=FIX.4.2|9=50|35=0|49=LSEHub|56=RBS|34=270|52=20110224-01:47:34|10=082||0|
M|271|0|0|I|20110224-01:48:04.289|72|8=FIX.4.2|9=50|35=0|49=LSEHub|56=RBS|34=271|52=20110224-01:48:04|10=081||0|
M|272|0|0|I|20110224-01:48:34.290|72|8=FIX.4.2|9=50|35=0|49=LSEHub|56=RBS|34=272|52=20110224-01:48:34|10=085||0|
M|273|0|0|I|20110224-01:49:04.291|72|8=FIX.4.2|9=50|35=0|49=LSEHub|56=RBS|34=273|52=20110224-01:49:04|10=084||0|
M|274|0|0|I|20110224-01:49:34.292|72|8=FIX.4.2|9=50|35=0|49=LSEHub|56=RBS|34=274|52=20110224-01:49:34|10=088||0|
M|275|0|0|I|20110224-01:50:04.293|72|8=FIX.4.2|9=50|35=0|49=LSEHub|56=RBS|34=275|52=20110224-01:50:04|10=078||0|
M|276|0|0|I|20110224-01:50:34.294|72|8=FIX.4.2|9=50|35=0|49=LSEHub|56=RBS|34=276|52=20110224-01:50:34|10=082||0|
M|277|0|0|I|20110224-01:51:04.295|72|8=FIX.4.2|9=50|35=0|49=LSEHub|56=RBS|34=277|52=20110224-01:51:04|10=081||0|
M|278|0|0|I|20110224-01:51:34.296|72|8=FIX.4.2|9=50|35=0|49=LSEHub|56=RBS|34=278|52=20110224-01:51:34|10=085||0|
M|279|0|0|I|20110224-01:52:04.312|72|8=FIX.4.2|9=50|35=0|49=LSEHub|56=RBS|34=279|52=20110224-01:52:04|10=084||0|
M|280|0|0|I|20110224-01:52:34.345|72|8=FIX.4.2|9=50|35=0|49=LSEHub|56=RBS|34=280|52=20110224-01:52:34|10=079||0|
M|281|0|0|I|20110224-01:53:04.346|72|8=FIX.4.2|9=50|35=0|49=LSEHub|56=RBS|34=281|52=20110224-01:53:04|10=078||0|
M|282|0|0|I|20110224-01:53:34.346|72|8=FIX.4.2|9=50|35=0|49=LSEHub|56=RBS|34=282|52=20110224-01:53:34|10=082||0|
M|283|0|0|I|20110224-01:54:04.347|72|8=FIX.4.2|9=50|35=0|49=LSEHub|56=RBS|34=283|52=20110224-01:54:04|10=081||0|
M|284|0|0|I|20110224-01:54:34.348|72|8=FIX.4.2|9=50|35=0|49=LSEHub|56=RBS|34=284|52=20110224-01:54:34|10=085||0|
M|285|0|0|I|20110224-01:55:04.349|72|8=FIX.4.2|9=50|35=0|49=LSEHub|56=RBS|34=285|52=20110224-01:55:04|10=084||0|
M|286|0|0|I|20110224-01:55:34.350|72|8=FIX.4.2|9=50|35=0|49=LSEHub|56=RBS|34=286|52=20110224-01:55:34|10=088||0|
M|287|0|0|I|20110224-01:56:04.351|72|8=FIX.4.2|9=50|35=0|49=LSEHub|56=RBS|34=287|52=20110224-01:56:04|10=087||0|
M|288|0|0|I|20110224-01:56:34.352|72|8=FIX.4.2|9=50|35=0|49=LSEHub|56=RBS|34=288|52=20110224-01:56:34|10=091||0|
M|289|0|0|I|20110224-01:57:04.353|72|8=FIX.4.2|9=50|35=0|49=LSEHub|56=RBS|34=289|52=20110224-01:57:04|10=090||0|
M|290|0|0|I|20110224-01:57:34.354|72|8=FIX.4.2|9=50|35=0|49=LSEHub|56=RBS|34=290|52=20110224-01:57:34|10=085||0|
M|291|0|0|I|20110224-01:58:04.355|72|8=FIX.4.2|9=50|35=0|49=LSEHub|56=RBS|34=291|52=20110224-01:58:04|10=084||0|
M|292|0|0|I|20110224-01:58:34.356|72|8=FIX.4.2|9=50|35=0|49=LSEHub|56=RBS|34=292|52=20110224-01:58:34|10=088||0|
M|293|0|0|I|20110224-01:59:04.357|72|8=FIX.4.2|9=50|35=0|49=LSEHub|56=RBS|34=293|52=20110224-01:59:04|10=087||0|
M|294|0|0|I|20110224-01:59:34.358|72|8=FIX.4.2|9=50|35=0|49=LSEHub|56=RBS|34=294|52=20110224-01:59:34|10=091||0|
M|295|0|0|I|20110224-02:00:04.359|72|8=FIX.4.2|9=50|35=0|49=LSEHub|56=RBS|34=295|52=20110224-02:00:04|10=076||0|
M|296|0|0|I|20110224-02:00:34.360|72|8=FIX.4.2|9=50|35=0|49=LSEHub|56=RBS|34=296|52=20110224-02:00:34|10=080||0|
M|297|0|0|I|20110224-02:01:04.361|72|8=FIX.4.2|9=50|35=0|49=LSEHub|56=RBS|34=297|52=20110224-02:01:04|10=079||0|
M|298|0|0|I|20110224-02:01:34.362|72|8=FIX.4.2|9=50|35=0|49=LSEHub|56=RBS|34=298|52=20110224-02:01:34|10=083||0|
M|299|0|0|I|20110224-02:02:04.363|72|8=FIX.4.2|9=50|35=0|49=LSEHub|56=RBS|34=299|52=20110224-02:02:04|10=082||0|
M|300|0|0|I|20110224-02:02:34.364|72|8=FIX.4.2|9=50|35=0|49=LSEHub|56=RBS|34=300|52=20110224-02:02:34|10=068||0|
M|301|0|0|I|20110224-02:03:04.365|72|8=FIX.4.2|9=50|35=0|49=LSEHub|56=RBS|34=301|52=20110224-02:03:04|10=067||0|
M|302|0|0|I|20110224-02:03:34.366|72|8=FIX.4.2|9=50|35=0|49=LSEHub|56=RBS|34=302|52=20110224-02:03:34|10=071||0|
M|303|0|0|I|20110224-02:04:04.367|72|8=FIX.4.2|9=50|35=0|49=LSEHub|56=RBS|34=303|52=20110224-02:04:04|10=070||0|
M|304|0|0|I|20110224-02:04:34.368|72|8=FIX.4.2|9=50|35=0|49=LSEHub|56=RBS|34=304|52=20110224-02:04:34|10=074||0|
M|305|0|0|I|20110224-02:05:04.369|72|8=FIX.4.2|9=50|35=0|49=LSEHub|56=RBS|34=305|52=20110224-02:05:04|10=073||0|
M|306|0|0|I|20110224-02:05:34.369|72|8=FIX.4.2|9=50|35=0|49=LSEHub|56=RBS|34=306|52=20110224-02:05:34|10=077||0|
M|307|0|0|I|20110224-02:06:04.370|72|8=FIX.4.2|9=50|35=0|49=LSEHub|56=RBS|34=307|52=20110224-02:06:04|10=076||0|
M|308|0|0|I|20110224-02:06:34.372|72|8=FIX.4.2|9=50|35=0|49=LSEHub|56=RBS|34=308|52=20110224-02:06:34|10=080||0|
M|309|0|0|I|20110224-02:07:04.372|72|8=FIX.4.2|9=50|35=0|49=LSEHub|56=RBS|34=309|52=20110224-02:07:04|10=079||0|
M|310|0|0|I|20110224-02:07:34.373|72|8=FIX.4.2|9=50|35=0|49=LSEHub|56=RBS|34=310|52=20110224-02:07:34|10=074||0|
M|311|0|0|I|20110224-02:08:04.374|72|8=FIX.4.2|9=50|35=0|49=LSEHub|56=RBS|34=311|52=20110224-02:08:04|10=073||0|
M|312|0|0|I|20110224-02:08:34.375|72|8=FIX.4.2|9=50|35=0|49=LSEHub|56=RBS|34=312|52=20110224-02:08:34|10=077||0|
M|313|0|0|I|20110224-02:09:04.376|72|8=FIX.4.2|9=50|35=0|49=LSEHub|56=RBS|34=313|52=20110224-02:09:04|10=076||0|
M|314|0|0|I|20110224-02:09:34.377|72|8=FIX.4.2|9=50|35=0|49=LSEHub|56=RBS|34=314|52=20110224-02:09:34|10=080||0|
M|315|0|0|I|20110224-02:10:04.378|72|8=FIX.4.2|9=50|35=0|49=LSEHub|56=RBS|34=315|52=20110224-02:10:04|10=070||0|
M|316|0|0|I|20110224-02:10:34.379|72|8=FIX.4.2|9=50|35=0|49=LSEHub|56=RBS|34=316|52=20110224-02:10:34|10=074||0|
M|317|0|0|I|20110224-02:11:04.380|72|8=FIX.4.2|9=50|35=0|49=LSEHub|56=RBS|34=317|52=20110224-02:11:04|10=073||0|
M|318|0|0|I|20110224-02:11:34.381|72|8=FIX.4.2|9=50|35=0|49=LSEHub|56=RBS|34=318|52=20110224-02:11:34|10=077||0|
M|319|0|0|I|20110224-02:12:04.382|72|8=FIX.4.2|9=50|35=0|49=LSEHub|56=RBS|34=319|52=20110224-02:12:04|10=076||0|
M|320|0|0|I|20110224-02:12:34.383|72|8=FIX.4.2|9=50|35=0|49=LSEHub|56=RBS|34=320|52=20110224-02:12:34|10=071||0|
M|321|0|0|I|20110224-02:13:04.384|72|8=FIX.4.2|9=50|35=0|49=LSEHub|56=RBS|34=321|52=20110224-02:13:04|10=070||0|
M|322|0|0|I|20110224-02:13:34.390|72|8=FIX.4.2|9=50|35=0|49=LSEHub|56=RBS|34=322|52=20110224-02:13:34|10=074||0|
M|323|0|0|I|20110224-02:14:04.386|72|8=FIX.4.2|9=50|35=0|49=LSEHub|56=RBS|34=323|52=20110224-02:14:04|10=073||0|
M|324|0|0|I|20110224-02:14:34.387|72|8=FIX.4.2|9=50|35=0|49=LSEHub|56=RBS|34=324|52=20110224-02:14:34|10=077||0|
M|325|0|0|I|20110224-02:15:04.388|72|8=FIX.4.2|9=50|35=0|49=LSEHub|56=RBS|34=325|52=20110224-02:15:04|10=076||0|
M|326|0|0|I|20110224-02:15:34.389|72|8=FIX.4.2|9=50|35=0|49=LSEHub|56=RBS|34=326|52=20110224-02:15:34|10=080||0|
M|327|0|0|I|20110224-02:16:04.390|72|8=FIX.4.2|9=50|35=0|49=LSEHub|56=RBS|34=327|52=20110224-02:16:04|10=079||0|
M|328|0|0|I|20110224-02:16:34.391|72|8=FIX.4.2|9=50|35=0|49=LSEHub|56=RBS|34=328|52=20110224-02:16:34|10=083||0|
M|329|0|0|I|20110224-02:17:04.391|72|8=FIX.4.2|9=50|35=0|49=LSEHub|56=RBS|34=329|52=20110224-02:17:04|10=082||0|
M|330|0|0|I|20110224-02:17:34.393|72|8=FIX.4.2|9=50|35=0|49=LSEHub|56=RBS|34=330|52=20110224-02:17:34|10=077||0|
M|331|0|0|I|20110224-02:18:04.393|72|8=FIX.4.2|9=50|35=0|49=LSEHub|56=RBS|34=331|52=20110224-02:18:04|10=076||0|
M|332|0|0|I|20110224-02:18:34.394|72|8=FIX.4.2|9=50|35=0|49=LSEHub|56=RBS|34=332|52=20110224-02:18:34|10=080||0|
M|333|0|0|I|20110224-02:19:04.395|72|8=FIX.4.2|9=50|35=0|49=LSEHub|56=RBS|34=333|52=20110224-02:19:04|10=079||0|
M|334|0|0|I|20110224-02:19:34.396|72|8=FIX.4.2|9=50|35=0|49=LSEHub|56=RBS|34=334|52=20110224-02:19:34|10=083||0|
M|335|0|0|I|20110224-02:20:04.397|72|8=FIX.4.2|9=50|35=0|49=LSEHub|56=RBS|34=335|52=20110224-02:20:04|10=073||0|
M|336|0|0|I|20110224-02:20:34.398|72|8=FIX.4.2|9=50|35=0|49=LSEHub|56=RBS|34=336|52=20110224-02:20:34|10=077||0|
M|337|0|0|I|20110224-02:21:04.399|72|8=FIX.4.2|9=50|35=0|49=LSEHub|56=RBS|34=337|52=20110224-02:21:04|10=076||0|
M|338|0|0|I|20110224-02:21:34.400|72|8=FIX.4.2|9=50|35=0|49=LSEHub|56=RBS|34=338|52=20110224-02:21:34|10=080||0|
M|339|0|0|I|20110224-02:22:04.401|72|8=FIX.4.2|9=50|35=0|49=LSEHub|56=RBS|34=339|52=20110224-02:22:04|10=079||0|
M|340|0|0|I|20110224-02:22:34.402|72|8=FIX.4.2|9=50|35=0|49=LSEHub|56=RBS|34=340|52=20110224-02:22:34|10=074||0|
M|341|0|0|I|20110224-02:23:04.403|72|8=FIX.4.2|9=50|35=0|49=LSEHub|56=RBS|34=341|52=20110224-02:23:04|10=073||0|
M|342|0|0|I|20110224-02:23:34.404|72|8=FIX.4.2|9=50|35=0|49=LSEHub|56=RBS|34=342|52=20110224-02:23:34|10=077||0|
M|343|0|0|I|20110224-02:24:04.405|72|8=FIX.4.2|9=50|35=0|49=LSEHub|56=RBS|34=343|52=20110224-02:24:04|10=076||0|
M|344|0|0|I|20110224-02:24:34.406|72|8=FIX.4.2|9=50|35=0|49=LSEHub|56=RBS|34=344|52=20110224-02:24:34|10=080||0|
M|345|0|0|I|20110224-02:25:04.407|72|8=FIX.4.2|9=50|35=0|49=LSEHub|56=RBS|34=345|52=20110224-02:25:04|10=079||0|
M|346|0|0|I|20110224-02:25:34.408|72|8=FIX.4.2|9=50|35=0|49=LSEHub|56=RBS|34=346|52=20110224-02:25:34|10=083||0|
M|347|0|0|I|20110224-02:26:04.409|72|8=FIX.4.2|9=50|35=0|49=LSEHub|56=RBS|34=347|52=20110224-02:26:04|10=082||0|
M|348|0|0|I|20110224-02:26:34.410|72|8=FIX.4.2|9=50|35=0|49=LSEHub|56=RBS|34=348|52=20110224-02:26:34|10=086||0|
M|349|0|0|I|20110224-02:27:04.410|72|8=FIX.4.2|9=50|35=0|49=LSEHub|56=RBS|34=349|52=20110224-02:27:04|10=085||0|
M|350|0|0|I|20110224-02:27:34.412|72|8=FIX.4.2|9=50|35=0|49=LSEHub|56=RBS|34=350|52=20110224-02:27:34|10=080||0|
M|351|0|0|I|20110224-02:28:04.413|72|8=FIX.4.2|9=50|35=0|49=LSEHub|56=RBS|34=351|52=20110224-02:28:04|10=079||0|
M|352|0|0|I|20110224-02:28:34.413|72|8=FIX.4.2|9=50|35=0|49=LSEHub|56=RBS|34=352|52=20110224-02:28:34|10=083||0|
M|353|0|0|I|20110224-02:29:04.414|72|8=FIX.4.2|9=50|35=0|49=LSEHub|56=RBS|34=353|52=20110224-02:29:04|10=082||0|
M|354|0|0|I|20110224-02:29:34.415|72|8=FIX.4.2|9=50|35=0|49=LSEHub|56=RBS|34=354|52=20110224-02:29:34|10=086||0|
M|355|0|0|I|20110224-02:30:04.416|72|8=FIX.4.2|9=50|35=0|49=LSEHub|56=RBS|34=355|52=20110224-02:30:04|10=076||0|
M|356|0|0|I|20110224-02:30:34.417|72|8=FIX.4.2|9=50|35=0|49=LSEHub|56=RBS|34=356|52=20110224-02:30:34|10=080||0|
M|357|0|0|I|20110224-02:31:04.418|72|8=FIX.4.2|9=50|35=0|49=LSEHub|56=RBS|34=357|52=20110224-02:31:04|10=079||0|
M|358|0|0|I|20110224-02:31:34.419|72|8=FIX.4.2|9=50|35=0|49=LSEHub|56=RBS|34=358|52=20110224-02:31:34|10=083||0|
M|359|0|0|I|20110224-02:32:04.420|72|8=FIX.4.2|9=50|35=0|49=LSEHub|56=RBS|34=359|52=20110224-02:32:04|10=082||0|
M|360|0|0|I|20110224-02:32:34.449|72|8=FIX.4.2|9=50|35=0|49=LSEHub|56=RBS|34=360|52=20110224-02:32:34|10=077||0|
M|361|0|0|I|20110224-02:33:04.422|72|8=FIX.4.2|9=50|35=0|49=LSEHub|56=RBS|34=361|52=20110224-02:33:04|10=076||0|
M|362|0|0|I|20110224-02:33:34.423|72|8=FIX.4.2|9=50|35=0|49=LSEHub|56=RBS|34=362|52=20110224-02:33:34|10=080||0|
M|363|0|0|I|20110224-02:34:04.424|72|8=FIX.4.2|9=50|35=0|49=LSEHub|56=RBS|34=363|52=20110224-02:34:04|10=079||0|
M|364|0|0|I|20110224-02:34:34.425|72|8=FIX.4.2|9=50|35=0|49=LSEHub|56=RBS|34=364|52=20110224-02:34:34|10=083||0|
M|365|0|0|I|20110224-02:35:04.426|72|8=FIX.4.2|9=50|35=0|49=LSEHub|56=RBS|34=365|52=20110224-02:35:04|10=082||0|
M|366|0|0|I|20110224-02:35:34.427|72|8=FIX.4.2|9=50|35=0|49=LSEHub|56=RBS|34=366|52=20110224-02:35:34|10=086||0|
M|367|0|0|I|20110224-02:36:04.428|72|8=FIX.4.2|9=50|35=0|49=LSEHub|56=RBS|34=367|52=20110224-02:36:04|10=085||0|
M|368|0|0|I|20110224-02:36:34.429|72|8=FIX.4.2|9=50|35=0|49=LSEHub|56=RBS|34=368|52=20110224-02:36:34|10=089||0|
M|369|0|0|I|20110224-02:37:04.430|72|8=FIX.4.2|9=50|35=0|49=LSEHub|56=RBS|34=369|52=20110224-02:37:04|10=088||0|
M|370|0|0|I|20110224-02:37:34.430|72|8=FIX.4.2|9=50|35=0|49=LSEHub|56=RBS|34=370|52=20110224-02:37:34|10=083||0|
M|371|0|0|I|20110224-02:38:04.432|72|8=FIX.4.2|9=50|35=0|49=LSEHub|56=RBS|34=371|52=20110224-02:38:04|10=082||0|
M|372|0|0|I|20110224-02:38:34.433|72|8=FIX.4.2|9=50|35=0|49=LSEHub|56=RBS|34=372|52=20110224-02:38:34|10=086||0|
M|373|0|0|I|20110224-02:39:04.433|72|8=FIX.4.2|9=50|35=0|49=LSEHub|56=RBS|34=373|52=20110224-02:39:04|10=085||0|
M|374|0|0|I|20110224-02:39:34.434|72|8=FIX.4.2|9=50|35=0|49=LSEHub|56=RBS|34=374|52=20110224-02:39:34|10=089||0|
M|375|0|0|I|20110224-02:40:04.435|72|8=FIX.4.2|9=50|35=0|49=LSEHub|56=RBS|34=375|52=20110224-02:40:04|10=079||0|
M|376|0|0|I|20110224-02:40:34.436|72|8=FIX.4.2|9=50|35=0|49=LSEHub|56=RBS|34=376|52=20110224-02:40:34|10=083||0|
M|377|0|0|I|20110224-02:41:04.437|72|8=FIX.4.2|9=50|35=0|49=LSEHub|56=RBS|34=377|52=20110224-02:41:04|10=082||0|
M|378|0|0|I|20110224-02:41:34.438|72|8=FIX.4.2|9=50|35=0|49=LSEHub|56=RBS|34=378|52=20110224-02:41:34|10=086||0|
M|379|0|0|I|20110224-02:42:04.439|72|8=FIX.4.2|9=50|35=0|49=LSEHub|56=RBS|34=379|52=20110224-02:42:04|10=085||0|
M|380|0|0|I|20110224-02:42:34.440|72|8=FIX.4.2|9=50|35=0|49=LSEHub|56=RBS|34=380|52=20110224-02:42:34|10=080||0|
M|381|0|0|I|20110224-02:43:04.441|72|8=FIX.4.2|9=50|35=0|49=LSEHub|56=RBS|34=381|52=20110224-02:43:04|10=079||0|
M|382|0|0|I|20110224-02:43:34.442|72|8=FIX.4.2|9=50|35=0|49=LSEHub|56=RBS|34=382|52=20110224-02:43:34|10=083||0|
M|383|0|0|I|20110224-02:44:04.443|72|8=FIX.4.2|9=50|35=0|49=LSEHub|56=RBS|34=383|52=20110224-02:44:04|10=082||0|
M|384|0|0|I|20110224-02:44:34.444|72|8=FIX.4.2|9=50|35=0|49=LSEHub|56=RBS|34=384|52=20110224-02:44:34|10=086||0|
M|385|0|0|I|20110224-02:45:04.445|72|8=FIX.4.2|9=50|35=0|49=LSEHub|56=RBS|34=385|52=20110224-02:45:04|10=085||0|
M|386|0|0|I|20110224-02:45:34.446|72|8=FIX.4.2|9=50|35=0|49=LSEHub|56=RBS|34=386|52=20110224-02:45:34|10=089||0|
M|387|0|0|I|20110224-02:46:04.447|72|8=FIX.4.2|9=50|35=0|49=LSEHub|56=RBS|34=387|52=20110224-02:46:04|10=088||0|
M|388|0|0|I|20110224-02:46:34.448|72|8=FIX.4.2|9=50|35=0|49=LSEHub|56=RBS|34=388|52=20110224-02:46:34|10=092||0|
M|389|0|0|I|20110224-02:47:04.448|72|8=FIX.4.2|9=50|35=0|49=LSEHub|56=RBS|34=389|52=20110224-02:47:04|10=091||0|
M|390|0|0|I|20110224-02:47:34.449|72|8=FIX.4.2|9=50|35=0|49=LSEHub|56=RBS|34=390|52=20110224-02:47:34|10=086||0|
M|391|0|0|I|20110224-02:48:04.450|72|8=FIX.4.2|9=50|35=0|49=LSEHub|56=RBS|34=391|52=20110224-02:48:04|10=085||0|
M|392|0|0|I|20110224-02:48:34.451|72|8=FIX.4.2|9=50|35=0|49=LSEHub|56=RBS|34=392|52=20110224-02:48:34|10=089||0|
M|393|0|0|I|20110224-02:49:04.452|72|8=FIX.4.2|9=50|35=0|49=LSEHub|56=RBS|34=393|52=20110224-02:49:04|10=088||0|
M|394|0|0|I|20110224-02:49:34.453|72|8=FIX.4.2|9=50|35=0|49=LSEHub|56=RBS|34=394|52=20110224-02:49:34|10=092||0|
M|395|0|0|I|20110224-02:50:04.454|72|8=FIX.4.2|9=50|35=0|49=LSEHub|56=RBS|34=395|52=20110224-02:50:04|10=082||0|
M|396|0|0|I|20110224-02:50:34.455|72|8=FIX.4.2|9=50|35=0|49=LSEHub|56=RBS|34=396|52=20110224-02:50:34|10=086||0|
M|397|0|0|I|20110224-02:51:04.456|72|8=FIX.4.2|9=50|35=0|49=LSEHub|56=RBS|34=397|52=20110224-02:51:04|10=085||0|
M|398|0|0|I|20110224-02:51:34.457|72|8=FIX.4.2|9=50|35=0|49=LSEHub|56=RBS|34=398|52=20110224-02:51:34|10=089||0|
M|399|0|0|I|20110224-02:52:04.458|72|8=FIX.4.2|9=50|35=0|49=LSEHub|56=RBS|34=399|52=20110224-02:52:04|10=088||0|
M|400|0|0|I|20110224-02:52:34.459|72|8=FIX.4.2|9=50|35=0|49=LSEHub|56=RBS|34=400|52=20110224-02:52:34|10=074||0|
M|401|0|0|I|20110224-02:53:04.460|72|8=FIX.4.2|9=50|35=0|49=LSEHub|56=RBS|34=401|52=20110224-02:53:04|10=073||0|
M|402|0|0|I|20110224-02:53:34.461|72|8=FIX.4.2|9=50|35=0|49=LSEHub|56=RBS|34=402|52=20110224-02:53:34|10=077||0|
M|403|0|0|I|20110224-02:54:04.462|72|8=FIX.4.2|9=50|35=0|49=LSEHub|56=RBS|34=403|52=20110224-02:54:04|10=076||0|
M|404|0|0|I|20110224-02:54:34.463|72|8=FIX.4.2|9=50|35=0|49=LSEHub|56=RBS|34=404|52=20110224-02:54:34|10=080||0|
M|405|0|0|I|20110224-02:55:04.464|72|8=FIX.4.2|9=50|35=0|49=LSEHub|56=RBS|34=405|52=20110224-02:55:04|10=079||0|
M|406|0|0|I|20110224-02:55:34.465|72|8=FIX.4.2|9=50|35=0|49=LSEHub|56=RBS|34=406|52=20110224-02:55:34|10=083||0|
M|407|0|0|I|20110224-02:56:04.466|72|8=FIX.4.2|9=50|35=0|49=LSEHub|56=RBS|34=407|52=20110224-02:56:04|10=082||0|
M|408|0|0|I|20110224-02:56:34.467|72|8=FIX.4.2|9=50|35=0|49=LSEHub|56=RBS|34=408|52=20110224-02:56:34|10=086||0|
M|409|0|0|I|20110224-02:57:04.467|72|8=FIX.4.2|9=50|35=0|49=LSEHub|56=RBS|34=409|52=20110224-02:57:04|10=085||0|
M|410|0|0|I|20110224-02:57:34.469|72|8=FIX.4.2|9=50|35=0|49=LSEHub|56=RBS|34=410|52=20110224-02:57:34|10=080||0|
M|411|0|0|I|20110224-02:58:04.470|72|8=FIX.4.2|9=50|35=0|49=LSEHub|56=RBS|34=411|52=20110224-02:58:04|10=079||0|
M|412|0|0|I|20110224-02:58:34.470|72|8=FIX.4.2|9=50|35=0|49=LSEHub|56=RBS|34=412|52=20110224-02:58:34|10=083||0|
M|413|0|0|I|20110224-02:59:04.493|72|8=FIX.4.2|9=50|35=0|49=LSEHub|56=RBS|34=413|52=20110224-02:59:04|10=082||0|
M|414|0|0|I|20110224-02:59:34.472|72|8=FIX.4.2|9=50|35=0|49=LSEHub|56=RBS|34=414|52=20110224-02:59:34|10=086||0|
M|415|0|0|I|20110224-03:00:04.473|72|8=FIX.4.2|9=50|35=0|49=LSEHub|56=RBS|34=415|52=20110224-03:00:04|10=071||0|
M|416|0|0|I|20110224-03:00:34.474|72|8=FIX.4.2|9=50|35=0|49=LSEHub|56=RBS|34=416|52=20110224-03:00:34|10=075||0|
M|417|0|0|I|20110224-03:01:04.475|72|8=FIX.4.2|9=50|35=0|49=LSEHub|56=RBS|34=417|52=20110224-03:01:04|10=074||0|
M|418|0|0|I|20110224-03:01:34.476|72|8=FIX.4.2|9=50|35=0|49=LSEHub|56=RBS|34=418|52=20110224-03:01:34|10=078||0|
M|419|0|0|I|20110224-03:02:04.477|72|8=FIX.4.2|9=50|35=0|49=LSEHub|56=RBS|34=419|52=20110224-03:02:04|10=077||0|
M|420|0|0|I|20110224-03:02:34.478|72|8=FIX.4.2|9=50|35=0|49=LSEHub|56=RBS|34=420|52=20110224-03:02:34|10=072||0|
M|421|0|0|I|20110224-03:03:04.479|72|8=FIX.4.2|9=50|35=0|49=LSEHub|56=RBS|34=421|52=20110224-03:03:04|10=071||0|
M|422|0|0|I|20110224-03:03:34.480|72|8=FIX.4.2|9=50|35=0|49=LSEHub|56=RBS|34=422|52=20110224-03:03:34|10=075||0|
M|423|0|0|I|20110224-03:04:04.481|72|8=FIX.4.2|9=50|35=0|49=LSEHub|56=RBS|34=423|52=20110224-03:04:04|10=074||0|
M|424|0|0|I|20110224-03:04:34.482|72|8=FIX.4.2|9=50|35=0|49=LSEHub|56=RBS|34=424|52=20110224-03:04:34|10=078||0|
M|425|0|0|I|20110224-03:05:04.483|72|8=FIX.4.2|9=50|35=0|49=LSEHub|56=RBS|34=425|52=20110224-03:05:04|10=077||0|
M|426|0|0|I|20110224-03:05:34.484|72|8=FIX.4.2|9=50|35=0|49=LSEHub|56=RBS|34=426|52=20110224-03:05:34|10=081||0|
M|427|0|0|I|20110224-03:06:04.485|72|8=FIX.4.2|9=50|35=0|49=LSEHub|56=RBS|34=427|52=20110224-03:06:04|10=080||0|
M|428|0|0|I|20110224-03:06:34.486|72|8=FIX.4.2|9=50|35=0|49=LSEHub|56=RBS|34=428|52=20110224-03:06:34|10=084||0|
M|429|0|0|I|20110224-03:07:04.487|72|8=FIX.4.2|9=50|35=0|49=LSEHub|56=RBS|34=429|52=20110224-03:07:04|10=083||0|
M|430|0|0|I|20110224-03:07:34.487|72|8=FIX.4.2|9=50|35=0|49=LSEHub|56=RBS|34=430|52=20110224-03:07:34|10=078||0|
M|431|0|0|I|20110224-03:08:04.489|72|8=FIX.4.2|9=50|35=0|49=LSEHub|56=RBS|34=431|52=20110224-03:08:04|10=077||0|
M|432|0|0|I|20110224-03:08:34.490|72|8=FIX.4.2|9=50|35=0|49=LSEHub|56=RBS|34=432|52=20110224-03:08:34|10=081||0|
M|433|0|0|I|20110224-03:09:04.490|72|8=FIX.4.2|9=50|35=0|49=LSEHub|56=RBS|34=433|52=20110224-03:09:04|10=080||0|
M|434|0|0|I|20110224-03:09:34.492|72|8=FIX.4.2|9=50|35=0|49=LSEHub|56=RBS|34=434|52=20110224-03:09:34|10=084||0|
M|435|0|0|I|20110224-03:10:04.492|72|8=FIX.4.2|9=50|35=0|49=LSEHub|56=RBS|34=435|52=20110224-03:10:04|10=074||0|
M|436|0|0|I|20110224-03:10:34.493|72|8=FIX.4.2|9=50|35=0|49=LSEHub|56=RBS|34=436|52=20110224-03:10:34|10=078||0|
M|437|0|0|I|20110224-03:11:04.494|72|8=FIX.4.2|9=50|35=0|49=LSEHub|56=RBS|34=437|52=20110224-03:11:04|10=077||0|
M|438|0|0|I|20110224-03:11:34.495|72|8=FIX.4.2|9=50|35=0|49=LSEHub|56=RBS|34=438|52=20110224-03:11:34|10=081||0|
M|439|0|0|I|20110224-03:12:04.496|72|8=FIX.4.2|9=50|35=0|49=LSEHub|56=RBS|34=439|52=20110224-03:12:04|10=080||0|
M|440|0|0|I|20110224-03:12:34.497|72|8=FIX.4.2|9=50|35=0|49=LSEHub|56=RBS|34=440|52=20110224-03:12:34|10=075||0|
M|441|0|0|I|20110224-03:13:04.498|72|8=FIX.4.2|9=50|35=0|49=LSEHub|56=RBS|34=441|52=20110224-03:13:04|10=074||0|
M|442|0|0|I|20110224-03:13:34.499|72|8=FIX.4.2|9=50|35=0|49=LSEHub|56=RBS|34=442|52=20110224-03:13:34|10=078||0|
M|443|0|0|I|20110224-03:14:04.500|72|8=FIX.4.2|9=50|35=0|49=LSEHub|56=RBS|34=443|52=20110224-03:14:04|10=077||0|
M|444|0|0|I|20110224-03:14:34.501|72|8=FIX.4.2|9=50|35=0|49=LSEHub|56=RBS|34=444|52=20110224-03:14:34|10=081||0|
M|445|0|0|I|20110224-03:15:04.502|72|8=FIX.4.2|9=50|35=0|49=LSEHub|56=RBS|34=445|52=20110224-03:15:04|10=080||0|
M|446|0|0|I|20110224-03:15:34.503|72|8=FIX.4.2|9=50|35=0|49=LSEHub|56=RBS|34=446|52=20110224-03:15:34|10=084||0|
M|447|0|0|I|20110224-03:16:04.504|72|8=FIX.4.2|9=50|35=0|49=LSEHub|56=RBS|34=447|52=20110224-03:16:04|10=083||0|
M|448|0|0|I|20110224-03:16:34.505|72|8=FIX.4.2|9=50|35=0|49=LSEHub|56=RBS|34=448|52=20110224-03:16:34|10=087||0|
M|449|0|0|I|20110224-03:17:04.506|72|8=FIX.4.2|9=50|35=0|49=LSEHub|56=RBS|34=449|52=20110224-03:17:04|10=086||0|
M|450|0|0|I|20110224-03:17:34.507|72|8=FIX.4.2|9=50|35=0|49=LSEHub|56=RBS|34=450|52=20110224-03:17:34|10=081||0|
M|451|0|0|I|20110224-03:18:04.508|72|8=FIX.4.2|9=50|35=0|49=LSEHub|56=RBS|34=451|52=20110224-03:18:04|10=080||0|
M|452|0|0|I|20110224-03:18:34.509|72|8=FIX.4.2|9=50|35=0|49=LSEHub|56=RBS|34=452|52=20110224-03:18:34|10=084||0|
M|453|0|0|I|20110224-03:19:04.510|72|8=FIX.4.2|9=50|35=0|49=LSEHub|56=RBS|34=453|52=20110224-03:19:04|10=083||0|
M|454|0|0|I|20110224-03:19:34.510|72|8=FIX.4.2|9=50|35=0|49=LSEHub|56=RBS|34=454|52=20110224-03:19:34|10=087||0|
M|455|0|0|I|20110224-03:20:04.511|72|8=FIX.4.2|9=50|35=0|49=LSEHub|56=RBS|34=455|52=20110224-03:20:04|10=077||0|
M|456|0|0|I|20110224-03:20:34.512|72|8=FIX.4.2|9=50|35=0|49=LSEHub|56=RBS|34=456|52=20110224-03:20:34|10=081||0|
M|457|0|0|I|20110224-03:21:04.513|72|8=FIX.4.2|9=50|35=0|49=LSEHub|56=RBS|34=457|52=20110224-03:21:04|10=080||0|
M|458|0|0|I|20110224-03:21:34.514|72|8=FIX.4.2|9=50|35=0|49=LSEHub|56=RBS|34=458|52=20110224-03:21:34|10=084||0|
M|459|0|0|I|20110224-03:22:04.515|72|8=FIX.4.2|9=50|35=0|49=LSEHub|56=RBS|34=459|52=20110224-03:22:04|10=083||0|
M|460|0|0|I|20110224-03:22:34.516|72|8=FIX.4.2|9=50|35=0|49=LSEHub|56=RBS|34=460|52=20110224-03:22:34|10=078||0|
M|461|0|0|I|20110224-03:23:04.517|72|8=FIX.4.2|9=50|35=0|49=LSEHub|56=RBS|34=461|52=20110224-03:23:04|10=077||0|
M|462|0|0|I|20110224-03:23:34.518|72|8=FIX.4.2|9=50|35=0|49=LSEHub|56=RBS|34=462|52=20110224-03:23:34|10=081||0|
M|463|0|0|I|20110224-03:24:04.519|72|8=FIX.4.2|9=50|35=0|49=LSEHub|56=RBS|34=463|52=20110224-03:24:04|10=080||0|
M|464|0|0|I|20110224-03:24:34.520|72|8=FIX.4.2|9=50|35=0|49=LSEHub|56=RBS|34=464|52=20110224-03:24:34|10=084||0|
M|465|0|0|I|20110224-03:25:04.521|72|8=FIX.4.2|9=50|35=0|49=LSEHub|56=RBS|34=465|52=20110224-03:25:04|10=083||0|
M|466|0|0|I|20110224-03:25:34.522|72|8=FIX.4.2|9=50|35=0|49=LSEHub|56=RBS|34=466|52=20110224-03:25:34|10=087||0|
M|467|0|0|I|20110224-03:26:04.523|72|8=FIX.4.2|9=50|35=0|49=LSEHub|56=RBS|34=467|52=20110224-03:26:04|10=086||0|
M|468|0|0|I|20110224-03:26:34.524|72|8=FIX.4.2|9=50|35=0|49=LSEHub|56=RBS|34=468|52=20110224-03:26:34|10=090||0|
M|469|0|0|I|20110224-03:27:04.525|72|8=FIX.4.2|9=50|35=0|49=LSEHub|56=RBS|34=469|52=20110224-03:27:04|10=089||0|
M|470|0|0|I|20110224-03:27:34.526|72|8=FIX.4.2|9=50|35=0|49=LSEHub|56=RBS|34=470|52=20110224-03:27:34|10=084||0|
M|471|0|0|I|20110224-03:28:04.527|72|8=FIX.4.2|9=50|35=0|49=LSEHub|56=RBS|34=471|52=20110224-03:28:04|10=083||0|
M|472|0|0|I|20110224-03:28:34.528|72|8=FIX.4.2|9=50|35=0|49=LSEHub|56=RBS|34=472|52=20110224-03:28:34|10=087||0|
M|473|0|0|I|20110224-03:29:04.529|72|8=FIX.4.2|9=50|35=0|49=LSEHub|56=RBS|34=473|52=20110224-03:29:04|10=086||0|
M|474|0|0|I|20110224-03:29:34.530|72|8=FIX.4.2|9=50|35=0|49=LSEHub|56=RBS|34=474|52=20110224-03:29:34|10=090||0|
M|475|0|0|I|20110224-03:30:04.531|72|8=FIX.4.2|9=50|35=0|49=LSEHub|56=RBS|34=475|52=20110224-03:30:04|10=080||0|
M|476|0|0|I|20110224-03:30:34.531|72|8=FIX.4.2|9=50|35=0|49=LSEHub|56=RBS|34=476|52=20110224-03:30:34|10=084||0|
M|477|0|0|I|20110224-03:31:04.532|72|8=FIX.4.2|9=50|35=0|49=LSEHub|56=RBS|34=477|52=20110224-03:31:04|10=083||0|
M|478|0|0|I|20110224-03:31:34.534|72|8=FIX.4.2|9=50|35=0|49=LSEHub|56=RBS|34=478|52=20110224-03:31:34|10=087||0|
M|479|0|0|I|20110224-03:32:04.534|72|8=FIX.4.2|9=50|35=0|49=LSEHub|56=RBS|34=479|52=20110224-03:32:04|10=086||0|
M|480|0|0|I|20110224-03:32:34.535|72|8=FIX.4.2|9=50|35=0|49=LSEHub|56=RBS|34=480|52=20110224-03:32:34|10=081||0|
M|481|0|0|I|20110224-03:33:04.536|72|8=FIX.4.2|9=50|35=0|49=LSEHub|56=RBS|34=481|52=20110224-03:33:04|10=080||0|
M|482|0|0|I|20110224-03:33:34.537|72|8=FIX.4.2|9=50|35=0|49=LSEHub|56=RBS|34=482|52=20110224-03:33:34|10=084||0|
M|483|0|0|I|20110224-03:34:04.538|72|8=FIX.4.2|9=50|35=0|49=LSEHub|56=RBS|34=483|52=20110224-03:34:04|10=083||0|
M|484|0|0|I|20110224-03:34:34.539|72|8=FIX.4.2|9=50|35=0|49=LSEHub|56=RBS|34=484|52=20110224-03:34:34|10=087||0|
M|485|0|0|I|20110224-03:35:04.540|72|8=FIX.4.2|9=50|35=0|49=LSEHub|56=RBS|34=485|52=20110224-03:35:04|10=086||0|
M|486|0|0|I|20110224-03:35:34.541|72|8=FIX.4.2|9=50|35=0|49=LSEHub|56=RBS|34=486|52=20110224-03:35:34|10=090||0|
M|487|0|0|I|20110224-03:36:04.542|72|8=FIX.4.2|9=50|35=0|49=LSEHub|56=RBS|34=487|52=20110224-03:36:04|10=089||0|
M|488|0|0|I|20110224-03:36:34.543|72|8=FIX.4.2|9=50|35=0|49=LSEHub|56=RBS|34=488|52=20110224-03:36:34|10=093||0|
M|489|0|0|I|20110224-03:37:04.544|72|8=FIX.4.2|9=50|35=0|49=LSEHub|56=RBS|34=489|52=20110224-03:37:04|10=092||0|
M|490|0|0|I|20110224-03:37:34.545|72|8=FIX.4.2|9=50|35=0|49=LSEHub|56=RBS|34=490|52=20110224-03:37:34|10=087||0|
M|491|0|0|I|20110224-03:38:04.546|72|8=FIX.4.2|9=50|35=0|49=LSEHub|56=RBS|34=491|52=20110224-03:38:04|10=086||0|
M|492|0|0|I|20110224-03:38:34.547|72|8=FIX.4.2|9=50|35=0|49=LSEHub|56=RBS|34=492|52=20110224-03:38:34|10=090||0|
M|493|0|0|I|20110224-03:39:04.548|72|8=FIX.4.2|9=50|35=0|49=LSEHub|56=RBS|34=493|52=20110224-03:39:04|10=089||0|
M|494|0|0|I|20110224-03:39:34.549|72|8=FIX.4.2|9=50|35=0|49=LSEHub|56=RBS|34=494|52=20110224-03:39:34|10=093||0|
M|495|0|0|I|20110224-03:40:04.550|72|8=FIX.4.2|9=50|35=0|49=LSEHub|56=RBS|34=495|52=20110224-03:40:04|10=083||0|
M|496|0|0|I|20110224-03:40:34.551|72|8=FIX.4.2|9=50|35=0|49=LSEHub|56=RBS|34=496|52=20110224-03:40:34|10=087||0|
M|497|0|0|I|20110224-03:41:04.552|72|8=FIX.4.2|9=50|35=0|49=LSEHub|56=RBS|34=497|52=20110224-03:41:04|10=086||0|
M|498|0|0|I|20110224-03:41:34.553|72|8=FIX.4.2|9=50|35=0|49=LSEHub|56=RBS|34=498|52=20110224-03:41:34|10=090||0|
M|499|0|0|I|20110224-03:42:04.554|72|8=FIX.4.2|9=50|35=0|49=LSEHub|56=RBS|34=499|52=20110224-03:42:04|10=089||0|
M|500|0|0|I|20110224-03:42:34.555|72|8=FIX.4.2|9=50|35=0|49=LSEHub|56=RBS|34=500|52=20110224-03:42:34|10=075||0|
M|501|0|0|I|20110224-03:43:04.555|72|8=FIX.4.2|9=50|35=0|49=LSEHub|56=RBS|34=501|52=20110224-03:43:04|10=074||0|
M|502|0|0|I|20110224-03:43:34.556|72|8=FIX.4.2|9=50|35=0|49=LSEHub|56=RBS|34=502|52=20110224-03:43:34|10=078||0|
M|503|0|0|I|20110224-03:44:04.557|72|8=FIX.4.2|9=50|35=0|49=LSEHub|56=RBS|34=503|52=20110224-03:44:04|10=077||0|
M|504|0|0|I|20110224-03:44:34.558|72|8=FIX.4.2|9=50|35=0|49=LSEHub|56=RBS|34=504|52=20110224-03:44:34|10=081||0|
M|505|0|0|I|20110224-03:45:04.559|72|8=FIX.4.2|9=50|35=0|49=LSEHub|56=RBS|34=505|52=20110224-03:45:04|10=080||0|
M|506|0|0|I|20110224-03:45:34.560|72|8=FIX.4.2|9=50|35=0|49=LSEHub|56=RBS|34=506|52=20110224-03:45:34|10=084||0|
M|507|0|0|I|20110224-03:46:04.561|72|8=FIX.4.2|9=50|35=0|49=LSEHub|56=RBS|34=507|52=20110224-03:46:04|10=083||0|
M|508|0|0|I|20110224-03:46:34.562|72|8=FIX.4.2|9=50|35=0|49=LSEHub|56=RBS|34=508|52=20110224-03:46:34|10=087||0|
M|509|0|0|I|20110224-03:47:04.563|72|8=FIX.4.2|9=50|35=0|49=LSEHub|56=RBS|34=509|52=20110224-03:47:04|10=086||0|
M|510|0|0|I|20110224-03:47:34.564|72|8=FIX.4.2|9=50|35=0|49=LSEHub|56=RBS|34=510|52=20110224-03:47:34|10=081||0|
M|511|0|0|I|20110224-03:48:04.565|72|8=FIX.4.2|9=50|35=0|49=LSEHub|56=RBS|34=511|52=20110224-03:48:04|10=080||0|
M|512|0|0|I|20110224-03:48:34.566|72|8=FIX.4.2|9=50|35=0|49=LSEHub|56=RBS|34=512|52=20110224-03:48:34|10=084||0|
M|513|0|0|I|20110224-03:49:04.567|72|8=FIX.4.2|9=50|35=0|49=LSEHub|56=RBS|34=513|52=20110224-03:49:04|10=083||0|
M|514|0|0|I|20110224-03:49:34.568|72|8=FIX.4.2|9=50|35=0|49=LSEHub|56=RBS|34=514|52=20110224-03:49:34|10=087||0|
M|515|0|0|I|20110224-03:50:04.569|72|8=FIX.4.2|9=50|35=0|49=LSEHub|56=RBS|34=515|52=20110224-03:50:04|10=077||0|
M|516|0|0|I|20110224-03:50:34.570|72|8=FIX.4.2|9=50|35=0|49=LSEHub|56=RBS|34=516|52=20110224-03:50:34|10=081||0|
M|517|0|0|I|20110224-03:51:04.571|72|8=FIX.4.2|9=50|35=0|49=LSEHub|56=RBS|34=517|52=20110224-03:51:04|10=080||0|
M|518|0|0|I|20110224-03:51:34.572|72|8=FIX.4.2|9=50|35=0|49=LSEHub|56=RBS|34=518|52=20110224-03:51:34|10=084||0|
M|519|0|0|I|20110224-03:52:04.573|72|8=FIX.4.2|9=50|35=0|49=LSEHub|56=RBS|34=519|52=20110224-03:52:04|10=083||0|
M|520|0|0|I|20110224-03:52:34.574|72|8=FIX.4.2|9=50|35=0|49=LSEHub|56=RBS|34=520|52=20110224-03:52:34|10=078||0|
M|521|0|0|I|20110224-03:53:04.575|72|8=FIX.4.2|9=50|35=0|49=LSEHub|56=RBS|34=521|52=20110224-03:53:04|10=077||0|
M|522|0|0|I|20110224-03:53:34.575|72|8=FIX.4.2|9=50|35=0|49=LSEHub|56=RBS|34=522|52=20110224-03:53:34|10=081||0|
M|523|0|0|I|20110224-03:54:04.576|72|8=FIX.4.2|9=50|35=0|49=LSEHub|56=RBS|34=523|52=20110224-03:54:04|10=080||0|
M|524|0|0|I|20110224-03:54:34.577|72|8=FIX.4.2|9=50|35=0|49=LSEHub|56=RBS|34=524|52=20110224-03:54:34|10=084||0|
M|525|0|0|I|20110224-03:55:04.578|72|8=FIX.4.2|9=50|35=0|49=LSEHub|56=RBS|34=525|52=20110224-03:55:04|10=083||0|
M|526|0|0|I|20110224-03:55:34.579|72|8=FIX.4.2|9=50|35=0|49=LSEHub|56=RBS|34=526|52=20110224-03:55:34|10=087||0|
M|527|0|0|I|20110224-03:56:04.580|72|8=FIX.4.2|9=50|35=0|49=LSEHub|56=RBS|34=527|52=20110224-03:56:04|10=086||0|
M|528|0|0|I|20110224-03:56:34.581|72|8=FIX.4.2|9=50|35=0|49=LSEHub|56=RBS|34=528|52=20110224-03:56:34|10=090||0|
M|529|0|0|I|20110224-03:57:04.582|72|8=FIX.4.2|9=50|35=0|49=LSEHub|56=RBS|34=529|52=20110224-03:57:04|10=089||0|
M|530|0|0|I|20110224-03:57:34.583|72|8=FIX.4.2|9=50|35=0|49=LSEHub|56=RBS|34=530|52=20110224-03:57:34|10=084||0|
M|531|0|0|I|20110224-03:58:04.584|72|8=FIX.4.2|9=50|35=0|49=LSEHub|56=RBS|34=531|52=20110224-03:58:04|10=083||0|
M|532|0|0|I|20110224-03:58:34.632|72|8=FIX.4.2|9=50|35=0|49=LSEHub|56=RBS|34=532|52=20110224-03:58:34|10=087||0|
M|533|0|0|I|20110224-03:59:04.633|72|8=FIX.4.2|9=50|35=0|49=LSEHub|56=RBS|34=533|52=20110224-03:59:04|10=086||0|
M|534|0|0|I|20110224-03:59:34.634|72|8=FIX.4.2|9=50|35=0|49=LSEHub|56=RBS|34=534|52=20110224-03:59:34|10=090||0|
M|535|0|0|I|20110224-04:00:04.635|72|8=FIX.4.2|9=50|35=0|49=LSEHub|56=RBS|34=535|52=20110224-04:00:04|10=075||0|
M|536|0|0|I|20110224-04:00:34.636|72|8=FIX.4.2|9=50|35=0|49=LSEHub|56=RBS|34=536|52=20110224-04:00:34|10=079||0|
M|537|0|0|I|20110224-04:01:04.637|72|8=FIX.4.2|9=50|35=0|49=LSEHub|56=RBS|34=537|52=20110224-04:01:04|10=078||0|
M|538|0|0|I|20110224-04:01:34.638|72|8=FIX.4.2|9=50|35=0|49=LSEHub|56=RBS|34=538|52=20110224-04:01:34|10=082||0|
M|539|0|0|I|20110224-04:02:04.639|72|8=FIX.4.2|9=50|35=0|49=LSEHub|56=RBS|34=539|52=20110224-04:02:04|10=081||0|
M|540|0|0|I|20110224-04:02:34.640|72|8=FIX.4.2|9=50|35=0|49=LSEHub|56=RBS|34=540|52=20110224-04:02:34|10=076||0|
M|541|0|0|I|20110224-04:03:04.641|72|8=FIX.4.2|9=50|35=0|49=LSEHub|56=RBS|34=541|52=20110224-04:03:04|10=075||0|
M|542|0|0|I|20110224-04:03:34.642|72|8=FIX.4.2|9=50|35=0|49=LSEHub|56=RBS|34=542|52=20110224-04:03:34|10=079||0|
M|543|0|0|I|20110224-04:04:04.643|72|8=FIX.4.2|9=50|35=0|49=LSEHub|56=RBS|34=543|52=20110224-04:04:04|10=078||0|
M|544|0|0|I|20110224-04:04:34.643|72|8=FIX.4.2|9=50|35=0|49=LSEHub|56=RBS|34=544|52=20110224-04:04:34|10=082||0|
M|545|0|0|I|20110224-04:05:04.645|72|8=FIX.4.2|9=50|35=0|49=LSEHub|56=RBS|34=545|52=20110224-04:05:04|10=081||0|
M|546|0|0|I|20110224-04:05:34.645|72|8=FIX.4.2|9=50|35=0|49=LSEHub|56=RBS|34=546|52=20110224-04:05:34|10=085||0|
M|547|0|0|I|20110224-04:06:04.647|72|8=FIX.4.2|9=50|35=0|49=LSEHub|56=RBS|34=547|52=20110224-04:06:04|10=084||0|
M|548|0|0|I|20110224-04:06:34.647|72|8=FIX.4.2|9=50|35=0|49=LSEHub|56=RBS|34=548|52=20110224-04:06:34|10=088||0|
M|549|0|0|I|20110224-04:07:04.648|72|8=FIX.4.2|9=50|35=0|49=LSEHub|56=RBS|34=549|52=20110224-04:07:04|10=087||0|
M|550|0|0|I|20110224-04:07:34.649|72|8=FIX.4.2|9=50|35=0|49=LSEHub|56=RBS|34=550|52=20110224-04:07:34|10=082||0|
M|551|0|0|I|20110224-04:08:04.650|72|8=FIX.4.2|9=50|35=0|49=LSEHub|56=RBS|34=551|52=20110224-04:08:04|10=081||0|
M|552|0|0|I|20110224-04:08:34.651|72|8=FIX.4.2|9=50|35=0|49=LSEHub|56=RBS|34=552|52=20110224-04:08:34|10=085||0|
M|553|0|0|I|20110224-04:09:04.652|72|8=FIX.4.2|9=50|35=0|49=LSEHub|56=RBS|34=553|52=20110224-04:09:04|10=084||0|
M|554|0|0|I|20110224-04:09:34.653|72|8=FIX.4.2|9=50|35=0|49=LSEHub|56=RBS|34=554|52=20110224-04:09:34|10=088||0|
M|555|0|0|I|20110224-04:10:04.654|72|8=FIX.4.2|9=50|35=0|49=LSEHub|56=RBS|34=555|52=20110224-04:10:04|10=078||0|
M|556|0|0|I|20110224-04:10:34.655|72|8=FIX.4.2|9=50|35=0|49=LSEHub|56=RBS|34=556|52=20110224-04:10:34|10=082||0|
M|557|0|0|I|20110224-04:11:04.656|72|8=FIX.4.2|9=50|35=0|49=LSEHub|56=RBS|34=557|52=20110224-04:11:04|10=081||0|
M|558|0|0|I|20110224-04:11:34.657|72|8=FIX.4.2|9=50|35=0|49=LSEHub|56=RBS|34=558|52=20110224-04:11:34|10=085||0|
M|559|0|0|I|20110224-04:12:04.658|72|8=FIX.4.2|9=50|35=0|49=LSEHub|56=RBS|34=559|52=20110224-04:12:04|10=084||0|
M|560|0|0|I|20110224-04:12:34.659|72|8=FIX.4.2|9=50|35=0|49=LSEHub|56=RBS|34=560|52=20110224-04:12:34|10=079||0|
M|561|0|0|I|20110224-04:13:04.660|72|8=FIX.4.2|9=50|35=0|49=LSEHub|56=RBS|34=561|52=20110224-04:13:04|10=078||0|
M|562|0|0|I|20110224-04:13:34.661|72|8=FIX.4.2|9=50|35=0|49=LSEHub|56=RBS|34=562|52=20110224-04:13:34|10=082||0|
M|563|0|0|I|20110224-04:14:04.662|72|8=FIX.4.2|9=50|35=0|49=LSEHub|56=RBS|34=563|52=20110224-04:14:04|10=081||0|
M|564|0|0|I|20110224-04:14:34.663|72|8=FIX.4.2|9=50|35=0|49=LSEHub|56=RBS|34=564|52=20110224-04:14:34|10=085||0|
M|565|0|0|I|20110224-04:15:04.664|72|8=FIX.4.2|9=50|35=0|49=LSEHub|56=RBS|34=565|52=20110224-04:15:04|10=084||0|
M|566|0|0|I|20110224-04:15:34.665|72|8=FIX.4.2|9=50|35=0|49=LSEHub|56=RBS|34=566|52=20110224-04:15:34|10=088||0|
M|567|0|0|I|20110224-04:16:04.666|72|8=FIX.4.2|9=50|35=0|49=LSEHub|56=RBS|34=567|52=20110224-04:16:04|10=087||0|
M|568|0|0|I|20110224-04:16:34.666|72|8=FIX.4.2|9=50|35=0|49=LSEHub|56=RBS|34=568|52=20110224-04:16:34|10=091||0|
M|569|0|0|I|20110224-04:17:04.667|72|8=FIX.4.2|9=50|35=0|49=LSEHub|56=RBS|34=569|52=20110224-04:17:04|10=090||0|
M|570|0|0|I|20110224-04:17:34.668|72|8=FIX.4.2|9=50|35=0|49=LSEHub|56=RBS|34=570|52=20110224-04:17:34|10=085||0|
M|571|0|0|I|20110224-04:18:04.670|72|8=FIX.4.2|9=50|35=0|49=LSEHub|56=RBS|34=571|52=20110224-04:18:04|10=084||0|
M|572|0|0|I|20110224-04:18:34.670|72|8=FIX.4.2|9=50|35=0|49=LSEHub|56=RBS|34=572|52=20110224-04:18:34|10=088||0|
M|573|0|0|I|20110224-04:19:04.671|72|8=FIX.4.2|9=50|35=0|49=LSEHub|56=RBS|34=573|52=20110224-04:19:04|10=087||0|
M|574|0|0|I|20110224-04:19:34.672|72|8=FIX.4.2|9=50|35=0|49=LSEHub|56=RBS|34=574|52=20110224-04:19:34|10=091||0|
M|575|0|0|I|20110224-04:20:04.673|72|8=FIX.4.2|9=50|35=0|49=LSEHub|56=RBS|34=575|52=20110224-04:20:04|10=081||0|
M|576|0|0|I|20110224-04:20:34.674|72|8=FIX.4.2|9=50|35=0|49=LSEHub|56=RBS|34=576|52=20110224-04:20:34|10=085||0|
M|577|0|0|I|20110224-04:21:04.675|72|8=FIX.4.2|9=50|35=0|49=LSEHub|56=RBS|34=577|52=20110224-04:21:04|10=084||0|
M|578|0|0|I|20110224-04:21:34.676|72|8=FIX.4.2|9=50|35=0|49=LSEHub|56=RBS|34=578|52=20110224-04:21:34|10=088||0|
M|579|0|0|I|20110224-04:22:04.677|72|8=FIX.4.2|9=50|35=0|49=LSEHub|56=RBS|34=579|52=20110224-04:22:04|10=087||0|
M|580|0|0|I|20110224-04:22:34.678|72|8=FIX.4.2|9=50|35=0|49=LSEHub|56=RBS|34=580|52=20110224-04:22:34|10=082||0|
M|581|0|0|I|20110224-04:23:04.679|72|8=FIX.4.2|9=50|35=0|49=LSEHub|56=RBS|34=581|52=20110224-04:23:04|10=081||0|
M|582|0|0|I|20110224-04:23:34.680|72|8=FIX.4.2|9=50|35=0|49=LSEHub|56=RBS|34=582|52=20110224-04:23:34|10=085||0|
M|583|0|0|I|20110224-04:24:04.681|72|8=FIX.4.2|9=50|35=0|49=LSEHub|56=RBS|34=583|52=20110224-04:24:04|10=084||0|
M|584|0|0|I|20110224-04:24:34.682|72|8=FIX.4.2|9=50|35=0|49=LSEHub|56=RBS|34=584|52=20110224-04:24:34|10=088||0|
M|585|0|0|I|20110224-04:25:04.683|72|8=FIX.4.2|9=50|35=0|49=LSEHub|56=RBS|34=585|52=20110224-04:25:04|10=087||0|
M|586|0|0|I|20110224-04:25:34.684|72|8=FIX.4.2|9=50|35=0|49=LSEHub|56=RBS|34=586|52=20110224-04:25:34|10=091||0|
M|587|0|0|I|20110224-04:26:04.685|72|8=FIX.4.2|9=50|35=0|49=LSEHub|56=RBS|34=587|52=20110224-04:26:04|10=090||0|
M|588|0|0|I|20110224-04:26:34.686|72|8=FIX.4.2|9=50|35=0|49=LSEHub|56=RBS|34=588|52=20110224-04:26:34|10=094||0|
M|589|0|0|I|20110224-04:27:04.687|72|8=FIX.4.2|9=50|35=0|49=LSEHub|56=RBS|34=589|52=20110224-04:27:04|10=093||0|
M|590|0|0|I|20110224-04:27:34.687|72|8=FIX.4.2|9=50|35=0|49=LSEHub|56=RBS|34=590|52=20110224-04:27:34|10=088||0|
M|591|0|0|I|20110224-04:28:04.688|72|8=FIX.4.2|9=50|35=0|49=LSEHub|56=RBS|34=591|52=20110224-04:28:04|10=087||0|
M|592|0|0|I|20110224-04:28:34.689|72|8=FIX.4.2|9=50|35=0|49=LSEHub|56=RBS|34=592|52=20110224-04:28:34|10=091||0|
M|593|0|0|I|20110224-04:29:04.690|72|8=FIX.4.2|9=50|35=0|49=LSEHub|56=RBS|34=593|52=20110224-04:29:04|10=090||0|
M|594|0|0|I|20110224-04:29:34.691|72|8=FIX.4.2|9=50|35=0|49=LSEHub|56=RBS|34=594|52=20110224-04:29:34|10=094||0|
M|595|0|0|I|20110224-04:30:04.692|72|8=FIX.4.2|9=50|35=0|49=LSEHub|56=RBS|34=595|52=20110224-04:30:04|10=084||0|
M|596|0|0|I|20110224-04:30:34.693|72|8=FIX.4.2|9=50|35=0|49=LSEHub|56=RBS|34=596|52=20110224-04:30:34|10=088||0|
M|597|0|0|I|20110224-04:31:04.695|72|8=FIX.4.2|9=50|35=0|49=LSEHub|56=RBS|34=597|52=20110224-04:31:04|10=087||0|
M|598|0|0|I|20110224-04:31:34.695|72|8=FIX.4.2|9=50|35=0|49=LSEHub|56=RBS|34=598|52=20110224-04:31:34|10=091||0|
M|599|0|0|I|20110224-04:32:04.696|72|8=FIX.4.2|9=50|35=0|49=LSEHub|56=RBS|34=599|52=20110224-04:32:04|10=090||0|
M|600|0|0|I|20110224-04:32:34.697|72|8=FIX.4.2|9=50|35=0|49=LSEHub|56=RBS|34=600|52=20110224-04:32:34|10=076||0|
M|601|0|0|I|20110224-04:33:04.698|72|8=FIX.4.2|9=50|35=0|49=LSEHub|56=RBS|34=601|52=20110224-04:33:04|10=075||0|
M|602|0|0|I|20110224-04:33:34.699|72|8=FIX.4.2|9=50|35=0|49=LSEHub|56=RBS|34=602|52=20110224-04:33:34|10=079||0|
M|603|0|0|I|20110224-04:34:04.700|72|8=FIX.4.2|9=50|35=0|49=LSEHub|56=RBS|34=603|52=20110224-04:34:04|10=078||0|
M|604|0|0|I|20110224-04:34:34.701|72|8=FIX.4.2|9=50|35=0|49=LSEHub|56=RBS|34=604|52=20110224-04:34:34|10=082||0|
M|605|0|0|I|20110224-04:35:04.702|72|8=FIX.4.2|9=50|35=0|49=LSEHub|56=RBS|34=605|52=20110224-04:35:04|10=081||0|
M|606|0|0|I|20110224-04:35:34.703|72|8=FIX.4.2|9=50|35=0|49=LSEHub|56=RBS|34=606|52=20110224-04:35:34|10=085||0|
M|607|0|0|I|20110224-04:36:04.704|72|8=FIX.4.2|9=50|35=0|49=LSEHub|56=RBS|34=607|52=20110224-04:36:04|10=084||0|
M|608|0|0|I|20110224-04:36:34.705|72|8=FIX.4.2|9=50|35=0|49=LSEHub|56=RBS|34=608|52=20110224-04:36:34|10=088||0|
M|609|0|0|I|20110224-04:37:04.706|72|8=FIX.4.2|9=50|35=0|49=LSEHub|56=RBS|34=609|52=20110224-04:37:04|10=087||0|
M|610|0|0|I|20110224-04:37:34.707|72|8=FIX.4.2|9=50|35=0|49=LSEHub|56=RBS|34=610|52=20110224-04:37:34|10=082||0|
M|611|0|0|I|20110224-04:38:04.708|72|8=FIX.4.2|9=50|35=0|49=LSEHub|56=RBS|34=611|52=20110224-04:38:04|10=081||0|
M|612|0|0|I|20110224-04:38:34.708|72|8=FIX.4.2|9=50|35=0|49=LSEHub|56=RBS|34=612|52=20110224-04:38:34|10=085||0|
M|613|0|0|I|20110224-04:39:04.709|72|8=FIX.4.2|9=50|35=0|49=LSEHub|56=RBS|34=613|52=20110224-04:39:04|10=084||0|
M|614|0|0|I|20110224-04:39:34.710|72|8=FIX.4.2|9=50|35=0|49=LSEHub|56=RBS|34=614|52=20110224-04:39:34|10=088||0|
M|615|0|0|I|20110224-04:40:04.711|72|8=FIX.4.2|9=50|35=0|49=LSEHub|56=RBS|34=615|52=20110224-04:40:04|10=078||0|
M|616|0|0|I|20110224-04:40:34.712|72|8=FIX.4.2|9=50|35=0|49=LSEHub|56=RBS|34=616|52=20110224-04:40:34|10=082||0|
M|617|0|0|I|20110224-04:41:04.713|72|8=FIX.4.2|9=50|35=0|49=LSEHub|56=RBS|34=617|52=20110224-04:41:04|10=081||0|
M|618|0|0|I|20110224-04:41:34.714|72|8=FIX.4.2|9=50|35=0|49=LSEHub|56=RBS|34=618|52=20110224-04:41:34|10=085||0|
M|619|0|0|I|20110224-04:42:04.715|72|8=FIX.4.2|9=50|35=0|49=LSEHub|56=RBS|34=619|52=20110224-04:42:04|10=084||0|
M|620|0|0|I|20110224-04:42:34.716|72|8=FIX.4.2|9=50|35=0|49=LSEHub|56=RBS|34=620|52=20110224-04:42:34|10=079||0|
M|621|0|0|I|20110224-04:43:04.717|72|8=FIX.4.2|9=50|35=0|49=LSEHub|56=RBS|34=621|52=20110224-04:43:04|10=078||0|
M|622|0|0|I|20110224-04:43:34.718|72|8=FIX.4.2|9=50|35=0|49=LSEHub|56=RBS|34=622|52=20110224-04:43:34|10=082||0|
M|623|0|0|I|20110224-04:44:04.719|72|8=FIX.4.2|9=50|35=0|49=LSEHub|56=RBS|34=623|52=20110224-04:44:04|10=081||0|
M|624|0|0|I|20110224-04:44:34.720|72|8=FIX.4.2|9=50|35=0|49=LSEHub|56=RBS|34=624|52=20110224-04:44:34|10=085||0|
M|625|0|0|I|20110224-04:45:04.721|72|8=FIX.4.2|9=50|35=0|49=LSEHub|56=RBS|34=625|52=20110224-04:45:04|10=084||0|
M|626|0|0|I|20110224-04:45:34.722|72|8=FIX.4.2|9=50|35=0|49=LSEHub|56=RBS|34=626|52=20110224-04:45:34|10=088||0|
M|627|0|0|I|20110224-04:46:04.723|72|8=FIX.4.2|9=50|35=0|49=LSEHub|56=RBS|34=627|52=20110224-04:46:04|10=087||0|
M|628|0|0|I|20110224-04:46:34.724|72|8=FIX.4.2|9=50|35=0|49=LSEHub|56=RBS|34=628|52=20110224-04:46:34|10=091||0|
M|629|0|0|I|20110224-04:47:04.725|72|8=FIX.4.2|9=50|35=0|49=LSEHub|56=RBS|34=629|52=20110224-04:47:04|10=090||0|
M|630|0|0|I|20110224-04:47:34.726|72|8=FIX.4.2|9=50|35=0|49=LSEHub|56=RBS|34=630|52=20110224-04:47:34|10=085||0|
M|631|0|0|I|20110224-04:48:04.727|72|8=FIX.4.2|9=50|35=0|49=LSEHub|56=RBS|34=631|52=20110224-04:48:04|10=084||0|
M|632|0|0|I|20110224-04:48:34.728|72|8=FIX.4.2|9=50|35=0|49=LSEHub|56=RBS|34=632|52=20110224-04:48:34|10=088||0|
M|633|0|0|I|20110224-04:49:04.728|72|8=FIX.4.2|9=50|35=0|49=LSEHub|56=RBS|34=633|52=20110224-04:49:04|10=087||0|
M|634|0|0|I|20110224-04:49:34.729|72|8=FIX.4.2|9=50|35=0|49=LSEHub|56=RBS|34=634|52=20110224-04:49:34|10=091||0|
M|635|0|0|I|20110224-04:50:04.730|72|8=FIX.4.2|9=50|35=0|49=LSEHub|56=RBS|34=635|52=20110224-04:50:04|10=081||0|
M|636|0|0|I|20110224-04:50:34.731|72|8=FIX.4.2|9=50|35=0|49=LSEHub|56=RBS|34=636|52=20110224-04:50:34|10=085||0|
M|637|0|0|I|20110224-04:51:04.732|72|8=FIX.4.2|9=50|35=0|49=LSEHub|56=RBS|34=637|52=20110224-04:51:04|10=084||0|
M|638|0|0|I|20110224-04:51:34.733|72|8=FIX.4.2|9=50|35=0|49=LSEHub|56=RBS|34=638|52=20110224-04:51:34|10=088||0|
M|639|0|0|I|20110224-04:52:04.734|72|8=FIX.4.2|9=50|35=0|49=LSEHub|56=RBS|34=639|52=20110224-04:52:04|10=087||0|
M|640|0|0|I|20110224-04:52:34.735|72|8=FIX.4.2|9=50|35=0|49=LSEHub|56=RBS|34=640|52=20110224-04:52:34|10=082||0|
M|641|0|0|I|20110224-04:53:04.736|72|8=FIX.4.2|9=50|35=0|49=LSEHub|56=RBS|34=641|52=20110224-04:53:04|10=081||0|
M|642|0|0|I|20110224-04:53:34.737|72|8=FIX.4.2|9=50|35=0|49=LSEHub|56=RBS|34=642|52=20110224-04:53:34|10=085||0|
M|643|0|0|I|20110224-04:54:04.738|72|8=FIX.4.2|9=50|35=0|49=LSEHub|56=RBS|34=643|52=20110224-04:54:04|10=084||0|
M|644|0|0|I|20110224-04:54:34.739|72|8=FIX.4.2|9=50|35=0|49=LSEHub|56=RBS|34=644|52=20110224-04:54:34|10=088||0|
M|645|0|0|I|20110224-04:55:04.740|72|8=FIX.4.2|9=50|35=0|49=LSEHub|56=RBS|34=645|52=20110224-04:55:04|10=087||0|
M|646|0|0|I|20110224-04:55:34.741|72|8=FIX.4.2|9=50|35=0|49=LSEHub|56=RBS|34=646|52=20110224-04:55:34|10=091||0|
M|647|0|0|I|20110224-04:56:04.742|72|8=FIX.4.2|9=50|35=0|49=LSEHub|56=RBS|34=647|52=20110224-04:56:04|10=090||0|
M|648|0|0|I|20110224-04:56:34.743|72|8=FIX.4.2|9=50|35=0|49=LSEHub|56=RBS|34=648|52=20110224-04:56:34|10=094||0|
M|649|0|0|I|20110224-04:57:04.758|72|8=FIX.4.2|9=50|35=0|49=LSEHub|56=RBS|34=649|52=20110224-04:57:04|10=093||0|
M|650|0|0|I|20110224-04:57:34.745|72|8=FIX.4.2|9=50|35=0|49=LSEHub|56=RBS|34=650|52=20110224-04:57:34|10=088||0|
M|651|0|0|I|20110224-04:58:04.746|72|8=FIX.4.2|9=50|35=0|49=LSEHub|56=RBS|34=651|52=20110224-04:58:04|10=087||0|
M|652|0|0|I|20110224-04:58:34.746|72|8=FIX.4.2|9=50|35=0|49=LSEHub|56=RBS|34=652|52=20110224-04:58:34|10=091||0|
M|653|0|0|I|20110224-04:59:04.747|72|8=FIX.4.2|9=50|35=0|49=LSEHub|56=RBS|34=653|52=20110224-04:59:04|10=090||0|
M|654|0|0|I|20110224-04:59:34.748|72|8=FIX.4.2|9=50|35=0|49=LSEHub|56=RBS|34=654|52=20110224-04:59:34|10=094||0|
M|655|0|0|I|20110224-05:00:04.749|72|8=FIX.4.2|9=50|35=0|49=LSEHub|56=RBS|34=655|52=20110224-05:00:04|10=079||0|
M|656|0|0|I|20110224-05:00:34.751|72|8=FIX.4.2|9=50|35=0|49=LSEHub|56=RBS|34=656|52=20110224-05:00:34|10=083||0|
M|657|0|0|I|20110224-05:01:04.751|72|8=FIX.4.2|9=50|35=0|49=LSEHub|56=RBS|34=657|52=20110224-05:01:04|10=082||0|
M|658|0|0|I|20110224-05:01:34.753|72|8=FIX.4.2|9=50|35=0|49=LSEHub|56=RBS|34=658|52=20110224-05:01:34|10=086||0|
M|659|0|0|I|20110224-05:02:04.753|72|8=FIX.4.2|9=50|35=0|49=LSEHub|56=RBS|34=659|52=20110224-05:02:04|10=085||0|
M|660|0|0|I|20110224-05:02:34.754|72|8=FIX.4.2|9=50|35=0|49=LSEHub|56=RBS|34=660|52=20110224-05:02:34|10=080||0|
M|661|0|0|I|20110224-05:03:04.755|72|8=FIX.4.2|9=50|35=0|49=LSEHub|56=RBS|34=661|52=20110224-05:03:04|10=079||0|
M|662|0|0|I|20110224-05:03:34.756|72|8=FIX.4.2|9=50|35=0|49=LSEHub|56=RBS|34=662|52=20110224-05:03:34|10=083||0|
M|663|0|0|I|20110224-05:04:04.757|72|8=FIX.4.2|9=50|35=0|49=LSEHub|56=RBS|34=663|52=20110224-05:04:04|10=082||0|
M|664|0|0|I|20110224-05:04:34.758|72|8=FIX.4.2|9=50|35=0|49=LSEHub|56=RBS|34=664|52=20110224-05:04:34|10=086||0|
M|665|0|0|I|20110224-05:05:04.759|72|8=FIX.4.2|9=50|35=0|49=LSEHub|56=RBS|34=665|52=20110224-05:05:04|10=085||0|
M|666|0|0|I|20110224-05:05:34.760|72|8=FIX.4.2|9=50|35=0|49=LSEHub|56=RBS|34=666|52=20110224-05:05:34|10=089||0|
M|667|0|0|I|20110224-05:06:04.761|72|8=FIX.4.2|9=50|35=0|49=LSEHub|56=RBS|34=667|52=20110224-05:06:04|10=088||0|
M|668|0|0|I|20110224-05:06:34.762|72|8=FIX.4.2|9=50|35=0|49=LSEHub|56=RBS|34=668|52=20110224-05:06:34|10=092||0|
M|669|0|0|I|20110224-05:07:04.763|72|8=FIX.4.2|9=50|35=0|49=LSEHub|56=RBS|34=669|52=20110224-05:07:04|10=091||0|
M|670|0|0|I|20110224-05:07:34.764|72|8=FIX.4.2|9=50|35=0|49=LSEHub|56=RBS|34=670|52=20110224-05:07:34|10=086||0|
M|671|0|0|I|20110224-05:08:04.765|72|8=FIX.4.2|9=50|35=0|49=LSEHub|56=RBS|34=671|52=20110224-05:08:04|10=085||0|
M|672|0|0|I|20110224-05:08:34.766|72|8=FIX.4.2|9=50|35=0|49=LSEHub|56=RBS|34=672|52=20110224-05:08:34|10=089||0|
M|673|0|0|I|20110224-05:09:04.767|72|8=FIX.4.2|9=50|35=0|49=LSEHub|56=RBS|34=673|52=20110224-05:09:04|10=088||0|
M|674|0|0|I|20110224-05:09:34.767|72|8=FIX.4.2|9=50|35=0|49=LSEHub|56=RBS|34=674|52=20110224-05:09:34|10=092||0|
M|675|0|0|I|20110224-05:10:04.768|72|8=FIX.4.2|9=50|35=0|49=LSEHub|56=RBS|34=675|52=20110224-05:10:04|10=082||0|
M|676|0|0|I|20110224-05:10:34.769|72|8=FIX.4.2|9=50|35=0|49=LSEHub|56=RBS|34=676|52=20110224-05:10:34|10=086||0|
M|677|0|0|I|20110224-05:11:04.770|72|8=FIX.4.2|9=50|35=0|49=LSEHub|56=RBS|34=677|52=20110224-05:11:04|10=085||0|
M|678|0|0|I|20110224-05:11:34.771|72|8=FIX.4.2|9=50|35=0|49=LSEHub|56=RBS|34=678|52=20110224-05:11:34|10=089||0|
M|679|0|0|I|20110224-05:12:04.772|72|8=FIX.4.2|9=50|35=0|49=LSEHub|56=RBS|34=679|52=20110224-05:12:04|10=088||0|
M|680|0|0|I|20110224-05:12:34.774|72|8=FIX.4.2|9=50|35=0|49=LSEHub|56=RBS|34=680|52=20110224-05:12:34|10=083||0|
M|681|0|0|I|20110224-05:13:04.774|72|8=FIX.4.2|9=50|35=0|49=LSEHub|56=RBS|34=681|52=20110224-05:13:04|10=082||0|
M|682|0|0|I|20110224-05:13:34.775|72|8=FIX.4.2|9=50|35=0|49=LSEHub|56=RBS|34=682|52=20110224-05:13:34|10=086||0|
M|683|0|0|I|20110224-05:14:04.776|72|8=FIX.4.2|9=50|35=0|49=LSEHub|56=RBS|34=683|52=20110224-05:14:04|10=085||0|
M|684|0|0|I|20110224-05:14:34.777|72|8=FIX.4.2|9=50|35=0|49=LSEHub|56=RBS|34=684|52=20110224-05:14:34|10=089||0|
M|685|0|0|I|20110224-05:15:04.778|72|8=FIX.4.2|9=50|35=0|49=LSEHub|56=RBS|34=685|52=20110224-05:15:04|10=088||0|
M|686|0|0|I|20110224-05:15:34.779|72|8=FIX.4.2|9=50|35=0|49=LSEHub|56=RBS|34=686|52=20110224-05:15:34|10=092||0|
M|687|0|0|I|20110224-05:16:04.780|72|8=FIX.4.2|9=50|35=0|49=LSEHub|56=RBS|34=687|52=20110224-05:16:04|10=091||0|
M|688|0|0|I|20110224-05:16:34.781|72|8=FIX.4.2|9=50|35=0|49=LSEHub|56=RBS|34=688|52=20110224-05:16:34|10=095||0|
M|689|0|0|I|20110224-05:17:04.782|72|8=FIX.4.2|9=50|35=0|49=LSEHub|56=RBS|34=689|52=20110224-05:17:04|10=094||0|
M|690|0|0|I|20110224-05:17:34.783|72|8=FIX.4.2|9=50|35=0|49=LSEHub|56=RBS|34=690|52=20110224-05:17:34|10=089||0|
M|691|0|0|I|20110224-05:18:04.784|72|8=FIX.4.2|9=50|35=0|49=LSEHub|56=RBS|34=691|52=20110224-05:18:04|10=088||0|
M|692|0|0|I|20110224-05:18:34.785|72|8=FIX.4.2|9=50|35=0|49=LSEHub|56=RBS|34=692|52=20110224-05:18:34|10=092||0|
M|693|0|0|I|20110224-05:19:04.786|72|8=FIX.4.2|9=50|35=0|49=LSEHub|56=RBS|34=693|52=20110224-05:19:04|10=091||0|
M|694|0|0|I|20110224-05:19:34.787|72|8=FIX.4.2|9=50|35=0|49=LSEHub|56=RBS|34=694|52=20110224-05:19:34|10=095||0|
M|695|0|0|I|20110224-05:20:04.788|72|8=FIX.4.2|9=50|35=0|49=LSEHub|56=RBS|34=695|52=20110224-05:20:04|10=085||0|
M|696|0|0|I|20110224-05:20:34.788|72|8=FIX.4.2|9=50|35=0|49=LSEHub|56=RBS|34=696|52=20110224-05:20:34|10=089||0|
M|697|0|0|I|20110224-05:21:04.789|72|8=FIX.4.2|9=50|35=0|49=LSEHub|56=RBS|34=697|52=20110224-05:21:04|10=088||0|
M|698|0|0|I|20110224-05:21:34.791|72|8=FIX.4.2|9=50|35=0|49=LSEHub|56=RBS|34=698|52=20110224-05:21:34|10=092||0|
M|699|0|0|I|20110224-05:22:04.791|72|8=FIX.4.2|9=50|35=0|49=LSEHub|56=RBS|34=699|52=20110224-05:22:04|10=091||0|
M|700|0|0|I|20110224-05:22:34.792|72|8=FIX.4.2|9=50|35=0|49=LSEHub|56=RBS|34=700|52=20110224-05:22:34|10=077||0|
M|701|0|0|I|20110224-05:23:04.793|72|8=FIX.4.2|9=50|35=0|49=LSEHub|56=RBS|34=701|52=20110224-05:23:04|10=076||0|
M|702|0|0|I|20110224-05:23:34.794|72|8=FIX.4.2|9=50|35=0|49=LSEHub|56=RBS|34=702|52=20110224-05:23:34|10=080||0|
M|703|0|0|I|20110224-05:24:04.795|72|8=FIX.4.2|9=50|35=0|49=LSEHub|56=RBS|34=703|52=20110224-05:24:04|10=079||0|
M|704|0|0|I|20110224-05:24:34.796|72|8=FIX.4.2|9=50|35=0|49=LSEHub|56=RBS|34=704|52=20110224-05:24:34|10=083||0|
M|705|0|0|I|20110224-05:25:04.797|72|8=FIX.4.2|9=50|35=0|49=LSEHub|56=RBS|34=705|52=20110224-05:25:04|10=082||0|
M|706|0|0|I|20110224-05:25:34.798|72|8=FIX.4.2|9=50|35=0|49=LSEHub|56=RBS|34=706|52=20110224-05:25:34|10=086||0|
M|707|0|0|I|20110224-05:26:04.799|72|8=FIX.4.2|9=50|35=0|49=LSEHub|56=RBS|34=707|52=20110224-05:26:04|10=085||0|
M|708|0|0|I|20110224-05:26:34.800|72|8=FIX.4.2|9=50|35=0|49=LSEHub|56=RBS|34=708|52=20110224-05:26:34|10=089||0|
M|709|0|0|I|20110224-05:27:04.801|72|8=FIX.4.2|9=50|35=0|49=LSEHub|56=RBS|34=709|52=20110224-05:27:04|10=088||0|
M|710|0|0|I|20110224-05:27:34.802|72|8=FIX.4.2|9=50|35=0|49=LSEHub|56=RBS|34=710|52=20110224-05:27:34|10=083||0|
M|711|0|0|I|20110224-05:28:04.803|72|8=FIX.4.2|9=50|35=0|49=LSEHub|56=RBS|34=711|52=20110224-05:28:04|10=082||0|
M|712|0|0|I|20110224-05:28:34.804|72|8=FIX.4.2|9=50|35=0|49=LSEHub|56=RBS|34=712|52=20110224-05:28:34|10=086||0|
M|713|0|0|I|20110224-05:29:04.805|72|8=FIX.4.2|9=50|35=0|49=LSEHub|56=RBS|34=713|52=20110224-05:29:04|10=085||0|
M|714|0|0|I|20110224-05:29:34.806|72|8=FIX.4.2|9=50|35=0|49=LSEHub|56=RBS|34=714|52=20110224-05:29:34|10=089||0|
M|715|0|0|I|20110224-05:30:04.807|72|8=FIX.4.2|9=50|35=0|49=LSEHub|56=RBS|34=715|52=20110224-05:30:04|10=079||0|
M|716|0|0|I|20110224-05:30:34.807|72|8=FIX.4.2|9=50|35=0|49=LSEHub|56=RBS|34=716|52=20110224-05:30:34|10=083||0|
M|717|0|0|I|20110224-05:31:04.809|72|8=FIX.4.2|9=50|35=0|49=LSEHub|56=RBS|34=717|52=20110224-05:31:04|10=082||0|
M|718|0|0|I|20110224-05:31:34.809|72|8=FIX.4.2|9=50|35=0|49=LSEHub|56=RBS|34=718|52=20110224-05:31:34|10=086||0|
M|719|0|0|I|20110224-05:32:04.810|72|8=FIX.4.2|9=50|35=0|49=LSEHub|56=RBS|34=719|52=20110224-05:32:04|10=085||0|
M|720|0|0|I|20110224-05:32:34.811|72|8=FIX.4.2|9=50|35=0|49=LSEHub|56=RBS|34=720|52=20110224-05:32:34|10=080||0|
M|721|0|BD|I|20110224-05:32:54.242|145|8=FIX.4.2|9=122|35=BD|49=LSEHub|56=RBS|34=721|52=20110224-05:32:54|6802=2|6803=NSR-AVIVAINV634341223742694241|6804=1|6805=AVIVAINV|6806=1|10=072||0|
M|722|0|0|I|20110224-05:33:24.235|72|8=FIX.4.2|9=50|35=0|49=LSEHub|56=RBS|34=722|52=20110224-05:33:24|10=082||0|
M|723|0|0|I|20110224-05:33:54.236|72|8=FIX.4.2|9=50|35=0|49=LSEHub|56=RBS|34=723|52=20110224-05:33:54|10=086||0|
M|724|0|0|I|20110224-05:34:24.237|72|8=FIX.4.2|9=50|35=0|49=LSEHub|56=RBS|34=724|52=20110224-05:34:24|10=085||0|
M|725|0|0|I|20110224-05:34:54.238|72|8=FIX.4.2|9=50|35=0|49=LSEHub|56=RBS|34=725|52=20110224-05:34:54|10=089||0|
M|726|0|0|I|20110224-05:35:24.239|72|8=FIX.4.2|9=50|35=0|49=LSEHub|56=RBS|34=726|52=20110224-05:35:24|10=088||0|
M|727|0|0|I|20110224-05:35:54.240|72|8=FIX.4.2|9=50|35=0|49=LSEHub|56=RBS|34=727|52=20110224-05:35:54|10=092||0|
M|728|0|0|I|20110224-05:36:24.240|72|8=FIX.4.2|9=50|35=0|49=LSEHub|56=RBS|34=728|52=20110224-05:36:24|10=091||0|
M|729|0|0|I|20110224-05:36:54.241|72|8=FIX.4.2|9=50|35=0|49=LSEHub|56=RBS|34=729|52=20110224-05:36:54|10=095||0|
M|730|0|0|I|20110224-05:37:24.242|72|8=FIX.4.2|9=50|35=0|49=LSEHub|56=RBS|34=730|52=20110224-05:37:24|10=085||0|
M|731|0|0|I|20110224-05:37:54.243|72|8=FIX.4.2|9=50|35=0|49=LSEHub|56=RBS|34=731|52=20110224-05:37:54|10=089||0|
M|732|0|0|I|20110224-05:38:24.244|72|8=FIX.4.2|9=50|35=0|49=LSEHub|56=RBS|34=732|52=20110224-05:38:24|10=088||0|
M|733|0|0|I|20110224-05:38:54.245|72|8=FIX.4.2|9=50|35=0|49=LSEHub|56=RBS|34=733|52=20110224-05:38:54|10=092||0|
M|734|0|0|I|20110224-05:39:24.246|72|8=FIX.4.2|9=50|35=0|49=LSEHub|56=RBS|34=734|52=20110224-05:39:24|10=091||0|
M|735|0|0|I|20110224-05:39:54.247|72|8=FIX.4.2|9=50|35=0|49=LSEHub|56=RBS|34=735|52=20110224-05:39:54|10=095||0|
M|736|0|0|I|20110224-05:40:24.248|72|8=FIX.4.2|9=50|35=0|49=LSEHub|56=RBS|34=736|52=20110224-05:40:24|10=085||0|
M|737|0|0|I|20110224-05:40:54.249|72|8=FIX.4.2|9=50|35=0|49=LSEHub|56=RBS|34=737|52=20110224-05:40:54|10=089||0|
M|738|0|0|I|20110224-05:41:24.250|72|8=FIX.4.2|9=50|35=0|49=LSEHub|56=RBS|34=738|52=20110224-05:41:24|10=088||0|
M|739|0|0|I|20110224-05:41:54.251|72|8=FIX.4.2|9=50|35=0|49=LSEHub|56=RBS|34=739|52=20110224-05:41:54|10=092||0|
M|740|0|0|I|20110224-05:42:24.252|72|8=FIX.4.2|9=50|35=0|49=LSEHub|56=RBS|34=740|52=20110224-05:42:24|10=082||0|
M|741|0|0|I|20110224-05:42:54.253|72|8=FIX.4.2|9=50|35=0|49=LSEHub|56=RBS|34=741|52=20110224-05:42:54|10=086||0|
M|742|0|0|I|20110224-05:43:24.254|72|8=FIX.4.2|9=50|35=0|49=LSEHub|56=RBS|34=742|52=20110224-05:43:24|10=085||0|
M|743|0|0|I|20110224-05:43:54.255|72|8=FIX.4.2|9=50|35=0|49=LSEHub|56=RBS|34=743|52=20110224-05:43:54|10=089||0|
M|744|0|0|I|20110224-05:44:24.256|72|8=FIX.4.2|9=50|35=0|49=LSEHub|56=RBS|34=744|52=20110224-05:44:24|10=088||0|
M|745|0|0|I|20110224-05:44:54.257|72|8=FIX.4.2|9=50|35=0|49=LSEHub|56=RBS|34=745|52=20110224-05:44:54|10=092||0|
M|746|0|0|I|20110224-05:45:24.258|72|8=FIX.4.2|9=50|35=0|49=LSEHub|56=RBS|34=746|52=20110224-05:45:24|10=091||0|
M|747|0|0|I|20110224-05:45:54.259|72|8=FIX.4.2|9=50|35=0|49=LSEHub|56=RBS|34=747|52=20110224-05:45:54|10=095||0|
M|748|0|0|I|20110224-05:46:24.260|72|8=FIX.4.2|9=50|35=0|49=LSEHub|56=RBS|34=748|52=20110224-05:46:24|10=094||0|
M|749|0|0|I|20110224-05:46:54.260|72|8=FIX.4.2|9=50|35=0|49=LSEHub|56=RBS|34=749|52=20110224-05:46:54|10=098||0|
M|750|0|0|I|20110224-05:47:24.261|72|8=FIX.4.2|9=50|35=0|49=LSEHub|56=RBS|34=750|52=20110224-05:47:24|10=088||0|
M|751|0|0|I|20110224-05:47:54.262|72|8=FIX.4.2|9=50|35=0|49=LSEHub|56=RBS|34=751|52=20110224-05:47:54|10=092||0|
M|752|0|0|I|20110224-05:48:24.248|72|8=FIX.4.2|9=50|35=0|49=LSEHub|56=RBS|34=752|52=20110224-05:48:24|10=091||0|
M|753|0|0|I|20110224-05:48:54.249|72|8=FIX.4.2|9=50|35=0|49=LSEHub|56=RBS|34=753|52=20110224-05:48:54|10=095||0|
M|754|0|0|I|20110224-05:49:24.250|72|8=FIX.4.2|9=50|35=0|49=LSEHub|56=RBS|34=754|52=20110224-05:49:24|10=094||0|
M|755|0|0|I|20110224-05:49:54.250|72|8=FIX.4.2|9=50|35=0|49=LSEHub|56=RBS|34=755|52=20110224-05:49:54|10=098||0|
M|756|0|0|I|20110224-05:50:24.251|72|8=FIX.4.2|9=50|35=0|49=LSEHub|56=RBS|34=756|52=20110224-05:50:24|10=088||0|
M|757|0|0|I|20110224-05:50:54.252|72|8=FIX.4.2|9=50|35=0|49=LSEHub|56=RBS|34=757|52=20110224-05:50:54|10=092||0|
M|758|0|0|I|20110224-05:51:24.253|72|8=FIX.4.2|9=50|35=0|49=LSEHub|56=RBS|34=758|52=20110224-05:51:24|10=091||0|
M|759|0|0|I|20110224-05:51:54.254|72|8=FIX.4.2|9=50|35=0|49=LSEHub|56=RBS|34=759|52=20110224-05:51:54|10=095||0|
M|760|0|0|I|20110224-05:52:24.255|72|8=FIX.4.2|9=50|35=0|49=LSEHub|56=RBS|34=760|52=20110224-05:52:24|10=085||0|
M|761|0|0|I|20110224-05:52:54.256|72|8=FIX.4.2|9=50|35=0|49=LSEHub|56=RBS|34=761|52=20110224-05:52:54|10=089||0|
M|762|0|0|I|20110224-05:53:24.257|72|8=FIX.4.2|9=50|35=0|49=LSEHub|56=RBS|34=762|52=20110224-05:53:24|10=088||0|
M|763|0|0|I|20110224-05:53:54.258|72|8=FIX.4.2|9=50|35=0|49=LSEHub|56=RBS|34=763|52=20110224-05:53:54|10=092||0|
M|764|0|0|I|20110224-05:54:24.259|72|8=FIX.4.2|9=50|35=0|49=LSEHub|56=RBS|34=764|52=20110224-05:54:24|10=091||0|
M|765|0|0|I|20110224-05:54:54.260|72|8=FIX.4.2|9=50|35=0|49=LSEHub|56=RBS|34=765|52=20110224-05:54:54|10=095||0|
M|766|0|0|I|20110224-05:55:24.261|72|8=FIX.4.2|9=50|35=0|49=LSEHub|56=RBS|34=766|52=20110224-05:55:24|10=094||0|
M|767|0|0|I|20110224-05:55:54.262|72|8=FIX.4.2|9=50|35=0|49=LSEHub|56=RBS|34=767|52=20110224-05:55:54|10=098||0|
M|768|0|0|I|20110224-05:56:24.263|72|8=FIX.4.2|9=50|35=0|49=LSEHub|56=RBS|34=768|52=20110224-05:56:24|10=097||0|
M|769|0|0|I|20110224-05:56:54.264|72|8=FIX.4.2|9=50|35=0|49=LSEHub|56=RBS|34=769|52=20110224-05:56:54|10=101||0|
M|770|0|0|I|20110224-05:57:24.265|72|8=FIX.4.2|9=50|35=0|49=LSEHub|56=RBS|34=770|52=20110224-05:57:24|10=091||0|
M|771|0|0|I|20110224-05:57:54.266|72|8=FIX.4.2|9=50|35=0|49=LSEHub|56=RBS|34=771|52=20110224-05:57:54|10=095||0|
M|772|0|0|I|20110224-05:58:24.267|72|8=FIX.4.2|9=50|35=0|49=LSEHub|56=RBS|34=772|52=20110224-05:58:24|10=094||0|
M|773|0|0|I|20110224-05:58:54.268|72|8=FIX.4.2|9=50|35=0|49=LSEHub|56=RBS|34=773|52=20110224-05:58:54|10=098||0|
M|774|0|0|I|20110224-05:59:24.269|72|8=FIX.4.2|9=50|35=0|49=LSEHub|56=RBS|34=774|52=20110224-05:59:24|10=097||0|
M|775|0|0|I|20110224-05:59:54.270|72|8=FIX.4.2|9=50|35=0|49=LSEHub|56=RBS|34=775|52=20110224-05:59:54|10=101||0|
M|776|0|0|I|20110224-06:00:24.270|72|8=FIX.4.2|9=50|35=0|49=LSEHub|56=RBS|34=776|52=20110224-06:00:24|10=086||0|
M|777|0|BD|I|20110224-06:00:25.197|139|8=FIX.4.2|9=116|35=BD|49=LSEHub|56=RBS|34=777|52=20110224-06:00:25|6802=2|6803=NSR-robur634341240252188399|6804=1|6805=robur|6806=1|10=227||0|
M|778|0|0|I|20110224-06:00:55.193|72|8=FIX.4.2|9=50|35=0|49=LSEHub|56=RBS|34=778|52=20110224-06:00:55|10=092||0|
M|779|0|0|I|20110224-06:01:25.194|72|8=FIX.4.2|9=50|35=0|49=LSEHub|56=RBS|34=779|52=20110224-06:01:25|10=091||0|
M|780|0|0|I|20110224-06:01:55.195|72|8=FIX.4.2|9=50|35=0|49=LSEHub|56=RBS|34=780|52=20110224-06:01:55|10=086||0|
M|781|0|0|I|20110224-06:02:25.196|72|8=FIX.4.2|9=50|35=0|49=LSEHub|56=RBS|34=781|52=20110224-06:02:25|10=085||0|
M|782|0|0|I|20110224-06:02:55.197|72|8=FIX.4.2|9=50|35=0|49=LSEHub|56=RBS|34=782|52=20110224-06:02:55|10=089||0|
M|783|0|0|I|20110224-06:03:25.198|72|8=FIX.4.2|9=50|35=0|49=LSEHub|56=RBS|34=783|52=20110224-06:03:25|10=088||0|
M|784|0|0|I|20110224-06:03:55.199|72|8=FIX.4.2|9=50|35=0|49=LSEHub|56=RBS|34=784|52=20110224-06:03:55|10=092||0|
M|785|0|0|I|20110224-06:04:25.200|72|8=FIX.4.2|9=50|35=0|49=LSEHub|56=RBS|34=785|52=20110224-06:04:25|10=091||0|
M|786|0|0|I|20110224-06:04:55.201|72|8=FIX.4.2|9=50|35=0|49=LSEHub|56=RBS|34=786|52=20110224-06:04:55|10=095||0|
M|787|0|0|I|20110224-06:05:25.202|72|8=FIX.4.2|9=50|35=0|49=LSEHub|56=RBS|34=787|52=20110224-06:05:25|10=094||0|
M|788|0|0|I|20110224-06:05:55.203|72|8=FIX.4.2|9=50|35=0|49=LSEHub|56=RBS|34=788|52=20110224-06:05:55|10=098||0|
M|789|0|0|I|20110224-06:06:25.204|72|8=FIX.4.2|9=50|35=0|49=LSEHub|56=RBS|34=789|52=20110224-06:06:25|10=097||0|
M|790|0|0|I|20110224-06:06:55.205|72|8=FIX.4.2|9=50|35=0|49=LSEHub|56=RBS|34=790|52=20110224-06:06:55|10=092||0|
M|791|0|0|I|20110224-06:07:25.206|72|8=FIX.4.2|9=50|35=0|49=LSEHub|56=RBS|34=791|52=20110224-06:07:25|10=091||0|
M|792|0|0|I|20110224-06:07:55.207|72|8=FIX.4.2|9=50|35=0|49=LSEHub|56=RBS|34=792|52=20110224-06:07:55|10=095||0|
M|793|0|0|I|20110224-06:08:25.208|72|8=FIX.4.2|9=50|35=0|49=LSEHub|56=RBS|34=793|52=20110224-06:08:25|10=094||0|
M|794|0|0|I|20110224-06:08:55.209|72|8=FIX.4.2|9=50|35=0|49=LSEHub|56=RBS|34=794|52=20110224-06:08:55|10=098||0|
M|795|0|0|I|20110224-06:09:25.210|72|8=FIX.4.2|9=50|35=0|49=LSEHub|56=RBS|34=795|52=20110224-06:09:25|10=097||0|
M|796|0|0|I|20110224-06:09:55.211|72|8=FIX.4.2|9=50|35=0|49=LSEHub|56=RBS|34=796|52=20110224-06:09:55|10=101||0|
M|797|0|0|I|20110224-06:10:25.212|72|8=FIX.4.2|9=50|35=0|49=LSEHub|56=RBS|34=797|52=20110224-06:10:25|10=091||0|
M|798|0|0|I|20110224-06:10:55.213|72|8=FIX.4.2|9=50|35=0|49=LSEHub|56=RBS|34=798|52=20110224-06:10:55|10=095||0|
M|799|0|0|I|20110224-06:11:25.214|72|8=FIX.4.2|9=50|35=0|49=LSEHub|56=RBS|34=799|52=20110224-06:11:25|10=094||0|
M|800|0|0|I|20110224-06:11:55.215|72|8=FIX.4.2|9=50|35=0|49=LSEHub|56=RBS|34=800|52=20110224-06:11:55|10=080||0|
M|801|0|0|I|20110224-06:12:25.215|72|8=FIX.4.2|9=50|35=0|49=LSEHub|56=RBS|34=801|52=20110224-06:12:25|10=079||0|
M|802|0|0|I|20110224-06:12:55.216|72|8=FIX.4.2|9=50|35=0|49=LSEHub|56=RBS|34=802|52=20110224-06:12:55|10=083||0|
M|803|0|0|I|20110224-06:13:25.217|72|8=FIX.4.2|9=50|35=0|49=LSEHub|56=RBS|34=803|52=20110224-06:13:25|10=082||0|
M|804|0|0|I|20110224-06:13:55.218|72|8=FIX.4.2|9=50|35=0|49=LSEHub|56=RBS|34=804|52=20110224-06:13:55|10=086||0|
M|805|0|0|I|20110224-06:14:25.219|72|8=FIX.4.2|9=50|35=0|49=LSEHub|56=RBS|34=805|52=20110224-06:14:25|10=085||0|
M|806|0|0|I|20110224-06:14:55.220|72|8=FIX.4.2|9=50|35=0|49=LSEHub|56=RBS|34=806|52=20110224-06:14:55|10=089||0|
M|807|0|0|I|20110224-06:15:25.221|72|8=FIX.4.2|9=50|35=0|49=LSEHub|56=RBS|34=807|52=20110224-06:15:25|10=088||0|
M|808|0|0|I|20110224-06:15:55.222|72|8=FIX.4.2|9=50|35=0|49=LSEHub|56=RBS|34=808|52=20110224-06:15:55|10=092||0|
M|809|0|0|I|20110224-06:16:25.223|72|8=FIX.4.2|9=50|35=0|49=LSEHub|56=RBS|34=809|52=20110224-06:16:25|10=091||0|
M|810|0|0|I|20110224-06:16:55.224|72|8=FIX.4.2|9=50|35=0|49=LSEHub|56=RBS|34=810|52=20110224-06:16:55|10=086||0|
M|811|0|0|I|20110224-06:17:25.225|72|8=FIX.4.2|9=50|35=0|49=LSEHub|56=RBS|34=811|52=20110224-06:17:25|10=085||0|
M|812|0|0|I|20110224-06:17:55.226|72|8=FIX.4.2|9=50|35=0|49=LSEHub|56=RBS|34=812|52=20110224-06:17:55|10=089||0|
M|813|0|0|I|20110224-06:18:25.227|72|8=FIX.4.2|9=50|35=0|49=LSEHub|56=RBS|34=813|52=20110224-06:18:25|10=088||0|
M|814|0|0|I|20110224-06:18:55.228|72|8=FIX.4.2|9=50|35=0|49=LSEHub|56=RBS|34=814|52=20110224-06:18:55|10=092||0|
M|815|0|0|I|20110224-06:19:25.229|72|8=FIX.4.2|9=50|35=0|49=LSEHub|56=RBS|34=815|52=20110224-06:19:25|10=091||0|
M|816|0|0|I|20110224-06:19:55.230|72|8=FIX.4.2|9=50|35=0|49=LSEHub|56=RBS|34=816|52=20110224-06:19:55|10=095||0|
M|817|0|0|I|20110224-06:20:25.231|72|8=FIX.4.2|9=50|35=0|49=LSEHub|56=RBS|34=817|52=20110224-06:20:25|10=085||0|
M|818|0|0|I|20110224-06:20:55.232|72|8=FIX.4.2|9=50|35=0|49=LSEHub|56=RBS|34=818|52=20110224-06:20:55|10=089||0|
M|819|0|0|I|20110224-06:21:25.233|72|8=FIX.4.2|9=50|35=0|49=LSEHub|56=RBS|34=819|52=20110224-06:21:25|10=088||0|
M|820|0|0|I|20110224-06:21:55.234|72|8=FIX.4.2|9=50|35=0|49=LSEHub|56=RBS|34=820|52=20110224-06:21:55|10=083||0|
M|821|0|0|I|20110224-06:22:25.234|72|8=FIX.4.2|9=50|35=0|49=LSEHub|56=RBS|34=821|52=20110224-06:22:25|10=082||0|
M|822|0|0|I|20110224-06:22:55.235|72|8=FIX.4.2|9=50|35=0|49=LSEHub|56=RBS|34=822|52=20110224-06:22:55|10=086||0|
M|823|0|0|I|20110224-06:23:25.236|72|8=FIX.4.2|9=50|35=0|49=LSEHub|56=RBS|34=823|52=20110224-06:23:25|10=085||0|
M|824|0|0|I|20110224-06:23:55.237|72|8=FIX.4.2|9=50|35=0|49=LSEHub|56=RBS|34=824|52=20110224-06:23:55|10=089||0|
M|825|0|0|I|20110224-06:24:25.238|72|8=FIX.4.2|9=50|35=0|49=LSEHub|56=RBS|34=825|52=20110224-06:24:25|10=088||0|
M|826|0|0|I|20110224-06:24:55.239|72|8=FIX.4.2|9=50|35=0|49=LSEHub|56=RBS|34=826|52=20110224-06:24:55|10=092||0|
M|827|0|0|I|20110224-06:25:25.240|72|8=FIX.4.2|9=50|35=0|49=LSEHub|56=RBS|34=827|52=20110224-06:25:25|10=091||0|
M|828|0|0|I|20110224-06:25:55.241|72|8=FIX.4.2|9=50|35=0|49=LSEHub|56=RBS|34=828|52=20110224-06:25:55|10=095||0|
M|829|0|0|I|20110224-06:26:25.242|72|8=FIX.4.2|9=50|35=0|49=LSEHub|56=RBS|34=829|52=20110224-06:26:25|10=094||0|
M|830|0|0|I|20110224-06:26:55.243|72|8=FIX.4.2|9=50|35=0|49=LSEHub|56=RBS|34=830|52=20110224-06:26:55|10=089||0|
M|831|0|0|I|20110224-06:27:25.244|72|8=FIX.4.2|9=50|35=0|49=LSEHub|56=RBS|34=831|52=20110224-06:27:25|10=088||0|
M|832|0|0|I|20110224-06:27:55.245|72|8=FIX.4.2|9=50|35=0|49=LSEHub|56=RBS|34=832|52=20110224-06:27:55|10=092||0|
M|833|0|0|I|20110224-06:28:25.246|72|8=FIX.4.2|9=50|35=0|49=LSEHub|56=RBS|34=833|52=20110224-06:28:25|10=091||0|
M|834|0|0|I|20110224-06:28:55.247|72|8=FIX.4.2|9=50|35=0|49=LSEHub|56=RBS|34=834|52=20110224-06:28:55|10=095||0|
M|835|0|0|I|20110224-06:29:25.248|72|8=FIX.4.2|9=50|35=0|49=LSEHub|56=RBS|34=835|52=20110224-06:29:25|10=094||0|
M|836|0|0|I|20110224-06:29:55.249|72|8=FIX.4.2|9=50|35=0|49=LSEHub|56=RBS|34=836|52=20110224-06:29:55|10=098||0|
M|837|0|0|I|20110224-06:30:25.250|72|8=FIX.4.2|9=50|35=0|49=LSEHub|56=RBS|34=837|52=20110224-06:30:25|10=088||0|
M|838|0|0|I|20110224-06:30:55.251|72|8=FIX.4.2|9=50|35=0|49=LSEHub|56=RBS|34=838|52=20110224-06:30:55|10=092||0|
M|839|0|0|I|20110224-06:31:25.252|72|8=FIX.4.2|9=50|35=0|49=LSEHub|56=RBS|34=839|52=20110224-06:31:25|10=091||0|
M|840|0|0|I|20110224-06:31:55.253|72|8=FIX.4.2|9=50|35=0|49=LSEHub|56=RBS|34=840|52=20110224-06:31:55|10=086||0|
M|841|0|0|I|20110224-06:32:25.254|72|8=FIX.4.2|9=50|35=0|49=LSEHub|56=RBS|34=841|52=20110224-06:32:25|10=085||0|
M|842|0|0|I|20110224-06:32:55.255|72|8=FIX.4.2|9=50|35=0|49=LSEHub|56=RBS|34=842|52=20110224-06:32:55|10=089||0|
M|843|0|0|I|20110224-06:33:25.256|72|8=FIX.4.2|9=50|35=0|49=LSEHub|56=RBS|34=843|52=20110224-06:33:25|10=088||0|
M|844|0|0|I|20110224-06:33:55.256|72|8=FIX.4.2|9=50|35=0|49=LSEHub|56=RBS|34=844|52=20110224-06:33:55|10=092||0|
M|845|0|0|I|20110224-06:34:25.257|72|8=FIX.4.2|9=50|35=0|49=LSEHub|56=RBS|34=845|52=20110224-06:34:25|10=091||0|
M|846|0|0|I|20110224-06:34:55.258|72|8=FIX.4.2|9=50|35=0|49=LSEHub|56=RBS|34=846|52=20110224-06:34:55|10=095||0|
M|847|0|0|I|20110224-06:35:25.259|72|8=FIX.4.2|9=50|35=0|49=LSEHub|56=RBS|34=847|52=20110224-06:35:25|10=094||0|
M|848|0|0|I|20110224-06:35:55.260|72|8=FIX.4.2|9=50|35=0|49=LSEHub|56=RBS|34=848|52=20110224-06:35:55|10=098||0|
M|849|0|0|I|20110224-06:36:25.261|72|8=FIX.4.2|9=50|35=0|49=LSEHub|56=RBS|34=849|52=20110224-06:36:25|10=097||0|
M|850|0|0|I|20110224-06:36:55.262|72|8=FIX.4.2|9=50|35=0|49=LSEHub|56=RBS|34=850|52=20110224-06:36:55|10=092||0|
M|851|0|0|I|20110224-06:37:25.263|72|8=FIX.4.2|9=50|35=0|49=LSEHub|56=RBS|34=851|52=20110224-06:37:25|10=091||0|
M|852|0|0|I|20110224-06:37:55.264|72|8=FIX.4.2|9=50|35=0|49=LSEHub|56=RBS|34=852|52=20110224-06:37:55|10=095||0|
M|853|0|0|I|20110224-06:38:25.265|72|8=FIX.4.2|9=50|35=0|49=LSEHub|56=RBS|34=853|52=20110224-06:38:25|10=094||0|
M|854|0|0|I|20110224-06:38:55.250|72|8=FIX.4.2|9=50|35=0|49=LSEHub|56=RBS|34=854|52=20110224-06:38:55|10=098||0|
M|855|0|0|I|20110224-06:39:25.251|72|8=FIX.4.2|9=50|35=0|49=LSEHub|56=RBS|34=855|52=20110224-06:39:25|10=097||0|
M|856|0|0|I|20110224-06:39:55.252|72|8=FIX.4.2|9=50|35=0|49=LSEHub|56=RBS|34=856|52=20110224-06:39:55|10=101||0|
M|857|0|0|I|20110224-06:40:25.253|72|8=FIX.4.2|9=50|35=0|49=LSEHub|56=RBS|34=857|52=20110224-06:40:25|10=091||0|
M|858|0|0|I|20110224-06:40:55.254|72|8=FIX.4.2|9=50|35=0|49=LSEHub|56=RBS|34=858|52=20110224-06:40:55|10=095||0|
M|859|0|0|I|20110224-06:41:25.255|72|8=FIX.4.2|9=50|35=0|49=LSEHub|56=RBS|34=859|52=20110224-06:41:25|10=094||0|
M|860|0|0|I|20110224-06:41:55.256|72|8=FIX.4.2|9=50|35=0|49=LSEHub|56=RBS|34=860|52=20110224-06:41:55|10=089||0|
M|861|0|0|I|20110224-06:42:25.257|72|8=FIX.4.2|9=50|35=0|49=LSEHub|56=RBS|34=861|52=20110224-06:42:25|10=088||0|
M|862|0|0|I|20110224-06:42:55.258|72|8=FIX.4.2|9=50|35=0|49=LSEHub|56=RBS|34=862|52=20110224-06:42:55|10=092||0|
M|863|0|0|I|20110224-06:43:25.259|72|8=FIX.4.2|9=50|35=0|49=LSEHub|56=RBS|34=863|52=20110224-06:43:25|10=091||0|
M|864|0|0|I|20110224-06:43:55.260|72|8=FIX.4.2|9=50|35=0|49=LSEHub|56=RBS|34=864|52=20110224-06:43:55|10=095||0|
M|865|0|0|I|20110224-06:44:25.261|72|8=FIX.4.2|9=50|35=0|49=LSEHub|56=RBS|34=865|52=20110224-06:44:25|10=094||0|
M|866|0|0|I|20110224-06:44:55.262|72|8=FIX.4.2|9=50|35=0|49=LSEHub|56=RBS|34=866|52=20110224-06:44:55|10=098||0|
M|867|0|0|I|20110224-06:45:25.263|72|8=FIX.4.2|9=50|35=0|49=LSEHub|56=RBS|34=867|52=20110224-06:45:25|10=097||0|
M|868|0|0|I|20110224-06:45:55.264|72|8=FIX.4.2|9=50|35=0|49=LSEHub|56=RBS|34=868|52=20110224-06:45:55|10=101||0|
M|869|0|0|I|20110224-06:46:25.265|72|8=FIX.4.2|9=50|35=0|49=LSEHub|56=RBS|34=869|52=20110224-06:46:25|10=100||0|
M|870|0|0|I|20110224-06:46:55.266|72|8=FIX.4.2|9=50|35=0|49=LSEHub|56=RBS|34=870|52=20110224-06:46:55|10=095||0|
M|871|0|0|I|20110224-06:47:25.267|72|8=FIX.4.2|9=50|35=0|49=LSEHub|56=RBS|34=871|52=20110224-06:47:25|10=094||0|
M|872|0|0|I|20110224-06:47:55.268|72|8=FIX.4.2|9=50|35=0|49=LSEHub|56=RBS|34=872|52=20110224-06:47:55|10=098||0|
M|873|0|0|I|20110224-06:48:25.269|72|8=FIX.4.2|9=50|35=0|49=LSEHub|56=RBS|34=873|52=20110224-06:48:25|10=097||0|
