V|1.1|
M|1|0|A|I|20110223-23:35:42.384|82|8=FIX.4.2|9=60|35=A|34=1|49=RBS|56=LSEHub|52=20110223-23:35:42|108=30|98=0|10=020||0|
M|2|0|1|I|20110223-23:35:42.402|81|8=FIX.4.2|9=59|35=1|34=2|49=RBS|56=LSEHub|52=20110223-23:35:42|112=STBL-2|10=090||0|
M|3|0|3|I|20110223-23:35:42.412|138|8=FIX.4.2|9=115|35=3|34=3|49=RBS|56=LSEHub|52=20110223-23:35:42|371=-1|45=3|372=BD|58=message type BD is not a valid message type.|10=220||0|
M|4|0|0|I|20110223-23:36:12.914|70|8=FIX.4.2|9=48|35=0|34=4|49=RBS|56=LSEHub|52=20110223-23:36:12|10=241||0|
M|5|0|3|I|20110223-23:36:17.775|138|8=FIX.4.2|9=115|35=3|34=5|49=RBS|56=LSEHub|52=20110223-23:36:17|371=-1|45=5|372=BD|58=message type BD is not a valid message type.|10=227||0|
M|6|0|3|I|20110223-23:36:17.781|138|8=FIX.4.2|9=115|35=3|34=6|49=RBS|56=LSEHub|52=20110223-23:36:17|371=-1|45=6|372=BD|58=message type BD is not a valid message type.|10=229||0|
M|7|0|0|I|20110223-23:36:48.083|70|8=FIX.4.2|9=48|35=0|34=7|49=RBS|56=LSEHub|52=20110223-23:36:48|10=253||0|
M|8|0|0|I|20110223-23:37:18.152|70|8=FIX.4.2|9=48|35=0|34=8|49=RBS|56=LSEHub|52=20110223-23:37:18|10=252||0|
M|9|0|0|I|20110223-23:37:48.220|70|8=FIX.4.2|9=48|35=0|34=9|49=RBS|56=LSEHub|52=20110223-23:37:48|10=000||0|
M|10|0|0|I|20110223-23:38:18.269|71|8=FIX.4.2|9=49|35=0|34=10|49=RBS|56=LSEHub|52=20110223-23:38:18|10=039||0|
M|11|0|0|I|20110223-23:38:48.358|71|8=FIX.4.2|9=49|35=0|34=11|49=RBS|56=LSEHub|52=20110223-23:38:48|10=043||0|
M|12|0|0|I|20110223-23:39:18.426|71|8=FIX.4.2|9=49|35=0|34=12|49=RBS|56=LSEHub|52=20110223-23:39:18|10=042||0|
M|13|0|0|I|20110223-23:39:48.505|71|8=FIX.4.2|9=49|35=0|34=13|49=RBS|56=LSEHub|52=20110223-23:39:48|10=046||0|
M|14|0|0|I|20110223-23:40:18.554|71|8=FIX.4.2|9=49|35=0|34=14|49=RBS|56=LSEHub|52=20110223-23:40:18|10=036||0|
M|15|0|0|I|20110223-23:40:48.622|71|8=FIX.4.2|9=49|35=0|34=15|49=RBS|56=LSEHub|52=20110223-23:40:48|10=040||0|
M|16|0|0|I|20110223-23:41:18.671|71|8=FIX.4.2|9=49|35=0|34=16|49=RBS|56=LSEHub|52=20110223-23:41:18|10=039||0|
M|17|0|0|I|20110223-23:41:48.730|71|8=FIX.4.2|9=49|35=0|34=17|49=RBS|56=LSEHub|52=20110223-23:41:48|10=043||0|
M|18|0|0|I|20110223-23:42:18.808|71|8=FIX.4.2|9=49|35=0|34=18|49=RBS|56=LSEHub|52=20110223-23:42:18|10=042||0|
M|19|0|0|I|20110223-23:42:48.847|71|8=FIX.4.2|9=49|35=0|34=19|49=RBS|56=LSEHub|52=20110223-23:42:48|10=046||0|
M|20|0|0|I|20110223-23:43:18.916|71|8=FIX.4.2|9=49|35=0|34=20|49=RBS|56=LSEHub|52=20110223-23:43:18|10=036||0|
M|21|0|0|I|20110223-23:43:48.964|71|8=FIX.4.2|9=49|35=0|34=21|49=RBS|56=LSEHub|52=20110223-23:43:48|10=040||0|
M|22|0|0|I|20110223-23:44:19.043|71|8=FIX.4.2|9=49|35=0|34=22|49=RBS|56=LSEHub|52=20110223-23:44:19|10=040||0|
M|23|0|3|I|20110223-23:44:28.943|140|8=FIX.4.2|9=117|35=3|34=23|49=RBS|56=LSEHub|52=20110223-23:44:28|371=-1|45=23|372=BD|58=message type BD is not a valid message type.|10=070||0|
M|24|0|3|I|20110223-23:44:35.862|140|8=FIX.4.2|9=117|35=3|34=24|49=RBS|56=LSEHub|52=20110223-23:44:35|371=-1|45=24|372=BD|58=message type BD is not a valid message type.|10=070||0|
M|25|0|0|I|20110223-23:45:05.931|71|8=FIX.4.2|9=49|35=0|34=25|49=RBS|56=LSEHub|52=20110223-23:45:05|10=039||0|
M|26|0|0|I|20110223-23:45:36.000|71|8=FIX.4.2|9=49|35=0|34=26|49=RBS|56=LSEHub|52=20110223-23:45:36|10=044||0|
M|27|0|0|I|20110223-23:46:06.078|71|8=FIX.4.2|9=49|35=0|34=27|49=RBS|56=LSEHub|52=20110223-23:46:06|10=043||0|
M|28|0|0|I|20110223-23:46:36.147|71|8=FIX.4.2|9=49|35=0|34=28|49=RBS|56=LSEHub|52=20110223-23:46:36|10=047||0|
M|29|0|0|I|20110223-23:47:06.226|71|8=FIX.4.2|9=49|35=0|34=29|49=RBS|56=LSEHub|52=20110223-23:47:06|10=046||0|
M|30|0|0|I|20110223-23:47:36.275|71|8=FIX.4.2|9=49|35=0|34=30|49=RBS|56=LSEHub|52=20110223-23:47:36|10=041||0|
M|31|0|0|I|20110223-23:48:06.323|71|8=FIX.4.2|9=49|35=0|34=31|49=RBS|56=LSEHub|52=20110223-23:48:06|10=040||0|
M|32|0|0|I|20110223-23:48:36.402|71|8=FIX.4.2|9=49|35=0|34=32|49=RBS|56=LSEHub|52=20110223-23:48:36|10=044||0|
M|33|0|0|I|20110223-23:49:06.481|71|8=FIX.4.2|9=49|35=0|34=33|49=RBS|56=LSEHub|52=20110223-23:49:06|10=043||0|
M|34|0|0|I|20110223-23:49:36.559|71|8=FIX.4.2|9=49|35=0|34=34|49=RBS|56=LSEHub|52=20110223-23:49:36|10=047||0|
M|35|0|0|I|20110223-23:50:06.628|71|8=FIX.4.2|9=49|35=0|34=35|49=RBS|56=LSEHub|52=20110223-23:50:06|10=037||0|
M|36|0|0|I|20110223-23:50:36.707|71|8=FIX.4.2|9=49|35=0|34=36|49=RBS|56=LSEHub|52=20110223-23:50:36|10=041||0|
M|37|0|0|I|20110223-23:51:06.795|71|8=FIX.4.2|9=49|35=0|34=37|49=RBS|56=LSEHub|52=20110223-23:51:06|10=040||0|
M|38|0|0|I|20110223-23:51:36.874|71|8=FIX.4.2|9=49|35=0|34=38|49=RBS|56=LSEHub|52=20110223-23:51:36|10=044||0|
M|39|0|0|I|20110223-23:52:06.933|71|8=FIX.4.2|9=49|35=0|34=39|49=RBS|56=LSEHub|52=20110223-23:52:06|10=043||0|
M|40|0|0|I|20110223-23:52:36.981|71|8=FIX.4.2|9=49|35=0|34=40|49=RBS|56=LSEHub|52=20110223-23:52:36|10=038||0|
M|41|0|0|I|20110223-23:53:07.060|71|8=FIX.4.2|9=49|35=0|34=41|49=RBS|56=LSEHub|52=20110223-23:53:07|10=038||0|
M|42|0|0|I|20110223-23:53:37.129|71|8=FIX.4.2|9=49|35=0|34=42|49=RBS|56=LSEHub|52=20110223-23:53:37|10=042||0|
M|43|0|0|I|20110223-23:54:07.198|71|8=FIX.4.2|9=49|35=0|34=43|49=RBS|56=LSEHub|52=20110223-23:54:07|10=041||0|
M|44|0|0|I|20110223-23:54:37.276|71|8=FIX.4.2|9=49|35=0|34=44|49=RBS|56=LSEHub|52=20110223-23:54:37|10=045||0|
M|45|0|0|I|20110223-23:55:07.335|71|8=FIX.4.2|9=49|35=0|34=45|49=RBS|56=LSEHub|52=20110223-23:55:07|10=044||0|
M|46|0|0|I|20110223-23:55:37.404|71|8=FIX.4.2|9=49|35=0|34=46|49=RBS|56=LSEHub|52=20110223-23:55:37|10=048||0|
M|47|0|0|I|20110223-23:56:07.472|71|8=FIX.4.2|9=49|35=0|34=47|49=RBS|56=LSEHub|52=20110223-23:56:07|10=047||0|
M|48|0|0|I|20110223-23:56:37.541|71|8=FIX.4.2|9=49|35=0|34=48|49=RBS|56=LSEHub|52=20110223-23:56:37|10=051||0|
M|49|0|0|I|20110223-23:57:07.610|71|8=FIX.4.2|9=49|35=0|34=49|49=RBS|56=LSEHub|52=20110223-23:57:07|10=050||0|
M|50|0|0|I|20110223-23:57:37.678|71|8=FIX.4.2|9=49|35=0|34=50|49=RBS|56=LSEHub|52=20110223-23:57:37|10=045||0|
M|51|0|0|I|20110223-23:58:07.757|71|8=FIX.4.2|9=49|35=0|34=51|49=RBS|56=LSEHub|52=20110223-23:58:07|10=044||0|
M|52|0|0|I|20110223-23:58:37.826|71|8=FIX.4.2|9=49|35=0|34=52|49=RBS|56=LSEHub|52=20110223-23:58:37|10=048||0|
M|53|0|0|I|20110223-23:59:07.874|71|8=FIX.4.2|9=49|35=0|34=53|49=RBS|56=LSEHub|52=20110223-23:59:07|10=047||0|
M|54|0|0|I|20110223-23:59:37.943|71|8=FIX.4.2|9=49|35=0|34=54|49=RBS|56=LSEHub|52=20110223-23:59:37|10=051||0|
M|55|0|0|I|20110224-00:00:08.002|71|8=FIX.4.2|9=49|35=0|34=55|49=RBS|56=LSEHub|52=20110224-00:00:08|10=032||0|
M|56|0|0|I|20110224-00:00:38.041|71|8=FIX.4.2|9=49|35=0|34=56|49=RBS|56=LSEHub|52=20110224-00:00:38|10=036||0|
M|57|0|0|I|20110224-00:01:08.099|71|8=FIX.4.2|9=49|35=0|34=57|49=RBS|56=LSEHub|52=20110224-00:01:08|10=035||0|
M|58|0|0|I|20110224-00:01:38.178|71|8=FIX.4.2|9=49|35=0|34=58|49=RBS|56=LSEHub|52=20110224-00:01:38|10=039||0|
M|59|0|0|I|20110224-00:02:08.227|71|8=FIX.4.2|9=49|35=0|34=59|49=RBS|56=LSEHub|52=20110224-00:02:08|10=038||0|
M|60|0|0|I|20110224-00:02:38.315|71|8=FIX.4.2|9=49|35=0|34=60|49=RBS|56=LSEHub|52=20110224-00:02:38|10=033||0|
M|61|0|0|I|20110224-00:03:08.374|71|8=FIX.4.2|9=49|35=0|34=61|49=RBS|56=LSEHub|52=20110224-00:03:08|10=032||0|
M|62|0|0|I|20110224-00:03:38.443|71|8=FIX.4.2|9=49|35=0|34=62|49=RBS|56=LSEHub|52=20110224-00:03:38|10=036||0|
M|63|0|0|I|20110224-00:04:08.451|71|8=FIX.4.2|9=49|35=0|34=63|49=RBS|56=LSEHub|52=20110224-00:04:08|10=035||0|
M|64|0|0|I|20110224-00:04:38.510|71|8=FIX.4.2|9=49|35=0|34=64|49=RBS|56=LSEHub|52=20110224-00:04:38|10=039||0|
M|65|0|0|I|20110224-00:05:08.579|71|8=FIX.4.2|9=49|35=0|34=65|49=RBS|56=LSEHub|52=20110224-00:05:08|10=038||0|
M|66|0|0|I|20110224-00:05:38.648|71|8=FIX.4.2|9=49|35=0|34=66|49=RBS|56=LSEHub|52=20110224-00:05:38|10=042||0|
M|67|0|0|I|20110224-00:06:08.736|71|8=FIX.4.2|9=49|35=0|34=67|49=RBS|56=LSEHub|52=20110224-00:06:08|10=041||0|
M|68|0|0|I|20110224-00:06:38.805|71|8=FIX.4.2|9=49|35=0|34=68|49=RBS|56=LSEHub|52=20110224-00:06:38|10=045||0|
M|69|0|0|I|20110224-00:07:08.884|71|8=FIX.4.2|9=49|35=0|34=69|49=RBS|56=LSEHub|52=20110224-00:07:08|10=044||0|
M|70|0|0|I|20110224-00:07:38.932|71|8=FIX.4.2|9=49|35=0|34=70|49=RBS|56=LSEHub|52=20110224-00:07:38|10=039||0|
M|71|0|0|I|20110224-00:08:09.001|71|8=FIX.4.2|9=49|35=0|34=71|49=RBS|56=LSEHub|52=20110224-00:08:09|10=039||0|
M|72|0|0|I|20110224-00:08:39.060|71|8=FIX.4.2|9=49|35=0|34=72|49=RBS|56=LSEHub|52=20110224-00:08:39|10=043||0|
M|73|0|0|I|20110224-00:09:09.118|71|8=FIX.4.2|9=49|35=0|34=73|49=RBS|56=LSEHub|52=20110224-00:09:09|10=042||0|
M|74|0|0|I|20110224-00:09:39.197|71|8=FIX.4.2|9=49|35=0|34=74|49=RBS|56=LSEHub|52=20110224-00:09:39|10=046||0|
M|75|0|0|I|20110224-00:10:09.276|71|8=FIX.4.2|9=49|35=0|34=75|49=RBS|56=LSEHub|52=20110224-00:10:09|10=036||0|
M|76|0|0|I|20110224-00:10:39.344|71|8=FIX.4.2|9=49|35=0|34=76|49=RBS|56=LSEHub|52=20110224-00:10:39|10=040||0|
M|77|0|0|I|20110224-00:11:09.403|71|8=FIX.4.2|9=49|35=0|34=77|49=RBS|56=LSEHub|52=20110224-00:11:09|10=039||0|
M|78|0|0|I|20110224-00:11:39.472|71|8=FIX.4.2|9=49|35=0|34=78|49=RBS|56=LSEHub|52=20110224-00:11:39|10=043||0|
M|79|0|0|I|20110224-00:12:09.531|71|8=FIX.4.2|9=49|35=0|34=79|49=RBS|56=LSEHub|52=20110224-00:12:09|10=042||0|
M|80|0|0|I|20110224-00:12:39.619|71|8=FIX.4.2|9=49|35=0|34=80|49=RBS|56=LSEHub|52=20110224-00:12:39|10=037||0|
M|81|0|0|I|20110224-00:13:09.698|71|8=FIX.4.2|9=49|35=0|34=81|49=RBS|56=LSEHub|52=20110224-00:13:09|10=036||0|
M|82|0|0|I|20110224-00:13:39.767|71|8=FIX.4.2|9=49|35=0|34=82|49=RBS|56=LSEHub|52=20110224-00:13:39|10=040||0|
M|83|0|0|I|20110224-00:14:09.855|71|8=FIX.4.2|9=49|35=0|34=83|49=RBS|56=LSEHub|52=20110224-00:14:09|10=039||0|
M|84|0|0|I|20110224-00:14:39.934|71|8=FIX.4.2|9=49|35=0|34=84|49=RBS|56=LSEHub|52=20110224-00:14:39|10=043||0|
M|85|0|0|I|20110224-00:15:10.003|71|8=FIX.4.2|9=49|35=0|34=85|49=RBS|56=LSEHub|52=20110224-00:15:10|10=034||0|
M|86|0|0|I|20110224-00:15:40.081|71|8=FIX.4.2|9=49|35=0|34=86|49=RBS|56=LSEHub|52=20110224-00:15:40|10=038||0|
M|87|0|0|I|20110224-00:16:10.140|71|8=FIX.4.2|9=49|35=0|34=87|49=RBS|56=LSEHub|52=20110224-00:16:10|10=037||0|
M|88|0|0|I|20110224-00:16:40.199|71|8=FIX.4.2|9=49|35=0|34=88|49=RBS|56=LSEHub|52=20110224-00:16:40|10=041||0|
M|89|0|0|I|20110224-00:17:10.247|71|8=FIX.4.2|9=49|35=0|34=89|49=RBS|56=LSEHub|52=20110224-00:17:10|10=040||0|
M|90|0|0|I|20110224-00:17:40.296|71|8=FIX.4.2|9=49|35=0|34=90|49=RBS|56=LSEHub|52=20110224-00:17:40|10=035||0|
M|91|0|0|I|20110224-00:18:10.355|71|8=FIX.4.2|9=49|35=0|34=91|49=RBS|56=LSEHub|52=20110224-00:18:10|10=034||0|
M|92|0|0|I|20110224-00:18:40.413|71|8=FIX.4.2|9=49|35=0|34=92|49=RBS|56=LSEHub|52=20110224-00:18:40|10=038||0|
M|93|0|0|I|20110224-00:19:10.482|71|8=FIX.4.2|9=49|35=0|34=93|49=RBS|56=LSEHub|52=20110224-00:19:10|10=037||0|
M|94|0|0|I|20110224-00:19:40.541|71|8=FIX.4.2|9=49|35=0|34=94|49=RBS|56=LSEHub|52=20110224-00:19:40|10=041||0|
M|95|0|0|I|20110224-00:20:10.619|71|8=FIX.4.2|9=49|35=0|34=95|49=RBS|56=LSEHub|52=20110224-00:20:10|10=031||0|
M|96|0|0|I|20110224-00:20:40.698|71|8=FIX.4.2|9=49|35=0|34=96|49=RBS|56=LSEHub|52=20110224-00:20:40|10=035||0|
M|97|0|0|I|20110224-00:21:10.757|71|8=FIX.4.2|9=49|35=0|34=97|49=RBS|56=LSEHub|52=20110224-00:21:10|10=034||0|
M|98|0|0|I|20110224-00:21:40.825|71|8=FIX.4.2|9=49|35=0|34=98|49=RBS|56=LSEHub|52=20110224-00:21:40|10=038||0|
M|99|0|0|I|20110224-00:22:10.904|71|8=FIX.4.2|9=49|35=0|34=99|49=RBS|56=LSEHub|52=20110224-00:22:10|10=037||0|
M|100|0|0|I|20110224-00:22:40.973|72|8=FIX.4.2|9=50|35=0|34=100|49=RBS|56=LSEHub|52=20110224-00:22:40|10=063||0|
M|101|0|0|I|20110224-00:23:11.062|72|8=FIX.4.2|9=50|35=0|34=101|49=RBS|56=LSEHub|52=20110224-00:23:11|10=063||0|
M|102|0|0|I|20110224-00:23:41.140|72|8=FIX.4.2|9=50|35=0|34=102|49=RBS|56=LSEHub|52=20110224-00:23:41|10=067||0|
M|103|0|0|I|20110224-00:24:11.209|72|8=FIX.4.2|9=50|35=0|34=103|49=RBS|56=LSEHub|52=20110224-00:24:11|10=066||0|
M|104|0|0|I|20110224-00:24:41.288|72|8=FIX.4.2|9=50|35=0|34=104|49=RBS|56=LSEHub|52=20110224-00:24:41|10=070||0|
M|105|0|0|I|20110224-00:25:11.366|72|8=FIX.4.2|9=50|35=0|34=105|49=RBS|56=LSEHub|52=20110224-00:25:11|10=069||0|
M|106|0|0|I|20110224-00:25:41.445|72|8=FIX.4.2|9=50|35=0|34=106|49=RBS|56=LSEHub|52=20110224-00:25:41|10=073||0|
M|107|0|0|I|20110224-00:26:11.524|72|8=FIX.4.2|9=50|35=0|34=107|49=RBS|56=LSEHub|52=20110224-00:26:11|10=072||0|
M|108|0|0|I|20110224-00:26:41.582|72|8=FIX.4.2|9=50|35=0|34=108|49=RBS|56=LSEHub|52=20110224-00:26:41|10=076||0|
M|109|0|0|I|20110224-00:27:11.641|72|8=FIX.4.2|9=50|35=0|34=109|49=RBS|56=LSEHub|52=20110224-00:27:11|10=075||0|
M|110|0|0|I|20110224-00:27:41.710|72|8=FIX.4.2|9=50|35=0|34=110|49=RBS|56=LSEHub|52=20110224-00:27:41|10=070||0|
M|111|0|0|I|20110224-00:28:11.798|72|8=FIX.4.2|9=50|35=0|34=111|49=RBS|56=LSEHub|52=20110224-00:28:11|10=069||0|
M|112|0|0|I|20110224-00:28:41.847|72|8=FIX.4.2|9=50|35=0|34=112|49=RBS|56=LSEHub|52=20110224-00:28:41|10=073||0|
M|113|0|0|I|20110224-00:29:11.906|72|8=FIX.4.2|9=50|35=0|34=113|49=RBS|56=LSEHub|52=20110224-00:29:11|10=072||0|
M|114|0|0|I|20110224-00:29:41.984|72|8=FIX.4.2|9=50|35=0|34=114|49=RBS|56=LSEHub|52=20110224-00:29:41|10=076||0|
M|115|0|0|I|20110224-00:30:12.043|72|8=FIX.4.2|9=50|35=0|34=115|49=RBS|56=LSEHub|52=20110224-00:30:12|10=067||0|
M|116|0|3|I|20110224-00:30:34.169|142|8=FIX.4.2|9=119|35=3|34=116|49=RBS|56=LSEHub|52=20110224-00:30:34|371=-1|45=116|372=BD|58=message type BD is not a valid message type.|10=162||0|
M|117|0|0|I|20110224-00:31:04.552|72|8=FIX.4.2|9=50|35=0|34=117|49=RBS|56=LSEHub|52=20110224-00:31:04|10=071||0|
M|118|0|0|I|20110224-00:31:34.609|72|8=FIX.4.2|9=50|35=0|34=118|49=RBS|56=LSEHub|52=20110224-00:31:34|10=075||0|
M|119|0|0|I|20110224-00:32:04.678|72|8=FIX.4.2|9=50|35=0|34=119|49=RBS|56=LSEHub|52=20110224-00:32:04|10=074||0|
M|120|0|0|I|20110224-00:32:34.757|72|8=FIX.4.2|9=50|35=0|34=120|49=RBS|56=LSEHub|52=20110224-00:32:34|10=069||0|
M|121|0|0|I|20110224-00:33:04.836|72|8=FIX.4.2|9=50|35=0|34=121|49=RBS|56=LSEHub|52=20110224-00:33:04|10=068||0|
M|122|0|0|I|20110224-00:33:34.914|72|8=FIX.4.2|9=50|35=0|34=122|49=RBS|56=LSEHub|52=20110224-00:33:34|10=072||0|
M|123|0|0|I|20110224-00:34:04.998|72|8=FIX.4.2|9=50|35=0|34=123|49=RBS|56=LSEHub|52=20110224-00:34:04|10=071||0|
M|124|0|0|I|20110224-00:34:35.052|72|8=FIX.4.2|9=50|35=0|34=124|49=RBS|56=LSEHub|52=20110224-00:34:35|10=076||0|
M|125|0|0|I|20110224-00:35:05.130|72|8=FIX.4.2|9=50|35=0|34=125|49=RBS|56=LSEHub|52=20110224-00:35:05|10=075||0|
M|126|0|0|I|20110224-00:35:35.209|72|8=FIX.4.2|9=50|35=0|34=126|49=RBS|56=LSEHub|52=20110224-00:35:35|10=079||0|
M|127|0|0|I|20110224-00:36:05.288|72|8=FIX.4.2|9=50|35=0|34=127|49=RBS|56=LSEHub|52=20110224-00:36:05|10=078||0|
M|128|0|0|I|20110224-00:36:35.356|72|8=FIX.4.2|9=50|35=0|34=128|49=RBS|56=LSEHub|52=20110224-00:36:35|10=082||0|
M|129|0|0|I|20110224-00:37:05.415|72|8=FIX.4.2|9=50|35=0|34=129|49=RBS|56=LSEHub|52=20110224-00:37:05|10=081||0|
M|130|0|0|I|20110224-00:37:35.484|72|8=FIX.4.2|9=50|35=0|34=130|49=RBS|56=LSEHub|52=20110224-00:37:35|10=076||0|
M|131|0|0|I|20110224-00:38:05.533|72|8=FIX.4.2|9=50|35=0|34=131|49=RBS|56=LSEHub|52=20110224-00:38:05|10=075||0|
M|132|0|0|I|20110224-00:38:35.611|72|8=FIX.4.2|9=50|35=0|34=132|49=RBS|56=LSEHub|52=20110224-00:38:35|10=079||0|
M|133|0|0|I|20110224-00:39:05.660|72|8=FIX.4.2|9=50|35=0|34=133|49=RBS|56=LSEHub|52=20110224-00:39:05|10=078||0|
M|134|0|0|I|20110224-00:39:35.719|72|8=FIX.4.2|9=50|35=0|34=134|49=RBS|56=LSEHub|52=20110224-00:39:35|10=082||0|
M|135|0|0|I|20110224-00:40:05.787|72|8=FIX.4.2|9=50|35=0|34=135|49=RBS|56=LSEHub|52=20110224-00:40:05|10=072||0|
M|136|0|0|I|20110224-00:40:35.836|72|8=FIX.4.2|9=50|35=0|34=136|49=RBS|56=LSEHub|52=20110224-00:40:35|10=076||0|
M|137|0|0|I|20110224-00:41:05.895|72|8=FIX.4.2|9=50|35=0|34=137|49=RBS|56=LSEHub|52=20110224-00:41:05|10=075||0|
M|138|0|0|I|20110224-00:41:35.943|72|8=FIX.4.2|9=50|35=0|34=138|49=RBS|56=LSEHub|52=20110224-00:41:35|10=079||0|
M|139|0|0|I|20110224-00:42:06.032|72|8=FIX.4.2|9=50|35=0|34=139|49=RBS|56=LSEHub|52=20110224-00:42:06|10=079||0|
M|140|0|0|I|20110224-00:42:36.101|72|8=FIX.4.2|9=50|35=0|34=140|49=RBS|56=LSEHub|52=20110224-00:42:36|10=074||0|
M|141|0|0|I|20110224-00:43:06.179|72|8=FIX.4.2|9=50|35=0|34=141|49=RBS|56=LSEHub|52=20110224-00:43:06|10=073||0|
M|142|0|0|I|20110224-00:43:36.228|72|8=FIX.4.2|9=50|35=0|34=142|49=RBS|56=LSEHub|52=20110224-00:43:36|10=077||0|
M|143|0|0|I|20110224-00:44:06.267|72|8=FIX.4.2|9=50|35=0|34=143|49=RBS|56=LSEHub|52=20110224-00:44:06|10=076||0|
M|144|0|0|I|20110224-00:44:36.335|72|8=FIX.4.2|9=50|35=0|34=144|49=RBS|56=LSEHub|52=20110224-00:44:36|10=080||0|
M|145|0|0|I|20110224-00:45:06.414|72|8=FIX.4.2|9=50|35=0|34=145|49=RBS|56=LSEHub|52=20110224-00:45:06|10=079||0|
M|146|0|0|I|20110224-00:45:36.493|72|8=FIX.4.2|9=50|35=0|34=146|49=RBS|56=LSEHub|52=20110224-00:45:36|10=083||0|
M|147|0|0|I|20110224-00:46:06.562|72|8=FIX.4.2|9=50|35=0|34=147|49=RBS|56=LSEHub|52=20110224-00:46:06|10=082||0|
M|148|0|0|I|20110224-00:46:36.630|72|8=FIX.4.2|9=50|35=0|34=148|49=RBS|56=LSEHub|52=20110224-00:46:36|10=086||0|
M|149|0|0|I|20110224-00:47:06.709|72|8=FIX.4.2|9=50|35=0|34=149|49=RBS|56=LSEHub|52=20110224-00:47:06|10=085||0|
M|150|0|0|I|20110224-00:47:36.778|72|8=FIX.4.2|9=50|35=0|34=150|49=RBS|56=LSEHub|52=20110224-00:47:36|10=080||0|
M|151|0|0|I|20110224-00:48:06.856|72|8=FIX.4.2|9=50|35=0|34=151|49=RBS|56=LSEHub|52=20110224-00:48:06|10=079||0|
M|152|0|0|I|20110224-00:48:36.915|72|8=FIX.4.2|9=50|35=0|34=152|49=RBS|56=LSEHub|52=20110224-00:48:36|10=083||0|
M|153|0|0|I|20110224-00:49:06.974|72|8=FIX.4.2|9=50|35=0|34=153|49=RBS|56=LSEHub|52=20110224-00:49:06|10=082||0|
M|154|0|0|I|20110224-00:49:37.032|72|8=FIX.4.2|9=50|35=0|34=154|49=RBS|56=LSEHub|52=20110224-00:49:37|10=087||0|
M|155|0|0|I|20110224-00:50:07.111|72|8=FIX.4.2|9=50|35=0|34=155|49=RBS|56=LSEHub|52=20110224-00:50:07|10=077||0|
M|156|0|0|I|20110224-00:50:37.170|72|8=FIX.4.2|9=50|35=0|34=156|49=RBS|56=LSEHub|52=20110224-00:50:37|10=081||0|
M|157|0|0|I|20110224-00:51:07.248|72|8=FIX.4.2|9=50|35=0|34=157|49=RBS|56=LSEHub|52=20110224-00:51:07|10=080||0|
M|158|0|0|I|20110224-00:51:37.317|72|8=FIX.4.2|9=50|35=0|34=158|49=RBS|56=LSEHub|52=20110224-00:51:37|10=084||0|
M|159|0|0|I|20110224-00:52:07.386|72|8=FIX.4.2|9=50|35=0|34=159|49=RBS|56=LSEHub|52=20110224-00:52:07|10=083||0|
M|160|0|0|I|20110224-00:52:37.454|72|8=FIX.4.2|9=50|35=0|34=160|49=RBS|56=LSEHub|52=20110224-00:52:37|10=078||0|
M|161|0|0|I|20110224-00:53:07.533|72|8=FIX.4.2|9=50|35=0|34=161|49=RBS|56=LSEHub|52=20110224-00:53:07|10=077||0|
M|162|0|0|I|20110224-00:53:37.592|72|8=FIX.4.2|9=50|35=0|34=162|49=RBS|56=LSEHub|52=20110224-00:53:37|10=081||0|
M|163|0|0|I|20110224-00:54:07.661|72|8=FIX.4.2|9=50|35=0|34=163|49=RBS|56=LSEHub|52=20110224-00:54:07|10=080||0|
M|164|0|0|I|20110224-00:54:37.739|72|8=FIX.4.2|9=50|35=0|34=164|49=RBS|56=LSEHub|52=20110224-00:54:37|10=084||0|
M|165|0|0|I|20110224-00:55:07.818|72|8=FIX.4.2|9=50|35=0|34=165|49=RBS|56=LSEHub|52=20110224-00:55:07|10=083||0|
M|166|0|0|I|20110224-00:55:37.897|72|8=FIX.4.2|9=50|35=0|34=166|49=RBS|56=LSEHub|52=20110224-00:55:37|10=087||0|
M|167|0|0|I|20110224-00:56:07.975|72|8=FIX.4.2|9=50|35=0|34=167|49=RBS|56=LSEHub|52=20110224-00:56:07|10=086||0|
M|168|0|0|I|20110224-00:56:38.044|72|8=FIX.4.2|9=50|35=0|34=168|49=RBS|56=LSEHub|52=20110224-00:56:38|10=091||0|
M|169|0|0|I|20110224-00:57:08.113|72|8=FIX.4.2|9=50|35=0|34=169|49=RBS|56=LSEHub|52=20110224-00:57:08|10=090||0|
M|170|0|0|I|20110224-00:57:38.161|72|8=FIX.4.2|9=50|35=0|34=170|49=RBS|56=LSEHub|52=20110224-00:57:38|10=085||0|
M|171|0|0|I|20110224-00:58:08.210|72|8=FIX.4.2|9=50|35=0|34=171|49=RBS|56=LSEHub|52=20110224-00:58:08|10=084||0|
M|172|0|0|I|20110224-00:58:38.289|72|8=FIX.4.2|9=50|35=0|34=172|49=RBS|56=LSEHub|52=20110224-00:58:38|10=088||0|
M|173|0|0|I|20110224-00:59:08.357|72|8=FIX.4.2|9=50|35=0|34=173|49=RBS|56=LSEHub|52=20110224-00:59:08|10=087||0|
M|174|0|0|I|20110224-00:59:38.426|72|8=FIX.4.2|9=50|35=0|34=174|49=RBS|56=LSEHub|52=20110224-00:59:38|10=091||0|
M|175|0|0|I|20110224-01:00:08.485|72|8=FIX.4.2|9=50|35=0|34=175|49=RBS|56=LSEHub|52=20110224-01:00:08|10=076||0|
M|176|0|0|I|20110224-01:00:38.574|72|8=FIX.4.2|9=50|35=0|34=176|49=RBS|56=LSEHub|52=20110224-01:00:38|10=080||0|
M|177|0|0|I|20110224-01:01:08.632|72|8=FIX.4.2|9=50|35=0|34=177|49=RBS|56=LSEHub|52=20110224-01:01:08|10=079||0|
M|178|0|0|I|20110224-01:01:38.711|72|8=FIX.4.2|9=50|35=0|34=178|49=RBS|56=LSEHub|52=20110224-01:01:38|10=083||0|
M|179|0|0|I|20110224-01:02:08.760|72|8=FIX.4.2|9=50|35=0|34=179|49=RBS|56=LSEHub|52=20110224-01:02:08|10=082||0|
M|180|0|0|I|20110224-01:02:38.838|72|8=FIX.4.2|9=50|35=0|34=180|49=RBS|56=LSEHub|52=20110224-01:02:38|10=077||0|
M|181|0|0|I|20110224-01:03:08.887|72|8=FIX.4.2|9=50|35=0|34=181|49=RBS|56=LSEHub|52=20110224-01:03:08|10=076||0|
M|182|0|0|I|20110224-01:03:38.976|72|8=FIX.4.2|9=50|35=0|34=182|49=RBS|56=LSEHub|52=20110224-01:03:38|10=080||0|
M|183|0|0|I|20110224-01:04:09.064|72|8=FIX.4.2|9=50|35=0|34=183|49=RBS|56=LSEHub|52=20110224-01:04:09|10=080||0|
M|184|0|0|I|20110224-01:04:39.133|72|8=FIX.4.2|9=50|35=0|34=184|49=RBS|56=LSEHub|52=20110224-01:04:39|10=084||0|
M|185|0|0|I|20110224-01:05:09.192|72|8=FIX.4.2|9=50|35=0|34=185|49=RBS|56=LSEHub|52=20110224-01:05:09|10=083||0|
M|186|0|0|I|20110224-01:05:39.260|72|8=FIX.4.2|9=50|35=0|34=186|49=RBS|56=LSEHub|52=20110224-01:05:39|10=087||0|
M|187|0|0|I|20110224-01:06:09.319|72|8=FIX.4.2|9=50|35=0|34=187|49=RBS|56=LSEHub|52=20110224-01:06:09|10=086||0|
M|188|0|0|I|20110224-01:06:39.388|72|8=FIX.4.2|9=50|35=0|34=188|49=RBS|56=LSEHub|52=20110224-01:06:39|10=090||0|
M|189|0|0|I|20110224-01:07:09.436|72|8=FIX.4.2|9=50|35=0|34=189|49=RBS|56=LSEHub|52=20110224-01:07:09|10=089||0|
M|190|0|0|I|20110224-01:07:39.515|72|8=FIX.4.2|9=50|35=0|34=190|49=RBS|56=LSEHub|52=20110224-01:07:39|10=084||0|
M|191|0|0|I|20110224-01:08:09.599|72|8=FIX.4.2|9=50|35=0|34=191|49=RBS|56=LSEHub|52=20110224-01:08:09|10=083||0|
M|192|0|0|I|20110224-01:08:39.673|72|8=FIX.4.2|9=50|35=0|34=192|49=RBS|56=LSEHub|52=20110224-01:08:39|10=087||0|
M|193|0|0|I|20110224-01:09:09.741|72|8=FIX.4.2|9=50|35=0|34=193|49=RBS|56=LSEHub|52=20110224-01:09:09|10=086||0|
M|194|0|0|I|20110224-01:09:39.820|72|8=FIX.4.2|9=50|35=0|34=194|49=RBS|56=LSEHub|52=20110224-01:09:39|10=090||0|
M|195|0|0|I|20110224-01:10:09.879|72|8=FIX.4.2|9=50|35=0|34=195|49=RBS|56=LSEHub|52=20110224-01:10:09|10=080||0|
M|196|0|0|I|20110224-01:10:39.957|72|8=FIX.4.2|9=50|35=0|34=196|49=RBS|56=LSEHub|52=20110224-01:10:39|10=084||0|
M|197|0|0|I|20110224-01:11:10.031|72|8=FIX.4.2|9=50|35=0|34=197|49=RBS|56=LSEHub|52=20110224-01:11:10|10=075||0|
M|198|0|0|I|20110224-01:11:40.075|72|8=FIX.4.2|9=50|35=0|34=198|49=RBS|56=LSEHub|52=20110224-01:11:40|10=079||0|
M|199|0|0|I|20110224-01:12:10.103|72|8=FIX.4.2|9=50|35=0|34=199|49=RBS|56=LSEHub|52=20110224-01:12:10|10=078||0|
M|200|0|0|I|20110224-01:12:40.192|72|8=FIX.4.2|9=50|35=0|34=200|49=RBS|56=LSEHub|52=20110224-01:12:40|10=064||0|
M|201|0|0|I|20110224-01:13:10.251|72|8=FIX.4.2|9=50|35=0|34=201|49=RBS|56=LSEHub|52=20110224-01:13:10|10=063||0|
M|202|0|0|I|20110224-01:13:40.319|72|8=FIX.4.2|9=50|35=0|34=202|49=RBS|56=LSEHub|52=20110224-01:13:40|10=067||0|
M|203|0|0|I|20110224-01:14:10.398|72|8=FIX.4.2|9=50|35=0|34=203|49=RBS|56=LSEHub|52=20110224-01:14:10|10=066||0|
M|204|0|0|I|20110224-01:14:40.477|72|8=FIX.4.2|9=50|35=0|34=204|49=RBS|56=LSEHub|52=20110224-01:14:40|10=070||0|
M|205|0|0|I|20110224-01:15:10.556|72|8=FIX.4.2|9=50|35=0|34=205|49=RBS|56=LSEHub|52=20110224-01:15:10|10=069||0|
M|206|0|0|I|20110224-01:15:40.634|72|8=FIX.4.2|9=50|35=0|34=206|49=RBS|56=LSEHub|52=20110224-01:15:40|10=073||0|
M|207|0|0|I|20110224-01:16:10.673|72|8=FIX.4.2|9=50|35=0|34=207|49=RBS|56=LSEHub|52=20110224-01:16:10|10=072||0|
M|208|0|0|I|20110224-01:16:40.712|72|8=FIX.4.2|9=50|35=0|34=208|49=RBS|56=LSEHub|52=20110224-01:16:40|10=076||0|
M|209|0|0|I|20110224-01:17:10.780|72|8=FIX.4.2|9=50|35=0|34=209|49=RBS|56=LSEHub|52=20110224-01:17:10|10=075||0|
M|210|0|0|I|20110224-01:17:40.859|72|8=FIX.4.2|9=50|35=0|34=210|49=RBS|56=LSEHub|52=20110224-01:17:40|10=070||0|
M|211|0|0|I|20110224-01:18:10.918|72|8=FIX.4.2|9=50|35=0|34=211|49=RBS|56=LSEHub|52=20110224-01:18:10|10=069||0|
M|212|0|0|I|20110224-01:18:40.996|72|8=FIX.4.2|9=50|35=0|34=212|49=RBS|56=LSEHub|52=20110224-01:18:40|10=073||0|
M|213|0|0|I|20110224-01:19:11.065|72|8=FIX.4.2|9=50|35=0|34=213|49=RBS|56=LSEHub|52=20110224-01:19:11|10=073||0|
M|214|0|0|I|20110224-01:19:41.154|72|8=FIX.4.2|9=50|35=0|34=214|49=RBS|56=LSEHub|52=20110224-01:19:41|10=077||0|
M|215|0|0|I|20110224-01:20:11.222|72|8=FIX.4.2|9=50|35=0|34=215|49=RBS|56=LSEHub|52=20110224-01:20:11|10=067||0|
M|216|0|0|I|20110224-01:20:41.281|72|8=FIX.4.2|9=50|35=0|34=216|49=RBS|56=LSEHub|52=20110224-01:20:41|10=071||0|
M|217|0|0|I|20110224-01:21:11.360|72|8=FIX.4.2|9=50|35=0|34=217|49=RBS|56=LSEHub|52=20110224-01:21:11|10=070||0|
M|218|0|0|I|20110224-01:21:41.439|72|8=FIX.4.2|9=50|35=0|34=218|49=RBS|56=LSEHub|52=20110224-01:21:41|10=074||0|
M|219|0|0|I|20110224-01:22:11.497|72|8=FIX.4.2|9=50|35=0|34=219|49=RBS|56=LSEHub|52=20110224-01:22:11|10=073||0|
M|220|0|0|I|20110224-01:22:41.566|72|8=FIX.4.2|9=50|35=0|34=220|49=RBS|56=LSEHub|52=20110224-01:22:41|10=068||0|
M|221|0|0|I|20110224-01:23:11.655|72|8=FIX.4.2|9=50|35=0|34=221|49=RBS|56=LSEHub|52=20110224-01:23:11|10=067||0|
M|222|0|0|I|20110224-01:23:41.703|72|8=FIX.4.2|9=50|35=0|34=222|49=RBS|56=LSEHub|52=20110224-01:23:41|10=071||0|
M|223|0|0|I|20110224-01:24:11.762|72|8=FIX.4.2|9=50|35=0|34=223|49=RBS|56=LSEHub|52=20110224-01:24:11|10=070||0|
M|224|0|0|I|20110224-01:24:41.831|72|8=FIX.4.2|9=50|35=0|34=224|49=RBS|56=LSEHub|52=20110224-01:24:41|10=074||0|
M|225|0|0|I|20110224-01:25:11.899|72|8=FIX.4.2|9=50|35=0|34=225|49=RBS|56=LSEHub|52=20110224-01:25:11|10=073||0|
M|226|0|0|I|20110224-01:25:41.958|72|8=FIX.4.2|9=50|35=0|34=226|49=RBS|56=LSEHub|52=20110224-01:25:41|10=077||0|
M|227|0|0|I|20110224-01:26:12.027|72|8=FIX.4.2|9=50|35=0|34=227|49=RBS|56=LSEHub|52=20110224-01:26:12|10=077||0|
M|228|0|0|I|20110224-01:26:42.105|72|8=FIX.4.2|9=50|35=0|34=228|49=RBS|56=LSEHub|52=20110224-01:26:42|10=081||0|
M|229|0|0|I|20110224-01:27:12.164|72|8=FIX.4.2|9=50|35=0|34=229|49=RBS|56=LSEHub|52=20110224-01:27:12|10=080||0|
M|230|0|0|I|20110224-01:27:42.223|72|8=FIX.4.2|9=50|35=0|34=230|49=RBS|56=LSEHub|52=20110224-01:27:42|10=075||0|
M|231|0|0|I|20110224-01:28:12.302|72|8=FIX.4.2|9=50|35=0|34=231|49=RBS|56=LSEHub|52=20110224-01:28:12|10=074||0|
M|232|0|0|I|20110224-01:28:42.380|72|8=FIX.4.2|9=50|35=0|34=232|49=RBS|56=LSEHub|52=20110224-01:28:42|10=078||0|
M|233|0|0|I|20110224-01:29:12.459|72|8=FIX.4.2|9=50|35=0|34=233|49=RBS|56=LSEHub|52=20110224-01:29:12|10=077||0|
M|234|0|0|I|20110224-01:29:42.518|72|8=FIX.4.2|9=50|35=0|34=234|49=RBS|56=LSEHub|52=20110224-01:29:42|10=081||0|
M|235|0|0|I|20110224-01:30:12.596|72|8=FIX.4.2|9=50|35=0|34=235|49=RBS|56=LSEHub|52=20110224-01:30:12|10=071||0|
M|236|0|0|I|20110224-01:30:42.665|72|8=FIX.4.2|9=50|35=0|34=236|49=RBS|56=LSEHub|52=20110224-01:30:42|10=075||0|
M|237|0|0|I|20110224-01:31:12.714|72|8=FIX.4.2|9=50|35=0|34=237|49=RBS|56=LSEHub|52=20110224-01:31:12|10=074||0|
M|238|0|0|I|20110224-01:31:42.782|72|8=FIX.4.2|9=50|35=0|34=238|49=RBS|56=LSEHub|52=20110224-01:31:42|10=078||0|
M|239|0|0|I|20110224-01:32:12.841|72|8=FIX.4.2|9=50|35=0|34=239|49=RBS|56=LSEHub|52=20110224-01:32:12|10=077||0|
M|240|0|0|I|20110224-01:32:42.870|72|8=FIX.4.2|9=50|35=0|34=240|49=RBS|56=LSEHub|52=20110224-01:32:42|10=072||0|
M|241|0|0|I|20110224-01:33:12.948|72|8=FIX.4.2|9=50|35=0|34=241|49=RBS|56=LSEHub|52=20110224-01:33:12|10=071||0|
M|242|0|0|I|20110224-01:33:43.027|72|8=FIX.4.2|9=50|35=0|34=242|49=RBS|56=LSEHub|52=20110224-01:33:43|10=076||0|
M|243|0|0|I|20110224-01:34:13.116|72|8=FIX.4.2|9=50|35=0|34=243|49=RBS|56=LSEHub|52=20110224-01:34:13|10=075||0|
M|244|0|0|I|20110224-01:34:43.184|72|8=FIX.4.2|9=50|35=0|34=244|49=RBS|56=LSEHub|52=20110224-01:34:43|10=079||0|
M|245|0|0|I|20110224-01:35:13.253|72|8=FIX.4.2|9=50|35=0|34=245|49=RBS|56=LSEHub|52=20110224-01:35:13|10=078||0|
M|246|0|0|I|20110224-01:35:43.322|72|8=FIX.4.2|9=50|35=0|34=246|49=RBS|56=LSEHub|52=20110224-01:35:43|10=082||0|
M|247|0|0|I|20110224-01:36:13.400|72|8=FIX.4.2|9=50|35=0|34=247|49=RBS|56=LSEHub|52=20110224-01:36:13|10=081||0|
M|248|0|0|I|20110224-01:36:43.479|72|8=FIX.4.2|9=50|35=0|34=248|49=RBS|56=LSEHub|52=20110224-01:36:43|10=085||0|
M|249|0|0|I|20110224-01:37:13.548|72|8=FIX.4.2|9=50|35=0|34=249|49=RBS|56=LSEHub|52=20110224-01:37:13|10=084||0|
M|250|0|0|I|20110224-01:37:43.617|72|8=FIX.4.2|9=50|35=0|34=250|49=RBS|56=LSEHub|52=20110224-01:37:43|10=079||0|
M|251|0|0|I|20110224-01:38:13.665|72|8=FIX.4.2|9=50|35=0|34=251|49=RBS|56=LSEHub|52=20110224-01:38:13|10=078||0|
M|252|0|0|I|20110224-01:38:43.714|72|8=FIX.4.2|9=50|35=0|34=252|49=RBS|56=LSEHub|52=20110224-01:38:43|10=082||0|
M|253|0|0|I|20110224-01:39:13.783|72|8=FIX.4.2|9=50|35=0|34=253|49=RBS|56=LSEHub|52=20110224-01:39:13|10=081||0|
M|254|0|0|I|20110224-01:39:43.861|72|8=FIX.4.2|9=50|35=0|34=254|49=RBS|56=LSEHub|52=20110224-01:39:43|10=085||0|
M|255|0|0|I|20110224-01:40:13.940|72|8=FIX.4.2|9=50|35=0|34=255|49=RBS|56=LSEHub|52=20110224-01:40:13|10=075||0|
M|256|0|0|I|20110224-01:40:43.989|72|8=FIX.4.2|9=50|35=0|34=256|49=RBS|56=LSEHub|52=20110224-01:40:43|10=079||0|
M|257|0|0|I|20110224-01:41:14.047|72|8=FIX.4.2|9=50|35=0|34=257|49=RBS|56=LSEHub|52=20110224-01:41:14|10=079||0|
M|258|0|0|I|20110224-01:41:44.106|72|8=FIX.4.2|9=50|35=0|34=258|49=RBS|56=LSEHub|52=20110224-01:41:44|10=083||0|
M|259|0|0|I|20110224-01:42:14.185|72|8=FIX.4.2|9=50|35=0|34=259|49=RBS|56=LSEHub|52=20110224-01:42:14|10=082||0|
M|260|0|0|I|20110224-01:42:44.243|72|8=FIX.4.2|9=50|35=0|34=260|49=RBS|56=LSEHub|52=20110224-01:42:44|10=077||0|
M|261|0|0|I|20110224-01:43:14.322|72|8=FIX.4.2|9=50|35=0|34=261|49=RBS|56=LSEHub|52=20110224-01:43:14|10=076||0|
M|262|0|0|I|20110224-01:43:44.371|72|8=FIX.4.2|9=50|35=0|34=262|49=RBS|56=LSEHub|52=20110224-01:43:44|10=080||0|
M|263|0|0|I|20110224-01:44:14.450|72|8=FIX.4.2|9=50|35=0|34=263|49=RBS|56=LSEHub|52=20110224-01:44:14|10=079||0|
M|264|0|0|I|20110224-01:44:44.508|72|8=FIX.4.2|9=50|35=0|34=264|49=RBS|56=LSEHub|52=20110224-01:44:44|10=083||0|
M|265|0|0|I|20110224-01:45:14.587|72|8=FIX.4.2|9=50|35=0|34=265|49=RBS|56=LSEHub|52=20110224-01:45:14|10=082||0|
M|266|0|0|I|20110224-01:45:44.646|72|8=FIX.4.2|9=50|35=0|34=266|49=RBS|56=LSEHub|52=20110224-01:45:44|10=086||0|
M|267|0|0|I|20110224-01:46:14.704|72|8=FIX.4.2|9=50|35=0|34=267|49=RBS|56=LSEHub|52=20110224-01:46:14|10=085||0|
M|268|0|0|I|20110224-01:46:44.783|72|8=FIX.4.2|9=50|35=0|34=268|49=RBS|56=LSEHub|52=20110224-01:46:44|10=089||0|
M|269|0|0|I|20110224-01:47:14.862|72|8=FIX.4.2|9=50|35=0|34=269|49=RBS|56=LSEHub|52=20110224-01:47:14|10=088||0|
M|270|0|0|I|20110224-01:47:44.940|72|8=FIX.4.2|9=50|35=0|34=270|49=RBS|56=LSEHub|52=20110224-01:47:44|10=083||0|
M|271|0|0|I|20110224-01:48:14.989|72|8=FIX.4.2|9=50|35=0|34=271|49=RBS|56=LSEHub|52=20110224-01:48:14|10=082||0|
M|272|0|0|I|20110224-01:48:45.068|72|8=FIX.4.2|9=50|35=0|34=272|49=RBS|56=LSEHub|52=20110224-01:48:45|10=087||0|
M|273|0|0|I|20110224-01:49:15.126|72|8=FIX.4.2|9=50|35=0|34=273|49=RBS|56=LSEHub|52=20110224-01:49:15|10=086||0|
M|274|0|0|I|20110224-01:49:45.205|72|8=FIX.4.2|9=50|35=0|34=274|49=RBS|56=LSEHub|52=20110224-01:49:45|10=090||0|
M|275|0|0|I|20110224-01:50:15.284|72|8=FIX.4.2|9=50|35=0|34=275|49=RBS|56=LSEHub|52=20110224-01:50:15|10=080||0|
M|276|0|0|I|20110224-01:50:45.362|72|8=FIX.4.2|9=50|35=0|34=276|49=RBS|56=LSEHub|52=20110224-01:50:45|10=084||0|
M|277|0|0|I|20110224-01:51:15.441|72|8=FIX.4.2|9=50|35=0|34=277|49=RBS|56=LSEHub|52=20110224-01:51:15|10=083||0|
M|278|0|0|I|20110224-01:51:45.520|72|8=FIX.4.2|9=50|35=0|34=278|49=RBS|56=LSEHub|52=20110224-01:51:45|10=087||0|
M|279|0|0|I|20110224-01:52:15.578|72|8=FIX.4.2|9=50|35=0|34=279|49=RBS|56=LSEHub|52=20110224-01:52:15|10=086||0|
M|280|0|0|I|20110224-01:52:45.627|72|8=FIX.4.2|9=50|35=0|34=280|49=RBS|56=LSEHub|52=20110224-01:52:45|10=081||0|
M|281|0|0|I|20110224-01:53:15.706|72|8=FIX.4.2|9=50|35=0|34=281|49=RBS|56=LSEHub|52=20110224-01:53:15|10=080||0|
M|282|0|0|I|20110224-01:53:45.765|72|8=FIX.4.2|9=50|35=0|34=282|49=RBS|56=LSEHub|52=20110224-01:53:45|10=084||0|
M|283|0|0|I|20110224-01:54:15.843|72|8=FIX.4.2|9=50|35=0|34=283|49=RBS|56=LSEHub|52=20110224-01:54:15|10=083||0|
M|284|0|0|I|20110224-01:54:45.902|72|8=FIX.4.2|9=50|35=0|34=284|49=RBS|56=LSEHub|52=20110224-01:54:45|10=087||0|
M|285|0|0|I|20110224-01:55:15.981|72|8=FIX.4.2|9=50|35=0|34=285|49=RBS|56=LSEHub|52=20110224-01:55:15|10=086||0|
M|286|0|0|I|20110224-01:55:46.049|72|8=FIX.4.2|9=50|35=0|34=286|49=RBS|56=LSEHub|52=20110224-01:55:46|10=091||0|
M|287|0|0|I|20110224-01:56:16.128|72|8=FIX.4.2|9=50|35=0|34=287|49=RBS|56=LSEHub|52=20110224-01:56:16|10=090||0|
M|288|0|0|I|20110224-01:56:46.207|72|8=FIX.4.2|9=50|35=0|34=288|49=RBS|56=LSEHub|52=20110224-01:56:46|10=094||0|
M|289|0|0|I|20110224-01:57:16.285|72|8=FIX.4.2|9=50|35=0|34=289|49=RBS|56=LSEHub|52=20110224-01:57:16|10=093||0|
M|290|0|0|I|20110224-01:57:46.364|72|8=FIX.4.2|9=50|35=0|34=290|49=RBS|56=LSEHub|52=20110224-01:57:46|10=088||0|
M|291|0|0|I|20110224-01:58:16.433|72|8=FIX.4.2|9=50|35=0|34=291|49=RBS|56=LSEHub|52=20110224-01:58:16|10=087||0|
M|292|0|0|I|20110224-01:58:46.511|72|8=FIX.4.2|9=50|35=0|34=292|49=RBS|56=LSEHub|52=20110224-01:58:46|10=091||0|
M|293|0|0|I|20110224-01:59:16.570|72|8=FIX.4.2|9=50|35=0|34=293|49=RBS|56=LSEHub|52=20110224-01:59:16|10=090||0|
M|294|0|0|I|20110224-01:59:46.629|72|8=FIX.4.2|9=50|35=0|34=294|49=RBS|56=LSEHub|52=20110224-01:59:46|10=094||0|
M|295|0|0|I|20110224-02:00:16.693|72|8=FIX.4.2|9=50|35=0|34=295|49=RBS|56=LSEHub|52=20110224-02:00:16|10=079||0|
M|296|0|0|I|20110224-02:00:46.766|72|8=FIX.4.2|9=50|35=0|34=296|49=RBS|56=LSEHub|52=20110224-02:00:46|10=083||0|
M|297|0|0|I|20110224-02:01:16.845|72|8=FIX.4.2|9=50|35=0|34=297|49=RBS|56=LSEHub|52=20110224-02:01:16|10=082||0|
M|298|0|0|I|20110224-02:01:46.924|72|8=FIX.4.2|9=50|35=0|34=298|49=RBS|56=LSEHub|52=20110224-02:01:46|10=086||0|
M|299|0|0|I|20110224-02:02:16.992|72|8=FIX.4.2|9=50|35=0|34=299|49=RBS|56=LSEHub|52=20110224-02:02:16|10=085||0|
M|300|0|0|I|20110224-02:02:47.051|72|8=FIX.4.2|9=50|35=0|34=300|49=RBS|56=LSEHub|52=20110224-02:02:47|10=072||0|
M|301|0|0|I|20110224-02:03:17.130|72|8=FIX.4.2|9=50|35=0|34=301|49=RBS|56=LSEHub|52=20110224-02:03:17|10=071||0|
M|302|0|0|I|20110224-02:03:47.208|72|8=FIX.4.2|9=50|35=0|34=302|49=RBS|56=LSEHub|52=20110224-02:03:47|10=075||0|
M|303|0|0|I|20110224-02:04:17.357|72|8=FIX.4.2|9=50|35=0|34=303|49=RBS|56=LSEHub|52=20110224-02:04:17|10=074||0|
M|304|0|0|I|20110224-02:04:47.446|72|8=FIX.4.2|9=50|35=0|34=304|49=RBS|56=LSEHub|52=20110224-02:04:47|10=078||0|
M|305|0|0|I|20110224-02:05:17.484|72|8=FIX.4.2|9=50|35=0|34=305|49=RBS|56=LSEHub|52=20110224-02:05:17|10=077||0|
M|306|0|0|I|20110224-02:05:47.553|72|8=FIX.4.2|9=50|35=0|34=306|49=RBS|56=LSEHub|52=20110224-02:05:47|10=081||0|
M|307|0|0|I|20110224-02:06:17.632|72|8=FIX.4.2|9=50|35=0|34=307|49=RBS|56=LSEHub|52=20110224-02:06:17|10=080||0|
M|308|0|0|I|20110224-02:06:47.700|72|8=FIX.4.2|9=50|35=0|34=308|49=RBS|56=LSEHub|52=20110224-02:06:47|10=084||0|
M|309|0|0|I|20110224-02:07:17.749|72|8=FIX.4.2|9=50|35=0|34=309|49=RBS|56=LSEHub|52=20110224-02:07:17|10=083||0|
M|310|0|0|I|20110224-02:07:47.828|72|8=FIX.4.2|9=50|35=0|34=310|49=RBS|56=LSEHub|52=20110224-02:07:47|10=078||0|
M|311|0|0|I|20110224-02:08:17.896|72|8=FIX.4.2|9=50|35=0|34=311|49=RBS|56=LSEHub|52=20110224-02:08:17|10=077||0|
M|312|0|0|I|20110224-02:08:47.955|72|8=FIX.4.2|9=50|35=0|34=312|49=RBS|56=LSEHub|52=20110224-02:08:47|10=081||0|
M|313|0|0|I|20110224-02:09:18.024|72|8=FIX.4.2|9=50|35=0|34=313|49=RBS|56=LSEHub|52=20110224-02:09:18|10=081||0|
M|314|0|0|I|20110224-02:09:48.073|72|8=FIX.4.2|9=50|35=0|34=314|49=RBS|56=LSEHub|52=20110224-02:09:48|10=085||0|
M|315|0|0|I|20110224-02:10:18.141|72|8=FIX.4.2|9=50|35=0|34=315|49=RBS|56=LSEHub|52=20110224-02:10:18|10=075||0|
M|316|0|0|I|20110224-02:10:48.210|72|8=FIX.4.2|9=50|35=0|34=316|49=RBS|56=LSEHub|52=20110224-02:10:48|10=079||0|
M|317|0|0|I|20110224-02:11:18.279|72|8=FIX.4.2|9=50|35=0|34=317|49=RBS|56=LSEHub|52=20110224-02:11:18|10=078||0|
M|318|0|0|I|20110224-02:11:48.367|72|8=FIX.4.2|9=50|35=0|34=318|49=RBS|56=LSEHub|52=20110224-02:11:48|10=082||0|
M|319|0|0|I|20110224-02:12:18.426|72|8=FIX.4.2|9=50|35=0|34=319|49=RBS|56=LSEHub|52=20110224-02:12:18|10=081||0|
M|320|0|0|I|20110224-02:12:48.495|72|8=FIX.4.2|9=50|35=0|34=320|49=RBS|56=LSEHub|52=20110224-02:12:48|10=076||0|
M|321|0|0|I|20110224-02:13:18.573|72|8=FIX.4.2|9=50|35=0|34=321|49=RBS|56=LSEHub|52=20110224-02:13:18|10=075||0|
M|322|0|0|I|20110224-02:13:48.612|72|8=FIX.4.2|9=50|35=0|34=322|49=RBS|56=LSEHub|52=20110224-02:13:48|10=079||0|
M|323|0|0|I|20110224-02:14:18.691|72|8=FIX.4.2|9=50|35=0|34=323|49=RBS|56=LSEHub|52=20110224-02:14:18|10=078||0|
M|324|0|0|I|20110224-02:14:48.740|72|8=FIX.4.2|9=50|35=0|34=324|49=RBS|56=LSEHub|52=20110224-02:14:48|10=082||0|
M|325|0|0|I|20110224-02:15:18.788|72|8=FIX.4.2|9=50|35=0|34=325|49=RBS|56=LSEHub|52=20110224-02:15:18|10=081||0|
M|326|0|0|I|20110224-02:15:48.857|72|8=FIX.4.2|9=50|35=0|34=326|49=RBS|56=LSEHub|52=20110224-02:15:48|10=085||0|
M|327|0|0|I|20110224-02:16:18.916|72|8=FIX.4.2|9=50|35=0|34=327|49=RBS|56=LSEHub|52=20110224-02:16:18|10=084||0|
M|328|0|0|I|20110224-02:16:48.964|72|8=FIX.4.2|9=50|35=0|34=328|49=RBS|56=LSEHub|52=20110224-02:16:48|10=088||0|
M|329|0|0|I|20110224-02:17:19.013|72|8=FIX.4.2|9=50|35=0|34=329|49=RBS|56=LSEHub|52=20110224-02:17:19|10=088||0|
M|330|0|0|I|20110224-02:17:49.092|72|8=FIX.4.2|9=50|35=0|34=330|49=RBS|56=LSEHub|52=20110224-02:17:49|10=083||0|
M|331|0|0|I|20110224-02:18:19.160|72|8=FIX.4.2|9=50|35=0|34=331|49=RBS|56=LSEHub|52=20110224-02:18:19|10=082||0|
M|332|0|0|I|20110224-02:18:49.249|72|8=FIX.4.2|9=50|35=0|34=332|49=RBS|56=LSEHub|52=20110224-02:18:49|10=086||0|
M|333|0|0|I|20110224-02:19:19.308|72|8=FIX.4.2|9=50|35=0|34=333|49=RBS|56=LSEHub|52=20110224-02:19:19|10=085||0|
M|334|0|0|I|20110224-02:19:49.386|72|8=FIX.4.2|9=50|35=0|34=334|49=RBS|56=LSEHub|52=20110224-02:19:49|10=089||0|
M|335|0|0|I|20110224-02:20:19.445|72|8=FIX.4.2|9=50|35=0|34=335|49=RBS|56=LSEHub|52=20110224-02:20:19|10=079||0|
M|336|0|0|I|20110224-02:20:49.504|72|8=FIX.4.2|9=50|35=0|34=336|49=RBS|56=LSEHub|52=20110224-02:20:49|10=083||0|
M|337|0|0|I|20110224-02:21:19.573|72|8=FIX.4.2|9=50|35=0|34=337|49=RBS|56=LSEHub|52=20110224-02:21:19|10=082||0|
M|338|0|0|I|20110224-02:21:49.641|72|8=FIX.4.2|9=50|35=0|34=338|49=RBS|56=LSEHub|52=20110224-02:21:49|10=086||0|
M|339|0|0|I|20110224-02:22:19.730|72|8=FIX.4.2|9=50|35=0|34=339|49=RBS|56=LSEHub|52=20110224-02:22:19|10=085||0|
M|340|0|0|I|20110224-02:22:49.809|72|8=FIX.4.2|9=50|35=0|34=340|49=RBS|56=LSEHub|52=20110224-02:22:49|10=080||0|
M|341|0|0|I|20110224-02:23:19.877|72|8=FIX.4.2|9=50|35=0|34=341|49=RBS|56=LSEHub|52=20110224-02:23:19|10=079||0|
M|342|0|0|I|20110224-02:23:49.956|72|8=FIX.4.2|9=50|35=0|34=342|49=RBS|56=LSEHub|52=20110224-02:23:49|10=083||0|
M|343|0|0|I|20110224-02:24:20.025|72|8=FIX.4.2|9=50|35=0|34=343|49=RBS|56=LSEHub|52=20110224-02:24:20|10=074||0|
M|344|0|0|I|20110224-02:24:50.073|72|8=FIX.4.2|9=50|35=0|34=344|49=RBS|56=LSEHub|52=20110224-02:24:50|10=078||0|
M|345|0|0|I|20110224-02:25:20.142|72|8=FIX.4.2|9=50|35=0|34=345|49=RBS|56=LSEHub|52=20110224-02:25:20|10=077||0|
M|346|0|0|I|20110224-02:25:50.231|72|8=FIX.4.2|9=50|35=0|34=346|49=RBS|56=LSEHub|52=20110224-02:25:50|10=081||0|
M|347|0|0|I|20110224-02:26:20.269|72|8=FIX.4.2|9=50|35=0|34=347|49=RBS|56=LSEHub|52=20110224-02:26:20|10=080||0|
M|348|0|0|I|20110224-02:26:50.348|72|8=FIX.4.2|9=50|35=0|34=348|49=RBS|56=LSEHub|52=20110224-02:26:50|10=084||0|
M|349|0|0|I|20110224-02:27:20.417|72|8=FIX.4.2|9=50|35=0|34=349|49=RBS|56=LSEHub|52=20110224-02:27:20|10=083||0|
M|350|0|0|I|20110224-02:27:50.485|72|8=FIX.4.2|9=50|35=0|34=350|49=RBS|56=LSEHub|52=20110224-02:27:50|10=078||0|
M|351|0|0|I|20110224-02:28:20.534|72|8=FIX.4.2|9=50|35=0|34=351|49=RBS|56=LSEHub|52=20110224-02:28:20|10=077||0|
M|352|0|0|I|20110224-02:28:50.603|72|8=FIX.4.2|9=50|35=0|34=352|49=RBS|56=LSEHub|52=20110224-02:28:50|10=081||0|
M|353|0|0|I|20110224-02:29:20.692|72|8=FIX.4.2|9=50|35=0|34=353|49=RBS|56=LSEHub|52=20110224-02:29:20|10=080||0|
M|354|0|0|I|20110224-02:29:50.770|72|8=FIX.4.2|9=50|35=0|34=354|49=RBS|56=LSEHub|52=20110224-02:29:50|10=084||0|
M|355|0|0|I|20110224-02:30:20.839|72|8=FIX.4.2|9=50|35=0|34=355|49=RBS|56=LSEHub|52=20110224-02:30:20|10=074||0|
M|356|0|0|I|20110224-02:30:50.908|72|8=FIX.4.2|9=50|35=0|34=356|49=RBS|56=LSEHub|52=20110224-02:30:50|10=078||0|
M|357|0|0|I|20110224-02:31:20.976|72|8=FIX.4.2|9=50|35=0|34=357|49=RBS|56=LSEHub|52=20110224-02:31:20|10=077||0|
M|358|0|0|I|20110224-02:31:51.055|72|8=FIX.4.2|9=50|35=0|34=358|49=RBS|56=LSEHub|52=20110224-02:31:51|10=082||0|
M|359|0|0|I|20110224-02:32:21.124|72|8=FIX.4.2|9=50|35=0|34=359|49=RBS|56=LSEHub|52=20110224-02:32:21|10=081||0|
M|360|0|0|I|20110224-02:32:51.192|72|8=FIX.4.2|9=50|35=0|34=360|49=RBS|56=LSEHub|52=20110224-02:32:51|10=076||0|
M|361|0|0|I|20110224-02:33:21.271|72|8=FIX.4.2|9=50|35=0|34=361|49=RBS|56=LSEHub|52=20110224-02:33:21|10=075||0|
M|362|0|0|I|20110224-02:33:51.350|72|8=FIX.4.2|9=50|35=0|34=362|49=RBS|56=LSEHub|52=20110224-02:33:51|10=079||0|
M|363|0|0|I|20110224-02:34:21.418|72|8=FIX.4.2|9=50|35=0|34=363|49=RBS|56=LSEHub|52=20110224-02:34:21|10=078||0|
M|364|0|0|I|20110224-02:34:51.487|72|8=FIX.4.2|9=50|35=0|34=364|49=RBS|56=LSEHub|52=20110224-02:34:51|10=082||0|
M|365|0|0|I|20110224-02:35:21.536|72|8=FIX.4.2|9=50|35=0|34=365|49=RBS|56=LSEHub|52=20110224-02:35:21|10=081||0|
M|366|0|0|I|20110224-02:35:51.614|72|8=FIX.4.2|9=50|35=0|34=366|49=RBS|56=LSEHub|52=20110224-02:35:51|10=085||0|
M|367|0|0|I|20110224-02:36:21.673|72|8=FIX.4.2|9=50|35=0|34=367|49=RBS|56=LSEHub|52=20110224-02:36:21|10=084||0|
M|368|0|0|I|20110224-02:36:51.732|72|8=FIX.4.2|9=50|35=0|34=368|49=RBS|56=LSEHub|52=20110224-02:36:51|10=088||0|
M|369|0|0|I|20110224-02:37:21.780|72|8=FIX.4.2|9=50|35=0|34=369|49=RBS|56=LSEHub|52=20110224-02:37:21|10=087||0|
M|370|0|0|I|20110224-02:37:51.829|72|8=FIX.4.2|9=50|35=0|34=370|49=RBS|56=LSEHub|52=20110224-02:37:51|10=082||0|
M|371|0|0|I|20110224-02:38:21.898|72|8=FIX.4.2|9=50|35=0|34=371|49=RBS|56=LSEHub|52=20110224-02:38:21|10=081||0|
M|372|0|0|I|20110224-02:38:51.927|72|8=FIX.4.2|9=50|35=0|34=372|49=RBS|56=LSEHub|52=20110224-02:38:51|10=085||0|
M|373|0|0|I|20110224-02:39:21.975|72|8=FIX.4.2|9=50|35=0|34=373|49=RBS|56=LSEHub|52=20110224-02:39:21|10=084||0|
M|374|0|0|I|20110224-02:39:52.034|72|8=FIX.4.2|9=50|35=0|34=374|49=RBS|56=LSEHub|52=20110224-02:39:52|10=089||0|
M|375|0|0|I|20110224-02:40:22.063|72|8=FIX.4.2|9=50|35=0|34=375|49=RBS|56=LSEHub|52=20110224-02:40:22|10=079||0|
M|376|0|0|I|20110224-02:40:52.111|72|8=FIX.4.2|9=50|35=0|34=376|49=RBS|56=LSEHub|52=20110224-02:40:52|10=083||0|
M|377|0|0|I|20110224-02:41:22.180|72|8=FIX.4.2|9=50|35=0|34=377|49=RBS|56=LSEHub|52=20110224-02:41:22|10=082||0|
M|378|0|0|I|20110224-02:41:52.249|72|8=FIX.4.2|9=50|35=0|34=378|49=RBS|56=LSEHub|52=20110224-02:41:52|10=086||0|
M|379|0|0|I|20110224-02:42:22.307|72|8=FIX.4.2|9=50|35=0|34=379|49=RBS|56=LSEHub|52=20110224-02:42:22|10=085||0|
M|380|0|0|I|20110224-02:42:52.386|72|8=FIX.4.2|9=50|35=0|34=380|49=RBS|56=LSEHub|52=20110224-02:42:52|10=080||0|
M|381|0|0|I|20110224-02:43:22.445|72|8=FIX.4.2|9=50|35=0|34=381|49=RBS|56=LSEHub|52=20110224-02:43:22|10=079||0|
M|382|0|0|I|20110224-02:43:52.513|72|8=FIX.4.2|9=50|35=0|34=382|49=RBS|56=LSEHub|52=20110224-02:43:52|10=083||0|
M|383|0|0|I|20110224-02:44:22.592|72|8=FIX.4.2|9=50|35=0|34=383|49=RBS|56=LSEHub|52=20110224-02:44:22|10=082||0|
M|384|0|0|I|20110224-02:44:52.671|72|8=FIX.4.2|9=50|35=0|34=384|49=RBS|56=LSEHub|52=20110224-02:44:52|10=086||0|
M|385|0|0|I|20110224-02:45:22.749|72|8=FIX.4.2|9=50|35=0|34=385|49=RBS|56=LSEHub|52=20110224-02:45:22|10=085||0|
M|386|0|0|I|20110224-02:45:52.818|72|8=FIX.4.2|9=50|35=0|34=386|49=RBS|56=LSEHub|52=20110224-02:45:52|10=089||0|
M|387|0|0|I|20110224-02:46:22.887|72|8=FIX.4.2|9=50|35=0|34=387|49=RBS|56=LSEHub|52=20110224-02:46:22|10=088||0|
M|388|0|0|I|20110224-02:46:52.936|72|8=FIX.4.2|9=50|35=0|34=388|49=RBS|56=LSEHub|52=20110224-02:46:52|10=092||0|
M|389|0|0|I|20110224-02:47:23.004|72|8=FIX.4.2|9=50|35=0|34=389|49=RBS|56=LSEHub|52=20110224-02:47:23|10=092||0|
M|390|0|0|I|20110224-02:47:53.063|72|8=FIX.4.2|9=50|35=0|34=390|49=RBS|56=LSEHub|52=20110224-02:47:53|10=087||0|
M|391|0|0|I|20110224-02:48:23.152|72|8=FIX.4.2|9=50|35=0|34=391|49=RBS|56=LSEHub|52=20110224-02:48:23|10=086||0|
M|392|0|0|I|20110224-02:48:53.240|72|8=FIX.4.2|9=50|35=0|34=392|49=RBS|56=LSEHub|52=20110224-02:48:53|10=090||0|
M|393|0|0|I|20110224-02:49:23.309|72|8=FIX.4.2|9=50|35=0|34=393|49=RBS|56=LSEHub|52=20110224-02:49:23|10=089||0|
M|394|0|0|I|20110224-02:49:53.378|72|8=FIX.4.2|9=50|35=0|34=394|49=RBS|56=LSEHub|52=20110224-02:49:53|10=093||0|
M|395|0|0|I|20110224-02:50:23.436|72|8=FIX.4.2|9=50|35=0|34=395|49=RBS|56=LSEHub|52=20110224-02:50:23|10=083||0|
M|396|0|0|I|20110224-02:50:53.515|72|8=FIX.4.2|9=50|35=0|34=396|49=RBS|56=LSEHub|52=20110224-02:50:53|10=087||0|
M|397|0|0|I|20110224-02:51:23.594|72|8=FIX.4.2|9=50|35=0|34=397|49=RBS|56=LSEHub|52=20110224-02:51:23|10=086||0|
M|398|0|0|I|20110224-02:51:53.653|72|8=FIX.4.2|9=50|35=0|34=398|49=RBS|56=LSEHub|52=20110224-02:51:53|10=090||0|
M|399|0|0|I|20110224-02:52:23.701|72|8=FIX.4.2|9=50|35=0|34=399|49=RBS|56=LSEHub|52=20110224-02:52:23|10=089||0|
M|400|0|0|I|20110224-02:52:53.780|72|8=FIX.4.2|9=50|35=0|34=400|49=RBS|56=LSEHub|52=20110224-02:52:53|10=075||0|
M|401|0|0|I|20110224-02:53:23.839|72|8=FIX.4.2|9=50|35=0|34=401|49=RBS|56=LSEHub|52=20110224-02:53:23|10=074||0|
M|402|0|0|I|20110224-02:53:53.917|72|8=FIX.4.2|9=50|35=0|34=402|49=RBS|56=LSEHub|52=20110224-02:53:53|10=078||0|
M|403|0|0|I|20110224-02:54:23.976|72|8=FIX.4.2|9=50|35=0|34=403|49=RBS|56=LSEHub|52=20110224-02:54:23|10=077||0|
M|404|0|0|I|20110224-02:54:54.015|72|8=FIX.4.2|9=50|35=0|34=404|49=RBS|56=LSEHub|52=20110224-02:54:54|10=082||0|
M|405|0|0|I|20110224-02:55:24.083|72|8=FIX.4.2|9=50|35=0|34=405|49=RBS|56=LSEHub|52=20110224-02:55:24|10=081||0|
M|406|0|0|I|20110224-02:55:54.162|72|8=FIX.4.2|9=50|35=0|34=406|49=RBS|56=LSEHub|52=20110224-02:55:54|10=085||0|
M|407|0|0|I|20110224-02:56:24.251|72|8=FIX.4.2|9=50|35=0|34=407|49=RBS|56=LSEHub|52=20110224-02:56:24|10=084||0|
M|408|0|0|I|20110224-02:56:54.329|72|8=FIX.4.2|9=50|35=0|34=408|49=RBS|56=LSEHub|52=20110224-02:56:54|10=088||0|
M|409|0|0|I|20110224-02:57:24.408|72|8=FIX.4.2|9=50|35=0|34=409|49=RBS|56=LSEHub|52=20110224-02:57:24|10=087||0|
M|410|0|0|I|20110224-02:57:54.477|72|8=FIX.4.2|9=50|35=0|34=410|49=RBS|56=LSEHub|52=20110224-02:57:54|10=082||0|
M|411|0|0|I|20110224-02:58:24.535|72|8=FIX.4.2|9=50|35=0|34=411|49=RBS|56=LSEHub|52=20110224-02:58:24|10=081||0|
M|412|0|0|I|20110224-02:58:54.604|72|8=FIX.4.2|9=50|35=0|34=412|49=RBS|56=LSEHub|52=20110224-02:58:54|10=085||0|
M|413|0|0|I|20110224-02:59:24.673|72|8=FIX.4.2|9=50|35=0|34=413|49=RBS|56=LSEHub|52=20110224-02:59:24|10=084||0|
M|414|0|0|I|20110224-02:59:54.741|72|8=FIX.4.2|9=50|35=0|34=414|49=RBS|56=LSEHub|52=20110224-02:59:54|10=088||0|
M|415|0|0|I|20110224-03:00:24.820|72|8=FIX.4.2|9=50|35=0|34=415|49=RBS|56=LSEHub|52=20110224-03:00:24|10=073||0|
M|416|0|0|I|20110224-03:00:54.899|72|8=FIX.4.2|9=50|35=0|34=416|49=RBS|56=LSEHub|52=20110224-03:00:54|10=077||0|
M|417|0|0|I|20110224-03:01:24.978|72|8=FIX.4.2|9=50|35=0|34=417|49=RBS|56=LSEHub|52=20110224-03:01:24|10=076||0|
M|418|0|0|I|20110224-03:01:55.056|72|8=FIX.4.2|9=50|35=0|34=418|49=RBS|56=LSEHub|52=20110224-03:01:55|10=081||0|
M|419|0|0|I|20110224-03:02:25.105|72|8=FIX.4.2|9=50|35=0|34=419|49=RBS|56=LSEHub|52=20110224-03:02:25|10=080||0|
M|420|0|0|I|20110224-03:02:55.194|72|8=FIX.4.2|9=50|35=0|34=420|49=RBS|56=LSEHub|52=20110224-03:02:55|10=075||0|
M|421|0|0|I|20110224-03:03:25.282|72|8=FIX.4.2|9=50|35=0|34=421|49=RBS|56=LSEHub|52=20110224-03:03:25|10=074||0|
M|422|0|0|I|20110224-03:03:55.331|72|8=FIX.4.2|9=50|35=0|34=422|49=RBS|56=LSEHub|52=20110224-03:03:55|10=078||0|
M|423|0|0|I|20110224-03:04:25.660|72|8=FIX.4.2|9=50|35=0|34=423|49=RBS|56=LSEHub|52=20110224-03:04:25|10=077||0|
M|424|0|0|I|20110224-03:04:55.728|72|8=FIX.4.2|9=50|35=0|34=424|49=RBS|56=LSEHub|52=20110224-03:04:55|10=081||0|
M|425|0|0|I|20110224-03:05:25.787|72|8=FIX.4.2|9=50|35=0|34=425|49=RBS|56=LSEHub|52=20110224-03:05:25|10=080||0|
M|426|0|0|I|20110224-03:05:55.866|72|8=FIX.4.2|9=50|35=0|34=426|49=RBS|56=LSEHub|52=20110224-03:05:55|10=084||0|
M|427|0|0|I|20110224-03:06:25.924|72|8=FIX.4.2|9=50|35=0|34=427|49=RBS|56=LSEHub|52=20110224-03:06:25|10=083||0|
M|428|0|0|I|20110224-03:06:56.003|72|8=FIX.4.2|9=50|35=0|34=428|49=RBS|56=LSEHub|52=20110224-03:06:56|10=088||0|
M|429|0|0|I|20110224-03:07:26.082|72|8=FIX.4.2|9=50|35=0|34=429|49=RBS|56=LSEHub|52=20110224-03:07:26|10=087||0|
M|430|0|0|I|20110224-03:07:56.160|72|8=FIX.4.2|9=50|35=0|34=430|49=RBS|56=LSEHub|52=20110224-03:07:56|10=082||0|
M|431|0|0|I|20110224-03:08:26.219|72|8=FIX.4.2|9=50|35=0|34=431|49=RBS|56=LSEHub|52=20110224-03:08:26|10=081||0|
M|432|0|0|I|20110224-03:08:56.288|72|8=FIX.4.2|9=50|35=0|34=432|49=RBS|56=LSEHub|52=20110224-03:08:56|10=085||0|
M|433|0|0|I|20110224-03:09:26.367|72|8=FIX.4.2|9=50|35=0|34=433|49=RBS|56=LSEHub|52=20110224-03:09:26|10=084||0|
M|434|0|0|I|20110224-03:09:56.425|72|8=FIX.4.2|9=50|35=0|34=434|49=RBS|56=LSEHub|52=20110224-03:09:56|10=088||0|
M|435|0|0|I|20110224-03:10:26.484|72|8=FIX.4.2|9=50|35=0|34=435|49=RBS|56=LSEHub|52=20110224-03:10:26|10=078||0|
M|436|0|0|I|20110224-03:10:56.543|72|8=FIX.4.2|9=50|35=0|34=436|49=RBS|56=LSEHub|52=20110224-03:10:56|10=082||0|
M|437|0|0|I|20110224-03:11:26.611|72|8=FIX.4.2|9=50|35=0|34=437|49=RBS|56=LSEHub|52=20110224-03:11:26|10=081||0|
M|438|0|0|I|20110224-03:11:56.670|72|8=FIX.4.2|9=50|35=0|34=438|49=RBS|56=LSEHub|52=20110224-03:11:56|10=085||0|
M|439|0|0|I|20110224-03:12:26.759|72|8=FIX.4.2|9=50|35=0|34=439|49=RBS|56=LSEHub|52=20110224-03:12:26|10=084||0|
M|440|0|0|I|20110224-03:12:56.827|72|8=FIX.4.2|9=50|35=0|34=440|49=RBS|56=LSEHub|52=20110224-03:12:56|10=079||0|
M|441|0|0|I|20110224-03:13:26.906|72|8=FIX.4.2|9=50|35=0|34=441|49=RBS|56=LSEHub|52=20110224-03:13:26|10=078||0|
M|442|0|0|I|20110224-03:13:56.965|72|8=FIX.4.2|9=50|35=0|34=442|49=RBS|56=LSEHub|52=20110224-03:13:56|10=082||0|
M|443|0|0|I|20110224-03:14:27.033|72|8=FIX.4.2|9=50|35=0|34=443|49=RBS|56=LSEHub|52=20110224-03:14:27|10=082||0|
M|444|0|0|I|20110224-03:14:57.112|72|8=FIX.4.2|9=50|35=0|34=444|49=RBS|56=LSEHub|52=20110224-03:14:57|10=086||0|
M|445|0|0|I|20110224-03:15:27.161|72|8=FIX.4.2|9=50|35=0|34=445|49=RBS|56=LSEHub|52=20110224-03:15:27|10=085||0|
M|446|0|0|I|20110224-03:15:57.239|72|8=FIX.4.2|9=50|35=0|34=446|49=RBS|56=LSEHub|52=20110224-03:15:57|10=089||0|
M|447|0|0|I|20110224-03:16:27.298|72|8=FIX.4.2|9=50|35=0|34=447|49=RBS|56=LSEHub|52=20110224-03:16:27|10=088||0|
M|448|0|0|I|20110224-03:16:57.347|72|8=FIX.4.2|9=50|35=0|34=448|49=RBS|56=LSEHub|52=20110224-03:16:57|10=092||0|
M|449|0|0|I|20110224-03:17:27.426|72|8=FIX.4.2|9=50|35=0|34=449|49=RBS|56=LSEHub|52=20110224-03:17:27|10=091||0|
M|450|0|0|I|20110224-03:17:57.454|72|8=FIX.4.2|9=50|35=0|34=450|49=RBS|56=LSEHub|52=20110224-03:17:57|10=086||0|
M|451|0|0|I|20110224-03:18:27.523|72|8=FIX.4.2|9=50|35=0|34=451|49=RBS|56=LSEHub|52=20110224-03:18:27|10=085||0|
M|452|0|0|I|20110224-03:18:57.582|72|8=FIX.4.2|9=50|35=0|34=452|49=RBS|56=LSEHub|52=20110224-03:18:57|10=089||0|
M|453|0|0|I|20110224-03:19:27.650|72|8=FIX.4.2|9=50|35=0|34=453|49=RBS|56=LSEHub|52=20110224-03:19:27|10=088||0|
M|454|0|0|I|20110224-03:19:57.719|72|8=FIX.4.2|9=50|35=0|34=454|49=RBS|56=LSEHub|52=20110224-03:19:57|10=092||0|
M|455|0|0|I|20110224-03:20:27.788|72|8=FIX.4.2|9=50|35=0|34=455|49=RBS|56=LSEHub|52=20110224-03:20:27|10=082||0|
M|456|0|0|I|20110224-03:20:57.836|72|8=FIX.4.2|9=50|35=0|34=456|49=RBS|56=LSEHub|52=20110224-03:20:57|10=086||0|
M|457|0|0|I|20110224-03:21:27.905|72|8=FIX.4.2|9=50|35=0|34=457|49=RBS|56=LSEHub|52=20110224-03:21:27|10=085||0|
M|458|0|0|I|20110224-03:21:57.984|72|8=FIX.4.2|9=50|35=0|34=458|49=RBS|56=LSEHub|52=20110224-03:21:57|10=089||0|
M|459|0|0|I|20110224-03:22:28.072|72|8=FIX.4.2|9=50|35=0|34=459|49=RBS|56=LSEHub|52=20110224-03:22:28|10=089||0|
M|460|0|0|I|20110224-03:22:58.141|72|8=FIX.4.2|9=50|35=0|34=460|49=RBS|56=LSEHub|52=20110224-03:22:58|10=084||0|
M|461|0|0|I|20110224-03:23:28.200|72|8=FIX.4.2|9=50|35=0|34=461|49=RBS|56=LSEHub|52=20110224-03:23:28|10=083||0|
M|462|0|0|I|20110224-03:23:58.278|72|8=FIX.4.2|9=50|35=0|34=462|49=RBS|56=LSEHub|52=20110224-03:23:58|10=087||0|
M|463|0|0|I|20110224-03:24:28.327|72|8=FIX.4.2|9=50|35=0|34=463|49=RBS|56=LSEHub|52=20110224-03:24:28|10=086||0|
M|464|0|0|I|20110224-03:24:58.406|72|8=FIX.4.2|9=50|35=0|34=464|49=RBS|56=LSEHub|52=20110224-03:24:58|10=090||0|
M|465|0|0|I|20110224-03:25:28.455|72|8=FIX.4.2|9=50|35=0|34=465|49=RBS|56=LSEHub|52=20110224-03:25:28|10=089||0|
M|466|0|0|I|20110224-03:25:58.533|72|8=FIX.4.2|9=50|35=0|34=466|49=RBS|56=LSEHub|52=20110224-03:25:58|10=093||0|
M|467|0|0|I|20110224-03:26:28.612|72|8=FIX.4.2|9=50|35=0|34=467|49=RBS|56=LSEHub|52=20110224-03:26:28|10=092||0|
M|468|0|0|I|20110224-03:26:58.661|72|8=FIX.4.2|9=50|35=0|34=468|49=RBS|56=LSEHub|52=20110224-03:26:58|10=096||0|
M|469|0|0|I|20110224-03:27:28.739|72|8=FIX.4.2|9=50|35=0|34=469|49=RBS|56=LSEHub|52=20110224-03:27:28|10=095||0|
M|470|0|0|I|20110224-03:27:58.808|72|8=FIX.4.2|9=50|35=0|34=470|49=RBS|56=LSEHub|52=20110224-03:27:58|10=090||0|
M|471|0|0|I|20110224-03:28:28.897|72|8=FIX.4.2|9=50|35=0|34=471|49=RBS|56=LSEHub|52=20110224-03:28:28|10=089||0|
M|472|0|0|I|20110224-03:28:58.965|72|8=FIX.4.2|9=50|35=0|34=472|49=RBS|56=LSEHub|52=20110224-03:28:58|10=093||0|
M|473|0|0|I|20110224-03:29:29.044|72|8=FIX.4.2|9=50|35=0|34=473|49=RBS|56=LSEHub|52=20110224-03:29:29|10=093||0|
M|474|0|0|I|20110224-03:29:59.123|72|8=FIX.4.2|9=50|35=0|34=474|49=RBS|56=LSEHub|52=20110224-03:29:59|10=097||0|
M|475|0|0|I|20110224-03:30:29.161|72|8=FIX.4.2|9=50|35=0|34=475|49=RBS|56=LSEHub|52=20110224-03:30:29|10=087||0|
M|476|0|0|I|20110224-03:30:59.230|72|8=FIX.4.2|9=50|35=0|34=476|49=RBS|56=LSEHub|52=20110224-03:30:59|10=091||0|
M|477|0|0|I|20110224-03:31:29.319|72|8=FIX.4.2|9=50|35=0|34=477|49=RBS|56=LSEHub|52=20110224-03:31:29|10=090||0|
M|478|0|0|I|20110224-03:31:59.368|72|8=FIX.4.2|9=50|35=0|34=478|49=RBS|56=LSEHub|52=20110224-03:31:59|10=094||0|
M|479|0|0|I|20110224-03:32:29.446|72|8=FIX.4.2|9=50|35=0|34=479|49=RBS|56=LSEHub|52=20110224-03:32:29|10=093||0|
M|480|0|0|I|20110224-03:32:59.515|72|8=FIX.4.2|9=50|35=0|34=480|49=RBS|56=LSEHub|52=20110224-03:32:59|10=088||0|
M|481|0|0|I|20110224-03:33:29.574|72|8=FIX.4.2|9=50|35=0|34=481|49=RBS|56=LSEHub|52=20110224-03:33:29|10=087||0|
M|482|0|0|I|20110224-03:33:59.642|72|8=FIX.4.2|9=50|35=0|34=482|49=RBS|56=LSEHub|52=20110224-03:33:59|10=091||0|
M|483|0|0|I|20110224-03:34:29.731|72|8=FIX.4.2|9=50|35=0|34=483|49=RBS|56=LSEHub|52=20110224-03:34:29|10=090||0|
M|484|0|0|I|20110224-03:34:59.800|72|8=FIX.4.2|9=50|35=0|34=484|49=RBS|56=LSEHub|52=20110224-03:34:59|10=094||0|
M|485|0|0|I|20110224-03:35:29.878|72|8=FIX.4.2|9=50|35=0|34=485|49=RBS|56=LSEHub|52=20110224-03:35:29|10=093||0|
M|486|0|0|I|20110224-03:35:59.947|72|8=FIX.4.2|9=50|35=0|34=486|49=RBS|56=LSEHub|52=20110224-03:35:59|10=097||0|
M|487|0|0|I|20110224-03:36:30.026|72|8=FIX.4.2|9=50|35=0|34=487|49=RBS|56=LSEHub|52=20110224-03:36:30|10=088||0|
M|488|0|0|I|20110224-03:37:00.105|72|8=FIX.4.2|9=50|35=0|34=488|49=RBS|56=LSEHub|52=20110224-03:37:00|10=087||0|
M|489|0|0|I|20110224-03:37:30.173|72|8=FIX.4.2|9=50|35=0|34=489|49=RBS|56=LSEHub|52=20110224-03:37:30|10=091||0|
M|490|0|0|I|20110224-03:38:00.242|72|8=FIX.4.2|9=50|35=0|34=490|49=RBS|56=LSEHub|52=20110224-03:38:00|10=081||0|
M|491|0|0|I|20110224-03:38:30.321|72|8=FIX.4.2|9=50|35=0|34=491|49=RBS|56=LSEHub|52=20110224-03:38:30|10=085||0|
M|492|0|0|I|20110224-03:39:00.369|72|8=FIX.4.2|9=50|35=0|34=492|49=RBS|56=LSEHub|52=20110224-03:39:00|10=084||0|
M|493|0|0|I|20110224-03:39:30.428|72|8=FIX.4.2|9=50|35=0|34=493|49=RBS|56=LSEHub|52=20110224-03:39:30|10=088||0|
M|494|0|0|I|20110224-03:40:00.477|72|8=FIX.4.2|9=50|35=0|34=494|49=RBS|56=LSEHub|52=20110224-03:40:00|10=078||0|
M|495|0|0|I|20110224-03:40:30.565|72|8=FIX.4.2|9=50|35=0|34=495|49=RBS|56=LSEHub|52=20110224-03:40:30|10=082||0|
M|496|0|0|I|20110224-03:41:00.624|72|8=FIX.4.2|9=50|35=0|34=496|49=RBS|56=LSEHub|52=20110224-03:41:00|10=081||0|
M|497|0|0|I|20110224-03:41:30.693|72|8=FIX.4.2|9=50|35=0|34=497|49=RBS|56=LSEHub|52=20110224-03:41:30|10=085||0|
M|498|0|0|I|20110224-03:42:00.751|72|8=FIX.4.2|9=50|35=0|34=498|49=RBS|56=LSEHub|52=20110224-03:42:00|10=084||0|
M|499|0|0|I|20110224-03:42:30.810|72|8=FIX.4.2|9=50|35=0|34=499|49=RBS|56=LSEHub|52=20110224-03:42:30|10=088||0|
M|500|0|0|I|20110224-03:43:00.869|72|8=FIX.4.2|9=50|35=0|34=500|49=RBS|56=LSEHub|52=20110224-03:43:00|10=069||0|
M|501|0|0|I|20110224-03:43:30.937|72|8=FIX.4.2|9=50|35=0|34=501|49=RBS|56=LSEHub|52=20110224-03:43:30|10=073||0|
M|502|0|0|I|20110224-03:44:01.006|72|8=FIX.4.2|9=50|35=0|34=502|49=RBS|56=LSEHub|52=20110224-03:44:01|10=073||0|
M|503|0|0|I|20110224-03:44:31.065|72|8=FIX.4.2|9=50|35=0|34=503|49=RBS|56=LSEHub|52=20110224-03:44:31|10=077||0|
M|504|0|0|I|20110224-03:45:01.143|72|8=FIX.4.2|9=50|35=0|34=504|49=RBS|56=LSEHub|52=20110224-03:45:01|10=076||0|
M|505|0|0|I|20110224-03:45:31.222|72|8=FIX.4.2|9=50|35=0|34=505|49=RBS|56=LSEHub|52=20110224-03:45:31|10=080||0|
M|506|0|0|I|20110224-03:46:01.301|72|8=FIX.4.2|9=50|35=0|34=506|49=RBS|56=LSEHub|52=20110224-03:46:01|10=079||0|
M|507|0|0|I|20110224-03:46:31.360|72|8=FIX.4.2|9=50|35=0|34=507|49=RBS|56=LSEHub|52=20110224-03:46:31|10=083||0|
M|508|0|0|I|20110224-03:47:01.438|72|8=FIX.4.2|9=50|35=0|34=508|49=RBS|56=LSEHub|52=20110224-03:47:01|10=082||0|
M|509|0|0|I|20110224-03:47:31.517|72|8=FIX.4.2|9=50|35=0|34=509|49=RBS|56=LSEHub|52=20110224-03:47:31|10=086||0|
M|510|0|0|I|20110224-03:48:01.586|72|8=FIX.4.2|9=50|35=0|34=510|49=RBS|56=LSEHub|52=20110224-03:48:01|10=076||0|
M|511|0|0|I|20110224-03:48:31.634|72|8=FIX.4.2|9=50|35=0|34=511|49=RBS|56=LSEHub|52=20110224-03:48:31|10=080||0|
M|512|0|0|I|20110224-03:49:01.723|72|8=FIX.4.2|9=50|35=0|34=512|49=RBS|56=LSEHub|52=20110224-03:49:01|10=079||0|
M|513|0|0|I|20110224-03:49:31.792|72|8=FIX.4.2|9=50|35=0|34=513|49=RBS|56=LSEHub|52=20110224-03:49:31|10=083||0|
M|514|0|0|I|20110224-03:50:01.850|72|8=FIX.4.2|9=50|35=0|34=514|49=RBS|56=LSEHub|52=20110224-03:50:01|10=073||0|
M|515|0|0|I|20110224-03:50:31.929|72|8=FIX.4.2|9=50|35=0|34=515|49=RBS|56=LSEHub|52=20110224-03:50:31|10=077||0|
M|516|0|0|I|20110224-03:51:02.008|72|8=FIX.4.2|9=50|35=0|34=516|49=RBS|56=LSEHub|52=20110224-03:51:02|10=077||0|
M|517|0|0|I|20110224-03:51:32.076|72|8=FIX.4.2|9=50|35=0|34=517|49=RBS|56=LSEHub|52=20110224-03:51:32|10=081||0|
M|518|0|0|I|20110224-03:52:02.165|72|8=FIX.4.2|9=50|35=0|34=518|49=RBS|56=LSEHub|52=20110224-03:52:02|10=080||0|
M|519|0|0|I|20110224-03:52:32.244|72|8=FIX.4.2|9=50|35=0|34=519|49=RBS|56=LSEHub|52=20110224-03:52:32|10=084||0|
M|520|0|0|I|20110224-03:53:02.313|72|8=FIX.4.2|9=50|35=0|34=520|49=RBS|56=LSEHub|52=20110224-03:53:02|10=074||0|
M|521|0|0|I|20110224-03:53:32.381|72|8=FIX.4.2|9=50|35=0|34=521|49=RBS|56=LSEHub|52=20110224-03:53:32|10=078||0|
M|522|0|0|I|20110224-03:54:02.450|72|8=FIX.4.2|9=50|35=0|34=522|49=RBS|56=LSEHub|52=20110224-03:54:02|10=077||0|
M|523|0|0|I|20110224-03:54:32.519|72|8=FIX.4.2|9=50|35=0|34=523|49=RBS|56=LSEHub|52=20110224-03:54:32|10=081||0|
M|524|0|0|I|20110224-03:55:02.577|72|8=FIX.4.2|9=50|35=0|34=524|49=RBS|56=LSEHub|52=20110224-03:55:02|10=080||0|
M|525|0|0|I|20110224-03:55:32.646|72|8=FIX.4.2|9=50|35=0|34=525|49=RBS|56=LSEHub|52=20110224-03:55:32|10=084||0|
M|526|0|0|I|20110224-03:56:02.725|72|8=FIX.4.2|9=50|35=0|34=526|49=RBS|56=LSEHub|52=20110224-03:56:02|10=083||0|
M|527|0|0|I|20110224-03:56:32.783|72|8=FIX.4.2|9=50|35=0|34=527|49=RBS|56=LSEHub|52=20110224-03:56:32|10=087||0|
M|528|0|0|I|20110224-03:57:02.832|72|8=FIX.4.2|9=50|35=0|34=528|49=RBS|56=LSEHub|52=20110224-03:57:02|10=086||0|
M|529|0|0|I|20110224-03:57:32.911|72|8=FIX.4.2|9=50|35=0|34=529|49=RBS|56=LSEHub|52=20110224-03:57:32|10=090||0|
M|530|0|0|I|20110224-03:58:02.990|72|8=FIX.4.2|9=50|35=0|34=530|49=RBS|56=LSEHub|52=20110224-03:58:02|10=080||0|
M|531|0|0|I|20110224-03:58:33.068|72|8=FIX.4.2|9=50|35=0|34=531|49=RBS|56=LSEHub|52=20110224-03:58:33|10=085||0|
M|532|0|0|I|20110224-03:59:03.147|72|8=FIX.4.2|9=50|35=0|34=532|49=RBS|56=LSEHub|52=20110224-03:59:03|10=084||0|
M|533|0|0|I|20110224-03:59:33.226|72|8=FIX.4.2|9=50|35=0|34=533|49=RBS|56=LSEHub|52=20110224-03:59:33|10=088||0|
M|534|0|0|I|20110224-04:00:03.264|72|8=FIX.4.2|9=50|35=0|34=534|49=RBS|56=LSEHub|52=20110224-04:00:03|10=073||0|
M|535|0|0|I|20110224-04:00:33.333|72|8=FIX.4.2|9=50|35=0|34=535|49=RBS|56=LSEHub|52=20110224-04:00:33|10=077||0|
M|536|0|0|I|20110224-04:01:03.412|72|8=FIX.4.2|9=50|35=0|34=536|49=RBS|56=LSEHub|52=20110224-04:01:03|10=076||0|
M|537|0|0|I|20110224-04:01:33.480|72|8=FIX.4.2|9=50|35=0|34=537|49=RBS|56=LSEHub|52=20110224-04:01:33|10=080||0|
M|538|0|0|I|20110224-04:02:03.539|72|8=FIX.4.2|9=50|35=0|34=538|49=RBS|56=LSEHub|52=20110224-04:02:03|10=079||0|
M|539|0|0|I|20110224-04:02:33.618|72|8=FIX.4.2|9=50|35=0|34=539|49=RBS|56=LSEHub|52=20110224-04:02:33|10=083||0|
M|540|0|0|I|20110224-04:03:03.696|72|8=FIX.4.2|9=50|35=0|34=540|49=RBS|56=LSEHub|52=20110224-04:03:03|10=073||0|
M|541|0|0|I|20110224-04:03:33.775|72|8=FIX.4.2|9=50|35=0|34=541|49=RBS|56=LSEHub|52=20110224-04:03:33|10=077||0|
M|542|0|0|I|20110224-04:04:03.834|72|8=FIX.4.2|9=50|35=0|34=542|49=RBS|56=LSEHub|52=20110224-04:04:03|10=076||0|
M|543|0|0|I|20110224-04:04:33.912|72|8=FIX.4.2|9=50|35=0|34=543|49=RBS|56=LSEHub|52=20110224-04:04:33|10=080||0|
M|544|0|0|I|20110224-04:05:03.971|72|8=FIX.4.2|9=50|35=0|34=544|49=RBS|56=LSEHub|52=20110224-04:05:03|10=079||0|
M|545|0|0|I|20110224-04:05:34.000|72|8=FIX.4.2|9=50|35=0|34=545|49=RBS|56=LSEHub|52=20110224-04:05:34|10=084||0|
M|546|0|0|I|20110224-04:06:04.059|72|8=FIX.4.2|9=50|35=0|34=546|49=RBS|56=LSEHub|52=20110224-04:06:04|10=083||0|
M|547|0|0|I|20110224-04:06:34.127|72|8=FIX.4.2|9=50|35=0|34=547|49=RBS|56=LSEHub|52=20110224-04:06:34|10=087||0|
M|548|0|0|I|20110224-04:07:04.176|72|8=FIX.4.2|9=50|35=0|34=548|49=RBS|56=LSEHub|52=20110224-04:07:04|10=086||0|
M|549|0|0|I|20110224-04:07:34.255|72|8=FIX.4.2|9=50|35=0|34=549|49=RBS|56=LSEHub|52=20110224-04:07:34|10=090||0|
M|550|0|0|I|20110224-04:08:04.333|72|8=FIX.4.2|9=50|35=0|34=550|49=RBS|56=LSEHub|52=20110224-04:08:04|10=080||0|
M|551|0|0|I|20110224-04:08:34.382|72|8=FIX.4.2|9=50|35=0|34=551|49=RBS|56=LSEHub|52=20110224-04:08:34|10=084||0|
M|552|0|0|I|20110224-04:09:04.441|72|8=FIX.4.2|9=50|35=0|34=552|49=RBS|56=LSEHub|52=20110224-04:09:04|10=083||0|
M|553|0|0|I|20110224-04:09:34.509|72|8=FIX.4.2|9=50|35=0|34=553|49=RBS|56=LSEHub|52=20110224-04:09:34|10=087||0|
M|554|0|0|I|20110224-04:10:04.578|72|8=FIX.4.2|9=50|35=0|34=554|49=RBS|56=LSEHub|52=20110224-04:10:04|10=077||0|
M|555|0|0|I|20110224-04:10:34.637|72|8=FIX.4.2|9=50|35=0|34=555|49=RBS|56=LSEHub|52=20110224-04:10:34|10=081||0|
M|556|0|0|I|20110224-04:11:04.696|72|8=FIX.4.2|9=50|35=0|34=556|49=RBS|56=LSEHub|52=20110224-04:11:04|10=080||0|
M|557|0|0|I|20110224-04:11:34.734|72|8=FIX.4.2|9=50|35=0|34=557|49=RBS|56=LSEHub|52=20110224-04:11:34|10=084||0|
M|558|0|0|I|20110224-04:12:04.813|72|8=FIX.4.2|9=50|35=0|34=558|49=RBS|56=LSEHub|52=20110224-04:12:04|10=083||0|
M|559|0|0|I|20110224-04:12:34.872|72|8=FIX.4.2|9=50|35=0|34=559|49=RBS|56=LSEHub|52=20110224-04:12:34|10=087||0|
M|560|0|0|I|20110224-04:13:04.950|72|8=FIX.4.2|9=50|35=0|34=560|49=RBS|56=LSEHub|52=20110224-04:13:04|10=077||0|
M|561|0|0|I|20110224-04:13:34.999|72|8=FIX.4.2|9=50|35=0|34=561|49=RBS|56=LSEHub|52=20110224-04:13:34|10=081||0|
M|562|0|0|I|20110224-04:14:05.068|72|8=FIX.4.2|9=50|35=0|34=562|49=RBS|56=LSEHub|52=20110224-04:14:05|10=081||0|
M|563|0|0|I|20110224-04:14:35.136|72|8=FIX.4.2|9=50|35=0|34=563|49=RBS|56=LSEHub|52=20110224-04:14:35|10=085||0|
M|564|0|0|I|20110224-04:15:05.225|72|8=FIX.4.2|9=50|35=0|34=564|49=RBS|56=LSEHub|52=20110224-04:15:05|10=084||0|
M|565|0|0|I|20110224-04:15:35.294|72|8=FIX.4.2|9=50|35=0|34=565|49=RBS|56=LSEHub|52=20110224-04:15:35|10=088||0|
M|566|0|0|I|20110224-04:16:05.352|72|8=FIX.4.2|9=50|35=0|34=566|49=RBS|56=LSEHub|52=20110224-04:16:05|10=087||0|
M|567|0|0|I|20110224-04:16:35.421|72|8=FIX.4.2|9=50|35=0|34=567|49=RBS|56=LSEHub|52=20110224-04:16:35|10=091||0|
M|568|0|0|I|20110224-04:17:05.490|72|8=FIX.4.2|9=50|35=0|34=568|49=RBS|56=LSEHub|52=20110224-04:17:05|10=090||0|
M|569|0|0|I|20110224-04:17:35.548|72|8=FIX.4.2|9=50|35=0|34=569|49=RBS|56=LSEHub|52=20110224-04:17:35|10=094||0|
M|570|0|0|I|20110224-04:18:05.617|72|8=FIX.4.2|9=50|35=0|34=570|49=RBS|56=LSEHub|52=20110224-04:18:05|10=084||0|
M|571|0|0|I|20110224-04:18:35.706|72|8=FIX.4.2|9=50|35=0|34=571|49=RBS|56=LSEHub|52=20110224-04:18:35|10=088||0|
M|572|0|0|I|20110224-04:19:05.754|72|8=FIX.4.2|9=50|35=0|34=572|49=RBS|56=LSEHub|52=20110224-04:19:05|10=087||0|
M|573|0|0|I|20110224-04:19:35.793|72|8=FIX.4.2|9=50|35=0|34=573|49=RBS|56=LSEHub|52=20110224-04:19:35|10=091||0|
M|574|0|0|I|20110224-04:20:05.862|72|8=FIX.4.2|9=50|35=0|34=574|49=RBS|56=LSEHub|52=20110224-04:20:05|10=081||0|
M|575|0|0|I|20110224-04:20:35.911|72|8=FIX.4.2|9=50|35=0|34=575|49=RBS|56=LSEHub|52=20110224-04:20:35|10=085||0|
M|576|0|0|I|20110224-04:21:05.959|72|8=FIX.4.2|9=50|35=0|34=576|49=RBS|56=LSEHub|52=20110224-04:21:05|10=084||0|
M|577|0|0|I|20110224-04:21:36.028|72|8=FIX.4.2|9=50|35=0|34=577|49=RBS|56=LSEHub|52=20110224-04:21:36|10=089||0|
M|578|0|0|I|20110224-04:22:06.107|72|8=FIX.4.2|9=50|35=0|34=578|49=RBS|56=LSEHub|52=20110224-04:22:06|10=088||0|
M|579|0|0|I|20110224-04:22:36.165|72|8=FIX.4.2|9=50|35=0|34=579|49=RBS|56=LSEHub|52=20110224-04:22:36|10=092||0|
M|580|0|0|I|20110224-04:23:06.234|72|8=FIX.4.2|9=50|35=0|34=580|49=RBS|56=LSEHub|52=20110224-04:23:06|10=082||0|
M|581|0|0|I|20110224-04:23:36.293|72|8=FIX.4.2|9=50|35=0|34=581|49=RBS|56=LSEHub|52=20110224-04:23:36|10=086||0|
M|582|0|0|I|20110224-04:24:06.351|72|8=FIX.4.2|9=50|35=0|34=582|49=RBS|56=LSEHub|52=20110224-04:24:06|10=085||0|
M|583|0|0|I|20110224-04:24:36.410|72|8=FIX.4.2|9=50|35=0|34=583|49=RBS|56=LSEHub|52=20110224-04:24:36|10=089||0|
M|584|0|0|I|20110224-04:25:06.459|72|8=FIX.4.2|9=50|35=0|34=584|49=RBS|56=LSEHub|52=20110224-04:25:06|10=088||0|
M|585|0|0|I|20110224-04:25:36.537|72|8=FIX.4.2|9=50|35=0|34=585|49=RBS|56=LSEHub|52=20110224-04:25:36|10=092||0|
M|586|0|0|I|20110224-04:26:06.616|72|8=FIX.4.2|9=50|35=0|34=586|49=RBS|56=LSEHub|52=20110224-04:26:06|10=091||0|
M|587|0|0|I|20110224-04:26:36.675|72|8=FIX.4.2|9=50|35=0|34=587|49=RBS|56=LSEHub|52=20110224-04:26:36|10=095||0|
M|588|0|0|I|20110224-04:27:06.754|72|8=FIX.4.2|9=50|35=0|34=588|49=RBS|56=LSEHub|52=20110224-04:27:06|10=094||0|
M|589|0|0|I|20110224-04:27:36.832|72|8=FIX.4.2|9=50|35=0|34=589|49=RBS|56=LSEHub|52=20110224-04:27:36|10=098||0|
M|590|0|0|I|20110224-04:28:06.911|72|8=FIX.4.2|9=50|35=0|34=590|49=RBS|56=LSEHub|52=20110224-04:28:06|10=088||0|
M|591|0|0|I|20110224-04:28:36.980|72|8=FIX.4.2|9=50|35=0|34=591|49=RBS|56=LSEHub|52=20110224-04:28:36|10=092||0|
M|592|0|0|I|20110224-04:29:07.068|72|8=FIX.4.2|9=50|35=0|34=592|49=RBS|56=LSEHub|52=20110224-04:29:07|10=092||0|
M|593|0|0|I|20110224-04:29:37.117|72|8=FIX.4.2|9=50|35=0|34=593|49=RBS|56=LSEHub|52=20110224-04:29:37|10=096||0|
M|594|0|0|I|20110224-04:30:07.196|72|8=FIX.4.2|9=50|35=0|34=594|49=RBS|56=LSEHub|52=20110224-04:30:07|10=086||0|
M|595|0|0|I|20110224-04:30:37.254|72|8=FIX.4.2|9=50|35=0|34=595|49=RBS|56=LSEHub|52=20110224-04:30:37|10=090||0|
M|596|0|0|I|20110224-04:31:07.323|72|8=FIX.4.2|9=50|35=0|34=596|49=RBS|56=LSEHub|52=20110224-04:31:07|10=089||0|
M|597|0|0|I|20110224-04:31:37.392|72|8=FIX.4.2|9=50|35=0|34=597|49=RBS|56=LSEHub|52=20110224-04:31:37|10=093||0|
M|598|0|0|I|20110224-04:32:07.450|72|8=FIX.4.2|9=50|35=0|34=598|49=RBS|56=LSEHub|52=20110224-04:32:07|10=092||0|
M|599|0|0|I|20110224-04:32:37.509|72|8=FIX.4.2|9=50|35=0|34=599|49=RBS|56=LSEHub|52=20110224-04:32:37|10=096||0|
M|600|0|0|I|20110224-04:33:07.578|72|8=FIX.4.2|9=50|35=0|34=600|49=RBS|56=LSEHub|52=20110224-04:33:07|10=077||0|
M|601|0|0|I|20110224-04:33:37.647|72|8=FIX.4.2|9=50|35=0|34=601|49=RBS|56=LSEHub|52=20110224-04:33:37|10=081||0|
M|602|0|0|I|20110224-04:34:07.715|72|8=FIX.4.2|9=50|35=0|34=602|49=RBS|56=LSEHub|52=20110224-04:34:07|10=080||0|
M|603|0|0|I|20110224-04:34:37.794|72|8=FIX.4.2|9=50|35=0|34=603|49=RBS|56=LSEHub|52=20110224-04:34:37|10=084||0|
M|604|0|0|I|20110224-04:35:07.873|72|8=FIX.4.2|9=50|35=0|34=604|49=RBS|56=LSEHub|52=20110224-04:35:07|10=083||0|
M|605|0|0|I|20110224-04:35:37.931|72|8=FIX.4.2|9=50|35=0|34=605|49=RBS|56=LSEHub|52=20110224-04:35:37|10=087||0|
M|606|0|0|I|20110224-04:36:08.000|72|8=FIX.4.2|9=50|35=0|34=606|49=RBS|56=LSEHub|52=20110224-04:36:08|10=087||0|
M|607|0|0|I|20110224-04:36:38.089|72|8=FIX.4.2|9=50|35=0|34=607|49=RBS|56=LSEHub|52=20110224-04:36:38|10=091||0|
M|608|0|0|I|20110224-04:37:08.147|72|8=FIX.4.2|9=50|35=0|34=608|49=RBS|56=LSEHub|52=20110224-04:37:08|10=090||0|
M|609|0|0|I|20110224-04:37:38.206|72|8=FIX.4.2|9=50|35=0|34=609|49=RBS|56=LSEHub|52=20110224-04:37:38|10=094||0|
M|610|0|0|I|20110224-04:38:08.295|72|8=FIX.4.2|9=50|35=0|34=610|49=RBS|56=LSEHub|52=20110224-04:38:08|10=084||0|
M|611|0|0|I|20110224-04:38:38.373|72|8=FIX.4.2|9=50|35=0|34=611|49=RBS|56=LSEHub|52=20110224-04:38:38|10=088||0|
M|612|0|0|I|20110224-04:39:08.452|72|8=FIX.4.2|9=50|35=0|34=612|49=RBS|56=LSEHub|52=20110224-04:39:08|10=087||0|
M|613|0|0|I|20110224-04:39:38.511|72|8=FIX.4.2|9=50|35=0|34=613|49=RBS|56=LSEHub|52=20110224-04:39:38|10=091||0|
M|614|0|0|I|20110224-04:40:08.559|72|8=FIX.4.2|9=50|35=0|34=614|49=RBS|56=LSEHub|52=20110224-04:40:08|10=081||0|
M|615|0|0|I|20110224-04:40:38.628|72|8=FIX.4.2|9=50|35=0|34=615|49=RBS|56=LSEHub|52=20110224-04:40:38|10=085||0|
M|616|0|0|I|20110224-04:41:08.677|72|8=FIX.4.2|9=50|35=0|34=616|49=RBS|56=LSEHub|52=20110224-04:41:08|10=084||0|
M|617|0|0|I|20110224-04:41:38.756|72|8=FIX.4.2|9=50|35=0|34=617|49=RBS|56=LSEHub|52=20110224-04:41:38|10=088||0|
M|618|0|0|I|20110224-04:42:08.824|72|8=FIX.4.2|9=50|35=0|34=618|49=RBS|56=LSEHub|52=20110224-04:42:08|10=087||0|
M|619|0|0|I|20110224-04:42:38.894|72|8=FIX.4.2|9=50|35=0|34=619|49=RBS|56=LSEHub|52=20110224-04:42:38|10=091||0|
M|620|0|0|I|20110224-04:43:08.952|72|8=FIX.4.2|9=50|35=0|34=620|49=RBS|56=LSEHub|52=20110224-04:43:08|10=081||0|
M|621|0|0|I|20110224-04:43:39.000|72|8=FIX.4.2|9=50|35=0|34=621|49=RBS|56=LSEHub|52=20110224-04:43:39|10=086||0|
M|622|0|0|I|20110224-04:44:09.069|72|8=FIX.4.2|9=50|35=0|34=622|49=RBS|56=LSEHub|52=20110224-04:44:09|10=085||0|
M|623|0|0|I|20110224-04:44:39.128|72|8=FIX.4.2|9=50|35=0|34=623|49=RBS|56=LSEHub|52=20110224-04:44:39|10=089||0|
M|624|0|0|I|20110224-04:45:09.196|72|8=FIX.4.2|9=50|35=0|34=624|49=RBS|56=LSEHub|52=20110224-04:45:09|10=088||0|
M|625|0|0|I|20110224-04:45:39.265|72|8=FIX.4.2|9=50|35=0|34=625|49=RBS|56=LSEHub|52=20110224-04:45:39|10=092||0|
M|626|0|0|I|20110224-04:46:09.334|72|8=FIX.4.2|9=50|35=0|34=626|49=RBS|56=LSEHub|52=20110224-04:46:09|10=091||0|
M|627|0|0|I|20110224-04:46:39.412|72|8=FIX.4.2|9=50|35=0|34=627|49=RBS|56=LSEHub|52=20110224-04:46:39|10=095||0|
M|628|0|0|I|20110224-04:47:09.481|72|8=FIX.4.2|9=50|35=0|34=628|49=RBS|56=LSEHub|52=20110224-04:47:09|10=094||0|
M|629|0|0|I|20110224-04:47:39.530|72|8=FIX.4.2|9=50|35=0|34=629|49=RBS|56=LSEHub|52=20110224-04:47:39|10=098||0|
M|630|0|0|I|20110224-04:48:09.598|72|8=FIX.4.2|9=50|35=0|34=630|49=RBS|56=LSEHub|52=20110224-04:48:09|10=088||0|
M|631|0|0|I|20110224-04:48:39.677|72|8=FIX.4.2|9=50|35=0|34=631|49=RBS|56=LSEHub|52=20110224-04:48:39|10=092||0|
M|632|0|0|I|20110224-04:49:09.756|72|8=FIX.4.2|9=50|35=0|34=632|49=RBS|56=LSEHub|52=20110224-04:49:09|10=091||0|
M|633|0|0|I|20110224-04:49:39.825|72|8=FIX.4.2|9=50|35=0|34=633|49=RBS|56=LSEHub|52=20110224-04:49:39|10=095||0|
M|634|0|0|I|20110224-04:50:09.913|72|8=FIX.4.2|9=50|35=0|34=634|49=RBS|56=LSEHub|52=20110224-04:50:09|10=085||0|
M|635|0|0|I|20110224-04:50:39.962|72|8=FIX.4.2|9=50|35=0|34=635|49=RBS|56=LSEHub|52=20110224-04:50:39|10=089||0|
M|636|0|0|I|20110224-04:51:10.021|72|8=FIX.4.2|9=50|35=0|34=636|49=RBS|56=LSEHub|52=20110224-04:51:10|10=080||0|
M|637|0|0|I|20110224-04:51:40.089|72|8=FIX.4.2|9=50|35=0|34=637|49=RBS|56=LSEHub|52=20110224-04:51:40|10=084||0|
M|638|0|0|I|20110224-04:52:10.168|72|8=FIX.4.2|9=50|35=0|34=638|49=RBS|56=LSEHub|52=20110224-04:52:10|10=083||0|
M|639|0|0|I|20110224-04:52:40.237|72|8=FIX.4.2|9=50|35=0|34=639|49=RBS|56=LSEHub|52=20110224-04:52:40|10=087||0|
M|640|0|0|I|20110224-04:53:10.295|72|8=FIX.4.2|9=50|35=0|34=640|49=RBS|56=LSEHub|52=20110224-04:53:10|10=077||0|
M|641|0|0|I|20110224-04:53:40.374|72|8=FIX.4.2|9=50|35=0|34=641|49=RBS|56=LSEHub|52=20110224-04:53:40|10=081||0|
M|642|0|0|I|20110224-04:54:10.453|72|8=FIX.4.2|9=50|35=0|34=642|49=RBS|56=LSEHub|52=20110224-04:54:10|10=080||0|
M|643|0|0|I|20110224-04:54:40.511|72|8=FIX.4.2|9=50|35=0|34=643|49=RBS|56=LSEHub|52=20110224-04:54:40|10=084||0|
M|644|0|0|I|20110224-04:55:10.580|72|8=FIX.4.2|9=50|35=0|34=644|49=RBS|56=LSEHub|52=20110224-04:55:10|10=083||0|
M|645|0|0|I|20110224-04:55:40.659|72|8=FIX.4.2|9=50|35=0|34=645|49=RBS|56=LSEHub|52=20110224-04:55:40|10=087||0|
M|646|0|0|I|20110224-04:56:10.738|72|8=FIX.4.2|9=50|35=0|34=646|49=RBS|56=LSEHub|52=20110224-04:56:10|10=086||0|
M|647|0|0|I|20110224-04:56:40.816|72|8=FIX.4.2|9=50|35=0|34=647|49=RBS|56=LSEHub|52=20110224-04:56:40|10=090||0|
M|648|0|0|I|20110224-04:57:10.895|72|8=FIX.4.2|9=50|35=0|34=648|49=RBS|56=LSEHub|52=20110224-04:57:10|10=089||0|
M|649|0|0|I|20110224-04:57:40.954|72|8=FIX.4.2|9=50|35=0|34=649|49=RBS|56=LSEHub|52=20110224-04:57:40|10=093||0|
M|650|0|0|I|20110224-04:58:11.002|72|8=FIX.4.2|9=50|35=0|34=650|49=RBS|56=LSEHub|52=20110224-04:58:11|10=084||0|
M|651|0|0|I|20110224-04:58:41.081|72|8=FIX.4.2|9=50|35=0|34=651|49=RBS|56=LSEHub|52=20110224-04:58:41|10=088||0|
M|652|0|0|I|20110224-04:59:11.160|72|8=FIX.4.2|9=50|35=0|34=652|49=RBS|56=LSEHub|52=20110224-04:59:11|10=087||0|
M|653|0|0|I|20110224-04:59:41.228|72|8=FIX.4.2|9=50|35=0|34=653|49=RBS|56=LSEHub|52=20110224-04:59:41|10=091||0|
M|654|0|0|I|20110224-05:00:11.317|72|8=FIX.4.2|9=50|35=0|34=654|49=RBS|56=LSEHub|52=20110224-05:00:11|10=076||0|
M|655|0|0|I|20110224-05:00:41.386|72|8=FIX.4.2|9=50|35=0|34=655|49=RBS|56=LSEHub|52=20110224-05:00:41|10=080||0|
M|656|0|0|I|20110224-05:01:11.474|72|8=FIX.4.2|9=50|35=0|34=656|49=RBS|56=LSEHub|52=20110224-05:01:11|10=079||0|
M|657|0|0|I|20110224-05:01:41.533|72|8=FIX.4.2|9=50|35=0|34=657|49=RBS|56=LSEHub|52=20110224-05:01:41|10=083||0|
M|658|0|0|I|20110224-05:02:11.582|72|8=FIX.4.2|9=50|35=0|34=658|49=RBS|56=LSEHub|52=20110224-05:02:11|10=082||0|
M|659|0|0|I|20110224-05:02:41.660|72|8=FIX.4.2|9=50|35=0|34=659|49=RBS|56=LSEHub|52=20110224-05:02:41|10=086||0|
M|660|0|0|I|20110224-05:03:11.739|72|8=FIX.4.2|9=50|35=0|34=660|49=RBS|56=LSEHub|52=20110224-05:03:11|10=076||0|
M|661|0|0|I|20110224-05:03:41.818|72|8=FIX.4.2|9=50|35=0|34=661|49=RBS|56=LSEHub|52=20110224-05:03:41|10=080||0|
M|662|0|0|I|20110224-05:04:12.167|72|8=FIX.4.2|9=50|35=0|34=662|49=RBS|56=LSEHub|52=20110224-05:04:12|10=080||0|
M|663|0|0|I|20110224-05:04:42.245|72|8=FIX.4.2|9=50|35=0|34=663|49=RBS|56=LSEHub|52=20110224-05:04:42|10=084||0|
M|664|0|0|I|20110224-05:05:12.314|72|8=FIX.4.2|9=50|35=0|34=664|49=RBS|56=LSEHub|52=20110224-05:05:12|10=083||0|
M|665|0|0|I|20110224-05:05:42.403|72|8=FIX.4.2|9=50|35=0|34=665|49=RBS|56=LSEHub|52=20110224-05:05:42|10=087||0|
M|666|0|0|I|20110224-05:06:12.461|72|8=FIX.4.2|9=50|35=0|34=666|49=RBS|56=LSEHub|52=20110224-05:06:12|10=086||0|
M|667|0|0|I|20110224-05:06:42.520|72|8=FIX.4.2|9=50|35=0|34=667|49=RBS|56=LSEHub|52=20110224-05:06:42|10=090||0|
M|668|0|0|I|20110224-05:07:12.569|72|8=FIX.4.2|9=50|35=0|34=668|49=RBS|56=LSEHub|52=20110224-05:07:12|10=089||0|
M|669|0|0|I|20110224-05:07:42.637|72|8=FIX.4.2|9=50|35=0|34=669|49=RBS|56=LSEHub|52=20110224-05:07:42|10=093||0|
M|670|0|0|I|20110224-05:08:12.716|72|8=FIX.4.2|9=50|35=0|34=670|49=RBS|56=LSEHub|52=20110224-05:08:12|10=083||0|
M|671|0|0|I|20110224-05:08:42.785|72|8=FIX.4.2|9=50|35=0|34=671|49=RBS|56=LSEHub|52=20110224-05:08:42|10=087||0|
M|672|0|0|I|20110224-05:09:12.863|72|8=FIX.4.2|9=50|35=0|34=672|49=RBS|56=LSEHub|52=20110224-05:09:12|10=086||0|
M|673|0|0|I|20110224-05:09:42.942|72|8=FIX.4.2|9=50|35=0|34=673|49=RBS|56=LSEHub|52=20110224-05:09:42|10=090||0|
M|674|0|0|I|20110224-05:10:13.001|72|8=FIX.4.2|9=50|35=0|34=674|49=RBS|56=LSEHub|52=20110224-05:10:13|10=081||0|
M|675|0|0|I|20110224-05:10:43.069|72|8=FIX.4.2|9=50|35=0|34=675|49=RBS|56=LSEHub|52=20110224-05:10:43|10=085||0|
M|676|0|0|I|20110224-05:11:13.148|72|8=FIX.4.2|9=50|35=0|34=676|49=RBS|56=LSEHub|52=20110224-05:11:13|10=084||0|
M|677|0|0|I|20110224-05:11:43.227|72|8=FIX.4.2|9=50|35=0|34=677|49=RBS|56=LSEHub|52=20110224-05:11:43|10=088||0|
M|678|0|0|I|20110224-05:12:13.305|72|8=FIX.4.2|9=50|35=0|34=678|49=RBS|56=LSEHub|52=20110224-05:12:13|10=087||0|
M|679|0|0|I|20110224-05:12:43.384|72|8=FIX.4.2|9=50|35=0|34=679|49=RBS|56=LSEHub|52=20110224-05:12:43|10=091||0|
M|680|0|0|I|20110224-05:13:13.423|72|8=FIX.4.2|9=50|35=0|34=680|49=RBS|56=LSEHub|52=20110224-05:13:13|10=081||0|
M|681|0|0|I|20110224-05:13:43.501|72|8=FIX.4.2|9=50|35=0|34=681|49=RBS|56=LSEHub|52=20110224-05:13:43|10=085||0|
M|682|0|0|I|20110224-05:14:13.580|72|8=FIX.4.2|9=50|35=0|34=682|49=RBS|56=LSEHub|52=20110224-05:14:13|10=084||0|
M|683|0|0|I|20110224-05:14:43.649|72|8=FIX.4.2|9=50|35=0|34=683|49=RBS|56=LSEHub|52=20110224-05:14:43|10=088||0|
M|684|0|0|I|20110224-05:15:13.717|72|8=FIX.4.2|9=50|35=0|34=684|49=RBS|56=LSEHub|52=20110224-05:15:13|10=087||0|
M|685|0|0|I|20110224-05:15:43.776|72|8=FIX.4.2|9=50|35=0|34=685|49=RBS|56=LSEHub|52=20110224-05:15:43|10=091||0|
M|686|0|0|I|20110224-05:16:13.845|72|8=FIX.4.2|9=50|35=0|34=686|49=RBS|56=LSEHub|52=20110224-05:16:13|10=090||0|
M|687|0|0|I|20110224-05:16:43.924|72|8=FIX.4.2|9=50|35=0|34=687|49=RBS|56=LSEHub|52=20110224-05:16:43|10=094||0|
M|688|0|0|I|20110224-05:17:14.002|72|8=FIX.4.2|9=50|35=0|34=688|49=RBS|56=LSEHub|52=20110224-05:17:14|10=094||0|
M|689|0|0|I|20110224-05:17:44.061|72|8=FIX.4.2|9=50|35=0|34=689|49=RBS|56=LSEHub|52=20110224-05:17:44|10=098||0|
M|690|0|0|I|20110224-05:18:14.110|72|8=FIX.4.2|9=50|35=0|34=690|49=RBS|56=LSEHub|52=20110224-05:18:14|10=088||0|
M|691|0|0|I|20110224-05:18:44.188|72|8=FIX.4.2|9=50|35=0|34=691|49=RBS|56=LSEHub|52=20110224-05:18:44|10=092||0|
M|692|0|0|I|20110224-05:19:14.267|72|8=FIX.4.2|9=50|35=0|34=692|49=RBS|56=LSEHub|52=20110224-05:19:14|10=091||0|
M|693|0|0|I|20110224-05:19:44.356|72|8=FIX.4.2|9=50|35=0|34=693|49=RBS|56=LSEHub|52=20110224-05:19:44|10=095||0|
M|694|0|0|I|20110224-05:20:14.445|72|8=FIX.4.2|9=50|35=0|34=694|49=RBS|56=LSEHub|52=20110224-05:20:14|10=085||0|
M|695|0|0|I|20110224-05:20:44.503|72|8=FIX.4.2|9=50|35=0|34=695|49=RBS|56=LSEHub|52=20110224-05:20:44|10=089||0|
M|696|0|0|I|20110224-05:21:14.572|72|8=FIX.4.2|9=50|35=0|34=696|49=RBS|56=LSEHub|52=20110224-05:21:14|10=088||0|
M|697|0|0|I|20110224-05:21:44.651|72|8=FIX.4.2|9=50|35=0|34=697|49=RBS|56=LSEHub|52=20110224-05:21:44|10=092||0|
M|698|0|0|I|20110224-05:22:14.699|72|8=FIX.4.2|9=50|35=0|34=698|49=RBS|56=LSEHub|52=20110224-05:22:14|10=091||0|
M|699|0|0|I|20110224-05:22:44.758|72|8=FIX.4.2|9=50|35=0|34=699|49=RBS|56=LSEHub|52=20110224-05:22:44|10=095||0|
M|700|0|0|I|20110224-05:23:14.817|72|8=FIX.4.2|9=50|35=0|34=700|49=RBS|56=LSEHub|52=20110224-05:23:14|10=076||0|
M|701|0|0|I|20110224-05:23:44.875|72|8=FIX.4.2|9=50|35=0|34=701|49=RBS|56=LSEHub|52=20110224-05:23:44|10=080||0|
M|702|0|0|I|20110224-05:24:14.954|72|8=FIX.4.2|9=50|35=0|34=702|49=RBS|56=LSEHub|52=20110224-05:24:14|10=079||0|
M|703|0|0|I|20110224-05:24:45.033|72|8=FIX.4.2|9=50|35=0|34=703|49=RBS|56=LSEHub|52=20110224-05:24:45|10=084||0|
M|704|0|0|I|20110224-05:25:15.112|72|8=FIX.4.2|9=50|35=0|34=704|49=RBS|56=LSEHub|52=20110224-05:25:15|10=083||0|
M|705|0|0|I|20110224-05:25:45.190|72|8=FIX.4.2|9=50|35=0|34=705|49=RBS|56=LSEHub|52=20110224-05:25:45|10=087||0|
M|706|0|0|I|20110224-05:26:15.269|72|8=FIX.4.2|9=50|35=0|34=706|49=RBS|56=LSEHub|52=20110224-05:26:15|10=086||0|
M|707|0|0|I|20110224-05:26:45.327|72|8=FIX.4.2|9=50|35=0|34=707|49=RBS|56=LSEHub|52=20110224-05:26:45|10=090||0|
M|708|0|0|I|20110224-05:27:15.396|72|8=FIX.4.2|9=50|35=0|34=708|49=RBS|56=LSEHub|52=20110224-05:27:15|10=089||0|
M|709|0|0|I|20110224-05:27:45.485|72|8=FIX.4.2|9=50|35=0|34=709|49=RBS|56=LSEHub|52=20110224-05:27:45|10=093||0|
M|710|0|0|I|20110224-05:28:15.534|72|8=FIX.4.2|9=50|35=0|34=710|49=RBS|56=LSEHub|52=20110224-05:28:15|10=083||0|
M|711|0|0|I|20110224-05:28:45.592|72|8=FIX.4.2|9=50|35=0|34=711|49=RBS|56=LSEHub|52=20110224-05:28:45|10=087||0|
M|712|0|0|I|20110224-05:29:15.651|72|8=FIX.4.2|9=50|35=0|34=712|49=RBS|56=LSEHub|52=20110224-05:29:15|10=086||0|
M|713|0|0|I|20110224-05:29:45.710|72|8=FIX.4.2|9=50|35=0|34=713|49=RBS|56=LSEHub|52=20110224-05:29:45|10=090||0|
M|714|0|0|I|20110224-05:30:15.788|72|8=FIX.4.2|9=50|35=0|34=714|49=RBS|56=LSEHub|52=20110224-05:30:15|10=080||0|
M|715|0|0|I|20110224-05:30:45.867|72|8=FIX.4.2|9=50|35=0|34=715|49=RBS|56=LSEHub|52=20110224-05:30:45|10=084||0|
M|716|0|0|I|20110224-05:31:15.946|72|8=FIX.4.2|9=50|35=0|34=716|49=RBS|56=LSEHub|52=20110224-05:31:15|10=083||0|
M|717|0|0|I|20110224-05:31:46.014|72|8=FIX.4.2|9=50|35=0|34=717|49=RBS|56=LSEHub|52=20110224-05:31:46|10=088||0|
M|718|0|0|I|20110224-05:32:16.093|72|8=FIX.4.2|9=50|35=0|34=718|49=RBS|56=LSEHub|52=20110224-05:32:16|10=087||0|
M|719|0|0|I|20110224-05:32:46.172|72|8=FIX.4.2|9=50|35=0|34=719|49=RBS|56=LSEHub|52=20110224-05:32:46|10=091||0|
M|720|0|3|I|20110224-05:32:54.243|142|8=FIX.4.2|9=119|35=3|34=720|49=RBS|56=LSEHub|52=20110224-05:32:54|371=-1|45=721|372=BD|58=message type BD is not a valid message type.|10=174||0|
M|721|0|0|I|20110224-05:33:24.390|72|8=FIX.4.2|9=50|35=0|34=721|49=RBS|56=LSEHub|52=20110224-05:33:24|10=081||0|
M|722|0|0|I|20110224-05:33:54.439|72|8=FIX.4.2|9=50|35=0|34=722|49=RBS|56=LSEHub|52=20110224-05:33:54|10=085||0|
M|723|0|0|I|20110224-05:34:24.498|72|8=FIX.4.2|9=50|35=0|34=723|49=RBS|56=LSEHub|52=20110224-05:34:24|10=084||0|
M|724|0|0|I|20110224-05:34:54.566|72|8=FIX.4.2|9=50|35=0|34=724|49=RBS|56=LSEHub|52=20110224-05:34:54|10=088||0|
M|725|0|0|I|20110224-05:35:24.635|72|8=FIX.4.2|9=50|35=0|34=725|49=RBS|56=LSEHub|52=20110224-05:35:24|10=087||0|
M|726|0|0|I|20110224-05:35:54.704|72|8=FIX.4.2|9=50|35=0|34=726|49=RBS|56=LSEHub|52=20110224-05:35:54|10=091||0|
M|727|0|0|I|20110224-05:36:24.772|72|8=FIX.4.2|9=50|35=0|34=727|49=RBS|56=LSEHub|52=20110224-05:36:24|10=090||0|
M|728|0|0|I|20110224-05:36:54.831|72|8=FIX.4.2|9=50|35=0|34=728|49=RBS|56=LSEHub|52=20110224-05:36:54|10=094||0|
M|729|0|0|I|20110224-05:37:24.880|72|8=FIX.4.2|9=50|35=0|34=729|49=RBS|56=LSEHub|52=20110224-05:37:24|10=093||0|
M|730|0|0|I|20110224-05:37:54.928|72|8=FIX.4.2|9=50|35=0|34=730|49=RBS|56=LSEHub|52=20110224-05:37:54|10=088||0|
M|731|0|0|I|20110224-05:38:25.007|72|8=FIX.4.2|9=50|35=0|34=731|49=RBS|56=LSEHub|52=20110224-05:38:25|10=088||0|
M|732|0|0|I|20110224-05:38:55.076|72|8=FIX.4.2|9=50|35=0|34=732|49=RBS|56=LSEHub|52=20110224-05:38:55|10=092||0|
M|733|0|0|I|20110224-05:39:25.154|72|8=FIX.4.2|9=50|35=0|34=733|49=RBS|56=LSEHub|52=20110224-05:39:25|10=091||0|
M|734|0|0|I|20110224-05:39:55.203|72|8=FIX.4.2|9=50|35=0|34=734|49=RBS|56=LSEHub|52=20110224-05:39:55|10=095||0|
M|735|0|0|I|20110224-05:40:25.232|72|8=FIX.4.2|9=50|35=0|34=735|49=RBS|56=LSEHub|52=20110224-05:40:25|10=085||0|
M|736|0|0|I|20110224-05:40:55.290|72|8=FIX.4.2|9=50|35=0|34=736|49=RBS|56=LSEHub|52=20110224-05:40:55|10=089||0|
M|737|0|0|I|20110224-05:41:25.349|72|8=FIX.4.2|9=50|35=0|34=737|49=RBS|56=LSEHub|52=20110224-05:41:25|10=088||0|
M|738|0|0|I|20110224-05:41:55.398|72|8=FIX.4.2|9=50|35=0|34=738|49=RBS|56=LSEHub|52=20110224-05:41:55|10=092||0|
M|739|0|0|I|20110224-05:42:25.467|72|8=FIX.4.2|9=50|35=0|34=739|49=RBS|56=LSEHub|52=20110224-05:42:25|10=091||0|
M|740|0|0|I|20110224-05:42:55.505|72|8=FIX.4.2|9=50|35=0|34=740|49=RBS|56=LSEHub|52=20110224-05:42:55|10=086||0|
M|741|0|0|I|20110224-05:43:25.574|72|8=FIX.4.2|9=50|35=0|34=741|49=RBS|56=LSEHub|52=20110224-05:43:25|10=085||0|
M|742|0|0|I|20110224-05:43:55.653|72|8=FIX.4.2|9=50|35=0|34=742|49=RBS|56=LSEHub|52=20110224-05:43:55|10=089||0|
M|743|0|0|I|20110224-05:44:25.732|72|8=FIX.4.2|9=50|35=0|34=743|49=RBS|56=LSEHub|52=20110224-05:44:25|10=088||0|
M|744|0|0|I|20110224-05:44:55.790|72|8=FIX.4.2|9=50|35=0|34=744|49=RBS|56=LSEHub|52=20110224-05:44:55|10=092||0|
M|745|0|0|I|20110224-05:45:25.869|72|8=FIX.4.2|9=50|35=0|34=745|49=RBS|56=LSEHub|52=20110224-05:45:25|10=091||0|
M|746|0|0|I|20110224-05:45:55.937|72|8=FIX.4.2|9=50|35=0|34=746|49=RBS|56=LSEHub|52=20110224-05:45:55|10=095||0|
M|747|0|0|I|20110224-05:46:26.016|72|8=FIX.4.2|9=50|35=0|34=747|49=RBS|56=LSEHub|52=20110224-05:46:26|10=095||0|
M|748|0|0|I|20110224-05:46:56.075|72|8=FIX.4.2|9=50|35=0|34=748|49=RBS|56=LSEHub|52=20110224-05:46:56|10=099||0|
M|749|0|0|I|20110224-05:47:26.133|72|8=FIX.4.2|9=50|35=0|34=749|49=RBS|56=LSEHub|52=20110224-05:47:26|10=098||0|
M|750|0|0|I|20110224-05:47:56.212|72|8=FIX.4.2|9=50|35=0|34=750|49=RBS|56=LSEHub|52=20110224-05:47:56|10=093||0|
M|751|0|0|I|20110224-05:48:26.291|72|8=FIX.4.2|9=50|35=0|34=751|49=RBS|56=LSEHub|52=20110224-05:48:26|10=092||0|
M|752|0|0|I|20110224-05:48:56.380|72|8=FIX.4.2|9=50|35=0|34=752|49=RBS|56=LSEHub|52=20110224-05:48:56|10=096||0|
M|753|0|0|I|20110224-05:49:26.468|72|8=FIX.4.2|9=50|35=0|34=753|49=RBS|56=LSEHub|52=20110224-05:49:26|10=095||0|
M|754|0|0|I|20110224-05:49:56.557|72|8=FIX.4.2|9=50|35=0|34=754|49=RBS|56=LSEHub|52=20110224-05:49:56|10=099||0|
M|755|0|0|I|20110224-05:50:26.626|72|8=FIX.4.2|9=50|35=0|34=755|49=RBS|56=LSEHub|52=20110224-05:50:26|10=089||0|
M|756|0|0|I|20110224-05:50:56.715|72|8=FIX.4.2|9=50|35=0|34=756|49=RBS|56=LSEHub|52=20110224-05:50:56|10=093||0|
M|757|0|0|I|20110224-05:51:26.793|72|8=FIX.4.2|9=50|35=0|34=757|49=RBS|56=LSEHub|52=20110224-05:51:26|10=092||0|
M|758|0|0|I|20110224-05:51:56.862|72|8=FIX.4.2|9=50|35=0|34=758|49=RBS|56=LSEHub|52=20110224-05:51:56|10=096||0|
M|759|0|0|I|20110224-05:52:26.930|72|8=FIX.4.2|9=50|35=0|34=759|49=RBS|56=LSEHub|52=20110224-05:52:26|10=095||0|
M|760|0|0|I|20110224-05:52:56.989|72|8=FIX.4.2|9=50|35=0|34=760|49=RBS|56=LSEHub|52=20110224-05:52:56|10=090||0|
M|761|0|0|I|20110224-05:53:27.028|72|8=FIX.4.2|9=50|35=0|34=761|49=RBS|56=LSEHub|52=20110224-05:53:27|10=090||0|
M|762|0|0|I|20110224-05:53:57.096|72|8=FIX.4.2|9=50|35=0|34=762|49=RBS|56=LSEHub|52=20110224-05:53:57|10=094||0|
M|763|0|0|I|20110224-05:54:27.165|72|8=FIX.4.2|9=50|35=0|34=763|49=RBS|56=LSEHub|52=20110224-05:54:27|10=093||0|
M|764|0|0|I|20110224-05:54:57.224|72|8=FIX.4.2|9=50|35=0|34=764|49=RBS|56=LSEHub|52=20110224-05:54:57|10=097||0|
M|765|0|0|I|20110224-05:55:27.292|72|8=FIX.4.2|9=50|35=0|34=765|49=RBS|56=LSEHub|52=20110224-05:55:27|10=096||0|
M|766|0|0|I|20110224-05:55:57.361|72|8=FIX.4.2|9=50|35=0|34=766|49=RBS|56=LSEHub|52=20110224-05:55:57|10=100||0|
M|767|0|0|I|20110224-05:56:27.440|72|8=FIX.4.2|9=50|35=0|34=767|49=RBS|56=LSEHub|52=20110224-05:56:27|10=099||0|
M|768|0|0|I|20110224-05:56:57.518|72|8=FIX.4.2|9=50|35=0|34=768|49=RBS|56=LSEHub|52=20110224-05:56:57|10=103||0|
M|769|0|0|I|20110224-05:57:27.597|72|8=FIX.4.2|9=50|35=0|34=769|49=RBS|56=LSEHub|52=20110224-05:57:27|10=102||0|
M|770|0|0|I|20110224-05:57:57.656|72|8=FIX.4.2|9=50|35=0|34=770|49=RBS|56=LSEHub|52=20110224-05:57:57|10=097||0|
M|771|0|0|I|20110224-05:58:27.725|72|8=FIX.4.2|9=50|35=0|34=771|49=RBS|56=LSEHub|52=20110224-05:58:27|10=096||0|
M|772|0|0|I|20110224-05:58:57.803|72|8=FIX.4.2|9=50|35=0|34=772|49=RBS|56=LSEHub|52=20110224-05:58:57|10=100||0|
M|773|0|0|I|20110224-05:59:27.872|72|8=FIX.4.2|9=50|35=0|34=773|49=RBS|56=LSEHub|52=20110224-05:59:27|10=099||0|
M|774|0|0|I|20110224-05:59:57.941|72|8=FIX.4.2|9=50|35=0|34=774|49=RBS|56=LSEHub|52=20110224-05:59:57|10=103||0|
M|775|0|3|I|20110224-06:00:25.198|142|8=FIX.4.2|9=119|35=3|34=775|49=RBS|56=LSEHub|52=20110224-06:00:25|371=-1|45=777|372=BD|58=message type BD is not a valid message type.|10=189||0|
M|776|0|0|I|20110224-06:00:55.518|72|8=FIX.4.2|9=50|35=0|34=776|49=RBS|56=LSEHub|52=20110224-06:00:55|10=090||0|
M|777|0|0|I|20110224-06:01:25.597|72|8=FIX.4.2|9=50|35=0|34=777|49=RBS|56=LSEHub|52=20110224-06:01:25|10=089||0|
M|778|0|0|I|20110224-06:01:55.686|72|8=FIX.4.2|9=50|35=0|34=778|49=RBS|56=LSEHub|52=20110224-06:01:55|10=093||0|
M|779|0|0|I|20110224-06:02:25.744|72|8=FIX.4.2|9=50|35=0|34=779|49=RBS|56=LSEHub|52=20110224-06:02:25|10=092||0|
M|780|0|0|I|20110224-06:02:55.803|72|8=FIX.4.2|9=50|35=0|34=780|49=RBS|56=LSEHub|52=20110224-06:02:55|10=087||0|
M|781|0|0|I|20110224-06:03:25.842|72|8=FIX.4.2|9=50|35=0|34=781|49=RBS|56=LSEHub|52=20110224-06:03:25|10=086||0|
M|782|0|0|I|20110224-06:03:55.910|72|8=FIX.4.2|9=50|35=0|34=782|49=RBS|56=LSEHub|52=20110224-06:03:55|10=090||0|
M|783|0|0|I|20110224-06:04:25.969|72|8=FIX.4.2|9=50|35=0|34=783|49=RBS|56=LSEHub|52=20110224-06:04:25|10=089||0|
M|784|0|0|I|20110224-06:04:56.028|72|8=FIX.4.2|9=50|35=0|34=784|49=RBS|56=LSEHub|52=20110224-06:04:56|10=094||0|
M|785|0|0|I|20110224-06:05:26.086|72|8=FIX.4.2|9=50|35=0|34=785|49=RBS|56=LSEHub|52=20110224-06:05:26|10=093||0|
M|786|0|0|I|20110224-06:05:56.155|72|8=FIX.4.2|9=50|35=0|34=786|49=RBS|56=LSEHub|52=20110224-06:05:56|10=097||0|
M|787|0|0|I|20110224-06:06:26.244|72|8=FIX.4.2|9=50|35=0|34=787|49=RBS|56=LSEHub|52=20110224-06:06:26|10=096||0|
M|788|0|0|I|20110224-06:06:56.322|72|8=FIX.4.2|9=50|35=0|34=788|49=RBS|56=LSEHub|52=20110224-06:06:56|10=100||0|
M|789|0|0|I|20110224-06:07:26.411|72|8=FIX.4.2|9=50|35=0|34=789|49=RBS|56=LSEHub|52=20110224-06:07:26|10=099||0|
M|790|0|0|I|20110224-06:07:56.490|72|8=FIX.4.2|9=50|35=0|34=790|49=RBS|56=LSEHub|52=20110224-06:07:56|10=094||0|
M|791|0|0|I|20110224-06:08:26.538|72|8=FIX.4.2|9=50|35=0|34=791|49=RBS|56=LSEHub|52=20110224-06:08:26|10=093||0|
M|792|0|0|I|20110224-06:08:56.617|72|8=FIX.4.2|9=50|35=0|34=792|49=RBS|56=LSEHub|52=20110224-06:08:56|10=097||0|
M|793|0|0|I|20110224-06:09:26.696|72|8=FIX.4.2|9=50|35=0|34=793|49=RBS|56=LSEHub|52=20110224-06:09:26|10=096||0|
M|794|0|0|I|20110224-06:09:56.775|72|8=FIX.4.2|9=50|35=0|34=794|49=RBS|56=LSEHub|52=20110224-06:09:56|10=100||0|
M|795|0|0|I|20110224-06:10:26.843|72|8=FIX.4.2|9=50|35=0|34=795|49=RBS|56=LSEHub|52=20110224-06:10:26|10=090||0|
M|796|0|0|I|20110224-06:10:56.912|72|8=FIX.4.2|9=50|35=0|34=796|49=RBS|56=LSEHub|52=20110224-06:10:56|10=094||0|
M|797|0|0|I|20110224-06:11:26.991|72|8=FIX.4.2|9=50|35=0|34=797|49=RBS|56=LSEHub|52=20110224-06:11:26|10=093||0|
M|798|0|0|I|20110224-06:11:57.039|72|8=FIX.4.2|9=50|35=0|34=798|49=RBS|56=LSEHub|52=20110224-06:11:57|10=098||0|
M|799|0|0|I|20110224-06:12:27.098|72|8=FIX.4.2|9=50|35=0|34=799|49=RBS|56=LSEHub|52=20110224-06:12:27|10=097||0|
M|800|0|0|I|20110224-06:12:57.177|72|8=FIX.4.2|9=50|35=0|34=800|49=RBS|56=LSEHub|52=20110224-06:12:57|10=083||0|
M|801|0|0|I|20110224-06:13:27.225|72|8=FIX.4.2|9=50|35=0|34=801|49=RBS|56=LSEHub|52=20110224-06:13:27|10=082||0|
M|802|0|0|I|20110224-06:13:57.284|72|8=FIX.4.2|9=50|35=0|34=802|49=RBS|56=LSEHub|52=20110224-06:13:57|10=086||0|
M|803|0|0|I|20110224-06:14:27.353|72|8=FIX.4.2|9=50|35=0|34=803|49=RBS|56=LSEHub|52=20110224-06:14:27|10=085||0|
M|804|0|0|I|20110224-06:14:57.432|72|8=FIX.4.2|9=50|35=0|34=804|49=RBS|56=LSEHub|52=20110224-06:14:57|10=089||0|
M|805|0|0|I|20110224-06:15:27.510|72|8=FIX.4.2|9=50|35=0|34=805|49=RBS|56=LSEHub|52=20110224-06:15:27|10=088||0|
M|806|0|0|I|20110224-06:15:57.599|72|8=FIX.4.2|9=50|35=0|34=806|49=RBS|56=LSEHub|52=20110224-06:15:57|10=092||0|
M|807|0|0|I|20110224-06:16:27.678|72|8=FIX.4.2|9=50|35=0|34=807|49=RBS|56=LSEHub|52=20110224-06:16:27|10=091||0|
M|808|0|0|I|20110224-06:16:57.756|72|8=FIX.4.2|9=50|35=0|34=808|49=RBS|56=LSEHub|52=20110224-06:16:57|10=095||0|
M|809|0|0|I|20110224-06:17:27.835|72|8=FIX.4.2|9=50|35=0|34=809|49=RBS|56=LSEHub|52=20110224-06:17:27|10=094||0|
M|810|0|0|I|20110224-06:17:57.904|72|8=FIX.4.2|9=50|35=0|34=810|49=RBS|56=LSEHub|52=20110224-06:17:57|10=089||0|
M|811|0|0|I|20110224-06:18:27.952|72|8=FIX.4.2|9=50|35=0|34=811|49=RBS|56=LSEHub|52=20110224-06:18:27|10=088||0|
M|812|0|0|I|20110224-06:18:58.031|72|8=FIX.4.2|9=50|35=0|34=812|49=RBS|56=LSEHub|52=20110224-06:18:58|10=093||0|
M|813|0|0|I|20110224-06:19:28.110|72|8=FIX.4.2|9=50|35=0|34=813|49=RBS|56=LSEHub|52=20110224-06:19:28|10=092||0|
M|814|0|0|I|20110224-06:19:58.178|72|8=FIX.4.2|9=50|35=0|34=814|49=RBS|56=LSEHub|52=20110224-06:19:58|10=096||0|
M|815|0|0|I|20110224-06:20:28.207|72|8=FIX.4.2|9=50|35=0|34=815|49=RBS|56=LSEHub|52=20110224-06:20:28|10=086||0|
M|816|0|0|I|20110224-06:20:58.276|72|8=FIX.4.2|9=50|35=0|34=816|49=RBS|56=LSEHub|52=20110224-06:20:58|10=090||0|
M|817|0|0|I|20110224-06:21:28.354|72|8=FIX.4.2|9=50|35=0|34=817|49=RBS|56=LSEHub|52=20110224-06:21:28|10=089||0|
M|818|0|0|I|20110224-06:21:58.413|72|8=FIX.4.2|9=50|35=0|34=818|49=RBS|56=LSEHub|52=20110224-06:21:58|10=093||0|
M|819|0|0|I|20110224-06:22:28.482|72|8=FIX.4.2|9=50|35=0|34=819|49=RBS|56=LSEHub|52=20110224-06:22:28|10=092||0|
M|820|0|0|I|20110224-06:22:58.550|72|8=FIX.4.2|9=50|35=0|34=820|49=RBS|56=LSEHub|52=20110224-06:22:58|10=087||0|
M|821|0|0|I|20110224-06:23:28.589|72|8=FIX.4.2|9=50|35=0|34=821|49=RBS|56=LSEHub|52=20110224-06:23:28|10=086||0|
M|822|0|0|I|20110224-06:23:58.658|72|8=FIX.4.2|9=50|35=0|34=822|49=RBS|56=LSEHub|52=20110224-06:23:58|10=090||0|
M|823|0|0|I|20110224-06:24:28.716|72|8=FIX.4.2|9=50|35=0|34=823|49=RBS|56=LSEHub|52=20110224-06:24:28|10=089||0|
M|824|0|0|I|20110224-06:24:58.805|72|8=FIX.4.2|9=50|35=0|34=824|49=RBS|56=LSEHub|52=20110224-06:24:58|10=093||0|
M|825|0|0|I|20110224-06:25:28.874|72|8=FIX.4.2|9=50|35=0|34=825|49=RBS|56=LSEHub|52=20110224-06:25:28|10=092||0|
M|826|0|0|I|20110224-06:25:58.953|72|8=FIX.4.2|9=50|35=0|34=826|49=RBS|56=LSEHub|52=20110224-06:25:58|10=096||0|
M|827|0|0|I|20110224-06:26:29.031|72|8=FIX.4.2|9=50|35=0|34=827|49=RBS|56=LSEHub|52=20110224-06:26:29|10=096||0|
M|828|0|0|I|20110224-06:26:59.100|72|8=FIX.4.2|9=50|35=0|34=828|49=RBS|56=LSEHub|52=20110224-06:26:59|10=100||0|
M|829|0|0|I|20110224-06:27:29.189|72|8=FIX.4.2|9=50|35=0|34=829|49=RBS|56=LSEHub|52=20110224-06:27:29|10=099||0|
M|830|0|0|I|20110224-06:27:59.237|72|8=FIX.4.2|9=50|35=0|34=830|49=RBS|56=LSEHub|52=20110224-06:27:59|10=094||0|
M|831|0|0|I|20110224-06:28:29.286|72|8=FIX.4.2|9=50|35=0|34=831|49=RBS|56=LSEHub|52=20110224-06:28:29|10=093||0|
M|832|0|0|I|20110224-06:28:59.355|72|8=FIX.4.2|9=50|35=0|34=832|49=RBS|56=LSEHub|52=20110224-06:28:59|10=097||0|
M|833|0|0|I|20110224-06:29:29.433|72|8=FIX.4.2|9=50|35=0|34=833|49=RBS|56=LSEHub|52=20110224-06:29:29|10=096||0|
M|834|0|0|I|20110224-06:29:59.512|72|8=FIX.4.2|9=50|35=0|34=834|49=RBS|56=LSEHub|52=20110224-06:29:59|10=100||0|
M|835|0|0|I|20110224-06:30:29.581|72|8=FIX.4.2|9=50|35=0|34=835|49=RBS|56=LSEHub|52=20110224-06:30:29|10=090||0|
M|836|0|0|I|20110224-06:30:59.649|72|8=FIX.4.2|9=50|35=0|34=836|49=RBS|56=LSEHub|52=20110224-06:30:59|10=094||0|
M|837|0|0|I|20110224-06:31:29.698|72|8=FIX.4.2|9=50|35=0|34=837|49=RBS|56=LSEHub|52=20110224-06:31:29|10=093||0|
M|838|0|0|I|20110224-06:31:59.762|72|8=FIX.4.2|9=50|35=0|34=838|49=RBS|56=LSEHub|52=20110224-06:31:59|10=097||0|
M|839|0|0|I|20110224-06:32:29.836|72|8=FIX.4.2|9=50|35=0|34=839|49=RBS|56=LSEHub|52=20110224-06:32:29|10=096||0|
M|840|0|0|I|20110224-06:32:59.884|72|8=FIX.4.2|9=50|35=0|34=840|49=RBS|56=LSEHub|52=20110224-06:32:59|10=091||0|
M|841|0|0|I|20110224-06:33:29.953|72|8=FIX.4.2|9=50|35=0|34=841|49=RBS|56=LSEHub|52=20110224-06:33:29|10=090||0|
M|842|0|0|I|20110224-06:34:00.012|72|8=FIX.4.2|9=50|35=0|34=842|49=RBS|56=LSEHub|52=20110224-06:34:00|10=081||0|
M|843|0|0|I|20110224-06:34:30.070|72|8=FIX.4.2|9=50|35=0|34=843|49=RBS|56=LSEHub|52=20110224-06:34:30|10=085||0|
M|844|0|0|I|20110224-06:35:00.139|72|8=FIX.4.2|9=50|35=0|34=844|49=RBS|56=LSEHub|52=20110224-06:35:00|10=084||0|
M|845|0|0|I|20110224-06:35:30.228|72|8=FIX.4.2|9=50|35=0|34=845|49=RBS|56=LSEHub|52=20110224-06:35:30|10=088||0|
M|846|0|0|I|20110224-06:36:00.306|72|8=FIX.4.2|9=50|35=0|34=846|49=RBS|56=LSEHub|52=20110224-06:36:00|10=087||0|
M|847|0|0|I|20110224-06:36:30.365|72|8=FIX.4.2|9=50|35=0|34=847|49=RBS|56=LSEHub|52=20110224-06:36:30|10=091||0|
M|848|0|0|I|20110224-06:37:00.414|72|8=FIX.4.2|9=50|35=0|34=848|49=RBS|56=LSEHub|52=20110224-06:37:00|10=090||0|
M|849|0|0|I|20110224-06:37:30.482|72|8=FIX.4.2|9=50|35=0|34=849|49=RBS|56=LSEHub|52=20110224-06:37:30|10=094||0|
M|850|0|0|I|20110224-06:38:00.551|72|8=FIX.4.2|9=50|35=0|34=850|49=RBS|56=LSEHub|52=20110224-06:38:00|10=084||0|
M|851|0|0|I|20110224-06:38:30.630|72|8=FIX.4.2|9=50|35=0|34=851|49=RBS|56=LSEHub|52=20110224-06:38:30|10=088||0|
M|852|0|0|I|20110224-06:39:00.698|72|8=FIX.4.2|9=50|35=0|34=852|49=RBS|56=LSEHub|52=20110224-06:39:00|10=087||0|
M|853|0|0|I|20110224-06:39:30.757|72|8=FIX.4.2|9=50|35=0|34=853|49=RBS|56=LSEHub|52=20110224-06:39:30|10=091||0|
M|854|0|0|I|20110224-06:40:00.836|72|8=FIX.4.2|9=50|35=0|34=854|49=RBS|56=LSEHub|52=20110224-06:40:00|10=081||0|
M|855|0|0|I|20110224-06:40:30.894|72|8=FIX.4.2|9=50|35=0|34=855|49=RBS|56=LSEHub|52=20110224-06:40:30|10=085||0|
M|856|0|0|I|20110224-06:41:00.973|72|8=FIX.4.2|9=50|35=0|34=856|49=RBS|56=LSEHub|52=20110224-06:41:00|10=084||0|
M|857|0|0|I|20110224-06:41:31.042|72|8=FIX.4.2|9=50|35=0|34=857|49=RBS|56=LSEHub|52=20110224-06:41:31|10=089||0|
M|858|0|0|I|20110224-06:42:01.121|72|8=FIX.4.2|9=50|35=0|34=858|49=RBS|56=LSEHub|52=20110224-06:42:01|10=088||0|
M|859|0|0|I|20110224-06:42:31.169|72|8=FIX.4.2|9=50|35=0|34=859|49=RBS|56=LSEHub|52=20110224-06:42:31|10=092||0|
M|860|0|0|I|20110224-06:43:01.238|72|8=FIX.4.2|9=50|35=0|34=860|49=RBS|56=LSEHub|52=20110224-06:43:01|10=082||0|
M|861|0|0|I|20110224-06:43:31.297|72|8=FIX.4.2|9=50|35=0|34=861|49=RBS|56=LSEHub|52=20110224-06:43:31|10=086||0|
M|862|0|0|I|20110224-06:44:01.375|72|8=FIX.4.2|9=50|35=0|34=862|49=RBS|56=LSEHub|52=20110224-06:44:01|10=085||0|
M|863|0|0|I|20110224-06:44:31.444|72|8=FIX.4.2|9=50|35=0|34=863|49=RBS|56=LSEHub|52=20110224-06:44:31|10=089||0|
M|864|0|0|I|20110224-06:45:01.473|72|8=FIX.4.2|9=50|35=0|34=864|49=RBS|56=LSEHub|52=20110224-06:45:01|10=088||0|
M|865|0|0|I|20110224-06:45:31.541|72|8=FIX.4.2|9=50|35=0|34=865|49=RBS|56=LSEHub|52=20110224-06:45:31|10=092||0|
M|866|0|0|I|20110224-06:46:01.630|72|8=FIX.4.2|9=50|35=0|34=866|49=RBS|56=LSEHub|52=20110224-06:46:01|10=091||0|
M|867|0|0|I|20110224-06:46:31.699|72|8=FIX.4.2|9=50|35=0|34=867|49=RBS|56=LSEHub|52=20110224-06:46:31|10=095||0|
M|868|0|0|I|20110224-06:47:01.768|72|8=FIX.4.2|9=50|35=0|34=868|49=RBS|56=LSEHub|52=20110224-06:47:01|10=094||0|
M|869|0|0|I|20110224-06:47:31.836|72|8=FIX.4.2|9=50|35=0|34=869|49=RBS|56=LSEHub|52=20110224-06:47:31|10=098||0|
M|870|0|0|I|20110224-06:48:01.915|72|8=FIX.4.2|9=50|35=0|34=870|49=RBS|56=LSEHub|52=20110224-06:48:01|10=088||0|
M|871|0|0|I|20110224-06:48:31.974|72|8=FIX.4.2|9=50|35=0|34=871|49=RBS|56=LSEHub|52=20110224-06:48:31|10=092||0|
M|872|0|0|I|20110224-06:49:02.042|72|8=FIX.4.2|9=50|35=0|34=872|49=RBS|56=LSEHub|52=20110224-06:49:02|10=092||0|
M|873|0|0|I|20110224-06:49:32.131|72|8=FIX.4.2|9=50|35=0|34=873|49=RBS|56=LSEHub|52=20110224-06:49:32|10=096||0|
