V|1.1|
M|1|0|A|I|20110224-06:45:04.884|80|8=FIX.4.0|9=58|35=A|34=1|49=ABN|56=MWAM|52=20110224-06:45:04|108=60|98=0|10=054||0|
M|2|0|1|I|20110224-06:45:04.885|79|8=FIX.4.0|9=57|35=1|34=2|49=ABN|56=MWAM|52=20110224-06:45:04|112=STBL-2|10=112||0|
M|3|0|0|I|20110224-06:46:04.935|68|8=FIX.4.0|9=46|35=0|34=3|49=ABN|56=MWAM|52=20110224-06:46:04|10=009||0|
M|4|0|0|I|20110224-06:47:05.113|68|8=FIX.4.0|9=46|35=0|34=4|49=ABN|56=MWAM|52=20110224-06:47:05|10=012||0|
M|5|0|0|I|20110224-06:48:05.290|68|8=FIX.4.0|9=46|35=0|34=5|49=ABN|56=MWAM|52=20110224-06:48:05|10=014||0|
M|6|0|0|I|20110224-06:49:05.467|68|8=FIX.4.0|9=46|35=0|34=6|49=ABN|56=MWAM|52=20110224-06:49:05|10=016||0|
M|7|0|0|I|20110224-06:50:05.635|68|8=FIX.4.0|9=46|35=0|34=7|49=ABN|56=MWAM|52=20110224-06:50:05|10=009||0|
M|8|0|0|I|20110224-06:51:05.822|68|8=FIX.4.0|9=46|35=0|34=8|49=ABN|56=MWAM|52=20110224-06:51:05|10=011||0|
M|9|0|0|I|20110224-06:52:06.000|68|8=FIX.4.0|9=46|35=0|34=9|49=ABN|56=MWAM|52=20110224-06:52:06|10=014||0|
M|10|0|0|I|20110224-06:53:06.167|69|8=FIX.4.0|9=47|35=0|34=10|49=ABN|56=MWAM|52=20110224-06:53:06|10=056||0|
M|11|0|0|I|20110224-06:54:06.314|69|8=FIX.4.0|9=47|35=0|34=11|49=ABN|56=MWAM|52=20110224-06:54:06|10=058||0|
M|12|0|0|I|20110224-06:55:06.492|69|8=FIX.4.0|9=47|35=0|34=12|49=ABN|56=MWAM|52=20110224-06:55:06|10=060||0|
M|13|0|0|I|20110224-06:56:06.659|69|8=FIX.4.0|9=47|35=0|34=13|49=ABN|56=MWAM|52=20110224-06:56:06|10=062||0|
M|14|0|0|I|20110224-06:57:06.696|69|8=FIX.4.0|9=47|35=0|34=14|49=ABN|56=MWAM|52=20110224-06:57:06|10=064||0|
M|15|0|0|I|20110224-06:58:06.874|69|8=FIX.4.0|9=47|35=0|34=15|49=ABN|56=MWAM|52=20110224-06:58:06|10=066||0|
M|16|0|0|I|20110224-06:59:07.041|69|8=FIX.4.0|9=47|35=0|34=16|49=ABN|56=MWAM|52=20110224-06:59:07|10=069||0|
M|17|0|0|I|20110224-07:00:07.198|69|8=FIX.4.0|9=47|35=0|34=17|49=ABN|56=MWAM|52=20110224-07:00:07|10=057||0|
M|18|0|0|I|20110224-07:01:07.386|69|8=FIX.4.0|9=47|35=0|34=18|49=ABN|56=MWAM|52=20110224-07:01:07|10=059||0|
M|19|0|0|I|20110224-07:02:07.563|69|8=FIX.4.0|9=47|35=0|34=19|49=ABN|56=MWAM|52=20110224-07:02:07|10=061||0|
M|20|0|0|I|20110224-07:03:07.740|69|8=FIX.4.0|9=47|35=0|34=20|49=ABN|56=MWAM|52=20110224-07:03:07|10=054||0|
M|21|0|0|I|20110224-07:04:07.918|69|8=FIX.4.0|9=47|35=0|34=21|49=ABN|56=MWAM|52=20110224-07:04:07|10=056||0|
M|22|0|0|I|20110224-07:05:08.105|69|8=FIX.4.0|9=47|35=0|34=22|49=ABN|56=MWAM|52=20110224-07:05:08|10=059||0|
M|23|0|0|I|20110224-07:06:08.263|69|8=FIX.4.0|9=47|35=0|34=23|49=ABN|56=MWAM|52=20110224-07:06:08|10=061||0|
M|24|0|0|I|20110224-07:07:08.450|69|8=FIX.4.0|9=47|35=0|34=24|49=ABN|56=MWAM|52=20110224-07:07:08|10=063||0|
M|25|0|0|I|20110224-07:08:08.628|69|8=FIX.4.0|9=47|35=0|34=25|49=ABN|56=MWAM|52=20110224-07:08:08|10=065||0|
M|26|0|0|I|20110224-07:09:08.815|69|8=FIX.4.0|9=47|35=0|34=26|49=ABN|56=MWAM|52=20110224-07:09:08|10=067||0|
M|27|0|0|I|20110224-07:10:08.992|69|8=FIX.4.0|9=47|35=0|34=27|49=ABN|56=MWAM|52=20110224-07:10:08|10=060||0|
M|28|0|0|I|20110224-07:11:09.180|69|8=FIX.4.0|9=47|35=0|34=28|49=ABN|56=MWAM|52=20110224-07:11:09|10=063||0|
M|29|0|0|I|20110224-07:12:09.357|69|8=FIX.4.0|9=47|35=0|34=29|49=ABN|56=MWAM|52=20110224-07:12:09|10=065||0|
M|30|0|0|I|20110224-07:13:09.534|69|8=FIX.4.0|9=47|35=0|34=30|49=ABN|56=MWAM|52=20110224-07:13:09|10=058||0|
M|31|0|0|I|20110224-07:14:09.712|69|8=FIX.4.0|9=47|35=0|34=31|49=ABN|56=MWAM|52=20110224-07:14:09|10=060||0|
M|32|0|0|I|20110224-07:15:09.889|69|8=FIX.4.0|9=47|35=0|34=32|49=ABN|56=MWAM|52=20110224-07:15:09|10=062||0|
M|33|0|0|I|20110224-07:16:10.056|69|8=FIX.4.0|9=47|35=0|34=33|49=ABN|56=MWAM|52=20110224-07:16:10|10=056||0|
M|34|0|0|I|20110224-07:17:10.244|69|8=FIX.4.0|9=47|35=0|34=34|49=ABN|56=MWAM|52=20110224-07:17:10|10=058||0|
M|35|0|0|I|20110224-07:18:10.421|69|8=FIX.4.0|9=47|35=0|34=35|49=ABN|56=MWAM|52=20110224-07:18:10|10=060||0|
M|36|0|0|I|20110224-07:19:10.589|69|8=FIX.4.0|9=47|35=0|34=36|49=ABN|56=MWAM|52=20110224-07:19:10|10=062||0|
M|37|0|0|I|20110224-07:20:10.766|69|8=FIX.4.0|9=47|35=0|34=37|49=ABN|56=MWAM|52=20110224-07:20:10|10=055||0|
M|38|0|0|I|20110224-07:21:10.933|69|8=FIX.4.0|9=47|35=0|34=38|49=ABN|56=MWAM|52=20110224-07:21:10|10=057||0|
M|39|0|0|I|20110224-07:22:11.091|69|8=FIX.4.0|9=47|35=0|34=39|49=ABN|56=MWAM|52=20110224-07:22:11|10=060||0|
M|40|0|0|I|20110224-07:23:11.268|69|8=FIX.4.0|9=47|35=0|34=40|49=ABN|56=MWAM|52=20110224-07:23:11|10=053||0|
M|41|0|0|I|20110224-07:24:11.455|69|8=FIX.4.0|9=47|35=0|34=41|49=ABN|56=MWAM|52=20110224-07:24:11|10=055||0|
M|42|0|0|I|20110224-07:25:11.633|69|8=FIX.4.0|9=47|35=0|34=42|49=ABN|56=MWAM|52=20110224-07:25:11|10=057||0|
M|43|0|0|I|20110224-07:26:11.810|69|8=FIX.4.0|9=47|35=0|34=43|49=ABN|56=MWAM|52=20110224-07:26:11|10=059||0|
M|44|0|0|I|20110224-07:27:11.988|69|8=FIX.4.0|9=47|35=0|34=44|49=ABN|56=MWAM|52=20110224-07:27:11|10=061||0|
M|45|0|0|I|20110224-07:28:12.165|69|8=FIX.4.0|9=47|35=0|34=45|49=ABN|56=MWAM|52=20110224-07:28:12|10=064||0|
M|46|0|0|I|20110224-07:29:12.342|69|8=FIX.4.0|9=47|35=0|34=46|49=ABN|56=MWAM|52=20110224-07:29:12|10=066||0|
M|47|0|0|I|20110224-07:30:12.510|69|8=FIX.4.0|9=47|35=0|34=47|49=ABN|56=MWAM|52=20110224-07:30:12|10=059||0|
M|48|0|0|I|20110224-07:31:12.697|69|8=FIX.4.0|9=47|35=0|34=48|49=ABN|56=MWAM|52=20110224-07:31:12|10=061||0|
M|49|0|0|I|20110224-07:32:12.884|69|8=FIX.4.0|9=47|35=0|34=49|49=ABN|56=MWAM|52=20110224-07:32:12|10=063||0|
M|50|0|0|I|20110224-07:33:13.072|69|8=FIX.4.0|9=47|35=0|34=50|49=ABN|56=MWAM|52=20110224-07:33:13|10=057||0|
M|51|0|0|I|20110224-07:34:13.249|69|8=FIX.4.0|9=47|35=0|34=51|49=ABN|56=MWAM|52=20110224-07:34:13|10=059||0|
M|52|0|0|I|20110224-07:35:13.437|69|8=FIX.4.0|9=47|35=0|34=52|49=ABN|56=MWAM|52=20110224-07:35:13|10=061||0|
M|53|0|0|I|20110224-07:36:13.614|69|8=FIX.4.0|9=47|35=0|34=53|49=ABN|56=MWAM|52=20110224-07:36:13|10=063||0|
M|54|0|0|I|20110224-07:37:13.791|69|8=FIX.4.0|9=47|35=0|34=54|49=ABN|56=MWAM|52=20110224-07:37:13|10=065||0|
M|55|0|0|I|20110224-07:38:13.979|69|8=FIX.4.0|9=47|35=0|34=55|49=ABN|56=MWAM|52=20110224-07:38:13|10=067||0|
M|56|0|0|I|20110224-07:39:14.186|69|8=FIX.4.0|9=47|35=0|34=56|49=ABN|56=MWAM|52=20110224-07:39:14|10=070||0|
M|57|0|0|I|20110224-07:40:14.364|69|8=FIX.4.0|9=47|35=0|34=57|49=ABN|56=MWAM|52=20110224-07:40:14|10=063||0|
M|58|0|0|I|20110224-07:41:14.541|69|8=FIX.4.0|9=47|35=0|34=58|49=ABN|56=MWAM|52=20110224-07:41:14|10=065||0|
M|59|0|0|I|20110224-07:42:14.718|69|8=FIX.4.0|9=47|35=0|34=59|49=ABN|56=MWAM|52=20110224-07:42:14|10=067||0|
M|60|0|0|I|20110224-07:43:14.916|69|8=FIX.4.0|9=47|35=0|34=60|49=ABN|56=MWAM|52=20110224-07:43:14|10=060||0|
M|61|0|0|I|20110224-07:44:15.093|69|8=FIX.4.0|9=47|35=0|34=61|49=ABN|56=MWAM|52=20110224-07:44:15|10=063||0|
M|62|0|0|I|20110224-07:45:15.260|69|8=FIX.4.0|9=47|35=0|34=62|49=ABN|56=MWAM|52=20110224-07:45:15|10=065||0|
M|63|0|0|I|20110224-07:46:15.428|69|8=FIX.4.0|9=47|35=0|34=63|49=ABN|56=MWAM|52=20110224-07:46:15|10=067||0|
M|64|0|0|I|20110224-07:47:15.605|69|8=FIX.4.0|9=47|35=0|34=64|49=ABN|56=MWAM|52=20110224-07:47:15|10=069||0|
M|65|0|0|I|20110224-07:48:15.782|69|8=FIX.4.0|9=47|35=0|34=65|49=ABN|56=MWAM|52=20110224-07:48:15|10=071||0|
M|66|0|0|I|20110224-07:49:15.960|69|8=FIX.4.0|9=47|35=0|34=66|49=ABN|56=MWAM|52=20110224-07:49:15|10=073||0|
M|67|0|0|I|20110224-07:50:16.137|69|8=FIX.4.0|9=47|35=0|34=67|49=ABN|56=MWAM|52=20110224-07:50:16|10=067||0|
M|68|0|0|I|20110224-07:51:16.315|69|8=FIX.4.0|9=47|35=0|34=68|49=ABN|56=MWAM|52=20110224-07:51:16|10=069||0|
M|69|0|0|I|20110224-07:52:16.502|69|8=FIX.4.0|9=47|35=0|34=69|49=ABN|56=MWAM|52=20110224-07:52:16|10=071||0|
M|70|0|0|I|20110224-07:53:16.679|69|8=FIX.4.0|9=47|35=0|34=70|49=ABN|56=MWAM|52=20110224-07:53:16|10=064||0|
M|71|0|0|I|20110224-07:54:16.857|69|8=FIX.4.0|9=47|35=0|34=71|49=ABN|56=MWAM|52=20110224-07:54:16|10=066||0|
M|72|0|0|I|20110224-07:55:17.034|69|8=FIX.4.0|9=47|35=0|34=72|49=ABN|56=MWAM|52=20110224-07:55:17|10=069||0|
M|73|0|0|I|20110224-07:56:17.192|69|8=FIX.4.0|9=47|35=0|34=73|49=ABN|56=MWAM|52=20110224-07:56:17|10=071||0|
M|74|0|0|I|20110224-07:57:17.699|69|8=FIX.4.0|9=47|35=0|34=74|49=ABN|56=MWAM|52=20110224-07:57:17|10=073||0|
M|75|0|0|I|20110224-07:58:17.866|69|8=FIX.4.0|9=47|35=0|34=75|49=ABN|56=MWAM|52=20110224-07:58:17|10=075||0|
M|76|0|0|I|20110224-07:59:18.054|69|8=FIX.4.0|9=47|35=0|34=76|49=ABN|56=MWAM|52=20110224-07:59:18|10=078||0|
M|77|0|0|I|20110224-08:00:18.231|69|8=FIX.4.0|9=47|35=0|34=77|49=ABN|56=MWAM|52=20110224-08:00:18|10=066||0|
M|78|0|0|I|20110224-08:01:18.408|69|8=FIX.4.0|9=47|35=0|34=78|49=ABN|56=MWAM|52=20110224-08:01:18|10=068||0|
M|79|0|0|I|20110224-08:02:18.586|69|8=FIX.4.0|9=47|35=0|34=79|49=ABN|56=MWAM|52=20110224-08:02:18|10=070||0|
M|80|0|0|I|20110224-08:03:18.743|69|8=FIX.4.0|9=47|35=0|34=80|49=ABN|56=MWAM|52=20110224-08:03:18|10=063||0|
M|81|0|0|I|20110224-08:04:18.910|69|8=FIX.4.0|9=47|35=0|34=81|49=ABN|56=MWAM|52=20110224-08:04:18|10=065||0|
M|82|0|0|I|20110224-08:05:19.088|69|8=FIX.4.0|9=47|35=0|34=82|49=ABN|56=MWAM|52=20110224-08:05:19|10=068||0|
M|83|0|0|I|20110224-08:06:19.255|69|8=FIX.4.0|9=47|35=0|34=83|49=ABN|56=MWAM|52=20110224-08:06:19|10=070||0|
M|84|0|0|I|20110224-08:07:19.432|69|8=FIX.4.0|9=47|35=0|34=84|49=ABN|56=MWAM|52=20110224-08:07:19|10=072||0|
M|85|0|0|I|20110224-08:08:19.610|69|8=FIX.4.0|9=47|35=0|34=85|49=ABN|56=MWAM|52=20110224-08:08:19|10=074||0|
M|86|0|0|I|20110224-08:09:19.787|69|8=FIX.4.0|9=47|35=0|34=86|49=ABN|56=MWAM|52=20110224-08:09:19|10=076||0|
M|87|0|0|I|20110224-08:10:19.955|69|8=FIX.4.0|9=47|35=0|34=87|49=ABN|56=MWAM|52=20110224-08:10:19|10=069||0|
M|88|0|0|I|20110224-08:11:20.132|69|8=FIX.4.0|9=47|35=0|34=88|49=ABN|56=MWAM|52=20110224-08:11:20|10=063||0|
M|89|0|0|I|20110224-08:12:20.319|69|8=FIX.4.0|9=47|35=0|34=89|49=ABN|56=MWAM|52=20110224-08:12:20|10=065||0|
M|90|0|0|I|20110224-08:13:20.497|69|8=FIX.4.0|9=47|35=0|34=90|49=ABN|56=MWAM|52=20110224-08:13:20|10=058||0|
M|91|0|0|I|20110224-08:14:20.664|69|8=FIX.4.0|9=47|35=0|34=91|49=ABN|56=MWAM|52=20110224-08:14:20|10=060||0|
M|92|0|0|I|20110224-08:15:20.832|69|8=FIX.4.0|9=47|35=0|34=92|49=ABN|56=MWAM|52=20110224-08:15:20|10=062||0|
M|93|0|0|I|20110224-08:16:20.999|69|8=FIX.4.0|9=47|35=0|34=93|49=ABN|56=MWAM|52=20110224-08:16:20|10=064||0|
M|94|0|0|I|20110224-08:17:21.176|69|8=FIX.4.0|9=47|35=0|34=94|49=ABN|56=MWAM|52=20110224-08:17:21|10=067||0|
M|95|0|0|I|20110224-08:18:21.354|69|8=FIX.4.0|9=47|35=0|34=95|49=ABN|56=MWAM|52=20110224-08:18:21|10=069||0|
M|96|0|0|I|20110224-08:19:21.541|69|8=FIX.4.0|9=47|35=0|34=96|49=ABN|56=MWAM|52=20110224-08:19:21|10=071||0|
M|97|0|0|I|20110224-08:20:21.718|69|8=FIX.4.0|9=47|35=0|34=97|49=ABN|56=MWAM|52=20110224-08:20:21|10=064||0|
M|98|0|0|I|20110224-08:21:21.866|69|8=FIX.4.0|9=47|35=0|34=98|49=ABN|56=MWAM|52=20110224-08:21:21|10=066||0|
M|99|0|0|I|20110224-08:22:22.043|69|8=FIX.4.0|9=47|35=0|34=99|49=ABN|56=MWAM|52=20110224-08:22:22|10=069||0|
M|100|0|0|I|20110224-08:23:22.211|70|8=FIX.4.0|9=48|35=0|34=100|49=ABN|56=MWAM|52=20110224-08:23:22|10=102||0|
M|101|0|0|I|20110224-08:24:22.378|70|8=FIX.4.0|9=48|35=0|34=101|49=ABN|56=MWAM|52=20110224-08:24:22|10=104||0|
M|102|0|0|I|20110224-08:25:22.545|70|8=FIX.4.0|9=48|35=0|34=102|49=ABN|56=MWAM|52=20110224-08:25:22|10=106||0|
M|103|0|0|I|20110224-08:26:22.723|70|8=FIX.4.0|9=48|35=0|34=103|49=ABN|56=MWAM|52=20110224-08:26:22|10=108||0|
M|104|0|0|I|20110224-08:27:22.900|70|8=FIX.4.0|9=48|35=0|34=104|49=ABN|56=MWAM|52=20110224-08:27:22|10=110||0|
M|105|0|0|I|20110224-08:28:23.078|70|8=FIX.4.0|9=48|35=0|34=105|49=ABN|56=MWAM|52=20110224-08:28:23|10=113||0|
M|106|0|0|I|20110224-08:29:23.256|70|8=FIX.4.0|9=48|35=0|34=106|49=ABN|56=MWAM|52=20110224-08:29:23|10=115||0|
M|107|0|0|I|20110224-08:30:23.432|70|8=FIX.4.0|9=48|35=0|34=107|49=ABN|56=MWAM|52=20110224-08:30:23|10=108||0|
M|108|0|0|I|20110224-08:31:23.640|70|8=FIX.4.0|9=48|35=0|34=108|49=ABN|56=MWAM|52=20110224-08:31:23|10=110||0|
M|109|0|0|I|20110224-08:32:23.817|70|8=FIX.4.0|9=48|35=0|34=109|49=ABN|56=MWAM|52=20110224-08:32:23|10=112||0|
M|110|0|8|I|20110224-08:33:20.178|261|8=FIX.4.0|9=238|35=8|34=110|49=ABN|56=MWAM|52=20110224-08:33:20|6=0.0000|14=0|15=NOK|63=0|120=NOK|37=00352554LN|17=16594859|1=CASH|55=STL NO|58=3% POV(CASH)|20=0|39=0|11=P3357627|32=0|59=0|54=1|40=1|60=20110224-08:33:20|38=3278|31=0.0000|48=7133608|22=2|10=074||2|AidaCode|MARWA|ClientConnectionName|Marshall_Wace_Cash|
M|111|0|8|I|20110224-08:33:20.235|264|8=FIX.4.0|9=241|35=8|34=111|49=ABN|56=MWAM|52=20110224-08:33:20|39=6|20=0|32=0|37=00352554LN|6=0.0000|14=0|15=NOK|63=0|120=NOK|17=16594860|55=STL NO|58=3% POV(CASH)|11=P3357627-C1|59=0|54=1|40=1|31=0.0000|60=20110224-08:33:20|38=3278|48=7133608|22=2|1=CASH|10=228||2|AidaCode|MARWA|ClientConnectionName|Marshall_Wace_Cash|
M|112|0|8|I|20110224-08:33:20.294|264|8=FIX.4.0|9=241|35=8|34=112|49=ABN|56=MWAM|52=20110224-08:33:20|37=00352554LN|6=0.0000|14=0|15=NOK|63=0|120=NOK|17=16594861|1=CASH|55=STL NO|58=3% POV(CASH)|32=0|11=P3357627-C1|39=4|20=0|59=0|54=1|40=1|60=20110224-08:33:20|38=3278|31=0.0000|48=7133608|22=2|10=228||2|AidaCode|MARWA|ClientConnectionName|Marshall_Wace_Cash|
M|113|0|8|I|20110224-08:33:20.730|261|8=FIX.4.0|9=238|35=8|34=113|49=ABN|56=MWAM|52=20110224-08:33:20|6=0.0000|14=0|15=NOK|63=0|120=NOK|37=00352555LN|17=16594863|1=CASH|55=STL NO|58=3% POV(CASH)|20=0|39=0|11=P3357629|32=0|59=0|54=1|40=1|60=20110224-08:33:20|38=9295|31=0.0000|48=7133608|22=2|10=080||2|AidaCode|MARWA|ClientConnectionName|Marshall_Wace_Cash|
M|114|0|8|I|20110224-08:33:22.890|288|8=FIX.4.0|9=265|35=8|34=114|49=ABN|56=MWAM|52=20110224-08:33:22|37=00352555LN|6=148.0000|14=134|15=NOK|63=0|120=NOK|17=083322879|1=CASH|55=STL NO|58=3% POV(CASH)|11=P3357629|39=1|20=0|59=0|54=1|40=1|60=20110224-08:33:22|31=148.0000|32=134|75=20110224|38=9295|48=7133608|22=2|30=NO|10=164||2|AidaCode|MARWA|ClientConnectionName|Marshall_Wace_Cash|
M|115|0|8|I|20110224-08:33:25.548|288|8=FIX.4.0|9=265|35=8|34=115|49=ABN|56=MWAM|52=20110224-08:33:25|37=00352555LN|6=148.0000|14=247|15=NOK|63=0|120=NOK|17=083325538|1=CASH|55=STL NO|58=3% POV(CASH)|11=P3357629|39=1|20=0|59=0|54=1|40=1|60=20110224-08:33:25|31=148.0000|32=113|75=20110224|38=9295|48=7133608|22=2|30=NO|10=168||2|AidaCode|MARWA|ClientConnectionName|Marshall_Wace_Cash|
M|116|0|8|I|20110224-08:33:27.851|288|8=FIX.4.0|9=265|35=8|34=116|49=ABN|56=MWAM|52=20110224-08:33:27|37=00352555LN|6=148.0000|14=355|15=NOK|63=0|120=NOK|17=083327841|1=CASH|55=STL NO|58=3% POV(CASH)|11=P3357629|39=1|20=0|59=0|54=1|40=1|60=20110224-08:33:27|31=148.0000|32=108|75=20110224|38=9295|48=7133608|22=2|30=NO|10=176||2|AidaCode|MARWA|ClientConnectionName|Marshall_Wace_Cash|
M|117|0|8|I|20110224-08:33:31.726|288|8=FIX.4.0|9=265|35=8|34=117|49=ABN|56=MWAM|52=20110224-08:33:31|37=00352555LN|6=148.0000|14=868|15=NOK|63=0|120=NOK|17=083331704|1=CASH|55=STL NO|58=3% POV(CASH)|11=P3357629|39=1|20=0|59=0|54=1|40=1|60=20110224-08:33:31|31=148.0000|32=513|75=20110224|38=9295|48=7133608|22=2|30=NO|10=169||2|AidaCode|MARWA|ClientConnectionName|Marshall_Wace_Cash|
M|118|0|8|I|20110224-08:33:34.192|287|8=FIX.4.0|9=264|35=8|34=118|49=ABN|56=MWAM|52=20110224-08:33:34|37=00352555LN|6=148.0000|14=953|15=NOK|63=0|120=NOK|17=083334182|1=CASH|55=STL NO|58=3% POV(CASH)|11=P3357629|39=1|20=0|59=0|54=1|40=1|60=20110224-08:33:34|31=148.0000|32=85|75=20110224|38=9295|48=7133608|22=2|30=NO|10=129||2|AidaCode|MARWA|ClientConnectionName|Marshall_Wace_Cash|
M|119|0|8|I|20110224-08:33:35.336|289|8=FIX.4.0|9=266|35=8|34=119|49=ABN|56=MWAM|52=20110224-08:33:35|37=00352555LN|6=148.0000|14=1083|15=NOK|63=0|120=NOK|17=083335326|1=CASH|55=STL NO|58=3% POV(CASH)|11=P3357629|39=1|20=0|59=0|54=1|40=1|60=20110224-08:33:35|31=148.0000|32=130|75=20110224|38=9295|48=7133608|22=2|30=NO|10=217||2|AidaCode|MARWA|ClientConnectionName|Marshall_Wace_Cash|
M|120|0|8|I|20110224-08:33:35.731|289|8=FIX.4.0|9=266|35=8|34=120|49=ABN|56=MWAM|52=20110224-08:33:35|37=00352555LN|6=148.0000|14=1197|15=NOK|63=0|120=NOK|17=083335720|1=CASH|55=STL NO|58=3% POV(CASH)|11=P3357629|39=1|20=0|59=0|54=1|40=1|60=20110224-08:33:35|31=148.0000|32=114|75=20110224|38=9295|48=7133608|22=2|30=NO|10=215||2|AidaCode|MARWA|ClientConnectionName|Marshall_Wace_Cash|
M|121|0|8|I|20110224-08:33:41.927|288|8=FIX.4.0|9=265|35=8|34=121|49=ABN|56=MWAM|52=20110224-08:33:41|37=00352555LN|6=148.0076|14=1295|15=NOK|63=0|120=NOK|17=083341917|1=CASH|55=STL NO|58=3% POV(CASH)|11=P3357629|39=1|20=0|59=0|54=1|40=1|60=20110224-08:33:41|31=148.1000|32=98|75=20110224|38=9295|48=7133608|22=2|30=SS|10=199||2|AidaCode|MARWA|ClientConnectionName|Marshall_Wace_Cash|
M|122|0|8|I|20110224-08:33:45.086|289|8=FIX.4.0|9=266|35=8|34=122|49=ABN|56=MWAM|52=20110224-08:33:45|37=00352555LN|6=148.0143|14=1397|15=NOK|63=0|120=NOK|17=083345076|1=CASH|55=STL NO|58=3% POV(CASH)|11=P3357629|39=1|20=0|59=0|54=1|40=1|60=20110224-08:33:45|31=148.1000|32=102|75=20110224|38=9295|48=7133608|22=2|30=SS|10=241||2|AidaCode|MARWA|ClientConnectionName|Marshall_Wace_Cash|
M|123|0|8|I|20110224-08:33:49.805|289|8=FIX.4.0|9=266|35=8|34=123|49=ABN|56=MWAM|52=20110224-08:33:49|37=00352555LN|6=148.0210|14=1515|15=NOK|63=0|120=NOK|17=083349795|1=CASH|55=STL NO|58=3% POV(CASH)|11=P3357629|39=1|20=0|59=0|54=1|40=1|60=20110224-08:33:49|31=148.1000|32=118|75=20110224|38=9295|48=7133608|22=2|30=NO|10=247||2|AidaCode|MARWA|ClientConnectionName|Marshall_Wace_Cash|
M|124|0|8|I|20110224-08:34:11.644|289|8=FIX.4.0|9=266|35=8|34=124|49=ABN|56=MWAM|52=20110224-08:34:11|37=00352555LN|6=148.0275|14=1651|15=NOK|63=0|120=NOK|17=083411634|1=CASH|55=STL NO|58=3% POV(CASH)|11=P3357629|39=1|20=0|59=0|54=1|40=1|60=20110224-08:34:11|31=148.1000|32=136|75=20110224|38=9295|48=7133608|22=2|30=NO|10=222||2|AidaCode|MARWA|ClientConnectionName|Marshall_Wace_Cash|
M|125|0|8|I|20110224-08:34:37.850|289|8=FIX.4.0|9=266|35=8|34=125|49=ABN|56=MWAM|52=20110224-08:34:37|37=00352555LN|6=148.0384|14=1762|15=NOK|63=0|120=NOK|17=083437839|1=CASH|55=STL NO|58=3% POV(CASH)|11=P3357629|39=1|20=0|59=0|54=1|40=1|60=20110224-08:34:37|31=148.2000|32=111|75=20110224|38=9295|48=7133608|22=2|30=NO|10=252||2|AidaCode|MARWA|ClientConnectionName|Marshall_Wace_Cash|
M|126|0|8|I|20110224-08:35:04.990|289|8=FIX.4.0|9=266|35=8|34=126|49=ABN|56=MWAM|52=20110224-08:35:04|37=00352555LN|6=148.0495|14=1892|15=NOK|63=0|120=NOK|17=083504978|1=CASH|55=STL NO|58=3% POV(CASH)|11=P3357629|39=1|20=0|59=0|54=1|40=1|60=20110224-08:35:04|31=148.2000|32=130|75=20110224|38=9295|48=7133608|22=2|30=BY|10=248||2|AidaCode|MARWA|ClientConnectionName|Marshall_Wace_Cash|
M|127|0|8|I|20110224-08:35:06.211|288|8=FIX.4.0|9=265|35=8|34=127|49=ABN|56=MWAM|52=20110224-08:35:06|37=00352555LN|6=148.0618|14=1990|15=NOK|63=0|120=NOK|17=083506200|1=CASH|55=STL NO|58=3% POV(CASH)|11=P3357629|39=1|20=0|59=0|54=1|40=1|60=20110224-08:35:06|31=148.3000|32=98|75=20110224|38=9295|48=7133608|22=2|30=TQ|10=204||2|AidaCode|MARWA|ClientConnectionName|Marshall_Wace_Cash|
M|128|0|8|I|20110224-08:35:07.610|289|8=FIX.4.0|9=266|35=8|34=128|49=ABN|56=MWAM|52=20110224-08:35:07|37=00352555LN|6=148.0857|14=2407|15=NOK|63=0|120=NOK|17=083507600|1=CASH|55=STL NO|58=3% POV(CASH)|11=P3357629|39=1|20=0|59=0|54=1|40=1|60=20110224-08:35:07|31=148.2000|32=417|75=20110224|38=9295|48=7133608|22=2|30=NO|10=246||2|AidaCode|MARWA|ClientConnectionName|Marshall_Wace_Cash|
M|129|0|8|I|20110224-08:35:08.928|289|8=FIX.4.0|9=266|35=8|34=129|49=ABN|56=MWAM|52=20110224-08:35:08|37=00352555LN|6=148.0970|14=2671|15=NOK|63=0|120=NOK|17=083508917|1=CASH|55=STL NO|58=3% POV(CASH)|11=P3357629|39=1|20=0|59=0|54=1|40=1|60=20110224-08:35:08|31=148.2000|32=264|75=20110224|38=9295|48=7133608|22=2|30=NO|10=004||2|AidaCode|MARWA|ClientConnectionName|Marshall_Wace_Cash|
M|130|0|8|I|20110224-08:35:31.045|289|8=FIX.4.0|9=266|35=8|34=130|49=ABN|56=MWAM|52=20110224-08:35:31|37=00352555LN|6=148.1126|14=2892|15=NOK|63=0|120=NOK|17=083531033|1=CASH|55=STL NO|58=3% POV(CASH)|11=P3357629|39=1|20=0|59=0|54=1|40=1|60=20110224-08:35:31|31=148.3000|32=221|75=20110224|38=9295|48=7133608|22=2|30=NO|10=222||2|AidaCode|MARWA|ClientConnectionName|Marshall_Wace_Cash|
M|131|0|8|I|20110224-08:35:45.033|269|8=FIX.4.0|9=246|35=8|34=131|49=ABN|56=MWAM|52=20110224-08:35:45|39=6|20=0|32=0|37=00352555LN|6=148.1126|14=2892|15=NOK|63=0|120=NOK|17=16594940|55=STL NO|58=3% POV(CASH)|11=P3357629-C1|59=0|54=1|40=1|31=0.0000|60=20110224-08:33:20|38=9295|48=7133608|22=2|1=CASH|10=023||2|AidaCode|MARWA|ClientConnectionName|Marshall_Wace_Cash|
M|132|0|8|I|20110224-08:35:45.268|269|8=FIX.4.0|9=246|35=8|34=132|49=ABN|56=MWAM|52=20110224-08:35:45|37=00352555LN|6=148.1126|14=2892|15=NOK|63=0|120=NOK|17=16594941|1=CASH|55=STL NO|58=3% POV(CASH)|32=0|11=P3357629-C1|39=4|20=0|59=0|54=1|40=1|60=20110224-08:33:20|38=9295|31=0.0000|48=7133608|22=2|10=023||2|AidaCode|MARWA|ClientConnectionName|Marshall_Wace_Cash|
M|133|0|8|I|20110224-08:35:45.646|261|8=FIX.4.0|9=238|35=8|34=133|49=ABN|56=MWAM|52=20110224-08:35:45|6=0.0000|14=0|15=NOK|63=0|120=NOK|37=00352556LN|17=16594943|1=CASH|55=STL NO|58=3% POV(CASH)|20=0|39=0|11=P3357642|32=0|59=0|54=1|40=1|60=20110224-08:35:45|38=6950|31=0.0000|48=7133608|22=2|10=090||2|AidaCode|MARWA|ClientConnectionName|Marshall_Wace_Cash|
M|134|0|8|I|20110224-08:36:00.138|288|8=FIX.4.0|9=265|35=8|34=134|49=ABN|56=MWAM|52=20110224-08:36:00|37=00352556LN|6=148.3000|14=267|15=NOK|63=0|120=NOK|17=083600126|1=CASH|55=STL NO|58=3% POV(CASH)|11=P3357642|39=1|20=0|59=0|54=1|40=1|60=20110224-08:36:00|31=148.3000|32=267|75=20110224|38=6950|48=7133608|22=2|30=NO|10=159||2|AidaCode|MARWA|ClientConnectionName|Marshall_Wace_Cash|
M|135|0|8|I|20110224-08:36:01.647|288|8=FIX.4.0|9=265|35=8|34=135|49=ABN|56=MWAM|52=20110224-08:36:01|37=00352556LN|6=148.3000|14=572|15=NOK|63=0|120=NOK|17=083601636|1=CASH|55=STL NO|58=3% POV(CASH)|11=P3357642|39=1|20=0|59=0|54=1|40=1|60=20110224-08:36:01|31=148.3000|32=305|75=20110224|38=6950|48=7133608|22=2|30=NO|10=161||2|AidaCode|MARWA|ClientConnectionName|Marshall_Wace_Cash|
M|136|0|8|I|20110224-08:36:33.050|289|8=FIX.4.0|9=266|35=8|34=136|49=ABN|56=MWAM|52=20110224-08:36:33|37=00352556LN|6=148.3000|14=1118|15=NOK|63=0|120=NOK|17=083633040|1=CASH|55=STL NO|58=3% POV(CASH)|11=P3357642|39=1|20=0|59=0|54=1|40=1|60=20110224-08:36:33|31=148.3000|32=546|75=20110224|38=6950|48=7133608|22=2|30=NO|10=219||2|AidaCode|MARWA|ClientConnectionName|Marshall_Wace_Cash|
M|137|0|8|I|20110224-08:36:40.932|289|8=FIX.4.0|9=266|35=8|34=137|49=ABN|56=MWAM|52=20110224-08:36:40|37=00352556LN|6=148.3106|14=1251|15=NOK|63=0|120=NOK|17=083640921|1=CASH|55=STL NO|58=3% POV(CASH)|11=P3357642|39=1|20=0|59=0|54=1|40=1|60=20110224-08:36:40|31=148.4000|32=133|75=20110224|38=6950|48=7133608|22=2|30=TQ|10=228||2|AidaCode|MARWA|ClientConnectionName|Marshall_Wace_Cash|
M|138|0|8|I|20110224-08:36:41.464|289|8=FIX.4.0|9=266|35=8|34=138|49=ABN|56=MWAM|52=20110224-08:36:41|37=00352556LN|6=148.3091|14=1468|15=NOK|63=0|120=NOK|17=083641453|1=CASH|55=STL NO|58=3% POV(CASH)|11=P3357642|39=1|20=0|59=0|54=1|40=1|60=20110224-08:36:41|31=148.3000|32=217|75=20110224|38=6950|48=7133608|22=2|30=IX|10=243||2|AidaCode|MARWA|ClientConnectionName|Marshall_Wace_Cash|
M|139|0|8|I|20110224-08:36:44.551|289|8=FIX.4.0|9=266|35=8|34=139|49=ABN|56=MWAM|52=20110224-08:36:44|37=00352556LN|6=148.3083|14=1598|15=NOK|63=0|120=NOK|17=083644541|1=CASH|55=STL NO|58=3% POV(CASH)|11=P3357642|39=1|20=0|59=0|54=1|40=1|60=20110224-08:36:44|31=148.3000|32=130|75=20110224|38=6950|48=7133608|22=2|30=IX|10=250||2|AidaCode|MARWA|ClientConnectionName|Marshall_Wace_Cash|
M|140|0|8|I|20110224-08:37:26.912|289|8=FIX.4.0|9=266|35=8|34=140|49=ABN|56=MWAM|52=20110224-08:37:26|37=00352556LN|6=148.3070|14=1911|15=NOK|63=0|120=NOK|17=083726902|1=CASH|55=STL NO|58=3% POV(CASH)|11=P3357642|39=1|20=0|59=0|54=1|40=1|60=20110224-08:37:26|31=148.3000|32=313|75=20110224|38=6950|48=7133608|22=2|30=NO|10=230||2|AidaCode|MARWA|ClientConnectionName|Marshall_Wace_Cash|
M|141|0|8|I|20110224-08:37:51.819|290|8=FIX.4.0|9=267|35=8|34=141|49=ABN|56=MWAM|52=20110224-08:37:51|37=00352556LN|6=148.2637|14=3211|15=NOK|63=0|120=NOK|17=083751789|1=CASH|55=STL NO|58=3% POV(CASH)|11=P3357642|39=1|20=0|59=0|54=1|40=1|60=20110224-08:37:51|31=148.2000|32=1300|75=20110224|38=6950|48=7133608|22=2|30=NO|10=030||2|AidaCode|MARWA|ClientConnectionName|Marshall_Wace_Cash|
M|142|0|8|I|20110224-08:37:53.852|289|8=FIX.4.0|9=266|35=8|34=142|49=ABN|56=MWAM|52=20110224-08:37:53|37=00352556LN|6=148.2664|14=3474|15=NOK|63=0|120=NOK|17=083753842|1=CASH|55=STL NO|58=3% POV(CASH)|11=P3357642|39=1|20=0|59=0|54=1|40=1|60=20110224-08:37:53|31=148.3000|32=263|75=20110224|38=6950|48=7133608|22=2|30=EB|10=231||2|AidaCode|MARWA|ClientConnectionName|Marshall_Wace_Cash|
M|143|0|8|I|20110224-08:38:42.065|289|8=FIX.4.0|9=266|35=8|34=143|49=ABN|56=MWAM|52=20110224-08:38:42|37=00352556LN|6=148.2679|14=3636|15=NOK|63=0|120=NOK|17=083842053|1=CASH|55=STL NO|58=3% POV(CASH)|11=P3357642|39=1|20=0|59=0|54=1|40=1|60=20110224-08:38:42|31=148.3000|32=162|75=20110224|38=6950|48=7133608|22=2|30=NO|10=249||2|AidaCode|MARWA|ClientConnectionName|Marshall_Wace_Cash|
M|144|0|8|I|20110224-08:38:59.512|289|8=FIX.4.0|9=266|35=8|34=144|49=ABN|56=MWAM|52=20110224-08:38:59|37=00352556LN|6=148.2693|14=3800|15=NOK|63=0|120=NOK|17=083859501|1=CASH|55=STL NO|58=3% POV(CASH)|11=P3357642|39=1|20=0|59=0|54=1|40=1|60=20110224-08:38:59|31=148.3000|32=164|75=20110224|38=6950|48=7133608|22=2|30=NO|10=007||2|AidaCode|MARWA|ClientConnectionName|Marshall_Wace_Cash|
M|145|0|8|I|20110224-08:38:59.519|289|8=FIX.4.0|9=266|35=8|34=145|49=ABN|56=MWAM|52=20110224-08:38:59|37=00352556LN|6=148.2702|14=3917|15=NOK|63=0|120=NOK|17=083859505|1=CASH|55=STL NO|58=3% POV(CASH)|11=P3357642|39=1|20=0|59=0|54=1|40=1|60=20110224-08:38:59|31=148.3000|32=117|75=20110224|38=6950|48=7133608|22=2|30=NO|10=010||2|AidaCode|MARWA|ClientConnectionName|Marshall_Wace_Cash|
M|146|0|8|I|20110224-08:39:00.589|289|8=FIX.4.0|9=266|35=8|34=146|49=ABN|56=MWAM|52=20110224-08:39:00|37=00352556LN|6=148.2715|14=4099|15=NOK|63=0|120=NOK|17=083900580|1=CASH|55=STL NO|58=3% POV(CASH)|11=P3357642|39=1|20=0|59=0|54=1|40=1|60=20110224-08:39:00|31=148.3000|32=182|75=20110224|38=6950|48=7133608|22=2|30=NO|10=239||2|AidaCode|MARWA|ClientConnectionName|Marshall_Wace_Cash|
M|147|0|8|I|20110224-08:39:03.381|289|8=FIX.4.0|9=266|35=8|34=147|49=ABN|56=MWAM|52=20110224-08:39:03|37=00352556LN|6=148.2725|14=4245|15=NOK|63=0|120=NOK|17=083903368|1=CASH|55=STL NO|58=3% POV(CASH)|11=P3357642|39=1|20=0|59=0|54=1|40=1|60=20110224-08:39:03|31=148.3000|32=146|75=20110224|38=6950|48=7133608|22=2|30=NO|10=247||2|AidaCode|MARWA|ClientConnectionName|Marshall_Wace_Cash|
M|148|0|8|I|20110224-08:39:05.020|288|8=FIX.4.0|9=265|35=8|34=148|49=ABN|56=MWAM|52=20110224-08:39:05|37=00352556LN|6=148.2731|14=4331|15=NOK|63=0|120=NOK|17=083905007|1=CASH|55=STL NO|58=3% POV(CASH)|11=P3357642|39=1|20=0|59=0|54=1|40=1|60=20110224-08:39:05|31=148.3000|32=86|75=20110224|38=6950|48=7133608|22=2|30=NO|10=191||2|AidaCode|MARWA|ClientConnectionName|Marshall_Wace_Cash|
M|149|0|8|I|20110224-08:39:12.131|288|8=FIX.4.0|9=265|35=8|34=149|49=ABN|56=MWAM|52=20110224-08:39:12|37=00352556LN|6=148.2735|14=4409|15=NOK|63=0|120=NOK|17=083912091|1=CASH|55=STL NO|58=3% POV(CASH)|11=P3357642|39=1|20=0|59=0|54=1|40=1|60=20110224-08:39:12|31=148.3000|32=78|75=20110224|38=6950|48=7133608|22=2|30=NO|10=200||2|AidaCode|MARWA|ClientConnectionName|Marshall_Wace_Cash|
M|150|0|8|I|20110224-08:39:12.137|288|8=FIX.4.0|9=265|35=8|34=150|49=ABN|56=MWAM|52=20110224-08:39:12|37=00352556LN|6=148.2740|14=4482|15=NOK|63=0|120=NOK|17=083912095|1=CASH|55=STL NO|58=3% POV(CASH)|11=P3357642|39=1|20=0|59=0|54=1|40=1|60=20110224-08:39:12|31=148.3000|32=73|75=20110224|38=6950|48=7133608|22=2|30=NO|10=188||2|AidaCode|MARWA|ClientConnectionName|Marshall_Wace_Cash|
M|151|0|8|I|20110224-08:39:17.301|289|8=FIX.4.0|9=266|35=8|34=151|49=ABN|56=MWAM|52=20110224-08:39:17|37=00352556LN|6=148.2748|14=4630|15=NOK|63=0|120=NOK|17=083917290|1=CASH|55=STL NO|58=3% POV(CASH)|11=P3357642|39=1|20=0|59=0|54=1|40=1|60=20110224-08:39:17|31=148.3000|32=148|75=20110224|38=6950|48=7133608|22=2|30=SS|10=009||2|AidaCode|MARWA|ClientConnectionName|Marshall_Wace_Cash|
M|152|0|8|I|20110224-08:39:19.761|265|8=FIX.4.0|9=242|35=8|34=152|49=ABN|56=MWAM|52=20110224-08:39:19|6=0.0000|14=0|15=SEK|63=0|120=SEK|37=00352557LN|17=16595058|1=CASH|55=ELUXB SS|58=20% POV(CASH)|20=0|39=0|11=P3357661|32=0|59=0|54=1|40=1|60=20110224-08:39:19|38=11438|31=0.0000|48=B1KKBX6|22=2|10=181||2|AidaCode|MARWA|ClientConnectionName|Marshall_Wace_Cash|
M|153|0|8|I|20110224-08:39:22.264|263|8=FIX.4.0|9=240|35=8|34=153|49=ABN|56=MWAM|52=20110224-08:39:22|6=0.0000|14=0|15=NOK|63=0|120=NOK|37=00352558LN|17=16595062|1=CASH|55=STL NO|58=3% POV(CASH)|20=0|39=0|11=P3357662|32=0|59=0|54=1|40=1|60=20110224-08:39:22|38=210413|31=0.0000|48=7133608|22=2|10=167||2|AidaCode|MARWA|ClientConnectionName|Marshall_Wace_Cash|
M|154|0|8|I|20110224-08:39:33.369|292|8=FIX.4.0|9=269|35=8|34=154|49=ABN|56=MWAM|52=20110224-08:39:33|37=00352557LN|6=153.9000|14=103|15=SEK|63=0|120=SEK|17=083933358|1=CASH|55=ELUXB SS|58=20% POV(CASH)|11=P3357661|39=1|20=0|59=0|54=1|40=1|60=20110224-08:39:33|31=153.9000|32=103|75=20110224|38=11438|48=B1KKBX6|22=2|30=SS|10=021||2|AidaCode|MARWA|ClientConnectionName|Marshall_Wace_Cash|
M|155|0|8|I|20110224-08:39:33.375|292|8=FIX.4.0|9=269|35=8|34=155|49=ABN|56=MWAM|52=20110224-08:39:33|37=00352557LN|6=153.9000|14=250|15=SEK|63=0|120=SEK|17=083933363|1=CASH|55=ELUXB SS|58=20% POV(CASH)|11=P3357661|39=1|20=0|59=0|54=1|40=1|60=20110224-08:39:33|31=153.9000|32=147|75=20110224|38=11438|48=B1KKBX6|22=2|30=SS|10=029||2|AidaCode|MARWA|ClientConnectionName|Marshall_Wace_Cash|
M|156|0|8|I|20110224-08:39:35.250|290|8=FIX.4.0|9=267|35=8|34=156|49=ABN|56=MWAM|52=20110224-08:39:35|37=00352558LN|6=148.3000|14=126|15=NOK|63=0|120=NOK|17=083935240|1=CASH|55=STL NO|58=3% POV(CASH)|11=P3357662|39=1|20=0|59=0|54=1|40=1|60=20110224-08:39:35|31=148.3000|32=126|75=20110224|38=210413|48=7133608|22=2|30=EB|10=252||2|AidaCode|MARWA|ClientConnectionName|Marshall_Wace_Cash|
M|157|0|8|I|20110224-08:39:45.355|289|8=FIX.4.0|9=266|35=8|34=157|49=ABN|56=MWAM|52=20110224-08:39:45|37=00352558LN|6=148.3425|14=219|15=NOK|63=0|120=NOK|17=083945343|1=CASH|55=STL NO|58=3% POV(CASH)|11=P3357662|39=1|20=0|59=0|54=1|40=1|60=20110224-08:39:45|31=148.4000|32=93|75=20110224|38=210413|48=7133608|22=2|30=EB|10=229||2|AidaCode|MARWA|ClientConnectionName|Marshall_Wace_Cash|
M|158|0|8|I|20110224-08:39:46.523|289|8=FIX.4.0|9=266|35=8|34=158|49=ABN|56=MWAM|52=20110224-08:39:46|37=00352556LN|6=148.2763|14=4914|15=NOK|63=0|120=NOK|17=083946513|1=CASH|55=STL NO|58=3% POV(CASH)|11=P3357642|39=1|20=0|59=0|54=1|40=1|60=20110224-08:39:46|31=148.3000|32=284|75=20110224|38=6950|48=7133608|22=2|30=NO|10=014||2|AidaCode|MARWA|ClientConnectionName|Marshall_Wace_Cash|
M|159|0|8|I|20110224-08:39:47.720|292|8=FIX.4.0|9=269|35=8|34=159|49=ABN|56=MWAM|52=20110224-08:39:47|37=00352557LN|6=153.9721|14=895|15=SEK|63=0|120=SEK|17=083947701|1=CASH|55=ELUXB SS|58=20% POV(CASH)|11=P3357661|39=1|20=0|59=0|54=1|40=1|60=20110224-08:39:47|31=154.0000|32=645|75=20110224|38=11438|48=B1KKBX6|22=2|30=SS|10=064||2|AidaCode|MARWA|ClientConnectionName|Marshall_Wace_Cash|
M|160|0|8|I|20110224-08:39:47.726|291|8=FIX.4.0|9=268|35=8|34=160|49=ABN|56=MWAM|52=20110224-08:39:47|37=00352557LN|6=153.9739|14=959|15=SEK|63=0|120=SEK|17=083947705|1=CASH|55=ELUXB SS|58=20% POV(CASH)|11=P3357661|39=1|20=0|59=0|54=1|40=1|60=20110224-08:39:47|31=154.0000|32=64|75=20110224|38=11438|48=B1KKBX6|22=2|30=SS|10=016||2|AidaCode|MARWA|ClientConnectionName|Marshall_Wace_Cash|
M|161|0|8|I|20110224-08:39:48.671|293|8=FIX.4.0|9=270|35=8|34=161|49=ABN|56=MWAM|52=20110224-08:39:48|37=00352557LN|6=153.9808|14=1300|15=SEK|63=0|120=SEK|17=083948659|1=CASH|55=ELUXB SS|58=20% POV(CASH)|11=P3357661|39=1|20=0|59=0|54=1|40=1|60=20110224-08:39:48|31=154.0000|32=341|75=20110224|38=11438|48=B1KKBX6|22=2|30=IX|10=088||2|AidaCode|MARWA|ClientConnectionName|Marshall_Wace_Cash|
M|162|0|8|I|20110224-08:39:50.926|289|8=FIX.4.0|9=266|35=8|34=162|49=ABN|56=MWAM|52=20110224-08:39:50|37=00352556LN|6=148.2782|14=5353|15=NOK|63=0|120=NOK|17=083950916|1=CASH|55=STL NO|58=3% POV(CASH)|11=P3357642|39=1|20=0|59=0|54=1|40=1|60=20110224-08:39:50|31=148.3000|32=439|75=20110224|38=6950|48=7133608|22=2|30=TQ|10=010||2|AidaCode|MARWA|ClientConnectionName|Marshall_Wace_Cash|
M|163|0|8|I|20110224-08:39:50.933|290|8=FIX.4.0|9=267|35=8|34=163|49=ABN|56=MWAM|52=20110224-08:39:50|37=00352558LN|6=148.3119|14=780|15=NOK|63=0|120=NOK|17=083950921|1=CASH|55=STL NO|58=3% POV(CASH)|11=P3357662|39=1|20=0|59=0|54=1|40=1|60=20110224-08:39:50|31=148.3000|32=561|75=20110224|38=210413|48=7133608|22=2|30=TQ|10=041||2|AidaCode|MARWA|ClientConnectionName|Marshall_Wace_Cash|
M|164|0|8|I|20110224-08:39:51.194|290|8=FIX.4.0|9=267|35=8|34=164|49=ABN|56=MWAM|52=20110224-08:39:51|37=00352558LN|6=148.3099|14=944|15=NOK|63=0|120=NOK|17=083951176|1=CASH|55=STL NO|58=3% POV(CASH)|11=P3357662|39=1|20=0|59=0|54=1|40=1|60=20110224-08:39:51|31=148.3000|32=164|75=20110224|38=210413|48=7133608|22=2|30=SS|10=056||2|AidaCode|MARWA|ClientConnectionName|Marshall_Wace_Cash|
M|165|0|8|I|20110224-08:39:52.536|288|8=FIX.4.0|9=265|35=8|34=165|49=ABN|56=MWAM|52=20110224-08:39:52|37=00352556LN|6=148.2786|14=5452|15=NOK|63=0|120=NOK|17=083952525|1=CASH|55=STL NO|58=3% POV(CASH)|11=P3357642|39=1|20=0|59=0|54=1|40=1|60=20110224-08:39:52|31=148.3000|32=99|75=20110224|38=6950|48=7133608|22=2|30=NO|10=220||2|AidaCode|MARWA|ClientConnectionName|Marshall_Wace_Cash|
M|166|0|8|I|20110224-08:39:57.678|270|8=FIX.4.0|9=247|35=8|34=166|49=ABN|56=MWAM|52=20110224-08:39:57|39=6|20=0|32=0|37=00352558LN|6=148.3099|14=944|15=NOK|63=0|120=NOK|17=16595092|55=STL NO|58=3% POV(CASH)|11=P3357662-C1|59=0|54=1|40=1|31=0.0000|60=20110224-08:39:22|38=210413|48=7133608|22=2|1=CASH|10=087||2|AidaCode|MARWA|ClientConnectionName|Marshall_Wace_Cash|
M|167|0|8|I|20110224-08:39:57.933|270|8=FIX.4.0|9=247|35=8|34=167|49=ABN|56=MWAM|52=20110224-08:39:57|37=00352558LN|6=148.3099|14=944|15=NOK|63=0|120=NOK|17=16595093|1=CASH|55=STL NO|58=3% POV(CASH)|32=0|11=P3357662-C1|39=4|20=0|59=0|54=1|40=1|60=20110224-08:39:22|38=210413|31=0.0000|48=7133608|22=2|10=087||2|AidaCode|MARWA|ClientConnectionName|Marshall_Wace_Cash|
M|168|0|8|I|20110224-08:39:58.324|264|8=FIX.4.0|9=241|35=8|34=168|49=ABN|56=MWAM|52=20110224-08:39:58|6=0.0000|14=0|15=NOK|63=0|120=NOK|37=00352559LN|17=16595095|1=CASH|55=STL NO|58=12% POV(CASH)|20=0|39=0|11=P3357668|32=0|59=0|54=1|40=1|60=20110224-08:39:58|38=209469|31=0.0000|48=7133608|22=2|10=016||2|AidaCode|MARWA|ClientConnectionName|Marshall_Wace_Cash|
M|169|0|8|I|20110224-08:40:04.264|291|8=FIX.4.0|9=268|35=8|34=169|49=ABN|56=MWAM|52=20110224-08:40:04|37=00352559LN|6=148.4000|14=100|15=NOK|63=0|120=NOK|17=084004254|1=CASH|55=STL NO|58=12% POV(CASH)|11=P3357668|39=1|20=0|59=0|54=1|40=1|60=20110224-08:40:04|31=148.4000|32=100|75=20110224|38=209469|48=7133608|22=2|30=TQ|10=060||2|AidaCode|MARWA|ClientConnectionName|Marshall_Wace_Cash|
M|170|0|8|I|20110224-08:40:04.315|290|8=FIX.4.0|9=267|35=8|34=170|49=ABN|56=MWAM|52=20110224-08:40:04|37=00352559LN|6=148.4000|14=115|15=NOK|63=0|120=NOK|17=084004258|1=CASH|55=STL NO|58=12% POV(CASH)|11=P3357668|39=1|20=0|59=0|54=1|40=1|60=20110224-08:40:04|31=148.4000|32=15|75=20110224|38=209469|48=7133608|22=2|30=TQ|10=018||2|AidaCode|MARWA|ClientConnectionName|Marshall_Wace_Cash|
M|171|0|8|I|20110224-08:40:05.089|289|8=FIX.4.0|9=266|35=8|34=171|49=ABN|56=MWAM|52=20110224-08:40:05|37=00352556LN|6=148.2815|14=5585|15=NOK|63=0|120=NOK|17=084005056|1=CASH|55=STL NO|58=3% POV(CASH)|11=P3357642|39=1|20=0|59=0|54=1|40=1|60=20110224-08:40:05|31=148.4000|32=133|75=20110224|38=6950|48=7133608|22=2|30=EB|10=203||2|AidaCode|MARWA|ClientConnectionName|Marshall_Wace_Cash|
M|172|0|8|I|20110224-08:40:06.825|293|8=FIX.4.0|9=270|35=8|34=172|49=ABN|56=MWAM|52=20110224-08:40:06|37=00352559LN|6=148.3071|14=1615|15=NOK|63=0|120=NOK|17=084006341|1=CASH|55=STL NO|58=12% POV(CASH)|11=P3357668|39=1|20=0|59=0|54=1|40=1|60=20110224-08:40:06|31=148.3000|32=1500|75=20110224|38=209469|48=7133608|22=2|30=NO|10=161||2|AidaCode|MARWA|ClientConnectionName|Marshall_Wace_Cash|
M|173|0|8|I|20110224-08:40:06.831|290|8=FIX.4.0|9=267|35=8|34=173|49=ABN|56=MWAM|52=20110224-08:40:06|37=00352556LN|6=148.2846|14=6704|15=NOK|63=0|120=NOK|17=084006346|1=CASH|55=STL NO|58=3% POV(CASH)|11=P3357642|39=1|20=0|59=0|54=1|40=1|60=20110224-08:40:06|31=148.3000|32=1119|75=20110224|38=6950|48=7133608|22=2|30=NO|10=027||2|AidaCode|MARWA|ClientConnectionName|Marshall_Wace_Cash|
M|174|0|8|I|20110224-08:40:06.837|293|8=FIX.4.0|9=270|35=8|34=174|49=ABN|56=MWAM|52=20110224-08:40:06|37=00352559LN|6=148.3025|14=4559|15=NOK|63=0|120=NOK|17=084006464|1=CASH|55=STL NO|58=12% POV(CASH)|11=P3357668|39=1|20=0|59=0|54=1|40=1|60=20110224-08:40:06|31=148.3000|32=2944|75=20110224|38=209469|48=7133608|22=2|30=NO|10=191||2|AidaCode|MARWA|ClientConnectionName|Marshall_Wace_Cash|
M|175|0|8|I|20110224-08:40:22.238|293|8=FIX.4.0|9=270|35=8|34=175|49=ABN|56=MWAM|52=20110224-08:40:22|37=00352557LN|6=153.9565|14=1858|15=SEK|63=0|120=SEK|17=084022222|1=CASH|55=ELUXB SS|58=20% POV(CASH)|11=P3357661|39=1|20=0|59=0|54=1|40=1|60=20110224-08:40:22|31=153.9000|32=558|75=20110224|38=11438|48=B1KKBX6|22=2|30=IX|10=067||2|AidaCode|MARWA|ClientConnectionName|Marshall_Wace_Cash|
M|176|0|8|I|20110224-08:40:22.820|292|8=FIX.4.0|9=269|35=8|34=176|49=ABN|56=MWAM|52=20110224-08:40:22|37=00352557LN|6=153.9501|14=1938|15=SEK|63=0|120=SEK|17=084022810|1=CASH|55=ELUXB SS|58=20% POV(CASH)|11=P3357661|39=1|20=0|59=0|54=1|40=1|60=20110224-08:40:22|31=153.8000|32=80|75=20110224|38=11438|48=B1KKBX6|22=2|30=IX|10=009||2|AidaCode|MARWA|ClientConnectionName|Marshall_Wace_Cash|
M|177|0|8|I|20110224-08:40:23.079|293|8=FIX.4.0|9=270|35=8|34=177|49=ABN|56=MWAM|52=20110224-08:40:23|37=00352557LN|6=153.9460|14=2110|15=SEK|63=0|120=SEK|17=084023069|1=CASH|55=ELUXB SS|58=20% POV(CASH)|11=P3357661|39=1|20=0|59=0|54=1|40=1|60=20110224-08:40:23|31=153.9000|32=172|75=20110224|38=11438|48=B1KKBX6|22=2|30=IX|10=049||2|AidaCode|MARWA|ClientConnectionName|Marshall_Wace_Cash|
M|178|0|8|I|20110224-08:40:23.105|293|8=FIX.4.0|9=270|35=8|34=178|49=ABN|56=MWAM|52=20110224-08:40:23|37=00352557LN|6=153.9338|14=2872|15=SEK|63=0|120=SEK|17=084023094|1=CASH|55=ELUXB SS|58=20% POV(CASH)|11=P3357661|39=1|20=0|59=0|54=1|40=1|60=20110224-08:40:23|31=153.9000|32=762|75=20110224|38=11438|48=B1KKBX6|22=2|30=BY|10=066||2|AidaCode|MARWA|ClientConnectionName|Marshall_Wace_Cash|
M|179|0|8|I|20110224-08:40:25.954|293|8=FIX.4.0|9=270|35=8|34=179|49=ABN|56=MWAM|52=20110224-08:40:25|37=00352557LN|6=153.9255|14=3061|15=SEK|63=0|120=SEK|17=084025944|1=CASH|55=ELUXB SS|58=20% POV(CASH)|11=P3357661|39=1|20=0|59=0|54=1|40=1|60=20110224-08:40:25|31=153.8000|32=189|75=20110224|38=11438|48=B1KKBX6|22=2|30=BY|10=068||2|AidaCode|MARWA|ClientConnectionName|Marshall_Wace_Cash|
M|180|0|8|I|20110224-08:40:38.008|292|8=FIX.4.0|9=269|35=8|34=180|49=ABN|56=MWAM|52=20110224-08:40:38|37=00352559LN|6=148.3052|14=4689|15=NOK|63=0|120=NOK|17=084037996|1=CASH|55=STL NO|58=12% POV(CASH)|11=P3357668|39=1|20=0|59=0|54=1|40=1|60=20110224-08:40:37|31=148.4000|32=130|75=20110224|38=209469|48=7133608|22=2|30=IX|10=165||2|AidaCode|MARWA|ClientConnectionName|Marshall_Wace_Cash|
M|181|0|8|I|20110224-08:40:45.140|293|8=FIX.4.0|9=270|35=8|34=181|49=ABN|56=MWAM|52=20110224-08:40:45|37=00352557LN|6=153.9200|14=3202|15=SEK|63=0|120=SEK|17=084045130|1=CASH|55=ELUXB SS|58=20% POV(CASH)|11=P3357661|39=1|20=0|59=0|54=1|40=1|60=20110224-08:40:45|31=153.8000|32=141|75=20110224|38=11438|48=B1KKBX6|22=2|30=SS|10=040||2|AidaCode|MARWA|ClientConnectionName|Marshall_Wace_Cash|
M|182|0|8|I|20110224-08:40:45.315|293|8=FIX.4.0|9=270|35=8|34=182|49=ABN|56=MWAM|52=20110224-08:40:45|37=00352557LN|6=153.9095|14=3510|15=SEK|63=0|120=SEK|17=084045305|1=CASH|55=ELUXB SS|58=20% POV(CASH)|11=P3357661|39=1|20=0|59=0|54=1|40=1|60=20110224-08:40:45|31=153.8000|32=308|75=20110224|38=11438|48=B1KKBX6|22=2|30=BY|10=053||2|AidaCode|MARWA|ClientConnectionName|Marshall_Wace_Cash|
M|183|0|8|I|20110224-08:40:46.102|293|8=FIX.4.0|9=270|35=8|34=183|49=ABN|56=MWAM|52=20110224-08:40:46|37=00352557LN|6=153.9058|14=3630|15=SEK|63=0|120=SEK|17=084046092|1=CASH|55=ELUXB SS|58=20% POV(CASH)|11=P3357661|39=1|20=0|59=0|54=1|40=1|60=20110224-08:40:46|31=153.8000|32=120|75=20110224|38=11438|48=B1KKBX6|22=2|30=BY|10=054||2|AidaCode|MARWA|ClientConnectionName|Marshall_Wace_Cash|
M|184|0|8|I|20110224-08:40:46.607|293|8=FIX.4.0|9=270|35=8|34=184|49=ABN|56=MWAM|52=20110224-08:40:46|37=00352557LN|6=153.9016|14=3780|15=SEK|63=0|120=SEK|17=084046595|1=CASH|55=ELUXB SS|58=20% POV(CASH)|11=P3357661|39=1|20=0|59=0|54=1|40=1|60=20110224-08:40:46|31=153.8000|32=150|75=20110224|38=11438|48=B1KKBX6|22=2|30=BY|10=066||2|AidaCode|MARWA|ClientConnectionName|Marshall_Wace_Cash|
M|185|0|8|I|20110224-08:40:46.674|292|8=FIX.4.0|9=269|35=8|34=185|49=ABN|56=MWAM|52=20110224-08:40:46|37=00352559LN|6=148.3123|14=5065|15=NOK|63=0|120=NOK|17=084046665|1=CASH|55=STL NO|58=12% POV(CASH)|11=P3357668|39=1|20=0|59=0|54=1|40=1|60=20110224-08:40:46|31=148.4000|32=376|75=20110224|38=209469|48=7133608|22=2|30=NO|10=158||2|AidaCode|MARWA|ClientConnectionName|Marshall_Wace_Cash|
M|186|0|8|I|20110224-08:40:46.915|289|8=FIX.4.0|9=266|35=8|34=186|49=ABN|56=MWAM|52=20110224-08:40:46|37=00352556LN|6=148.2887|14=6950|15=NOK|63=0|120=NOK|17=084046671|1=CASH|55=STL NO|58=3% POV(CASH)|11=P3357642|39=2|20=0|59=0|54=1|40=1|60=20110224-08:40:46|31=148.4000|32=246|75=20110224|38=6950|48=7133608|22=2|30=NO|10=005||2|AidaCode|MARWA|ClientConnectionName|Marshall_Wace_Cash|
M|187|0|8|I|20110224-08:40:46.940|292|8=FIX.4.0|9=269|35=8|34=187|49=ABN|56=MWAM|52=20110224-08:40:46|37=00352559LN|6=148.3244|14=5879|15=NOK|63=0|120=NOK|17=084046793|1=CASH|55=STL NO|58=12% POV(CASH)|11=P3357668|39=1|20=0|59=0|54=1|40=1|60=20110224-08:40:46|31=148.4000|32=814|75=20110224|38=209469|48=7133608|22=2|30=NO|10=176||2|AidaCode|MARWA|ClientConnectionName|Marshall_Wace_Cash|
M|188|0|8|I|20110224-08:40:47.504|293|8=FIX.4.0|9=270|35=8|34=188|49=ABN|56=MWAM|52=20110224-08:40:47|37=00352559LN|6=148.3378|14=7139|15=NOK|63=0|120=NOK|17=084047493|1=CASH|55=STL NO|58=12% POV(CASH)|11=P3357668|39=1|20=0|59=0|54=1|40=1|60=20110224-08:40:47|31=148.4000|32=1260|75=20110224|38=209469|48=7133608|22=2|30=NO|10=212||2|AidaCode|MARWA|ClientConnectionName|Marshall_Wace_Cash|
M|189|0|8|I|20110224-08:40:47.778|292|8=FIX.4.0|9=269|35=8|34=189|49=ABN|56=MWAM|52=20110224-08:40:47|37=00352559LN|6=148.3404|14=7451|15=NOK|63=0|120=NOK|17=084047767|1=CASH|55=STL NO|58=12% POV(CASH)|11=P3357668|39=1|20=0|59=0|54=1|40=1|60=20110224-08:40:47|31=148.4000|32=312|75=20110224|38=209469|48=7133608|22=2|30=NO|10=161||2|AidaCode|MARWA|ClientConnectionName|Marshall_Wace_Cash|
M|190|0|8|I|20110224-08:40:48.171|292|8=FIX.4.0|9=269|35=8|34=190|49=ABN|56=MWAM|52=20110224-08:40:48|37=00352559LN|6=148.3450|14=8083|15=NOK|63=0|120=NOK|17=084048160|1=CASH|55=STL NO|58=12% POV(CASH)|11=P3357668|39=1|20=0|59=0|54=1|40=1|60=20110224-08:40:48|31=148.4000|32=632|75=20110224|38=209469|48=7133608|22=2|30=NO|10=151||2|AidaCode|MARWA|ClientConnectionName|Marshall_Wace_Cash|
M|191|0|8|I|20110224-08:40:48.493|292|8=FIX.4.0|9=269|35=8|34=191|49=ABN|56=MWAM|52=20110224-08:40:48|37=00352559LN|6=148.3479|14=8528|15=NOK|63=0|120=NOK|17=084048483|1=CASH|55=STL NO|58=12% POV(CASH)|11=P3357668|39=1|20=0|59=0|54=1|40=1|60=20110224-08:40:48|31=148.4000|32=445|75=20110224|38=209469|48=7133608|22=2|30=NO|10=177||2|AidaCode|MARWA|ClientConnectionName|Marshall_Wace_Cash|
M|192|0|8|I|20110224-08:40:52.457|292|8=FIX.4.0|9=269|35=8|34=192|49=ABN|56=MWAM|52=20110224-08:40:52|37=00352559LN|6=148.3520|14=8765|15=NOK|63=0|120=NOK|17=084052432|1=CASH|55=STL NO|58=12% POV(CASH)|11=P3357668|39=1|20=0|59=0|54=1|40=1|60=20110224-08:40:52|31=148.5000|32=237|75=20110224|38=209469|48=7133608|22=2|30=EB|10=125||2|AidaCode|MARWA|ClientConnectionName|Marshall_Wace_Cash|
M|193|0|8|I|20110224-08:41:21.851|292|8=FIX.4.0|9=269|35=8|34=193|49=ABN|56=MWAM|52=20110224-08:41:21|37=00352559LN|6=148.3579|14=9128|15=NOK|63=0|120=NOK|17=084121839|1=CASH|55=STL NO|58=12% POV(CASH)|11=P3357668|39=1|20=0|59=0|54=1|40=1|60=20110224-08:41:21|31=148.5000|32=363|75=20110224|38=209469|48=7133608|22=2|30=SS|10=167||2|AidaCode|MARWA|ClientConnectionName|Marshall_Wace_Cash|
M|194|0|8|I|20110224-08:41:23.834|292|8=FIX.4.0|9=269|35=8|34=194|49=ABN|56=MWAM|52=20110224-08:41:23|37=00352559LN|6=148.3645|14=9570|15=NOK|63=0|120=NOK|17=084123823|1=CASH|55=STL NO|58=12% POV(CASH)|11=P3357668|39=1|20=0|59=0|54=1|40=1|60=20110224-08:41:23|31=148.5000|32=442|75=20110224|38=209469|48=7133608|22=2|30=NO|10=151||2|AidaCode|MARWA|ClientConnectionName|Marshall_Wace_Cash|
M|195|0|8|I|20110224-08:41:26.263|293|8=FIX.4.0|9=270|35=8|34=195|49=ABN|56=MWAM|52=20110224-08:41:26|37=00352557LN|6=153.8953|14=4030|15=SEK|63=0|120=SEK|17=084126243|1=CASH|55=ELUXB SS|58=20% POV(CASH)|11=P3357661|39=1|20=0|59=0|54=1|40=1|60=20110224-08:41:26|31=153.8000|32=250|75=20110224|38=11438|48=B1KKBX6|22=2|30=BY|10=054||2|AidaCode|MARWA|ClientConnectionName|Marshall_Wace_Cash|
M|196|0|8|I|20110224-08:41:28.206|293|8=FIX.4.0|9=270|35=8|34=196|49=ABN|56=MWAM|52=20110224-08:41:28|37=00352559LN|6=148.3750|14=10374|15=NOK|63=0|120=NOK|17=084128193|1=CASH|55=STL NO|58=12% POV(CASH)|11=P3357668|39=1|20=0|59=0|54=1|40=1|60=20110224-08:41:28|31=148.5000|32=804|75=20110224|38=209469|48=7133608|22=2|30=NO|10=201||2|AidaCode|MARWA|ClientConnectionName|Marshall_Wace_Cash|
M|197|0|8|I|20110224-08:41:28.212|293|8=FIX.4.0|9=270|35=8|34=197|49=ABN|56=MWAM|52=20110224-08:41:28|37=00352559LN|6=148.3801|14=10819|15=NOK|63=0|120=NOK|17=084128199|1=CASH|55=STL NO|58=12% POV(CASH)|11=P3357668|39=1|20=0|59=0|54=1|40=1|60=20110224-08:41:28|31=148.5000|32=445|75=20110224|38=209469|48=7133608|22=2|30=NO|10=210||2|AidaCode|MARWA|ClientConnectionName|Marshall_Wace_Cash|
M|198|0|8|I|20110224-08:41:28.331|293|8=FIX.4.0|9=270|35=8|34=198|49=ABN|56=MWAM|52=20110224-08:41:28|37=00352559LN|6=148.3854|14=11322|15=NOK|63=0|120=NOK|17=084128321|1=CASH|55=STL NO|58=12% POV(CASH)|11=P3357668|39=1|20=0|59=0|54=1|40=1|60=20110224-08:41:28|31=148.5000|32=503|75=20110224|38=209469|48=7133608|22=2|30=NO|10=191||2|AidaCode|MARWA|ClientConnectionName|Marshall_Wace_Cash|
M|199|0|8|I|20110224-08:41:51.288|293|8=FIX.4.0|9=270|35=8|34=199|49=ABN|56=MWAM|52=20110224-08:41:51|37=00352559LN|6=148.3922|14=12029|15=NOK|63=0|120=NOK|17=084151276|1=CASH|55=STL NO|58=12% POV(CASH)|11=P3357668|39=1|20=0|59=0|54=1|40=1|60=20110224-08:41:51|31=148.5000|32=707|75=20110224|38=209469|48=7133608|22=2|30=IX|10=200||2|AidaCode|MARWA|ClientConnectionName|Marshall_Wace_Cash|
M|200|0|8|I|20110224-08:41:51.312|293|8=FIX.4.0|9=270|35=8|34=200|49=ABN|56=MWAM|52=20110224-08:41:51|37=00352559LN|6=148.3984|14=12769|15=NOK|63=0|120=NOK|17=084151302|1=CASH|55=STL NO|58=12% POV(CASH)|11=P3357668|39=1|20=0|59=0|54=1|40=1|60=20110224-08:41:51|31=148.5000|32=740|75=20110224|38=209469|48=7133608|22=2|30=BY|10=183||2|AidaCode|MARWA|ClientConnectionName|Marshall_Wace_Cash|
M|201|0|8|I|20110224-08:41:54.135|293|8=FIX.4.0|9=270|35=8|34=201|49=ABN|56=MWAM|52=20110224-08:41:54|37=00352559LN|6=148.4006|14=12910|15=NOK|63=0|120=NOK|17=084153883|1=CASH|55=STL NO|58=12% POV(CASH)|11=P3357668|39=1|20=0|59=0|54=1|40=1|60=20110224-08:41:53|31=148.6000|32=141|75=20110224|38=209469|48=7133608|22=2|30=TQ|10=185||2|AidaCode|MARWA|ClientConnectionName|Marshall_Wace_Cash|
M|202|0|8|I|20110224-08:41:54.444|293|8=FIX.4.0|9=270|35=8|34=202|49=ABN|56=MWAM|52=20110224-08:41:54|37=00352559LN|6=148.4061|14=13275|15=NOK|63=0|120=NOK|17=084154434|1=CASH|55=STL NO|58=12% POV(CASH)|11=P3357668|39=1|20=0|59=0|54=1|40=1|60=20110224-08:41:54|31=148.6000|32=365|75=20110224|38=209469|48=7133608|22=2|30=EB|10=164||2|AidaCode|MARWA|ClientConnectionName|Marshall_Wace_Cash|
M|203|0|8|I|20110224-08:42:19.803|293|8=FIX.4.0|9=270|35=8|34=203|49=ABN|56=MWAM|52=20110224-08:42:19|37=00352557LN|6=153.8879|14=4190|15=SEK|63=0|120=SEK|17=084219792|1=CASH|55=ELUXB SS|58=20% POV(CASH)|11=P3357661|39=1|20=0|59=0|54=1|40=1|60=20110224-08:42:19|31=153.7000|32=160|75=20110224|38=11438|48=B1KKBX6|22=2|30=BY|10=075||2|AidaCode|MARWA|ClientConnectionName|Marshall_Wace_Cash|
M|204|0|8|I|20110224-08:42:21.759|293|8=FIX.4.0|9=270|35=8|34=204|49=ABN|56=MWAM|52=20110224-08:42:21|37=00352557LN|6=153.8773|14=4766|15=SEK|63=0|120=SEK|17=084221746|1=CASH|55=ELUXB SS|58=20% POV(CASH)|11=P3357661|39=1|20=0|59=0|54=1|40=1|60=20110224-08:42:21|31=153.8000|32=576|75=20110224|38=11438|48=B1KKBX6|22=2|30=SS|10=079||2|AidaCode|MARWA|ClientConnectionName|Marshall_Wace_Cash|
M|205|0|8|I|20110224-08:42:21.796|293|8=FIX.4.0|9=270|35=8|34=205|49=ABN|56=MWAM|52=20110224-08:42:21|37=00352557LN|6=153.8755|14=4875|15=SEK|63=0|120=SEK|17=084221786|1=CASH|55=ELUXB SS|58=20% POV(CASH)|11=P3357661|39=1|20=0|59=0|54=1|40=1|60=20110224-08:42:21|31=153.8000|32=109|75=20110224|38=11438|48=B1KKBX6|22=2|30=SS|10=077||2|AidaCode|MARWA|ClientConnectionName|Marshall_Wace_Cash|
M|206|0|8|I|20110224-08:42:37.580|293|8=FIX.4.0|9=270|35=8|34=206|49=ABN|56=MWAM|52=20110224-08:42:37|37=00352559LN|6=148.4088|14=13397|15=NOK|63=0|120=NOK|17=084237568|1=CASH|55=STL NO|58=12% POV(CASH)|11=P3357668|39=1|20=0|59=0|54=1|40=1|60=20110224-08:42:37|31=148.7000|32=122|75=20110224|38=209469|48=7133608|22=2|30=TQ|10=218||2|AidaCode|MARWA|ClientConnectionName|Marshall_Wace_Cash|
M|207|0|8|I|20110224-08:42:38.160|294|8=FIX.4.0|9=271|35=8|34=207|49=ABN|56=MWAM|52=20110224-08:42:38|37=00352559LN|6=148.4378|14=14882|15=NOK|63=0|120=NOK|17=084238149|1=CASH|55=STL NO|58=12% POV(CASH)|11=P3357668|39=1|20=0|59=0|54=1|40=1|60=20110224-08:42:38|31=148.7000|32=1485|75=20110224|38=209469|48=7133608|22=2|30=EB|10=251||2|AidaCode|MARWA|ClientConnectionName|Marshall_Wace_Cash|
M|208|0|8|I|20110224-08:42:38.185|294|8=FIX.4.0|9=271|35=8|34=208|49=ABN|56=MWAM|52=20110224-08:42:38|37=00352559LN|6=148.4689|14=16882|15=NOK|63=0|120=NOK|17=084238175|1=CASH|55=STL NO|58=12% POV(CASH)|11=P3357668|39=1|20=0|59=0|54=1|40=1|60=20110224-08:42:38|31=148.7000|32=2000|75=20110224|38=209469|48=7133608|22=2|30=BY|10=006||2|AidaCode|MARWA|ClientConnectionName|Marshall_Wace_Cash|
M|209|0|8|I|20110224-08:42:53.047|293|8=FIX.4.0|9=270|35=8|34=209|49=ABN|56=MWAM|52=20110224-08:42:53|37=00352557LN|6=153.8716|14=5140|15=SEK|63=0|120=SEK|17=084253035|1=CASH|55=ELUXB SS|58=20% POV(CASH)|11=P3357661|39=1|20=0|59=0|54=1|40=1|60=20110224-08:42:53|31=153.8000|32=265|75=20110224|38=11438|48=B1KKBX6|22=2|30=BY|10=058||2|AidaCode|MARWA|ClientConnectionName|Marshall_Wace_Cash|
M|210|0|8|I|20110224-08:42:53.074|293|8=FIX.4.0|9=270|35=8|34=210|49=ABN|56=MWAM|52=20110224-08:42:53|37=00352557LN|6=153.8642|14=5736|15=SEK|63=0|120=SEK|17=084253063|1=CASH|55=ELUXB SS|58=20% POV(CASH)|11=P3357661|39=1|20=0|59=0|54=1|40=1|60=20110224-08:42:53|31=153.8000|32=596|75=20110224|38=11438|48=B1KKBX6|22=2|30=SS|10=078||2|AidaCode|MARWA|ClientConnectionName|Marshall_Wace_Cash|
M|211|0|8|I|20110224-08:42:53.288|292|8=FIX.4.0|9=269|35=8|34=211|49=ABN|56=MWAM|52=20110224-08:42:53|37=00352557LN|6=153.8634|14=5807|15=SEK|63=0|120=SEK|17=084253278|1=CASH|55=ELUXB SS|58=20% POV(CASH)|11=P3357661|39=1|20=0|59=0|54=1|40=1|60=20110224-08:42:53|31=153.8000|32=71|75=20110224|38=11438|48=B1KKBX6|22=2|30=SS|10=035||2|AidaCode|MARWA|ClientConnectionName|Marshall_Wace_Cash|
M|212|0|8|I|20110224-08:42:53.592|294|8=FIX.4.0|9=271|35=8|34=212|49=ABN|56=MWAM|52=20110224-08:42:53|37=00352559LN|6=148.4821|14=17905|15=NOK|63=0|120=NOK|17=084253579|1=CASH|55=STL NO|58=12% POV(CASH)|11=P3357668|39=1|20=0|59=0|54=1|40=1|60=20110224-08:42:53|31=148.7000|32=1023|75=20110224|38=209469|48=7133608|22=2|30=NO|10=247||2|AidaCode|MARWA|ClientConnectionName|Marshall_Wace_Cash|
M|213|0|8|I|20110224-08:42:53.747|292|8=FIX.4.0|9=269|35=8|34=213|49=ABN|56=MWAM|52=20110224-08:42:53|37=00352557LN|6=153.8627|14=5870|15=SEK|63=0|120=SEK|17=084253737|1=CASH|55=ELUXB SS|58=20% POV(CASH)|11=P3357661|39=1|20=0|59=0|54=1|40=1|60=20110224-08:42:53|31=153.8000|32=63|75=20110224|38=11438|48=B1KKBX6|22=2|30=SS|10=040||2|AidaCode|MARWA|ClientConnectionName|Marshall_Wace_Cash|
M|214|0|8|I|20110224-08:42:53.755|293|8=FIX.4.0|9=270|35=8|34=214|49=ABN|56=MWAM|52=20110224-08:42:53|37=00352557LN|6=153.8599|14=6146|15=SEK|63=0|120=SEK|17=084253741|1=CASH|55=ELUXB SS|58=20% POV(CASH)|11=P3357661|39=1|20=0|59=0|54=1|40=1|60=20110224-08:42:53|31=153.8000|32=276|75=20110224|38=11438|48=B1KKBX6|22=2|30=SS|10=087||2|AidaCode|MARWA|ClientConnectionName|Marshall_Wace_Cash|
M|215|0|8|I|20110224-08:43:03.985|294|8=FIX.4.0|9=271|35=8|34=215|49=ABN|56=MWAM|52=20110224-08:43:03|37=00352559LN|6=148.5156|14=20015|15=NOK|63=0|120=NOK|17=084303974|1=CASH|55=STL NO|58=12% POV(CASH)|11=P3357668|39=1|20=0|59=0|54=1|40=1|60=20110224-08:43:03|31=148.8000|32=2110|75=20110224|38=209469|48=7133608|22=2|30=NO|10=224||2|AidaCode|MARWA|ClientConnectionName|Marshall_Wace_Cash|
M|216|0|8|I|20110224-08:43:03.998|293|8=FIX.4.0|9=270|35=8|34=216|49=ABN|56=MWAM|52=20110224-08:43:03|37=00352559LN|6=148.5248|14=20687|15=NOK|63=0|120=NOK|17=084303986|1=CASH|55=STL NO|58=12% POV(CASH)|11=P3357668|39=1|20=0|59=0|54=1|40=1|60=20110224-08:43:03|31=148.8000|32=672|75=20110224|38=209469|48=7133608|22=2|30=SS|10=216||2|AidaCode|MARWA|ClientConnectionName|Marshall_Wace_Cash|
M|217|0|8|I|20110224-08:43:04.004|294|8=FIX.4.0|9=271|35=8|34=217|49=ABN|56=MWAM|52=20110224-08:43:04|37=00352559LN|6=148.5513|14=22887|15=NOK|63=0|120=NOK|17=084303990|1=CASH|55=STL NO|58=12% POV(CASH)|11=P3357668|39=1|20=0|59=0|54=1|40=1|60=20110224-08:43:03|31=148.8000|32=2200|75=20110224|38=209469|48=7133608|22=2|30=SS|10=250||2|AidaCode|MARWA|ClientConnectionName|Marshall_Wace_Cash|
M|218|0|8|I|20110224-08:43:04.177|293|8=FIX.4.0|9=270|35=8|34=218|49=ABN|56=MWAM|52=20110224-08:43:04|37=00352559LN|6=148.5553|14=23521|15=NOK|63=0|120=NOK|17=084304164|1=CASH|55=STL NO|58=12% POV(CASH)|11=P3357668|39=1|20=0|59=0|54=1|40=1|60=20110224-08:43:04|31=148.7000|32=634|75=20110224|38=209469|48=7133608|22=2|30=SS|10=195||2|AidaCode|MARWA|ClientConnectionName|Marshall_Wace_Cash|
M|219|0|8|I|20110224-08:43:04.479|294|8=FIX.4.0|9=271|35=8|34=219|49=ABN|56=MWAM|52=20110224-08:43:04|37=00352559LN|6=148.5934|14=27860|15=NOK|63=0|120=NOK|17=084304468|1=CASH|55=STL NO|58=12% POV(CASH)|11=P3357668|39=1|20=0|59=0|54=1|40=1|60=20110224-08:43:04|31=148.8000|32=4339|75=20110224|38=209469|48=7133608|22=2|30=NO|10=007||2|AidaCode|MARWA|ClientConnectionName|Marshall_Wace_Cash|
M|220|0|8|I|20110224-08:43:04.485|293|8=FIX.4.0|9=270|35=8|34=220|49=ABN|56=MWAM|52=20110224-08:43:04|37=00352559LN|6=148.5995|14=28707|15=NOK|63=0|120=NOK|17=084304472|1=CASH|55=STL NO|58=12% POV(CASH)|11=P3357668|39=1|20=0|59=0|54=1|40=1|60=20110224-08:43:04|31=148.8000|32=847|75=20110224|38=209469|48=7133608|22=2|30=NO|10=209||2|AidaCode|MARWA|ClientConnectionName|Marshall_Wace_Cash|
M|221|0|8|I|20110224-08:43:07.335|294|8=FIX.4.0|9=271|35=8|34=221|49=ABN|56=MWAM|52=20110224-08:43:07|37=00352557LN|6=153.8795|14=7146|15=SEK|63=0|120=SEK|17=084307318|1=CASH|55=ELUXB SS|58=20% POV(CASH)|11=P3357661|39=1|20=0|59=0|54=1|40=1|60=20110224-08:43:07|31=154.0000|32=1000|75=20110224|38=11438|48=B1KKBX6|22=2|30=BY|10=101||2|AidaCode|MARWA|ClientConnectionName|Marshall_Wace_Cash|
M|222|0|8|I|20110224-08:43:07.358|293|8=FIX.4.0|9=270|35=8|34=222|49=ABN|56=MWAM|52=20110224-08:43:07|37=00352557LN|6=153.8835|14=7393|15=SEK|63=0|120=SEK|17=084307348|1=CASH|55=ELUXB SS|58=20% POV(CASH)|11=P3357661|39=1|20=0|59=0|54=1|40=1|60=20110224-08:43:07|31=154.0000|32=247|75=20110224|38=11438|48=B1KKBX6|22=2|30=SS|10=078||2|AidaCode|MARWA|ClientConnectionName|Marshall_Wace_Cash|
M|223|0|8|I|20110224-08:43:08.277|292|8=FIX.4.0|9=269|35=8|34=223|49=ABN|56=MWAM|52=20110224-08:43:08|37=00352557LN|6=153.8843|14=7443|15=SEK|63=0|120=SEK|17=084308266|1=CASH|55=ELUXB SS|58=20% POV(CASH)|11=P3357661|39=1|20=0|59=0|54=1|40=1|60=20110224-08:43:08|31=154.0000|32=50|75=20110224|38=11438|48=B1KKBX6|22=2|30=SS|10=028||2|AidaCode|MARWA|ClientConnectionName|Marshall_Wace_Cash|
M|224|0|8|I|20110224-08:43:08.363|293|8=FIX.4.0|9=270|35=8|34=224|49=ABN|56=MWAM|52=20110224-08:43:08|37=00352559LN|6=148.6015|14=28994|15=NOK|63=0|120=NOK|17=084308352|1=CASH|55=STL NO|58=12% POV(CASH)|11=P3357668|39=1|20=0|59=0|54=1|40=1|60=20110224-08:43:08|31=148.8000|32=287|75=20110224|38=209469|48=7133608|22=2|30=BY|10=210||2|AidaCode|MARWA|ClientConnectionName|Marshall_Wace_Cash|
M|225|0|8|I|20110224-08:43:08.613|293|8=FIX.4.0|9=270|35=8|34=225|49=ABN|56=MWAM|52=20110224-08:43:08|37=00352559LN|6=148.6023|14=29106|15=NOK|63=0|120=NOK|17=084308601|1=CASH|55=STL NO|58=12% POV(CASH)|11=P3357668|39=1|20=0|59=0|54=1|40=1|60=20110224-08:43:08|31=148.8000|32=112|75=20110224|38=209469|48=7133608|22=2|30=SS|10=191||2|AidaCode|MARWA|ClientConnectionName|Marshall_Wace_Cash|
M|226|0|8|I|20110224-08:43:09.343|293|8=FIX.4.0|9=270|35=8|34=226|49=ABN|56=MWAM|52=20110224-08:43:09|37=00352557LN|6=153.8888|14=7743|15=SEK|63=0|120=SEK|17=084309332|1=CASH|55=ELUXB SS|58=20% POV(CASH)|11=P3357661|39=1|20=0|59=0|54=1|40=1|60=20110224-08:43:09|31=154.0000|32=300|75=20110224|38=11438|48=B1KKBX6|22=2|30=SS|10=078||2|AidaCode|MARWA|ClientConnectionName|Marshall_Wace_Cash|
M|227|0|8|I|20110224-08:43:09.670|293|8=FIX.4.0|9=270|35=8|34=227|49=ABN|56=MWAM|52=20110224-08:43:09|37=00352557LN|6=153.8939|14=8118|15=SEK|63=0|120=SEK|17=084309660|1=CASH|55=ELUXB SS|58=20% POV(CASH)|11=P3357661|39=1|20=0|59=0|54=1|40=1|60=20110224-08:43:09|31=154.0000|32=375|75=20110224|38=11438|48=B1KKBX6|22=2|30=SS|10=089||2|AidaCode|MARWA|ClientConnectionName|Marshall_Wace_Cash|
M|228|0|8|I|20110224-08:43:09.678|295|8=FIX.4.0|9=272|35=8|34=228|49=ABN|56=MWAM|52=20110224-08:43:09|37=00352557LN|6=153.8952|14=10303|15=SEK|63=0|120=SEK|17=084309668|1=CASH|55=ELUXB SS|58=20% POV(CASH)|11=P3357661|39=1|20=0|59=0|54=1|40=1|60=20110224-08:43:09|31=153.9000|32=2185|75=20110224|38=11438|48=B1KKBX6|22=2|30=SS|10=189||2|AidaCode|MARWA|ClientConnectionName|Marshall_Wace_Cash|
M|229|0|8|I|20110224-08:43:10.703|294|8=FIX.4.0|9=271|35=8|34=229|49=ABN|56=MWAM|52=20110224-08:43:10|37=00352557LN|6=153.8954|14=10796|15=SEK|63=0|120=SEK|17=084310686|1=CASH|55=ELUXB SS|58=20% POV(CASH)|11=P3357661|39=1|20=0|59=0|54=1|40=1|60=20110224-08:43:10|31=153.9000|32=493|75=20110224|38=11438|48=B1KKBX6|22=2|30=BY|10=124||2|AidaCode|MARWA|ClientConnectionName|Marshall_Wace_Cash|
M|230|0|8|I|20110224-08:43:10.709|294|8=FIX.4.0|9=271|35=8|34=230|49=ABN|56=MWAM|52=20110224-08:43:10|37=00352557LN|6=153.8956|14=11296|15=SEK|63=0|120=SEK|17=084310697|1=CASH|55=ELUXB SS|58=20% POV(CASH)|11=P3357661|39=1|20=0|59=0|54=1|40=1|60=20110224-08:43:10|31=153.9000|32=500|75=20110224|38=11438|48=B1KKBX6|22=2|30=BY|10=105||2|AidaCode|MARWA|ClientConnectionName|Marshall_Wace_Cash|
M|231|0|8|I|20110224-08:43:11.388|293|8=FIX.4.0|9=270|35=8|34=231|49=ABN|56=MWAM|52=20110224-08:43:11|37=00352557LN|6=153.8957|14=11348|15=SEK|63=0|120=SEK|17=084311378|1=CASH|55=ELUXB SS|58=20% POV(CASH)|11=P3357661|39=1|20=0|59=0|54=1|40=1|60=20110224-08:43:11|31=153.9000|32=52|75=20110224|38=11438|48=B1KKBX6|22=2|30=BY|10=057||2|AidaCode|MARWA|ClientConnectionName|Marshall_Wace_Cash|
M|232|0|8|I|20110224-08:43:12.944|293|8=FIX.4.0|9=270|35=8|34=232|49=ABN|56=MWAM|52=20110224-08:43:12|37=00352557LN|6=153.8957|14=11438|15=SEK|63=0|120=SEK|17=084312932|1=CASH|55=ELUXB SS|58=20% POV(CASH)|11=P3357661|39=2|20=0|59=0|54=1|40=1|60=20110224-08:43:12|31=153.9000|32=90|75=20110224|38=11438|48=B1KKBX6|22=2|30=SS|10=071||2|AidaCode|MARWA|ClientConnectionName|Marshall_Wace_Cash|
M|233|0|8|I|20110224-08:43:16.307|293|8=FIX.4.0|9=270|35=8|34=233|49=ABN|56=MWAM|52=20110224-08:43:16|37=00352559LN|6=148.6075|14=29905|15=NOK|63=0|120=NOK|17=084316295|1=CASH|55=STL NO|58=12% POV(CASH)|11=P3357668|39=1|20=0|59=0|54=1|40=1|60=20110224-08:43:16|31=148.8000|32=799|75=20110224|38=209469|48=7133608|22=2|30=SS|10=231||2|AidaCode|MARWA|ClientConnectionName|Marshall_Wace_Cash|
M|234|0|8|I|20110224-08:43:16.339|294|8=FIX.4.0|9=271|35=8|34=234|49=ABN|56=MWAM|52=20110224-08:43:16|37=00352559LN|6=148.6138|14=30905|15=NOK|63=0|120=NOK|17=084316325|1=CASH|55=STL NO|58=12% POV(CASH)|11=P3357668|39=1|20=0|59=0|54=1|40=1|60=20110224-08:43:16|31=148.8000|32=1000|75=20110224|38=209469|48=7133608|22=2|30=TQ|10=242||2|AidaCode|MARWA|ClientConnectionName|Marshall_Wace_Cash|
M|235|0|8|I|20110224-08:43:17.768|293|8=FIX.4.0|9=270|35=8|34=235|49=ABN|56=MWAM|52=20110224-08:43:17|37=00352559LN|6=148.6144|14=31014|15=NOK|63=0|120=NOK|17=084317755|1=CASH|55=STL NO|58=12% POV(CASH)|11=P3357668|39=1|20=0|59=0|54=1|40=1|60=20110224-08:43:17|31=148.8000|32=109|75=20110224|38=209469|48=7133608|22=2|30=NO|10=194||2|AidaCode|MARWA|ClientConnectionName|Marshall_Wace_Cash|
M|236|0|8|I|20110224-08:43:25.525|293|8=FIX.4.0|9=270|35=8|34=236|49=ABN|56=MWAM|52=20110224-08:43:25|37=00352559LN|6=148.6181|14=31414|15=NOK|63=0|120=NOK|17=084325513|1=CASH|55=STL NO|58=12% POV(CASH)|11=P3357668|39=1|20=0|59=0|54=1|40=1|60=20110224-08:43:25|31=148.9000|32=400|75=20110224|38=209469|48=7133608|22=2|30=TQ|10=192||2|AidaCode|MARWA|ClientConnectionName|Marshall_Wace_Cash|
M|237|0|8|I|20110224-08:43:25.531|294|8=FIX.4.0|9=271|35=8|34=237|49=ABN|56=MWAM|52=20110224-08:43:25|37=00352559LN|6=148.6298|14=32414|15=NOK|63=0|120=NOK|17=084325517|1=CASH|55=STL NO|58=12% POV(CASH)|11=P3357668|39=1|20=0|59=0|54=1|40=1|60=20110224-08:43:25|31=149.0000|32=1000|75=20110224|38=209469|48=7133608|22=2|30=TQ|10=245||2|AidaCode|MARWA|ClientConnectionName|Marshall_Wace_Cash|
M|238|0|8|I|20110224-08:43:25.538|294|8=FIX.4.0|9=271|35=8|34=238|49=ABN|56=MWAM|52=20110224-08:43:25|37=00352559LN|6=148.6442|14=33723|15=NOK|63=0|120=NOK|17=084325521|1=CASH|55=STL NO|58=12% POV(CASH)|11=P3357668|39=1|20=0|59=0|54=1|40=1|60=20110224-08:43:25|31=149.0000|32=1309|75=20110224|38=209469|48=7133608|22=2|30=TQ|10=248||2|AidaCode|MARWA|ClientConnectionName|Marshall_Wace_Cash|
M|239|0|8|I|20110224-08:43:25.544|293|8=FIX.4.0|9=270|35=8|34=239|49=ABN|56=MWAM|52=20110224-08:43:25|37=00352559LN|6=148.6482|14=34106|15=NOK|63=0|120=NOK|17=084325525|1=CASH|55=STL NO|58=12% POV(CASH)|11=P3357668|39=1|20=0|59=0|54=1|40=1|60=20110224-08:43:25|31=149.0000|32=383|75=20110224|38=209469|48=7133608|22=2|30=TQ|10=205||2|AidaCode|MARWA|ClientConnectionName|Marshall_Wace_Cash|
M|240|0|8|I|20110224-08:43:26.754|294|8=FIX.4.0|9=271|35=8|34=240|49=ABN|56=MWAM|52=20110224-08:43:26|37=00352559LN|6=148.6603|14=35829|15=NOK|63=0|120=NOK|17=084326742|1=CASH|55=STL NO|58=12% POV(CASH)|11=P3357668|39=1|20=0|59=0|54=1|40=1|60=20110224-08:43:26|31=148.9000|32=1723|75=20110224|38=209469|48=7133608|22=2|30=NO|10=001||2|AidaCode|MARWA|ClientConnectionName|Marshall_Wace_Cash|
M|241|0|8|I|20110224-08:43:26.761|294|8=FIX.4.0|9=271|35=8|34=241|49=ABN|56=MWAM|52=20110224-08:43:26|37=00352559LN|6=148.6724|14=37729|15=NOK|63=0|120=NOK|17=084326746|1=CASH|55=STL NO|58=12% POV(CASH)|11=P3357668|39=1|20=0|59=0|54=1|40=1|60=20110224-08:43:26|31=148.9000|32=1900|75=20110224|38=209469|48=7133608|22=2|30=NO|10=008||2|AidaCode|MARWA|ClientConnectionName|Marshall_Wace_Cash|
M|242|0|8|I|20110224-08:43:26.767|294|8=FIX.4.0|9=271|35=8|34=242|49=ABN|56=MWAM|52=20110224-08:43:26|37=00352559LN|6=148.6791|14=38881|15=NOK|63=0|120=NOK|17=084326750|1=CASH|55=STL NO|58=12% POV(CASH)|11=P3357668|39=1|20=0|59=0|54=1|40=1|60=20110224-08:43:26|31=148.9000|32=1152|75=20110224|38=209469|48=7133608|22=2|30=NO|10=007||2|AidaCode|MARWA|ClientConnectionName|Marshall_Wace_Cash|
M|243|0|8|I|20110224-08:43:26.774|293|8=FIX.4.0|9=270|35=8|34=243|49=ABN|56=MWAM|52=20110224-08:43:26|37=00352559LN|6=148.6813|14=39259|15=NOK|63=0|120=NOK|17=084326755|1=CASH|55=STL NO|58=12% POV(CASH)|11=P3357668|39=1|20=0|59=0|54=1|40=1|60=20110224-08:43:26|31=148.9000|32=378|75=20110224|38=209469|48=7133608|22=2|30=NO|10=224||2|AidaCode|MARWA|ClientConnectionName|Marshall_Wace_Cash|
M|244|0|8|I|20110224-08:43:26.780|291|8=FIX.4.0|9=268|35=8|34=244|49=ABN|56=MWAM|52=20110224-08:43:26|37=00352559LN|6=148.6813|14=39265|15=NOK|63=0|120=NOK|17=084326760|1=CASH|55=STL NO|58=12% POV(CASH)|11=P3357668|39=1|20=0|59=0|54=1|40=1|60=20110224-08:43:26|31=148.9000|32=6|75=20110224|38=209469|48=7133608|22=2|30=NO|10=117||2|AidaCode|MARWA|ClientConnectionName|Marshall_Wace_Cash|
M|245|0|8|I|20110224-08:43:28.856|293|8=FIX.4.0|9=270|35=8|34=245|49=ABN|56=MWAM|52=20110224-08:43:28|37=00352559LN|6=148.6822|14=39560|15=NOK|63=0|120=NOK|17=084328845|1=CASH|55=STL NO|58=12% POV(CASH)|11=P3357668|39=1|20=0|59=0|54=1|40=1|60=20110224-08:43:28|31=148.8000|32=295|75=20110224|38=209469|48=7133608|22=2|30=NO|10=224||2|AidaCode|MARWA|ClientConnectionName|Marshall_Wace_Cash|
M|246|0|8|I|20110224-08:43:29.027|293|8=FIX.4.0|9=270|35=8|34=246|49=ABN|56=MWAM|52=20110224-08:43:29|37=00352559LN|6=148.6832|14=39919|15=NOK|63=0|120=NOK|17=084329013|1=CASH|55=STL NO|58=12% POV(CASH)|11=P3357668|39=1|20=0|59=0|54=1|40=1|60=20110224-08:43:29|31=148.8000|32=359|75=20110224|38=209469|48=7133608|22=2|30=NO|10=225||2|AidaCode|MARWA|ClientConnectionName|Marshall_Wace_Cash|
M|247|0|8|I|20110224-08:43:29.638|293|8=FIX.4.0|9=270|35=8|34=247|49=ABN|56=MWAM|52=20110224-08:43:29|37=00352559LN|6=148.6842|14=40236|15=NOK|63=0|120=NOK|17=084329626|1=CASH|55=STL NO|58=12% POV(CASH)|11=P3357668|39=1|20=0|59=0|54=1|40=1|60=20110224-08:43:29|31=148.8000|32=317|75=20110224|38=209469|48=7133608|22=2|30=NO|10=215||2|AidaCode|MARWA|ClientConnectionName|Marshall_Wace_Cash|
M|248|0|8|I|20110224-08:43:31.242|293|8=FIX.4.0|9=270|35=8|34=248|49=ABN|56=MWAM|52=20110224-08:43:31|37=00352559LN|6=148.6860|14=40905|15=NOK|63=0|120=NOK|17=084331230|1=CASH|55=STL NO|58=12% POV(CASH)|11=P3357668|39=1|20=0|59=0|54=1|40=1|60=20110224-08:43:31|31=148.8000|32=669|75=20110224|38=209469|48=7133608|22=2|30=NO|10=199||2|AidaCode|MARWA|ClientConnectionName|Marshall_Wace_Cash|
M|249|0|8|I|20110224-08:43:31.251|293|8=FIX.4.0|9=270|35=8|34=249|49=ABN|56=MWAM|52=20110224-08:43:31|37=00352559LN|6=148.6870|14=41261|15=NOK|63=0|120=NOK|17=084331240|1=CASH|55=STL NO|58=12% POV(CASH)|11=P3357668|39=1|20=0|59=0|54=1|40=1|60=20110224-08:43:31|31=148.8000|32=356|75=20110224|38=209469|48=7133608|22=2|30=NO|10=191||2|AidaCode|MARWA|ClientConnectionName|Marshall_Wace_Cash|
M|250|0|8|I|20110224-08:43:32.733|293|8=FIX.4.0|9=270|35=8|34=250|49=ABN|56=MWAM|52=20110224-08:43:32|37=00352559LN|6=148.6880|14=41633|15=NOK|63=0|120=NOK|17=084332722|1=CASH|55=STL NO|58=12% POV(CASH)|11=P3357668|39=1|20=0|59=0|54=1|40=1|60=20110224-08:43:32|31=148.8000|32=372|75=20110224|38=209469|48=7133608|22=2|30=NO|10=193||2|AidaCode|MARWA|ClientConnectionName|Marshall_Wace_Cash|
M|251|0|8|I|20110224-08:43:39.695|293|8=FIX.4.0|9=270|35=8|34=251|49=ABN|56=MWAM|52=20110224-08:43:39|37=00352559LN|6=148.6887|14=41769|15=NOK|63=0|120=NOK|17=084339683|1=CASH|55=STL NO|58=12% POV(CASH)|11=P3357668|39=1|20=0|59=0|54=1|40=1|60=20110224-08:43:39|31=148.9000|32=136|75=20110224|38=209469|48=7133608|22=2|30=TQ|10=245||2|AidaCode|MARWA|ClientConnectionName|Marshall_Wace_Cash|
M|252|0|8|I|20110224-08:43:42.459|293|8=FIX.4.0|9=270|35=8|34=252|49=ABN|56=MWAM|52=20110224-08:43:42|37=00352559LN|6=148.6893|14=41890|15=NOK|63=0|120=NOK|17=084342447|1=CASH|55=STL NO|58=12% POV(CASH)|11=P3357668|39=1|20=0|59=0|54=1|40=1|60=20110224-08:43:42|31=148.9000|32=121|75=20110224|38=209469|48=7133608|22=2|30=EB|10=182||2|AidaCode|MARWA|ClientConnectionName|Marshall_Wace_Cash|
M|253|0|8|I|20110224-08:43:44.510|293|8=FIX.4.0|9=270|35=8|34=253|49=ABN|56=MWAM|52=20110224-08:43:44|37=00352559LN|6=148.6909|14=42095|15=NOK|63=0|120=NOK|17=084344498|1=CASH|55=STL NO|58=12% POV(CASH)|11=P3357668|39=1|20=0|59=0|54=1|40=1|60=20110224-08:43:44|31=149.0000|32=205|75=20110224|38=209469|48=7133608|22=2|30=BY|10=206||2|AidaCode|MARWA|ClientConnectionName|Marshall_Wace_Cash|
M|254|0|8|I|20110224-08:43:57.400|293|8=FIX.4.0|9=270|35=8|34=254|49=ABN|56=MWAM|52=20110224-08:43:57|37=00352559LN|6=148.6924|14=42251|15=NOK|63=0|120=NOK|17=084357387|1=CASH|55=STL NO|58=12% POV(CASH)|11=P3357668|39=1|20=0|59=0|54=1|40=1|60=20110224-08:43:57|31=149.1000|32=156|75=20110224|38=209469|48=7133608|22=2|30=IX|10=219||2|AidaCode|MARWA|ClientConnectionName|Marshall_Wace_Cash|
M|255|0|8|I|20110224-08:43:58.240|293|8=FIX.4.0|9=270|35=8|34=255|49=ABN|56=MWAM|52=20110224-08:43:58|37=00352559LN|6=148.6976|14=42799|15=NOK|63=0|120=NOK|17=084358228|1=CASH|55=STL NO|58=12% POV(CASH)|11=P3357668|39=1|20=0|59=0|54=1|40=1|60=20110224-08:43:58|31=149.1000|32=548|75=20110224|38=209469|48=7133608|22=2|30=IX|10=246||2|AidaCode|MARWA|ClientConnectionName|Marshall_Wace_Cash|
M|256|0|8|I|20110224-08:43:58.281|294|8=FIX.4.0|9=271|35=8|34=256|49=ABN|56=MWAM|52=20110224-08:43:58|37=00352559LN|6=148.7290|14=46419|15=NOK|63=0|120=NOK|17=084358270|1=CASH|55=STL NO|58=12% POV(CASH)|11=P3357668|39=1|20=0|59=0|54=1|40=1|60=20110224-08:43:58|31=149.1000|32=3620|75=20110224|38=209469|48=7133608|22=2|30=NO|10=010||2|AidaCode|MARWA|ClientConnectionName|Marshall_Wace_Cash|
M|257|0|8|I|20110224-08:43:58.287|293|8=FIX.4.0|9=270|35=8|34=257|49=ABN|56=MWAM|52=20110224-08:43:58|37=00352559LN|6=148.7306|14=46619|15=NOK|63=0|120=NOK|17=084358274|1=CASH|55=STL NO|58=12% POV(CASH)|11=P3357668|39=1|20=0|59=0|54=1|40=1|60=20110224-08:43:58|31=149.1000|32=200|75=20110224|38=209469|48=7133608|22=2|30=NO|10=213||2|AidaCode|MARWA|ClientConnectionName|Marshall_Wace_Cash|
M|258|0|8|I|20110224-08:43:58.293|293|8=FIX.4.0|9=270|35=8|34=258|49=ABN|56=MWAM|52=20110224-08:43:58|37=00352559LN|6=148.7337|14=47019|15=NOK|63=0|120=NOK|17=084358279|1=CASH|55=STL NO|58=12% POV(CASH)|11=P3357668|39=1|20=0|59=0|54=1|40=1|60=20110224-08:43:58|31=149.1000|32=400|75=20110224|38=209469|48=7133608|22=2|30=NO|10=220||2|AidaCode|MARWA|ClientConnectionName|Marshall_Wace_Cash|
M|259|0|8|I|20110224-08:44:02.492|293|8=FIX.4.0|9=270|35=8|34=259|49=ABN|56=MWAM|52=20110224-08:44:02|37=00352559LN|6=148.7383|14=47619|15=NOK|63=0|120=NOK|17=084402475|1=CASH|55=STL NO|58=12% POV(CASH)|11=P3357668|39=1|20=0|59=0|54=1|40=1|60=20110224-08:44:02|31=149.1000|32=600|75=20110224|38=209469|48=7133608|22=2|30=NO|10=198||2|AidaCode|MARWA|ClientConnectionName|Marshall_Wace_Cash|
M|260|0|8|I|20110224-08:44:02.498|292|8=FIX.4.0|9=269|35=8|34=260|49=ABN|56=MWAM|52=20110224-08:44:02|37=00352559LN|6=148.7384|14=47634|15=NOK|63=0|120=NOK|17=084402481|1=CASH|55=STL NO|58=12% POV(CASH)|11=P3357668|39=1|20=0|59=0|54=1|40=1|60=20110224-08:44:02|31=149.1000|32=15|75=20110224|38=209469|48=7133608|22=2|30=NO|10=145||2|AidaCode|MARWA|ClientConnectionName|Marshall_Wace_Cash|
M|261|0|8|I|20110224-08:44:09.704|293|8=FIX.4.0|9=270|35=8|34=261|49=ABN|56=MWAM|52=20110224-08:44:09|37=00352559LN|6=148.7415|14=48046|15=NOK|63=0|120=NOK|17=084409691|1=CASH|55=STL NO|58=12% POV(CASH)|11=P3357668|39=1|20=0|59=0|54=1|40=1|60=20110224-08:44:09|31=149.1000|32=412|75=20110224|38=209469|48=7133608|22=2|30=IX|10=208||2|AidaCode|MARWA|ClientConnectionName|Marshall_Wace_Cash|
M|262|0|8|I|20110224-08:44:10.851|293|8=FIX.4.0|9=270|35=8|34=262|49=ABN|56=MWAM|52=20110224-08:44:10|37=00352559LN|6=148.7423|14=48154|15=NOK|63=0|120=NOK|17=084410840|1=CASH|55=STL NO|58=12% POV(CASH)|11=P3357668|39=1|20=0|59=0|54=1|40=1|60=20110224-08:44:10|31=149.1000|32=108|75=20110224|38=209469|48=7133608|22=2|30=NO|10=178||2|AidaCode|MARWA|ClientConnectionName|Marshall_Wace_Cash|
M|263|0|8|I|20110224-08:44:15.556|293|8=FIX.4.0|9=270|35=8|34=263|49=ABN|56=MWAM|52=20110224-08:44:15|37=00352559LN|6=148.7469|14=48775|15=NOK|63=0|120=NOK|17=084415543|1=CASH|55=STL NO|58=12% POV(CASH)|11=P3357668|39=1|20=0|59=0|54=1|40=1|60=20110224-08:44:15|31=149.1000|32=621|75=20110224|38=209469|48=7133608|22=2|30=NO|10=213||2|AidaCode|MARWA|ClientConnectionName|Marshall_Wace_Cash|
M|264|0|8|I|20110224-08:44:18.258|293|8=FIX.4.0|9=270|35=8|34=264|49=ABN|56=MWAM|52=20110224-08:44:18|37=00352559LN|6=148.7499|14=49198|15=NOK|63=0|120=NOK|17=084418245|1=CASH|55=STL NO|58=12% POV(CASH)|11=P3357668|39=1|20=0|59=0|54=1|40=1|60=20110224-08:44:18|31=149.1000|32=423|75=20110224|38=209469|48=7133608|22=2|30=IX|10=229||2|AidaCode|MARWA|ClientConnectionName|Marshall_Wace_Cash|
M|265|0|8|I|20110224-08:44:19.739|293|8=FIX.4.0|9=270|35=8|34=265|49=ABN|56=MWAM|52=20110224-08:44:19|37=00352559LN|6=148.7534|14=49698|15=NOK|63=0|120=NOK|17=084419727|1=CASH|55=STL NO|58=12% POV(CASH)|11=P3357668|39=1|20=0|59=0|54=1|40=1|60=20110224-08:44:19|31=149.1000|32=500|75=20110224|38=209469|48=7133608|22=2|30=NO|10=225||2|AidaCode|MARWA|ClientConnectionName|Marshall_Wace_Cash|
M|266|0|8|I|20110224-08:44:36.769|293|8=FIX.4.0|9=270|35=8|34=266|49=ABN|56=MWAM|52=20110224-08:44:36|37=00352559LN|6=148.7545|14=49817|15=NOK|63=0|120=NOK|17=084436756|1=CASH|55=STL NO|58=12% POV(CASH)|11=P3357668|39=1|20=0|59=0|54=1|40=1|60=20110224-08:44:36|31=149.2000|32=119|75=20110224|38=209469|48=7133608|22=2|30=TQ|10=235||2|AidaCode|MARWA|ClientConnectionName|Marshall_Wace_Cash|
M|267|0|8|I|20110224-08:44:41.988|293|8=FIX.4.0|9=270|35=8|34=267|49=ABN|56=MWAM|52=20110224-08:44:41|37=00352559LN|6=148.7557|14=49950|15=NOK|63=0|120=NOK|17=084441976|1=CASH|55=STL NO|58=12% POV(CASH)|11=P3357668|39=1|20=0|59=0|54=1|40=1|60=20110224-08:44:41|31=149.2000|32=133|75=20110224|38=209469|48=7133608|22=2|30=EB|10=195||2|AidaCode|MARWA|ClientConnectionName|Marshall_Wace_Cash|
M|268|0|8|I|20110224-08:44:52.385|293|8=FIX.4.0|9=270|35=8|34=268|49=ABN|56=MWAM|52=20110224-08:44:52|37=00352559LN|6=148.7567|14=50060|15=NOK|63=0|120=NOK|17=084452372|1=CASH|55=STL NO|58=12% POV(CASH)|11=P3357668|39=1|20=0|59=0|54=1|40=1|60=20110224-08:44:52|31=149.2000|32=110|75=20110224|38=209469|48=7133608|22=2|30=TQ|10=202||2|AidaCode|MARWA|ClientConnectionName|Marshall_Wace_Cash|
M|269|0|8|I|20110224-08:44:52.772|293|8=FIX.4.0|9=270|35=8|34=269|49=ABN|56=MWAM|52=20110224-08:44:52|37=00352559LN|6=148.7581|14=50225|15=NOK|63=0|120=NOK|17=084452761|1=CASH|55=STL NO|58=12% POV(CASH)|11=P3357668|39=1|20=0|59=0|54=1|40=1|60=20110224-08:44:52|31=149.2000|32=165|75=20110224|38=209469|48=7133608|22=2|30=TQ|10=214||2|AidaCode|MARWA|ClientConnectionName|Marshall_Wace_Cash|
M|270|0|8|I|20110224-08:44:53.182|293|8=FIX.4.0|9=270|35=8|34=270|49=ABN|56=MWAM|52=20110224-08:44:53|37=00352559LN|6=148.7596|14=50390|15=NOK|63=0|120=NOK|17=084453169|1=CASH|55=STL NO|58=12% POV(CASH)|11=P3357668|39=1|20=0|59=0|54=1|40=1|60=20110224-08:44:53|31=149.2000|32=165|75=20110224|38=209469|48=7133608|22=2|30=TQ|10=220||2|AidaCode|MARWA|ClientConnectionName|Marshall_Wace_Cash|
M|271|0|8|I|20110224-08:44:54.069|293|8=FIX.4.0|9=270|35=8|34=271|49=ABN|56=MWAM|52=20110224-08:44:54|37=00352559LN|6=148.7642|14=50921|15=NOK|63=0|120=NOK|17=084454056|1=CASH|55=STL NO|58=12% POV(CASH)|11=P3357668|39=1|20=0|59=0|54=1|40=1|60=20110224-08:44:54|31=149.2000|32=531|75=20110224|38=209469|48=7133608|22=2|30=EB|10=178||2|AidaCode|MARWA|ClientConnectionName|Marshall_Wace_Cash|
M|272|0|8|I|20110224-08:44:55.054|293|8=FIX.4.0|9=270|35=8|34=272|49=ABN|56=MWAM|52=20110224-08:44:55|37=00352559LN|6=148.7696|14=51762|15=NOK|63=0|120=NOK|17=084455042|1=CASH|55=STL NO|58=12% POV(CASH)|11=P3357668|39=1|20=0|59=0|54=1|40=1|60=20110224-08:44:55|31=149.1000|32=841|75=20110224|38=209469|48=7133608|22=2|30=TQ|10=223||2|AidaCode|MARWA|ClientConnectionName|Marshall_Wace_Cash|
M|273|0|8|I|20110224-08:44:55.259|293|8=FIX.4.0|9=270|35=8|34=273|49=ABN|56=MWAM|52=20110224-08:44:55|37=00352559LN|6=148.7730|14=52170|15=NOK|63=0|120=NOK|17=084455247|1=CASH|55=STL NO|58=12% POV(CASH)|11=P3357668|39=1|20=0|59=0|54=1|40=1|60=20110224-08:44:55|31=149.2000|32=408|75=20110224|38=209469|48=7133608|22=2|30=EB|10=184||2|AidaCode|MARWA|ClientConnectionName|Marshall_Wace_Cash|
M|274|0|8|I|20110224-08:44:56.335|293|8=FIX.4.0|9=270|35=8|34=274|49=ABN|56=MWAM|52=20110224-08:44:56|37=00352559LN|6=148.7749|14=52406|15=NOK|63=0|120=NOK|17=084456323|1=CASH|55=STL NO|58=12% POV(CASH)|11=P3357668|39=1|20=0|59=0|54=1|40=1|60=20110224-08:44:56|31=149.2000|32=236|75=20110224|38=209469|48=7133608|22=2|30=BY|10=214||2|AidaCode|MARWA|ClientConnectionName|Marshall_Wace_Cash|
M|275|0|8|I|20110224-08:44:58.280|293|8=FIX.4.0|9=270|35=8|34=275|49=ABN|56=MWAM|52=20110224-08:44:58|37=00352559LN|6=148.7759|14=52524|15=NOK|63=0|120=NOK|17=084458258|1=CASH|55=STL NO|58=12% POV(CASH)|11=P3357668|39=1|20=0|59=0|54=1|40=1|60=20110224-08:44:58|31=149.2000|32=118|75=20110224|38=209469|48=7133608|22=2|30=TQ|10=239||2|AidaCode|MARWA|ClientConnectionName|Marshall_Wace_Cash|
M|276|0|8|I|20110224-08:45:13.481|293|8=FIX.4.0|9=270|35=8|34=276|49=ABN|56=MWAM|52=20110224-08:45:13|37=00352559LN|6=148.7772|14=52688|15=NOK|63=0|120=NOK|17=084513466|1=CASH|55=STL NO|58=12% POV(CASH)|11=P3357668|39=1|20=0|59=0|54=1|40=1|60=20110224-08:45:13|31=149.2000|32=164|75=20110224|38=209469|48=7133608|22=2|30=BY|10=214||2|AidaCode|MARWA|ClientConnectionName|Marshall_Wace_Cash|
M|277|0|8|I|20110224-08:45:13.491|292|8=FIX.4.0|9=269|35=8|34=277|49=ABN|56=MWAM|52=20110224-08:45:13|37=00352559LN|6=148.7774|14=52715|15=NOK|63=0|120=NOK|17=084513479|1=CASH|55=STL NO|58=12% POV(CASH)|11=P3357668|39=1|20=0|59=0|54=1|40=1|60=20110224-08:45:13|31=149.2000|32=27|75=20110224|38=209469|48=7133608|22=2|30=NO|10=172||2|AidaCode|MARWA|ClientConnectionName|Marshall_Wace_Cash|
M|278|0|8|I|20110224-08:45:18.144|293|8=FIX.4.0|9=270|35=8|34=278|49=ABN|56=MWAM|52=20110224-08:45:18|37=00352559LN|6=148.7785|14=52849|15=NOK|63=0|120=NOK|17=084518130|1=CASH|55=STL NO|58=12% POV(CASH)|11=P3357668|39=1|20=0|59=0|54=1|40=1|60=20110224-08:45:18|31=149.2000|32=134|75=20110224|38=209469|48=7133608|22=2|30=TQ|10=229||2|AidaCode|MARWA|ClientConnectionName|Marshall_Wace_Cash|
M|279|0|8|I|20110224-08:45:22.702|293|8=FIX.4.0|9=270|35=8|34=279|49=ABN|56=MWAM|52=20110224-08:45:22|37=00352559LN|6=148.7859|14=53800|15=NOK|63=0|120=NOK|17=084522445|1=CASH|55=STL NO|58=12% POV(CASH)|11=P3357668|39=1|20=0|59=0|54=1|40=1|60=20110224-08:45:22|31=149.2000|32=951|75=20110224|38=209469|48=7133608|22=2|30=NO|10=213||2|AidaCode|MARWA|ClientConnectionName|Marshall_Wace_Cash|
M|280|0|8|I|20110224-08:45:27.146|293|8=FIX.4.0|9=270|35=8|34=280|49=ABN|56=MWAM|52=20110224-08:45:27|37=00352559LN|6=148.7890|14=54200|15=NOK|63=0|120=NOK|17=084527132|1=CASH|55=STL NO|58=12% POV(CASH)|11=P3357668|39=1|20=0|59=0|54=1|40=1|60=20110224-08:45:27|31=149.2000|32=400|75=20110224|38=209469|48=7133608|22=2|30=NO|10=192||2|AidaCode|MARWA|ClientConnectionName|Marshall_Wace_Cash|
M|281|0|8|I|20110224-08:45:27.911|294|8=FIX.4.0|9=271|35=8|34=281|49=ABN|56=MWAM|52=20110224-08:45:27|37=00352559LN|6=148.8015|14=55564|15=NOK|63=0|120=NOK|17=084527898|1=CASH|55=STL NO|58=12% POV(CASH)|11=P3357668|39=1|20=0|59=0|54=1|40=1|60=20110224-08:45:27|31=149.3000|32=1364|75=20110224|38=209469|48=7133608|22=2|30=TQ|10=028||2|AidaCode|MARWA|ClientConnectionName|Marshall_Wace_Cash|
M|282|0|8|I|20110224-08:45:28.610|293|8=FIX.4.0|9=270|35=8|34=282|49=ABN|56=MWAM|52=20110224-08:45:28|37=00352559LN|6=148.8056|14=56016|15=NOK|63=0|120=NOK|17=084528597|1=CASH|55=STL NO|58=12% POV(CASH)|11=P3357668|39=1|20=0|59=0|54=1|40=1|60=20110224-08:45:28|31=149.3000|32=452|75=20110224|38=209469|48=7133608|22=2|30=TQ|10=230||2|AidaCode|MARWA|ClientConnectionName|Marshall_Wace_Cash|
M|283|0|8|I|20110224-08:45:30.053|293|8=FIX.4.0|9=270|35=8|34=283|49=ABN|56=MWAM|52=20110224-08:45:30|37=00352559LN|6=148.8086|14=56457|15=NOK|63=0|120=NOK|17=084530040|1=CASH|55=STL NO|58=12% POV(CASH)|11=P3357668|39=1|20=0|59=0|54=1|40=1|60=20110224-08:45:30|31=149.2000|32=441|75=20110224|38=209469|48=7133608|22=2|30=IX|10=198||2|AidaCode|MARWA|ClientConnectionName|Marshall_Wace_Cash|
M|284|0|8|I|20110224-08:45:31.596|294|8=FIX.4.0|9=271|35=8|34=284|49=ABN|56=MWAM|52=20110224-08:45:31|37=00352559LN|6=148.8263|14=59133|15=NOK|63=0|120=NOK|17=084531585|1=CASH|55=STL NO|58=12% POV(CASH)|11=P3357668|39=1|20=0|59=0|54=1|40=1|60=20110224-08:45:31|31=149.2000|32=2676|75=20110224|38=209469|48=7133608|22=2|30=NO|10=008||2|AidaCode|MARWA|ClientConnectionName|Marshall_Wace_Cash|
M|285|0|8|I|20110224-08:45:33.342|293|8=FIX.4.0|9=270|35=8|34=285|49=ABN|56=MWAM|52=20110224-08:45:33|37=00352559LN|6=148.8283|14=59450|15=NOK|63=0|120=NOK|17=084533329|1=CASH|55=STL NO|58=12% POV(CASH)|11=P3357668|39=1|20=0|59=0|54=1|40=1|60=20110224-08:45:33|31=149.2000|32=317|75=20110224|38=209469|48=7133608|22=2|30=TQ|10=220||2|AidaCode|MARWA|ClientConnectionName|Marshall_Wace_Cash|
M|286|0|8|I|20110224-08:45:34.558|293|8=FIX.4.0|9=270|35=8|34=286|49=ABN|56=MWAM|52=20110224-08:45:34|37=00352559LN|6=148.8294|14=59613|15=NOK|63=0|120=NOK|17=084534546|1=CASH|55=STL NO|58=12% POV(CASH)|11=P3357668|39=1|20=0|59=0|54=1|40=1|60=20110224-08:45:34|31=149.2000|32=163|75=20110224|38=209469|48=7133608|22=2|30=TQ|10=227||2|AidaCode|MARWA|ClientConnectionName|Marshall_Wace_Cash|
M|287|0|8|I|20110224-08:45:44.488|292|8=FIX.4.0|9=269|35=8|34=287|49=ABN|56=MWAM|52=20110224-08:45:44|37=00352559LN|6=148.8297|14=59653|15=NOK|63=0|120=NOK|17=084544469|1=CASH|55=STL NO|58=12% POV(CASH)|11=P3357668|39=1|20=0|59=0|54=1|40=1|60=20110224-08:45:44|31=149.3000|32=40|75=20110224|38=209469|48=7133608|22=2|30=EB|10=167||2|AidaCode|MARWA|ClientConnectionName|Marshall_Wace_Cash|
M|288|0|8|I|20110224-08:45:44.493|292|8=FIX.4.0|9=269|35=8|34=288|49=ABN|56=MWAM|52=20110224-08:45:44|37=00352559LN|6=148.8304|14=59749|15=NOK|63=0|120=NOK|17=084544474|1=CASH|55=STL NO|58=12% POV(CASH)|11=P3357668|39=1|20=0|59=0|54=1|40=1|60=20110224-08:45:44|31=149.3000|32=96|75=20110224|38=209469|48=7133608|22=2|30=EB|10=170||2|AidaCode|MARWA|ClientConnectionName|Marshall_Wace_Cash|
M|289|0|8|I|20110224-08:45:45.850|293|8=FIX.4.0|9=270|35=8|34=289|49=ABN|56=MWAM|52=20110224-08:45:45|37=00352559LN|6=148.8315|14=59889|15=NOK|63=0|120=NOK|17=084545837|1=CASH|55=STL NO|58=12% POV(CASH)|11=P3357668|39=1|20=0|59=0|54=1|40=1|60=20110224-08:45:45|31=149.3000|32=140|75=20110224|38=209469|48=7133608|22=2|30=EB|10=214||2|AidaCode|MARWA|ClientConnectionName|Marshall_Wace_Cash|
M|290|0|8|I|20110224-08:45:49.022|293|8=FIX.4.0|9=270|35=8|34=290|49=ABN|56=MWAM|52=20110224-08:45:49|37=00352559LN|6=148.8363|14=60507|15=NOK|63=0|120=NOK|17=084549008|1=CASH|55=STL NO|58=12% POV(CASH)|11=P3357668|39=1|20=0|59=0|54=1|40=1|60=20110224-08:45:49|31=149.3000|32=618|75=20110224|38=209469|48=7133608|22=2|30=NO|10=222||2|AidaCode|MARWA|ClientConnectionName|Marshall_Wace_Cash|
M|291|0|8|I|20110224-08:45:50.067|293|8=FIX.4.0|9=270|35=8|34=291|49=ABN|56=MWAM|52=20110224-08:45:50|37=00352559LN|6=148.8426|14=61342|15=NOK|63=0|120=NOK|17=084550055|1=CASH|55=STL NO|58=12% POV(CASH)|11=P3357668|39=1|20=0|59=0|54=1|40=1|60=20110224-08:45:50|31=149.3000|32=835|75=20110224|38=209469|48=7133608|22=2|30=NO|10=200||2|AidaCode|MARWA|ClientConnectionName|Marshall_Wace_Cash|
M|292|0|8|I|20110224-08:45:50.075|293|8=FIX.4.0|9=270|35=8|34=292|49=ABN|56=MWAM|52=20110224-08:45:50|37=00352559LN|6=148.8451|14=61681|15=NOK|63=0|120=NOK|17=084550063|1=CASH|55=STL NO|58=12% POV(CASH)|11=P3357668|39=1|20=0|59=0|54=1|40=1|60=20110224-08:45:50|31=149.3000|32=339|75=20110224|38=209469|48=7133608|22=2|30=NO|10=203||2|AidaCode|MARWA|ClientConnectionName|Marshall_Wace_Cash|
M|293|0|8|I|20110224-08:45:55.996|294|8=FIX.4.0|9=271|35=8|34=293|49=ABN|56=MWAM|52=20110224-08:45:55|37=00352559LN|6=148.8563|14=63240|15=NOK|63=0|120=NOK|17=084555982|1=CASH|55=STL NO|58=12% POV(CASH)|11=P3357668|39=1|20=0|59=0|54=1|40=1|60=20110224-08:45:55|31=149.3000|32=1559|75=20110224|38=209469|48=7133608|22=2|30=NO|10=024||2|AidaCode|MARWA|ClientConnectionName|Marshall_Wace_Cash|
M|294|0|8|I|20110224-08:46:00.089|293|8=FIX.4.0|9=270|35=8|34=294|49=ABN|56=MWAM|52=20110224-08:46:00|37=00352559LN|6=148.8593|14=63667|15=NOK|63=0|120=NOK|17=084600076|1=CASH|55=STL NO|58=12% POV(CASH)|11=P3357668|39=1|20=0|59=0|54=1|40=1|60=20110224-08:46:00|31=149.3000|32=427|75=20110224|38=209469|48=7133608|22=2|30=SS|10=217||2|AidaCode|MARWA|ClientConnectionName|Marshall_Wace_Cash|
M|295|0|8|I|20110224-08:46:03.141|293|8=FIX.4.0|9=270|35=8|34=295|49=ABN|56=MWAM|52=20110224-08:46:03|37=00352559LN|6=148.8605|14=63831|15=NOK|63=0|120=NOK|17=084603125|1=CASH|55=STL NO|58=12% POV(CASH)|11=P3357668|39=1|20=0|59=0|54=1|40=1|60=20110224-08:46:03|31=149.3000|32=164|75=20110224|38=209469|48=7133608|22=2|30=TQ|10=206||2|AidaCode|MARWA|ClientConnectionName|Marshall_Wace_Cash|
M|296|0|8|I|20110224-08:46:03.424|293|8=FIX.4.0|9=270|35=8|34=296|49=ABN|56=MWAM|52=20110224-08:46:03|37=00352559LN|6=148.8627|14=64162|15=NOK|63=0|120=NOK|17=084603412|1=CASH|55=STL NO|58=12% POV(CASH)|11=P3357668|39=1|20=0|59=0|54=1|40=1|60=20110224-08:46:03|31=149.3000|32=331|75=20110224|38=209469|48=7133608|22=2|30=IX|10=200||2|AidaCode|MARWA|ClientConnectionName|Marshall_Wace_Cash|
M|297|0|8|I|20110224-08:46:03.433|292|8=FIX.4.0|9=269|35=8|34=297|49=ABN|56=MWAM|52=20110224-08:46:03|37=00352559LN|6=148.8633|14=64251|15=NOK|63=0|120=NOK|17=084603422|1=CASH|55=STL NO|58=12% POV(CASH)|11=P3357668|39=1|20=0|59=0|54=1|40=1|60=20110224-08:46:03|31=149.3000|32=89|75=20110224|38=209469|48=7133608|22=2|30=IX|10=168||2|AidaCode|MARWA|ClientConnectionName|Marshall_Wace_Cash|
M|298|0|8|I|20110224-08:46:03.457|294|8=FIX.4.0|9=271|35=8|34=298|49=ABN|56=MWAM|52=20110224-08:46:03|37=00352559LN|6=148.8731|14=65715|15=NOK|63=0|120=NOK|17=084603444|1=CASH|55=STL NO|58=12% POV(CASH)|11=P3357668|39=1|20=0|59=0|54=1|40=1|60=20110224-08:46:03|31=149.3000|32=1464|75=20110224|38=209469|48=7133608|22=2|30=NO|10=005||2|AidaCode|MARWA|ClientConnectionName|Marshall_Wace_Cash|
M|299|0|8|I|20110224-08:46:05.153|294|8=FIX.4.0|9=271|35=8|34=299|49=ABN|56=MWAM|52=20110224-08:46:05|37=00352559LN|6=148.8804|14=66858|15=NOK|63=0|120=NOK|17=084605140|1=CASH|55=STL NO|58=12% POV(CASH)|11=P3357668|39=1|20=0|59=0|54=1|40=1|60=20110224-08:46:05|31=149.3000|32=1143|75=20110224|38=209469|48=7133608|22=2|30=NO|10=009||2|AidaCode|MARWA|ClientConnectionName|Marshall_Wace_Cash|
M|300|0|8|I|20110224-08:46:06.355|294|8=FIX.4.0|9=271|35=8|34=300|49=ABN|56=MWAM|52=20110224-08:46:06|37=00352559LN|6=148.8899|14=68416|15=NOK|63=0|120=NOK|17=084606343|1=CASH|55=STL NO|58=12% POV(CASH)|11=P3357668|39=1|20=0|59=0|54=1|40=1|60=20110224-08:46:06|31=149.3000|32=1558|75=20110224|38=209469|48=7133608|22=2|30=NO|10=016||2|AidaCode|MARWA|ClientConnectionName|Marshall_Wace_Cash|
M|301|0|8|I|20110224-08:46:08.088|293|8=FIX.4.0|9=270|35=8|34=301|49=ABN|56=MWAM|52=20110224-08:46:08|37=00352559LN|6=148.8921|14=68788|15=NOK|63=0|120=NOK|17=084608064|1=CASH|55=STL NO|58=12% POV(CASH)|11=P3357668|39=1|20=0|59=0|54=1|40=1|60=20110224-08:46:08|31=149.3000|32=372|75=20110224|38=209469|48=7133608|22=2|30=NO|10=221||2|AidaCode|MARWA|ClientConnectionName|Marshall_Wace_Cash|
M|302|0|8|I|20110224-08:46:08.478|293|8=FIX.4.0|9=270|35=8|34=302|49=ABN|56=MWAM|52=20110224-08:46:08|37=00352559LN|6=148.8937|14=69054|15=NOK|63=0|120=NOK|17=084608465|1=CASH|55=STL NO|58=12% POV(CASH)|11=P3357668|39=1|20=0|59=0|54=1|40=1|60=20110224-08:46:08|31=149.3000|32=266|75=20110224|38=209469|48=7133608|22=2|30=NO|10=223||2|AidaCode|MARWA|ClientConnectionName|Marshall_Wace_Cash|
M|303|0|8|I|20110224-08:46:08.777|294|8=FIX.4.0|9=271|35=8|34=303|49=ABN|56=MWAM|52=20110224-08:46:08|37=00352559LN|6=148.9020|14=70976|15=NOK|63=0|120=NOK|17=084608764|1=CASH|55=STL NO|58=12% POV(CASH)|11=P3357668|39=1|20=0|59=0|54=1|40=1|60=20110224-08:46:08|31=149.2000|32=1922|75=20110224|38=209469|48=7133608|22=2|30=NO|10=007||2|AidaCode|MARWA|ClientConnectionName|Marshall_Wace_Cash|
M|304|0|8|I|20110224-08:46:13.905|293|8=FIX.4.0|9=270|35=8|34=304|49=ABN|56=MWAM|52=20110224-08:46:13|37=00352559LN|6=148.9026|14=71092|15=NOK|63=0|120=NOK|17=084613893|1=CASH|55=STL NO|58=12% POV(CASH)|11=P3357668|39=1|20=0|59=0|54=1|40=1|60=20110224-08:46:13|31=149.3000|32=116|75=20110224|38=209469|48=7133608|22=2|30=TQ|10=205||2|AidaCode|MARWA|ClientConnectionName|Marshall_Wace_Cash|
M|305|0|8|I|20110224-08:46:15.248|294|8=FIX.4.0|9=271|35=8|34=305|49=ABN|56=MWAM|52=20110224-08:46:15|37=00352559LN|6=148.9093|14=72713|15=NOK|63=0|120=NOK|17=084615234|1=CASH|55=STL NO|58=12% POV(CASH)|11=P3357668|39=1|20=0|59=0|54=1|40=1|60=20110224-08:46:15|31=149.2000|32=1621|75=20110224|38=209469|48=7133608|22=2|30=NO|10=248||2|AidaCode|MARWA|ClientConnectionName|Marshall_Wace_Cash|
M|306|0|8|I|20110224-08:46:17.277|294|8=FIX.4.0|9=271|35=8|34=306|49=ABN|56=MWAM|52=20110224-08:46:17|37=00352559LN|6=148.9150|14=74177|15=NOK|63=0|120=NOK|17=084617265|1=CASH|55=STL NO|58=12% POV(CASH)|11=P3357668|39=1|20=0|59=0|54=1|40=1|60=20110224-08:46:17|31=149.2000|32=1464|75=20110224|38=209469|48=7133608|22=2|30=NO|10=008||2|AidaCode|MARWA|ClientConnectionName|Marshall_Wace_Cash|
M|307|0|8|I|20110224-08:46:17.286|294|8=FIX.4.0|9=271|35=8|34=307|49=ABN|56=MWAM|52=20110224-08:46:17|37=00352559LN|6=148.9194|14=75340|15=NOK|63=0|120=NOK|17=084617273|1=CASH|55=STL NO|58=12% POV(CASH)|11=P3357668|39=1|20=0|59=0|54=1|40=1|60=20110224-08:46:17|31=149.2000|32=1163|75=20110224|38=209469|48=7133608|22=2|30=NO|10=005||2|AidaCode|MARWA|ClientConnectionName|Marshall_Wace_Cash|
M|308|0|8|I|20110224-08:46:17.292|294|8=FIX.4.0|9=271|35=8|34=308|49=ABN|56=MWAM|52=20110224-08:46:17|37=00352559LN|6=148.9236|14=76471|15=NOK|63=0|120=NOK|17=084617279|1=CASH|55=STL NO|58=12% POV(CASH)|11=P3357668|39=1|20=0|59=0|54=1|40=1|60=20110224-08:46:17|31=149.2000|32=1131|75=20110224|38=209469|48=7133608|22=2|30=NO|10=010||2|AidaCode|MARWA|ClientConnectionName|Marshall_Wace_Cash|
M|309|0|8|I|20110224-08:46:25.738|291|8=FIX.4.0|9=268|35=8|34=309|49=ABN|56=MWAM|52=20110224-08:46:25|37=00352559LN|6=148.9236|14=76477|15=NOK|63=0|120=NOK|17=084625724|1=CASH|55=STL NO|58=12% POV(CASH)|11=P3357668|39=1|20=0|59=0|54=1|40=1|60=20110224-08:46:25|31=149.2000|32=6|75=20110224|38=209469|48=7133608|22=2|30=NO|10=127||2|AidaCode|MARWA|ClientConnectionName|Marshall_Wace_Cash|
M|310|0|8|I|20110224-08:46:29.449|293|8=FIX.4.0|9=270|35=8|34=310|49=ABN|56=MWAM|52=20110224-08:46:29|37=00352559LN|6=148.9243|14=76627|15=NOK|63=0|120=NOK|17=084629415|1=CASH|55=STL NO|58=12% POV(CASH)|11=P3357668|39=1|20=0|59=0|54=1|40=1|60=20110224-08:46:29|31=149.3000|32=150|75=20110224|38=209469|48=7133608|22=2|30=TQ|10=221||2|AidaCode|MARWA|ClientConnectionName|Marshall_Wace_Cash|
M|311|0|8|I|20110224-08:46:33.132|294|8=FIX.4.0|9=271|35=8|34=311|49=ABN|56=MWAM|52=20110224-08:46:33|37=00352559LN|6=148.9380|14=79515|15=NOK|63=0|120=NOK|17=084632875|1=CASH|55=STL NO|58=12% POV(CASH)|11=P3357668|39=1|20=0|59=0|54=1|40=1|60=20110224-08:46:32|31=149.3000|32=2888|75=20110224|38=209469|48=7133608|22=2|30=NO|10=021||2|AidaCode|MARWA|ClientConnectionName|Marshall_Wace_Cash|
M|312|0|8|I|20110224-08:46:33.555|293|8=FIX.4.0|9=270|35=8|34=312|49=ABN|56=MWAM|52=20110224-08:46:33|37=00352559LN|6=148.9397|14=79904|15=NOK|63=0|120=NOK|17=084633541|1=CASH|55=STL NO|58=12% POV(CASH)|11=P3357668|39=1|20=0|59=0|54=1|40=1|60=20110224-08:46:33|31=149.3000|32=389|75=20110224|38=209469|48=7133608|22=2|30=NO|10=225||2|AidaCode|MARWA|ClientConnectionName|Marshall_Wace_Cash|
M|313|0|8|I|20110224-08:46:34.430|293|8=FIX.4.0|9=270|35=8|34=313|49=ABN|56=MWAM|52=20110224-08:46:34|37=00352559LN|6=148.9410|14=80198|15=NOK|63=0|120=NOK|17=084634417|1=CASH|55=STL NO|58=12% POV(CASH)|11=P3357668|39=1|20=0|59=0|54=1|40=1|60=20110224-08:46:34|31=149.3000|32=294|75=20110224|38=209469|48=7133608|22=2|30=NO|10=209||2|AidaCode|MARWA|ClientConnectionName|Marshall_Wace_Cash|
M|314|0|8|I|20110224-08:46:35.407|293|8=FIX.4.0|9=270|35=8|34=314|49=ABN|56=MWAM|52=20110224-08:46:35|37=00352559LN|6=148.9441|14=80880|15=NOK|63=0|120=NOK|17=084635393|1=CASH|55=STL NO|58=12% POV(CASH)|11=P3357668|39=1|20=0|59=0|54=1|40=1|60=20110224-08:46:35|31=149.3000|32=682|75=20110224|38=209469|48=7133608|22=2|30=NO|10=219||2|AidaCode|MARWA|ClientConnectionName|Marshall_Wace_Cash|
M|315|0|8|I|20110224-08:46:35.734|293|8=FIX.4.0|9=270|35=8|34=315|49=ABN|56=MWAM|52=20110224-08:46:35|37=00352559LN|6=148.9449|14=81059|15=NOK|63=0|120=NOK|17=084635721|1=CASH|55=STL NO|58=12% POV(CASH)|11=P3357668|39=1|20=0|59=0|54=1|40=1|60=20110224-08:46:35|31=149.3000|32=179|75=20110224|38=209469|48=7133608|22=2|30=NO|10=223||2|AidaCode|MARWA|ClientConnectionName|Marshall_Wace_Cash|
M|316|0|8|I|20110224-08:46:37.825|293|8=FIX.4.0|9=270|35=8|34=316|49=ABN|56=MWAM|52=20110224-08:46:37|37=00352559LN|6=148.9468|14=81509|15=NOK|63=0|120=NOK|17=084637811|1=CASH|55=STL NO|58=12% POV(CASH)|11=P3357668|39=1|20=0|59=0|54=1|40=1|60=20110224-08:46:37|31=149.3000|32=450|75=20110224|38=209469|48=7133608|22=2|30=BY|10=221||2|AidaCode|MARWA|ClientConnectionName|Marshall_Wace_Cash|
M|317|0|8|I|20110224-08:46:37.830|294|8=FIX.4.0|9=271|35=8|34=317|49=ABN|56=MWAM|52=20110224-08:46:37|37=00352559LN|6=148.9553|14=83509|15=NOK|63=0|120=NOK|17=084637817|1=CASH|55=STL NO|58=12% POV(CASH)|11=P3357668|39=1|20=0|59=0|54=1|40=1|60=20110224-08:46:37|31=149.3000|32=2000|75=20110224|38=209469|48=7133608|22=2|30=NO|10=013||2|AidaCode|MARWA|ClientConnectionName|Marshall_Wace_Cash|
M|318|0|8|I|20110224-08:46:37.837|294|8=FIX.4.0|9=271|35=8|34=318|49=ABN|56=MWAM|52=20110224-08:46:37|37=00352559LN|6=148.9634|14=85525|15=NOK|63=0|120=NOK|17=084637823|1=CASH|55=STL NO|58=12% POV(CASH)|11=P3357668|39=1|20=0|59=0|54=1|40=1|60=20110224-08:46:37|31=149.3000|32=2016|75=20110224|38=209469|48=7133608|22=2|30=NO|10=018||2|AidaCode|MARWA|ClientConnectionName|Marshall_Wace_Cash|
M|319|0|8|I|20110224-08:46:41.554|294|8=FIX.4.0|9=271|35=8|34=319|49=ABN|56=MWAM|52=20110224-08:46:41|37=00352559LN|6=148.9720|14=88751|15=NOK|63=0|120=NOK|17=084641540|1=CASH|55=STL NO|58=12% POV(CASH)|11=P3357668|39=1|20=0|59=0|54=1|40=1|60=20110224-08:46:41|31=149.2000|32=3226|75=20110224|38=209469|48=7133608|22=2|30=NO|10=003||2|AidaCode|MARWA|ClientConnectionName|Marshall_Wace_Cash|
M|320|0|8|I|20110224-08:46:41.818|294|8=FIX.4.0|9=271|35=8|34=320|49=ABN|56=MWAM|52=20110224-08:46:41|37=00352559LN|6=148.9757|14=90214|15=NOK|63=0|120=NOK|17=084641803|1=CASH|55=STL NO|58=12% POV(CASH)|11=P3357668|39=1|20=0|59=0|54=1|40=1|60=20110224-08:46:41|31=149.2000|32=1463|75=20110224|38=209469|48=7133608|22=2|30=NO|10=251||2|AidaCode|MARWA|ClientConnectionName|Marshall_Wace_Cash|
M|321|0|8|I|20110224-08:46:41.991|293|8=FIX.4.0|9=270|35=8|34=321|49=ABN|56=MWAM|52=20110224-08:46:41|37=00352559LN|6=148.9770|14=90751|15=NOK|63=0|120=NOK|17=084641977|1=CASH|55=STL NO|58=12% POV(CASH)|11=P3357668|39=1|20=0|59=0|54=1|40=1|60=20110224-08:46:41|31=149.2000|32=537|75=20110224|38=209469|48=7133608|22=2|30=NO|10=217||2|AidaCode|MARWA|ClientConnectionName|Marshall_Wace_Cash|
M|322|0|8|I|20110224-08:46:42.307|292|8=FIX.4.0|9=269|35=8|34=322|49=ABN|56=MWAM|52=20110224-08:46:42|37=00352559LN|6=148.9771|14=90761|15=NOK|63=0|120=NOK|17=084642293|1=CASH|55=STL NO|58=12% POV(CASH)|11=P3357668|39=1|20=0|59=0|54=1|40=1|60=20110224-08:46:42|31=149.2000|32=10|75=20110224|38=209469|48=7133608|22=2|30=NO|10=160||2|AidaCode|MARWA|ClientConnectionName|Marshall_Wace_Cash|
M|323|0|8|I|20110224-08:46:42.511|294|8=FIX.4.0|9=271|35=8|34=323|49=ABN|56=MWAM|52=20110224-08:46:42|37=00352559LN|6=148.9796|14=91804|15=NOK|63=0|120=NOK|17=084642499|1=CASH|55=STL NO|58=12% POV(CASH)|11=P3357668|39=1|20=0|59=0|54=1|40=1|60=20110224-08:46:42|31=149.2000|32=1043|75=20110224|38=209469|48=7133608|22=2|30=NO|10=015||2|AidaCode|MARWA|ClientConnectionName|Marshall_Wace_Cash|
M|324|0|8|I|20110224-08:46:44.118|293|8=FIX.4.0|9=270|35=8|34=324|49=ABN|56=MWAM|52=20110224-08:46:44|37=00352559LN|6=148.9806|14=92247|15=NOK|63=0|120=NOK|17=084644098|1=CASH|55=STL NO|58=12% POV(CASH)|11=P3357668|39=1|20=0|59=0|54=1|40=1|60=20110224-08:46:44|31=149.2000|32=443|75=20110224|38=209469|48=7133608|22=2|30=NO|10=221||2|AidaCode|MARWA|ClientConnectionName|Marshall_Wace_Cash|
M|325|0|8|I|20110224-08:47:12.552|292|8=FIX.4.0|9=269|35=8|34=325|49=ABN|56=MWAM|52=20110224-08:47:12|37=00352559LN|6=148.9807|14=92273|15=NOK|63=0|120=NOK|17=084712291|1=CASH|55=STL NO|58=12% POV(CASH)|11=P3357668|39=1|20=0|59=0|54=1|40=1|60=20110224-08:47:12|31=149.3000|32=26|75=20110224|38=209469|48=7133608|22=2|30=TQ|10=171||2|AidaCode|MARWA|ClientConnectionName|Marshall_Wace_Cash|
M|326|0|8|I|20110224-08:47:12.558|293|8=FIX.4.0|9=270|35=8|34=326|49=ABN|56=MWAM|52=20110224-08:47:12|37=00352559LN|6=148.9816|14=92516|15=NOK|63=0|120=NOK|17=084712297|1=CASH|55=STL NO|58=12% POV(CASH)|11=P3357668|39=1|20=0|59=0|54=1|40=1|60=20110224-08:47:12|31=149.3000|32=243|75=20110224|38=209469|48=7133608|22=2|30=TQ|10=219||2|AidaCode|MARWA|ClientConnectionName|Marshall_Wace_Cash|
M|327|0|8|I|20110224-08:47:21.068|294|8=FIX.4.0|9=271|35=8|34=327|49=ABN|56=MWAM|52=20110224-08:47:21|37=00352559LN|6=148.9863|14=94547|15=NOK|63=0|120=NOK|17=084721054|1=CASH|55=STL NO|58=12% POV(CASH)|11=P3357668|39=1|20=0|59=0|54=1|40=1|60=20110224-08:47:21|31=149.2000|32=2031|75=20110224|38=209469|48=7133608|22=2|30=NO|10=000||2|AidaCode|MARWA|ClientConnectionName|Marshall_Wace_Cash|
M|328|0|8|I|20110224-08:47:28.435|294|8=FIX.4.0|9=271|35=8|34=328|49=ABN|56=MWAM|52=20110224-08:47:28|37=00352559LN|6=149.0006|14=99057|15=NOK|63=0|120=NOK|17=084728420|1=CASH|55=STL NO|58=12% POV(CASH)|11=P3357668|39=1|20=0|59=0|54=1|40=1|60=20110224-08:47:28|31=149.3000|32=4510|75=20110224|38=209469|48=7133608|22=2|30=NO|10=006||2|AidaCode|MARWA|ClientConnectionName|Marshall_Wace_Cash|
M|329|0|8|I|20110224-08:47:37.484|293|8=FIX.4.0|9=270|35=8|34=329|49=ABN|56=MWAM|52=20110224-08:47:37|37=00352559LN|6=149.0017|14=99454|15=NOK|63=0|120=NOK|17=084737469|1=CASH|55=STL NO|58=12% POV(CASH)|11=P3357668|39=1|20=0|59=0|54=1|40=1|60=20110224-08:47:37|31=149.3000|32=397|75=20110224|38=209469|48=7133608|22=2|30=NO|10=239||2|AidaCode|MARWA|ClientConnectionName|Marshall_Wace_Cash|
M|330|0|8|I|20110224-08:47:39.932|293|8=FIX.4.0|9=270|35=8|34=330|49=ABN|56=MWAM|52=20110224-08:47:39|37=00352559LN|6=149.0031|14=99903|15=NOK|63=0|120=NOK|17=084739918|1=CASH|55=STL NO|58=12% POV(CASH)|11=P3357668|39=1|20=0|59=0|54=1|40=1|60=20110224-08:47:39|31=149.3000|32=449|75=20110224|38=209469|48=7133608|22=2|30=NO|10=229||2|AidaCode|MARWA|ClientConnectionName|Marshall_Wace_Cash|
M|331|0|8|I|20110224-08:47:40.088|294|8=FIX.4.0|9=271|35=8|34=331|49=ABN|56=MWAM|52=20110224-08:47:40|37=00352559LN|6=149.0045|14=100379|15=NOK|63=0|120=NOK|17=084740074|1=CASH|55=STL NO|58=12% POV(CASH)|11=P3357668|39=1|20=0|59=0|54=1|40=1|60=20110224-08:47:40|31=149.3000|32=476|75=20110224|38=209469|48=7133608|22=2|30=NO|10=243||2|AidaCode|MARWA|ClientConnectionName|Marshall_Wace_Cash|
M|332|0|8|I|20110224-08:47:40.133|294|8=FIX.4.0|9=271|35=8|34=332|49=ABN|56=MWAM|52=20110224-08:47:40|37=00352559LN|6=149.0056|14=100749|15=NOK|63=0|120=NOK|17=084740118|1=CASH|55=STL NO|58=12% POV(CASH)|11=P3357668|39=1|20=0|59=0|54=1|40=1|60=20110224-08:47:40|31=149.3000|32=370|75=20110224|38=209469|48=7133608|22=2|30=SS|10=248||2|AidaCode|MARWA|ClientConnectionName|Marshall_Wace_Cash|
M|333|0|8|I|20110224-08:47:40.164|295|8=FIX.4.0|9=272|35=8|34=333|49=ABN|56=MWAM|52=20110224-08:47:40|37=00352559LN|6=149.0117|14=102874|15=NOK|63=0|120=NOK|17=084740123|1=CASH|55=STL NO|58=12% POV(CASH)|11=P3357668|39=1|20=0|59=0|54=1|40=1|60=20110224-08:47:40|31=149.3000|32=2125|75=20110224|38=209469|48=7133608|22=2|30=SS|10=037||2|AidaCode|MARWA|ClientConnectionName|Marshall_Wace_Cash|
M|334|0|8|I|20110224-08:47:40.171|294|8=FIX.4.0|9=271|35=8|34=334|49=ABN|56=MWAM|52=20110224-08:47:40|37=00352559LN|6=149.0138|14=103650|15=NOK|63=0|120=NOK|17=084740135|1=CASH|55=STL NO|58=12% POV(CASH)|11=P3357668|39=1|20=0|59=0|54=1|40=1|60=20110224-08:47:40|31=149.3000|32=776|75=20110224|38=209469|48=7133608|22=2|30=SS|10=254||2|AidaCode|MARWA|ClientConnectionName|Marshall_Wace_Cash|
M|335|0|8|I|20110224-08:47:40.176|294|8=FIX.4.0|9=271|35=8|34=335|49=ABN|56=MWAM|52=20110224-08:47:40|37=00352559LN|6=149.0159|14=104394|15=NOK|63=0|120=NOK|17=084740140|1=CASH|55=STL NO|58=12% POV(CASH)|11=P3357668|39=1|20=0|59=0|54=1|40=1|60=20110224-08:47:40|31=149.3000|32=744|75=20110224|38=209469|48=7133608|22=2|30=NO|10=246||2|AidaCode|MARWA|ClientConnectionName|Marshall_Wace_Cash|
