V|1.1|
M|1|0|A|I|20110224-06:45:04.883|80|8=FIX.4.0|9=58|35=A|49=MWAM|56=ABN|34=1|52=20110224-06:45:04|98=0|108=60|10=054||0|
M|2|0|0|I|20110224-06:45:05.829|79|8=FIX.4.0|9=57|35=0|49=MWAM|56=ABN|34=2|52=20110224-06:45:05|112=STBL-2|10=112||0|
M|3|0|0|I|20110224-06:46:05.818|68|8=FIX.4.0|9=46|35=0|49=MWAM|56=ABN|34=3|52=20110224-06:46:05|10=010||0|
M|4|0|0|I|20110224-06:47:05.818|68|8=FIX.4.0|9=46|35=0|49=MWAM|56=ABN|34=4|52=20110224-06:47:05|10=012||0|
M|5|0|0|I|20110224-06:48:05.819|68|8=FIX.4.0|9=46|35=0|49=MWAM|56=ABN|34=5|52=20110224-06:48:05|10=014||0|
M|6|0|0|I|20110224-06:49:05.820|68|8=FIX.4.0|9=46|35=0|49=MWAM|56=ABN|34=6|52=20110224-06:49:05|10=016||0|
M|7|0|0|I|20110224-06:50:05.821|68|8=FIX.4.0|9=46|35=0|49=MWAM|56=ABN|34=7|52=20110224-06:50:05|10=009||0|
M|8|0|0|I|20110224-06:51:05.820|68|8=FIX.4.0|9=46|35=0|49=MWAM|56=ABN|34=8|52=20110224-06:51:05|10=011||0|
M|9|0|0|I|20110224-06:52:05.822|68|8=FIX.4.0|9=46|35=0|49=MWAM|56=ABN|34=9|52=20110224-06:52:05|10=013||0|
M|10|0|0|I|20110224-06:53:05.821|69|8=FIX.4.0|9=47|35=0|49=MWAM|56=ABN|34=10|52=20110224-06:53:05|10=055||0|
M|11|0|0|I|20110224-06:54:05.823|69|8=FIX.4.0|9=47|35=0|49=MWAM|56=ABN|34=11|52=20110224-06:54:05|10=057||0|
M|12|0|0|I|20110224-06:55:05.823|69|8=FIX.4.0|9=47|35=0|49=MWAM|56=ABN|34=12|52=20110224-06:55:05|10=059||0|
M|13|0|0|I|20110224-06:56:05.823|69|8=FIX.4.0|9=47|35=0|49=MWAM|56=ABN|34=13|52=20110224-06:56:05|10=061||0|
M|14|0|0|I|20110224-06:57:05.824|69|8=FIX.4.0|9=47|35=0|49=MWAM|56=ABN|34=14|52=20110224-06:57:05|10=063||0|
M|15|0|0|I|20110224-06:58:05.823|69|8=FIX.4.0|9=47|35=0|49=MWAM|56=ABN|34=15|52=20110224-06:58:05|10=065||0|
M|16|0|0|I|20110224-06:59:05.824|69|8=FIX.4.0|9=47|35=0|49=MWAM|56=ABN|34=16|52=20110224-06:59:05|10=067||0|
M|17|0|0|I|20110224-07:00:05.829|69|8=FIX.4.0|9=47|35=0|49=MWAM|56=ABN|34=17|52=20110224-07:00:05|10=055||0|
M|18|0|0|I|20110224-07:01:05.826|69|8=FIX.4.0|9=47|35=0|49=MWAM|56=ABN|34=18|52=20110224-07:01:05|10=057||0|
M|19|0|0|I|20110224-07:02:05.826|69|8=FIX.4.0|9=47|35=0|49=MWAM|56=ABN|34=19|52=20110224-07:02:05|10=059||0|
M|20|0|0|I|20110224-07:03:05.825|69|8=FIX.4.0|9=47|35=0|49=MWAM|56=ABN|34=20|52=20110224-07:03:05|10=052||0|
M|21|0|0|I|20110224-07:04:05.826|69|8=FIX.4.0|9=47|35=0|49=MWAM|56=ABN|34=21|52=20110224-07:04:05|10=054||0|
M|22|0|0|I|20110224-07:05:05.826|69|8=FIX.4.0|9=47|35=0|49=MWAM|56=ABN|34=22|52=20110224-07:05:05|10=056||0|
M|23|0|0|I|20110224-07:06:05.826|69|8=FIX.4.0|9=47|35=0|49=MWAM|56=ABN|34=23|52=20110224-07:06:05|10=058||0|
M|24|0|0|I|20110224-07:07:05.828|69|8=FIX.4.0|9=47|35=0|49=MWAM|56=ABN|34=24|52=20110224-07:07:05|10=060||0|
M|25|0|0|I|20110224-07:08:05.828|69|8=FIX.4.0|9=47|35=0|49=MWAM|56=ABN|34=25|52=20110224-07:08:05|10=062||0|
M|26|0|0|I|20110224-07:09:05.828|69|8=FIX.4.0|9=47|35=0|49=MWAM|56=ABN|34=26|52=20110224-07:09:05|10=064||0|
M|27|0|0|I|20110224-07:10:05.828|69|8=FIX.4.0|9=47|35=0|49=MWAM|56=ABN|34=27|52=20110224-07:10:05|10=057||0|
M|28|0|0|I|20110224-07:11:05.830|69|8=FIX.4.0|9=47|35=0|49=MWAM|56=ABN|34=28|52=20110224-07:11:05|10=059||0|
M|29|0|0|I|20110224-07:12:05.829|69|8=FIX.4.0|9=47|35=0|49=MWAM|56=ABN|34=29|52=20110224-07:12:05|10=061||0|
M|30|0|0|I|20110224-07:13:05.831|69|8=FIX.4.0|9=47|35=0|49=MWAM|56=ABN|34=30|52=20110224-07:13:05|10=054||0|
M|31|0|0|I|20110224-07:14:05.831|69|8=FIX.4.0|9=47|35=0|49=MWAM|56=ABN|34=31|52=20110224-07:14:05|10=056||0|
M|32|0|0|I|20110224-07:15:05.831|69|8=FIX.4.0|9=47|35=0|49=MWAM|56=ABN|34=32|52=20110224-07:15:05|10=058||0|
M|33|0|0|I|20110224-07:16:05.832|69|8=FIX.4.0|9=47|35=0|49=MWAM|56=ABN|34=33|52=20110224-07:16:05|10=060||0|
M|34|0|0|I|20110224-07:17:05.832|69|8=FIX.4.0|9=47|35=0|49=MWAM|56=ABN|34=34|52=20110224-07:17:05|10=062||0|
M|35|0|0|I|20110224-07:18:05.833|69|8=FIX.4.0|9=47|35=0|49=MWAM|56=ABN|34=35|52=20110224-07:18:05|10=064||0|
M|36|0|0|I|20110224-07:19:05.832|69|8=FIX.4.0|9=47|35=0|49=MWAM|56=ABN|34=36|52=20110224-07:19:05|10=066||0|
M|37|0|0|I|20110224-07:20:05.833|69|8=FIX.4.0|9=47|35=0|49=MWAM|56=ABN|34=37|52=20110224-07:20:05|10=059||0|
M|38|0|0|I|20110224-07:21:05.833|69|8=FIX.4.0|9=47|35=0|49=MWAM|56=ABN|34=38|52=20110224-07:21:05|10=061||0|
M|39|0|0|I|20110224-07:22:05.833|69|8=FIX.4.0|9=47|35=0|49=MWAM|56=ABN|34=39|52=20110224-07:22:05|10=063||0|
M|40|0|0|I|20110224-07:23:05.835|69|8=FIX.4.0|9=47|35=0|49=MWAM|56=ABN|34=40|52=20110224-07:23:05|10=056||0|
M|41|0|0|I|20110224-07:24:05.836|69|8=FIX.4.0|9=47|35=0|49=MWAM|56=ABN|34=41|52=20110224-07:24:05|10=058||0|
M|42|0|0|I|20110224-07:25:05.836|69|8=FIX.4.0|9=47|35=0|49=MWAM|56=ABN|34=42|52=20110224-07:25:05|10=060||0|
M|43|0|0|I|20110224-07:26:05.836|69|8=FIX.4.0|9=47|35=0|49=MWAM|56=ABN|34=43|52=20110224-07:26:05|10=062||0|
M|44|0|0|I|20110224-07:27:05.836|69|8=FIX.4.0|9=47|35=0|49=MWAM|56=ABN|34=44|52=20110224-07:27:05|10=064||0|
M|45|0|0|I|20110224-07:28:05.836|69|8=FIX.4.0|9=47|35=0|49=MWAM|56=ABN|34=45|52=20110224-07:28:05|10=066||0|
M|46|0|0|I|20110224-07:29:05.838|69|8=FIX.4.0|9=47|35=0|49=MWAM|56=ABN|34=46|52=20110224-07:29:05|10=068||0|
M|47|0|0|I|20110224-07:30:05.837|69|8=FIX.4.0|9=47|35=0|49=MWAM|56=ABN|34=47|52=20110224-07:30:05|10=061||0|
M|48|0|0|I|20110224-07:31:05.838|69|8=FIX.4.0|9=47|35=0|49=MWAM|56=ABN|34=48|52=20110224-07:31:05|10=063||0|
M|49|0|0|I|20110224-07:32:05.839|69|8=FIX.4.0|9=47|35=0|49=MWAM|56=ABN|34=49|52=20110224-07:32:05|10=065||0|
M|50|0|0|I|20110224-07:33:05.839|69|8=FIX.4.0|9=47|35=0|49=MWAM|56=ABN|34=50|52=20110224-07:33:05|10=058||0|
M|51|0|0|I|20110224-07:34:05.839|69|8=FIX.4.0|9=47|35=0|49=MWAM|56=ABN|34=51|52=20110224-07:34:05|10=060||0|
M|52|0|0|I|20110224-07:35:05.839|69|8=FIX.4.0|9=47|35=0|49=MWAM|56=ABN|34=52|52=20110224-07:35:05|10=062||0|
M|53|0|0|I|20110224-07:36:05.840|69|8=FIX.4.0|9=47|35=0|49=MWAM|56=ABN|34=53|52=20110224-07:36:05|10=064||0|
M|54|0|0|I|20110224-07:37:05.840|69|8=FIX.4.0|9=47|35=0|49=MWAM|56=ABN|34=54|52=20110224-07:37:05|10=066||0|
M|55|0|0|I|20110224-07:38:05.842|69|8=FIX.4.0|9=47|35=0|49=MWAM|56=ABN|34=55|52=20110224-07:38:05|10=068||0|
M|56|0|0|I|20110224-07:39:05.841|69|8=FIX.4.0|9=47|35=0|49=MWAM|56=ABN|34=56|52=20110224-07:39:05|10=070||0|
M|57|0|0|I|20110224-07:40:05.850|69|8=FIX.4.0|9=47|35=0|49=MWAM|56=ABN|34=57|52=20110224-07:40:05|10=063||0|
M|58|0|0|I|20110224-07:41:05.842|69|8=FIX.4.0|9=47|35=0|49=MWAM|56=ABN|34=58|52=20110224-07:41:05|10=065||0|
M|59|0|0|I|20110224-07:42:05.844|69|8=FIX.4.0|9=47|35=0|49=MWAM|56=ABN|34=59|52=20110224-07:42:05|10=067||0|
M|60|0|0|I|20110224-07:43:05.844|69|8=FIX.4.0|9=47|35=0|49=MWAM|56=ABN|34=60|52=20110224-07:43:05|10=060||0|
M|61|0|0|I|20110224-07:44:05.845|69|8=FIX.4.0|9=47|35=0|49=MWAM|56=ABN|34=61|52=20110224-07:44:05|10=062||0|
M|62|0|0|I|20110224-07:45:05.844|69|8=FIX.4.0|9=47|35=0|49=MWAM|56=ABN|34=62|52=20110224-07:45:05|10=064||0|
M|63|0|0|I|20110224-07:46:05.845|69|8=FIX.4.0|9=47|35=0|49=MWAM|56=ABN|34=63|52=20110224-07:46:05|10=066||0|
M|64|0|0|I|20110224-07:47:05.845|69|8=FIX.4.0|9=47|35=0|49=MWAM|56=ABN|34=64|52=20110224-07:47:05|10=068||0|
M|65|0|0|I|20110224-07:48:05.846|69|8=FIX.4.0|9=47|35=0|49=MWAM|56=ABN|34=65|52=20110224-07:48:05|10=070||0|
M|66|0|0|I|20110224-07:49:05.847|69|8=FIX.4.0|9=47|35=0|49=MWAM|56=ABN|34=66|52=20110224-07:49:05|10=072||0|
M|67|0|0|I|20110224-07:50:05.848|69|8=FIX.4.0|9=47|35=0|49=MWAM|56=ABN|34=67|52=20110224-07:50:05|10=065||0|
M|68|0|0|I|20110224-07:51:05.847|69|8=FIX.4.0|9=47|35=0|49=MWAM|56=ABN|34=68|52=20110224-07:51:05|10=067||0|
M|69|0|0|I|20110224-07:52:05.847|69|8=FIX.4.0|9=47|35=0|49=MWAM|56=ABN|34=69|52=20110224-07:52:05|10=069||0|
M|70|0|0|I|20110224-07:53:05.848|69|8=FIX.4.0|9=47|35=0|49=MWAM|56=ABN|34=70|52=20110224-07:53:05|10=062||0|
M|71|0|0|I|20110224-07:54:05.849|69|8=FIX.4.0|9=47|35=0|49=MWAM|56=ABN|34=71|52=20110224-07:54:05|10=064||0|
M|72|0|0|I|20110224-07:55:05.852|69|8=FIX.4.0|9=47|35=0|49=MWAM|56=ABN|34=72|52=20110224-07:55:05|10=066||0|
M|73|0|0|I|20110224-07:56:05.849|69|8=FIX.4.0|9=47|35=0|49=MWAM|56=ABN|34=73|52=20110224-07:56:05|10=068||0|
M|74|0|0|I|20110224-07:57:05.850|69|8=FIX.4.0|9=47|35=0|49=MWAM|56=ABN|34=74|52=20110224-07:57:05|10=070||0|
M|75|0|0|I|20110224-07:58:05.849|69|8=FIX.4.0|9=47|35=0|49=MWAM|56=ABN|34=75|52=20110224-07:58:05|10=072||0|
M|76|0|0|I|20110224-07:59:05.850|69|8=FIX.4.0|9=47|35=0|49=MWAM|56=ABN|34=76|52=20110224-07:59:05|10=074||0|
M|77|0|0|I|20110224-08:00:05.851|69|8=FIX.4.0|9=47|35=0|49=MWAM|56=ABN|34=77|52=20110224-08:00:05|10=062||0|
M|78|0|0|I|20110224-08:01:05.851|69|8=FIX.4.0|9=47|35=0|49=MWAM|56=ABN|34=78|52=20110224-08:01:05|10=064||0|
M|79|0|0|I|20110224-08:02:05.856|69|8=FIX.4.0|9=47|35=0|49=MWAM|56=ABN|34=79|52=20110224-08:02:05|10=066||0|
M|80|0|0|I|20110224-08:03:05.852|69|8=FIX.4.0|9=47|35=0|49=MWAM|56=ABN|34=80|52=20110224-08:03:05|10=059||0|
M|81|0|0|I|20110224-08:04:05.853|69|8=FIX.4.0|9=47|35=0|49=MWAM|56=ABN|34=81|52=20110224-08:04:05|10=061||0|
M|82|0|0|I|20110224-08:05:05.853|69|8=FIX.4.0|9=47|35=0|49=MWAM|56=ABN|34=82|52=20110224-08:05:05|10=063||0|
M|83|0|0|I|20110224-08:06:05.853|69|8=FIX.4.0|9=47|35=0|49=MWAM|56=ABN|34=83|52=20110224-08:06:05|10=065||0|
M|84|0|0|I|20110224-08:07:05.854|69|8=FIX.4.0|9=47|35=0|49=MWAM|56=ABN|34=84|52=20110224-08:07:05|10=067||0|
M|85|0|0|I|20110224-08:08:05.855|69|8=FIX.4.0|9=47|35=0|49=MWAM|56=ABN|34=85|52=20110224-08:08:05|10=069||0|
M|86|0|0|I|20110224-08:09:05.855|69|8=FIX.4.0|9=47|35=0|49=MWAM|56=ABN|34=86|52=20110224-08:09:05|10=071||0|
M|87|0|0|I|20110224-08:10:05.855|69|8=FIX.4.0|9=47|35=0|49=MWAM|56=ABN|34=87|52=20110224-08:10:05|10=064||0|
M|88|0|0|I|20110224-08:11:05.856|69|8=FIX.4.0|9=47|35=0|49=MWAM|56=ABN|34=88|52=20110224-08:11:05|10=066||0|
M|89|0|0|I|20110224-08:12:05.857|69|8=FIX.4.0|9=47|35=0|49=MWAM|56=ABN|34=89|52=20110224-08:12:05|10=068||0|
M|90|0|0|I|20110224-08:13:05.856|69|8=FIX.4.0|9=47|35=0|49=MWAM|56=ABN|34=90|52=20110224-08:13:05|10=061||0|
M|91|0|0|I|20110224-08:14:05.857|69|8=FIX.4.0|9=47|35=0|49=MWAM|56=ABN|34=91|52=20110224-08:14:05|10=063||0|
M|92|0|0|I|20110224-08:15:05.858|69|8=FIX.4.0|9=47|35=0|49=MWAM|56=ABN|34=92|52=20110224-08:15:05|10=065||0|
M|93|0|0|I|20110224-08:16:05.858|69|8=FIX.4.0|9=47|35=0|49=MWAM|56=ABN|34=93|52=20110224-08:16:05|10=067||0|
M|94|0|0|I|20110224-08:17:05.859|69|8=FIX.4.0|9=47|35=0|49=MWAM|56=ABN|34=94|52=20110224-08:17:05|10=069||0|
M|95|0|0|I|20110224-08:18:05.860|69|8=FIX.4.0|9=47|35=0|49=MWAM|56=ABN|34=95|52=20110224-08:18:05|10=071||0|
M|96|0|0|I|20110224-08:19:05.859|69|8=FIX.4.0|9=47|35=0|49=MWAM|56=ABN|34=96|52=20110224-08:19:05|10=073||0|
M|97|0|0|I|20110224-08:20:05.859|69|8=FIX.4.0|9=47|35=0|49=MWAM|56=ABN|34=97|52=20110224-08:20:05|10=066||0|
M|98|0|0|I|20110224-08:21:05.861|69|8=FIX.4.0|9=47|35=0|49=MWAM|56=ABN|34=98|52=20110224-08:21:05|10=068||0|
M|99|0|0|I|20110224-08:22:05.860|69|8=FIX.4.0|9=47|35=0|49=MWAM|56=ABN|34=99|52=20110224-08:22:05|10=070||0|
M|100|0|0|I|20110224-08:23:05.861|70|8=FIX.4.0|9=48|35=0|49=MWAM|56=ABN|34=100|52=20110224-08:23:05|10=103||0|
M|101|0|0|I|20110224-08:24:05.861|70|8=FIX.4.0|9=48|35=0|49=MWAM|56=ABN|34=101|52=20110224-08:24:05|10=105||0|
M|102|0|0|I|20110224-08:25:05.863|70|8=FIX.4.0|9=48|35=0|49=MWAM|56=ABN|34=102|52=20110224-08:25:05|10=107||0|
M|103|0|0|I|20110224-08:26:05.862|70|8=FIX.4.0|9=48|35=0|49=MWAM|56=ABN|34=103|52=20110224-08:26:05|10=109||0|
M|104|0|0|I|20110224-08:27:05.864|70|8=FIX.4.0|9=48|35=0|49=MWAM|56=ABN|34=104|52=20110224-08:27:05|10=111||0|
M|105|0|0|I|20110224-08:28:05.863|70|8=FIX.4.0|9=48|35=0|49=MWAM|56=ABN|34=105|52=20110224-08:28:05|10=113||0|
M|106|0|0|I|20110224-08:29:05.864|70|8=FIX.4.0|9=48|35=0|49=MWAM|56=ABN|34=106|52=20110224-08:29:05|10=115||0|
M|107|0|0|I|20110224-08:30:05.865|70|8=FIX.4.0|9=48|35=0|49=MWAM|56=ABN|34=107|52=20110224-08:30:05|10=108||0|
M|108|0|0|I|20110224-08:31:05.864|70|8=FIX.4.0|9=48|35=0|49=MWAM|56=ABN|34=108|52=20110224-08:31:05|10=110||0|
M|109|0|0|I|20110224-08:32:05.866|70|8=FIX.4.0|9=48|35=0|49=MWAM|56=ABN|34=109|52=20110224-08:32:05|10=112||0|
M|110|0|0|I|20110224-08:33:05.866|70|8=FIX.4.0|9=48|35=0|49=MWAM|56=ABN|34=110|52=20110224-08:33:05|10=105||0|
M|111|0|D|I|20110224-08:33:20.050|195|8=FIX.4.0|9=172|35=D|49=MWAM|56=ABN|34=111|52=20110224-08:33:20|11=P3357627|1=CASH|21=3|55=STL NO|48=7133608|22=2|54=1|38=3278|40=1|15=NOK|59=0|58=3% POV|847=3|6003=3|6004=2|6017=1|6022=3|10=086||0|
M|112|0|F|I|20110224-08:33:20.190|143|8=FIX.4.0|9=120|35=F|49=MWAM|56=ABN|34=112|52=20110224-08:33:20|41=P3357627|11=P3357627-C1|125=F|55=STL NO|48=7133608|22=2|54=1|38=3278|10=190||0|
M|113|0|D|I|20110224-08:33:20.667|195|8=FIX.4.0|9=172|35=D|49=MWAM|56=ABN|34=113|52=20110224-08:33:20|11=P3357629|1=CASH|21=3|55=STL NO|48=7133608|22=2|54=1|38=9295|40=1|15=NOK|59=0|58=3% POV|847=3|6003=3|6004=2|6017=1|6022=3|10=095||0|
M|114|0|0|I|20110224-08:34:20.647|70|8=FIX.4.0|9=48|35=0|49=MWAM|56=ABN|34=114|52=20110224-08:34:20|10=107||0|
M|115|0|0|I|20110224-08:35:20.648|70|8=FIX.4.0|9=48|35=0|49=MWAM|56=ABN|34=115|52=20110224-08:35:20|10=109||0|
M|116|0|F|I|20110224-08:35:45.021|143|8=FIX.4.0|9=120|35=F|49=MWAM|56=ABN|34=116|52=20110224-08:35:44|41=P3357629|11=P3357629-C1|125=F|55=STL NO|48=7133608|22=2|54=1|38=9295|10=211||0|
M|117|0|D|I|20110224-08:35:45.557|195|8=FIX.4.0|9=172|35=D|49=MWAM|56=ABN|34=117|52=20110224-08:35:45|11=P3357642|1=CASH|21=3|55=STL NO|48=7133608|22=2|54=1|38=6950|40=1|15=NOK|59=0|58=3% POV|847=3|6003=3|6004=2|6017=1|6022=3|10=098||0|
M|118|0|0|I|20110224-08:36:45.540|70|8=FIX.4.0|9=48|35=0|49=MWAM|56=ABN|34=118|52=20110224-08:36:45|10=120||0|
M|119|0|0|I|20110224-08:37:45.540|70|8=FIX.4.0|9=48|35=0|49=MWAM|56=ABN|34=119|52=20110224-08:37:45|10=122||0|
M|120|0|0|I|20110224-08:38:45.540|70|8=FIX.4.0|9=48|35=0|49=MWAM|56=ABN|34=120|52=20110224-08:38:45|10=115||0|
M|121|0|D|I|20110224-08:39:19.693|201|8=FIX.4.0|9=178|35=D|49=MWAM|56=ABN|34=121|52=20110224-08:39:19|11=P3357661|1=CASH|21=3|55=ELUXB SS|48=B1KKBX6|22=2|54=1|38=11438|40=1|15=SEK|59=0|58=20% POV|847=3|6003=20|6004=2|6017=1|6022=20|10=033||0|
M|122|0|D|I|20110224-08:39:22.183|197|8=FIX.4.0|9=174|35=D|49=MWAM|56=ABN|34=122|52=20110224-08:39:22|11=P3357662|1=CASH|21=3|55=STL NO|48=7133608|22=2|54=1|38=210413|40=1|15=NOK|59=0|58=3% POV|847=3|6003=3|6004=2|6017=1|6022=3|10=184||0|
M|123|0|F|I|20110224-08:39:57.665|145|8=FIX.4.0|9=122|35=F|49=MWAM|56=ABN|34=123|52=20110224-08:39:57|41=P3357662|11=P3357662-C1|125=F|55=STL NO|48=7133608|22=2|54=1|38=210413|10=039||0|
M|124|0|D|I|20110224-08:39:58.132|200|8=FIX.4.0|9=177|35=D|49=MWAM|56=ABN|34=124|52=20110224-08:39:58|11=P3357668|1=CASH|21=3|55=STL NO|48=7133608|22=2|54=1|38=209469|40=1|15=NOK|59=0|58=12% POV|847=3|6003=12|6004=2|6017=1|6022=12|10=111||0|
M|125|0|0|I|20110224-08:40:58.119|70|8=FIX.4.0|9=48|35=0|49=MWAM|56=ABN|34=125|52=20110224-08:40:58|10=117||0|
M|126|0|0|I|20110224-08:41:58.120|70|8=FIX.4.0|9=48|35=0|49=MWAM|56=ABN|34=126|52=20110224-08:41:58|10=119||0|
M|127|0|0|I|20110224-08:42:58.121|70|8=FIX.4.0|9=48|35=0|49=MWAM|56=ABN|34=127|52=20110224-08:42:58|10=121||0|
M|128|0|0|I|20110224-08:43:58.120|70|8=FIX.4.0|9=48|35=0|49=MWAM|56=ABN|34=128|52=20110224-08:43:58|10=123||0|
M|129|0|0|I|20110224-08:44:58.122|70|8=FIX.4.0|9=48|35=0|49=MWAM|56=ABN|34=129|52=20110224-08:44:58|10=125||0|
M|130|0|0|I|20110224-08:45:58.121|70|8=FIX.4.0|9=48|35=0|49=MWAM|56=ABN|34=130|52=20110224-08:45:58|10=118||0|
M|131|0|0|I|20110224-08:46:58.122|70|8=FIX.4.0|9=48|35=0|49=MWAM|56=ABN|34=131|52=20110224-08:46:58|10=120||0|
M|132|0|0|I|20110224-08:47:58.123|70|8=FIX.4.0|9=48|35=0|49=MWAM|56=ABN|34=132|52=20110224-08:47:58|10=122||0|
M|133|0|0|I|20110224-08:48:58.122|70|8=FIX.4.0|9=48|35=0|49=MWAM|56=ABN|34=133|52=20110224-08:48:58|10=124||0|
M|134|0|0|I|20110224-08:49:58.123|70|8=FIX.4.0|9=48|35=0|49=MWAM|56=ABN|34=134|52=20110224-08:49:58|10=126||0|
M|135|0|0|I|20110224-08:50:58.124|70|8=FIX.4.0|9=48|35=0|49=MWAM|56=ABN|34=135|52=20110224-08:50:58|10=119||0|
M|136|0|0|I|20110224-08:51:58.125|70|8=FIX.4.0|9=48|35=0|49=MWAM|56=ABN|34=136|52=20110224-08:51:58|10=121||0|
M|137|0|0|I|20110224-08:52:58.124|70|8=FIX.4.0|9=48|35=0|49=MWAM|56=ABN|34=137|52=20110224-08:52:58|10=123||0|
M|138|0|D|I|20110224-08:53:28.719|197|8=FIX.4.0|9=174|35=D|49=MWAM|56=ABN|34=138|52=20110224-08:53:28|11=P3357754|1=CASH|21=3|55=SDRL NO|48=B09RMQ1|22=2|54=1|38=26543|40=1|15=NOK|59=0|58=3% POV|847=3|6003=3|6004=2|6017=1|6022=3|10=062||0|
M|139|0|F|I|20110224-08:53:29.048|145|8=FIX.4.0|9=122|35=F|49=MWAM|56=ABN|34=139|52=20110224-08:53:28|41=P3357754|11=P3357754-C1|125=F|55=SDRL NO|48=B09RMQ1|22=2|54=1|38=26543|10=167||0|
M|140|0|D|I|20110224-08:53:29.498|197|8=FIX.4.0|9=174|35=D|49=MWAM|56=ABN|34=140|52=20110224-08:53:29|11=P3357755|1=CASH|21=3|55=SDRL NO|48=B09RMQ1|22=2|54=1|38=57123|40=1|15=NOK|59=0|58=3% POV|847=3|6003=3|6004=2|6017=1|6022=3|10=055||0|
M|141|0|0|I|20110224-08:54:29.485|70|8=FIX.4.0|9=48|35=0|49=MWAM|56=ABN|34=141|52=20110224-08:54:29|10=118||0|
M|142|0|0|I|20110224-08:55:29.485|70|8=FIX.4.0|9=48|35=0|49=MWAM|56=ABN|34=142|52=20110224-08:55:29|10=120||0|
M|143|0|0|I|20110224-08:56:29.485|70|8=FIX.4.0|9=48|35=0|49=MWAM|56=ABN|34=143|52=20110224-08:56:29|10=122||0|
M|144|0|0|I|20110224-08:57:29.487|70|8=FIX.4.0|9=48|35=0|49=MWAM|56=ABN|34=144|52=20110224-08:57:29|10=124||0|
M|145|0|0|I|20110224-08:58:29.487|70|8=FIX.4.0|9=48|35=0|49=MWAM|56=ABN|34=145|52=20110224-08:58:29|10=126||0|
M|146|0|0|I|20110224-08:59:29.489|70|8=FIX.4.0|9=48|35=0|49=MWAM|56=ABN|34=146|52=20110224-08:59:29|10=128||0|
M|147|0|0|I|20110224-09:00:29.487|70|8=FIX.4.0|9=48|35=0|49=MWAM|56=ABN|34=147|52=20110224-09:00:29|10=116||0|
M|148|0|0|I|20110224-09:01:29.488|70|8=FIX.4.0|9=48|35=0|49=MWAM|56=ABN|34=148|52=20110224-09:01:29|10=118||0|
M|149|0|0|I|20110224-09:02:29.488|70|8=FIX.4.0|9=48|35=0|49=MWAM|56=ABN|34=149|52=20110224-09:02:29|10=120||0|
M|150|0|0|I|20110224-09:03:29.488|70|8=FIX.4.0|9=48|35=0|49=MWAM|56=ABN|34=150|52=20110224-09:03:29|10=113||0|
M|151|0|0|I|20110224-09:04:29.490|70|8=FIX.4.0|9=48|35=0|49=MWAM|56=ABN|34=151|52=20110224-09:04:29|10=115||0|
M|152|0|0|I|20110224-09:05:29.489|70|8=FIX.4.0|9=48|35=0|49=MWAM|56=ABN|34=152|52=20110224-09:05:29|10=117||0|
M|153|0|D|I|20110224-09:05:33.526|274|8=FIX.4.0|9=251|35=D|49=MWAM|56=ABN|34=153|52=20110224-09:05:33|11=P3357831|1=DBAGENCY|21=3|55=RSA LN|48=0661689|22=2|54=2|38=1069545|40=1|15=GBP|59=0|58=Acting as agent for Deutsche Bank AG and subject to ratification by DB: 3% POV|847=3|6003=3|6004=2|6017=1|6022=3|10=244||0|
M|154|0|F|I|20110224-09:05:51.815|146|8=FIX.4.0|9=123|35=F|49=MWAM|56=ABN|34=154|52=20110224-09:05:51|41=P3357831|11=P3357831-C1|125=F|55=RSA LN|48=0661689|22=2|54=2|38=1069545|10=088||0|
M|155|0|0|I|20110224-09:06:51.803|70|8=FIX.4.0|9=48|35=0|49=MWAM|56=ABN|34=155|52=20110224-09:06:51|10=116||0|
M|156|0|0|I|20110224-09:07:51.803|70|8=FIX.4.0|9=48|35=0|49=MWAM|56=ABN|34=156|52=20110224-09:07:51|10=118||0|
M|157|0|F|I|20110224-09:08:23.968|145|8=FIX.4.0|9=122|35=F|49=MWAM|56=ABN|34=157|52=20110224-09:08:23|41=P3357755|11=P3357755-C1|125=F|55=SDRL NO|48=B09RMQ1|22=2|54=1|38=57123|10=163||0|
M|158|0|D|I|20110224-09:08:24.491|197|8=FIX.4.0|9=174|35=D|49=MWAM|56=ABN|34=158|52=20110224-09:08:24|11=P3357852|1=CASH|21=3|55=SDRL NO|48=B09RMQ1|22=2|54=1|38=50894|40=1|15=NOK|59=0|58=7% POV|847=3|6003=7|6004=2|6017=1|6022=7|10=078||0|
M|159|0|0|I|20110224-09:09:24.476|70|8=FIX.4.0|9=48|35=0|49=MWAM|56=ABN|34=159|52=20110224-09:09:24|10=123||0|
M|160|0|0|I|20110224-09:10:24.476|70|8=FIX.4.0|9=48|35=0|49=MWAM|56=ABN|34=160|52=20110224-09:10:24|10=107||0|
M|161|0|0|I|20110224-09:11:24.476|70|8=FIX.4.0|9=48|35=0|49=MWAM|56=ABN|34=161|52=20110224-09:11:24|10=109||0|
M|162|0|D|I|20110224-09:11:39.928|198|8=FIX.4.0|9=175|35=D|49=MWAM|56=ABN|34=162|52=20110224-09:11:39|11=P3357857|1=CASH|21=3|55=AKE FP|48=B0Z5YZ2|22=2|54=2|38=4881|40=1|15=EUR|59=0|58=20% POV|847=3|6003=20|6004=2|6017=1|6022=20|10=079||0|
M|163|0|0|I|20110224-09:12:39.915|70|8=FIX.4.0|9=48|35=0|49=MWAM|56=ABN|34=163|52=20110224-09:12:39|10=118||0|
M|164|0|0|I|20110224-09:13:39.916|70|8=FIX.4.0|9=48|35=0|49=MWAM|56=ABN|34=164|52=20110224-09:13:39|10=120||0|
M|165|0|D|I|20110224-09:13:59.262|198|8=FIX.4.0|9=175|35=D|49=MWAM|56=ABN|34=165|52=20110224-09:13:59|11=P3357858|1=CASH|21=3|55=BMW GY|48=5756029|22=2|54=2|38=4402|40=1|15=EUR|59=0|58=20% POV|847=3|6003=20|6004=2|6017=1|6022=20|10=247||0|
M|166|0|D|I|20110224-09:14:10.550|198|8=FIX.4.0|9=175|35=D|49=MWAM|56=ABN|34=166|52=20110224-09:14:10|11=P3357859|1=CASH|21=3|55=VOW GY|48=5497102|22=2|54=1|38=1460|40=1|15=EUR|59=0|58=20% POV|847=3|6003=20|6004=2|6017=1|6022=20|10=253||0|
M|167|0|0|I|20110224-09:15:10.541|70|8=FIX.4.0|9=48|35=0|49=MWAM|56=ABN|34=167|52=20110224-09:15:10|10=114||0|
M|168|0|D|I|20110224-09:15:16.547|197|8=FIX.4.0|9=174|35=D|49=MWAM|56=ABN|34=168|52=20110224-09:15:16|11=P3357861|1=CASH|21=3|55=F IM|48=5748521|22=2|54=2|38=37808|40=1|15=EUR|59=0|58=20% POV|847=3|6003=20|6004=2|6017=1|6022=20|10=130||0|
M|169|0|F|I|20110224-09:15:27.096|143|8=FIX.4.0|9=120|35=F|49=MWAM|56=ABN|34=169|52=20110224-09:15:27|41=P3357859|11=P3357859-C1|125=F|55=VOW GY|48=5497102|22=2|54=1|38=1460|10=227||0|
M|170|0|D|I|20110224-09:15:29.294|198|8=FIX.4.0|9=175|35=D|49=MWAM|56=ABN|34=170|52=20110224-09:15:29|11=P3357862|1=CASH|21=3|55=VOW GY|48=5497102|22=2|54=1|38=2920|40=1|15=EUR|59=0|58=20% POV|847=3|6003=20|6004=2|6017=1|6022=20|10=255||0|
M|171|0|D|I|20110224-09:15:57.915|195|8=FIX.4.0|9=172|35=D|49=MWAM|56=ABN|34=171|52=20110224-09:15:57|11=P3357902|1=CASH|21=3|55=SU FP|48=4834108|22=2|54=2|38=15049|40=1|15=EUR|59=0|58=3% POV|847=3|6003=3|6004=2|6017=1|6022=3|10=069||0|
M|172|0|F|I|20110224-09:16:31.643|143|8=FIX.4.0|9=120|35=F|49=MWAM|56=ABN|34=172|52=20110224-09:16:31|41=P3357902|11=P3357902-C1|125=F|55=SU FP|48=4834108|22=2|54=2|38=15049|10=158||0|
M|173|0|D|I|20110224-09:16:32.251|198|8=FIX.4.0|9=175|35=D|49=MWAM|56=ABN|34=173|52=20110224-09:16:32|11=P3357905|1=CASH|21=3|55=SU FP|48=4834108|22=2|54=2|38=15037|40=1|15=EUR|59=0|58=16% POV|847=3|6003=16|6004=2|6017=1|6022=16|10=224||0|
M|174|0|F|I|20110224-09:16:41.614|143|8=FIX.4.0|9=120|35=F|49=MWAM|56=ABN|34=174|52=20110224-09:16:41|41=P3357862|11=P3357862-C1|125=F|55=VOW GY|48=5497102|22=2|54=1|38=2920|10=210||0|
M|175|0|0|I|20110224-09:17:41.620|70|8=FIX.4.0|9=48|35=0|49=MWAM|56=ABN|34=175|52=20110224-09:17:41|10=119||0|
M|176|0|0|I|20110224-09:18:41.620|70|8=FIX.4.0|9=48|35=0|49=MWAM|56=ABN|34=176|52=20110224-09:18:41|10=121||0|
M|177|0|0|I|20110224-09:19:41.621|70|8=FIX.4.0|9=48|35=0|49=MWAM|56=ABN|34=177|52=20110224-09:19:41|10=123||0|
M|178|0|0|I|20110224-09:20:41.621|70|8=FIX.4.0|9=48|35=0|49=MWAM|56=ABN|34=178|52=20110224-09:20:41|10=116||0|
M|179|0|0|I|20110224-09:21:41.622|70|8=FIX.4.0|9=48|35=0|49=MWAM|56=ABN|34=179|52=20110224-09:21:41|10=118||0|
M|180|0|0|I|20110224-09:22:41.623|70|8=FIX.4.0|9=48|35=0|49=MWAM|56=ABN|34=180|52=20110224-09:22:41|10=111||0|
M|181|0|0|I|20110224-09:23:41.623|70|8=FIX.4.0|9=48|35=0|49=MWAM|56=ABN|34=181|52=20110224-09:23:41|10=113||0|
M|182|0|0|I|20110224-09:24:41.622|70|8=FIX.4.0|9=48|35=0|49=MWAM|56=ABN|34=182|52=20110224-09:24:41|10=115||0|
M|183|0|0|I|20110224-09:25:41.623|70|8=FIX.4.0|9=48|35=0|49=MWAM|56=ABN|34=183|52=20110224-09:25:41|10=117||0|
M|184|0|0|I|20110224-09:26:41.623|70|8=FIX.4.0|9=48|35=0|49=MWAM|56=ABN|34=184|52=20110224-09:26:41|10=119||0|
M|185|0|0|I|20110224-09:27:41.625|70|8=FIX.4.0|9=48|35=0|49=MWAM|56=ABN|34=185|52=20110224-09:27:41|10=121||0|
M|186|0|0|I|20110224-09:28:41.625|70|8=FIX.4.0|9=48|35=0|49=MWAM|56=ABN|34=186|52=20110224-09:28:41|10=123||0|
M|187|0|0|I|20110224-09:29:41.625|70|8=FIX.4.0|9=48|35=0|49=MWAM|56=ABN|34=187|52=20110224-09:29:41|10=125||0|
M|188|0|0|I|20110224-09:30:41.625|70|8=FIX.4.0|9=48|35=0|49=MWAM|56=ABN|34=188|52=20110224-09:30:41|10=118||0|
M|189|0|0|I|20110224-09:31:41.625|70|8=FIX.4.0|9=48|35=0|49=MWAM|56=ABN|34=189|52=20110224-09:31:41|10=120||0|
M|190|0|D|I|20110224-09:32:28.176|273|8=FIX.4.0|9=250|35=D|49=MWAM|56=ABN|34=190|52=20110224-09:32:28|11=P3358006|1=DBAGENCY|21=3|55=CPI LN|48=B23K0M2|22=2|54=2|38=328924|40=1|15=GBP|59=0|58=Acting as agent for Deutsche Bank AG and subject to ratification by DB: 3% POV|847=3|6003=3|6004=2|6017=1|6022=3|10=228||0|
M|191|0|F|I|20110224-09:32:31.950|145|8=FIX.4.0|9=122|35=F|49=MWAM|56=ABN|34=191|52=20110224-09:32:31|41=P3358006|11=P3358006-C1|125=F|55=CPI LN|48=B23K0M2|22=2|54=2|38=328924|10=061||0|
M|192|0|0|I|20110224-09:33:31.940|70|8=FIX.4.0|9=48|35=0|49=MWAM|56=ABN|34=192|52=20110224-09:33:31|10=115||0|
M|193|0|0|I|20110224-09:34:31.940|70|8=FIX.4.0|9=48|35=0|49=MWAM|56=ABN|34=193|52=20110224-09:34:31|10=117||0|
M|194|0|0|I|20110224-09:35:31.941|70|8=FIX.4.0|9=48|35=0|49=MWAM|56=ABN|34=194|52=20110224-09:35:31|10=119||0|
M|195|0|0|I|20110224-09:36:31.941|70|8=FIX.4.0|9=48|35=0|49=MWAM|56=ABN|34=195|52=20110224-09:36:31|10=121||0|
M|196|0|D|I|20110224-09:37:09.189|272|8=FIX.4.0|9=249|35=D|49=MWAM|56=ABN|34=196|52=20110224-09:37:09|11=P3358017|1=DBAGENCY|21=3|55=TPK LN|48=0773960|22=2|54=1|38=14444|40=1|15=GBP|59=0|58=Acting as agent for Deutsche Bank AG and subject to ratification by DB: 3% POV|847=3|6003=3|6004=2|6017=1|6022=3|10=158||0|
M|197|0|F|I|20110224-09:37:09.604|144|8=FIX.4.0|9=121|35=F|49=MWAM|56=ABN|34=197|52=20110224-09:37:09|41=P3358017|11=P3358017-C1|125=F|55=TPK LN|48=0773960|22=2|54=1|38=14444|10=246||0|
M|198|0|D|I|20110224-09:37:09.883|272|8=FIX.4.0|9=249|35=D|49=MWAM|56=ABN|34=198|52=20110224-09:37:09|11=P3358019|1=DBAGENCY|21=3|55=TPK LN|48=0773960|22=2|54=1|38=27196|40=1|15=GBP|59=0|58=Acting as agent for Deutsche Bank AG and subject to ratification by DB: 3% POV|847=3|6003=3|6004=2|6017=1|6022=3|10=170||0|
M|199|0|F|I|20110224-09:37:24.395|144|8=FIX.4.0|9=121|35=F|49=MWAM|56=ABN|34=199|52=20110224-09:37:24|41=P3358019|11=P3358019-C1|125=F|55=TPK LN|48=0773960|22=2|54=1|38=27196|10=001||0|
M|200|0|D|I|20110224-09:37:24.997|272|8=FIX.4.0|9=249|35=D|49=MWAM|56=ABN|34=200|52=20110224-09:37:24|11=P3358021|1=DBAGENCY|21=3|55=TPK LN|48=0773960|22=2|54=1|38=68188|40=1|15=GBP|59=0|58=Acting as agent for Deutsche Bank AG and subject to ratification by DB: 3% POV|847=3|6003=3|6004=2|6017=1|6022=3|10=150||0|
M|201|0|F|I|20110224-09:37:51.850|144|8=FIX.4.0|9=121|35=F|49=MWAM|56=ABN|34=201|52=20110224-09:37:51|41=P3358021|11=P3358021-C1|125=F|55=TPK LN|48=0773960|22=2|54=1|38=68188|10=233||0|
M|202|0|D|I|20110224-09:37:52.898|275|8=FIX.4.0|9=252|35=D|49=MWAM|56=ABN|34=202|52=20110224-09:37:52|11=P3358022|1=DBAGENCY|21=3|55=TPK LN|48=0773960|22=2|54=1|38=68157|40=1|15=GBP|59=0|58=Acting as agent for Deutsche Bank AG and subject to ratification by DB: 16% POV|847=3|6003=16|6004=2|6017=1|6022=16|10=044||0|
M|203|0|0|I|20110224-09:38:52.879|70|8=FIX.4.0|9=48|35=0|49=MWAM|56=ABN|34=203|52=20110224-09:38:52|10=116||0|
M|204|0|0|I|20110224-09:39:52.879|70|8=FIX.4.0|9=48|35=0|49=MWAM|56=ABN|34=204|52=20110224-09:39:52|10=118||0|
M|205|0|F|I|20110224-09:40:51.235|145|8=FIX.4.0|9=122|35=F|49=MWAM|56=ABN|34=205|52=20110224-09:40:51|41=P3357852|11=P3357852-C1|125=F|55=SDRL NO|48=B09RMQ1|22=2|54=1|38=50894|10=158||0|
M|206|0|D|I|20110224-09:40:51.840|197|8=FIX.4.0|9=174|35=D|49=MWAM|56=ABN|34=206|52=20110224-09:40:51|11=P3358031|1=CASH|21=3|55=SDRL NO|48=B09RMQ1|22=2|54=1|38=40627|40=1|15=NOK|59=0|58=3% POV|847=3|6003=3|6004=2|6017=1|6022=3|10=039||0|
M|207|0|0|I|20110224-09:41:51.834|70|8=FIX.4.0|9=48|35=0|49=MWAM|56=ABN|34=207|52=20110224-09:41:51|10=113||0|
M|208|0|D|I|20110224-09:42:32.609|196|8=FIX.4.0|9=173|35=D|49=MWAM|56=ABN|34=208|52=20110224-09:42:32|11=P3358052|1=CASH|21=3|55=ALO FP|48=B0DJ8Q5|22=2|54=1|38=38239|40=1|15=EUR|59=0|58=3% POV|847=3|6003=3|6004=2|6017=1|6022=3|10=200||0|
M|209|0|0|I|20110224-09:43:32.601|70|8=FIX.4.0|9=48|35=0|49=MWAM|56=ABN|34=209|52=20110224-09:43:32|10=116||0|
M|210|0|F|I|20110224-09:43:57.746|145|8=FIX.4.0|9=122|35=F|49=MWAM|56=ABN|34=210|52=20110224-09:43:57|41=P3358031|11=P3358031-C1|125=F|55=SDRL NO|48=B09RMQ1|22=2|54=1|38=40627|10=136||0|
M|211|0|D|I|20110224-09:43:58.014|197|8=FIX.4.0|9=174|35=D|49=MWAM|56=ABN|34=211|52=20110224-09:43:57|11=P3358054|1=CASH|21=3|55=SDRL NO|48=B09RMQ1|22=2|54=1|38=40167|40=1|15=NOK|59=0|58=7% POV|847=3|6003=7|6004=2|6017=1|6022=7|10=060||0|
M|212|0|0|I|20110224-09:44:59.167|70|8=FIX.4.0|9=48|35=0|49=MWAM|56=ABN|34=212|52=20110224-09:44:59|10=120||0|
M|213|0|0|I|20110224-09:45:59.164|70|8=FIX.4.0|9=48|35=0|49=MWAM|56=ABN|34=213|52=20110224-09:45:59|10=122||0|
M|214|0|0|I|20110224-09:46:59.165|70|8=FIX.4.0|9=48|35=0|49=MWAM|56=ABN|34=214|52=20110224-09:46:59|10=124||0|
M|215|0|0|I|20110224-09:47:59.165|70|8=FIX.4.0|9=48|35=0|49=MWAM|56=ABN|34=215|52=20110224-09:47:59|10=126||0|
M|216|0|0|I|20110224-09:48:59.165|70|8=FIX.4.0|9=48|35=0|49=MWAM|56=ABN|34=216|52=20110224-09:48:59|10=128||0|
M|217|0|0|I|20110224-09:49:59.166|70|8=FIX.4.0|9=48|35=0|49=MWAM|56=ABN|34=217|52=20110224-09:49:59|10=130||0|
M|218|0|F|I|20110224-09:50:53.859|144|8=FIX.4.0|9=121|35=F|49=MWAM|56=ABN|34=218|52=20110224-09:50:53|41=P3358052|11=P3358052-C1|125=F|55=ALO FP|48=B0DJ8Q5|22=2|54=1|38=38239|10=039||0|
M|219|0|D|I|20110224-09:51:28.080|195|8=FIX.4.0|9=172|35=D|49=MWAM|56=ABN|34=219|52=20110224-09:51:28|11=P3358109|1=CASH|21=3|55=FTE FP|48=5176177|22=2|54=2|38=5005|40=1|15=EUR|59=0|58=3% POV|847=3|6003=3|6004=2|6017=1|6022=3|10=074||0|
M|220|0|F|I|20110224-09:51:38.459|143|8=FIX.4.0|9=120|35=F|49=MWAM|56=ABN|34=220|52=20110224-09:51:38|41=P3358109|11=P3358109-C1|125=F|55=FTE FP|48=5176177|22=2|54=2|38=5005|10=162||0|
M|221|0|D|I|20110224-09:51:39.045|196|8=FIX.4.0|9=173|35=D|49=MWAM|56=ABN|34=221|52=20110224-09:51:39|11=P3358114|1=CASH|21=3|55=FTE FP|48=5176177|22=2|54=2|38=15004|40=1|15=EUR|59=0|58=3% POV|847=3|6003=3|6004=2|6017=1|6022=3|10=114||0|
M|222|0|F|I|20110224-09:51:39.186|144|8=FIX.4.0|9=121|35=F|49=MWAM|56=ABN|34=222|52=20110224-09:51:39|41=P3358114|11=P3358114-C1|125=F|55=FTE FP|48=5176177|22=2|54=2|38=15004|10=206||0|
M|223|0|D|I|20110224-09:51:39.597|197|8=FIX.4.0|9=174|35=D|49=MWAM|56=ABN|34=223|52=20110224-09:51:39|11=P3358117|1=CASH|21=3|55=FTE FP|48=5176177|22=2|54=2|38=114639|40=1|15=EUR|59=0|58=3% POV|847=3|6003=3|6004=2|6017=1|6022=3|10=182||0|
M|224|0|F|I|20110224-09:51:48.625|145|8=FIX.4.0|9=122|35=F|49=MWAM|56=ABN|34=224|52=20110224-09:51:48|41=P3358117|11=P3358117-C1|125=F|55=FTE FP|48=5176177|22=2|54=2|38=114639|10=021||0|
M|225|0|D|I|20110224-09:51:49.270|197|8=FIX.4.0|9=174|35=D|49=MWAM|56=ABN|34=225|52=20110224-09:51:49|11=P3358121|1=CASH|21=3|55=FTE FP|48=5176177|22=2|54=2|38=124991|40=1|15=EUR|59=0|58=3% POV|847=3|6003=3|6004=2|6017=1|6022=3|10=182||0|
M|226|0|F|I|20110224-09:52:05.587|145|8=FIX.4.0|9=122|35=F|49=MWAM|56=ABN|34=226|52=20110224-09:52:05|41=P3358121|11=P3358121-C1|125=F|55=FTE FP|48=5176177|22=2|54=2|38=124991|10=009||0|
M|227|0|D|I|20110224-09:52:05.993|200|8=FIX.4.0|9=177|35=D|49=MWAM|56=ABN|34=227|52=20110224-09:52:05|11=P3358124|1=CASH|21=3|55=FTE FP|48=5176177|22=2|54=2|38=124931|40=1|15=EUR|59=0|58=12% POV|847=3|6003=12|6004=2|6017=1|6022=12|10=065||0|
M|228|0|0|I|20110224-09:53:05.981|70|8=FIX.4.0|9=48|35=0|49=MWAM|56=ABN|34=228|52=20110224-09:53:05|10=118||0|
M|229|0|0|I|20110224-09:54:05.985|70|8=FIX.4.0|9=48|35=0|49=MWAM|56=ABN|34=229|52=20110224-09:54:05|10=120||0|
M|230|0|0|I|20110224-09:55:05.980|70|8=FIX.4.0|9=48|35=0|49=MWAM|56=ABN|34=230|52=20110224-09:55:05|10=113||0|
M|231|0|0|I|20110224-09:56:05.982|70|8=FIX.4.0|9=48|35=0|49=MWAM|56=ABN|34=231|52=20110224-09:56:05|10=115||0|
M|232|0|0|I|20110224-09:57:05.982|70|8=FIX.4.0|9=48|35=0|49=MWAM|56=ABN|34=232|52=20110224-09:57:05|10=117||0|
M|233|0|0|I|20110224-09:58:05.983|70|8=FIX.4.0|9=48|35=0|49=MWAM|56=ABN|34=233|52=20110224-09:58:05|10=119||0|
M|234|0|0|I|20110224-09:59:05.982|70|8=FIX.4.0|9=48|35=0|49=MWAM|56=ABN|34=234|52=20110224-09:59:05|10=121||0|
M|235|0|0|I|20110224-10:00:05.984|70|8=FIX.4.0|9=48|35=0|49=MWAM|56=ABN|34=235|52=20110224-10:00:05|10=100||0|
M|236|0|D|I|20110224-10:00:13.517|200|8=FIX.4.0|9=177|35=D|49=MWAM|56=ABN|34=236|52=20110224-10:00:13|11=P3358214|1=CASH|21=3|55=SEVAN NO|48=B00RQ80|22=2|54=1|38=1189392|40=1|15=NOK|59=0|58=3% POV|847=3|6003=3|6004=2|6017=1|6022=3|10=185||0|
M|237|0|F|I|20110224-10:00:33.889|148|8=FIX.4.0|9=125|35=F|49=MWAM|56=ABN|34=237|52=20110224-10:00:33|41=P3358214|11=P3358214-C1|125=F|55=SEVAN NO|48=B00RQ80|22=2|54=1|38=1189392|10=028||0|
M|238|0|D|I|20110224-10:00:35.034|196|8=FIX.4.0|9=173|35=D|49=MWAM|56=ABN|34=238|52=20110224-10:00:34|11=P3358301|1=CASH|21=3|55=SY1 GY|48=B1JB4K8|22=2|54=1|38=29986|40=1|15=EUR|59=0|58=3% POV|847=3|6003=3|6004=2|6017=1|6022=3|10=200||0|
M|239|0|D|I|20110224-10:00:36.006|203|8=FIX.4.0|9=180|35=D|49=MWAM|56=ABN|34=239|52=20110224-10:00:35|11=P3358305|1=CASH|21=3|55=SEVAN NO|48=B00RQ80|22=2|54=1|38=1189392|40=1|15=NOK|59=0|58=13% POV|847=3|6003=13|6004=2|6017=1|6022=13|10=078||0|
M|240|0|F|I|20110224-10:01:14.308|144|8=FIX.4.0|9=121|35=F|49=MWAM|56=ABN|34=240|52=20110224-10:01:14|41=P3358301|11=P3358301-C1|125=F|55=SY1 GY|48=B1JB4K8|22=2|54=1|38=29986|10=025||0|
M|241|0|D|I|20110224-10:01:14.875|199|8=FIX.4.0|9=176|35=D|49=MWAM|56=ABN|34=241|52=20110224-10:01:14|11=P3358313|1=CASH|21=3|55=SY1 GY|48=B1JB4K8|22=2|54=1|38=29909|40=1|15=EUR|59=0|58=16% POV|847=3|6003=16|6004=2|6017=1|6022=16|10=094||0|
M|242|0|0|I|20110224-10:02:14.859|70|8=FIX.4.0|9=48|35=0|49=MWAM|56=ABN|34=242|52=20110224-10:02:14|10=100||0|
M|243|0|0|I|20110224-10:03:14.858|70|8=FIX.4.0|9=48|35=0|49=MWAM|56=ABN|34=243|52=20110224-10:03:14|10=102||0|
M|244|0|0|I|20110224-10:04:14.859|70|8=FIX.4.0|9=48|35=0|49=MWAM|56=ABN|34=244|52=20110224-10:04:14|10=104||0|
M|245|0|0|I|20110224-10:05:14.860|70|8=FIX.4.0|9=48|35=0|49=MWAM|56=ABN|34=245|52=20110224-10:05:14|10=106||0|
M|246|0|D|I|20110224-10:05:28.392|197|8=FIX.4.0|9=174|35=D|49=MWAM|56=ABN|34=246|52=20110224-10:05:28|11=P3358443|1=CASH|21=3|55=TEF SQ|48=5732524|22=2|54=1|38=114987|40=1|15=EUR|59=0|58=3% POV|847=3|6003=3|6004=2|6017=1|6022=3|10=191||0|
M|247|0|0|I|20110224-10:06:28.376|70|8=FIX.4.0|9=48|35=0|49=MWAM|56=ABN|34=247|52=20110224-10:06:28|10=114||0|
M|248|0|0|I|20110224-10:07:28.376|70|8=FIX.4.0|9=48|35=0|49=MWAM|56=ABN|34=248|52=20110224-10:07:28|10=116||0|
M|249|0|0|I|20110224-10:08:28.378|70|8=FIX.4.0|9=48|35=0|49=MWAM|56=ABN|34=249|52=20110224-10:08:28|10=118||0|
M|250|0|0|I|20110224-10:09:28.378|70|8=FIX.4.0|9=48|35=0|49=MWAM|56=ABN|34=250|52=20110224-10:09:28|10=111||0|
M|251|0|0|I|20110224-10:10:28.378|70|8=FIX.4.0|9=48|35=0|49=MWAM|56=ABN|34=251|52=20110224-10:10:28|10=104||0|
M|252|0|F|I|20110224-10:10:40.823|145|8=FIX.4.0|9=122|35=F|49=MWAM|56=ABN|34=252|52=20110224-10:10:40|41=P3358443|11=P3358443-C1|125=F|55=TEF SQ|48=5732524|22=2|54=1|38=114987|10=018||0|
M|253|0|0|I|20110224-10:11:40.816|70|8=FIX.4.0|9=48|35=0|49=MWAM|56=ABN|34=253|52=20110224-10:11:40|10=101||0|
M|254|0|0|I|20110224-10:12:40.816|70|8=FIX.4.0|9=48|35=0|49=MWAM|56=ABN|34=254|52=20110224-10:12:40|10=103||0|
M|255|0|0|I|20110224-10:13:40.816|70|8=FIX.4.0|9=48|35=0|49=MWAM|56=ABN|34=255|52=20110224-10:13:40|10=105||0|
M|256|0|0|I|20110224-10:14:40.817|70|8=FIX.4.0|9=48|35=0|49=MWAM|56=ABN|34=256|52=20110224-10:14:40|10=107||0|
M|257|0|0|I|20110224-10:15:40.824|70|8=FIX.4.0|9=48|35=0|49=MWAM|56=ABN|34=257|52=20110224-10:15:40|10=109||0|
M|258|0|0|I|20110224-10:16:40.819|70|8=FIX.4.0|9=48|35=0|49=MWAM|56=ABN|34=258|52=20110224-10:16:40|10=111||0|
M|259|0|0|I|20110224-10:17:40.819|70|8=FIX.4.0|9=48|35=0|49=MWAM|56=ABN|34=259|52=20110224-10:17:40|10=113||0|
M|260|0|0|I|20110224-10:18:40.821|70|8=FIX.4.0|9=48|35=0|49=MWAM|56=ABN|34=260|52=20110224-10:18:40|10=106||0|
M|261|0|0|I|20110224-10:19:40.819|70|8=FIX.4.0|9=48|35=0|49=MWAM|56=ABN|34=261|52=20110224-10:19:40|10=108||0|
M|262|0|0|I|20110224-10:20:40.821|70|8=FIX.4.0|9=48|35=0|49=MWAM|56=ABN|34=262|52=20110224-10:20:40|10=101||0|
M|263|0|0|I|20110224-10:21:40.822|70|8=FIX.4.0|9=48|35=0|49=MWAM|56=ABN|34=263|52=20110224-10:21:40|10=103||0|
M|264|0|D|I|20110224-10:22:31.975|196|8=FIX.4.0|9=173|35=D|49=MWAM|56=ABN|34=264|52=20110224-10:22:31|11=P3358585|1=CASH|21=3|55=RNO FP|48=4712798|22=2|54=1|38=84341|40=1|15=EUR|59=0|58=3% POV|847=3|6003=3|6004=2|6017=1|6022=3|10=144||0|
M|265|0|F|I|20110224-10:22:35.084|144|8=FIX.4.0|9=121|35=F|49=MWAM|56=ABN|34=265|52=20110224-10:22:35|41=P3358585|11=P3358585-C1|125=F|55=RNO FP|48=4712798|22=2|54=1|38=84341|10=252||0|
M|266|0|D|I|20110224-10:22:35.772|199|8=FIX.4.0|9=176|35=D|49=MWAM|56=ABN|34=266|52=20110224-10:22:35|11=P3358589|1=CASH|21=3|55=RNO FP|48=4712798|22=2|54=1|38=84341|40=1|15=EUR|59=0|58=10% POV|847=3|6003=10|6004=2|6017=1|6022=10|10=039||0|
M|267|0|0|I|20110224-10:23:35.759|70|8=FIX.4.0|9=48|35=0|49=MWAM|56=ABN|34=267|52=20110224-10:23:35|10=113||0|
M|268|0|F|I|20110224-10:24:11.665|144|8=FIX.4.0|9=121|35=F|49=MWAM|56=ABN|34=268|52=20110224-10:24:11|41=P3358589|11=P3358589-C1|125=F|55=RNO FP|48=4712798|22=2|54=1|38=84341|10=003||0|
M|269|0|D|I|20110224-10:24:12.167|196|8=FIX.4.0|9=173|35=D|49=MWAM|56=ABN|34=269|52=20110224-10:24:12|11=P3358593|1=CASH|21=3|55=RNO FP|48=4712798|22=2|54=1|38=86738|40=1|15=EUR|59=0|58=3% POV|847=3|6003=3|6004=2|6017=1|6022=3|10=161||0|
M|270|0|F|I|20110224-10:24:12.281|144|8=FIX.4.0|9=121|35=F|49=MWAM|56=ABN|34=270|52=20110224-10:24:12|41=P3358593|11=P3358593-C1|125=F|55=RNO FP|48=4712798|22=2|54=1|38=86738|10=255||0|
M|271|0|D|I|20110224-10:24:12.710|196|8=FIX.4.0|9=173|35=D|49=MWAM|56=ABN|34=271|52=20110224-10:24:12|11=P3358594|1=CASH|21=3|55=RNO FP|48=4712798|22=2|54=1|38=88363|40=1|15=EUR|59=0|58=3% POV|847=3|6003=3|6004=2|6017=1|6022=3|10=151||0|
M|272|0|F|I|20110224-10:24:36.549|144|8=FIX.4.0|9=121|35=F|49=MWAM|56=ABN|34=272|52=20110224-10:24:36|41=P3358594|11=P3358594-C1|125=F|55=RNO FP|48=4712798|22=2|54=1|38=88363|10=005||0|
M|273|0|D|I|20110224-10:24:37.276|199|8=FIX.4.0|9=176|35=D|49=MWAM|56=ABN|34=273|52=20110224-10:24:37|11=P3358595|1=CASH|21=3|55=RNO FP|48=4712798|22=2|54=1|38=88270|40=1|15=EUR|59=0|58=13% POV|847=3|6003=13|6004=2|6017=1|6022=13|10=052||0|
M|274|0|0|I|20110224-10:25:37.718|70|8=FIX.4.0|9=48|35=0|49=MWAM|56=ABN|34=274|52=20110224-10:25:37|10=115||0|
M|275|0|F|I|20110224-10:25:48.213|144|8=FIX.4.0|9=121|35=F|49=MWAM|56=ABN|34=275|52=20110224-10:25:48|41=P3358595|11=P3358595-C1|125=F|55=RNO FP|48=4712798|22=2|54=1|38=88270|10=011||0|
M|276|0|D|I|20110224-10:25:52.628|197|8=FIX.4.0|9=174|35=D|49=MWAM|56=ABN|34=276|52=20110224-10:25:52|11=P3358616|1=CASH|21=3|55=VOW3 GY|48=5497168|22=2|54=1|38=14928|40=1|15=EUR|59=0|58=3% POV|847=3|6003=3|6004=2|6017=1|6022=3|10=229||0|
M|277|0|D|I|20110224-10:26:11.744|198|8=FIX.4.0|9=175|35=D|49=MWAM|56=ABN|34=277|52=20110224-10:26:11|11=P3358619|1=CASH|21=3|55=VOW GY|48=5497102|22=2|54=1|38=1449|40=1|15=EUR|59=0|58=20% POV|847=3|6003=20|6004=2|6017=1|6022=20|10=254||0|
M|278|0|F|I|20110224-10:26:28.070|145|8=FIX.4.0|9=122|35=F|49=MWAM|56=ABN|34=278|52=20110224-10:26:28|41=P3358616|11=P3358616-C1|125=F|55=VOW3 GY|48=5497168|22=2|54=1|38=14928|10=077||0|
M|279|0|D|I|20110224-10:26:28.707|197|8=FIX.4.0|9=174|35=D|49=MWAM|56=ABN|34=279|52=20110224-10:26:28|11=P3358625|1=CASH|21=3|55=VOW3 GY|48=5497168|22=2|54=1|38=15634|40=1|15=EUR|59=0|58=3% POV|847=3|6003=3|6004=2|6017=1|6022=3|10=231||0|
M|280|0|F|I|20110224-10:26:32.864|145|8=FIX.4.0|9=122|35=F|49=MWAM|56=ABN|34=280|52=20110224-10:26:32|41=P3358625|11=P3358625-C1|125=F|55=VOW3 GY|48=5497168|22=2|54=1|38=15634|10=060||0|
M|281|0|D|I|20110224-10:26:33.470|197|8=FIX.4.0|9=174|35=D|49=MWAM|56=ABN|34=281|52=20110224-10:26:33|11=P3358628|1=CASH|21=3|55=VOW3 GY|48=5497168|22=2|54=1|38=17111|40=1|15=EUR|59=0|58=3% POV|847=3|6003=3|6004=2|6017=1|6022=3|10=215||0|
M|282|0|D|I|20110224-10:26:34.523|197|8=FIX.4.0|9=174|35=D|49=MWAM|56=ABN|34=282|52=20110224-10:26:34|11=P3358629|1=CASH|21=3|55=F IM|48=5748521|22=2|54=2|38=22380|40=1|15=EUR|59=0|58=20% POV|847=3|6003=20|6004=2|6017=1|6022=20|10=113||0|
M|283|0|F|I|20110224-10:26:38.834|145|8=FIX.4.0|9=122|35=F|49=MWAM|56=ABN|34=283|52=20110224-10:26:38|41=P3358628|11=P3358628-C1|125=F|55=VOW3 GY|48=5497168|22=2|54=1|38=17111|10=067||0|
M|284|0|D|I|20110224-10:26:39.576|200|8=FIX.4.0|9=177|35=D|49=MWAM|56=ABN|34=284|52=20110224-10:26:39|11=P3358633|1=CASH|21=3|55=VOW3 GY|48=5497168|22=2|54=1|38=17111|40=1|15=EUR|59=0|58=13% POV|847=3|6003=13|6004=2|6017=1|6022=13|10=114||0|
M|285|0|0|I|20110224-10:27:39.558|70|8=FIX.4.0|9=48|35=0|49=MWAM|56=ABN|34=285|52=20110224-10:27:39|10=121||0|
M|286|0|0|I|20110224-10:28:39.558|70|8=FIX.4.0|9=48|35=0|49=MWAM|56=ABN|34=286|52=20110224-10:28:39|10=123||0|
M|287|0|0|I|20110224-10:29:39.558|70|8=FIX.4.0|9=48|35=0|49=MWAM|56=ABN|34=287|52=20110224-10:29:39|10=125||0|
M|288|0|0|I|20110224-10:30:39.559|70|8=FIX.4.0|9=48|35=0|49=MWAM|56=ABN|34=288|52=20110224-10:30:39|10=118||0|
M|289|0|0|I|20110224-10:31:39.560|70|8=FIX.4.0|9=48|35=0|49=MWAM|56=ABN|34=289|52=20110224-10:31:39|10=120||0|
M|290|0|0|I|20110224-10:32:39.560|70|8=FIX.4.0|9=48|35=0|49=MWAM|56=ABN|34=290|52=20110224-10:32:39|10=113||0|
M|291|0|0|I|20110224-10:33:39.561|70|8=FIX.4.0|9=48|35=0|49=MWAM|56=ABN|34=291|52=20110224-10:33:39|10=115||0|
M|292|0|0|I|20110224-10:34:39.561|70|8=FIX.4.0|9=48|35=0|49=MWAM|56=ABN|34=292|52=20110224-10:34:39|10=117||0|
M|293|0|0|I|20110224-10:35:39.562|70|8=FIX.4.0|9=48|35=0|49=MWAM|56=ABN|34=293|52=20110224-10:35:39|10=119||0|
M|294|0|0|I|20110224-10:36:39.562|70|8=FIX.4.0|9=48|35=0|49=MWAM|56=ABN|34=294|52=20110224-10:36:39|10=121||0|
M|295|0|0|I|20110224-10:37:39.564|70|8=FIX.4.0|9=48|35=0|49=MWAM|56=ABN|34=295|52=20110224-10:37:39|10=123||0|
M|296|0|0|I|20110224-10:38:39.562|70|8=FIX.4.0|9=48|35=0|49=MWAM|56=ABN|34=296|52=20110224-10:38:39|10=125||0|
M|297|0|0|I|20110224-10:39:39.563|70|8=FIX.4.0|9=48|35=0|49=MWAM|56=ABN|34=297|52=20110224-10:39:39|10=127||0|
M|298|0|0|I|20110224-10:40:39.563|70|8=FIX.4.0|9=48|35=0|49=MWAM|56=ABN|34=298|52=20110224-10:40:39|10=120||0|
M|299|0|0|I|20110224-10:41:39.564|70|8=FIX.4.0|9=48|35=0|49=MWAM|56=ABN|34=299|52=20110224-10:41:39|10=122||0|
M|300|0|0|I|20110224-10:42:39.565|70|8=FIX.4.0|9=48|35=0|49=MWAM|56=ABN|34=300|52=20110224-10:42:39|10=106||0|
M|301|0|0|I|20110224-10:43:39.564|70|8=FIX.4.0|9=48|35=0|49=MWAM|56=ABN|34=301|52=20110224-10:43:39|10=108||0|
M|302|0|0|I|20110224-10:44:39.566|70|8=FIX.4.0|9=48|35=0|49=MWAM|56=ABN|34=302|52=20110224-10:44:39|10=110||0|
M|303|0|0|I|20110224-10:45:39.566|70|8=FIX.4.0|9=48|35=0|49=MWAM|56=ABN|34=303|52=20110224-10:45:39|10=112||0|
M|304|0|D|I|20110224-10:45:47.752|196|8=FIX.4.0|9=173|35=D|49=MWAM|56=ABN|34=304|52=20110224-10:45:47|11=P3358764|1=CASH|21=3|55=ORK NO|48=B1VQF42|22=2|54=2|38=28804|40=1|15=NOK|59=0|58=3% POV|847=3|6003=3|6004=2|6017=1|6022=3|10=233||0|
M|305|0|D|I|20110224-10:45:47.972|196|8=FIX.4.0|9=173|35=D|49=MWAM|56=ABN|34=305|52=20110224-10:45:47|11=P3358767|1=CASH|21=3|55=MAN GY|48=5563520|22=2|54=2|38=15944|40=1|15=EUR|59=0|58=3% POV|847=3|6003=3|6004=2|6017=1|6022=3|10=137||0|
M|306|0|0|I|20110224-10:46:47.956|70|8=FIX.4.0|9=48|35=0|49=MWAM|56=ABN|34=306|52=20110224-10:46:47|10=115||0|
M|307|0|0|I|20110224-10:47:47.958|70|8=FIX.4.0|9=48|35=0|49=MWAM|56=ABN|34=307|52=20110224-10:47:47|10=117||0|
M|308|0|0|I|20110224-10:48:47.958|70|8=FIX.4.0|9=48|35=0|49=MWAM|56=ABN|34=308|52=20110224-10:48:47|10=119||0|
M|309|0|0|I|20110224-10:49:47.959|70|8=FIX.4.0|9=48|35=0|49=MWAM|56=ABN|34=309|52=20110224-10:49:47|10=121||0|
M|310|0|0|I|20110224-10:50:47.959|70|8=FIX.4.0|9=48|35=0|49=MWAM|56=ABN|34=310|52=20110224-10:50:47|10=105||0|
M|311|0|0|I|20110224-10:51:47.960|70|8=FIX.4.0|9=48|35=0|49=MWAM|56=ABN|34=311|52=20110224-10:51:47|10=107||0|
M|312|0|D|I|20110224-10:51:55.320|197|8=FIX.4.0|9=174|35=D|49=MWAM|56=ABN|34=312|52=20110224-10:51:55|11=P3358800|1=CASH|21=3|55=IBE SQ|48=B288C92|22=2|54=1|38=234627|40=1|15=EUR|59=0|58=3% POV|847=3|6003=3|6004=2|6017=1|6022=3|10=200||0|
M|313|0|0|I|20110224-10:52:55.304|70|8=FIX.4.0|9=48|35=0|49=MWAM|56=ABN|34=313|52=20110224-10:52:55|10=109||0|
M|314|0|0|I|20110224-10:53:55.305|70|8=FIX.4.0|9=48|35=0|49=MWAM|56=ABN|34=314|52=20110224-10:53:55|10=111||0|
M|315|0|0|I|20110224-10:54:55.304|70|8=FIX.4.0|9=48|35=0|49=MWAM|56=ABN|34=315|52=20110224-10:54:55|10=113||0|
M|316|0|0|I|20110224-10:55:55.305|70|8=FIX.4.0|9=48|35=0|49=MWAM|56=ABN|34=316|52=20110224-10:55:55|10=115||0|
M|317|0|0|I|20110224-10:56:55.305|70|8=FIX.4.0|9=48|35=0|49=MWAM|56=ABN|34=317|52=20110224-10:56:55|10=117||0|
M|318|0|0|I|20110224-10:57:55.305|70|8=FIX.4.0|9=48|35=0|49=MWAM|56=ABN|34=318|52=20110224-10:57:55|10=119||0|
M|319|0|D|I|20110224-10:58:35.137|274|8=FIX.4.0|9=251|35=D|49=MWAM|56=ABN|34=319|52=20110224-10:58:35|11=P3358845|1=DBAGENCY|21=3|55=ITV LN|48=3398649|22=2|54=2|38=2426667|40=1|15=GBP|59=0|58=Acting as agent for Deutsche Bank AG and subject to ratification by DB: 3% POV|847=3|6003=3|6004=2|6017=1|6022=3|10=022||0|
M|320|0|F|I|20110224-10:58:39.326|146|8=FIX.4.0|9=123|35=F|49=MWAM|56=ABN|34=320|52=20110224-10:58:39|41=P3358845|11=P3358845-C1|125=F|55=ITV LN|48=3398649|22=2|54=2|38=2426667|10=123||0|
M|321|0|0|I|20110224-10:59:39.322|70|8=FIX.4.0|9=48|35=0|49=MWAM|56=ABN|34=321|52=20110224-10:59:39|10=117||0|
M|322|0|0|I|20110224-11:00:39.323|70|8=FIX.4.0|9=48|35=0|49=MWAM|56=ABN|34=322|52=20110224-11:00:39|10=105||0|
M|323|0|0|I|20110224-11:01:39.323|70|8=FIX.4.0|9=48|35=0|49=MWAM|56=ABN|34=323|52=20110224-11:01:39|10=107||0|
M|324|0|D|I|20110224-11:02:17.153|196|8=FIX.4.0|9=173|35=D|49=MWAM|56=ABN|34=324|52=20110224-11:02:17|11=P3358859|1=CASH|21=3|55=PUB FP|48=4380429|22=2|54=2|38=14075|40=1|15=EUR|59=0|58=3% POV|847=3|6003=3|6004=2|6017=1|6022=3|10=130||0|
M|325|0|F|I|20110224-11:02:27.163|144|8=FIX.4.0|9=121|35=F|49=MWAM|56=ABN|34=325|52=20110224-11:02:27|41=P3358859|11=P3358859-C1|125=F|55=PUB FP|48=4380429|22=2|54=2|38=14075|10=239||0|
M|326|0|D|I|20110224-11:02:27.799|196|8=FIX.4.0|9=173|35=D|49=MWAM|56=ABN|34=326|52=20110224-11:02:27|11=P3358862|1=CASH|21=3|55=PUB FP|48=4380429|22=2|54=2|38=55803|40=1|15=EUR|59=0|58=3% POV|847=3|6003=3|6004=2|6017=1|6022=3|10=131||0|
M|327|0|F|I|20110224-11:02:27.933|144|8=FIX.4.0|9=121|35=F|49=MWAM|56=ABN|34=327|52=20110224-11:02:27|41=P3358862|11=P3358862-C1|125=F|55=PUB FP|48=4380429|22=2|54=2|38=55803|10=233||0|
M|328|0|D|I|20110224-11:02:28.317|196|8=FIX.4.0|9=173|35=D|49=MWAM|56=ABN|34=328|52=20110224-11:02:28|11=P3358863|1=CASH|21=3|55=PUB FP|48=4380429|22=2|54=2|38=86716|40=1|15=EUR|59=0|58=3% POV|847=3|6003=3|6004=2|6017=1|6022=3|10=142||0|
M|329|0|F|I|20110224-11:02:37.237|144|8=FIX.4.0|9=121|35=F|49=MWAM|56=ABN|34=329|52=20110224-11:02:37|41=P3358863|11=P3358863-C1|125=F|55=PUB FP|48=4380429|22=2|54=2|38=86716|10=245||0|
M|330|0|D|I|20110224-11:02:37.754|196|8=FIX.4.0|9=173|35=D|49=MWAM|56=ABN|34=330|52=20110224-11:02:37|11=P3358866|1=CASH|21=3|55=PUB FP|48=4380429|22=2|54=2|38=99406|40=1|15=EUR|59=0|58=3% POV|847=3|6003=3|6004=2|6017=1|6022=3|10=138||0|
M|331|0|F|I|20110224-11:03:12.874|144|8=FIX.4.0|9=121|35=F|49=MWAM|56=ABN|34=331|52=20110224-11:03:12|41=P3358866|11=P3358866-C1|125=F|55=PUB FP|48=4380429|22=2|54=2|38=99406|10=238||0|
M|332|0|D|I|20110224-11:03:13.741|199|8=FIX.4.0|9=176|35=D|49=MWAM|56=ABN|34=332|52=20110224-11:03:13|11=P3358869|1=CASH|21=3|55=PUB FP|48=4380429|22=2|54=2|38=99406|40=1|15=EUR|59=0|58=13% POV|847=3|6003=13|6004=2|6017=1|6022=13|10=032||0|
M|333|0|0|I|20110224-11:04:13.731|70|8=FIX.4.0|9=48|35=0|49=MWAM|56=ABN|34=333|52=20110224-11:04:13|10=103||0|
M|334|0|D|I|20110224-11:04:22.927|197|8=FIX.4.0|9=174|35=D|49=MWAM|56=ABN|34=334|52=20110224-11:04:22|11=P3358871|1=CASH|21=3|55=INGA NA|48=7154182|22=2|54=2|38=34734|40=1|15=EUR|59=0|58=3% POV|847=3|6003=3|6004=2|6017=1|6022=3|10=175||0|
M|335|0|F|I|20110224-11:04:27.998|145|8=FIX.4.0|9=122|35=F|49=MWAM|56=ABN|34=335|52=20110224-11:04:27|41=P3358871|11=P3358871-C1|125=F|55=INGA NA|48=7154182|22=2|54=2|38=34734|10=026||0|
M|336|0|D|I|20110224-11:04:28.681|197|8=FIX.4.0|9=174|35=D|49=MWAM|56=ABN|34=336|52=20110224-11:04:28|11=P3358877|1=CASH|21=3|55=INGA NA|48=7154182|22=2|54=2|38=49944|40=1|15=EUR|59=0|58=3% POV|847=3|6003=3|6004=2|6017=1|6022=3|10=198||0|
M|337|0|F|I|20110224-11:04:28.804|145|8=FIX.4.0|9=122|35=F|49=MWAM|56=ABN|34=337|52=20110224-11:04:28|41=P3358877|11=P3358877-C1|125=F|55=INGA NA|48=7154182|22=2|54=2|38=49944|10=050||0|
M|338|0|D|I|20110224-11:04:29.214|198|8=FIX.4.0|9=175|35=D|49=MWAM|56=ABN|34=338|52=20110224-11:04:29|11=P3358878|1=CASH|21=3|55=INGA NA|48=7154182|22=2|54=2|38=149354|40=1|15=EUR|59=0|58=3% POV|847=3|6003=3|6004=2|6017=1|6022=3|10=247||0|
M|339|0|F|I|20110224-11:05:14.934|144|8=FIX.4.0|9=121|35=F|49=MWAM|56=ABN|34=339|52=20110224-11:05:14|41=P3358767|11=P3358767-C1|125=F|55=MAN GY|48=5563520|22=2|54=2|38=15944|10=240||0|
M|340|0|F|I|20110224-11:05:15.309|148|8=FIX.4.0|9=125|35=F|49=MWAM|56=ABN|34=340|52=20110224-11:05:14|41=P3358305|11=P3358305-C1|125=F|55=SEVAN NO|48=B00RQ80|22=2|54=1|38=1189392|10=030||0|
M|341|0|D|I|20110224-11:05:17.110|199|8=FIX.4.0|9=176|35=D|49=MWAM|56=ABN|34=341|52=20110224-11:05:17|11=P3358882|1=CASH|21=3|55=MAN GY|48=5563520|22=2|54=2|38=14589|40=1|15=EUR|59=0|58=15% POV|847=3|6003=15|6004=2|6017=1|6022=15|10=033||0|
M|342|0|D|I|20110224-11:05:18.037|200|8=FIX.4.0|9=177|35=D|49=MWAM|56=ABN|34=342|52=20110224-11:05:17|11=P3358883|1=CASH|21=3|55=SEVAN NO|48=B00RQ80|22=2|54=1|38=1069003|40=1|15=NOK|59=0|58=3% POV|847=3|6003=3|6004=2|6017=1|6022=3|10=191||0|
M|343|0|F|I|20110224-11:05:49.282|144|8=FIX.4.0|9=121|35=F|49=MWAM|56=ABN|34=343|52=20110224-11:05:49|41=P3358882|11=P3358882-C1|125=F|55=MAN GY|48=5563520|22=2|54=2|38=14589|10=243||0|
M|344|0|F|I|20110224-11:05:49.357|144|8=FIX.4.0|9=121|35=F|49=MWAM|56=ABN|34=344|52=20110224-11:05:49|41=P3358869|11=P3358869-C1|125=F|55=PUB FP|48=4380429|22=2|54=2|38=99406|10=004||0|
M|345|0|D|I|20110224-11:05:49.879|195|8=FIX.4.0|9=172|35=D|49=MWAM|56=ABN|34=345|52=20110224-11:05:49|11=P3358898|1=CASH|21=3|55=MAN GY|48=5563520|22=2|54=2|38=7004|40=1|15=EUR|59=0|58=3% POV|847=3|6003=3|6004=2|6017=1|6022=3|10=084||0|
M|346|0|D|I|20110224-11:05:50.048|197|8=FIX.4.0|9=174|35=D|49=MWAM|56=ABN|34=346|52=20110224-11:05:50|11=P3358900|1=CASH|21=3|55=PUB FP|48=4380429|22=2|54=2|38=121790|40=1|15=EUR|59=0|58=3% POV|847=3|6003=3|6004=2|6017=1|6022=3|10=173||0|
M|347|0|D|I|20110224-11:05:50.190|273|8=FIX.4.0|9=250|35=D|49=MWAM|56=ABN|34=347|52=20110224-11:05:50|11=P3358901|1=DBAGENCY|21=3|55=MKS LN|48=3127489|22=2|54=1|38=424296|40=1|15=GBP|59=0|58=Acting as agent for Deutsche Bank AG and subject to ratification by DB: 3% POV|847=3|6003=3|6004=2|6017=1|6022=3|10=190||0|
M|348|0|D|I|20110224-11:05:50.547|198|8=FIX.4.0|9=175|35=D|49=MWAM|56=ABN|34=348|52=20110224-11:05:50|11=P3358904|1=CASH|21=3|55=TIT IM|48=7634394|22=2|54=1|38=1287990|40=1|15=EUR|59=0|58=3% POV|847=3|6003=3|6004=2|6017=1|6022=3|10=003||0|
M|349|0|F|I|20110224-11:06:15.759|145|8=FIX.4.0|9=122|35=F|49=MWAM|56=ABN|34=349|52=20110224-11:06:15|41=P3358901|11=P3358901-C1|125=F|55=MKS LN|48=3127489|22=2|54=1|38=424296|10=036||0|
M|350|0|F|I|20110224-11:06:15.832|145|8=FIX.4.0|9=122|35=F|49=MWAM|56=ABN|34=350|52=20110224-11:06:15|41=P3358900|11=P3358900-C1|125=F|55=PUB FP|48=4380429|22=2|54=2|38=121790|10=008||0|
M|351|0|D|I|20110224-11:06:16.245|276|8=FIX.4.0|9=253|35=D|49=MWAM|56=ABN|34=351|52=20110224-11:06:16|11=P3358905|1=DBAGENCY|21=3|55=MKS LN|48=3127489|22=2|54=1|38=423505|40=1|15=GBP|59=0|58=Acting as agent for Deutsche Bank AG and subject to ratification by DB: 17% POV|847=3|6003=17|6004=2|6017=1|6022=17|10=090||0|
M|352|0|D|I|20110224-11:06:16.368|200|8=FIX.4.0|9=177|35=D|49=MWAM|56=ABN|34=352|52=20110224-11:06:16|11=P3358906|1=CASH|21=3|55=PUB FP|48=4380429|22=2|54=2|38=121790|40=1|15=EUR|59=0|58=13% POV|847=3|6003=13|6004=2|6017=1|6022=13|10=073||0|
M|353|0|0|I|20110224-11:07:16.310|70|8=FIX.4.0|9=48|35=0|49=MWAM|56=ABN|34=353|52=20110224-11:07:16|10=111||0|
M|354|0|0|I|20110224-11:08:16.310|70|8=FIX.4.0|9=48|35=0|49=MWAM|56=ABN|34=354|52=20110224-11:08:16|10=113||0|
M|355|0|0|I|20110224-11:09:16.311|70|8=FIX.4.0|9=48|35=0|49=MWAM|56=ABN|34=355|52=20110224-11:09:16|10=115||0|
M|356|0|0|I|20110224-11:10:16.311|70|8=FIX.4.0|9=48|35=0|49=MWAM|56=ABN|34=356|52=20110224-11:10:16|10=108||0|
M|357|0|F|I|20110224-11:10:51.027|146|8=FIX.4.0|9=123|35=F|49=MWAM|56=ABN|34=357|52=20110224-11:10:50|41=P3358904|11=P3358904-C1|125=F|55=TIT IM|48=7634394|22=2|54=1|38=1287990|10=097||0|
M|358|0|F|I|20110224-11:10:51.120|145|8=FIX.4.0|9=122|35=F|49=MWAM|56=ABN|34=358|52=20110224-11:10:51|41=P3358905|11=P3358905-C1|125=F|55=MKS LN|48=3127489|22=2|54=1|38=423505|10=031||0|
M|359|0|0|I|20110224-11:11:51.109|70|8=FIX.4.0|9=48|35=0|49=MWAM|56=ABN|34=359|52=20110224-11:11:51|10=111||0|
M|360|0|0|I|20110224-11:12:51.109|70|8=FIX.4.0|9=48|35=0|49=MWAM|56=ABN|34=360|52=20110224-11:12:51|10=104||0|
M|361|0|0|I|20110224-11:13:51.109|70|8=FIX.4.0|9=48|35=0|49=MWAM|56=ABN|34=361|52=20110224-11:13:51|10=106||0|
M|362|0|0|I|20110224-11:14:51.111|70|8=FIX.4.0|9=48|35=0|49=MWAM|56=ABN|34=362|52=20110224-11:14:51|10=108||0|
M|363|0|0|I|20110224-11:15:51.111|70|8=FIX.4.0|9=48|35=0|49=MWAM|56=ABN|34=363|52=20110224-11:15:51|10=110||0|
M|364|0|0|I|20110224-11:16:51.112|70|8=FIX.4.0|9=48|35=0|49=MWAM|56=ABN|34=364|52=20110224-11:16:51|10=112||0|
M|365|0|0|I|20110224-11:17:51.111|70|8=FIX.4.0|9=48|35=0|49=MWAM|56=ABN|34=365|52=20110224-11:17:51|10=114||0|
M|366|0|0|I|20110224-11:18:51.112|70|8=FIX.4.0|9=48|35=0|49=MWAM|56=ABN|34=366|52=20110224-11:18:51|10=116||0|
M|367|0|0|I|20110224-11:19:51.113|70|8=FIX.4.0|9=48|35=0|49=MWAM|56=ABN|34=367|52=20110224-11:19:51|10=118||0|
M|368|0|0|I|20110224-11:20:51.112|70|8=FIX.4.0|9=48|35=0|49=MWAM|56=ABN|34=368|52=20110224-11:20:51|10=111||0|
M|369|0|0|I|20110224-11:21:51.114|70|8=FIX.4.0|9=48|35=0|49=MWAM|56=ABN|34=369|52=20110224-11:21:51|10=113||0|
M|370|0|0|I|20110224-11:22:51.113|70|8=FIX.4.0|9=48|35=0|49=MWAM|56=ABN|34=370|52=20110224-11:22:51|10=106||0|
M|371|0|0|I|20110224-11:23:51.114|70|8=FIX.4.0|9=48|35=0|49=MWAM|56=ABN|34=371|52=20110224-11:23:51|10=108||0|
M|372|0|0|I|20110224-11:24:51.114|70|8=FIX.4.0|9=48|35=0|49=MWAM|56=ABN|34=372|52=20110224-11:24:51|10=110||0|
M|373|0|0|I|20110224-11:25:51.116|70|8=FIX.4.0|9=48|35=0|49=MWAM|56=ABN|34=373|52=20110224-11:25:51|10=112||0|
M|374|0|0|I|20110224-11:26:51.115|70|8=FIX.4.0|9=48|35=0|49=MWAM|56=ABN|34=374|52=20110224-11:26:51|10=114||0|
M|375|0|0|I|20110224-11:27:51.115|70|8=FIX.4.0|9=48|35=0|49=MWAM|56=ABN|34=375|52=20110224-11:27:51|10=116||0|
M|376|0|0|I|20110224-11:28:51.117|70|8=FIX.4.0|9=48|35=0|49=MWAM|56=ABN|34=376|52=20110224-11:28:51|10=118||0|
M|377|0|0|I|20110224-11:29:51.116|70|8=FIX.4.0|9=48|35=0|49=MWAM|56=ABN|34=377|52=20110224-11:29:51|10=120||0|
M|378|0|0|I|20110224-11:30:51.119|70|8=FIX.4.0|9=48|35=0|49=MWAM|56=ABN|34=378|52=20110224-11:30:51|10=113||0|
M|379|0|0|I|20110224-11:31:51.118|70|8=FIX.4.0|9=48|35=0|49=MWAM|56=ABN|34=379|52=20110224-11:31:51|10=115||0|
M|380|0|0|I|20110224-11:32:51.118|70|8=FIX.4.0|9=48|35=0|49=MWAM|56=ABN|34=380|52=20110224-11:32:51|10=108||0|
M|381|0|0|I|20110224-11:33:51.118|70|8=FIX.4.0|9=48|35=0|49=MWAM|56=ABN|34=381|52=20110224-11:33:51|10=110||0|
M|382|0|0|I|20110224-11:34:51.119|70|8=FIX.4.0|9=48|35=0|49=MWAM|56=ABN|34=382|52=20110224-11:34:51|10=112||0|
M|383|0|0|I|20110224-11:35:51.119|70|8=FIX.4.0|9=48|35=0|49=MWAM|56=ABN|34=383|52=20110224-11:35:51|10=114||0|
M|384|0|0|I|20110224-11:36:51.120|70|8=FIX.4.0|9=48|35=0|49=MWAM|56=ABN|34=384|52=20110224-11:36:51|10=116||0|
M|385|0|0|I|20110224-11:37:51.121|70|8=FIX.4.0|9=48|35=0|49=MWAM|56=ABN|34=385|52=20110224-11:37:51|10=118||0|
M|386|0|0|I|20110224-11:38:51.121|70|8=FIX.4.0|9=48|35=0|49=MWAM|56=ABN|34=386|52=20110224-11:38:51|10=120||0|
M|387|0|0|I|20110224-11:39:51.121|70|8=FIX.4.0|9=48|35=0|49=MWAM|56=ABN|34=387|52=20110224-11:39:51|10=122||0|
M|388|0|0|I|20110224-11:40:51.123|70|8=FIX.4.0|9=48|35=0|49=MWAM|56=ABN|34=388|52=20110224-11:40:51|10=115||0|
M|389|0|0|I|20110224-11:41:51.123|70|8=FIX.4.0|9=48|35=0|49=MWAM|56=ABN|34=389|52=20110224-11:41:51|10=117||0|
M|390|0|0|I|20110224-11:42:51.122|70|8=FIX.4.0|9=48|35=0|49=MWAM|56=ABN|34=390|52=20110224-11:42:51|10=110||0|
M|391|0|0|I|20110224-11:43:51.123|70|8=FIX.4.0|9=48|35=0|49=MWAM|56=ABN|34=391|52=20110224-11:43:51|10=112||0|
M|392|0|0|I|20110224-11:44:51.124|70|8=FIX.4.0|9=48|35=0|49=MWAM|56=ABN|34=392|52=20110224-11:44:51|10=114||0|
M|393|0|0|I|20110224-11:45:51.124|70|8=FIX.4.0|9=48|35=0|49=MWAM|56=ABN|34=393|52=20110224-11:45:51|10=116||0|
M|394|0|0|I|20110224-11:46:51.125|70|8=FIX.4.0|9=48|35=0|49=MWAM|56=ABN|34=394|52=20110224-11:46:51|10=118||0|
M|395|0|0|I|20110224-11:47:51.126|70|8=FIX.4.0|9=48|35=0|49=MWAM|56=ABN|34=395|52=20110224-11:47:51|10=120||0|
M|396|0|0|I|20110224-11:48:51.125|70|8=FIX.4.0|9=48|35=0|49=MWAM|56=ABN|34=396|52=20110224-11:48:51|10=122||0|
M|397|0|0|I|20110224-11:49:51.127|70|8=FIX.4.0|9=48|35=0|49=MWAM|56=ABN|34=397|52=20110224-11:49:51|10=124||0|
M|398|0|0|I|20110224-11:50:51.127|70|8=FIX.4.0|9=48|35=0|49=MWAM|56=ABN|34=398|52=20110224-11:50:51|10=117||0|
M|399|0|0|I|20110224-11:51:51.129|70|8=FIX.4.0|9=48|35=0|49=MWAM|56=ABN|34=399|52=20110224-11:51:51|10=119||0|
M|400|0|0|I|20110224-11:52:51.128|70|8=FIX.4.0|9=48|35=0|49=MWAM|56=ABN|34=400|52=20110224-11:52:51|10=103||0|
M|401|0|0|I|20110224-11:53:51.128|70|8=FIX.4.0|9=48|35=0|49=MWAM|56=ABN|34=401|52=20110224-11:53:51|10=105||0|
M|402|0|0|I|20110224-11:54:51.129|70|8=FIX.4.0|9=48|35=0|49=MWAM|56=ABN|34=402|52=20110224-11:54:51|10=107||0|
M|403|0|0|I|20110224-11:55:51.129|70|8=FIX.4.0|9=48|35=0|49=MWAM|56=ABN|34=403|52=20110224-11:55:51|10=109||0|
M|404|0|0|I|20110224-11:56:51.130|70|8=FIX.4.0|9=48|35=0|49=MWAM|56=ABN|34=404|52=20110224-11:56:51|10=111||0|
M|405|0|0|I|20110224-11:57:51.129|70|8=FIX.4.0|9=48|35=0|49=MWAM|56=ABN|34=405|52=20110224-11:57:51|10=113||0|
M|406|0|0|I|20110224-11:58:51.132|70|8=FIX.4.0|9=48|35=0|49=MWAM|56=ABN|34=406|52=20110224-11:58:51|10=115||0|
M|407|0|0|I|20110224-11:59:51.131|70|8=FIX.4.0|9=48|35=0|49=MWAM|56=ABN|34=407|52=20110224-11:59:51|10=117||0|
M|408|0|0|I|20110224-12:00:51.132|70|8=FIX.4.0|9=48|35=0|49=MWAM|56=ABN|34=408|52=20110224-12:00:51|10=105||0|
M|409|0|F|I|20110224-12:01:07.353|145|8=FIX.4.0|9=122|35=F|49=MWAM|56=ABN|34=409|52=20110224-12:01:07|41=P3358906|11=P3358906-C1|125=F|55=PUB FP|48=4380429|22=2|54=2|38=121790|10=022||0|
M|410|0|D|I|20110224-12:01:08.751|200|8=FIX.4.0|9=177|35=D|49=MWAM|56=ABN|34=410|52=20110224-12:01:08|11=P3359077|1=CASH|21=3|55=PUB FP|48=4380429|22=2|54=2|38=112150|40=1|15=EUR|59=0|58=16% POV|847=3|6003=16|6004=2|6017=1|6022=16|10=064||0|
M|411|0|0|I|20110224-12:02:08.741|70|8=FIX.4.0|9=48|35=0|49=MWAM|56=ABN|34=411|52=20110224-12:02:08|10=103||0|
M|412|0|0|I|20110224-12:03:08.751|70|8=FIX.4.0|9=48|35=0|49=MWAM|56=ABN|34=412|52=20110224-12:03:08|10=105||0|
M|413|0|0|I|20110224-12:04:08.742|70|8=FIX.4.0|9=48|35=0|49=MWAM|56=ABN|34=413|52=20110224-12:04:08|10=107||0|
M|414|0|0|I|20110224-12:05:08.742|70|8=FIX.4.0|9=48|35=0|49=MWAM|56=ABN|34=414|52=20110224-12:05:08|10=109||0|
M|415|0|0|I|20110224-12:06:08.743|70|8=FIX.4.0|9=48|35=0|49=MWAM|56=ABN|34=415|52=20110224-12:06:08|10=111||0|
M|416|0|0|I|20110224-12:07:08.744|70|8=FIX.4.0|9=48|35=0|49=MWAM|56=ABN|34=416|52=20110224-12:07:08|10=113||0|
M|417|0|0|I|20110224-12:08:08.745|70|8=FIX.4.0|9=48|35=0|49=MWAM|56=ABN|34=417|52=20110224-12:08:08|10=115||0|
M|418|0|0|I|20110224-12:09:08.744|70|8=FIX.4.0|9=48|35=0|49=MWAM|56=ABN|34=418|52=20110224-12:09:08|10=117||0|
M|419|0|0|I|20110224-12:10:08.745|70|8=FIX.4.0|9=48|35=0|49=MWAM|56=ABN|34=419|52=20110224-12:10:08|10=110||0|
M|420|0|0|I|20110224-12:11:08.746|70|8=FIX.4.0|9=48|35=0|49=MWAM|56=ABN|34=420|52=20110224-12:11:08|10=103||0|
M|421|0|0|I|20110224-12:12:08.745|70|8=FIX.4.0|9=48|35=0|49=MWAM|56=ABN|34=421|52=20110224-12:12:08|10=105||0|
M|422|0|0|I|20110224-12:13:08.746|70|8=FIX.4.0|9=48|35=0|49=MWAM|56=ABN|34=422|52=20110224-12:13:08|10=107||0|
M|423|0|0|I|20110224-12:14:08.751|70|8=FIX.4.0|9=48|35=0|49=MWAM|56=ABN|34=423|52=20110224-12:14:08|10=109||0|
M|424|0|0|I|20110224-12:15:08.747|70|8=FIX.4.0|9=48|35=0|49=MWAM|56=ABN|34=424|52=20110224-12:15:08|10=111||0|
M|425|0|0|I|20110224-12:16:08.753|70|8=FIX.4.0|9=48|35=0|49=MWAM|56=ABN|34=425|52=20110224-12:16:08|10=113||0|
M|426|0|0|I|20110224-12:17:08.748|70|8=FIX.4.0|9=48|35=0|49=MWAM|56=ABN|34=426|52=20110224-12:17:08|10=115||0|
M|427|0|0|I|20110224-12:18:08.749|70|8=FIX.4.0|9=48|35=0|49=MWAM|56=ABN|34=427|52=20110224-12:18:08|10=117||0|
M|428|0|0|I|20110224-12:19:08.749|70|8=FIX.4.0|9=48|35=0|49=MWAM|56=ABN|34=428|52=20110224-12:19:08|10=119||0|
M|429|0|0|I|20110224-12:20:08.749|70|8=FIX.4.0|9=48|35=0|49=MWAM|56=ABN|34=429|52=20110224-12:20:08|10=112||0|
M|430|0|0|I|20110224-12:21:08.749|70|8=FIX.4.0|9=48|35=0|49=MWAM|56=ABN|34=430|52=20110224-12:21:08|10=105||0|
M|431|0|0|I|20110224-12:22:08.751|70|8=FIX.4.0|9=48|35=0|49=MWAM|56=ABN|34=431|52=20110224-12:22:08|10=107||0|
M|432|0|0|I|20110224-12:23:08.751|70|8=FIX.4.0|9=48|35=0|49=MWAM|56=ABN|34=432|52=20110224-12:23:08|10=109||0|
M|433|0|0|I|20110224-12:24:08.754|70|8=FIX.4.0|9=48|35=0|49=MWAM|56=ABN|34=433|52=20110224-12:24:08|10=111||0|
M|434|0|0|I|20110224-12:25:08.751|70|8=FIX.4.0|9=48|35=0|49=MWAM|56=ABN|34=434|52=20110224-12:25:08|10=113||0|
M|435|0|0|I|20110224-12:26:08.751|70|8=FIX.4.0|9=48|35=0|49=MWAM|56=ABN|34=435|52=20110224-12:26:08|10=115||0|
M|436|0|0|I|20110224-12:27:08.754|70|8=FIX.4.0|9=48|35=0|49=MWAM|56=ABN|34=436|52=20110224-12:27:08|10=117||0|
M|437|0|0|I|20110224-12:28:08.754|70|8=FIX.4.0|9=48|35=0|49=MWAM|56=ABN|34=437|52=20110224-12:28:08|10=119||0|
M|438|0|0|I|20110224-12:29:08.754|70|8=FIX.4.0|9=48|35=0|49=MWAM|56=ABN|34=438|52=20110224-12:29:08|10=121||0|
M|439|0|0|I|20110224-12:30:08.754|70|8=FIX.4.0|9=48|35=0|49=MWAM|56=ABN|34=439|52=20110224-12:30:08|10=114||0|
M|440|0|0|I|20110224-12:31:08.754|70|8=FIX.4.0|9=48|35=0|49=MWAM|56=ABN|34=440|52=20110224-12:31:08|10=107||0|
M|441|0|0|I|20110224-12:32:08.755|70|8=FIX.4.0|9=48|35=0|49=MWAM|56=ABN|34=441|52=20110224-12:32:08|10=109||0|
M|442|0|0|I|20110224-12:33:08.758|70|8=FIX.4.0|9=48|35=0|49=MWAM|56=ABN|34=442|52=20110224-12:33:08|10=111||0|
M|443|0|0|I|20110224-12:34:08.757|70|8=FIX.4.0|9=48|35=0|49=MWAM|56=ABN|34=443|52=20110224-12:34:08|10=113||0|
M|444|0|0|I|20110224-12:35:08.755|70|8=FIX.4.0|9=48|35=0|49=MWAM|56=ABN|34=444|52=20110224-12:35:08|10=115||0|
M|445|0|F|I|20110224-12:35:48.666|143|8=FIX.4.0|9=120|35=F|49=MWAM|56=ABN|34=445|52=20110224-12:35:48|41=P3358898|11=P3358898-C1|125=F|55=MAN GY|48=5563520|22=2|54=2|38=7004|10=198||0|
M|446|0|0|I|20110224-12:36:48.710|70|8=FIX.4.0|9=48|35=0|49=MWAM|56=ABN|34=446|52=20110224-12:36:48|10=122||0|
M|447|0|0|I|20110224-12:37:48.711|70|8=FIX.4.0|9=48|35=0|49=MWAM|56=ABN|34=447|52=20110224-12:37:48|10=124||0|
M|448|0|0|I|20110224-12:38:48.711|70|8=FIX.4.0|9=48|35=0|49=MWAM|56=ABN|34=448|52=20110224-12:38:48|10=126||0|
M|449|0|0|I|20110224-12:39:48.712|70|8=FIX.4.0|9=48|35=0|49=MWAM|56=ABN|34=449|52=20110224-12:39:48|10=128||0|
M|450|0|0|I|20110224-12:40:48.713|70|8=FIX.4.0|9=48|35=0|49=MWAM|56=ABN|34=450|52=20110224-12:40:48|10=112||0|
M|451|0|0|I|20110224-12:41:48.712|70|8=FIX.4.0|9=48|35=0|49=MWAM|56=ABN|34=451|52=20110224-12:41:48|10=114||0|
M|452|0|0|I|20110224-12:42:48.713|70|8=FIX.4.0|9=48|35=0|49=MWAM|56=ABN|34=452|52=20110224-12:42:48|10=116||0|
M|453|0|0|I|20110224-12:43:48.714|70|8=FIX.4.0|9=48|35=0|49=MWAM|56=ABN|34=453|52=20110224-12:43:48|10=118||0|
M|454|0|0|I|20110224-12:44:48.714|70|8=FIX.4.0|9=48|35=0|49=MWAM|56=ABN|34=454|52=20110224-12:44:48|10=120||0|
M|455|0|0|I|20110224-12:45:48.714|70|8=FIX.4.0|9=48|35=0|49=MWAM|56=ABN|34=455|52=20110224-12:45:48|10=122||0|
M|456|0|0|I|20110224-12:46:48.714|70|8=FIX.4.0|9=48|35=0|49=MWAM|56=ABN|34=456|52=20110224-12:46:48|10=124||0|
M|457|0|0|I|20110224-12:47:48.716|70|8=FIX.4.0|9=48|35=0|49=MWAM|56=ABN|34=457|52=20110224-12:47:48|10=126||0|
M|458|0|0|I|20110224-12:48:48.715|70|8=FIX.4.0|9=48|35=0|49=MWAM|56=ABN|34=458|52=20110224-12:48:48|10=128||0|
M|459|0|0|I|20110224-12:49:48.716|70|8=FIX.4.0|9=48|35=0|49=MWAM|56=ABN|34=459|52=20110224-12:49:48|10=130||0|
M|460|0|0|I|20110224-12:50:48.717|70|8=FIX.4.0|9=48|35=0|49=MWAM|56=ABN|34=460|52=20110224-12:50:48|10=114||0|
M|461|0|0|I|20110224-12:51:48.717|70|8=FIX.4.0|9=48|35=0|49=MWAM|56=ABN|34=461|52=20110224-12:51:48|10=116||0|
M|462|0|0|I|20110224-12:52:48.717|70|8=FIX.4.0|9=48|35=0|49=MWAM|56=ABN|34=462|52=20110224-12:52:48|10=118||0|
M|463|0|0|I|20110224-12:53:48.717|70|8=FIX.4.0|9=48|35=0|49=MWAM|56=ABN|34=463|52=20110224-12:53:48|10=120||0|
M|464|0|0|I|20110224-12:54:48.718|70|8=FIX.4.0|9=48|35=0|49=MWAM|56=ABN|34=464|52=20110224-12:54:48|10=122||0|
M|465|0|0|I|20110224-12:55:48.719|70|8=FIX.4.0|9=48|35=0|49=MWAM|56=ABN|34=465|52=20110224-12:55:48|10=124||0|
M|466|0|0|I|20110224-12:56:48.718|70|8=FIX.4.0|9=48|35=0|49=MWAM|56=ABN|34=466|52=20110224-12:56:48|10=126||0|
M|467|0|0|I|20110224-12:57:48.719|70|8=FIX.4.0|9=48|35=0|49=MWAM|56=ABN|34=467|52=20110224-12:57:48|10=128||0|
M|468|0|0|I|20110224-12:58:48.719|70|8=FIX.4.0|9=48|35=0|49=MWAM|56=ABN|34=468|52=20110224-12:58:48|10=130||0|
M|469|0|0|I|20110224-12:59:48.721|70|8=FIX.4.0|9=48|35=0|49=MWAM|56=ABN|34=469|52=20110224-12:59:48|10=132||0|
M|470|0|0|I|20110224-13:00:48.721|70|8=FIX.4.0|9=48|35=0|49=MWAM|56=ABN|34=470|52=20110224-13:00:48|10=111||0|
M|471|0|0|I|20110224-13:01:48.721|70|8=FIX.4.0|9=48|35=0|49=MWAM|56=ABN|34=471|52=20110224-13:01:48|10=113||0|
M|472|0|0|I|20110224-13:02:48.722|70|8=FIX.4.0|9=48|35=0|49=MWAM|56=ABN|34=472|52=20110224-13:02:48|10=115||0|
M|473|0|0|I|20110224-13:03:48.722|70|8=FIX.4.0|9=48|35=0|49=MWAM|56=ABN|34=473|52=20110224-13:03:48|10=117||0|
M|474|0|0|I|20110224-13:04:48.722|70|8=FIX.4.0|9=48|35=0|49=MWAM|56=ABN|34=474|52=20110224-13:04:48|10=119||0|
M|475|0|0|I|20110224-13:05:48.723|70|8=FIX.4.0|9=48|35=0|49=MWAM|56=ABN|34=475|52=20110224-13:05:48|10=121||0|
M|476|0|0|I|20110224-13:06:48.723|70|8=FIX.4.0|9=48|35=0|49=MWAM|56=ABN|34=476|52=20110224-13:06:48|10=123||0|
M|477|0|0|I|20110224-13:07:48.723|70|8=FIX.4.0|9=48|35=0|49=MWAM|56=ABN|34=477|52=20110224-13:07:48|10=125||0|
M|478|0|0|I|20110224-13:08:48.723|70|8=FIX.4.0|9=48|35=0|49=MWAM|56=ABN|34=478|52=20110224-13:08:48|10=127||0|
M|479|0|0|I|20110224-13:09:48.724|70|8=FIX.4.0|9=48|35=0|49=MWAM|56=ABN|34=479|52=20110224-13:09:48|10=129||0|
M|480|0|0|I|20110224-13:10:48.725|70|8=FIX.4.0|9=48|35=0|49=MWAM|56=ABN|34=480|52=20110224-13:10:48|10=113||0|
M|481|0|0|I|20110224-13:11:48.724|70|8=FIX.4.0|9=48|35=0|49=MWAM|56=ABN|34=481|52=20110224-13:11:48|10=115||0|
M|482|0|0|I|20110224-13:12:48.725|70|8=FIX.4.0|9=48|35=0|49=MWAM|56=ABN|34=482|52=20110224-13:12:48|10=117||0|
M|483|0|0|I|20110224-13:13:48.726|70|8=FIX.4.0|9=48|35=0|49=MWAM|56=ABN|34=483|52=20110224-13:13:48|10=119||0|
M|484|0|0|I|20110224-13:14:48.726|70|8=FIX.4.0|9=48|35=0|49=MWAM|56=ABN|34=484|52=20110224-13:14:48|10=121||0|
M|485|0|0|I|20110224-13:15:48.727|70|8=FIX.4.0|9=48|35=0|49=MWAM|56=ABN|34=485|52=20110224-13:15:48|10=123||0|
M|486|0|0|I|20110224-13:16:48.727|70|8=FIX.4.0|9=48|35=0|49=MWAM|56=ABN|34=486|52=20110224-13:16:48|10=125||0|
M|487|0|0|I|20110224-13:17:48.727|70|8=FIX.4.0|9=48|35=0|49=MWAM|56=ABN|34=487|52=20110224-13:17:48|10=127||0|
M|488|0|0|I|20110224-13:18:48.731|70|8=FIX.4.0|9=48|35=0|49=MWAM|56=ABN|34=488|52=20110224-13:18:48|10=129||0|
M|489|0|0|I|20110224-13:19:48.729|70|8=FIX.4.0|9=48|35=0|49=MWAM|56=ABN|34=489|52=20110224-13:19:48|10=131||0|
M|490|0|0|I|20110224-13:20:48.728|70|8=FIX.4.0|9=48|35=0|49=MWAM|56=ABN|34=490|52=20110224-13:20:48|10=115||0|
M|491|0|0|I|20110224-13:21:48.729|70|8=FIX.4.0|9=48|35=0|49=MWAM|56=ABN|34=491|52=20110224-13:21:48|10=117||0|
M|492|0|0|I|20110224-13:22:48.729|70|8=FIX.4.0|9=48|35=0|49=MWAM|56=ABN|34=492|52=20110224-13:22:48|10=119||0|
M|493|0|0|I|20110224-13:23:48.730|70|8=FIX.4.0|9=48|35=0|49=MWAM|56=ABN|34=493|52=20110224-13:23:48|10=121||0|
M|494|0|0|I|20110224-13:24:48.730|70|8=FIX.4.0|9=48|35=0|49=MWAM|56=ABN|34=494|52=20110224-13:24:48|10=123||0|
M|495|0|0|I|20110224-13:25:48.731|70|8=FIX.4.0|9=48|35=0|49=MWAM|56=ABN|34=495|52=20110224-13:25:48|10=125||0|
M|496|0|0|I|20110224-13:26:48.731|70|8=FIX.4.0|9=48|35=0|49=MWAM|56=ABN|34=496|52=20110224-13:26:48|10=127||0|
M|497|0|0|I|20110224-13:27:48.732|70|8=FIX.4.0|9=48|35=0|49=MWAM|56=ABN|34=497|52=20110224-13:27:48|10=129||0|
M|498|0|0|I|20110224-13:28:48.732|70|8=FIX.4.0|9=48|35=0|49=MWAM|56=ABN|34=498|52=20110224-13:28:48|10=131||0|
M|499|0|F|I|20110224-13:29:29.933|148|8=FIX.4.0|9=125|35=F|49=MWAM|56=ABN|34=499|52=20110224-13:29:29|41=P3358883|11=P3358883-C1|125=F|55=SEVAN NO|48=B00RQ80|22=2|54=1|38=1069003|10=067||0|
M|500|0|D|I|20110224-13:29:30.237|202|8=FIX.4.0|9=179|35=D|49=MWAM|56=ABN|34=500|52=20110224-13:29:30|11=P3359297|1=CASH|21=3|55=SEVAN NO|48=B00RQ80|22=2|54=1|38=981766|40=1|15=NOK|59=0|58=14% POV|847=3|6003=14|6004=2|6017=1|6022=14|10=056||0|
M|501|0|0|I|20110224-13:30:30.232|70|8=FIX.4.0|9=48|35=0|49=MWAM|56=ABN|34=501|52=20110224-13:30:30|10=100||0|
M|502|0|0|I|20110224-13:31:30.233|70|8=FIX.4.0|9=48|35=0|49=MWAM|56=ABN|34=502|52=20110224-13:31:30|10=102||0|
M|503|0|F|I|20110224-13:31:31.996|145|8=FIX.4.0|9=122|35=F|49=MWAM|56=ABN|34=503|52=20110224-13:31:31|41=P3359077|11=P3359077-C1|125=F|55=PUB FP|48=4380429|22=2|54=2|38=112150|10=008||0|
M|504|0|0|I|20110224-13:32:31.983|70|8=FIX.4.0|9=48|35=0|49=MWAM|56=ABN|34=504|52=20110224-13:32:31|10=106||0|
M|505|0|F|I|20110224-13:32:32.857|147|8=FIX.4.0|9=124|35=F|49=MWAM|56=ABN|34=505|52=20110224-13:32:32|41=P3359297|11=P3359297-C1|125=F|55=SEVAN NO|48=B00RQ80|22=2|54=1|38=981766|10=012||0|
M|506|0|D|I|20110224-13:32:33.157|199|8=FIX.4.0|9=176|35=D|49=MWAM|56=ABN|34=506|52=20110224-13:32:33|11=P3359304|1=CASH|21=3|55=SEVAN NO|48=B00RQ80|22=2|54=1|38=981766|40=1|15=NOK|59=0|58=6% POV|847=3|6003=6|6004=2|6017=1|6022=6|10=160||0|
M|507|0|0|I|20110224-13:33:33.141|70|8=FIX.4.0|9=48|35=0|49=MWAM|56=ABN|34=507|52=20110224-13:33:33|10=112||0|
M|508|0|0|I|20110224-13:34:33.148|70|8=FIX.4.0|9=48|35=0|49=MWAM|56=ABN|34=508|52=20110224-13:34:33|10=114||0|
M|509|0|F|I|20110224-13:34:34.660|147|8=FIX.4.0|9=124|35=F|49=MWAM|56=ABN|34=509|52=20110224-13:34:34|41=P3359304|11=P3359304-C1|125=F|55=SEVAN NO|48=B00RQ80|22=2|54=1|38=981766|10=254||0|
M|510|0|D|I|20110224-13:34:35.126|199|8=FIX.4.0|9=176|35=D|49=MWAM|56=ABN|34=510|52=20110224-13:34:35|11=P3359312|1=CASH|21=3|55=SEVAN NO|48=B00RQ80|22=2|54=1|38=980578|40=1|15=NOK|59=0|58=3% POV|847=3|6003=3|6004=2|6017=1|6022=3|10=149||0|
M|511|0|0|I|20110224-13:35:35.110|70|8=FIX.4.0|9=48|35=0|49=MWAM|56=ABN|34=511|52=20110224-13:35:35|10=111||0|
M|512|0|0|I|20110224-13:36:35.110|70|8=FIX.4.0|9=48|35=0|49=MWAM|56=ABN|34=512|52=20110224-13:36:35|10=113||0|
M|513|0|F|I|20110224-13:36:36.592|147|8=FIX.4.0|9=124|35=F|49=MWAM|56=ABN|34=513|52=20110224-13:36:36|41=P3359312|11=P3359312-C1|125=F|55=SEVAN NO|48=B00RQ80|22=2|54=1|38=980578|10=251||0|
M|514|0|D|I|20110224-13:36:37.150|202|8=FIX.4.0|9=179|35=D|49=MWAM|56=ABN|34=514|52=20110224-13:36:37|11=P3359317|1=CASH|21=3|55=SEVAN NO|48=B00RQ80|22=2|54=1|38=980578|40=1|15=NOK|59=0|58=10% POV|847=3|6003=10|6004=2|6017=1|6022=10|10=047||0|
M|515|0|D|I|20110224-13:36:42.375|271|8=FIX.4.0|9=248|35=D|49=MWAM|56=ABN|34=515|52=20110224-13:36:42|11=P3359321|1=DBAGENCY|21=3|55=MTC LN|48=0906744|22=2|54=2|38=3778|40=1|15=GBP|59=0|58=Acting as agent for Deutsche Bank AG and subject to ratification by DB: 3% POV|847=3|6003=3|6004=2|6017=1|6022=3|10=090||0|
M|516|0|D|I|20110224-13:36:42.715|272|8=FIX.4.0|9=249|35=D|49=MWAM|56=ABN|34=516|52=20110224-13:36:42|11=P3359323|1=DBAGENCY|21=3|55=RSL LN|48=B62W232|22=2|54=2|38=15974|40=1|15=GBP|59=0|58=Acting as agent for Deutsche Bank AG and subject to ratification by DB: 3% POV|847=3|6003=3|6004=2|6017=1|6022=3|10=198||0|
M|517|0|D|I|20110224-13:36:43.355|273|8=FIX.4.0|9=250|35=D|49=MWAM|56=ABN|34=517|52=20110224-13:36:43|11=P3359329|1=DBAGENCY|21=3|55=HWDN LN|48=0557681|22=2|54=2|38=13910|40=1|15=GBP|59=0|58=Acting as agent for Deutsche Bank AG and subject to ratification by DB: 3% POV|847=3|6003=3|6004=2|6017=1|6022=3|10=210||0|
M|518|0|D|I|20110224-13:36:44.224|271|8=FIX.4.0|9=248|35=D|49=MWAM|56=ABN|34=518|52=20110224-13:36:44|11=P3359339|1=DBAGENCY|21=3|55=SPX LN|48=0834704|22=2|54=2|38=1423|40=1|15=GBP|59=0|58=Acting as agent for Deutsche Bank AG and subject to ratification by DB: 3% POV|847=3|6003=3|6004=2|6017=1|6022=3|10=108||0|
M|519|0|D|I|20110224-13:36:44.845|273|8=FIX.4.0|9=250|35=D|49=MWAM|56=ABN|34=519|52=20110224-13:36:44|11=P3359345|1=DBAGENCY|21=3|55=CWC LN|48=B5KKT96|22=2|54=1|38=187386|40=1|15=GBP|59=0|58=Acting as agent for Deutsche Bank AG and subject to ratification by DB: 3% POV|847=3|6003=3|6004=2|6017=1|6022=3|10=033||0|
M|520|0|D|I|20110224-13:36:45.520|272|8=FIX.4.0|9=249|35=D|49=MWAM|56=ABN|34=520|52=20110224-13:36:45|11=P3359349|1=DBAGENCY|21=3|55=UBM LN|48=B2R84W0|22=2|54=2|38=38136|40=1|15=GBP|59=0|58=Acting as agent for Deutsche Bank AG and subject to ratification by DB: 3% POV|847=3|6003=3|6004=2|6017=1|6022=3|10=219||0|
M|521|0|D|I|20110224-13:36:45.671|273|8=FIX.4.0|9=250|35=D|49=MWAM|56=ABN|34=521|52=20110224-13:36:45|11=P3359350|1=DBAGENCY|21=3|55=MSY LN|48=B45TWN6|22=2|54=2|38=158094|40=1|15=GBP|59=0|58=Acting as agent for Deutsche Bank AG and subject to ratification by DB: 3% POV|847=3|6003=3|6004=2|6017=1|6022=3|10=056||0|
M|522|0|D|I|20110224-13:36:45.810|273|8=FIX.4.0|9=250|35=D|49=MWAM|56=ABN|34=522|52=20110224-13:36:45|11=P3359351|1=DBAGENCY|21=3|55=LAD LN|48=B0ZSH63|22=2|54=1|38=230536|40=1|15=GBP|59=0|58=Acting as agent for Deutsche Bank AG and subject to ratification by DB: 3% POV|847=3|6003=3|6004=2|6017=1|6022=3|10=255||0|
M|523|0|D|I|20110224-13:36:45.968|272|8=FIX.4.0|9=249|35=D|49=MWAM|56=ABN|34=523|52=20110224-13:36:45|11=P3359352|1=DBAGENCY|21=3|55=AML LN|48=B2988H1|22=2|54=2|38=33733|40=1|15=GBP|59=0|58=Acting as agent for Deutsche Bank AG and subject to ratification by DB: 3% POV|847=3|6003=3|6004=2|6017=1|6022=3|10=169||0|
M|524|0|D|I|20110224-13:36:45.970|273|8=FIX.4.0|9=250|35=D|49=MWAM|56=ABN|34=524|52=20110224-13:36:45|11=P3359353|1=DBAGENCY|21=3|55=ESSR LN|48=B5SXPF5|22=2|54=2|38=34060|40=1|15=GBP|59=0|58=Acting as agent for Deutsche Bank AG and subject to ratification by DB: 3% POV|847=3|6003=3|6004=2|6017=1|6022=3|10=087||0|
M|525|0|D|I|20110224-13:36:46.111|273|8=FIX.4.0|9=250|35=D|49=MWAM|56=ABN|34=525|52=20110224-13:36:45|11=P3359354|1=DBAGENCY|21=3|55=PTEC LN|48=B0ZC743|22=2|54=2|38=72141|40=1|15=GBP|59=0|58=Acting as agent for Deutsche Bank AG and subject to ratification by DB: 3% POV|847=3|6003=3|6004=2|6017=1|6022=3|10=010||0|
M|526|0|F|I|20110224-13:37:37.783|145|8=FIX.4.0|9=122|35=F|49=MWAM|56=ABN|34=526|52=20110224-13:37:37|41=P3359351|11=P3359351-C1|125=F|55=LAD LN|48=B0ZSH63|22=2|54=1|38=230536|10=103||0|
M|527|0|F|I|20110224-13:37:37.868|145|8=FIX.4.0|9=122|35=F|49=MWAM|56=ABN|34=527|52=20110224-13:37:37|41=P3359350|11=P3359350-C1|125=F|55=MSY LN|48=B45TWN6|22=2|54=2|38=158094|10=161||0|
M|528|0|F|I|20110224-13:37:37.869|147|8=FIX.4.0|9=124|35=F|49=MWAM|56=ABN|34=528|52=20110224-13:37:37|41=P3359317|11=P3359317-C1|125=F|55=SEVAN NO|48=B00RQ80|22=2|54=1|38=980578|10=013||0|
M|529|0|D|I|20110224-13:37:38.182|202|8=FIX.4.0|9=179|35=D|49=MWAM|56=ABN|34=529|52=20110224-13:37:38|11=P3359355|1=CASH|21=3|55=SEVAN NO|48=B00RQ80|22=2|54=1|38=980578|40=1|15=NOK|59=0|58=14% POV|847=3|6003=14|6004=2|6017=1|6022=14|10=069||0|
M|530|0|D|I|20110224-13:37:38.447|276|8=FIX.4.0|9=253|35=D|49=MWAM|56=ABN|34=530|52=20110224-13:37:38|11=P3359356|1=DBAGENCY|21=3|55=LAD LN|48=B0ZSH63|22=2|54=1|38=230536|40=1|15=GBP|59=0|58=Acting as agent for Deutsche Bank AG and subject to ratification by DB: 12% POV|847=3|6003=12|6004=2|6017=1|6022=12|10=153||0|
M|531|0|D|I|20110224-13:37:38.594|276|8=FIX.4.0|9=253|35=D|49=MWAM|56=ABN|34=531|52=20110224-13:37:38|11=P3359357|1=DBAGENCY|21=3|55=MSY LN|48=B45TWN6|22=2|54=2|38=158018|40=1|15=GBP|59=0|58=Acting as agent for Deutsche Bank AG and subject to ratification by DB: 17% POV|847=3|6003=17|6004=2|6017=1|6022=17|10=225||0|
M|532|0|D|I|20110224-13:37:42.696|275|8=FIX.4.0|9=252|35=D|49=MWAM|56=ABN|34=532|52=20110224-13:37:42|11=P3359358|1=DBAGENCY|21=3|55=XTA LN|48=3141100|22=2|54=1|38=15814|40=1|15=GBP|59=0|58=Acting as agent for Deutsche Bank AG and subject to ratification by DB: 20% POV|847=3|6003=20|6004=2|6017=1|6022=20|10=010||0|
M|533|0|0|I|20110224-13:38:42.674|70|8=FIX.4.0|9=48|35=0|49=MWAM|56=ABN|34=533|52=20110224-13:38:42|10=116||0|
M|534|0|0|I|20110224-13:39:42.673|70|8=FIX.4.0|9=48|35=0|49=MWAM|56=ABN|34=534|52=20110224-13:39:42|10=118||0|
M|535|0|D|I|20110224-13:40:14.028|272|8=FIX.4.0|9=249|35=D|49=MWAM|56=ABN|34=535|52=20110224-13:40:13|11=P3359370|1=DBAGENCY|21=3|55=MRO LN|48=B23DKN2|22=2|54=1|38=93690|40=1|15=GBP|59=0|58=Acting as agent for Deutsche Bank AG and subject to ratification by DB: 3% POV|847=3|6003=3|6004=2|6017=1|6022=3|10=221||0|
M|536|0|F|I|20110224-13:40:59.254|144|8=FIX.4.0|9=121|35=F|49=MWAM|56=ABN|34=536|52=20110224-13:40:59|41=P3359358|11=P3359358-C1|125=F|55=XTA LN|48=3141100|22=2|54=1|38=15814|10=233||0|
M|537|0|0|I|20110224-13:41:59.238|70|8=FIX.4.0|9=48|35=0|49=MWAM|56=ABN|34=537|52=20110224-13:41:59|10=122||0|
M|538|0|0|I|20110224-13:42:59.241|70|8=FIX.4.0|9=48|35=0|49=MWAM|56=ABN|34=538|52=20110224-13:42:59|10=124||0|
M|539|0|0|I|20110224-13:43:59.237|70|8=FIX.4.0|9=48|35=0|49=MWAM|56=ABN|34=539|52=20110224-13:43:59|10=126||0|
M|540|0|0|I|20110224-13:44:59.238|70|8=FIX.4.0|9=48|35=0|49=MWAM|56=ABN|34=540|52=20110224-13:44:59|10=119||0|
M|541|0|0|I|20110224-13:45:59.238|70|8=FIX.4.0|9=48|35=0|49=MWAM|56=ABN|34=541|52=20110224-13:45:59|10=121||0|
M|542|0|0|I|20110224-13:46:59.239|70|8=FIX.4.0|9=48|35=0|49=MWAM|56=ABN|34=542|52=20110224-13:46:59|10=123||0|
M|543|0|0|I|20110224-13:47:59.240|70|8=FIX.4.0|9=48|35=0|49=MWAM|56=ABN|34=543|52=20110224-13:47:59|10=125||0|
M|544|0|0|I|20110224-13:48:59.241|70|8=FIX.4.0|9=48|35=0|49=MWAM|56=ABN|34=544|52=20110224-13:48:59|10=127||0|
M|545|0|F|I|20110224-13:49:49.059|144|8=FIX.4.0|9=121|35=F|49=MWAM|56=ABN|34=545|52=20110224-13:49:49|41=P3359370|11=P3359370-C1|125=F|55=MRO LN|48=B23DKN2|22=2|54=1|38=93690|10=074||0|
M|546|0|D|I|20110224-13:49:49.397|275|8=FIX.4.0|9=252|35=D|49=MWAM|56=ABN|34=546|52=20110224-13:49:49|11=P3359403|1=DBAGENCY|21=3|55=MRO LN|48=B23DKN2|22=2|54=1|38=93371|40=1|15=GBP|59=0|58=Acting as agent for Deutsche Bank AG and subject to ratification by DB: 20% POV|847=3|6003=20|6004=2|6017=1|6022=20|10=113||0|
M|547|0|0|I|20110224-13:50:49.382|70|8=FIX.4.0|9=48|35=0|49=MWAM|56=ABN|34=547|52=20110224-13:50:49|10=122||0|
M|548|0|0|I|20110224-13:51:49.381|70|8=FIX.4.0|9=48|35=0|49=MWAM|56=ABN|34=548|52=20110224-13:51:49|10=124||0|
M|549|0|0|I|20110224-13:52:49.382|70|8=FIX.4.0|9=48|35=0|49=MWAM|56=ABN|34=549|52=20110224-13:52:49|10=126||0|
M|550|0|0|I|20110224-13:53:49.383|70|8=FIX.4.0|9=48|35=0|49=MWAM|56=ABN|34=550|52=20110224-13:53:49|10=119||0|
M|551|0|0|I|20110224-13:54:49.383|70|8=FIX.4.0|9=48|35=0|49=MWAM|56=ABN|34=551|52=20110224-13:54:49|10=121||0|
M|552|0|0|I|20110224-13:55:49.383|70|8=FIX.4.0|9=48|35=0|49=MWAM|56=ABN|34=552|52=20110224-13:55:49|10=123||0|
M|553|0|0|I|20110224-13:56:49.384|70|8=FIX.4.0|9=48|35=0|49=MWAM|56=ABN|34=553|52=20110224-13:56:49|10=125||0|
M|554|0|0|I|20110224-13:57:49.383|70|8=FIX.4.0|9=48|35=0|49=MWAM|56=ABN|34=554|52=20110224-13:57:49|10=127||0|
M|555|0|0|I|20110224-13:58:49.384|70|8=FIX.4.0|9=48|35=0|49=MWAM|56=ABN|34=555|52=20110224-13:58:49|10=129||0|
M|556|0|D|I|20110224-13:58:53.037|272|8=FIX.4.0|9=249|35=D|49=MWAM|56=ABN|34=556|52=20110224-13:58:52|11=P3359419|1=DBAGENCY|21=3|55=XTA LN|48=3141100|22=2|54=1|38=73441|40=1|15=GBP|59=0|58=Acting as agent for Deutsche Bank AG and subject to ratification by DB: 3% POV|847=3|6003=3|6004=2|6017=1|6022=3|10=139||0|
M|557|0|F|I|20110224-13:59:08.083|144|8=FIX.4.0|9=121|35=F|49=MWAM|56=ABN|34=557|52=20110224-13:59:08|41=P3359419|11=P3359419-C1|125=F|55=XTA LN|48=3141100|22=2|54=1|38=73441|10=236||0|
M|558|0|D|I|20110224-13:59:08.524|272|8=FIX.4.0|9=249|35=D|49=MWAM|56=ABN|34=558|52=20110224-13:59:08|11=P3359420|1=DBAGENCY|21=3|55=XTA LN|48=3141100|22=2|54=1|38=79433|40=1|15=GBP|59=0|58=Acting as agent for Deutsche Bank AG and subject to ratification by DB: 3% POV|847=3|6003=3|6004=2|6017=1|6022=3|10=142||0|
M|559|0|F|I|20110224-13:59:18.239|144|8=FIX.4.0|9=121|35=F|49=MWAM|56=ABN|34=559|52=20110224-13:59:18|41=P3359420|11=P3359420-C1|125=F|55=XTA LN|48=3141100|22=2|54=1|38=79433|10=230||0|
M|560|0|D|I|20110224-13:59:18.745|272|8=FIX.4.0|9=249|35=D|49=MWAM|56=ABN|34=560|52=20110224-13:59:18|11=P3359422|1=DBAGENCY|21=3|55=XTA LN|48=3141100|22=2|54=1|38=95417|40=1|15=GBP|59=0|58=Acting as agent for Deutsche Bank AG and subject to ratification by DB: 3% POV|847=3|6003=3|6004=2|6017=1|6022=3|10=138||0|
M|561|0|F|I|20110224-13:59:28.174|144|8=FIX.4.0|9=121|35=F|49=MWAM|56=ABN|34=561|52=20110224-13:59:28|41=P3359422|11=P3359422-C1|125=F|55=XTA LN|48=3141100|22=2|54=1|38=95417|10=228||0|
M|562|0|D|I|20110224-13:59:28.827|273|8=FIX.4.0|9=250|35=D|49=MWAM|56=ABN|34=562|52=20110224-13:59:28|11=P3359423|1=DBAGENCY|21=3|55=XTA LN|48=3141100|22=2|54=1|38=123055|40=1|15=GBP|59=0|58=Acting as agent for Deutsche Bank AG and subject to ratification by DB: 3% POV|847=3|6003=3|6004=2|6017=1|6022=3|10=172||0|
M|563|0|F|I|20110224-13:59:58.949|145|8=FIX.4.0|9=122|35=F|49=MWAM|56=ABN|34=563|52=20110224-13:59:58|41=P3359423|11=P3359423-C1|125=F|55=XTA LN|48=3141100|22=2|54=1|38=123055|10=018||0|
M|564|0|D|I|20110224-13:59:59.873|272|8=FIX.4.0|9=249|35=D|49=MWAM|56=ABN|34=564|52=20110224-13:59:59|11=P3359426|1=DBAGENCY|21=3|55=XTA LN|48=3141100|22=2|54=1|38=61528|40=1|15=GBP|59=0|58=Acting as agent for Deutsche Bank AG and subject to ratification by DB: 3% POV|847=3|6003=3|6004=2|6017=1|6022=3|10=147||0|
M|565|0|0|I|20110224-14:00:59.854|70|8=FIX.4.0|9=48|35=0|49=MWAM|56=ABN|34=565|52=20110224-14:00:59|10=119||0|
M|566|0|0|I|20110224-14:02:01.132|70|8=FIX.4.0|9=48|35=0|49=MWAM|56=ABN|34=566|52=20110224-14:02:01|10=109||0|
M|567|0|0|I|20110224-14:03:01.121|70|8=FIX.4.0|9=48|35=0|49=MWAM|56=ABN|34=567|52=20110224-14:03:01|10=111||0|
M|568|0|F|I|20110224-14:03:02.524|144|8=FIX.4.0|9=121|35=F|49=MWAM|56=ABN|34=568|52=20110224-14:03:02|41=P3359426|11=P3359426-C1|125=F|55=XTA LN|48=3141100|22=2|54=1|38=61528|10=221||0|
M|569|0|0|I|20110224-14:04:02.513|70|8=FIX.4.0|9=48|35=0|49=MWAM|56=ABN|34=569|52=20110224-14:04:02|10=115||0|
M|570|0|0|I|20110224-14:05:02.512|70|8=FIX.4.0|9=48|35=0|49=MWAM|56=ABN|34=570|52=20110224-14:05:02|10=108||0|
M|571|0|0|I|20110224-14:06:02.536|70|8=FIX.4.0|9=48|35=0|49=MWAM|56=ABN|34=571|52=20110224-14:06:02|10=110||0|
M|572|0|0|I|20110224-14:07:02.512|70|8=FIX.4.0|9=48|35=0|49=MWAM|56=ABN|34=572|52=20110224-14:07:02|10=112||0|
M|573|0|0|I|20110224-14:08:02.512|70|8=FIX.4.0|9=48|35=0|49=MWAM|56=ABN|34=573|52=20110224-14:08:02|10=114||0|
M|574|0|0|I|20110224-14:09:02.513|70|8=FIX.4.0|9=48|35=0|49=MWAM|56=ABN|34=574|52=20110224-14:09:02|10=116||0|
M|575|0|0|I|20110224-14:10:02.513|70|8=FIX.4.0|9=48|35=0|49=MWAM|56=ABN|34=575|52=20110224-14:10:02|10=109||0|
M|576|0|F|I|20110224-14:10:08.815|145|8=FIX.4.0|9=122|35=F|49=MWAM|56=ABN|34=576|52=20110224-14:10:08|41=P3359357|11=P3359357-C1|125=F|55=MSY LN|48=B45TWN6|22=2|54=2|38=158018|10=165||0|
M|577|0|D|I|20110224-14:10:09.395|273|8=FIX.4.0|9=250|35=D|49=MWAM|56=ABN|34=577|52=20110224-14:10:09|11=P3359482|1=DBAGENCY|21=3|55=MSY LN|48=B45TWN6|22=2|54=2|38=149894|40=1|15=GBP|59=0|58=Acting as agent for Deutsche Bank AG and subject to ratification by DB: 3% POV|847=3|6003=3|6004=2|6017=1|6022=3|10=074||0|
M|578|0|0|I|20110224-14:11:09.373|70|8=FIX.4.0|9=48|35=0|49=MWAM|56=ABN|34=578|52=20110224-14:11:09|10=120||0|
M|579|0|0|I|20110224-14:12:09.375|70|8=FIX.4.0|9=48|35=0|49=MWAM|56=ABN|34=579|52=20110224-14:12:09|10=122||0|
M|580|0|0|I|20110224-14:13:09.375|70|8=FIX.4.0|9=48|35=0|49=MWAM|56=ABN|34=580|52=20110224-14:13:09|10=115||0|
M|581|0|D|I|20110224-14:13:10.149|273|8=FIX.4.0|9=250|35=D|49=MWAM|56=ABN|34=581|52=20110224-14:13:10|11=P3359534|1=DBAGENCY|21=3|55=CRH LN|48=0182704|22=2|54=1|38=130196|40=1|15=EUR|59=0|58=Acting as agent for Deutsche Bank AG and subject to ratification by DB: 3% POV|847=3|6003=3|6004=2|6017=1|6022=3|10=177||0|
M|582|0|F|I|20110224-14:13:11.928|145|8=FIX.4.0|9=122|35=F|49=MWAM|56=ABN|34=582|52=20110224-14:13:11|41=P3359534|11=P3359534-C1|125=F|55=CRH LN|48=0182704|22=2|54=1|38=130196|10=005||0|
M|583|0|D|I|20110224-14:13:12.641|273|8=FIX.4.0|9=250|35=D|49=MWAM|56=ABN|34=583|52=20110224-14:13:12|11=P3359537|1=DBAGENCY|21=3|55=CRH LN|48=0182704|22=2|54=1|38=130196|40=1|15=EUR|59=0|58=Acting as agent for Deutsche Bank AG and subject to ratification by DB: 9% POV|847=3|6003=9|6004=2|6017=1|6022=9|10=202||0|
M|584|0|0|I|20110224-14:14:12.625|70|8=FIX.4.0|9=48|35=0|49=MWAM|56=ABN|34=584|52=20110224-14:14:12|10=114||0|
M|585|0|0|I|20110224-14:15:12.626|70|8=FIX.4.0|9=48|35=0|49=MWAM|56=ABN|34=585|52=20110224-14:15:12|10=116||0|
M|586|0|0|I|20110224-14:16:12.626|70|8=FIX.4.0|9=48|35=0|49=MWAM|56=ABN|34=586|52=20110224-14:16:12|10=118||0|
M|587|0|F|I|20110224-14:16:14.685|145|8=FIX.4.0|9=122|35=F|49=MWAM|56=ABN|34=587|52=20110224-14:16:14|41=P3359537|11=P3359537-C1|125=F|55=CRH LN|48=0182704|22=2|54=1|38=130196|10=022||0|
M|588|0|0|I|20110224-14:17:14.673|70|8=FIX.4.0|9=48|35=0|49=MWAM|56=ABN|34=588|52=20110224-14:17:14|10=123||0|
M|589|0|0|I|20110224-14:18:14.674|70|8=FIX.4.0|9=48|35=0|49=MWAM|56=ABN|34=589|52=20110224-14:18:14|10=125||0|
M|590|0|0|I|20110224-14:19:14.674|70|8=FIX.4.0|9=48|35=0|49=MWAM|56=ABN|34=590|52=20110224-14:19:14|10=118||0|
M|591|0|0|I|20110224-14:20:14.674|70|8=FIX.4.0|9=48|35=0|49=MWAM|56=ABN|34=591|52=20110224-14:20:14|10=111||0|
M|592|0|D|I|20110224-14:20:33.975|273|8=FIX.4.0|9=250|35=D|49=MWAM|56=ABN|34=592|52=20110224-14:20:33|11=P3359591|1=DBAGENCY|21=3|55=CNA LN|48=B033F22|22=2|54=1|38=409227|40=1|15=GBP|59=0|58=Acting as agent for Deutsche Bank AG and subject to ratification by DB: 3% POV|847=3|6003=3|6004=2|6017=1|6022=3|10=187||0|
M|593|0|F|I|20110224-14:21:19.277|145|8=FIX.4.0|9=122|35=F|49=MWAM|56=ABN|34=593|52=20110224-14:21:19|41=P3359591|11=P3359591-C1|125=F|55=CNA LN|48=B033F22|22=2|54=1|38=409227|10=041||0|
M|594|0|D|I|20110224-14:21:19.929|276|8=FIX.4.0|9=253|35=D|49=MWAM|56=ABN|34=594|52=20110224-14:21:19|11=P3359606|1=DBAGENCY|21=3|55=CNA LN|48=B033F22|22=2|54=1|38=409227|40=1|15=GBP|59=0|58=Acting as agent for Deutsche Bank AG and subject to ratification by DB: 10% POV|847=3|6003=10|6004=2|6017=1|6022=10|10=076||0|
M|595|0|0|I|20110224-14:22:19.910|70|8=FIX.4.0|9=48|35=0|49=MWAM|56=ABN|34=595|52=20110224-14:22:19|10=122||0|
M|596|0|0|I|20110224-14:23:19.909|70|8=FIX.4.0|9=48|35=0|49=MWAM|56=ABN|34=596|52=20110224-14:23:19|10=124||0|
M|597|0|0|I|20110224-14:24:19.909|70|8=FIX.4.0|9=48|35=0|49=MWAM|56=ABN|34=597|52=20110224-14:24:19|10=126||0|
M|598|0|0|I|20110224-14:25:19.910|70|8=FIX.4.0|9=48|35=0|49=MWAM|56=ABN|34=598|52=20110224-14:25:19|10=128||0|
M|599|0|0|I|20110224-14:26:19.910|70|8=FIX.4.0|9=48|35=0|49=MWAM|56=ABN|34=599|52=20110224-14:26:19|10=130||0|
M|600|0|0|I|20110224-14:27:19.911|70|8=FIX.4.0|9=48|35=0|49=MWAM|56=ABN|34=600|52=20110224-14:27:19|10=114||0|
M|601|0|0|I|20110224-14:28:19.912|70|8=FIX.4.0|9=48|35=0|49=MWAM|56=ABN|34=601|52=20110224-14:28:19|10=116||0|
M|602|0|0|I|20110224-14:29:19.912|70|8=FIX.4.0|9=48|35=0|49=MWAM|56=ABN|34=602|52=20110224-14:29:19|10=118||0|
M|603|0|0|I|20110224-14:30:19.913|70|8=FIX.4.0|9=48|35=0|49=MWAM|56=ABN|34=603|52=20110224-14:30:19|10=111||0|
M|604|0|0|I|20110224-14:31:19.913|70|8=FIX.4.0|9=48|35=0|49=MWAM|56=ABN|34=604|52=20110224-14:31:19|10=113||0|
M|605|0|0|I|20110224-14:32:19.913|70|8=FIX.4.0|9=48|35=0|49=MWAM|56=ABN|34=605|52=20110224-14:32:19|10=115||0|
M|606|0|0|I|20110224-14:33:19.913|70|8=FIX.4.0|9=48|35=0|49=MWAM|56=ABN|34=606|52=20110224-14:33:19|10=117||0|
M|607|0|0|I|20110224-14:34:19.913|70|8=FIX.4.0|9=48|35=0|49=MWAM|56=ABN|34=607|52=20110224-14:34:19|10=119||0|
M|608|0|0|I|20110224-14:35:19.915|70|8=FIX.4.0|9=48|35=0|49=MWAM|56=ABN|34=608|52=20110224-14:35:19|10=121||0|
M|609|0|0|I|20110224-14:36:19.915|70|8=FIX.4.0|9=48|35=0|49=MWAM|56=ABN|34=609|52=20110224-14:36:19|10=123||0|
M|610|0|0|I|20110224-14:37:19.916|70|8=FIX.4.0|9=48|35=0|49=MWAM|56=ABN|34=610|52=20110224-14:37:19|10=116||0|
M|611|0|0|I|20110224-14:38:19.915|70|8=FIX.4.0|9=48|35=0|49=MWAM|56=ABN|34=611|52=20110224-14:38:19|10=118||0|
M|612|0|0|I|20110224-14:39:19.915|70|8=FIX.4.0|9=48|35=0|49=MWAM|56=ABN|34=612|52=20110224-14:39:19|10=120||0|
M|613|0|0|I|20110224-14:40:19.915|70|8=FIX.4.0|9=48|35=0|49=MWAM|56=ABN|34=613|52=20110224-14:40:19|10=113||0|
M|614|0|0|I|20110224-14:41:19.916|70|8=FIX.4.0|9=48|35=0|49=MWAM|56=ABN|34=614|52=20110224-14:41:19|10=115||0|
M|615|0|0|I|20110224-14:42:19.916|70|8=FIX.4.0|9=48|35=0|49=MWAM|56=ABN|34=615|52=20110224-14:42:19|10=117||0|
M|616|0|0|I|20110224-14:43:19.916|70|8=FIX.4.0|9=48|35=0|49=MWAM|56=ABN|34=616|52=20110224-14:43:19|10=119||0|
M|617|0|0|I|20110224-14:44:19.918|70|8=FIX.4.0|9=48|35=0|49=MWAM|56=ABN|34=617|52=20110224-14:44:19|10=121||0|
M|618|0|0|I|20110224-14:45:19.918|70|8=FIX.4.0|9=48|35=0|49=MWAM|56=ABN|34=618|52=20110224-14:45:19|10=123||0|
M|619|0|0|I|20110224-14:46:19.918|70|8=FIX.4.0|9=48|35=0|49=MWAM|56=ABN|34=619|52=20110224-14:46:19|10=125||0|
M|620|0|0|I|20110224-14:47:19.918|70|8=FIX.4.0|9=48|35=0|49=MWAM|56=ABN|34=620|52=20110224-14:47:19|10=118||0|
M|621|0|0|I|20110224-14:48:19.920|70|8=FIX.4.0|9=48|35=0|49=MWAM|56=ABN|34=621|52=20110224-14:48:19|10=120||0|
M|622|0|0|I|20110224-14:49:19.920|70|8=FIX.4.0|9=48|35=0|49=MWAM|56=ABN|34=622|52=20110224-14:49:19|10=122||0|
M|623|0|0|I|20110224-14:50:19.923|70|8=FIX.4.0|9=48|35=0|49=MWAM|56=ABN|34=623|52=20110224-14:50:19|10=115||0|
M|624|0|0|I|20110224-14:51:19.921|70|8=FIX.4.0|9=48|35=0|49=MWAM|56=ABN|34=624|52=20110224-14:51:19|10=117||0|
M|625|0|0|I|20110224-14:52:19.921|70|8=FIX.4.0|9=48|35=0|49=MWAM|56=ABN|34=625|52=20110224-14:52:19|10=119||0|
M|626|0|0|I|20110224-14:53:19.922|70|8=FIX.4.0|9=48|35=0|49=MWAM|56=ABN|34=626|52=20110224-14:53:19|10=121||0|
M|627|0|0|I|20110224-14:54:19.924|70|8=FIX.4.0|9=48|35=0|49=MWAM|56=ABN|34=627|52=20110224-14:54:19|10=123||0|
M|628|0|0|I|20110224-14:55:19.922|70|8=FIX.4.0|9=48|35=0|49=MWAM|56=ABN|34=628|52=20110224-14:55:19|10=125||0|
M|629|0|0|I|20110224-14:56:19.922|70|8=FIX.4.0|9=48|35=0|49=MWAM|56=ABN|34=629|52=20110224-14:56:19|10=127||0|
M|630|0|0|I|20110224-14:57:19.923|70|8=FIX.4.0|9=48|35=0|49=MWAM|56=ABN|34=630|52=20110224-14:57:19|10=120||0|
M|631|0|0|I|20110224-14:58:19.923|70|8=FIX.4.0|9=48|35=0|49=MWAM|56=ABN|34=631|52=20110224-14:58:19|10=122||0|
M|632|0|0|I|20110224-14:59:19.923|70|8=FIX.4.0|9=48|35=0|49=MWAM|56=ABN|34=632|52=20110224-14:59:19|10=124||0|
M|633|0|0|I|20110224-15:00:20.921|70|8=FIX.4.0|9=48|35=0|49=MWAM|56=ABN|34=633|52=20110224-15:00:20|10=104||0|
M|634|0|0|I|20110224-15:01:20.909|70|8=FIX.4.0|9=48|35=0|49=MWAM|56=ABN|34=634|52=20110224-15:01:20|10=106||0|
M|635|0|D|I|20110224-15:01:31.452|272|8=FIX.4.0|9=249|35=D|49=MWAM|56=ABN|34=635|52=20110224-15:01:31|11=P3359804|1=DBAGENCY|21=3|55=BSY LN|48=0141192|22=2|54=1|38=81099|40=1|15=GBP|59=0|58=Acting as agent for Deutsche Bank AG and subject to ratification by DB: 3% POV|847=3|6003=3|6004=2|6017=1|6022=3|10=139||0|
M|636|0|0|I|20110224-15:02:31.519|70|8=FIX.4.0|9=48|35=0|49=MWAM|56=ABN|34=636|52=20110224-15:02:31|10=111||0|
M|637|0|0|I|20110224-15:03:31.519|70|8=FIX.4.0|9=48|35=0|49=MWAM|56=ABN|34=637|52=20110224-15:03:31|10=113||0|
M|638|0|F|I|20110224-15:03:58.850|145|8=FIX.4.0|9=122|35=F|49=MWAM|56=ABN|34=638|52=20110224-15:03:58|41=P3359482|11=P3359482-C1|125=F|55=MSY LN|48=B45TWN6|22=2|54=2|38=149894|10=182||0|
M|639|0|D|I|20110224-15:03:59.325|276|8=FIX.4.0|9=253|35=D|49=MWAM|56=ABN|34=639|52=20110224-15:03:59|11=P3359820|1=DBAGENCY|21=3|55=MSY LN|48=B45TWN6|22=2|54=2|38=144073|40=1|15=GBP|59=0|58=Acting as agent for Deutsche Bank AG and subject to ratification by DB: 20% POV|847=3|6003=20|6004=2|6017=1|6022=20|10=205||0|
M|640|0|0|I|20110224-15:04:59.301|70|8=FIX.4.0|9=48|35=0|49=MWAM|56=ABN|34=640|52=20110224-15:04:59|10=118||0|
M|641|0|F|I|20110224-15:05:50.598|144|8=FIX.4.0|9=121|35=F|49=MWAM|56=ABN|34=641|52=20110224-15:05:50|41=P3359804|11=P3359804-C1|125=F|55=BSY LN|48=0141192|22=2|54=1|38=81099|10=233||0|
M|642|0|D|I|20110224-15:06:32.513|273|8=FIX.4.0|9=250|35=D|49=MWAM|56=ABN|34=642|52=20110224-15:06:32|11=P3359846|1=DBAGENCY|21=3|55=DRX LN|48=B1VNSX3|22=2|54=1|38=194233|40=1|15=GBP|59=0|58=Acting as agent for Deutsche Bank AG and subject to ratification by DB: 3% POV|847=3|6003=3|6004=2|6017=1|6022=3|10=075||0|
M|643|0|0|I|20110224-15:07:32.490|70|8=FIX.4.0|9=48|35=0|49=MWAM|56=ABN|34=643|52=20110224-15:07:32|10=115||0|
M|644|0|0|I|20110224-15:08:32.490|70|8=FIX.4.0|9=48|35=0|49=MWAM|56=ABN|34=644|52=20110224-15:08:32|10=117||0|
M|645|0|0|I|20110224-15:09:32.490|70|8=FIX.4.0|9=48|35=0|49=MWAM|56=ABN|34=645|52=20110224-15:09:32|10=119||0|
M|646|0|0|I|20110224-15:10:32.491|70|8=FIX.4.0|9=48|35=0|49=MWAM|56=ABN|34=646|52=20110224-15:10:32|10=112||0|
M|647|0|F|I|20110224-15:11:05.388|145|8=FIX.4.0|9=122|35=F|49=MWAM|56=ABN|34=647|52=20110224-15:11:05|41=P3359846|11=P3359846-C1|125=F|55=DRX LN|48=B1VNSX3|22=2|54=1|38=194233|10=183||0|
M|648|0|D|I|20110224-15:11:05.724|276|8=FIX.4.0|9=253|35=D|49=MWAM|56=ABN|34=648|52=20110224-15:11:05|11=P3359856|1=DBAGENCY|21=3|55=DRX LN|48=B1VNSX3|22=2|54=1|38=193114|40=1|15=GBP|59=0|58=Acting as agent for Deutsche Bank AG and subject to ratification by DB: 20% POV|847=3|6003=20|6004=2|6017=1|6022=20|10=219||0|
M|649|0|0|I|20110224-15:12:05.709|70|8=FIX.4.0|9=48|35=0|49=MWAM|56=ABN|34=649|52=20110224-15:12:05|10=117||0|
M|650|0|0|I|20110224-15:13:05.710|70|8=FIX.4.0|9=48|35=0|49=MWAM|56=ABN|34=650|52=20110224-15:13:05|10=110||0|
M|651|0|0|I|20110224-15:14:05.712|70|8=FIX.4.0|9=48|35=0|49=MWAM|56=ABN|34=651|52=20110224-15:14:05|10=112||0|
M|652|0|0|I|20110224-15:15:05.712|70|8=FIX.4.0|9=48|35=0|49=MWAM|56=ABN|34=652|52=20110224-15:15:05|10=114||0|
M|653|0|0|I|20110224-15:16:05.711|70|8=FIX.4.0|9=48|35=0|49=MWAM|56=ABN|34=653|52=20110224-15:16:05|10=116||0|
M|654|0|0|I|20110224-15:17:05.712|70|8=FIX.4.0|9=48|35=0|49=MWAM|56=ABN|34=654|52=20110224-15:17:05|10=118||0|
M|655|0|0|I|20110224-15:18:05.712|70|8=FIX.4.0|9=48|35=0|49=MWAM|56=ABN|34=655|52=20110224-15:18:05|10=120||0|
M|656|0|0|I|20110224-15:19:05.713|70|8=FIX.4.0|9=48|35=0|49=MWAM|56=ABN|34=656|52=20110224-15:19:05|10=122||0|
M|657|0|0|I|20110224-15:20:05.712|70|8=FIX.4.0|9=48|35=0|49=MWAM|56=ABN|34=657|52=20110224-15:20:05|10=115||0|
M|658|0|0|I|20110224-15:21:05.713|70|8=FIX.4.0|9=48|35=0|49=MWAM|56=ABN|34=658|52=20110224-15:21:05|10=117||0|
M|659|0|D|I|20110224-15:21:13.472|274|8=FIX.4.0|9=251|35=D|49=MWAM|56=ABN|34=659|52=20110224-15:21:13|11=P3359949|1=DBAGENCY|21=3|55=LLOY LN|48=0870612|22=2|54=1|38=326704|40=1|15=GBP|59=0|58=Acting as agent for Deutsche Bank AG and subject to ratification by DB: 3% POV|847=3|6003=3|6004=2|6017=1|6022=3|10=025||0|
M|660|0|F|I|20110224-15:21:18.744|146|8=FIX.4.0|9=123|35=F|49=MWAM|56=ABN|34=660|52=20110224-15:21:18|41=P3359949|11=P3359949-C1|125=F|55=LLOY LN|48=0870612|22=2|54=1|38=326704|10=133||0|
M|661|0|D|I|20110224-15:21:19.410|274|8=FIX.4.0|9=251|35=D|49=MWAM|56=ABN|34=661|52=20110224-15:21:19|11=P3359952|1=DBAGENCY|21=3|55=LLOY LN|48=0870612|22=2|54=1|38=595944|40=1|15=GBP|59=0|58=Acting as agent for Deutsche Bank AG and subject to ratification by DB: 3% POV|847=3|6003=3|6004=2|6017=1|6022=3|10=032||0|
M|662|0|F|I|20110224-15:21:28.931|146|8=FIX.4.0|9=123|35=F|49=MWAM|56=ABN|34=662|52=20110224-15:21:28|41=P3359952|11=P3359952-C1|125=F|55=LLOY LN|48=0870612|22=2|54=1|38=595944|10=138||0|
M|663|0|D|I|20110224-15:21:29.907|274|8=FIX.4.0|9=251|35=D|49=MWAM|56=ABN|34=663|52=20110224-15:21:29|11=P3359959|1=DBAGENCY|21=3|55=LLOY LN|48=0870612|22=2|54=1|38=945383|40=1|15=GBP|59=0|58=Acting as agent for Deutsche Bank AG and subject to ratification by DB: 3% POV|847=3|6003=3|6004=2|6017=1|6022=3|10=038||0|
M|664|0|F|I|20110224-15:21:30.031|146|8=FIX.4.0|9=123|35=F|49=MWAM|56=ABN|34=664|52=20110224-15:21:29|41=P3359959|11=P3359959-C1|125=F|55=LLOY LN|48=0870612|22=2|54=1|38=945383|10=151||0|
M|665|0|D|I|20110224-15:21:30.517|275|8=FIX.4.0|9=252|35=D|49=MWAM|56=ABN|34=665|52=20110224-15:21:30|11=P3359961|1=DBAGENCY|21=3|55=LLOY LN|48=0870612|22=2|54=1|38=3546818|40=1|15=GBP|59=0|58=Acting as agent for Deutsche Bank AG and subject to ratification by DB: 3% POV|847=3|6003=3|6004=2|6017=1|6022=3|10=077||0|
M|666|0|F|I|20110224-15:21:34.123|147|8=FIX.4.0|9=124|35=F|49=MWAM|56=ABN|34=666|52=20110224-15:21:34|41=P3359961|11=P3359961-C1|125=F|55=LLOY LN|48=0870612|22=2|54=1|38=3546818|10=187||0|
M|667|0|D|I|20110224-15:21:34.757|275|8=FIX.4.0|9=252|35=D|49=MWAM|56=ABN|34=667|52=20110224-15:21:34|11=P3359962|1=DBAGENCY|21=3|55=LLOY LN|48=0870612|22=2|54=1|38=4157356|40=1|15=GBP|59=0|58=Acting as agent for Deutsche Bank AG and subject to ratification by DB: 3% POV|847=3|6003=3|6004=2|6017=1|6022=3|10=080||0|
M|668|0|F|I|20110224-15:22:16.139|147|8=FIX.4.0|9=124|35=F|49=MWAM|56=ABN|34=668|52=20110224-15:22:16|41=P3359962|11=P3359962-C1|125=F|55=LLOY LN|48=0870612|22=2|54=1|38=4157356|10=188||0|
M|669|0|D|I|20110224-15:22:16.696|278|8=FIX.4.0|9=255|35=D|49=MWAM|56=ABN|34=669|52=20110224-15:22:16|11=P3359965|1=DBAGENCY|21=3|55=LLOY LN|48=0870612|22=2|54=1|38=4156693|40=1|15=GBP|59=0|58=Acting as agent for Deutsche Bank AG and subject to ratification by DB: 16% POV|847=3|6003=16|6004=2|6017=1|6022=16|10=248||0|
M|670|0|0|I|20110224-15:23:16.682|70|8=FIX.4.0|9=48|35=0|49=MWAM|56=ABN|34=670|52=20110224-15:23:16|10=115||0|
M|671|0|F|I|20110224-15:23:16.986|147|8=FIX.4.0|9=124|35=F|49=MWAM|56=ABN|34=671|52=20110224-15:23:16|41=P3359965|11=P3359965-C1|125=F|55=LLOY LN|48=0870612|22=2|54=1|38=4156693|10=192||0|
M|672|0|0|I|20110224-15:24:16.979|70|8=FIX.4.0|9=48|35=0|49=MWAM|56=ABN|34=672|52=20110224-15:24:16|10=118||0|
M|673|0|D|I|20110224-15:25:06.429|275|8=FIX.4.0|9=252|35=D|49=MWAM|56=ABN|34=673|52=20110224-15:25:06|11=P3359974|1=DBAGENCY|21=3|55=LLOY LN|48=0870612|22=2|54=1|38=3947495|40=1|15=GBP|59=0|58=Acting as agent for Deutsche Bank AG and subject to ratification by DB: 3% POV|847=3|6003=3|6004=2|6017=1|6022=3|10=093||0|
M|674|0|F|I|20110224-15:25:18.928|147|8=FIX.4.0|9=124|35=F|49=MWAM|56=ABN|34=674|52=20110224-15:25:18|41=P3359974|11=P3359974-C1|125=F|55=LLOY LN|48=0870612|22=2|54=1|38=3947495|10=206||0|
M|675|0|D|I|20110224-15:25:20.869|278|8=FIX.4.0|9=255|35=D|49=MWAM|56=ABN|34=675|52=20110224-15:25:20|11=P3359975|1=DBAGENCY|21=3|55=LLOY LN|48=0870612|22=2|54=1|38=3943890|40=1|15=GBP|59=0|58=Acting as agent for Deutsche Bank AG and subject to ratification by DB: 16% POV|847=3|6003=16|6004=2|6017=1|6022=16|10=246||0|
M|676|0|0|I|20110224-15:26:20.856|70|8=FIX.4.0|9=48|35=0|49=MWAM|56=ABN|34=676|52=20110224-15:26:20|10=119||0|
M|677|0|0|I|20110224-15:27:20.856|70|8=FIX.4.0|9=48|35=0|49=MWAM|56=ABN|34=677|52=20110224-15:27:20|10=121||0|
M|678|0|0|I|20110224-15:28:20.856|70|8=FIX.4.0|9=48|35=0|49=MWAM|56=ABN|34=678|52=20110224-15:28:20|10=123||0|
M|679|0|0|I|20110224-15:29:20.857|70|8=FIX.4.0|9=48|35=0|49=MWAM|56=ABN|34=679|52=20110224-15:29:20|10=125||0|
M|680|0|0|I|20110224-15:30:20.856|70|8=FIX.4.0|9=48|35=0|49=MWAM|56=ABN|34=680|52=20110224-15:30:20|10=109||0|
M|681|0|D|I|20110224-15:31:14.826|273|8=FIX.4.0|9=250|35=D|49=MWAM|56=ABN|34=681|52=20110224-15:31:14|11=P3360020|1=DBAGENCY|21=3|55=SSE LN|48=0790873|22=2|54=2|38=128819|40=1|15=GBP|59=0|58=Acting as agent for Deutsche Bank AG and subject to ratification by DB: 3% POV|847=3|6003=3|6004=2|6017=1|6022=3|10=182||0|
