V|1.1|
M|1|0|A|I|20110223-22:35:03.274|100|8=FIX.4.0|9=0076|35=A|49=NYFXINTL40|56=RBSE40|57=ADMIN|34=1|52=20110223-22:35:03|98=0|108=30|10=014||0|
M|2|0|0|I|20110223-22:35:04.385|99|8=FIX.4.0|9=0075|35=0|49=NYFXINTL40|56=RBSE40|57=ADMIN|34=2|52=20110223-22:35:04|112=STBL-2|10=075||0|
M|3|0|0|I|20110223-22:35:34.134|88|8=FIX.4.0|9=0064|35=0|49=NYFXINTL40|56=RBSE40|57=ADMIN|34=3|52=20110223-22:35:34|10=231||0|
M|4|0|0|I|20110223-22:36:04.127|88|8=FIX.4.0|9=0064|35=0|49=NYFXINTL40|56=RBSE40|57=ADMIN|34=4|52=20110223-22:36:04|10=230||0|
M|5|0|0|I|20110223-22:36:34.088|88|8=FIX.4.0|9=0064|35=0|49=NYFXINTL40|56=RBSE40|57=ADMIN|34=5|52=20110223-22:36:34|10=234||0|
M|6|0|0|I|20110223-22:37:04.194|88|8=FIX.4.0|9=0064|35=0|49=NYFXINTL40|56=RBSE40|57=ADMIN|34=6|52=20110223-22:37:04|10=233||0|
M|7|0|0|I|20110223-22:37:34.193|88|8=FIX.4.0|9=0064|35=0|49=NYFXINTL40|56=RBSE40|57=ADMIN|34=7|52=20110223-22:37:34|10=237||0|
M|8|0|0|I|20110223-22:38:04.088|88|8=FIX.4.0|9=0064|35=0|49=NYFXINTL40|56=RBSE40|57=ADMIN|34=8|52=20110223-22:38:04|10=236||0|
M|9|0|0|I|20110223-22:38:34.148|88|8=FIX.4.0|9=0064|35=0|49=NYFXINTL40|56=RBSE40|57=ADMIN|34=9|52=20110223-22:38:34|10=240||0|
M|10|0|0|I|20110223-22:39:04.066|89|8=FIX.4.0|9=0065|35=0|49=NYFXINTL40|56=RBSE40|57=ADMIN|34=10|52=20110223-22:39:04|10=023||0|
M|11|0|0|I|20110223-22:39:34.135|89|8=FIX.4.0|9=0065|35=0|49=NYFXINTL40|56=RBSE40|57=ADMIN|34=11|52=20110223-22:39:34|10=027||0|
M|12|0|0|I|20110223-22:40:04.086|89|8=FIX.4.0|9=0065|35=0|49=NYFXINTL40|56=RBSE40|57=ADMIN|34=12|52=20110223-22:40:04|10=017||0|
M|13|0|0|I|20110223-22:40:34.110|89|8=FIX.4.0|9=0065|35=0|49=NYFXINTL40|56=RBSE40|57=ADMIN|34=13|52=20110223-22:40:34|10=021||0|
M|14|0|0|I|20110223-22:41:04.149|89|8=FIX.4.0|9=0065|35=0|49=NYFXINTL40|56=RBSE40|57=ADMIN|34=14|52=20110223-22:41:04|10=020||0|
M|15|0|0|I|20110223-22:41:34.133|89|8=FIX.4.0|9=0065|35=0|49=NYFXINTL40|56=RBSE40|57=ADMIN|34=15|52=20110223-22:41:34|10=024||0|
M|16|0|0|I|20110223-22:42:04.107|89|8=FIX.4.0|9=0065|35=0|49=NYFXINTL40|56=RBSE40|57=ADMIN|34=16|52=20110223-22:42:04|10=023||0|
M|17|0|0|I|20110223-22:42:34.091|89|8=FIX.4.0|9=0065|35=0|49=NYFXINTL40|56=RBSE40|57=ADMIN|34=17|52=20110223-22:42:34|10=027||0|
M|18|0|0|I|20110223-22:43:04.107|89|8=FIX.4.0|9=0065|35=0|49=NYFXINTL40|56=RBSE40|57=ADMIN|34=18|52=20110223-22:43:04|10=026||0|
M|19|0|0|I|20110223-22:43:34.104|89|8=FIX.4.0|9=0065|35=0|49=NYFXINTL40|56=RBSE40|57=ADMIN|34=19|52=20110223-22:43:34|10=030||0|
M|20|0|0|I|20110223-22:44:04.147|89|8=FIX.4.0|9=0065|35=0|49=NYFXINTL40|56=RBSE40|57=ADMIN|34=20|52=20110223-22:44:04|10=020||0|
M|21|0|0|I|20110223-22:44:34.140|89|8=FIX.4.0|9=0065|35=0|49=NYFXINTL40|56=RBSE40|57=ADMIN|34=21|52=20110223-22:44:34|10=024||0|
M|22|0|0|I|20110223-22:45:04.161|89|8=FIX.4.0|9=0065|35=0|49=NYFXINTL40|56=RBSE40|57=ADMIN|34=22|52=20110223-22:45:04|10=023||0|
M|23|0|0|I|20110223-22:45:34.079|89|8=FIX.4.0|9=0065|35=0|49=NYFXINTL40|56=RBSE40|57=ADMIN|34=23|52=20110223-22:45:34|10=027||0|
M|24|0|0|I|20110223-22:46:04.087|89|8=FIX.4.0|9=0065|35=0|49=NYFXINTL40|56=RBSE40|57=ADMIN|34=24|52=20110223-22:46:04|10=026||0|
M|25|0|0|I|20110223-22:46:34.153|89|8=FIX.4.0|9=0065|35=0|49=NYFXINTL40|56=RBSE40|57=ADMIN|34=25|52=20110223-22:46:34|10=030||0|
M|26|0|0|I|20110223-22:47:04.100|89|8=FIX.4.0|9=0065|35=0|49=NYFXINTL40|56=RBSE40|57=ADMIN|34=26|52=20110223-22:47:04|10=029||0|
M|27|0|0|I|20110223-22:47:34.124|89|8=FIX.4.0|9=0065|35=0|49=NYFXINTL40|56=RBSE40|57=ADMIN|34=27|52=20110223-22:47:34|10=033||0|
M|28|0|0|I|20110223-22:48:04.092|89|8=FIX.4.0|9=0065|35=0|49=NYFXINTL40|56=RBSE40|57=ADMIN|34=28|52=20110223-22:48:04|10=032||0|
M|29|0|0|I|20110223-22:48:34.146|89|8=FIX.4.0|9=0065|35=0|49=NYFXINTL40|56=RBSE40|57=ADMIN|34=29|52=20110223-22:48:34|10=036||0|
M|30|0|0|I|20110223-22:49:04.179|89|8=FIX.4.0|9=0065|35=0|49=NYFXINTL40|56=RBSE40|57=ADMIN|34=30|52=20110223-22:49:04|10=026||0|
M|31|0|0|I|20110223-22:49:34.121|89|8=FIX.4.0|9=0065|35=0|49=NYFXINTL40|56=RBSE40|57=ADMIN|34=31|52=20110223-22:49:34|10=030||0|
M|32|0|0|I|20110223-22:50:04.083|89|8=FIX.4.0|9=0065|35=0|49=NYFXINTL40|56=RBSE40|57=ADMIN|34=32|52=20110223-22:50:04|10=020||0|
M|33|0|0|I|20110223-22:50:34.060|89|8=FIX.4.0|9=0065|35=0|49=NYFXINTL40|56=RBSE40|57=ADMIN|34=33|52=20110223-22:50:34|10=024||0|
M|34|0|0|I|20110223-22:51:04.068|89|8=FIX.4.0|9=0065|35=0|49=NYFXINTL40|56=RBSE40|57=ADMIN|34=34|52=20110223-22:51:04|10=023||0|
M|35|0|0|I|20110223-22:51:34.114|89|8=FIX.4.0|9=0065|35=0|49=NYFXINTL40|56=RBSE40|57=ADMIN|34=35|52=20110223-22:51:34|10=027||0|
M|36|0|0|I|20110223-22:52:04.081|89|8=FIX.4.0|9=0065|35=0|49=NYFXINTL40|56=RBSE40|57=ADMIN|34=36|52=20110223-22:52:04|10=026||0|
M|37|0|0|I|20110223-22:52:34.076|89|8=FIX.4.0|9=0065|35=0|49=NYFXINTL40|56=RBSE40|57=ADMIN|34=37|52=20110223-22:52:34|10=030||0|
M|38|0|0|I|20110223-22:53:04.121|89|8=FIX.4.0|9=0065|35=0|49=NYFXINTL40|56=RBSE40|57=ADMIN|34=38|52=20110223-22:53:04|10=029||0|
M|39|0|0|I|20110223-22:53:34.142|89|8=FIX.4.0|9=0065|35=0|49=NYFXINTL40|56=RBSE40|57=ADMIN|34=39|52=20110223-22:53:34|10=033||0|
M|40|0|0|I|20110223-22:54:04.125|89|8=FIX.4.0|9=0065|35=0|49=NYFXINTL40|56=RBSE40|57=ADMIN|34=40|52=20110223-22:54:04|10=023||0|
M|41|0|0|I|20110223-22:54:34.103|89|8=FIX.4.0|9=0065|35=0|49=NYFXINTL40|56=RBSE40|57=ADMIN|34=41|52=20110223-22:54:34|10=027||0|
M|42|0|0|I|20110223-22:55:04.100|89|8=FIX.4.0|9=0065|35=0|49=NYFXINTL40|56=RBSE40|57=ADMIN|34=42|52=20110223-22:55:04|10=026||0|
M|43|0|0|I|20110223-22:55:34.139|89|8=FIX.4.0|9=0065|35=0|49=NYFXINTL40|56=RBSE40|57=ADMIN|34=43|52=20110223-22:55:34|10=030||0|
M|44|0|0|I|20110223-22:56:04.083|89|8=FIX.4.0|9=0065|35=0|49=NYFXINTL40|56=RBSE40|57=ADMIN|34=44|52=20110223-22:56:04|10=029||0|
M|45|0|0|I|20110223-22:56:34.079|89|8=FIX.4.0|9=0065|35=0|49=NYFXINTL40|56=RBSE40|57=ADMIN|34=45|52=20110223-22:56:34|10=033||0|
M|46|0|0|I|20110223-22:57:04.100|89|8=FIX.4.0|9=0065|35=0|49=NYFXINTL40|56=RBSE40|57=ADMIN|34=46|52=20110223-22:57:04|10=032||0|
M|47|0|0|I|20110223-22:57:34.061|89|8=FIX.4.0|9=0065|35=0|49=NYFXINTL40|56=RBSE40|57=ADMIN|34=47|52=20110223-22:57:34|10=036||0|
M|48|0|0|I|20110223-22:58:04.144|89|8=FIX.4.0|9=0065|35=0|49=NYFXINTL40|56=RBSE40|57=ADMIN|34=48|52=20110223-22:58:04|10=035||0|
M|49|0|0|I|20110223-22:58:34.056|89|8=FIX.4.0|9=0065|35=0|49=NYFXINTL40|56=RBSE40|57=ADMIN|34=49|52=20110223-22:58:34|10=039||0|
M|50|0|0|I|20110223-22:59:04.117|89|8=FIX.4.0|9=0065|35=0|49=NYFXINTL40|56=RBSE40|57=ADMIN|34=50|52=20110223-22:59:04|10=029||0|
M|51|0|0|I|20110223-22:59:34.106|89|8=FIX.4.0|9=0065|35=0|49=NYFXINTL40|56=RBSE40|57=ADMIN|34=51|52=20110223-22:59:34|10=033||0|
M|52|0|0|I|20110223-23:00:04.089|89|8=FIX.4.0|9=0065|35=0|49=NYFXINTL40|56=RBSE40|57=ADMIN|34=52|52=20110223-23:00:04|10=018||0|
M|53|0|0|I|20110223-23:00:34.459|89|8=FIX.4.0|9=0065|35=0|49=NYFXINTL40|56=RBSE40|57=ADMIN|34=53|52=20110223-23:00:34|10=022||0|
M|54|0|0|I|20110223-23:01:04.112|89|8=FIX.4.0|9=0065|35=0|49=NYFXINTL40|56=RBSE40|57=ADMIN|34=54|52=20110223-23:01:04|10=021||0|
M|55|0|0|I|20110223-23:01:34.093|89|8=FIX.4.0|9=0065|35=0|49=NYFXINTL40|56=RBSE40|57=ADMIN|34=55|52=20110223-23:01:34|10=025||0|
M|56|0|0|I|20110223-23:02:04.099|89|8=FIX.4.0|9=0065|35=0|49=NYFXINTL40|56=RBSE40|57=ADMIN|34=56|52=20110223-23:02:04|10=024||0|
M|57|0|0|I|20110223-23:02:34.129|89|8=FIX.4.0|9=0065|35=0|49=NYFXINTL40|56=RBSE40|57=ADMIN|34=57|52=20110223-23:02:34|10=028||0|
M|58|0|0|I|20110223-23:03:04.156|89|8=FIX.4.0|9=0065|35=0|49=NYFXINTL40|56=RBSE40|57=ADMIN|34=58|52=20110223-23:03:04|10=027||0|
M|59|0|0|I|20110223-23:03:34.126|89|8=FIX.4.0|9=0065|35=0|49=NYFXINTL40|56=RBSE40|57=ADMIN|34=59|52=20110223-23:03:34|10=031||0|
M|60|0|0|I|20110223-23:04:04.166|89|8=FIX.4.0|9=0065|35=0|49=NYFXINTL40|56=RBSE40|57=ADMIN|34=60|52=20110223-23:04:04|10=021||0|
M|61|0|0|I|20110223-23:04:34.127|89|8=FIX.4.0|9=0065|35=0|49=NYFXINTL40|56=RBSE40|57=ADMIN|34=61|52=20110223-23:04:34|10=025||0|
M|62|0|0|I|20110223-23:05:04.155|89|8=FIX.4.0|9=0065|35=0|49=NYFXINTL40|56=RBSE40|57=ADMIN|34=62|52=20110223-23:05:04|10=024||0|
M|63|0|0|I|20110223-23:05:34.133|89|8=FIX.4.0|9=0065|35=0|49=NYFXINTL40|56=RBSE40|57=ADMIN|34=63|52=20110223-23:05:34|10=028||0|
M|64|0|0|I|20110223-23:06:04.067|89|8=FIX.4.0|9=0065|35=0|49=NYFXINTL40|56=RBSE40|57=ADMIN|34=64|52=20110223-23:06:04|10=027||0|
M|65|0|0|I|20110223-23:06:34.142|89|8=FIX.4.0|9=0065|35=0|49=NYFXINTL40|56=RBSE40|57=ADMIN|34=65|52=20110223-23:06:34|10=031||0|
M|66|0|0|I|20110223-23:07:04.162|89|8=FIX.4.0|9=0065|35=0|49=NYFXINTL40|56=RBSE40|57=ADMIN|34=66|52=20110223-23:07:04|10=030||0|
M|67|0|0|I|20110223-23:07:34.131|89|8=FIX.4.0|9=0065|35=0|49=NYFXINTL40|56=RBSE40|57=ADMIN|34=67|52=20110223-23:07:34|10=034||0|
M|68|0|0|I|20110223-23:08:04.132|89|8=FIX.4.0|9=0065|35=0|49=NYFXINTL40|56=RBSE40|57=ADMIN|34=68|52=20110223-23:08:04|10=033||0|
M|69|0|0|I|20110223-23:08:34.118|89|8=FIX.4.0|9=0065|35=0|49=NYFXINTL40|56=RBSE40|57=ADMIN|34=69|52=20110223-23:08:34|10=037||0|
M|70|0|0|I|20110223-23:09:04.066|89|8=FIX.4.0|9=0065|35=0|49=NYFXINTL40|56=RBSE40|57=ADMIN|34=70|52=20110223-23:09:04|10=027||0|
M|71|0|0|I|20110223-23:09:34.178|89|8=FIX.4.0|9=0065|35=0|49=NYFXINTL40|56=RBSE40|57=ADMIN|34=71|52=20110223-23:09:34|10=031||0|
M|72|0|0|I|20110223-23:10:04.057|89|8=FIX.4.0|9=0065|35=0|49=NYFXINTL40|56=RBSE40|57=ADMIN|34=72|52=20110223-23:10:04|10=021||0|
M|73|0|0|I|20110223-23:10:34.109|89|8=FIX.4.0|9=0065|35=0|49=NYFXINTL40|56=RBSE40|57=ADMIN|34=73|52=20110223-23:10:34|10=025||0|
M|74|0|0|I|20110223-23:11:04.152|89|8=FIX.4.0|9=0065|35=0|49=NYFXINTL40|56=RBSE40|57=ADMIN|34=74|52=20110223-23:11:04|10=024||0|
M|75|0|0|I|20110223-23:11:34.069|89|8=FIX.4.0|9=0065|35=0|49=NYFXINTL40|56=RBSE40|57=ADMIN|34=75|52=20110223-23:11:34|10=028||0|
M|76|0|0|I|20110223-23:12:04.130|89|8=FIX.4.0|9=0065|35=0|49=NYFXINTL40|56=RBSE40|57=ADMIN|34=76|52=20110223-23:12:04|10=027||0|
M|77|0|0|I|20110223-23:12:34.304|89|8=FIX.4.0|9=0065|35=0|49=NYFXINTL40|56=RBSE40|57=ADMIN|34=77|52=20110223-23:12:34|10=031||0|
M|78|0|0|I|20110223-23:13:04.105|89|8=FIX.4.0|9=0065|35=0|49=NYFXINTL40|56=RBSE40|57=ADMIN|34=78|52=20110223-23:13:04|10=030||0|
M|79|0|0|I|20110223-23:13:34.099|89|8=FIX.4.0|9=0065|35=0|49=NYFXINTL40|56=RBSE40|57=ADMIN|34=79|52=20110223-23:13:34|10=034||0|
M|80|0|0|I|20110223-23:14:04.143|89|8=FIX.4.0|9=0065|35=0|49=NYFXINTL40|56=RBSE40|57=ADMIN|34=80|52=20110223-23:14:04|10=024||0|
M|81|0|0|I|20110223-23:14:34.057|89|8=FIX.4.0|9=0065|35=0|49=NYFXINTL40|56=RBSE40|57=ADMIN|34=81|52=20110223-23:14:34|10=028||0|
M|82|0|0|I|20110223-23:15:04.079|89|8=FIX.4.0|9=0065|35=0|49=NYFXINTL40|56=RBSE40|57=ADMIN|34=82|52=20110223-23:15:04|10=027||0|
M|83|0|0|I|20110223-23:15:34.088|89|8=FIX.4.0|9=0065|35=0|49=NYFXINTL40|56=RBSE40|57=ADMIN|34=83|52=20110223-23:15:34|10=031||0|
M|84|0|0|I|20110223-23:16:04.107|89|8=FIX.4.0|9=0065|35=0|49=NYFXINTL40|56=RBSE40|57=ADMIN|34=84|52=20110223-23:16:04|10=030||0|
M|85|0|0|I|20110223-23:16:34.156|89|8=FIX.4.0|9=0065|35=0|49=NYFXINTL40|56=RBSE40|57=ADMIN|34=85|52=20110223-23:16:34|10=034||0|
M|86|0|0|I|20110223-23:17:04.110|89|8=FIX.4.0|9=0065|35=0|49=NYFXINTL40|56=RBSE40|57=ADMIN|34=86|52=20110223-23:17:04|10=033||0|
M|87|0|0|I|20110223-23:17:34.125|89|8=FIX.4.0|9=0065|35=0|49=NYFXINTL40|56=RBSE40|57=ADMIN|34=87|52=20110223-23:17:34|10=037||0|
M|88|0|0|I|20110223-23:18:04.139|89|8=FIX.4.0|9=0065|35=0|49=NYFXINTL40|56=RBSE40|57=ADMIN|34=88|52=20110223-23:18:04|10=036||0|
M|89|0|0|I|20110223-23:18:34.245|89|8=FIX.4.0|9=0065|35=0|49=NYFXINTL40|56=RBSE40|57=ADMIN|34=89|52=20110223-23:18:34|10=040||0|
M|90|0|0|I|20110223-23:19:04.151|89|8=FIX.4.0|9=0065|35=0|49=NYFXINTL40|56=RBSE40|57=ADMIN|34=90|52=20110223-23:19:04|10=030||0|
M|91|0|0|I|20110223-23:19:34.113|89|8=FIX.4.0|9=0065|35=0|49=NYFXINTL40|56=RBSE40|57=ADMIN|34=91|52=20110223-23:19:34|10=034||0|
M|92|0|0|I|20110223-23:20:04.165|89|8=FIX.4.0|9=0065|35=0|49=NYFXINTL40|56=RBSE40|57=ADMIN|34=92|52=20110223-23:20:04|10=024||0|
M|93|0|0|I|20110223-23:20:34.131|89|8=FIX.4.0|9=0065|35=0|49=NYFXINTL40|56=RBSE40|57=ADMIN|34=93|52=20110223-23:20:34|10=028||0|
M|94|0|0|I|20110223-23:21:04.102|89|8=FIX.4.0|9=0065|35=0|49=NYFXINTL40|56=RBSE40|57=ADMIN|34=94|52=20110223-23:21:04|10=027||0|
M|95|0|0|I|20110223-23:21:34.063|89|8=FIX.4.0|9=0065|35=0|49=NYFXINTL40|56=RBSE40|57=ADMIN|34=95|52=20110223-23:21:34|10=031||0|
M|96|0|0|I|20110223-23:22:04.097|89|8=FIX.4.0|9=0065|35=0|49=NYFXINTL40|56=RBSE40|57=ADMIN|34=96|52=20110223-23:22:04|10=030||0|
M|97|0|0|I|20110223-23:22:34.126|89|8=FIX.4.0|9=0065|35=0|49=NYFXINTL40|56=RBSE40|57=ADMIN|34=97|52=20110223-23:22:34|10=034||0|
M|98|0|0|I|20110223-23:23:04.123|89|8=FIX.4.0|9=0065|35=0|49=NYFXINTL40|56=RBSE40|57=ADMIN|34=98|52=20110223-23:23:04|10=033||0|
M|99|0|0|I|20110223-23:23:34.115|89|8=FIX.4.0|9=0065|35=0|49=NYFXINTL40|56=RBSE40|57=ADMIN|34=99|52=20110223-23:23:34|10=037||0|
M|100|0|0|I|20110223-23:24:04.105|90|8=FIX.4.0|9=0066|35=0|49=NYFXINTL40|56=RBSE40|57=ADMIN|34=100|52=20110223-23:24:04|10=067||0|
M|101|0|0|I|20110223-23:24:34.162|90|8=FIX.4.0|9=0066|35=0|49=NYFXINTL40|56=RBSE40|57=ADMIN|34=101|52=20110223-23:24:34|10=071||0|
M|102|0|0|I|20110223-23:25:04.083|90|8=FIX.4.0|9=0066|35=0|49=NYFXINTL40|56=RBSE40|57=ADMIN|34=102|52=20110223-23:25:04|10=070||0|
M|103|0|0|I|20110223-23:25:34.122|90|8=FIX.4.0|9=0066|35=0|49=NYFXINTL40|56=RBSE40|57=ADMIN|34=103|52=20110223-23:25:34|10=074||0|
M|104|0|0|I|20110223-23:26:04.099|90|8=FIX.4.0|9=0066|35=0|49=NYFXINTL40|56=RBSE40|57=ADMIN|34=104|52=20110223-23:26:04|10=073||0|
M|105|0|0|I|20110223-23:26:34.079|90|8=FIX.4.0|9=0066|35=0|49=NYFXINTL40|56=RBSE40|57=ADMIN|34=105|52=20110223-23:26:34|10=077||0|
M|106|0|0|I|20110223-23:27:04.107|90|8=FIX.4.0|9=0066|35=0|49=NYFXINTL40|56=RBSE40|57=ADMIN|34=106|52=20110223-23:27:04|10=076||0|
M|107|0|0|I|20110223-23:27:34.154|90|8=FIX.4.0|9=0066|35=0|49=NYFXINTL40|56=RBSE40|57=ADMIN|34=107|52=20110223-23:27:34|10=080||0|
M|108|0|0|I|20110223-23:28:04.149|90|8=FIX.4.0|9=0066|35=0|49=NYFXINTL40|56=RBSE40|57=ADMIN|34=108|52=20110223-23:28:04|10=079||0|
M|109|0|0|I|20110223-23:28:34.116|90|8=FIX.4.0|9=0066|35=0|49=NYFXINTL40|56=RBSE40|57=ADMIN|34=109|52=20110223-23:28:34|10=083||0|
M|110|0|0|I|20110223-23:29:04.058|90|8=FIX.4.0|9=0066|35=0|49=NYFXINTL40|56=RBSE40|57=ADMIN|34=110|52=20110223-23:29:04|10=073||0|
M|111|0|0|I|20110223-23:29:34.154|90|8=FIX.4.0|9=0066|35=0|49=NYFXINTL40|56=RBSE40|57=ADMIN|34=111|52=20110223-23:29:34|10=077||0|
M|112|0|0|I|20110223-23:30:04.094|90|8=FIX.4.0|9=0066|35=0|49=NYFXINTL40|56=RBSE40|57=ADMIN|34=112|52=20110223-23:30:04|10=067||0|
M|113|0|0|I|20110223-23:30:34.052|90|8=FIX.4.0|9=0066|35=0|49=NYFXINTL40|56=RBSE40|57=ADMIN|34=113|52=20110223-23:30:34|10=071||0|
M|114|0|0|I|20110223-23:31:04.101|90|8=FIX.4.0|9=0066|35=0|49=NYFXINTL40|56=RBSE40|57=ADMIN|34=114|52=20110223-23:31:04|10=070||0|
M|115|0|0|I|20110223-23:31:34.160|90|8=FIX.4.0|9=0066|35=0|49=NYFXINTL40|56=RBSE40|57=ADMIN|34=115|52=20110223-23:31:34|10=074||0|
M|116|0|0|I|20110223-23:32:04.099|90|8=FIX.4.0|9=0066|35=0|49=NYFXINTL40|56=RBSE40|57=ADMIN|34=116|52=20110223-23:32:04|10=073||0|
M|117|0|0|I|20110223-23:32:34.130|90|8=FIX.4.0|9=0066|35=0|49=NYFXINTL40|56=RBSE40|57=ADMIN|34=117|52=20110223-23:32:34|10=077||0|
M|118|0|0|I|20110223-23:33:04.059|90|8=FIX.4.0|9=0066|35=0|49=NYFXINTL40|56=RBSE40|57=ADMIN|34=118|52=20110223-23:33:04|10=076||0|
M|119|0|0|I|20110223-23:33:34.118|90|8=FIX.4.0|9=0066|35=0|49=NYFXINTL40|56=RBSE40|57=ADMIN|34=119|52=20110223-23:33:34|10=080||0|
M|120|0|0|I|20110223-23:34:04.137|90|8=FIX.4.0|9=0066|35=0|49=NYFXINTL40|56=RBSE40|57=ADMIN|34=120|52=20110223-23:34:04|10=070||0|
M|121|0|0|I|20110223-23:34:34.155|90|8=FIX.4.0|9=0066|35=0|49=NYFXINTL40|56=RBSE40|57=ADMIN|34=121|52=20110223-23:34:34|10=074||0|
M|122|0|0|I|20110223-23:35:04.083|90|8=FIX.4.0|9=0066|35=0|49=NYFXINTL40|56=RBSE40|57=ADMIN|34=122|52=20110223-23:35:04|10=073||0|
M|123|0|0|I|20110223-23:35:34.096|90|8=FIX.4.0|9=0066|35=0|49=NYFXINTL40|56=RBSE40|57=ADMIN|34=123|52=20110223-23:35:34|10=077||0|
M|124|0|0|I|20110223-23:36:04.056|90|8=FIX.4.0|9=0066|35=0|49=NYFXINTL40|56=RBSE40|57=ADMIN|34=124|52=20110223-23:36:04|10=076||0|
M|125|0|0|I|20110223-23:36:34.083|90|8=FIX.4.0|9=0066|35=0|49=NYFXINTL40|56=RBSE40|57=ADMIN|34=125|52=20110223-23:36:34|10=080||0|
M|126|0|0|I|20110223-23:37:04.108|90|8=FIX.4.0|9=0066|35=0|49=NYFXINTL40|56=RBSE40|57=ADMIN|34=126|52=20110223-23:37:04|10=079||0|
M|127|0|0|I|20110223-23:37:34.072|90|8=FIX.4.0|9=0066|35=0|49=NYFXINTL40|56=RBSE40|57=ADMIN|34=127|52=20110223-23:37:34|10=083||0|
M|128|0|0|I|20110223-23:38:04.281|90|8=FIX.4.0|9=0066|35=0|49=NYFXINTL40|56=RBSE40|57=ADMIN|34=128|52=20110223-23:38:04|10=082||0|
M|129|0|0|I|20110223-23:38:34.127|90|8=FIX.4.0|9=0066|35=0|49=NYFXINTL40|56=RBSE40|57=ADMIN|34=129|52=20110223-23:38:34|10=086||0|
M|130|0|0|I|20110223-23:39:04.099|90|8=FIX.4.0|9=0066|35=0|49=NYFXINTL40|56=RBSE40|57=ADMIN|34=130|52=20110223-23:39:04|10=076||0|
M|131|0|0|I|20110223-23:39:34.142|90|8=FIX.4.0|9=0066|35=0|49=NYFXINTL40|56=RBSE40|57=ADMIN|34=131|52=20110223-23:39:34|10=080||0|
M|132|0|0|I|20110223-23:40:04.148|90|8=FIX.4.0|9=0066|35=0|49=NYFXINTL40|56=RBSE40|57=ADMIN|34=132|52=20110223-23:40:04|10=070||0|
M|133|0|0|I|20110223-23:40:34.099|90|8=FIX.4.0|9=0066|35=0|49=NYFXINTL40|56=RBSE40|57=ADMIN|34=133|52=20110223-23:40:34|10=074||0|
M|134|0|0|I|20110223-23:41:04.147|90|8=FIX.4.0|9=0066|35=0|49=NYFXINTL40|56=RBSE40|57=ADMIN|34=134|52=20110223-23:41:04|10=073||0|
M|135|0|0|I|20110223-23:41:34.146|90|8=FIX.4.0|9=0066|35=0|49=NYFXINTL40|56=RBSE40|57=ADMIN|34=135|52=20110223-23:41:34|10=077||0|
M|136|0|0|I|20110223-23:42:04.103|90|8=FIX.4.0|9=0066|35=0|49=NYFXINTL40|56=RBSE40|57=ADMIN|34=136|52=20110223-23:42:04|10=076||0|
M|137|0|0|I|20110223-23:42:34.095|90|8=FIX.4.0|9=0066|35=0|49=NYFXINTL40|56=RBSE40|57=ADMIN|34=137|52=20110223-23:42:34|10=080||0|
M|138|0|0|I|20110223-23:43:04.116|90|8=FIX.4.0|9=0066|35=0|49=NYFXINTL40|56=RBSE40|57=ADMIN|34=138|52=20110223-23:43:04|10=079||0|
M|139|0|0|I|20110223-23:43:34.121|90|8=FIX.4.0|9=0066|35=0|49=NYFXINTL40|56=RBSE40|57=ADMIN|34=139|52=20110223-23:43:34|10=083||0|
M|140|0|0|I|20110223-23:44:04.094|90|8=FIX.4.0|9=0066|35=0|49=NYFXINTL40|56=RBSE40|57=ADMIN|34=140|52=20110223-23:44:04|10=073||0|
M|141|0|0|I|20110223-23:44:34.121|90|8=FIX.4.0|9=0066|35=0|49=NYFXINTL40|56=RBSE40|57=ADMIN|34=141|52=20110223-23:44:34|10=077||0|
M|142|0|0|I|20110223-23:45:04.180|90|8=FIX.4.0|9=0066|35=0|49=NYFXINTL40|56=RBSE40|57=ADMIN|34=142|52=20110223-23:45:04|10=076||0|
M|143|0|0|I|20110223-23:45:34.171|90|8=FIX.4.0|9=0066|35=0|49=NYFXINTL40|56=RBSE40|57=ADMIN|34=143|52=20110223-23:45:34|10=080||0|
M|144|0|0|I|20110223-23:46:04.120|90|8=FIX.4.0|9=0066|35=0|49=NYFXINTL40|56=RBSE40|57=ADMIN|34=144|52=20110223-23:46:04|10=079||0|
M|145|0|0|I|20110223-23:46:34.119|90|8=FIX.4.0|9=0066|35=0|49=NYFXINTL40|56=RBSE40|57=ADMIN|34=145|52=20110223-23:46:34|10=083||0|
M|146|0|0|I|20110223-23:47:04.137|90|8=FIX.4.0|9=0066|35=0|49=NYFXINTL40|56=RBSE40|57=ADMIN|34=146|52=20110223-23:47:04|10=082||0|
M|147|0|0|I|20110223-23:47:34.116|90|8=FIX.4.0|9=0066|35=0|49=NYFXINTL40|56=RBSE40|57=ADMIN|34=147|52=20110223-23:47:34|10=086||0|
M|148|0|0|I|20110223-23:48:04.057|90|8=FIX.4.0|9=0066|35=0|49=NYFXINTL40|56=RBSE40|57=ADMIN|34=148|52=20110223-23:48:04|10=085||0|
M|149|0|0|I|20110223-23:48:34.139|90|8=FIX.4.0|9=0066|35=0|49=NYFXINTL40|56=RBSE40|57=ADMIN|34=149|52=20110223-23:48:34|10=089||0|
M|150|0|0|I|20110223-23:49:04.114|90|8=FIX.4.0|9=0066|35=0|49=NYFXINTL40|56=RBSE40|57=ADMIN|34=150|52=20110223-23:49:04|10=079||0|
M|151|0|0|I|20110223-23:49:34.136|90|8=FIX.4.0|9=0066|35=0|49=NYFXINTL40|56=RBSE40|57=ADMIN|34=151|52=20110223-23:49:34|10=083||0|
M|152|0|0|I|20110223-23:50:04.130|90|8=FIX.4.0|9=0066|35=0|49=NYFXINTL40|56=RBSE40|57=ADMIN|34=152|52=20110223-23:50:04|10=073||0|
M|153|0|0|I|20110223-23:50:34.110|90|8=FIX.4.0|9=0066|35=0|49=NYFXINTL40|56=RBSE40|57=ADMIN|34=153|52=20110223-23:50:34|10=077||0|
M|154|0|0|I|20110223-23:51:04.125|90|8=FIX.4.0|9=0066|35=0|49=NYFXINTL40|56=RBSE40|57=ADMIN|34=154|52=20110223-23:51:04|10=076||0|
M|155|0|0|I|20110223-23:51:34.068|90|8=FIX.4.0|9=0066|35=0|49=NYFXINTL40|56=RBSE40|57=ADMIN|34=155|52=20110223-23:51:34|10=080||0|
M|156|0|0|I|20110223-23:52:04.131|90|8=FIX.4.0|9=0066|35=0|49=NYFXINTL40|56=RBSE40|57=ADMIN|34=156|52=20110223-23:52:04|10=079||0|
M|157|0|0|I|20110223-23:52:34.058|90|8=FIX.4.0|9=0066|35=0|49=NYFXINTL40|56=RBSE40|57=ADMIN|34=157|52=20110223-23:52:34|10=083||0|
M|158|0|0|I|20110223-23:53:04.158|90|8=FIX.4.0|9=0066|35=0|49=NYFXINTL40|56=RBSE40|57=ADMIN|34=158|52=20110223-23:53:04|10=082||0|
M|159|0|0|I|20110223-23:53:34.194|90|8=FIX.4.0|9=0066|35=0|49=NYFXINTL40|56=RBSE40|57=ADMIN|34=159|52=20110223-23:53:34|10=086||0|
M|160|0|0|I|20110223-23:54:04.116|90|8=FIX.4.0|9=0066|35=0|49=NYFXINTL40|56=RBSE40|57=ADMIN|34=160|52=20110223-23:54:04|10=076||0|
M|161|0|0|I|20110223-23:54:34.134|90|8=FIX.4.0|9=0066|35=0|49=NYFXINTL40|56=RBSE40|57=ADMIN|34=161|52=20110223-23:54:34|10=080||0|
M|162|0|0|I|20110223-23:55:04.145|90|8=FIX.4.0|9=0066|35=0|49=NYFXINTL40|56=RBSE40|57=ADMIN|34=162|52=20110223-23:55:04|10=079||0|
M|163|0|0|I|20110223-23:55:34.123|90|8=FIX.4.0|9=0066|35=0|49=NYFXINTL40|56=RBSE40|57=ADMIN|34=163|52=20110223-23:55:34|10=083||0|
M|164|0|0|I|20110223-23:56:04.115|90|8=FIX.4.0|9=0066|35=0|49=NYFXINTL40|56=RBSE40|57=ADMIN|34=164|52=20110223-23:56:04|10=082||0|
M|165|0|0|I|20110223-23:56:34.161|90|8=FIX.4.0|9=0066|35=0|49=NYFXINTL40|56=RBSE40|57=ADMIN|34=165|52=20110223-23:56:34|10=086||0|
M|166|0|0|I|20110223-23:57:04.159|90|8=FIX.4.0|9=0066|35=0|49=NYFXINTL40|56=RBSE40|57=ADMIN|34=166|52=20110223-23:57:04|10=085||0|
M|167|0|0|I|20110223-23:57:34.112|90|8=FIX.4.0|9=0066|35=0|49=NYFXINTL40|56=RBSE40|57=ADMIN|34=167|52=20110223-23:57:34|10=089||0|
M|168|0|0|I|20110223-23:58:04.072|90|8=FIX.4.0|9=0066|35=0|49=NYFXINTL40|56=RBSE40|57=ADMIN|34=168|52=20110223-23:58:04|10=088||0|
M|169|0|0|I|20110223-23:58:34.211|90|8=FIX.4.0|9=0066|35=0|49=NYFXINTL40|56=RBSE40|57=ADMIN|34=169|52=20110223-23:58:34|10=092||0|
M|170|0|0|I|20110223-23:59:04.118|90|8=FIX.4.0|9=0066|35=0|49=NYFXINTL40|56=RBSE40|57=ADMIN|34=170|52=20110223-23:59:04|10=082||0|
M|171|0|0|I|20110223-23:59:34.120|90|8=FIX.4.0|9=0066|35=0|49=NYFXINTL40|56=RBSE40|57=ADMIN|34=171|52=20110223-23:59:34|10=086||0|
M|172|0|0|I|20110224-00:00:04.110|90|8=FIX.4.0|9=0066|35=0|49=NYFXINTL40|56=RBSE40|57=ADMIN|34=172|52=20110224-00:00:04|10=066||0|
M|173|0|0|I|20110224-00:00:34.065|90|8=FIX.4.0|9=0066|35=0|49=NYFXINTL40|56=RBSE40|57=ADMIN|34=173|52=20110224-00:00:34|10=070||0|
M|174|0|0|I|20110224-00:01:04.164|90|8=FIX.4.0|9=0066|35=0|49=NYFXINTL40|56=RBSE40|57=ADMIN|34=174|52=20110224-00:01:04|10=069||0|
M|175|0|0|I|20110224-00:01:34.102|90|8=FIX.4.0|9=0066|35=0|49=NYFXINTL40|56=RBSE40|57=ADMIN|34=175|52=20110224-00:01:34|10=073||0|
M|176|0|0|I|20110224-00:02:04.071|90|8=FIX.4.0|9=0066|35=0|49=NYFXINTL40|56=RBSE40|57=ADMIN|34=176|52=20110224-00:02:04|10=072||0|
M|177|0|0|I|20110224-00:02:34.081|90|8=FIX.4.0|9=0066|35=0|49=NYFXINTL40|56=RBSE40|57=ADMIN|34=177|52=20110224-00:02:34|10=076||0|
M|178|0|0|I|20110224-00:03:04.085|90|8=FIX.4.0|9=0066|35=0|49=NYFXINTL40|56=RBSE40|57=ADMIN|34=178|52=20110224-00:03:04|10=075||0|
M|179|0|0|I|20110224-00:03:34.070|90|8=FIX.4.0|9=0066|35=0|49=NYFXINTL40|56=RBSE40|57=ADMIN|34=179|52=20110224-00:03:34|10=079||0|
M|180|0|0|I|20110224-00:04:04.149|90|8=FIX.4.0|9=0066|35=0|49=NYFXINTL40|56=RBSE40|57=ADMIN|34=180|52=20110224-00:04:04|10=069||0|
M|181|0|0|I|20110224-00:04:34.129|90|8=FIX.4.0|9=0066|35=0|49=NYFXINTL40|56=RBSE40|57=ADMIN|34=181|52=20110224-00:04:34|10=073||0|
M|182|0|0|I|20110224-00:05:04.073|90|8=FIX.4.0|9=0066|35=0|49=NYFXINTL40|56=RBSE40|57=ADMIN|34=182|52=20110224-00:05:04|10=072||0|
M|183|0|0|I|20110224-00:05:34.131|90|8=FIX.4.0|9=0066|35=0|49=NYFXINTL40|56=RBSE40|57=ADMIN|34=183|52=20110224-00:05:34|10=076||0|
M|184|0|0|I|20110224-00:06:04.102|90|8=FIX.4.0|9=0066|35=0|49=NYFXINTL40|56=RBSE40|57=ADMIN|34=184|52=20110224-00:06:04|10=075||0|
M|185|0|0|I|20110224-00:06:34.116|90|8=FIX.4.0|9=0066|35=0|49=NYFXINTL40|56=RBSE40|57=ADMIN|34=185|52=20110224-00:06:34|10=079||0|
M|186|0|0|I|20110224-00:07:04.054|90|8=FIX.4.0|9=0066|35=0|49=NYFXINTL40|56=RBSE40|57=ADMIN|34=186|52=20110224-00:07:04|10=078||0|
M|187|0|0|I|20110224-00:07:34.075|90|8=FIX.4.0|9=0066|35=0|49=NYFXINTL40|56=RBSE40|57=ADMIN|34=187|52=20110224-00:07:34|10=082||0|
M|188|0|0|I|20110224-00:08:04.098|90|8=FIX.4.0|9=0066|35=0|49=NYFXINTL40|56=RBSE40|57=ADMIN|34=188|52=20110224-00:08:04|10=081||0|
M|189|0|0|I|20110224-00:08:34.107|90|8=FIX.4.0|9=0066|35=0|49=NYFXINTL40|56=RBSE40|57=ADMIN|34=189|52=20110224-00:08:34|10=085||0|
M|190|0|0|I|20110224-00:09:04.083|90|8=FIX.4.0|9=0066|35=0|49=NYFXINTL40|56=RBSE40|57=ADMIN|34=190|52=20110224-00:09:04|10=075||0|
M|191|0|0|I|20110224-00:09:34.105|90|8=FIX.4.0|9=0066|35=0|49=NYFXINTL40|56=RBSE40|57=ADMIN|34=191|52=20110224-00:09:34|10=079||0|
M|192|0|0|I|20110224-00:10:04.100|90|8=FIX.4.0|9=0066|35=0|49=NYFXINTL40|56=RBSE40|57=ADMIN|34=192|52=20110224-00:10:04|10=069||0|
M|193|0|0|I|20110224-00:10:34.159|90|8=FIX.4.0|9=0066|35=0|49=NYFXINTL40|56=RBSE40|57=ADMIN|34=193|52=20110224-00:10:34|10=073||0|
M|194|0|0|I|20110224-00:11:04.082|90|8=FIX.4.0|9=0066|35=0|49=NYFXINTL40|56=RBSE40|57=ADMIN|34=194|52=20110224-00:11:04|10=072||0|
M|195|0|0|I|20110224-00:11:34.127|90|8=FIX.4.0|9=0066|35=0|49=NYFXINTL40|56=RBSE40|57=ADMIN|34=195|52=20110224-00:11:34|10=076||0|
M|196|0|0|I|20110224-00:12:04.111|90|8=FIX.4.0|9=0066|35=0|49=NYFXINTL40|56=RBSE40|57=ADMIN|34=196|52=20110224-00:12:04|10=075||0|
M|197|0|0|I|20110224-00:12:34.118|90|8=FIX.4.0|9=0066|35=0|49=NYFXINTL40|56=RBSE40|57=ADMIN|34=197|52=20110224-00:12:34|10=079||0|
M|198|0|0|I|20110224-00:13:04.060|90|8=FIX.4.0|9=0066|35=0|49=NYFXINTL40|56=RBSE40|57=ADMIN|34=198|52=20110224-00:13:04|10=078||0|
M|199|0|0|I|20110224-00:13:34.153|90|8=FIX.4.0|9=0066|35=0|49=NYFXINTL40|56=RBSE40|57=ADMIN|34=199|52=20110224-00:13:34|10=082||0|
M|200|0|D|I|20110224-00:13:40.303|243|8=FIX.4.0|9=0219|35=D|49=NYFXINTL40|56=RBSE40|34=200|52=20110224-00:13:40|115=COHNINTL|116=SLAM|128=RBSE40|11=1286444536|21=1|100=AX|55=TCL|65=AU|48=6200882|22=2|106=Transurban Group|107=Transurban Group|54=1|38=500000|40=1|15=AUD|59=0|10=142||0|
M|201|0|0|I|20110224-00:14:10.152|90|8=FIX.4.0|9=0066|35=0|49=NYFXINTL40|56=RBSE40|57=ADMIN|34=201|52=20110224-00:14:10|10=061||0|
M|202|0|0|I|20110224-00:14:40.091|90|8=FIX.4.0|9=0066|35=0|49=NYFXINTL40|56=RBSE40|57=ADMIN|34=202|52=20110224-00:14:40|10=065||0|
M|203|0|0|I|20110224-00:15:10.152|90|8=FIX.4.0|9=0066|35=0|49=NYFXINTL40|56=RBSE40|57=ADMIN|34=203|52=20110224-00:15:10|10=064||0|
M|204|0|0|I|20110224-00:15:40.081|90|8=FIX.4.0|9=0066|35=0|49=NYFXINTL40|56=RBSE40|57=ADMIN|34=204|52=20110224-00:15:40|10=068||0|
M|205|0|0|I|20110224-00:16:10.123|90|8=FIX.4.0|9=0066|35=0|49=NYFXINTL40|56=RBSE40|57=ADMIN|34=205|52=20110224-00:16:10|10=067||0|
M|206|0|0|I|20110224-00:16:40.130|90|8=FIX.4.0|9=0066|35=0|49=NYFXINTL40|56=RBSE40|57=ADMIN|34=206|52=20110224-00:16:40|10=071||0|
M|207|0|0|I|20110224-00:17:10.192|90|8=FIX.4.0|9=0066|35=0|49=NYFXINTL40|56=RBSE40|57=ADMIN|34=207|52=20110224-00:17:10|10=070||0|
M|208|0|0|I|20110224-00:17:40.117|90|8=FIX.4.0|9=0066|35=0|49=NYFXINTL40|56=RBSE40|57=ADMIN|34=208|52=20110224-00:17:40|10=074||0|
M|209|0|0|I|20110224-00:18:10.066|90|8=FIX.4.0|9=0066|35=0|49=NYFXINTL40|56=RBSE40|57=ADMIN|34=209|52=20110224-00:18:10|10=073||0|
M|210|0|0|I|20110224-00:18:40.129|90|8=FIX.4.0|9=0066|35=0|49=NYFXINTL40|56=RBSE40|57=ADMIN|34=210|52=20110224-00:18:40|10=068||0|
M|211|0|0|I|20110224-00:19:10.138|90|8=FIX.4.0|9=0066|35=0|49=NYFXINTL40|56=RBSE40|57=ADMIN|34=211|52=20110224-00:19:10|10=067||0|
M|212|0|0|I|20110224-00:19:40.116|90|8=FIX.4.0|9=0066|35=0|49=NYFXINTL40|56=RBSE40|57=ADMIN|34=212|52=20110224-00:19:40|10=071||0|
M|213|0|0|I|20110224-00:20:10.105|90|8=FIX.4.0|9=0066|35=0|49=NYFXINTL40|56=RBSE40|57=ADMIN|34=213|52=20110224-00:20:10|10=061||0|
M|214|0|0|I|20110224-00:20:40.142|90|8=FIX.4.0|9=0066|35=0|49=NYFXINTL40|56=RBSE40|57=ADMIN|34=214|52=20110224-00:20:40|10=065||0|
M|215|0|0|I|20110224-00:21:10.122|90|8=FIX.4.0|9=0066|35=0|49=NYFXINTL40|56=RBSE40|57=ADMIN|34=215|52=20110224-00:21:10|10=064||0|
M|216|0|0|I|20110224-00:21:40.063|90|8=FIX.4.0|9=0066|35=0|49=NYFXINTL40|56=RBSE40|57=ADMIN|34=216|52=20110224-00:21:40|10=068||0|
M|217|0|0|I|20110224-00:22:10.325|90|8=FIX.4.0|9=0066|35=0|49=NYFXINTL40|56=RBSE40|57=ADMIN|34=217|52=20110224-00:22:10|10=067||0|
M|218|0|0|I|20110224-00:22:40.110|90|8=FIX.4.0|9=0066|35=0|49=NYFXINTL40|56=RBSE40|57=ADMIN|34=218|52=20110224-00:22:40|10=071||0|
M|219|0|0|I|20110224-00:23:10.147|90|8=FIX.4.0|9=0066|35=0|49=NYFXINTL40|56=RBSE40|57=ADMIN|34=219|52=20110224-00:23:10|10=070||0|
M|220|0|0|I|20110224-00:23:40.059|90|8=FIX.4.0|9=0066|35=0|49=NYFXINTL40|56=RBSE40|57=ADMIN|34=220|52=20110224-00:23:40|10=065||0|
M|221|0|0|I|20110224-00:24:10.099|90|8=FIX.4.0|9=0066|35=0|49=NYFXINTL40|56=RBSE40|57=ADMIN|34=221|52=20110224-00:24:10|10=064||0|
M|222|0|0|I|20110224-00:24:40.086|90|8=FIX.4.0|9=0066|35=0|49=NYFXINTL40|56=RBSE40|57=ADMIN|34=222|52=20110224-00:24:40|10=068||0|
M|223|0|0|I|20110224-00:25:10.145|90|8=FIX.4.0|9=0066|35=0|49=NYFXINTL40|56=RBSE40|57=ADMIN|34=223|52=20110224-00:25:10|10=067||0|
M|224|0|0|I|20110224-00:25:40.149|90|8=FIX.4.0|9=0066|35=0|49=NYFXINTL40|56=RBSE40|57=ADMIN|34=224|52=20110224-00:25:40|10=071||0|
M|225|0|0|I|20110224-00:26:10.086|90|8=FIX.4.0|9=0066|35=0|49=NYFXINTL40|56=RBSE40|57=ADMIN|34=225|52=20110224-00:26:10|10=070||0|
M|226|0|0|I|20110224-00:26:40.153|90|8=FIX.4.0|9=0066|35=0|49=NYFXINTL40|56=RBSE40|57=ADMIN|34=226|52=20110224-00:26:40|10=074||0|
M|227|0|0|I|20110224-00:27:10.155|90|8=FIX.4.0|9=0066|35=0|49=NYFXINTL40|56=RBSE40|57=ADMIN|34=227|52=20110224-00:27:10|10=073||0|
M|228|0|0|I|20110224-00:27:40.062|90|8=FIX.4.0|9=0066|35=0|49=NYFXINTL40|56=RBSE40|57=ADMIN|34=228|52=20110224-00:27:40|10=077||0|
M|229|0|0|I|20110224-00:28:10.113|90|8=FIX.4.0|9=0066|35=0|49=NYFXINTL40|56=RBSE40|57=ADMIN|34=229|52=20110224-00:28:10|10=076||0|
M|230|0|0|I|20110224-00:28:40.134|90|8=FIX.4.0|9=0066|35=0|49=NYFXINTL40|56=RBSE40|57=ADMIN|34=230|52=20110224-00:28:40|10=071||0|
M|231|0|0|I|20110224-00:29:10.099|90|8=FIX.4.0|9=0066|35=0|49=NYFXINTL40|56=RBSE40|57=ADMIN|34=231|52=20110224-00:29:10|10=070||0|
M|232|0|0|I|20110224-00:29:40.128|90|8=FIX.4.0|9=0066|35=0|49=NYFXINTL40|56=RBSE40|57=ADMIN|34=232|52=20110224-00:29:40|10=074||0|
M|233|0|0|I|20110224-00:30:10.118|90|8=FIX.4.0|9=0066|35=0|49=NYFXINTL40|56=RBSE40|57=ADMIN|34=233|52=20110224-00:30:10|10=064||0|
M|234|0|0|I|20110224-00:30:40.148|90|8=FIX.4.0|9=0066|35=0|49=NYFXINTL40|56=RBSE40|57=ADMIN|34=234|52=20110224-00:30:40|10=068||0|
M|235|0|0|I|20110224-00:31:10.154|90|8=FIX.4.0|9=0066|35=0|49=NYFXINTL40|56=RBSE40|57=ADMIN|34=235|52=20110224-00:31:10|10=067||0|
M|236|0|0|I|20110224-00:31:40.106|90|8=FIX.4.0|9=0066|35=0|49=NYFXINTL40|56=RBSE40|57=ADMIN|34=236|52=20110224-00:31:40|10=071||0|
M|237|0|0|I|20110224-00:32:10.181|90|8=FIX.4.0|9=0066|35=0|49=NYFXINTL40|56=RBSE40|57=ADMIN|34=237|52=20110224-00:32:10|10=070||0|
M|238|0|0|I|20110224-00:32:40.155|90|8=FIX.4.0|9=0066|35=0|49=NYFXINTL40|56=RBSE40|57=ADMIN|34=238|52=20110224-00:32:40|10=074||0|
M|239|0|0|I|20110224-00:33:10.097|90|8=FIX.4.0|9=0066|35=0|49=NYFXINTL40|56=RBSE40|57=ADMIN|34=239|52=20110224-00:33:10|10=073||0|
M|240|0|0|I|20110224-00:33:40.071|90|8=FIX.4.0|9=0066|35=0|49=NYFXINTL40|56=RBSE40|57=ADMIN|34=240|52=20110224-00:33:40|10=068||0|
M|241|0|0|I|20110224-00:34:10.067|90|8=FIX.4.0|9=0066|35=0|49=NYFXINTL40|56=RBSE40|57=ADMIN|34=241|52=20110224-00:34:10|10=067||0|
M|242|0|0|I|20110224-00:34:40.100|90|8=FIX.4.0|9=0066|35=0|49=NYFXINTL40|56=RBSE40|57=ADMIN|34=242|52=20110224-00:34:40|10=071||0|
M|243|0|0|I|20110224-00:35:10.093|90|8=FIX.4.0|9=0066|35=0|49=NYFXINTL40|56=RBSE40|57=ADMIN|34=243|52=20110224-00:35:10|10=070||0|
M|244|0|0|I|20110224-00:35:40.148|90|8=FIX.4.0|9=0066|35=0|49=NYFXINTL40|56=RBSE40|57=ADMIN|34=244|52=20110224-00:35:40|10=074||0|
M|245|0|0|I|20110224-00:36:10.121|90|8=FIX.4.0|9=0066|35=0|49=NYFXINTL40|56=RBSE40|57=ADMIN|34=245|52=20110224-00:36:10|10=073||0|
M|246|0|0|I|20110224-00:36:40.088|90|8=FIX.4.0|9=0066|35=0|49=NYFXINTL40|56=RBSE40|57=ADMIN|34=246|52=20110224-00:36:40|10=077||0|
M|247|0|0|I|20110224-00:37:10.145|90|8=FIX.4.0|9=0066|35=0|49=NYFXINTL40|56=RBSE40|57=ADMIN|34=247|52=20110224-00:37:10|10=076||0|
M|248|0|0|I|20110224-00:37:40.134|90|8=FIX.4.0|9=0066|35=0|49=NYFXINTL40|56=RBSE40|57=ADMIN|34=248|52=20110224-00:37:40|10=080||0|
M|249|0|0|I|20110224-00:38:10.085|90|8=FIX.4.0|9=0066|35=0|49=NYFXINTL40|56=RBSE40|57=ADMIN|34=249|52=20110224-00:38:10|10=079||0|
M|250|0|0|I|20110224-00:38:40.114|90|8=FIX.4.0|9=0066|35=0|49=NYFXINTL40|56=RBSE40|57=ADMIN|34=250|52=20110224-00:38:40|10=074||0|
M|251|0|0|I|20110224-00:39:10.071|90|8=FIX.4.0|9=0066|35=0|49=NYFXINTL40|56=RBSE40|57=ADMIN|34=251|52=20110224-00:39:10|10=073||0|
M|252|0|0|I|20110224-00:39:40.134|90|8=FIX.4.0|9=0066|35=0|49=NYFXINTL40|56=RBSE40|57=ADMIN|34=252|52=20110224-00:39:40|10=077||0|
M|253|0|0|I|20110224-00:40:10.136|90|8=FIX.4.0|9=0066|35=0|49=NYFXINTL40|56=RBSE40|57=ADMIN|34=253|52=20110224-00:40:10|10=067||0|
M|254|0|0|I|20110224-00:40:40.161|90|8=FIX.4.0|9=0066|35=0|49=NYFXINTL40|56=RBSE40|57=ADMIN|34=254|52=20110224-00:40:40|10=071||0|
M|255|0|0|I|20110224-00:41:10.141|90|8=FIX.4.0|9=0066|35=0|49=NYFXINTL40|56=RBSE40|57=ADMIN|34=255|52=20110224-00:41:10|10=070||0|
M|256|0|0|I|20110224-00:41:40.159|90|8=FIX.4.0|9=0066|35=0|49=NYFXINTL40|56=RBSE40|57=ADMIN|34=256|52=20110224-00:41:40|10=074||0|
M|257|0|0|I|20110224-00:42:10.127|90|8=FIX.4.0|9=0066|35=0|49=NYFXINTL40|56=RBSE40|57=ADMIN|34=257|52=20110224-00:42:10|10=073||0|
M|258|0|0|I|20110224-00:42:40.104|90|8=FIX.4.0|9=0066|35=0|49=NYFXINTL40|56=RBSE40|57=ADMIN|34=258|52=20110224-00:42:40|10=077||0|
M|259|0|0|I|20110224-00:43:10.087|90|8=FIX.4.0|9=0066|35=0|49=NYFXINTL40|56=RBSE40|57=ADMIN|34=259|52=20110224-00:43:10|10=076||0|
M|260|0|0|I|20110224-00:43:40.097|90|8=FIX.4.0|9=0066|35=0|49=NYFXINTL40|56=RBSE40|57=ADMIN|34=260|52=20110224-00:43:40|10=071||0|
M|261|0|0|I|20110224-00:44:10.125|90|8=FIX.4.0|9=0066|35=0|49=NYFXINTL40|56=RBSE40|57=ADMIN|34=261|52=20110224-00:44:10|10=070||0|
M|262|0|0|I|20110224-00:44:40.105|90|8=FIX.4.0|9=0066|35=0|49=NYFXINTL40|56=RBSE40|57=ADMIN|34=262|52=20110224-00:44:40|10=074||0|
M|263|0|0|I|20110224-00:45:10.075|90|8=FIX.4.0|9=0066|35=0|49=NYFXINTL40|56=RBSE40|57=ADMIN|34=263|52=20110224-00:45:10|10=073||0|
M|264|0|0|I|20110224-00:45:40.142|90|8=FIX.4.0|9=0066|35=0|49=NYFXINTL40|56=RBSE40|57=ADMIN|34=264|52=20110224-00:45:40|10=077||0|
M|265|0|0|I|20110224-00:46:10.081|90|8=FIX.4.0|9=0066|35=0|49=NYFXINTL40|56=RBSE40|57=ADMIN|34=265|52=20110224-00:46:10|10=076||0|
M|266|0|0|I|20110224-00:46:40.105|90|8=FIX.4.0|9=0066|35=0|49=NYFXINTL40|56=RBSE40|57=ADMIN|34=266|52=20110224-00:46:40|10=080||0|
M|267|0|0|I|20110224-00:47:10.150|90|8=FIX.4.0|9=0066|35=0|49=NYFXINTL40|56=RBSE40|57=ADMIN|34=267|52=20110224-00:47:10|10=079||0|
M|268|0|0|I|20110224-00:47:40.061|90|8=FIX.4.0|9=0066|35=0|49=NYFXINTL40|56=RBSE40|57=ADMIN|34=268|52=20110224-00:47:40|10=083||0|
M|269|0|0|I|20110224-00:48:10.138|90|8=FIX.4.0|9=0066|35=0|49=NYFXINTL40|56=RBSE40|57=ADMIN|34=269|52=20110224-00:48:10|10=082||0|
M|270|0|0|I|20110224-00:48:40.057|90|8=FIX.4.0|9=0066|35=0|49=NYFXINTL40|56=RBSE40|57=ADMIN|34=270|52=20110224-00:48:40|10=077||0|
M|271|0|0|I|20110224-00:49:10.097|90|8=FIX.4.0|9=0066|35=0|49=NYFXINTL40|56=RBSE40|57=ADMIN|34=271|52=20110224-00:49:10|10=076||0|
M|272|0|0|I|20110224-00:49:40.057|90|8=FIX.4.0|9=0066|35=0|49=NYFXINTL40|56=RBSE40|57=ADMIN|34=272|52=20110224-00:49:40|10=080||0|
M|273|0|0|I|20110224-00:50:10.146|90|8=FIX.4.0|9=0066|35=0|49=NYFXINTL40|56=RBSE40|57=ADMIN|34=273|52=20110224-00:50:10|10=070||0|
M|274|0|0|I|20110224-00:50:40.493|90|8=FIX.4.0|9=0066|35=0|49=NYFXINTL40|56=RBSE40|57=ADMIN|34=274|52=20110224-00:50:40|10=074||0|
M|275|0|0|I|20110224-00:51:10.163|90|8=FIX.4.0|9=0066|35=0|49=NYFXINTL40|56=RBSE40|57=ADMIN|34=275|52=20110224-00:51:10|10=073||0|
M|276|0|0|I|20110224-00:51:40.104|90|8=FIX.4.0|9=0066|35=0|49=NYFXINTL40|56=RBSE40|57=ADMIN|34=276|52=20110224-00:51:40|10=077||0|
M|277|0|0|I|20110224-00:52:10.126|90|8=FIX.4.0|9=0066|35=0|49=NYFXINTL40|56=RBSE40|57=ADMIN|34=277|52=20110224-00:52:10|10=076||0|
M|278|0|0|I|20110224-00:52:40.072|90|8=FIX.4.0|9=0066|35=0|49=NYFXINTL40|56=RBSE40|57=ADMIN|34=278|52=20110224-00:52:40|10=080||0|
M|279|0|0|I|20110224-00:53:10.121|90|8=FIX.4.0|9=0066|35=0|49=NYFXINTL40|56=RBSE40|57=ADMIN|34=279|52=20110224-00:53:10|10=079||0|
M|280|0|0|I|20110224-00:53:40.094|90|8=FIX.4.0|9=0066|35=0|49=NYFXINTL40|56=RBSE40|57=ADMIN|34=280|52=20110224-00:53:40|10=074||0|
M|281|0|0|I|20110224-00:54:10.174|90|8=FIX.4.0|9=0066|35=0|49=NYFXINTL40|56=RBSE40|57=ADMIN|34=281|52=20110224-00:54:10|10=073||0|
M|282|0|0|I|20110224-00:54:40.132|90|8=FIX.4.0|9=0066|35=0|49=NYFXINTL40|56=RBSE40|57=ADMIN|34=282|52=20110224-00:54:40|10=077||0|
M|283|0|0|I|20110224-00:55:10.109|90|8=FIX.4.0|9=0066|35=0|49=NYFXINTL40|56=RBSE40|57=ADMIN|34=283|52=20110224-00:55:10|10=076||0|
M|284|0|0|I|20110224-00:55:40.147|90|8=FIX.4.0|9=0066|35=0|49=NYFXINTL40|56=RBSE40|57=ADMIN|34=284|52=20110224-00:55:40|10=080||0|
M|285|0|0|I|20110224-00:56:10.147|90|8=FIX.4.0|9=0066|35=0|49=NYFXINTL40|56=RBSE40|57=ADMIN|34=285|52=20110224-00:56:10|10=079||0|
M|286|0|0|I|20110224-00:56:40.099|90|8=FIX.4.0|9=0066|35=0|49=NYFXINTL40|56=RBSE40|57=ADMIN|34=286|52=20110224-00:56:40|10=083||0|
M|287|0|0|I|20110224-00:57:10.076|90|8=FIX.4.0|9=0066|35=0|49=NYFXINTL40|56=RBSE40|57=ADMIN|34=287|52=20110224-00:57:10|10=082||0|
M|288|0|0|I|20110224-00:57:40.149|90|8=FIX.4.0|9=0066|35=0|49=NYFXINTL40|56=RBSE40|57=ADMIN|34=288|52=20110224-00:57:40|10=086||0|
M|289|0|0|I|20110224-00:58:10.095|90|8=FIX.4.0|9=0066|35=0|49=NYFXINTL40|56=RBSE40|57=ADMIN|34=289|52=20110224-00:58:10|10=085||0|
M|290|0|0|I|20110224-00:58:40.132|90|8=FIX.4.0|9=0066|35=0|49=NYFXINTL40|56=RBSE40|57=ADMIN|34=290|52=20110224-00:58:40|10=080||0|
M|291|0|0|I|20110224-00:59:10.071|90|8=FIX.4.0|9=0066|35=0|49=NYFXINTL40|56=RBSE40|57=ADMIN|34=291|52=20110224-00:59:10|10=079||0|
M|292|0|0|I|20110224-00:59:40.083|90|8=FIX.4.0|9=0066|35=0|49=NYFXINTL40|56=RBSE40|57=ADMIN|34=292|52=20110224-00:59:40|10=083||0|
M|293|0|0|I|20110224-01:00:10.099|90|8=FIX.4.0|9=0066|35=0|49=NYFXINTL40|56=RBSE40|57=ADMIN|34=293|52=20110224-01:00:10|10=068||0|
M|294|0|0|I|20110224-01:00:40.132|90|8=FIX.4.0|9=0066|35=0|49=NYFXINTL40|56=RBSE40|57=ADMIN|34=294|52=20110224-01:00:40|10=072||0|
M|295|0|0|I|20110224-01:01:10.248|90|8=FIX.4.0|9=0066|35=0|49=NYFXINTL40|56=RBSE40|57=ADMIN|34=295|52=20110224-01:01:10|10=071||0|
M|296|0|0|I|20110224-01:01:40.062|90|8=FIX.4.0|9=0066|35=0|49=NYFXINTL40|56=RBSE40|57=ADMIN|34=296|52=20110224-01:01:40|10=075||0|
M|297|0|0|I|20110224-01:02:10.098|90|8=FIX.4.0|9=0066|35=0|49=NYFXINTL40|56=RBSE40|57=ADMIN|34=297|52=20110224-01:02:10|10=074||0|
M|298|0|0|I|20110224-01:02:40.105|90|8=FIX.4.0|9=0066|35=0|49=NYFXINTL40|56=RBSE40|57=ADMIN|34=298|52=20110224-01:02:40|10=078||0|
M|299|0|0|I|20110224-01:03:10.096|90|8=FIX.4.0|9=0066|35=0|49=NYFXINTL40|56=RBSE40|57=ADMIN|34=299|52=20110224-01:03:10|10=077||0|
M|300|0|0|I|20110224-01:03:40.145|90|8=FIX.4.0|9=0066|35=0|49=NYFXINTL40|56=RBSE40|57=ADMIN|34=300|52=20110224-01:03:40|10=063||0|
M|301|0|0|I|20110224-01:04:10.063|90|8=FIX.4.0|9=0066|35=0|49=NYFXINTL40|56=RBSE40|57=ADMIN|34=301|52=20110224-01:04:10|10=062||0|
M|302|0|0|I|20110224-01:04:40.085|90|8=FIX.4.0|9=0066|35=0|49=NYFXINTL40|56=RBSE40|57=ADMIN|34=302|52=20110224-01:04:40|10=066||0|
M|303|0|0|I|20110224-01:05:10.062|90|8=FIX.4.0|9=0066|35=0|49=NYFXINTL40|56=RBSE40|57=ADMIN|34=303|52=20110224-01:05:10|10=065||0|
M|304|0|0|I|20110224-01:05:40.121|90|8=FIX.4.0|9=0066|35=0|49=NYFXINTL40|56=RBSE40|57=ADMIN|34=304|52=20110224-01:05:40|10=069||0|
M|305|0|0|I|20110224-01:06:10.099|90|8=FIX.4.0|9=0066|35=0|49=NYFXINTL40|56=RBSE40|57=ADMIN|34=305|52=20110224-01:06:10|10=068||0|
M|306|0|0|I|20110224-01:06:40.090|90|8=FIX.4.0|9=0066|35=0|49=NYFXINTL40|56=RBSE40|57=ADMIN|34=306|52=20110224-01:06:40|10=072||0|
M|307|0|0|I|20110224-01:07:10.071|90|8=FIX.4.0|9=0066|35=0|49=NYFXINTL40|56=RBSE40|57=ADMIN|34=307|52=20110224-01:07:10|10=071||0|
M|308|0|0|I|20110224-01:07:40.109|90|8=FIX.4.0|9=0066|35=0|49=NYFXINTL40|56=RBSE40|57=ADMIN|34=308|52=20110224-01:07:40|10=075||0|
M|309|0|0|I|20110224-01:08:10.056|90|8=FIX.4.0|9=0066|35=0|49=NYFXINTL40|56=RBSE40|57=ADMIN|34=309|52=20110224-01:08:10|10=074||0|
M|310|0|0|I|20110224-01:08:40.126|90|8=FIX.4.0|9=0066|35=0|49=NYFXINTL40|56=RBSE40|57=ADMIN|34=310|52=20110224-01:08:40|10=069||0|
M|311|0|0|I|20110224-01:09:10.065|90|8=FIX.4.0|9=0066|35=0|49=NYFXINTL40|56=RBSE40|57=ADMIN|34=311|52=20110224-01:09:10|10=068||0|
M|312|0|0|I|20110224-01:09:40.124|90|8=FIX.4.0|9=0066|35=0|49=NYFXINTL40|56=RBSE40|57=ADMIN|34=312|52=20110224-01:09:40|10=072||0|
M|313|0|0|I|20110224-01:10:10.142|90|8=FIX.4.0|9=0066|35=0|49=NYFXINTL40|56=RBSE40|57=ADMIN|34=313|52=20110224-01:10:10|10=062||0|
M|314|0|0|I|20110224-01:10:40.094|90|8=FIX.4.0|9=0066|35=0|49=NYFXINTL40|56=RBSE40|57=ADMIN|34=314|52=20110224-01:10:40|10=066||0|
M|315|0|0|I|20110224-01:11:10.122|90|8=FIX.4.0|9=0066|35=0|49=NYFXINTL40|56=RBSE40|57=ADMIN|34=315|52=20110224-01:11:10|10=065||0|
M|316|0|0|I|20110224-01:11:40.106|90|8=FIX.4.0|9=0066|35=0|49=NYFXINTL40|56=RBSE40|57=ADMIN|34=316|52=20110224-01:11:40|10=069||0|
M|317|0|0|I|20110224-01:12:10.101|90|8=FIX.4.0|9=0066|35=0|49=NYFXINTL40|56=RBSE40|57=ADMIN|34=317|52=20110224-01:12:10|10=068||0|
M|318|0|0|I|20110224-01:12:40.074|90|8=FIX.4.0|9=0066|35=0|49=NYFXINTL40|56=RBSE40|57=ADMIN|34=318|52=20110224-01:12:40|10=072||0|
M|319|0|0|I|20110224-01:13:10.068|90|8=FIX.4.0|9=0066|35=0|49=NYFXINTL40|56=RBSE40|57=ADMIN|34=319|52=20110224-01:13:10|10=071||0|
M|320|0|0|I|20110224-01:13:40.079|90|8=FIX.4.0|9=0066|35=0|49=NYFXINTL40|56=RBSE40|57=ADMIN|34=320|52=20110224-01:13:40|10=066||0|
M|321|0|0|I|20110224-01:14:10.078|90|8=FIX.4.0|9=0066|35=0|49=NYFXINTL40|56=RBSE40|57=ADMIN|34=321|52=20110224-01:14:10|10=065||0|
M|322|0|0|I|20110224-01:14:40.077|90|8=FIX.4.0|9=0066|35=0|49=NYFXINTL40|56=RBSE40|57=ADMIN|34=322|52=20110224-01:14:40|10=069||0|
M|323|0|0|I|20110224-01:15:10.156|90|8=FIX.4.0|9=0066|35=0|49=NYFXINTL40|56=RBSE40|57=ADMIN|34=323|52=20110224-01:15:10|10=068||0|
M|324|0|0|I|20110224-01:15:40.076|90|8=FIX.4.0|9=0066|35=0|49=NYFXINTL40|56=RBSE40|57=ADMIN|34=324|52=20110224-01:15:40|10=072||0|
M|325|0|0|I|20110224-01:16:10.065|90|8=FIX.4.0|9=0066|35=0|49=NYFXINTL40|56=RBSE40|57=ADMIN|34=325|52=20110224-01:16:10|10=071||0|
M|326|0|0|I|20110224-01:16:40.115|90|8=FIX.4.0|9=0066|35=0|49=NYFXINTL40|56=RBSE40|57=ADMIN|34=326|52=20110224-01:16:40|10=075||0|
M|327|0|0|I|20110224-01:17:10.074|90|8=FIX.4.0|9=0066|35=0|49=NYFXINTL40|56=RBSE40|57=ADMIN|34=327|52=20110224-01:17:10|10=074||0|
M|328|0|0|I|20110224-01:17:40.091|90|8=FIX.4.0|9=0066|35=0|49=NYFXINTL40|56=RBSE40|57=ADMIN|34=328|52=20110224-01:17:40|10=078||0|
M|329|0|0|I|20110224-01:18:10.062|90|8=FIX.4.0|9=0066|35=0|49=NYFXINTL40|56=RBSE40|57=ADMIN|34=329|52=20110224-01:18:10|10=077||0|
M|330|0|0|I|20110224-01:18:40.076|90|8=FIX.4.0|9=0066|35=0|49=NYFXINTL40|56=RBSE40|57=ADMIN|34=330|52=20110224-01:18:40|10=072||0|
M|331|0|0|I|20110224-01:19:10.069|90|8=FIX.4.0|9=0066|35=0|49=NYFXINTL40|56=RBSE40|57=ADMIN|34=331|52=20110224-01:19:10|10=071||0|
M|332|0|0|I|20110224-01:19:40.089|90|8=FIX.4.0|9=0066|35=0|49=NYFXINTL40|56=RBSE40|57=ADMIN|34=332|52=20110224-01:19:40|10=075||0|
M|333|0|0|I|20110224-01:20:10.101|90|8=FIX.4.0|9=0066|35=0|49=NYFXINTL40|56=RBSE40|57=ADMIN|34=333|52=20110224-01:20:10|10=065||0|
M|334|0|0|I|20110224-01:20:40.138|90|8=FIX.4.0|9=0066|35=0|49=NYFXINTL40|56=RBSE40|57=ADMIN|34=334|52=20110224-01:20:40|10=069||0|
M|335|0|0|I|20110224-01:21:10.085|90|8=FIX.4.0|9=0066|35=0|49=NYFXINTL40|56=RBSE40|57=ADMIN|34=335|52=20110224-01:21:10|10=068||0|
M|336|0|0|I|20110224-01:21:40.157|90|8=FIX.4.0|9=0066|35=0|49=NYFXINTL40|56=RBSE40|57=ADMIN|34=336|52=20110224-01:21:40|10=072||0|
M|337|0|0|I|20110224-01:22:10.098|90|8=FIX.4.0|9=0066|35=0|49=NYFXINTL40|56=RBSE40|57=ADMIN|34=337|52=20110224-01:22:10|10=071||0|
M|338|0|0|I|20110224-01:22:40.101|90|8=FIX.4.0|9=0066|35=0|49=NYFXINTL40|56=RBSE40|57=ADMIN|34=338|52=20110224-01:22:40|10=075||0|
M|339|0|0|I|20110224-01:23:10.144|90|8=FIX.4.0|9=0066|35=0|49=NYFXINTL40|56=RBSE40|57=ADMIN|34=339|52=20110224-01:23:10|10=074||0|
M|340|0|0|I|20110224-01:23:40.144|90|8=FIX.4.0|9=0066|35=0|49=NYFXINTL40|56=RBSE40|57=ADMIN|34=340|52=20110224-01:23:40|10=069||0|
M|341|0|0|I|20110224-01:24:10.160|90|8=FIX.4.0|9=0066|35=0|49=NYFXINTL40|56=RBSE40|57=ADMIN|34=341|52=20110224-01:24:10|10=068||0|
M|342|0|0|I|20110224-01:24:40.071|90|8=FIX.4.0|9=0066|35=0|49=NYFXINTL40|56=RBSE40|57=ADMIN|34=342|52=20110224-01:24:40|10=072||0|
M|343|0|0|I|20110224-01:25:10.103|90|8=FIX.4.0|9=0066|35=0|49=NYFXINTL40|56=RBSE40|57=ADMIN|34=343|52=20110224-01:25:10|10=071||0|
M|344|0|0|I|20110224-01:25:40.150|90|8=FIX.4.0|9=0066|35=0|49=NYFXINTL40|56=RBSE40|57=ADMIN|34=344|52=20110224-01:25:40|10=075||0|
M|345|0|0|I|20110224-01:26:10.147|90|8=FIX.4.0|9=0066|35=0|49=NYFXINTL40|56=RBSE40|57=ADMIN|34=345|52=20110224-01:26:10|10=074||0|
M|346|0|0|I|20110224-01:26:40.139|90|8=FIX.4.0|9=0066|35=0|49=NYFXINTL40|56=RBSE40|57=ADMIN|34=346|52=20110224-01:26:40|10=078||0|
M|347|0|0|I|20110224-01:27:10.147|90|8=FIX.4.0|9=0066|35=0|49=NYFXINTL40|56=RBSE40|57=ADMIN|34=347|52=20110224-01:27:10|10=077||0|
M|348|0|0|I|20110224-01:27:40.110|90|8=FIX.4.0|9=0066|35=0|49=NYFXINTL40|56=RBSE40|57=ADMIN|34=348|52=20110224-01:27:40|10=081||0|
M|349|0|0|I|20110224-01:28:10.081|90|8=FIX.4.0|9=0066|35=0|49=NYFXINTL40|56=RBSE40|57=ADMIN|34=349|52=20110224-01:28:10|10=080||0|
M|350|0|0|I|20110224-01:28:40.066|90|8=FIX.4.0|9=0066|35=0|49=NYFXINTL40|56=RBSE40|57=ADMIN|34=350|52=20110224-01:28:40|10=075||0|
M|351|0|0|I|20110224-01:29:10.108|90|8=FIX.4.0|9=0066|35=0|49=NYFXINTL40|56=RBSE40|57=ADMIN|34=351|52=20110224-01:29:10|10=074||0|
M|352|0|0|I|20110224-01:29:40.145|90|8=FIX.4.0|9=0066|35=0|49=NYFXINTL40|56=RBSE40|57=ADMIN|34=352|52=20110224-01:29:40|10=078||0|
M|353|0|0|I|20110224-01:30:10.093|90|8=FIX.4.0|9=0066|35=0|49=NYFXINTL40|56=RBSE40|57=ADMIN|34=353|52=20110224-01:30:10|10=068||0|
M|354|0|0|I|20110224-01:30:40.291|90|8=FIX.4.0|9=0066|35=0|49=NYFXINTL40|56=RBSE40|57=ADMIN|34=354|52=20110224-01:30:40|10=072||0|
M|355|0|0|I|20110224-01:31:10.112|90|8=FIX.4.0|9=0066|35=0|49=NYFXINTL40|56=RBSE40|57=ADMIN|34=355|52=20110224-01:31:10|10=071||0|
M|356|0|0|I|20110224-01:31:40.132|90|8=FIX.4.0|9=0066|35=0|49=NYFXINTL40|56=RBSE40|57=ADMIN|34=356|52=20110224-01:31:40|10=075||0|
M|357|0|0|I|20110224-01:32:10.099|90|8=FIX.4.0|9=0066|35=0|49=NYFXINTL40|56=RBSE40|57=ADMIN|34=357|52=20110224-01:32:10|10=074||0|
M|358|0|0|I|20110224-01:32:40.126|90|8=FIX.4.0|9=0066|35=0|49=NYFXINTL40|56=RBSE40|57=ADMIN|34=358|52=20110224-01:32:40|10=078||0|
M|359|0|0|I|20110224-01:33:10.076|90|8=FIX.4.0|9=0066|35=0|49=NYFXINTL40|56=RBSE40|57=ADMIN|34=359|52=20110224-01:33:10|10=077||0|
M|360|0|0|I|20110224-01:33:40.088|90|8=FIX.4.0|9=0066|35=0|49=NYFXINTL40|56=RBSE40|57=ADMIN|34=360|52=20110224-01:33:40|10=072||0|
M|361|0|0|I|20110224-01:34:10.146|90|8=FIX.4.0|9=0066|35=0|49=NYFXINTL40|56=RBSE40|57=ADMIN|34=361|52=20110224-01:34:10|10=071||0|
M|362|0|0|I|20110224-01:34:40.115|90|8=FIX.4.0|9=0066|35=0|49=NYFXINTL40|56=RBSE40|57=ADMIN|34=362|52=20110224-01:34:40|10=075||0|
M|363|0|0|I|20110224-01:35:10.068|90|8=FIX.4.0|9=0066|35=0|49=NYFXINTL40|56=RBSE40|57=ADMIN|34=363|52=20110224-01:35:10|10=074||0|
M|364|0|0|I|20110224-01:35:40.116|90|8=FIX.4.0|9=0066|35=0|49=NYFXINTL40|56=RBSE40|57=ADMIN|34=364|52=20110224-01:35:40|10=078||0|
M|365|0|0|I|20110224-01:36:10.093|90|8=FIX.4.0|9=0066|35=0|49=NYFXINTL40|56=RBSE40|57=ADMIN|34=365|52=20110224-01:36:10|10=077||0|
M|366|0|0|I|20110224-01:36:40.075|90|8=FIX.4.0|9=0066|35=0|49=NYFXINTL40|56=RBSE40|57=ADMIN|34=366|52=20110224-01:36:40|10=081||0|
M|367|0|0|I|20110224-01:37:10.134|90|8=FIX.4.0|9=0066|35=0|49=NYFXINTL40|56=RBSE40|57=ADMIN|34=367|52=20110224-01:37:10|10=080||0|
M|368|0|0|I|20110224-01:37:40.309|90|8=FIX.4.0|9=0066|35=0|49=NYFXINTL40|56=RBSE40|57=ADMIN|34=368|52=20110224-01:37:40|10=084||0|
M|369|0|0|I|20110224-01:38:10.098|90|8=FIX.4.0|9=0066|35=0|49=NYFXINTL40|56=RBSE40|57=ADMIN|34=369|52=20110224-01:38:10|10=083||0|
M|370|0|0|I|20110224-01:38:40.098|90|8=FIX.4.0|9=0066|35=0|49=NYFXINTL40|56=RBSE40|57=ADMIN|34=370|52=20110224-01:38:40|10=078||0|
M|371|0|0|I|20110224-01:39:10.079|90|8=FIX.4.0|9=0066|35=0|49=NYFXINTL40|56=RBSE40|57=ADMIN|34=371|52=20110224-01:39:10|10=077||0|
M|372|0|0|I|20110224-01:39:40.142|90|8=FIX.4.0|9=0066|35=0|49=NYFXINTL40|56=RBSE40|57=ADMIN|34=372|52=20110224-01:39:40|10=081||0|
M|373|0|0|I|20110224-01:40:10.077|90|8=FIX.4.0|9=0066|35=0|49=NYFXINTL40|56=RBSE40|57=ADMIN|34=373|52=20110224-01:40:10|10=071||0|
M|374|0|0|I|20110224-01:40:40.068|90|8=FIX.4.0|9=0066|35=0|49=NYFXINTL40|56=RBSE40|57=ADMIN|34=374|52=20110224-01:40:40|10=075||0|
M|375|0|0|I|20110224-01:41:10.076|90|8=FIX.4.0|9=0066|35=0|49=NYFXINTL40|56=RBSE40|57=ADMIN|34=375|52=20110224-01:41:10|10=074||0|
M|376|0|0|I|20110224-01:41:40.153|90|8=FIX.4.0|9=0066|35=0|49=NYFXINTL40|56=RBSE40|57=ADMIN|34=376|52=20110224-01:41:40|10=078||0|
M|377|0|0|I|20110224-01:42:10.377|90|8=FIX.4.0|9=0066|35=0|49=NYFXINTL40|56=RBSE40|57=ADMIN|34=377|52=20110224-01:42:10|10=077||0|
M|378|0|0|I|20110224-01:42:40.095|90|8=FIX.4.0|9=0066|35=0|49=NYFXINTL40|56=RBSE40|57=ADMIN|34=378|52=20110224-01:42:40|10=081||0|
M|379|0|0|I|20110224-01:43:10.060|90|8=FIX.4.0|9=0066|35=0|49=NYFXINTL40|56=RBSE40|57=ADMIN|34=379|52=20110224-01:43:10|10=080||0|
M|380|0|0|I|20110224-01:43:40.090|90|8=FIX.4.0|9=0066|35=0|49=NYFXINTL40|56=RBSE40|57=ADMIN|34=380|52=20110224-01:43:40|10=075||0|
M|381|0|0|I|20110224-01:44:10.069|90|8=FIX.4.0|9=0066|35=0|49=NYFXINTL40|56=RBSE40|57=ADMIN|34=381|52=20110224-01:44:10|10=074||0|
M|382|0|0|I|20110224-01:44:40.149|90|8=FIX.4.0|9=0066|35=0|49=NYFXINTL40|56=RBSE40|57=ADMIN|34=382|52=20110224-01:44:40|10=078||0|
M|383|0|0|I|20110224-01:45:10.107|90|8=FIX.4.0|9=0066|35=0|49=NYFXINTL40|56=RBSE40|57=ADMIN|34=383|52=20110224-01:45:10|10=077||0|
M|384|0|0|I|20110224-01:45:40.078|90|8=FIX.4.0|9=0066|35=0|49=NYFXINTL40|56=RBSE40|57=ADMIN|34=384|52=20110224-01:45:40|10=081||0|
M|385|0|0|I|20110224-01:46:10.125|90|8=FIX.4.0|9=0066|35=0|49=NYFXINTL40|56=RBSE40|57=ADMIN|34=385|52=20110224-01:46:10|10=080||0|
M|386|0|0|I|20110224-01:46:40.087|90|8=FIX.4.0|9=0066|35=0|49=NYFXINTL40|56=RBSE40|57=ADMIN|34=386|52=20110224-01:46:40|10=084||0|
M|387|0|0|I|20110224-01:47:10.154|90|8=FIX.4.0|9=0066|35=0|49=NYFXINTL40|56=RBSE40|57=ADMIN|34=387|52=20110224-01:47:10|10=083||0|
M|388|0|0|I|20110224-01:47:40.145|90|8=FIX.4.0|9=0066|35=0|49=NYFXINTL40|56=RBSE40|57=ADMIN|34=388|52=20110224-01:47:40|10=087||0|
M|389|0|0|I|20110224-01:48:10.063|90|8=FIX.4.0|9=0066|35=0|49=NYFXINTL40|56=RBSE40|57=ADMIN|34=389|52=20110224-01:48:10|10=086||0|
M|390|0|0|I|20110224-01:48:40.078|90|8=FIX.4.0|9=0066|35=0|49=NYFXINTL40|56=RBSE40|57=ADMIN|34=390|52=20110224-01:48:40|10=081||0|
M|391|0|0|I|20110224-01:49:10.121|90|8=FIX.4.0|9=0066|35=0|49=NYFXINTL40|56=RBSE40|57=ADMIN|34=391|52=20110224-01:49:10|10=080||0|
M|392|0|0|I|20110224-01:49:40.101|90|8=FIX.4.0|9=0066|35=0|49=NYFXINTL40|56=RBSE40|57=ADMIN|34=392|52=20110224-01:49:40|10=084||0|
M|393|0|0|I|20110224-01:50:10.161|90|8=FIX.4.0|9=0066|35=0|49=NYFXINTL40|56=RBSE40|57=ADMIN|34=393|52=20110224-01:50:10|10=074||0|
M|394|0|0|I|20110224-01:50:40.141|90|8=FIX.4.0|9=0066|35=0|49=NYFXINTL40|56=RBSE40|57=ADMIN|34=394|52=20110224-01:50:40|10=078||0|
M|395|0|0|I|20110224-01:51:10.097|90|8=FIX.4.0|9=0066|35=0|49=NYFXINTL40|56=RBSE40|57=ADMIN|34=395|52=20110224-01:51:10|10=077||0|
M|396|0|0|I|20110224-01:51:40.079|90|8=FIX.4.0|9=0066|35=0|49=NYFXINTL40|56=RBSE40|57=ADMIN|34=396|52=20110224-01:51:40|10=081||0|
M|397|0|0|I|20110224-01:52:10.128|90|8=FIX.4.0|9=0066|35=0|49=NYFXINTL40|56=RBSE40|57=ADMIN|34=397|52=20110224-01:52:10|10=080||0|
M|398|0|0|I|20110224-01:52:40.076|90|8=FIX.4.0|9=0066|35=0|49=NYFXINTL40|56=RBSE40|57=ADMIN|34=398|52=20110224-01:52:40|10=084||0|
M|399|0|0|I|20110224-01:53:10.084|90|8=FIX.4.0|9=0066|35=0|49=NYFXINTL40|56=RBSE40|57=ADMIN|34=399|52=20110224-01:53:10|10=083||0|
M|400|0|0|I|20110224-01:53:40.124|90|8=FIX.4.0|9=0066|35=0|49=NYFXINTL40|56=RBSE40|57=ADMIN|34=400|52=20110224-01:53:40|10=069||0|
M|401|0|0|I|20110224-01:54:10.095|90|8=FIX.4.0|9=0066|35=0|49=NYFXINTL40|56=RBSE40|57=ADMIN|34=401|52=20110224-01:54:10|10=068||0|
M|402|0|0|I|20110224-01:54:40.143|90|8=FIX.4.0|9=0066|35=0|49=NYFXINTL40|56=RBSE40|57=ADMIN|34=402|52=20110224-01:54:40|10=072||0|
M|403|0|0|I|20110224-01:55:10.072|90|8=FIX.4.0|9=0066|35=0|49=NYFXINTL40|56=RBSE40|57=ADMIN|34=403|52=20110224-01:55:10|10=071||0|
M|404|0|0|I|20110224-01:55:40.162|90|8=FIX.4.0|9=0066|35=0|49=NYFXINTL40|56=RBSE40|57=ADMIN|34=404|52=20110224-01:55:40|10=075||0|
M|405|0|0|I|20110224-01:56:10.091|90|8=FIX.4.0|9=0066|35=0|49=NYFXINTL40|56=RBSE40|57=ADMIN|34=405|52=20110224-01:56:10|10=074||0|
M|406|0|0|I|20110224-01:56:40.129|90|8=FIX.4.0|9=0066|35=0|49=NYFXINTL40|56=RBSE40|57=ADMIN|34=406|52=20110224-01:56:40|10=078||0|
M|407|0|0|I|20110224-01:57:10.190|90|8=FIX.4.0|9=0066|35=0|49=NYFXINTL40|56=RBSE40|57=ADMIN|34=407|52=20110224-01:57:10|10=077||0|
M|408|0|0|I|20110224-01:57:40.097|90|8=FIX.4.0|9=0066|35=0|49=NYFXINTL40|56=RBSE40|57=ADMIN|34=408|52=20110224-01:57:40|10=081||0|
M|409|0|0|I|20110224-01:58:10.076|90|8=FIX.4.0|9=0066|35=0|49=NYFXINTL40|56=RBSE40|57=ADMIN|34=409|52=20110224-01:58:10|10=080||0|
M|410|0|0|I|20110224-01:58:40.118|90|8=FIX.4.0|9=0066|35=0|49=NYFXINTL40|56=RBSE40|57=ADMIN|34=410|52=20110224-01:58:40|10=075||0|
M|411|0|0|I|20110224-01:59:10.145|90|8=FIX.4.0|9=0066|35=0|49=NYFXINTL40|56=RBSE40|57=ADMIN|34=411|52=20110224-01:59:10|10=074||0|
M|412|0|0|I|20110224-01:59:40.126|90|8=FIX.4.0|9=0066|35=0|49=NYFXINTL40|56=RBSE40|57=ADMIN|34=412|52=20110224-01:59:40|10=078||0|
M|413|0|0|I|20110224-02:00:10.086|90|8=FIX.4.0|9=0066|35=0|49=NYFXINTL40|56=RBSE40|57=ADMIN|34=413|52=20110224-02:00:10|10=063||0|
M|414|0|0|I|20110224-02:00:40.148|90|8=FIX.4.0|9=0066|35=0|49=NYFXINTL40|56=RBSE40|57=ADMIN|34=414|52=20110224-02:00:40|10=067||0|
M|415|0|0|I|20110224-02:01:10.084|90|8=FIX.4.0|9=0066|35=0|49=NYFXINTL40|56=RBSE40|57=ADMIN|34=415|52=20110224-02:01:10|10=066||0|
M|416|0|0|I|20110224-02:01:40.073|90|8=FIX.4.0|9=0066|35=0|49=NYFXINTL40|56=RBSE40|57=ADMIN|34=416|52=20110224-02:01:40|10=070||0|
M|417|0|0|I|20110224-02:02:10.062|90|8=FIX.4.0|9=0066|35=0|49=NYFXINTL40|56=RBSE40|57=ADMIN|34=417|52=20110224-02:02:10|10=069||0|
M|418|0|0|I|20110224-02:02:40.113|90|8=FIX.4.0|9=0066|35=0|49=NYFXINTL40|56=RBSE40|57=ADMIN|34=418|52=20110224-02:02:40|10=073||0|
M|419|0|0|I|20110224-02:03:10.078|90|8=FIX.4.0|9=0066|35=0|49=NYFXINTL40|56=RBSE40|57=ADMIN|34=419|52=20110224-02:03:10|10=072||0|
M|420|0|0|I|20110224-02:03:40.133|90|8=FIX.4.0|9=0066|35=0|49=NYFXINTL40|56=RBSE40|57=ADMIN|34=420|52=20110224-02:03:40|10=067||0|
M|421|0|0|I|20110224-02:04:10.128|90|8=FIX.4.0|9=0066|35=0|49=NYFXINTL40|56=RBSE40|57=ADMIN|34=421|52=20110224-02:04:10|10=066||0|
M|422|0|0|I|20110224-02:04:40.078|90|8=FIX.4.0|9=0066|35=0|49=NYFXINTL40|56=RBSE40|57=ADMIN|34=422|52=20110224-02:04:40|10=070||0|
M|423|0|0|I|20110224-02:05:10.114|90|8=FIX.4.0|9=0066|35=0|49=NYFXINTL40|56=RBSE40|57=ADMIN|34=423|52=20110224-02:05:10|10=069||0|
M|424|0|0|I|20110224-02:05:40.098|90|8=FIX.4.0|9=0066|35=0|49=NYFXINTL40|56=RBSE40|57=ADMIN|34=424|52=20110224-02:05:40|10=073||0|
M|425|0|0|I|20110224-02:06:10.134|90|8=FIX.4.0|9=0066|35=0|49=NYFXINTL40|56=RBSE40|57=ADMIN|34=425|52=20110224-02:06:10|10=072||0|
M|426|0|0|I|20110224-02:06:40.125|90|8=FIX.4.0|9=0066|35=0|49=NYFXINTL40|56=RBSE40|57=ADMIN|34=426|52=20110224-02:06:40|10=076||0|
M|427|0|0|I|20110224-02:07:10.154|90|8=FIX.4.0|9=0066|35=0|49=NYFXINTL40|56=RBSE40|57=ADMIN|34=427|52=20110224-02:07:10|10=075||0|
M|428|0|0|I|20110224-02:07:40.133|90|8=FIX.4.0|9=0066|35=0|49=NYFXINTL40|56=RBSE40|57=ADMIN|34=428|52=20110224-02:07:40|10=079||0|
M|429|0|0|I|20110224-02:08:10.062|90|8=FIX.4.0|9=0066|35=0|49=NYFXINTL40|56=RBSE40|57=ADMIN|34=429|52=20110224-02:08:10|10=078||0|
M|430|0|0|I|20110224-02:08:40.133|90|8=FIX.4.0|9=0066|35=0|49=NYFXINTL40|56=RBSE40|57=ADMIN|34=430|52=20110224-02:08:40|10=073||0|
M|431|0|0|I|20110224-02:09:10.143|90|8=FIX.4.0|9=0066|35=0|49=NYFXINTL40|56=RBSE40|57=ADMIN|34=431|52=20110224-02:09:10|10=072||0|
M|432|0|0|I|20110224-02:09:40.072|90|8=FIX.4.0|9=0066|35=0|49=NYFXINTL40|56=RBSE40|57=ADMIN|34=432|52=20110224-02:09:40|10=076||0|
M|433|0|0|I|20110224-02:10:10.149|90|8=FIX.4.0|9=0066|35=0|49=NYFXINTL40|56=RBSE40|57=ADMIN|34=433|52=20110224-02:10:10|10=066||0|
M|434|0|0|I|20110224-02:10:40.089|90|8=FIX.4.0|9=0066|35=0|49=NYFXINTL40|56=RBSE40|57=ADMIN|34=434|52=20110224-02:10:40|10=070||0|
M|435|0|0|I|20110224-02:11:10.057|90|8=FIX.4.0|9=0066|35=0|49=NYFXINTL40|56=RBSE40|57=ADMIN|34=435|52=20110224-02:11:10|10=069||0|
M|436|0|0|I|20110224-02:11:40.149|90|8=FIX.4.0|9=0066|35=0|49=NYFXINTL40|56=RBSE40|57=ADMIN|34=436|52=20110224-02:11:40|10=073||0|
M|437|0|0|I|20110224-02:12:10.094|90|8=FIX.4.0|9=0066|35=0|49=NYFXINTL40|56=RBSE40|57=ADMIN|34=437|52=20110224-02:12:10|10=072||0|
M|438|0|0|I|20110224-02:12:40.144|90|8=FIX.4.0|9=0066|35=0|49=NYFXINTL40|56=RBSE40|57=ADMIN|34=438|52=20110224-02:12:40|10=076||0|
M|439|0|0|I|20110224-02:13:10.211|90|8=FIX.4.0|9=0066|35=0|49=NYFXINTL40|56=RBSE40|57=ADMIN|34=439|52=20110224-02:13:10|10=075||0|
M|440|0|0|I|20110224-02:13:40.161|90|8=FIX.4.0|9=0066|35=0|49=NYFXINTL40|56=RBSE40|57=ADMIN|34=440|52=20110224-02:13:40|10=070||0|
M|441|0|0|I|20110224-02:14:10.146|90|8=FIX.4.0|9=0066|35=0|49=NYFXINTL40|56=RBSE40|57=ADMIN|34=441|52=20110224-02:14:10|10=069||0|
M|442|0|0|I|20110224-02:14:40.087|90|8=FIX.4.0|9=0066|35=0|49=NYFXINTL40|56=RBSE40|57=ADMIN|34=442|52=20110224-02:14:40|10=073||0|
M|443|0|0|I|20110224-02:15:10.142|90|8=FIX.4.0|9=0066|35=0|49=NYFXINTL40|56=RBSE40|57=ADMIN|34=443|52=20110224-02:15:10|10=072||0|
M|444|0|0|I|20110224-02:15:40.109|90|8=FIX.4.0|9=0066|35=0|49=NYFXINTL40|56=RBSE40|57=ADMIN|34=444|52=20110224-02:15:40|10=076||0|
M|445|0|0|I|20110224-02:16:10.852|90|8=FIX.4.0|9=0066|35=0|49=NYFXINTL40|56=RBSE40|57=ADMIN|34=445|52=20110224-02:16:10|10=075||0|
M|446|0|0|I|20110224-02:16:40.073|90|8=FIX.4.0|9=0066|35=0|49=NYFXINTL40|56=RBSE40|57=ADMIN|34=446|52=20110224-02:16:40|10=079||0|
M|447|0|0|I|20110224-02:17:10.122|90|8=FIX.4.0|9=0066|35=0|49=NYFXINTL40|56=RBSE40|57=ADMIN|34=447|52=20110224-02:17:10|10=078||0|
M|448|0|0|I|20110224-02:17:40.125|90|8=FIX.4.0|9=0066|35=0|49=NYFXINTL40|56=RBSE40|57=ADMIN|34=448|52=20110224-02:17:40|10=082||0|
M|449|0|0|I|20110224-02:18:10.776|90|8=FIX.4.0|9=0066|35=0|49=NYFXINTL40|56=RBSE40|57=ADMIN|34=449|52=20110224-02:18:10|10=081||0|
M|450|0|0|I|20110224-02:18:40.127|90|8=FIX.4.0|9=0066|35=0|49=NYFXINTL40|56=RBSE40|57=ADMIN|34=450|52=20110224-02:18:40|10=076||0|
M|451|0|0|I|20110224-02:19:10.085|90|8=FIX.4.0|9=0066|35=0|49=NYFXINTL40|56=RBSE40|57=ADMIN|34=451|52=20110224-02:19:10|10=075||0|
M|452|0|0|I|20110224-02:19:40.053|90|8=FIX.4.0|9=0066|35=0|49=NYFXINTL40|56=RBSE40|57=ADMIN|34=452|52=20110224-02:19:40|10=079||0|
M|453|0|0|I|20110224-02:20:10.076|90|8=FIX.4.0|9=0066|35=0|49=NYFXINTL40|56=RBSE40|57=ADMIN|34=453|52=20110224-02:20:10|10=069||0|
M|454|0|0|I|20110224-02:20:40.131|90|8=FIX.4.0|9=0066|35=0|49=NYFXINTL40|56=RBSE40|57=ADMIN|34=454|52=20110224-02:20:40|10=073||0|
M|455|0|0|I|20110224-02:21:10.072|90|8=FIX.4.0|9=0066|35=0|49=NYFXINTL40|56=RBSE40|57=ADMIN|34=455|52=20110224-02:21:10|10=072||0|
M|456|0|0|I|20110224-02:21:40.131|90|8=FIX.4.0|9=0066|35=0|49=NYFXINTL40|56=RBSE40|57=ADMIN|34=456|52=20110224-02:21:40|10=076||0|
M|457|0|0|I|20110224-02:22:10.319|90|8=FIX.4.0|9=0066|35=0|49=NYFXINTL40|56=RBSE40|57=ADMIN|34=457|52=20110224-02:22:10|10=075||0|
M|458|0|0|I|20110224-02:22:40.131|90|8=FIX.4.0|9=0066|35=0|49=NYFXINTL40|56=RBSE40|57=ADMIN|34=458|52=20110224-02:22:40|10=079||0|
M|459|0|0|I|20110224-02:23:10.127|90|8=FIX.4.0|9=0066|35=0|49=NYFXINTL40|56=RBSE40|57=ADMIN|34=459|52=20110224-02:23:10|10=078||0|
M|460|0|0|I|20110224-02:23:40.128|90|8=FIX.4.0|9=0066|35=0|49=NYFXINTL40|56=RBSE40|57=ADMIN|34=460|52=20110224-02:23:40|10=073||0|
M|461|0|0|I|20110224-02:24:10.096|90|8=FIX.4.0|9=0066|35=0|49=NYFXINTL40|56=RBSE40|57=ADMIN|34=461|52=20110224-02:24:10|10=072||0|
M|462|0|0|I|20110224-02:24:40.110|90|8=FIX.4.0|9=0066|35=0|49=NYFXINTL40|56=RBSE40|57=ADMIN|34=462|52=20110224-02:24:40|10=076||0|
M|463|0|0|I|20110224-02:25:10.064|90|8=FIX.4.0|9=0066|35=0|49=NYFXINTL40|56=RBSE40|57=ADMIN|34=463|52=20110224-02:25:10|10=075||0|
M|464|0|0|I|20110224-02:25:40.064|90|8=FIX.4.0|9=0066|35=0|49=NYFXINTL40|56=RBSE40|57=ADMIN|34=464|52=20110224-02:25:40|10=079||0|
M|465|0|0|I|20110224-02:26:10.083|90|8=FIX.4.0|9=0066|35=0|49=NYFXINTL40|56=RBSE40|57=ADMIN|34=465|52=20110224-02:26:10|10=078||0|
M|466|0|0|I|20110224-02:26:40.153|90|8=FIX.4.0|9=0066|35=0|49=NYFXINTL40|56=RBSE40|57=ADMIN|34=466|52=20110224-02:26:40|10=082||0|
M|467|0|0|I|20110224-02:27:10.108|90|8=FIX.4.0|9=0066|35=0|49=NYFXINTL40|56=RBSE40|57=ADMIN|34=467|52=20110224-02:27:10|10=081||0|
M|468|0|0|I|20110224-02:27:40.151|90|8=FIX.4.0|9=0066|35=0|49=NYFXINTL40|56=RBSE40|57=ADMIN|34=468|52=20110224-02:27:40|10=085||0|
M|469|0|0|I|20110224-02:28:10.119|90|8=FIX.4.0|9=0066|35=0|49=NYFXINTL40|56=RBSE40|57=ADMIN|34=469|52=20110224-02:28:10|10=084||0|
M|470|0|0|I|20110224-02:28:40.131|90|8=FIX.4.0|9=0066|35=0|49=NYFXINTL40|56=RBSE40|57=ADMIN|34=470|52=20110224-02:28:40|10=079||0|
M|471|0|0|I|20110224-02:29:10.058|90|8=FIX.4.0|9=0066|35=0|49=NYFXINTL40|56=RBSE40|57=ADMIN|34=471|52=20110224-02:29:10|10=078||0|
M|472|0|0|I|20110224-02:29:40.067|90|8=FIX.4.0|9=0066|35=0|49=NYFXINTL40|56=RBSE40|57=ADMIN|34=472|52=20110224-02:29:40|10=082||0|
M|473|0|0|I|20110224-02:30:10.069|90|8=FIX.4.0|9=0066|35=0|49=NYFXINTL40|56=RBSE40|57=ADMIN|34=473|52=20110224-02:30:10|10=072||0|
M|474|0|0|I|20110224-02:30:40.131|90|8=FIX.4.0|9=0066|35=0|49=NYFXINTL40|56=RBSE40|57=ADMIN|34=474|52=20110224-02:30:40|10=076||0|
M|475|0|0|I|20110224-02:31:10.116|90|8=FIX.4.0|9=0066|35=0|49=NYFXINTL40|56=RBSE40|57=ADMIN|34=475|52=20110224-02:31:10|10=075||0|
M|476|0|0|I|20110224-02:31:40.089|90|8=FIX.4.0|9=0066|35=0|49=NYFXINTL40|56=RBSE40|57=ADMIN|34=476|52=20110224-02:31:40|10=079||0|
M|477|0|0|I|20110224-02:32:10.122|90|8=FIX.4.0|9=0066|35=0|49=NYFXINTL40|56=RBSE40|57=ADMIN|34=477|52=20110224-02:32:10|10=078||0|
M|478|0|0|I|20110224-02:32:40.063|90|8=FIX.4.0|9=0066|35=0|49=NYFXINTL40|56=RBSE40|57=ADMIN|34=478|52=20110224-02:32:40|10=082||0|
M|479|0|0|I|20110224-02:33:10.143|90|8=FIX.4.0|9=0066|35=0|49=NYFXINTL40|56=RBSE40|57=ADMIN|34=479|52=20110224-02:33:10|10=081||0|
M|480|0|0|I|20110224-02:33:40.189|90|8=FIX.4.0|9=0066|35=0|49=NYFXINTL40|56=RBSE40|57=ADMIN|34=480|52=20110224-02:33:40|10=076||0|
M|481|0|0|I|20110224-02:34:10.161|90|8=FIX.4.0|9=0066|35=0|49=NYFXINTL40|56=RBSE40|57=ADMIN|34=481|52=20110224-02:34:10|10=075||0|
M|482|0|0|I|20110224-02:34:40.270|90|8=FIX.4.0|9=0066|35=0|49=NYFXINTL40|56=RBSE40|57=ADMIN|34=482|52=20110224-02:34:40|10=079||0|
M|483|0|0|I|20110224-02:35:10.158|90|8=FIX.4.0|9=0066|35=0|49=NYFXINTL40|56=RBSE40|57=ADMIN|34=483|52=20110224-02:35:10|10=078||0|
M|484|0|0|I|20110224-02:35:40.119|90|8=FIX.4.0|9=0066|35=0|49=NYFXINTL40|56=RBSE40|57=ADMIN|34=484|52=20110224-02:35:40|10=082||0|
M|485|0|0|I|20110224-02:36:10.106|90|8=FIX.4.0|9=0066|35=0|49=NYFXINTL40|56=RBSE40|57=ADMIN|34=485|52=20110224-02:36:10|10=081||0|
M|486|0|0|I|20110224-02:36:40.096|90|8=FIX.4.0|9=0066|35=0|49=NYFXINTL40|56=RBSE40|57=ADMIN|34=486|52=20110224-02:36:40|10=085||0|
M|487|0|0|I|20110224-02:37:10.077|90|8=FIX.4.0|9=0066|35=0|49=NYFXINTL40|56=RBSE40|57=ADMIN|34=487|52=20110224-02:37:10|10=084||0|
M|488|0|0|I|20110224-02:37:40.066|90|8=FIX.4.0|9=0066|35=0|49=NYFXINTL40|56=RBSE40|57=ADMIN|34=488|52=20110224-02:37:40|10=088||0|
M|489|0|0|I|20110224-02:38:10.053|90|8=FIX.4.0|9=0066|35=0|49=NYFXINTL40|56=RBSE40|57=ADMIN|34=489|52=20110224-02:38:10|10=087||0|
M|490|0|0|I|20110224-02:38:40.153|90|8=FIX.4.0|9=0066|35=0|49=NYFXINTL40|56=RBSE40|57=ADMIN|34=490|52=20110224-02:38:40|10=082||0|
M|491|0|0|I|20110224-02:39:10.153|90|8=FIX.4.0|9=0066|35=0|49=NYFXINTL40|56=RBSE40|57=ADMIN|34=491|52=20110224-02:39:10|10=081||0|
M|492|0|0|I|20110224-02:39:40.152|90|8=FIX.4.0|9=0066|35=0|49=NYFXINTL40|56=RBSE40|57=ADMIN|34=492|52=20110224-02:39:40|10=085||0|
M|493|0|0|I|20110224-02:40:10.062|90|8=FIX.4.0|9=0066|35=0|49=NYFXINTL40|56=RBSE40|57=ADMIN|34=493|52=20110224-02:40:10|10=075||0|
M|494|0|0|I|20110224-02:40:40.070|90|8=FIX.4.0|9=0066|35=0|49=NYFXINTL40|56=RBSE40|57=ADMIN|34=494|52=20110224-02:40:40|10=079||0|
M|495|0|0|I|20110224-02:41:10.138|90|8=FIX.4.0|9=0066|35=0|49=NYFXINTL40|56=RBSE40|57=ADMIN|34=495|52=20110224-02:41:10|10=078||0|
M|496|0|0|I|20110224-02:41:40.128|90|8=FIX.4.0|9=0066|35=0|49=NYFXINTL40|56=RBSE40|57=ADMIN|34=496|52=20110224-02:41:40|10=082||0|
M|497|0|0|I|20110224-02:42:10.058|90|8=FIX.4.0|9=0066|35=0|49=NYFXINTL40|56=RBSE40|57=ADMIN|34=497|52=20110224-02:42:10|10=081||0|
M|498|0|0|I|20110224-02:42:40.128|90|8=FIX.4.0|9=0066|35=0|49=NYFXINTL40|56=RBSE40|57=ADMIN|34=498|52=20110224-02:42:40|10=085||0|
M|499|0|0|I|20110224-02:43:10.085|90|8=FIX.4.0|9=0066|35=0|49=NYFXINTL40|56=RBSE40|57=ADMIN|34=499|52=20110224-02:43:10|10=084||0|
M|500|0|0|I|20110224-02:43:40.134|90|8=FIX.4.0|9=0066|35=0|49=NYFXINTL40|56=RBSE40|57=ADMIN|34=500|52=20110224-02:43:40|10=070||0|
M|501|0|0|I|20110224-02:44:10.063|90|8=FIX.4.0|9=0066|35=0|49=NYFXINTL40|56=RBSE40|57=ADMIN|34=501|52=20110224-02:44:10|10=069||0|
M|502|0|0|I|20110224-02:44:40.064|90|8=FIX.4.0|9=0066|35=0|49=NYFXINTL40|56=RBSE40|57=ADMIN|34=502|52=20110224-02:44:40|10=073||0|
M|503|0|0|I|20110224-02:45:10.159|90|8=FIX.4.0|9=0066|35=0|49=NYFXINTL40|56=RBSE40|57=ADMIN|34=503|52=20110224-02:45:10|10=072||0|
M|504|0|0|I|20110224-02:45:40.144|90|8=FIX.4.0|9=0066|35=0|49=NYFXINTL40|56=RBSE40|57=ADMIN|34=504|52=20110224-02:45:40|10=076||0|
M|505|0|0|I|20110224-02:46:10.073|90|8=FIX.4.0|9=0066|35=0|49=NYFXINTL40|56=RBSE40|57=ADMIN|34=505|52=20110224-02:46:10|10=075||0|
M|506|0|0|I|20110224-02:46:40.060|90|8=FIX.4.0|9=0066|35=0|49=NYFXINTL40|56=RBSE40|57=ADMIN|34=506|52=20110224-02:46:40|10=079||0|
M|507|0|0|I|20110224-02:47:10.120|90|8=FIX.4.0|9=0066|35=0|49=NYFXINTL40|56=RBSE40|57=ADMIN|34=507|52=20110224-02:47:10|10=078||0|
M|508|0|0|I|20110224-02:47:40.126|90|8=FIX.4.0|9=0066|35=0|49=NYFXINTL40|56=RBSE40|57=ADMIN|34=508|52=20110224-02:47:40|10=082||0|
M|509|0|0|I|20110224-02:48:10.058|90|8=FIX.4.0|9=0066|35=0|49=NYFXINTL40|56=RBSE40|57=ADMIN|34=509|52=20110224-02:48:10|10=081||0|
M|510|0|0|I|20110224-02:48:40.108|90|8=FIX.4.0|9=0066|35=0|49=NYFXINTL40|56=RBSE40|57=ADMIN|34=510|52=20110224-02:48:40|10=076||0|
M|511|0|0|I|20110224-02:49:10.115|90|8=FIX.4.0|9=0066|35=0|49=NYFXINTL40|56=RBSE40|57=ADMIN|34=511|52=20110224-02:49:10|10=075||0|
M|512|0|0|I|20110224-02:49:40.119|90|8=FIX.4.0|9=0066|35=0|49=NYFXINTL40|56=RBSE40|57=ADMIN|34=512|52=20110224-02:49:40|10=079||0|
M|513|0|0|I|20110224-02:50:10.092|90|8=FIX.4.0|9=0066|35=0|49=NYFXINTL40|56=RBSE40|57=ADMIN|34=513|52=20110224-02:50:10|10=069||0|
M|514|0|0|I|20110224-02:50:40.134|90|8=FIX.4.0|9=0066|35=0|49=NYFXINTL40|56=RBSE40|57=ADMIN|34=514|52=20110224-02:50:40|10=073||0|
M|515|0|0|I|20110224-02:51:10.106|90|8=FIX.4.0|9=0066|35=0|49=NYFXINTL40|56=RBSE40|57=ADMIN|34=515|52=20110224-02:51:10|10=072||0|
M|516|0|0|I|20110224-02:51:40.142|90|8=FIX.4.0|9=0066|35=0|49=NYFXINTL40|56=RBSE40|57=ADMIN|34=516|52=20110224-02:51:40|10=076||0|
M|517|0|0|I|20110224-02:52:10.142|90|8=FIX.4.0|9=0066|35=0|49=NYFXINTL40|56=RBSE40|57=ADMIN|34=517|52=20110224-02:52:10|10=075||0|
M|518|0|0|I|20110224-02:52:40.152|90|8=FIX.4.0|9=0066|35=0|49=NYFXINTL40|56=RBSE40|57=ADMIN|34=518|52=20110224-02:52:40|10=079||0|
M|519|0|0|I|20110224-02:53:10.097|90|8=FIX.4.0|9=0066|35=0|49=NYFXINTL40|56=RBSE40|57=ADMIN|34=519|52=20110224-02:53:10|10=078||0|
M|520|0|0|I|20110224-02:53:40.150|90|8=FIX.4.0|9=0066|35=0|49=NYFXINTL40|56=RBSE40|57=ADMIN|34=520|52=20110224-02:53:40|10=073||0|
M|521|0|0|I|20110224-02:54:10.100|90|8=FIX.4.0|9=0066|35=0|49=NYFXINTL40|56=RBSE40|57=ADMIN|34=521|52=20110224-02:54:10|10=072||0|
M|522|0|0|I|20110224-02:54:40.067|90|8=FIX.4.0|9=0066|35=0|49=NYFXINTL40|56=RBSE40|57=ADMIN|34=522|52=20110224-02:54:40|10=076||0|
M|523|0|0|I|20110224-02:55:10.142|90|8=FIX.4.0|9=0066|35=0|49=NYFXINTL40|56=RBSE40|57=ADMIN|34=523|52=20110224-02:55:10|10=075||0|
M|524|0|0|I|20110224-02:55:40.115|90|8=FIX.4.0|9=0066|35=0|49=NYFXINTL40|56=RBSE40|57=ADMIN|34=524|52=20110224-02:55:40|10=079||0|
M|525|0|0|I|20110224-02:56:10.134|90|8=FIX.4.0|9=0066|35=0|49=NYFXINTL40|56=RBSE40|57=ADMIN|34=525|52=20110224-02:56:10|10=078||0|
M|526|0|0|I|20110224-02:56:40.134|90|8=FIX.4.0|9=0066|35=0|49=NYFXINTL40|56=RBSE40|57=ADMIN|34=526|52=20110224-02:56:40|10=082||0|
M|527|0|0|I|20110224-02:57:10.116|90|8=FIX.4.0|9=0066|35=0|49=NYFXINTL40|56=RBSE40|57=ADMIN|34=527|52=20110224-02:57:10|10=081||0|
M|528|0|0|I|20110224-02:57:40.076|90|8=FIX.4.0|9=0066|35=0|49=NYFXINTL40|56=RBSE40|57=ADMIN|34=528|52=20110224-02:57:40|10=085||0|
M|529|0|0|I|20110224-02:58:10.091|90|8=FIX.4.0|9=0066|35=0|49=NYFXINTL40|56=RBSE40|57=ADMIN|34=529|52=20110224-02:58:10|10=084||0|
M|530|0|0|I|20110224-02:58:40.130|90|8=FIX.4.0|9=0066|35=0|49=NYFXINTL40|56=RBSE40|57=ADMIN|34=530|52=20110224-02:58:40|10=079||0|
M|531|0|0|I|20110224-02:59:10.072|90|8=FIX.4.0|9=0066|35=0|49=NYFXINTL40|56=RBSE40|57=ADMIN|34=531|52=20110224-02:59:10|10=078||0|
M|532|0|0|I|20110224-02:59:40.128|90|8=FIX.4.0|9=0066|35=0|49=NYFXINTL40|56=RBSE40|57=ADMIN|34=532|52=20110224-02:59:40|10=082||0|
M|533|0|0|I|20110224-03:00:10.070|90|8=FIX.4.0|9=0066|35=0|49=NYFXINTL40|56=RBSE40|57=ADMIN|34=533|52=20110224-03:00:10|10=067||0|
M|534|0|0|I|20110224-03:00:40.140|90|8=FIX.4.0|9=0066|35=0|49=NYFXINTL40|56=RBSE40|57=ADMIN|34=534|52=20110224-03:00:40|10=071||0|
M|535|0|0|I|20110224-03:01:10.140|90|8=FIX.4.0|9=0066|35=0|49=NYFXINTL40|56=RBSE40|57=ADMIN|34=535|52=20110224-03:01:10|10=070||0|
M|536|0|0|I|20110224-03:01:40.080|90|8=FIX.4.0|9=0066|35=0|49=NYFXINTL40|56=RBSE40|57=ADMIN|34=536|52=20110224-03:01:40|10=074||0|
M|537|0|0|I|20110224-03:02:10.118|90|8=FIX.4.0|9=0066|35=0|49=NYFXINTL40|56=RBSE40|57=ADMIN|34=537|52=20110224-03:02:10|10=073||0|
M|538|0|0|I|20110224-03:02:40.192|90|8=FIX.4.0|9=0066|35=0|49=NYFXINTL40|56=RBSE40|57=ADMIN|34=538|52=20110224-03:02:40|10=077||0|
M|539|0|0|I|20110224-03:03:10.096|90|8=FIX.4.0|9=0066|35=0|49=NYFXINTL40|56=RBSE40|57=ADMIN|34=539|52=20110224-03:03:10|10=076||0|
M|540|0|0|I|20110224-03:03:40.065|90|8=FIX.4.0|9=0066|35=0|49=NYFXINTL40|56=RBSE40|57=ADMIN|34=540|52=20110224-03:03:40|10=071||0|
M|541|0|0|I|20110224-03:04:10.134|90|8=FIX.4.0|9=0066|35=0|49=NYFXINTL40|56=RBSE40|57=ADMIN|34=541|52=20110224-03:04:10|10=070||0|
M|542|0|0|I|20110224-03:04:40.154|90|8=FIX.4.0|9=0066|35=0|49=NYFXINTL40|56=RBSE40|57=ADMIN|34=542|52=20110224-03:04:40|10=074||0|
M|543|0|0|I|20110224-03:05:10.127|90|8=FIX.4.0|9=0066|35=0|49=NYFXINTL40|56=RBSE40|57=ADMIN|34=543|52=20110224-03:05:10|10=073||0|
M|544|0|0|I|20110224-03:05:40.070|90|8=FIX.4.0|9=0066|35=0|49=NYFXINTL40|56=RBSE40|57=ADMIN|34=544|52=20110224-03:05:40|10=077||0|
M|545|0|0|I|20110224-03:06:10.108|90|8=FIX.4.0|9=0066|35=0|49=NYFXINTL40|56=RBSE40|57=ADMIN|34=545|52=20110224-03:06:10|10=076||0|
M|546|0|0|I|20110224-03:06:40.109|90|8=FIX.4.0|9=0066|35=0|49=NYFXINTL40|56=RBSE40|57=ADMIN|34=546|52=20110224-03:06:40|10=080||0|
M|547|0|0|I|20110224-03:07:10.078|90|8=FIX.4.0|9=0066|35=0|49=NYFXINTL40|56=RBSE40|57=ADMIN|34=547|52=20110224-03:07:10|10=079||0|
M|548|0|0|I|20110224-03:07:40.077|90|8=FIX.4.0|9=0066|35=0|49=NYFXINTL40|56=RBSE40|57=ADMIN|34=548|52=20110224-03:07:40|10=083||0|
M|549|0|0|I|20110224-03:08:10.066|90|8=FIX.4.0|9=0066|35=0|49=NYFXINTL40|56=RBSE40|57=ADMIN|34=549|52=20110224-03:08:10|10=082||0|
M|550|0|0|I|20110224-03:08:40.145|90|8=FIX.4.0|9=0066|35=0|49=NYFXINTL40|56=RBSE40|57=ADMIN|34=550|52=20110224-03:08:40|10=077||0|
M|551|0|0|I|20110224-03:09:10.133|90|8=FIX.4.0|9=0066|35=0|49=NYFXINTL40|56=RBSE40|57=ADMIN|34=551|52=20110224-03:09:10|10=076||0|
M|552|0|0|I|20110224-03:09:40.315|90|8=FIX.4.0|9=0066|35=0|49=NYFXINTL40|56=RBSE40|57=ADMIN|34=552|52=20110224-03:09:40|10=080||0|
M|553|0|0|I|20110224-03:10:10.124|90|8=FIX.4.0|9=0066|35=0|49=NYFXINTL40|56=RBSE40|57=ADMIN|34=553|52=20110224-03:10:10|10=070||0|
M|554|0|0|I|20110224-03:10:40.162|90|8=FIX.4.0|9=0066|35=0|49=NYFXINTL40|56=RBSE40|57=ADMIN|34=554|52=20110224-03:10:40|10=074||0|
M|555|0|0|I|20110224-03:11:10.080|90|8=FIX.4.0|9=0066|35=0|49=NYFXINTL40|56=RBSE40|57=ADMIN|34=555|52=20110224-03:11:10|10=073||0|
M|556|0|0|I|20110224-03:11:40.130|90|8=FIX.4.0|9=0066|35=0|49=NYFXINTL40|56=RBSE40|57=ADMIN|34=556|52=20110224-03:11:40|10=077||0|
M|557|0|0|I|20110224-03:12:10.058|90|8=FIX.4.0|9=0066|35=0|49=NYFXINTL40|56=RBSE40|57=ADMIN|34=557|52=20110224-03:12:10|10=076||0|
M|558|0|0|I|20110224-03:12:40.118|90|8=FIX.4.0|9=0066|35=0|49=NYFXINTL40|56=RBSE40|57=ADMIN|34=558|52=20110224-03:12:40|10=080||0|
M|559|0|0|I|20110224-03:13:10.155|90|8=FIX.4.0|9=0066|35=0|49=NYFXINTL40|56=RBSE40|57=ADMIN|34=559|52=20110224-03:13:10|10=079||0|
M|560|0|0|I|20110224-03:13:40.098|90|8=FIX.4.0|9=0066|35=0|49=NYFXINTL40|56=RBSE40|57=ADMIN|34=560|52=20110224-03:13:40|10=074||0|
M|561|0|0|I|20110224-03:14:10.065|90|8=FIX.4.0|9=0066|35=0|49=NYFXINTL40|56=RBSE40|57=ADMIN|34=561|52=20110224-03:14:10|10=073||0|
M|562|0|0|I|20110224-03:14:40.140|90|8=FIX.4.0|9=0066|35=0|49=NYFXINTL40|56=RBSE40|57=ADMIN|34=562|52=20110224-03:14:40|10=077||0|
M|563|0|0|I|20110224-03:15:10.055|90|8=FIX.4.0|9=0066|35=0|49=NYFXINTL40|56=RBSE40|57=ADMIN|34=563|52=20110224-03:15:10|10=076||0|
M|564|0|0|I|20110224-03:15:40.075|90|8=FIX.4.0|9=0066|35=0|49=NYFXINTL40|56=RBSE40|57=ADMIN|34=564|52=20110224-03:15:40|10=080||0|
M|565|0|0|I|20110224-03:16:10.126|90|8=FIX.4.0|9=0066|35=0|49=NYFXINTL40|56=RBSE40|57=ADMIN|34=565|52=20110224-03:16:10|10=079||0|
M|566|0|0|I|20110224-03:16:40.079|90|8=FIX.4.0|9=0066|35=0|49=NYFXINTL40|56=RBSE40|57=ADMIN|34=566|52=20110224-03:16:40|10=083||0|
M|567|0|0|I|20110224-03:17:10.081|90|8=FIX.4.0|9=0066|35=0|49=NYFXINTL40|56=RBSE40|57=ADMIN|34=567|52=20110224-03:17:10|10=082||0|
M|568|0|0|I|20110224-03:17:40.291|90|8=FIX.4.0|9=0066|35=0|49=NYFXINTL40|56=RBSE40|57=ADMIN|34=568|52=20110224-03:17:40|10=086||0|
M|569|0|0|I|20110224-03:18:10.130|90|8=FIX.4.0|9=0066|35=0|49=NYFXINTL40|56=RBSE40|57=ADMIN|34=569|52=20110224-03:18:10|10=085||0|
M|570|0|0|I|20110224-03:18:40.120|90|8=FIX.4.0|9=0066|35=0|49=NYFXINTL40|56=RBSE40|57=ADMIN|34=570|52=20110224-03:18:40|10=080||0|
M|571|0|0|I|20110224-03:19:10.078|90|8=FIX.4.0|9=0066|35=0|49=NYFXINTL40|56=RBSE40|57=ADMIN|34=571|52=20110224-03:19:10|10=079||0|
M|572|0|0|I|20110224-03:19:40.087|90|8=FIX.4.0|9=0066|35=0|49=NYFXINTL40|56=RBSE40|57=ADMIN|34=572|52=20110224-03:19:40|10=083||0|
M|573|0|0|I|20110224-03:20:10.117|90|8=FIX.4.0|9=0066|35=0|49=NYFXINTL40|56=RBSE40|57=ADMIN|34=573|52=20110224-03:20:10|10=073||0|
M|574|0|0|I|20110224-03:20:40.106|90|8=FIX.4.0|9=0066|35=0|49=NYFXINTL40|56=RBSE40|57=ADMIN|34=574|52=20110224-03:20:40|10=077||0|
M|575|0|0|I|20110224-03:21:10.054|90|8=FIX.4.0|9=0066|35=0|49=NYFXINTL40|56=RBSE40|57=ADMIN|34=575|52=20110224-03:21:10|10=076||0|
M|576|0|0|I|20110224-03:21:40.097|90|8=FIX.4.0|9=0066|35=0|49=NYFXINTL40|56=RBSE40|57=ADMIN|34=576|52=20110224-03:21:40|10=080||0|
M|577|0|0|I|20110224-03:22:10.055|90|8=FIX.4.0|9=0066|35=0|49=NYFXINTL40|56=RBSE40|57=ADMIN|34=577|52=20110224-03:22:10|10=079||0|
M|578|0|0|I|20110224-03:22:40.074|90|8=FIX.4.0|9=0066|35=0|49=NYFXINTL40|56=RBSE40|57=ADMIN|34=578|52=20110224-03:22:40|10=083||0|
M|579|0|0|I|20110224-03:23:10.153|90|8=FIX.4.0|9=0066|35=0|49=NYFXINTL40|56=RBSE40|57=ADMIN|34=579|52=20110224-03:23:10|10=082||0|
M|580|0|0|I|20110224-03:23:40.152|90|8=FIX.4.0|9=0066|35=0|49=NYFXINTL40|56=RBSE40|57=ADMIN|34=580|52=20110224-03:23:40|10=077||0|
M|581|0|0|I|20110224-03:24:10.080|90|8=FIX.4.0|9=0066|35=0|49=NYFXINTL40|56=RBSE40|57=ADMIN|34=581|52=20110224-03:24:10|10=076||0|
M|582|0|0|I|20110224-03:24:40.139|90|8=FIX.4.0|9=0066|35=0|49=NYFXINTL40|56=RBSE40|57=ADMIN|34=582|52=20110224-03:24:40|10=080||0|
M|583|0|0|I|20110224-03:25:10.108|90|8=FIX.4.0|9=0066|35=0|49=NYFXINTL40|56=RBSE40|57=ADMIN|34=583|52=20110224-03:25:10|10=079||0|
M|584|0|0|I|20110224-03:25:40.101|90|8=FIX.4.0|9=0066|35=0|49=NYFXINTL40|56=RBSE40|57=ADMIN|34=584|52=20110224-03:25:40|10=083||0|
M|585|0|0|I|20110224-03:26:10.059|90|8=FIX.4.0|9=0066|35=0|49=NYFXINTL40|56=RBSE40|57=ADMIN|34=585|52=20110224-03:26:10|10=082||0|
M|586|0|0|I|20110224-03:26:40.086|90|8=FIX.4.0|9=0066|35=0|49=NYFXINTL40|56=RBSE40|57=ADMIN|34=586|52=20110224-03:26:40|10=086||0|
M|587|0|0|I|20110224-03:27:10.065|90|8=FIX.4.0|9=0066|35=0|49=NYFXINTL40|56=RBSE40|57=ADMIN|34=587|52=20110224-03:27:10|10=085||0|
M|588|0|0|I|20110224-03:27:40.133|90|8=FIX.4.0|9=0066|35=0|49=NYFXINTL40|56=RBSE40|57=ADMIN|34=588|52=20110224-03:27:40|10=089||0|
M|589|0|0|I|20110224-03:28:10.096|90|8=FIX.4.0|9=0066|35=0|49=NYFXINTL40|56=RBSE40|57=ADMIN|34=589|52=20110224-03:28:10|10=088||0|
M|590|0|0|I|20110224-03:28:40.074|90|8=FIX.4.0|9=0066|35=0|49=NYFXINTL40|56=RBSE40|57=ADMIN|34=590|52=20110224-03:28:40|10=083||0|
M|591|0|0|I|20110224-03:29:10.145|90|8=FIX.4.0|9=0066|35=0|49=NYFXINTL40|56=RBSE40|57=ADMIN|34=591|52=20110224-03:29:10|10=082||0|
M|592|0|0|I|20110224-03:29:40.101|90|8=FIX.4.0|9=0066|35=0|49=NYFXINTL40|56=RBSE40|57=ADMIN|34=592|52=20110224-03:29:40|10=086||0|
M|593|0|0|I|20110224-03:30:10.121|90|8=FIX.4.0|9=0066|35=0|49=NYFXINTL40|56=RBSE40|57=ADMIN|34=593|52=20110224-03:30:10|10=076||0|
M|594|0|0|I|20110224-03:30:40.113|90|8=FIX.4.0|9=0066|35=0|49=NYFXINTL40|56=RBSE40|57=ADMIN|34=594|52=20110224-03:30:40|10=080||0|
M|595|0|0|I|20110224-03:31:10.081|90|8=FIX.4.0|9=0066|35=0|49=NYFXINTL40|56=RBSE40|57=ADMIN|34=595|52=20110224-03:31:10|10=079||0|
M|596|0|0|I|20110224-03:31:40.107|90|8=FIX.4.0|9=0066|35=0|49=NYFXINTL40|56=RBSE40|57=ADMIN|34=596|52=20110224-03:31:40|10=083||0|
M|597|0|0|I|20110224-03:32:10.058|90|8=FIX.4.0|9=0066|35=0|49=NYFXINTL40|56=RBSE40|57=ADMIN|34=597|52=20110224-03:32:10|10=082||0|
M|598|0|0|I|20110224-03:32:40.066|90|8=FIX.4.0|9=0066|35=0|49=NYFXINTL40|56=RBSE40|57=ADMIN|34=598|52=20110224-03:32:40|10=086||0|
M|599|0|0|I|20110224-03:33:10.059|90|8=FIX.4.0|9=0066|35=0|49=NYFXINTL40|56=RBSE40|57=ADMIN|34=599|52=20110224-03:33:10|10=085||0|
M|600|0|0|I|20110224-03:33:40.074|90|8=FIX.4.0|9=0066|35=0|49=NYFXINTL40|56=RBSE40|57=ADMIN|34=600|52=20110224-03:33:40|10=071||0|
M|601|0|0|I|20110224-03:34:10.145|90|8=FIX.4.0|9=0066|35=0|49=NYFXINTL40|56=RBSE40|57=ADMIN|34=601|52=20110224-03:34:10|10=070||0|
M|602|0|0|I|20110224-03:34:40.137|90|8=FIX.4.0|9=0066|35=0|49=NYFXINTL40|56=RBSE40|57=ADMIN|34=602|52=20110224-03:34:40|10=074||0|
M|603|0|0|I|20110224-03:35:10.093|90|8=FIX.4.0|9=0066|35=0|49=NYFXINTL40|56=RBSE40|57=ADMIN|34=603|52=20110224-03:35:10|10=073||0|
M|604|0|0|I|20110224-03:35:40.106|90|8=FIX.4.0|9=0066|35=0|49=NYFXINTL40|56=RBSE40|57=ADMIN|34=604|52=20110224-03:35:40|10=077||0|
M|605|0|0|I|20110224-03:36:10.142|90|8=FIX.4.0|9=0066|35=0|49=NYFXINTL40|56=RBSE40|57=ADMIN|34=605|52=20110224-03:36:10|10=076||0|
M|606|0|0|I|20110224-03:36:40.131|90|8=FIX.4.0|9=0066|35=0|49=NYFXINTL40|56=RBSE40|57=ADMIN|34=606|52=20110224-03:36:40|10=080||0|
M|607|0|0|I|20110224-03:37:10.080|90|8=FIX.4.0|9=0066|35=0|49=NYFXINTL40|56=RBSE40|57=ADMIN|34=607|52=20110224-03:37:10|10=079||0|
M|608|0|0|I|20110224-03:37:40.064|90|8=FIX.4.0|9=0066|35=0|49=NYFXINTL40|56=RBSE40|57=ADMIN|34=608|52=20110224-03:37:40|10=083||0|
M|609|0|0|I|20110224-03:38:10.158|90|8=FIX.4.0|9=0066|35=0|49=NYFXINTL40|56=RBSE40|57=ADMIN|34=609|52=20110224-03:38:10|10=082||0|
M|610|0|0|I|20110224-03:38:40.071|90|8=FIX.4.0|9=0066|35=0|49=NYFXINTL40|56=RBSE40|57=ADMIN|34=610|52=20110224-03:38:40|10=077||0|
M|611|0|0|I|20110224-03:39:10.136|90|8=FIX.4.0|9=0066|35=0|49=NYFXINTL40|56=RBSE40|57=ADMIN|34=611|52=20110224-03:39:10|10=076||0|
M|612|0|0|I|20110224-03:39:40.105|90|8=FIX.4.0|9=0066|35=0|49=NYFXINTL40|56=RBSE40|57=ADMIN|34=612|52=20110224-03:39:40|10=080||0|
M|613|0|0|I|20110224-03:40:10.131|90|8=FIX.4.0|9=0066|35=0|49=NYFXINTL40|56=RBSE40|57=ADMIN|34=613|52=20110224-03:40:10|10=070||0|
M|614|0|0|I|20110224-03:40:40.135|90|8=FIX.4.0|9=0066|35=0|49=NYFXINTL40|56=RBSE40|57=ADMIN|34=614|52=20110224-03:40:40|10=074||0|
M|615|0|0|I|20110224-03:41:10.104|90|8=FIX.4.0|9=0066|35=0|49=NYFXINTL40|56=RBSE40|57=ADMIN|34=615|52=20110224-03:41:10|10=073||0|
M|616|0|0|I|20110224-03:41:40.122|90|8=FIX.4.0|9=0066|35=0|49=NYFXINTL40|56=RBSE40|57=ADMIN|34=616|52=20110224-03:41:40|10=077||0|
M|617|0|0|I|20110224-03:42:10.094|90|8=FIX.4.0|9=0066|35=0|49=NYFXINTL40|56=RBSE40|57=ADMIN|34=617|52=20110224-03:42:10|10=076||0|
M|618|0|0|I|20110224-03:42:40.130|90|8=FIX.4.0|9=0066|35=0|49=NYFXINTL40|56=RBSE40|57=ADMIN|34=618|52=20110224-03:42:40|10=080||0|
M|619|0|0|I|20110224-03:43:10.123|90|8=FIX.4.0|9=0066|35=0|49=NYFXINTL40|56=RBSE40|57=ADMIN|34=619|52=20110224-03:43:10|10=079||0|
M|620|0|0|I|20110224-03:43:40.092|90|8=FIX.4.0|9=0066|35=0|49=NYFXINTL40|56=RBSE40|57=ADMIN|34=620|52=20110224-03:43:40|10=074||0|
M|621|0|0|I|20110224-03:44:10.110|90|8=FIX.4.0|9=0066|35=0|49=NYFXINTL40|56=RBSE40|57=ADMIN|34=621|52=20110224-03:44:10|10=073||0|
M|622|0|0|I|20110224-03:44:40.098|90|8=FIX.4.0|9=0066|35=0|49=NYFXINTL40|56=RBSE40|57=ADMIN|34=622|52=20110224-03:44:40|10=077||0|
M|623|0|0|I|20110224-03:45:10.111|90|8=FIX.4.0|9=0066|35=0|49=NYFXINTL40|56=RBSE40|57=ADMIN|34=623|52=20110224-03:45:10|10=076||0|
M|624|0|0|I|20110224-03:45:40.138|90|8=FIX.4.0|9=0066|35=0|49=NYFXINTL40|56=RBSE40|57=ADMIN|34=624|52=20110224-03:45:40|10=080||0|
M|625|0|0|I|20110224-03:46:10.095|90|8=FIX.4.0|9=0066|35=0|49=NYFXINTL40|56=RBSE40|57=ADMIN|34=625|52=20110224-03:46:10|10=079||0|
M|626|0|0|I|20110224-03:46:40.088|90|8=FIX.4.0|9=0066|35=0|49=NYFXINTL40|56=RBSE40|57=ADMIN|34=626|52=20110224-03:46:40|10=083||0|
M|627|0|0|I|20110224-03:47:10.124|90|8=FIX.4.0|9=0066|35=0|49=NYFXINTL40|56=RBSE40|57=ADMIN|34=627|52=20110224-03:47:10|10=082||0|
M|628|0|0|I|20110224-03:47:40.123|90|8=FIX.4.0|9=0066|35=0|49=NYFXINTL40|56=RBSE40|57=ADMIN|34=628|52=20110224-03:47:40|10=086||0|
M|629|0|0|I|20110224-03:48:10.102|90|8=FIX.4.0|9=0066|35=0|49=NYFXINTL40|56=RBSE40|57=ADMIN|34=629|52=20110224-03:48:10|10=085||0|
M|630|0|0|I|20110224-03:48:40.141|90|8=FIX.4.0|9=0066|35=0|49=NYFXINTL40|56=RBSE40|57=ADMIN|34=630|52=20110224-03:48:40|10=080||0|
M|631|0|0|I|20110224-03:49:10.064|90|8=FIX.4.0|9=0066|35=0|49=NYFXINTL40|56=RBSE40|57=ADMIN|34=631|52=20110224-03:49:10|10=079||0|
M|632|0|0|I|20110224-03:49:40.138|90|8=FIX.4.0|9=0066|35=0|49=NYFXINTL40|56=RBSE40|57=ADMIN|34=632|52=20110224-03:49:40|10=083||0|
M|633|0|0|I|20110224-03:50:10.089|90|8=FIX.4.0|9=0066|35=0|49=NYFXINTL40|56=RBSE40|57=ADMIN|34=633|52=20110224-03:50:10|10=073||0|
M|634|0|0|I|20110224-03:50:40.098|90|8=FIX.4.0|9=0066|35=0|49=NYFXINTL40|56=RBSE40|57=ADMIN|34=634|52=20110224-03:50:40|10=077||0|
M|635|0|0|I|20110224-03:51:10.136|90|8=FIX.4.0|9=0066|35=0|49=NYFXINTL40|56=RBSE40|57=ADMIN|34=635|52=20110224-03:51:10|10=076||0|
M|636|0|0|I|20110224-03:51:40.096|90|8=FIX.4.0|9=0066|35=0|49=NYFXINTL40|56=RBSE40|57=ADMIN|34=636|52=20110224-03:51:40|10=080||0|
M|637|0|0|I|20110224-03:52:10.096|90|8=FIX.4.0|9=0066|35=0|49=NYFXINTL40|56=RBSE40|57=ADMIN|34=637|52=20110224-03:52:10|10=079||0|
M|638|0|0|I|20110224-03:52:40.107|90|8=FIX.4.0|9=0066|35=0|49=NYFXINTL40|56=RBSE40|57=ADMIN|34=638|52=20110224-03:52:40|10=083||0|
M|639|0|0|I|20110224-03:53:10.095|90|8=FIX.4.0|9=0066|35=0|49=NYFXINTL40|56=RBSE40|57=ADMIN|34=639|52=20110224-03:53:10|10=082||0|
M|640|0|0|I|20110224-03:53:40.114|90|8=FIX.4.0|9=0066|35=0|49=NYFXINTL40|56=RBSE40|57=ADMIN|34=640|52=20110224-03:53:40|10=077||0|
M|641|0|0|I|20110224-03:54:10.095|90|8=FIX.4.0|9=0066|35=0|49=NYFXINTL40|56=RBSE40|57=ADMIN|34=641|52=20110224-03:54:10|10=076||0|
M|642|0|0|I|20110224-03:54:40.081|90|8=FIX.4.0|9=0066|35=0|49=NYFXINTL40|56=RBSE40|57=ADMIN|34=642|52=20110224-03:54:40|10=080||0|
M|643|0|0|I|20110224-03:55:10.052|90|8=FIX.4.0|9=0066|35=0|49=NYFXINTL40|56=RBSE40|57=ADMIN|34=643|52=20110224-03:55:10|10=079||0|
M|644|0|0|I|20110224-03:55:40.071|90|8=FIX.4.0|9=0066|35=0|49=NYFXINTL40|56=RBSE40|57=ADMIN|34=644|52=20110224-03:55:40|10=083||0|
M|645|0|0|I|20110224-03:56:10.071|90|8=FIX.4.0|9=0066|35=0|49=NYFXINTL40|56=RBSE40|57=ADMIN|34=645|52=20110224-03:56:10|10=082||0|
M|646|0|0|I|20110224-03:56:40.112|90|8=FIX.4.0|9=0066|35=0|49=NYFXINTL40|56=RBSE40|57=ADMIN|34=646|52=20110224-03:56:40|10=086||0|
M|647|0|0|I|20110224-03:57:10.099|90|8=FIX.4.0|9=0066|35=0|49=NYFXINTL40|56=RBSE40|57=ADMIN|34=647|52=20110224-03:57:10|10=085||0|
M|648|0|0|I|20110224-03:57:40.171|90|8=FIX.4.0|9=0066|35=0|49=NYFXINTL40|56=RBSE40|57=ADMIN|34=648|52=20110224-03:57:40|10=089||0|
M|649|0|0|I|20110224-03:58:10.306|90|8=FIX.4.0|9=0066|35=0|49=NYFXINTL40|56=RBSE40|57=ADMIN|34=649|52=20110224-03:58:10|10=088||0|
M|650|0|0|I|20110224-03:58:40.072|90|8=FIX.4.0|9=0066|35=0|49=NYFXINTL40|56=RBSE40|57=ADMIN|34=650|52=20110224-03:58:40|10=083||0|
M|651|0|0|I|20110224-03:59:10.145|90|8=FIX.4.0|9=0066|35=0|49=NYFXINTL40|56=RBSE40|57=ADMIN|34=651|52=20110224-03:59:10|10=082||0|
M|652|0|0|I|20110224-03:59:40.093|90|8=FIX.4.0|9=0066|35=0|49=NYFXINTL40|56=RBSE40|57=ADMIN|34=652|52=20110224-03:59:40|10=086||0|
M|653|0|0|I|20110224-04:00:10.127|90|8=FIX.4.0|9=0066|35=0|49=NYFXINTL40|56=RBSE40|57=ADMIN|34=653|52=20110224-04:00:10|10=071||0|
M|654|0|0|I|20110224-04:00:40.104|90|8=FIX.4.0|9=0066|35=0|49=NYFXINTL40|56=RBSE40|57=ADMIN|34=654|52=20110224-04:00:40|10=075||0|
M|655|0|0|I|20110224-04:01:10.101|90|8=FIX.4.0|9=0066|35=0|49=NYFXINTL40|56=RBSE40|57=ADMIN|34=655|52=20110224-04:01:10|10=074||0|
M|656|0|0|I|20110224-04:01:40.072|90|8=FIX.4.0|9=0066|35=0|49=NYFXINTL40|56=RBSE40|57=ADMIN|34=656|52=20110224-04:01:40|10=078||0|
M|657|0|0|I|20110224-04:02:10.110|90|8=FIX.4.0|9=0066|35=0|49=NYFXINTL40|56=RBSE40|57=ADMIN|34=657|52=20110224-04:02:10|10=077||0|
M|658|0|0|I|20110224-04:02:40.103|90|8=FIX.4.0|9=0066|35=0|49=NYFXINTL40|56=RBSE40|57=ADMIN|34=658|52=20110224-04:02:40|10=081||0|
M|659|0|0|I|20110224-04:03:10.088|90|8=FIX.4.0|9=0066|35=0|49=NYFXINTL40|56=RBSE40|57=ADMIN|34=659|52=20110224-04:03:10|10=080||0|
M|660|0|0|I|20110224-04:03:40.098|90|8=FIX.4.0|9=0066|35=0|49=NYFXINTL40|56=RBSE40|57=ADMIN|34=660|52=20110224-04:03:40|10=075||0|
M|661|0|0|I|20110224-04:04:10.126|90|8=FIX.4.0|9=0066|35=0|49=NYFXINTL40|56=RBSE40|57=ADMIN|34=661|52=20110224-04:04:10|10=074||0|
M|662|0|0|I|20110224-04:04:40.146|90|8=FIX.4.0|9=0066|35=0|49=NYFXINTL40|56=RBSE40|57=ADMIN|34=662|52=20110224-04:04:40|10=078||0|
M|663|0|0|I|20110224-04:05:10.088|90|8=FIX.4.0|9=0066|35=0|49=NYFXINTL40|56=RBSE40|57=ADMIN|34=663|52=20110224-04:05:10|10=077||0|
M|664|0|0|I|20110224-04:05:40.143|90|8=FIX.4.0|9=0066|35=0|49=NYFXINTL40|56=RBSE40|57=ADMIN|34=664|52=20110224-04:05:40|10=081||0|
M|665|0|0|I|20110224-04:06:10.147|90|8=FIX.4.0|9=0066|35=0|49=NYFXINTL40|56=RBSE40|57=ADMIN|34=665|52=20110224-04:06:10|10=080||0|
M|666|0|0|I|20110224-04:06:40.055|90|8=FIX.4.0|9=0066|35=0|49=NYFXINTL40|56=RBSE40|57=ADMIN|34=666|52=20110224-04:06:40|10=084||0|
M|667|0|0|I|20110224-04:07:10.072|90|8=FIX.4.0|9=0066|35=0|49=NYFXINTL40|56=RBSE40|57=ADMIN|34=667|52=20110224-04:07:10|10=083||0|
M|668|0|0|I|20110224-04:07:40.091|90|8=FIX.4.0|9=0066|35=0|49=NYFXINTL40|56=RBSE40|57=ADMIN|34=668|52=20110224-04:07:40|10=087||0|
M|669|0|0|I|20110224-04:08:10.139|90|8=FIX.4.0|9=0066|35=0|49=NYFXINTL40|56=RBSE40|57=ADMIN|34=669|52=20110224-04:08:10|10=086||0|
M|670|0|0|I|20110224-04:08:40.062|90|8=FIX.4.0|9=0066|35=0|49=NYFXINTL40|56=RBSE40|57=ADMIN|34=670|52=20110224-04:08:40|10=081||0|
M|671|0|0|I|20110224-04:09:10.160|90|8=FIX.4.0|9=0066|35=0|49=NYFXINTL40|56=RBSE40|57=ADMIN|34=671|52=20110224-04:09:10|10=080||0|
M|672|0|0|I|20110224-04:09:40.108|90|8=FIX.4.0|9=0066|35=0|49=NYFXINTL40|56=RBSE40|57=ADMIN|34=672|52=20110224-04:09:40|10=084||0|
M|673|0|0|I|20110224-04:10:10.066|90|8=FIX.4.0|9=0066|35=0|49=NYFXINTL40|56=RBSE40|57=ADMIN|34=673|52=20110224-04:10:10|10=074||0|
M|674|0|0|I|20110224-04:10:40.087|90|8=FIX.4.0|9=0066|35=0|49=NYFXINTL40|56=RBSE40|57=ADMIN|34=674|52=20110224-04:10:40|10=078||0|
M|675|0|0|I|20110224-04:11:10.099|90|8=FIX.4.0|9=0066|35=0|49=NYFXINTL40|56=RBSE40|57=ADMIN|34=675|52=20110224-04:11:10|10=077||0|
M|676|0|0|I|20110224-04:11:40.154|90|8=FIX.4.0|9=0066|35=0|49=NYFXINTL40|56=RBSE40|57=ADMIN|34=676|52=20110224-04:11:40|10=081||0|
M|677|0|0|I|20110224-04:12:10.073|90|8=FIX.4.0|9=0066|35=0|49=NYFXINTL40|56=RBSE40|57=ADMIN|34=677|52=20110224-04:12:10|10=080||0|
M|678|0|0|I|20110224-04:12:40.063|90|8=FIX.4.0|9=0066|35=0|49=NYFXINTL40|56=RBSE40|57=ADMIN|34=678|52=20110224-04:12:40|10=084||0|
M|679|0|0|I|20110224-04:13:10.153|90|8=FIX.4.0|9=0066|35=0|49=NYFXINTL40|56=RBSE40|57=ADMIN|34=679|52=20110224-04:13:10|10=083||0|
M|680|0|0|I|20110224-04:13:40.052|90|8=FIX.4.0|9=0066|35=0|49=NYFXINTL40|56=RBSE40|57=ADMIN|34=680|52=20110224-04:13:40|10=078||0|
M|681|0|0|I|20110224-04:14:10.062|90|8=FIX.4.0|9=0066|35=0|49=NYFXINTL40|56=RBSE40|57=ADMIN|34=681|52=20110224-04:14:10|10=077||0|
M|682|0|0|I|20110224-04:14:40.129|90|8=FIX.4.0|9=0066|35=0|49=NYFXINTL40|56=RBSE40|57=ADMIN|34=682|52=20110224-04:14:40|10=081||0|
M|683|0|0|I|20110224-04:15:10.067|90|8=FIX.4.0|9=0066|35=0|49=NYFXINTL40|56=RBSE40|57=ADMIN|34=683|52=20110224-04:15:10|10=080||0|
M|684|0|0|I|20110224-04:15:40.110|90|8=FIX.4.0|9=0066|35=0|49=NYFXINTL40|56=RBSE40|57=ADMIN|34=684|52=20110224-04:15:40|10=084||0|
M|685|0|0|I|20110224-04:16:10.138|90|8=FIX.4.0|9=0066|35=0|49=NYFXINTL40|56=RBSE40|57=ADMIN|34=685|52=20110224-04:16:10|10=083||0|
M|686|0|0|I|20110224-04:16:40.101|90|8=FIX.4.0|9=0066|35=0|49=NYFXINTL40|56=RBSE40|57=ADMIN|34=686|52=20110224-04:16:40|10=087||0|
M|687|0|0|I|20110224-04:17:10.110|90|8=FIX.4.0|9=0066|35=0|49=NYFXINTL40|56=RBSE40|57=ADMIN|34=687|52=20110224-04:17:10|10=086||0|
M|688|0|0|I|20110224-04:17:40.178|90|8=FIX.4.0|9=0066|35=0|49=NYFXINTL40|56=RBSE40|57=ADMIN|34=688|52=20110224-04:17:40|10=090||0|
M|689|0|0|I|20110224-04:18:10.134|90|8=FIX.4.0|9=0066|35=0|49=NYFXINTL40|56=RBSE40|57=ADMIN|34=689|52=20110224-04:18:10|10=089||0|
M|690|0|0|I|20110224-04:18:40.094|90|8=FIX.4.0|9=0066|35=0|49=NYFXINTL40|56=RBSE40|57=ADMIN|34=690|52=20110224-04:18:40|10=084||0|
M|691|0|0|I|20110224-04:19:10.277|90|8=FIX.4.0|9=0066|35=0|49=NYFXINTL40|56=RBSE40|57=ADMIN|34=691|52=20110224-04:19:10|10=083||0|
M|692|0|0|I|20110224-04:19:40.094|90|8=FIX.4.0|9=0066|35=0|49=NYFXINTL40|56=RBSE40|57=ADMIN|34=692|52=20110224-04:19:40|10=087||0|
M|693|0|0|I|20110224-04:20:10.152|90|8=FIX.4.0|9=0066|35=0|49=NYFXINTL40|56=RBSE40|57=ADMIN|34=693|52=20110224-04:20:10|10=077||0|
M|694|0|0|I|20110224-04:20:40.111|90|8=FIX.4.0|9=0066|35=0|49=NYFXINTL40|56=RBSE40|57=ADMIN|34=694|52=20110224-04:20:40|10=081||0|
M|695|0|0|I|20110224-04:21:10.120|90|8=FIX.4.0|9=0066|35=0|49=NYFXINTL40|56=RBSE40|57=ADMIN|34=695|52=20110224-04:21:10|10=080||0|
M|696|0|0|I|20110224-04:21:40.108|90|8=FIX.4.0|9=0066|35=0|49=NYFXINTL40|56=RBSE40|57=ADMIN|34=696|52=20110224-04:21:40|10=084||0|
M|697|0|0|I|20110224-04:22:10.087|90|8=FIX.4.0|9=0066|35=0|49=NYFXINTL40|56=RBSE40|57=ADMIN|34=697|52=20110224-04:22:10|10=083||0|
M|698|0|0|I|20110224-04:22:40.058|90|8=FIX.4.0|9=0066|35=0|49=NYFXINTL40|56=RBSE40|57=ADMIN|34=698|52=20110224-04:22:40|10=087||0|
M|699|0|0|I|20110224-04:23:10.068|90|8=FIX.4.0|9=0066|35=0|49=NYFXINTL40|56=RBSE40|57=ADMIN|34=699|52=20110224-04:23:10|10=086||0|
M|700|0|0|I|20110224-04:23:40.157|90|8=FIX.4.0|9=0066|35=0|49=NYFXINTL40|56=RBSE40|57=ADMIN|34=700|52=20110224-04:23:40|10=072||0|
M|701|0|0|I|20110224-04:24:10.136|90|8=FIX.4.0|9=0066|35=0|49=NYFXINTL40|56=RBSE40|57=ADMIN|34=701|52=20110224-04:24:10|10=071||0|
M|702|0|0|I|20110224-04:24:40.074|90|8=FIX.4.0|9=0066|35=0|49=NYFXINTL40|56=RBSE40|57=ADMIN|34=702|52=20110224-04:24:40|10=075||0|
M|703|0|0|I|20110224-04:25:10.124|90|8=FIX.4.0|9=0066|35=0|49=NYFXINTL40|56=RBSE40|57=ADMIN|34=703|52=20110224-04:25:10|10=074||0|
M|704|0|0|I|20110224-04:25:40.098|90|8=FIX.4.0|9=0066|35=0|49=NYFXINTL40|56=RBSE40|57=ADMIN|34=704|52=20110224-04:25:40|10=078||0|
M|705|0|0|I|20110224-04:26:10.061|90|8=FIX.4.0|9=0066|35=0|49=NYFXINTL40|56=RBSE40|57=ADMIN|34=705|52=20110224-04:26:10|10=077||0|
M|706|0|0|I|20110224-04:26:40.152|90|8=FIX.4.0|9=0066|35=0|49=NYFXINTL40|56=RBSE40|57=ADMIN|34=706|52=20110224-04:26:40|10=081||0|
M|707|0|0|I|20110224-04:27:10.120|90|8=FIX.4.0|9=0066|35=0|49=NYFXINTL40|56=RBSE40|57=ADMIN|34=707|52=20110224-04:27:10|10=080||0|
M|708|0|0|I|20110224-04:27:40.150|90|8=FIX.4.0|9=0066|35=0|49=NYFXINTL40|56=RBSE40|57=ADMIN|34=708|52=20110224-04:27:40|10=084||0|
M|709|0|0|I|20110224-04:28:10.140|90|8=FIX.4.0|9=0066|35=0|49=NYFXINTL40|56=RBSE40|57=ADMIN|34=709|52=20110224-04:28:10|10=083||0|
M|710|0|0|I|20110224-04:28:40.077|90|8=FIX.4.0|9=0066|35=0|49=NYFXINTL40|56=RBSE40|57=ADMIN|34=710|52=20110224-04:28:40|10=078||0|
M|711|0|0|I|20110224-04:29:10.097|90|8=FIX.4.0|9=0066|35=0|49=NYFXINTL40|56=RBSE40|57=ADMIN|34=711|52=20110224-04:29:10|10=077||0|
M|712|0|0|I|20110224-04:29:40.058|90|8=FIX.4.0|9=0066|35=0|49=NYFXINTL40|56=RBSE40|57=ADMIN|34=712|52=20110224-04:29:40|10=081||0|
M|713|0|0|I|20110224-04:30:10.108|90|8=FIX.4.0|9=0066|35=0|49=NYFXINTL40|56=RBSE40|57=ADMIN|34=713|52=20110224-04:30:10|10=071||0|
M|714|0|0|I|20110224-04:30:40.129|90|8=FIX.4.0|9=0066|35=0|49=NYFXINTL40|56=RBSE40|57=ADMIN|34=714|52=20110224-04:30:40|10=075||0|
M|715|0|0|I|20110224-04:31:10.164|90|8=FIX.4.0|9=0066|35=0|49=NYFXINTL40|56=RBSE40|57=ADMIN|34=715|52=20110224-04:31:10|10=074||0|
M|716|0|0|I|20110224-04:31:40.123|90|8=FIX.4.0|9=0066|35=0|49=NYFXINTL40|56=RBSE40|57=ADMIN|34=716|52=20110224-04:31:40|10=078||0|
M|717|0|0|I|20110224-04:32:10.084|90|8=FIX.4.0|9=0066|35=0|49=NYFXINTL40|56=RBSE40|57=ADMIN|34=717|52=20110224-04:32:10|10=077||0|
M|718|0|0|I|20110224-04:32:40.113|90|8=FIX.4.0|9=0066|35=0|49=NYFXINTL40|56=RBSE40|57=ADMIN|34=718|52=20110224-04:32:40|10=081||0|
M|719|0|0|I|20110224-04:33:10.103|90|8=FIX.4.0|9=0066|35=0|49=NYFXINTL40|56=RBSE40|57=ADMIN|34=719|52=20110224-04:33:10|10=080||0|
M|720|0|0|I|20110224-04:33:40.134|90|8=FIX.4.0|9=0066|35=0|49=NYFXINTL40|56=RBSE40|57=ADMIN|34=720|52=20110224-04:33:40|10=075||0|
M|721|0|0|I|20110224-04:34:10.140|90|8=FIX.4.0|9=0066|35=0|49=NYFXINTL40|56=RBSE40|57=ADMIN|34=721|52=20110224-04:34:10|10=074||0|
M|722|0|0|I|20110224-04:34:40.078|90|8=FIX.4.0|9=0066|35=0|49=NYFXINTL40|56=RBSE40|57=ADMIN|34=722|52=20110224-04:34:40|10=078||0|
M|723|0|0|I|20110224-04:35:10.099|90|8=FIX.4.0|9=0066|35=0|49=NYFXINTL40|56=RBSE40|57=ADMIN|34=723|52=20110224-04:35:10|10=077||0|
M|724|0|0|I|20110224-04:35:40.087|90|8=FIX.4.0|9=0066|35=0|49=NYFXINTL40|56=RBSE40|57=ADMIN|34=724|52=20110224-04:35:40|10=081||0|
M|725|0|0|I|20110224-04:36:10.132|90|8=FIX.4.0|9=0066|35=0|49=NYFXINTL40|56=RBSE40|57=ADMIN|34=725|52=20110224-04:36:10|10=080||0|
M|726|0|0|I|20110224-04:36:40.091|90|8=FIX.4.0|9=0066|35=0|49=NYFXINTL40|56=RBSE40|57=ADMIN|34=726|52=20110224-04:36:40|10=084||0|
M|727|0|0|I|20110224-04:37:10.076|90|8=FIX.4.0|9=0066|35=0|49=NYFXINTL40|56=RBSE40|57=ADMIN|34=727|52=20110224-04:37:10|10=083||0|
M|728|0|0|I|20110224-04:37:40.095|90|8=FIX.4.0|9=0066|35=0|49=NYFXINTL40|56=RBSE40|57=ADMIN|34=728|52=20110224-04:37:40|10=087||0|
M|729|0|0|I|20110224-04:38:10.072|90|8=FIX.4.0|9=0066|35=0|49=NYFXINTL40|56=RBSE40|57=ADMIN|34=729|52=20110224-04:38:10|10=086||0|
M|730|0|0|I|20110224-04:38:40.074|90|8=FIX.4.0|9=0066|35=0|49=NYFXINTL40|56=RBSE40|57=ADMIN|34=730|52=20110224-04:38:40|10=081||0|
M|731|0|0|I|20110224-04:39:10.094|90|8=FIX.4.0|9=0066|35=0|49=NYFXINTL40|56=RBSE40|57=ADMIN|34=731|52=20110224-04:39:10|10=080||0|
M|732|0|0|I|20110224-04:39:40.121|90|8=FIX.4.0|9=0066|35=0|49=NYFXINTL40|56=RBSE40|57=ADMIN|34=732|52=20110224-04:39:40|10=084||0|
M|733|0|0|I|20110224-04:40:10.107|90|8=FIX.4.0|9=0066|35=0|49=NYFXINTL40|56=RBSE40|57=ADMIN|34=733|52=20110224-04:40:10|10=074||0|
M|734|0|0|I|20110224-04:40:40.065|90|8=FIX.4.0|9=0066|35=0|49=NYFXINTL40|56=RBSE40|57=ADMIN|34=734|52=20110224-04:40:40|10=078||0|
M|735|0|0|I|20110224-04:41:10.109|90|8=FIX.4.0|9=0066|35=0|49=NYFXINTL40|56=RBSE40|57=ADMIN|34=735|52=20110224-04:41:10|10=077||0|
M|736|0|0|I|20110224-04:41:40.121|90|8=FIX.4.0|9=0066|35=0|49=NYFXINTL40|56=RBSE40|57=ADMIN|34=736|52=20110224-04:41:40|10=081||0|
M|737|0|0|I|20110224-04:42:10.119|90|8=FIX.4.0|9=0066|35=0|49=NYFXINTL40|56=RBSE40|57=ADMIN|34=737|52=20110224-04:42:10|10=080||0|
M|738|0|0|I|20110224-04:42:40.106|90|8=FIX.4.0|9=0066|35=0|49=NYFXINTL40|56=RBSE40|57=ADMIN|34=738|52=20110224-04:42:40|10=084||0|
M|739|0|0|I|20110224-04:43:10.100|90|8=FIX.4.0|9=0066|35=0|49=NYFXINTL40|56=RBSE40|57=ADMIN|34=739|52=20110224-04:43:10|10=083||0|
M|740|0|0|I|20110224-04:43:40.067|90|8=FIX.4.0|9=0066|35=0|49=NYFXINTL40|56=RBSE40|57=ADMIN|34=740|52=20110224-04:43:40|10=078||0|
M|741|0|0|I|20110224-04:44:10.133|90|8=FIX.4.0|9=0066|35=0|49=NYFXINTL40|56=RBSE40|57=ADMIN|34=741|52=20110224-04:44:10|10=077||0|
M|742|0|0|I|20110224-04:44:40.154|90|8=FIX.4.0|9=0066|35=0|49=NYFXINTL40|56=RBSE40|57=ADMIN|34=742|52=20110224-04:44:40|10=081||0|
M|743|0|0|I|20110224-04:45:10.129|90|8=FIX.4.0|9=0066|35=0|49=NYFXINTL40|56=RBSE40|57=ADMIN|34=743|52=20110224-04:45:10|10=080||0|
M|744|0|0|I|20110224-04:45:40.061|90|8=FIX.4.0|9=0066|35=0|49=NYFXINTL40|56=RBSE40|57=ADMIN|34=744|52=20110224-04:45:40|10=084||0|
M|745|0|0|I|20110224-04:46:10.118|90|8=FIX.4.0|9=0066|35=0|49=NYFXINTL40|56=RBSE40|57=ADMIN|34=745|52=20110224-04:46:10|10=083||0|
M|746|0|0|I|20110224-04:46:40.098|90|8=FIX.4.0|9=0066|35=0|49=NYFXINTL40|56=RBSE40|57=ADMIN|34=746|52=20110224-04:46:40|10=087||0|
M|747|0|0|I|20110224-04:47:10.060|90|8=FIX.4.0|9=0066|35=0|49=NYFXINTL40|56=RBSE40|57=ADMIN|34=747|52=20110224-04:47:10|10=086||0|
M|748|0|0|I|20110224-04:47:40.108|90|8=FIX.4.0|9=0066|35=0|49=NYFXINTL40|56=RBSE40|57=ADMIN|34=748|52=20110224-04:47:40|10=090||0|
M|749|0|0|I|20110224-04:48:10.146|90|8=FIX.4.0|9=0066|35=0|49=NYFXINTL40|56=RBSE40|57=ADMIN|34=749|52=20110224-04:48:10|10=089||0|
M|750|0|0|I|20110224-04:48:40.146|90|8=FIX.4.0|9=0066|35=0|49=NYFXINTL40|56=RBSE40|57=ADMIN|34=750|52=20110224-04:48:40|10=084||0|
M|751|0|0|I|20110224-04:49:10.090|90|8=FIX.4.0|9=0066|35=0|49=NYFXINTL40|56=RBSE40|57=ADMIN|34=751|52=20110224-04:49:10|10=083||0|
M|752|0|0|I|20110224-04:49:40.134|90|8=FIX.4.0|9=0066|35=0|49=NYFXINTL40|56=RBSE40|57=ADMIN|34=752|52=20110224-04:49:40|10=087||0|
M|753|0|0|I|20110224-04:50:10.065|90|8=FIX.4.0|9=0066|35=0|49=NYFXINTL40|56=RBSE40|57=ADMIN|34=753|52=20110224-04:50:10|10=077||0|
M|754|0|0|I|20110224-04:50:40.112|90|8=FIX.4.0|9=0066|35=0|49=NYFXINTL40|56=RBSE40|57=ADMIN|34=754|52=20110224-04:50:40|10=081||0|
M|755|0|0|I|20110224-04:51:10.096|90|8=FIX.4.0|9=0066|35=0|49=NYFXINTL40|56=RBSE40|57=ADMIN|34=755|52=20110224-04:51:10|10=080||0|
M|756|0|0|I|20110224-04:51:40.070|90|8=FIX.4.0|9=0066|35=0|49=NYFXINTL40|56=RBSE40|57=ADMIN|34=756|52=20110224-04:51:40|10=084||0|
M|757|0|0|I|20110224-04:52:10.083|90|8=FIX.4.0|9=0066|35=0|49=NYFXINTL40|56=RBSE40|57=ADMIN|34=757|52=20110224-04:52:10|10=083||0|
