V|1.1|
M|1|0|A|I|20110223-22:35:03.274|89|8=FIX.4.0|9=67|35=A|34=1|49=RBSE40|56=NYFXINTL40|52=20110223-22:35:03|108=30|98=0|10=155||0|
M|2|0|1|I|20110223-22:35:03.275|88|8=FIX.4.0|9=66|35=1|34=2|49=RBSE40|56=NYFXINTL40|52=20110223-22:35:03|112=STBL-2|10=216||0|
M|3|0|0|I|20110223-22:35:33.514|77|8=FIX.4.0|9=55|35=0|34=3|49=RBSE40|56=NYFXINTL40|52=20110223-22:35:33|10=115||0|
M|4|0|0|I|20110223-22:36:03.592|77|8=FIX.4.0|9=55|35=0|34=4|49=RBSE40|56=NYFXINTL40|52=20110223-22:36:03|10=114||0|
M|5|0|0|I|20110223-22:36:33.671|77|8=FIX.4.0|9=55|35=0|34=5|49=RBSE40|56=NYFXINTL40|52=20110223-22:36:33|10=118||0|
M|6|0|0|I|20110223-22:37:03.750|77|8=FIX.4.0|9=55|35=0|34=6|49=RBSE40|56=NYFXINTL40|52=20110223-22:37:03|10=117||0|
M|7|0|0|I|20110223-22:37:33.808|77|8=FIX.4.0|9=55|35=0|34=7|49=RBSE40|56=NYFXINTL40|52=20110223-22:37:33|10=121||0|
M|8|0|0|I|20110223-22:38:03.887|77|8=FIX.4.0|9=55|35=0|34=8|49=RBSE40|56=NYFXINTL40|52=20110223-22:38:03|10=120||0|
M|9|0|0|I|20110223-22:38:33.946|77|8=FIX.4.0|9=55|35=0|34=9|49=RBSE40|56=NYFXINTL40|52=20110223-22:38:33|10=124||0|
M|10|0|0|I|20110223-22:39:04.005|78|8=FIX.4.0|9=56|35=0|34=10|49=RBSE40|56=NYFXINTL40|52=20110223-22:39:04|10=164||0|
M|11|0|0|I|20110223-22:39:34.043|78|8=FIX.4.0|9=56|35=0|34=11|49=RBSE40|56=NYFXINTL40|52=20110223-22:39:34|10=168||0|
M|12|0|0|I|20110223-22:40:04.102|78|8=FIX.4.0|9=56|35=0|34=12|49=RBSE40|56=NYFXINTL40|52=20110223-22:40:04|10=158||0|
M|13|0|0|I|20110223-22:40:34.181|78|8=FIX.4.0|9=56|35=0|34=13|49=RBSE40|56=NYFXINTL40|52=20110223-22:40:34|10=162||0|
M|14|0|0|I|20110223-22:41:04.249|78|8=FIX.4.0|9=56|35=0|34=14|49=RBSE40|56=NYFXINTL40|52=20110223-22:41:04|10=161||0|
M|15|0|0|I|20110223-22:41:34.318|78|8=FIX.4.0|9=56|35=0|34=15|49=RBSE40|56=NYFXINTL40|52=20110223-22:41:34|10=165||0|
M|16|0|0|I|20110223-22:42:04.387|78|8=FIX.4.0|9=56|35=0|34=16|49=RBSE40|56=NYFXINTL40|52=20110223-22:42:04|10=164||0|
M|17|0|0|I|20110223-22:42:34.465|78|8=FIX.4.0|9=56|35=0|34=17|49=RBSE40|56=NYFXINTL40|52=20110223-22:42:34|10=168||0|
M|18|0|0|I|20110223-22:43:04.544|78|8=FIX.4.0|9=56|35=0|34=18|49=RBSE40|56=NYFXINTL40|52=20110223-22:43:04|10=167||0|
M|19|0|0|I|20110223-22:43:34.583|78|8=FIX.4.0|9=56|35=0|34=19|49=RBSE40|56=NYFXINTL40|52=20110223-22:43:34|10=171||0|
M|20|0|0|I|20110223-22:44:04.631|78|8=FIX.4.0|9=56|35=0|34=20|49=RBSE40|56=NYFXINTL40|52=20110223-22:44:04|10=161||0|
M|21|0|0|I|20110223-22:44:34.710|78|8=FIX.4.0|9=56|35=0|34=21|49=RBSE40|56=NYFXINTL40|52=20110223-22:44:34|10=165||0|
M|22|0|0|I|20110223-22:45:04.789|78|8=FIX.4.0|9=56|35=0|34=22|49=RBSE40|56=NYFXINTL40|52=20110223-22:45:04|10=164||0|
M|23|0|0|I|20110223-22:45:34.857|78|8=FIX.4.0|9=56|35=0|34=23|49=RBSE40|56=NYFXINTL40|52=20110223-22:45:34|10=168||0|
M|24|0|0|I|20110223-22:46:04.916|78|8=FIX.4.0|9=56|35=0|34=24|49=RBSE40|56=NYFXINTL40|52=20110223-22:46:04|10=167||0|
M|25|0|0|I|20110223-22:46:35.005|78|8=FIX.4.0|9=56|35=0|34=25|49=RBSE40|56=NYFXINTL40|52=20110223-22:46:35|10=172||0|
M|26|0|0|I|20110223-22:47:05.073|78|8=FIX.4.0|9=56|35=0|34=26|49=RBSE40|56=NYFXINTL40|52=20110223-22:47:05|10=171||0|
M|27|0|0|I|20110223-22:47:35.152|78|8=FIX.4.0|9=56|35=0|34=27|49=RBSE40|56=NYFXINTL40|52=20110223-22:47:35|10=175||0|
M|28|0|0|I|20110223-22:48:05.181|78|8=FIX.4.0|9=56|35=0|34=28|49=RBSE40|56=NYFXINTL40|52=20110223-22:48:05|10=174||0|
M|29|0|0|I|20110223-22:48:35.249|78|8=FIX.4.0|9=56|35=0|34=29|49=RBSE40|56=NYFXINTL40|52=20110223-22:48:35|10=178||0|
M|30|0|0|I|20110223-22:49:05.328|78|8=FIX.4.0|9=56|35=0|34=30|49=RBSE40|56=NYFXINTL40|52=20110223-22:49:05|10=168||0|
M|31|0|0|I|20110223-22:49:35.397|78|8=FIX.4.0|9=56|35=0|34=31|49=RBSE40|56=NYFXINTL40|52=20110223-22:49:35|10=172||0|
M|32|0|0|I|20110223-22:50:05.485|78|8=FIX.4.0|9=56|35=0|34=32|49=RBSE40|56=NYFXINTL40|52=20110223-22:50:05|10=162||0|
M|33|0|0|I|20110223-22:50:35.524|78|8=FIX.4.0|9=56|35=0|34=33|49=RBSE40|56=NYFXINTL40|52=20110223-22:50:35|10=166||0|
M|34|0|0|I|20110223-22:51:05.593|78|8=FIX.4.0|9=56|35=0|34=34|49=RBSE40|56=NYFXINTL40|52=20110223-22:51:05|10=165||0|
M|35|0|0|I|20110223-22:51:35.671|78|8=FIX.4.0|9=56|35=0|34=35|49=RBSE40|56=NYFXINTL40|52=20110223-22:51:35|10=169||0|
M|36|0|0|I|20110223-22:52:05.750|78|8=FIX.4.0|9=56|35=0|34=36|49=RBSE40|56=NYFXINTL40|52=20110223-22:52:05|10=168||0|
M|37|0|0|I|20110223-22:52:35.829|78|8=FIX.4.0|9=56|35=0|34=37|49=RBSE40|56=NYFXINTL40|52=20110223-22:52:35|10=172||0|
M|38|0|0|I|20110223-22:53:05.897|78|8=FIX.4.0|9=56|35=0|34=38|49=RBSE40|56=NYFXINTL40|52=20110223-22:53:05|10=171||0|
M|39|0|0|I|20110223-22:53:35.966|78|8=FIX.4.0|9=56|35=0|34=39|49=RBSE40|56=NYFXINTL40|52=20110223-22:53:35|10=175||0|
M|40|0|0|I|20110223-22:54:06.025|78|8=FIX.4.0|9=56|35=0|34=40|49=RBSE40|56=NYFXINTL40|52=20110223-22:54:06|10=166||0|
M|41|0|0|I|20110223-22:54:36.084|78|8=FIX.4.0|9=56|35=0|34=41|49=RBSE40|56=NYFXINTL40|52=20110223-22:54:36|10=170||0|
M|42|0|0|I|20110223-22:55:06.172|78|8=FIX.4.0|9=56|35=0|34=42|49=RBSE40|56=NYFXINTL40|52=20110223-22:55:06|10=169||0|
M|43|0|0|I|20110223-22:55:36.231|78|8=FIX.4.0|9=56|35=0|34=43|49=RBSE40|56=NYFXINTL40|52=20110223-22:55:36|10=173||0|
M|44|0|0|I|20110223-22:56:06.310|78|8=FIX.4.0|9=56|35=0|34=44|49=RBSE40|56=NYFXINTL40|52=20110223-22:56:06|10=172||0|
M|45|0|0|I|20110223-22:56:36.378|78|8=FIX.4.0|9=56|35=0|34=45|49=RBSE40|56=NYFXINTL40|52=20110223-22:56:36|10=176||0|
M|46|0|0|I|20110223-22:57:06.447|78|8=FIX.4.0|9=56|35=0|34=46|49=RBSE40|56=NYFXINTL40|52=20110223-22:57:06|10=175||0|
M|47|0|0|I|20110223-22:57:36.526|78|8=FIX.4.0|9=56|35=0|34=47|49=RBSE40|56=NYFXINTL40|52=20110223-22:57:36|10=179||0|
M|48|0|0|I|20110223-22:58:06.574|78|8=FIX.4.0|9=56|35=0|34=48|49=RBSE40|56=NYFXINTL40|52=20110223-22:58:06|10=178||0|
M|49|0|0|I|20110223-22:58:36.613|78|8=FIX.4.0|9=56|35=0|34=49|49=RBSE40|56=NYFXINTL40|52=20110223-22:58:36|10=182||0|
M|50|0|0|I|20110223-22:59:06.692|78|8=FIX.4.0|9=56|35=0|34=50|49=RBSE40|56=NYFXINTL40|52=20110223-22:59:06|10=172||0|
M|51|0|0|I|20110223-22:59:36.770|78|8=FIX.4.0|9=56|35=0|34=51|49=RBSE40|56=NYFXINTL40|52=20110223-22:59:36|10=176||0|
M|52|0|0|I|20110223-23:00:06.849|78|8=FIX.4.0|9=56|35=0|34=52|49=RBSE40|56=NYFXINTL40|52=20110223-23:00:06|10=161||0|
M|53|0|0|I|20110223-23:00:36.918|78|8=FIX.4.0|9=56|35=0|34=53|49=RBSE40|56=NYFXINTL40|52=20110223-23:00:36|10=165||0|
M|54|0|0|I|20110223-23:01:06.986|78|8=FIX.4.0|9=56|35=0|34=54|49=RBSE40|56=NYFXINTL40|52=20110223-23:01:06|10=164||0|
M|55|0|0|I|20110223-23:01:37.065|78|8=FIX.4.0|9=56|35=0|34=55|49=RBSE40|56=NYFXINTL40|52=20110223-23:01:37|10=169||0|
M|56|0|0|I|20110223-23:02:07.134|78|8=FIX.4.0|9=56|35=0|34=56|49=RBSE40|56=NYFXINTL40|52=20110223-23:02:07|10=168||0|
M|57|0|0|I|20110223-23:02:37.212|78|8=FIX.4.0|9=56|35=0|34=57|49=RBSE40|56=NYFXINTL40|52=20110223-23:02:37|10=172||0|
M|58|0|0|I|20110223-23:03:07.281|78|8=FIX.4.0|9=56|35=0|34=58|49=RBSE40|56=NYFXINTL40|52=20110223-23:03:07|10=171||0|
M|59|0|0|I|20110223-23:03:37.350|78|8=FIX.4.0|9=56|35=0|34=59|49=RBSE40|56=NYFXINTL40|52=20110223-23:03:37|10=175||0|
M|60|0|0|I|20110223-23:04:07.368|78|8=FIX.4.0|9=56|35=0|34=60|49=RBSE40|56=NYFXINTL40|52=20110223-23:04:07|10=165||0|
M|61|0|0|I|20110223-23:04:37.427|78|8=FIX.4.0|9=56|35=0|34=61|49=RBSE40|56=NYFXINTL40|52=20110223-23:04:37|10=169||0|
M|62|0|0|I|20110223-23:05:07.506|78|8=FIX.4.0|9=56|35=0|34=62|49=RBSE40|56=NYFXINTL40|52=20110223-23:05:07|10=168||0|
M|63|0|0|I|20110223-23:05:37.574|78|8=FIX.4.0|9=56|35=0|34=63|49=RBSE40|56=NYFXINTL40|52=20110223-23:05:37|10=172||0|
M|64|0|0|I|20110223-23:06:07.653|78|8=FIX.4.0|9=56|35=0|34=64|49=RBSE40|56=NYFXINTL40|52=20110223-23:06:07|10=171||0|
M|65|0|0|I|20110223-23:06:37.732|78|8=FIX.4.0|9=56|35=0|34=65|49=RBSE40|56=NYFXINTL40|52=20110223-23:06:37|10=175||0|
M|66|0|0|I|20110223-23:07:07.810|78|8=FIX.4.0|9=56|35=0|34=66|49=RBSE40|56=NYFXINTL40|52=20110223-23:07:07|10=174||0|
M|67|0|0|I|20110223-23:07:37.889|78|8=FIX.4.0|9=56|35=0|34=67|49=RBSE40|56=NYFXINTL40|52=20110223-23:07:37|10=178||0|
M|68|0|0|I|20110223-23:08:07.928|78|8=FIX.4.0|9=56|35=0|34=68|49=RBSE40|56=NYFXINTL40|52=20110223-23:08:07|10=177||0|
M|69|0|0|I|20110223-23:08:37.987|78|8=FIX.4.0|9=56|35=0|34=69|49=RBSE40|56=NYFXINTL40|52=20110223-23:08:37|10=181||0|
M|70|0|0|I|20110223-23:09:08.055|78|8=FIX.4.0|9=56|35=0|34=70|49=RBSE40|56=NYFXINTL40|52=20110223-23:09:08|10=172||0|
M|71|0|0|I|20110223-23:09:38.134|78|8=FIX.4.0|9=56|35=0|34=71|49=RBSE40|56=NYFXINTL40|52=20110223-23:09:38|10=176||0|
M|72|0|0|I|20110223-23:10:08.193|78|8=FIX.4.0|9=56|35=0|34=72|49=RBSE40|56=NYFXINTL40|52=20110223-23:10:08|10=166||0|
M|73|0|0|I|20110223-23:10:38.271|78|8=FIX.4.0|9=56|35=0|34=73|49=RBSE40|56=NYFXINTL40|52=20110223-23:10:38|10=170||0|
M|74|0|0|I|20110223-23:11:08.350|78|8=FIX.4.0|9=56|35=0|34=74|49=RBSE40|56=NYFXINTL40|52=20110223-23:11:08|10=169||0|
M|75|0|0|I|20110223-23:11:38.429|78|8=FIX.4.0|9=56|35=0|34=75|49=RBSE40|56=NYFXINTL40|52=20110223-23:11:38|10=173||0|
M|76|0|0|I|20110223-23:12:08.507|78|8=FIX.4.0|9=56|35=0|34=76|49=RBSE40|56=NYFXINTL40|52=20110223-23:12:08|10=172||0|
M|77|0|0|I|20110223-23:12:38.576|78|8=FIX.4.0|9=56|35=0|34=77|49=RBSE40|56=NYFXINTL40|52=20110223-23:12:38|10=176||0|
M|78|0|0|I|20110223-23:13:08.645|78|8=FIX.4.0|9=56|35=0|34=78|49=RBSE40|56=NYFXINTL40|52=20110223-23:13:08|10=175||0|
M|79|0|0|I|20110223-23:13:38.724|78|8=FIX.4.0|9=56|35=0|34=79|49=RBSE40|56=NYFXINTL40|52=20110223-23:13:38|10=179||0|
M|80|0|0|I|20110223-23:14:08.812|78|8=FIX.4.0|9=56|35=0|34=80|49=RBSE40|56=NYFXINTL40|52=20110223-23:14:08|10=169||0|
M|81|0|0|I|20110223-23:14:38.871|78|8=FIX.4.0|9=56|35=0|34=81|49=RBSE40|56=NYFXINTL40|52=20110223-23:14:38|10=173||0|
M|82|0|0|I|20110223-23:15:08.920|78|8=FIX.4.0|9=56|35=0|34=82|49=RBSE40|56=NYFXINTL40|52=20110223-23:15:08|10=172||0|
M|83|0|0|I|20110223-23:15:38.978|78|8=FIX.4.0|9=56|35=0|34=83|49=RBSE40|56=NYFXINTL40|52=20110223-23:15:38|10=176||0|
M|84|0|0|I|20110223-23:16:09.017|78|8=FIX.4.0|9=56|35=0|34=84|49=RBSE40|56=NYFXINTL40|52=20110223-23:16:09|10=176||0|
M|85|0|0|I|20110223-23:16:39.076|78|8=FIX.4.0|9=56|35=0|34=85|49=RBSE40|56=NYFXINTL40|52=20110223-23:16:39|10=180||0|
M|86|0|0|I|20110223-23:17:09.154|78|8=FIX.4.0|9=56|35=0|34=86|49=RBSE40|56=NYFXINTL40|52=20110223-23:17:09|10=179||0|
M|87|0|0|I|20110223-23:17:39.223|78|8=FIX.4.0|9=56|35=0|34=87|49=RBSE40|56=NYFXINTL40|52=20110223-23:17:39|10=183||0|
M|88|0|0|I|20110223-23:18:09.282|78|8=FIX.4.0|9=56|35=0|34=88|49=RBSE40|56=NYFXINTL40|52=20110223-23:18:09|10=182||0|
M|89|0|0|I|20110223-23:18:39.340|78|8=FIX.4.0|9=56|35=0|34=89|49=RBSE40|56=NYFXINTL40|52=20110223-23:18:39|10=186||0|
M|90|0|0|I|20110223-23:19:09.389|78|8=FIX.4.0|9=56|35=0|34=90|49=RBSE40|56=NYFXINTL40|52=20110223-23:19:09|10=176||0|
M|91|0|0|I|20110223-23:19:39.448|78|8=FIX.4.0|9=56|35=0|34=91|49=RBSE40|56=NYFXINTL40|52=20110223-23:19:39|10=180||0|
M|92|0|0|I|20110223-23:20:09.516|78|8=FIX.4.0|9=56|35=0|34=92|49=RBSE40|56=NYFXINTL40|52=20110223-23:20:09|10=170||0|
M|93|0|0|I|20110223-23:20:39.595|78|8=FIX.4.0|9=56|35=0|34=93|49=RBSE40|56=NYFXINTL40|52=20110223-23:20:39|10=174||0|
M|94|0|0|I|20110223-23:21:09.674|78|8=FIX.4.0|9=56|35=0|34=94|49=RBSE40|56=NYFXINTL40|52=20110223-23:21:09|10=173||0|
M|95|0|0|I|20110223-23:21:39.752|78|8=FIX.4.0|9=56|35=0|34=95|49=RBSE40|56=NYFXINTL40|52=20110223-23:21:39|10=177||0|
M|96|0|0|I|20110223-23:22:09.811|78|8=FIX.4.0|9=56|35=0|34=96|49=RBSE40|56=NYFXINTL40|52=20110223-23:22:09|10=176||0|
M|97|0|0|I|20110223-23:22:39.890|78|8=FIX.4.0|9=56|35=0|34=97|49=RBSE40|56=NYFXINTL40|52=20110223-23:22:39|10=180||0|
M|98|0|0|I|20110223-23:23:09.978|78|8=FIX.4.0|9=56|35=0|34=98|49=RBSE40|56=NYFXINTL40|52=20110223-23:23:09|10=179||0|
M|99|0|0|I|20110223-23:23:40.057|78|8=FIX.4.0|9=56|35=0|34=99|49=RBSE40|56=NYFXINTL40|52=20110223-23:23:40|10=175||0|
M|100|0|0|I|20110223-23:24:10.136|79|8=FIX.4.0|9=57|35=0|34=100|49=RBSE40|56=NYFXINTL40|52=20110223-23:24:10|10=205||0|
M|101|0|0|I|20110223-23:24:40.194|79|8=FIX.4.0|9=57|35=0|34=101|49=RBSE40|56=NYFXINTL40|52=20110223-23:24:40|10=209||0|
M|102|0|0|I|20110223-23:25:10.263|79|8=FIX.4.0|9=57|35=0|34=102|49=RBSE40|56=NYFXINTL40|52=20110223-23:25:10|10=208||0|
M|103|0|0|I|20110223-23:25:40.342|79|8=FIX.4.0|9=57|35=0|34=103|49=RBSE40|56=NYFXINTL40|52=20110223-23:25:40|10=212||0|
M|104|0|0|I|20110223-23:26:10.431|79|8=FIX.4.0|9=57|35=0|34=104|49=RBSE40|56=NYFXINTL40|52=20110223-23:26:10|10=211||0|
M|105|0|0|I|20110223-23:26:40.519|79|8=FIX.4.0|9=57|35=0|34=105|49=RBSE40|56=NYFXINTL40|52=20110223-23:26:40|10=215||0|
M|106|0|0|I|20110223-23:27:10.598|79|8=FIX.4.0|9=57|35=0|34=106|49=RBSE40|56=NYFXINTL40|52=20110223-23:27:10|10=214||0|
M|107|0|0|I|20110223-23:27:40.657|79|8=FIX.4.0|9=57|35=0|34=107|49=RBSE40|56=NYFXINTL40|52=20110223-23:27:40|10=218||0|
M|108|0|0|I|20110223-23:28:10.735|79|8=FIX.4.0|9=57|35=0|34=108|49=RBSE40|56=NYFXINTL40|52=20110223-23:28:10|10=217||0|
M|109|0|0|I|20110223-23:28:40.804|79|8=FIX.4.0|9=57|35=0|34=109|49=RBSE40|56=NYFXINTL40|52=20110223-23:28:40|10=221||0|
M|110|0|0|I|20110223-23:29:10.893|79|8=FIX.4.0|9=57|35=0|34=110|49=RBSE40|56=NYFXINTL40|52=20110223-23:29:10|10=211||0|
M|111|0|0|I|20110223-23:29:40.951|79|8=FIX.4.0|9=57|35=0|34=111|49=RBSE40|56=NYFXINTL40|52=20110223-23:29:40|10=215||0|
M|112|0|0|I|20110223-23:30:11.020|79|8=FIX.4.0|9=57|35=0|34=112|49=RBSE40|56=NYFXINTL40|52=20110223-23:30:11|10=206||0|
M|113|0|0|I|20110223-23:30:41.089|79|8=FIX.4.0|9=57|35=0|34=113|49=RBSE40|56=NYFXINTL40|52=20110223-23:30:41|10=210||0|
M|114|0|0|I|20110223-23:31:11.168|79|8=FIX.4.0|9=57|35=0|34=114|49=RBSE40|56=NYFXINTL40|52=20110223-23:31:11|10=209||0|
M|115|0|0|I|20110223-23:31:41.246|79|8=FIX.4.0|9=57|35=0|34=115|49=RBSE40|56=NYFXINTL40|52=20110223-23:31:41|10=213||0|
M|116|0|0|I|20110223-23:32:11.275|79|8=FIX.4.0|9=57|35=0|34=116|49=RBSE40|56=NYFXINTL40|52=20110223-23:32:11|10=212||0|
M|117|0|0|I|20110223-23:32:41.344|79|8=FIX.4.0|9=57|35=0|34=117|49=RBSE40|56=NYFXINTL40|52=20110223-23:32:41|10=216||0|
M|118|0|0|I|20110223-23:33:11.422|79|8=FIX.4.0|9=57|35=0|34=118|49=RBSE40|56=NYFXINTL40|52=20110223-23:33:11|10=215||0|
M|119|0|0|I|20110223-23:33:41.501|79|8=FIX.4.0|9=57|35=0|34=119|49=RBSE40|56=NYFXINTL40|52=20110223-23:33:41|10=219||0|
M|120|0|0|I|20110223-23:34:11.570|79|8=FIX.4.0|9=57|35=0|34=120|49=RBSE40|56=NYFXINTL40|52=20110223-23:34:11|10=209||0|
M|121|0|0|I|20110223-23:34:41.658|79|8=FIX.4.0|9=57|35=0|34=121|49=RBSE40|56=NYFXINTL40|52=20110223-23:34:41|10=213||0|
M|122|0|0|I|20110223-23:35:11.727|79|8=FIX.4.0|9=57|35=0|34=122|49=RBSE40|56=NYFXINTL40|52=20110223-23:35:11|10=212||0|
M|123|0|0|I|20110223-23:35:41.816|79|8=FIX.4.0|9=57|35=0|34=123|49=RBSE40|56=NYFXINTL40|52=20110223-23:35:41|10=216||0|
M|124|0|0|I|20110223-23:36:11.894|79|8=FIX.4.0|9=57|35=0|34=124|49=RBSE40|56=NYFXINTL40|52=20110223-23:36:11|10=215||0|
M|125|0|0|I|20110223-23:36:41.963|79|8=FIX.4.0|9=57|35=0|34=125|49=RBSE40|56=NYFXINTL40|52=20110223-23:36:41|10=219||0|
M|126|0|0|I|20110223-23:37:12.042|79|8=FIX.4.0|9=57|35=0|34=126|49=RBSE40|56=NYFXINTL40|52=20110223-23:37:12|10=219||0|
M|127|0|0|I|20110223-23:37:42.111|79|8=FIX.4.0|9=57|35=0|34=127|49=RBSE40|56=NYFXINTL40|52=20110223-23:37:42|10=223||0|
M|128|0|0|I|20110223-23:38:12.149|79|8=FIX.4.0|9=57|35=0|34=128|49=RBSE40|56=NYFXINTL40|52=20110223-23:38:12|10=222||0|
M|129|0|0|I|20110223-23:38:42.238|79|8=FIX.4.0|9=57|35=0|34=129|49=RBSE40|56=NYFXINTL40|52=20110223-23:38:42|10=226||0|
M|130|0|0|I|20110223-23:39:12.307|79|8=FIX.4.0|9=57|35=0|34=130|49=RBSE40|56=NYFXINTL40|52=20110223-23:39:12|10=216||0|
M|131|0|0|I|20110223-23:39:42.385|79|8=FIX.4.0|9=57|35=0|34=131|49=RBSE40|56=NYFXINTL40|52=20110223-23:39:42|10=220||0|
M|132|0|0|I|20110223-23:40:12.454|79|8=FIX.4.0|9=57|35=0|34=132|49=RBSE40|56=NYFXINTL40|52=20110223-23:40:12|10=210||0|
M|133|0|0|I|20110223-23:40:42.513|79|8=FIX.4.0|9=57|35=0|34=133|49=RBSE40|56=NYFXINTL40|52=20110223-23:40:42|10=214||0|
M|134|0|0|I|20110223-23:41:12.561|79|8=FIX.4.0|9=57|35=0|34=134|49=RBSE40|56=NYFXINTL40|52=20110223-23:41:12|10=213||0|
M|135|0|0|I|20110223-23:41:42.610|79|8=FIX.4.0|9=57|35=0|34=135|49=RBSE40|56=NYFXINTL40|52=20110223-23:41:42|10=217||0|
M|136|0|0|I|20110223-23:42:12.689|79|8=FIX.4.0|9=57|35=0|34=136|49=RBSE40|56=NYFXINTL40|52=20110223-23:42:12|10=216||0|
M|137|0|0|I|20110223-23:42:42.727|79|8=FIX.4.0|9=57|35=0|34=137|49=RBSE40|56=NYFXINTL40|52=20110223-23:42:42|10=220||0|
M|138|0|0|I|20110223-23:43:12.806|79|8=FIX.4.0|9=57|35=0|34=138|49=RBSE40|56=NYFXINTL40|52=20110223-23:43:12|10=219||0|
M|139|0|0|I|20110223-23:43:42.855|79|8=FIX.4.0|9=57|35=0|34=139|49=RBSE40|56=NYFXINTL40|52=20110223-23:43:42|10=223||0|
M|140|0|0|I|20110223-23:44:12.923|79|8=FIX.4.0|9=57|35=0|34=140|49=RBSE40|56=NYFXINTL40|52=20110223-23:44:12|10=213||0|
M|141|0|0|I|20110223-23:44:43.002|79|8=FIX.4.0|9=57|35=0|34=141|49=RBSE40|56=NYFXINTL40|52=20110223-23:44:43|10=218||0|
M|142|0|0|I|20110223-23:45:13.061|79|8=FIX.4.0|9=57|35=0|34=142|49=RBSE40|56=NYFXINTL40|52=20110223-23:45:13|10=217||0|
M|143|0|0|I|20110223-23:45:43.129|79|8=FIX.4.0|9=57|35=0|34=143|49=RBSE40|56=NYFXINTL40|52=20110223-23:45:43|10=221||0|
M|144|0|0|I|20110223-23:46:13.218|79|8=FIX.4.0|9=57|35=0|34=144|49=RBSE40|56=NYFXINTL40|52=20110223-23:46:13|10=220||0|
M|145|0|0|I|20110223-23:46:43.287|79|8=FIX.4.0|9=57|35=0|34=145|49=RBSE40|56=NYFXINTL40|52=20110223-23:46:43|10=224||0|
M|146|0|0|I|20110223-23:47:13.356|79|8=FIX.4.0|9=57|35=0|34=146|49=RBSE40|56=NYFXINTL40|52=20110223-23:47:13|10=223||0|
M|147|0|0|I|20110223-23:47:43.404|79|8=FIX.4.0|9=57|35=0|34=147|49=RBSE40|56=NYFXINTL40|52=20110223-23:47:43|10=227||0|
M|148|0|0|I|20110223-23:48:13.463|79|8=FIX.4.0|9=57|35=0|34=148|49=RBSE40|56=NYFXINTL40|52=20110223-23:48:13|10=226||0|
M|149|0|0|I|20110223-23:48:43.532|79|8=FIX.4.0|9=57|35=0|34=149|49=RBSE40|56=NYFXINTL40|52=20110223-23:48:43|10=230||0|
M|150|0|0|I|20110223-23:49:13.610|79|8=FIX.4.0|9=57|35=0|34=150|49=RBSE40|56=NYFXINTL40|52=20110223-23:49:13|10=220||0|
M|151|0|0|I|20110223-23:49:43.689|79|8=FIX.4.0|9=57|35=0|34=151|49=RBSE40|56=NYFXINTL40|52=20110223-23:49:43|10=224||0|
M|152|0|0|I|20110223-23:50:13.768|79|8=FIX.4.0|9=57|35=0|34=152|49=RBSE40|56=NYFXINTL40|52=20110223-23:50:13|10=214||0|
M|153|0|0|I|20110223-23:50:43.846|79|8=FIX.4.0|9=57|35=0|34=153|49=RBSE40|56=NYFXINTL40|52=20110223-23:50:43|10=218||0|
M|154|0|0|I|20110223-23:51:13.935|79|8=FIX.4.0|9=57|35=0|34=154|49=RBSE40|56=NYFXINTL40|52=20110223-23:51:13|10=217||0|
M|155|0|0|I|20110223-23:51:44.004|79|8=FIX.4.0|9=57|35=0|34=155|49=RBSE40|56=NYFXINTL40|52=20110223-23:51:44|10=222||0|
M|156|0|0|I|20110223-23:52:14.062|79|8=FIX.4.0|9=57|35=0|34=156|49=RBSE40|56=NYFXINTL40|52=20110223-23:52:14|10=221||0|
M|157|0|0|I|20110223-23:52:44.121|79|8=FIX.4.0|9=57|35=0|34=157|49=RBSE40|56=NYFXINTL40|52=20110223-23:52:44|10=225||0|
M|158|0|0|I|20110223-23:53:14.200|79|8=FIX.4.0|9=57|35=0|34=158|49=RBSE40|56=NYFXINTL40|52=20110223-23:53:14|10=224||0|
M|159|0|0|I|20110223-23:53:44.259|79|8=FIX.4.0|9=57|35=0|34=159|49=RBSE40|56=NYFXINTL40|52=20110223-23:53:44|10=228||0|
M|160|0|0|I|20110223-23:54:14.327|79|8=FIX.4.0|9=57|35=0|34=160|49=RBSE40|56=NYFXINTL40|52=20110223-23:54:14|10=218||0|
M|161|0|0|I|20110223-23:54:44.396|79|8=FIX.4.0|9=57|35=0|34=161|49=RBSE40|56=NYFXINTL40|52=20110223-23:54:44|10=222||0|
M|162|0|0|I|20110223-23:55:14.465|79|8=FIX.4.0|9=57|35=0|34=162|49=RBSE40|56=NYFXINTL40|52=20110223-23:55:14|10=221||0|
M|163|0|0|I|20110223-23:55:44.533|79|8=FIX.4.0|9=57|35=0|34=163|49=RBSE40|56=NYFXINTL40|52=20110223-23:55:44|10=225||0|
M|164|0|0|I|20110223-23:56:14.612|79|8=FIX.4.0|9=57|35=0|34=164|49=RBSE40|56=NYFXINTL40|52=20110223-23:56:14|10=224||0|
M|165|0|0|I|20110223-23:56:44.671|79|8=FIX.4.0|9=57|35=0|34=165|49=RBSE40|56=NYFXINTL40|52=20110223-23:56:44|10=228||0|
M|166|0|0|I|20110223-23:57:14.739|79|8=FIX.4.0|9=57|35=0|34=166|49=RBSE40|56=NYFXINTL40|52=20110223-23:57:14|10=227||0|
M|167|0|0|I|20110223-23:57:44.818|79|8=FIX.4.0|9=57|35=0|34=167|49=RBSE40|56=NYFXINTL40|52=20110223-23:57:44|10=231||0|
M|168|0|0|I|20110223-23:58:14.897|79|8=FIX.4.0|9=57|35=0|34=168|49=RBSE40|56=NYFXINTL40|52=20110223-23:58:14|10=230||0|
M|169|0|0|I|20110223-23:58:44.955|79|8=FIX.4.0|9=57|35=0|34=169|49=RBSE40|56=NYFXINTL40|52=20110223-23:58:44|10=234||0|
M|170|0|0|I|20110223-23:59:15.004|79|8=FIX.4.0|9=57|35=0|34=170|49=RBSE40|56=NYFXINTL40|52=20110223-23:59:15|10=225||0|
M|171|0|0|I|20110223-23:59:45.083|79|8=FIX.4.0|9=57|35=0|34=171|49=RBSE40|56=NYFXINTL40|52=20110223-23:59:45|10=229||0|
M|172|0|0|I|20110224-00:00:15.122|79|8=FIX.4.0|9=57|35=0|34=172|49=RBSE40|56=NYFXINTL40|52=20110224-00:00:15|10=209||0|
M|173|0|0|I|20110224-00:00:45.180|79|8=FIX.4.0|9=57|35=0|34=173|49=RBSE40|56=NYFXINTL40|52=20110224-00:00:45|10=213||0|
M|174|0|0|I|20110224-00:01:15.239|79|8=FIX.4.0|9=57|35=0|34=174|49=RBSE40|56=NYFXINTL40|52=20110224-00:01:15|10=212||0|
M|175|0|0|I|20110224-00:01:45.318|79|8=FIX.4.0|9=57|35=0|34=175|49=RBSE40|56=NYFXINTL40|52=20110224-00:01:45|10=216||0|
M|176|0|0|I|20110224-00:02:15.366|79|8=FIX.4.0|9=57|35=0|34=176|49=RBSE40|56=NYFXINTL40|52=20110224-00:02:15|10=215||0|
M|177|0|0|I|20110224-00:02:45.445|79|8=FIX.4.0|9=57|35=0|34=177|49=RBSE40|56=NYFXINTL40|52=20110224-00:02:45|10=219||0|
M|178|0|0|I|20110224-00:03:15.504|79|8=FIX.4.0|9=57|35=0|34=178|49=RBSE40|56=NYFXINTL40|52=20110224-00:03:15|10=218||0|
M|179|0|0|I|20110224-00:03:45.572|79|8=FIX.4.0|9=57|35=0|34=179|49=RBSE40|56=NYFXINTL40|52=20110224-00:03:45|10=222||0|
M|180|0|0|I|20110224-00:04:15.591|79|8=FIX.4.0|9=57|35=0|34=180|49=RBSE40|56=NYFXINTL40|52=20110224-00:04:15|10=212||0|
M|181|0|0|I|20110224-00:04:45.650|79|8=FIX.4.0|9=57|35=0|34=181|49=RBSE40|56=NYFXINTL40|52=20110224-00:04:45|10=216||0|
M|182|0|0|I|20110224-00:05:15.719|79|8=FIX.4.0|9=57|35=0|34=182|49=RBSE40|56=NYFXINTL40|52=20110224-00:05:15|10=215||0|
M|183|0|0|I|20110224-00:05:45.787|79|8=FIX.4.0|9=57|35=0|34=183|49=RBSE40|56=NYFXINTL40|52=20110224-00:05:45|10=219||0|
M|184|0|0|I|20110224-00:06:15.866|79|8=FIX.4.0|9=57|35=0|34=184|49=RBSE40|56=NYFXINTL40|52=20110224-00:06:15|10=218||0|
M|185|0|0|I|20110224-00:06:45.944|79|8=FIX.4.0|9=57|35=0|34=185|49=RBSE40|56=NYFXINTL40|52=20110224-00:06:45|10=222||0|
M|186|0|0|I|20110224-00:07:16.003|79|8=FIX.4.0|9=57|35=0|34=186|49=RBSE40|56=NYFXINTL40|52=20110224-00:07:16|10=222||0|
M|187|0|0|I|20110224-00:07:46.062|79|8=FIX.4.0|9=57|35=0|34=187|49=RBSE40|56=NYFXINTL40|52=20110224-00:07:46|10=226||0|
M|188|0|0|I|20110224-00:08:16.131|79|8=FIX.4.0|9=57|35=0|34=188|49=RBSE40|56=NYFXINTL40|52=20110224-00:08:16|10=225||0|
M|189|0|0|I|20110224-00:08:46.199|79|8=FIX.4.0|9=57|35=0|34=189|49=RBSE40|56=NYFXINTL40|52=20110224-00:08:46|10=229||0|
M|190|0|0|I|20110224-00:09:16.258|79|8=FIX.4.0|9=57|35=0|34=190|49=RBSE40|56=NYFXINTL40|52=20110224-00:09:16|10=219||0|
M|191|0|0|I|20110224-00:09:46.337|79|8=FIX.4.0|9=57|35=0|34=191|49=RBSE40|56=NYFXINTL40|52=20110224-00:09:46|10=223||0|
M|192|0|0|I|20110224-00:10:16.405|79|8=FIX.4.0|9=57|35=0|34=192|49=RBSE40|56=NYFXINTL40|52=20110224-00:10:16|10=213||0|
M|193|0|0|I|20110224-00:10:46.484|79|8=FIX.4.0|9=57|35=0|34=193|49=RBSE40|56=NYFXINTL40|52=20110224-00:10:46|10=217||0|
M|194|0|0|I|20110224-00:11:16.533|79|8=FIX.4.0|9=57|35=0|34=194|49=RBSE40|56=NYFXINTL40|52=20110224-00:11:16|10=216||0|
M|195|0|0|I|20110224-00:11:46.611|79|8=FIX.4.0|9=57|35=0|34=195|49=RBSE40|56=NYFXINTL40|52=20110224-00:11:46|10=220||0|
M|196|0|0|I|20110224-00:12:16.670|79|8=FIX.4.0|9=57|35=0|34=196|49=RBSE40|56=NYFXINTL40|52=20110224-00:12:16|10=219||0|
M|197|0|0|I|20110224-00:12:46.759|79|8=FIX.4.0|9=57|35=0|34=197|49=RBSE40|56=NYFXINTL40|52=20110224-00:12:46|10=223||0|
M|198|0|0|I|20110224-00:13:16.837|79|8=FIX.4.0|9=57|35=0|34=198|49=RBSE40|56=NYFXINTL40|52=20110224-00:13:16|10=222||0|
M|199|0|0|I|20110224-00:13:46.906|79|8=FIX.4.0|9=57|35=0|34=199|49=RBSE40|56=NYFXINTL40|52=20110224-00:13:46|10=226||0|
M|200|0|8|I|20110224-00:13:53.390|271|8=FIX.4.0|9=248|35=8|128=COHNINTL|129=SLAM|34=200|49=RBSE40|56=NYFXINTL40|52=20110224-00:13:53|20=0|39=0|37=0005718662|6=0.0000|14=0|15=AUD|63=0|120=AUD|17=85330710|55=TCL|32=0|11=1286444536|59=0|54=1|40=1|60=20110224-00:13:53|38=500000|31=0|48=6200882|22=2|65=AU|10=151||2|AidaCode|HOURO|ClientConnectionName|Cohen_Steers_RBS|
M|201|0|0|I|20110224-00:14:23.615|79|8=FIX.4.0|9=57|35=0|34=201|49=RBSE40|56=NYFXINTL40|52=20110224-00:14:23|10=206||0|
M|202|0|0|I|20110224-00:14:53.683|79|8=FIX.4.0|9=57|35=0|34=202|49=RBSE40|56=NYFXINTL40|52=20110224-00:14:53|10=210||0|
M|203|0|0|I|20110224-00:15:23.772|79|8=FIX.4.0|9=57|35=0|34=203|49=RBSE40|56=NYFXINTL40|52=20110224-00:15:23|10=209||0|
M|204|0|0|I|20110224-00:15:53.841|79|8=FIX.4.0|9=57|35=0|34=204|49=RBSE40|56=NYFXINTL40|52=20110224-00:15:53|10=213||0|
M|205|0|0|I|20110224-00:16:23.899|79|8=FIX.4.0|9=57|35=0|34=205|49=RBSE40|56=NYFXINTL40|52=20110224-00:16:23|10=212||0|
M|206|0|0|I|20110224-00:16:53.948|79|8=FIX.4.0|9=57|35=0|34=206|49=RBSE40|56=NYFXINTL40|52=20110224-00:16:53|10=216||0|
M|207|0|0|I|20110224-00:17:23.997|79|8=FIX.4.0|9=57|35=0|34=207|49=RBSE40|56=NYFXINTL40|52=20110224-00:17:23|10=215||0|
M|208|0|0|I|20110224-00:17:54.045|79|8=FIX.4.0|9=57|35=0|34=208|49=RBSE40|56=NYFXINTL40|52=20110224-00:17:54|10=220||0|
M|209|0|8|I|20110224-00:18:00.926|302|8=FIX.4.0|9=279|35=8|128=COHNINTL|129=SLAM|34=209|49=RBSE40|56=NYFXINTL40|52=20110224-00:18:00|37=0005718662|6=5.3000|14=10000|15=AUD|63=0|120=AUD|17=85330849|55=TCL|11=1286444536|39=1|20=0|59=0|54=1|40=1|60=20110224-00:18:00|31=5.3000|32=10000|75=20110224|38=500000|48=6200882|22=2|65=AU|30=AX|10=156||2|AidaCode|HOURO|ClientConnectionName|Cohen_Steers_RBS|
M|210|0|8|I|20110224-00:18:12.749|301|8=FIX.4.0|9=278|35=8|128=COHNINTL|129=SLAM|34=210|49=RBSE40|56=NYFXINTL40|52=20110224-00:18:12|37=0005718662|6=5.3000|14=11457|15=AUD|63=0|120=AUD|17=85330850|55=TCL|11=1286444536|39=1|20=0|59=0|54=1|40=1|60=20110224-00:18:12|31=5.3000|32=1457|75=20110224|38=500000|48=6200882|22=2|65=AU|30=AX|10=130||2|AidaCode|HOURO|ClientConnectionName|Cohen_Steers_RBS|
M|211|0|8|I|20110224-00:18:13.183|301|8=FIX.4.0|9=278|35=8|128=COHNINTL|129=SLAM|34=211|49=RBSE40|56=NYFXINTL40|52=20110224-00:18:13|37=0005718662|6=5.3000|14=18212|15=AUD|63=0|120=AUD|17=85330851|55=TCL|11=1286444536|39=1|20=0|59=0|54=1|40=1|60=20110224-00:18:12|31=5.3000|32=6755|75=20110224|38=500000|48=6200882|22=2|65=AU|30=AX|10=135||2|AidaCode|HOURO|ClientConnectionName|Cohen_Steers_RBS|
M|212|0|8|I|20110224-00:18:13.269|301|8=FIX.4.0|9=278|35=8|128=COHNINTL|129=SLAM|34=212|49=RBSE40|56=NYFXINTL40|52=20110224-00:18:13|37=0005718662|6=5.3000|14=24496|15=AUD|63=0|120=AUD|17=85330852|55=TCL|11=1286444536|39=1|20=0|59=0|54=1|40=1|60=20110224-00:18:13|31=5.3000|32=6284|75=20110224|38=500000|48=6200882|22=2|65=AU|30=AX|10=146||2|AidaCode|HOURO|ClientConnectionName|Cohen_Steers_RBS|
M|213|0|8|I|20110224-00:18:13.322|301|8=FIX.4.0|9=278|35=8|128=COHNINTL|129=SLAM|34=213|49=RBSE40|56=NYFXINTL40|52=20110224-00:18:13|37=0005718662|6=5.3000|14=25984|15=AUD|63=0|120=AUD|17=85330853|55=TCL|11=1286444536|39=1|20=0|59=0|54=1|40=1|60=20110224-00:18:13|31=5.3000|32=1488|75=20110224|38=500000|48=6200882|22=2|65=AU|30=AX|10=152||2|AidaCode|HOURO|ClientConnectionName|Cohen_Steers_RBS|
M|214|0|8|I|20110224-00:18:13.413|298|8=FIX.4.0|9=275|35=8|128=COHNINTL|129=SLAM|34=214|49=RBSE40|56=NYFXINTL40|52=20110224-00:18:13|37=0005718662|6=5.3000|14=25991|15=AUD|63=0|120=AUD|17=85330854|55=TCL|11=1286444536|39=1|20=0|59=0|54=1|40=1|60=20110224-00:18:13|31=5.3000|32=7|75=20110224|38=500000|48=6200882|22=2|65=AU|30=AX|10=247||2|AidaCode|HOURO|ClientConnectionName|Cohen_Steers_RBS|
M|215|0|8|I|20110224-00:18:13.899|301|8=FIX.4.0|9=278|35=8|128=COHNINTL|129=SLAM|34=215|49=RBSE40|56=NYFXINTL40|52=20110224-00:18:13|37=0005718662|6=5.3000|14=29991|15=AUD|63=0|120=AUD|17=85330855|55=TCL|11=1286444536|39=1|20=0|59=0|54=1|40=1|60=20110224-00:18:13|31=5.3000|32=4000|75=20110224|38=500000|48=6200882|22=2|65=AU|30=AX|10=141||2|AidaCode|HOURO|ClientConnectionName|Cohen_Steers_RBS|
M|216|0|8|I|20110224-00:18:14.001|298|8=FIX.4.0|9=275|35=8|128=COHNINTL|129=SLAM|34=216|49=RBSE40|56=NYFXINTL40|52=20110224-00:18:14|37=0005718662|6=5.3000|14=30000|15=AUD|63=0|120=AUD|17=85330856|55=TCL|11=1286444536|39=1|20=0|59=0|54=1|40=1|60=20110224-00:18:13|31=5.3000|32=9|75=20110224|38=500000|48=6200882|22=2|65=AU|30=AX|10=231||2|AidaCode|HOURO|ClientConnectionName|Cohen_Steers_RBS|
M|217|0|8|I|20110224-00:18:22.392|301|8=FIX.4.0|9=278|35=8|128=COHNINTL|129=SLAM|34=217|49=RBSE40|56=NYFXINTL40|52=20110224-00:18:22|37=0005718662|6=5.3000|14=37499|15=AUD|63=0|120=AUD|17=85330857|55=TCL|11=1286444536|39=1|20=0|59=0|54=1|40=1|60=20110224-00:18:22|31=5.3000|32=7499|75=20110224|38=500000|48=6200882|22=2|65=AU|30=AX|10=172||2|AidaCode|HOURO|ClientConnectionName|Cohen_Steers_RBS|
M|218|0|8|I|20110224-00:18:22.796|298|8=FIX.4.0|9=275|35=8|128=COHNINTL|129=SLAM|34=218|49=RBSE40|56=NYFXINTL40|52=20110224-00:18:22|37=0005718662|6=5.3000|14=37502|15=AUD|63=0|120=AUD|17=85330858|55=TCL|11=1286444536|39=1|20=0|59=0|54=1|40=1|60=20110224-00:18:22|31=5.3000|32=3|75=20110224|38=500000|48=6200882|22=2|65=AU|30=AX|10=242||2|AidaCode|HOURO|ClientConnectionName|Cohen_Steers_RBS|
M|219|0|8|I|20110224-00:18:22.994|299|8=FIX.4.0|9=276|35=8|128=COHNINTL|129=SLAM|34=219|49=RBSE40|56=NYFXINTL40|52=20110224-00:18:22|37=0005718662|6=5.3000|14=37525|15=AUD|63=0|120=AUD|17=85330859|55=TCL|11=1286444536|39=1|20=0|59=0|54=1|40=1|60=20110224-00:18:22|31=5.3000|32=23|75=20110224|38=500000|48=6200882|22=2|65=AU|30=AX|10=044||2|AidaCode|HOURO|ClientConnectionName|Cohen_Steers_RBS|
M|220|0|8|I|20110224-00:18:23.098|301|8=FIX.4.0|9=278|35=8|128=COHNINTL|129=SLAM|34=220|49=RBSE40|56=NYFXINTL40|52=20110224-00:18:23|37=0005718662|6=5.3000|14=40453|15=AUD|63=0|120=AUD|17=85330860|55=TCL|11=1286444536|39=1|20=0|59=0|54=1|40=1|60=20110224-00:18:23|31=5.3000|32=2928|75=20110224|38=500000|48=6200882|22=2|65=AU|30=AX|10=138||2|AidaCode|HOURO|ClientConnectionName|Cohen_Steers_RBS|
M|221|0|8|I|20110224-00:18:23.315|301|8=FIX.4.0|9=278|35=8|128=COHNINTL|129=SLAM|34=221|49=RBSE40|56=NYFXINTL40|52=20110224-00:18:23|37=0005718662|6=5.3000|14=46361|15=AUD|63=0|120=AUD|17=85330861|55=TCL|11=1286444536|39=1|20=0|59=0|54=1|40=1|60=20110224-00:18:23|31=5.3000|32=5908|75=20110224|38=500000|48=6200882|22=2|65=AU|30=AX|10=145||2|AidaCode|HOURO|ClientConnectionName|Cohen_Steers_RBS|
M|222|0|8|I|20110224-00:18:23.425|301|8=FIX.4.0|9=278|35=8|128=COHNINTL|129=SLAM|34=222|49=RBSE40|56=NYFXINTL40|52=20110224-00:18:23|37=0005718662|6=5.3000|14=50000|15=AUD|63=0|120=AUD|17=85330862|55=TCL|11=1286444536|39=1|20=0|59=0|54=1|40=1|60=20110224-00:18:23|31=5.3000|32=3639|75=20110224|38=500000|48=6200882|22=2|65=AU|30=AX|10=131||2|AidaCode|HOURO|ClientConnectionName|Cohen_Steers_RBS|
M|223|0|0|I|20110224-00:18:53.653|79|8=FIX.4.0|9=57|35=0|34=223|49=RBSE40|56=NYFXINTL40|52=20110224-00:18:53|10=217||0|
M|224|0|0|I|20110224-00:19:23.721|79|8=FIX.4.0|9=57|35=0|34=224|49=RBSE40|56=NYFXINTL40|52=20110224-00:19:23|10=216||0|
M|225|0|0|I|20110224-00:19:53.800|79|8=FIX.4.0|9=57|35=0|34=225|49=RBSE40|56=NYFXINTL40|52=20110224-00:19:53|10=220||0|
M|226|0|0|I|20110224-00:20:23.869|79|8=FIX.4.0|9=57|35=0|34=226|49=RBSE40|56=NYFXINTL40|52=20110224-00:20:23|10=210||0|
M|227|0|0|I|20110224-00:20:53.937|79|8=FIX.4.0|9=57|35=0|34=227|49=RBSE40|56=NYFXINTL40|52=20110224-00:20:53|10=214||0|
M|228|0|0|I|20110224-00:21:24.006|79|8=FIX.4.0|9=57|35=0|34=228|49=RBSE40|56=NYFXINTL40|52=20110224-00:21:24|10=214||0|
M|229|0|0|I|20110224-00:21:54.085|79|8=FIX.4.0|9=57|35=0|34=229|49=RBSE40|56=NYFXINTL40|52=20110224-00:21:54|10=218||0|
M|230|0|0|I|20110224-00:22:24.164|79|8=FIX.4.0|9=57|35=0|34=230|49=RBSE40|56=NYFXINTL40|52=20110224-00:22:24|10=208||0|
M|231|0|0|I|20110224-00:22:54.232|79|8=FIX.4.0|9=57|35=0|34=231|49=RBSE40|56=NYFXINTL40|52=20110224-00:22:54|10=212||0|
M|232|0|0|I|20110224-00:23:24.321|79|8=FIX.4.0|9=57|35=0|34=232|49=RBSE40|56=NYFXINTL40|52=20110224-00:23:24|10=211||0|
M|233|0|0|I|20110224-00:23:54.380|79|8=FIX.4.0|9=57|35=0|34=233|49=RBSE40|56=NYFXINTL40|52=20110224-00:23:54|10=215||0|
M|234|0|0|I|20110224-00:24:24.468|79|8=FIX.4.0|9=57|35=0|34=234|49=RBSE40|56=NYFXINTL40|52=20110224-00:24:24|10=214||0|
M|235|0|0|I|20110224-00:24:54.537|79|8=FIX.4.0|9=57|35=0|34=235|49=RBSE40|56=NYFXINTL40|52=20110224-00:24:54|10=218||0|
M|236|0|0|I|20110224-00:25:24.616|79|8=FIX.4.0|9=57|35=0|34=236|49=RBSE40|56=NYFXINTL40|52=20110224-00:25:24|10=217||0|
M|237|0|0|I|20110224-00:25:54.704|79|8=FIX.4.0|9=57|35=0|34=237|49=RBSE40|56=NYFXINTL40|52=20110224-00:25:54|10=221||0|
M|238|0|0|I|20110224-00:26:24.763|79|8=FIX.4.0|9=57|35=0|34=238|49=RBSE40|56=NYFXINTL40|52=20110224-00:26:24|10=220||0|
M|239|0|0|I|20110224-00:26:54.842|79|8=FIX.4.0|9=57|35=0|34=239|49=RBSE40|56=NYFXINTL40|52=20110224-00:26:54|10=224||0|
M|240|0|0|I|20110224-00:27:24.890|79|8=FIX.4.0|9=57|35=0|34=240|49=RBSE40|56=NYFXINTL40|52=20110224-00:27:24|10=214||0|
M|241|0|0|I|20110224-00:27:54.969|79|8=FIX.4.0|9=57|35=0|34=241|49=RBSE40|56=NYFXINTL40|52=20110224-00:27:54|10=218||0|
M|242|0|0|I|20110224-00:28:25.038|79|8=FIX.4.0|9=57|35=0|34=242|49=RBSE40|56=NYFXINTL40|52=20110224-00:28:25|10=218||0|
M|243|0|0|I|20110224-00:28:55.096|79|8=FIX.4.0|9=57|35=0|34=243|49=RBSE40|56=NYFXINTL40|52=20110224-00:28:55|10=222||0|
M|244|0|0|I|20110224-00:29:25.165|79|8=FIX.4.0|9=57|35=0|34=244|49=RBSE40|56=NYFXINTL40|52=20110224-00:29:25|10=221||0|
M|245|0|0|I|20110224-00:29:55.234|79|8=FIX.4.0|9=57|35=0|34=245|49=RBSE40|56=NYFXINTL40|52=20110224-00:29:55|10=225||0|
M|246|0|0|I|20110224-00:30:25.293|79|8=FIX.4.0|9=57|35=0|34=246|49=RBSE40|56=NYFXINTL40|52=20110224-00:30:25|10=215||0|
M|247|0|0|I|20110224-00:30:55.371|79|8=FIX.4.0|9=57|35=0|34=247|49=RBSE40|56=NYFXINTL40|52=20110224-00:30:55|10=219||0|
M|248|0|0|I|20110224-00:31:25.430|79|8=FIX.4.0|9=57|35=0|34=248|49=RBSE40|56=NYFXINTL40|52=20110224-00:31:25|10=218||0|
M|249|0|0|I|20110224-00:31:55.499|79|8=FIX.4.0|9=57|35=0|34=249|49=RBSE40|56=NYFXINTL40|52=20110224-00:31:55|10=222||0|
M|250|0|0|I|20110224-00:32:25.577|79|8=FIX.4.0|9=57|35=0|34=250|49=RBSE40|56=NYFXINTL40|52=20110224-00:32:25|10=212||0|
M|251|0|0|I|20110224-00:32:55.666|79|8=FIX.4.0|9=57|35=0|34=251|49=RBSE40|56=NYFXINTL40|52=20110224-00:32:55|10=216||0|
M|252|0|0|I|20110224-00:33:25.735|79|8=FIX.4.0|9=57|35=0|34=252|49=RBSE40|56=NYFXINTL40|52=20110224-00:33:25|10=215||0|
M|253|0|0|I|20110224-00:33:55.813|79|8=FIX.4.0|9=57|35=0|34=253|49=RBSE40|56=NYFXINTL40|52=20110224-00:33:55|10=219||0|
M|254|0|0|I|20110224-00:34:25.872|79|8=FIX.4.0|9=57|35=0|34=254|49=RBSE40|56=NYFXINTL40|52=20110224-00:34:25|10=218||0|
M|255|0|0|I|20110224-00:34:55.951|79|8=FIX.4.0|9=57|35=0|34=255|49=RBSE40|56=NYFXINTL40|52=20110224-00:34:55|10=222||0|
M|256|0|0|I|20110224-00:35:26.030|79|8=FIX.4.0|9=57|35=0|34=256|49=RBSE40|56=NYFXINTL40|52=20110224-00:35:26|10=222||0|
M|257|0|0|I|20110224-00:35:56.108|79|8=FIX.4.0|9=57|35=0|34=257|49=RBSE40|56=NYFXINTL40|52=20110224-00:35:56|10=226||0|
M|258|0|0|I|20110224-00:36:26.177|79|8=FIX.4.0|9=57|35=0|34=258|49=RBSE40|56=NYFXINTL40|52=20110224-00:36:26|10=225||0|
M|259|0|0|I|20110224-00:36:56.246|79|8=FIX.4.0|9=57|35=0|34=259|49=RBSE40|56=NYFXINTL40|52=20110224-00:36:56|10=229||0|
M|260|0|0|I|20110224-00:37:26.314|79|8=FIX.4.0|9=57|35=0|34=260|49=RBSE40|56=NYFXINTL40|52=20110224-00:37:26|10=219||0|
M|261|0|0|I|20110224-00:37:56.363|79|8=FIX.4.0|9=57|35=0|34=261|49=RBSE40|56=NYFXINTL40|52=20110224-00:37:56|10=223||0|
M|262|0|0|I|20110224-00:38:26.432|79|8=FIX.4.0|9=57|35=0|34=262|49=RBSE40|56=NYFXINTL40|52=20110224-00:38:26|10=222||0|
M|263|0|0|I|20110224-00:38:56.490|79|8=FIX.4.0|9=57|35=0|34=263|49=RBSE40|56=NYFXINTL40|52=20110224-00:38:56|10=226||0|
M|264|0|0|I|20110224-00:39:26.539|79|8=FIX.4.0|9=57|35=0|34=264|49=RBSE40|56=NYFXINTL40|52=20110224-00:39:26|10=225||0|
M|265|0|0|I|20110224-00:39:56.618|79|8=FIX.4.0|9=57|35=0|34=265|49=RBSE40|56=NYFXINTL40|52=20110224-00:39:56|10=229||0|
M|266|0|0|I|20110224-00:40:26.666|79|8=FIX.4.0|9=57|35=0|34=266|49=RBSE40|56=NYFXINTL40|52=20110224-00:40:26|10=219||0|
M|267|0|0|I|20110224-00:40:56.715|79|8=FIX.4.0|9=57|35=0|34=267|49=RBSE40|56=NYFXINTL40|52=20110224-00:40:56|10=223||0|
M|268|0|0|I|20110224-00:41:26.784|79|8=FIX.4.0|9=57|35=0|34=268|49=RBSE40|56=NYFXINTL40|52=20110224-00:41:26|10=222||0|
M|269|0|0|I|20110224-00:41:56.852|79|8=FIX.4.0|9=57|35=0|34=269|49=RBSE40|56=NYFXINTL40|52=20110224-00:41:56|10=226||0|
M|270|0|0|I|20110224-00:42:26.931|79|8=FIX.4.0|9=57|35=0|34=270|49=RBSE40|56=NYFXINTL40|52=20110224-00:42:26|10=216||0|
M|271|0|0|I|20110224-00:42:57.000|79|8=FIX.4.0|9=57|35=0|34=271|49=RBSE40|56=NYFXINTL40|52=20110224-00:42:57|10=221||0|
M|272|0|0|I|20110224-00:43:27.058|79|8=FIX.4.0|9=57|35=0|34=272|49=RBSE40|56=NYFXINTL40|52=20110224-00:43:27|10=220||0|
M|273|0|0|I|20110224-00:43:57.117|79|8=FIX.4.0|9=57|35=0|34=273|49=RBSE40|56=NYFXINTL40|52=20110224-00:43:57|10=224||0|
M|274|0|0|I|20110224-00:44:27.166|79|8=FIX.4.0|9=57|35=0|34=274|49=RBSE40|56=NYFXINTL40|52=20110224-00:44:27|10=223||0|
M|275|0|0|I|20110224-00:44:57.235|79|8=FIX.4.0|9=57|35=0|34=275|49=RBSE40|56=NYFXINTL40|52=20110224-00:44:57|10=227||0|
M|276|0|0|I|20110224-00:45:27.313|79|8=FIX.4.0|9=57|35=0|34=276|49=RBSE40|56=NYFXINTL40|52=20110224-00:45:27|10=226||0|
M|277|0|0|I|20110224-00:45:57.392|79|8=FIX.4.0|9=57|35=0|34=277|49=RBSE40|56=NYFXINTL40|52=20110224-00:45:57|10=230||0|
M|278|0|0|I|20110224-00:46:27.451|79|8=FIX.4.0|9=57|35=0|34=278|49=RBSE40|56=NYFXINTL40|52=20110224-00:46:27|10=229||0|
M|279|0|0|I|20110224-00:46:57.529|79|8=FIX.4.0|9=57|35=0|34=279|49=RBSE40|56=NYFXINTL40|52=20110224-00:46:57|10=233||0|
M|280|0|0|I|20110224-00:47:27.598|79|8=FIX.4.0|9=57|35=0|34=280|49=RBSE40|56=NYFXINTL40|52=20110224-00:47:27|10=223||0|
M|281|0|0|I|20110224-00:47:57.687|79|8=FIX.4.0|9=57|35=0|34=281|49=RBSE40|56=NYFXINTL40|52=20110224-00:47:57|10=227||0|
M|282|0|0|I|20110224-00:48:27.745|79|8=FIX.4.0|9=57|35=0|34=282|49=RBSE40|56=NYFXINTL40|52=20110224-00:48:27|10=226||0|
M|283|0|0|I|20110224-00:48:57.794|79|8=FIX.4.0|9=57|35=0|34=283|49=RBSE40|56=NYFXINTL40|52=20110224-00:48:57|10=230||0|
M|284|0|0|I|20110224-00:49:27.853|79|8=FIX.4.0|9=57|35=0|34=284|49=RBSE40|56=NYFXINTL40|52=20110224-00:49:27|10=229||0|
M|285|0|0|I|20110224-00:49:57.931|79|8=FIX.4.0|9=57|35=0|34=285|49=RBSE40|56=NYFXINTL40|52=20110224-00:49:57|10=233||0|
M|286|0|0|I|20110224-00:50:28.000|79|8=FIX.4.0|9=57|35=0|34=286|49=RBSE40|56=NYFXINTL40|52=20110224-00:50:28|10=224||0|
M|287|0|0|I|20110224-00:50:58.069|79|8=FIX.4.0|9=57|35=0|34=287|49=RBSE40|56=NYFXINTL40|52=20110224-00:50:58|10=228||0|
M|288|0|0|I|20110224-00:51:28.148|79|8=FIX.4.0|9=57|35=0|34=288|49=RBSE40|56=NYFXINTL40|52=20110224-00:51:28|10=227||0|
M|289|0|0|I|20110224-00:51:58.226|79|8=FIX.4.0|9=57|35=0|34=289|49=RBSE40|56=NYFXINTL40|52=20110224-00:51:58|10=231||0|
M|290|0|0|I|20110224-00:52:28.275|79|8=FIX.4.0|9=57|35=0|34=290|49=RBSE40|56=NYFXINTL40|52=20110224-00:52:28|10=221||0|
M|291|0|0|I|20110224-00:52:58.354|79|8=FIX.4.0|9=57|35=0|34=291|49=RBSE40|56=NYFXINTL40|52=20110224-00:52:58|10=225||0|
M|292|0|0|I|20110224-00:53:28.432|79|8=FIX.4.0|9=57|35=0|34=292|49=RBSE40|56=NYFXINTL40|52=20110224-00:53:28|10=224||0|
M|293|0|0|I|20110224-00:53:58.492|79|8=FIX.4.0|9=57|35=0|34=293|49=RBSE40|56=NYFXINTL40|52=20110224-00:53:58|10=228||0|
M|294|0|0|I|20110224-00:54:28.560|79|8=FIX.4.0|9=57|35=0|34=294|49=RBSE40|56=NYFXINTL40|52=20110224-00:54:28|10=227||0|
M|295|0|0|I|20110224-00:54:58.648|79|8=FIX.4.0|9=57|35=0|34=295|49=RBSE40|56=NYFXINTL40|52=20110224-00:54:58|10=231||0|
M|296|0|0|I|20110224-00:55:28.727|79|8=FIX.4.0|9=57|35=0|34=296|49=RBSE40|56=NYFXINTL40|52=20110224-00:55:28|10=230||0|
M|297|0|0|I|20110224-00:55:58.796|79|8=FIX.4.0|9=57|35=0|34=297|49=RBSE40|56=NYFXINTL40|52=20110224-00:55:58|10=234||0|
M|298|0|0|I|20110224-00:56:28.874|79|8=FIX.4.0|9=57|35=0|34=298|49=RBSE40|56=NYFXINTL40|52=20110224-00:56:28|10=233||0|
M|299|0|0|I|20110224-00:56:58.943|79|8=FIX.4.0|9=57|35=0|34=299|49=RBSE40|56=NYFXINTL40|52=20110224-00:56:58|10=237||0|
M|300|0|0|I|20110224-00:57:28.992|79|8=FIX.4.0|9=57|35=0|34=300|49=RBSE40|56=NYFXINTL40|52=20110224-00:57:28|10=218||0|
M|301|0|0|I|20110224-00:57:59.043|79|8=FIX.4.0|9=57|35=0|34=301|49=RBSE40|56=NYFXINTL40|52=20110224-00:57:59|10=223||0|
M|302|0|0|I|20110224-00:58:29.109|79|8=FIX.4.0|9=57|35=0|34=302|49=RBSE40|56=NYFXINTL40|52=20110224-00:58:29|10=222||0|
M|303|0|0|I|20110224-00:58:59.178|79|8=FIX.4.0|9=57|35=0|34=303|49=RBSE40|56=NYFXINTL40|52=20110224-00:58:59|10=226||0|
M|304|0|0|I|20110224-00:59:29.257|79|8=FIX.4.0|9=57|35=0|34=304|49=RBSE40|56=NYFXINTL40|52=20110224-00:59:29|10=225||0|
M|305|0|0|I|20110224-00:59:59.305|79|8=FIX.4.0|9=57|35=0|34=305|49=RBSE40|56=NYFXINTL40|52=20110224-00:59:59|10=229||0|
M|306|0|0|I|20110224-01:00:29.394|79|8=FIX.4.0|9=57|35=0|34=306|49=RBSE40|56=NYFXINTL40|52=20110224-01:00:29|10=214||0|
M|307|0|0|I|20110224-01:00:59.473|79|8=FIX.4.0|9=57|35=0|34=307|49=RBSE40|56=NYFXINTL40|52=20110224-01:00:59|10=218||0|
M|308|0|0|I|20110224-01:01:29.531|79|8=FIX.4.0|9=57|35=0|34=308|49=RBSE40|56=NYFXINTL40|52=20110224-01:01:29|10=217||0|
M|309|0|0|I|20110224-01:01:59.590|79|8=FIX.4.0|9=57|35=0|34=309|49=RBSE40|56=NYFXINTL40|52=20110224-01:01:59|10=221||0|
M|310|0|0|I|20110224-01:02:29.659|79|8=FIX.4.0|9=57|35=0|34=310|49=RBSE40|56=NYFXINTL40|52=20110224-01:02:29|10=211||0|
M|311|0|0|I|20110224-01:02:59.727|79|8=FIX.4.0|9=57|35=0|34=311|49=RBSE40|56=NYFXINTL40|52=20110224-01:02:59|10=215||0|
M|312|0|0|I|20110224-01:03:29.796|79|8=FIX.4.0|9=57|35=0|34=312|49=RBSE40|56=NYFXINTL40|52=20110224-01:03:29|10=214||0|
M|313|0|0|I|20110224-01:03:59.885|79|8=FIX.4.0|9=57|35=0|34=313|49=RBSE40|56=NYFXINTL40|52=20110224-01:03:59|10=218||0|
M|314|0|0|I|20110224-01:04:29.953|79|8=FIX.4.0|9=57|35=0|34=314|49=RBSE40|56=NYFXINTL40|52=20110224-01:04:29|10=217||0|
M|315|0|0|I|20110224-01:05:00.012|79|8=FIX.4.0|9=57|35=0|34=315|49=RBSE40|56=NYFXINTL40|52=20110224-01:05:00|10=208||0|
M|316|0|0|I|20110224-01:05:30.081|79|8=FIX.4.0|9=57|35=0|34=316|49=RBSE40|56=NYFXINTL40|52=20110224-01:05:30|10=212||0|
M|317|0|0|I|20110224-01:06:00.149|79|8=FIX.4.0|9=57|35=0|34=317|49=RBSE40|56=NYFXINTL40|52=20110224-01:06:00|10=211||0|
M|318|0|0|I|20110224-01:06:30.228|79|8=FIX.4.0|9=57|35=0|34=318|49=RBSE40|56=NYFXINTL40|52=20110224-01:06:30|10=215||0|
M|319|0|0|I|20110224-01:07:00.267|79|8=FIX.4.0|9=57|35=0|34=319|49=RBSE40|56=NYFXINTL40|52=20110224-01:07:00|10=214||0|
M|320|0|0|I|20110224-01:07:30.335|79|8=FIX.4.0|9=57|35=0|34=320|49=RBSE40|56=NYFXINTL40|52=20110224-01:07:30|10=209||0|
M|321|0|0|I|20110224-01:08:00.414|79|8=FIX.4.0|9=57|35=0|34=321|49=RBSE40|56=NYFXINTL40|52=20110224-01:08:00|10=208||0|
M|322|0|0|I|20110224-01:08:30.493|79|8=FIX.4.0|9=57|35=0|34=322|49=RBSE40|56=NYFXINTL40|52=20110224-01:08:30|10=212||0|
M|323|0|0|I|20110224-01:09:00.572|79|8=FIX.4.0|9=57|35=0|34=323|49=RBSE40|56=NYFXINTL40|52=20110224-01:09:00|10=211||0|
M|324|0|0|I|20110224-01:09:30.650|79|8=FIX.4.0|9=57|35=0|34=324|49=RBSE40|56=NYFXINTL40|52=20110224-01:09:30|10=215||0|
M|325|0|0|I|20110224-01:10:00.729|79|8=FIX.4.0|9=57|35=0|34=325|49=RBSE40|56=NYFXINTL40|52=20110224-01:10:00|10=205||0|
M|326|0|0|I|20110224-01:10:30.778|79|8=FIX.4.0|9=57|35=0|34=326|49=RBSE40|56=NYFXINTL40|52=20110224-01:10:30|10=209||0|
M|327|0|0|I|20110224-01:11:00.856|79|8=FIX.4.0|9=57|35=0|34=327|49=RBSE40|56=NYFXINTL40|52=20110224-01:11:00|10=208||0|
M|328|0|0|I|20110224-01:11:30.915|79|8=FIX.4.0|9=57|35=0|34=328|49=RBSE40|56=NYFXINTL40|52=20110224-01:11:30|10=212||0|
M|329|0|0|I|20110224-01:12:00.934|79|8=FIX.4.0|9=57|35=0|34=329|49=RBSE40|56=NYFXINTL40|52=20110224-01:12:00|10=211||0|
M|330|0|0|I|20110224-01:12:31.012|79|8=FIX.4.0|9=57|35=0|34=330|49=RBSE40|56=NYFXINTL40|52=20110224-01:12:31|10=207||0|
M|331|0|0|I|20110224-01:13:01.081|79|8=FIX.4.0|9=57|35=0|34=331|49=RBSE40|56=NYFXINTL40|52=20110224-01:13:01|10=206||0|
M|332|0|0|I|20110224-01:13:31.140|79|8=FIX.4.0|9=57|35=0|34=332|49=RBSE40|56=NYFXINTL40|52=20110224-01:13:31|10=210||0|
M|333|0|0|I|20110224-01:14:01.219|79|8=FIX.4.0|9=57|35=0|34=333|49=RBSE40|56=NYFXINTL40|52=20110224-01:14:01|10=209||0|
M|334|0|0|I|20110224-01:14:31.297|79|8=FIX.4.0|9=57|35=0|34=334|49=RBSE40|56=NYFXINTL40|52=20110224-01:14:31|10=213||0|
M|335|0|0|I|20110224-01:15:01.386|79|8=FIX.4.0|9=57|35=0|34=335|49=RBSE40|56=NYFXINTL40|52=20110224-01:15:01|10=212||0|
M|336|0|0|I|20110224-01:15:31.455|79|8=FIX.4.0|9=57|35=0|34=336|49=RBSE40|56=NYFXINTL40|52=20110224-01:15:31|10=216||0|
M|337|0|0|I|20110224-01:16:01.503|79|8=FIX.4.0|9=57|35=0|34=337|49=RBSE40|56=NYFXINTL40|52=20110224-01:16:01|10=215||0|
M|338|0|0|I|20110224-01:16:31.552|79|8=FIX.4.0|9=57|35=0|34=338|49=RBSE40|56=NYFXINTL40|52=20110224-01:16:31|10=219||0|
M|339|0|0|I|20110224-01:17:01.601|79|8=FIX.4.0|9=57|35=0|34=339|49=RBSE40|56=NYFXINTL40|52=20110224-01:17:01|10=218||0|
M|340|0|0|I|20110224-01:17:31.689|79|8=FIX.4.0|9=57|35=0|34=340|49=RBSE40|56=NYFXINTL40|52=20110224-01:17:31|10=213||0|
M|341|0|0|I|20110224-01:18:01.738|79|8=FIX.4.0|9=57|35=0|34=341|49=RBSE40|56=NYFXINTL40|52=20110224-01:18:01|10=212||0|
M|342|0|0|I|20110224-01:18:31.817|79|8=FIX.4.0|9=57|35=0|34=342|49=RBSE40|56=NYFXINTL40|52=20110224-01:18:31|10=216||0|
M|343|0|0|I|20110224-01:19:01.886|79|8=FIX.4.0|9=57|35=0|34=343|49=RBSE40|56=NYFXINTL40|52=20110224-01:19:01|10=215||0|
M|344|0|0|I|20110224-01:19:31.974|79|8=FIX.4.0|9=57|35=0|34=344|49=RBSE40|56=NYFXINTL40|52=20110224-01:19:31|10=219||0|
M|345|0|0|I|20110224-01:20:02.043|79|8=FIX.4.0|9=57|35=0|34=345|49=RBSE40|56=NYFXINTL40|52=20110224-01:20:02|10=210||0|
M|346|0|0|I|20110224-01:20:32.102|79|8=FIX.4.0|9=57|35=0|34=346|49=RBSE40|56=NYFXINTL40|52=20110224-01:20:32|10=214||0|
M|347|0|0|I|20110224-01:21:02.180|79|8=FIX.4.0|9=57|35=0|34=347|49=RBSE40|56=NYFXINTL40|52=20110224-01:21:02|10=213||0|
M|348|0|0|I|20110224-01:21:32.259|79|8=FIX.4.0|9=57|35=0|34=348|49=RBSE40|56=NYFXINTL40|52=20110224-01:21:32|10=217||0|
M|349|0|0|I|20110224-01:22:02.318|79|8=FIX.4.0|9=57|35=0|34=349|49=RBSE40|56=NYFXINTL40|52=20110224-01:22:02|10=216||0|
M|350|0|0|I|20110224-01:22:32.396|79|8=FIX.4.0|9=57|35=0|34=350|49=RBSE40|56=NYFXINTL40|52=20110224-01:22:32|10=211||0|
M|351|0|0|I|20110224-01:23:02.475|79|8=FIX.4.0|9=57|35=0|34=351|49=RBSE40|56=NYFXINTL40|52=20110224-01:23:02|10=210||0|
M|352|0|0|I|20110224-01:23:32.534|79|8=FIX.4.0|9=57|35=0|34=352|49=RBSE40|56=NYFXINTL40|52=20110224-01:23:32|10=214||0|
M|353|0|0|I|20110224-01:24:02.592|79|8=FIX.4.0|9=57|35=0|34=353|49=RBSE40|56=NYFXINTL40|52=20110224-01:24:02|10=213||0|
M|354|0|0|I|20110224-01:24:32.671|79|8=FIX.4.0|9=57|35=0|34=354|49=RBSE40|56=NYFXINTL40|52=20110224-01:24:32|10=217||0|
M|355|0|0|I|20110224-01:25:02.720|79|8=FIX.4.0|9=57|35=0|34=355|49=RBSE40|56=NYFXINTL40|52=20110224-01:25:02|10=216||0|
M|356|0|0|I|20110224-01:25:32.788|79|8=FIX.4.0|9=57|35=0|34=356|49=RBSE40|56=NYFXINTL40|52=20110224-01:25:32|10=220||0|
M|357|0|0|I|20110224-01:26:02.857|79|8=FIX.4.0|9=57|35=0|34=357|49=RBSE40|56=NYFXINTL40|52=20110224-01:26:02|10=219||0|
M|358|0|0|I|20110224-01:26:32.936|79|8=FIX.4.0|9=57|35=0|34=358|49=RBSE40|56=NYFXINTL40|52=20110224-01:26:32|10=223||0|
M|359|0|0|I|20110224-01:27:02.994|79|8=FIX.4.0|9=57|35=0|34=359|49=RBSE40|56=NYFXINTL40|52=20110224-01:27:02|10=222||0|
M|360|0|0|I|20110224-01:27:33.053|79|8=FIX.4.0|9=57|35=0|34=360|49=RBSE40|56=NYFXINTL40|52=20110224-01:27:33|10=218||0|
M|361|0|0|I|20110224-01:28:03.122|79|8=FIX.4.0|9=57|35=0|34=361|49=RBSE40|56=NYFXINTL40|52=20110224-01:28:03|10=217||0|
M|362|0|0|I|20110224-01:28:33.201|79|8=FIX.4.0|9=57|35=0|34=362|49=RBSE40|56=NYFXINTL40|52=20110224-01:28:33|10=221||0|
M|363|0|0|I|20110224-01:29:03.279|79|8=FIX.4.0|9=57|35=0|34=363|49=RBSE40|56=NYFXINTL40|52=20110224-01:29:03|10=220||0|
M|364|0|0|I|20110224-01:29:33.348|79|8=FIX.4.0|9=57|35=0|34=364|49=RBSE40|56=NYFXINTL40|52=20110224-01:29:33|10=224||0|
M|365|0|0|I|20110224-01:30:03.417|79|8=FIX.4.0|9=57|35=0|34=365|49=RBSE40|56=NYFXINTL40|52=20110224-01:30:03|10=214||0|
M|366|0|0|I|20110224-01:30:33.495|79|8=FIX.4.0|9=57|35=0|34=366|49=RBSE40|56=NYFXINTL40|52=20110224-01:30:33|10=218||0|
M|367|0|0|I|20110224-01:31:03.554|79|8=FIX.4.0|9=57|35=0|34=367|49=RBSE40|56=NYFXINTL40|52=20110224-01:31:03|10=217||0|
M|368|0|0|I|20110224-01:31:33.613|79|8=FIX.4.0|9=57|35=0|34=368|49=RBSE40|56=NYFXINTL40|52=20110224-01:31:33|10=221||0|
M|369|0|0|I|20110224-01:32:03.681|79|8=FIX.4.0|9=57|35=0|34=369|49=RBSE40|56=NYFXINTL40|52=20110224-01:32:03|10=220||0|
M|370|0|0|I|20110224-01:32:33.700|79|8=FIX.4.0|9=57|35=0|34=370|49=RBSE40|56=NYFXINTL40|52=20110224-01:32:33|10=215||0|
M|371|0|0|I|20110224-01:33:03.779|79|8=FIX.4.0|9=57|35=0|34=371|49=RBSE40|56=NYFXINTL40|52=20110224-01:33:03|10=214||0|
M|372|0|0|I|20110224-01:33:33.857|79|8=FIX.4.0|9=57|35=0|34=372|49=RBSE40|56=NYFXINTL40|52=20110224-01:33:33|10=218||0|
M|373|0|0|I|20110224-01:34:03.936|79|8=FIX.4.0|9=57|35=0|34=373|49=RBSE40|56=NYFXINTL40|52=20110224-01:34:03|10=217||0|
M|374|0|0|I|20110224-01:34:34.005|79|8=FIX.4.0|9=57|35=0|34=374|49=RBSE40|56=NYFXINTL40|52=20110224-01:34:34|10=222||0|
M|375|0|0|I|20110224-01:35:04.083|79|8=FIX.4.0|9=57|35=0|34=375|49=RBSE40|56=NYFXINTL40|52=20110224-01:35:04|10=221||0|
M|376|0|0|I|20110224-01:35:34.142|79|8=FIX.4.0|9=57|35=0|34=376|49=RBSE40|56=NYFXINTL40|52=20110224-01:35:34|10=225||0|
M|377|0|0|I|20110224-01:36:04.221|79|8=FIX.4.0|9=57|35=0|34=377|49=RBSE40|56=NYFXINTL40|52=20110224-01:36:04|10=224||0|
M|378|0|0|I|20110224-01:36:34.300|79|8=FIX.4.0|9=57|35=0|34=378|49=RBSE40|56=NYFXINTL40|52=20110224-01:36:34|10=228||0|
M|379|0|0|I|20110224-01:37:04.379|79|8=FIX.4.0|9=57|35=0|34=379|49=RBSE40|56=NYFXINTL40|52=20110224-01:37:04|10=227||0|
M|380|0|0|I|20110224-01:37:34.447|79|8=FIX.4.0|9=57|35=0|34=380|49=RBSE40|56=NYFXINTL40|52=20110224-01:37:34|10=222||0|
M|381|0|0|I|20110224-01:38:04.496|79|8=FIX.4.0|9=57|35=0|34=381|49=RBSE40|56=NYFXINTL40|52=20110224-01:38:04|10=221||0|
M|382|0|0|I|20110224-01:38:34.554|79|8=FIX.4.0|9=57|35=0|34=382|49=RBSE40|56=NYFXINTL40|52=20110224-01:38:34|10=225||0|
M|383|0|0|I|20110224-01:39:04.613|79|8=FIX.4.0|9=57|35=0|34=383|49=RBSE40|56=NYFXINTL40|52=20110224-01:39:04|10=224||0|
M|384|0|0|I|20110224-01:39:34.682|79|8=FIX.4.0|9=57|35=0|34=384|49=RBSE40|56=NYFXINTL40|52=20110224-01:39:34|10=228||0|
M|385|0|0|I|20110224-01:40:04.760|79|8=FIX.4.0|9=57|35=0|34=385|49=RBSE40|56=NYFXINTL40|52=20110224-01:40:04|10=218||0|
M|386|0|0|I|20110224-01:40:34.819|79|8=FIX.4.0|9=57|35=0|34=386|49=RBSE40|56=NYFXINTL40|52=20110224-01:40:34|10=222||0|
M|387|0|0|I|20110224-01:41:04.868|79|8=FIX.4.0|9=57|35=0|34=387|49=RBSE40|56=NYFXINTL40|52=20110224-01:41:04|10=221||0|
M|388|0|0|I|20110224-01:41:34.936|79|8=FIX.4.0|9=57|35=0|34=388|49=RBSE40|56=NYFXINTL40|52=20110224-01:41:34|10=225||0|
M|389|0|0|I|20110224-01:42:05.005|79|8=FIX.4.0|9=57|35=0|34=389|49=RBSE40|56=NYFXINTL40|52=20110224-01:42:05|10=225||0|
M|390|0|0|I|20110224-01:42:35.064|79|8=FIX.4.0|9=57|35=0|34=390|49=RBSE40|56=NYFXINTL40|52=20110224-01:42:35|10=220||0|
M|391|0|0|I|20110224-01:43:05.143|79|8=FIX.4.0|9=57|35=0|34=391|49=RBSE40|56=NYFXINTL40|52=20110224-01:43:05|10=219||0|
M|392|0|0|I|20110224-01:43:35.201|79|8=FIX.4.0|9=57|35=0|34=392|49=RBSE40|56=NYFXINTL40|52=20110224-01:43:35|10=223||0|
M|393|0|0|I|20110224-01:44:05.280|79|8=FIX.4.0|9=57|35=0|34=393|49=RBSE40|56=NYFXINTL40|52=20110224-01:44:05|10=222||0|
M|394|0|0|I|20110224-01:44:35.339|79|8=FIX.4.0|9=57|35=0|34=394|49=RBSE40|56=NYFXINTL40|52=20110224-01:44:35|10=226||0|
M|395|0|0|I|20110224-01:45:05.417|79|8=FIX.4.0|9=57|35=0|34=395|49=RBSE40|56=NYFXINTL40|52=20110224-01:45:05|10=225||0|
M|396|0|0|I|20110224-01:45:35.486|79|8=FIX.4.0|9=57|35=0|34=396|49=RBSE40|56=NYFXINTL40|52=20110224-01:45:35|10=229||0|
M|397|0|0|I|20110224-01:46:05.535|79|8=FIX.4.0|9=57|35=0|34=397|49=RBSE40|56=NYFXINTL40|52=20110224-01:46:05|10=228||0|
M|398|0|0|I|20110224-01:46:35.613|79|8=FIX.4.0|9=57|35=0|34=398|49=RBSE40|56=NYFXINTL40|52=20110224-01:46:35|10=232||0|
M|399|0|0|I|20110224-01:47:05.682|79|8=FIX.4.0|9=57|35=0|34=399|49=RBSE40|56=NYFXINTL40|52=20110224-01:47:05|10=231||0|
M|400|0|0|I|20110224-01:47:35.761|79|8=FIX.4.0|9=57|35=0|34=400|49=RBSE40|56=NYFXINTL40|52=20110224-01:47:35|10=217||0|
M|401|0|0|I|20110224-01:48:05.809|79|8=FIX.4.0|9=57|35=0|34=401|49=RBSE40|56=NYFXINTL40|52=20110224-01:48:05|10=216||0|
M|402|0|0|I|20110224-01:48:35.888|79|8=FIX.4.0|9=57|35=0|34=402|49=RBSE40|56=NYFXINTL40|52=20110224-01:48:35|10=220||0|
M|403|0|0|I|20110224-01:49:05.957|79|8=FIX.4.0|9=57|35=0|34=403|49=RBSE40|56=NYFXINTL40|52=20110224-01:49:05|10=219||0|
M|404|0|0|I|20110224-01:49:36.035|79|8=FIX.4.0|9=57|35=0|34=404|49=RBSE40|56=NYFXINTL40|52=20110224-01:49:36|10=224||0|
M|405|0|0|I|20110224-01:50:06.104|79|8=FIX.4.0|9=57|35=0|34=405|49=RBSE40|56=NYFXINTL40|52=20110224-01:50:06|10=214||0|
M|406|0|0|I|20110224-01:50:36.183|79|8=FIX.4.0|9=57|35=0|34=406|49=RBSE40|56=NYFXINTL40|52=20110224-01:50:36|10=218||0|
M|407|0|0|I|20110224-01:51:06.261|79|8=FIX.4.0|9=57|35=0|34=407|49=RBSE40|56=NYFXINTL40|52=20110224-01:51:06|10=217||0|
M|408|0|0|I|20110224-01:51:36.341|79|8=FIX.4.0|9=57|35=0|34=408|49=RBSE40|56=NYFXINTL40|52=20110224-01:51:36|10=221||0|
M|409|0|0|I|20110224-01:52:06.409|79|8=FIX.4.0|9=57|35=0|34=409|49=RBSE40|56=NYFXINTL40|52=20110224-01:52:06|10=220||0|
M|410|0|0|I|20110224-01:52:36.457|79|8=FIX.4.0|9=57|35=0|34=410|49=RBSE40|56=NYFXINTL40|52=20110224-01:52:36|10=215||0|
M|411|0|0|I|20110224-01:53:06.536|79|8=FIX.4.0|9=57|35=0|34=411|49=RBSE40|56=NYFXINTL40|52=20110224-01:53:06|10=214||0|
M|412|0|0|I|20110224-01:53:36.595|79|8=FIX.4.0|9=57|35=0|34=412|49=RBSE40|56=NYFXINTL40|52=20110224-01:53:36|10=218||0|
M|413|0|0|I|20110224-01:54:06.664|79|8=FIX.4.0|9=57|35=0|34=413|49=RBSE40|56=NYFXINTL40|52=20110224-01:54:06|10=217||0|
M|414|0|0|I|20110224-01:54:36.722|79|8=FIX.4.0|9=57|35=0|34=414|49=RBSE40|56=NYFXINTL40|52=20110224-01:54:36|10=221||0|
M|415|0|0|I|20110224-01:55:06.801|79|8=FIX.4.0|9=57|35=0|34=415|49=RBSE40|56=NYFXINTL40|52=20110224-01:55:06|10=220||0|
M|416|0|0|I|20110224-01:55:36.870|79|8=FIX.4.0|9=57|35=0|34=416|49=RBSE40|56=NYFXINTL40|52=20110224-01:55:36|10=224||0|
M|417|0|0|I|20110224-01:56:06.948|79|8=FIX.4.0|9=57|35=0|34=417|49=RBSE40|56=NYFXINTL40|52=20110224-01:56:06|10=223||0|
M|418|0|0|I|20110224-01:56:37.037|79|8=FIX.4.0|9=57|35=0|34=418|49=RBSE40|56=NYFXINTL40|52=20110224-01:56:37|10=228||0|
M|419|0|0|I|20110224-01:57:07.106|79|8=FIX.4.0|9=57|35=0|34=419|49=RBSE40|56=NYFXINTL40|52=20110224-01:57:07|10=227||0|
M|420|0|0|I|20110224-01:57:37.184|79|8=FIX.4.0|9=57|35=0|34=420|49=RBSE40|56=NYFXINTL40|52=20110224-01:57:37|10=222||0|
M|421|0|0|I|20110224-01:58:07.263|79|8=FIX.4.0|9=57|35=0|34=421|49=RBSE40|56=NYFXINTL40|52=20110224-01:58:07|10=221||0|
M|422|0|0|I|20110224-01:58:37.342|79|8=FIX.4.0|9=57|35=0|34=422|49=RBSE40|56=NYFXINTL40|52=20110224-01:58:37|10=225||0|
M|423|0|0|I|20110224-01:59:07.391|79|8=FIX.4.0|9=57|35=0|34=423|49=RBSE40|56=NYFXINTL40|52=20110224-01:59:07|10=224||0|
M|424|0|0|I|20110224-01:59:37.449|79|8=FIX.4.0|9=57|35=0|34=424|49=RBSE40|56=NYFXINTL40|52=20110224-01:59:37|10=228||0|
M|425|0|0|I|20110224-02:00:07.518|79|8=FIX.4.0|9=57|35=0|34=425|49=RBSE40|56=NYFXINTL40|52=20110224-02:00:07|10=213||0|
M|426|0|0|I|20110224-02:00:37.587|79|8=FIX.4.0|9=57|35=0|34=426|49=RBSE40|56=NYFXINTL40|52=20110224-02:00:37|10=217||0|
M|427|0|0|I|20110224-02:01:07.665|79|8=FIX.4.0|9=57|35=0|34=427|49=RBSE40|56=NYFXINTL40|52=20110224-02:01:07|10=216||0|
M|428|0|0|I|20110224-02:01:37.744|79|8=FIX.4.0|9=57|35=0|34=428|49=RBSE40|56=NYFXINTL40|52=20110224-02:01:37|10=220||0|
M|429|0|0|I|20110224-02:02:07.813|79|8=FIX.4.0|9=57|35=0|34=429|49=RBSE40|56=NYFXINTL40|52=20110224-02:02:07|10=219||0|
M|430|0|0|I|20110224-02:02:37.881|79|8=FIX.4.0|9=57|35=0|34=430|49=RBSE40|56=NYFXINTL40|52=20110224-02:02:37|10=214||0|
M|431|0|0|I|20110224-02:03:07.960|79|8=FIX.4.0|9=57|35=0|34=431|49=RBSE40|56=NYFXINTL40|52=20110224-02:03:07|10=213||0|
M|432|0|0|I|20110224-02:03:38.029|79|8=FIX.4.0|9=57|35=0|34=432|49=RBSE40|56=NYFXINTL40|52=20110224-02:03:38|10=218||0|
M|433|0|0|I|20110224-02:04:08.187|79|8=FIX.4.0|9=57|35=0|34=433|49=RBSE40|56=NYFXINTL40|52=20110224-02:04:08|10=217||0|
M|434|0|0|I|20110224-02:04:38.266|79|8=FIX.4.0|9=57|35=0|34=434|49=RBSE40|56=NYFXINTL40|52=20110224-02:04:38|10=221||0|
M|435|0|0|I|20110224-02:05:08.315|79|8=FIX.4.0|9=57|35=0|34=435|49=RBSE40|56=NYFXINTL40|52=20110224-02:05:08|10=220||0|
M|436|0|0|I|20110224-02:05:38.384|79|8=FIX.4.0|9=57|35=0|34=436|49=RBSE40|56=NYFXINTL40|52=20110224-02:05:38|10=224||0|
M|437|0|0|I|20110224-02:06:08.462|79|8=FIX.4.0|9=57|35=0|34=437|49=RBSE40|56=NYFXINTL40|52=20110224-02:06:08|10=223||0|
M|438|0|0|I|20110224-02:06:38.531|79|8=FIX.4.0|9=57|35=0|34=438|49=RBSE40|56=NYFXINTL40|52=20110224-02:06:38|10=227||0|
M|439|0|0|I|20110224-02:07:08.580|79|8=FIX.4.0|9=57|35=0|34=439|49=RBSE40|56=NYFXINTL40|52=20110224-02:07:08|10=226||0|
M|440|0|0|I|20110224-02:07:38.648|79|8=FIX.4.0|9=57|35=0|34=440|49=RBSE40|56=NYFXINTL40|52=20110224-02:07:38|10=221||0|
M|441|0|0|I|20110224-02:08:08.717|79|8=FIX.4.0|9=57|35=0|34=441|49=RBSE40|56=NYFXINTL40|52=20110224-02:08:08|10=220||0|
M|442|0|0|I|20110224-02:08:38.776|79|8=FIX.4.0|9=57|35=0|34=442|49=RBSE40|56=NYFXINTL40|52=20110224-02:08:38|10=224||0|
M|443|0|0|I|20110224-02:09:08.844|79|8=FIX.4.0|9=57|35=0|34=443|49=RBSE40|56=NYFXINTL40|52=20110224-02:09:08|10=223||0|
M|444|0|0|I|20110224-02:09:38.893|79|8=FIX.4.0|9=57|35=0|34=444|49=RBSE40|56=NYFXINTL40|52=20110224-02:09:38|10=227||0|
M|445|0|0|I|20110224-02:10:08.982|79|8=FIX.4.0|9=57|35=0|34=445|49=RBSE40|56=NYFXINTL40|52=20110224-02:10:08|10=217||0|
M|446|0|0|I|20110224-02:10:39.040|79|8=FIX.4.0|9=57|35=0|34=446|49=RBSE40|56=NYFXINTL40|52=20110224-02:10:39|10=222||0|
M|447|0|0|I|20110224-02:11:09.099|79|8=FIX.4.0|9=57|35=0|34=447|49=RBSE40|56=NYFXINTL40|52=20110224-02:11:09|10=221||0|
M|448|0|0|I|20110224-02:11:39.188|79|8=FIX.4.0|9=57|35=0|34=448|49=RBSE40|56=NYFXINTL40|52=20110224-02:11:39|10=225||0|
M|449|0|0|I|20110224-02:12:09.246|79|8=FIX.4.0|9=57|35=0|34=449|49=RBSE40|56=NYFXINTL40|52=20110224-02:12:09|10=224||0|
M|450|0|0|I|20110224-02:12:39.315|79|8=FIX.4.0|9=57|35=0|34=450|49=RBSE40|56=NYFXINTL40|52=20110224-02:12:39|10=219||0|
M|451|0|0|I|20110224-02:13:09.404|79|8=FIX.4.0|9=57|35=0|34=451|49=RBSE40|56=NYFXINTL40|52=20110224-02:13:09|10=218||0|
M|452|0|0|I|20110224-02:13:39.462|79|8=FIX.4.0|9=57|35=0|34=452|49=RBSE40|56=NYFXINTL40|52=20110224-02:13:39|10=222||0|
M|453|0|0|I|20110224-02:14:09.511|79|8=FIX.4.0|9=57|35=0|34=453|49=RBSE40|56=NYFXINTL40|52=20110224-02:14:09|10=221||0|
M|454|0|0|I|20110224-02:14:39.570|79|8=FIX.4.0|9=57|35=0|34=454|49=RBSE40|56=NYFXINTL40|52=20110224-02:14:39|10=225||0|
M|455|0|0|I|20110224-02:15:09.619|79|8=FIX.4.0|9=57|35=0|34=455|49=RBSE40|56=NYFXINTL40|52=20110224-02:15:09|10=224||0|
M|456|0|0|I|20110224-02:15:39.677|79|8=FIX.4.0|9=57|35=0|34=456|49=RBSE40|56=NYFXINTL40|52=20110224-02:15:39|10=228||0|
M|457|0|0|I|20110224-02:16:09.736|79|8=FIX.4.0|9=57|35=0|34=457|49=RBSE40|56=NYFXINTL40|52=20110224-02:16:09|10=227||0|
M|458|0|0|I|20110224-02:16:39.795|79|8=FIX.4.0|9=57|35=0|34=458|49=RBSE40|56=NYFXINTL40|52=20110224-02:16:39|10=231||0|
M|459|0|0|I|20110224-02:17:09.853|79|8=FIX.4.0|9=57|35=0|34=459|49=RBSE40|56=NYFXINTL40|52=20110224-02:17:09|10=230||0|
M|460|0|0|I|20110224-02:17:39.922|79|8=FIX.4.0|9=57|35=0|34=460|49=RBSE40|56=NYFXINTL40|52=20110224-02:17:39|10=225||0|
M|461|0|0|I|20110224-02:18:09.981|79|8=FIX.4.0|9=57|35=0|34=461|49=RBSE40|56=NYFXINTL40|52=20110224-02:18:09|10=224||0|
M|462|0|0|I|20110224-02:18:40.069|79|8=FIX.4.0|9=57|35=0|34=462|49=RBSE40|56=NYFXINTL40|52=20110224-02:18:40|10=220||0|
M|463|0|0|I|20110224-02:19:10.138|79|8=FIX.4.0|9=57|35=0|34=463|49=RBSE40|56=NYFXINTL40|52=20110224-02:19:10|10=219||0|
M|464|0|0|I|20110224-02:19:40.207|79|8=FIX.4.0|9=57|35=0|34=464|49=RBSE40|56=NYFXINTL40|52=20110224-02:19:40|10=223||0|
M|465|0|0|I|20110224-02:20:10.266|79|8=FIX.4.0|9=57|35=0|34=465|49=RBSE40|56=NYFXINTL40|52=20110224-02:20:10|10=213||0|
M|466|0|0|I|20110224-02:20:40.324|79|8=FIX.4.0|9=57|35=0|34=466|49=RBSE40|56=NYFXINTL40|52=20110224-02:20:40|10=217||0|
M|467|0|0|I|20110224-02:21:10.403|79|8=FIX.4.0|9=57|35=0|34=467|49=RBSE40|56=NYFXINTL40|52=20110224-02:21:10|10=216||0|
M|468|0|0|I|20110224-02:21:40.482|79|8=FIX.4.0|9=57|35=0|34=468|49=RBSE40|56=NYFXINTL40|52=20110224-02:21:40|10=220||0|
M|469|0|0|I|20110224-02:22:10.550|79|8=FIX.4.0|9=57|35=0|34=469|49=RBSE40|56=NYFXINTL40|52=20110224-02:22:10|10=219||0|
M|470|0|0|I|20110224-02:22:40.629|79|8=FIX.4.0|9=57|35=0|34=470|49=RBSE40|56=NYFXINTL40|52=20110224-02:22:40|10=214||0|
M|471|0|0|I|20110224-02:23:10.708|79|8=FIX.4.0|9=57|35=0|34=471|49=RBSE40|56=NYFXINTL40|52=20110224-02:23:10|10=213||0|
M|472|0|0|I|20110224-02:23:40.776|79|8=FIX.4.0|9=57|35=0|34=472|49=RBSE40|56=NYFXINTL40|52=20110224-02:23:40|10=217||0|
M|473|0|0|I|20110224-02:24:10.845|79|8=FIX.4.0|9=57|35=0|34=473|49=RBSE40|56=NYFXINTL40|52=20110224-02:24:10|10=216||0|
M|474|0|0|I|20110224-02:24:40.904|79|8=FIX.4.0|9=57|35=0|34=474|49=RBSE40|56=NYFXINTL40|52=20110224-02:24:40|10=220||0|
M|475|0|0|I|20110224-02:25:10.982|79|8=FIX.4.0|9=57|35=0|34=475|49=RBSE40|56=NYFXINTL40|52=20110224-02:25:10|10=219||0|
M|476|0|0|I|20110224-02:25:41.051|79|8=FIX.4.0|9=57|35=0|34=476|49=RBSE40|56=NYFXINTL40|52=20110224-02:25:41|10=224||0|
M|477|0|0|I|20110224-02:26:11.120|79|8=FIX.4.0|9=57|35=0|34=477|49=RBSE40|56=NYFXINTL40|52=20110224-02:26:11|10=223||0|
M|478|0|0|I|20110224-02:26:41.168|79|8=FIX.4.0|9=57|35=0|34=478|49=RBSE40|56=NYFXINTL40|52=20110224-02:26:41|10=227||0|
M|479|0|0|I|20110224-02:27:11.248|79|8=FIX.4.0|9=57|35=0|34=479|49=RBSE40|56=NYFXINTL40|52=20110224-02:27:11|10=226||0|
M|480|0|0|I|20110224-02:27:41.306|79|8=FIX.4.0|9=57|35=0|34=480|49=RBSE40|56=NYFXINTL40|52=20110224-02:27:41|10=221||0|
M|481|0|0|I|20110224-02:28:11.365|79|8=FIX.4.0|9=57|35=0|34=481|49=RBSE40|56=NYFXINTL40|52=20110224-02:28:11|10=220||0|
M|482|0|0|I|20110224-02:28:41.433|79|8=FIX.4.0|9=57|35=0|34=482|49=RBSE40|56=NYFXINTL40|52=20110224-02:28:41|10=224||0|
M|483|0|0|I|20110224-02:29:11.512|79|8=FIX.4.0|9=57|35=0|34=483|49=RBSE40|56=NYFXINTL40|52=20110224-02:29:11|10=223||0|
M|484|0|0|I|20110224-02:29:41.591|79|8=FIX.4.0|9=57|35=0|34=484|49=RBSE40|56=NYFXINTL40|52=20110224-02:29:41|10=227||0|
M|485|0|0|I|20110224-02:30:11.659|79|8=FIX.4.0|9=57|35=0|34=485|49=RBSE40|56=NYFXINTL40|52=20110224-02:30:11|10=217||0|
M|486|0|0|I|20110224-02:30:41.728|79|8=FIX.4.0|9=57|35=0|34=486|49=RBSE40|56=NYFXINTL40|52=20110224-02:30:41|10=221||0|
M|487|0|0|I|20110224-02:31:11.807|79|8=FIX.4.0|9=57|35=0|34=487|49=RBSE40|56=NYFXINTL40|52=20110224-02:31:11|10=220||0|
M|488|0|0|I|20110224-02:31:41.885|79|8=FIX.4.0|9=57|35=0|34=488|49=RBSE40|56=NYFXINTL40|52=20110224-02:31:41|10=224||0|
M|489|0|0|I|20110224-02:32:11.954|79|8=FIX.4.0|9=57|35=0|34=489|49=RBSE40|56=NYFXINTL40|52=20110224-02:32:11|10=223||0|
M|490|0|0|I|20110224-02:32:42.013|79|8=FIX.4.0|9=57|35=0|34=490|49=RBSE40|56=NYFXINTL40|52=20110224-02:32:42|10=219||0|
M|491|0|0|I|20110224-02:33:12.091|79|8=FIX.4.0|9=57|35=0|34=491|49=RBSE40|56=NYFXINTL40|52=20110224-02:33:12|10=218||0|
M|492|0|0|I|20110224-02:33:42.170|79|8=FIX.4.0|9=57|35=0|34=492|49=RBSE40|56=NYFXINTL40|52=20110224-02:33:42|10=222||0|
M|493|0|0|I|20110224-02:34:12.249|79|8=FIX.4.0|9=57|35=0|34=493|49=RBSE40|56=NYFXINTL40|52=20110224-02:34:12|10=221||0|
M|494|0|0|I|20110224-02:34:42.327|79|8=FIX.4.0|9=57|35=0|34=494|49=RBSE40|56=NYFXINTL40|52=20110224-02:34:42|10=225||0|
M|495|0|0|I|20110224-02:35:12.366|79|8=FIX.4.0|9=57|35=0|34=495|49=RBSE40|56=NYFXINTL40|52=20110224-02:35:12|10=224||0|
M|496|0|0|I|20110224-02:35:42.435|79|8=FIX.4.0|9=57|35=0|34=496|49=RBSE40|56=NYFXINTL40|52=20110224-02:35:42|10=228||0|
M|497|0|0|I|20110224-02:36:12.504|79|8=FIX.4.0|9=57|35=0|34=497|49=RBSE40|56=NYFXINTL40|52=20110224-02:36:12|10=227||0|
M|498|0|0|I|20110224-02:36:42.552|79|8=FIX.4.0|9=57|35=0|34=498|49=RBSE40|56=NYFXINTL40|52=20110224-02:36:42|10=231||0|
M|499|0|0|I|20110224-02:37:12.611|79|8=FIX.4.0|9=57|35=0|34=499|49=RBSE40|56=NYFXINTL40|52=20110224-02:37:12|10=230||0|
M|500|0|0|I|20110224-02:37:42.650|79|8=FIX.4.0|9=57|35=0|34=500|49=RBSE40|56=NYFXINTL40|52=20110224-02:37:42|10=216||0|
M|501|0|0|I|20110224-02:38:12.718|79|8=FIX.4.0|9=57|35=0|34=501|49=RBSE40|56=NYFXINTL40|52=20110224-02:38:12|10=215||0|
M|502|0|0|I|20110224-02:38:42.767|79|8=FIX.4.0|9=57|35=0|34=502|49=RBSE40|56=NYFXINTL40|52=20110224-02:38:42|10=219||0|
M|503|0|0|I|20110224-02:39:12.816|79|8=FIX.4.0|9=57|35=0|34=503|49=RBSE40|56=NYFXINTL40|52=20110224-02:39:12|10=218||0|
M|504|0|0|I|20110224-02:39:42.864|79|8=FIX.4.0|9=57|35=0|34=504|49=RBSE40|56=NYFXINTL40|52=20110224-02:39:42|10=222||0|
M|505|0|0|I|20110224-02:40:12.903|79|8=FIX.4.0|9=57|35=0|34=505|49=RBSE40|56=NYFXINTL40|52=20110224-02:40:12|10=212||0|
M|506|0|0|I|20110224-02:40:42.962|79|8=FIX.4.0|9=57|35=0|34=506|49=RBSE40|56=NYFXINTL40|52=20110224-02:40:42|10=216||0|
M|507|0|0|I|20110224-02:41:13.000|79|8=FIX.4.0|9=57|35=0|34=507|49=RBSE40|56=NYFXINTL40|52=20110224-02:41:13|10=216||0|
M|508|0|0|I|20110224-02:41:43.069|79|8=FIX.4.0|9=57|35=0|34=508|49=RBSE40|56=NYFXINTL40|52=20110224-02:41:43|10=220||0|
M|509|0|0|I|20110224-02:42:13.128|79|8=FIX.4.0|9=57|35=0|34=509|49=RBSE40|56=NYFXINTL40|52=20110224-02:42:13|10=219||0|
M|510|0|0|I|20110224-02:42:43.208|79|8=FIX.4.0|9=57|35=0|34=510|49=RBSE40|56=NYFXINTL40|52=20110224-02:42:43|10=214||0|
M|511|0|0|I|20110224-02:43:13.265|79|8=FIX.4.0|9=57|35=0|34=511|49=RBSE40|56=NYFXINTL40|52=20110224-02:43:13|10=213||0|
M|512|0|0|I|20110224-02:43:43.334|79|8=FIX.4.0|9=57|35=0|34=512|49=RBSE40|56=NYFXINTL40|52=20110224-02:43:43|10=217||0|
M|513|0|0|I|20110224-02:44:13.423|79|8=FIX.4.0|9=57|35=0|34=513|49=RBSE40|56=NYFXINTL40|52=20110224-02:44:13|10=216||0|
M|514|0|0|I|20110224-02:44:43.491|79|8=FIX.4.0|9=57|35=0|34=514|49=RBSE40|56=NYFXINTL40|52=20110224-02:44:43|10=220||0|
M|515|0|0|I|20110224-02:45:13.570|79|8=FIX.4.0|9=57|35=0|34=515|49=RBSE40|56=NYFXINTL40|52=20110224-02:45:13|10=219||0|
M|516|0|0|I|20110224-02:45:43.639|79|8=FIX.4.0|9=57|35=0|34=516|49=RBSE40|56=NYFXINTL40|52=20110224-02:45:43|10=223||0|
M|517|0|0|I|20110224-02:46:13.727|79|8=FIX.4.0|9=57|35=0|34=517|49=RBSE40|56=NYFXINTL40|52=20110224-02:46:13|10=222||0|
M|518|0|0|I|20110224-02:46:43.766|79|8=FIX.4.0|9=57|35=0|34=518|49=RBSE40|56=NYFXINTL40|52=20110224-02:46:43|10=226||0|
M|519|0|0|I|20110224-02:47:13.835|79|8=FIX.4.0|9=57|35=0|34=519|49=RBSE40|56=NYFXINTL40|52=20110224-02:47:13|10=225||0|
M|520|0|0|I|20110224-02:47:43.903|79|8=FIX.4.0|9=57|35=0|34=520|49=RBSE40|56=NYFXINTL40|52=20110224-02:47:43|10=220||0|
M|521|0|0|I|20110224-02:48:13.972|79|8=FIX.4.0|9=57|35=0|34=521|49=RBSE40|56=NYFXINTL40|52=20110224-02:48:13|10=219||0|
M|522|0|0|I|20110224-02:48:44.061|79|8=FIX.4.0|9=57|35=0|34=522|49=RBSE40|56=NYFXINTL40|52=20110224-02:48:44|10=224||0|
M|523|0|0|I|20110224-02:49:14.129|79|8=FIX.4.0|9=57|35=0|34=523|49=RBSE40|56=NYFXINTL40|52=20110224-02:49:14|10=223||0|
M|524|0|0|I|20110224-02:49:44.208|79|8=FIX.4.0|9=57|35=0|34=524|49=RBSE40|56=NYFXINTL40|52=20110224-02:49:44|10=227||0|
M|525|0|0|I|20110224-02:50:14.267|79|8=FIX.4.0|9=57|35=0|34=525|49=RBSE40|56=NYFXINTL40|52=20110224-02:50:14|10=217||0|
M|526|0|0|I|20110224-02:50:44.336|79|8=FIX.4.0|9=57|35=0|34=526|49=RBSE40|56=NYFXINTL40|52=20110224-02:50:44|10=221||0|
M|527|0|0|I|20110224-02:51:14.414|79|8=FIX.4.0|9=57|35=0|34=527|49=RBSE40|56=NYFXINTL40|52=20110224-02:51:14|10=220||0|
M|528|0|0|I|20110224-02:51:44.483|79|8=FIX.4.0|9=57|35=0|34=528|49=RBSE40|56=NYFXINTL40|52=20110224-02:51:44|10=224||0|
M|529|0|0|I|20110224-02:52:14.532|79|8=FIX.4.0|9=57|35=0|34=529|49=RBSE40|56=NYFXINTL40|52=20110224-02:52:14|10=223||0|
M|530|0|0|I|20110224-02:52:44.600|79|8=FIX.4.0|9=57|35=0|34=530|49=RBSE40|56=NYFXINTL40|52=20110224-02:52:44|10=218||0|
M|531|0|0|I|20110224-02:53:14.669|79|8=FIX.4.0|9=57|35=0|34=531|49=RBSE40|56=NYFXINTL40|52=20110224-02:53:14|10=217||0|
M|532|0|0|I|20110224-02:53:44.738|79|8=FIX.4.0|9=57|35=0|34=532|49=RBSE40|56=NYFXINTL40|52=20110224-02:53:44|10=221||0|
M|533|0|0|I|20110224-02:54:14.806|79|8=FIX.4.0|9=57|35=0|34=533|49=RBSE40|56=NYFXINTL40|52=20110224-02:54:14|10=220||0|
M|534|0|0|I|20110224-02:54:44.845|79|8=FIX.4.0|9=57|35=0|34=534|49=RBSE40|56=NYFXINTL40|52=20110224-02:54:44|10=224||0|
M|535|0|0|I|20110224-02:55:14.924|79|8=FIX.4.0|9=57|35=0|34=535|49=RBSE40|56=NYFXINTL40|52=20110224-02:55:14|10=223||0|
M|536|0|0|I|20110224-02:55:44.992|79|8=FIX.4.0|9=57|35=0|34=536|49=RBSE40|56=NYFXINTL40|52=20110224-02:55:44|10=227||0|
M|537|0|0|I|20110224-02:56:15.071|79|8=FIX.4.0|9=57|35=0|34=537|49=RBSE40|56=NYFXINTL40|52=20110224-02:56:15|10=227||0|
M|538|0|0|I|20110224-02:56:45.150|79|8=FIX.4.0|9=57|35=0|34=538|49=RBSE40|56=NYFXINTL40|52=20110224-02:56:45|10=231||0|
M|539|0|0|I|20110224-02:57:15.228|79|8=FIX.4.0|9=57|35=0|34=539|49=RBSE40|56=NYFXINTL40|52=20110224-02:57:15|10=230||0|
M|540|0|0|I|20110224-02:57:45.297|79|8=FIX.4.0|9=57|35=0|34=540|49=RBSE40|56=NYFXINTL40|52=20110224-02:57:45|10=225||0|
M|541|0|0|I|20110224-02:58:15.376|79|8=FIX.4.0|9=57|35=0|34=541|49=RBSE40|56=NYFXINTL40|52=20110224-02:58:15|10=224||0|
M|542|0|0|I|20110224-02:58:45.444|79|8=FIX.4.0|9=57|35=0|34=542|49=RBSE40|56=NYFXINTL40|52=20110224-02:58:45|10=228||0|
M|543|0|0|I|20110224-02:59:15.513|79|8=FIX.4.0|9=57|35=0|34=543|49=RBSE40|56=NYFXINTL40|52=20110224-02:59:15|10=227||0|
M|544|0|0|I|20110224-02:59:45.572|79|8=FIX.4.0|9=57|35=0|34=544|49=RBSE40|56=NYFXINTL40|52=20110224-02:59:45|10=231||0|
M|545|0|0|I|20110224-03:00:15.641|79|8=FIX.4.0|9=57|35=0|34=545|49=RBSE40|56=NYFXINTL40|52=20110224-03:00:15|10=216||0|
M|546|0|0|I|20110224-03:00:45.729|79|8=FIX.4.0|9=57|35=0|34=546|49=RBSE40|56=NYFXINTL40|52=20110224-03:00:45|10=220||0|
M|547|0|0|I|20110224-03:01:15.808|79|8=FIX.4.0|9=57|35=0|34=547|49=RBSE40|56=NYFXINTL40|52=20110224-03:01:15|10=219||0|
M|548|0|0|I|20110224-03:01:45.877|79|8=FIX.4.0|9=57|35=0|34=548|49=RBSE40|56=NYFXINTL40|52=20110224-03:01:45|10=223||0|
M|549|0|0|I|20110224-03:02:15.955|79|8=FIX.4.0|9=57|35=0|34=549|49=RBSE40|56=NYFXINTL40|52=20110224-03:02:15|10=222||0|
M|550|0|0|I|20110224-03:02:46.014|79|8=FIX.4.0|9=57|35=0|34=550|49=RBSE40|56=NYFXINTL40|52=20110224-03:02:46|10=218||0|
M|551|0|0|I|20110224-03:03:16.103|79|8=FIX.4.0|9=57|35=0|34=551|49=RBSE40|56=NYFXINTL40|52=20110224-03:03:16|10=217||0|
M|552|0|0|I|20110224-03:03:46.152|79|8=FIX.4.0|9=57|35=0|34=552|49=RBSE40|56=NYFXINTL40|52=20110224-03:03:46|10=221||0|
M|553|0|0|I|20110224-03:04:16.480|79|8=FIX.4.0|9=57|35=0|34=553|49=RBSE40|56=NYFXINTL40|52=20110224-03:04:16|10=220||0|
M|554|0|0|I|20110224-03:04:46.559|79|8=FIX.4.0|9=57|35=0|34=554|49=RBSE40|56=NYFXINTL40|52=20110224-03:04:46|10=224||0|
M|555|0|0|I|20110224-03:05:16.617|79|8=FIX.4.0|9=57|35=0|34=555|49=RBSE40|56=NYFXINTL40|52=20110224-03:05:16|10=223||0|
M|556|0|0|I|20110224-03:05:46.686|79|8=FIX.4.0|9=57|35=0|34=556|49=RBSE40|56=NYFXINTL40|52=20110224-03:05:46|10=227||0|
M|557|0|0|I|20110224-03:06:16.755|79|8=FIX.4.0|9=57|35=0|34=557|49=RBSE40|56=NYFXINTL40|52=20110224-03:06:16|10=226||0|
M|558|0|0|I|20110224-03:06:46.833|79|8=FIX.4.0|9=57|35=0|34=558|49=RBSE40|56=NYFXINTL40|52=20110224-03:06:46|10=230||0|
M|559|0|0|I|20110224-03:07:16.902|79|8=FIX.4.0|9=57|35=0|34=559|49=RBSE40|56=NYFXINTL40|52=20110224-03:07:16|10=229||0|
M|560|0|0|I|20110224-03:07:46.981|79|8=FIX.4.0|9=57|35=0|34=560|49=RBSE40|56=NYFXINTL40|52=20110224-03:07:46|10=224||0|
M|561|0|0|I|20110224-03:08:17.040|79|8=FIX.4.0|9=57|35=0|34=561|49=RBSE40|56=NYFXINTL40|52=20110224-03:08:17|10=224||0|
M|562|0|0|I|20110224-03:08:47.108|79|8=FIX.4.0|9=57|35=0|34=562|49=RBSE40|56=NYFXINTL40|52=20110224-03:08:47|10=228||0|
M|563|0|0|I|20110224-03:09:17.187|79|8=FIX.4.0|9=57|35=0|34=563|49=RBSE40|56=NYFXINTL40|52=20110224-03:09:17|10=227||0|
M|564|0|0|I|20110224-03:09:47.266|79|8=FIX.4.0|9=57|35=0|34=564|49=RBSE40|56=NYFXINTL40|52=20110224-03:09:47|10=231||0|
M|565|0|0|I|20110224-03:10:17.314|79|8=FIX.4.0|9=57|35=0|34=565|49=RBSE40|56=NYFXINTL40|52=20110224-03:10:17|10=221||0|
M|566|0|0|I|20110224-03:10:47.373|79|8=FIX.4.0|9=57|35=0|34=566|49=RBSE40|56=NYFXINTL40|52=20110224-03:10:47|10=225||0|
M|567|0|0|I|20110224-03:11:17.442|79|8=FIX.4.0|9=57|35=0|34=567|49=RBSE40|56=NYFXINTL40|52=20110224-03:11:17|10=224||0|
M|568|0|0|I|20110224-03:11:47.500|79|8=FIX.4.0|9=57|35=0|34=568|49=RBSE40|56=NYFXINTL40|52=20110224-03:11:47|10=228||0|
M|569|0|0|I|20110224-03:12:17.579|79|8=FIX.4.0|9=57|35=0|34=569|49=RBSE40|56=NYFXINTL40|52=20110224-03:12:17|10=227||0|
M|570|0|0|I|20110224-03:12:47.658|79|8=FIX.4.0|9=57|35=0|34=570|49=RBSE40|56=NYFXINTL40|52=20110224-03:12:47|10=222||0|
M|571|0|0|I|20110224-03:13:17.736|79|8=FIX.4.0|9=57|35=0|34=571|49=RBSE40|56=NYFXINTL40|52=20110224-03:13:17|10=221||0|
M|572|0|0|I|20110224-03:13:47.785|79|8=FIX.4.0|9=57|35=0|34=572|49=RBSE40|56=NYFXINTL40|52=20110224-03:13:47|10=225||0|
M|573|0|0|I|20110224-03:14:17.874|79|8=FIX.4.0|9=57|35=0|34=573|49=RBSE40|56=NYFXINTL40|52=20110224-03:14:17|10=224||0|
M|574|0|0|I|20110224-03:14:47.933|79|8=FIX.4.0|9=57|35=0|34=574|49=RBSE40|56=NYFXINTL40|52=20110224-03:14:47|10=228||0|
M|575|0|0|I|20110224-03:15:17.991|79|8=FIX.4.0|9=57|35=0|34=575|49=RBSE40|56=NYFXINTL40|52=20110224-03:15:17|10=227||0|
M|576|0|0|I|20110224-03:15:48.060|79|8=FIX.4.0|9=57|35=0|34=576|49=RBSE40|56=NYFXINTL40|52=20110224-03:15:48|10=232||0|
M|577|0|0|I|20110224-03:16:18.119|79|8=FIX.4.0|9=57|35=0|34=577|49=RBSE40|56=NYFXINTL40|52=20110224-03:16:18|10=231||0|
M|578|0|0|I|20110224-03:16:48.177|79|8=FIX.4.0|9=57|35=0|34=578|49=RBSE40|56=NYFXINTL40|52=20110224-03:16:48|10=235||0|
M|579|0|0|I|20110224-03:17:18.246|79|8=FIX.4.0|9=57|35=0|34=579|49=RBSE40|56=NYFXINTL40|52=20110224-03:17:18|10=234||0|
M|580|0|0|I|20110224-03:17:48.295|79|8=FIX.4.0|9=57|35=0|34=580|49=RBSE40|56=NYFXINTL40|52=20110224-03:17:48|10=229||0|
M|581|0|0|I|20110224-03:18:18.343|79|8=FIX.4.0|9=57|35=0|34=581|49=RBSE40|56=NYFXINTL40|52=20110224-03:18:18|10=228||0|
M|582|0|0|I|20110224-03:18:48.422|79|8=FIX.4.0|9=57|35=0|34=582|49=RBSE40|56=NYFXINTL40|52=20110224-03:18:48|10=232||0|
M|583|0|0|I|20110224-03:19:18.471|79|8=FIX.4.0|9=57|35=0|34=583|49=RBSE40|56=NYFXINTL40|52=20110224-03:19:18|10=231||0|
M|584|0|0|I|20110224-03:19:48.539|79|8=FIX.4.0|9=57|35=0|34=584|49=RBSE40|56=NYFXINTL40|52=20110224-03:19:48|10=235||0|
M|585|0|0|I|20110224-03:20:18.618|79|8=FIX.4.0|9=57|35=0|34=585|49=RBSE40|56=NYFXINTL40|52=20110224-03:20:18|10=225||0|
M|586|0|0|I|20110224-03:20:48.677|79|8=FIX.4.0|9=57|35=0|34=586|49=RBSE40|56=NYFXINTL40|52=20110224-03:20:48|10=229||0|
M|587|0|0|I|20110224-03:21:18.725|79|8=FIX.4.0|9=57|35=0|34=587|49=RBSE40|56=NYFXINTL40|52=20110224-03:21:18|10=228||0|
M|588|0|0|I|20110224-03:21:48.814|79|8=FIX.4.0|9=57|35=0|34=588|49=RBSE40|56=NYFXINTL40|52=20110224-03:21:48|10=232||0|
M|589|0|0|I|20110224-03:22:18.893|79|8=FIX.4.0|9=57|35=0|34=589|49=RBSE40|56=NYFXINTL40|52=20110224-03:22:18|10=231||0|
M|590|0|0|I|20110224-03:22:48.971|79|8=FIX.4.0|9=57|35=0|34=590|49=RBSE40|56=NYFXINTL40|52=20110224-03:22:48|10=226||0|
M|591|0|0|I|20110224-03:23:19.030|79|8=FIX.4.0|9=57|35=0|34=591|49=RBSE40|56=NYFXINTL40|52=20110224-03:23:19|10=226||0|
M|592|0|0|I|20110224-03:23:49.099|79|8=FIX.4.0|9=57|35=0|34=592|49=RBSE40|56=NYFXINTL40|52=20110224-03:23:49|10=230||0|
M|593|0|0|I|20110224-03:24:19.148|79|8=FIX.4.0|9=57|35=0|34=593|49=RBSE40|56=NYFXINTL40|52=20110224-03:24:19|10=229||0|
M|594|0|0|I|20110224-03:24:49.226|79|8=FIX.4.0|9=57|35=0|34=594|49=RBSE40|56=NYFXINTL40|52=20110224-03:24:49|10=233||0|
M|595|0|0|I|20110224-03:25:19.285|79|8=FIX.4.0|9=57|35=0|34=595|49=RBSE40|56=NYFXINTL40|52=20110224-03:25:19|10=232||0|
M|596|0|0|I|20110224-03:25:49.364|79|8=FIX.4.0|9=57|35=0|34=596|49=RBSE40|56=NYFXINTL40|52=20110224-03:25:49|10=236||0|
M|597|0|0|I|20110224-03:26:19.442|79|8=FIX.4.0|9=57|35=0|34=597|49=RBSE40|56=NYFXINTL40|52=20110224-03:26:19|10=235||0|
M|598|0|0|I|20110224-03:26:49.491|79|8=FIX.4.0|9=57|35=0|34=598|49=RBSE40|56=NYFXINTL40|52=20110224-03:26:49|10=239||0|
M|599|0|0|I|20110224-03:27:19.560|79|8=FIX.4.0|9=57|35=0|34=599|49=RBSE40|56=NYFXINTL40|52=20110224-03:27:19|10=238||0|
M|600|0|0|I|20110224-03:27:49.628|79|8=FIX.4.0|9=57|35=0|34=600|49=RBSE40|56=NYFXINTL40|52=20110224-03:27:49|10=224||0|
M|601|0|0|I|20110224-03:28:19.717|79|8=FIX.4.0|9=57|35=0|34=601|49=RBSE40|56=NYFXINTL40|52=20110224-03:28:19|10=223||0|
M|602|0|0|I|20110224-03:28:49.786|79|8=FIX.4.0|9=57|35=0|34=602|49=RBSE40|56=NYFXINTL40|52=20110224-03:28:49|10=227||0|
M|603|0|0|I|20110224-03:29:19.865|79|8=FIX.4.0|9=57|35=0|34=603|49=RBSE40|56=NYFXINTL40|52=20110224-03:29:19|10=226||0|
M|604|0|0|I|20110224-03:29:49.943|79|8=FIX.4.0|9=57|35=0|34=604|49=RBSE40|56=NYFXINTL40|52=20110224-03:29:49|10=230||0|
M|605|0|0|I|20110224-03:30:19.992|79|8=FIX.4.0|9=57|35=0|34=605|49=RBSE40|56=NYFXINTL40|52=20110224-03:30:19|10=220||0|
M|606|0|0|I|20110224-03:30:50.061|79|8=FIX.4.0|9=57|35=0|34=606|49=RBSE40|56=NYFXINTL40|52=20110224-03:30:50|10=216||0|
M|607|0|0|I|20110224-03:31:20.139|79|8=FIX.4.0|9=57|35=0|34=607|49=RBSE40|56=NYFXINTL40|52=20110224-03:31:20|10=215||0|
M|608|0|0|I|20110224-03:31:50.198|79|8=FIX.4.0|9=57|35=0|34=608|49=RBSE40|56=NYFXINTL40|52=20110224-03:31:50|10=219||0|
M|609|0|0|I|20110224-03:32:20.267|79|8=FIX.4.0|9=57|35=0|34=609|49=RBSE40|56=NYFXINTL40|52=20110224-03:32:20|10=218||0|
M|610|0|0|I|20110224-03:32:50.345|79|8=FIX.4.0|9=57|35=0|34=610|49=RBSE40|56=NYFXINTL40|52=20110224-03:32:50|10=213||0|
M|611|0|0|I|20110224-03:33:20.404|79|8=FIX.4.0|9=57|35=0|34=611|49=RBSE40|56=NYFXINTL40|52=20110224-03:33:20|10=212||0|
M|612|0|0|I|20110224-03:33:50.463|79|8=FIX.4.0|9=57|35=0|34=612|49=RBSE40|56=NYFXINTL40|52=20110224-03:33:50|10=216||0|
M|613|0|0|I|20110224-03:34:20.552|79|8=FIX.4.0|9=57|35=0|34=613|49=RBSE40|56=NYFXINTL40|52=20110224-03:34:20|10=215||0|
M|614|0|0|I|20110224-03:34:50.620|79|8=FIX.4.0|9=57|35=0|34=614|49=RBSE40|56=NYFXINTL40|52=20110224-03:34:50|10=219||0|
M|615|0|0|I|20110224-03:35:20.699|79|8=FIX.4.0|9=57|35=0|34=615|49=RBSE40|56=NYFXINTL40|52=20110224-03:35:20|10=218||0|
M|616|0|0|I|20110224-03:35:50.778|79|8=FIX.4.0|9=57|35=0|34=616|49=RBSE40|56=NYFXINTL40|52=20110224-03:35:50|10=222||0|
M|617|0|0|I|20110224-03:36:20.846|79|8=FIX.4.0|9=57|35=0|34=617|49=RBSE40|56=NYFXINTL40|52=20110224-03:36:20|10=221||0|
M|618|0|0|I|20110224-03:36:50.925|79|8=FIX.4.0|9=57|35=0|34=618|49=RBSE40|56=NYFXINTL40|52=20110224-03:36:50|10=225||0|
M|619|0|0|I|20110224-03:37:21.004|79|8=FIX.4.0|9=57|35=0|34=619|49=RBSE40|56=NYFXINTL40|52=20110224-03:37:21|10=225||0|
M|620|0|0|I|20110224-03:37:51.063|79|8=FIX.4.0|9=57|35=0|34=620|49=RBSE40|56=NYFXINTL40|52=20110224-03:37:51|10=220||0|
M|621|0|0|I|20110224-03:38:21.141|79|8=FIX.4.0|9=57|35=0|34=621|49=RBSE40|56=NYFXINTL40|52=20110224-03:38:21|10=219||0|
M|622|0|0|I|20110224-03:38:51.210|79|8=FIX.4.0|9=57|35=0|34=622|49=RBSE40|56=NYFXINTL40|52=20110224-03:38:51|10=223||0|
M|623|0|0|I|20110224-03:39:21.258|79|8=FIX.4.0|9=57|35=0|34=623|49=RBSE40|56=NYFXINTL40|52=20110224-03:39:21|10=222||0|
M|624|0|0|I|20110224-03:39:51.317|79|8=FIX.4.0|9=57|35=0|34=624|49=RBSE40|56=NYFXINTL40|52=20110224-03:39:51|10=226||0|
M|625|0|0|I|20110224-03:40:21.386|79|8=FIX.4.0|9=57|35=0|34=625|49=RBSE40|56=NYFXINTL40|52=20110224-03:40:21|10=216||0|
M|626|0|0|I|20110224-03:40:51.470|79|8=FIX.4.0|9=57|35=0|34=626|49=RBSE40|56=NYFXINTL40|52=20110224-03:40:51|10=220||0|
M|627|0|0|I|20110224-03:41:21.513|79|8=FIX.4.0|9=57|35=0|34=627|49=RBSE40|56=NYFXINTL40|52=20110224-03:41:21|10=219||0|
M|628|0|0|I|20110224-03:41:51.582|79|8=FIX.4.0|9=57|35=0|34=628|49=RBSE40|56=NYFXINTL40|52=20110224-03:41:51|10=223||0|
M|629|0|0|I|20110224-03:42:21.651|79|8=FIX.4.0|9=57|35=0|34=629|49=RBSE40|56=NYFXINTL40|52=20110224-03:42:21|10=222||0|
M|630|0|0|I|20110224-03:42:51.699|79|8=FIX.4.0|9=57|35=0|34=630|49=RBSE40|56=NYFXINTL40|52=20110224-03:42:51|10=217||0|
M|631|0|0|I|20110224-03:43:21.758|79|8=FIX.4.0|9=57|35=0|34=631|49=RBSE40|56=NYFXINTL40|52=20110224-03:43:21|10=216||0|
M|632|0|0|I|20110224-03:43:51.827|79|8=FIX.4.0|9=57|35=0|34=632|49=RBSE40|56=NYFXINTL40|52=20110224-03:43:51|10=220||0|
M|633|0|0|I|20110224-03:44:21.885|79|8=FIX.4.0|9=57|35=0|34=633|49=RBSE40|56=NYFXINTL40|52=20110224-03:44:21|10=219||0|
M|634|0|0|I|20110224-03:44:51.964|79|8=FIX.4.0|9=57|35=0|34=634|49=RBSE40|56=NYFXINTL40|52=20110224-03:44:51|10=223||0|
M|635|0|0|I|20110224-03:45:22.043|79|8=FIX.4.0|9=57|35=0|34=635|49=RBSE40|56=NYFXINTL40|52=20110224-03:45:22|10=223||0|
M|636|0|0|I|20110224-03:45:52.121|79|8=FIX.4.0|9=57|35=0|34=636|49=RBSE40|56=NYFXINTL40|52=20110224-03:45:52|10=227||0|
M|637|0|0|I|20110224-03:46:22.200|79|8=FIX.4.0|9=57|35=0|34=637|49=RBSE40|56=NYFXINTL40|52=20110224-03:46:22|10=226||0|
M|638|0|0|I|20110224-03:46:52.259|79|8=FIX.4.0|9=57|35=0|34=638|49=RBSE40|56=NYFXINTL40|52=20110224-03:46:52|10=230||0|
M|639|0|0|I|20110224-03:47:22.347|79|8=FIX.4.0|9=57|35=0|34=639|49=RBSE40|56=NYFXINTL40|52=20110224-03:47:22|10=229||0|
M|640|0|0|I|20110224-03:47:52.426|79|8=FIX.4.0|9=57|35=0|34=640|49=RBSE40|56=NYFXINTL40|52=20110224-03:47:52|10=224||0|
M|641|0|0|I|20110224-03:48:22.465|79|8=FIX.4.0|9=57|35=0|34=641|49=RBSE40|56=NYFXINTL40|52=20110224-03:48:22|10=223||0|
M|642|0|0|I|20110224-03:48:52.543|79|8=FIX.4.0|9=57|35=0|34=642|49=RBSE40|56=NYFXINTL40|52=20110224-03:48:52|10=227||0|
M|643|0|0|I|20110224-03:49:22.612|79|8=FIX.4.0|9=57|35=0|34=643|49=RBSE40|56=NYFXINTL40|52=20110224-03:49:22|10=226||0|
M|644|0|0|I|20110224-03:49:52.671|79|8=FIX.4.0|9=57|35=0|34=644|49=RBSE40|56=NYFXINTL40|52=20110224-03:49:52|10=230||0|
M|645|0|0|I|20110224-03:50:22.750|79|8=FIX.4.0|9=57|35=0|34=645|49=RBSE40|56=NYFXINTL40|52=20110224-03:50:22|10=220||0|
M|646|0|0|I|20110224-03:50:52.828|79|8=FIX.4.0|9=57|35=0|34=646|49=RBSE40|56=NYFXINTL40|52=20110224-03:50:52|10=224||0|
M|647|0|0|I|20110224-03:51:22.907|79|8=FIX.4.0|9=57|35=0|34=647|49=RBSE40|56=NYFXINTL40|52=20110224-03:51:22|10=223||0|
M|648|0|0|I|20110224-03:51:52.986|79|8=FIX.4.0|9=57|35=0|34=648|49=RBSE40|56=NYFXINTL40|52=20110224-03:51:52|10=227||0|
M|649|0|0|I|20110224-03:52:23.064|79|8=FIX.4.0|9=57|35=0|34=649|49=RBSE40|56=NYFXINTL40|52=20110224-03:52:23|10=227||0|
M|650|0|0|I|20110224-03:52:53.133|79|8=FIX.4.0|9=57|35=0|34=650|49=RBSE40|56=NYFXINTL40|52=20110224-03:52:53|10=222||0|
M|651|0|0|I|20110224-03:53:23.222|79|8=FIX.4.0|9=57|35=0|34=651|49=RBSE40|56=NYFXINTL40|52=20110224-03:53:23|10=221||0|
M|652|0|0|I|20110224-03:53:53.280|79|8=FIX.4.0|9=57|35=0|34=652|49=RBSE40|56=NYFXINTL40|52=20110224-03:53:53|10=225||0|
M|653|0|0|I|20110224-03:54:23.349|79|8=FIX.4.0|9=57|35=0|34=653|49=RBSE40|56=NYFXINTL40|52=20110224-03:54:23|10=224||0|
M|654|0|0|I|20110224-03:54:53.408|79|8=FIX.4.0|9=57|35=0|34=654|49=RBSE40|56=NYFXINTL40|52=20110224-03:54:53|10=228||0|
M|655|0|0|I|20110224-03:55:23.486|79|8=FIX.4.0|9=57|35=0|34=655|49=RBSE40|56=NYFXINTL40|52=20110224-03:55:23|10=227||0|
M|656|0|0|I|20110224-03:55:53.545|79|8=FIX.4.0|9=57|35=0|34=656|49=RBSE40|56=NYFXINTL40|52=20110224-03:55:53|10=231||0|
M|657|0|0|I|20110224-03:56:23.614|79|8=FIX.4.0|9=57|35=0|34=657|49=RBSE40|56=NYFXINTL40|52=20110224-03:56:23|10=230||0|
M|658|0|0|I|20110224-03:56:53.672|79|8=FIX.4.0|9=57|35=0|34=658|49=RBSE40|56=NYFXINTL40|52=20110224-03:56:53|10=234||0|
M|659|0|0|I|20110224-03:57:23.731|79|8=FIX.4.0|9=57|35=0|34=659|49=RBSE40|56=NYFXINTL40|52=20110224-03:57:23|10=233||0|
M|660|0|0|I|20110224-03:57:53.810|79|8=FIX.4.0|9=57|35=0|34=660|49=RBSE40|56=NYFXINTL40|52=20110224-03:57:53|10=228||0|
M|661|0|0|I|20110224-03:58:23.889|79|8=FIX.4.0|9=57|35=0|34=661|49=RBSE40|56=NYFXINTL40|52=20110224-03:58:23|10=227||0|
M|662|0|0|I|20110224-03:58:53.967|79|8=FIX.4.0|9=57|35=0|34=662|49=RBSE40|56=NYFXINTL40|52=20110224-03:58:53|10=231||0|
M|663|0|0|I|20110224-03:59:24.046|79|8=FIX.4.0|9=57|35=0|34=663|49=RBSE40|56=NYFXINTL40|52=20110224-03:59:24|10=231||0|
M|664|0|0|I|20110224-03:59:54.095|79|8=FIX.4.0|9=57|35=0|34=664|49=RBSE40|56=NYFXINTL40|52=20110224-03:59:54|10=235||0|
M|665|0|0|I|20110224-04:00:24.163|79|8=FIX.4.0|9=57|35=0|34=665|49=RBSE40|56=NYFXINTL40|52=20110224-04:00:24|10=220||0|
M|666|0|0|I|20110224-04:00:54.232|79|8=FIX.4.0|9=57|35=0|34=666|49=RBSE40|56=NYFXINTL40|52=20110224-04:00:54|10=224||0|
M|667|0|0|I|20110224-04:01:24.311|79|8=FIX.4.0|9=57|35=0|34=667|49=RBSE40|56=NYFXINTL40|52=20110224-04:01:24|10=223||0|
M|668|0|0|I|20110224-04:01:54.369|79|8=FIX.4.0|9=57|35=0|34=668|49=RBSE40|56=NYFXINTL40|52=20110224-04:01:54|10=227||0|
M|669|0|0|I|20110224-04:02:24.448|79|8=FIX.4.0|9=57|35=0|34=669|49=RBSE40|56=NYFXINTL40|52=20110224-04:02:24|10=226||0|
M|670|0|0|I|20110224-04:02:54.527|79|8=FIX.4.0|9=57|35=0|34=670|49=RBSE40|56=NYFXINTL40|52=20110224-04:02:54|10=221||0|
M|671|0|0|I|20110224-04:03:24.596|79|8=FIX.4.0|9=57|35=0|34=671|49=RBSE40|56=NYFXINTL40|52=20110224-04:03:24|10=220||0|
M|672|0|0|I|20110224-04:03:54.674|79|8=FIX.4.0|9=57|35=0|34=672|49=RBSE40|56=NYFXINTL40|52=20110224-04:03:54|10=224||0|
M|673|0|0|I|20110224-04:04:24.743|79|8=FIX.4.0|9=57|35=0|34=673|49=RBSE40|56=NYFXINTL40|52=20110224-04:04:24|10=223||0|
M|674|0|0|I|20110224-04:04:54.792|79|8=FIX.4.0|9=57|35=0|34=674|49=RBSE40|56=NYFXINTL40|52=20110224-04:04:54|10=227||0|
M|675|0|0|I|20110224-04:05:24.850|79|8=FIX.4.0|9=57|35=0|34=675|49=RBSE40|56=NYFXINTL40|52=20110224-04:05:24|10=226||0|
M|676|0|0|I|20110224-04:05:54.899|79|8=FIX.4.0|9=57|35=0|34=676|49=RBSE40|56=NYFXINTL40|52=20110224-04:05:54|10=230||0|
M|677|0|0|I|20110224-04:06:24.958|79|8=FIX.4.0|9=57|35=0|34=677|49=RBSE40|56=NYFXINTL40|52=20110224-04:06:24|10=229||0|
M|678|0|0|I|20110224-04:06:55.006|79|8=FIX.4.0|9=57|35=0|34=678|49=RBSE40|56=NYFXINTL40|52=20110224-04:06:55|10=234||0|
M|679|0|0|I|20110224-04:07:25.085|79|8=FIX.4.0|9=57|35=0|34=679|49=RBSE40|56=NYFXINTL40|52=20110224-04:07:25|10=233||0|
M|680|0|0|I|20110224-04:07:55.154|79|8=FIX.4.0|9=57|35=0|34=680|49=RBSE40|56=NYFXINTL40|52=20110224-04:07:55|10=228||0|
M|681|0|0|I|20110224-04:08:25.212|79|8=FIX.4.0|9=57|35=0|34=681|49=RBSE40|56=NYFXINTL40|52=20110224-04:08:25|10=227||0|
M|682|0|0|I|20110224-04:08:55.271|79|8=FIX.4.0|9=57|35=0|34=682|49=RBSE40|56=NYFXINTL40|52=20110224-04:08:55|10=231||0|
M|683|0|0|I|20110224-04:09:25.330|79|8=FIX.4.0|9=57|35=0|34=683|49=RBSE40|56=NYFXINTL40|52=20110224-04:09:25|10=230||0|
M|684|0|0|I|20110224-04:09:55.409|79|8=FIX.4.0|9=57|35=0|34=684|49=RBSE40|56=NYFXINTL40|52=20110224-04:09:55|10=234||0|
M|685|0|0|I|20110224-04:10:25.457|79|8=FIX.4.0|9=57|35=0|34=685|49=RBSE40|56=NYFXINTL40|52=20110224-04:10:25|10=224||0|
M|686|0|0|I|20110224-04:10:55.526|79|8=FIX.4.0|9=57|35=0|34=686|49=RBSE40|56=NYFXINTL40|52=20110224-04:10:55|10=228||0|
M|687|0|0|I|20110224-04:11:25.575|79|8=FIX.4.0|9=57|35=0|34=687|49=RBSE40|56=NYFXINTL40|52=20110224-04:11:25|10=227||0|
M|688|0|0|I|20110224-04:11:55.633|79|8=FIX.4.0|9=57|35=0|34=688|49=RBSE40|56=NYFXINTL40|52=20110224-04:11:55|10=231||0|
M|689|0|0|I|20110224-04:12:25.702|79|8=FIX.4.0|9=57|35=0|34=689|49=RBSE40|56=NYFXINTL40|52=20110224-04:12:25|10=230||0|
M|690|0|0|I|20110224-04:12:55.771|79|8=FIX.4.0|9=57|35=0|34=690|49=RBSE40|56=NYFXINTL40|52=20110224-04:12:55|10=225||0|
M|691|0|0|I|20110224-04:13:25.829|79|8=FIX.4.0|9=57|35=0|34=691|49=RBSE40|56=NYFXINTL40|52=20110224-04:13:25|10=224||0|
M|692|0|0|I|20110224-04:13:55.898|79|8=FIX.4.0|9=57|35=0|34=692|49=RBSE40|56=NYFXINTL40|52=20110224-04:13:55|10=228||0|
M|693|0|0|I|20110224-04:14:25.957|79|8=FIX.4.0|9=57|35=0|34=693|49=RBSE40|56=NYFXINTL40|52=20110224-04:14:25|10=227||0|
M|694|0|0|I|20110224-04:14:56.045|79|8=FIX.4.0|9=57|35=0|34=694|49=RBSE40|56=NYFXINTL40|52=20110224-04:14:56|10=232||0|
M|695|0|0|I|20110224-04:15:26.124|79|8=FIX.4.0|9=57|35=0|34=695|49=RBSE40|56=NYFXINTL40|52=20110224-04:15:26|10=231||0|
M|696|0|0|I|20110224-04:15:56.183|79|8=FIX.4.0|9=57|35=0|34=696|49=RBSE40|56=NYFXINTL40|52=20110224-04:15:56|10=235||0|
M|697|0|0|I|20110224-04:16:26.251|79|8=FIX.4.0|9=57|35=0|34=697|49=RBSE40|56=NYFXINTL40|52=20110224-04:16:26|10=234||0|
M|698|0|0|I|20110224-04:16:56.310|79|8=FIX.4.0|9=57|35=0|34=698|49=RBSE40|56=NYFXINTL40|52=20110224-04:16:56|10=238||0|
M|699|0|0|I|20110224-04:17:26.389|79|8=FIX.4.0|9=57|35=0|34=699|49=RBSE40|56=NYFXINTL40|52=20110224-04:17:26|10=237||0|
M|700|0|0|I|20110224-04:17:56.437|79|8=FIX.4.0|9=57|35=0|34=700|49=RBSE40|56=NYFXINTL40|52=20110224-04:17:56|10=223||0|
M|701|0|0|I|20110224-04:18:26.526|79|8=FIX.4.0|9=57|35=0|34=701|49=RBSE40|56=NYFXINTL40|52=20110224-04:18:26|10=222||0|
M|702|0|0|I|20110224-04:18:56.585|79|8=FIX.4.0|9=57|35=0|34=702|49=RBSE40|56=NYFXINTL40|52=20110224-04:18:56|10=226||0|
M|703|0|0|I|20110224-04:19:26.624|79|8=FIX.4.0|9=57|35=0|34=703|49=RBSE40|56=NYFXINTL40|52=20110224-04:19:26|10=225||0|
M|704|0|0|I|20110224-04:19:56.702|79|8=FIX.4.0|9=57|35=0|34=704|49=RBSE40|56=NYFXINTL40|52=20110224-04:19:56|10=229||0|
M|705|0|0|I|20110224-04:20:26.731|79|8=FIX.4.0|9=57|35=0|34=705|49=RBSE40|56=NYFXINTL40|52=20110224-04:20:26|10=219||0|
M|706|0|0|I|20110224-04:20:56.800|79|8=FIX.4.0|9=57|35=0|34=706|49=RBSE40|56=NYFXINTL40|52=20110224-04:20:56|10=223||0|
M|707|0|0|I|20110224-04:21:26.858|79|8=FIX.4.0|9=57|35=0|34=707|49=RBSE40|56=NYFXINTL40|52=20110224-04:21:26|10=222||0|
M|708|0|0|I|20110224-04:21:56.927|79|8=FIX.4.0|9=57|35=0|34=708|49=RBSE40|56=NYFXINTL40|52=20110224-04:21:56|10=226||0|
M|709|0|0|I|20110224-04:22:26.986|79|8=FIX.4.0|9=57|35=0|34=709|49=RBSE40|56=NYFXINTL40|52=20110224-04:22:26|10=225||0|
M|710|0|0|I|20110224-04:22:57.064|79|8=FIX.4.0|9=57|35=0|34=710|49=RBSE40|56=NYFXINTL40|52=20110224-04:22:57|10=221||0|
M|711|0|0|I|20110224-04:23:27.123|79|8=FIX.4.0|9=57|35=0|34=711|49=RBSE40|56=NYFXINTL40|52=20110224-04:23:27|10=220||0|
M|712|0|0|I|20110224-04:23:57.202|79|8=FIX.4.0|9=57|35=0|34=712|49=RBSE40|56=NYFXINTL40|52=20110224-04:23:57|10=224||0|
M|713|0|0|I|20110224-04:24:27.230|79|8=FIX.4.0|9=57|35=0|34=713|49=RBSE40|56=NYFXINTL40|52=20110224-04:24:27|10=223||0|
M|714|0|0|I|20110224-04:24:57.289|79|8=FIX.4.0|9=57|35=0|34=714|49=RBSE40|56=NYFXINTL40|52=20110224-04:24:57|10=227||0|
M|715|0|0|I|20110224-04:25:27.368|79|8=FIX.4.0|9=57|35=0|34=715|49=RBSE40|56=NYFXINTL40|52=20110224-04:25:27|10=226||0|
M|716|0|0|I|20110224-04:25:57.437|79|8=FIX.4.0|9=57|35=0|34=716|49=RBSE40|56=NYFXINTL40|52=20110224-04:25:57|10=230||0|
M|717|0|0|I|20110224-04:26:27.505|79|8=FIX.4.0|9=57|35=0|34=717|49=RBSE40|56=NYFXINTL40|52=20110224-04:26:27|10=229||0|
M|718|0|0|I|20110224-04:26:57.574|79|8=FIX.4.0|9=57|35=0|34=718|49=RBSE40|56=NYFXINTL40|52=20110224-04:26:57|10=233||0|
M|719|0|0|I|20110224-04:27:27.653|79|8=FIX.4.0|9=57|35=0|34=719|49=RBSE40|56=NYFXINTL40|52=20110224-04:27:27|10=232||0|
M|720|0|0|I|20110224-04:27:57.731|79|8=FIX.4.0|9=57|35=0|34=720|49=RBSE40|56=NYFXINTL40|52=20110224-04:27:57|10=227||0|
M|721|0|0|I|20110224-04:28:27.800|79|8=FIX.4.0|9=57|35=0|34=721|49=RBSE40|56=NYFXINTL40|52=20110224-04:28:27|10=226||0|
M|722|0|0|I|20110224-04:28:57.889|79|8=FIX.4.0|9=57|35=0|34=722|49=RBSE40|56=NYFXINTL40|52=20110224-04:28:57|10=230||0|
M|723|0|0|I|20110224-04:29:27.957|79|8=FIX.4.0|9=57|35=0|34=723|49=RBSE40|56=NYFXINTL40|52=20110224-04:29:27|10=229||0|
M|724|0|0|I|20110224-04:29:58.026|79|8=FIX.4.0|9=57|35=0|34=724|49=RBSE40|56=NYFXINTL40|52=20110224-04:29:58|10=234||0|
M|725|0|0|I|20110224-04:30:28.085|79|8=FIX.4.0|9=57|35=0|34=725|49=RBSE40|56=NYFXINTL40|52=20110224-04:30:28|10=224||0|
M|726|0|0|I|20110224-04:30:58.163|79|8=FIX.4.0|9=57|35=0|34=726|49=RBSE40|56=NYFXINTL40|52=20110224-04:30:58|10=228||0|
M|727|0|0|I|20110224-04:31:28.212|79|8=FIX.4.0|9=57|35=0|34=727|49=RBSE40|56=NYFXINTL40|52=20110224-04:31:28|10=227||0|
M|728|0|0|I|20110224-04:31:58.271|79|8=FIX.4.0|9=57|35=0|34=728|49=RBSE40|56=NYFXINTL40|52=20110224-04:31:58|10=231||0|
M|729|0|0|I|20110224-04:32:28.340|79|8=FIX.4.0|9=57|35=0|34=729|49=RBSE40|56=NYFXINTL40|52=20110224-04:32:28|10=230||0|
M|730|0|0|I|20110224-04:32:58.408|79|8=FIX.4.0|9=57|35=0|34=730|49=RBSE40|56=NYFXINTL40|52=20110224-04:32:58|10=225||0|
M|731|0|0|I|20110224-04:33:28.487|79|8=FIX.4.0|9=57|35=0|34=731|49=RBSE40|56=NYFXINTL40|52=20110224-04:33:28|10=224||0|
M|732|0|0|I|20110224-04:33:58.546|79|8=FIX.4.0|9=57|35=0|34=732|49=RBSE40|56=NYFXINTL40|52=20110224-04:33:58|10=228||0|
M|733|0|0|I|20110224-04:34:28.614|79|8=FIX.4.0|9=57|35=0|34=733|49=RBSE40|56=NYFXINTL40|52=20110224-04:34:28|10=227||0|
M|734|0|0|I|20110224-04:34:58.693|79|8=FIX.4.0|9=57|35=0|34=734|49=RBSE40|56=NYFXINTL40|52=20110224-04:34:58|10=231||0|
M|735|0|0|I|20110224-04:35:28.752|79|8=FIX.4.0|9=57|35=0|34=735|49=RBSE40|56=NYFXINTL40|52=20110224-04:35:28|10=230||0|
M|736|0|0|I|20110224-04:35:58.830|79|8=FIX.4.0|9=57|35=0|34=736|49=RBSE40|56=NYFXINTL40|52=20110224-04:35:58|10=234||0|
M|737|0|0|I|20110224-04:36:28.910|79|8=FIX.4.0|9=57|35=0|34=737|49=RBSE40|56=NYFXINTL40|52=20110224-04:36:28|10=233||0|
M|738|0|0|I|20110224-04:36:58.983|79|8=FIX.4.0|9=57|35=0|34=738|49=RBSE40|56=NYFXINTL40|52=20110224-04:36:58|10=237||0|
M|739|0|0|I|20110224-04:37:29.047|79|8=FIX.4.0|9=57|35=0|34=739|49=RBSE40|56=NYFXINTL40|52=20110224-04:37:29|10=237||0|
M|740|0|0|I|20110224-04:37:59.115|79|8=FIX.4.0|9=57|35=0|34=740|49=RBSE40|56=NYFXINTL40|52=20110224-04:37:59|10=232||0|
M|741|0|0|I|20110224-04:38:29.194|79|8=FIX.4.0|9=57|35=0|34=741|49=RBSE40|56=NYFXINTL40|52=20110224-04:38:29|10=231||0|
M|742|0|0|I|20110224-04:38:59.272|79|8=FIX.4.0|9=57|35=0|34=742|49=RBSE40|56=NYFXINTL40|52=20110224-04:38:59|10=235||0|
M|743|0|0|I|20110224-04:39:29.341|79|8=FIX.4.0|9=57|35=0|34=743|49=RBSE40|56=NYFXINTL40|52=20110224-04:39:29|10=234||0|
M|744|0|0|I|20110224-04:39:59.390|79|8=FIX.4.0|9=57|35=0|34=744|49=RBSE40|56=NYFXINTL40|52=20110224-04:39:59|10=238||0|
M|745|0|0|I|20110224-04:40:29.469|79|8=FIX.4.0|9=57|35=0|34=745|49=RBSE40|56=NYFXINTL40|52=20110224-04:40:29|10=228||0|
M|746|0|0|I|20110224-04:40:59.507|79|8=FIX.4.0|9=57|35=0|34=746|49=RBSE40|56=NYFXINTL40|52=20110224-04:40:59|10=232||0|
M|747|0|0|I|20110224-04:41:29.576|79|8=FIX.4.0|9=57|35=0|34=747|49=RBSE40|56=NYFXINTL40|52=20110224-04:41:29|10=231||0|
M|748|0|0|I|20110224-04:41:59.655|79|8=FIX.4.0|9=57|35=0|34=748|49=RBSE40|56=NYFXINTL40|52=20110224-04:41:59|10=235||0|
M|749|0|0|I|20110224-04:42:29.713|79|8=FIX.4.0|9=57|35=0|34=749|49=RBSE40|56=NYFXINTL40|52=20110224-04:42:29|10=234||0|
M|750|0|0|I|20110224-04:42:59.772|79|8=FIX.4.0|9=57|35=0|34=750|49=RBSE40|56=NYFXINTL40|52=20110224-04:42:59|10=229||0|
M|751|0|0|I|20110224-04:43:29.841|79|8=FIX.4.0|9=57|35=0|34=751|49=RBSE40|56=NYFXINTL40|52=20110224-04:43:29|10=228||0|
M|752|0|0|I|20110224-04:43:59.890|79|8=FIX.4.0|9=57|35=0|34=752|49=RBSE40|56=NYFXINTL40|52=20110224-04:43:59|10=232||0|
M|753|0|0|I|20110224-04:44:29.948|79|8=FIX.4.0|9=57|35=0|34=753|49=RBSE40|56=NYFXINTL40|52=20110224-04:44:29|10=231||0|
M|754|0|0|I|20110224-04:45:00.027|79|8=FIX.4.0|9=57|35=0|34=754|49=RBSE40|56=NYFXINTL40|52=20110224-04:45:00|10=222||0|
M|755|0|0|I|20110224-04:45:30.105|79|8=FIX.4.0|9=57|35=0|34=755|49=RBSE40|56=NYFXINTL40|52=20110224-04:45:30|10=226||0|
M|756|0|0|I|20110224-04:46:00.164|79|8=FIX.4.0|9=57|35=0|34=756|49=RBSE40|56=NYFXINTL40|52=20110224-04:46:00|10=225||0|
M|757|0|0|I|20110224-04:46:30.233|79|8=FIX.4.0|9=57|35=0|34=757|49=RBSE40|56=NYFXINTL40|52=20110224-04:46:30|10=229||0|
M|758|0|0|I|20110224-04:47:00.311|79|8=FIX.4.0|9=57|35=0|34=758|49=RBSE40|56=NYFXINTL40|52=20110224-04:47:00|10=228||0|
M|759|0|0|I|20110224-04:47:30.360|79|8=FIX.4.0|9=57|35=0|34=759|49=RBSE40|56=NYFXINTL40|52=20110224-04:47:30|10=232||0|
M|760|0|0|I|20110224-04:48:00.429|79|8=FIX.4.0|9=57|35=0|34=760|49=RBSE40|56=NYFXINTL40|52=20110224-04:48:00|10=222||0|
M|761|0|0|I|20110224-04:48:30.508|79|8=FIX.4.0|9=57|35=0|34=761|49=RBSE40|56=NYFXINTL40|52=20110224-04:48:30|10=226||0|
M|762|0|0|I|20110224-04:49:00.576|79|8=FIX.4.0|9=57|35=0|34=762|49=RBSE40|56=NYFXINTL40|52=20110224-04:49:00|10=225||0|
M|763|0|0|I|20110224-04:49:30.655|79|8=FIX.4.0|9=57|35=0|34=763|49=RBSE40|56=NYFXINTL40|52=20110224-04:49:30|10=229||0|
M|764|0|0|I|20110224-04:50:00.734|79|8=FIX.4.0|9=57|35=0|34=764|49=RBSE40|56=NYFXINTL40|52=20110224-04:50:00|10=219||0|
M|765|0|0|I|20110224-04:50:30.792|79|8=FIX.4.0|9=57|35=0|34=765|49=RBSE40|56=NYFXINTL40|52=20110224-04:50:30|10=223||0|
M|766|0|0|I|20110224-04:51:00.841|79|8=FIX.4.0|9=57|35=0|34=766|49=RBSE40|56=NYFXINTL40|52=20110224-04:51:00|10=222||0|
M|767|0|0|I|20110224-04:51:30.910|79|8=FIX.4.0|9=57|35=0|34=767|49=RBSE40|56=NYFXINTL40|52=20110224-04:51:30|10=226||0|
M|768|0|0|I|20110224-04:52:00.988|79|8=FIX.4.0|9=57|35=0|34=768|49=RBSE40|56=NYFXINTL40|52=20110224-04:52:00|10=225||0|
M|769|0|0|I|20110224-04:52:31.067|79|8=FIX.4.0|9=57|35=0|34=769|49=RBSE40|56=NYFXINTL40|52=20110224-04:52:31|10=230||0|
M|770|0|0|I|20110224-04:53:01.126|79|8=FIX.4.0|9=57|35=0|34=770|49=RBSE40|56=NYFXINTL40|52=20110224-04:53:01|10=220||0|
M|771|0|0|I|20110224-04:53:31.194|79|8=FIX.4.0|9=57|35=0|34=771|49=RBSE40|56=NYFXINTL40|52=20110224-04:53:31|10=224||0|
M|772|0|0|I|20110224-04:54:01.273|79|8=FIX.4.0|9=57|35=0|34=772|49=RBSE40|56=NYFXINTL40|52=20110224-04:54:01|10=223||0|
M|773|0|0|I|20110224-04:54:31.342|79|8=FIX.4.0|9=57|35=0|34=773|49=RBSE40|56=NYFXINTL40|52=20110224-04:54:31|10=227||0|
M|774|0|0|I|20110224-04:55:01.410|79|8=FIX.4.0|9=57|35=0|34=774|49=RBSE40|56=NYFXINTL40|52=20110224-04:55:01|10=226||0|
M|775|0|0|I|20110224-04:55:31.479|79|8=FIX.4.0|9=57|35=0|34=775|49=RBSE40|56=NYFXINTL40|52=20110224-04:55:31|10=230||0|
M|776|0|0|I|20110224-04:56:01.558|79|8=FIX.4.0|9=57|35=0|34=776|49=RBSE40|56=NYFXINTL40|52=20110224-04:56:01|10=229||0|
M|777|0|0|I|20110224-04:56:31.637|79|8=FIX.4.0|9=57|35=0|34=777|49=RBSE40|56=NYFXINTL40|52=20110224-04:56:31|10=233||0|
M|778|0|0|I|20110224-04:57:01.715|79|8=FIX.4.0|9=57|35=0|34=778|49=RBSE40|56=NYFXINTL40|52=20110224-04:57:01|10=232||0|
M|779|0|0|I|20110224-04:57:31.774|79|8=FIX.4.0|9=57|35=0|34=779|49=RBSE40|56=NYFXINTL40|52=20110224-04:57:31|10=236||0|
M|780|0|0|I|20110224-04:58:01.823|79|8=FIX.4.0|9=57|35=0|34=780|49=RBSE40|56=NYFXINTL40|52=20110224-04:58:01|10=226||0|
M|781|0|0|I|20110224-04:58:31.901|79|8=FIX.4.0|9=57|35=0|34=781|49=RBSE40|56=NYFXINTL40|52=20110224-04:58:31|10=230||0|
M|782|0|0|I|20110224-04:59:01.990|79|8=FIX.4.0|9=57|35=0|34=782|49=RBSE40|56=NYFXINTL40|52=20110224-04:59:01|10=229||0|
M|783|0|0|I|20110224-04:59:32.069|79|8=FIX.4.0|9=57|35=0|34=783|49=RBSE40|56=NYFXINTL40|52=20110224-04:59:32|10=234||0|
M|784|0|0|I|20110224-05:00:02.137|79|8=FIX.4.0|9=57|35=0|34=784|49=RBSE40|56=NYFXINTL40|52=20110224-05:00:02|10=219||0|
M|785|0|0|I|20110224-05:00:32.216|79|8=FIX.4.0|9=57|35=0|34=785|49=RBSE40|56=NYFXINTL40|52=20110224-05:00:32|10=223||0|
M|786|0|0|I|20110224-05:01:02.295|79|8=FIX.4.0|9=57|35=0|34=786|49=RBSE40|56=NYFXINTL40|52=20110224-05:01:02|10=222||0|
M|787|0|0|I|20110224-05:01:32.363|79|8=FIX.4.0|9=57|35=0|34=787|49=RBSE40|56=NYFXINTL40|52=20110224-05:01:32|10=226||0|
M|788|0|0|I|20110224-05:02:02.422|79|8=FIX.4.0|9=57|35=0|34=788|49=RBSE40|56=NYFXINTL40|52=20110224-05:02:02|10=225||0|
M|789|0|0|I|20110224-05:02:32.491|79|8=FIX.4.0|9=57|35=0|34=789|49=RBSE40|56=NYFXINTL40|52=20110224-05:02:32|10=229||0|
M|790|0|0|I|20110224-05:03:02.569|79|8=FIX.4.0|9=57|35=0|34=790|49=RBSE40|56=NYFXINTL40|52=20110224-05:03:02|10=219||0|
M|791|0|0|I|20110224-05:03:32.638|79|8=FIX.4.0|9=57|35=0|34=791|49=RBSE40|56=NYFXINTL40|52=20110224-05:03:32|10=223||0|
M|792|0|0|I|20110224-05:04:04.517|79|8=FIX.4.0|9=57|35=0|34=792|49=RBSE40|56=NYFXINTL40|52=20110224-05:04:04|10=224||0|
M|793|0|0|I|20110224-05:04:34.605|79|8=FIX.4.0|9=57|35=0|34=793|49=RBSE40|56=NYFXINTL40|52=20110224-05:04:34|10=228||0|
M|794|0|0|I|20110224-05:05:04.674|79|8=FIX.4.0|9=57|35=0|34=794|49=RBSE40|56=NYFXINTL40|52=20110224-05:05:04|10=227||0|
