V|1.1|
M|1|0|A|I|20110223-22:35:05.048|82|8=FIX.4.2|9=60|35=A|49=TSXRBS|56=RBS|34=1|52=20110223-22:35:05|98=0|108=60|10=248||0|
M|2|0|0|I|20110223-22:35:05.063|81|8=FIX.4.2|9=59|35=0|49=TSXRBS|56=RBS|34=2|52=20110223-22:35:05|112=STBL-2|10=058||0|
M|3|0|0|I|20110223-22:36:05.597|70|8=FIX.4.2|9=48|35=0|49=TSXRBS|56=RBS|34=3|52=20110223-22:36:05|10=212||0|
M|4|0|0|I|20110223-22:37:06.256|70|8=FIX.4.2|9=48|35=0|49=TSXRBS|56=RBS|34=4|52=20110223-22:37:06|10=215||0|
M|5|0|0|I|20110223-22:38:06.855|70|8=FIX.4.2|9=48|35=0|49=TSXRBS|56=RBS|34=5|52=20110223-22:38:06|10=217||0|
M|6|0|0|I|20110223-22:39:07.403|70|8=FIX.4.2|9=48|35=0|49=TSXRBS|56=RBS|34=6|52=20110223-22:39:07|10=220||0|
M|7|0|0|I|20110223-22:40:07.983|70|8=FIX.4.2|9=48|35=0|49=TSXRBS|56=RBS|34=7|52=20110223-22:40:07|10=213||0|
M|8|0|0|I|20110223-22:41:08.561|70|8=FIX.4.2|9=48|35=0|49=TSXRBS|56=RBS|34=8|52=20110223-22:41:08|10=216||0|
M|9|0|0|I|20110223-22:42:09.149|70|8=FIX.4.2|9=48|35=0|49=TSXRBS|56=RBS|34=9|52=20110223-22:42:09|10=219||0|
M|10|0|0|I|20110223-22:43:09.708|71|8=FIX.4.2|9=49|35=0|49=TSXRBS|56=RBS|34=10|52=20110223-22:43:09|10=005||0|
M|11|0|0|I|20110223-22:44:10.267|71|8=FIX.4.2|9=49|35=0|49=TSXRBS|56=RBS|34=11|52=20110223-22:44:10|10=255||0|
M|12|0|0|I|20110223-22:45:10.836|71|8=FIX.4.2|9=49|35=0|49=TSXRBS|56=RBS|34=12|52=20110223-22:45:10|10=001||0|
M|13|0|0|I|20110223-22:46:11.394|71|8=FIX.4.2|9=49|35=0|49=TSXRBS|56=RBS|34=13|52=20110223-22:46:11|10=004||0|
M|14|0|0|I|20110223-22:47:11.943|71|8=FIX.4.2|9=49|35=0|49=TSXRBS|56=RBS|34=14|52=20110223-22:47:11|10=006||0|
M|15|0|0|I|20110223-22:48:12.522|71|8=FIX.4.2|9=49|35=0|49=TSXRBS|56=RBS|34=15|52=20110223-22:48:12|10=009||0|
M|16|0|0|I|20110223-22:49:13.111|71|8=FIX.4.2|9=49|35=0|49=TSXRBS|56=RBS|34=16|52=20110223-22:49:13|10=012||0|
M|17|0|0|I|20110223-22:50:13.729|71|8=FIX.4.2|9=49|35=0|49=TSXRBS|56=RBS|34=17|52=20110223-22:50:13|10=005||0|
M|18|0|0|I|20110223-22:51:14.288|71|8=FIX.4.2|9=49|35=0|49=TSXRBS|56=RBS|34=18|52=20110223-22:51:14|10=008||0|
M|19|0|0|I|20110223-22:52:14.847|71|8=FIX.4.2|9=49|35=0|49=TSXRBS|56=RBS|34=19|52=20110223-22:52:14|10=010||0|
M|20|0|0|I|20110223-22:53:15.425|71|8=FIX.4.2|9=49|35=0|49=TSXRBS|56=RBS|34=20|52=20110223-22:53:15|10=004||0|
M|21|0|0|I|20110223-22:54:16.004|71|8=FIX.4.2|9=49|35=0|49=TSXRBS|56=RBS|34=21|52=20110223-22:54:15|10=006||0|
M|22|0|0|I|20110223-22:55:16.563|71|8=FIX.4.2|9=49|35=0|49=TSXRBS|56=RBS|34=22|52=20110223-22:55:16|10=009||0|
M|23|0|0|I|20110223-22:56:17.122|71|8=FIX.4.2|9=49|35=0|49=TSXRBS|56=RBS|34=23|52=20110223-22:56:17|10=012||0|
M|24|0|0|I|20110223-22:57:17.700|71|8=FIX.4.2|9=49|35=0|49=TSXRBS|56=RBS|34=24|52=20110223-22:57:17|10=014||0|
M|25|0|0|I|20110223-22:58:18.279|71|8=FIX.4.2|9=49|35=0|49=TSXRBS|56=RBS|34=25|52=20110223-22:58:18|10=017||0|
M|26|0|0|I|20110223-22:59:18.848|71|8=FIX.4.2|9=49|35=0|49=TSXRBS|56=RBS|34=26|52=20110223-22:59:18|10=019||0|
M|27|0|0|I|20110223-23:00:19.406|71|8=FIX.4.2|9=49|35=0|49=TSXRBS|56=RBS|34=27|52=20110223-23:00:19|10=008||0|
M|28|0|0|I|20110223-23:01:19.975|71|8=FIX.4.2|9=49|35=0|49=TSXRBS|56=RBS|34=28|52=20110223-23:01:19|10=010||0|
M|29|0|0|I|20110223-23:02:20.514|71|8=FIX.4.2|9=49|35=0|49=TSXRBS|56=RBS|34=29|52=20110223-23:02:20|10=004||0|
M|30|0|0|I|20110223-23:03:21.113|71|8=FIX.4.2|9=49|35=0|49=TSXRBS|56=RBS|34=30|52=20110223-23:03:21|10=254||0|
M|31|0|0|I|20110223-23:04:21.671|71|8=FIX.4.2|9=49|35=0|49=TSXRBS|56=RBS|34=31|52=20110223-23:04:21|10=000||0|
M|32|0|0|I|20110223-23:05:22.230|71|8=FIX.4.2|9=49|35=0|49=TSXRBS|56=RBS|34=32|52=20110223-23:05:22|10=003||0|
M|33|0|0|I|20110223-23:06:22.819|71|8=FIX.4.2|9=49|35=0|49=TSXRBS|56=RBS|34=33|52=20110223-23:06:22|10=005||0|
M|34|0|0|I|20110223-23:07:23.368|71|8=FIX.4.2|9=49|35=0|49=TSXRBS|56=RBS|34=34|52=20110223-23:07:23|10=008||0|
M|35|0|0|I|20110223-23:08:23.936|71|8=FIX.4.2|9=49|35=0|49=TSXRBS|56=RBS|34=35|52=20110223-23:08:23|10=010||0|
M|36|0|0|I|20110223-23:09:24.525|71|8=FIX.4.2|9=49|35=0|49=TSXRBS|56=RBS|34=36|52=20110223-23:09:24|10=013||0|
M|37|0|0|I|20110223-23:10:25.104|71|8=FIX.4.2|9=49|35=0|49=TSXRBS|56=RBS|34=37|52=20110223-23:10:25|10=007||0|
M|38|0|0|I|20110223-23:11:25.673|71|8=FIX.4.2|9=49|35=0|49=TSXRBS|56=RBS|34=38|52=20110223-23:11:25|10=009||0|
M|39|0|0|I|20110223-23:12:26.241|71|8=FIX.4.2|9=49|35=0|49=TSXRBS|56=RBS|34=39|52=20110223-23:12:26|10=012||0|
M|40|0|0|I|20110223-23:13:26.810|71|8=FIX.4.2|9=49|35=0|49=TSXRBS|56=RBS|34=40|52=20110223-23:13:26|10=005||0|
M|41|0|0|I|20110223-23:14:27.409|71|8=FIX.4.2|9=49|35=0|49=TSXRBS|56=RBS|34=41|52=20110223-23:14:27|10=008||0|
M|42|0|0|I|20110223-23:15:27.978|71|8=FIX.4.2|9=49|35=0|49=TSXRBS|56=RBS|34=42|52=20110223-23:15:27|10=010||0|
M|43|0|0|I|20110223-23:16:28.596|71|8=FIX.4.2|9=49|35=0|49=TSXRBS|56=RBS|34=43|52=20110223-23:16:28|10=013||0|
M|44|0|0|I|20110223-23:17:29.165|71|8=FIX.4.2|9=49|35=0|49=TSXRBS|56=RBS|34=44|52=20110223-23:17:29|10=016||0|
M|45|0|0|I|20110223-23:18:29.754|71|8=FIX.4.2|9=49|35=0|49=TSXRBS|56=RBS|34=45|52=20110223-23:18:29|10=018||0|
M|46|0|0|I|20110223-23:19:30.332|71|8=FIX.4.2|9=49|35=0|49=TSXRBS|56=RBS|34=46|52=20110223-23:19:30|10=012||0|
M|47|0|0|I|20110223-23:20:30.891|71|8=FIX.4.2|9=49|35=0|49=TSXRBS|56=RBS|34=47|52=20110223-23:20:30|10=005||0|
M|48|0|0|I|20110223-23:21:31.450|71|8=FIX.4.2|9=49|35=0|49=TSXRBS|56=RBS|34=48|52=20110223-23:21:31|10=008||0|
M|49|0|0|I|20110223-23:22:32.009|71|8=FIX.4.2|9=49|35=0|49=TSXRBS|56=RBS|34=49|52=20110223-23:22:32|10=011||0|
M|50|0|0|I|20110223-23:23:32.557|71|8=FIX.4.2|9=49|35=0|49=TSXRBS|56=RBS|34=50|52=20110223-23:23:32|10=004||0|
M|51|0|0|I|20110223-23:24:33.136|71|8=FIX.4.2|9=49|35=0|49=TSXRBS|56=RBS|34=51|52=20110223-23:24:33|10=007||0|
M|52|0|0|I|20110223-23:25:33.725|71|8=FIX.4.2|9=49|35=0|49=TSXRBS|56=RBS|34=52|52=20110223-23:25:33|10=009||0|
M|53|0|0|I|20110223-23:26:34.294|71|8=FIX.4.2|9=49|35=0|49=TSXRBS|56=RBS|34=53|52=20110223-23:26:34|10=012||0|
M|54|0|0|I|20110223-23:27:34.863|71|8=FIX.4.2|9=49|35=0|49=TSXRBS|56=RBS|34=54|52=20110223-23:27:34|10=014||0|
M|55|0|0|I|20110223-23:28:35.421|71|8=FIX.4.2|9=49|35=0|49=TSXRBS|56=RBS|34=55|52=20110223-23:28:35|10=017||0|
M|56|0|0|I|20110223-23:29:36.060|71|8=FIX.4.2|9=49|35=0|49=TSXRBS|56=RBS|34=56|52=20110223-23:29:36|10=020||0|
M|57|0|0|I|20110223-23:30:36.629|71|8=FIX.4.2|9=49|35=0|49=TSXRBS|56=RBS|34=57|52=20110223-23:30:36|10=013||0|
M|58|0|0|I|20110223-23:31:37.257|71|8=FIX.4.2|9=49|35=0|49=TSXRBS|56=RBS|34=58|52=20110223-23:31:37|10=016||0|
M|59|0|0|I|20110223-23:32:37.836|71|8=FIX.4.2|9=49|35=0|49=TSXRBS|56=RBS|34=59|52=20110223-23:32:37|10=018||0|
M|60|0|0|I|20110223-23:33:38.475|71|8=FIX.4.2|9=49|35=0|49=TSXRBS|56=RBS|34=60|52=20110223-23:33:38|10=012||0|
M|61|0|0|I|20110223-23:34:39.034|71|8=FIX.4.2|9=49|35=0|49=TSXRBS|56=RBS|34=61|52=20110223-23:34:39|10=015||0|
M|62|0|0|I|20110223-23:35:39.692|71|8=FIX.4.2|9=49|35=0|49=TSXRBS|56=RBS|34=62|52=20110223-23:35:39|10=017||0|
M|63|0|0|I|20110223-23:36:40.261|71|8=FIX.4.2|9=49|35=0|49=TSXRBS|56=RBS|34=63|52=20110223-23:36:40|10=011||0|
M|64|0|0|I|20110223-23:37:40.910|71|8=FIX.4.2|9=49|35=0|49=TSXRBS|56=RBS|34=64|52=20110223-23:37:40|10=013||0|
M|65|0|0|I|20110223-23:38:41.479|71|8=FIX.4.2|9=49|35=0|49=TSXRBS|56=RBS|34=65|52=20110223-23:38:41|10=016||0|
M|66|0|0|I|20110223-23:39:42.107|71|8=FIX.4.2|9=49|35=0|49=TSXRBS|56=RBS|34=66|52=20110223-23:39:42|10=019||0|
M|67|0|0|I|20110223-23:40:42.666|71|8=FIX.4.2|9=49|35=0|49=TSXRBS|56=RBS|34=67|52=20110223-23:40:42|10=012||0|
M|68|0|0|I|20110223-23:41:43.255|71|8=FIX.4.2|9=49|35=0|49=TSXRBS|56=RBS|34=68|52=20110223-23:41:43|10=015||0|
M|69|0|0|I|20110223-23:42:43.824|71|8=FIX.4.2|9=49|35=0|49=TSXRBS|56=RBS|34=69|52=20110223-23:42:43|10=017||0|
M|70|0|0|I|20110223-23:43:44.402|71|8=FIX.4.2|9=49|35=0|49=TSXRBS|56=RBS|34=70|52=20110223-23:43:44|10=011||0|
M|71|0|0|I|20110223-23:44:45.001|71|8=FIX.4.2|9=49|35=0|49=TSXRBS|56=RBS|34=71|52=20110223-23:44:44|10=013||0|
M|72|0|0|I|20110223-23:45:45.550|71|8=FIX.4.2|9=49|35=0|49=TSXRBS|56=RBS|34=72|52=20110223-23:45:45|10=016||0|
M|73|0|0|I|20110223-23:46:46.089|71|8=FIX.4.2|9=49|35=0|49=TSXRBS|56=RBS|34=73|52=20110223-23:46:46|10=019||0|
M|74|0|0|I|20110223-23:47:46.657|71|8=FIX.4.2|9=49|35=0|49=TSXRBS|56=RBS|34=74|52=20110223-23:47:46|10=021||0|
M|75|0|0|I|20110223-23:48:47.236|71|8=FIX.4.2|9=49|35=0|49=TSXRBS|56=RBS|34=75|52=20110223-23:48:47|10=024||0|
M|76|0|0|I|20110223-23:49:47.815|71|8=FIX.4.2|9=49|35=0|49=TSXRBS|56=RBS|34=76|52=20110223-23:49:47|10=026||0|
M|77|0|0|I|20110223-23:50:48.384|71|8=FIX.4.2|9=49|35=0|49=TSXRBS|56=RBS|34=77|52=20110223-23:50:48|10=020||0|
M|78|0|0|I|20110223-23:51:48.952|71|8=FIX.4.2|9=49|35=0|49=TSXRBS|56=RBS|34=78|52=20110223-23:51:48|10=022||0|
M|79|0|0|I|20110223-23:52:49.541|71|8=FIX.4.2|9=49|35=0|49=TSXRBS|56=RBS|34=79|52=20110223-23:52:49|10=025||0|
M|80|0|0|I|20110223-23:53:50.120|71|8=FIX.4.2|9=49|35=0|49=TSXRBS|56=RBS|34=80|52=20110223-23:53:50|10=010||0|
M|81|0|0|I|20110223-23:54:50.739|71|8=FIX.4.2|9=49|35=0|49=TSXRBS|56=RBS|34=81|52=20110223-23:54:50|10=012||0|
M|82|0|0|I|20110223-23:55:51.317|71|8=FIX.4.2|9=49|35=0|49=TSXRBS|56=RBS|34=82|52=20110223-23:55:51|10=015||0|
M|83|0|0|I|20110223-23:56:51.956|71|8=FIX.4.2|9=49|35=0|49=TSXRBS|56=RBS|34=83|52=20110223-23:56:51|10=017||0|
M|84|0|0|I|20110223-23:57:52.535|71|8=FIX.4.2|9=49|35=0|49=TSXRBS|56=RBS|34=84|52=20110223-23:57:52|10=020||0|
M|85|0|0|I|20110223-23:58:53.173|71|8=FIX.4.2|9=49|35=0|49=TSXRBS|56=RBS|34=85|52=20110223-23:58:53|10=023||0|
M|86|0|0|I|20110223-23:59:53.762|71|8=FIX.4.2|9=49|35=0|49=TSXRBS|56=RBS|34=86|52=20110223-23:59:53|10=025||0|
M|87|0|0|I|20110224-00:00:54.381|71|8=FIX.4.2|9=49|35=0|49=TSXRBS|56=RBS|34=87|52=20110224-00:00:54|10=009||0|
M|88|0|0|I|20110224-00:01:54.960|71|8=FIX.4.2|9=49|35=0|49=TSXRBS|56=RBS|34=88|52=20110224-00:01:54|10=011||0|
M|89|0|0|I|20110224-00:02:55.598|71|8=FIX.4.2|9=49|35=0|49=TSXRBS|56=RBS|34=89|52=20110224-00:02:55|10=014||0|
M|90|0|0|I|20110224-00:03:56.180|71|8=FIX.4.2|9=49|35=0|49=TSXRBS|56=RBS|34=90|52=20110224-00:03:56|10=008||0|
M|91|0|0|I|20110224-00:04:56.796|71|8=FIX.4.2|9=49|35=0|49=TSXRBS|56=RBS|34=91|52=20110224-00:04:56|10=010||0|
M|92|0|0|I|20110224-00:05:57.365|71|8=FIX.4.2|9=49|35=0|49=TSXRBS|56=RBS|34=92|52=20110224-00:05:57|10=013||0|
M|93|0|0|I|20110224-00:06:57.933|71|8=FIX.4.2|9=49|35=0|49=TSXRBS|56=RBS|34=93|52=20110224-00:06:57|10=015||0|
M|94|0|0|I|20110224-00:07:58.512|71|8=FIX.4.2|9=49|35=0|49=TSXRBS|56=RBS|34=94|52=20110224-00:07:58|10=018||0|
M|95|0|0|I|20110224-00:08:59.081|71|8=FIX.4.2|9=49|35=0|49=TSXRBS|56=RBS|34=95|52=20110224-00:08:59|10=021||0|
M|96|0|0|I|20110224-00:09:59.650|71|8=FIX.4.2|9=49|35=0|49=TSXRBS|56=RBS|34=96|52=20110224-00:09:59|10=023||0|
M|97|0|0|I|20110224-00:11:00.208|71|8=FIX.4.2|9=49|35=0|49=TSXRBS|56=RBS|34=97|52=20110224-00:11:00|10=003||0|
M|98|0|0|I|20110224-00:12:00.787|71|8=FIX.4.2|9=49|35=0|49=TSXRBS|56=RBS|34=98|52=20110224-00:12:00|10=005||0|
M|99|0|0|I|20110224-00:13:01.356|71|8=FIX.4.2|9=49|35=0|49=TSXRBS|56=RBS|34=99|52=20110224-00:13:01|10=008||0|
M|100|0|0|I|20110224-00:14:01.935|72|8=FIX.4.2|9=50|35=0|49=TSXRBS|56=RBS|34=100|52=20110224-00:14:01|10=032||0|
M|101|0|0|I|20110224-00:15:02.484|72|8=FIX.4.2|9=50|35=0|49=TSXRBS|56=RBS|34=101|52=20110224-00:15:02|10=035||0|
M|102|0|0|I|20110224-00:16:03.052|72|8=FIX.4.2|9=50|35=0|49=TSXRBS|56=RBS|34=102|52=20110224-00:16:03|10=038||0|
M|103|0|0|I|20110224-00:17:03.611|72|8=FIX.4.2|9=50|35=0|49=TSXRBS|56=RBS|34=103|52=20110224-00:17:03|10=040||0|
M|104|0|0|I|20110224-00:18:04.170|72|8=FIX.4.2|9=50|35=0|49=TSXRBS|56=RBS|34=104|52=20110224-00:18:04|10=043||0|
M|105|0|0|I|20110224-00:19:04.748|72|8=FIX.4.2|9=50|35=0|49=TSXRBS|56=RBS|34=105|52=20110224-00:19:04|10=045||0|
M|106|0|0|I|20110224-00:20:05.407|72|8=FIX.4.2|9=50|35=0|49=TSXRBS|56=RBS|34=106|52=20110224-00:20:05|10=039||0|
M|107|0|0|I|20110224-00:21:05.966|72|8=FIX.4.2|9=50|35=0|49=TSXRBS|56=RBS|34=107|52=20110224-00:21:05|10=041||0|
M|108|0|0|I|20110224-00:22:06.595|72|8=FIX.4.2|9=50|35=0|49=TSXRBS|56=RBS|34=108|52=20110224-00:22:06|10=044||0|
M|109|0|0|I|20110224-00:23:07.153|72|8=FIX.4.2|9=50|35=0|49=TSXRBS|56=RBS|34=109|52=20110224-00:23:07|10=047||0|
M|110|0|0|I|20110224-00:24:07.734|72|8=FIX.4.2|9=50|35=0|49=TSXRBS|56=RBS|34=110|52=20110224-00:24:07|10=040||0|
M|111|0|0|I|20110224-00:25:08.311|72|8=FIX.4.2|9=50|35=0|49=TSXRBS|56=RBS|34=111|52=20110224-00:25:08|10=043||0|
M|112|0|0|I|20110224-00:26:08.860|72|8=FIX.4.2|9=50|35=0|49=TSXRBS|56=RBS|34=112|52=20110224-00:26:08|10=045||0|
M|113|0|0|I|20110224-00:27:09.428|72|8=FIX.4.2|9=50|35=0|49=TSXRBS|56=RBS|34=113|52=20110224-00:27:09|10=048||0|
M|114|0|0|I|20110224-00:28:10.017|72|8=FIX.4.2|9=50|35=0|49=TSXRBS|56=RBS|34=114|52=20110224-00:28:10|10=042||0|
M|115|0|0|I|20110224-00:29:10.557|72|8=FIX.4.2|9=50|35=0|49=TSXRBS|56=RBS|34=115|52=20110224-00:29:10|10=044||0|
M|116|0|0|I|20110224-00:30:11.125|72|8=FIX.4.2|9=50|35=0|49=TSXRBS|56=RBS|34=116|52=20110224-00:30:11|10=038||0|
M|117|0|0|I|20110224-00:31:11.713|72|8=FIX.4.2|9=50|35=0|49=TSXRBS|56=RBS|34=117|52=20110224-00:31:11|10=040||0|
M|118|0|0|I|20110224-00:32:12.292|72|8=FIX.4.2|9=50|35=0|49=TSXRBS|56=RBS|34=118|52=20110224-00:32:12|10=043||0|
M|119|0|0|I|20110224-00:33:12.861|72|8=FIX.4.2|9=50|35=0|49=TSXRBS|56=RBS|34=119|52=20110224-00:33:12|10=045||0|
M|120|0|0|I|20110224-00:34:13.429|72|8=FIX.4.2|9=50|35=0|49=TSXRBS|56=RBS|34=120|52=20110224-00:34:13|10=039||0|
M|121|0|0|I|20110224-00:35:13.998|72|8=FIX.4.2|9=50|35=0|49=TSXRBS|56=RBS|34=121|52=20110224-00:35:13|10=041||0|
M|122|0|0|I|20110224-00:36:14.527|72|8=FIX.4.2|9=50|35=0|49=TSXRBS|56=RBS|34=122|52=20110224-00:36:14|10=044||0|
M|123|0|0|I|20110224-00:37:15.076|72|8=FIX.4.2|9=50|35=0|49=TSXRBS|56=RBS|34=123|52=20110224-00:37:15|10=047||0|
M|124|0|0|I|20110224-00:38:15.644|72|8=FIX.4.2|9=50|35=0|49=TSXRBS|56=RBS|34=124|52=20110224-00:38:15|10=049||0|
M|125|0|0|I|20110224-00:39:16.223|72|8=FIX.4.2|9=50|35=0|49=TSXRBS|56=RBS|34=125|52=20110224-00:39:16|10=052||0|
M|126|0|0|I|20110224-00:40:16.782|72|8=FIX.4.2|9=50|35=0|49=TSXRBS|56=RBS|34=126|52=20110224-00:40:16|10=045||0|
M|127|0|0|I|20110224-00:41:17.341|72|8=FIX.4.2|9=50|35=0|49=TSXRBS|56=RBS|34=127|52=20110224-00:41:17|10=048||0|
M|128|0|0|I|20110224-00:42:17.910|72|8=FIX.4.2|9=50|35=0|49=TSXRBS|56=RBS|34=128|52=20110224-00:42:17|10=050||0|
M|129|0|0|I|20110224-00:43:18.478|72|8=FIX.4.2|9=50|35=0|49=TSXRBS|56=RBS|34=129|52=20110224-00:43:18|10=053||0|
M|130|0|0|I|20110224-00:44:19.047|72|8=FIX.4.2|9=50|35=0|49=TSXRBS|56=RBS|34=130|52=20110224-00:44:19|10=047||0|
M|131|0|0|I|20110224-00:45:19.626|72|8=FIX.4.2|9=50|35=0|49=TSXRBS|56=RBS|34=131|52=20110224-00:45:19|10=049||0|
M|132|0|0|I|20110224-00:46:20.214|72|8=FIX.4.2|9=50|35=0|49=TSXRBS|56=RBS|34=132|52=20110224-00:46:20|10=043||0|
M|133|0|0|I|20110224-00:47:20.793|72|8=FIX.4.2|9=50|35=0|49=TSXRBS|56=RBS|34=133|52=20110224-00:47:20|10=045||0|
M|134|0|0|I|20110224-00:48:21.352|72|8=FIX.4.2|9=50|35=0|49=TSXRBS|56=RBS|34=134|52=20110224-00:48:21|10=048||0|
M|135|0|0|I|20110224-00:49:22.001|72|8=FIX.4.2|9=50|35=0|49=TSXRBS|56=RBS|34=135|52=20110224-00:49:21|10=050||0|
M|136|0|0|I|20110224-00:50:22.565|72|8=FIX.4.2|9=50|35=0|49=TSXRBS|56=RBS|34=136|52=20110224-00:50:22|10=044||0|
M|137|0|0|I|20110224-00:51:23.218|72|8=FIX.4.2|9=50|35=0|49=TSXRBS|56=RBS|34=137|52=20110224-00:51:23|10=047||0|
M|138|0|0|I|20110224-00:52:23.777|72|8=FIX.4.2|9=50|35=0|49=TSXRBS|56=RBS|34=138|52=20110224-00:52:23|10=049||0|
M|139|0|0|I|20110224-00:53:24.426|72|8=FIX.4.2|9=50|35=0|49=TSXRBS|56=RBS|34=139|52=20110224-00:53:24|10=052||0|
M|140|0|0|I|20110224-00:54:24.984|72|8=FIX.4.2|9=50|35=0|49=TSXRBS|56=RBS|34=140|52=20110224-00:54:24|10=045||0|
M|141|0|0|I|20110224-00:55:25.543|72|8=FIX.4.2|9=50|35=0|49=TSXRBS|56=RBS|34=141|52=20110224-00:55:25|10=048||0|
M|142|0|0|I|20110224-00:56:26.112|72|8=FIX.4.2|9=50|35=0|49=TSXRBS|56=RBS|34=142|52=20110224-00:56:26|10=051||0|
M|143|0|0|I|20110224-00:57:26.690|72|8=FIX.4.2|9=50|35=0|49=TSXRBS|56=RBS|34=143|52=20110224-00:57:26|10=053||0|
M|144|0|0|I|20110224-00:58:27.249|72|8=FIX.4.2|9=50|35=0|49=TSXRBS|56=RBS|34=144|52=20110224-00:58:27|10=056||0|
M|145|0|0|I|20110224-00:59:27.798|72|8=FIX.4.2|9=50|35=0|49=TSXRBS|56=RBS|34=145|52=20110224-00:59:27|10=058||0|
M|146|0|0|I|20110224-01:00:28.377|72|8=FIX.4.2|9=50|35=0|49=TSXRBS|56=RBS|34=146|52=20110224-01:00:28|10=047||0|
M|147|0|0|I|20110224-01:01:28.965|72|8=FIX.4.2|9=50|35=0|49=TSXRBS|56=RBS|34=147|52=20110224-01:01:28|10=049||0|
M|148|0|0|I|20110224-01:02:29.554|72|8=FIX.4.2|9=50|35=0|49=TSXRBS|56=RBS|34=148|52=20110224-01:02:29|10=052||0|
M|149|0|0|I|20110224-01:03:30.103|72|8=FIX.4.2|9=50|35=0|49=TSXRBS|56=RBS|34=149|52=20110224-01:03:30|10=046||0|
M|150|0|0|I|20110224-01:04:30.692|72|8=FIX.4.2|9=50|35=0|49=TSXRBS|56=RBS|34=150|52=20110224-01:04:30|10=039||0|
M|151|0|0|I|20110224-01:05:31.260|72|8=FIX.4.2|9=50|35=0|49=TSXRBS|56=RBS|34=151|52=20110224-01:05:31|10=042||0|
M|152|0|0|I|20110224-01:06:31.919|72|8=FIX.4.2|9=50|35=0|49=TSXRBS|56=RBS|34=152|52=20110224-01:06:31|10=044||0|
M|153|0|0|I|20110224-01:07:32.508|72|8=FIX.4.2|9=50|35=0|49=TSXRBS|56=RBS|34=153|52=20110224-01:07:32|10=047||0|
M|154|0|0|I|20110224-01:08:33.157|72|8=FIX.4.2|9=50|35=0|49=TSXRBS|56=RBS|34=154|52=20110224-01:08:33|10=050||0|
M|155|0|0|I|20110224-01:09:33.735|72|8=FIX.4.2|9=50|35=0|49=TSXRBS|56=RBS|34=155|52=20110224-01:09:33|10=052||0|
M|156|0|0|I|20110224-01:10:34.384|72|8=FIX.4.2|9=50|35=0|49=TSXRBS|56=RBS|34=156|52=20110224-01:10:34|10=046||0|
M|157|0|0|I|20110224-01:11:34.943|72|8=FIX.4.2|9=50|35=0|49=TSXRBS|56=RBS|34=157|52=20110224-01:11:34|10=048||0|
M|158|0|0|I|20110224-01:12:35.522|72|8=FIX.4.2|9=50|35=0|49=TSXRBS|56=RBS|34=158|52=20110224-01:12:35|10=051||0|
M|159|0|0|I|20110224-01:13:36.100|72|8=FIX.4.2|9=50|35=0|49=TSXRBS|56=RBS|34=159|52=20110224-01:13:36|10=054||0|
M|160|0|0|I|20110224-01:14:36.679|72|8=FIX.4.2|9=50|35=0|49=TSXRBS|56=RBS|34=160|52=20110224-01:14:36|10=047||0|
M|161|0|0|I|20110224-01:15:37.253|72|8=FIX.4.2|9=50|35=0|49=TSXRBS|56=RBS|34=161|52=20110224-01:15:37|10=050||0|
M|162|0|0|I|20110224-01:16:37.817|72|8=FIX.4.2|9=50|35=0|49=TSXRBS|56=RBS|34=162|52=20110224-01:16:37|10=052||0|
M|163|0|0|I|20110224-01:17:38.396|72|8=FIX.4.2|9=50|35=0|49=TSXRBS|56=RBS|34=163|52=20110224-01:17:38|10=055||0|
M|164|0|0|I|20110224-01:18:38.974|72|8=FIX.4.2|9=50|35=0|49=TSXRBS|56=RBS|34=164|52=20110224-01:18:38|10=057||0|
M|165|0|0|I|20110224-01:19:39.553|72|8=FIX.4.2|9=50|35=0|49=TSXRBS|56=RBS|34=165|52=20110224-01:19:39|10=060||0|
M|166|0|0|I|20110224-01:20:40.122|72|8=FIX.4.2|9=50|35=0|49=TSXRBS|56=RBS|34=166|52=20110224-01:20:40|10=045||0|
M|167|0|0|I|20110224-01:21:40.700|72|8=FIX.4.2|9=50|35=0|49=TSXRBS|56=RBS|34=167|52=20110224-01:21:40|10=047||0|
M|168|0|0|I|20110224-01:22:41.289|72|8=FIX.4.2|9=50|35=0|49=TSXRBS|56=RBS|34=168|52=20110224-01:22:41|10=050||0|
M|169|0|0|I|20110224-01:23:41.898|72|8=FIX.4.2|9=50|35=0|49=TSXRBS|56=RBS|34=169|52=20110224-01:23:41|10=052||0|
M|170|0|0|I|20110224-01:24:42.487|72|8=FIX.4.2|9=50|35=0|49=TSXRBS|56=RBS|34=170|52=20110224-01:24:42|10=046||0|
M|171|0|0|I|20110224-01:25:43.165|72|8=FIX.4.2|9=50|35=0|49=TSXRBS|56=RBS|34=171|52=20110224-01:25:43|10=049||0|
M|172|0|0|I|20110224-01:26:43.734|72|8=FIX.4.2|9=50|35=0|49=TSXRBS|56=RBS|34=172|52=20110224-01:26:43|10=051||0|
M|173|0|0|I|20110224-01:27:44.373|72|8=FIX.4.2|9=50|35=0|49=TSXRBS|56=RBS|34=173|52=20110224-01:27:44|10=054||0|
M|174|0|0|I|20110224-01:28:44.942|72|8=FIX.4.2|9=50|35=0|49=TSXRBS|56=RBS|34=174|52=20110224-01:28:44|10=056||0|
M|175|0|0|I|20110224-01:29:45.621|72|8=FIX.4.2|9=50|35=0|49=TSXRBS|56=RBS|34=175|52=20110224-01:29:45|10=059||0|
M|176|0|0|I|20110224-01:30:46.179|72|8=FIX.4.2|9=50|35=0|49=TSXRBS|56=RBS|34=176|52=20110224-01:30:46|10=053||0|
M|177|0|0|I|20110224-01:31:46.838|72|8=FIX.4.2|9=50|35=0|49=TSXRBS|56=RBS|34=177|52=20110224-01:31:46|10=055||0|
M|178|0|0|I|20110224-01:32:47.407|72|8=FIX.4.2|9=50|35=0|49=TSXRBS|56=RBS|34=178|52=20110224-01:32:47|10=058||0|
M|179|0|0|I|20110224-01:33:47.975|72|8=FIX.4.2|9=50|35=0|49=TSXRBS|56=RBS|34=179|52=20110224-01:33:47|10=060||0|
M|180|0|0|I|20110224-01:34:48.514|72|8=FIX.4.2|9=50|35=0|49=TSXRBS|56=RBS|34=180|52=20110224-01:34:48|10=054||0|
M|181|0|0|I|20110224-01:35:49.073|72|8=FIX.4.2|9=50|35=0|49=TSXRBS|56=RBS|34=181|52=20110224-01:35:49|10=057||0|
M|182|0|0|I|20110224-01:36:49.632|72|8=FIX.4.2|9=50|35=0|49=TSXRBS|56=RBS|34=182|52=20110224-01:36:49|10=059||0|
M|183|0|0|I|20110224-01:37:50.210|72|8=FIX.4.2|9=50|35=0|49=TSXRBS|56=RBS|34=183|52=20110224-01:37:50|10=053||0|
M|184|0|0|I|20110224-01:38:50.759|72|8=FIX.4.2|9=50|35=0|49=TSXRBS|56=RBS|34=184|52=20110224-01:38:50|10=055||0|
M|185|0|0|I|20110224-01:39:51.328|72|8=FIX.4.2|9=50|35=0|49=TSXRBS|56=RBS|34=185|52=20110224-01:39:51|10=058||0|
M|186|0|0|I|20110224-01:40:51.907|72|8=FIX.4.2|9=50|35=0|49=TSXRBS|56=RBS|34=186|52=20110224-01:40:51|10=051||0|
M|187|0|0|I|20110224-01:41:52.495|72|8=FIX.4.2|9=50|35=0|49=TSXRBS|56=RBS|34=187|52=20110224-01:41:52|10=054||0|
M|188|0|0|I|20110224-01:42:53.075|72|8=FIX.4.2|9=50|35=0|49=TSXRBS|56=RBS|34=188|52=20110224-01:42:53|10=057||0|
M|189|0|0|I|20110224-01:43:53.663|72|8=FIX.4.2|9=50|35=0|49=TSXRBS|56=RBS|34=189|52=20110224-01:43:53|10=059||0|
M|190|0|0|I|20110224-01:44:54.262|72|8=FIX.4.2|9=50|35=0|49=TSXRBS|56=RBS|34=190|52=20110224-01:44:54|10=053||0|
M|191|0|0|I|20110224-01:45:54.840|72|8=FIX.4.2|9=50|35=0|49=TSXRBS|56=RBS|34=191|52=20110224-01:45:54|10=055||0|
M|192|0|0|I|20110224-01:46:55.459|72|8=FIX.4.2|9=50|35=0|49=TSXRBS|56=RBS|34=192|52=20110224-01:46:55|10=058||0|
M|193|0|0|I|20110224-01:47:56.038|72|8=FIX.4.2|9=50|35=0|49=TSXRBS|56=RBS|34=193|52=20110224-01:47:56|10=061||0|
M|194|0|0|I|20110224-01:48:56.687|72|8=FIX.4.2|9=50|35=0|49=TSXRBS|56=RBS|34=194|52=20110224-01:48:56|10=063||0|
M|195|0|0|I|20110224-01:49:57.265|72|8=FIX.4.2|9=50|35=0|49=TSXRBS|56=RBS|34=195|52=20110224-01:49:57|10=066||0|
M|196|0|0|I|20110224-01:50:57.904|72|8=FIX.4.2|9=50|35=0|49=TSXRBS|56=RBS|34=196|52=20110224-01:50:57|10=059||0|
M|197|0|0|I|20110224-01:51:58.483|72|8=FIX.4.2|9=50|35=0|49=TSXRBS|56=RBS|34=197|52=20110224-01:51:58|10=062||0|
M|198|0|0|I|20110224-01:52:59.122|72|8=FIX.4.2|9=50|35=0|49=TSXRBS|56=RBS|34=198|52=20110224-01:52:59|10=065||0|
M|199|0|0|I|20110224-01:53:59.700|72|8=FIX.4.2|9=50|35=0|49=TSXRBS|56=RBS|34=199|52=20110224-01:53:59|10=067||0|
M|200|0|0|I|20110224-01:55:00.339|72|8=FIX.4.2|9=50|35=0|49=TSXRBS|56=RBS|34=200|52=20110224-01:55:00|10=038||0|
M|201|0|0|I|20110224-01:56:00.878|72|8=FIX.4.2|9=50|35=0|49=TSXRBS|56=RBS|34=201|52=20110224-01:56:00|10=040||0|
M|202|0|0|I|20110224-01:57:01.467|72|8=FIX.4.2|9=50|35=0|49=TSXRBS|56=RBS|34=202|52=20110224-01:57:01|10=043||0|
M|203|0|0|I|20110224-01:58:02.045|72|8=FIX.4.2|9=50|35=0|49=TSXRBS|56=RBS|34=203|52=20110224-01:58:02|10=046||0|
M|204|0|0|I|20110224-01:59:02.624|72|8=FIX.4.2|9=50|35=0|49=TSXRBS|56=RBS|34=204|52=20110224-01:59:02|10=048||0|
M|205|0|0|I|20110224-02:00:03.213|72|8=FIX.4.2|9=50|35=0|49=TSXRBS|56=RBS|34=205|52=20110224-02:00:03|10=037||0|
M|206|0|0|I|20110224-02:01:03.792|72|8=FIX.4.2|9=50|35=0|49=TSXRBS|56=RBS|34=206|52=20110224-02:01:03|10=039||0|
M|207|0|0|I|20110224-02:02:04.380|72|8=FIX.4.2|9=50|35=0|49=TSXRBS|56=RBS|34=207|52=20110224-02:02:04|10=042||0|
M|208|0|0|I|20110224-02:03:04.949|72|8=FIX.4.2|9=50|35=0|49=TSXRBS|56=RBS|34=208|52=20110224-02:03:04|10=044||0|
M|209|0|0|I|20110224-02:04:05.528|72|8=FIX.4.2|9=50|35=0|49=TSXRBS|56=RBS|34=209|52=20110224-02:04:05|10=047||0|
M|210|0|0|I|20110224-02:05:06.107|72|8=FIX.4.2|9=50|35=0|49=TSXRBS|56=RBS|34=210|52=20110224-02:05:06|10=041||0|
M|211|0|0|I|20110224-02:06:06.675|72|8=FIX.4.2|9=50|35=0|49=TSXRBS|56=RBS|34=211|52=20110224-02:06:06|10=043||0|
M|212|0|0|I|20110224-02:07:07.214|72|8=FIX.4.2|9=50|35=0|49=TSXRBS|56=RBS|34=212|52=20110224-02:07:07|10=046||0|
M|213|0|0|I|20110224-02:08:07.793|72|8=FIX.4.2|9=50|35=0|49=TSXRBS|56=RBS|34=213|52=20110224-02:08:07|10=048||0|
M|214|0|0|I|20110224-02:09:08.381|72|8=FIX.4.2|9=50|35=0|49=TSXRBS|56=RBS|34=214|52=20110224-02:09:08|10=051||0|
M|215|0|0|I|20110224-02:10:08.952|72|8=FIX.4.2|9=50|35=0|49=TSXRBS|56=RBS|34=215|52=20110224-02:10:08|10=044||0|
M|216|0|0|I|20110224-02:11:09.499|72|8=FIX.4.2|9=50|35=0|49=TSXRBS|56=RBS|34=216|52=20110224-02:11:09|10=047||0|
M|217|0|0|I|20110224-02:12:10.128|72|8=FIX.4.2|9=50|35=0|49=TSXRBS|56=RBS|34=217|52=20110224-02:12:10|10=041||0|
M|218|0|0|I|20110224-02:13:10.696|72|8=FIX.4.2|9=50|35=0|49=TSXRBS|56=RBS|34=218|52=20110224-02:13:10|10=043||0|
M|219|0|0|I|20110224-02:14:11.365|72|8=FIX.4.2|9=50|35=0|49=TSXRBS|56=RBS|34=219|52=20110224-02:14:11|10=046||0|
M|220|0|0|I|20110224-02:15:11.914|72|8=FIX.4.2|9=50|35=0|49=TSXRBS|56=RBS|34=220|52=20110224-02:15:11|10=039||0|
M|221|0|0|I|20110224-02:16:12.483|72|8=FIX.4.2|9=50|35=0|49=TSXRBS|56=RBS|34=221|52=20110224-02:16:12|10=042||0|
M|222|0|0|I|20110224-02:17:13.081|72|8=FIX.4.2|9=50|35=0|49=TSXRBS|56=RBS|34=222|52=20110224-02:17:13|10=045||0|
M|223|0|0|I|20110224-02:18:13.670|72|8=FIX.4.2|9=50|35=0|49=TSXRBS|56=RBS|34=223|52=20110224-02:18:13|10=047||0|
M|224|0|0|I|20110224-02:19:14.239|72|8=FIX.4.2|9=50|35=0|49=TSXRBS|56=RBS|34=224|52=20110224-02:19:14|10=050||0|
M|225|0|0|I|20110224-02:20:14.818|72|8=FIX.4.2|9=50|35=0|49=TSXRBS|56=RBS|34=225|52=20110224-02:20:14|10=043||0|
M|226|0|0|I|20110224-02:21:15.386|72|8=FIX.4.2|9=50|35=0|49=TSXRBS|56=RBS|34=226|52=20110224-02:21:15|10=046||0|
M|227|0|0|I|20110224-02:22:15.975|72|8=FIX.4.2|9=50|35=0|49=TSXRBS|56=RBS|34=227|52=20110224-02:22:15|10=048||0|
M|228|0|0|I|20110224-02:23:16.564|72|8=FIX.4.2|9=50|35=0|49=TSXRBS|56=RBS|34=228|52=20110224-02:23:16|10=051||0|
M|229|0|0|I|20110224-02:24:17.133|72|8=FIX.4.2|9=50|35=0|49=TSXRBS|56=RBS|34=229|52=20110224-02:24:17|10=054||0|
M|230|0|0|I|20110224-02:25:17.712|72|8=FIX.4.2|9=50|35=0|49=TSXRBS|56=RBS|34=230|52=20110224-02:25:17|10=047||0|
M|231|0|0|I|20110224-02:26:18.290|72|8=FIX.4.2|9=50|35=0|49=TSXRBS|56=RBS|34=231|52=20110224-02:26:18|10=050||0|
M|232|0|0|I|20110224-02:27:18.869|72|8=FIX.4.2|9=50|35=0|49=TSXRBS|56=RBS|34=232|52=20110224-02:27:18|10=052||0|
M|233|0|0|I|20110224-02:28:19.438|72|8=FIX.4.2|9=50|35=0|49=TSXRBS|56=RBS|34=233|52=20110224-02:28:19|10=055||0|
M|234|0|0|I|20110224-02:29:20.026|72|8=FIX.4.2|9=50|35=0|49=TSXRBS|56=RBS|34=234|52=20110224-02:29:20|10=049||0|
M|235|0|0|I|20110224-02:30:20.605|72|8=FIX.4.2|9=50|35=0|49=TSXRBS|56=RBS|34=235|52=20110224-02:30:20|10=042||0|
M|236|0|0|I|20110224-02:31:21.204|72|8=FIX.4.2|9=50|35=0|49=TSXRBS|56=RBS|34=236|52=20110224-02:31:21|10=045||0|
M|237|0|0|I|20110224-02:32:21.773|72|8=FIX.4.2|9=50|35=0|49=TSXRBS|56=RBS|34=237|52=20110224-02:32:21|10=047||0|
M|238|0|0|I|20110224-02:33:22.431|72|8=FIX.4.2|9=50|35=0|49=TSXRBS|56=RBS|34=238|52=20110224-02:33:22|10=050||0|
M|239|0|0|I|20110224-02:34:23.010|72|8=FIX.4.2|9=50|35=0|49=TSXRBS|56=RBS|34=239|52=20110224-02:34:23|10=053||0|
M|240|0|0|I|20110224-02:35:23.639|72|8=FIX.4.2|9=50|35=0|49=TSXRBS|56=RBS|34=240|52=20110224-02:35:23|10=046||0|
M|241|0|0|I|20110224-02:36:24.218|72|8=FIX.4.2|9=50|35=0|49=TSXRBS|56=RBS|34=241|52=20110224-02:36:24|10=049||0|
M|242|0|0|I|20110224-02:37:24.886|72|8=FIX.4.2|9=50|35=0|49=TSXRBS|56=RBS|34=242|52=20110224-02:37:24|10=051||0|
M|243|0|0|I|20110224-02:38:25.455|72|8=FIX.4.2|9=50|35=0|49=TSXRBS|56=RBS|34=243|52=20110224-02:38:25|10=054||0|
M|244|0|0|I|20110224-02:39:26.114|72|8=FIX.4.2|9=50|35=0|49=TSXRBS|56=RBS|34=244|52=20110224-02:39:26|10=057||0|
M|245|0|0|I|20110224-02:40:26.683|72|8=FIX.4.2|9=50|35=0|49=TSXRBS|56=RBS|34=245|52=20110224-02:40:26|10=050||0|
M|246|0|0|I|20110224-02:41:27.332|72|8=FIX.4.2|9=50|35=0|49=TSXRBS|56=RBS|34=246|52=20110224-02:41:27|10=053||0|
M|247|0|0|I|20110224-02:42:27.920|72|8=FIX.4.2|9=50|35=0|49=TSXRBS|56=RBS|34=247|52=20110224-02:42:27|10=055||0|
M|248|0|0|I|20110224-02:43:28.539|72|8=FIX.4.2|9=50|35=0|49=TSXRBS|56=RBS|34=248|52=20110224-02:43:28|10=058||0|
M|249|0|0|I|20110224-02:44:29.179|72|8=FIX.4.2|9=50|35=0|49=TSXRBS|56=RBS|34=249|52=20110224-02:44:29|10=061||0|
M|250|0|0|I|20110224-02:45:29.766|72|8=FIX.4.2|9=50|35=0|49=TSXRBS|56=RBS|34=250|52=20110224-02:45:29|10=054||0|
M|251|0|0|I|20110224-02:46:30.395|72|8=FIX.4.2|9=50|35=0|49=TSXRBS|56=RBS|34=251|52=20110224-02:46:30|10=048||0|
M|252|0|0|I|20110224-02:47:30.964|72|8=FIX.4.2|9=50|35=0|49=TSXRBS|56=RBS|34=252|52=20110224-02:47:30|10=050||0|
M|253|0|0|I|20110224-02:48:31.623|72|8=FIX.4.2|9=50|35=0|49=TSXRBS|56=RBS|34=253|52=20110224-02:48:31|10=053||0|
M|254|0|0|I|20110224-02:49:32.211|72|8=FIX.4.2|9=50|35=0|49=TSXRBS|56=RBS|34=254|52=20110224-02:49:32|10=056||0|
M|255|0|0|I|20110224-02:50:32.840|72|8=FIX.4.2|9=50|35=0|49=TSXRBS|56=RBS|34=255|52=20110224-02:50:32|10=049||0|
M|256|0|0|I|20110224-02:51:33.409|72|8=FIX.4.2|9=50|35=0|49=TSXRBS|56=RBS|34=256|52=20110224-02:51:33|10=052||0|
M|257|0|0|I|20110224-02:52:34.048|72|8=FIX.4.2|9=50|35=0|49=TSXRBS|56=RBS|34=257|52=20110224-02:52:34|10=055||0|
M|258|0|0|I|20110224-02:53:34.626|72|8=FIX.4.2|9=50|35=0|49=TSXRBS|56=RBS|34=258|52=20110224-02:53:34|10=057||0|
M|259|0|0|I|20110224-02:54:35.245|72|8=FIX.4.2|9=50|35=0|49=TSXRBS|56=RBS|34=259|52=20110224-02:54:35|10=060||0|
M|260|0|0|I|20110224-02:55:35.834|72|8=FIX.4.2|9=50|35=0|49=TSXRBS|56=RBS|34=260|52=20110224-02:55:35|10=053||0|
M|261|0|0|I|20110224-02:56:36.462|72|8=FIX.4.2|9=50|35=0|49=TSXRBS|56=RBS|34=261|52=20110224-02:56:36|10=056||0|
M|262|0|0|I|20110224-02:57:37.041|72|8=FIX.4.2|9=50|35=0|49=TSXRBS|56=RBS|34=262|52=20110224-02:57:37|10=059||0|
M|263|0|0|I|20110224-02:58:37.690|72|8=FIX.4.2|9=50|35=0|49=TSXRBS|56=RBS|34=263|52=20110224-02:58:37|10=061||0|
M|264|0|0|I|20110224-02:59:38.269|72|8=FIX.4.2|9=50|35=0|49=TSXRBS|56=RBS|34=264|52=20110224-02:59:38|10=064||0|
M|265|0|0|I|20110224-03:00:38.908|72|8=FIX.4.2|9=50|35=0|49=TSXRBS|56=RBS|34=265|52=20110224-03:00:38|10=052||0|
M|266|0|0|I|20110224-03:01:39.476|72|8=FIX.4.2|9=50|35=0|49=TSXRBS|56=RBS|34=266|52=20110224-03:01:39|10=055||0|
M|267|0|0|I|20110224-03:02:40.115|72|8=FIX.4.2|9=50|35=0|49=TSXRBS|56=RBS|34=267|52=20110224-03:02:40|10=049||0|
M|268|0|0|I|20110224-03:03:40.674|72|8=FIX.4.2|9=50|35=0|49=TSXRBS|56=RBS|34=268|52=20110224-03:03:40|10=051||0|
M|269|0|0|I|20110224-03:04:41.322|72|8=FIX.4.2|9=50|35=0|49=TSXRBS|56=RBS|34=269|52=20110224-03:04:41|10=054||0|
M|270|0|0|I|20110224-03:05:41.901|72|8=FIX.4.2|9=50|35=0|49=TSXRBS|56=RBS|34=270|52=20110224-03:05:41|10=047||0|
M|271|0|0|I|20110224-03:06:42.540|72|8=FIX.4.2|9=50|35=0|49=TSXRBS|56=RBS|34=271|52=20110224-03:06:42|10=050||0|
M|272|0|0|I|20110224-03:07:43.129|72|8=FIX.4.2|9=50|35=0|49=TSXRBS|56=RBS|34=272|52=20110224-03:07:43|10=053||0|
M|273|0|0|I|20110224-03:08:43.747|72|8=FIX.4.2|9=50|35=0|49=TSXRBS|56=RBS|34=273|52=20110224-03:08:43|10=055||0|
M|274|0|0|I|20110224-03:09:44.316|72|8=FIX.4.2|9=50|35=0|49=TSXRBS|56=RBS|34=274|52=20110224-03:09:44|10=058||0|
M|275|0|0|I|20110224-03:10:44.935|72|8=FIX.4.2|9=50|35=0|49=TSXRBS|56=RBS|34=275|52=20110224-03:10:44|10=051||0|
M|276|0|0|I|20110224-03:11:45.513|72|8=FIX.4.2|9=50|35=0|49=TSXRBS|56=RBS|34=276|52=20110224-03:11:45|10=054||0|
M|277|0|0|I|20110224-03:12:46.172|72|8=FIX.4.2|9=50|35=0|49=TSXRBS|56=RBS|34=277|52=20110224-03:12:46|10=057||0|
M|278|0|0|I|20110224-03:13:46.771|72|8=FIX.4.2|9=50|35=0|49=TSXRBS|56=RBS|34=278|52=20110224-03:13:46|10=059||0|
M|279|0|0|I|20110224-03:14:47.360|72|8=FIX.4.2|9=50|35=0|49=TSXRBS|56=RBS|34=279|52=20110224-03:14:47|10=062||0|
M|280|0|0|I|20110224-03:15:47.928|72|8=FIX.4.2|9=50|35=0|49=TSXRBS|56=RBS|34=280|52=20110224-03:15:47|10=055||0|
M|281|0|0|I|20110224-03:16:48.497|72|8=FIX.4.2|9=50|35=0|49=TSXRBS|56=RBS|34=281|52=20110224-03:16:48|10=058||0|
M|282|0|0|I|20110224-03:17:49.056|72|8=FIX.4.2|9=50|35=0|49=TSXRBS|56=RBS|34=282|52=20110224-03:17:49|10=061||0|
M|283|0|0|I|20110224-03:18:49.625|72|8=FIX.4.2|9=50|35=0|49=TSXRBS|56=RBS|34=283|52=20110224-03:18:49|10=063||0|
M|284|0|0|I|20110224-03:19:50.203|72|8=FIX.4.2|9=50|35=0|49=TSXRBS|56=RBS|34=284|52=20110224-03:19:50|10=057||0|
M|285|0|0|I|20110224-03:20:50.772|72|8=FIX.4.2|9=50|35=0|49=TSXRBS|56=RBS|34=285|52=20110224-03:20:50|10=050||0|
M|286|0|0|I|20110224-03:21:51.351|72|8=FIX.4.2|9=50|35=0|49=TSXRBS|56=RBS|34=286|52=20110224-03:21:51|10=053||0|
M|287|0|0|I|20110224-03:22:51.940|72|8=FIX.4.2|9=50|35=0|49=TSXRBS|56=RBS|34=287|52=20110224-03:22:51|10=055||0|
M|288|0|0|I|20110224-03:23:52.528|72|8=FIX.4.2|9=50|35=0|49=TSXRBS|56=RBS|34=288|52=20110224-03:23:52|10=058||0|
M|289|0|0|I|20110224-03:24:53.107|72|8=FIX.4.2|9=50|35=0|49=TSXRBS|56=RBS|34=289|52=20110224-03:24:53|10=061||0|
M|290|0|0|I|20110224-03:25:53.696|72|8=FIX.4.2|9=50|35=0|49=TSXRBS|56=RBS|34=290|52=20110224-03:25:53|10=054||0|
M|291|0|0|I|20110224-03:26:54.255|72|8=FIX.4.2|9=50|35=0|49=TSXRBS|56=RBS|34=291|52=20110224-03:26:54|10=057||0|
M|292|0|0|I|20110224-03:27:54.843|72|8=FIX.4.2|9=50|35=0|49=TSXRBS|56=RBS|34=292|52=20110224-03:27:54|10=059||0|
M|293|0|0|I|20110224-03:28:55.422|72|8=FIX.4.2|9=50|35=0|49=TSXRBS|56=RBS|34=293|52=20110224-03:28:55|10=062||0|
M|294|0|0|I|20110224-03:29:56.011|72|8=FIX.4.2|9=50|35=0|49=TSXRBS|56=RBS|34=294|52=20110224-03:29:56|10=065||0|
M|295|0|0|I|20110224-03:30:56.580|72|8=FIX.4.2|9=50|35=0|49=TSXRBS|56=RBS|34=295|52=20110224-03:30:56|10=058||0|
M|296|0|0|I|20110224-03:31:57.198|72|8=FIX.4.2|9=50|35=0|49=TSXRBS|56=RBS|34=296|52=20110224-03:31:57|10=061||0|
M|297|0|0|I|20110224-03:32:57.767|72|8=FIX.4.2|9=50|35=0|49=TSXRBS|56=RBS|34=297|52=20110224-03:32:57|10=063||0|
M|298|0|0|I|20110224-03:33:58.426|72|8=FIX.4.2|9=50|35=0|49=TSXRBS|56=RBS|34=298|52=20110224-03:33:58|10=066||0|
M|299|0|0|I|20110224-03:34:58.985|72|8=FIX.4.2|9=50|35=0|49=TSXRBS|56=RBS|34=299|52=20110224-03:34:58|10=068||0|
M|300|0|0|I|20110224-03:35:59.653|72|8=FIX.4.2|9=50|35=0|49=TSXRBS|56=RBS|34=300|52=20110224-03:35:59|10=053||0|
M|301|0|0|I|20110224-03:37:00.222|72|8=FIX.4.2|9=50|35=0|49=TSXRBS|56=RBS|34=301|52=20110224-03:37:00|10=042||0|
M|302|0|0|I|20110224-03:38:00.871|72|8=FIX.4.2|9=50|35=0|49=TSXRBS|56=RBS|34=302|52=20110224-03:38:00|10=044||0|
M|303|0|0|I|20110224-03:39:01.440|72|8=FIX.4.2|9=50|35=0|49=TSXRBS|56=RBS|34=303|52=20110224-03:39:01|10=047||0|
M|304|0|0|I|20110224-03:40:02.078|72|8=FIX.4.2|9=50|35=0|49=TSXRBS|56=RBS|34=304|52=20110224-03:40:02|10=041||0|
M|305|0|0|I|20110224-03:41:02.657|72|8=FIX.4.2|9=50|35=0|49=TSXRBS|56=RBS|34=305|52=20110224-03:41:02|10=043||0|
M|306|0|0|I|20110224-03:42:03.296|72|8=FIX.4.2|9=50|35=0|49=TSXRBS|56=RBS|34=306|52=20110224-03:42:03|10=046||0|
M|307|0|0|I|20110224-03:43:03.885|72|8=FIX.4.2|9=50|35=0|49=TSXRBS|56=RBS|34=307|52=20110224-03:43:03|10=048||0|
M|308|0|0|I|20110224-03:44:04.524|72|8=FIX.4.2|9=50|35=0|49=TSXRBS|56=RBS|34=308|52=20110224-03:44:04|10=051||0|
M|309|0|0|I|20110224-03:45:05.102|72|8=FIX.4.2|9=50|35=0|49=TSXRBS|56=RBS|34=309|52=20110224-03:45:05|10=054||0|
M|310|0|0|I|20110224-03:46:05.731|72|8=FIX.4.2|9=50|35=0|49=TSXRBS|56=RBS|34=310|52=20110224-03:46:05|10=047||0|
M|311|0|0|I|20110224-03:47:06.320|72|8=FIX.4.2|9=50|35=0|49=TSXRBS|56=RBS|34=311|52=20110224-03:47:06|10=050||0|
M|312|0|0|I|20110224-03:48:06.958|72|8=FIX.4.2|9=50|35=0|49=TSXRBS|56=RBS|34=312|52=20110224-03:48:06|10=052||0|
M|313|0|0|I|20110224-03:49:07.537|72|8=FIX.4.2|9=50|35=0|49=TSXRBS|56=RBS|34=313|52=20110224-03:49:07|10=055||0|
M|314|0|0|I|20110224-03:50:08.156|72|8=FIX.4.2|9=50|35=0|49=TSXRBS|56=RBS|34=314|52=20110224-03:50:08|10=049||0|
M|315|0|0|I|20110224-03:51:08.735|72|8=FIX.4.2|9=50|35=0|49=TSXRBS|56=RBS|34=315|52=20110224-03:51:08|10=051||0|
M|316|0|0|I|20110224-03:52:09.383|72|8=FIX.4.2|9=50|35=0|49=TSXRBS|56=RBS|34=316|52=20110224-03:52:09|10=054||0|
M|317|0|0|I|20110224-03:53:09.982|72|8=FIX.4.2|9=50|35=0|49=TSXRBS|56=RBS|34=317|52=20110224-03:53:09|10=056||0|
M|318|0|0|I|20110224-03:54:10.591|72|8=FIX.4.2|9=50|35=0|49=TSXRBS|56=RBS|34=318|52=20110224-03:54:10|10=050||0|
M|319|0|0|I|20110224-03:55:11.170|72|8=FIX.4.2|9=50|35=0|49=TSXRBS|56=RBS|34=319|52=20110224-03:55:11|10=053||0|
M|320|0|0|I|20110224-03:56:11.798|72|8=FIX.4.2|9=50|35=0|49=TSXRBS|56=RBS|34=320|52=20110224-03:56:11|10=046||0|
M|321|0|0|I|20110224-03:57:12.388|72|8=FIX.4.2|9=50|35=0|49=TSXRBS|56=RBS|34=321|52=20110224-03:57:12|10=049||0|
M|322|0|0|I|20110224-03:58:13.016|72|8=FIX.4.2|9=50|35=0|49=TSXRBS|56=RBS|34=322|52=20110224-03:58:13|10=052||0|
M|323|0|0|I|20110224-03:59:13.605|72|8=FIX.4.2|9=50|35=0|49=TSXRBS|56=RBS|34=323|52=20110224-03:59:13|10=054||0|
M|324|0|0|I|20110224-04:00:14.213|72|8=FIX.4.2|9=50|35=0|49=TSXRBS|56=RBS|34=324|52=20110224-04:00:14|10=043||0|
M|325|0|0|I|20110224-04:01:14.782|72|8=FIX.4.2|9=50|35=0|49=TSXRBS|56=RBS|34=325|52=20110224-04:01:14|10=045||0|
M|326|0|0|I|20110224-04:02:15.341|72|8=FIX.4.2|9=50|35=0|49=TSXRBS|56=RBS|34=326|52=20110224-04:02:15|10=048||0|
M|327|0|0|I|20110224-04:03:15.930|72|8=FIX.4.2|9=50|35=0|49=TSXRBS|56=RBS|34=327|52=20110224-04:03:15|10=050||0|
M|328|0|0|I|20110224-04:04:16.509|72|8=FIX.4.2|9=50|35=0|49=TSXRBS|56=RBS|34=328|52=20110224-04:04:16|10=053||0|
M|329|0|0|I|20110224-04:05:17.097|72|8=FIX.4.2|9=50|35=0|49=TSXRBS|56=RBS|34=329|52=20110224-04:05:17|10=056||0|
M|330|0|0|I|20110224-04:06:17.646|72|8=FIX.4.2|9=50|35=0|49=TSXRBS|56=RBS|34=330|52=20110224-04:06:17|10=049||0|
M|331|0|0|I|20110224-04:07:18.205|72|8=FIX.4.2|9=50|35=0|49=TSXRBS|56=RBS|34=331|52=20110224-04:07:18|10=052||0|
M|332|0|0|I|20110224-04:08:18.793|72|8=FIX.4.2|9=50|35=0|49=TSXRBS|56=RBS|34=332|52=20110224-04:08:18|10=054||0|
M|333|0|0|I|20110224-04:09:19.392|72|8=FIX.4.2|9=50|35=0|49=TSXRBS|56=RBS|34=333|52=20110224-04:09:19|10=057||0|
M|334|0|0|I|20110224-04:10:19.971|72|8=FIX.4.2|9=50|35=0|49=TSXRBS|56=RBS|34=334|52=20110224-04:10:19|10=050||0|
M|335|0|0|I|20110224-04:11:20.550|72|8=FIX.4.2|9=50|35=0|49=TSXRBS|56=RBS|34=335|52=20110224-04:11:20|10=044||0|
M|336|0|0|I|20110224-04:12:21.128|72|8=FIX.4.2|9=50|35=0|49=TSXRBS|56=RBS|34=336|52=20110224-04:12:21|10=047||0|
M|337|0|0|I|20110224-04:13:21.717|72|8=FIX.4.2|9=50|35=0|49=TSXRBS|56=RBS|34=337|52=20110224-04:13:21|10=049||0|
M|338|0|0|I|20110224-04:14:22.296|72|8=FIX.4.2|9=50|35=0|49=TSXRBS|56=RBS|34=338|52=20110224-04:14:22|10=052||0|
M|339|0|0|I|20110224-04:15:22.875|72|8=FIX.4.2|9=50|35=0|49=TSXRBS|56=RBS|34=339|52=20110224-04:15:22|10=054||0|
M|340|0|0|I|20110224-04:16:23.473|72|8=FIX.4.2|9=50|35=0|49=TSXRBS|56=RBS|34=340|52=20110224-04:16:23|10=048||0|
M|341|0|0|I|20110224-04:17:24.052|72|8=FIX.4.2|9=50|35=0|49=TSXRBS|56=RBS|34=341|52=20110224-04:17:24|10=051||0|
M|342|0|0|I|20110224-04:18:24.631|72|8=FIX.4.2|9=50|35=0|49=TSXRBS|56=RBS|34=342|52=20110224-04:18:24|10=053||0|
M|343|0|0|I|20110224-04:19:25.200|72|8=FIX.4.2|9=50|35=0|49=TSXRBS|56=RBS|34=343|52=20110224-04:19:25|10=056||0|
M|344|0|0|I|20110224-04:20:25.758|72|8=FIX.4.2|9=50|35=0|49=TSXRBS|56=RBS|34=344|52=20110224-04:20:25|10=049||0|
M|345|0|0|I|20110224-04:21:26.328|72|8=FIX.4.2|9=50|35=0|49=TSXRBS|56=RBS|34=345|52=20110224-04:21:26|10=052||0|
M|346|0|0|I|20110224-04:22:26.916|72|8=FIX.4.2|9=50|35=0|49=TSXRBS|56=RBS|34=346|52=20110224-04:22:26|10=054||0|
M|347|0|0|I|20110224-04:23:27.465|72|8=FIX.4.2|9=50|35=0|49=TSXRBS|56=RBS|34=347|52=20110224-04:23:27|10=057||0|
M|348|0|0|I|20110224-04:24:28.043|72|8=FIX.4.2|9=50|35=0|49=TSXRBS|56=RBS|34=348|52=20110224-04:24:28|10=060||0|
M|349|0|0|I|20110224-04:25:28.632|72|8=FIX.4.2|9=50|35=0|49=TSXRBS|56=RBS|34=349|52=20110224-04:25:28|10=062||0|
M|350|0|0|I|20110224-04:26:29.201|72|8=FIX.4.2|9=50|35=0|49=TSXRBS|56=RBS|34=350|52=20110224-04:26:29|10=056||0|
M|351|0|0|I|20110224-04:27:29.770|72|8=FIX.4.2|9=50|35=0|49=TSXRBS|56=RBS|34=351|52=20110224-04:27:29|10=058||0|
M|352|0|0|I|20110224-04:28:30.348|72|8=FIX.4.2|9=50|35=0|49=TSXRBS|56=RBS|34=352|52=20110224-04:28:30|10=052||0|
M|353|0|0|I|20110224-04:29:30.937|72|8=FIX.4.2|9=50|35=0|49=TSXRBS|56=RBS|34=353|52=20110224-04:29:30|10=054||0|
M|354|0|0|I|20110224-04:30:31.516|72|8=FIX.4.2|9=50|35=0|49=TSXRBS|56=RBS|34=354|52=20110224-04:30:31|10=048||0|
M|355|0|0|I|20110224-04:31:32.074|72|8=FIX.4.2|9=50|35=0|49=TSXRBS|56=RBS|34=355|52=20110224-04:31:32|10=051||0|
M|356|0|0|I|20110224-04:32:32.723|72|8=FIX.4.2|9=50|35=0|49=TSXRBS|56=RBS|34=356|52=20110224-04:32:32|10=053||0|
M|357|0|0|I|20110224-04:33:33.312|72|8=FIX.4.2|9=50|35=0|49=TSXRBS|56=RBS|34=357|52=20110224-04:33:33|10=056||0|
M|358|0|0|I|20110224-04:34:33.951|72|8=FIX.4.2|9=50|35=0|49=TSXRBS|56=RBS|34=358|52=20110224-04:34:33|10=058||0|
M|359|0|0|I|20110224-04:35:34.520|72|8=FIX.4.2|9=50|35=0|49=TSXRBS|56=RBS|34=359|52=20110224-04:35:34|10=061||0|
M|360|0|0|I|20110224-04:36:35.168|72|8=FIX.4.2|9=50|35=0|49=TSXRBS|56=RBS|34=360|52=20110224-04:36:35|10=055||0|
M|361|0|0|I|20110224-04:37:35.747|72|8=FIX.4.2|9=50|35=0|49=TSXRBS|56=RBS|34=361|52=20110224-04:37:35|10=057||0|
M|362|0|0|I|20110224-04:38:36.346|72|8=FIX.4.2|9=50|35=0|49=TSXRBS|56=RBS|34=362|52=20110224-04:38:36|10=060||0|
M|363|0|0|I|20110224-04:39:36.915|72|8=FIX.4.2|9=50|35=0|49=TSXRBS|56=RBS|34=363|52=20110224-04:39:36|10=062||0|
M|364|0|0|I|20110224-04:40:37.563|72|8=FIX.4.2|9=50|35=0|49=TSXRBS|56=RBS|34=364|52=20110224-04:40:37|10=056||0|
M|365|0|0|I|20110224-04:41:38.142|72|8=FIX.4.2|9=50|35=0|49=TSXRBS|56=RBS|34=365|52=20110224-04:41:38|10=059||0|
M|366|0|0|I|20110224-04:42:38.791|72|8=FIX.4.2|9=50|35=0|49=TSXRBS|56=RBS|34=366|52=20110224-04:42:38|10=061||0|
M|367|0|0|I|20110224-04:43:39.350|72|8=FIX.4.2|9=50|35=0|49=TSXRBS|56=RBS|34=367|52=20110224-04:43:39|10=064||0|
M|368|0|0|I|20110224-04:44:39.928|72|8=FIX.4.2|9=50|35=0|49=TSXRBS|56=RBS|34=368|52=20110224-04:44:39|10=066||0|
M|369|0|0|I|20110224-04:45:40.517|72|8=FIX.4.2|9=50|35=0|49=TSXRBS|56=RBS|34=369|52=20110224-04:45:40|10=060||0|
M|370|0|0|I|20110224-04:46:41.096|72|8=FIX.4.2|9=50|35=0|49=TSXRBS|56=RBS|34=370|52=20110224-04:46:41|10=054||0|
M|371|0|0|I|20110224-04:47:41.654|72|8=FIX.4.2|9=50|35=0|49=TSXRBS|56=RBS|34=371|52=20110224-04:47:41|10=056||0|
M|372|0|0|I|20110224-04:48:42.243|72|8=FIX.4.2|9=50|35=0|49=TSXRBS|56=RBS|34=372|52=20110224-04:48:42|10=059||0|
M|373|0|0|I|20110224-04:49:42.802|72|8=FIX.4.2|9=50|35=0|49=TSXRBS|56=RBS|34=373|52=20110224-04:49:42|10=061||0|
M|374|0|0|I|20110224-04:50:43.361|72|8=FIX.4.2|9=50|35=0|49=TSXRBS|56=RBS|34=374|52=20110224-04:50:43|10=055||0|
M|375|0|0|I|20110224-04:51:43.920|72|8=FIX.4.2|9=50|35=0|49=TSXRBS|56=RBS|34=375|52=20110224-04:51:43|10=057||0|
M|376|0|0|I|20110224-04:52:44.499|72|8=FIX.4.2|9=50|35=0|49=TSXRBS|56=RBS|34=376|52=20110224-04:52:44|10=060||0|
M|377|0|0|I|20110224-04:53:45.077|72|8=FIX.4.2|9=50|35=0|49=TSXRBS|56=RBS|34=377|52=20110224-04:53:45|10=063||0|
M|378|0|0|I|20110224-04:54:45.656|72|8=FIX.4.2|9=50|35=0|49=TSXRBS|56=RBS|34=378|52=20110224-04:54:45|10=065||0|
M|379|0|0|I|20110224-04:55:46.214|72|8=FIX.4.2|9=50|35=0|49=TSXRBS|56=RBS|34=379|52=20110224-04:55:46|10=068||0|
M|380|0|0|I|20110224-04:56:46.843|72|8=FIX.4.2|9=50|35=0|49=TSXRBS|56=RBS|34=380|52=20110224-04:56:46|10=061||0|
M|381|0|0|I|20110224-04:57:47.412|72|8=FIX.4.2|9=50|35=0|49=TSXRBS|56=RBS|34=381|52=20110224-04:57:47|10=064||0|
M|382|0|0|I|20110224-04:58:48.041|72|8=FIX.4.2|9=50|35=0|49=TSXRBS|56=RBS|34=382|52=20110224-04:58:48|10=067||0|
M|383|0|0|I|20110224-04:59:48.620|72|8=FIX.4.2|9=50|35=0|49=TSXRBS|56=RBS|34=383|52=20110224-04:59:48|10=069||0|
M|384|0|0|I|20110224-05:00:49.178|72|8=FIX.4.2|9=50|35=0|49=TSXRBS|56=RBS|34=384|52=20110224-05:00:49|10=058||0|
M|385|0|0|I|20110224-05:01:49.757|72|8=FIX.4.2|9=50|35=0|49=TSXRBS|56=RBS|34=385|52=20110224-05:01:49|10=060||0|
M|386|0|0|I|20110224-05:02:50.326|72|8=FIX.4.2|9=50|35=0|49=TSXRBS|56=RBS|34=386|52=20110224-05:02:50|10=054||0|
M|387|0|0|I|20110224-05:03:50.904|72|8=FIX.4.2|9=50|35=0|49=TSXRBS|56=RBS|34=387|52=20110224-05:03:50|10=056||0|
M|388|0|0|I|20110224-05:04:51.493|72|8=FIX.4.2|9=50|35=0|49=TSXRBS|56=RBS|34=388|52=20110224-05:04:51|10=059||0|
M|389|0|0|I|20110224-05:05:52.092|72|8=FIX.4.2|9=50|35=0|49=TSXRBS|56=RBS|34=389|52=20110224-05:05:52|10=062||0|
M|390|0|0|I|20110224-05:06:52.671|72|8=FIX.4.2|9=50|35=0|49=TSXRBS|56=RBS|34=390|52=20110224-05:06:52|10=055||0|
M|391|0|0|I|20110224-05:07:53.270|72|8=FIX.4.2|9=50|35=0|49=TSXRBS|56=RBS|34=391|52=20110224-05:07:53|10=058||0|
M|392|0|0|I|20110224-05:08:53.848|72|8=FIX.4.2|9=50|35=0|49=TSXRBS|56=RBS|34=392|52=20110224-05:08:53|10=060||0|
M|393|0|0|I|20110224-05:09:54.437|72|8=FIX.4.2|9=50|35=0|49=TSXRBS|56=RBS|34=393|52=20110224-05:09:54|10=063||0|
M|394|0|0|I|20110224-05:10:55.016|72|8=FIX.4.2|9=50|35=0|49=TSXRBS|56=RBS|34=394|52=20110224-05:10:55|10=057||0|
M|395|0|0|I|20110224-05:11:55.594|72|8=FIX.4.2|9=50|35=0|49=TSXRBS|56=RBS|34=395|52=20110224-05:11:55|10=059||0|
M|396|0|0|I|20110224-05:12:56.173|72|8=FIX.4.2|9=50|35=0|49=TSXRBS|56=RBS|34=396|52=20110224-05:12:56|10=062||0|
M|397|0|0|I|20110224-05:13:56.772|72|8=FIX.4.2|9=50|35=0|49=TSXRBS|56=RBS|34=397|52=20110224-05:13:56|10=064||0|
M|398|0|0|I|20110224-05:14:57.340|72|8=FIX.4.2|9=50|35=0|49=TSXRBS|56=RBS|34=398|52=20110224-05:14:57|10=067||0|
M|399|0|0|I|20110224-05:15:57.919|72|8=FIX.4.2|9=50|35=0|49=TSXRBS|56=RBS|34=399|52=20110224-05:15:57|10=069||0|
M|400|0|0|I|20110224-05:16:58.498|72|8=FIX.4.2|9=50|35=0|49=TSXRBS|56=RBS|34=400|52=20110224-05:16:58|10=054||0|
M|401|0|0|I|20110224-05:17:59.127|72|8=FIX.4.2|9=50|35=0|49=TSXRBS|56=RBS|34=401|52=20110224-05:17:59|10=057||0|
M|402|0|0|I|20110224-05:18:59.695|72|8=FIX.4.2|9=50|35=0|49=TSXRBS|56=RBS|34=402|52=20110224-05:18:59|10=059||0|
M|403|0|0|I|20110224-05:20:00.334|72|8=FIX.4.2|9=50|35=0|49=TSXRBS|56=RBS|34=403|52=20110224-05:20:00|10=039||0|
M|404|0|0|I|20110224-05:21:00.893|72|8=FIX.4.2|9=50|35=0|49=TSXRBS|56=RBS|34=404|52=20110224-05:21:00|10=041||0|
M|405|0|0|I|20110224-05:22:01.542|72|8=FIX.4.2|9=50|35=0|49=TSXRBS|56=RBS|34=405|52=20110224-05:22:01|10=044||0|
M|406|0|0|I|20110224-05:23:02.120|72|8=FIX.4.2|9=50|35=0|49=TSXRBS|56=RBS|34=406|52=20110224-05:23:02|10=047||0|
M|407|0|0|I|20110224-05:24:02.759|72|8=FIX.4.2|9=50|35=0|49=TSXRBS|56=RBS|34=407|52=20110224-05:24:02|10=049||0|
M|408|0|0|I|20110224-05:25:03.348|72|8=FIX.4.2|9=50|35=0|49=TSXRBS|56=RBS|34=408|52=20110224-05:25:03|10=052||0|
M|409|0|0|I|20110224-05:26:03.997|72|8=FIX.4.2|9=50|35=0|49=TSXRBS|56=RBS|34=409|52=20110224-05:26:03|10=054||0|
M|410|0|0|I|20110224-05:27:04.566|72|8=FIX.4.2|9=50|35=0|49=TSXRBS|56=RBS|34=410|52=20110224-05:27:04|10=048||0|
M|411|0|0|I|20110224-05:28:05.214|72|8=FIX.4.2|9=50|35=0|49=TSXRBS|56=RBS|34=411|52=20110224-05:28:05|10=051||0|
M|412|0|0|I|20110224-05:29:05.803|72|8=FIX.4.2|9=50|35=0|49=TSXRBS|56=RBS|34=412|52=20110224-05:29:05|10=053||0|
M|413|0|0|I|20110224-05:30:06.422|72|8=FIX.4.2|9=50|35=0|49=TSXRBS|56=RBS|34=413|52=20110224-05:30:06|10=047||0|
M|414|0|0|I|20110224-05:31:06.970|72|8=FIX.4.2|9=50|35=0|49=TSXRBS|56=RBS|34=414|52=20110224-05:31:06|10=049||0|
M|415|0|0|I|20110224-05:32:07.609|72|8=FIX.4.2|9=50|35=0|49=TSXRBS|56=RBS|34=415|52=20110224-05:32:07|10=052||0|
M|416|0|0|I|20110224-05:33:08.188|72|8=FIX.4.2|9=50|35=0|49=TSXRBS|56=RBS|34=416|52=20110224-05:33:08|10=055||0|
M|417|0|0|I|20110224-05:34:08.837|72|8=FIX.4.2|9=50|35=0|49=TSXRBS|56=RBS|34=417|52=20110224-05:34:08|10=057||0|
M|418|0|0|I|20110224-05:35:09.416|72|8=FIX.4.2|9=50|35=0|49=TSXRBS|56=RBS|34=418|52=20110224-05:35:09|10=060||0|
M|419|0|0|I|20110224-05:36:10.024|72|8=FIX.4.2|9=50|35=0|49=TSXRBS|56=RBS|34=419|52=20110224-05:36:10|10=054||0|
M|420|0|0|I|20110224-05:37:10.613|72|8=FIX.4.2|9=50|35=0|49=TSXRBS|56=RBS|34=420|52=20110224-05:37:10|10=047||0|
M|421|0|0|I|20110224-05:38:11.262|72|8=FIX.4.2|9=50|35=0|49=TSXRBS|56=RBS|34=421|52=20110224-05:38:11|10=050||0|
M|422|0|0|I|20110224-05:39:11.850|72|8=FIX.4.2|9=50|35=0|49=TSXRBS|56=RBS|34=422|52=20110224-05:39:11|10=052||0|
M|423|0|0|I|20110224-05:40:12.460|72|8=FIX.4.2|9=50|35=0|49=TSXRBS|56=RBS|34=423|52=20110224-05:40:12|10=046||0|
M|424|0|0|I|20110224-05:41:13.048|72|8=FIX.4.2|9=50|35=0|49=TSXRBS|56=RBS|34=424|52=20110224-05:41:13|10=049||0|
M|425|0|0|I|20110224-05:42:13.677|72|8=FIX.4.2|9=50|35=0|49=TSXRBS|56=RBS|34=425|52=20110224-05:42:13|10=051||0|
M|426|0|0|I|20110224-05:43:14.265|72|8=FIX.4.2|9=50|35=0|49=TSXRBS|56=RBS|34=426|52=20110224-05:43:14|10=054||0|
M|427|0|0|I|20110224-05:44:14.864|72|8=FIX.4.2|9=50|35=0|49=TSXRBS|56=RBS|34=427|52=20110224-05:44:14|10=056||0|
M|428|0|0|I|20110224-05:45:15.443|72|8=FIX.4.2|9=50|35=0|49=TSXRBS|56=RBS|34=428|52=20110224-05:45:15|10=059||0|
M|429|0|0|I|20110224-05:46:16.092|72|8=FIX.4.2|9=50|35=0|49=TSXRBS|56=RBS|34=429|52=20110224-05:46:16|10=062||0|
M|430|0|0|I|20110224-05:47:16.661|72|8=FIX.4.2|9=50|35=0|49=TSXRBS|56=RBS|34=430|52=20110224-05:47:16|10=055||0|
M|431|0|0|I|20110224-05:48:17.289|72|8=FIX.4.2|9=50|35=0|49=TSXRBS|56=RBS|34=431|52=20110224-05:48:17|10=058||0|
M|432|0|0|I|20110224-05:49:17.868|72|8=FIX.4.2|9=50|35=0|49=TSXRBS|56=RBS|34=432|52=20110224-05:49:17|10=060||0|
M|433|0|0|I|20110224-05:50:18.517|72|8=FIX.4.2|9=50|35=0|49=TSXRBS|56=RBS|34=433|52=20110224-05:50:18|10=054||0|
M|434|0|0|I|20110224-05:51:19.105|72|8=FIX.4.2|9=50|35=0|49=TSXRBS|56=RBS|34=434|52=20110224-05:51:19|10=057||0|
M|435|0|0|I|20110224-05:52:19.704|72|8=FIX.4.2|9=50|35=0|49=TSXRBS|56=RBS|34=435|52=20110224-05:52:19|10=059||0|
M|436|0|0|I|20110224-05:53:20.293|72|8=FIX.4.2|9=50|35=0|49=TSXRBS|56=RBS|34=436|52=20110224-05:53:20|10=053||0|
M|437|0|0|I|20110224-05:54:20.942|72|8=FIX.4.2|9=50|35=0|49=TSXRBS|56=RBS|34=437|52=20110224-05:54:20|10=055||0|
M|438|0|0|I|20110224-05:55:21.510|72|8=FIX.4.2|9=50|35=0|49=TSXRBS|56=RBS|34=438|52=20110224-05:55:21|10=058||0|
M|439|0|0|I|20110224-05:56:22.119|72|8=FIX.4.2|9=50|35=0|49=TSXRBS|56=RBS|34=439|52=20110224-05:56:22|10=061||0|
M|440|0|0|I|20110224-05:57:22.708|72|8=FIX.4.2|9=50|35=0|49=TSXRBS|56=RBS|34=440|52=20110224-05:57:22|10=054||0|
M|441|0|0|I|20110224-05:58:23.367|72|8=FIX.4.2|9=50|35=0|49=TSXRBS|56=RBS|34=441|52=20110224-05:58:23|10=057||0|
M|442|0|0|I|20110224-05:59:23.935|72|8=FIX.4.2|9=50|35=0|49=TSXRBS|56=RBS|34=442|52=20110224-05:59:23|10=059||0|
M|443|0|0|I|20110224-06:00:24.574|72|8=FIX.4.2|9=50|35=0|49=TSXRBS|56=RBS|34=443|52=20110224-06:00:24|10=048||0|
M|444|0|0|I|20110224-06:01:25.173|72|8=FIX.4.2|9=50|35=0|49=TSXRBS|56=RBS|34=444|52=20110224-06:01:25|10=051||0|
M|445|0|0|I|20110224-06:02:25.772|72|8=FIX.4.2|9=50|35=0|49=TSXRBS|56=RBS|34=445|52=20110224-06:02:25|10=053||0|
M|446|0|0|I|20110224-06:03:26.350|72|8=FIX.4.2|9=50|35=0|49=TSXRBS|56=RBS|34=446|52=20110224-06:03:26|10=056||0|
M|447|0|0|I|20110224-06:04:27.009|72|8=FIX.4.2|9=50|35=0|49=TSXRBS|56=RBS|34=447|52=20110224-06:04:27|10=059||0|
M|448|0|0|I|20110224-06:05:27.588|72|8=FIX.4.2|9=50|35=0|49=TSXRBS|56=RBS|34=448|52=20110224-06:05:27|10=061||0|
M|449|0|0|I|20110224-06:06:28.219|72|8=FIX.4.2|9=50|35=0|49=TSXRBS|56=RBS|34=449|52=20110224-06:06:28|10=064||0|
M|450|0|0|I|20110224-06:07:28.779|72|8=FIX.4.2|9=50|35=0|49=TSXRBS|56=RBS|34=450|52=20110224-06:07:28|10=057||0|
M|451|0|0|I|20110224-06:08:29.434|72|8=FIX.4.2|9=50|35=0|49=TSXRBS|56=RBS|34=451|52=20110224-06:08:29|10=060||0|
M|452|0|0|I|20110224-06:09:30.024|72|8=FIX.4.2|9=50|35=0|49=TSXRBS|56=RBS|34=452|52=20110224-06:09:30|10=054||0|
M|453|0|0|I|20110224-06:10:30.652|72|8=FIX.4.2|9=50|35=0|49=TSXRBS|56=RBS|34=453|52=20110224-06:10:30|10=047||0|
M|454|0|0|I|20110224-06:11:31.230|72|8=FIX.4.2|9=50|35=0|49=TSXRBS|56=RBS|34=454|52=20110224-06:11:31|10=050||0|
M|455|0|0|I|20110224-06:12:31.849|72|8=FIX.4.2|9=50|35=0|49=TSXRBS|56=RBS|34=455|52=20110224-06:12:31|10=052||0|
M|456|0|0|I|20110224-06:13:32.438|72|8=FIX.4.2|9=50|35=0|49=TSXRBS|56=RBS|34=456|52=20110224-06:13:32|10=055||0|
M|457|0|0|I|20110224-06:14:33.057|72|8=FIX.4.2|9=50|35=0|49=TSXRBS|56=RBS|34=457|52=20110224-06:14:33|10=058||0|
M|458|0|0|I|20110224-06:15:33.615|72|8=FIX.4.2|9=50|35=0|49=TSXRBS|56=RBS|34=458|52=20110224-06:15:33|10=060||0|
M|459|0|0|I|20110224-06:16:34.194|72|8=FIX.4.2|9=50|35=0|49=TSXRBS|56=RBS|34=459|52=20110224-06:16:34|10=063||0|
M|460|0|0|I|20110224-06:17:34.783|72|8=FIX.4.2|9=50|35=0|49=TSXRBS|56=RBS|34=460|52=20110224-06:17:34|10=056||0|
M|461|0|0|I|20110224-06:18:35.362|72|8=FIX.4.2|9=50|35=0|49=TSXRBS|56=RBS|34=461|52=20110224-06:18:35|10=059||0|
M|462|0|0|I|20110224-06:19:35.930|72|8=FIX.4.2|9=50|35=0|49=TSXRBS|56=RBS|34=462|52=20110224-06:19:35|10=061||0|
M|463|0|0|I|20110224-06:20:36.499|72|8=FIX.4.2|9=50|35=0|49=TSXRBS|56=RBS|34=463|52=20110224-06:20:36|10=055||0|
M|464|0|0|I|20110224-06:21:37.088|72|8=FIX.4.2|9=50|35=0|49=TSXRBS|56=RBS|34=464|52=20110224-06:21:37|10=058||0|
M|465|0|0|I|20110224-06:22:37.657|72|8=FIX.4.2|9=50|35=0|49=TSXRBS|56=RBS|34=465|52=20110224-06:22:37|10=060||0|
M|466|0|0|I|20110224-06:23:38.245|72|8=FIX.4.2|9=50|35=0|49=TSXRBS|56=RBS|34=466|52=20110224-06:23:38|10=063||0|
M|467|0|0|I|20110224-06:24:38.834|72|8=FIX.4.2|9=50|35=0|49=TSXRBS|56=RBS|34=467|52=20110224-06:24:38|10=065||0|
M|468|0|0|I|20110224-06:25:39.403|72|8=FIX.4.2|9=50|35=0|49=TSXRBS|56=RBS|34=468|52=20110224-06:25:39|10=068||0|
M|469|0|0|I|20110224-06:26:39.972|72|8=FIX.4.2|9=50|35=0|49=TSXRBS|56=RBS|34=469|52=20110224-06:26:39|10=070||0|
M|470|0|0|I|20110224-06:27:40.540|72|8=FIX.4.2|9=50|35=0|49=TSXRBS|56=RBS|34=470|52=20110224-06:27:40|10=055||0|
M|471|0|0|I|20110224-06:28:41.129|72|8=FIX.4.2|9=50|35=0|49=TSXRBS|56=RBS|34=471|52=20110224-06:28:41|10=058||0|
M|472|0|0|I|20110224-06:29:41.708|72|8=FIX.4.2|9=50|35=0|49=TSXRBS|56=RBS|34=472|52=20110224-06:29:41|10=060||0|
M|473|0|0|I|20110224-06:30:42.336|72|8=FIX.4.2|9=50|35=0|49=TSXRBS|56=RBS|34=473|52=20110224-06:30:42|10=054||0|
M|474|0|0|I|20110224-06:31:42.925|72|8=FIX.4.2|9=50|35=0|49=TSXRBS|56=RBS|34=474|52=20110224-06:31:42|10=056||0|
M|475|0|0|I|20110224-06:32:43.504|72|8=FIX.4.2|9=50|35=0|49=TSXRBS|56=RBS|34=475|52=20110224-06:32:43|10=059||0|
M|476|0|0|I|20110224-06:33:44.113|72|8=FIX.4.2|9=50|35=0|49=TSXRBS|56=RBS|34=476|52=20110224-06:33:44|10=062||0|
M|477|0|0|I|20110224-06:34:44.682|72|8=FIX.4.2|9=50|35=0|49=TSXRBS|56=RBS|34=477|52=20110224-06:34:44|10=064||0|
M|478|0|0|I|20110224-06:35:45.330|72|8=FIX.4.2|9=50|35=0|49=TSXRBS|56=RBS|34=478|52=20110224-06:35:45|10=067||0|
M|479|0|0|I|20110224-06:36:45.909|72|8=FIX.4.2|9=50|35=0|49=TSXRBS|56=RBS|34=479|52=20110224-06:36:45|10=069||0|
M|480|0|0|I|20110224-06:37:46.548|72|8=FIX.4.2|9=50|35=0|49=TSXRBS|56=RBS|34=480|52=20110224-06:37:46|10=063||0|
M|481|0|0|I|20110224-06:38:47.126|72|8=FIX.4.2|9=50|35=0|49=TSXRBS|56=RBS|34=481|52=20110224-06:38:47|10=066||0|
M|482|0|0|I|20110224-06:39:47.775|72|8=FIX.4.2|9=50|35=0|49=TSXRBS|56=RBS|34=482|52=20110224-06:39:47|10=068||0|
M|483|0|0|I|20110224-06:40:48.364|72|8=FIX.4.2|9=50|35=0|49=TSXRBS|56=RBS|34=483|52=20110224-06:40:48|10=062||0|
M|484|0|0|I|20110224-06:41:48.973|72|8=FIX.4.2|9=50|35=0|49=TSXRBS|56=RBS|34=484|52=20110224-06:41:48|10=064||0|
M|485|0|0|I|20110224-06:42:49.551|72|8=FIX.4.2|9=50|35=0|49=TSXRBS|56=RBS|34=485|52=20110224-06:42:49|10=067||0|
M|486|0|0|I|20110224-06:43:50.220|72|8=FIX.4.2|9=50|35=0|49=TSXRBS|56=RBS|34=486|52=20110224-06:43:50|10=061||0|
M|487|0|0|I|20110224-06:44:50.799|72|8=FIX.4.2|9=50|35=0|49=TSXRBS|56=RBS|34=487|52=20110224-06:44:50|10=063||0|
M|488|0|0|I|20110224-06:45:51.398|72|8=FIX.4.2|9=50|35=0|49=TSXRBS|56=RBS|34=488|52=20110224-06:45:51|10=066||0|
M|489|0|0|I|20110224-06:46:51.966|72|8=FIX.4.2|9=50|35=0|49=TSXRBS|56=RBS|34=489|52=20110224-06:46:51|10=068||0|
M|490|0|0|I|20110224-06:47:52.615|72|8=FIX.4.2|9=50|35=0|49=TSXRBS|56=RBS|34=490|52=20110224-06:47:52|10=062||0|
M|491|0|0|I|20110224-06:48:53.194|72|8=FIX.4.2|9=50|35=0|49=TSXRBS|56=RBS|34=491|52=20110224-06:48:53|10=065||0|
M|492|0|0|I|20110224-06:49:53.802|72|8=FIX.4.2|9=50|35=0|49=TSXRBS|56=RBS|34=492|52=20110224-06:49:53|10=067||0|
M|493|0|0|I|20110224-06:50:54.351|72|8=FIX.4.2|9=50|35=0|49=TSXRBS|56=RBS|34=493|52=20110224-06:50:54|10=061||0|
M|494|0|0|I|20110224-06:51:54.930|72|8=FIX.4.2|9=50|35=0|49=TSXRBS|56=RBS|34=494|52=20110224-06:51:54|10=063||0|
M|495|0|0|I|20110224-06:52:55.499|72|8=FIX.4.2|9=50|35=0|49=TSXRBS|56=RBS|34=495|52=20110224-06:52:55|10=066||0|
M|496|0|0|I|20110224-06:53:56.048|72|8=FIX.4.2|9=50|35=0|49=TSXRBS|56=RBS|34=496|52=20110224-06:53:56|10=069||0|
M|497|0|0|I|20110224-06:54:56.616|72|8=FIX.4.2|9=50|35=0|49=TSXRBS|56=RBS|34=497|52=20110224-06:54:56|10=071||0|
M|498|0|0|I|20110224-06:55:57.175|72|8=FIX.4.2|9=50|35=0|49=TSXRBS|56=RBS|34=498|52=20110224-06:55:57|10=074||0|
M|499|0|0|I|20110224-06:56:57.774|72|8=FIX.4.2|9=50|35=0|49=TSXRBS|56=RBS|34=499|52=20110224-06:56:57|10=076||0|
M|500|0|0|I|20110224-06:57:58.353|72|8=FIX.4.2|9=50|35=0|49=TSXRBS|56=RBS|34=500|52=20110224-06:57:58|10=061||0|
M|501|0|0|I|20110224-06:58:58.931|72|8=FIX.4.2|9=50|35=0|49=TSXRBS|56=RBS|34=501|52=20110224-06:58:58|10=063||0|
M|502|0|0|I|20110224-06:59:59.490|72|8=FIX.4.2|9=50|35=0|49=TSXRBS|56=RBS|34=502|52=20110224-06:59:59|10=066||0|
M|503|0|0|I|20110224-07:01:00.069|72|8=FIX.4.2|9=50|35=0|49=TSXRBS|56=RBS|34=503|52=20110224-07:01:00|10=041||0|
M|504|0|0|I|20110224-07:02:00.638|72|8=FIX.4.2|9=50|35=0|49=TSXRBS|56=RBS|34=504|52=20110224-07:02:00|10=043||0|
M|505|0|0|I|20110224-07:03:01.216|72|8=FIX.4.2|9=50|35=0|49=TSXRBS|56=RBS|34=505|52=20110224-07:03:01|10=046||0|
M|506|0|0|I|20110224-07:04:01.865|72|8=FIX.4.2|9=50|35=0|49=TSXRBS|56=RBS|34=506|52=20110224-07:04:01|10=048||0|
M|507|0|0|I|20110224-07:05:02.454|72|8=FIX.4.2|9=50|35=0|49=TSXRBS|56=RBS|34=507|52=20110224-07:05:02|10=051||0|
M|508|0|0|I|20110224-07:06:03.083|72|8=FIX.4.2|9=50|35=0|49=TSXRBS|56=RBS|34=508|52=20110224-07:06:03|10=054||0|
M|509|0|0|I|20110224-07:07:03.662|72|8=FIX.4.2|9=50|35=0|49=TSXRBS|56=RBS|34=509|52=20110224-07:07:03|10=056||0|
M|510|0|0|I|20110224-07:08:04.300|72|8=FIX.4.2|9=50|35=0|49=TSXRBS|56=RBS|34=510|52=20110224-07:08:04|10=050||0|
M|511|0|0|I|20110224-07:09:04.889|72|8=FIX.4.2|9=50|35=0|49=TSXRBS|56=RBS|34=511|52=20110224-07:09:04|10=052||0|
M|512|0|0|I|20110224-07:10:05.508|72|8=FIX.4.2|9=50|35=0|49=TSXRBS|56=RBS|34=512|52=20110224-07:10:05|10=046||0|
M|513|0|0|I|20110224-07:11:06.086|72|8=FIX.4.2|9=50|35=0|49=TSXRBS|56=RBS|34=513|52=20110224-07:11:06|10=049||0|
M|514|0|0|I|20110224-07:12:06.734|72|8=FIX.4.2|9=50|35=0|49=TSXRBS|56=RBS|34=514|52=20110224-07:12:06|10=051||0|
M|515|0|0|I|20110224-07:13:07.294|72|8=FIX.4.2|9=50|35=0|49=TSXRBS|56=RBS|34=515|52=20110224-07:13:07|10=054||0|
M|516|0|0|I|20110224-07:14:07.943|72|8=FIX.4.2|9=50|35=0|49=TSXRBS|56=RBS|34=516|52=20110224-07:14:07|10=056||0|
M|517|0|0|I|20110224-07:15:08.511|72|8=FIX.4.2|9=50|35=0|49=TSXRBS|56=RBS|34=517|52=20110224-07:15:08|10=059||0|
M|518|0|0|I|20110224-07:16:09.160|72|8=FIX.4.2|9=50|35=0|49=TSXRBS|56=RBS|34=518|52=20110224-07:16:09|10=062||0|
M|519|0|0|I|20110224-07:17:09.719|72|8=FIX.4.2|9=50|35=0|49=TSXRBS|56=RBS|34=519|52=20110224-07:17:09|10=064||0|
M|520|0|0|I|20110224-07:18:10.288|72|8=FIX.4.2|9=50|35=0|49=TSXRBS|56=RBS|34=520|52=20110224-07:18:10|10=049||0|
M|521|0|0|I|20110224-07:19:10.866|72|8=FIX.4.2|9=50|35=0|49=TSXRBS|56=RBS|34=521|52=20110224-07:19:10|10=051||0|
M|522|0|0|I|20110224-07:20:11.465|72|8=FIX.4.2|9=50|35=0|49=TSXRBS|56=RBS|34=522|52=20110224-07:20:11|10=045||0|
M|523|0|0|I|20110224-07:21:12.044|72|8=FIX.4.2|9=50|35=0|49=TSXRBS|56=RBS|34=523|52=20110224-07:21:12|10=048||0|
M|524|0|0|I|20110224-07:22:12.623|72|8=FIX.4.2|9=50|35=0|49=TSXRBS|56=RBS|34=524|52=20110224-07:22:12|10=050||0|
M|525|0|0|I|20110224-07:23:13.211|72|8=FIX.4.2|9=50|35=0|49=TSXRBS|56=RBS|34=525|52=20110224-07:23:13|10=053||0|
M|526|0|0|I|20110224-07:24:13.810|72|8=FIX.4.2|9=50|35=0|49=TSXRBS|56=RBS|34=526|52=20110224-07:24:13|10=055||0|
M|527|0|0|I|20110224-07:25:14.379|72|8=FIX.4.2|9=50|35=0|49=TSXRBS|56=RBS|34=527|52=20110224-07:25:14|10=058||0|
M|528|0|0|I|20110224-07:26:14.948|72|8=FIX.4.2|9=50|35=0|49=TSXRBS|56=RBS|34=528|52=20110224-07:26:14|10=060||0|
M|529|0|0|I|20110224-07:27:15.496|72|8=FIX.4.2|9=50|35=0|49=TSXRBS|56=RBS|34=529|52=20110224-07:27:15|10=063||0|
M|530|0|0|I|20110224-07:28:16.085|72|8=FIX.4.2|9=50|35=0|49=TSXRBS|56=RBS|34=530|52=20110224-07:28:16|10=057||0|
M|531|0|0|I|20110224-07:29:16.664|72|8=FIX.4.2|9=50|35=0|49=TSXRBS|56=RBS|34=531|52=20110224-07:29:16|10=059||0|
M|532|0|0|I|20110224-07:30:17.293|72|8=FIX.4.2|9=50|35=0|49=TSXRBS|56=RBS|34=532|52=20110224-07:30:17|10=053||0|
M|533|0|0|I|20110224-07:31:17.841|72|8=FIX.4.2|9=50|35=0|49=TSXRBS|56=RBS|34=533|52=20110224-07:31:17|10=055||0|
M|534|0|0|I|20110224-07:32:18.430|72|8=FIX.4.2|9=50|35=0|49=TSXRBS|56=RBS|34=534|52=20110224-07:32:18|10=058||0|
M|535|0|0|I|20110224-07:33:19.019|72|8=FIX.4.2|9=50|35=0|49=TSXRBS|56=RBS|34=535|52=20110224-07:33:19|10=061||0|
M|536|0|0|I|20110224-07:34:19.598|72|8=FIX.4.2|9=50|35=0|49=TSXRBS|56=RBS|34=536|52=20110224-07:34:19|10=063||0|
M|537|0|0|I|20110224-07:35:20.226|72|8=FIX.4.2|9=50|35=0|49=TSXRBS|56=RBS|34=537|52=20110224-07:35:20|10=057||0|
M|538|0|0|I|20110224-07:36:20.795|72|8=FIX.4.2|9=50|35=0|49=TSXRBS|56=RBS|34=538|52=20110224-07:36:20|10=059||0|
M|539|0|0|I|20110224-07:37:21.414|72|8=FIX.4.2|9=50|35=0|49=TSXRBS|56=RBS|34=539|52=20110224-07:37:21|10=062||0|
M|540|0|0|I|20110224-07:38:21.973|72|8=FIX.4.2|9=50|35=0|49=TSXRBS|56=RBS|34=540|52=20110224-07:38:21|10=055||0|
M|541|0|0|I|20110224-07:39:22.531|72|8=FIX.4.2|9=50|35=0|49=TSXRBS|56=RBS|34=541|52=20110224-07:39:22|10=058||0|
M|542|0|0|I|20110224-07:40:23.120|72|8=FIX.4.2|9=50|35=0|49=TSXRBS|56=RBS|34=542|52=20110224-07:40:23|10=052||0|
M|543|0|0|I|20110224-07:41:23.699|72|8=FIX.4.2|9=50|35=0|49=TSXRBS|56=RBS|34=543|52=20110224-07:41:23|10=054||0|
M|544|0|0|I|20110224-07:42:24.258|72|8=FIX.4.2|9=50|35=0|49=TSXRBS|56=RBS|34=544|52=20110224-07:42:24|10=057||0|
M|545|0|0|I|20110224-07:43:24.806|72|8=FIX.4.2|9=50|35=0|49=TSXRBS|56=RBS|34=545|52=20110224-07:43:24|10=059||0|
M|546|0|0|I|20110224-07:44:25.395|72|8=FIX.4.2|9=50|35=0|49=TSXRBS|56=RBS|34=546|52=20110224-07:44:25|10=062||0|
M|547|0|0|I|20110224-07:45:25.964|72|8=FIX.4.2|9=50|35=0|49=TSXRBS|56=RBS|34=547|52=20110224-07:45:25|10=064||0|
M|548|0|0|I|20110224-07:46:26.512|72|8=FIX.4.2|9=50|35=0|49=TSXRBS|56=RBS|34=548|52=20110224-07:46:26|10=067||0|
M|549|0|0|I|20110224-07:47:27.081|72|8=FIX.4.2|9=50|35=0|49=TSXRBS|56=RBS|34=549|52=20110224-07:47:27|10=070||0|
M|550|0|0|I|20110224-07:48:27.671|72|8=FIX.4.2|9=50|35=0|49=TSXRBS|56=RBS|34=550|52=20110224-07:48:27|10=063||0|
M|551|0|0|I|20110224-07:49:28.239|72|8=FIX.4.2|9=50|35=0|49=TSXRBS|56=RBS|34=551|52=20110224-07:49:28|10=066||0|
M|552|0|0|I|20110224-07:50:28.797|72|8=FIX.4.2|9=50|35=0|49=TSXRBS|56=RBS|34=552|52=20110224-07:50:28|10=059||0|
M|553|0|0|I|20110224-07:51:29.366|72|8=FIX.4.2|9=50|35=0|49=TSXRBS|56=RBS|34=553|52=20110224-07:51:29|10=062||0|
M|554|0|0|I|20110224-07:52:29.945|72|8=FIX.4.2|9=50|35=0|49=TSXRBS|56=RBS|34=554|52=20110224-07:52:29|10=064||0|
M|555|0|0|I|20110224-07:53:30.524|72|8=FIX.4.2|9=50|35=0|49=TSXRBS|56=RBS|34=555|52=20110224-07:53:30|10=058||0|
M|556|0|0|I|20110224-07:54:31.092|72|8=FIX.4.2|9=50|35=0|49=TSXRBS|56=RBS|34=556|52=20110224-07:54:31|10=061||0|
M|557|0|0|I|20110224-07:55:31.641|72|8=FIX.4.2|9=50|35=0|49=TSXRBS|56=RBS|34=557|52=20110224-07:55:31|10=063||0|
M|558|0|0|I|20110224-07:56:32.220|72|8=FIX.4.2|9=50|35=0|49=TSXRBS|56=RBS|34=558|52=20110224-07:56:32|10=066||0|
M|559|0|0|I|20110224-07:57:32.799|72|8=FIX.4.2|9=50|35=0|49=TSXRBS|56=RBS|34=559|52=20110224-07:57:32|10=068||0|
M|560|0|0|I|20110224-07:58:33.378|72|8=FIX.4.2|9=50|35=0|49=TSXRBS|56=RBS|34=560|52=20110224-07:58:33|10=062||0|
M|561|0|0|I|20110224-07:59:33.966|72|8=FIX.4.2|9=50|35=0|49=TSXRBS|56=RBS|34=561|52=20110224-07:59:33|10=064||0|
M|562|0|0|I|20110224-08:00:34.555|72|8=FIX.4.2|9=50|35=0|49=TSXRBS|56=RBS|34=562|52=20110224-08:00:34|10=053||0|
M|563|0|0|I|20110224-08:01:35.124|72|8=FIX.4.2|9=50|35=0|49=TSXRBS|56=RBS|34=563|52=20110224-08:01:35|10=056||0|
M|564|0|0|I|20110224-08:02:35.692|72|8=FIX.4.2|9=50|35=0|49=TSXRBS|56=RBS|34=564|52=20110224-08:02:35|10=058||0|
M|565|0|0|I|20110224-08:03:36.232|72|8=FIX.4.2|9=50|35=0|49=TSXRBS|56=RBS|34=565|52=20110224-08:03:36|10=061||0|
M|566|0|0|I|20110224-08:04:36.790|72|8=FIX.4.2|9=50|35=0|49=TSXRBS|56=RBS|34=566|52=20110224-08:04:36|10=063||0|
M|567|0|0|I|20110224-08:05:37.408|72|8=FIX.4.2|9=50|35=0|49=TSXRBS|56=RBS|34=567|52=20110224-08:05:37|10=066||0|
M|568|0|0|I|20110224-08:06:37.977|72|8=FIX.4.2|9=50|35=0|49=TSXRBS|56=RBS|34=568|52=20110224-08:06:37|10=068||0|
M|569|0|0|I|20110224-08:07:38.616|72|8=FIX.4.2|9=50|35=0|49=TSXRBS|56=RBS|34=569|52=20110224-08:07:38|10=071||0|
M|570|0|0|I|20110224-08:08:39.205|72|8=FIX.4.2|9=50|35=0|49=TSXRBS|56=RBS|34=570|52=20110224-08:08:39|10=065||0|
M|571|0|D|I|20110224-08:08:44.914|240|8=FIX.4.2|9=217|35=D|49=TSXRBS|56=RBS|115=JCAM|34=571|116=ohanff|52=20110224-08:08:44|11=141102240000001R|109=JCAM|1=JCAM|63=0|21=3|100=PA|55=TOTF.PA|48=TOTF.PA|22=5|54=1|60=20110224-08:08:44|38=85000|40=2|44=43.05|15=EUR|59=0|58=ty|10=057||0|
M|572|0|0|I|20110224-08:09:44.884|72|8=FIX.4.2|9=50|35=0|49=TSXRBS|56=RBS|34=572|52=20110224-08:09:44|10=064||0|
M|573|0|0|I|20110224-08:10:45.442|72|8=FIX.4.2|9=50|35=0|49=TSXRBS|56=RBS|34=573|52=20110224-08:10:45|10=058||0|
M|574|0|0|I|20110224-08:11:46.091|72|8=FIX.4.2|9=50|35=0|49=TSXRBS|56=RBS|34=574|52=20110224-08:11:46|10=061||0|
M|575|0|0|I|20110224-08:12:46.660|72|8=FIX.4.2|9=50|35=0|49=TSXRBS|56=RBS|34=575|52=20110224-08:12:46|10=063||0|
M|576|0|0|I|20110224-08:13:47.299|72|8=FIX.4.2|9=50|35=0|49=TSXRBS|56=RBS|34=576|52=20110224-08:13:47|10=066||0|
M|577|0|0|I|20110224-08:14:47.860|72|8=FIX.4.2|9=50|35=0|49=TSXRBS|56=RBS|34=577|52=20110224-08:14:47|10=068||0|
M|578|0|0|I|20110224-08:15:48.436|72|8=FIX.4.2|9=50|35=0|49=TSXRBS|56=RBS|34=578|52=20110224-08:15:48|10=071||0|
M|579|0|0|I|20110224-08:16:49.015|72|8=FIX.4.2|9=50|35=0|49=TSXRBS|56=RBS|34=579|52=20110224-08:16:49|10=074||0|
M|580|0|0|I|20110224-08:17:49.593|72|8=FIX.4.2|9=50|35=0|49=TSXRBS|56=RBS|34=580|52=20110224-08:17:49|10=067||0|
M|581|0|0|I|20110224-08:18:50.162|72|8=FIX.4.2|9=50|35=0|49=TSXRBS|56=RBS|34=581|52=20110224-08:18:50|10=061||0|
M|582|0|0|I|20110224-08:19:50.744|72|8=FIX.4.2|9=50|35=0|49=TSXRBS|56=RBS|34=582|52=20110224-08:19:50|10=063||0|
M|583|0|0|I|20110224-08:20:51.340|72|8=FIX.4.2|9=50|35=0|49=TSXRBS|56=RBS|34=583|52=20110224-08:20:51|10=057||0|
M|584|0|0|I|20110224-08:21:51.929|72|8=FIX.4.2|9=50|35=0|49=TSXRBS|56=RBS|34=584|52=20110224-08:21:51|10=059||0|
M|585|0|0|I|20110224-08:22:52.489|72|8=FIX.4.2|9=50|35=0|49=TSXRBS|56=RBS|34=585|52=20110224-08:22:52|10=062||0|
M|586|0|0|I|20110224-08:23:53.066|72|8=FIX.4.2|9=50|35=0|49=TSXRBS|56=RBS|34=586|52=20110224-08:23:53|10=065||0|
M|587|0|0|I|20110224-08:24:53.636|72|8=FIX.4.2|9=50|35=0|49=TSXRBS|56=RBS|34=587|52=20110224-08:24:53|10=067||0|
M|588|0|0|I|20110224-08:25:54.214|72|8=FIX.4.2|9=50|35=0|49=TSXRBS|56=RBS|34=588|52=20110224-08:25:54|10=070||0|
M|589|0|0|I|20110224-08:26:54.822|72|8=FIX.4.2|9=50|35=0|49=TSXRBS|56=RBS|34=589|52=20110224-08:26:54|10=072||0|
M|590|0|0|I|20110224-08:27:55.391|72|8=FIX.4.2|9=50|35=0|49=TSXRBS|56=RBS|34=590|52=20110224-08:27:55|10=066||0|
M|591|0|0|I|20110224-08:28:56.030|72|8=FIX.4.2|9=50|35=0|49=TSXRBS|56=RBS|34=591|52=20110224-08:28:56|10=069||0|
M|592|0|0|I|20110224-08:29:56.618|72|8=FIX.4.2|9=50|35=0|49=TSXRBS|56=RBS|34=592|52=20110224-08:29:56|10=071||0|
M|593|0|0|I|20110224-08:30:57.286|72|8=FIX.4.2|9=50|35=0|49=TSXRBS|56=RBS|34=593|52=20110224-08:30:57|10=065||0|
M|594|0|0|I|20110224-08:31:57.856|72|8=FIX.4.2|9=50|35=0|49=TSXRBS|56=RBS|34=594|52=20110224-08:31:57|10=067||0|
M|595|0|0|I|20110224-08:32:58.475|72|8=FIX.4.2|9=50|35=0|49=TSXRBS|56=RBS|34=595|52=20110224-08:32:58|10=070||0|
M|596|0|0|I|20110224-08:33:59.064|72|8=FIX.4.2|9=50|35=0|49=TSXRBS|56=RBS|34=596|52=20110224-08:33:59|10=073||0|
M|597|0|0|I|20110224-08:34:59.742|72|8=FIX.4.2|9=50|35=0|49=TSXRBS|56=RBS|34=597|52=20110224-08:34:59|10=075||0|
M|598|0|0|I|20110224-08:36:00.321|72|8=FIX.4.2|9=50|35=0|49=TSXRBS|56=RBS|34=598|52=20110224-08:36:00|10=064||0|
M|599|0|0|I|20110224-08:37:00.920|72|8=FIX.4.2|9=50|35=0|49=TSXRBS|56=RBS|34=599|52=20110224-08:37:00|10=066||0|
M|600|0|0|I|20110224-08:38:01.489|72|8=FIX.4.2|9=50|35=0|49=TSXRBS|56=RBS|34=600|52=20110224-08:38:01|10=051||0|
M|601|0|0|I|20110224-08:39:02.078|72|8=FIX.4.2|9=50|35=0|49=TSXRBS|56=RBS|34=601|52=20110224-08:39:02|10=054||0|
M|602|0|0|I|20110224-08:40:02.656|72|8=FIX.4.2|9=50|35=0|49=TSXRBS|56=RBS|34=602|52=20110224-08:40:02|10=047||0|
M|603|0|0|I|20110224-08:41:03.245|72|8=FIX.4.2|9=50|35=0|49=TSXRBS|56=RBS|34=603|52=20110224-08:41:03|10=050||0|
M|604|0|0|I|20110224-08:42:03.815|72|8=FIX.4.2|9=50|35=0|49=TSXRBS|56=RBS|34=604|52=20110224-08:42:03|10=052||0|
M|605|0|0|I|20110224-08:43:04.393|72|8=FIX.4.2|9=50|35=0|49=TSXRBS|56=RBS|34=605|52=20110224-08:43:04|10=055||0|
M|606|0|0|I|20110224-08:44:04.972|72|8=FIX.4.2|9=50|35=0|49=TSXRBS|56=RBS|34=606|52=20110224-08:44:04|10=057||0|
M|607|0|0|I|20110224-08:45:05.560|72|8=FIX.4.2|9=50|35=0|49=TSXRBS|56=RBS|34=607|52=20110224-08:45:05|10=060||0|
M|608|0|0|I|20110224-08:46:06.140|72|8=FIX.4.2|9=50|35=0|49=TSXRBS|56=RBS|34=608|52=20110224-08:46:06|10=063||0|
M|609|0|0|I|20110224-08:47:06.709|72|8=FIX.4.2|9=50|35=0|49=TSXRBS|56=RBS|34=609|52=20110224-08:47:06|10=065||0|
M|610|0|0|I|20110224-08:48:07.277|72|8=FIX.4.2|9=50|35=0|49=TSXRBS|56=RBS|34=610|52=20110224-08:48:07|10=059||0|
M|611|0|0|I|20110224-08:49:07.845|72|8=FIX.4.2|9=50|35=0|49=TSXRBS|56=RBS|34=611|52=20110224-08:49:07|10=061||0|
M|612|0|0|I|20110224-08:50:08.434|72|8=FIX.4.2|9=50|35=0|49=TSXRBS|56=RBS|34=612|52=20110224-08:50:08|10=055||0|
M|613|0|0|I|20110224-08:51:09.053|72|8=FIX.4.2|9=50|35=0|49=TSXRBS|56=RBS|34=613|52=20110224-08:51:09|10=058||0|
M|614|0|0|I|20110224-08:52:09.641|72|8=FIX.4.2|9=50|35=0|49=TSXRBS|56=RBS|34=614|52=20110224-08:52:09|10=060||0|
M|615|0|0|I|20110224-08:53:10.281|72|8=FIX.4.2|9=50|35=0|49=TSXRBS|56=RBS|34=615|52=20110224-08:53:10|10=054||0|
M|616|0|0|I|20110224-08:54:10.849|72|8=FIX.4.2|9=50|35=0|49=TSXRBS|56=RBS|34=616|52=20110224-08:54:10|10=056||0|
M|617|0|0|I|20110224-08:55:11.418|72|8=FIX.4.2|9=50|35=0|49=TSXRBS|56=RBS|34=617|52=20110224-08:55:11|10=059||0|
M|618|0|0|I|20110224-08:56:11.996|72|8=FIX.4.2|9=50|35=0|49=TSXRBS|56=RBS|34=618|52=20110224-08:56:11|10=061||0|
M|619|0|0|I|20110224-08:57:12.565|72|8=FIX.4.2|9=50|35=0|49=TSXRBS|56=RBS|34=619|52=20110224-08:57:12|10=064||0|
M|620|0|0|I|20110224-08:58:13.155|72|8=FIX.4.2|9=50|35=0|49=TSXRBS|56=RBS|34=620|52=20110224-08:58:13|10=058||0|
M|621|0|0|I|20110224-08:59:13.733|72|8=FIX.4.2|9=50|35=0|49=TSXRBS|56=RBS|34=621|52=20110224-08:59:13|10=060||0|
M|622|0|0|I|20110224-09:00:14.301|72|8=FIX.4.2|9=50|35=0|49=TSXRBS|56=RBS|34=622|52=20110224-09:00:14|10=049||0|
M|623|0|0|I|20110224-09:01:14.890|72|8=FIX.4.2|9=50|35=0|49=TSXRBS|56=RBS|34=623|52=20110224-09:01:14|10=051||0|
M|624|0|0|I|20110224-09:02:15.469|72|8=FIX.4.2|9=50|35=0|49=TSXRBS|56=RBS|34=624|52=20110224-09:02:15|10=054||0|
M|625|0|0|I|20110224-09:03:16.048|72|8=FIX.4.2|9=50|35=0|49=TSXRBS|56=RBS|34=625|52=20110224-09:03:16|10=057||0|
M|626|0|0|I|20110224-09:04:16.626|72|8=FIX.4.2|9=50|35=0|49=TSXRBS|56=RBS|34=626|52=20110224-09:04:16|10=059||0|
M|627|0|0|I|20110224-09:05:17.206|72|8=FIX.4.2|9=50|35=0|49=TSXRBS|56=RBS|34=627|52=20110224-09:05:17|10=062||0|
M|628|0|0|I|20110224-09:06:17.795|72|8=FIX.4.2|9=50|35=0|49=TSXRBS|56=RBS|34=628|52=20110224-09:06:17|10=064||0|
M|629|0|0|I|20110224-09:07:18.353|72|8=FIX.4.2|9=50|35=0|49=TSXRBS|56=RBS|34=629|52=20110224-09:07:18|10=067||0|
M|630|0|0|I|20110224-09:08:18.912|72|8=FIX.4.2|9=50|35=0|49=TSXRBS|56=RBS|34=630|52=20110224-09:08:18|10=060||0|
M|631|0|0|I|20110224-09:09:19.480|72|8=FIX.4.2|9=50|35=0|49=TSXRBS|56=RBS|34=631|52=20110224-09:09:19|10=063||0|
M|632|0|0|I|20110224-09:10:20.069|72|8=FIX.4.2|9=50|35=0|49=TSXRBS|56=RBS|34=632|52=20110224-09:10:20|10=048||0|
M|633|0|0|I|20110224-09:11:20.649|72|8=FIX.4.2|9=50|35=0|49=TSXRBS|56=RBS|34=633|52=20110224-09:11:20|10=050||0|
M|634|0|0|I|20110224-09:12:21.217|72|8=FIX.4.2|9=50|35=0|49=TSXRBS|56=RBS|34=634|52=20110224-09:12:21|10=053||0|
M|635|0|0|I|20110224-09:13:21.797|72|8=FIX.4.2|9=50|35=0|49=TSXRBS|56=RBS|34=635|52=20110224-09:13:21|10=055||0|
M|636|0|0|I|20110224-09:14:22.374|72|8=FIX.4.2|9=50|35=0|49=TSXRBS|56=RBS|34=636|52=20110224-09:14:22|10=058||0|
M|637|0|0|I|20110224-09:15:22.952|72|8=FIX.4.2|9=50|35=0|49=TSXRBS|56=RBS|34=637|52=20110224-09:15:22|10=060||0|
M|638|0|0|I|20110224-09:16:23.531|72|8=FIX.4.2|9=50|35=0|49=TSXRBS|56=RBS|34=638|52=20110224-09:16:23|10=063||0|
M|639|0|D|I|20110224-09:17:18.559|260|8=FIX.4.2|9=237|35=D|49=TSXRBS|56=RBS|115=GROUPAMAAM|34=639|116=jbrice|52=20110224-09:17:18|11=141102240000002R|109=GROUPAMAAM|1=GROUPAMAAM|63=0|21=3|100=L|55=RIO.L|48=RIO.L|22=5|54=2|60=20110224-09:17:18|38=36100|40=1|15=GBP|59=6|126=20110228-23:59:59|10=059||0|
M|640|0|D|I|20110224-09:17:42.730|272|8=FIX.4.2|9=249|35=D|49=TSXRBS|56=RBS|115=JCAM|34=640|116=cjukes|52=20110224-09:17:42|11=141102240000003R|109=JCAM|1=JCAM|63=0|21=3|100=MI|55=SRS.MI|48=SRS.MI|22=5|54=2|60=20110224-09:17:42|38=400000|40=1|15=EUR|59=0|58=100k done @ 1.828 / use 1.82 low on bal / ty|10=111||0|
M|641|0|0|I|20110224-09:18:42.848|72|8=FIX.4.2|9=50|35=0|49=TSXRBS|56=RBS|34=641|52=20110224-09:18:42|10=060||0|
M|642|0|0|I|20110224-09:19:43.416|72|8=FIX.4.2|9=50|35=0|49=TSXRBS|56=RBS|34=642|52=20110224-09:19:43|10=063||0|
M|643|0|0|I|20110224-09:20:43.985|72|8=FIX.4.2|9=50|35=0|49=TSXRBS|56=RBS|34=643|52=20110224-09:20:43|10=056||0|
M|644|0|0|I|20110224-09:21:44.544|72|8=FIX.4.2|9=50|35=0|49=TSXRBS|56=RBS|34=644|52=20110224-09:21:44|10=059||0|
M|645|0|0|I|20110224-09:22:45.102|72|8=FIX.4.2|9=50|35=0|49=TSXRBS|56=RBS|34=645|52=20110224-09:22:45|10=062||0|
M|646|0|0|I|20110224-09:23:45.681|72|8=FIX.4.2|9=50|35=0|49=TSXRBS|56=RBS|34=646|52=20110224-09:23:45|10=064||0|
M|647|0|0|I|20110224-09:24:46.251|72|8=FIX.4.2|9=50|35=0|49=TSXRBS|56=RBS|34=647|52=20110224-09:24:46|10=067||0|
M|648|0|0|I|20110224-09:25:46.829|72|8=FIX.4.2|9=50|35=0|49=TSXRBS|56=RBS|34=648|52=20110224-09:25:46|10=069||0|
M|649|0|0|I|20110224-09:26:47.418|72|8=FIX.4.2|9=50|35=0|49=TSXRBS|56=RBS|34=649|52=20110224-09:26:47|10=072||0|
M|650|0|0|I|20110224-09:27:47.996|72|8=FIX.4.2|9=50|35=0|49=TSXRBS|56=RBS|34=650|52=20110224-09:27:47|10=065||0|
M|651|0|0|I|20110224-09:28:48.576|72|8=FIX.4.2|9=50|35=0|49=TSXRBS|56=RBS|34=651|52=20110224-09:28:48|10=068||0|
M|652|0|0|I|20110224-09:29:49.134|72|8=FIX.4.2|9=50|35=0|49=TSXRBS|56=RBS|34=652|52=20110224-09:29:49|10=071||0|
M|653|0|0|I|20110224-09:30:49.723|72|8=FIX.4.2|9=50|35=0|49=TSXRBS|56=RBS|34=653|52=20110224-09:30:49|10=064||0|
M|654|0|0|I|20110224-09:31:50.291|72|8=FIX.4.2|9=50|35=0|49=TSXRBS|56=RBS|34=654|52=20110224-09:31:50|10=058||0|
M|655|0|0|I|20110224-09:32:50.860|72|8=FIX.4.2|9=50|35=0|49=TSXRBS|56=RBS|34=655|52=20110224-09:32:50|10=060||0|
M|656|0|0|I|20110224-09:33:51.429|72|8=FIX.4.2|9=50|35=0|49=TSXRBS|56=RBS|34=656|52=20110224-09:33:51|10=063||0|
M|657|0|0|I|20110224-09:34:52.100|72|8=FIX.4.2|9=50|35=0|49=TSXRBS|56=RBS|34=657|52=20110224-09:34:52|10=066||0|
M|658|0|0|I|20110224-09:35:52.627|72|8=FIX.4.2|9=50|35=0|49=TSXRBS|56=RBS|34=658|52=20110224-09:35:52|10=068||0|
M|659|0|0|I|20110224-09:36:53.196|72|8=FIX.4.2|9=50|35=0|49=TSXRBS|56=RBS|34=659|52=20110224-09:36:53|10=071||0|
M|660|0|0|I|20110224-09:37:53.784|72|8=FIX.4.2|9=50|35=0|49=TSXRBS|56=RBS|34=660|52=20110224-09:37:53|10=064||0|
M|661|0|0|I|20110224-09:38:54.373|72|8=FIX.4.2|9=50|35=0|49=TSXRBS|56=RBS|34=661|52=20110224-09:38:54|10=067||0|
M|662|0|0|I|20110224-09:39:54.942|72|8=FIX.4.2|9=50|35=0|49=TSXRBS|56=RBS|34=662|52=20110224-09:39:54|10=069||0|
M|663|0|0|I|20110224-09:40:55.501|72|8=FIX.4.2|9=50|35=0|49=TSXRBS|56=RBS|34=663|52=20110224-09:40:55|10=063||0|
M|664|0|0|I|20110224-09:41:56.059|72|8=FIX.4.2|9=50|35=0|49=TSXRBS|56=RBS|34=664|52=20110224-09:41:56|10=066||0|
M|665|0|0|I|20110224-09:42:56.638|72|8=FIX.4.2|9=50|35=0|49=TSXRBS|56=RBS|34=665|52=20110224-09:42:56|10=068||0|
M|666|0|0|I|20110224-09:43:57.227|72|8=FIX.4.2|9=50|35=0|49=TSXRBS|56=RBS|34=666|52=20110224-09:43:57|10=071||0|
M|667|0|D|I|20110224-09:44:50.588|238|8=FIX.4.2|9=215|35=D|49=TSXRBS|56=RBS|115=JCAM|34=667|116=cjukes|52=20110224-09:44:50|11=141102240000004R|109=JCAM|1=JCAM|63=0|21=3|100=L|55=BARC.L|48=BARC.L|22=5|54=1|60=20110224-09:44:50|38=500000|40=1|15=GBP|59=0|58=done thanks|10=012||0|
M|668|0|0|I|20110224-09:45:50.295|72|8=FIX.4.2|9=50|35=0|49=TSXRBS|56=RBS|34=668|52=20110224-09:45:50|10=068||0|
M|669|0|0|I|20110224-09:46:50.874|72|8=FIX.4.2|9=50|35=0|49=TSXRBS|56=RBS|34=669|52=20110224-09:46:50|10=070||0|
M|670|0|0|I|20110224-09:47:51.482|72|8=FIX.4.2|9=50|35=0|49=TSXRBS|56=RBS|34=670|52=20110224-09:47:51|10=064||0|
M|671|0|0|I|20110224-09:48:52.041|72|8=FIX.4.2|9=50|35=0|49=TSXRBS|56=RBS|34=671|52=20110224-09:48:52|10=067||0|
M|672|0|0|I|20110224-09:49:52.690|72|8=FIX.4.2|9=50|35=0|49=TSXRBS|56=RBS|34=672|52=20110224-09:49:52|10=069||0|
M|673|0|0|I|20110224-09:50:53.269|72|8=FIX.4.2|9=50|35=0|49=TSXRBS|56=RBS|34=673|52=20110224-09:50:53|10=063||0|
M|674|0|0|I|20110224-09:51:53.937|72|8=FIX.4.2|9=50|35=0|49=TSXRBS|56=RBS|34=674|52=20110224-09:51:53|10=065||0|
M|675|0|0|I|20110224-09:52:54.506|72|8=FIX.4.2|9=50|35=0|49=TSXRBS|56=RBS|34=675|52=20110224-09:52:54|10=068||0|
M|676|0|0|I|20110224-09:53:55.135|72|8=FIX.4.2|9=50|35=0|49=TSXRBS|56=RBS|34=676|52=20110224-09:53:55|10=071||0|
M|677|0|0|I|20110224-09:54:55.734|72|8=FIX.4.2|9=50|35=0|49=TSXRBS|56=RBS|34=677|52=20110224-09:54:55|10=073||0|
M|678|0|0|I|20110224-09:55:56.373|72|8=FIX.4.2|9=50|35=0|49=TSXRBS|56=RBS|34=678|52=20110224-09:55:56|10=076||0|
M|679|0|0|I|20110224-09:56:56.931|72|8=FIX.4.2|9=50|35=0|49=TSXRBS|56=RBS|34=679|52=20110224-09:56:56|10=078||0|
M|680|0|0|I|20110224-09:57:57.510|72|8=FIX.4.2|9=50|35=0|49=TSXRBS|56=RBS|34=680|52=20110224-09:57:57|10=072||0|
M|681|0|D|I|20110224-09:58:56.002|260|8=FIX.4.2|9=237|35=D|49=TSXRBS|56=RBS|115=ARROWGRASS|34=681|116=gheighton|52=20110224-09:58:55|11=141102240000005R|109=ARROWGRASS|1=AG07-GS-INTERNATIONAL|63=0|21=3|100=L|55=BG.L|48=BG.L|22=5|54=1|60=20110224-09:58:55|38=400000|40=2|44=14.62|15=GBP|59=0|10=098||0|
M|682|0|0|I|20110224-09:59:55.628|72|8=FIX.4.2|9=50|35=0|49=TSXRBS|56=RBS|34=682|52=20110224-09:59:55|10=074||0|
M|683|0|0|I|20110224-10:00:56.197|72|8=FIX.4.2|9=50|35=0|49=TSXRBS|56=RBS|34=683|52=20110224-10:00:56|10=054||0|
M|684|0|0|I|20110224-10:01:56.765|72|8=FIX.4.2|9=50|35=0|49=TSXRBS|56=RBS|34=684|52=20110224-10:01:56|10=056||0|
M|685|0|0|I|20110224-10:02:57.334|72|8=FIX.4.2|9=50|35=0|49=TSXRBS|56=RBS|34=685|52=20110224-10:02:57|10=059||0|
M|686|0|0|I|20110224-10:03:57.892|72|8=FIX.4.2|9=50|35=0|49=TSXRBS|56=RBS|34=686|52=20110224-10:03:57|10=061||0|
M|687|0|0|I|20110224-10:04:58.471|72|8=FIX.4.2|9=50|35=0|49=TSXRBS|56=RBS|34=687|52=20110224-10:04:58|10=064||0|
M|688|0|0|I|20110224-10:05:59.041|72|8=FIX.4.2|9=50|35=0|49=TSXRBS|56=RBS|34=688|52=20110224-10:05:59|10=067||0|
M|689|0|0|I|20110224-10:06:59.609|72|8=FIX.4.2|9=50|35=0|49=TSXRBS|56=RBS|34=689|52=20110224-10:06:59|10=069||0|
M|690|0|0|I|20110224-10:08:00.188|72|8=FIX.4.2|9=50|35=0|49=TSXRBS|56=RBS|34=690|52=20110224-10:08:00|10=049||0|
M|691|0|0|I|20110224-10:09:00.836|72|8=FIX.4.2|9=50|35=0|49=TSXRBS|56=RBS|34=691|52=20110224-10:09:00|10=051||0|
M|692|0|0|I|20110224-10:10:01.415|72|8=FIX.4.2|9=50|35=0|49=TSXRBS|56=RBS|34=692|52=20110224-10:10:01|10=045||0|
M|693|0|0|I|20110224-10:11:02.064|72|8=FIX.4.2|9=50|35=0|49=TSXRBS|56=RBS|34=693|52=20110224-10:11:02|10=048||0|
M|694|0|0|I|20110224-10:12:02.652|72|8=FIX.4.2|9=50|35=0|49=TSXRBS|56=RBS|34=694|52=20110224-10:12:02|10=050||0|
M|695|0|0|I|20110224-10:13:03.251|72|8=FIX.4.2|9=50|35=0|49=TSXRBS|56=RBS|34=695|52=20110224-10:13:03|10=053||0|
M|696|0|0|I|20110224-10:14:03.820|72|8=FIX.4.2|9=50|35=0|49=TSXRBS|56=RBS|34=696|52=20110224-10:14:03|10=055||0|
M|697|0|0|I|20110224-10:15:04.489|72|8=FIX.4.2|9=50|35=0|49=TSXRBS|56=RBS|34=697|52=20110224-10:15:04|10=058||0|
M|698|0|0|I|20110224-10:16:05.049|72|8=FIX.4.2|9=50|35=0|49=TSXRBS|56=RBS|34=698|52=20110224-10:16:05|10=061||0|
M|699|0|0|I|20110224-10:17:05.618|72|8=FIX.4.2|9=50|35=0|49=TSXRBS|56=RBS|34=699|52=20110224-10:17:05|10=063||0|
M|700|0|0|I|20110224-10:18:06.185|72|8=FIX.4.2|9=50|35=0|49=TSXRBS|56=RBS|34=700|52=20110224-10:18:06|10=048||0|
M|701|0|0|I|20110224-10:19:06.754|72|8=FIX.4.2|9=50|35=0|49=TSXRBS|56=RBS|34=701|52=20110224-10:19:06|10=050||0|
M|702|0|0|I|20110224-10:20:07.333|72|8=FIX.4.2|9=50|35=0|49=TSXRBS|56=RBS|34=702|52=20110224-10:20:07|10=044||0|
M|703|0|0|I|20110224-10:21:07.881|72|8=FIX.4.2|9=50|35=0|49=TSXRBS|56=RBS|34=703|52=20110224-10:21:07|10=046||0|
M|704|0|0|I|20110224-10:22:08.450|72|8=FIX.4.2|9=50|35=0|49=TSXRBS|56=RBS|34=704|52=20110224-10:22:08|10=049||0|
M|705|0|0|I|20110224-10:23:09.029|72|8=FIX.4.2|9=50|35=0|49=TSXRBS|56=RBS|34=705|52=20110224-10:23:09|10=052||0|
M|706|0|0|I|20110224-10:24:09.599|72|8=FIX.4.2|9=50|35=0|49=TSXRBS|56=RBS|34=706|52=20110224-10:24:09|10=054||0|
M|707|0|0|I|20110224-10:25:10.166|72|8=FIX.4.2|9=50|35=0|49=TSXRBS|56=RBS|34=707|52=20110224-10:25:10|10=048||0|
M|708|0|0|I|20110224-10:26:10.747|72|8=FIX.4.2|9=50|35=0|49=TSXRBS|56=RBS|34=708|52=20110224-10:26:10|10=050||0|
M|709|0|0|I|20110224-10:27:11.324|72|8=FIX.4.2|9=50|35=0|49=TSXRBS|56=RBS|34=709|52=20110224-10:27:11|10=053||0|
M|710|0|0|I|20110224-10:28:11.915|72|8=FIX.4.2|9=50|35=0|49=TSXRBS|56=RBS|34=710|52=20110224-10:28:11|10=046||0|
M|711|0|0|I|20110224-10:29:12.451|72|8=FIX.4.2|9=50|35=0|49=TSXRBS|56=RBS|34=711|52=20110224-10:29:12|10=049||0|
M|712|0|0|I|20110224-10:30:13.122|72|8=FIX.4.2|9=50|35=0|49=TSXRBS|56=RBS|34=712|52=20110224-10:30:13|10=043||0|
M|713|0|0|I|20110224-10:31:13.708|72|8=FIX.4.2|9=50|35=0|49=TSXRBS|56=RBS|34=713|52=20110224-10:31:13|10=045||0|
