V|1.1|
M|1|0|A|I|20110223-22:35:05.048|82|8=FIX.4.2|9=60|35=A|34=1|49=RBS|56=TSXRBS|52=20110223-22:35:05|108=60|98=0|10=248||0|
M|2|0|1|I|20110223-22:35:05.049|81|8=FIX.4.2|9=59|35=1|34=2|49=RBS|56=TSXRBS|52=20110223-22:35:05|112=STBL-2|10=059||0|
M|3|0|0|I|20110223-22:36:05.122|70|8=FIX.4.2|9=48|35=0|34=3|49=RBS|56=TSXRBS|52=20110223-22:36:05|10=212||0|
M|4|0|0|I|20110223-22:37:05.280|70|8=FIX.4.2|9=48|35=0|34=4|49=RBS|56=TSXRBS|52=20110223-22:37:05|10=214||0|
M|5|0|0|I|20110223-22:38:05.417|70|8=FIX.4.2|9=48|35=0|34=5|49=RBS|56=TSXRBS|52=20110223-22:38:05|10=216||0|
M|6|0|0|I|20110223-22:39:05.534|70|8=FIX.4.2|9=48|35=0|34=6|49=RBS|56=TSXRBS|52=20110223-22:39:05|10=218||0|
M|7|0|0|I|20110223-22:40:05.632|70|8=FIX.4.2|9=48|35=0|34=7|49=RBS|56=TSXRBS|52=20110223-22:40:05|10=211||0|
M|8|0|0|I|20110223-22:41:05.779|70|8=FIX.4.2|9=48|35=0|34=8|49=RBS|56=TSXRBS|52=20110223-22:41:05|10=213||0|
M|9|0|0|I|20110223-22:42:05.917|70|8=FIX.4.2|9=48|35=0|34=9|49=RBS|56=TSXRBS|52=20110223-22:42:05|10=215||0|
M|10|0|0|I|20110223-22:43:06.074|71|8=FIX.4.2|9=49|35=0|34=10|49=RBS|56=TSXRBS|52=20110223-22:43:06|10=002||0|
M|11|0|0|I|20110223-22:44:06.161|71|8=FIX.4.2|9=49|35=0|34=11|49=RBS|56=TSXRBS|52=20110223-22:44:06|10=004||0|
M|12|0|0|I|20110223-22:45:06.319|71|8=FIX.4.2|9=49|35=0|34=12|49=RBS|56=TSXRBS|52=20110223-22:45:06|10=006||0|
M|13|0|0|I|20110223-22:46:06.446|71|8=FIX.4.2|9=49|35=0|34=13|49=RBS|56=TSXRBS|52=20110223-22:46:06|10=008||0|
M|14|0|0|I|20110223-22:47:06.603|71|8=FIX.4.2|9=49|35=0|34=14|49=RBS|56=TSXRBS|52=20110223-22:47:06|10=010||0|
M|15|0|0|I|20110223-22:48:06.701|71|8=FIX.4.2|9=49|35=0|34=15|49=RBS|56=TSXRBS|52=20110223-22:48:06|10=012||0|
M|16|0|0|I|20110223-22:49:06.858|71|8=FIX.4.2|9=49|35=0|34=16|49=RBS|56=TSXRBS|52=20110223-22:49:06|10=014||0|
M|17|0|0|I|20110223-22:50:07.015|71|8=FIX.4.2|9=49|35=0|34=17|49=RBS|56=TSXRBS|52=20110223-22:50:07|10=008||0|
M|18|0|0|I|20110223-22:51:07.123|71|8=FIX.4.2|9=49|35=0|34=18|49=RBS|56=TSXRBS|52=20110223-22:51:07|10=010||0|
M|19|0|0|I|20110223-22:52:07.280|71|8=FIX.4.2|9=49|35=0|34=19|49=RBS|56=TSXRBS|52=20110223-22:52:07|10=012||0|
M|20|0|0|I|20110223-22:53:07.427|71|8=FIX.4.2|9=49|35=0|34=20|49=RBS|56=TSXRBS|52=20110223-22:53:07|10=005||0|
M|21|0|0|I|20110223-22:54:07.555|71|8=FIX.4.2|9=49|35=0|34=21|49=RBS|56=TSXRBS|52=20110223-22:54:07|10=007||0|
M|22|0|0|I|20110223-22:55:07.702|71|8=FIX.4.2|9=49|35=0|34=22|49=RBS|56=TSXRBS|52=20110223-22:55:07|10=009||0|
M|23|0|0|I|20110223-22:56:07.839|71|8=FIX.4.2|9=49|35=0|34=23|49=RBS|56=TSXRBS|52=20110223-22:56:07|10=011||0|
M|24|0|0|I|20110223-22:57:07.977|71|8=FIX.4.2|9=49|35=0|34=24|49=RBS|56=TSXRBS|52=20110223-22:57:07|10=013||0|
M|25|0|0|I|20110223-22:58:08.104|71|8=FIX.4.2|9=49|35=0|34=25|49=RBS|56=TSXRBS|52=20110223-22:58:08|10=016||0|
M|26|0|0|I|20110223-22:59:08.221|71|8=FIX.4.2|9=49|35=0|34=26|49=RBS|56=TSXRBS|52=20110223-22:59:08|10=018||0|
M|27|0|0|I|20110223-23:00:08.379|71|8=FIX.4.2|9=49|35=0|34=27|49=RBS|56=TSXRBS|52=20110223-23:00:08|10=006||0|
M|28|0|0|I|20110223-23:01:08.516|71|8=FIX.4.2|9=49|35=0|34=28|49=RBS|56=TSXRBS|52=20110223-23:01:08|10=008||0|
M|29|0|0|I|20110223-23:02:08.664|71|8=FIX.4.2|9=49|35=0|34=29|49=RBS|56=TSXRBS|52=20110223-23:02:08|10=010||0|
M|30|0|0|I|20110223-23:03:08.811|71|8=FIX.4.2|9=49|35=0|34=30|49=RBS|56=TSXRBS|52=20110223-23:03:08|10=003||0|
M|31|0|0|I|20110223-23:04:08.898|71|8=FIX.4.2|9=49|35=0|34=31|49=RBS|56=TSXRBS|52=20110223-23:04:08|10=005||0|
M|32|0|0|I|20110223-23:05:09.026|71|8=FIX.4.2|9=49|35=0|34=32|49=RBS|56=TSXRBS|52=20110223-23:05:09|10=008||0|
M|33|0|0|I|20110223-23:06:09.183|71|8=FIX.4.2|9=49|35=0|34=33|49=RBS|56=TSXRBS|52=20110223-23:06:09|10=010||0|
M|34|0|0|I|20110223-23:07:09.340|71|8=FIX.4.2|9=49|35=0|34=34|49=RBS|56=TSXRBS|52=20110223-23:07:09|10=012||0|
M|35|0|0|I|20110223-23:08:09.458|71|8=FIX.4.2|9=49|35=0|34=35|49=RBS|56=TSXRBS|52=20110223-23:08:09|10=014||0|
M|36|0|0|I|20110223-23:09:09.585|71|8=FIX.4.2|9=49|35=0|34=36|49=RBS|56=TSXRBS|52=20110223-23:09:09|10=016||0|
M|37|0|0|I|20110223-23:10:09.723|71|8=FIX.4.2|9=49|35=0|34=37|49=RBS|56=TSXRBS|52=20110223-23:10:09|10=009||0|
M|38|0|0|I|20110223-23:11:09.880|71|8=FIX.4.2|9=49|35=0|34=38|49=RBS|56=TSXRBS|52=20110223-23:11:09|10=011||0|
M|39|0|0|I|20110223-23:12:10.037|71|8=FIX.4.2|9=49|35=0|34=39|49=RBS|56=TSXRBS|52=20110223-23:12:10|10=005||0|
M|40|0|0|I|20110223-23:13:10.175|71|8=FIX.4.2|9=49|35=0|34=40|49=RBS|56=TSXRBS|52=20110223-23:13:10|10=254||0|
M|41|0|0|I|20110223-23:14:10.342|71|8=FIX.4.2|9=49|35=0|34=41|49=RBS|56=TSXRBS|52=20110223-23:14:10|10=000||0|
M|42|0|0|I|20110223-23:15:10.449|71|8=FIX.4.2|9=49|35=0|34=42|49=RBS|56=TSXRBS|52=20110223-23:15:10|10=002||0|
M|43|0|0|I|20110223-23:16:10.547|71|8=FIX.4.2|9=49|35=0|34=43|49=RBS|56=TSXRBS|52=20110223-23:16:10|10=004||0|
M|44|0|0|I|20110223-23:17:10.684|71|8=FIX.4.2|9=49|35=0|34=44|49=RBS|56=TSXRBS|52=20110223-23:17:10|10=006||0|
M|45|0|0|I|20110223-23:18:10.812|71|8=FIX.4.2|9=49|35=0|34=45|49=RBS|56=TSXRBS|52=20110223-23:18:10|10=008||0|
M|46|0|0|I|20110223-23:19:10.919|71|8=FIX.4.2|9=49|35=0|34=46|49=RBS|56=TSXRBS|52=20110223-23:19:10|10=010||0|
M|47|0|0|I|20110223-23:20:11.046|71|8=FIX.4.2|9=49|35=0|34=47|49=RBS|56=TSXRBS|52=20110223-23:20:11|10=004||0|
M|48|0|0|I|20110223-23:21:11.204|71|8=FIX.4.2|9=49|35=0|34=48|49=RBS|56=TSXRBS|52=20110223-23:21:11|10=006||0|
M|49|0|0|I|20110223-23:22:11.341|71|8=FIX.4.2|9=49|35=0|34=49|49=RBS|56=TSXRBS|52=20110223-23:22:11|10=008||0|
M|50|0|0|I|20110223-23:23:11.508|71|8=FIX.4.2|9=49|35=0|34=50|49=RBS|56=TSXRBS|52=20110223-23:23:11|10=001||0|
M|51|0|0|I|20110223-23:24:11.666|71|8=FIX.4.2|9=49|35=0|34=51|49=RBS|56=TSXRBS|52=20110223-23:24:11|10=003||0|
M|52|0|0|I|20110223-23:25:11.793|71|8=FIX.4.2|9=49|35=0|34=52|49=RBS|56=TSXRBS|52=20110223-23:25:11|10=005||0|
M|53|0|0|I|20110223-23:26:11.960|71|8=FIX.4.2|9=49|35=0|34=53|49=RBS|56=TSXRBS|52=20110223-23:26:11|10=007||0|
M|54|0|0|I|20110223-23:27:12.128|71|8=FIX.4.2|9=49|35=0|34=54|49=RBS|56=TSXRBS|52=20110223-23:27:12|10=010||0|
M|55|0|0|I|20110223-23:28:12.265|71|8=FIX.4.2|9=49|35=0|34=55|49=RBS|56=TSXRBS|52=20110223-23:28:12|10=012||0|
M|56|0|0|I|20110223-23:29:12.423|71|8=FIX.4.2|9=49|35=0|34=56|49=RBS|56=TSXRBS|52=20110223-23:29:12|10=014||0|
M|57|0|0|I|20110223-23:30:12.550|71|8=FIX.4.2|9=49|35=0|34=57|49=RBS|56=TSXRBS|52=20110223-23:30:12|10=007||0|
M|58|0|0|I|20110223-23:31:12.697|71|8=FIX.4.2|9=49|35=0|34=58|49=RBS|56=TSXRBS|52=20110223-23:31:12|10=009||0|
M|59|0|0|I|20110223-23:32:12.805|71|8=FIX.4.2|9=49|35=0|34=59|49=RBS|56=TSXRBS|52=20110223-23:32:12|10=011||0|
M|60|0|0|I|20110223-23:33:12.952|71|8=FIX.4.2|9=49|35=0|34=60|49=RBS|56=TSXRBS|52=20110223-23:33:12|10=004||0|
M|61|0|0|I|20110223-23:34:13.100|71|8=FIX.4.2|9=49|35=0|34=61|49=RBS|56=TSXRBS|52=20110223-23:34:13|10=007||0|
M|62|0|0|I|20110223-23:35:13.257|71|8=FIX.4.2|9=49|35=0|34=62|49=RBS|56=TSXRBS|52=20110223-23:35:13|10=009||0|
M|63|0|0|I|20110223-23:36:13.424|71|8=FIX.4.2|9=49|35=0|34=63|49=RBS|56=TSXRBS|52=20110223-23:36:13|10=011||0|
M|64|0|0|I|20110223-23:37:13.572|71|8=FIX.4.2|9=49|35=0|34=64|49=RBS|56=TSXRBS|52=20110223-23:37:13|10=013||0|
M|65|0|0|I|20110223-23:38:13.679|71|8=FIX.4.2|9=49|35=0|34=65|49=RBS|56=TSXRBS|52=20110223-23:38:13|10=015||0|
M|66|0|0|I|20110223-23:39:13.836|71|8=FIX.4.2|9=49|35=0|34=66|49=RBS|56=TSXRBS|52=20110223-23:39:13|10=017||0|
M|67|0|0|I|20110223-23:40:13.974|71|8=FIX.4.2|9=49|35=0|34=67|49=RBS|56=TSXRBS|52=20110223-23:40:13|10=010||0|
M|68|0|0|I|20110223-23:41:14.091|71|8=FIX.4.2|9=49|35=0|34=68|49=RBS|56=TSXRBS|52=20110223-23:41:14|10=013||0|
M|69|0|0|I|20110223-23:42:14.219|71|8=FIX.4.2|9=49|35=0|34=69|49=RBS|56=TSXRBS|52=20110223-23:42:14|10=015||0|
M|70|0|0|I|20110223-23:43:14.336|71|8=FIX.4.2|9=49|35=0|34=70|49=RBS|56=TSXRBS|52=20110223-23:43:14|10=008||0|
M|71|0|0|I|20110223-23:44:14.453|71|8=FIX.4.2|9=49|35=0|34=71|49=RBS|56=TSXRBS|52=20110223-23:44:14|10=010||0|
M|72|0|0|I|20110223-23:45:14.591|71|8=FIX.4.2|9=49|35=0|34=72|49=RBS|56=TSXRBS|52=20110223-23:45:14|10=012||0|
M|73|0|0|I|20110223-23:46:14.748|71|8=FIX.4.2|9=49|35=0|34=73|49=RBS|56=TSXRBS|52=20110223-23:46:14|10=014||0|
M|74|0|0|I|20110223-23:47:14.886|71|8=FIX.4.2|9=49|35=0|34=74|49=RBS|56=TSXRBS|52=20110223-23:47:14|10=016||0|
M|75|0|0|I|20110223-23:48:14.993|71|8=FIX.4.2|9=49|35=0|34=75|49=RBS|56=TSXRBS|52=20110223-23:48:14|10=018||0|
M|76|0|0|I|20110223-23:49:15.140|71|8=FIX.4.2|9=49|35=0|34=76|49=RBS|56=TSXRBS|52=20110223-23:49:15|10=021||0|
M|77|0|0|I|20110223-23:50:15.298|71|8=FIX.4.2|9=49|35=0|34=77|49=RBS|56=TSXRBS|52=20110223-23:50:15|10=014||0|
M|78|0|0|I|20110223-23:51:15.465|71|8=FIX.4.2|9=49|35=0|34=78|49=RBS|56=TSXRBS|52=20110223-23:51:15|10=016||0|
M|79|0|0|I|20110223-23:52:15.592|71|8=FIX.4.2|9=49|35=0|34=79|49=RBS|56=TSXRBS|52=20110223-23:52:15|10=018||0|
M|80|0|0|I|20110223-23:53:15.730|71|8=FIX.4.2|9=49|35=0|34=80|49=RBS|56=TSXRBS|52=20110223-23:53:15|10=011||0|
M|81|0|0|I|20110223-23:54:15.857|71|8=FIX.4.2|9=49|35=0|34=81|49=RBS|56=TSXRBS|52=20110223-23:54:15|10=013||0|
M|82|0|0|I|20110223-23:55:15.995|71|8=FIX.4.2|9=49|35=0|34=82|49=RBS|56=TSXRBS|52=20110223-23:55:15|10=015||0|
M|83|0|0|I|20110223-23:56:16.142|71|8=FIX.4.2|9=49|35=0|34=83|49=RBS|56=TSXRBS|52=20110223-23:56:16|10=018||0|
M|84|0|0|I|20110223-23:57:16.269|71|8=FIX.4.2|9=49|35=0|34=84|49=RBS|56=TSXRBS|52=20110223-23:57:16|10=020||0|
M|85|0|0|I|20110223-23:58:16.417|71|8=FIX.4.2|9=49|35=0|34=85|49=RBS|56=TSXRBS|52=20110223-23:58:16|10=022||0|
M|86|0|0|I|20110223-23:59:16.534|71|8=FIX.4.2|9=49|35=0|34=86|49=RBS|56=TSXRBS|52=20110223-23:59:16|10=024||0|
M|87|0|0|I|20110224-00:00:16.642|71|8=FIX.4.2|9=49|35=0|34=87|49=RBS|56=TSXRBS|52=20110224-00:00:16|10=007||0|
M|88|0|0|I|20110224-00:01:16.769|71|8=FIX.4.2|9=49|35=0|34=88|49=RBS|56=TSXRBS|52=20110224-00:01:16|10=009||0|
M|89|0|0|I|20110224-00:02:16.896|71|8=FIX.4.2|9=49|35=0|34=89|49=RBS|56=TSXRBS|52=20110224-00:02:16|10=011||0|
M|90|0|0|I|20110224-00:03:17.024|71|8=FIX.4.2|9=49|35=0|34=90|49=RBS|56=TSXRBS|52=20110224-00:03:17|10=005||0|
M|91|0|0|I|20110224-00:04:17.121|71|8=FIX.4.2|9=49|35=0|34=91|49=RBS|56=TSXRBS|52=20110224-00:04:17|10=007||0|
M|92|0|0|I|20110224-00:05:17.248|71|8=FIX.4.2|9=49|35=0|34=92|49=RBS|56=TSXRBS|52=20110224-00:05:17|10=009||0|
M|93|0|0|I|20110224-00:06:17.396|71|8=FIX.4.2|9=49|35=0|34=93|49=RBS|56=TSXRBS|52=20110224-00:06:17|10=011||0|
M|94|0|0|I|20110224-00:07:17.523|71|8=FIX.4.2|9=49|35=0|34=94|49=RBS|56=TSXRBS|52=20110224-00:07:17|10=013||0|
M|95|0|0|I|20110224-00:08:17.650|71|8=FIX.4.2|9=49|35=0|34=95|49=RBS|56=TSXRBS|52=20110224-00:08:17|10=015||0|
M|96|0|0|I|20110224-00:09:17.788|71|8=FIX.4.2|9=49|35=0|34=96|49=RBS|56=TSXRBS|52=20110224-00:09:17|10=017||0|
M|97|0|0|I|20110224-00:10:17.935|71|8=FIX.4.2|9=49|35=0|34=97|49=RBS|56=TSXRBS|52=20110224-00:10:17|10=010||0|
M|98|0|0|I|20110224-00:11:18.063|71|8=FIX.4.2|9=49|35=0|34=98|49=RBS|56=TSXRBS|52=20110224-00:11:18|10=013||0|
M|99|0|0|I|20110224-00:12:18.200|71|8=FIX.4.2|9=49|35=0|34=99|49=RBS|56=TSXRBS|52=20110224-00:12:18|10=015||0|
M|100|0|0|I|20110224-00:13:18.367|72|8=FIX.4.2|9=50|35=0|34=100|49=RBS|56=TSXRBS|52=20110224-00:13:18|10=039||0|
M|101|0|0|I|20110224-00:14:18.515|72|8=FIX.4.2|9=50|35=0|34=101|49=RBS|56=TSXRBS|52=20110224-00:14:18|10=041||0|
M|102|0|0|I|20110224-00:15:18.672|72|8=FIX.4.2|9=50|35=0|34=102|49=RBS|56=TSXRBS|52=20110224-00:15:18|10=043||0|
M|103|0|0|I|20110224-00:16:18.810|72|8=FIX.4.2|9=50|35=0|34=103|49=RBS|56=TSXRBS|52=20110224-00:16:18|10=045||0|
M|104|0|0|I|20110224-00:17:18.897|72|8=FIX.4.2|9=50|35=0|34=104|49=RBS|56=TSXRBS|52=20110224-00:17:18|10=047||0|
M|105|0|0|I|20110224-00:18:19.004|72|8=FIX.4.2|9=50|35=0|34=105|49=RBS|56=TSXRBS|52=20110224-00:18:19|10=050||0|
M|106|0|0|I|20110224-00:19:19.132|72|8=FIX.4.2|9=50|35=0|34=106|49=RBS|56=TSXRBS|52=20110224-00:19:19|10=052||0|
M|107|0|0|I|20110224-00:20:19.289|72|8=FIX.4.2|9=50|35=0|34=107|49=RBS|56=TSXRBS|52=20110224-00:20:19|10=045||0|
M|108|0|0|I|20110224-00:21:19.416|72|8=FIX.4.2|9=50|35=0|34=108|49=RBS|56=TSXRBS|52=20110224-00:21:19|10=047||0|
M|109|0|0|I|20110224-00:22:19.575|72|8=FIX.4.2|9=50|35=0|34=109|49=RBS|56=TSXRBS|52=20110224-00:22:19|10=049||0|
M|110|0|0|I|20110224-00:23:19.731|72|8=FIX.4.2|9=50|35=0|34=110|49=RBS|56=TSXRBS|52=20110224-00:23:19|10=042||0|
M|111|0|0|I|20110224-00:24:19.878|72|8=FIX.4.2|9=50|35=0|34=111|49=RBS|56=TSXRBS|52=20110224-00:24:19|10=044||0|
M|112|0|0|I|20110224-00:25:20.026|72|8=FIX.4.2|9=50|35=0|34=112|49=RBS|56=TSXRBS|52=20110224-00:25:20|10=038||0|
M|113|0|0|I|20110224-00:26:20.173|72|8=FIX.4.2|9=50|35=0|34=113|49=RBS|56=TSXRBS|52=20110224-00:26:20|10=040||0|
M|114|0|0|I|20110224-00:27:20.311|72|8=FIX.4.2|9=50|35=0|34=114|49=RBS|56=TSXRBS|52=20110224-00:27:20|10=042||0|
M|115|0|0|I|20110224-00:28:20.458|72|8=FIX.4.2|9=50|35=0|34=115|49=RBS|56=TSXRBS|52=20110224-00:28:20|10=044||0|
M|116|0|0|I|20110224-00:29:20.575|72|8=FIX.4.2|9=50|35=0|34=116|49=RBS|56=TSXRBS|52=20110224-00:29:20|10=046||0|
M|117|0|0|I|20110224-00:30:20.713|72|8=FIX.4.2|9=50|35=0|34=117|49=RBS|56=TSXRBS|52=20110224-00:30:20|10=039||0|
M|118|0|0|I|20110224-00:31:20.840|72|8=FIX.4.2|9=50|35=0|34=118|49=RBS|56=TSXRBS|52=20110224-00:31:20|10=041||0|
M|119|0|0|I|20110224-00:32:20.988|72|8=FIX.4.2|9=50|35=0|34=119|49=RBS|56=TSXRBS|52=20110224-00:32:20|10=043||0|
M|120|0|0|I|20110224-00:33:21.145|72|8=FIX.4.2|9=50|35=0|34=120|49=RBS|56=TSXRBS|52=20110224-00:33:21|10=037||0|
M|121|0|0|I|20110224-00:34:21.292|72|8=FIX.4.2|9=50|35=0|34=121|49=RBS|56=TSXRBS|52=20110224-00:34:21|10=039||0|
M|122|0|0|I|20110224-00:35:21.440|72|8=FIX.4.2|9=50|35=0|34=122|49=RBS|56=TSXRBS|52=20110224-00:35:21|10=041||0|
M|123|0|0|I|20110224-00:36:21.587|72|8=FIX.4.2|9=50|35=0|34=123|49=RBS|56=TSXRBS|52=20110224-00:36:21|10=043||0|
M|124|0|0|I|20110224-00:37:21.734|72|8=FIX.4.2|9=50|35=0|34=124|49=RBS|56=TSXRBS|52=20110224-00:37:21|10=045||0|
M|125|0|0|I|20110224-00:38:21.842|72|8=FIX.4.2|9=50|35=0|34=125|49=RBS|56=TSXRBS|52=20110224-00:38:21|10=047||0|
M|126|0|0|I|20110224-00:39:21.959|72|8=FIX.4.2|9=50|35=0|34=126|49=RBS|56=TSXRBS|52=20110224-00:39:21|10=049||0|
M|127|0|0|I|20110224-00:40:22.077|72|8=FIX.4.2|9=50|35=0|34=127|49=RBS|56=TSXRBS|52=20110224-00:40:22|10=043||0|
M|128|0|0|I|20110224-00:41:22.194|72|8=FIX.4.2|9=50|35=0|34=128|49=RBS|56=TSXRBS|52=20110224-00:41:22|10=045||0|
M|129|0|0|I|20110224-00:42:22.341|72|8=FIX.4.2|9=50|35=0|34=129|49=RBS|56=TSXRBS|52=20110224-00:42:22|10=047||0|
M|130|0|0|I|20110224-00:43:22.479|72|8=FIX.4.2|9=50|35=0|34=130|49=RBS|56=TSXRBS|52=20110224-00:43:22|10=040||0|
M|131|0|0|I|20110224-00:44:22.576|72|8=FIX.4.2|9=50|35=0|34=131|49=RBS|56=TSXRBS|52=20110224-00:44:22|10=042||0|
M|132|0|0|I|20110224-00:45:22.733|72|8=FIX.4.2|9=50|35=0|34=132|49=RBS|56=TSXRBS|52=20110224-00:45:22|10=044||0|
M|133|0|0|I|20110224-00:46:22.861|72|8=FIX.4.2|9=50|35=0|34=133|49=RBS|56=TSXRBS|52=20110224-00:46:22|10=046||0|
M|134|0|0|I|20110224-00:47:23.008|72|8=FIX.4.2|9=50|35=0|34=134|49=RBS|56=TSXRBS|52=20110224-00:47:23|10=049||0|
M|135|0|0|I|20110224-00:48:23.156|72|8=FIX.4.2|9=50|35=0|34=135|49=RBS|56=TSXRBS|52=20110224-00:48:23|10=051||0|
M|136|0|0|I|20110224-00:49:23.273|72|8=FIX.4.2|9=50|35=0|34=136|49=RBS|56=TSXRBS|52=20110224-00:49:23|10=053||0|
M|137|0|0|I|20110224-00:50:23.420|72|8=FIX.4.2|9=50|35=0|34=137|49=RBS|56=TSXRBS|52=20110224-00:50:23|10=046||0|
M|138|0|0|I|20110224-00:51:23.558|72|8=FIX.4.2|9=50|35=0|34=138|49=RBS|56=TSXRBS|52=20110224-00:51:23|10=048||0|
M|139|0|0|I|20110224-00:52:23.695|72|8=FIX.4.2|9=50|35=0|34=139|49=RBS|56=TSXRBS|52=20110224-00:52:23|10=050||0|
M|140|0|0|I|20110224-00:53:23.842|72|8=FIX.4.2|9=50|35=0|34=140|49=RBS|56=TSXRBS|52=20110224-00:53:23|10=043||0|
M|141|0|0|I|20110224-00:54:23.970|72|8=FIX.4.2|9=50|35=0|34=141|49=RBS|56=TSXRBS|52=20110224-00:54:23|10=045||0|
M|142|0|0|I|20110224-00:55:24.137|72|8=FIX.4.2|9=50|35=0|34=142|49=RBS|56=TSXRBS|52=20110224-00:55:24|10=048||0|
M|143|0|0|I|20110224-00:56:24.284|72|8=FIX.4.2|9=50|35=0|34=143|49=RBS|56=TSXRBS|52=20110224-00:56:24|10=050||0|
M|144|0|0|I|20110224-00:57:24.412|72|8=FIX.4.2|9=50|35=0|34=144|49=RBS|56=TSXRBS|52=20110224-00:57:24|10=052||0|
M|145|0|0|I|20110224-00:58:24.519|72|8=FIX.4.2|9=50|35=0|34=145|49=RBS|56=TSXRBS|52=20110224-00:58:24|10=054||0|
M|146|0|0|I|20110224-00:59:24.677|72|8=FIX.4.2|9=50|35=0|34=146|49=RBS|56=TSXRBS|52=20110224-00:59:24|10=056||0|
M|147|0|0|I|20110224-01:00:24.804|72|8=FIX.4.2|9=50|35=0|34=147|49=RBS|56=TSXRBS|52=20110224-01:00:24|10=044||0|
M|148|0|0|I|20110224-01:01:24.941|72|8=FIX.4.2|9=50|35=0|34=148|49=RBS|56=TSXRBS|52=20110224-01:01:24|10=046||0|
M|149|0|0|I|20110224-01:02:25.069|72|8=FIX.4.2|9=50|35=0|34=149|49=RBS|56=TSXRBS|52=20110224-01:02:25|10=049||0|
M|150|0|0|I|20110224-01:03:25.206|72|8=FIX.4.2|9=50|35=0|34=150|49=RBS|56=TSXRBS|52=20110224-01:03:25|10=042||0|
M|151|0|0|I|20110224-01:04:25.364|72|8=FIX.4.2|9=50|35=0|34=151|49=RBS|56=TSXRBS|52=20110224-01:04:25|10=044||0|
M|152|0|0|I|20110224-01:05:25.491|72|8=FIX.4.2|9=50|35=0|34=152|49=RBS|56=TSXRBS|52=20110224-01:05:25|10=046||0|
M|153|0|0|I|20110224-01:06:25.638|72|8=FIX.4.2|9=50|35=0|34=153|49=RBS|56=TSXRBS|52=20110224-01:06:25|10=048||0|
M|154|0|0|I|20110224-01:07:25.746|72|8=FIX.4.2|9=50|35=0|34=154|49=RBS|56=TSXRBS|52=20110224-01:07:25|10=050||0|
M|155|0|0|I|20110224-01:08:25.903|72|8=FIX.4.2|9=50|35=0|34=155|49=RBS|56=TSXRBS|52=20110224-01:08:25|10=052||0|
M|156|0|0|I|20110224-01:09:26.060|72|8=FIX.4.2|9=50|35=0|34=156|49=RBS|56=TSXRBS|52=20110224-01:09:26|10=055||0|
M|157|0|0|I|20110224-01:10:26.188|72|8=FIX.4.2|9=50|35=0|34=157|49=RBS|56=TSXRBS|52=20110224-01:10:26|10=048||0|
M|158|0|0|I|20110224-01:11:26.325|72|8=FIX.4.2|9=50|35=0|34=158|49=RBS|56=TSXRBS|52=20110224-01:11:26|10=050||0|
M|159|0|0|I|20110224-01:12:26.423|72|8=FIX.4.2|9=50|35=0|34=159|49=RBS|56=TSXRBS|52=20110224-01:12:26|10=052||0|
M|160|0|0|I|20110224-01:13:26.550|72|8=FIX.4.2|9=50|35=0|34=160|49=RBS|56=TSXRBS|52=20110224-01:13:26|10=045||0|
M|161|0|0|I|20110224-01:14:26.707|72|8=FIX.4.2|9=50|35=0|34=161|49=RBS|56=TSXRBS|52=20110224-01:14:26|10=047||0|
M|162|0|0|I|20110224-01:15:26.865|72|8=FIX.4.2|9=50|35=0|34=162|49=RBS|56=TSXRBS|52=20110224-01:15:26|10=049||0|
M|163|0|0|I|20110224-01:16:26.962|72|8=FIX.4.2|9=50|35=0|34=163|49=RBS|56=TSXRBS|52=20110224-01:16:26|10=051||0|
M|164|0|0|I|20110224-01:17:27.100|72|8=FIX.4.2|9=50|35=0|34=164|49=RBS|56=TSXRBS|52=20110224-01:17:27|10=054||0|
M|165|0|0|I|20110224-01:18:27.227|72|8=FIX.4.2|9=50|35=0|34=165|49=RBS|56=TSXRBS|52=20110224-01:18:27|10=056||0|
M|166|0|0|I|20110224-01:19:27.384|72|8=FIX.4.2|9=50|35=0|34=166|49=RBS|56=TSXRBS|52=20110224-01:19:27|10=058||0|
M|167|0|0|I|20110224-01:20:27.512|72|8=FIX.4.2|9=50|35=0|34=167|49=RBS|56=TSXRBS|52=20110224-01:20:27|10=051||0|
M|168|0|0|I|20110224-01:21:27.669|72|8=FIX.4.2|9=50|35=0|34=168|49=RBS|56=TSXRBS|52=20110224-01:21:27|10=053||0|
M|169|0|0|I|20110224-01:22:27.807|72|8=FIX.4.2|9=50|35=0|34=169|49=RBS|56=TSXRBS|52=20110224-01:22:27|10=055||0|
M|170|0|0|I|20110224-01:23:27.954|72|8=FIX.4.2|9=50|35=0|34=170|49=RBS|56=TSXRBS|52=20110224-01:23:27|10=048||0|
M|171|0|0|I|20110224-01:24:28.081|72|8=FIX.4.2|9=50|35=0|34=171|49=RBS|56=TSXRBS|52=20110224-01:24:28|10=051||0|
M|172|0|0|I|20110224-01:25:28.209|72|8=FIX.4.2|9=50|35=0|34=172|49=RBS|56=TSXRBS|52=20110224-01:25:28|10=053||0|
M|173|0|0|I|20110224-01:26:28.346|72|8=FIX.4.2|9=50|35=0|34=173|49=RBS|56=TSXRBS|52=20110224-01:26:28|10=055||0|
M|174|0|0|I|20110224-01:27:28.463|72|8=FIX.4.2|9=50|35=0|34=174|49=RBS|56=TSXRBS|52=20110224-01:27:28|10=057||0|
M|175|0|0|I|20110224-01:28:28.611|72|8=FIX.4.2|9=50|35=0|34=175|49=RBS|56=TSXRBS|52=20110224-01:28:28|10=059||0|
M|176|0|0|I|20110224-01:29:28.758|72|8=FIX.4.2|9=50|35=0|34=176|49=RBS|56=TSXRBS|52=20110224-01:29:28|10=061||0|
M|177|0|0|I|20110224-01:30:28.906|72|8=FIX.4.2|9=50|35=0|34=177|49=RBS|56=TSXRBS|52=20110224-01:30:28|10=054||0|
M|178|0|0|I|20110224-01:31:29.023|72|8=FIX.4.2|9=50|35=0|34=178|49=RBS|56=TSXRBS|52=20110224-01:31:29|10=057||0|
M|179|0|0|I|20110224-01:32:29.130|72|8=FIX.4.2|9=50|35=0|34=179|49=RBS|56=TSXRBS|52=20110224-01:32:29|10=059||0|
M|180|0|0|I|20110224-01:33:29.268|72|8=FIX.4.2|9=50|35=0|34=180|49=RBS|56=TSXRBS|52=20110224-01:33:29|10=052||0|
M|181|0|0|I|20110224-01:34:29.415|72|8=FIX.4.2|9=50|35=0|34=181|49=RBS|56=TSXRBS|52=20110224-01:34:29|10=054||0|
M|182|0|0|I|20110224-01:35:29.552|72|8=FIX.4.2|9=50|35=0|34=182|49=RBS|56=TSXRBS|52=20110224-01:35:29|10=056||0|
M|183|0|0|I|20110224-01:36:29.710|72|8=FIX.4.2|9=50|35=0|34=183|49=RBS|56=TSXRBS|52=20110224-01:36:29|10=058||0|
M|184|0|0|I|20110224-01:37:29.867|72|8=FIX.4.2|9=50|35=0|34=184|49=RBS|56=TSXRBS|52=20110224-01:37:29|10=060||0|
M|185|0|0|I|20110224-01:38:29.965|72|8=FIX.4.2|9=50|35=0|34=185|49=RBS|56=TSXRBS|52=20110224-01:38:29|10=062||0|
M|186|0|0|I|20110224-01:39:30.092|72|8=FIX.4.2|9=50|35=0|34=186|49=RBS|56=TSXRBS|52=20110224-01:39:30|10=056||0|
M|187|0|0|I|20110224-01:40:30.239|72|8=FIX.4.2|9=50|35=0|34=187|49=RBS|56=TSXRBS|52=20110224-01:40:30|10=049||0|
M|188|0|0|I|20110224-01:41:30.357|72|8=FIX.4.2|9=50|35=0|34=188|49=RBS|56=TSXRBS|52=20110224-01:41:30|10=051||0|
M|189|0|0|I|20110224-01:42:30.484|72|8=FIX.4.2|9=50|35=0|34=189|49=RBS|56=TSXRBS|52=20110224-01:42:30|10=053||0|
M|190|0|0|I|20110224-01:43:30.621|72|8=FIX.4.2|9=50|35=0|34=190|49=RBS|56=TSXRBS|52=20110224-01:43:30|10=046||0|
M|191|0|0|I|20110224-01:44:30.749|72|8=FIX.4.2|9=50|35=0|34=191|49=RBS|56=TSXRBS|52=20110224-01:44:30|10=048||0|
M|192|0|0|I|20110224-01:45:30.896|72|8=FIX.4.2|9=50|35=0|34=192|49=RBS|56=TSXRBS|52=20110224-01:45:30|10=050||0|
M|193|0|0|I|20110224-01:46:31.024|72|8=FIX.4.2|9=50|35=0|34=193|49=RBS|56=TSXRBS|52=20110224-01:46:31|10=053||0|
M|194|0|0|I|20110224-01:47:31.171|72|8=FIX.4.2|9=50|35=0|34=194|49=RBS|56=TSXRBS|52=20110224-01:47:31|10=055||0|
M|195|0|0|I|20110224-01:48:31.298|72|8=FIX.4.2|9=50|35=0|34=195|49=RBS|56=TSXRBS|52=20110224-01:48:31|10=057||0|
M|196|0|0|I|20110224-01:49:31.446|72|8=FIX.4.2|9=50|35=0|34=196|49=RBS|56=TSXRBS|52=20110224-01:49:31|10=059||0|
M|197|0|0|I|20110224-01:50:31.603|72|8=FIX.4.2|9=50|35=0|34=197|49=RBS|56=TSXRBS|52=20110224-01:50:31|10=052||0|
M|198|0|0|I|20110224-01:51:31.750|72|8=FIX.4.2|9=50|35=0|34=198|49=RBS|56=TSXRBS|52=20110224-01:51:31|10=054||0|
M|199|0|0|I|20110224-01:52:31.878|72|8=FIX.4.2|9=50|35=0|34=199|49=RBS|56=TSXRBS|52=20110224-01:52:31|10=056||0|
M|200|0|0|I|20110224-01:53:32.005|72|8=FIX.4.2|9=50|35=0|34=200|49=RBS|56=TSXRBS|52=20110224-01:53:32|10=041||0|
M|201|0|0|I|20110224-01:54:32.132|72|8=FIX.4.2|9=50|35=0|34=201|49=RBS|56=TSXRBS|52=20110224-01:54:32|10=043||0|
M|202|0|0|I|20110224-01:55:32.290|72|8=FIX.4.2|9=50|35=0|34=202|49=RBS|56=TSXRBS|52=20110224-01:55:32|10=045||0|
M|203|0|0|I|20110224-01:56:32.447|72|8=FIX.4.2|9=50|35=0|34=203|49=RBS|56=TSXRBS|52=20110224-01:56:32|10=047||0|
M|204|0|0|I|20110224-01:57:32.605|72|8=FIX.4.2|9=50|35=0|34=204|49=RBS|56=TSXRBS|52=20110224-01:57:32|10=049||0|
M|205|0|0|I|20110224-01:58:32.752|72|8=FIX.4.2|9=50|35=0|34=205|49=RBS|56=TSXRBS|52=20110224-01:58:32|10=051||0|
M|206|0|0|I|20110224-01:59:32.859|72|8=FIX.4.2|9=50|35=0|34=206|49=RBS|56=TSXRBS|52=20110224-01:59:32|10=053||0|
M|207|0|0|I|20110224-02:00:33.007|72|8=FIX.4.2|9=50|35=0|34=207|49=RBS|56=TSXRBS|52=20110224-02:00:33|10=042||0|
M|208|0|0|I|20110224-02:01:33.154|72|8=FIX.4.2|9=50|35=0|34=208|49=RBS|56=TSXRBS|52=20110224-02:01:33|10=044||0|
M|209|0|0|I|20110224-02:02:33.292|72|8=FIX.4.2|9=50|35=0|34=209|49=RBS|56=TSXRBS|52=20110224-02:02:33|10=046||0|
M|210|0|0|I|20110224-02:03:33.449|72|8=FIX.4.2|9=50|35=0|34=210|49=RBS|56=TSXRBS|52=20110224-02:03:33|10=039||0|
M|211|0|0|I|20110224-02:04:33.676|72|8=FIX.4.2|9=50|35=0|34=211|49=RBS|56=TSXRBS|52=20110224-02:04:33|10=041||0|
M|212|0|0|I|20110224-02:05:33.794|72|8=FIX.4.2|9=50|35=0|34=212|49=RBS|56=TSXRBS|52=20110224-02:05:33|10=043||0|
M|213|0|0|I|20110224-02:06:33.951|72|8=FIX.4.2|9=50|35=0|34=213|49=RBS|56=TSXRBS|52=20110224-02:06:33|10=045||0|
M|214|0|0|I|20110224-02:07:34.068|72|8=FIX.4.2|9=50|35=0|34=214|49=RBS|56=TSXRBS|52=20110224-02:07:34|10=048||0|
M|215|0|0|I|20110224-02:08:34.196|72|8=FIX.4.2|9=50|35=0|34=215|49=RBS|56=TSXRBS|52=20110224-02:08:34|10=050||0|
M|216|0|0|I|20110224-02:09:34.303|72|8=FIX.4.2|9=50|35=0|34=216|49=RBS|56=TSXRBS|52=20110224-02:09:34|10=052||0|
M|217|0|0|I|20110224-02:10:34.451|72|8=FIX.4.2|9=50|35=0|34=217|49=RBS|56=TSXRBS|52=20110224-02:10:34|10=045||0|
M|218|0|0|I|20110224-02:11:34.598|72|8=FIX.4.2|9=50|35=0|34=218|49=RBS|56=TSXRBS|52=20110224-02:11:34|10=047||0|
M|219|0|0|I|20110224-02:12:34.725|72|8=FIX.4.2|9=50|35=0|34=219|49=RBS|56=TSXRBS|52=20110224-02:12:34|10=049||0|
M|220|0|0|I|20110224-02:13:34.883|72|8=FIX.4.2|9=50|35=0|34=220|49=RBS|56=TSXRBS|52=20110224-02:13:34|10=042||0|
M|221|0|0|I|20110224-02:14:35.000|72|8=FIX.4.2|9=50|35=0|34=221|49=RBS|56=TSXRBS|52=20110224-02:14:35|10=045||0|
M|222|0|0|I|20110224-02:15:35.097|72|8=FIX.4.2|9=50|35=0|34=222|49=RBS|56=TSXRBS|52=20110224-02:15:35|10=047||0|
M|223|0|0|I|20110224-02:16:35.215|72|8=FIX.4.2|9=50|35=0|34=223|49=RBS|56=TSXRBS|52=20110224-02:16:35|10=049||0|
M|224|0|0|I|20110224-02:17:35.332|72|8=FIX.4.2|9=50|35=0|34=224|49=RBS|56=TSXRBS|52=20110224-02:17:35|10=051||0|
M|225|0|0|I|20110224-02:18:35.480|72|8=FIX.4.2|9=50|35=0|34=225|49=RBS|56=TSXRBS|52=20110224-02:18:35|10=053||0|
M|226|0|0|I|20110224-02:19:35.617|72|8=FIX.4.2|9=50|35=0|34=226|49=RBS|56=TSXRBS|52=20110224-02:19:35|10=055||0|
M|227|0|0|I|20110224-02:20:35.744|72|8=FIX.4.2|9=50|35=0|34=227|49=RBS|56=TSXRBS|52=20110224-02:20:35|10=048||0|
M|228|0|0|I|20110224-02:21:35.892|72|8=FIX.4.2|9=50|35=0|34=228|49=RBS|56=TSXRBS|52=20110224-02:21:35|10=050||0|
M|229|0|0|I|20110224-02:22:36.039|72|8=FIX.4.2|9=50|35=0|34=229|49=RBS|56=TSXRBS|52=20110224-02:22:36|10=053||0|
M|230|0|0|I|20110224-02:23:36.186|72|8=FIX.4.2|9=50|35=0|34=230|49=RBS|56=TSXRBS|52=20110224-02:23:36|10=046||0|
M|231|0|0|I|20110224-02:24:36.314|72|8=FIX.4.2|9=50|35=0|34=231|49=RBS|56=TSXRBS|52=20110224-02:24:36|10=048||0|
M|232|0|0|I|20110224-02:25:36.461|72|8=FIX.4.2|9=50|35=0|34=232|49=RBS|56=TSXRBS|52=20110224-02:25:36|10=050||0|
M|233|0|0|I|20110224-02:26:36.579|72|8=FIX.4.2|9=50|35=0|34=233|49=RBS|56=TSXRBS|52=20110224-02:26:36|10=052||0|
M|234|0|0|I|20110224-02:27:36.716|72|8=FIX.4.2|9=50|35=0|34=234|49=RBS|56=TSXRBS|52=20110224-02:27:36|10=054||0|
M|235|0|0|I|20110224-02:28:36.843|72|8=FIX.4.2|9=50|35=0|34=235|49=RBS|56=TSXRBS|52=20110224-02:28:36|10=056||0|
M|236|0|0|I|20110224-02:29:37.001|72|8=FIX.4.2|9=50|35=0|34=236|49=RBS|56=TSXRBS|52=20110224-02:29:37|10=059||0|
M|237|0|0|I|20110224-02:30:37.138|72|8=FIX.4.2|9=50|35=0|34=237|49=RBS|56=TSXRBS|52=20110224-02:30:37|10=052||0|
M|238|0|0|I|20110224-02:31:37.295|72|8=FIX.4.2|9=50|35=0|34=238|49=RBS|56=TSXRBS|52=20110224-02:31:37|10=054||0|
M|239|0|0|I|20110224-02:32:37.433|72|8=FIX.4.2|9=50|35=0|34=239|49=RBS|56=TSXRBS|52=20110224-02:32:37|10=056||0|
M|240|0|0|I|20110224-02:33:37.590|72|8=FIX.4.2|9=50|35=0|34=240|49=RBS|56=TSXRBS|52=20110224-02:33:37|10=049||0|
M|241|0|0|I|20110224-02:34:37.738|72|8=FIX.4.2|9=50|35=0|34=241|49=RBS|56=TSXRBS|52=20110224-02:34:37|10=051||0|
M|242|0|0|I|20110224-02:35:37.845|72|8=FIX.4.2|9=50|35=0|34=242|49=RBS|56=TSXRBS|52=20110224-02:35:37|10=053||0|
M|243|0|0|I|20110224-02:36:37.962|72|8=FIX.4.2|9=50|35=0|34=243|49=RBS|56=TSXRBS|52=20110224-02:36:37|10=055||0|
M|244|0|0|I|20110224-02:37:38.060|72|8=FIX.4.2|9=50|35=0|34=244|49=RBS|56=TSXRBS|52=20110224-02:37:38|10=058||0|
M|245|0|0|I|20110224-02:38:38.177|72|8=FIX.4.2|9=50|35=0|34=245|49=RBS|56=TSXRBS|52=20110224-02:38:38|10=060||0|
M|246|0|0|I|20110224-02:39:38.274|72|8=FIX.4.2|9=50|35=0|34=246|49=RBS|56=TSXRBS|52=20110224-02:39:38|10=062||0|
M|247|0|0|I|20110224-02:40:38.372|72|8=FIX.4.2|9=50|35=0|34=247|49=RBS|56=TSXRBS|52=20110224-02:40:38|10=055||0|
M|248|0|0|I|20110224-02:41:38.489|72|8=FIX.4.2|9=50|35=0|34=248|49=RBS|56=TSXRBS|52=20110224-02:41:38|10=057||0|
M|249|0|0|I|20110224-02:42:38.617|72|8=FIX.4.2|9=50|35=0|34=249|49=RBS|56=TSXRBS|52=20110224-02:42:38|10=059||0|
M|250|0|0|I|20110224-02:43:38.754|72|8=FIX.4.2|9=50|35=0|34=250|49=RBS|56=TSXRBS|52=20110224-02:43:38|10=052||0|
M|251|0|0|I|20110224-02:44:38.901|72|8=FIX.4.2|9=50|35=0|34=251|49=RBS|56=TSXRBS|52=20110224-02:44:38|10=054||0|
M|252|0|0|I|20110224-02:45:39.049|72|8=FIX.4.2|9=50|35=0|34=252|49=RBS|56=TSXRBS|52=20110224-02:45:39|10=057||0|
M|253|0|0|I|20110224-02:46:39.186|72|8=FIX.4.2|9=50|35=0|34=253|49=RBS|56=TSXRBS|52=20110224-02:46:39|10=059||0|
M|254|0|0|I|20110224-02:47:39.314|72|8=FIX.4.2|9=50|35=0|34=254|49=RBS|56=TSXRBS|52=20110224-02:47:39|10=061||0|
M|255|0|0|I|20110224-02:48:39.471|72|8=FIX.4.2|9=50|35=0|34=255|49=RBS|56=TSXRBS|52=20110224-02:48:39|10=063||0|
M|256|0|0|I|20110224-02:49:39.618|72|8=FIX.4.2|9=50|35=0|34=256|49=RBS|56=TSXRBS|52=20110224-02:49:39|10=065||0|
M|257|0|0|I|20110224-02:50:39.746|72|8=FIX.4.2|9=50|35=0|34=257|49=RBS|56=TSXRBS|52=20110224-02:50:39|10=058||0|
M|258|0|0|I|20110224-02:51:39.903|72|8=FIX.4.2|9=50|35=0|34=258|49=RBS|56=TSXRBS|52=20110224-02:51:39|10=060||0|
M|259|0|0|I|20110224-02:52:40.010|72|8=FIX.4.2|9=50|35=0|34=259|49=RBS|56=TSXRBS|52=20110224-02:52:40|10=054||0|
M|260|0|0|I|20110224-02:53:40.148|72|8=FIX.4.2|9=50|35=0|34=260|49=RBS|56=TSXRBS|52=20110224-02:53:40|10=047||0|
M|261|0|0|I|20110224-02:54:40.255|72|8=FIX.4.2|9=50|35=0|34=261|49=RBS|56=TSXRBS|52=20110224-02:54:40|10=049||0|
M|262|0|0|I|20110224-02:55:40.403|72|8=FIX.4.2|9=50|35=0|34=262|49=RBS|56=TSXRBS|52=20110224-02:55:40|10=051||0|
M|263|0|0|I|20110224-02:56:40.560|72|8=FIX.4.2|9=50|35=0|34=263|49=RBS|56=TSXRBS|52=20110224-02:56:40|10=053||0|
M|264|0|0|I|20110224-02:57:40.707|72|8=FIX.4.2|9=50|35=0|34=264|49=RBS|56=TSXRBS|52=20110224-02:57:40|10=055||0|
M|265|0|0|I|20110224-02:58:40.855|72|8=FIX.4.2|9=50|35=0|34=265|49=RBS|56=TSXRBS|52=20110224-02:58:40|10=057||0|
M|266|0|0|I|20110224-02:59:40.982|72|8=FIX.4.2|9=50|35=0|34=266|49=RBS|56=TSXRBS|52=20110224-02:59:40|10=059||0|
M|267|0|0|I|20110224-03:00:41.139|72|8=FIX.4.2|9=50|35=0|34=267|49=RBS|56=TSXRBS|52=20110224-03:00:41|10=048||0|
M|268|0|0|I|20110224-03:01:41.287|72|8=FIX.4.2|9=50|35=0|34=268|49=RBS|56=TSXRBS|52=20110224-03:01:41|10=050||0|
M|269|0|0|I|20110224-03:02:41.424|72|8=FIX.4.2|9=50|35=0|34=269|49=RBS|56=TSXRBS|52=20110224-03:02:41|10=052||0|
M|270|0|0|I|20110224-03:03:41.561|72|8=FIX.4.2|9=50|35=0|34=270|49=RBS|56=TSXRBS|52=20110224-03:03:41|10=045||0|
M|271|0|0|I|20110224-03:04:41.969|72|8=FIX.4.2|9=50|35=0|34=271|49=RBS|56=TSXRBS|52=20110224-03:04:41|10=047||0|
M|272|0|0|I|20110224-03:05:42.106|72|8=FIX.4.2|9=50|35=0|34=272|49=RBS|56=TSXRBS|52=20110224-03:05:42|10=050||0|
M|273|0|0|I|20110224-03:06:42.244|72|8=FIX.4.2|9=50|35=0|34=273|49=RBS|56=TSXRBS|52=20110224-03:06:42|10=052||0|
M|274|0|0|I|20110224-03:07:42.401|72|8=FIX.4.2|9=50|35=0|34=274|49=RBS|56=TSXRBS|52=20110224-03:07:42|10=054||0|
M|275|0|0|I|20110224-03:08:42.518|72|8=FIX.4.2|9=50|35=0|34=275|49=RBS|56=TSXRBS|52=20110224-03:08:42|10=056||0|
M|276|0|0|I|20110224-03:09:42.676|72|8=FIX.4.2|9=50|35=0|34=276|49=RBS|56=TSXRBS|52=20110224-03:09:42|10=058||0|
M|277|0|0|I|20110224-03:10:42.793|72|8=FIX.4.2|9=50|35=0|34=277|49=RBS|56=TSXRBS|52=20110224-03:10:42|10=051||0|
M|278|0|0|I|20110224-03:11:42.911|72|8=FIX.4.2|9=50|35=0|34=278|49=RBS|56=TSXRBS|52=20110224-03:11:42|10=053||0|
M|279|0|0|I|20110224-03:12:43.068|72|8=FIX.4.2|9=50|35=0|34=279|49=RBS|56=TSXRBS|52=20110224-03:12:43|10=056||0|
M|280|0|0|I|20110224-03:13:43.205|72|8=FIX.4.2|9=50|35=0|34=280|49=RBS|56=TSXRBS|52=20110224-03:13:43|10=049||0|
M|281|0|0|I|20110224-03:14:43.353|72|8=FIX.4.2|9=50|35=0|34=281|49=RBS|56=TSXRBS|52=20110224-03:14:43|10=051||0|
M|282|0|0|I|20110224-03:15:43.470|72|8=FIX.4.2|9=50|35=0|34=282|49=RBS|56=TSXRBS|52=20110224-03:15:43|10=053||0|
M|283|0|0|I|20110224-03:16:43.597|72|8=FIX.4.2|9=50|35=0|34=283|49=RBS|56=TSXRBS|52=20110224-03:16:43|10=055||0|
M|284|0|0|I|20110224-03:17:43.715|72|8=FIX.4.2|9=50|35=0|34=284|49=RBS|56=TSXRBS|52=20110224-03:17:43|10=057||0|
M|285|0|0|I|20110224-03:18:43.832|72|8=FIX.4.2|9=50|35=0|34=285|49=RBS|56=TSXRBS|52=20110224-03:18:43|10=059||0|
M|286|0|0|I|20110224-03:19:43.970|72|8=FIX.4.2|9=50|35=0|34=286|49=RBS|56=TSXRBS|52=20110224-03:19:43|10=061||0|
M|287|0|0|I|20110224-03:20:44.087|72|8=FIX.4.2|9=50|35=0|34=287|49=RBS|56=TSXRBS|52=20110224-03:20:44|10=055||0|
M|288|0|0|I|20110224-03:21:44.224|72|8=FIX.4.2|9=50|35=0|34=288|49=RBS|56=TSXRBS|52=20110224-03:21:44|10=057||0|
M|289|0|0|I|20110224-03:22:44.392|72|8=FIX.4.2|9=50|35=0|34=289|49=RBS|56=TSXRBS|52=20110224-03:22:44|10=059||0|
M|290|0|0|I|20110224-03:23:44.509|72|8=FIX.4.2|9=50|35=0|34=290|49=RBS|56=TSXRBS|52=20110224-03:23:44|10=052||0|
M|291|0|0|I|20110224-03:24:44.637|72|8=FIX.4.2|9=50|35=0|34=291|49=RBS|56=TSXRBS|52=20110224-03:24:44|10=054||0|
M|292|0|0|I|20110224-03:25:44.774|72|8=FIX.4.2|9=50|35=0|34=292|49=RBS|56=TSXRBS|52=20110224-03:25:44|10=056||0|
M|293|0|0|I|20110224-03:26:44.911|72|8=FIX.4.2|9=50|35=0|34=293|49=RBS|56=TSXRBS|52=20110224-03:26:44|10=058||0|
M|294|0|0|I|20110224-03:27:45.039|72|8=FIX.4.2|9=50|35=0|34=294|49=RBS|56=TSXRBS|52=20110224-03:27:45|10=061||0|
M|295|0|0|I|20110224-03:28:45.206|72|8=FIX.4.2|9=50|35=0|34=295|49=RBS|56=TSXRBS|52=20110224-03:28:45|10=063||0|
M|296|0|0|I|20110224-03:29:45.363|72|8=FIX.4.2|9=50|35=0|34=296|49=RBS|56=TSXRBS|52=20110224-03:29:45|10=065||0|
M|297|0|0|I|20110224-03:30:45.471|72|8=FIX.4.2|9=50|35=0|34=297|49=RBS|56=TSXRBS|52=20110224-03:30:45|10=058||0|
M|298|0|0|I|20110224-03:31:45.618|72|8=FIX.4.2|9=50|35=0|34=298|49=RBS|56=TSXRBS|52=20110224-03:31:45|10=060||0|
M|299|0|0|I|20110224-03:32:45.756|72|8=FIX.4.2|9=50|35=0|34=299|49=RBS|56=TSXRBS|52=20110224-03:32:45|10=062||0|
M|300|0|0|I|20110224-03:33:45.873|72|8=FIX.4.2|9=50|35=0|34=300|49=RBS|56=TSXRBS|52=20110224-03:33:45|10=046||0|
M|301|0|0|I|20110224-03:34:46.040|72|8=FIX.4.2|9=50|35=0|34=301|49=RBS|56=TSXRBS|52=20110224-03:34:46|10=049||0|
M|302|0|0|I|20110224-03:35:46.188|72|8=FIX.4.2|9=50|35=0|34=302|49=RBS|56=TSXRBS|52=20110224-03:35:46|10=051||0|
M|303|0|0|I|20110224-03:36:46.335|72|8=FIX.4.2|9=50|35=0|34=303|49=RBS|56=TSXRBS|52=20110224-03:36:46|10=053||0|
M|304|0|0|I|20110224-03:37:46.482|72|8=FIX.4.2|9=50|35=0|34=304|49=RBS|56=TSXRBS|52=20110224-03:37:46|10=055||0|
M|305|0|0|I|20110224-03:38:46.620|72|8=FIX.4.2|9=50|35=0|34=305|49=RBS|56=TSXRBS|52=20110224-03:38:46|10=057||0|
M|306|0|0|I|20110224-03:39:46.737|72|8=FIX.4.2|9=50|35=0|34=306|49=RBS|56=TSXRBS|52=20110224-03:39:46|10=059||0|
M|307|0|0|I|20110224-03:40:46.875|72|8=FIX.4.2|9=50|35=0|34=307|49=RBS|56=TSXRBS|52=20110224-03:40:46|10=052||0|
M|308|0|0|I|20110224-03:41:46.992|72|8=FIX.4.2|9=50|35=0|34=308|49=RBS|56=TSXRBS|52=20110224-03:41:46|10=054||0|
M|309|0|0|I|20110224-03:42:47.109|72|8=FIX.4.2|9=50|35=0|34=309|49=RBS|56=TSXRBS|52=20110224-03:42:47|10=057||0|
M|310|0|0|I|20110224-03:43:47.247|72|8=FIX.4.2|9=50|35=0|34=310|49=RBS|56=TSXRBS|52=20110224-03:43:47|10=050||0|
M|311|0|0|I|20110224-03:44:47.374|72|8=FIX.4.2|9=50|35=0|34=311|49=RBS|56=TSXRBS|52=20110224-03:44:47|10=052||0|
M|312|0|0|I|20110224-03:45:47.531|72|8=FIX.4.2|9=50|35=0|34=312|49=RBS|56=TSXRBS|52=20110224-03:45:47|10=054||0|
M|313|0|0|I|20110224-03:46:47.669|72|8=FIX.4.2|9=50|35=0|34=313|49=RBS|56=TSXRBS|52=20110224-03:46:47|10=056||0|
M|314|0|0|I|20110224-03:47:47.836|72|8=FIX.4.2|9=50|35=0|34=314|49=RBS|56=TSXRBS|52=20110224-03:47:47|10=058||0|
M|315|0|0|I|20110224-03:48:47.954|72|8=FIX.4.2|9=50|35=0|34=315|49=RBS|56=TSXRBS|52=20110224-03:48:47|10=060||0|
M|316|0|0|I|20110224-03:49:48.081|72|8=FIX.4.2|9=50|35=0|34=316|49=RBS|56=TSXRBS|52=20110224-03:49:48|10=063||0|
M|317|0|0|I|20110224-03:50:48.238|72|8=FIX.4.2|9=50|35=0|34=317|49=RBS|56=TSXRBS|52=20110224-03:50:48|10=056||0|
M|318|0|0|I|20110224-03:51:48.396|72|8=FIX.4.2|9=50|35=0|34=318|49=RBS|56=TSXRBS|52=20110224-03:51:48|10=058||0|
M|319|0|0|I|20110224-03:52:48.543|72|8=FIX.4.2|9=50|35=0|34=319|49=RBS|56=TSXRBS|52=20110224-03:52:48|10=060||0|
M|320|0|0|I|20110224-03:53:48.691|72|8=FIX.4.2|9=50|35=0|34=320|49=RBS|56=TSXRBS|52=20110224-03:53:48|10=053||0|
M|321|0|0|I|20110224-03:54:48.818|72|8=FIX.4.2|9=50|35=0|34=321|49=RBS|56=TSXRBS|52=20110224-03:54:48|10=055||0|
M|322|0|0|I|20110224-03:55:48.955|72|8=FIX.4.2|9=50|35=0|34=322|49=RBS|56=TSXRBS|52=20110224-03:55:48|10=057||0|
M|323|0|0|I|20110224-03:56:49.093|72|8=FIX.4.2|9=50|35=0|34=323|49=RBS|56=TSXRBS|52=20110224-03:56:49|10=060||0|
M|324|0|0|I|20110224-03:57:49.220|72|8=FIX.4.2|9=50|35=0|34=324|49=RBS|56=TSXRBS|52=20110224-03:57:49|10=062||0|
M|325|0|0|I|20110224-03:58:49.377|72|8=FIX.4.2|9=50|35=0|34=325|49=RBS|56=TSXRBS|52=20110224-03:58:49|10=064||0|
M|326|0|0|I|20110224-03:59:49.515|72|8=FIX.4.2|9=50|35=0|34=326|49=RBS|56=TSXRBS|52=20110224-03:59:49|10=066||0|
M|327|0|0|I|20110224-04:00:49.642|72|8=FIX.4.2|9=50|35=0|34=327|49=RBS|56=TSXRBS|52=20110224-04:00:49|10=054||0|
M|328|0|0|I|20110224-04:01:49.780|72|8=FIX.4.2|9=50|35=0|34=328|49=RBS|56=TSXRBS|52=20110224-04:01:49|10=056||0|
M|329|0|0|I|20110224-04:02:49.937|72|8=FIX.4.2|9=50|35=0|34=329|49=RBS|56=TSXRBS|52=20110224-04:02:49|10=058||0|
M|330|0|0|I|20110224-04:03:50.084|72|8=FIX.4.2|9=50|35=0|34=330|49=RBS|56=TSXRBS|52=20110224-04:03:50|10=043||0|
M|331|0|0|I|20110224-04:04:50.202|72|8=FIX.4.2|9=50|35=0|34=331|49=RBS|56=TSXRBS|52=20110224-04:04:50|10=045||0|
M|332|0|0|I|20110224-04:05:50.319|72|8=FIX.4.2|9=50|35=0|34=332|49=RBS|56=TSXRBS|52=20110224-04:05:50|10=047||0|
M|333|0|0|I|20110224-04:06:50.437|72|8=FIX.4.2|9=50|35=0|34=333|49=RBS|56=TSXRBS|52=20110224-04:06:50|10=049||0|
M|334|0|0|I|20110224-04:07:50.574|72|8=FIX.4.2|9=50|35=0|34=334|49=RBS|56=TSXRBS|52=20110224-04:07:50|10=051||0|
M|335|0|0|I|20110224-04:08:50.691|72|8=FIX.4.2|9=50|35=0|34=335|49=RBS|56=TSXRBS|52=20110224-04:08:50|10=053||0|
M|336|0|0|I|20110224-04:09:50.819|72|8=FIX.4.2|9=50|35=0|34=336|49=RBS|56=TSXRBS|52=20110224-04:09:50|10=055||0|
M|337|0|0|I|20110224-04:10:50.946|72|8=FIX.4.2|9=50|35=0|34=337|49=RBS|56=TSXRBS|52=20110224-04:10:50|10=048||0|
M|338|0|0|I|20110224-04:11:51.044|72|8=FIX.4.2|9=50|35=0|34=338|49=RBS|56=TSXRBS|52=20110224-04:11:51|10=051||0|
M|339|0|0|I|20110224-04:12:51.191|72|8=FIX.4.2|9=50|35=0|34=339|49=RBS|56=TSXRBS|52=20110224-04:12:51|10=053||0|
M|340|0|0|I|20110224-04:13:51.308|72|8=FIX.4.2|9=50|35=0|34=340|49=RBS|56=TSXRBS|52=20110224-04:13:51|10=046||0|
M|341|0|0|I|20110224-04:14:51.456|72|8=FIX.4.2|9=50|35=0|34=341|49=RBS|56=TSXRBS|52=20110224-04:14:51|10=048||0|
M|342|0|0|I|20110224-04:15:51.593|72|8=FIX.4.2|9=50|35=0|34=342|49=RBS|56=TSXRBS|52=20110224-04:15:51|10=050||0|
M|343|0|0|I|20110224-04:16:51.730|72|8=FIX.4.2|9=50|35=0|34=343|49=RBS|56=TSXRBS|52=20110224-04:16:51|10=052||0|
M|344|0|0|I|20110224-04:17:51.848|72|8=FIX.4.2|9=50|35=0|34=344|49=RBS|56=TSXRBS|52=20110224-04:17:51|10=054||0|
M|345|0|0|I|20110224-04:18:51.995|72|8=FIX.4.2|9=50|35=0|34=345|49=RBS|56=TSXRBS|52=20110224-04:18:51|10=056||0|
M|346|0|0|I|20110224-04:19:52.112|72|8=FIX.4.2|9=50|35=0|34=346|49=RBS|56=TSXRBS|52=20110224-04:19:52|10=059||0|
M|347|0|0|I|20110224-04:20:52.220|72|8=FIX.4.2|9=50|35=0|34=347|49=RBS|56=TSXRBS|52=20110224-04:20:52|10=052||0|
M|348|0|0|I|20110224-04:21:52.337|72|8=FIX.4.2|9=50|35=0|34=348|49=RBS|56=TSXRBS|52=20110224-04:21:52|10=054||0|
M|349|0|0|I|20110224-04:22:52.475|72|8=FIX.4.2|9=50|35=0|34=349|49=RBS|56=TSXRBS|52=20110224-04:22:52|10=056||0|
M|350|0|0|I|20110224-04:23:52.612|72|8=FIX.4.2|9=50|35=0|34=350|49=RBS|56=TSXRBS|52=20110224-04:23:52|10=049||0|
M|351|0|0|I|20110224-04:24:52.709|72|8=FIX.4.2|9=50|35=0|34=351|49=RBS|56=TSXRBS|52=20110224-04:24:52|10=051||0|
M|352|0|0|I|20110224-04:25:52.847|72|8=FIX.4.2|9=50|35=0|34=352|49=RBS|56=TSXRBS|52=20110224-04:25:52|10=053||0|
M|353|0|0|I|20110224-04:26:52.994|72|8=FIX.4.2|9=50|35=0|34=353|49=RBS|56=TSXRBS|52=20110224-04:26:52|10=055||0|
M|354|0|0|I|20110224-04:27:53.142|72|8=FIX.4.2|9=50|35=0|34=354|49=RBS|56=TSXRBS|52=20110224-04:27:53|10=058||0|
M|355|0|0|I|20110224-04:28:53.299|72|8=FIX.4.2|9=50|35=0|34=355|49=RBS|56=TSXRBS|52=20110224-04:28:53|10=060||0|
M|356|0|0|I|20110224-04:29:53.436|72|8=FIX.4.2|9=50|35=0|34=356|49=RBS|56=TSXRBS|52=20110224-04:29:53|10=062||0|
M|357|0|0|I|20110224-04:30:53.574|72|8=FIX.4.2|9=50|35=0|34=357|49=RBS|56=TSXRBS|52=20110224-04:30:53|10=055||0|
M|358|0|0|I|20110224-04:31:53.691|72|8=FIX.4.2|9=50|35=0|34=358|49=RBS|56=TSXRBS|52=20110224-04:31:53|10=057||0|
M|359|0|0|I|20110224-04:32:53.818|72|8=FIX.4.2|9=50|35=0|34=359|49=RBS|56=TSXRBS|52=20110224-04:32:53|10=059||0|
M|360|0|0|I|20110224-04:33:53.956|72|8=FIX.4.2|9=50|35=0|34=360|49=RBS|56=TSXRBS|52=20110224-04:33:53|10=052||0|
M|361|0|0|I|20110224-04:34:54.103|72|8=FIX.4.2|9=50|35=0|34=361|49=RBS|56=TSXRBS|52=20110224-04:34:54|10=055||0|
M|362|0|0|I|20110224-04:35:54.241|72|8=FIX.4.2|9=50|35=0|34=362|49=RBS|56=TSXRBS|52=20110224-04:35:54|10=057||0|
M|363|0|0|I|20110224-04:36:54.388|72|8=FIX.4.2|9=50|35=0|34=363|49=RBS|56=TSXRBS|52=20110224-04:36:54|10=059||0|
M|364|0|0|I|20110224-04:37:54.525|72|8=FIX.4.2|9=50|35=0|34=364|49=RBS|56=TSXRBS|52=20110224-04:37:54|10=061||0|
M|365|0|0|I|20110224-04:38:54.683|72|8=FIX.4.2|9=50|35=0|34=365|49=RBS|56=TSXRBS|52=20110224-04:38:54|10=063||0|
M|366|0|0|I|20110224-04:39:54.800|72|8=FIX.4.2|9=50|35=0|34=366|49=RBS|56=TSXRBS|52=20110224-04:39:54|10=065||0|
M|367|0|0|I|20110224-04:40:54.918|72|8=FIX.4.2|9=50|35=0|34=367|49=RBS|56=TSXRBS|52=20110224-04:40:54|10=058||0|
M|368|0|0|I|20110224-04:41:55.065|72|8=FIX.4.2|9=50|35=0|34=368|49=RBS|56=TSXRBS|52=20110224-04:41:55|10=061||0|
M|369|0|0|I|20110224-04:42:55.182|72|8=FIX.4.2|9=50|35=0|34=369|49=RBS|56=TSXRBS|52=20110224-04:42:55|10=063||0|
M|370|0|0|I|20110224-04:43:55.300|72|8=FIX.4.2|9=50|35=0|34=370|49=RBS|56=TSXRBS|52=20110224-04:43:55|10=056||0|
M|371|0|0|I|20110224-04:44:55.437|72|8=FIX.4.2|9=50|35=0|34=371|49=RBS|56=TSXRBS|52=20110224-04:44:55|10=058||0|
M|372|0|0|I|20110224-04:45:55.574|72|8=FIX.4.2|9=50|35=0|34=372|49=RBS|56=TSXRBS|52=20110224-04:45:55|10=060||0|
M|373|0|0|I|20110224-04:46:55.732|72|8=FIX.4.2|9=50|35=0|34=373|49=RBS|56=TSXRBS|52=20110224-04:46:55|10=062||0|
M|374|0|0|I|20110224-04:47:55.839|72|8=FIX.4.2|9=50|35=0|34=374|49=RBS|56=TSXRBS|52=20110224-04:47:55|10=064||0|
M|375|0|0|I|20110224-04:48:55.996|72|8=FIX.4.2|9=50|35=0|34=375|49=RBS|56=TSXRBS|52=20110224-04:48:55|10=066||0|
M|376|0|0|I|20110224-04:49:56.144|72|8=FIX.4.2|9=50|35=0|34=376|49=RBS|56=TSXRBS|52=20110224-04:49:56|10=069||0|
M|377|0|0|I|20110224-04:50:56.261|72|8=FIX.4.2|9=50|35=0|34=377|49=RBS|56=TSXRBS|52=20110224-04:50:56|10=062||0|
M|378|0|0|I|20110224-04:51:56.399|72|8=FIX.4.2|9=50|35=0|34=378|49=RBS|56=TSXRBS|52=20110224-04:51:56|10=064||0|
M|379|0|0|I|20110224-04:52:56.536|72|8=FIX.4.2|9=50|35=0|34=379|49=RBS|56=TSXRBS|52=20110224-04:52:56|10=066||0|
M|380|0|0|I|20110224-04:53:56.683|72|8=FIX.4.2|9=50|35=0|34=380|49=RBS|56=TSXRBS|52=20110224-04:53:56|10=059||0|
M|381|0|0|I|20110224-04:54:56.821|72|8=FIX.4.2|9=50|35=0|34=381|49=RBS|56=TSXRBS|52=20110224-04:54:56|10=061||0|
M|382|0|0|I|20110224-04:55:56.968|72|8=FIX.4.2|9=50|35=0|34=382|49=RBS|56=TSXRBS|52=20110224-04:55:56|10=063||0|
M|383|0|0|I|20110224-04:56:57.136|72|8=FIX.4.2|9=50|35=0|34=383|49=RBS|56=TSXRBS|52=20110224-04:56:57|10=066||0|
M|384|0|0|I|20110224-04:57:57.253|72|8=FIX.4.2|9=50|35=0|34=384|49=RBS|56=TSXRBS|52=20110224-04:57:57|10=068||0|
M|385|0|0|I|20110224-04:58:57.400|72|8=FIX.4.2|9=50|35=0|34=385|49=RBS|56=TSXRBS|52=20110224-04:58:57|10=070||0|
M|386|0|0|I|20110224-04:59:57.548|72|8=FIX.4.2|9=50|35=0|34=386|49=RBS|56=TSXRBS|52=20110224-04:59:57|10=072||0|
M|387|0|0|I|20110224-05:00:57.705|72|8=FIX.4.2|9=50|35=0|34=387|49=RBS|56=TSXRBS|52=20110224-05:00:57|10=060||0|
M|388|0|0|I|20110224-05:01:57.843|72|8=FIX.4.2|9=50|35=0|34=388|49=RBS|56=TSXRBS|52=20110224-05:01:57|10=062||0|
M|389|0|0|I|20110224-05:02:57.980|72|8=FIX.4.2|9=50|35=0|34=389|49=RBS|56=TSXRBS|52=20110224-05:02:57|10=064||0|
M|390|0|0|I|20110224-05:03:58.117|72|8=FIX.4.2|9=50|35=0|34=390|49=RBS|56=TSXRBS|52=20110224-05:03:58|10=058||0|
M|391|0|0|I|20110224-05:04:58.554|72|8=FIX.4.2|9=50|35=0|34=391|49=RBS|56=TSXRBS|52=20110224-05:04:58|10=060||0|
M|392|0|0|I|20110224-05:05:58.712|72|8=FIX.4.2|9=50|35=0|34=392|49=RBS|56=TSXRBS|52=20110224-05:05:58|10=062||0|
M|393|0|0|I|20110224-05:06:58.819|72|8=FIX.4.2|9=50|35=0|34=393|49=RBS|56=TSXRBS|52=20110224-05:06:58|10=064||0|
M|394|0|0|I|20110224-05:07:58.947|72|8=FIX.4.2|9=50|35=0|34=394|49=RBS|56=TSXRBS|52=20110224-05:07:58|10=066||0|
M|395|0|0|I|20110224-05:08:59.104|72|8=FIX.4.2|9=50|35=0|34=395|49=RBS|56=TSXRBS|52=20110224-05:08:59|10=069||0|
M|396|0|0|I|20110224-05:09:59.251|72|8=FIX.4.2|9=50|35=0|34=396|49=RBS|56=TSXRBS|52=20110224-05:09:59|10=071||0|
M|397|0|0|I|20110224-05:10:59.389|72|8=FIX.4.2|9=50|35=0|34=397|49=RBS|56=TSXRBS|52=20110224-05:10:59|10=064||0|
M|398|0|0|I|20110224-05:11:59.536|72|8=FIX.4.2|9=50|35=0|34=398|49=RBS|56=TSXRBS|52=20110224-05:11:59|10=066||0|
M|399|0|0|I|20110224-05:12:59.669|72|8=FIX.4.2|9=50|35=0|34=399|49=RBS|56=TSXRBS|52=20110224-05:12:59|10=068||0|
M|400|0|0|I|20110224-05:13:59.811|72|8=FIX.4.2|9=50|35=0|34=400|49=RBS|56=TSXRBS|52=20110224-05:13:59|10=052||0|
M|401|0|0|I|20110224-05:14:59.968|72|8=FIX.4.2|9=50|35=0|34=401|49=RBS|56=TSXRBS|52=20110224-05:14:59|10=054||0|
M|402|0|0|I|20110224-05:16:00.085|72|8=FIX.4.2|9=50|35=0|34=402|49=RBS|56=TSXRBS|52=20110224-05:16:00|10=043||0|
M|403|0|0|I|20110224-05:17:00.233|72|8=FIX.4.2|9=50|35=0|34=403|49=RBS|56=TSXRBS|52=20110224-05:17:00|10=045||0|
M|404|0|0|I|20110224-05:18:00.360|72|8=FIX.4.2|9=50|35=0|34=404|49=RBS|56=TSXRBS|52=20110224-05:18:00|10=047||0|
M|405|0|0|I|20110224-05:19:00.508|72|8=FIX.4.2|9=50|35=0|34=405|49=RBS|56=TSXRBS|52=20110224-05:19:00|10=049||0|
M|406|0|0|I|20110224-05:20:00.675|72|8=FIX.4.2|9=50|35=0|34=406|49=RBS|56=TSXRBS|52=20110224-05:20:00|10=042||0|
M|407|0|0|I|20110224-05:21:00.802|72|8=FIX.4.2|9=50|35=0|34=407|49=RBS|56=TSXRBS|52=20110224-05:21:00|10=044||0|
M|408|0|0|I|20110224-05:22:00.970|72|8=FIX.4.2|9=50|35=0|34=408|49=RBS|56=TSXRBS|52=20110224-05:22:00|10=046||0|
M|409|0|0|I|20110224-05:23:01.067|72|8=FIX.4.2|9=50|35=0|34=409|49=RBS|56=TSXRBS|52=20110224-05:23:01|10=049||0|
M|410|0|0|I|20110224-05:24:01.185|72|8=FIX.4.2|9=50|35=0|34=410|49=RBS|56=TSXRBS|52=20110224-05:24:01|10=042||0|
M|411|0|0|I|20110224-05:25:01.352|72|8=FIX.4.2|9=50|35=0|34=411|49=RBS|56=TSXRBS|52=20110224-05:25:01|10=044||0|
M|412|0|0|I|20110224-05:26:01.509|72|8=FIX.4.2|9=50|35=0|34=412|49=RBS|56=TSXRBS|52=20110224-05:26:01|10=046||0|
M|413|0|0|I|20110224-05:27:01.637|72|8=FIX.4.2|9=50|35=0|34=413|49=RBS|56=TSXRBS|52=20110224-05:27:01|10=048||0|
M|414|0|0|I|20110224-05:28:01.775|72|8=FIX.4.2|9=50|35=0|34=414|49=RBS|56=TSXRBS|52=20110224-05:28:01|10=050||0|
M|415|0|0|I|20110224-05:29:01.892|72|8=FIX.4.2|9=50|35=0|34=415|49=RBS|56=TSXRBS|52=20110224-05:29:01|10=052||0|
M|416|0|0|I|20110224-05:30:02.029|72|8=FIX.4.2|9=50|35=0|34=416|49=RBS|56=TSXRBS|52=20110224-05:30:02|10=046||0|
M|417|0|0|I|20110224-05:31:02.176|72|8=FIX.4.2|9=50|35=0|34=417|49=RBS|56=TSXRBS|52=20110224-05:31:02|10=048||0|
M|418|0|0|I|20110224-05:32:02.324|72|8=FIX.4.2|9=50|35=0|34=418|49=RBS|56=TSXRBS|52=20110224-05:32:02|10=050||0|
M|419|0|0|I|20110224-05:33:02.471|72|8=FIX.4.2|9=50|35=0|34=419|49=RBS|56=TSXRBS|52=20110224-05:33:02|10=052||0|
M|420|0|0|I|20110224-05:34:02.588|72|8=FIX.4.2|9=50|35=0|34=420|49=RBS|56=TSXRBS|52=20110224-05:34:02|10=045||0|
M|421|0|0|I|20110224-05:35:02.726|72|8=FIX.4.2|9=50|35=0|34=421|49=RBS|56=TSXRBS|52=20110224-05:35:02|10=047||0|
M|422|0|0|I|20110224-05:36:02.853|72|8=FIX.4.2|9=50|35=0|34=422|49=RBS|56=TSXRBS|52=20110224-05:36:02|10=049||0|
M|423|0|0|I|20110224-05:37:02.991|72|8=FIX.4.2|9=50|35=0|34=423|49=RBS|56=TSXRBS|52=20110224-05:37:02|10=051||0|
M|424|0|0|I|20110224-05:38:03.078|72|8=FIX.4.2|9=50|35=0|34=424|49=RBS|56=TSXRBS|52=20110224-05:38:03|10=054||0|
M|425|0|0|I|20110224-05:39:03.235|72|8=FIX.4.2|9=50|35=0|34=425|49=RBS|56=TSXRBS|52=20110224-05:39:03|10=056||0|
M|426|0|0|I|20110224-05:40:03.363|72|8=FIX.4.2|9=50|35=0|34=426|49=RBS|56=TSXRBS|52=20110224-05:40:03|10=049||0|
M|427|0|0|I|20110224-05:41:03.450|72|8=FIX.4.2|9=50|35=0|34=427|49=RBS|56=TSXRBS|52=20110224-05:41:03|10=051||0|
M|428|0|0|I|20110224-05:42:03.558|72|8=FIX.4.2|9=50|35=0|34=428|49=RBS|56=TSXRBS|52=20110224-05:42:03|10=053||0|
M|429|0|0|I|20110224-05:43:03.655|72|8=FIX.4.2|9=50|35=0|34=429|49=RBS|56=TSXRBS|52=20110224-05:43:03|10=055||0|
M|430|0|0|I|20110224-05:44:03.812|72|8=FIX.4.2|9=50|35=0|34=430|49=RBS|56=TSXRBS|52=20110224-05:44:03|10=048||0|
M|431|0|0|I|20110224-05:45:03.950|72|8=FIX.4.2|9=50|35=0|34=431|49=RBS|56=TSXRBS|52=20110224-05:45:03|10=050||0|
M|432|0|0|I|20110224-05:46:04.097|72|8=FIX.4.2|9=50|35=0|34=432|49=RBS|56=TSXRBS|52=20110224-05:46:04|10=053||0|
M|433|0|0|I|20110224-05:47:04.214|72|8=FIX.4.2|9=50|35=0|34=433|49=RBS|56=TSXRBS|52=20110224-05:47:04|10=055||0|
M|434|0|0|I|20110224-05:48:04.372|72|8=FIX.4.2|9=50|35=0|34=434|49=RBS|56=TSXRBS|52=20110224-05:48:04|10=057||0|
M|435|0|0|I|20110224-05:49:04.539|72|8=FIX.4.2|9=50|35=0|34=435|49=RBS|56=TSXRBS|52=20110224-05:49:04|10=059||0|
M|436|0|0|I|20110224-05:50:04.717|72|8=FIX.4.2|9=50|35=0|34=436|49=RBS|56=TSXRBS|52=20110224-05:50:04|10=052||0|
M|437|0|0|I|20110224-05:51:04.874|72|8=FIX.4.2|9=50|35=0|34=437|49=RBS|56=TSXRBS|52=20110224-05:51:04|10=054||0|
M|438|0|0|I|20110224-05:52:05.021|72|8=FIX.4.2|9=50|35=0|34=438|49=RBS|56=TSXRBS|52=20110224-05:52:05|10=057||0|
M|439|0|0|I|20110224-05:53:05.129|72|8=FIX.4.2|9=50|35=0|34=439|49=RBS|56=TSXRBS|52=20110224-05:53:05|10=059||0|
M|440|0|0|I|20110224-05:54:05.256|72|8=FIX.4.2|9=50|35=0|34=440|49=RBS|56=TSXRBS|52=20110224-05:54:05|10=052||0|
M|441|0|0|I|20110224-05:55:05.383|72|8=FIX.4.2|9=50|35=0|34=441|49=RBS|56=TSXRBS|52=20110224-05:55:05|10=054||0|
M|442|0|0|I|20110224-05:56:05.521|72|8=FIX.4.2|9=50|35=0|34=442|49=RBS|56=TSXRBS|52=20110224-05:56:05|10=056||0|
M|443|0|0|I|20110224-05:57:05.678|72|8=FIX.4.2|9=50|35=0|34=443|49=RBS|56=TSXRBS|52=20110224-05:57:05|10=058||0|
M|444|0|0|I|20110224-05:58:05.816|72|8=FIX.4.2|9=50|35=0|34=444|49=RBS|56=TSXRBS|52=20110224-05:58:05|10=060||0|
M|445|0|0|I|20110224-05:59:05.963|72|8=FIX.4.2|9=50|35=0|34=445|49=RBS|56=TSXRBS|52=20110224-05:59:05|10=062||0|
M|446|0|0|I|20110224-06:00:06.100|72|8=FIX.4.2|9=50|35=0|34=446|49=RBS|56=TSXRBS|52=20110224-06:00:06|10=051||0|
M|447|0|0|I|20110224-06:01:06.228|72|8=FIX.4.2|9=50|35=0|34=447|49=RBS|56=TSXRBS|52=20110224-06:01:06|10=053||0|
M|448|0|0|I|20110224-06:02:06.395|72|8=FIX.4.2|9=50|35=0|34=448|49=RBS|56=TSXRBS|52=20110224-06:02:06|10=055||0|
M|449|0|0|I|20110224-06:03:06.502|72|8=FIX.4.2|9=50|35=0|34=449|49=RBS|56=TSXRBS|52=20110224-06:03:06|10=057||0|
M|450|0|0|I|20110224-06:04:06.616|72|8=FIX.4.2|9=50|35=0|34=450|49=RBS|56=TSXRBS|52=20110224-06:04:06|10=050||0|
M|451|0|0|I|20110224-06:05:06.727|72|8=FIX.4.2|9=50|35=0|34=451|49=RBS|56=TSXRBS|52=20110224-06:05:06|10=052||0|
M|452|0|0|I|20110224-06:06:06.865|72|8=FIX.4.2|9=50|35=0|34=452|49=RBS|56=TSXRBS|52=20110224-06:06:06|10=054||0|
M|453|0|0|I|20110224-06:07:07.032|72|8=FIX.4.2|9=50|35=0|34=453|49=RBS|56=TSXRBS|52=20110224-06:07:07|10=057||0|
M|454|0|0|I|20110224-06:08:07.199|72|8=FIX.4.2|9=50|35=0|34=454|49=RBS|56=TSXRBS|52=20110224-06:08:07|10=059||0|
M|455|0|0|I|20110224-06:09:07.327|72|8=FIX.4.2|9=50|35=0|34=455|49=RBS|56=TSXRBS|52=20110224-06:09:07|10=061||0|
M|456|0|0|I|20110224-06:10:07.484|72|8=FIX.4.2|9=50|35=0|34=456|49=RBS|56=TSXRBS|52=20110224-06:10:07|10=054||0|
M|457|0|0|I|20110224-06:11:07.621|72|8=FIX.4.2|9=50|35=0|34=457|49=RBS|56=TSXRBS|52=20110224-06:11:07|10=056||0|
M|458|0|0|I|20110224-06:12:07.739|72|8=FIX.4.2|9=50|35=0|34=458|49=RBS|56=TSXRBS|52=20110224-06:12:07|10=058||0|
M|459|0|0|I|20110224-06:13:07.886|72|8=FIX.4.2|9=50|35=0|34=459|49=RBS|56=TSXRBS|52=20110224-06:13:07|10=060||0|
M|460|0|0|I|20110224-06:14:07.984|72|8=FIX.4.2|9=50|35=0|34=460|49=RBS|56=TSXRBS|52=20110224-06:14:07|10=053||0|
M|461|0|0|I|20110224-06:15:08.141|72|8=FIX.4.2|9=50|35=0|34=461|49=RBS|56=TSXRBS|52=20110224-06:15:08|10=056||0|
M|462|0|0|I|20110224-06:16:08.308|72|8=FIX.4.2|9=50|35=0|34=462|49=RBS|56=TSXRBS|52=20110224-06:16:08|10=058||0|
M|463|0|0|I|20110224-06:17:08.466|72|8=FIX.4.2|9=50|35=0|34=463|49=RBS|56=TSXRBS|52=20110224-06:17:08|10=060||0|
M|464|0|0|I|20110224-06:18:08.593|72|8=FIX.4.2|9=50|35=0|34=464|49=RBS|56=TSXRBS|52=20110224-06:18:08|10=062||0|
M|465|0|0|I|20110224-06:19:08.741|72|8=FIX.4.2|9=50|35=0|34=465|49=RBS|56=TSXRBS|52=20110224-06:19:08|10=064||0|
M|466|0|0|I|20110224-06:20:08.878|72|8=FIX.4.2|9=50|35=0|34=466|49=RBS|56=TSXRBS|52=20110224-06:20:08|10=057||0|
M|467|0|0|I|20110224-06:21:08.985|72|8=FIX.4.2|9=50|35=0|34=467|49=RBS|56=TSXRBS|52=20110224-06:21:08|10=059||0|
M|468|0|0|I|20110224-06:22:09.123|72|8=FIX.4.2|9=50|35=0|34=468|49=RBS|56=TSXRBS|52=20110224-06:22:09|10=062||0|
M|469|0|0|I|20110224-06:23:09.240|72|8=FIX.4.2|9=50|35=0|34=469|49=RBS|56=TSXRBS|52=20110224-06:23:09|10=064||0|
M|470|0|0|I|20110224-06:24:09.357|72|8=FIX.4.2|9=50|35=0|34=470|49=RBS|56=TSXRBS|52=20110224-06:24:09|10=057||0|
M|471|0|0|I|20110224-06:25:09.505|72|8=FIX.4.2|9=50|35=0|34=471|49=RBS|56=TSXRBS|52=20110224-06:25:09|10=059||0|
M|472|0|0|I|20110224-06:26:09.652|72|8=FIX.4.2|9=50|35=0|34=472|49=RBS|56=TSXRBS|52=20110224-06:26:09|10=061||0|
M|473|0|0|I|20110224-06:27:09.810|72|8=FIX.4.2|9=50|35=0|34=473|49=RBS|56=TSXRBS|52=20110224-06:27:09|10=063||0|
M|474|0|0|I|20110224-06:28:09.927|72|8=FIX.4.2|9=50|35=0|34=474|49=RBS|56=TSXRBS|52=20110224-06:28:09|10=065||0|
M|475|0|0|I|20110224-06:29:10.064|72|8=FIX.4.2|9=50|35=0|34=475|49=RBS|56=TSXRBS|52=20110224-06:29:10|10=059||0|
M|476|0|0|I|20110224-06:30:10.222|72|8=FIX.4.2|9=50|35=0|34=476|49=RBS|56=TSXRBS|52=20110224-06:30:10|10=052||0|
M|477|0|0|I|20110224-06:31:10.359|72|8=FIX.4.2|9=50|35=0|34=477|49=RBS|56=TSXRBS|52=20110224-06:31:10|10=054||0|
M|478|0|0|I|20110224-06:32:10.466|72|8=FIX.4.2|9=50|35=0|34=478|49=RBS|56=TSXRBS|52=20110224-06:32:10|10=056||0|
M|479|0|0|I|20110224-06:33:10.584|72|8=FIX.4.2|9=50|35=0|34=479|49=RBS|56=TSXRBS|52=20110224-06:33:10|10=058||0|
M|480|0|0|I|20110224-06:34:10.711|72|8=FIX.4.2|9=50|35=0|34=480|49=RBS|56=TSXRBS|52=20110224-06:34:10|10=051||0|
M|481|0|0|I|20110224-06:35:10.849|72|8=FIX.4.2|9=50|35=0|34=481|49=RBS|56=TSXRBS|52=20110224-06:35:10|10=053||0|
M|482|0|0|I|20110224-06:36:11.006|72|8=FIX.4.2|9=50|35=0|34=482|49=RBS|56=TSXRBS|52=20110224-06:36:11|10=056||0|
M|483|0|0|I|20110224-06:37:11.123|72|8=FIX.4.2|9=50|35=0|34=483|49=RBS|56=TSXRBS|52=20110224-06:37:11|10=058||0|
M|484|0|0|I|20110224-06:38:11.261|72|8=FIX.4.2|9=50|35=0|34=484|49=RBS|56=TSXRBS|52=20110224-06:38:11|10=060||0|
M|485|0|0|I|20110224-06:39:11.388|72|8=FIX.4.2|9=50|35=0|34=485|49=RBS|56=TSXRBS|52=20110224-06:39:11|10=062||0|
M|486|0|0|I|20110224-06:40:11.535|72|8=FIX.4.2|9=50|35=0|34=486|49=RBS|56=TSXRBS|52=20110224-06:40:11|10=055||0|
M|487|0|0|I|20110224-06:41:11.683|72|8=FIX.4.2|9=50|35=0|34=487|49=RBS|56=TSXRBS|52=20110224-06:41:11|10=057||0|
M|488|0|0|I|20110224-06:42:11.810|72|8=FIX.4.2|9=50|35=0|34=488|49=RBS|56=TSXRBS|52=20110224-06:42:11|10=059||0|
M|489|0|0|I|20110224-06:43:11.937|72|8=FIX.4.2|9=50|35=0|34=489|49=RBS|56=TSXRBS|52=20110224-06:43:11|10=061||0|
M|490|0|0|I|20110224-06:44:12.085|72|8=FIX.4.2|9=50|35=0|34=490|49=RBS|56=TSXRBS|52=20110224-06:44:12|10=055||0|
M|491|0|0|I|20110224-06:45:12.182|72|8=FIX.4.2|9=50|35=0|34=491|49=RBS|56=TSXRBS|52=20110224-06:45:12|10=057||0|
M|492|0|0|I|20110224-06:46:12.340|72|8=FIX.4.2|9=50|35=0|34=492|49=RBS|56=TSXRBS|52=20110224-06:46:12|10=059||0|
M|493|0|0|I|20110224-06:47:12.467|72|8=FIX.4.2|9=50|35=0|34=493|49=RBS|56=TSXRBS|52=20110224-06:47:12|10=061||0|
M|494|0|0|I|20110224-06:48:12.614|72|8=FIX.4.2|9=50|35=0|34=494|49=RBS|56=TSXRBS|52=20110224-06:48:12|10=063||0|
M|495|0|0|I|20110224-06:49:12.752|72|8=FIX.4.2|9=50|35=0|34=495|49=RBS|56=TSXRBS|52=20110224-06:49:12|10=065||0|
M|496|0|0|I|20110224-06:50:12.889|72|8=FIX.4.2|9=50|35=0|34=496|49=RBS|56=TSXRBS|52=20110224-06:50:12|10=058||0|
M|497|0|0|I|20110224-06:51:13.047|72|8=FIX.4.2|9=50|35=0|34=497|49=RBS|56=TSXRBS|52=20110224-06:51:13|10=061||0|
M|498|0|0|I|20110224-06:52:13.134|72|8=FIX.4.2|9=50|35=0|34=498|49=RBS|56=TSXRBS|52=20110224-06:52:13|10=063||0|
M|499|0|0|I|20110224-06:53:13.281|72|8=FIX.4.2|9=50|35=0|34=499|49=RBS|56=TSXRBS|52=20110224-06:53:13|10=065||0|
M|500|0|0|I|20110224-06:54:13.449|72|8=FIX.4.2|9=50|35=0|34=500|49=RBS|56=TSXRBS|52=20110224-06:54:13|10=049||0|
M|501|0|0|I|20110224-06:55:13.596|72|8=FIX.4.2|9=50|35=0|34=501|49=RBS|56=TSXRBS|52=20110224-06:55:13|10=051||0|
M|502|0|0|I|20110224-06:56:13.763|72|8=FIX.4.2|9=50|35=0|34=502|49=RBS|56=TSXRBS|52=20110224-06:56:13|10=053||0|
M|503|0|0|I|20110224-06:57:13.911|72|8=FIX.4.2|9=50|35=0|34=503|49=RBS|56=TSXRBS|52=20110224-06:57:13|10=055||0|
M|504|0|0|I|20110224-06:58:14.068|72|8=FIX.4.2|9=50|35=0|34=504|49=RBS|56=TSXRBS|52=20110224-06:58:14|10=058||0|
M|505|0|0|I|20110224-06:59:14.225|72|8=FIX.4.2|9=50|35=0|34=505|49=RBS|56=TSXRBS|52=20110224-06:59:14|10=060||0|
M|506|0|0|I|20110224-07:00:14.353|72|8=FIX.4.2|9=50|35=0|34=506|49=RBS|56=TSXRBS|52=20110224-07:00:14|10=048||0|
M|507|0|0|I|20110224-07:01:14.510|72|8=FIX.4.2|9=50|35=0|34=507|49=RBS|56=TSXRBS|52=20110224-07:01:14|10=050||0|
M|508|0|0|I|20110224-07:02:14.658|72|8=FIX.4.2|9=50|35=0|34=508|49=RBS|56=TSXRBS|52=20110224-07:02:14|10=052||0|
M|509|0|0|I|20110224-07:03:14.815|72|8=FIX.4.2|9=50|35=0|34=509|49=RBS|56=TSXRBS|52=20110224-07:03:14|10=054||0|
M|510|0|0|I|20110224-07:04:14.912|72|8=FIX.4.2|9=50|35=0|34=510|49=RBS|56=TSXRBS|52=20110224-07:04:14|10=047||0|
M|511|0|0|I|20110224-07:05:15.010|72|8=FIX.4.2|9=50|35=0|34=511|49=RBS|56=TSXRBS|52=20110224-07:05:15|10=050||0|
M|512|0|0|I|20110224-07:06:15.167|72|8=FIX.4.2|9=50|35=0|34=512|49=RBS|56=TSXRBS|52=20110224-07:06:15|10=052||0|
M|513|0|0|I|20110224-07:07:15.295|72|8=FIX.4.2|9=50|35=0|34=513|49=RBS|56=TSXRBS|52=20110224-07:07:15|10=054||0|
M|514|0|0|I|20110224-07:08:15.432|72|8=FIX.4.2|9=50|35=0|34=514|49=RBS|56=TSXRBS|52=20110224-07:08:15|10=056||0|
M|515|0|0|I|20110224-07:09:15.579|72|8=FIX.4.2|9=50|35=0|34=515|49=RBS|56=TSXRBS|52=20110224-07:09:15|10=058||0|
M|516|0|0|I|20110224-07:10:15.717|72|8=FIX.4.2|9=50|35=0|34=516|49=RBS|56=TSXRBS|52=20110224-07:10:15|10=051||0|
M|517|0|0|I|20110224-07:11:15.844|72|8=FIX.4.2|9=50|35=0|34=517|49=RBS|56=TSXRBS|52=20110224-07:11:15|10=053||0|
M|518|0|0|I|20110224-07:12:15.992|72|8=FIX.4.2|9=50|35=0|34=518|49=RBS|56=TSXRBS|52=20110224-07:12:15|10=055||0|
M|519|0|0|I|20110224-07:13:16.129|72|8=FIX.4.2|9=50|35=0|34=519|49=RBS|56=TSXRBS|52=20110224-07:13:16|10=058||0|
M|520|0|0|I|20110224-07:14:16.266|72|8=FIX.4.2|9=50|35=0|34=520|49=RBS|56=TSXRBS|52=20110224-07:14:16|10=051||0|
M|521|0|0|I|20110224-07:15:16.414|72|8=FIX.4.2|9=50|35=0|34=521|49=RBS|56=TSXRBS|52=20110224-07:15:16|10=053||0|
M|522|0|0|I|20110224-07:16:16.561|72|8=FIX.4.2|9=50|35=0|34=522|49=RBS|56=TSXRBS|52=20110224-07:16:16|10=055||0|
M|523|0|0|I|20110224-07:17:16.688|72|8=FIX.4.2|9=50|35=0|34=523|49=RBS|56=TSXRBS|52=20110224-07:17:16|10=057||0|
M|524|0|0|I|20110224-07:18:16.846|72|8=FIX.4.2|9=50|35=0|34=524|49=RBS|56=TSXRBS|52=20110224-07:18:16|10=059||0|
M|525|0|0|I|20110224-07:19:16.993|72|8=FIX.4.2|9=50|35=0|34=525|49=RBS|56=TSXRBS|52=20110224-07:19:16|10=061||0|
M|526|0|0|I|20110224-07:20:17.121|72|8=FIX.4.2|9=50|35=0|34=526|49=RBS|56=TSXRBS|52=20110224-07:20:17|10=055||0|
M|527|0|0|I|20110224-07:21:17.258|72|8=FIX.4.2|9=50|35=0|34=527|49=RBS|56=TSXRBS|52=20110224-07:21:17|10=057||0|
M|528|0|0|I|20110224-07:22:17.395|72|8=FIX.4.2|9=50|35=0|34=528|49=RBS|56=TSXRBS|52=20110224-07:22:17|10=059||0|
M|529|0|0|I|20110224-07:23:17.533|72|8=FIX.4.2|9=50|35=0|34=529|49=RBS|56=TSXRBS|52=20110224-07:23:17|10=061||0|
M|530|0|0|I|20110224-07:24:17.660|72|8=FIX.4.2|9=50|35=0|34=530|49=RBS|56=TSXRBS|52=20110224-07:24:17|10=054||0|
M|531|0|0|I|20110224-07:25:17.797|72|8=FIX.4.2|9=50|35=0|34=531|49=RBS|56=TSXRBS|52=20110224-07:25:17|10=056||0|
M|532|0|0|I|20110224-07:26:17.925|72|8=FIX.4.2|9=50|35=0|34=532|49=RBS|56=TSXRBS|52=20110224-07:26:17|10=058||0|
M|533|0|0|I|20110224-07:27:18.072|72|8=FIX.4.2|9=50|35=0|34=533|49=RBS|56=TSXRBS|52=20110224-07:27:18|10=061||0|
M|534|0|0|I|20110224-07:28:18.170|72|8=FIX.4.2|9=50|35=0|34=534|49=RBS|56=TSXRBS|52=20110224-07:28:18|10=063||0|
M|535|0|0|I|20110224-07:29:18.327|72|8=FIX.4.2|9=50|35=0|34=535|49=RBS|56=TSXRBS|52=20110224-07:29:18|10=065||0|
M|536|0|0|I|20110224-07:30:18.464|72|8=FIX.4.2|9=50|35=0|34=536|49=RBS|56=TSXRBS|52=20110224-07:30:18|10=058||0|
M|537|0|0|I|20110224-07:31:18.572|72|8=FIX.4.2|9=50|35=0|34=537|49=RBS|56=TSXRBS|52=20110224-07:31:18|10=060||0|
M|538|0|0|I|20110224-07:32:18.709|72|8=FIX.4.2|9=50|35=0|34=538|49=RBS|56=TSXRBS|52=20110224-07:32:18|10=062||0|
M|539|0|0|I|20110224-07:33:18.847|72|8=FIX.4.2|9=50|35=0|34=539|49=RBS|56=TSXRBS|52=20110224-07:33:18|10=064||0|
M|540|0|0|I|20110224-07:34:18.954|72|8=FIX.4.2|9=50|35=0|34=540|49=RBS|56=TSXRBS|52=20110224-07:34:18|10=057||0|
M|541|0|0|I|20110224-07:35:19.081|72|8=FIX.4.2|9=50|35=0|34=541|49=RBS|56=TSXRBS|52=20110224-07:35:19|10=060||0|
M|542|0|0|I|20110224-07:36:19.209|72|8=FIX.4.2|9=50|35=0|34=542|49=RBS|56=TSXRBS|52=20110224-07:36:19|10=062||0|
M|543|0|0|I|20110224-07:37:19.346|72|8=FIX.4.2|9=50|35=0|34=543|49=RBS|56=TSXRBS|52=20110224-07:37:19|10=064||0|
M|544|0|0|I|20110224-07:38:19.423|72|8=FIX.4.2|9=50|35=0|34=544|49=RBS|56=TSXRBS|52=20110224-07:38:19|10=066||0|
M|545|0|0|I|20110224-07:39:19.531|72|8=FIX.4.2|9=50|35=0|34=545|49=RBS|56=TSXRBS|52=20110224-07:39:19|10=068||0|
M|546|0|0|I|20110224-07:40:19.628|72|8=FIX.4.2|9=50|35=0|34=546|49=RBS|56=TSXRBS|52=20110224-07:40:19|10=061||0|
M|547|0|0|I|20110224-07:41:19.796|72|8=FIX.4.2|9=50|35=0|34=547|49=RBS|56=TSXRBS|52=20110224-07:41:19|10=063||0|
M|548|0|0|I|20110224-07:42:19.923|72|8=FIX.4.2|9=50|35=0|34=548|49=RBS|56=TSXRBS|52=20110224-07:42:19|10=065||0|
M|549|0|0|I|20110224-07:43:20.060|72|8=FIX.4.2|9=50|35=0|34=549|49=RBS|56=TSXRBS|52=20110224-07:43:20|10=059||0|
M|550|0|0|I|20110224-07:44:20.198|72|8=FIX.4.2|9=50|35=0|34=550|49=RBS|56=TSXRBS|52=20110224-07:44:20|10=052||0|
M|551|0|0|I|20110224-07:45:20.335|72|8=FIX.4.2|9=50|35=0|34=551|49=RBS|56=TSXRBS|52=20110224-07:45:20|10=054||0|
M|552|0|0|I|20110224-07:46:20.492|72|8=FIX.4.2|9=50|35=0|34=552|49=RBS|56=TSXRBS|52=20110224-07:46:20|10=056||0|
M|553|0|0|I|20110224-07:47:20.650|72|8=FIX.4.2|9=50|35=0|34=553|49=RBS|56=TSXRBS|52=20110224-07:47:20|10=058||0|
M|554|0|0|I|20110224-07:48:20.787|72|8=FIX.4.2|9=50|35=0|34=554|49=RBS|56=TSXRBS|52=20110224-07:48:20|10=060||0|
M|555|0|0|I|20110224-07:49:20.955|72|8=FIX.4.2|9=50|35=0|34=555|49=RBS|56=TSXRBS|52=20110224-07:49:20|10=062||0|
M|556|0|0|I|20110224-07:50:21.102|72|8=FIX.4.2|9=50|35=0|34=556|49=RBS|56=TSXRBS|52=20110224-07:50:21|10=056||0|
M|557|0|0|I|20110224-07:51:21.239|72|8=FIX.4.2|9=50|35=0|34=557|49=RBS|56=TSXRBS|52=20110224-07:51:21|10=058||0|
M|558|0|0|I|20110224-07:52:21.397|72|8=FIX.4.2|9=50|35=0|34=558|49=RBS|56=TSXRBS|52=20110224-07:52:21|10=060||0|
M|559|0|0|I|20110224-07:53:21.534|72|8=FIX.4.2|9=50|35=0|34=559|49=RBS|56=TSXRBS|52=20110224-07:53:21|10=062||0|
M|560|0|0|I|20110224-07:54:21.651|72|8=FIX.4.2|9=50|35=0|34=560|49=RBS|56=TSXRBS|52=20110224-07:54:21|10=055||0|
M|561|0|0|I|20110224-07:55:21.779|72|8=FIX.4.2|9=50|35=0|34=561|49=RBS|56=TSXRBS|52=20110224-07:55:21|10=057||0|
M|562|0|0|I|20110224-07:56:21.936|72|8=FIX.4.2|9=50|35=0|34=562|49=RBS|56=TSXRBS|52=20110224-07:56:21|10=059||0|
M|563|0|0|I|20110224-07:57:22.094|72|8=FIX.4.2|9=50|35=0|34=563|49=RBS|56=TSXRBS|52=20110224-07:57:22|10=062||0|
M|564|0|0|I|20110224-07:58:22.241|72|8=FIX.4.2|9=50|35=0|34=564|49=RBS|56=TSXRBS|52=20110224-07:58:22|10=064||0|
M|565|0|0|I|20110224-07:59:22.398|72|8=FIX.4.2|9=50|35=0|34=565|49=RBS|56=TSXRBS|52=20110224-07:59:22|10=066||0|
M|566|0|0|I|20110224-08:00:22.536|72|8=FIX.4.2|9=50|35=0|34=566|49=RBS|56=TSXRBS|52=20110224-08:00:22|10=054||0|
M|567|0|0|I|20110224-08:01:22.663|72|8=FIX.4.2|9=50|35=0|34=567|49=RBS|56=TSXRBS|52=20110224-08:01:22|10=056||0|
M|568|0|0|I|20110224-08:02:22.800|72|8=FIX.4.2|9=50|35=0|34=568|49=RBS|56=TSXRBS|52=20110224-08:02:22|10=058||0|
M|569|0|0|I|20110224-08:03:22.938|72|8=FIX.4.2|9=50|35=0|34=569|49=RBS|56=TSXRBS|52=20110224-08:03:22|10=060||0|
M|570|0|0|I|20110224-08:04:23.165|72|8=FIX.4.2|9=50|35=0|34=570|49=RBS|56=TSXRBS|52=20110224-08:04:23|10=054||0|
M|571|0|0|I|20110224-08:05:23.323|72|8=FIX.4.2|9=50|35=0|34=571|49=RBS|56=TSXRBS|52=20110224-08:05:23|10=056||0|
M|572|0|0|I|20110224-08:06:23.460|72|8=FIX.4.2|9=50|35=0|34=572|49=RBS|56=TSXRBS|52=20110224-08:06:23|10=058||0|
M|573|0|0|I|20110224-08:07:23.587|72|8=FIX.4.2|9=50|35=0|34=573|49=RBS|56=TSXRBS|52=20110224-08:07:23|10=060||0|
M|574|0|0|I|20110224-08:08:23.715|72|8=FIX.4.2|9=50|35=0|34=574|49=RBS|56=TSXRBS|52=20110224-08:08:23|10=062||0|
M|575|0|8|I|20110224-08:08:48.328|340|8=FIX.4.2|9=317|35=8|128=JCAM|129=ohanff|34=575|49=RBS|56=TSXRBS|52=20110224-08:08:48|20=0|150=0|39=0|44=43.050000|37=05035216LO|6=0.000000|14=0|15=EUR|63=0|120=EUR|377=Y|17=982327|21=3|1=JCAM|55=TOTF.PA|58=ty(JCAM)|32=0|11=141102240000001R|59=0|54=1|40=2|60=20110224-08:08:48|38=85000|31=0|151=85000|48=TOTF.PA|22=5|109=JCAM|207=PA|10=019||2|AidaCode|JAMCA|ClientConnectionName|James_Caird_RBS|
M|576|0|0|I|20110224-08:09:48.331|72|8=FIX.4.2|9=50|35=0|34=576|49=RBS|56=TSXRBS|52=20110224-08:09:48|10=072||0|
M|577|0|8|I|20110224-08:10:33.583|374|8=FIX.4.2|9=351|35=8|128=JCAM|129=ohanff|34=577|49=RBS|56=TSXRBS|52=20110224-08:10:33|44=43.050000|37=05035216LO|6=43.050000|14=85000|15=EUR|63=0|120=EUR|377=Y|17=081033566|21=3|1=JCAM|55=TOTF.PA|58=ty(JCAM)|11=141102240000001R|150=2|39=2|20=0|59=0|54=1|40=2|60=20110224-08:10:33|31=43.050000|32=85000|75=20110224|38=85000|151=0|48=TOTF.PA|22=5|109=JCAM|207=PA|30=PA|10=137||2|AidaCode|JAMCA|ClientConnectionName|James_Caird_RBS|
M|578|0|0|I|20110224-08:11:33.816|72|8=FIX.4.2|9=50|35=0|34=578|49=RBS|56=TSXRBS|52=20110224-08:11:33|10=061||0|
M|579|0|0|I|20110224-08:12:33.974|72|8=FIX.4.2|9=50|35=0|34=579|49=RBS|56=TSXRBS|52=20110224-08:12:33|10=063||0|
M|580|0|0|I|20110224-08:13:34.121|72|8=FIX.4.2|9=50|35=0|34=580|49=RBS|56=TSXRBS|52=20110224-08:13:34|10=057||0|
M|581|0|0|I|20110224-08:14:34.249|72|8=FIX.4.2|9=50|35=0|34=581|49=RBS|56=TSXRBS|52=20110224-08:14:34|10=059||0|
M|582|0|0|I|20110224-08:15:34.376|72|8=FIX.4.2|9=50|35=0|34=582|49=RBS|56=TSXRBS|52=20110224-08:15:34|10=061||0|
M|583|0|0|I|20110224-08:16:34.533|72|8=FIX.4.2|9=50|35=0|34=583|49=RBS|56=TSXRBS|52=20110224-08:16:34|10=063||0|
M|584|0|0|I|20110224-08:17:34.681|72|8=FIX.4.2|9=50|35=0|34=584|49=RBS|56=TSXRBS|52=20110224-08:17:34|10=065||0|
M|585|0|0|I|20110224-08:18:34.838|72|8=FIX.4.2|9=50|35=0|34=585|49=RBS|56=TSXRBS|52=20110224-08:18:34|10=067||0|
M|586|0|0|I|20110224-08:19:34.956|72|8=FIX.4.2|9=50|35=0|34=586|49=RBS|56=TSXRBS|52=20110224-08:19:34|10=069||0|
M|587|0|0|I|20110224-08:20:35.103|72|8=FIX.4.2|9=50|35=0|34=587|49=RBS|56=TSXRBS|52=20110224-08:20:35|10=063||0|
M|588|0|0|I|20110224-08:21:35.260|72|8=FIX.4.2|9=50|35=0|34=588|49=RBS|56=TSXRBS|52=20110224-08:21:35|10=065||0|
M|589|0|0|I|20110224-08:22:35.398|72|8=FIX.4.2|9=50|35=0|34=589|49=RBS|56=TSXRBS|52=20110224-08:22:35|10=067||0|
M|590|0|0|I|20110224-08:23:35.555|72|8=FIX.4.2|9=50|35=0|34=590|49=RBS|56=TSXRBS|52=20110224-08:23:35|10=060||0|
M|591|0|0|I|20110224-08:24:35.672|72|8=FIX.4.2|9=50|35=0|34=591|49=RBS|56=TSXRBS|52=20110224-08:24:35|10=062||0|
M|592|0|0|I|20110224-08:25:35.800|72|8=FIX.4.2|9=50|35=0|34=592|49=RBS|56=TSXRBS|52=20110224-08:25:35|10=064||0|
M|593|0|0|I|20110224-08:26:35.927|72|8=FIX.4.2|9=50|35=0|34=593|49=RBS|56=TSXRBS|52=20110224-08:26:35|10=066||0|
M|594|0|0|I|20110224-08:27:36.064|72|8=FIX.4.2|9=50|35=0|34=594|49=RBS|56=TSXRBS|52=20110224-08:27:36|10=069||0|
M|595|0|0|I|20110224-08:28:36.202|72|8=FIX.4.2|9=50|35=0|34=595|49=RBS|56=TSXRBS|52=20110224-08:28:36|10=071||0|
M|596|0|0|I|20110224-08:29:36.329|72|8=FIX.4.2|9=50|35=0|34=596|49=RBS|56=TSXRBS|52=20110224-08:29:36|10=073||0|
M|597|0|0|I|20110224-08:30:36.457|72|8=FIX.4.2|9=50|35=0|34=597|49=RBS|56=TSXRBS|52=20110224-08:30:36|10=066||0|
M|598|0|0|I|20110224-08:31:36.544|72|8=FIX.4.2|9=50|35=0|34=598|49=RBS|56=TSXRBS|52=20110224-08:31:36|10=068||0|
M|599|0|0|I|20110224-08:32:36.681|72|8=FIX.4.2|9=50|35=0|34=599|49=RBS|56=TSXRBS|52=20110224-08:32:36|10=070||0|
M|600|0|0|I|20110224-08:33:36.819|72|8=FIX.4.2|9=50|35=0|34=600|49=RBS|56=TSXRBS|52=20110224-08:33:36|10=054||0|
M|601|0|0|I|20110224-08:34:36.966|72|8=FIX.4.2|9=50|35=0|34=601|49=RBS|56=TSXRBS|52=20110224-08:34:36|10=056||0|
M|602|0|0|I|20110224-08:35:37.104|72|8=FIX.4.2|9=50|35=0|34=602|49=RBS|56=TSXRBS|52=20110224-08:35:37|10=059||0|
M|603|0|0|I|20110224-08:36:37.251|72|8=FIX.4.2|9=50|35=0|34=603|49=RBS|56=TSXRBS|52=20110224-08:36:37|10=061||0|
M|604|0|0|I|20110224-08:37:37.388|72|8=FIX.4.2|9=50|35=0|34=604|49=RBS|56=TSXRBS|52=20110224-08:37:37|10=063||0|
M|605|0|0|I|20110224-08:38:37.516|72|8=FIX.4.2|9=50|35=0|34=605|49=RBS|56=TSXRBS|52=20110224-08:38:37|10=065||0|
M|606|0|0|I|20110224-08:39:37.643|72|8=FIX.4.2|9=50|35=0|34=606|49=RBS|56=TSXRBS|52=20110224-08:39:37|10=067||0|
M|607|0|0|I|20110224-08:40:37.781|72|8=FIX.4.2|9=50|35=0|34=607|49=RBS|56=TSXRBS|52=20110224-08:40:37|10=060||0|
M|608|0|0|I|20110224-08:41:37.928|72|8=FIX.4.2|9=50|35=0|34=608|49=RBS|56=TSXRBS|52=20110224-08:41:37|10=062||0|
M|609|0|0|I|20110224-08:42:38.065|72|8=FIX.4.2|9=50|35=0|34=609|49=RBS|56=TSXRBS|52=20110224-08:42:38|10=065||0|
M|610|0|0|I|20110224-08:43:38.223|72|8=FIX.4.2|9=50|35=0|34=610|49=RBS|56=TSXRBS|52=20110224-08:43:38|10=058||0|
M|611|0|0|I|20110224-08:44:38.380|72|8=FIX.4.2|9=50|35=0|34=611|49=RBS|56=TSXRBS|52=20110224-08:44:38|10=060||0|
M|612|0|0|I|20110224-08:45:38.508|72|8=FIX.4.2|9=50|35=0|34=612|49=RBS|56=TSXRBS|52=20110224-08:45:38|10=062||0|
M|613|0|0|I|20110224-08:46:38.625|72|8=FIX.4.2|9=50|35=0|34=613|49=RBS|56=TSXRBS|52=20110224-08:46:38|10=064||0|
M|614|0|0|I|20110224-08:47:38.762|72|8=FIX.4.2|9=50|35=0|34=614|49=RBS|56=TSXRBS|52=20110224-08:47:38|10=066||0|
M|615|0|0|I|20110224-08:48:38.890|72|8=FIX.4.2|9=50|35=0|34=615|49=RBS|56=TSXRBS|52=20110224-08:48:38|10=068||0|
M|616|0|0|I|20110224-08:49:39.047|72|8=FIX.4.2|9=50|35=0|34=616|49=RBS|56=TSXRBS|52=20110224-08:49:39|10=071||0|
M|617|0|0|I|20110224-08:50:39.184|72|8=FIX.4.2|9=50|35=0|34=617|49=RBS|56=TSXRBS|52=20110224-08:50:39|10=064||0|
M|618|0|0|I|20110224-08:51:39.332|72|8=FIX.4.2|9=50|35=0|34=618|49=RBS|56=TSXRBS|52=20110224-08:51:39|10=066||0|
M|619|0|0|I|20110224-08:52:39.489|72|8=FIX.4.2|9=50|35=0|34=619|49=RBS|56=TSXRBS|52=20110224-08:52:39|10=068||0|
M|620|0|0|I|20110224-08:53:39.627|72|8=FIX.4.2|9=50|35=0|34=620|49=RBS|56=TSXRBS|52=20110224-08:53:39|10=061||0|
M|621|0|0|I|20110224-08:54:39.774|72|8=FIX.4.2|9=50|35=0|34=621|49=RBS|56=TSXRBS|52=20110224-08:54:39|10=063||0|
M|622|0|0|I|20110224-08:55:39.861|72|8=FIX.4.2|9=50|35=0|34=622|49=RBS|56=TSXRBS|52=20110224-08:55:39|10=065||0|
M|623|0|0|I|20110224-08:56:40.009|72|8=FIX.4.2|9=50|35=0|34=623|49=RBS|56=TSXRBS|52=20110224-08:56:40|10=059||0|
M|624|0|0|I|20110224-08:57:40.166|72|8=FIX.4.2|9=50|35=0|34=624|49=RBS|56=TSXRBS|52=20110224-08:57:40|10=061||0|
M|625|0|0|I|20110224-08:58:40.303|72|8=FIX.4.2|9=50|35=0|34=625|49=RBS|56=TSXRBS|52=20110224-08:58:40|10=063||0|
M|626|0|0|I|20110224-08:59:40.451|72|8=FIX.4.2|9=50|35=0|34=626|49=RBS|56=TSXRBS|52=20110224-08:59:40|10=065||0|
M|627|0|0|I|20110224-09:00:40.558|72|8=FIX.4.2|9=50|35=0|34=627|49=RBS|56=TSXRBS|52=20110224-09:00:40|10=053||0|
M|628|0|0|I|20110224-09:01:40.696|72|8=FIX.4.2|9=50|35=0|34=628|49=RBS|56=TSXRBS|52=20110224-09:01:40|10=055||0|
M|629|0|0|I|20110224-09:02:40.833|72|8=FIX.4.2|9=50|35=0|34=629|49=RBS|56=TSXRBS|52=20110224-09:02:40|10=057||0|
M|630|0|0|I|20110224-09:03:40.960|72|8=FIX.4.2|9=50|35=0|34=630|49=RBS|56=TSXRBS|52=20110224-09:03:40|10=050||0|
M|631|0|0|I|20110224-09:04:41.148|72|8=FIX.4.2|9=50|35=0|34=631|49=RBS|56=TSXRBS|52=20110224-09:04:41|10=053||0|
M|632|0|0|I|20110224-09:05:41.305|72|8=FIX.4.2|9=50|35=0|34=632|49=RBS|56=TSXRBS|52=20110224-09:05:41|10=055||0|
M|633|0|0|I|20110224-09:06:41.463|72|8=FIX.4.2|9=50|35=0|34=633|49=RBS|56=TSXRBS|52=20110224-09:06:41|10=057||0|
M|634|0|0|I|20110224-09:07:41.590|72|8=FIX.4.2|9=50|35=0|34=634|49=RBS|56=TSXRBS|52=20110224-09:07:41|10=059||0|
M|635|0|0|I|20110224-09:08:41.727|72|8=FIX.4.2|9=50|35=0|34=635|49=RBS|56=TSXRBS|52=20110224-09:08:41|10=061||0|
M|636|0|0|I|20110224-09:09:41.845|72|8=FIX.4.2|9=50|35=0|34=636|49=RBS|56=TSXRBS|52=20110224-09:09:41|10=063||0|
M|637|0|0|I|20110224-09:10:41.992|72|8=FIX.4.2|9=50|35=0|34=637|49=RBS|56=TSXRBS|52=20110224-09:10:41|10=056||0|
M|638|0|0|I|20110224-09:11:42.100|72|8=FIX.4.2|9=50|35=0|34=638|49=RBS|56=TSXRBS|52=20110224-09:11:42|10=059||0|
M|639|0|0|I|20110224-09:12:42.247|72|8=FIX.4.2|9=50|35=0|34=639|49=RBS|56=TSXRBS|52=20110224-09:12:42|10=061||0|
M|640|0|0|I|20110224-09:13:42.404|72|8=FIX.4.2|9=50|35=0|34=640|49=RBS|56=TSXRBS|52=20110224-09:13:42|10=054||0|
M|641|0|0|I|20110224-09:14:42.551|72|8=FIX.4.2|9=50|35=0|34=641|49=RBS|56=TSXRBS|52=20110224-09:14:42|10=056||0|
M|642|0|0|I|20110224-09:15:42.679|72|8=FIX.4.2|9=50|35=0|34=642|49=RBS|56=TSXRBS|52=20110224-09:15:42|10=058||0|
M|643|0|0|I|20110224-09:16:42.796|72|8=FIX.4.2|9=50|35=0|34=643|49=RBS|56=TSXRBS|52=20110224-09:16:42|10=060||0|
M|644|0|8|I|20110224-09:17:27.224|360|8=FIX.4.2|9=337|35=8|128=GROUPAMAAM|129=jbrice|34=644|49=RBS|56=TSXRBS|52=20110224-09:17:27|20=0|150=0|39=0|37=05035863LO|6=0|14=0|15=GBP|63=0|120=GBP|377=Y|17=2122950|21=3|1=GROUPAMAAM|55=RIO.L|58=(GROUPAMAAM)|32=0|11=141102240000002R|59=6|54=2|40=1|60=20110224-09:17:27|126=20110228-23:59:59|38=36100|31=0|151=36100|48=RIO.L|22=5|109=GROUPAMAAM|207=L|10=137||2|AidaCode|FINAS|ClientConnectionName|Groupama|
M|645|0|8|I|20110224-09:18:21.381|370|8=FIX.4.2|9=347|35=8|128=JCAM|129=cjukes|34=645|49=RBS|56=TSXRBS|52=20110224-09:18:21|20=0|150=0|39=0|37=05035868LO|6=0.000000|14=0|15=EUR|63=0|120=EUR|377=Y|17=2791362|21=3|1=JCAM|55=SRS.MI|58=100k done @ 1.828 / use 1.82 low on bal / ty(JCAM)|32=0|11=141102240000003R|59=0|54=2|40=1|60=20110224-09:18:21|38=400000|31=0|151=400000|48=SRS.MI|22=5|109=JCAM|207=MI|10=223||2|AidaCode|JAMCA|ClientConnectionName|James_Caird_RBS|
M|646|0|8|I|20110224-09:18:40.751|393|8=FIX.4.2|9=370|35=8|128=GROUPAMAAM|129=jbrice|34=646|49=RBS|56=TSXRBS|52=20110224-09:18:40|37=05035863LO|6=41.465|14=36100|15=GBP|63=0|120=GBP|377=Y|17=091840705|21=3|1=GROUPAMAAM|55=RIO.L|58=(GROUPAMAAM)|11=141102240000002R|150=2|39=2|20=0|59=6|54=2|40=1|60=20110224-09:18:40|31=41.465|32=36100|75=20110224|126=20110228-23:59:59|38=36100|151=0|48=RIO.L|22=5|109=GROUPAMAAM|207=L|30=L|10=226||2|AidaCode|FINAS|ClientConnectionName|Groupama|
M|647|0|8|I|20110224-09:19:14.505|405|8=FIX.4.2|9=382|35=8|128=JCAM|129=cjukes|34=647|49=RBS|56=TSXRBS|52=20110224-09:19:14|37=05035868LO|6=1.828000|14=10000|15=EUR|63=0|120=EUR|377=Y|17=091914489|21=3|1=JCAM|55=SRS.MI|58=100k done @ 1.828 / use 1.82 low on bal / ty(JCAM)|11=141102240000003R|150=1|39=1|20=0|59=0|54=2|40=1|60=20110224-09:19:14|31=1.828000|32=10000|75=20110224|38=400000|151=390000|48=SRS.MI|22=5|109=JCAM|207=MI|30=MI|10=194||2|AidaCode|JAMCA|ClientConnectionName|James_Caird_RBS|
M|648|0|8|I|20110224-09:19:24.437|420|8=FIX.4.2|9=397|35=8|128=JCAM|129=cjukes|34=648|49=RBS|56=TSXRBS|52=20110224-09:19:24|37=05035868LO|6=1.828000|14=100000|15=EUR|63=0|120=EUR|377=Y|17=091924415|21=3|1=JCAM|55=SRS.MI|58=100k done @ 1.828 / use 1.82 low on bal / ty(JCAM)|11=141102240000003R|150=1|39=1|20=2|59=0|54=2|40=1|60=20110224-09:19:24|31=1.828000|32=100000|19=091914489|75=20110224|38=400000|151=300000|48=SRS.MI|22=5|109=JCAM|207=MI|30=MI|10=159||2|AidaCode|JAMCA|ClientConnectionName|James_Caird_RBS|
M|649|0|0|I|20110224-09:20:24.556|72|8=FIX.4.2|9=50|35=0|34=649|49=RBS|56=TSXRBS|52=20110224-09:20:24|10=061||0|
M|650|0|0|I|20110224-09:21:24.713|72|8=FIX.4.2|9=50|35=0|34=650|49=RBS|56=TSXRBS|52=20110224-09:21:24|10=054||0|
M|651|0|0|I|20110224-09:22:24.871|72|8=FIX.4.2|9=50|35=0|34=651|49=RBS|56=TSXRBS|52=20110224-09:22:24|10=056||0|
M|652|0|0|I|20110224-09:23:25.008|72|8=FIX.4.2|9=50|35=0|34=652|49=RBS|56=TSXRBS|52=20110224-09:23:25|10=059||0|
M|653|0|0|I|20110224-09:24:25.145|72|8=FIX.4.2|9=50|35=0|34=653|49=RBS|56=TSXRBS|52=20110224-09:24:25|10=061||0|
M|654|0|8|I|20110224-09:24:29.032|407|8=FIX.4.2|9=384|35=8|128=JCAM|129=cjukes|34=654|49=RBS|56=TSXRBS|52=20110224-09:24:29|37=05035868LO|6=1.829200|14=250000|15=EUR|63=0|120=EUR|377=Y|17=092429018|21=3|1=JCAM|55=SRS.MI|58=100k done @ 1.828 / use 1.82 low on bal / ty(JCAM)|11=141102240000003R|150=1|39=1|20=0|59=0|54=2|40=1|60=20110224-09:24:29|31=1.830000|32=150000|75=20110224|38=400000|151=150000|48=SRS.MI|22=5|109=JCAM|207=MI|30=MI|10=029||2|AidaCode|JAMCA|ClientConnectionName|James_Caird_RBS|
M|655|0|0|I|20110224-09:25:29.382|72|8=FIX.4.2|9=50|35=0|34=655|49=RBS|56=TSXRBS|52=20110224-09:25:29|10=068||0|
M|656|0|0|I|20110224-09:26:29.510|72|8=FIX.4.2|9=50|35=0|34=656|49=RBS|56=TSXRBS|52=20110224-09:26:29|10=070||0|
M|657|0|0|I|20110224-09:27:29.657|72|8=FIX.4.2|9=50|35=0|34=657|49=RBS|56=TSXRBS|52=20110224-09:27:29|10=072||0|
M|658|0|0|I|20110224-09:28:29.775|72|8=FIX.4.2|9=50|35=0|34=658|49=RBS|56=TSXRBS|52=20110224-09:28:29|10=074||0|
M|659|0|0|I|20110224-09:29:29.892|72|8=FIX.4.2|9=50|35=0|34=659|49=RBS|56=TSXRBS|52=20110224-09:29:29|10=076||0|
M|660|0|0|I|20110224-09:30:30.036|72|8=FIX.4.2|9=50|35=0|34=660|49=RBS|56=TSXRBS|52=20110224-09:30:30|10=052||0|
M|661|0|0|I|20110224-09:31:30.147|72|8=FIX.4.2|9=50|35=0|34=661|49=RBS|56=TSXRBS|52=20110224-09:31:30|10=054||0|
M|662|0|0|I|20110224-09:32:30.294|72|8=FIX.4.2|9=50|35=0|34=662|49=RBS|56=TSXRBS|52=20110224-09:32:30|10=056||0|
M|663|0|0|I|20110224-09:33:30.442|72|8=FIX.4.2|9=50|35=0|34=663|49=RBS|56=TSXRBS|52=20110224-09:33:30|10=058||0|
M|664|0|0|I|20110224-09:34:30.559|72|8=FIX.4.2|9=50|35=0|34=664|49=RBS|56=TSXRBS|52=20110224-09:34:30|10=060||0|
M|665|0|0|I|20110224-09:35:30.677|72|8=FIX.4.2|9=50|35=0|34=665|49=RBS|56=TSXRBS|52=20110224-09:35:30|10=062||0|
M|666|0|0|I|20110224-09:36:30.814|72|8=FIX.4.2|9=50|35=0|34=666|49=RBS|56=TSXRBS|52=20110224-09:36:30|10=064||0|
M|667|0|0|I|20110224-09:37:30.962|72|8=FIX.4.2|9=50|35=0|34=667|49=RBS|56=TSXRBS|52=20110224-09:37:30|10=066||0|
M|668|0|0|I|20110224-09:38:31.109|72|8=FIX.4.2|9=50|35=0|34=668|49=RBS|56=TSXRBS|52=20110224-09:38:31|10=069||0|
M|669|0|0|I|20110224-09:39:31.256|72|8=FIX.4.2|9=50|35=0|34=669|49=RBS|56=TSXRBS|52=20110224-09:39:31|10=071||0|
M|670|0|8|I|20110224-09:40:28.163|406|8=FIX.4.2|9=383|35=8|128=JCAM|129=cjukes|34=670|49=RBS|56=TSXRBS|52=20110224-09:40:28|37=05035868LO|6=1.830500|14=300000|15=EUR|63=0|120=EUR|377=Y|17=094028137|21=3|1=JCAM|55=SRS.MI|58=100k done @ 1.828 / use 1.82 low on bal / ty(JCAM)|11=141102240000003R|150=1|39=1|20=0|59=0|54=2|40=1|60=20110224-09:40:28|31=1.837000|32=50000|75=20110224|38=400000|151=100000|48=SRS.MI|22=5|109=JCAM|207=MI|30=MI|10=219||2|AidaCode|JAMCA|ClientConnectionName|James_Caird_RBS|
M|671|0|0|I|20110224-09:41:28.461|72|8=FIX.4.2|9=50|35=0|34=671|49=RBS|56=TSXRBS|52=20110224-09:41:28|10=063||0|
M|672|0|0|I|20110224-09:42:28.599|72|8=FIX.4.2|9=50|35=0|34=672|49=RBS|56=TSXRBS|52=20110224-09:42:28|10=065||0|
M|673|0|0|I|20110224-09:43:28.746|72|8=FIX.4.2|9=50|35=0|34=673|49=RBS|56=TSXRBS|52=20110224-09:43:28|10=067||0|
M|674|0|0|I|20110224-09:44:28.884|72|8=FIX.4.2|9=50|35=0|34=674|49=RBS|56=TSXRBS|52=20110224-09:44:28|10=069||0|
M|675|0|8|I|20110224-09:44:56.971|336|8=FIX.4.2|9=313|35=8|128=JCAM|129=cjukes|34=675|49=RBS|56=TSXRBS|52=20110224-09:44:56|20=0|150=0|39=0|37=05036065LO|6=0.000000|14=0|15=GBP|63=0|120=GBP|377=Y|17=2766224|21=3|1=JCAM|55=BARC.L|58=done thanks(JCAM)|32=0|11=141102240000004R|59=0|54=1|40=1|60=20110224-09:44:56|38=500000|31=0|151=500000|48=BARC.L|22=5|109=JCAM|207=L|10=105||2|AidaCode|JAMCA|ClientConnectionName|James_Caird_RBS|
M|676|0|8|I|20110224-09:45:17.246|367|8=FIX.4.2|9=344|35=8|128=JCAM|129=cjukes|34=676|49=RBS|56=TSXRBS|52=20110224-09:45:17|37=05036065LO|6=3.157000|14=500000|15=GBP|63=0|120=GBP|377=Y|17=094517230|21=3|1=JCAM|55=BARC.L|58=done thanks(JCAM)|11=141102240000004R|150=2|39=2|20=0|59=0|54=1|40=1|60=20110224-09:45:17|31=3.157000|32=500000|75=20110224|38=500000|151=0|48=BARC.L|22=5|109=JCAM|207=L|30=L|10=086||2|AidaCode|JAMCA|ClientConnectionName|James_Caird_RBS|
M|677|0|0|I|20110224-09:46:17.469|72|8=FIX.4.2|9=50|35=0|34=677|49=RBS|56=TSXRBS|52=20110224-09:46:17|10=072||0|
M|678|0|0|I|20110224-09:47:17.616|72|8=FIX.4.2|9=50|35=0|34=678|49=RBS|56=TSXRBS|52=20110224-09:47:17|10=074||0|
M|679|0|0|I|20110224-09:48:17.754|72|8=FIX.4.2|9=50|35=0|34=679|49=RBS|56=TSXRBS|52=20110224-09:48:17|10=076||0|
M|680|0|0|I|20110224-09:49:17.891|72|8=FIX.4.2|9=50|35=0|34=680|49=RBS|56=TSXRBS|52=20110224-09:49:17|10=069||0|
M|681|0|0|I|20110224-09:50:18.009|72|8=FIX.4.2|9=50|35=0|34=681|49=RBS|56=TSXRBS|52=20110224-09:50:18|10=063||0|
M|682|0|0|I|20110224-09:51:18.166|72|8=FIX.4.2|9=50|35=0|34=682|49=RBS|56=TSXRBS|52=20110224-09:51:18|10=065||0|
M|683|0|0|I|20110224-09:52:18.323|72|8=FIX.4.2|9=50|35=0|34=683|49=RBS|56=TSXRBS|52=20110224-09:52:18|10=067||0|
M|684|0|8|I|20110224-09:53:09.860|384|8=FIX.4.2|9=361|35=8|128=GROUPAMAAM|129=jbrice|34=684|49=RBS|56=TSXRBS|52=20110224-09:53:09|198=13850332LO/1|20=0|150=3|39=3|32=0|37=05035863LO|6=41.465|14=36100|15=GBP|63=0|120=GBP|377=Y|17=095309845|21=3|1=GROUPAMAAM|55=RIO.L|58=(GROUPAMAAM)|11=141102240000002R|59=6|54=2|40=1|60=20110224-09:53:09|126=20110228-23:59:59|38=36100|31=0|151=0|48=RIO.L|22=5|109=GROUPAMAAM|207=L|10=124||2|AidaCode|FINAS|ClientConnectionName|Groupama|
M|685|0|0|I|20110224-09:54:09.958|72|8=FIX.4.2|9=50|35=0|34=685|49=RBS|56=TSXRBS|52=20110224-09:54:09|10=071||0|
M|686|0|0|I|20110224-09:55:10.106|72|8=FIX.4.2|9=50|35=0|34=686|49=RBS|56=TSXRBS|52=20110224-09:55:10|10=065||0|
M|687|0|0|I|20110224-09:56:10.263|72|8=FIX.4.2|9=50|35=0|34=687|49=RBS|56=TSXRBS|52=20110224-09:56:10|10=067||0|
M|688|0|0|I|20110224-09:57:10.401|72|8=FIX.4.2|9=50|35=0|34=688|49=RBS|56=TSXRBS|52=20110224-09:57:10|10=069||0|
M|689|0|0|I|20110224-09:58:10.548|72|8=FIX.4.2|9=50|35=0|34=689|49=RBS|56=TSXRBS|52=20110224-09:58:10|10=071||0|
M|690|0|8|I|20110224-09:58:59.744|372|8=FIX.4.2|9=349|35=8|128=ARROWGRASS|129=gheighton|34=690|49=RBS|56=TSXRBS|52=20110224-09:58:59|20=0|150=0|39=0|44=14.62|37=05036206LO|6=0|14=0|15=GBP|63=0|120=GBP|377=Y|17=1796150|21=3|1=AG07-GS-INTERNATIONAL|55=BG.L|58=(AG07-GS-INTERNATIONAL)|32=0|11=141102240000005R|59=0|54=1|40=2|60=20110224-09:58:59|38=400000|31=0|151=400000|48=BG.L|22=5|109=ARROWGRASS|207=L|10=186||2|AidaCode|ARRCP|ClientConnectionName|Arrowgrass_RBS|
M|691|0|0|I|20110224-10:00:00.133|72|8=FIX.4.2|9=50|35=0|34=691|49=RBS|56=TSXRBS|52=20110224-10:00:00|10=042||0|
M|692|0|0|I|20110224-10:01:00.271|72|8=FIX.4.2|9=50|35=0|34=692|49=RBS|56=TSXRBS|52=20110224-10:01:00|10=044||0|
M|693|0|8|I|20110224-10:01:40.907|355|8=FIX.4.2|9=332|35=8|128=JCAM|129=cjukes|34=693|49=RBS|56=TSXRBS|52=20110224-10:01:40|198=13851922LO/1|20=0|150=3|39=3|32=0|37=05036065LO|6=3.157000|14=500000|15=GBP|63=0|120=GBP|377=Y|17=100140890|21=3|1=JCAM|55=BARC.L|58=done thanks(JCAM)|11=141102240000004R|59=0|54=1|40=1|60=20110224-10:01:40|38=500000|31=0|151=0|48=BARC.L|22=5|109=JCAM|207=L|10=040||2|AidaCode|JAMCA|ClientConnectionName|James_Caird_RBS|
M|694|0|8|I|20110224-10:01:46.517|361|8=FIX.4.2|9=338|35=8|128=JCAM|129=ohanff|34=694|49=RBS|56=TSXRBS|52=20110224-10:01:46|198=13851930LO/1|20=0|150=3|39=3|32=0|44=43.050000|37=05035216LO|6=43.050000|14=85000|15=EUR|63=0|120=EUR|377=Y|17=100146498|21=3|1=JCAM|55=TOTF.PA|58=ty(JCAM)|11=141102240000001R|59=0|54=1|40=2|60=20110224-10:01:46|38=85000|31=0|151=0|48=TOTF.PA|22=5|109=JCAM|207=PA|10=069||2|AidaCode|JAMCA|ClientConnectionName|James_Caird_RBS|
M|695|0|8|I|20110224-10:02:45.858|409|8=FIX.4.2|9=386|35=8|128=ARROWGRASS|129=gheighton|34=695|49=RBS|56=TSXRBS|52=20110224-10:02:45|44=14.62|37=05036206LO|6=14.62|14=150000|15=GBP|63=0|120=GBP|377=Y|17=100245842|21=3|1=AG07-GS-INTERNATIONAL|55=BG.L|58=(AG07-GS-INTERNATIONAL)|11=141102240000005R|150=1|39=1|20=0|59=0|54=1|40=2|60=20110224-10:02:45|31=14.62|32=150000|75=20110224|38=400000|151=250000|48=BG.L|22=5|109=ARROWGRASS|207=L|30=L|10=151||2|AidaCode|ARRCP|ClientConnectionName|Arrowgrass_RBS|
M|696|0|0|I|20110224-10:03:45.894|72|8=FIX.4.2|9=50|35=0|34=696|49=RBS|56=TSXRBS|52=20110224-10:03:45|10=059||0|
M|697|0|0|I|20110224-10:04:46.401|72|8=FIX.4.2|9=50|35=0|34=697|49=RBS|56=TSXRBS|52=20110224-10:04:46|10=062||0|
M|698|0|8|I|20110224-10:04:50.889|405|8=FIX.4.2|9=382|35=8|128=JCAM|129=cjukes|34=698|49=RBS|56=TSXRBS|52=20110224-10:04:50|37=05035868LO|6=1.830869|14=320000|15=EUR|63=0|120=EUR|377=Y|17=100450873|21=3|1=JCAM|55=SRS.MI|58=100k done @ 1.828 / use 1.82 low on bal / ty(JCAM)|11=141102240000003R|150=1|39=1|20=0|59=0|54=2|40=1|60=20110224-10:04:50|31=1.836400|32=20000|75=20110224|38=400000|151=80000|48=SRS.MI|22=5|109=JCAM|207=MI|30=MI|10=175||2|AidaCode|JAMCA|ClientConnectionName|James_Caird_RBS|
M|699|0|0|I|20110224-10:05:51.088|72|8=FIX.4.2|9=50|35=0|34=699|49=RBS|56=TSXRBS|52=20110224-10:05:51|10=061||0|
M|700|0|0|I|20110224-10:06:51.245|72|8=FIX.4.2|9=50|35=0|34=700|49=RBS|56=TSXRBS|52=20110224-10:06:51|10=045||0|
M|701|0|0|I|20110224-10:07:51.393|72|8=FIX.4.2|9=50|35=0|34=701|49=RBS|56=TSXRBS|52=20110224-10:07:51|10=047||0|
M|702|0|0|I|20110224-10:08:51.510|72|8=FIX.4.2|9=50|35=0|34=702|49=RBS|56=TSXRBS|52=20110224-10:08:51|10=049||0|
M|703|0|0|I|20110224-10:09:51.618|72|8=FIX.4.2|9=50|35=0|34=703|49=RBS|56=TSXRBS|52=20110224-10:09:51|10=051||0|
M|704|0|0|I|20110224-10:10:51.735|72|8=FIX.4.2|9=50|35=0|34=704|49=RBS|56=TSXRBS|52=20110224-10:10:51|10=044||0|
M|705|0|0|I|20110224-10:11:51.872|72|8=FIX.4.2|9=50|35=0|34=705|49=RBS|56=TSXRBS|52=20110224-10:11:51|10=046||0|
M|706|0|0|I|20110224-10:12:51.990|72|8=FIX.4.2|9=50|35=0|34=706|49=RBS|56=TSXRBS|52=20110224-10:12:51|10=048||0|
M|707|0|0|I|20110224-10:13:52.147|72|8=FIX.4.2|9=50|35=0|34=707|49=RBS|56=TSXRBS|52=20110224-10:13:52|10=051||0|
M|708|0|8|I|20110224-10:14:50.084|405|8=FIX.4.2|9=382|35=8|128=JCAM|129=cjukes|34=708|49=RBS|56=TSXRBS|52=20110224-10:14:50|37=05035868LO|6=1.831341|14=340000|15=EUR|63=0|120=EUR|377=Y|17=101450068|21=3|1=JCAM|55=SRS.MI|58=100k done @ 1.828 / use 1.82 low on bal / ty(JCAM)|11=141102240000003R|150=1|39=1|20=0|59=0|54=2|40=1|60=20110224-10:14:50|31=1.838900|32=20000|75=20110224|38=400000|151=60000|48=SRS.MI|22=5|109=JCAM|207=MI|30=MI|10=159||2|AidaCode|JAMCA|ClientConnectionName|James_Caird_RBS|
M|709|0|0|I|20110224-10:15:50.402|72|8=FIX.4.2|9=50|35=0|34=709|49=RBS|56=TSXRBS|52=20110224-10:15:50|10=053||0|
M|710|0|0|I|20110224-10:16:50.549|72|8=FIX.4.2|9=50|35=0|34=710|49=RBS|56=TSXRBS|52=20110224-10:16:50|10=046||0|
M|711|0|0|I|20110224-10:17:50.677|72|8=FIX.4.2|9=50|35=0|34=711|49=RBS|56=TSXRBS|52=20110224-10:17:50|10=048||0|
M|712|0|0|I|20110224-10:18:50.814|72|8=FIX.4.2|9=50|35=0|34=712|49=RBS|56=TSXRBS|52=20110224-10:18:50|10=050||0|
M|713|0|0|I|20110224-10:19:50.971|72|8=FIX.4.2|9=50|35=0|34=713|49=RBS|56=TSXRBS|52=20110224-10:19:50|10=052||0|
M|714|0|0|I|20110224-10:20:51.109|72|8=FIX.4.2|9=50|35=0|34=714|49=RBS|56=TSXRBS|52=20110224-10:20:51|10=046||0|
M|715|0|0|I|20110224-10:21:51.246|72|8=FIX.4.2|9=50|35=0|34=715|49=RBS|56=TSXRBS|52=20110224-10:21:51|10=048||0|
M|716|0|0|I|20110224-10:22:51.394|72|8=FIX.4.2|9=50|35=0|34=716|49=RBS|56=TSXRBS|52=20110224-10:22:51|10=050||0|
M|717|0|8|I|20110224-10:23:26.413|405|8=FIX.4.2|9=382|35=8|128=JCAM|129=cjukes|34=717|49=RBS|56=TSXRBS|52=20110224-10:23:26|37=05035868LO|6=1.831756|14=361573|15=EUR|63=0|120=EUR|377=Y|17=102326395|21=3|1=JCAM|55=SRS.MI|58=100k done @ 1.828 / use 1.82 low on bal / ty(JCAM)|11=141102240000003R|150=1|39=1|20=0|59=0|54=2|40=1|60=20110224-10:23:26|31=1.838300|32=21573|75=20110224|38=400000|151=38427|48=SRS.MI|22=5|109=JCAM|207=MI|30=MI|10=227||2|AidaCode|JAMCA|ClientConnectionName|James_Caird_RBS|
M|718|0|0|I|20110224-10:24:26.729|72|8=FIX.4.2|9=50|35=0|34=718|49=RBS|56=TSXRBS|52=20110224-10:24:26|10=056||0|
M|719|0|0|I|20110224-10:25:26.847|72|8=FIX.4.2|9=50|35=0|34=719|49=RBS|56=TSXRBS|52=20110224-10:25:26|10=058||0|
M|720|0|0|I|20110224-10:26:26.974|72|8=FIX.4.2|9=50|35=0|34=720|49=RBS|56=TSXRBS|52=20110224-10:26:26|10=051||0|
M|721|0|0|I|20110224-10:27:27.112|72|8=FIX.4.2|9=50|35=0|34=721|49=RBS|56=TSXRBS|52=20110224-10:27:27|10=054||0|
M|722|0|0|I|20110224-10:28:27.269|72|8=FIX.4.2|9=50|35=0|34=722|49=RBS|56=TSXRBS|52=20110224-10:28:27|10=056||0|
M|723|0|0|I|20110224-10:29:27.396|72|8=FIX.4.2|9=50|35=0|34=723|49=RBS|56=TSXRBS|52=20110224-10:29:27|10=058||0|
M|724|0|0|I|20110224-10:30:27.524|72|8=FIX.4.2|9=50|35=0|34=724|49=RBS|56=TSXRBS|52=20110224-10:30:27|10=051||0|
M|725|0|8|I|20110224-10:31:08.240|401|8=FIX.4.2|9=378|35=8|128=JCAM|129=cjukes|34=725|49=RBS|56=TSXRBS|52=20110224-10:31:08|37=05035868LO|6=1.833029|14=400000|15=EUR|63=0|120=EUR|377=Y|17=103108223|21=3|1=JCAM|55=SRS.MI|58=100k done @ 1.828 / use 1.82 low on bal / ty(JCAM)|11=141102240000003R|150=2|39=2|20=0|59=0|54=2|40=1|60=20110224-10:31:08|31=1.845000|32=38427|75=20110224|38=400000|151=0|48=SRS.MI|22=5|109=JCAM|207=MI|30=MI|10=235||2|AidaCode|JAMCA|ClientConnectionName|James_Caird_RBS|
M|726|0|0|I|20110224-10:32:08.449|72|8=FIX.4.2|9=50|35=0|34=726|49=RBS|56=TSXRBS|52=20110224-10:32:08|10=054||0|
